{
	"contracts/Ecommerce.sol": {
		"ECommerce": {
			"abi": [
				{
					"inputs": [],
					"stateMutability": "nonpayable",
					"type": "constructor"
				},
				{
					"inputs": [
						{
							"internalType": "uint256",
							"name": "_id",
							"type": "uint256"
						},
						{
							"internalType": "uint256",
							"name": "_rating",
							"type": "uint256"
						}
					],
					"name": "Rating",
					"outputs": [
						{
							"internalType": "string",
							"name": "",
							"type": "string"
						}
					],
					"stateMutability": "nonpayable",
					"type": "function"
				},
				{
					"inputs": [
						{
							"internalType": "string",
							"name": "_productName",
							"type": "string"
						},
						{
							"internalType": "uint256",
							"name": "_price",
							"type": "uint256"
						},
						{
							"internalType": "uint256",
							"name": "_id",
							"type": "uint256"
						}
					],
					"name": "createProduct",
					"outputs": [],
					"stateMutability": "nonpayable",
					"type": "function"
				},
				{
					"inputs": [
						{
							"internalType": "uint256",
							"name": "",
							"type": "uint256"
						}
					],
					"name": "product",
					"outputs": [
						{
							"internalType": "string",
							"name": "productName",
							"type": "string"
						},
						{
							"internalType": "uint256",
							"name": "price",
							"type": "uint256"
						},
						{
							"internalType": "uint256",
							"name": "rating",
							"type": "uint256"
						},
						{
							"internalType": "uint256",
							"name": "count",
							"type": "uint256"
						},
						{
							"internalType": "bool",
							"name": "status",
							"type": "bool"
						}
					],
					"stateMutability": "view",
					"type": "function"
				},
				{
					"inputs": [
						{
							"internalType": "uint256",
							"name": "_id",
							"type": "uint256"
						},
						{
							"internalType": "uint256",
							"name": "_price",
							"type": "uint256"
						}
					],
					"name": "purchaseProduct",
					"outputs": [],
					"stateMutability": "payable",
					"type": "function"
				}
			],
			"devdoc": {
				"kind": "dev",
				"methods": {},
				"version": 1
			},
			"evm": {
				"assembly": "    /* \"contracts/Ecommerce.sol\":57:1516  contract ECommerce{... */\n  mstore(0x40, 0x80)\n    /* \"contracts/Ecommerce.sol\":106:160  constructor(){... */\n  callvalue\n  dup1\n  iszero\n  tag_1\n  jumpi\n  0x00\n  dup1\n  revert\ntag_1:\n  pop\n    /* \"contracts/Ecommerce.sol\":140:150  msg.sender */\n  caller\n    /* \"contracts/Ecommerce.sol\":132:137  owner */\n  0x00\n  dup1\n    /* \"contracts/Ecommerce.sol\":132:150  owner = msg.sender */\n  0x0100\n  exp\n  dup2\n  sload\n  dup2\n  0xffffffffffffffffffffffffffffffffffffffff\n  mul\n  not\n  and\n  swap1\n  dup4\n  0xffffffffffffffffffffffffffffffffffffffff\n  and\n  mul\n  or\n  swap1\n  sstore\n  pop\n    /* \"contracts/Ecommerce.sol\":57:1516  contract ECommerce{... */\n  dataSize(sub_0)\n  dup1\n  dataOffset(sub_0)\n  0x00\n  codecopy\n  0x00\n  return\nstop\n\nsub_0: assembly {\n        /* \"contracts/Ecommerce.sol\":57:1516  contract ECommerce{... */\n      mstore(0x40, 0x80)\n      jumpi(tag_1, lt(calldatasize, 0x04))\n      shr(0xe0, calldataload(0x00))\n      dup1\n      0x780bd3f1\n      eq\n      tag_2\n      jumpi\n      dup1\n      0x7bf12b1c\n      eq\n      tag_3\n      jumpi\n      dup1\n      0xa0440426\n      eq\n      tag_4\n      jumpi\n      dup1\n      0xfdefdf8d\n      eq\n      tag_5\n      jumpi\n    tag_1:\n      0x00\n      dup1\n      revert\n        /* \"contracts/Ecommerce.sol\":441:483  mapping(uint => Ecommerce)  public product */\n    tag_2:\n      callvalue\n      dup1\n      iszero\n      tag_6\n      jumpi\n      0x00\n      dup1\n      revert\n    tag_6:\n      pop\n      tag_7\n      0x04\n      dup1\n      calldatasize\n      sub\n      dup2\n      add\n      swap1\n      tag_8\n      swap2\n      swap1\n      tag_9\n      jump\t// in\n    tag_8:\n      tag_10\n      jump\t// in\n    tag_7:\n      mload(0x40)\n      tag_11\n      swap6\n      swap5\n      swap4\n      swap3\n      swap2\n      swap1\n      tag_12\n      jump\t// in\n    tag_11:\n      mload(0x40)\n      dup1\n      swap2\n      sub\n      swap1\n      return\n        /* \"contracts/Ecommerce.sol\":492:924  function createProduct(string memory _productName,uint _price,uint _id) public{... */\n    tag_3:\n      callvalue\n      dup1\n      iszero\n      tag_13\n      jumpi\n      0x00\n      dup1\n      revert\n    tag_13:\n      pop\n      tag_14\n      0x04\n      dup1\n      calldatasize\n      sub\n      dup2\n      add\n      swap1\n      tag_15\n      swap2\n      swap1\n      tag_16\n      jump\t// in\n    tag_15:\n      tag_17\n      jump\t// in\n    tag_14:\n      stop\n        /* \"contracts/Ecommerce.sol\":932:1115  function purchaseProduct(uint _id,uint _price) public payable {... */\n    tag_4:\n      tag_18\n      0x04\n      dup1\n      calldatasize\n      sub\n      dup2\n      add\n      swap1\n      tag_19\n      swap2\n      swap1\n      tag_20\n      jump\t// in\n    tag_19:\n      tag_21\n      jump\t// in\n    tag_18:\n      stop\n        /* \"contracts/Ecommerce.sol\":1123:1513  function Rating(uint _id,uint _rating) public returns(string memory){... */\n    tag_5:\n      callvalue\n      dup1\n      iszero\n      tag_22\n      jumpi\n      0x00\n      dup1\n      revert\n    tag_22:\n      pop\n      tag_23\n      0x04\n      dup1\n      calldatasize\n      sub\n      dup2\n      add\n      swap1\n      tag_24\n      swap2\n      swap1\n      tag_20\n      jump\t// in\n    tag_24:\n      tag_25\n      jump\t// in\n    tag_23:\n      mload(0x40)\n      tag_26\n      swap2\n      swap1\n      tag_27\n      jump\t// in\n    tag_26:\n      mload(0x40)\n      dup1\n      swap2\n      sub\n      swap1\n      return\n        /* \"contracts/Ecommerce.sol\":441:483  mapping(uint => Ecommerce)  public product */\n    tag_10:\n      mstore(0x20, 0x01)\n      dup1\n      0x00\n      mstore\n      keccak256(0x00, 0x40)\n      0x00\n      swap2\n      pop\n      swap1\n      pop\n      dup1\n      0x00\n      add\n      dup1\n      sload\n      tag_28\n      swap1\n      tag_29\n      jump\t// in\n    tag_28:\n      dup1\n      0x1f\n      add\n      0x20\n      dup1\n      swap2\n      div\n      mul\n      0x20\n      add\n      mload(0x40)\n      swap1\n      dup2\n      add\n      0x40\n      mstore\n      dup1\n      swap3\n      swap2\n      swap1\n      dup2\n      dup2\n      mstore\n      0x20\n      add\n      dup3\n      dup1\n      sload\n      tag_30\n      swap1\n      tag_29\n      jump\t// in\n    tag_30:\n      dup1\n      iszero\n      tag_31\n      jumpi\n      dup1\n      0x1f\n      lt\n      tag_32\n      jumpi\n      0x0100\n      dup1\n      dup4\n      sload\n      div\n      mul\n      dup4\n      mstore\n      swap2\n      0x20\n      add\n      swap2\n      jump(tag_31)\n    tag_32:\n      dup3\n      add\n      swap2\n      swap1\n      0x00\n      mstore\n      keccak256(0x00, 0x20)\n      swap1\n    tag_33:\n      dup2\n      sload\n      dup2\n      mstore\n      swap1\n      0x01\n      add\n      swap1\n      0x20\n      add\n      dup1\n      dup4\n      gt\n      tag_33\n      jumpi\n      dup3\n      swap1\n      sub\n      0x1f\n      and\n      dup3\n      add\n      swap2\n    tag_31:\n      pop\n      pop\n      pop\n      pop\n      pop\n      swap1\n      dup1\n      0x01\n      add\n      sload\n      swap1\n      dup1\n      0x02\n      add\n      sload\n      swap1\n      dup1\n      0x03\n      add\n      sload\n      swap1\n      dup1\n      0x04\n      add\n      0x00\n      swap1\n      sload\n      swap1\n      0x0100\n      exp\n      swap1\n      div\n      0xff\n      and\n      swap1\n      pop\n      dup6\n      jump\t// out\n        /* \"contracts/Ecommerce.sol\":492:924  function createProduct(string memory _productName,uint _price,uint _id) public{... */\n    tag_17:\n        /* \"contracts/Ecommerce.sol\":595:596  0 */\n      0x00\n        /* \"contracts/Ecommerce.sol\":589:592  _id */\n      dup2\n        /* \"contracts/Ecommerce.sol\":589:596  _id > 0 */\n      gt\n        /* \"contracts/Ecommerce.sol\":581:629  require(_id > 0,\"Product Id should not be Zero\") */\n      tag_35\n      jumpi\n      mload(0x40)\n      0x08c379a000000000000000000000000000000000000000000000000000000000\n      dup2\n      mstore\n      0x04\n      add\n      tag_36\n      swap1\n      tag_37\n      jump\t// in\n    tag_36:\n      mload(0x40)\n      dup1\n      swap2\n      sub\n      swap1\n      revert\n    tag_35:\n        /* \"contracts/Ecommerce.sol\":657:658  0 */\n      0x00\n        /* \"contracts/Ecommerce.sol\":648:654  _price */\n      dup3\n        /* \"contracts/Ecommerce.sol\":648:658  _price > 0 */\n      gt\n        /* \"contracts/Ecommerce.sol\":640:710  require(_price > 0,\"Price of the product should be Greater than Zero\") */\n      tag_38\n      jumpi\n      mload(0x40)\n      0x08c379a000000000000000000000000000000000000000000000000000000000\n      dup2\n      mstore\n      0x04\n      add\n      tag_39\n      swap1\n      tag_40\n      jump\t// in\n    tag_39:\n      mload(0x40)\n      dup1\n      swap2\n      sub\n      swap1\n      revert\n    tag_38:\n        /* \"contracts/Ecommerce.sol\":758:759  0 */\n      0x00\n        /* \"contracts/Ecommerce.sol\":735:747  _productName */\n      dup4\n        /* \"contracts/Ecommerce.sol\":729:755  bytes(_productName).length */\n      mload\n        /* \"contracts/Ecommerce.sol\":729:759  bytes(_productName).length > 0 */\n      gt\n        /* \"contracts/Ecommerce.sol\":721:795  require(bytes(_productName).length > 0,\"Product Name should not be Empty\") */\n      tag_41\n      jumpi\n      mload(0x40)\n      0x08c379a000000000000000000000000000000000000000000000000000000000\n      dup2\n      mstore\n      0x04\n      add\n      tag_42\n      swap1\n      tag_43\n      jump\t// in\n    tag_42:\n      mload(0x40)\n      dup1\n      swap2\n      sub\n      swap1\n      revert\n    tag_41:\n        /* \"contracts/Ecommerce.sol\":833:845  _productName */\n      dup3\n        /* \"contracts/Ecommerce.sol\":806:813  product */\n      0x01\n        /* \"contracts/Ecommerce.sol\":806:818  product[_id] */\n      0x00\n        /* \"contracts/Ecommerce.sol\":814:817  _id */\n      dup4\n        /* \"contracts/Ecommerce.sol\":806:818  product[_id] */\n      dup2\n      mstore\n      0x20\n      add\n      swap1\n      dup2\n      mstore\n      0x20\n      add\n      0x00\n      keccak256\n        /* \"contracts/Ecommerce.sol\":806:830  product[_id].productName */\n      0x00\n      add\n        /* \"contracts/Ecommerce.sol\":806:845  product[_id].productName = _productName */\n      swap1\n      dup2\n      tag_44\n      swap2\n      swap1\n      tag_45\n      jump\t// in\n    tag_44:\n      pop\n        /* \"contracts/Ecommerce.sol\":877:883  _price */\n      dup2\n        /* \"contracts/Ecommerce.sol\":856:863  product */\n      0x01\n        /* \"contracts/Ecommerce.sol\":856:868  product[_id] */\n      0x00\n        /* \"contracts/Ecommerce.sol\":864:867  _id */\n      dup4\n        /* \"contracts/Ecommerce.sol\":856:868  product[_id] */\n      dup2\n      mstore\n      0x20\n      add\n      swap1\n      dup2\n      mstore\n      0x20\n      add\n      0x00\n      keccak256\n        /* \"contracts/Ecommerce.sol\":856:874  product[_id].price */\n      0x01\n      add\n        /* \"contracts/Ecommerce.sol\":856:883  product[_id].price = _price */\n      dup2\n      swap1\n      sstore\n      pop\n        /* \"contracts/Ecommerce.sol\":894:901  product */\n      0x01\n        /* \"contracts/Ecommerce.sol\":894:906  product[_id] */\n      0x00\n        /* \"contracts/Ecommerce.sol\":902:905  _id */\n      dup3\n        /* \"contracts/Ecommerce.sol\":894:906  product[_id] */\n      dup2\n      mstore\n      0x20\n      add\n      swap1\n      dup2\n      mstore\n      0x20\n      add\n      0x00\n      keccak256\n        /* \"contracts/Ecommerce.sol\":894:912  product[_id].count */\n      0x03\n      add\n      0x00\n        /* \"contracts/Ecommerce.sol\":894:914  product[_id].count++ */\n      dup2\n      sload\n      dup1\n      swap3\n      swap2\n      swap1\n      tag_46\n      swap1\n      tag_47\n      jump\t// in\n    tag_46:\n      swap2\n      swap1\n      pop\n      sstore\n      pop\n        /* \"contracts/Ecommerce.sol\":492:924  function createProduct(string memory _productName,uint _price,uint _id) public{... */\n      pop\n      pop\n      pop\n      jump\t// out\n        /* \"contracts/Ecommerce.sol\":932:1115  function purchaseProduct(uint _id,uint _price) public payable {... */\n    tag_21:\n        /* \"contracts/Ecommerce.sol\":1035:1041  _price */\n      dup1\n        /* \"contracts/Ecommerce.sol\":1013:1023  msg.sender */\n      caller\n        /* \"contracts/Ecommerce.sol\":1013:1031  msg.sender.balance */\n      0xffffffffffffffffffffffffffffffffffffffff\n      and\n      balance\n        /* \"contracts/Ecommerce.sol\":1013:1041  msg.sender.balance >= _price */\n      lt\n      iszero\n        /* \"contracts/Ecommerce.sol\":1005:1065  require(msg.sender.balance >= _price,\"Insufficient Balance\") */\n      tag_49\n      jumpi\n      mload(0x40)\n      0x08c379a000000000000000000000000000000000000000000000000000000000\n      dup2\n      mstore\n      0x04\n      add\n      tag_50\n      swap1\n      tag_51\n      jump\t// in\n    tag_50:\n      mload(0x40)\n      dup1\n      swap2\n      sub\n      swap1\n      revert\n    tag_49:\n        /* \"contracts/Ecommerce.sol\":1099:1103  true */\n      0x01\n        /* \"contracts/Ecommerce.sol\":1077:1084  product */\n      dup1\n        /* \"contracts/Ecommerce.sol\":1077:1089  product[_id] */\n      0x00\n        /* \"contracts/Ecommerce.sol\":1085:1088  _id */\n      dup5\n        /* \"contracts/Ecommerce.sol\":1077:1089  product[_id] */\n      dup2\n      mstore\n      0x20\n      add\n      swap1\n      dup2\n      mstore\n      0x20\n      add\n      0x00\n      keccak256\n        /* \"contracts/Ecommerce.sol\":1077:1096  product[_id].status */\n      0x04\n      add\n      0x00\n        /* \"contracts/Ecommerce.sol\":1077:1103  product[_id].status = true */\n      0x0100\n      exp\n      dup2\n      sload\n      dup2\n      0xff\n      mul\n      not\n      and\n      swap1\n      dup4\n      iszero\n      iszero\n      mul\n      or\n      swap1\n      sstore\n      pop\n        /* \"contracts/Ecommerce.sol\":932:1115  function purchaseProduct(uint _id,uint _price) public payable {... */\n      pop\n      pop\n      jump\t// out\n        /* \"contracts/Ecommerce.sol\":1123:1513  function Rating(uint _id,uint _rating) public returns(string memory){... */\n    tag_25:\n        /* \"contracts/Ecommerce.sol\":1177:1190  string memory */\n      0x60\n        /* \"contracts/Ecommerce.sol\":1220:1221  1 */\n      0x01\n        /* \"contracts/Ecommerce.sol\":1210:1217  _rating */\n      dup3\n        /* \"contracts/Ecommerce.sol\":1210:1221  _rating >=1 */\n      lt\n      iszero\n        /* \"contracts/Ecommerce.sol\":1210:1237  _rating >=1 && _rating <= 5 */\n      dup1\n      iszero\n      tag_53\n      jumpi\n      pop\n        /* \"contracts/Ecommerce.sol\":1236:1237  5 */\n      0x05\n        /* \"contracts/Ecommerce.sol\":1225:1232  _rating */\n      dup3\n        /* \"contracts/Ecommerce.sol\":1225:1237  _rating <= 5 */\n      gt\n      iszero\n        /* \"contracts/Ecommerce.sol\":1210:1237  _rating >=1 && _rating <= 5 */\n    tag_53:\n        /* \"contracts/Ecommerce.sol\":1202:1273  require(_rating >=1 && _rating <= 5,\"Rating should be between 1 and 5\") */\n      tag_54\n      jumpi\n      mload(0x40)\n      0x08c379a000000000000000000000000000000000000000000000000000000000\n      dup2\n      mstore\n      0x04\n      add\n      tag_55\n      swap1\n      tag_56\n      jump\t// in\n    tag_55:\n      mload(0x40)\n      dup1\n      swap2\n      sub\n      swap1\n      revert\n    tag_54:\n        /* \"contracts/Ecommerce.sol\":1306:1313  _rating */\n      dup2\n        /* \"contracts/Ecommerce.sol\":1284:1291  product */\n      0x01\n        /* \"contracts/Ecommerce.sol\":1284:1296  product[_id] */\n      0x00\n        /* \"contracts/Ecommerce.sol\":1292:1295  _id */\n      dup6\n        /* \"contracts/Ecommerce.sol\":1284:1296  product[_id] */\n      dup2\n      mstore\n      0x20\n      add\n      swap1\n      dup2\n      mstore\n      0x20\n      add\n      0x00\n      keccak256\n        /* \"contracts/Ecommerce.sol\":1284:1303  product[_id].rating */\n      0x02\n      add\n        /* \"contracts/Ecommerce.sol\":1284:1313  product[_id].rating = _rating */\n      dup2\n      swap1\n      sstore\n      pop\n        /* \"contracts/Ecommerce.sol\":1338:1339  4 */\n      0x04\n        /* \"contracts/Ecommerce.sol\":1327:1334  _rating */\n      dup3\n        /* \"contracts/Ecommerce.sol\":1327:1339  _rating >= 4 */\n      lt\n        /* \"contracts/Ecommerce.sol\":1324:1504  if(_rating >= 4){... */\n      tag_57\n      jumpi\n        /* \"contracts/Ecommerce.sol\":1353:1381  return (\"Thank You so much\") */\n      mload(0x40)\n      dup1\n      0x40\n      add\n      0x40\n      mstore\n      dup1\n      0x11\n      dup2\n      mstore\n      0x20\n      add\n      0x5468616e6b20596f7520736f206d756368000000000000000000000000000000\n      dup2\n      mstore\n      pop\n      swap1\n      pop\n      jump(tag_52)\n        /* \"contracts/Ecommerce.sol\":1324:1504  if(_rating >= 4){... */\n    tag_57:\n        /* \"contracts/Ecommerce.sol\":1422:1492  return(\"Thank You so much, Is there anything that we need to Improve\") */\n      mload(0x40)\n      dup1\n      0x60\n      add\n      0x40\n      mstore\n      dup1\n      0x3c\n      dup2\n      mstore\n      0x20\n      add\n      data_1b08eda45f5a261cfe8786872776d9f60d807ae39e8221e26420de29f322b200\n      0x3c\n      swap2\n      codecopy\n      swap1\n      pop\n        /* \"contracts/Ecommerce.sol\":1123:1513  function Rating(uint _id,uint _rating) public returns(string memory){... */\n    tag_52:\n      swap3\n      swap2\n      pop\n      pop\n      jump\t// out\n        /* \"#utility.yul\":7:82   */\n    tag_59:\n        /* \"#utility.yul\":40:46   */\n      0x00\n        /* \"#utility.yul\":73:75   */\n      0x40\n        /* \"#utility.yul\":67:76   */\n      mload\n        /* \"#utility.yul\":57:76   */\n      swap1\n      pop\n        /* \"#utility.yul\":7:82   */\n      swap1\n      jump\t// out\n        /* \"#utility.yul\":88:205   */\n    tag_60:\n        /* \"#utility.yul\":197:198   */\n      0x00\n        /* \"#utility.yul\":194:195   */\n      dup1\n        /* \"#utility.yul\":187:199   */\n      revert\n        /* \"#utility.yul\":211:328   */\n    tag_61:\n        /* \"#utility.yul\":320:321   */\n      0x00\n        /* \"#utility.yul\":317:318   */\n      dup1\n        /* \"#utility.yul\":310:322   */\n      revert\n        /* \"#utility.yul\":334:411   */\n    tag_62:\n        /* \"#utility.yul\":371:378   */\n      0x00\n        /* \"#utility.yul\":400:405   */\n      dup2\n        /* \"#utility.yul\":389:405   */\n      swap1\n      pop\n        /* \"#utility.yul\":334:411   */\n      swap2\n      swap1\n      pop\n      jump\t// out\n        /* \"#utility.yul\":417:539   */\n    tag_63:\n        /* \"#utility.yul\":490:514   */\n      tag_115\n        /* \"#utility.yul\":508:513   */\n      dup2\n        /* \"#utility.yul\":490:514   */\n      tag_62\n      jump\t// in\n    tag_115:\n        /* \"#utility.yul\":483:488   */\n      dup2\n        /* \"#utility.yul\":480:515   */\n      eq\n        /* \"#utility.yul\":470:533   */\n      tag_116\n      jumpi\n        /* \"#utility.yul\":529:530   */\n      0x00\n        /* \"#utility.yul\":526:527   */\n      dup1\n        /* \"#utility.yul\":519:531   */\n      revert\n        /* \"#utility.yul\":470:533   */\n    tag_116:\n        /* \"#utility.yul\":417:539   */\n      pop\n      jump\t// out\n        /* \"#utility.yul\":545:684   */\n    tag_64:\n        /* \"#utility.yul\":591:596   */\n      0x00\n        /* \"#utility.yul\":629:635   */\n      dup2\n        /* \"#utility.yul\":616:636   */\n      calldataload\n        /* \"#utility.yul\":607:636   */\n      swap1\n      pop\n        /* \"#utility.yul\":645:678   */\n      tag_118\n        /* \"#utility.yul\":672:677   */\n      dup2\n        /* \"#utility.yul\":645:678   */\n      tag_63\n      jump\t// in\n    tag_118:\n        /* \"#utility.yul\":545:684   */\n      swap3\n      swap2\n      pop\n      pop\n      jump\t// out\n        /* \"#utility.yul\":690:1019   */\n    tag_9:\n        /* \"#utility.yul\":749:755   */\n      0x00\n        /* \"#utility.yul\":798:800   */\n      0x20\n        /* \"#utility.yul\":786:795   */\n      dup3\n        /* \"#utility.yul\":777:784   */\n      dup5\n        /* \"#utility.yul\":773:796   */\n      sub\n        /* \"#utility.yul\":769:801   */\n      slt\n        /* \"#utility.yul\":766:885   */\n      iszero\n      tag_120\n      jumpi\n        /* \"#utility.yul\":804:883   */\n      tag_121\n      tag_60\n      jump\t// in\n    tag_121:\n        /* \"#utility.yul\":766:885   */\n    tag_120:\n        /* \"#utility.yul\":924:925   */\n      0x00\n        /* \"#utility.yul\":949:1002   */\n      tag_122\n        /* \"#utility.yul\":994:1001   */\n      dup5\n        /* \"#utility.yul\":985:991   */\n      dup3\n        /* \"#utility.yul\":974:983   */\n      dup6\n        /* \"#utility.yul\":970:992   */\n      add\n        /* \"#utility.yul\":949:1002   */\n      tag_64\n      jump\t// in\n    tag_122:\n        /* \"#utility.yul\":939:1002   */\n      swap2\n      pop\n        /* \"#utility.yul\":895:1012   */\n      pop\n        /* \"#utility.yul\":690:1019   */\n      swap3\n      swap2\n      pop\n      pop\n      jump\t// out\n        /* \"#utility.yul\":1025:1124   */\n    tag_65:\n        /* \"#utility.yul\":1077:1083   */\n      0x00\n        /* \"#utility.yul\":1111:1116   */\n      dup2\n        /* \"#utility.yul\":1105:1117   */\n      mload\n        /* \"#utility.yul\":1095:1117   */\n      swap1\n      pop\n        /* \"#utility.yul\":1025:1124   */\n      swap2\n      swap1\n      pop\n      jump\t// out\n        /* \"#utility.yul\":1130:1299   */\n    tag_66:\n        /* \"#utility.yul\":1214:1225   */\n      0x00\n        /* \"#utility.yul\":1248:1254   */\n      dup3\n        /* \"#utility.yul\":1243:1246   */\n      dup3\n        /* \"#utility.yul\":1236:1255   */\n      mstore\n        /* \"#utility.yul\":1288:1292   */\n      0x20\n        /* \"#utility.yul\":1283:1286   */\n      dup3\n        /* \"#utility.yul\":1279:1293   */\n      add\n        /* \"#utility.yul\":1264:1293   */\n      swap1\n      pop\n        /* \"#utility.yul\":1130:1299   */\n      swap3\n      swap2\n      pop\n      pop\n      jump\t// out\n        /* \"#utility.yul\":1305:1551   */\n    tag_67:\n        /* \"#utility.yul\":1386:1387   */\n      0x00\n        /* \"#utility.yul\":1396:1509   */\n    tag_126:\n        /* \"#utility.yul\":1410:1416   */\n      dup4\n        /* \"#utility.yul\":1407:1408   */\n      dup2\n        /* \"#utility.yul\":1404:1417   */\n      lt\n        /* \"#utility.yul\":1396:1509   */\n      iszero\n      tag_128\n      jumpi\n        /* \"#utility.yul\":1495:1496   */\n      dup1\n        /* \"#utility.yul\":1490:1493   */\n      dup3\n        /* \"#utility.yul\":1486:1497   */\n      add\n        /* \"#utility.yul\":1480:1498   */\n      mload\n        /* \"#utility.yul\":1476:1477   */\n      dup2\n        /* \"#utility.yul\":1471:1474   */\n      dup5\n        /* \"#utility.yul\":1467:1478   */\n      add\n        /* \"#utility.yul\":1460:1499   */\n      mstore\n        /* \"#utility.yul\":1432:1434   */\n      0x20\n        /* \"#utility.yul\":1429:1430   */\n      dup2\n        /* \"#utility.yul\":1425:1435   */\n      add\n        /* \"#utility.yul\":1420:1435   */\n      swap1\n      pop\n        /* \"#utility.yul\":1396:1509   */\n      jump(tag_126)\n    tag_128:\n        /* \"#utility.yul\":1543:1544   */\n      0x00\n        /* \"#utility.yul\":1534:1540   */\n      dup5\n        /* \"#utility.yul\":1529:1532   */\n      dup5\n        /* \"#utility.yul\":1525:1541   */\n      add\n        /* \"#utility.yul\":1518:1545   */\n      mstore\n        /* \"#utility.yul\":1367:1551   */\n      pop\n        /* \"#utility.yul\":1305:1551   */\n      pop\n      pop\n      pop\n      jump\t// out\n        /* \"#utility.yul\":1557:1659   */\n    tag_68:\n        /* \"#utility.yul\":1598:1604   */\n      0x00\n        /* \"#utility.yul\":1649:1651   */\n      0x1f\n        /* \"#utility.yul\":1645:1652   */\n      not\n        /* \"#utility.yul\":1640:1642   */\n      0x1f\n        /* \"#utility.yul\":1633:1638   */\n      dup4\n        /* \"#utility.yul\":1629:1643   */\n      add\n        /* \"#utility.yul\":1625:1653   */\n      and\n        /* \"#utility.yul\":1615:1653   */\n      swap1\n      pop\n        /* \"#utility.yul\":1557:1659   */\n      swap2\n      swap1\n      pop\n      jump\t// out\n        /* \"#utility.yul\":1665:2042   */\n    tag_69:\n        /* \"#utility.yul\":1753:1756   */\n      0x00\n        /* \"#utility.yul\":1781:1820   */\n      tag_131\n        /* \"#utility.yul\":1814:1819   */\n      dup3\n        /* \"#utility.yul\":1781:1820   */\n      tag_65\n      jump\t// in\n    tag_131:\n        /* \"#utility.yul\":1836:1907   */\n      tag_132\n        /* \"#utility.yul\":1900:1906   */\n      dup2\n        /* \"#utility.yul\":1895:1898   */\n      dup6\n        /* \"#utility.yul\":1836:1907   */\n      tag_66\n      jump\t// in\n    tag_132:\n        /* \"#utility.yul\":1829:1907   */\n      swap4\n      pop\n        /* \"#utility.yul\":1916:1981   */\n      tag_133\n        /* \"#utility.yul\":1974:1980   */\n      dup2\n        /* \"#utility.yul\":1969:1972   */\n      dup6\n        /* \"#utility.yul\":1962:1966   */\n      0x20\n        /* \"#utility.yul\":1955:1960   */\n      dup7\n        /* \"#utility.yul\":1951:1967   */\n      add\n        /* \"#utility.yul\":1916:1981   */\n      tag_67\n      jump\t// in\n    tag_133:\n        /* \"#utility.yul\":2006:2035   */\n      tag_134\n        /* \"#utility.yul\":2028:2034   */\n      dup2\n        /* \"#utility.yul\":2006:2035   */\n      tag_68\n      jump\t// in\n    tag_134:\n        /* \"#utility.yul\":2001:2004   */\n      dup5\n        /* \"#utility.yul\":1997:2036   */\n      add\n        /* \"#utility.yul\":1990:2036   */\n      swap2\n      pop\n        /* \"#utility.yul\":1757:2042   */\n      pop\n        /* \"#utility.yul\":1665:2042   */\n      swap3\n      swap2\n      pop\n      pop\n      jump\t// out\n        /* \"#utility.yul\":2048:2166   */\n    tag_70:\n        /* \"#utility.yul\":2135:2159   */\n      tag_136\n        /* \"#utility.yul\":2153:2158   */\n      dup2\n        /* \"#utility.yul\":2135:2159   */\n      tag_62\n      jump\t// in\n    tag_136:\n        /* \"#utility.yul\":2130:2133   */\n      dup3\n        /* \"#utility.yul\":2123:2160   */\n      mstore\n        /* \"#utility.yul\":2048:2166   */\n      pop\n      pop\n      jump\t// out\n        /* \"#utility.yul\":2172:2262   */\n    tag_71:\n        /* \"#utility.yul\":2206:2213   */\n      0x00\n        /* \"#utility.yul\":2249:2254   */\n      dup2\n        /* \"#utility.yul\":2242:2255   */\n      iszero\n        /* \"#utility.yul\":2235:2256   */\n      iszero\n        /* \"#utility.yul\":2224:2256   */\n      swap1\n      pop\n        /* \"#utility.yul\":2172:2262   */\n      swap2\n      swap1\n      pop\n      jump\t// out\n        /* \"#utility.yul\":2268:2377   */\n    tag_72:\n        /* \"#utility.yul\":2349:2370   */\n      tag_139\n        /* \"#utility.yul\":2364:2369   */\n      dup2\n        /* \"#utility.yul\":2349:2370   */\n      tag_71\n      jump\t// in\n    tag_139:\n        /* \"#utility.yul\":2344:2347   */\n      dup3\n        /* \"#utility.yul\":2337:2371   */\n      mstore\n        /* \"#utility.yul\":2268:2377   */\n      pop\n      pop\n      jump\t// out\n        /* \"#utility.yul\":2383:3126   */\n    tag_12:\n        /* \"#utility.yul\":2602:2606   */\n      0x00\n        /* \"#utility.yul\":2640:2643   */\n      0xa0\n        /* \"#utility.yul\":2629:2638   */\n      dup3\n        /* \"#utility.yul\":2625:2644   */\n      add\n        /* \"#utility.yul\":2617:2644   */\n      swap1\n      pop\n        /* \"#utility.yul\":2690:2699   */\n      dup2\n        /* \"#utility.yul\":2684:2688   */\n      dup2\n        /* \"#utility.yul\":2680:2700   */\n      sub\n        /* \"#utility.yul\":2676:2677   */\n      0x00\n        /* \"#utility.yul\":2665:2674   */\n      dup4\n        /* \"#utility.yul\":2661:2678   */\n      add\n        /* \"#utility.yul\":2654:2701   */\n      mstore\n        /* \"#utility.yul\":2718:2796   */\n      tag_141\n        /* \"#utility.yul\":2791:2795   */\n      dup2\n        /* \"#utility.yul\":2782:2788   */\n      dup9\n        /* \"#utility.yul\":2718:2796   */\n      tag_69\n      jump\t// in\n    tag_141:\n        /* \"#utility.yul\":2710:2796   */\n      swap1\n      pop\n        /* \"#utility.yul\":2806:2878   */\n      tag_142\n        /* \"#utility.yul\":2874:2876   */\n      0x20\n        /* \"#utility.yul\":2863:2872   */\n      dup4\n        /* \"#utility.yul\":2859:2877   */\n      add\n        /* \"#utility.yul\":2850:2856   */\n      dup8\n        /* \"#utility.yul\":2806:2878   */\n      tag_70\n      jump\t// in\n    tag_142:\n        /* \"#utility.yul\":2888:2960   */\n      tag_143\n        /* \"#utility.yul\":2956:2958   */\n      0x40\n        /* \"#utility.yul\":2945:2954   */\n      dup4\n        /* \"#utility.yul\":2941:2959   */\n      add\n        /* \"#utility.yul\":2932:2938   */\n      dup7\n        /* \"#utility.yul\":2888:2960   */\n      tag_70\n      jump\t// in\n    tag_143:\n        /* \"#utility.yul\":2970:3042   */\n      tag_144\n        /* \"#utility.yul\":3038:3040   */\n      0x60\n        /* \"#utility.yul\":3027:3036   */\n      dup4\n        /* \"#utility.yul\":3023:3041   */\n      add\n        /* \"#utility.yul\":3014:3020   */\n      dup6\n        /* \"#utility.yul\":2970:3042   */\n      tag_70\n      jump\t// in\n    tag_144:\n        /* \"#utility.yul\":3052:3119   */\n      tag_145\n        /* \"#utility.yul\":3114:3117   */\n      0x80\n        /* \"#utility.yul\":3103:3112   */\n      dup4\n        /* \"#utility.yul\":3099:3118   */\n      add\n        /* \"#utility.yul\":3090:3096   */\n      dup5\n        /* \"#utility.yul\":3052:3119   */\n      tag_72\n      jump\t// in\n    tag_145:\n        /* \"#utility.yul\":2383:3126   */\n      swap7\n      swap6\n      pop\n      pop\n      pop\n      pop\n      pop\n      pop\n      jump\t// out\n        /* \"#utility.yul\":3132:3249   */\n    tag_73:\n        /* \"#utility.yul\":3241:3242   */\n      0x00\n        /* \"#utility.yul\":3238:3239   */\n      dup1\n        /* \"#utility.yul\":3231:3243   */\n      revert\n        /* \"#utility.yul\":3255:3372   */\n    tag_74:\n        /* \"#utility.yul\":3364:3365   */\n      0x00\n        /* \"#utility.yul\":3361:3362   */\n      dup1\n        /* \"#utility.yul\":3354:3366   */\n      revert\n        /* \"#utility.yul\":3378:3558   */\n    tag_75:\n        /* \"#utility.yul\":3426:3503   */\n      0x4e487b7100000000000000000000000000000000000000000000000000000000\n        /* \"#utility.yul\":3423:3424   */\n      0x00\n        /* \"#utility.yul\":3416:3504   */\n      mstore\n        /* \"#utility.yul\":3523:3527   */\n      0x41\n        /* \"#utility.yul\":3520:3521   */\n      0x04\n        /* \"#utility.yul\":3513:3528   */\n      mstore\n        /* \"#utility.yul\":3547:3551   */\n      0x24\n        /* \"#utility.yul\":3544:3545   */\n      0x00\n        /* \"#utility.yul\":3537:3552   */\n      revert\n        /* \"#utility.yul\":3564:3845   */\n    tag_76:\n        /* \"#utility.yul\":3647:3674   */\n      tag_150\n        /* \"#utility.yul\":3669:3673   */\n      dup3\n        /* \"#utility.yul\":3647:3674   */\n      tag_68\n      jump\t// in\n    tag_150:\n        /* \"#utility.yul\":3639:3645   */\n      dup2\n        /* \"#utility.yul\":3635:3675   */\n      add\n        /* \"#utility.yul\":3777:3783   */\n      dup2\n        /* \"#utility.yul\":3765:3775   */\n      dup2\n        /* \"#utility.yul\":3762:3784   */\n      lt\n        /* \"#utility.yul\":3741:3759   */\n      0xffffffffffffffff\n        /* \"#utility.yul\":3729:3739   */\n      dup3\n        /* \"#utility.yul\":3726:3760   */\n      gt\n        /* \"#utility.yul\":3723:3785   */\n      or\n        /* \"#utility.yul\":3720:3808   */\n      iszero\n      tag_151\n      jumpi\n        /* \"#utility.yul\":3788:3806   */\n      tag_152\n      tag_75\n      jump\t// in\n    tag_152:\n        /* \"#utility.yul\":3720:3808   */\n    tag_151:\n        /* \"#utility.yul\":3828:3838   */\n      dup1\n        /* \"#utility.yul\":3824:3826   */\n      0x40\n        /* \"#utility.yul\":3817:3839   */\n      mstore\n        /* \"#utility.yul\":3607:3845   */\n      pop\n        /* \"#utility.yul\":3564:3845   */\n      pop\n      pop\n      jump\t// out\n        /* \"#utility.yul\":3851:3980   */\n    tag_77:\n        /* \"#utility.yul\":3885:3891   */\n      0x00\n        /* \"#utility.yul\":3912:3932   */\n      tag_154\n      tag_59\n      jump\t// in\n    tag_154:\n        /* \"#utility.yul\":3902:3932   */\n      swap1\n      pop\n        /* \"#utility.yul\":3941:3974   */\n      tag_155\n        /* \"#utility.yul\":3969:3973   */\n      dup3\n        /* \"#utility.yul\":3961:3967   */\n      dup3\n        /* \"#utility.yul\":3941:3974   */\n      tag_76\n      jump\t// in\n    tag_155:\n        /* \"#utility.yul\":3851:3980   */\n      swap2\n      swap1\n      pop\n      jump\t// out\n        /* \"#utility.yul\":3986:4294   */\n    tag_78:\n        /* \"#utility.yul\":4048:4052   */\n      0x00\n        /* \"#utility.yul\":4138:4156   */\n      0xffffffffffffffff\n        /* \"#utility.yul\":4130:4136   */\n      dup3\n        /* \"#utility.yul\":4127:4157   */\n      gt\n        /* \"#utility.yul\":4124:4180   */\n      iszero\n      tag_157\n      jumpi\n        /* \"#utility.yul\":4160:4178   */\n      tag_158\n      tag_75\n      jump\t// in\n    tag_158:\n        /* \"#utility.yul\":4124:4180   */\n    tag_157:\n        /* \"#utility.yul\":4198:4227   */\n      tag_159\n        /* \"#utility.yul\":4220:4226   */\n      dup3\n        /* \"#utility.yul\":4198:4227   */\n      tag_68\n      jump\t// in\n    tag_159:\n        /* \"#utility.yul\":4190:4227   */\n      swap1\n      pop\n        /* \"#utility.yul\":4282:4286   */\n      0x20\n        /* \"#utility.yul\":4276:4280   */\n      dup2\n        /* \"#utility.yul\":4272:4287   */\n      add\n        /* \"#utility.yul\":4264:4287   */\n      swap1\n      pop\n        /* \"#utility.yul\":3986:4294   */\n      swap2\n      swap1\n      pop\n      jump\t// out\n        /* \"#utility.yul\":4300:4446   */\n    tag_79:\n        /* \"#utility.yul\":4397:4403   */\n      dup3\n        /* \"#utility.yul\":4392:4395   */\n      dup2\n        /* \"#utility.yul\":4387:4390   */\n      dup4\n        /* \"#utility.yul\":4374:4404   */\n      calldatacopy\n        /* \"#utility.yul\":4438:4439   */\n      0x00\n        /* \"#utility.yul\":4429:4435   */\n      dup4\n        /* \"#utility.yul\":4424:4427   */\n      dup4\n        /* \"#utility.yul\":4420:4436   */\n      add\n        /* \"#utility.yul\":4413:4440   */\n      mstore\n        /* \"#utility.yul\":4300:4446   */\n      pop\n      pop\n      pop\n      jump\t// out\n        /* \"#utility.yul\":4452:4877   */\n    tag_80:\n        /* \"#utility.yul\":4530:4535   */\n      0x00\n        /* \"#utility.yul\":4555:4621   */\n      tag_162\n        /* \"#utility.yul\":4571:4620   */\n      tag_163\n        /* \"#utility.yul\":4613:4619   */\n      dup5\n        /* \"#utility.yul\":4571:4620   */\n      tag_78\n      jump\t// in\n    tag_163:\n        /* \"#utility.yul\":4555:4621   */\n      tag_77\n      jump\t// in\n    tag_162:\n        /* \"#utility.yul\":4546:4621   */\n      swap1\n      pop\n        /* \"#utility.yul\":4644:4650   */\n      dup3\n        /* \"#utility.yul\":4637:4642   */\n      dup2\n        /* \"#utility.yul\":4630:4651   */\n      mstore\n        /* \"#utility.yul\":4682:4686   */\n      0x20\n        /* \"#utility.yul\":4675:4680   */\n      dup2\n        /* \"#utility.yul\":4671:4687   */\n      add\n        /* \"#utility.yul\":4720:4723   */\n      dup5\n        /* \"#utility.yul\":4711:4717   */\n      dup5\n        /* \"#utility.yul\":4706:4709   */\n      dup5\n        /* \"#utility.yul\":4702:4718   */\n      add\n        /* \"#utility.yul\":4699:4724   */\n      gt\n        /* \"#utility.yul\":4696:4808   */\n      iszero\n      tag_164\n      jumpi\n        /* \"#utility.yul\":4727:4806   */\n      tag_165\n      tag_74\n      jump\t// in\n    tag_165:\n        /* \"#utility.yul\":4696:4808   */\n    tag_164:\n        /* \"#utility.yul\":4817:4871   */\n      tag_166\n        /* \"#utility.yul\":4864:4870   */\n      dup5\n        /* \"#utility.yul\":4859:4862   */\n      dup3\n        /* \"#utility.yul\":4854:4857   */\n      dup6\n        /* \"#utility.yul\":4817:4871   */\n      tag_79\n      jump\t// in\n    tag_166:\n        /* \"#utility.yul\":4536:4877   */\n      pop\n        /* \"#utility.yul\":4452:4877   */\n      swap4\n      swap3\n      pop\n      pop\n      pop\n      jump\t// out\n        /* \"#utility.yul\":4897:5237   */\n    tag_81:\n        /* \"#utility.yul\":4953:4958   */\n      0x00\n        /* \"#utility.yul\":5002:5005   */\n      dup3\n        /* \"#utility.yul\":4995:4999   */\n      0x1f\n        /* \"#utility.yul\":4987:4993   */\n      dup4\n        /* \"#utility.yul\":4983:5000   */\n      add\n        /* \"#utility.yul\":4979:5006   */\n      slt\n        /* \"#utility.yul\":4969:5091   */\n      tag_168\n      jumpi\n        /* \"#utility.yul\":5010:5089   */\n      tag_169\n      tag_73\n      jump\t// in\n    tag_169:\n        /* \"#utility.yul\":4969:5091   */\n    tag_168:\n        /* \"#utility.yul\":5127:5133   */\n      dup2\n        /* \"#utility.yul\":5114:5134   */\n      calldataload\n        /* \"#utility.yul\":5152:5231   */\n      tag_170\n        /* \"#utility.yul\":5227:5230   */\n      dup5\n        /* \"#utility.yul\":5219:5225   */\n      dup3\n        /* \"#utility.yul\":5212:5216   */\n      0x20\n        /* \"#utility.yul\":5204:5210   */\n      dup7\n        /* \"#utility.yul\":5200:5217   */\n      add\n        /* \"#utility.yul\":5152:5231   */\n      tag_80\n      jump\t// in\n    tag_170:\n        /* \"#utility.yul\":5143:5231   */\n      swap2\n      pop\n        /* \"#utility.yul\":4959:5237   */\n      pop\n        /* \"#utility.yul\":4897:5237   */\n      swap3\n      swap2\n      pop\n      pop\n      jump\t// out\n        /* \"#utility.yul\":5243:6042   */\n    tag_16:\n        /* \"#utility.yul\":5330:5336   */\n      0x00\n        /* \"#utility.yul\":5338:5344   */\n      dup1\n        /* \"#utility.yul\":5346:5352   */\n      0x00\n        /* \"#utility.yul\":5395:5397   */\n      0x60\n        /* \"#utility.yul\":5383:5392   */\n      dup5\n        /* \"#utility.yul\":5374:5381   */\n      dup7\n        /* \"#utility.yul\":5370:5393   */\n      sub\n        /* \"#utility.yul\":5366:5398   */\n      slt\n        /* \"#utility.yul\":5363:5482   */\n      iszero\n      tag_172\n      jumpi\n        /* \"#utility.yul\":5401:5480   */\n      tag_173\n      tag_60\n      jump\t// in\n    tag_173:\n        /* \"#utility.yul\":5363:5482   */\n    tag_172:\n        /* \"#utility.yul\":5549:5550   */\n      0x00\n        /* \"#utility.yul\":5538:5547   */\n      dup5\n        /* \"#utility.yul\":5534:5551   */\n      add\n        /* \"#utility.yul\":5521:5552   */\n      calldataload\n        /* \"#utility.yul\":5579:5597   */\n      0xffffffffffffffff\n        /* \"#utility.yul\":5571:5577   */\n      dup2\n        /* \"#utility.yul\":5568:5598   */\n      gt\n        /* \"#utility.yul\":5565:5682   */\n      iszero\n      tag_174\n      jumpi\n        /* \"#utility.yul\":5601:5680   */\n      tag_175\n      tag_61\n      jump\t// in\n    tag_175:\n        /* \"#utility.yul\":5565:5682   */\n    tag_174:\n        /* \"#utility.yul\":5706:5769   */\n      tag_176\n        /* \"#utility.yul\":5761:5768   */\n      dup7\n        /* \"#utility.yul\":5752:5758   */\n      dup3\n        /* \"#utility.yul\":5741:5750   */\n      dup8\n        /* \"#utility.yul\":5737:5759   */\n      add\n        /* \"#utility.yul\":5706:5769   */\n      tag_81\n      jump\t// in\n    tag_176:\n        /* \"#utility.yul\":5696:5769   */\n      swap4\n      pop\n        /* \"#utility.yul\":5492:5779   */\n      pop\n        /* \"#utility.yul\":5818:5820   */\n      0x20\n        /* \"#utility.yul\":5844:5897   */\n      tag_177\n        /* \"#utility.yul\":5889:5896   */\n      dup7\n        /* \"#utility.yul\":5880:5886   */\n      dup3\n        /* \"#utility.yul\":5869:5878   */\n      dup8\n        /* \"#utility.yul\":5865:5887   */\n      add\n        /* \"#utility.yul\":5844:5897   */\n      tag_64\n      jump\t// in\n    tag_177:\n        /* \"#utility.yul\":5834:5897   */\n      swap3\n      pop\n        /* \"#utility.yul\":5789:5907   */\n      pop\n        /* \"#utility.yul\":5946:5948   */\n      0x40\n        /* \"#utility.yul\":5972:6025   */\n      tag_178\n        /* \"#utility.yul\":6017:6024   */\n      dup7\n        /* \"#utility.yul\":6008:6014   */\n      dup3\n        /* \"#utility.yul\":5997:6006   */\n      dup8\n        /* \"#utility.yul\":5993:6015   */\n      add\n        /* \"#utility.yul\":5972:6025   */\n      tag_64\n      jump\t// in\n    tag_178:\n        /* \"#utility.yul\":5962:6025   */\n      swap2\n      pop\n        /* \"#utility.yul\":5917:6035   */\n      pop\n        /* \"#utility.yul\":5243:6042   */\n      swap3\n      pop\n      swap3\n      pop\n      swap3\n      jump\t// out\n        /* \"#utility.yul\":6048:6522   */\n    tag_20:\n        /* \"#utility.yul\":6116:6122   */\n      0x00\n        /* \"#utility.yul\":6124:6130   */\n      dup1\n        /* \"#utility.yul\":6173:6175   */\n      0x40\n        /* \"#utility.yul\":6161:6170   */\n      dup4\n        /* \"#utility.yul\":6152:6159   */\n      dup6\n        /* \"#utility.yul\":6148:6171   */\n      sub\n        /* \"#utility.yul\":6144:6176   */\n      slt\n        /* \"#utility.yul\":6141:6260   */\n      iszero\n      tag_180\n      jumpi\n        /* \"#utility.yul\":6179:6258   */\n      tag_181\n      tag_60\n      jump\t// in\n    tag_181:\n        /* \"#utility.yul\":6141:6260   */\n    tag_180:\n        /* \"#utility.yul\":6299:6300   */\n      0x00\n        /* \"#utility.yul\":6324:6377   */\n      tag_182\n        /* \"#utility.yul\":6369:6376   */\n      dup6\n        /* \"#utility.yul\":6360:6366   */\n      dup3\n        /* \"#utility.yul\":6349:6358   */\n      dup7\n        /* \"#utility.yul\":6345:6367   */\n      add\n        /* \"#utility.yul\":6324:6377   */\n      tag_64\n      jump\t// in\n    tag_182:\n        /* \"#utility.yul\":6314:6377   */\n      swap3\n      pop\n        /* \"#utility.yul\":6270:6387   */\n      pop\n        /* \"#utility.yul\":6426:6428   */\n      0x20\n        /* \"#utility.yul\":6452:6505   */\n      tag_183\n        /* \"#utility.yul\":6497:6504   */\n      dup6\n        /* \"#utility.yul\":6488:6494   */\n      dup3\n        /* \"#utility.yul\":6477:6486   */\n      dup7\n        /* \"#utility.yul\":6473:6495   */\n      add\n        /* \"#utility.yul\":6452:6505   */\n      tag_64\n      jump\t// in\n    tag_183:\n        /* \"#utility.yul\":6442:6505   */\n      swap2\n      pop\n        /* \"#utility.yul\":6397:6515   */\n      pop\n        /* \"#utility.yul\":6048:6522   */\n      swap3\n      pop\n      swap3\n      swap1\n      pop\n      jump\t// out\n        /* \"#utility.yul\":6528:6841   */\n    tag_27:\n        /* \"#utility.yul\":6641:6645   */\n      0x00\n        /* \"#utility.yul\":6679:6681   */\n      0x20\n        /* \"#utility.yul\":6668:6677   */\n      dup3\n        /* \"#utility.yul\":6664:6682   */\n      add\n        /* \"#utility.yul\":6656:6682   */\n      swap1\n      pop\n        /* \"#utility.yul\":6728:6737   */\n      dup2\n        /* \"#utility.yul\":6722:6726   */\n      dup2\n        /* \"#utility.yul\":6718:6738   */\n      sub\n        /* \"#utility.yul\":6714:6715   */\n      0x00\n        /* \"#utility.yul\":6703:6712   */\n      dup4\n        /* \"#utility.yul\":6699:6716   */\n      add\n        /* \"#utility.yul\":6692:6739   */\n      mstore\n        /* \"#utility.yul\":6756:6834   */\n      tag_185\n        /* \"#utility.yul\":6829:6833   */\n      dup2\n        /* \"#utility.yul\":6820:6826   */\n      dup5\n        /* \"#utility.yul\":6756:6834   */\n      tag_69\n      jump\t// in\n    tag_185:\n        /* \"#utility.yul\":6748:6834   */\n      swap1\n      pop\n        /* \"#utility.yul\":6528:6841   */\n      swap3\n      swap2\n      pop\n      pop\n      jump\t// out\n        /* \"#utility.yul\":6847:7027   */\n    tag_82:\n        /* \"#utility.yul\":6895:6972   */\n      0x4e487b7100000000000000000000000000000000000000000000000000000000\n        /* \"#utility.yul\":6892:6893   */\n      0x00\n        /* \"#utility.yul\":6885:6973   */\n      mstore\n        /* \"#utility.yul\":6992:6996   */\n      0x22\n        /* \"#utility.yul\":6989:6990   */\n      0x04\n        /* \"#utility.yul\":6982:6997   */\n      mstore\n        /* \"#utility.yul\":7016:7020   */\n      0x24\n        /* \"#utility.yul\":7013:7014   */\n      0x00\n        /* \"#utility.yul\":7006:7021   */\n      revert\n        /* \"#utility.yul\":7033:7353   */\n    tag_29:\n        /* \"#utility.yul\":7077:7083   */\n      0x00\n        /* \"#utility.yul\":7114:7115   */\n      0x02\n        /* \"#utility.yul\":7108:7112   */\n      dup3\n        /* \"#utility.yul\":7104:7116   */\n      div\n        /* \"#utility.yul\":7094:7116   */\n      swap1\n      pop\n        /* \"#utility.yul\":7161:7162   */\n      0x01\n        /* \"#utility.yul\":7155:7159   */\n      dup3\n        /* \"#utility.yul\":7151:7163   */\n      and\n        /* \"#utility.yul\":7182:7200   */\n      dup1\n        /* \"#utility.yul\":7172:7253   */\n      tag_188\n      jumpi\n        /* \"#utility.yul\":7238:7242   */\n      0x7f\n        /* \"#utility.yul\":7230:7236   */\n      dup3\n        /* \"#utility.yul\":7226:7243   */\n      and\n        /* \"#utility.yul\":7216:7243   */\n      swap2\n      pop\n        /* \"#utility.yul\":7172:7253   */\n    tag_188:\n        /* \"#utility.yul\":7300:7302   */\n      0x20\n        /* \"#utility.yul\":7292:7298   */\n      dup3\n        /* \"#utility.yul\":7289:7303   */\n      lt\n        /* \"#utility.yul\":7269:7287   */\n      dup2\n        /* \"#utility.yul\":7266:7304   */\n      sub\n        /* \"#utility.yul\":7263:7347   */\n      tag_189\n      jumpi\n        /* \"#utility.yul\":7319:7337   */\n      tag_190\n      tag_82\n      jump\t// in\n    tag_190:\n        /* \"#utility.yul\":7263:7347   */\n    tag_189:\n        /* \"#utility.yul\":7084:7353   */\n      pop\n        /* \"#utility.yul\":7033:7353   */\n      swap2\n      swap1\n      pop\n      jump\t// out\n        /* \"#utility.yul\":7359:7538   */\n    tag_83:\n        /* \"#utility.yul\":7499:7530   */\n      0x50726f647563742049642073686f756c64206e6f74206265205a65726f000000\n        /* \"#utility.yul\":7495:7496   */\n      0x00\n        /* \"#utility.yul\":7487:7493   */\n      dup3\n        /* \"#utility.yul\":7483:7497   */\n      add\n        /* \"#utility.yul\":7476:7531   */\n      mstore\n        /* \"#utility.yul\":7359:7538   */\n      pop\n      jump\t// out\n        /* \"#utility.yul\":7544:7910   */\n    tag_84:\n        /* \"#utility.yul\":7686:7689   */\n      0x00\n        /* \"#utility.yul\":7707:7774   */\n      tag_193\n        /* \"#utility.yul\":7771:7773   */\n      0x1d\n        /* \"#utility.yul\":7766:7769   */\n      dup4\n        /* \"#utility.yul\":7707:7774   */\n      tag_66\n      jump\t// in\n    tag_193:\n        /* \"#utility.yul\":7700:7774   */\n      swap2\n      pop\n        /* \"#utility.yul\":7783:7876   */\n      tag_194\n        /* \"#utility.yul\":7872:7875   */\n      dup3\n        /* \"#utility.yul\":7783:7876   */\n      tag_83\n      jump\t// in\n    tag_194:\n        /* \"#utility.yul\":7901:7903   */\n      0x20\n        /* \"#utility.yul\":7896:7899   */\n      dup3\n        /* \"#utility.yul\":7892:7904   */\n      add\n        /* \"#utility.yul\":7885:7904   */\n      swap1\n      pop\n        /* \"#utility.yul\":7544:7910   */\n      swap2\n      swap1\n      pop\n      jump\t// out\n        /* \"#utility.yul\":7916:8335   */\n    tag_37:\n        /* \"#utility.yul\":8082:8086   */\n      0x00\n        /* \"#utility.yul\":8120:8122   */\n      0x20\n        /* \"#utility.yul\":8109:8118   */\n      dup3\n        /* \"#utility.yul\":8105:8123   */\n      add\n        /* \"#utility.yul\":8097:8123   */\n      swap1\n      pop\n        /* \"#utility.yul\":8169:8178   */\n      dup2\n        /* \"#utility.yul\":8163:8167   */\n      dup2\n        /* \"#utility.yul\":8159:8179   */\n      sub\n        /* \"#utility.yul\":8155:8156   */\n      0x00\n        /* \"#utility.yul\":8144:8153   */\n      dup4\n        /* \"#utility.yul\":8140:8157   */\n      add\n        /* \"#utility.yul\":8133:8180   */\n      mstore\n        /* \"#utility.yul\":8197:8328   */\n      tag_196\n        /* \"#utility.yul\":8323:8327   */\n      dup2\n        /* \"#utility.yul\":8197:8328   */\n      tag_84\n      jump\t// in\n    tag_196:\n        /* \"#utility.yul\":8189:8328   */\n      swap1\n      pop\n        /* \"#utility.yul\":7916:8335   */\n      swap2\n      swap1\n      pop\n      jump\t// out\n        /* \"#utility.yul\":8341:8576   */\n    tag_85:\n        /* \"#utility.yul\":8481:8515   */\n      0x5072696365206f66207468652070726f647563742073686f756c642062652047\n        /* \"#utility.yul\":8477:8478   */\n      0x00\n        /* \"#utility.yul\":8469:8475   */\n      dup3\n        /* \"#utility.yul\":8465:8479   */\n      add\n        /* \"#utility.yul\":8458:8516   */\n      mstore\n        /* \"#utility.yul\":8550:8568   */\n      0x726561746572207468616e205a65726f00000000000000000000000000000000\n        /* \"#utility.yul\":8545:8547   */\n      0x20\n        /* \"#utility.yul\":8537:8543   */\n      dup3\n        /* \"#utility.yul\":8533:8548   */\n      add\n        /* \"#utility.yul\":8526:8569   */\n      mstore\n        /* \"#utility.yul\":8341:8576   */\n      pop\n      jump\t// out\n        /* \"#utility.yul\":8582:8948   */\n    tag_86:\n        /* \"#utility.yul\":8724:8727   */\n      0x00\n        /* \"#utility.yul\":8745:8812   */\n      tag_199\n        /* \"#utility.yul\":8809:8811   */\n      0x30\n        /* \"#utility.yul\":8804:8807   */\n      dup4\n        /* \"#utility.yul\":8745:8812   */\n      tag_66\n      jump\t// in\n    tag_199:\n        /* \"#utility.yul\":8738:8812   */\n      swap2\n      pop\n        /* \"#utility.yul\":8821:8914   */\n      tag_200\n        /* \"#utility.yul\":8910:8913   */\n      dup3\n        /* \"#utility.yul\":8821:8914   */\n      tag_85\n      jump\t// in\n    tag_200:\n        /* \"#utility.yul\":8939:8941   */\n      0x40\n        /* \"#utility.yul\":8934:8937   */\n      dup3\n        /* \"#utility.yul\":8930:8942   */\n      add\n        /* \"#utility.yul\":8923:8942   */\n      swap1\n      pop\n        /* \"#utility.yul\":8582:8948   */\n      swap2\n      swap1\n      pop\n      jump\t// out\n        /* \"#utility.yul\":8954:9373   */\n    tag_40:\n        /* \"#utility.yul\":9120:9124   */\n      0x00\n        /* \"#utility.yul\":9158:9160   */\n      0x20\n        /* \"#utility.yul\":9147:9156   */\n      dup3\n        /* \"#utility.yul\":9143:9161   */\n      add\n        /* \"#utility.yul\":9135:9161   */\n      swap1\n      pop\n        /* \"#utility.yul\":9207:9216   */\n      dup2\n        /* \"#utility.yul\":9201:9205   */\n      dup2\n        /* \"#utility.yul\":9197:9217   */\n      sub\n        /* \"#utility.yul\":9193:9194   */\n      0x00\n        /* \"#utility.yul\":9182:9191   */\n      dup4\n        /* \"#utility.yul\":9178:9195   */\n      add\n        /* \"#utility.yul\":9171:9218   */\n      mstore\n        /* \"#utility.yul\":9235:9366   */\n      tag_202\n        /* \"#utility.yul\":9361:9365   */\n      dup2\n        /* \"#utility.yul\":9235:9366   */\n      tag_86\n      jump\t// in\n    tag_202:\n        /* \"#utility.yul\":9227:9366   */\n      swap1\n      pop\n        /* \"#utility.yul\":8954:9373   */\n      swap2\n      swap1\n      pop\n      jump\t// out\n        /* \"#utility.yul\":9379:9561   */\n    tag_87:\n        /* \"#utility.yul\":9519:9553   */\n      0x50726f64756374204e616d652073686f756c64206e6f7420626520456d707479\n        /* \"#utility.yul\":9515:9516   */\n      0x00\n        /* \"#utility.yul\":9507:9513   */\n      dup3\n        /* \"#utility.yul\":9503:9517   */\n      add\n        /* \"#utility.yul\":9496:9554   */\n      mstore\n        /* \"#utility.yul\":9379:9561   */\n      pop\n      jump\t// out\n        /* \"#utility.yul\":9567:9933   */\n    tag_88:\n        /* \"#utility.yul\":9709:9712   */\n      0x00\n        /* \"#utility.yul\":9730:9797   */\n      tag_205\n        /* \"#utility.yul\":9794:9796   */\n      0x20\n        /* \"#utility.yul\":9789:9792   */\n      dup4\n        /* \"#utility.yul\":9730:9797   */\n      tag_66\n      jump\t// in\n    tag_205:\n        /* \"#utility.yul\":9723:9797   */\n      swap2\n      pop\n        /* \"#utility.yul\":9806:9899   */\n      tag_206\n        /* \"#utility.yul\":9895:9898   */\n      dup3\n        /* \"#utility.yul\":9806:9899   */\n      tag_87\n      jump\t// in\n    tag_206:\n        /* \"#utility.yul\":9924:9926   */\n      0x20\n        /* \"#utility.yul\":9919:9922   */\n      dup3\n        /* \"#utility.yul\":9915:9927   */\n      add\n        /* \"#utility.yul\":9908:9927   */\n      swap1\n      pop\n        /* \"#utility.yul\":9567:9933   */\n      swap2\n      swap1\n      pop\n      jump\t// out\n        /* \"#utility.yul\":9939:10358   */\n    tag_43:\n        /* \"#utility.yul\":10105:10109   */\n      0x00\n        /* \"#utility.yul\":10143:10145   */\n      0x20\n        /* \"#utility.yul\":10132:10141   */\n      dup3\n        /* \"#utility.yul\":10128:10146   */\n      add\n        /* \"#utility.yul\":10120:10146   */\n      swap1\n      pop\n        /* \"#utility.yul\":10192:10201   */\n      dup2\n        /* \"#utility.yul\":10186:10190   */\n      dup2\n        /* \"#utility.yul\":10182:10202   */\n      sub\n        /* \"#utility.yul\":10178:10179   */\n      0x00\n        /* \"#utility.yul\":10167:10176   */\n      dup4\n        /* \"#utility.yul\":10163:10180   */\n      add\n        /* \"#utility.yul\":10156:10203   */\n      mstore\n        /* \"#utility.yul\":10220:10351   */\n      tag_208\n        /* \"#utility.yul\":10346:10350   */\n      dup2\n        /* \"#utility.yul\":10220:10351   */\n      tag_88\n      jump\t// in\n    tag_208:\n        /* \"#utility.yul\":10212:10351   */\n      swap1\n      pop\n        /* \"#utility.yul\":9939:10358   */\n      swap2\n      swap1\n      pop\n      jump\t// out\n        /* \"#utility.yul\":10364:10505   */\n    tag_89:\n        /* \"#utility.yul\":10413:10417   */\n      0x00\n        /* \"#utility.yul\":10436:10439   */\n      dup2\n        /* \"#utility.yul\":10428:10439   */\n      swap1\n      pop\n        /* \"#utility.yul\":10459:10462   */\n      dup2\n        /* \"#utility.yul\":10456:10457   */\n      0x00\n        /* \"#utility.yul\":10449:10463   */\n      mstore\n        /* \"#utility.yul\":10493:10497   */\n      0x20\n        /* \"#utility.yul\":10490:10491   */\n      0x00\n        /* \"#utility.yul\":10480:10498   */\n      keccak256\n        /* \"#utility.yul\":10472:10498   */\n      swap1\n      pop\n        /* \"#utility.yul\":10364:10505   */\n      swap2\n      swap1\n      pop\n      jump\t// out\n        /* \"#utility.yul\":10511:10604   */\n    tag_90:\n        /* \"#utility.yul\":10548:10554   */\n      0x00\n        /* \"#utility.yul\":10595:10597   */\n      0x20\n        /* \"#utility.yul\":10590:10592   */\n      0x1f\n        /* \"#utility.yul\":10583:10588   */\n      dup4\n        /* \"#utility.yul\":10579:10593   */\n      add\n        /* \"#utility.yul\":10575:10598   */\n      div\n        /* \"#utility.yul\":10565:10598   */\n      swap1\n      pop\n        /* \"#utility.yul\":10511:10604   */\n      swap2\n      swap1\n      pop\n      jump\t// out\n        /* \"#utility.yul\":10610:10717   */\n    tag_91:\n        /* \"#utility.yul\":10654:10662   */\n      0x00\n        /* \"#utility.yul\":10704:10709   */\n      dup3\n        /* \"#utility.yul\":10698:10702   */\n      dup3\n        /* \"#utility.yul\":10694:10710   */\n      shl\n        /* \"#utility.yul\":10673:10710   */\n      swap1\n      pop\n        /* \"#utility.yul\":10610:10717   */\n      swap3\n      swap2\n      pop\n      pop\n      jump\t// out\n        /* \"#utility.yul\":10723:11116   */\n    tag_92:\n        /* \"#utility.yul\":10792:10798   */\n      0x00\n        /* \"#utility.yul\":10842:10843   */\n      0x08\n        /* \"#utility.yul\":10830:10840   */\n      dup4\n        /* \"#utility.yul\":10826:10844   */\n      mul\n        /* \"#utility.yul\":10865:10962   */\n      tag_213\n        /* \"#utility.yul\":10895:10961   */\n      0xffffffffffffffffffffffffffffffffffffffffffffffffffffffffffffffff\n        /* \"#utility.yul\":10884:10893   */\n      dup3\n        /* \"#utility.yul\":10865:10962   */\n      tag_91\n      jump\t// in\n    tag_213:\n        /* \"#utility.yul\":10983:11022   */\n      tag_214\n        /* \"#utility.yul\":11013:11021   */\n      dup7\n        /* \"#utility.yul\":11002:11011   */\n      dup4\n        /* \"#utility.yul\":10983:11022   */\n      tag_91\n      jump\t// in\n    tag_214:\n        /* \"#utility.yul\":10971:11022   */\n      swap6\n      pop\n        /* \"#utility.yul\":11055:11059   */\n      dup1\n        /* \"#utility.yul\":11051:11060   */\n      not\n        /* \"#utility.yul\":11044:11049   */\n      dup5\n        /* \"#utility.yul\":11040:11061   */\n      and\n        /* \"#utility.yul\":11031:11061   */\n      swap4\n      pop\n        /* \"#utility.yul\":11104:11108   */\n      dup1\n        /* \"#utility.yul\":11094:11102   */\n      dup7\n        /* \"#utility.yul\":11090:11109   */\n      and\n        /* \"#utility.yul\":11083:11088   */\n      dup5\n        /* \"#utility.yul\":11080:11110   */\n      or\n        /* \"#utility.yul\":11070:11110   */\n      swap3\n      pop\n        /* \"#utility.yul\":10799:11116   */\n      pop\n      pop\n        /* \"#utility.yul\":10723:11116   */\n      swap4\n      swap3\n      pop\n      pop\n      pop\n      jump\t// out\n        /* \"#utility.yul\":11122:11182   */\n    tag_93:\n        /* \"#utility.yul\":11150:11153   */\n      0x00\n        /* \"#utility.yul\":11171:11176   */\n      dup2\n        /* \"#utility.yul\":11164:11176   */\n      swap1\n      pop\n        /* \"#utility.yul\":11122:11182   */\n      swap2\n      swap1\n      pop\n      jump\t// out\n        /* \"#utility.yul\":11188:11330   */\n    tag_94:\n        /* \"#utility.yul\":11238:11247   */\n      0x00\n        /* \"#utility.yul\":11271:11324   */\n      tag_217\n        /* \"#utility.yul\":11289:11323   */\n      tag_218\n        /* \"#utility.yul\":11298:11322   */\n      tag_219\n        /* \"#utility.yul\":11316:11321   */\n      dup5\n        /* \"#utility.yul\":11298:11322   */\n      tag_62\n      jump\t// in\n    tag_219:\n        /* \"#utility.yul\":11289:11323   */\n      tag_93\n      jump\t// in\n    tag_218:\n        /* \"#utility.yul\":11271:11324   */\n      tag_62\n      jump\t// in\n    tag_217:\n        /* \"#utility.yul\":11258:11324   */\n      swap1\n      pop\n        /* \"#utility.yul\":11188:11330   */\n      swap2\n      swap1\n      pop\n      jump\t// out\n        /* \"#utility.yul\":11336:11411   */\n    tag_95:\n        /* \"#utility.yul\":11379:11382   */\n      0x00\n        /* \"#utility.yul\":11400:11405   */\n      dup2\n        /* \"#utility.yul\":11393:11405   */\n      swap1\n      pop\n        /* \"#utility.yul\":11336:11411   */\n      swap2\n      swap1\n      pop\n      jump\t// out\n        /* \"#utility.yul\":11417:11686   */\n    tag_96:\n        /* \"#utility.yul\":11527:11566   */\n      tag_222\n        /* \"#utility.yul\":11558:11565   */\n      dup4\n        /* \"#utility.yul\":11527:11566   */\n      tag_94\n      jump\t// in\n    tag_222:\n        /* \"#utility.yul\":11588:11679   */\n      tag_223\n        /* \"#utility.yul\":11637:11678   */\n      tag_224\n        /* \"#utility.yul\":11661:11677   */\n      dup3\n        /* \"#utility.yul\":11637:11678   */\n      tag_95\n      jump\t// in\n    tag_224:\n        /* \"#utility.yul\":11629:11635   */\n      dup5\n        /* \"#utility.yul\":11622:11626   */\n      dup5\n        /* \"#utility.yul\":11616:11627   */\n      sload\n        /* \"#utility.yul\":11588:11679   */\n      tag_92\n      jump\t// in\n    tag_223:\n        /* \"#utility.yul\":11582:11586   */\n      dup3\n        /* \"#utility.yul\":11575:11680   */\n      sstore\n        /* \"#utility.yul\":11493:11686   */\n      pop\n        /* \"#utility.yul\":11417:11686   */\n      pop\n      pop\n      pop\n      jump\t// out\n        /* \"#utility.yul\":11692:11765   */\n    tag_97:\n        /* \"#utility.yul\":11737:11740   */\n      0x00\n        /* \"#utility.yul\":11692:11765   */\n      swap1\n      jump\t// out\n        /* \"#utility.yul\":11771:11960   */\n    tag_98:\n        /* \"#utility.yul\":11848:11880   */\n      tag_227\n      tag_97\n      jump\t// in\n    tag_227:\n        /* \"#utility.yul\":11889:11954   */\n      tag_228\n        /* \"#utility.yul\":11947:11953   */\n      dup2\n        /* \"#utility.yul\":11939:11945   */\n      dup5\n        /* \"#utility.yul\":11933:11937   */\n      dup5\n        /* \"#utility.yul\":11889:11954   */\n      tag_96\n      jump\t// in\n    tag_228:\n        /* \"#utility.yul\":11824:11960   */\n      pop\n        /* \"#utility.yul\":11771:11960   */\n      pop\n      pop\n      jump\t// out\n        /* \"#utility.yul\":11966:12152   */\n    tag_99:\n        /* \"#utility.yul\":12026:12146   */\n    tag_230:\n        /* \"#utility.yul\":12043:12046   */\n      dup2\n        /* \"#utility.yul\":12036:12041   */\n      dup2\n        /* \"#utility.yul\":12033:12047   */\n      lt\n        /* \"#utility.yul\":12026:12146   */\n      iszero\n      tag_232\n      jumpi\n        /* \"#utility.yul\":12097:12136   */\n      tag_233\n        /* \"#utility.yul\":12134:12135   */\n      0x00\n        /* \"#utility.yul\":12127:12132   */\n      dup3\n        /* \"#utility.yul\":12097:12136   */\n      tag_98\n      jump\t// in\n    tag_233:\n        /* \"#utility.yul\":12070:12071   */\n      0x01\n        /* \"#utility.yul\":12063:12068   */\n      dup2\n        /* \"#utility.yul\":12059:12072   */\n      add\n        /* \"#utility.yul\":12050:12072   */\n      swap1\n      pop\n        /* \"#utility.yul\":12026:12146   */\n      jump(tag_230)\n    tag_232:\n        /* \"#utility.yul\":11966:12152   */\n      pop\n      pop\n      jump\t// out\n        /* \"#utility.yul\":12158:12701   */\n    tag_100:\n        /* \"#utility.yul\":12259:12261   */\n      0x1f\n        /* \"#utility.yul\":12254:12257   */\n      dup3\n        /* \"#utility.yul\":12251:12262   */\n      gt\n        /* \"#utility.yul\":12248:12694   */\n      iszero\n      tag_235\n      jumpi\n        /* \"#utility.yul\":12293:12331   */\n      tag_236\n        /* \"#utility.yul\":12325:12330   */\n      dup2\n        /* \"#utility.yul\":12293:12331   */\n      tag_89\n      jump\t// in\n    tag_236:\n        /* \"#utility.yul\":12377:12406   */\n      tag_237\n        /* \"#utility.yul\":12395:12405   */\n      dup5\n        /* \"#utility.yul\":12377:12406   */\n      tag_90\n      jump\t// in\n    tag_237:\n        /* \"#utility.yul\":12367:12375   */\n      dup2\n        /* \"#utility.yul\":12363:12407   */\n      add\n        /* \"#utility.yul\":12560:12562   */\n      0x20\n        /* \"#utility.yul\":12548:12558   */\n      dup6\n        /* \"#utility.yul\":12545:12563   */\n      lt\n        /* \"#utility.yul\":12542:12591   */\n      iszero\n      tag_238\n      jumpi\n        /* \"#utility.yul\":12581:12589   */\n      dup2\n        /* \"#utility.yul\":12566:12589   */\n      swap1\n      pop\n        /* \"#utility.yul\":12542:12591   */\n    tag_238:\n        /* \"#utility.yul\":12604:12684   */\n      tag_239\n        /* \"#utility.yul\":12660:12682   */\n      tag_240\n        /* \"#utility.yul\":12678:12681   */\n      dup6\n        /* \"#utility.yul\":12660:12682   */\n      tag_90\n      jump\t// in\n    tag_240:\n        /* \"#utility.yul\":12650:12658   */\n      dup4\n        /* \"#utility.yul\":12646:12683   */\n      add\n        /* \"#utility.yul\":12633:12644   */\n      dup3\n        /* \"#utility.yul\":12604:12684   */\n      tag_99\n      jump\t// in\n    tag_239:\n        /* \"#utility.yul\":12263:12694   */\n      pop\n      pop\n        /* \"#utility.yul\":12248:12694   */\n    tag_235:\n        /* \"#utility.yul\":12158:12701   */\n      pop\n      pop\n      pop\n      jump\t// out\n        /* \"#utility.yul\":12707:12824   */\n    tag_101:\n        /* \"#utility.yul\":12761:12769   */\n      0x00\n        /* \"#utility.yul\":12811:12816   */\n      dup3\n        /* \"#utility.yul\":12805:12809   */\n      dup3\n        /* \"#utility.yul\":12801:12817   */\n      shr\n        /* \"#utility.yul\":12780:12817   */\n      swap1\n      pop\n        /* \"#utility.yul\":12707:12824   */\n      swap3\n      swap2\n      pop\n      pop\n      jump\t// out\n        /* \"#utility.yul\":12830:12999   */\n    tag_102:\n        /* \"#utility.yul\":12874:12880   */\n      0x00\n        /* \"#utility.yul\":12907:12958   */\n      tag_243\n        /* \"#utility.yul\":12955:12956   */\n      0x00\n        /* \"#utility.yul\":12951:12957   */\n      not\n        /* \"#utility.yul\":12943:12948   */\n      dup5\n        /* \"#utility.yul\":12940:12941   */\n      0x08\n        /* \"#utility.yul\":12936:12949   */\n      mul\n        /* \"#utility.yul\":12907:12958   */\n      tag_101\n      jump\t// in\n    tag_243:\n        /* \"#utility.yul\":12903:12959   */\n      not\n        /* \"#utility.yul\":12988:12992   */\n      dup1\n        /* \"#utility.yul\":12982:12986   */\n      dup4\n        /* \"#utility.yul\":12978:12993   */\n      and\n        /* \"#utility.yul\":12968:12993   */\n      swap2\n      pop\n        /* \"#utility.yul\":12881:12999   */\n      pop\n        /* \"#utility.yul\":12830:12999   */\n      swap3\n      swap2\n      pop\n      pop\n      jump\t// out\n        /* \"#utility.yul\":13004:13299   */\n    tag_103:\n        /* \"#utility.yul\":13080:13084   */\n      0x00\n        /* \"#utility.yul\":13226:13255   */\n      tag_245\n        /* \"#utility.yul\":13251:13254   */\n      dup4\n        /* \"#utility.yul\":13245:13249   */\n      dup4\n        /* \"#utility.yul\":13226:13255   */\n      tag_102\n      jump\t// in\n    tag_245:\n        /* \"#utility.yul\":13218:13255   */\n      swap2\n      pop\n        /* \"#utility.yul\":13288:13291   */\n      dup3\n        /* \"#utility.yul\":13285:13286   */\n      0x02\n        /* \"#utility.yul\":13281:13292   */\n      mul\n        /* \"#utility.yul\":13275:13279   */\n      dup3\n        /* \"#utility.yul\":13272:13293   */\n      or\n        /* \"#utility.yul\":13264:13293   */\n      swap1\n      pop\n        /* \"#utility.yul\":13004:13299   */\n      swap3\n      swap2\n      pop\n      pop\n      jump\t// out\n        /* \"#utility.yul\":13304:14699   */\n    tag_45:\n        /* \"#utility.yul\":13421:13458   */\n      tag_247\n        /* \"#utility.yul\":13454:13457   */\n      dup3\n        /* \"#utility.yul\":13421:13458   */\n      tag_65\n      jump\t// in\n    tag_247:\n        /* \"#utility.yul\":13523:13541   */\n      0xffffffffffffffff\n        /* \"#utility.yul\":13515:13521   */\n      dup2\n        /* \"#utility.yul\":13512:13542   */\n      gt\n        /* \"#utility.yul\":13509:13565   */\n      iszero\n      tag_248\n      jumpi\n        /* \"#utility.yul\":13545:13563   */\n      tag_249\n      tag_75\n      jump\t// in\n    tag_249:\n        /* \"#utility.yul\":13509:13565   */\n    tag_248:\n        /* \"#utility.yul\":13589:13627   */\n      tag_250\n        /* \"#utility.yul\":13621:13625   */\n      dup3\n        /* \"#utility.yul\":13615:13626   */\n      sload\n        /* \"#utility.yul\":13589:13627   */\n      tag_29\n      jump\t// in\n    tag_250:\n        /* \"#utility.yul\":13674:13741   */\n      tag_251\n        /* \"#utility.yul\":13734:13740   */\n      dup3\n        /* \"#utility.yul\":13726:13732   */\n      dup3\n        /* \"#utility.yul\":13720:13724   */\n      dup6\n        /* \"#utility.yul\":13674:13741   */\n      tag_100\n      jump\t// in\n    tag_251:\n        /* \"#utility.yul\":13768:13769   */\n      0x00\n        /* \"#utility.yul\":13792:13796   */\n      0x20\n        /* \"#utility.yul\":13779:13796   */\n      swap1\n      pop\n        /* \"#utility.yul\":13824:13826   */\n      0x1f\n        /* \"#utility.yul\":13816:13822   */\n      dup4\n        /* \"#utility.yul\":13813:13827   */\n      gt\n        /* \"#utility.yul\":13841:13842   */\n      0x01\n        /* \"#utility.yul\":13836:14454   */\n      dup2\n      eq\n      tag_253\n      jumpi\n        /* \"#utility.yul\":14498:14499   */\n      0x00\n        /* \"#utility.yul\":14515:14521   */\n      dup5\n        /* \"#utility.yul\":14512:14589   */\n      iszero\n      tag_254\n      jumpi\n        /* \"#utility.yul\":14564:14573   */\n      dup3\n        /* \"#utility.yul\":14559:14562   */\n      dup8\n        /* \"#utility.yul\":14555:14574   */\n      add\n        /* \"#utility.yul\":14549:14575   */\n      mload\n        /* \"#utility.yul\":14540:14575   */\n      swap1\n      pop\n        /* \"#utility.yul\":14512:14589   */\n    tag_254:\n        /* \"#utility.yul\":14615:14682   */\n      tag_255\n        /* \"#utility.yul\":14675:14681   */\n      dup6\n        /* \"#utility.yul\":14668:14673   */\n      dup3\n        /* \"#utility.yul\":14615:14682   */\n      tag_103\n      jump\t// in\n    tag_255:\n        /* \"#utility.yul\":14609:14613   */\n      dup7\n        /* \"#utility.yul\":14602:14683   */\n      sstore\n        /* \"#utility.yul\":14471:14693   */\n      pop\n        /* \"#utility.yul\":13806:14693   */\n      jump(tag_252)\n        /* \"#utility.yul\":13836:14454   */\n    tag_253:\n        /* \"#utility.yul\":13888:13892   */\n      0x1f\n        /* \"#utility.yul\":13884:13893   */\n      not\n        /* \"#utility.yul\":13876:13882   */\n      dup5\n        /* \"#utility.yul\":13872:13894   */\n      and\n        /* \"#utility.yul\":13922:13959   */\n      tag_256\n        /* \"#utility.yul\":13954:13958   */\n      dup7\n        /* \"#utility.yul\":13922:13959   */\n      tag_89\n      jump\t// in\n    tag_256:\n        /* \"#utility.yul\":13981:13982   */\n      0x00\n        /* \"#utility.yul\":13995:14203   */\n    tag_257:\n        /* \"#utility.yul\":14009:14016   */\n      dup3\n        /* \"#utility.yul\":14006:14007   */\n      dup2\n        /* \"#utility.yul\":14003:14017   */\n      lt\n        /* \"#utility.yul\":13995:14203   */\n      iszero\n      tag_259\n      jumpi\n        /* \"#utility.yul\":14088:14097   */\n      dup5\n        /* \"#utility.yul\":14083:14086   */\n      dup10\n        /* \"#utility.yul\":14079:14098   */\n      add\n        /* \"#utility.yul\":14073:14099   */\n      mload\n        /* \"#utility.yul\":14065:14071   */\n      dup3\n        /* \"#utility.yul\":14058:14100   */\n      sstore\n        /* \"#utility.yul\":14139:14140   */\n      0x01\n        /* \"#utility.yul\":14131:14137   */\n      dup3\n        /* \"#utility.yul\":14127:14141   */\n      add\n        /* \"#utility.yul\":14117:14141   */\n      swap2\n      pop\n        /* \"#utility.yul\":14186:14188   */\n      0x20\n        /* \"#utility.yul\":14175:14184   */\n      dup6\n        /* \"#utility.yul\":14171:14189   */\n      add\n        /* \"#utility.yul\":14158:14189   */\n      swap5\n      pop\n        /* \"#utility.yul\":14032:14036   */\n      0x20\n        /* \"#utility.yul\":14029:14030   */\n      dup2\n        /* \"#utility.yul\":14025:14037   */\n      add\n        /* \"#utility.yul\":14020:14037   */\n      swap1\n      pop\n        /* \"#utility.yul\":13995:14203   */\n      jump(tag_257)\n    tag_259:\n        /* \"#utility.yul\":14231:14237   */\n      dup7\n        /* \"#utility.yul\":14222:14229   */\n      dup4\n        /* \"#utility.yul\":14219:14238   */\n      lt\n        /* \"#utility.yul\":14216:14395   */\n      iszero\n      tag_260\n      jumpi\n        /* \"#utility.yul\":14289:14298   */\n      dup5\n        /* \"#utility.yul\":14284:14287   */\n      dup10\n        /* \"#utility.yul\":14280:14299   */\n      add\n        /* \"#utility.yul\":14274:14300   */\n      mload\n        /* \"#utility.yul\":14332:14380   */\n      tag_261\n        /* \"#utility.yul\":14374:14378   */\n      0x1f\n        /* \"#utility.yul\":14366:14372   */\n      dup10\n        /* \"#utility.yul\":14362:14379   */\n      and\n        /* \"#utility.yul\":14351:14360   */\n      dup3\n        /* \"#utility.yul\":14332:14380   */\n      tag_102\n      jump\t// in\n    tag_261:\n        /* \"#utility.yul\":14324:14330   */\n      dup4\n        /* \"#utility.yul\":14317:14381   */\n      sstore\n        /* \"#utility.yul\":14239:14395   */\n      pop\n        /* \"#utility.yul\":14216:14395   */\n    tag_260:\n        /* \"#utility.yul\":14441:14442   */\n      0x01\n        /* \"#utility.yul\":14437:14438   */\n      0x02\n        /* \"#utility.yul\":14429:14435   */\n      dup9\n        /* \"#utility.yul\":14425:14439   */\n      mul\n        /* \"#utility.yul\":14421:14443   */\n      add\n        /* \"#utility.yul\":14415:14419   */\n      dup9\n        /* \"#utility.yul\":14408:14444   */\n      sstore\n        /* \"#utility.yul\":13843:14454   */\n      pop\n      pop\n      pop\n        /* \"#utility.yul\":13806:14693   */\n    tag_252:\n      pop\n        /* \"#utility.yul\":13396:14699   */\n      pop\n      pop\n      pop\n        /* \"#utility.yul\":13304:14699   */\n      pop\n      pop\n      jump\t// out\n        /* \"#utility.yul\":14705:14885   */\n    tag_104:\n        /* \"#utility.yul\":14753:14830   */\n      0x4e487b7100000000000000000000000000000000000000000000000000000000\n        /* \"#utility.yul\":14750:14751   */\n      0x00\n        /* \"#utility.yul\":14743:14831   */\n      mstore\n        /* \"#utility.yul\":14850:14854   */\n      0x11\n        /* \"#utility.yul\":14847:14848   */\n      0x04\n        /* \"#utility.yul\":14840:14855   */\n      mstore\n        /* \"#utility.yul\":14874:14878   */\n      0x24\n        /* \"#utility.yul\":14871:14872   */\n      0x00\n        /* \"#utility.yul\":14864:14879   */\n      revert\n        /* \"#utility.yul\":14891:15124   */\n    tag_47:\n        /* \"#utility.yul\":14930:14933   */\n      0x00\n        /* \"#utility.yul\":14953:14977   */\n      tag_264\n        /* \"#utility.yul\":14971:14976   */\n      dup3\n        /* \"#utility.yul\":14953:14977   */\n      tag_62\n      jump\t// in\n    tag_264:\n        /* \"#utility.yul\":14944:14977   */\n      swap2\n      pop\n        /* \"#utility.yul\":14999:15065   */\n      0xffffffffffffffffffffffffffffffffffffffffffffffffffffffffffffffff\n        /* \"#utility.yul\":14992:14997   */\n      dup3\n        /* \"#utility.yul\":14989:15066   */\n      sub\n        /* \"#utility.yul\":14986:15089   */\n      tag_265\n      jumpi\n        /* \"#utility.yul\":15069:15087   */\n      tag_266\n      tag_104\n      jump\t// in\n    tag_266:\n        /* \"#utility.yul\":14986:15089   */\n    tag_265:\n        /* \"#utility.yul\":15116:15117   */\n      0x01\n        /* \"#utility.yul\":15109:15114   */\n      dup3\n        /* \"#utility.yul\":15105:15118   */\n      add\n        /* \"#utility.yul\":15098:15118   */\n      swap1\n      pop\n        /* \"#utility.yul\":14891:15124   */\n      swap2\n      swap1\n      pop\n      jump\t// out\n        /* \"#utility.yul\":15130:15300   */\n    tag_105:\n        /* \"#utility.yul\":15270:15292   */\n      0x496e73756666696369656e742042616c616e6365000000000000000000000000\n        /* \"#utility.yul\":15266:15267   */\n      0x00\n        /* \"#utility.yul\":15258:15264   */\n      dup3\n        /* \"#utility.yul\":15254:15268   */\n      add\n        /* \"#utility.yul\":15247:15293   */\n      mstore\n        /* \"#utility.yul\":15130:15300   */\n      pop\n      jump\t// out\n        /* \"#utility.yul\":15306:15672   */\n    tag_106:\n        /* \"#utility.yul\":15448:15451   */\n      0x00\n        /* \"#utility.yul\":15469:15536   */\n      tag_269\n        /* \"#utility.yul\":15533:15535   */\n      0x14\n        /* \"#utility.yul\":15528:15531   */\n      dup4\n        /* \"#utility.yul\":15469:15536   */\n      tag_66\n      jump\t// in\n    tag_269:\n        /* \"#utility.yul\":15462:15536   */\n      swap2\n      pop\n        /* \"#utility.yul\":15545:15638   */\n      tag_270\n        /* \"#utility.yul\":15634:15637   */\n      dup3\n        /* \"#utility.yul\":15545:15638   */\n      tag_105\n      jump\t// in\n    tag_270:\n        /* \"#utility.yul\":15663:15665   */\n      0x20\n        /* \"#utility.yul\":15658:15661   */\n      dup3\n        /* \"#utility.yul\":15654:15666   */\n      add\n        /* \"#utility.yul\":15647:15666   */\n      swap1\n      pop\n        /* \"#utility.yul\":15306:15672   */\n      swap2\n      swap1\n      pop\n      jump\t// out\n        /* \"#utility.yul\":15678:16097   */\n    tag_51:\n        /* \"#utility.yul\":15844:15848   */\n      0x00\n        /* \"#utility.yul\":15882:15884   */\n      0x20\n        /* \"#utility.yul\":15871:15880   */\n      dup3\n        /* \"#utility.yul\":15867:15885   */\n      add\n        /* \"#utility.yul\":15859:15885   */\n      swap1\n      pop\n        /* \"#utility.yul\":15931:15940   */\n      dup2\n        /* \"#utility.yul\":15925:15929   */\n      dup2\n        /* \"#utility.yul\":15921:15941   */\n      sub\n        /* \"#utility.yul\":15917:15918   */\n      0x00\n        /* \"#utility.yul\":15906:15915   */\n      dup4\n        /* \"#utility.yul\":15902:15919   */\n      add\n        /* \"#utility.yul\":15895:15942   */\n      mstore\n        /* \"#utility.yul\":15959:16090   */\n      tag_272\n        /* \"#utility.yul\":16085:16089   */\n      dup2\n        /* \"#utility.yul\":15959:16090   */\n      tag_106\n      jump\t// in\n    tag_272:\n        /* \"#utility.yul\":15951:16090   */\n      swap1\n      pop\n        /* \"#utility.yul\":15678:16097   */\n      swap2\n      swap1\n      pop\n      jump\t// out\n        /* \"#utility.yul\":16103:16285   */\n    tag_107:\n        /* \"#utility.yul\":16243:16277   */\n      0x526174696e672073686f756c64206265206265747765656e203120616e642035\n        /* \"#utility.yul\":16239:16240   */\n      0x00\n        /* \"#utility.yul\":16231:16237   */\n      dup3\n        /* \"#utility.yul\":16227:16241   */\n      add\n        /* \"#utility.yul\":16220:16278   */\n      mstore\n        /* \"#utility.yul\":16103:16285   */\n      pop\n      jump\t// out\n        /* \"#utility.yul\":16291:16657   */\n    tag_108:\n        /* \"#utility.yul\":16433:16436   */\n      0x00\n        /* \"#utility.yul\":16454:16521   */\n      tag_275\n        /* \"#utility.yul\":16518:16520   */\n      0x20\n        /* \"#utility.yul\":16513:16516   */\n      dup4\n        /* \"#utility.yul\":16454:16521   */\n      tag_66\n      jump\t// in\n    tag_275:\n        /* \"#utility.yul\":16447:16521   */\n      swap2\n      pop\n        /* \"#utility.yul\":16530:16623   */\n      tag_276\n        /* \"#utility.yul\":16619:16622   */\n      dup3\n        /* \"#utility.yul\":16530:16623   */\n      tag_107\n      jump\t// in\n    tag_276:\n        /* \"#utility.yul\":16648:16650   */\n      0x20\n        /* \"#utility.yul\":16643:16646   */\n      dup3\n        /* \"#utility.yul\":16639:16651   */\n      add\n        /* \"#utility.yul\":16632:16651   */\n      swap1\n      pop\n        /* \"#utility.yul\":16291:16657   */\n      swap2\n      swap1\n      pop\n      jump\t// out\n        /* \"#utility.yul\":16663:17082   */\n    tag_56:\n        /* \"#utility.yul\":16829:16833   */\n      0x00\n        /* \"#utility.yul\":16867:16869   */\n      0x20\n        /* \"#utility.yul\":16856:16865   */\n      dup3\n        /* \"#utility.yul\":16852:16870   */\n      add\n        /* \"#utility.yul\":16844:16870   */\n      swap1\n      pop\n        /* \"#utility.yul\":16916:16925   */\n      dup2\n        /* \"#utility.yul\":16910:16914   */\n      dup2\n        /* \"#utility.yul\":16906:16926   */\n      sub\n        /* \"#utility.yul\":16902:16903   */\n      0x00\n        /* \"#utility.yul\":16891:16900   */\n      dup4\n        /* \"#utility.yul\":16887:16904   */\n      add\n        /* \"#utility.yul\":16880:16927   */\n      mstore\n        /* \"#utility.yul\":16944:17075   */\n      tag_278\n        /* \"#utility.yul\":17070:17074   */\n      dup2\n        /* \"#utility.yul\":16944:17075   */\n      tag_108\n      jump\t// in\n    tag_278:\n        /* \"#utility.yul\":16936:17075   */\n      swap1\n      pop\n        /* \"#utility.yul\":16663:17082   */\n      swap2\n      swap1\n      pop\n      jump\t// out\n    stop\n    data_1b08eda45f5a261cfe8786872776d9f60d807ae39e8221e26420de29f322b200 5468616e6b20596f7520736f206d7563682c20497320746865726520616e797468696e672074686174207765206e65656420746f20496d70726f7665\n\n    auxdata: 0xa264697066735822122084942152b4ddfa95e73c1ae6bc833649aaa60533f64dbb3acf312183c39008c664736f6c63430008120033\n}\n",
				"bytecode": {
					"linkReferences": {},
					"object": "608060405234801561001057600080fd5b50336000806101000a81548173ffffffffffffffffffffffffffffffffffffffff021916908373ffffffffffffffffffffffffffffffffffffffff160217905550610e07806100606000396000f3fe60806040526004361061003f5760003560e01c8063780bd3f1146100445780637bf12b1c14610085578063a0440426146100ae578063fdefdf8d146100ca575b600080fd5b34801561005057600080fd5b5061006b600480360381019061006691906104b7565b610107565b60405161007c95949392919061059e565b60405180910390f35b34801561009157600080fd5b506100ac60048036038101906100a7919061072d565b6101d2565b005b6100c860048036038101906100c3919061079c565b61030c565b005b3480156100d657600080fd5b506100f160048036038101906100ec919061079c565b610398565b6040516100fe91906107dc565b60405180910390f35b600160205280600052604060002060009150905080600001805461012a9061082d565b80601f01602080910402602001604051908101604052809291908181526020018280546101569061082d565b80156101a35780601f10610178576101008083540402835291602001916101a3565b820191906000526020600020905b81548152906001019060200180831161018657829003601f168201915b5050505050908060010154908060020154908060030154908060040160009054906101000a900460ff16905085565b60008111610215576040517f08c379a000000000000000000000000000000000000000000000000000000000815260040161020c906108aa565b60405180910390fd5b60008211610258576040517f08c379a000000000000000000000000000000000000000000000000000000000815260040161024f9061093c565b60405180910390fd5b600083511161029c576040517f08c379a0000000000000000000000000000000000000000000000000000000008152600401610293906109a8565b60405180910390fd5b826001600083815260200190815260200160002060000190816102bf9190610b74565b5081600160008381526020019081526020016000206001018190555060016000828152602001908152602001600020600301600081548092919061030290610c75565b9190505550505050565b803373ffffffffffffffffffffffffffffffffffffffff16311015610366576040517f08c379a000000000000000000000000000000000000000000000000000000000815260040161035d90610d09565b60405180910390fd5b600180600084815260200190815260200160002060040160006101000a81548160ff0219169083151502179055505050565b6060600182101580156103ac575060058211155b6103eb576040517f08c379a00000000000000000000000000000000000000000000000000000000081526004016103e290610d75565b60405180910390fd5b8160016000858152602001908152602001600020600201819055506004821061044b576040518060400160405280601181526020017f5468616e6b20596f7520736f206d7563680000000000000000000000000000008152509050610467565b6040518060600160405280603c8152602001610d96603c913990505b92915050565b6000604051905090565b600080fd5b600080fd5b6000819050919050565b61049481610481565b811461049f57600080fd5b50565b6000813590506104b18161048b565b92915050565b6000602082840312156104cd576104cc610477565b5b60006104db848285016104a2565b91505092915050565b600081519050919050565b600082825260208201905092915050565b60005b8381101561051e578082015181840152602081019050610503565b60008484015250505050565b6000601f19601f8301169050919050565b6000610546826104e4565b61055081856104ef565b9350610560818560208601610500565b6105698161052a565b840191505092915050565b61057d81610481565b82525050565b60008115159050919050565b61059881610583565b82525050565b600060a08201905081810360008301526105b8818861053b565b90506105c76020830187610574565b6105d46040830186610574565b6105e16060830185610574565b6105ee608083018461058f565b9695505050505050565b600080fd5b600080fd5b7f4e487b7100000000000000000000000000000000000000000000000000000000600052604160045260246000fd5b61063a8261052a565b810181811067ffffffffffffffff8211171561065957610658610602565b5b80604052505050565b600061066c61046d565b90506106788282610631565b919050565b600067ffffffffffffffff82111561069857610697610602565b5b6106a18261052a565b9050602081019050919050565b82818337600083830152505050565b60006106d06106cb8461067d565b610662565b9050828152602081018484840111156106ec576106eb6105fd565b5b6106f78482856106ae565b509392505050565b600082601f830112610714576107136105f8565b5b81356107248482602086016106bd565b91505092915050565b60008060006060848603121561074657610745610477565b5b600084013567ffffffffffffffff8111156107645761076361047c565b5b610770868287016106ff565b9350506020610781868287016104a2565b9250506040610792868287016104a2565b9150509250925092565b600080604083850312156107b3576107b2610477565b5b60006107c1858286016104a2565b92505060206107d2858286016104a2565b9150509250929050565b600060208201905081810360008301526107f6818461053b565b905092915050565b7f4e487b7100000000000000000000000000000000000000000000000000000000600052602260045260246000fd5b6000600282049050600182168061084557607f821691505b602082108103610858576108576107fe565b5b50919050565b7f50726f647563742049642073686f756c64206e6f74206265205a65726f000000600082015250565b6000610894601d836104ef565b915061089f8261085e565b602082019050919050565b600060208201905081810360008301526108c381610887565b9050919050565b7f5072696365206f66207468652070726f647563742073686f756c64206265204760008201527f726561746572207468616e205a65726f00000000000000000000000000000000602082015250565b60006109266030836104ef565b9150610931826108ca565b604082019050919050565b6000602082019050818103600083015261095581610919565b9050919050565b7f50726f64756374204e616d652073686f756c64206e6f7420626520456d707479600082015250565b60006109926020836104ef565b915061099d8261095c565b602082019050919050565b600060208201905081810360008301526109c181610985565b9050919050565b60008190508160005260206000209050919050565b60006020601f8301049050919050565b600082821b905092915050565b600060088302610a2a7fffffffffffffffffffffffffffffffffffffffffffffffffffffffffffffffff826109ed565b610a3486836109ed565b95508019841693508086168417925050509392505050565b6000819050919050565b6000610a71610a6c610a6784610481565b610a4c565b610481565b9050919050565b6000819050919050565b610a8b83610a56565b610a9f610a9782610a78565b8484546109fa565b825550505050565b600090565b610ab4610aa7565b610abf818484610a82565b505050565b5b81811015610ae357610ad8600082610aac565b600181019050610ac5565b5050565b601f821115610b2857610af9816109c8565b610b02846109dd565b81016020851015610b11578190505b610b25610b1d856109dd565b830182610ac4565b50505b505050565b600082821c905092915050565b6000610b4b60001984600802610b2d565b1980831691505092915050565b6000610b648383610b3a565b9150826002028217905092915050565b610b7d826104e4565b67ffffffffffffffff811115610b9657610b95610602565b5b610ba0825461082d565b610bab828285610ae7565b600060209050601f831160018114610bde5760008415610bcc578287015190505b610bd68582610b58565b865550610c3e565b601f198416610bec866109c8565b60005b82811015610c1457848901518255600182019150602085019450602081019050610bef565b86831015610c315784890151610c2d601f891682610b3a565b8355505b6001600288020188555050505b505050505050565b7f4e487b7100000000000000000000000000000000000000000000000000000000600052601160045260246000fd5b6000610c8082610481565b91507fffffffffffffffffffffffffffffffffffffffffffffffffffffffffffffffff8203610cb257610cb1610c46565b5b600182019050919050565b7f496e73756666696369656e742042616c616e6365000000000000000000000000600082015250565b6000610cf36014836104ef565b9150610cfe82610cbd565b602082019050919050565b60006020820190508181036000830152610d2281610ce6565b9050919050565b7f526174696e672073686f756c64206265206265747765656e203120616e642035600082015250565b6000610d5f6020836104ef565b9150610d6a82610d29565b602082019050919050565b60006020820190508181036000830152610d8e81610d52565b905091905056fe5468616e6b20596f7520736f206d7563682c20497320746865726520616e797468696e672074686174207765206e65656420746f20496d70726f7665a264697066735822122084942152b4ddfa95e73c1ae6bc833649aaa60533f64dbb3acf312183c39008c664736f6c63430008120033",
					"opcodes": "PUSH1 0x80 PUSH1 0x40 MSTORE CALLVALUE DUP1 ISZERO PUSH2 0x10 JUMPI PUSH1 0x0 DUP1 REVERT JUMPDEST POP CALLER PUSH1 0x0 DUP1 PUSH2 0x100 EXP DUP2 SLOAD DUP2 PUSH20 0xFFFFFFFFFFFFFFFFFFFFFFFFFFFFFFFFFFFFFFFF MUL NOT AND SWAP1 DUP4 PUSH20 0xFFFFFFFFFFFFFFFFFFFFFFFFFFFFFFFFFFFFFFFF AND MUL OR SWAP1 SSTORE POP PUSH2 0xE07 DUP1 PUSH2 0x60 PUSH1 0x0 CODECOPY PUSH1 0x0 RETURN INVALID PUSH1 0x80 PUSH1 0x40 MSTORE PUSH1 0x4 CALLDATASIZE LT PUSH2 0x3F JUMPI PUSH1 0x0 CALLDATALOAD PUSH1 0xE0 SHR DUP1 PUSH4 0x780BD3F1 EQ PUSH2 0x44 JUMPI DUP1 PUSH4 0x7BF12B1C EQ PUSH2 0x85 JUMPI DUP1 PUSH4 0xA0440426 EQ PUSH2 0xAE JUMPI DUP1 PUSH4 0xFDEFDF8D EQ PUSH2 0xCA JUMPI JUMPDEST PUSH1 0x0 DUP1 REVERT JUMPDEST CALLVALUE DUP1 ISZERO PUSH2 0x50 JUMPI PUSH1 0x0 DUP1 REVERT JUMPDEST POP PUSH2 0x6B PUSH1 0x4 DUP1 CALLDATASIZE SUB DUP2 ADD SWAP1 PUSH2 0x66 SWAP2 SWAP1 PUSH2 0x4B7 JUMP JUMPDEST PUSH2 0x107 JUMP JUMPDEST PUSH1 0x40 MLOAD PUSH2 0x7C SWAP6 SWAP5 SWAP4 SWAP3 SWAP2 SWAP1 PUSH2 0x59E JUMP JUMPDEST PUSH1 0x40 MLOAD DUP1 SWAP2 SUB SWAP1 RETURN JUMPDEST CALLVALUE DUP1 ISZERO PUSH2 0x91 JUMPI PUSH1 0x0 DUP1 REVERT JUMPDEST POP PUSH2 0xAC PUSH1 0x4 DUP1 CALLDATASIZE SUB DUP2 ADD SWAP1 PUSH2 0xA7 SWAP2 SWAP1 PUSH2 0x72D JUMP JUMPDEST PUSH2 0x1D2 JUMP JUMPDEST STOP JUMPDEST PUSH2 0xC8 PUSH1 0x4 DUP1 CALLDATASIZE SUB DUP2 ADD SWAP1 PUSH2 0xC3 SWAP2 SWAP1 PUSH2 0x79C JUMP JUMPDEST PUSH2 0x30C JUMP JUMPDEST STOP JUMPDEST CALLVALUE DUP1 ISZERO PUSH2 0xD6 JUMPI PUSH1 0x0 DUP1 REVERT JUMPDEST POP PUSH2 0xF1 PUSH1 0x4 DUP1 CALLDATASIZE SUB DUP2 ADD SWAP1 PUSH2 0xEC SWAP2 SWAP1 PUSH2 0x79C JUMP JUMPDEST PUSH2 0x398 JUMP JUMPDEST PUSH1 0x40 MLOAD PUSH2 0xFE SWAP2 SWAP1 PUSH2 0x7DC JUMP JUMPDEST PUSH1 0x40 MLOAD DUP1 SWAP2 SUB SWAP1 RETURN JUMPDEST PUSH1 0x1 PUSH1 0x20 MSTORE DUP1 PUSH1 0x0 MSTORE PUSH1 0x40 PUSH1 0x0 KECCAK256 PUSH1 0x0 SWAP2 POP SWAP1 POP DUP1 PUSH1 0x0 ADD DUP1 SLOAD PUSH2 0x12A SWAP1 PUSH2 0x82D JUMP JUMPDEST DUP1 PUSH1 0x1F ADD PUSH1 0x20 DUP1 SWAP2 DIV MUL PUSH1 0x20 ADD PUSH1 0x40 MLOAD SWAP1 DUP2 ADD PUSH1 0x40 MSTORE DUP1 SWAP3 SWAP2 SWAP1 DUP2 DUP2 MSTORE PUSH1 0x20 ADD DUP3 DUP1 SLOAD PUSH2 0x156 SWAP1 PUSH2 0x82D JUMP JUMPDEST DUP1 ISZERO PUSH2 0x1A3 JUMPI DUP1 PUSH1 0x1F LT PUSH2 0x178 JUMPI PUSH2 0x100 DUP1 DUP4 SLOAD DIV MUL DUP4 MSTORE SWAP2 PUSH1 0x20 ADD SWAP2 PUSH2 0x1A3 JUMP JUMPDEST DUP3 ADD SWAP2 SWAP1 PUSH1 0x0 MSTORE PUSH1 0x20 PUSH1 0x0 KECCAK256 SWAP1 JUMPDEST DUP2 SLOAD DUP2 MSTORE SWAP1 PUSH1 0x1 ADD SWAP1 PUSH1 0x20 ADD DUP1 DUP4 GT PUSH2 0x186 JUMPI DUP3 SWAP1 SUB PUSH1 0x1F AND DUP3 ADD SWAP2 JUMPDEST POP POP POP POP POP SWAP1 DUP1 PUSH1 0x1 ADD SLOAD SWAP1 DUP1 PUSH1 0x2 ADD SLOAD SWAP1 DUP1 PUSH1 0x3 ADD SLOAD SWAP1 DUP1 PUSH1 0x4 ADD PUSH1 0x0 SWAP1 SLOAD SWAP1 PUSH2 0x100 EXP SWAP1 DIV PUSH1 0xFF AND SWAP1 POP DUP6 JUMP JUMPDEST PUSH1 0x0 DUP2 GT PUSH2 0x215 JUMPI PUSH1 0x40 MLOAD PUSH32 0x8C379A000000000000000000000000000000000000000000000000000000000 DUP2 MSTORE PUSH1 0x4 ADD PUSH2 0x20C SWAP1 PUSH2 0x8AA JUMP JUMPDEST PUSH1 0x40 MLOAD DUP1 SWAP2 SUB SWAP1 REVERT JUMPDEST PUSH1 0x0 DUP3 GT PUSH2 0x258 JUMPI PUSH1 0x40 MLOAD PUSH32 0x8C379A000000000000000000000000000000000000000000000000000000000 DUP2 MSTORE PUSH1 0x4 ADD PUSH2 0x24F SWAP1 PUSH2 0x93C JUMP JUMPDEST PUSH1 0x40 MLOAD DUP1 SWAP2 SUB SWAP1 REVERT JUMPDEST PUSH1 0x0 DUP4 MLOAD GT PUSH2 0x29C JUMPI PUSH1 0x40 MLOAD PUSH32 0x8C379A000000000000000000000000000000000000000000000000000000000 DUP2 MSTORE PUSH1 0x4 ADD PUSH2 0x293 SWAP1 PUSH2 0x9A8 JUMP JUMPDEST PUSH1 0x40 MLOAD DUP1 SWAP2 SUB SWAP1 REVERT JUMPDEST DUP3 PUSH1 0x1 PUSH1 0x0 DUP4 DUP2 MSTORE PUSH1 0x20 ADD SWAP1 DUP2 MSTORE PUSH1 0x20 ADD PUSH1 0x0 KECCAK256 PUSH1 0x0 ADD SWAP1 DUP2 PUSH2 0x2BF SWAP2 SWAP1 PUSH2 0xB74 JUMP JUMPDEST POP DUP2 PUSH1 0x1 PUSH1 0x0 DUP4 DUP2 MSTORE PUSH1 0x20 ADD SWAP1 DUP2 MSTORE PUSH1 0x20 ADD PUSH1 0x0 KECCAK256 PUSH1 0x1 ADD DUP2 SWAP1 SSTORE POP PUSH1 0x1 PUSH1 0x0 DUP3 DUP2 MSTORE PUSH1 0x20 ADD SWAP1 DUP2 MSTORE PUSH1 0x20 ADD PUSH1 0x0 KECCAK256 PUSH1 0x3 ADD PUSH1 0x0 DUP2 SLOAD DUP1 SWAP3 SWAP2 SWAP1 PUSH2 0x302 SWAP1 PUSH2 0xC75 JUMP JUMPDEST SWAP2 SWAP1 POP SSTORE POP POP POP POP JUMP JUMPDEST DUP1 CALLER PUSH20 0xFFFFFFFFFFFFFFFFFFFFFFFFFFFFFFFFFFFFFFFF AND BALANCE LT ISZERO PUSH2 0x366 JUMPI PUSH1 0x40 MLOAD PUSH32 0x8C379A000000000000000000000000000000000000000000000000000000000 DUP2 MSTORE PUSH1 0x4 ADD PUSH2 0x35D SWAP1 PUSH2 0xD09 JUMP JUMPDEST PUSH1 0x40 MLOAD DUP1 SWAP2 SUB SWAP1 REVERT JUMPDEST PUSH1 0x1 DUP1 PUSH1 0x0 DUP5 DUP2 MSTORE PUSH1 0x20 ADD SWAP1 DUP2 MSTORE PUSH1 0x20 ADD PUSH1 0x0 KECCAK256 PUSH1 0x4 ADD PUSH1 0x0 PUSH2 0x100 EXP DUP2 SLOAD DUP2 PUSH1 0xFF MUL NOT AND SWAP1 DUP4 ISZERO ISZERO MUL OR SWAP1 SSTORE POP POP POP JUMP JUMPDEST PUSH1 0x60 PUSH1 0x1 DUP3 LT ISZERO DUP1 ISZERO PUSH2 0x3AC JUMPI POP PUSH1 0x5 DUP3 GT ISZERO JUMPDEST PUSH2 0x3EB JUMPI PUSH1 0x40 MLOAD PUSH32 0x8C379A000000000000000000000000000000000000000000000000000000000 DUP2 MSTORE PUSH1 0x4 ADD PUSH2 0x3E2 SWAP1 PUSH2 0xD75 JUMP JUMPDEST PUSH1 0x40 MLOAD DUP1 SWAP2 SUB SWAP1 REVERT JUMPDEST DUP2 PUSH1 0x1 PUSH1 0x0 DUP6 DUP2 MSTORE PUSH1 0x20 ADD SWAP1 DUP2 MSTORE PUSH1 0x20 ADD PUSH1 0x0 KECCAK256 PUSH1 0x2 ADD DUP2 SWAP1 SSTORE POP PUSH1 0x4 DUP3 LT PUSH2 0x44B JUMPI PUSH1 0x40 MLOAD DUP1 PUSH1 0x40 ADD PUSH1 0x40 MSTORE DUP1 PUSH1 0x11 DUP2 MSTORE PUSH1 0x20 ADD PUSH32 0x5468616E6B20596F7520736F206D756368000000000000000000000000000000 DUP2 MSTORE POP SWAP1 POP PUSH2 0x467 JUMP JUMPDEST PUSH1 0x40 MLOAD DUP1 PUSH1 0x60 ADD PUSH1 0x40 MSTORE DUP1 PUSH1 0x3C DUP2 MSTORE PUSH1 0x20 ADD PUSH2 0xD96 PUSH1 0x3C SWAP2 CODECOPY SWAP1 POP JUMPDEST SWAP3 SWAP2 POP POP JUMP JUMPDEST PUSH1 0x0 PUSH1 0x40 MLOAD SWAP1 POP SWAP1 JUMP JUMPDEST PUSH1 0x0 DUP1 REVERT JUMPDEST PUSH1 0x0 DUP1 REVERT JUMPDEST PUSH1 0x0 DUP2 SWAP1 POP SWAP2 SWAP1 POP JUMP JUMPDEST PUSH2 0x494 DUP2 PUSH2 0x481 JUMP JUMPDEST DUP2 EQ PUSH2 0x49F JUMPI PUSH1 0x0 DUP1 REVERT JUMPDEST POP JUMP JUMPDEST PUSH1 0x0 DUP2 CALLDATALOAD SWAP1 POP PUSH2 0x4B1 DUP2 PUSH2 0x48B JUMP JUMPDEST SWAP3 SWAP2 POP POP JUMP JUMPDEST PUSH1 0x0 PUSH1 0x20 DUP3 DUP5 SUB SLT ISZERO PUSH2 0x4CD JUMPI PUSH2 0x4CC PUSH2 0x477 JUMP JUMPDEST JUMPDEST PUSH1 0x0 PUSH2 0x4DB DUP5 DUP3 DUP6 ADD PUSH2 0x4A2 JUMP JUMPDEST SWAP2 POP POP SWAP3 SWAP2 POP POP JUMP JUMPDEST PUSH1 0x0 DUP2 MLOAD SWAP1 POP SWAP2 SWAP1 POP JUMP JUMPDEST PUSH1 0x0 DUP3 DUP3 MSTORE PUSH1 0x20 DUP3 ADD SWAP1 POP SWAP3 SWAP2 POP POP JUMP JUMPDEST PUSH1 0x0 JUMPDEST DUP4 DUP2 LT ISZERO PUSH2 0x51E JUMPI DUP1 DUP3 ADD MLOAD DUP2 DUP5 ADD MSTORE PUSH1 0x20 DUP2 ADD SWAP1 POP PUSH2 0x503 JUMP JUMPDEST PUSH1 0x0 DUP5 DUP5 ADD MSTORE POP POP POP POP JUMP JUMPDEST PUSH1 0x0 PUSH1 0x1F NOT PUSH1 0x1F DUP4 ADD AND SWAP1 POP SWAP2 SWAP1 POP JUMP JUMPDEST PUSH1 0x0 PUSH2 0x546 DUP3 PUSH2 0x4E4 JUMP JUMPDEST PUSH2 0x550 DUP2 DUP6 PUSH2 0x4EF JUMP JUMPDEST SWAP4 POP PUSH2 0x560 DUP2 DUP6 PUSH1 0x20 DUP7 ADD PUSH2 0x500 JUMP JUMPDEST PUSH2 0x569 DUP2 PUSH2 0x52A JUMP JUMPDEST DUP5 ADD SWAP2 POP POP SWAP3 SWAP2 POP POP JUMP JUMPDEST PUSH2 0x57D DUP2 PUSH2 0x481 JUMP JUMPDEST DUP3 MSTORE POP POP JUMP JUMPDEST PUSH1 0x0 DUP2 ISZERO ISZERO SWAP1 POP SWAP2 SWAP1 POP JUMP JUMPDEST PUSH2 0x598 DUP2 PUSH2 0x583 JUMP JUMPDEST DUP3 MSTORE POP POP JUMP JUMPDEST PUSH1 0x0 PUSH1 0xA0 DUP3 ADD SWAP1 POP DUP2 DUP2 SUB PUSH1 0x0 DUP4 ADD MSTORE PUSH2 0x5B8 DUP2 DUP9 PUSH2 0x53B JUMP JUMPDEST SWAP1 POP PUSH2 0x5C7 PUSH1 0x20 DUP4 ADD DUP8 PUSH2 0x574 JUMP JUMPDEST PUSH2 0x5D4 PUSH1 0x40 DUP4 ADD DUP7 PUSH2 0x574 JUMP JUMPDEST PUSH2 0x5E1 PUSH1 0x60 DUP4 ADD DUP6 PUSH2 0x574 JUMP JUMPDEST PUSH2 0x5EE PUSH1 0x80 DUP4 ADD DUP5 PUSH2 0x58F JUMP JUMPDEST SWAP7 SWAP6 POP POP POP POP POP POP JUMP JUMPDEST PUSH1 0x0 DUP1 REVERT JUMPDEST PUSH1 0x0 DUP1 REVERT JUMPDEST PUSH32 0x4E487B7100000000000000000000000000000000000000000000000000000000 PUSH1 0x0 MSTORE PUSH1 0x41 PUSH1 0x4 MSTORE PUSH1 0x24 PUSH1 0x0 REVERT JUMPDEST PUSH2 0x63A DUP3 PUSH2 0x52A JUMP JUMPDEST DUP2 ADD DUP2 DUP2 LT PUSH8 0xFFFFFFFFFFFFFFFF DUP3 GT OR ISZERO PUSH2 0x659 JUMPI PUSH2 0x658 PUSH2 0x602 JUMP JUMPDEST JUMPDEST DUP1 PUSH1 0x40 MSTORE POP POP POP JUMP JUMPDEST PUSH1 0x0 PUSH2 0x66C PUSH2 0x46D JUMP JUMPDEST SWAP1 POP PUSH2 0x678 DUP3 DUP3 PUSH2 0x631 JUMP JUMPDEST SWAP2 SWAP1 POP JUMP JUMPDEST PUSH1 0x0 PUSH8 0xFFFFFFFFFFFFFFFF DUP3 GT ISZERO PUSH2 0x698 JUMPI PUSH2 0x697 PUSH2 0x602 JUMP JUMPDEST JUMPDEST PUSH2 0x6A1 DUP3 PUSH2 0x52A JUMP JUMPDEST SWAP1 POP PUSH1 0x20 DUP2 ADD SWAP1 POP SWAP2 SWAP1 POP JUMP JUMPDEST DUP3 DUP2 DUP4 CALLDATACOPY PUSH1 0x0 DUP4 DUP4 ADD MSTORE POP POP POP JUMP JUMPDEST PUSH1 0x0 PUSH2 0x6D0 PUSH2 0x6CB DUP5 PUSH2 0x67D JUMP JUMPDEST PUSH2 0x662 JUMP JUMPDEST SWAP1 POP DUP3 DUP2 MSTORE PUSH1 0x20 DUP2 ADD DUP5 DUP5 DUP5 ADD GT ISZERO PUSH2 0x6EC JUMPI PUSH2 0x6EB PUSH2 0x5FD JUMP JUMPDEST JUMPDEST PUSH2 0x6F7 DUP5 DUP3 DUP6 PUSH2 0x6AE JUMP JUMPDEST POP SWAP4 SWAP3 POP POP POP JUMP JUMPDEST PUSH1 0x0 DUP3 PUSH1 0x1F DUP4 ADD SLT PUSH2 0x714 JUMPI PUSH2 0x713 PUSH2 0x5F8 JUMP JUMPDEST JUMPDEST DUP2 CALLDATALOAD PUSH2 0x724 DUP5 DUP3 PUSH1 0x20 DUP7 ADD PUSH2 0x6BD JUMP JUMPDEST SWAP2 POP POP SWAP3 SWAP2 POP POP JUMP JUMPDEST PUSH1 0x0 DUP1 PUSH1 0x0 PUSH1 0x60 DUP5 DUP7 SUB SLT ISZERO PUSH2 0x746 JUMPI PUSH2 0x745 PUSH2 0x477 JUMP JUMPDEST JUMPDEST PUSH1 0x0 DUP5 ADD CALLDATALOAD PUSH8 0xFFFFFFFFFFFFFFFF DUP2 GT ISZERO PUSH2 0x764 JUMPI PUSH2 0x763 PUSH2 0x47C JUMP JUMPDEST JUMPDEST PUSH2 0x770 DUP7 DUP3 DUP8 ADD PUSH2 0x6FF JUMP JUMPDEST SWAP4 POP POP PUSH1 0x20 PUSH2 0x781 DUP7 DUP3 DUP8 ADD PUSH2 0x4A2 JUMP JUMPDEST SWAP3 POP POP PUSH1 0x40 PUSH2 0x792 DUP7 DUP3 DUP8 ADD PUSH2 0x4A2 JUMP JUMPDEST SWAP2 POP POP SWAP3 POP SWAP3 POP SWAP3 JUMP JUMPDEST PUSH1 0x0 DUP1 PUSH1 0x40 DUP4 DUP6 SUB SLT ISZERO PUSH2 0x7B3 JUMPI PUSH2 0x7B2 PUSH2 0x477 JUMP JUMPDEST JUMPDEST PUSH1 0x0 PUSH2 0x7C1 DUP6 DUP3 DUP7 ADD PUSH2 0x4A2 JUMP JUMPDEST SWAP3 POP POP PUSH1 0x20 PUSH2 0x7D2 DUP6 DUP3 DUP7 ADD PUSH2 0x4A2 JUMP JUMPDEST SWAP2 POP POP SWAP3 POP SWAP3 SWAP1 POP JUMP JUMPDEST PUSH1 0x0 PUSH1 0x20 DUP3 ADD SWAP1 POP DUP2 DUP2 SUB PUSH1 0x0 DUP4 ADD MSTORE PUSH2 0x7F6 DUP2 DUP5 PUSH2 0x53B JUMP JUMPDEST SWAP1 POP SWAP3 SWAP2 POP POP JUMP JUMPDEST PUSH32 0x4E487B7100000000000000000000000000000000000000000000000000000000 PUSH1 0x0 MSTORE PUSH1 0x22 PUSH1 0x4 MSTORE PUSH1 0x24 PUSH1 0x0 REVERT JUMPDEST PUSH1 0x0 PUSH1 0x2 DUP3 DIV SWAP1 POP PUSH1 0x1 DUP3 AND DUP1 PUSH2 0x845 JUMPI PUSH1 0x7F DUP3 AND SWAP2 POP JUMPDEST PUSH1 0x20 DUP3 LT DUP2 SUB PUSH2 0x858 JUMPI PUSH2 0x857 PUSH2 0x7FE JUMP JUMPDEST JUMPDEST POP SWAP2 SWAP1 POP JUMP JUMPDEST PUSH32 0x50726F647563742049642073686F756C64206E6F74206265205A65726F000000 PUSH1 0x0 DUP3 ADD MSTORE POP JUMP JUMPDEST PUSH1 0x0 PUSH2 0x894 PUSH1 0x1D DUP4 PUSH2 0x4EF JUMP JUMPDEST SWAP2 POP PUSH2 0x89F DUP3 PUSH2 0x85E JUMP JUMPDEST PUSH1 0x20 DUP3 ADD SWAP1 POP SWAP2 SWAP1 POP JUMP JUMPDEST PUSH1 0x0 PUSH1 0x20 DUP3 ADD SWAP1 POP DUP2 DUP2 SUB PUSH1 0x0 DUP4 ADD MSTORE PUSH2 0x8C3 DUP2 PUSH2 0x887 JUMP JUMPDEST SWAP1 POP SWAP2 SWAP1 POP JUMP JUMPDEST PUSH32 0x5072696365206F66207468652070726F647563742073686F756C642062652047 PUSH1 0x0 DUP3 ADD MSTORE PUSH32 0x726561746572207468616E205A65726F00000000000000000000000000000000 PUSH1 0x20 DUP3 ADD MSTORE POP JUMP JUMPDEST PUSH1 0x0 PUSH2 0x926 PUSH1 0x30 DUP4 PUSH2 0x4EF JUMP JUMPDEST SWAP2 POP PUSH2 0x931 DUP3 PUSH2 0x8CA JUMP JUMPDEST PUSH1 0x40 DUP3 ADD SWAP1 POP SWAP2 SWAP1 POP JUMP JUMPDEST PUSH1 0x0 PUSH1 0x20 DUP3 ADD SWAP1 POP DUP2 DUP2 SUB PUSH1 0x0 DUP4 ADD MSTORE PUSH2 0x955 DUP2 PUSH2 0x919 JUMP JUMPDEST SWAP1 POP SWAP2 SWAP1 POP JUMP JUMPDEST PUSH32 0x50726F64756374204E616D652073686F756C64206E6F7420626520456D707479 PUSH1 0x0 DUP3 ADD MSTORE POP JUMP JUMPDEST PUSH1 0x0 PUSH2 0x992 PUSH1 0x20 DUP4 PUSH2 0x4EF JUMP JUMPDEST SWAP2 POP PUSH2 0x99D DUP3 PUSH2 0x95C JUMP JUMPDEST PUSH1 0x20 DUP3 ADD SWAP1 POP SWAP2 SWAP1 POP JUMP JUMPDEST PUSH1 0x0 PUSH1 0x20 DUP3 ADD SWAP1 POP DUP2 DUP2 SUB PUSH1 0x0 DUP4 ADD MSTORE PUSH2 0x9C1 DUP2 PUSH2 0x985 JUMP JUMPDEST SWAP1 POP SWAP2 SWAP1 POP JUMP JUMPDEST PUSH1 0x0 DUP2 SWAP1 POP DUP2 PUSH1 0x0 MSTORE PUSH1 0x20 PUSH1 0x0 KECCAK256 SWAP1 POP SWAP2 SWAP1 POP JUMP JUMPDEST PUSH1 0x0 PUSH1 0x20 PUSH1 0x1F DUP4 ADD DIV SWAP1 POP SWAP2 SWAP1 POP JUMP JUMPDEST PUSH1 0x0 DUP3 DUP3 SHL SWAP1 POP SWAP3 SWAP2 POP POP JUMP JUMPDEST PUSH1 0x0 PUSH1 0x8 DUP4 MUL PUSH2 0xA2A PUSH32 0xFFFFFFFFFFFFFFFFFFFFFFFFFFFFFFFFFFFFFFFFFFFFFFFFFFFFFFFFFFFFFFFF DUP3 PUSH2 0x9ED JUMP JUMPDEST PUSH2 0xA34 DUP7 DUP4 PUSH2 0x9ED JUMP JUMPDEST SWAP6 POP DUP1 NOT DUP5 AND SWAP4 POP DUP1 DUP7 AND DUP5 OR SWAP3 POP POP POP SWAP4 SWAP3 POP POP POP JUMP JUMPDEST PUSH1 0x0 DUP2 SWAP1 POP SWAP2 SWAP1 POP JUMP JUMPDEST PUSH1 0x0 PUSH2 0xA71 PUSH2 0xA6C PUSH2 0xA67 DUP5 PUSH2 0x481 JUMP JUMPDEST PUSH2 0xA4C JUMP JUMPDEST PUSH2 0x481 JUMP JUMPDEST SWAP1 POP SWAP2 SWAP1 POP JUMP JUMPDEST PUSH1 0x0 DUP2 SWAP1 POP SWAP2 SWAP1 POP JUMP JUMPDEST PUSH2 0xA8B DUP4 PUSH2 0xA56 JUMP JUMPDEST PUSH2 0xA9F PUSH2 0xA97 DUP3 PUSH2 0xA78 JUMP JUMPDEST DUP5 DUP5 SLOAD PUSH2 0x9FA JUMP JUMPDEST DUP3 SSTORE POP POP POP POP JUMP JUMPDEST PUSH1 0x0 SWAP1 JUMP JUMPDEST PUSH2 0xAB4 PUSH2 0xAA7 JUMP JUMPDEST PUSH2 0xABF DUP2 DUP5 DUP5 PUSH2 0xA82 JUMP JUMPDEST POP POP POP JUMP JUMPDEST JUMPDEST DUP2 DUP2 LT ISZERO PUSH2 0xAE3 JUMPI PUSH2 0xAD8 PUSH1 0x0 DUP3 PUSH2 0xAAC JUMP JUMPDEST PUSH1 0x1 DUP2 ADD SWAP1 POP PUSH2 0xAC5 JUMP JUMPDEST POP POP JUMP JUMPDEST PUSH1 0x1F DUP3 GT ISZERO PUSH2 0xB28 JUMPI PUSH2 0xAF9 DUP2 PUSH2 0x9C8 JUMP JUMPDEST PUSH2 0xB02 DUP5 PUSH2 0x9DD JUMP JUMPDEST DUP2 ADD PUSH1 0x20 DUP6 LT ISZERO PUSH2 0xB11 JUMPI DUP2 SWAP1 POP JUMPDEST PUSH2 0xB25 PUSH2 0xB1D DUP6 PUSH2 0x9DD JUMP JUMPDEST DUP4 ADD DUP3 PUSH2 0xAC4 JUMP JUMPDEST POP POP JUMPDEST POP POP POP JUMP JUMPDEST PUSH1 0x0 DUP3 DUP3 SHR SWAP1 POP SWAP3 SWAP2 POP POP JUMP JUMPDEST PUSH1 0x0 PUSH2 0xB4B PUSH1 0x0 NOT DUP5 PUSH1 0x8 MUL PUSH2 0xB2D JUMP JUMPDEST NOT DUP1 DUP4 AND SWAP2 POP POP SWAP3 SWAP2 POP POP JUMP JUMPDEST PUSH1 0x0 PUSH2 0xB64 DUP4 DUP4 PUSH2 0xB3A JUMP JUMPDEST SWAP2 POP DUP3 PUSH1 0x2 MUL DUP3 OR SWAP1 POP SWAP3 SWAP2 POP POP JUMP JUMPDEST PUSH2 0xB7D DUP3 PUSH2 0x4E4 JUMP JUMPDEST PUSH8 0xFFFFFFFFFFFFFFFF DUP2 GT ISZERO PUSH2 0xB96 JUMPI PUSH2 0xB95 PUSH2 0x602 JUMP JUMPDEST JUMPDEST PUSH2 0xBA0 DUP3 SLOAD PUSH2 0x82D JUMP JUMPDEST PUSH2 0xBAB DUP3 DUP3 DUP6 PUSH2 0xAE7 JUMP JUMPDEST PUSH1 0x0 PUSH1 0x20 SWAP1 POP PUSH1 0x1F DUP4 GT PUSH1 0x1 DUP2 EQ PUSH2 0xBDE JUMPI PUSH1 0x0 DUP5 ISZERO PUSH2 0xBCC JUMPI DUP3 DUP8 ADD MLOAD SWAP1 POP JUMPDEST PUSH2 0xBD6 DUP6 DUP3 PUSH2 0xB58 JUMP JUMPDEST DUP7 SSTORE POP PUSH2 0xC3E JUMP JUMPDEST PUSH1 0x1F NOT DUP5 AND PUSH2 0xBEC DUP7 PUSH2 0x9C8 JUMP JUMPDEST PUSH1 0x0 JUMPDEST DUP3 DUP2 LT ISZERO PUSH2 0xC14 JUMPI DUP5 DUP10 ADD MLOAD DUP3 SSTORE PUSH1 0x1 DUP3 ADD SWAP2 POP PUSH1 0x20 DUP6 ADD SWAP5 POP PUSH1 0x20 DUP2 ADD SWAP1 POP PUSH2 0xBEF JUMP JUMPDEST DUP7 DUP4 LT ISZERO PUSH2 0xC31 JUMPI DUP5 DUP10 ADD MLOAD PUSH2 0xC2D PUSH1 0x1F DUP10 AND DUP3 PUSH2 0xB3A JUMP JUMPDEST DUP4 SSTORE POP JUMPDEST PUSH1 0x1 PUSH1 0x2 DUP9 MUL ADD DUP9 SSTORE POP POP POP JUMPDEST POP POP POP POP POP POP JUMP JUMPDEST PUSH32 0x4E487B7100000000000000000000000000000000000000000000000000000000 PUSH1 0x0 MSTORE PUSH1 0x11 PUSH1 0x4 MSTORE PUSH1 0x24 PUSH1 0x0 REVERT JUMPDEST PUSH1 0x0 PUSH2 0xC80 DUP3 PUSH2 0x481 JUMP JUMPDEST SWAP2 POP PUSH32 0xFFFFFFFFFFFFFFFFFFFFFFFFFFFFFFFFFFFFFFFFFFFFFFFFFFFFFFFFFFFFFFFF DUP3 SUB PUSH2 0xCB2 JUMPI PUSH2 0xCB1 PUSH2 0xC46 JUMP JUMPDEST JUMPDEST PUSH1 0x1 DUP3 ADD SWAP1 POP SWAP2 SWAP1 POP JUMP JUMPDEST PUSH32 0x496E73756666696369656E742042616C616E6365000000000000000000000000 PUSH1 0x0 DUP3 ADD MSTORE POP JUMP JUMPDEST PUSH1 0x0 PUSH2 0xCF3 PUSH1 0x14 DUP4 PUSH2 0x4EF JUMP JUMPDEST SWAP2 POP PUSH2 0xCFE DUP3 PUSH2 0xCBD JUMP JUMPDEST PUSH1 0x20 DUP3 ADD SWAP1 POP SWAP2 SWAP1 POP JUMP JUMPDEST PUSH1 0x0 PUSH1 0x20 DUP3 ADD SWAP1 POP DUP2 DUP2 SUB PUSH1 0x0 DUP4 ADD MSTORE PUSH2 0xD22 DUP2 PUSH2 0xCE6 JUMP JUMPDEST SWAP1 POP SWAP2 SWAP1 POP JUMP JUMPDEST PUSH32 0x526174696E672073686F756C64206265206265747765656E203120616E642035 PUSH1 0x0 DUP3 ADD MSTORE POP JUMP JUMPDEST PUSH1 0x0 PUSH2 0xD5F PUSH1 0x20 DUP4 PUSH2 0x4EF JUMP JUMPDEST SWAP2 POP PUSH2 0xD6A DUP3 PUSH2 0xD29 JUMP JUMPDEST PUSH1 0x20 DUP3 ADD SWAP1 POP SWAP2 SWAP1 POP JUMP JUMPDEST PUSH1 0x0 PUSH1 0x20 DUP3 ADD SWAP1 POP DUP2 DUP2 SUB PUSH1 0x0 DUP4 ADD MSTORE PUSH2 0xD8E DUP2 PUSH2 0xD52 JUMP JUMPDEST SWAP1 POP SWAP2 SWAP1 POP JUMP INVALID SLOAD PUSH9 0x616E6B20596F752073 PUSH16 0x206D7563682C20497320746865726520 PUSH2 0x6E79 PUSH21 0x68696E672074686174207765206E65656420746F20 0x49 PUSH14 0x70726F7665A26469706673582212 KECCAK256 DUP5 SWAP5 0x21 MSTORE 0xB4 0xDD STATICCALL SWAP6 0xE7 EXTCODECOPY BYTE 0xE6 0xBC DUP4 CALLDATASIZE 0x49 0xAA 0xA6 SDIV CALLER 0xF6 0x4D 0xBB GASPRICE 0xCF BALANCE 0x21 DUP4 0xC3 SWAP1 ADDMOD 0xC6 PUSH5 0x736F6C6343 STOP ADDMOD SLT STOP CALLER "
				},
				"gasEstimates": {
					"creation": {
						"codeDepositCost": "718200",
						"executionCost": "25019",
						"totalCost": "743219"
					},
					"external": {
						"Rating(uint256,uint256)": "infinite",
						"createProduct(string,uint256,uint256)": "infinite",
						"product(uint256)": "infinite",
						"purchaseProduct(uint256,uint256)": "infinite"
					}
				},
				"methodIdentifiers": {
					"Rating(uint256,uint256)": "fdefdf8d",
					"createProduct(string,uint256,uint256)": "7bf12b1c",
					"product(uint256)": "780bd3f1",
					"purchaseProduct(uint256,uint256)": "a0440426"
				}
			},
			"storageLayout": {
				"storage": [
					{
						"astId": 3,
						"contract": "contracts/Ecommerce.sol:ECommerce",
						"label": "owner",
						"offset": 0,
						"slot": "0",
						"type": "t_address"
					},
					{
						"astId": 40,
						"contract": "contracts/Ecommerce.sol:ECommerce",
						"label": "product",
						"offset": 0,
						"slot": "1",
						"type": "t_mapping(t_uint256,t_struct(Ecommerce)35_storage)"
					}
				],
				"types": {
					"t_address": {
						"encoding": "inplace",
						"label": "address",
						"numberOfBytes": "20"
					},
					"t_bool": {
						"encoding": "inplace",
						"label": "bool",
						"numberOfBytes": "1"
					},
					"t_mapping(t_uint256,t_struct(Ecommerce)35_storage)": {
						"encoding": "mapping",
						"key": "t_uint256",
						"label": "mapping(uint256 => struct ECommerce.Ecommerce)",
						"numberOfBytes": "32",
						"value": "t_struct(Ecommerce)35_storage"
					},
					"t_string_storage": {
						"encoding": "bytes",
						"label": "string",
						"numberOfBytes": "32"
					},
					"t_struct(Ecommerce)35_storage": {
						"encoding": "inplace",
						"label": "struct ECommerce.Ecommerce",
						"members": [
							{
								"astId": 26,
								"contract": "contracts/Ecommerce.sol:ECommerce",
								"label": "productName",
								"offset": 0,
								"slot": "0",
								"type": "t_string_storage"
							},
							{
								"astId": 28,
								"contract": "contracts/Ecommerce.sol:ECommerce",
								"label": "price",
								"offset": 0,
								"slot": "1",
								"type": "t_uint256"
							},
							{
								"astId": 30,
								"contract": "contracts/Ecommerce.sol:ECommerce",
								"label": "rating",
								"offset": 0,
								"slot": "2",
								"type": "t_uint256"
							},
							{
								"astId": 32,
								"contract": "contracts/Ecommerce.sol:ECommerce",
								"label": "count",
								"offset": 0,
								"slot": "3",
								"type": "t_uint256"
							},
							{
								"astId": 34,
								"contract": "contracts/Ecommerce.sol:ECommerce",
								"label": "status",
								"offset": 0,
								"slot": "4",
								"type": "t_bool"
							}
						],
						"numberOfBytes": "160"
					},
					"t_uint256": {
						"encoding": "inplace",
						"label": "uint256",
						"numberOfBytes": "32"
					}
				}
			},
			"userdoc": {
				"kind": "user",
				"methods": {},
				"version": 1
			}
		}
	}
}