{
	"contracts/auction1.sol": {
		"Bidding": {
			"abi": [
				{
					"inputs": [
						{
							"internalType": "uint256",
							"name": "biddingTime",
							"type": "uint256"
						}
					],
					"stateMutability": "nonpayable",
					"type": "constructor"
				},
				{
					"inputs": [],
					"name": "AuctionHasEnded",
					"type": "error"
				},
				{
					"anonymous": false,
					"inputs": [
						{
							"indexed": false,
							"internalType": "address",
							"name": "winner",
							"type": "address"
						},
						{
							"indexed": false,
							"internalType": "uint256",
							"name": "amount",
							"type": "uint256"
						}
					],
					"name": "bidcompleted",
					"type": "event"
				},
				{
					"inputs": [
						{
							"internalType": "address",
							"name": "",
							"type": "address"
						}
					],
					"name": "bid",
					"outputs": [
						{
							"internalType": "uint256",
							"name": "",
							"type": "uint256"
						}
					],
					"stateMutability": "view",
					"type": "function"
				},
				{
					"inputs": [
						{
							"internalType": "uint256",
							"name": "highestamount",
							"type": "uint256"
						},
						{
							"internalType": "uint256",
							"name": "_amount",
							"type": "uint256"
						}
					],
					"name": "bidding",
					"outputs": [],
					"stateMutability": "nonpayable",
					"type": "function"
				},
				{
					"inputs": [],
					"name": "highestbidder",
					"outputs": [
						{
							"internalType": "address",
							"name": "",
							"type": "address"
						}
					],
					"stateMutability": "view",
					"type": "function"
				}
			],
			"devdoc": {
				"kind": "dev",
				"methods": {},
				"version": 1
			},
			"evm": {
				"assembly": "    /* \"contracts/auction1.sol\":57:1098  contract Bidding{... */\n  mstore(0x40, 0x80)\n    /* \"contracts/auction1.sol\":385:473  constructor(uint biddingTime){... */\n  callvalue\n  dup1\n  iszero\n  tag_1\n  jumpi\n  0x00\n  dup1\n  revert\ntag_1:\n  pop\n  mload(0x40)\n  sub(codesize, bytecodeSize)\n  dup1\n  bytecodeSize\n  dup4\n  codecopy\n  dup2\n  dup2\n  add\n  0x40\n  mstore\n  dup2\n  add\n  swap1\n  tag_2\n  swap2\n  swap1\n  tag_3\n  jump\t// in\ntag_2:\n    /* \"contracts/auction1.sol\":454:465  biddingTime */\n  dup1\n    /* \"contracts/auction1.sol\":436:451  block.timestamp */\n  timestamp\n    /* \"contracts/auction1.sol\":436:465  block.timestamp + biddingTime */\n  tag_6\n  swap2\n  swap1\n  tag_7\n  jump\t// in\ntag_6:\n    /* \"contracts/auction1.sol\":422:432  bidEndTime */\n  0x01\n    /* \"contracts/auction1.sol\":422:465  bidEndTime  = block.timestamp + biddingTime */\n  dup2\n  swap1\n  sstore\n  pop\n    /* \"contracts/auction1.sol\":385:473  constructor(uint biddingTime){... */\n  pop\n    /* \"contracts/auction1.sol\":57:1098  contract Bidding{... */\n  jump(tag_8)\n    /* \"#utility.yul\":88:205   */\ntag_10:\n    /* \"#utility.yul\":197:198   */\n  0x00\n    /* \"#utility.yul\":194:195   */\n  dup1\n    /* \"#utility.yul\":187:199   */\n  revert\n    /* \"#utility.yul\":334:411   */\ntag_12:\n    /* \"#utility.yul\":371:378   */\n  0x00\n    /* \"#utility.yul\":400:405   */\n  dup2\n    /* \"#utility.yul\":389:405   */\n  swap1\n  pop\n    /* \"#utility.yul\":334:411   */\n  swap2\n  swap1\n  pop\n  jump\t// out\n    /* \"#utility.yul\":417:539   */\ntag_13:\n    /* \"#utility.yul\":490:514   */\n  tag_22\n    /* \"#utility.yul\":508:513   */\n  dup2\n    /* \"#utility.yul\":490:514   */\n  tag_12\n  jump\t// in\ntag_22:\n    /* \"#utility.yul\":483:488   */\n  dup2\n    /* \"#utility.yul\":480:515   */\n  eq\n    /* \"#utility.yul\":470:533   */\n  tag_23\n  jumpi\n    /* \"#utility.yul\":529:530   */\n  0x00\n    /* \"#utility.yul\":526:527   */\n  dup1\n    /* \"#utility.yul\":519:531   */\n  revert\n    /* \"#utility.yul\":470:533   */\ntag_23:\n    /* \"#utility.yul\":417:539   */\n  pop\n  jump\t// out\n    /* \"#utility.yul\":545:688   */\ntag_14:\n    /* \"#utility.yul\":602:607   */\n  0x00\n    /* \"#utility.yul\":633:639   */\n  dup2\n    /* \"#utility.yul\":627:640   */\n  mload\n    /* \"#utility.yul\":618:640   */\n  swap1\n  pop\n    /* \"#utility.yul\":649:682   */\n  tag_25\n    /* \"#utility.yul\":676:681   */\n  dup2\n    /* \"#utility.yul\":649:682   */\n  tag_13\n  jump\t// in\ntag_25:\n    /* \"#utility.yul\":545:688   */\n  swap3\n  swap2\n  pop\n  pop\n  jump\t// out\n    /* \"#utility.yul\":694:1045   */\ntag_3:\n    /* \"#utility.yul\":764:770   */\n  0x00\n    /* \"#utility.yul\":813:815   */\n  0x20\n    /* \"#utility.yul\":801:810   */\n  dup3\n    /* \"#utility.yul\":792:799   */\n  dup5\n    /* \"#utility.yul\":788:811   */\n  sub\n    /* \"#utility.yul\":784:816   */\n  slt\n    /* \"#utility.yul\":781:900   */\n  iszero\n  tag_27\n  jumpi\n    /* \"#utility.yul\":819:898   */\n  tag_28\n  tag_10\n  jump\t// in\ntag_28:\n    /* \"#utility.yul\":781:900   */\ntag_27:\n    /* \"#utility.yul\":939:940   */\n  0x00\n    /* \"#utility.yul\":964:1028   */\n  tag_29\n    /* \"#utility.yul\":1020:1027   */\n  dup5\n    /* \"#utility.yul\":1011:1017   */\n  dup3\n    /* \"#utility.yul\":1000:1009   */\n  dup6\n    /* \"#utility.yul\":996:1018   */\n  add\n    /* \"#utility.yul\":964:1028   */\n  tag_14\n  jump\t// in\ntag_29:\n    /* \"#utility.yul\":954:1028   */\n  swap2\n  pop\n    /* \"#utility.yul\":910:1038   */\n  pop\n    /* \"#utility.yul\":694:1045   */\n  swap3\n  swap2\n  pop\n  pop\n  jump\t// out\n    /* \"#utility.yul\":1051:1231   */\ntag_15:\n    /* \"#utility.yul\":1099:1176   */\n  0x4e487b7100000000000000000000000000000000000000000000000000000000\n    /* \"#utility.yul\":1096:1097   */\n  0x00\n    /* \"#utility.yul\":1089:1177   */\n  mstore\n    /* \"#utility.yul\":1196:1200   */\n  0x11\n    /* \"#utility.yul\":1193:1194   */\n  0x04\n    /* \"#utility.yul\":1186:1201   */\n  mstore\n    /* \"#utility.yul\":1220:1224   */\n  0x24\n    /* \"#utility.yul\":1217:1218   */\n  0x00\n    /* \"#utility.yul\":1210:1225   */\n  revert\n    /* \"#utility.yul\":1237:1428   */\ntag_7:\n    /* \"#utility.yul\":1277:1280   */\n  0x00\n    /* \"#utility.yul\":1296:1316   */\n  tag_32\n    /* \"#utility.yul\":1314:1315   */\n  dup3\n    /* \"#utility.yul\":1296:1316   */\n  tag_12\n  jump\t// in\ntag_32:\n    /* \"#utility.yul\":1291:1316   */\n  swap2\n  pop\n    /* \"#utility.yul\":1330:1350   */\n  tag_33\n    /* \"#utility.yul\":1348:1349   */\n  dup4\n    /* \"#utility.yul\":1330:1350   */\n  tag_12\n  jump\t// in\ntag_33:\n    /* \"#utility.yul\":1325:1350   */\n  swap3\n  pop\n    /* \"#utility.yul\":1373:1374   */\n  dup3\n    /* \"#utility.yul\":1370:1371   */\n  dup3\n    /* \"#utility.yul\":1366:1375   */\n  add\n    /* \"#utility.yul\":1359:1375   */\n  swap1\n  pop\n    /* \"#utility.yul\":1394:1397   */\n  dup1\n    /* \"#utility.yul\":1391:1392   */\n  dup3\n    /* \"#utility.yul\":1388:1398   */\n  gt\n    /* \"#utility.yul\":1385:1421   */\n  iszero\n  tag_34\n  jumpi\n    /* \"#utility.yul\":1401:1419   */\n  tag_35\n  tag_15\n  jump\t// in\ntag_35:\n    /* \"#utility.yul\":1385:1421   */\ntag_34:\n    /* \"#utility.yul\":1237:1428   */\n  swap3\n  swap2\n  pop\n  pop\n  jump\t// out\n    /* \"contracts/auction1.sol\":57:1098  contract Bidding{... */\ntag_8:\n  dataSize(sub_0)\n  dup1\n  dataOffset(sub_0)\n  0x00\n  codecopy\n  0x00\n  return\nstop\n\nsub_0: assembly {\n        /* \"contracts/auction1.sol\":57:1098  contract Bidding{... */\n      mstore(0x40, 0x80)\n      callvalue\n      dup1\n      iszero\n      tag_1\n      jumpi\n      0x00\n      dup1\n      revert\n    tag_1:\n      pop\n      jumpi(tag_2, lt(calldatasize, 0x04))\n      shr(0xe0, calldataload(0x00))\n      dup1\n      0x87fe412c\n      eq\n      tag_3\n      jumpi\n      dup1\n      0x9cf5453d\n      eq\n      tag_4\n      jumpi\n      dup1\n      0xdcbfb0ff\n      eq\n      tag_5\n      jumpi\n    tag_2:\n      0x00\n      dup1\n      revert\n        /* \"contracts/auction1.sol\":508:1093  function bidding(uint highestamount,uint _amount) public {... */\n    tag_3:\n      tag_6\n      0x04\n      dup1\n      calldatasize\n      sub\n      dup2\n      add\n      swap1\n      tag_7\n      swap2\n      swap1\n      tag_8\n      jump\t// in\n    tag_7:\n      tag_9\n      jump\t// in\n    tag_6:\n      stop\n        /* \"contracts/auction1.sol\":225:261  mapping (address => uint) public bid */\n    tag_4:\n      tag_10\n      0x04\n      dup1\n      calldatasize\n      sub\n      dup2\n      add\n      swap1\n      tag_11\n      swap2\n      swap1\n      tag_12\n      jump\t// in\n    tag_11:\n      tag_13\n      jump\t// in\n    tag_10:\n      mload(0x40)\n      tag_14\n      swap2\n      swap1\n      tag_15\n      jump\t// in\n    tag_14:\n      mload(0x40)\n      dup1\n      swap2\n      sub\n      swap1\n      return\n        /* \"contracts/auction1.sol\":110:138  address public highestbidder */\n    tag_5:\n      tag_16\n      tag_17\n      jump\t// in\n    tag_16:\n      mload(0x40)\n      tag_18\n      swap2\n      swap1\n      tag_19\n      jump\t// in\n    tag_18:\n      mload(0x40)\n      dup1\n      swap2\n      sub\n      swap1\n      return\n        /* \"contracts/auction1.sol\":508:1093  function bidding(uint highestamount,uint _amount) public {... */\n    tag_9:\n        /* \"contracts/auction1.sol\":595:605  bidEndTime */\n      sload(0x01)\n        /* \"contracts/auction1.sol\":577:592  block.timestamp */\n      timestamp\n        /* \"contracts/auction1.sol\":577:605  block.timestamp > bidEndTime */\n      gt\n        /* \"contracts/auction1.sol\":574:653  if(block.timestamp > bidEndTime){... */\n      iszero\n      tag_21\n      jumpi\n        /* \"contracts/auction1.sol\":626:643  AuctionHasEnded() */\n      mload(0x40)\n      0xdda144a500000000000000000000000000000000000000000000000000000000\n      dup2\n      mstore\n      0x04\n      add\n      mload(0x40)\n      dup1\n      swap2\n      sub\n      swap1\n      revert\n        /* \"contracts/auction1.sol\":574:653  if(block.timestamp > bidEndTime){... */\n    tag_21:\n        /* \"contracts/auction1.sol\":678:688  msg.sender */\n      caller\n        /* \"contracts/auction1.sol\":661:667  bidder */\n      0x04\n      0x00\n        /* \"contracts/auction1.sol\":661:689  bidder = payable(msg.sender) */\n      0x0100\n      exp\n      dup2\n      sload\n      dup2\n      0xffffffffffffffffffffffffffffffffffffffff\n      mul\n      not\n      and\n      swap1\n      dup4\n      0xffffffffffffffffffffffffffffffffffffffff\n      and\n      mul\n      or\n      swap1\n      sstore\n      pop\n        /* \"contracts/auction1.sol\":723:730  _amount */\n      dup1\n        /* \"contracts/auction1.sol\":706:719  highestamount */\n      dup3\n        /* \"contracts/auction1.sol\":706:730  highestamount != _amount */\n      sub\n        /* \"contracts/auction1.sol\":698:757  require(highestamount != _amount,\"Amount should be higher\") */\n      tag_22\n      jumpi\n      mload(0x40)\n      0x08c379a000000000000000000000000000000000000000000000000000000000\n      dup2\n      mstore\n      0x04\n      add\n      tag_23\n      swap1\n      tag_24\n      jump\t// in\n    tag_23:\n      mload(0x40)\n      dup1\n      swap2\n      sub\n      swap1\n      revert\n    tag_22:\n        /* \"contracts/auction1.sol\":784:785  0 */\n      0x00\n        /* \"contracts/auction1.sol\":774:781  _amount */\n      dup2\n        /* \"contracts/auction1.sol\":774:785  _amount > 0 */\n      gt\n        /* \"contracts/auction1.sol\":766:815  require(_amount > 0, \"Amount should not be Zero\") */\n      tag_25\n      jumpi\n      mload(0x40)\n      0x08c379a000000000000000000000000000000000000000000000000000000000\n      dup2\n      mstore\n      0x04\n      add\n      tag_26\n      swap1\n      tag_27\n      jump\t// in\n    tag_26:\n      mload(0x40)\n      dup1\n      swap2\n      sub\n      swap1\n      revert\n    tag_25:\n        /* \"contracts/auction1.sol\":843:850  _amount */\n      dup1\n        /* \"contracts/auction1.sol\":827:840  highestamount */\n      dup3\n        /* \"contracts/auction1.sol\":827:850  highestamount < _amount */\n      lt\n        /* \"contracts/auction1.sol\":824:932  if(highestamount < _amount){... */\n      iszero\n      tag_28\n      jumpi\n        /* \"contracts/auction1.sol\":880:887  _amount */\n      dup1\n        /* \"contracts/auction1.sol\":864:887  highestamount = _amount */\n      swap2\n      pop\n        /* \"contracts/auction1.sol\":916:922  bidder */\n      0x04\n      0x00\n      swap1\n      sload\n      swap1\n      0x0100\n      exp\n      swap1\n      div\n      0xffffffffffffffffffffffffffffffffffffffff\n      and\n        /* \"contracts/auction1.sol\":900:913  highestbidder */\n      0x00\n      dup1\n        /* \"contracts/auction1.sol\":900:922  highestbidder = bidder */\n      0x0100\n      exp\n      dup2\n      sload\n      dup2\n      0xffffffffffffffffffffffffffffffffffffffff\n      mul\n      not\n      and\n      swap1\n      dup4\n      0xffffffffffffffffffffffffffffffffffffffff\n      and\n      mul\n      or\n      swap1\n      sstore\n      pop\n        /* \"contracts/auction1.sol\":824:932  if(highestamount < _amount){... */\n    tag_28:\n        /* \"contracts/auction1.sol\":962:969  _amount */\n      dup1\n        /* \"contracts/auction1.sol\":940:943  bid */\n      0x03\n        /* \"contracts/auction1.sol\":940:958  bid[highestbidder] */\n      0x00\n        /* \"contracts/auction1.sol\":944:957  highestbidder */\n      dup1\n      0x00\n      swap1\n      sload\n      swap1\n      0x0100\n      exp\n      swap1\n      div\n      0xffffffffffffffffffffffffffffffffffffffff\n      and\n        /* \"contracts/auction1.sol\":940:958  bid[highestbidder] */\n      0xffffffffffffffffffffffffffffffffffffffff\n      and\n      0xffffffffffffffffffffffffffffffffffffffff\n      and\n      dup2\n      mstore\n      0x20\n      add\n      swap1\n      dup2\n      mstore\n      0x20\n      add\n      0x00\n      keccak256\n      0x00\n        /* \"contracts/auction1.sol\":940:969  bid[highestbidder] += _amount */\n      dup3\n      dup3\n      sload\n      tag_29\n      swap2\n      swap1\n      tag_30\n      jump\t// in\n    tag_29:\n      swap3\n      pop\n      pop\n      dup2\n      swap1\n      sstore\n      pop\n        /* \"contracts/auction1.sol\":994:1000  bidder */\n      0x04\n      0x00\n      swap1\n      sload\n      swap1\n      0x0100\n      exp\n      swap1\n      div\n      0xffffffffffffffffffffffffffffffffffffffff\n      and\n        /* \"contracts/auction1.sol\":978:991  highestbidder */\n      0x00\n      dup1\n        /* \"contracts/auction1.sol\":978:1000  highestbidder = bidder */\n      0x0100\n      exp\n      dup2\n      sload\n      dup2\n      0xffffffffffffffffffffffffffffffffffffffff\n      mul\n      not\n      and\n      swap1\n      dup4\n      0xffffffffffffffffffffffffffffffffffffffff\n      and\n      mul\n      or\n      swap1\n      sstore\n      pop\n        /* \"contracts/auction1.sol\":1025:1029  true */\n      0x01\n        /* \"contracts/auction1.sol\":1010:1022  auctionEnded */\n      0x02\n      0x00\n        /* \"contracts/auction1.sol\":1010:1029  auctionEnded = true */\n      0x0100\n      exp\n      dup2\n      sload\n      dup2\n      0xff\n      mul\n      not\n      and\n      swap1\n      dup4\n      iszero\n      iszero\n      mul\n      or\n      swap1\n      sstore\n      pop\n        /* \"contracts/auction1.sol\":1044:1085  bidcompleted(highestbidder,highestamount) */\n      0x363cbe3aacee95cef0ed3009e914473b826e797d14654789d464eb1713bf9c84\n        /* \"contracts/auction1.sol\":1057:1070  highestbidder */\n      0x00\n      dup1\n      sload\n      swap1\n      0x0100\n      exp\n      swap1\n      div\n      0xffffffffffffffffffffffffffffffffffffffff\n      and\n        /* \"contracts/auction1.sol\":1071:1084  highestamount */\n      dup4\n        /* \"contracts/auction1.sol\":1044:1085  bidcompleted(highestbidder,highestamount) */\n      mload(0x40)\n      tag_31\n      swap3\n      swap2\n      swap1\n      tag_32\n      jump\t// in\n    tag_31:\n      mload(0x40)\n      dup1\n      swap2\n      sub\n      swap1\n      log1\n        /* \"contracts/auction1.sol\":508:1093  function bidding(uint highestamount,uint _amount) public {... */\n      pop\n      pop\n      jump\t// out\n        /* \"contracts/auction1.sol\":225:261  mapping (address => uint) public bid */\n    tag_13:\n      mstore(0x20, 0x03)\n      dup1\n      0x00\n      mstore\n      keccak256(0x00, 0x40)\n      0x00\n      swap2\n      pop\n      swap1\n      pop\n      sload\n      dup2\n      jump\t// out\n        /* \"contracts/auction1.sol\":110:138  address public highestbidder */\n    tag_17:\n      0x00\n      dup1\n      sload\n      swap1\n      0x0100\n      exp\n      swap1\n      div\n      0xffffffffffffffffffffffffffffffffffffffff\n      and\n      dup2\n      jump\t// out\n        /* \"#utility.yul\":88:205   */\n    tag_34:\n        /* \"#utility.yul\":197:198   */\n      0x00\n        /* \"#utility.yul\":194:195   */\n      dup1\n        /* \"#utility.yul\":187:199   */\n      revert\n        /* \"#utility.yul\":334:411   */\n    tag_36:\n        /* \"#utility.yul\":371:378   */\n      0x00\n        /* \"#utility.yul\":400:405   */\n      dup2\n        /* \"#utility.yul\":389:405   */\n      swap1\n      pop\n        /* \"#utility.yul\":334:411   */\n      swap2\n      swap1\n      pop\n      jump\t// out\n        /* \"#utility.yul\":417:539   */\n    tag_37:\n        /* \"#utility.yul\":490:514   */\n      tag_57\n        /* \"#utility.yul\":508:513   */\n      dup2\n        /* \"#utility.yul\":490:514   */\n      tag_36\n      jump\t// in\n    tag_57:\n        /* \"#utility.yul\":483:488   */\n      dup2\n        /* \"#utility.yul\":480:515   */\n      eq\n        /* \"#utility.yul\":470:533   */\n      tag_58\n      jumpi\n        /* \"#utility.yul\":529:530   */\n      0x00\n        /* \"#utility.yul\":526:527   */\n      dup1\n        /* \"#utility.yul\":519:531   */\n      revert\n        /* \"#utility.yul\":470:533   */\n    tag_58:\n        /* \"#utility.yul\":417:539   */\n      pop\n      jump\t// out\n        /* \"#utility.yul\":545:684   */\n    tag_38:\n        /* \"#utility.yul\":591:596   */\n      0x00\n        /* \"#utility.yul\":629:635   */\n      dup2\n        /* \"#utility.yul\":616:636   */\n      calldataload\n        /* \"#utility.yul\":607:636   */\n      swap1\n      pop\n        /* \"#utility.yul\":645:678   */\n      tag_60\n        /* \"#utility.yul\":672:677   */\n      dup2\n        /* \"#utility.yul\":645:678   */\n      tag_37\n      jump\t// in\n    tag_60:\n        /* \"#utility.yul\":545:684   */\n      swap3\n      swap2\n      pop\n      pop\n      jump\t// out\n        /* \"#utility.yul\":690:1164   */\n    tag_8:\n        /* \"#utility.yul\":758:764   */\n      0x00\n        /* \"#utility.yul\":766:772   */\n      dup1\n        /* \"#utility.yul\":815:817   */\n      0x40\n        /* \"#utility.yul\":803:812   */\n      dup4\n        /* \"#utility.yul\":794:801   */\n      dup6\n        /* \"#utility.yul\":790:813   */\n      sub\n        /* \"#utility.yul\":786:818   */\n      slt\n        /* \"#utility.yul\":783:902   */\n      iszero\n      tag_62\n      jumpi\n        /* \"#utility.yul\":821:900   */\n      tag_63\n      tag_34\n      jump\t// in\n    tag_63:\n        /* \"#utility.yul\":783:902   */\n    tag_62:\n        /* \"#utility.yul\":941:942   */\n      0x00\n        /* \"#utility.yul\":966:1019   */\n      tag_64\n        /* \"#utility.yul\":1011:1018   */\n      dup6\n        /* \"#utility.yul\":1002:1008   */\n      dup3\n        /* \"#utility.yul\":991:1000   */\n      dup7\n        /* \"#utility.yul\":987:1009   */\n      add\n        /* \"#utility.yul\":966:1019   */\n      tag_38\n      jump\t// in\n    tag_64:\n        /* \"#utility.yul\":956:1019   */\n      swap3\n      pop\n        /* \"#utility.yul\":912:1029   */\n      pop\n        /* \"#utility.yul\":1068:1070   */\n      0x20\n        /* \"#utility.yul\":1094:1147   */\n      tag_65\n        /* \"#utility.yul\":1139:1146   */\n      dup6\n        /* \"#utility.yul\":1130:1136   */\n      dup3\n        /* \"#utility.yul\":1119:1128   */\n      dup7\n        /* \"#utility.yul\":1115:1137   */\n      add\n        /* \"#utility.yul\":1094:1147   */\n      tag_38\n      jump\t// in\n    tag_65:\n        /* \"#utility.yul\":1084:1147   */\n      swap2\n      pop\n        /* \"#utility.yul\":1039:1157   */\n      pop\n        /* \"#utility.yul\":690:1164   */\n      swap3\n      pop\n      swap3\n      swap1\n      pop\n      jump\t// out\n        /* \"#utility.yul\":1170:1296   */\n    tag_39:\n        /* \"#utility.yul\":1207:1214   */\n      0x00\n        /* \"#utility.yul\":1247:1289   */\n      0xffffffffffffffffffffffffffffffffffffffff\n        /* \"#utility.yul\":1240:1245   */\n      dup3\n        /* \"#utility.yul\":1236:1290   */\n      and\n        /* \"#utility.yul\":1225:1290   */\n      swap1\n      pop\n        /* \"#utility.yul\":1170:1296   */\n      swap2\n      swap1\n      pop\n      jump\t// out\n        /* \"#utility.yul\":1302:1398   */\n    tag_40:\n        /* \"#utility.yul\":1339:1346   */\n      0x00\n        /* \"#utility.yul\":1368:1392   */\n      tag_68\n        /* \"#utility.yul\":1386:1391   */\n      dup3\n        /* \"#utility.yul\":1368:1392   */\n      tag_39\n      jump\t// in\n    tag_68:\n        /* \"#utility.yul\":1357:1392   */\n      swap1\n      pop\n        /* \"#utility.yul\":1302:1398   */\n      swap2\n      swap1\n      pop\n      jump\t// out\n        /* \"#utility.yul\":1404:1526   */\n    tag_41:\n        /* \"#utility.yul\":1477:1501   */\n      tag_70\n        /* \"#utility.yul\":1495:1500   */\n      dup2\n        /* \"#utility.yul\":1477:1501   */\n      tag_40\n      jump\t// in\n    tag_70:\n        /* \"#utility.yul\":1470:1475   */\n      dup2\n        /* \"#utility.yul\":1467:1502   */\n      eq\n        /* \"#utility.yul\":1457:1520   */\n      tag_71\n      jumpi\n        /* \"#utility.yul\":1516:1517   */\n      0x00\n        /* \"#utility.yul\":1513:1514   */\n      dup1\n        /* \"#utility.yul\":1506:1518   */\n      revert\n        /* \"#utility.yul\":1457:1520   */\n    tag_71:\n        /* \"#utility.yul\":1404:1526   */\n      pop\n      jump\t// out\n        /* \"#utility.yul\":1532:1671   */\n    tag_42:\n        /* \"#utility.yul\":1578:1583   */\n      0x00\n        /* \"#utility.yul\":1616:1622   */\n      dup2\n        /* \"#utility.yul\":1603:1623   */\n      calldataload\n        /* \"#utility.yul\":1594:1623   */\n      swap1\n      pop\n        /* \"#utility.yul\":1632:1665   */\n      tag_73\n        /* \"#utility.yul\":1659:1664   */\n      dup2\n        /* \"#utility.yul\":1632:1665   */\n      tag_41\n      jump\t// in\n    tag_73:\n        /* \"#utility.yul\":1532:1671   */\n      swap3\n      swap2\n      pop\n      pop\n      jump\t// out\n        /* \"#utility.yul\":1677:2006   */\n    tag_12:\n        /* \"#utility.yul\":1736:1742   */\n      0x00\n        /* \"#utility.yul\":1785:1787   */\n      0x20\n        /* \"#utility.yul\":1773:1782   */\n      dup3\n        /* \"#utility.yul\":1764:1771   */\n      dup5\n        /* \"#utility.yul\":1760:1783   */\n      sub\n        /* \"#utility.yul\":1756:1788   */\n      slt\n        /* \"#utility.yul\":1753:1872   */\n      iszero\n      tag_75\n      jumpi\n        /* \"#utility.yul\":1791:1870   */\n      tag_76\n      tag_34\n      jump\t// in\n    tag_76:\n        /* \"#utility.yul\":1753:1872   */\n    tag_75:\n        /* \"#utility.yul\":1911:1912   */\n      0x00\n        /* \"#utility.yul\":1936:1989   */\n      tag_77\n        /* \"#utility.yul\":1981:1988   */\n      dup5\n        /* \"#utility.yul\":1972:1978   */\n      dup3\n        /* \"#utility.yul\":1961:1970   */\n      dup6\n        /* \"#utility.yul\":1957:1979   */\n      add\n        /* \"#utility.yul\":1936:1989   */\n      tag_42\n      jump\t// in\n    tag_77:\n        /* \"#utility.yul\":1926:1989   */\n      swap2\n      pop\n        /* \"#utility.yul\":1882:1999   */\n      pop\n        /* \"#utility.yul\":1677:2006   */\n      swap3\n      swap2\n      pop\n      pop\n      jump\t// out\n        /* \"#utility.yul\":2012:2130   */\n    tag_43:\n        /* \"#utility.yul\":2099:2123   */\n      tag_79\n        /* \"#utility.yul\":2117:2122   */\n      dup2\n        /* \"#utility.yul\":2099:2123   */\n      tag_36\n      jump\t// in\n    tag_79:\n        /* \"#utility.yul\":2094:2097   */\n      dup3\n        /* \"#utility.yul\":2087:2124   */\n      mstore\n        /* \"#utility.yul\":2012:2130   */\n      pop\n      pop\n      jump\t// out\n        /* \"#utility.yul\":2136:2358   */\n    tag_15:\n        /* \"#utility.yul\":2229:2233   */\n      0x00\n        /* \"#utility.yul\":2267:2269   */\n      0x20\n        /* \"#utility.yul\":2256:2265   */\n      dup3\n        /* \"#utility.yul\":2252:2270   */\n      add\n        /* \"#utility.yul\":2244:2270   */\n      swap1\n      pop\n        /* \"#utility.yul\":2280:2351   */\n      tag_81\n        /* \"#utility.yul\":2348:2349   */\n      0x00\n        /* \"#utility.yul\":2337:2346   */\n      dup4\n        /* \"#utility.yul\":2333:2350   */\n      add\n        /* \"#utility.yul\":2324:2330   */\n      dup5\n        /* \"#utility.yul\":2280:2351   */\n      tag_43\n      jump\t// in\n    tag_81:\n        /* \"#utility.yul\":2136:2358   */\n      swap3\n      swap2\n      pop\n      pop\n      jump\t// out\n        /* \"#utility.yul\":2364:2482   */\n    tag_44:\n        /* \"#utility.yul\":2451:2475   */\n      tag_83\n        /* \"#utility.yul\":2469:2474   */\n      dup2\n        /* \"#utility.yul\":2451:2475   */\n      tag_40\n      jump\t// in\n    tag_83:\n        /* \"#utility.yul\":2446:2449   */\n      dup3\n        /* \"#utility.yul\":2439:2476   */\n      mstore\n        /* \"#utility.yul\":2364:2482   */\n      pop\n      pop\n      jump\t// out\n        /* \"#utility.yul\":2488:2710   */\n    tag_19:\n        /* \"#utility.yul\":2581:2585   */\n      0x00\n        /* \"#utility.yul\":2619:2621   */\n      0x20\n        /* \"#utility.yul\":2608:2617   */\n      dup3\n        /* \"#utility.yul\":2604:2622   */\n      add\n        /* \"#utility.yul\":2596:2622   */\n      swap1\n      pop\n        /* \"#utility.yul\":2632:2703   */\n      tag_85\n        /* \"#utility.yul\":2700:2701   */\n      0x00\n        /* \"#utility.yul\":2689:2698   */\n      dup4\n        /* \"#utility.yul\":2685:2702   */\n      add\n        /* \"#utility.yul\":2676:2682   */\n      dup5\n        /* \"#utility.yul\":2632:2703   */\n      tag_44\n      jump\t// in\n    tag_85:\n        /* \"#utility.yul\":2488:2710   */\n      swap3\n      swap2\n      pop\n      pop\n      jump\t// out\n        /* \"#utility.yul\":2716:2885   */\n    tag_45:\n        /* \"#utility.yul\":2800:2811   */\n      0x00\n        /* \"#utility.yul\":2834:2840   */\n      dup3\n        /* \"#utility.yul\":2829:2832   */\n      dup3\n        /* \"#utility.yul\":2822:2841   */\n      mstore\n        /* \"#utility.yul\":2874:2878   */\n      0x20\n        /* \"#utility.yul\":2869:2872   */\n      dup3\n        /* \"#utility.yul\":2865:2879   */\n      add\n        /* \"#utility.yul\":2850:2879   */\n      swap1\n      pop\n        /* \"#utility.yul\":2716:2885   */\n      swap3\n      swap2\n      pop\n      pop\n      jump\t// out\n        /* \"#utility.yul\":2891:3064   */\n    tag_46:\n        /* \"#utility.yul\":3031:3056   */\n      0x416d6f756e742073686f756c6420626520686967686572000000000000000000\n        /* \"#utility.yul\":3027:3028   */\n      0x00\n        /* \"#utility.yul\":3019:3025   */\n      dup3\n        /* \"#utility.yul\":3015:3029   */\n      add\n        /* \"#utility.yul\":3008:3057   */\n      mstore\n        /* \"#utility.yul\":2891:3064   */\n      pop\n      jump\t// out\n        /* \"#utility.yul\":3070:3436   */\n    tag_47:\n        /* \"#utility.yul\":3212:3215   */\n      0x00\n        /* \"#utility.yul\":3233:3300   */\n      tag_89\n        /* \"#utility.yul\":3297:3299   */\n      0x17\n        /* \"#utility.yul\":3292:3295   */\n      dup4\n        /* \"#utility.yul\":3233:3300   */\n      tag_45\n      jump\t// in\n    tag_89:\n        /* \"#utility.yul\":3226:3300   */\n      swap2\n      pop\n        /* \"#utility.yul\":3309:3402   */\n      tag_90\n        /* \"#utility.yul\":3398:3401   */\n      dup3\n        /* \"#utility.yul\":3309:3402   */\n      tag_46\n      jump\t// in\n    tag_90:\n        /* \"#utility.yul\":3427:3429   */\n      0x20\n        /* \"#utility.yul\":3422:3425   */\n      dup3\n        /* \"#utility.yul\":3418:3430   */\n      add\n        /* \"#utility.yul\":3411:3430   */\n      swap1\n      pop\n        /* \"#utility.yul\":3070:3436   */\n      swap2\n      swap1\n      pop\n      jump\t// out\n        /* \"#utility.yul\":3442:3861   */\n    tag_24:\n        /* \"#utility.yul\":3608:3612   */\n      0x00\n        /* \"#utility.yul\":3646:3648   */\n      0x20\n        /* \"#utility.yul\":3635:3644   */\n      dup3\n        /* \"#utility.yul\":3631:3649   */\n      add\n        /* \"#utility.yul\":3623:3649   */\n      swap1\n      pop\n        /* \"#utility.yul\":3695:3704   */\n      dup2\n        /* \"#utility.yul\":3689:3693   */\n      dup2\n        /* \"#utility.yul\":3685:3705   */\n      sub\n        /* \"#utility.yul\":3681:3682   */\n      0x00\n        /* \"#utility.yul\":3670:3679   */\n      dup4\n        /* \"#utility.yul\":3666:3683   */\n      add\n        /* \"#utility.yul\":3659:3706   */\n      mstore\n        /* \"#utility.yul\":3723:3854   */\n      tag_92\n        /* \"#utility.yul\":3849:3853   */\n      dup2\n        /* \"#utility.yul\":3723:3854   */\n      tag_47\n      jump\t// in\n    tag_92:\n        /* \"#utility.yul\":3715:3854   */\n      swap1\n      pop\n        /* \"#utility.yul\":3442:3861   */\n      swap2\n      swap1\n      pop\n      jump\t// out\n        /* \"#utility.yul\":3867:4042   */\n    tag_48:\n        /* \"#utility.yul\":4007:4034   */\n      0x416d6f756e742073686f756c64206e6f74206265205a65726f00000000000000\n        /* \"#utility.yul\":4003:4004   */\n      0x00\n        /* \"#utility.yul\":3995:4001   */\n      dup3\n        /* \"#utility.yul\":3991:4005   */\n      add\n        /* \"#utility.yul\":3984:4035   */\n      mstore\n        /* \"#utility.yul\":3867:4042   */\n      pop\n      jump\t// out\n        /* \"#utility.yul\":4048:4414   */\n    tag_49:\n        /* \"#utility.yul\":4190:4193   */\n      0x00\n        /* \"#utility.yul\":4211:4278   */\n      tag_95\n        /* \"#utility.yul\":4275:4277   */\n      0x19\n        /* \"#utility.yul\":4270:4273   */\n      dup4\n        /* \"#utility.yul\":4211:4278   */\n      tag_45\n      jump\t// in\n    tag_95:\n        /* \"#utility.yul\":4204:4278   */\n      swap2\n      pop\n        /* \"#utility.yul\":4287:4380   */\n      tag_96\n        /* \"#utility.yul\":4376:4379   */\n      dup3\n        /* \"#utility.yul\":4287:4380   */\n      tag_48\n      jump\t// in\n    tag_96:\n        /* \"#utility.yul\":4405:4407   */\n      0x20\n        /* \"#utility.yul\":4400:4403   */\n      dup3\n        /* \"#utility.yul\":4396:4408   */\n      add\n        /* \"#utility.yul\":4389:4408   */\n      swap1\n      pop\n        /* \"#utility.yul\":4048:4414   */\n      swap2\n      swap1\n      pop\n      jump\t// out\n        /* \"#utility.yul\":4420:4839   */\n    tag_27:\n        /* \"#utility.yul\":4586:4590   */\n      0x00\n        /* \"#utility.yul\":4624:4626   */\n      0x20\n        /* \"#utility.yul\":4613:4622   */\n      dup3\n        /* \"#utility.yul\":4609:4627   */\n      add\n        /* \"#utility.yul\":4601:4627   */\n      swap1\n      pop\n        /* \"#utility.yul\":4673:4682   */\n      dup2\n        /* \"#utility.yul\":4667:4671   */\n      dup2\n        /* \"#utility.yul\":4663:4683   */\n      sub\n        /* \"#utility.yul\":4659:4660   */\n      0x00\n        /* \"#utility.yul\":4648:4657   */\n      dup4\n        /* \"#utility.yul\":4644:4661   */\n      add\n        /* \"#utility.yul\":4637:4684   */\n      mstore\n        /* \"#utility.yul\":4701:4832   */\n      tag_98\n        /* \"#utility.yul\":4827:4831   */\n      dup2\n        /* \"#utility.yul\":4701:4832   */\n      tag_49\n      jump\t// in\n    tag_98:\n        /* \"#utility.yul\":4693:4832   */\n      swap1\n      pop\n        /* \"#utility.yul\":4420:4839   */\n      swap2\n      swap1\n      pop\n      jump\t// out\n        /* \"#utility.yul\":4845:5025   */\n    tag_50:\n        /* \"#utility.yul\":4893:4970   */\n      0x4e487b7100000000000000000000000000000000000000000000000000000000\n        /* \"#utility.yul\":4890:4891   */\n      0x00\n        /* \"#utility.yul\":4883:4971   */\n      mstore\n        /* \"#utility.yul\":4990:4994   */\n      0x11\n        /* \"#utility.yul\":4987:4988   */\n      0x04\n        /* \"#utility.yul\":4980:4995   */\n      mstore\n        /* \"#utility.yul\":5014:5018   */\n      0x24\n        /* \"#utility.yul\":5011:5012   */\n      0x00\n        /* \"#utility.yul\":5004:5019   */\n      revert\n        /* \"#utility.yul\":5031:5222   */\n    tag_30:\n        /* \"#utility.yul\":5071:5074   */\n      0x00\n        /* \"#utility.yul\":5090:5110   */\n      tag_101\n        /* \"#utility.yul\":5108:5109   */\n      dup3\n        /* \"#utility.yul\":5090:5110   */\n      tag_36\n      jump\t// in\n    tag_101:\n        /* \"#utility.yul\":5085:5110   */\n      swap2\n      pop\n        /* \"#utility.yul\":5124:5144   */\n      tag_102\n        /* \"#utility.yul\":5142:5143   */\n      dup4\n        /* \"#utility.yul\":5124:5144   */\n      tag_36\n      jump\t// in\n    tag_102:\n        /* \"#utility.yul\":5119:5144   */\n      swap3\n      pop\n        /* \"#utility.yul\":5167:5168   */\n      dup3\n        /* \"#utility.yul\":5164:5165   */\n      dup3\n        /* \"#utility.yul\":5160:5169   */\n      add\n        /* \"#utility.yul\":5153:5169   */\n      swap1\n      pop\n        /* \"#utility.yul\":5188:5191   */\n      dup1\n        /* \"#utility.yul\":5185:5186   */\n      dup3\n        /* \"#utility.yul\":5182:5192   */\n      gt\n        /* \"#utility.yul\":5179:5215   */\n      iszero\n      tag_103\n      jumpi\n        /* \"#utility.yul\":5195:5213   */\n      tag_104\n      tag_50\n      jump\t// in\n    tag_104:\n        /* \"#utility.yul\":5179:5215   */\n    tag_103:\n        /* \"#utility.yul\":5031:5222   */\n      swap3\n      swap2\n      pop\n      pop\n      jump\t// out\n        /* \"#utility.yul\":5228:5560   */\n    tag_32:\n        /* \"#utility.yul\":5349:5353   */\n      0x00\n        /* \"#utility.yul\":5387:5389   */\n      0x40\n        /* \"#utility.yul\":5376:5385   */\n      dup3\n        /* \"#utility.yul\":5372:5390   */\n      add\n        /* \"#utility.yul\":5364:5390   */\n      swap1\n      pop\n        /* \"#utility.yul\":5400:5471   */\n      tag_106\n        /* \"#utility.yul\":5468:5469   */\n      0x00\n        /* \"#utility.yul\":5457:5466   */\n      dup4\n        /* \"#utility.yul\":5453:5470   */\n      add\n        /* \"#utility.yul\":5444:5450   */\n      dup6\n        /* \"#utility.yul\":5400:5471   */\n      tag_44\n      jump\t// in\n    tag_106:\n        /* \"#utility.yul\":5481:5553   */\n      tag_107\n        /* \"#utility.yul\":5549:5551   */\n      0x20\n        /* \"#utility.yul\":5538:5547   */\n      dup4\n        /* \"#utility.yul\":5534:5552   */\n      add\n        /* \"#utility.yul\":5525:5531   */\n      dup5\n        /* \"#utility.yul\":5481:5553   */\n      tag_43\n      jump\t// in\n    tag_107:\n        /* \"#utility.yul\":5228:5560   */\n      swap4\n      swap3\n      pop\n      pop\n      pop\n      jump\t// out\n\n    auxdata: 0xa264697066735822122087ca421e799711ea87e8371af0a7daedae3b930681022a473cf40922ca97046364736f6c63430008120033\n}\n",
				"bytecode": {
					"linkReferences": {},
					"object": "608060405234801561001057600080fd5b506040516107d63803806107d683398181016040528101906100329190610085565b804261003e91906100e1565b60018190555050610115565b600080fd5b6000819050919050565b6100628161004f565b811461006d57600080fd5b50565b60008151905061007f81610059565b92915050565b60006020828403121561009b5761009a61004a565b5b60006100a984828501610070565b91505092915050565b7f4e487b7100000000000000000000000000000000000000000000000000000000600052601160045260246000fd5b60006100ec8261004f565b91506100f78361004f565b925082820190508082111561010f5761010e6100b2565b5b92915050565b6106b2806101246000396000f3fe608060405234801561001057600080fd5b50600436106100415760003560e01c806387fe412c146100465780639cf5453d14610062578063dcbfb0ff14610092575b600080fd5b610060600480360381019061005b91906103e8565b6100b0565b005b61007c60048036038101906100779190610486565b610371565b60405161008991906104c2565b60405180910390f35b61009a610389565b6040516100a791906104ec565b60405180910390f35b6001544211156100ec576040517fdda144a500000000000000000000000000000000000000000000000000000000815260040160405180910390fd5b33600460006101000a81548173ffffffffffffffffffffffffffffffffffffffff021916908373ffffffffffffffffffffffffffffffffffffffff16021790555080820361016f576040517f08c379a000000000000000000000000000000000000000000000000000000000815260040161016690610564565b60405180910390fd5b600081116101b2576040517f08c379a00000000000000000000000000000000000000000000000000000000081526004016101a9906105d0565b60405180910390fd5b8082101561022057809150600460009054906101000a900473ffffffffffffffffffffffffffffffffffffffff166000806101000a81548173ffffffffffffffffffffffffffffffffffffffff021916908373ffffffffffffffffffffffffffffffffffffffff1602179055505b80600360008060009054906101000a900473ffffffffffffffffffffffffffffffffffffffff1673ffffffffffffffffffffffffffffffffffffffff1673ffffffffffffffffffffffffffffffffffffffff1681526020019081526020016000206000828254610290919061061f565b92505081905550600460009054906101000a900473ffffffffffffffffffffffffffffffffffffffff166000806101000a81548173ffffffffffffffffffffffffffffffffffffffff021916908373ffffffffffffffffffffffffffffffffffffffff1602179055506001600260006101000a81548160ff0219169083151502179055507f363cbe3aacee95cef0ed3009e914473b826e797d14654789d464eb1713bf9c8460008054906101000a900473ffffffffffffffffffffffffffffffffffffffff1683604051610365929190610653565b60405180910390a15050565b60036020528060005260406000206000915090505481565b60008054906101000a900473ffffffffffffffffffffffffffffffffffffffff1681565b600080fd5b6000819050919050565b6103c5816103b2565b81146103d057600080fd5b50565b6000813590506103e2816103bc565b92915050565b600080604083850312156103ff576103fe6103ad565b5b600061040d858286016103d3565b925050602061041e858286016103d3565b9150509250929050565b600073ffffffffffffffffffffffffffffffffffffffff82169050919050565b600061045382610428565b9050919050565b61046381610448565b811461046e57600080fd5b50565b6000813590506104808161045a565b92915050565b60006020828403121561049c5761049b6103ad565b5b60006104aa84828501610471565b91505092915050565b6104bc816103b2565b82525050565b60006020820190506104d760008301846104b3565b92915050565b6104e681610448565b82525050565b600060208201905061050160008301846104dd565b92915050565b600082825260208201905092915050565b7f416d6f756e742073686f756c6420626520686967686572000000000000000000600082015250565b600061054e601783610507565b915061055982610518565b602082019050919050565b6000602082019050818103600083015261057d81610541565b9050919050565b7f416d6f756e742073686f756c64206e6f74206265205a65726f00000000000000600082015250565b60006105ba601983610507565b91506105c582610584565b602082019050919050565b600060208201905081810360008301526105e9816105ad565b9050919050565b7f4e487b7100000000000000000000000000000000000000000000000000000000600052601160045260246000fd5b600061062a826103b2565b9150610635836103b2565b925082820190508082111561064d5761064c6105f0565b5b92915050565b600060408201905061066860008301856104dd565b61067560208301846104b3565b939250505056fea264697066735822122087ca421e799711ea87e8371af0a7daedae3b930681022a473cf40922ca97046364736f6c63430008120033",
					"opcodes": "PUSH1 0x80 PUSH1 0x40 MSTORE CALLVALUE DUP1 ISZERO PUSH2 0x10 JUMPI PUSH1 0x0 DUP1 REVERT JUMPDEST POP PUSH1 0x40 MLOAD PUSH2 0x7D6 CODESIZE SUB DUP1 PUSH2 0x7D6 DUP4 CODECOPY DUP2 DUP2 ADD PUSH1 0x40 MSTORE DUP2 ADD SWAP1 PUSH2 0x32 SWAP2 SWAP1 PUSH2 0x85 JUMP JUMPDEST DUP1 TIMESTAMP PUSH2 0x3E SWAP2 SWAP1 PUSH2 0xE1 JUMP JUMPDEST PUSH1 0x1 DUP2 SWAP1 SSTORE POP POP PUSH2 0x115 JUMP JUMPDEST PUSH1 0x0 DUP1 REVERT JUMPDEST PUSH1 0x0 DUP2 SWAP1 POP SWAP2 SWAP1 POP JUMP JUMPDEST PUSH2 0x62 DUP2 PUSH2 0x4F JUMP JUMPDEST DUP2 EQ PUSH2 0x6D JUMPI PUSH1 0x0 DUP1 REVERT JUMPDEST POP JUMP JUMPDEST PUSH1 0x0 DUP2 MLOAD SWAP1 POP PUSH2 0x7F DUP2 PUSH2 0x59 JUMP JUMPDEST SWAP3 SWAP2 POP POP JUMP JUMPDEST PUSH1 0x0 PUSH1 0x20 DUP3 DUP5 SUB SLT ISZERO PUSH2 0x9B JUMPI PUSH2 0x9A PUSH2 0x4A JUMP JUMPDEST JUMPDEST PUSH1 0x0 PUSH2 0xA9 DUP5 DUP3 DUP6 ADD PUSH2 0x70 JUMP JUMPDEST SWAP2 POP POP SWAP3 SWAP2 POP POP JUMP JUMPDEST PUSH32 0x4E487B7100000000000000000000000000000000000000000000000000000000 PUSH1 0x0 MSTORE PUSH1 0x11 PUSH1 0x4 MSTORE PUSH1 0x24 PUSH1 0x0 REVERT JUMPDEST PUSH1 0x0 PUSH2 0xEC DUP3 PUSH2 0x4F JUMP JUMPDEST SWAP2 POP PUSH2 0xF7 DUP4 PUSH2 0x4F JUMP JUMPDEST SWAP3 POP DUP3 DUP3 ADD SWAP1 POP DUP1 DUP3 GT ISZERO PUSH2 0x10F JUMPI PUSH2 0x10E PUSH2 0xB2 JUMP JUMPDEST JUMPDEST SWAP3 SWAP2 POP POP JUMP JUMPDEST PUSH2 0x6B2 DUP1 PUSH2 0x124 PUSH1 0x0 CODECOPY PUSH1 0x0 RETURN INVALID PUSH1 0x80 PUSH1 0x40 MSTORE CALLVALUE DUP1 ISZERO PUSH2 0x10 JUMPI PUSH1 0x0 DUP1 REVERT JUMPDEST POP PUSH1 0x4 CALLDATASIZE LT PUSH2 0x41 JUMPI PUSH1 0x0 CALLDATALOAD PUSH1 0xE0 SHR DUP1 PUSH4 0x87FE412C EQ PUSH2 0x46 JUMPI DUP1 PUSH4 0x9CF5453D EQ PUSH2 0x62 JUMPI DUP1 PUSH4 0xDCBFB0FF EQ PUSH2 0x92 JUMPI JUMPDEST PUSH1 0x0 DUP1 REVERT JUMPDEST PUSH2 0x60 PUSH1 0x4 DUP1 CALLDATASIZE SUB DUP2 ADD SWAP1 PUSH2 0x5B SWAP2 SWAP1 PUSH2 0x3E8 JUMP JUMPDEST PUSH2 0xB0 JUMP JUMPDEST STOP JUMPDEST PUSH2 0x7C PUSH1 0x4 DUP1 CALLDATASIZE SUB DUP2 ADD SWAP1 PUSH2 0x77 SWAP2 SWAP1 PUSH2 0x486 JUMP JUMPDEST PUSH2 0x371 JUMP JUMPDEST PUSH1 0x40 MLOAD PUSH2 0x89 SWAP2 SWAP1 PUSH2 0x4C2 JUMP JUMPDEST PUSH1 0x40 MLOAD DUP1 SWAP2 SUB SWAP1 RETURN JUMPDEST PUSH2 0x9A PUSH2 0x389 JUMP JUMPDEST PUSH1 0x40 MLOAD PUSH2 0xA7 SWAP2 SWAP1 PUSH2 0x4EC JUMP JUMPDEST PUSH1 0x40 MLOAD DUP1 SWAP2 SUB SWAP1 RETURN JUMPDEST PUSH1 0x1 SLOAD TIMESTAMP GT ISZERO PUSH2 0xEC JUMPI PUSH1 0x40 MLOAD PUSH32 0xDDA144A500000000000000000000000000000000000000000000000000000000 DUP2 MSTORE PUSH1 0x4 ADD PUSH1 0x40 MLOAD DUP1 SWAP2 SUB SWAP1 REVERT JUMPDEST CALLER PUSH1 0x4 PUSH1 0x0 PUSH2 0x100 EXP DUP2 SLOAD DUP2 PUSH20 0xFFFFFFFFFFFFFFFFFFFFFFFFFFFFFFFFFFFFFFFF MUL NOT AND SWAP1 DUP4 PUSH20 0xFFFFFFFFFFFFFFFFFFFFFFFFFFFFFFFFFFFFFFFF AND MUL OR SWAP1 SSTORE POP DUP1 DUP3 SUB PUSH2 0x16F JUMPI PUSH1 0x40 MLOAD PUSH32 0x8C379A000000000000000000000000000000000000000000000000000000000 DUP2 MSTORE PUSH1 0x4 ADD PUSH2 0x166 SWAP1 PUSH2 0x564 JUMP JUMPDEST PUSH1 0x40 MLOAD DUP1 SWAP2 SUB SWAP1 REVERT JUMPDEST PUSH1 0x0 DUP2 GT PUSH2 0x1B2 JUMPI PUSH1 0x40 MLOAD PUSH32 0x8C379A000000000000000000000000000000000000000000000000000000000 DUP2 MSTORE PUSH1 0x4 ADD PUSH2 0x1A9 SWAP1 PUSH2 0x5D0 JUMP JUMPDEST PUSH1 0x40 MLOAD DUP1 SWAP2 SUB SWAP1 REVERT JUMPDEST DUP1 DUP3 LT ISZERO PUSH2 0x220 JUMPI DUP1 SWAP2 POP PUSH1 0x4 PUSH1 0x0 SWAP1 SLOAD SWAP1 PUSH2 0x100 EXP SWAP1 DIV PUSH20 0xFFFFFFFFFFFFFFFFFFFFFFFFFFFFFFFFFFFFFFFF AND PUSH1 0x0 DUP1 PUSH2 0x100 EXP DUP2 SLOAD DUP2 PUSH20 0xFFFFFFFFFFFFFFFFFFFFFFFFFFFFFFFFFFFFFFFF MUL NOT AND SWAP1 DUP4 PUSH20 0xFFFFFFFFFFFFFFFFFFFFFFFFFFFFFFFFFFFFFFFF AND MUL OR SWAP1 SSTORE POP JUMPDEST DUP1 PUSH1 0x3 PUSH1 0x0 DUP1 PUSH1 0x0 SWAP1 SLOAD SWAP1 PUSH2 0x100 EXP SWAP1 DIV PUSH20 0xFFFFFFFFFFFFFFFFFFFFFFFFFFFFFFFFFFFFFFFF AND PUSH20 0xFFFFFFFFFFFFFFFFFFFFFFFFFFFFFFFFFFFFFFFF AND PUSH20 0xFFFFFFFFFFFFFFFFFFFFFFFFFFFFFFFFFFFFFFFF AND DUP2 MSTORE PUSH1 0x20 ADD SWAP1 DUP2 MSTORE PUSH1 0x20 ADD PUSH1 0x0 KECCAK256 PUSH1 0x0 DUP3 DUP3 SLOAD PUSH2 0x290 SWAP2 SWAP1 PUSH2 0x61F JUMP JUMPDEST SWAP3 POP POP DUP2 SWAP1 SSTORE POP PUSH1 0x4 PUSH1 0x0 SWAP1 SLOAD SWAP1 PUSH2 0x100 EXP SWAP1 DIV PUSH20 0xFFFFFFFFFFFFFFFFFFFFFFFFFFFFFFFFFFFFFFFF AND PUSH1 0x0 DUP1 PUSH2 0x100 EXP DUP2 SLOAD DUP2 PUSH20 0xFFFFFFFFFFFFFFFFFFFFFFFFFFFFFFFFFFFFFFFF MUL NOT AND SWAP1 DUP4 PUSH20 0xFFFFFFFFFFFFFFFFFFFFFFFFFFFFFFFFFFFFFFFF AND MUL OR SWAP1 SSTORE POP PUSH1 0x1 PUSH1 0x2 PUSH1 0x0 PUSH2 0x100 EXP DUP2 SLOAD DUP2 PUSH1 0xFF MUL NOT AND SWAP1 DUP4 ISZERO ISZERO MUL OR SWAP1 SSTORE POP PUSH32 0x363CBE3AACEE95CEF0ED3009E914473B826E797D14654789D464EB1713BF9C84 PUSH1 0x0 DUP1 SLOAD SWAP1 PUSH2 0x100 EXP SWAP1 DIV PUSH20 0xFFFFFFFFFFFFFFFFFFFFFFFFFFFFFFFFFFFFFFFF AND DUP4 PUSH1 0x40 MLOAD PUSH2 0x365 SWAP3 SWAP2 SWAP1 PUSH2 0x653 JUMP JUMPDEST PUSH1 0x40 MLOAD DUP1 SWAP2 SUB SWAP1 LOG1 POP POP JUMP JUMPDEST PUSH1 0x3 PUSH1 0x20 MSTORE DUP1 PUSH1 0x0 MSTORE PUSH1 0x40 PUSH1 0x0 KECCAK256 PUSH1 0x0 SWAP2 POP SWAP1 POP SLOAD DUP2 JUMP JUMPDEST PUSH1 0x0 DUP1 SLOAD SWAP1 PUSH2 0x100 EXP SWAP1 DIV PUSH20 0xFFFFFFFFFFFFFFFFFFFFFFFFFFFFFFFFFFFFFFFF AND DUP2 JUMP JUMPDEST PUSH1 0x0 DUP1 REVERT JUMPDEST PUSH1 0x0 DUP2 SWAP1 POP SWAP2 SWAP1 POP JUMP JUMPDEST PUSH2 0x3C5 DUP2 PUSH2 0x3B2 JUMP JUMPDEST DUP2 EQ PUSH2 0x3D0 JUMPI PUSH1 0x0 DUP1 REVERT JUMPDEST POP JUMP JUMPDEST PUSH1 0x0 DUP2 CALLDATALOAD SWAP1 POP PUSH2 0x3E2 DUP2 PUSH2 0x3BC JUMP JUMPDEST SWAP3 SWAP2 POP POP JUMP JUMPDEST PUSH1 0x0 DUP1 PUSH1 0x40 DUP4 DUP6 SUB SLT ISZERO PUSH2 0x3FF JUMPI PUSH2 0x3FE PUSH2 0x3AD JUMP JUMPDEST JUMPDEST PUSH1 0x0 PUSH2 0x40D DUP6 DUP3 DUP7 ADD PUSH2 0x3D3 JUMP JUMPDEST SWAP3 POP POP PUSH1 0x20 PUSH2 0x41E DUP6 DUP3 DUP7 ADD PUSH2 0x3D3 JUMP JUMPDEST SWAP2 POP POP SWAP3 POP SWAP3 SWAP1 POP JUMP JUMPDEST PUSH1 0x0 PUSH20 0xFFFFFFFFFFFFFFFFFFFFFFFFFFFFFFFFFFFFFFFF DUP3 AND SWAP1 POP SWAP2 SWAP1 POP JUMP JUMPDEST PUSH1 0x0 PUSH2 0x453 DUP3 PUSH2 0x428 JUMP JUMPDEST SWAP1 POP SWAP2 SWAP1 POP JUMP JUMPDEST PUSH2 0x463 DUP2 PUSH2 0x448 JUMP JUMPDEST DUP2 EQ PUSH2 0x46E JUMPI PUSH1 0x0 DUP1 REVERT JUMPDEST POP JUMP JUMPDEST PUSH1 0x0 DUP2 CALLDATALOAD SWAP1 POP PUSH2 0x480 DUP2 PUSH2 0x45A JUMP JUMPDEST SWAP3 SWAP2 POP POP JUMP JUMPDEST PUSH1 0x0 PUSH1 0x20 DUP3 DUP5 SUB SLT ISZERO PUSH2 0x49C JUMPI PUSH2 0x49B PUSH2 0x3AD JUMP JUMPDEST JUMPDEST PUSH1 0x0 PUSH2 0x4AA DUP5 DUP3 DUP6 ADD PUSH2 0x471 JUMP JUMPDEST SWAP2 POP POP SWAP3 SWAP2 POP POP JUMP JUMPDEST PUSH2 0x4BC DUP2 PUSH2 0x3B2 JUMP JUMPDEST DUP3 MSTORE POP POP JUMP JUMPDEST PUSH1 0x0 PUSH1 0x20 DUP3 ADD SWAP1 POP PUSH2 0x4D7 PUSH1 0x0 DUP4 ADD DUP5 PUSH2 0x4B3 JUMP JUMPDEST SWAP3 SWAP2 POP POP JUMP JUMPDEST PUSH2 0x4E6 DUP2 PUSH2 0x448 JUMP JUMPDEST DUP3 MSTORE POP POP JUMP JUMPDEST PUSH1 0x0 PUSH1 0x20 DUP3 ADD SWAP1 POP PUSH2 0x501 PUSH1 0x0 DUP4 ADD DUP5 PUSH2 0x4DD JUMP JUMPDEST SWAP3 SWAP2 POP POP JUMP JUMPDEST PUSH1 0x0 DUP3 DUP3 MSTORE PUSH1 0x20 DUP3 ADD SWAP1 POP SWAP3 SWAP2 POP POP JUMP JUMPDEST PUSH32 0x416D6F756E742073686F756C6420626520686967686572000000000000000000 PUSH1 0x0 DUP3 ADD MSTORE POP JUMP JUMPDEST PUSH1 0x0 PUSH2 0x54E PUSH1 0x17 DUP4 PUSH2 0x507 JUMP JUMPDEST SWAP2 POP PUSH2 0x559 DUP3 PUSH2 0x518 JUMP JUMPDEST PUSH1 0x20 DUP3 ADD SWAP1 POP SWAP2 SWAP1 POP JUMP JUMPDEST PUSH1 0x0 PUSH1 0x20 DUP3 ADD SWAP1 POP DUP2 DUP2 SUB PUSH1 0x0 DUP4 ADD MSTORE PUSH2 0x57D DUP2 PUSH2 0x541 JUMP JUMPDEST SWAP1 POP SWAP2 SWAP1 POP JUMP JUMPDEST PUSH32 0x416D6F756E742073686F756C64206E6F74206265205A65726F00000000000000 PUSH1 0x0 DUP3 ADD MSTORE POP JUMP JUMPDEST PUSH1 0x0 PUSH2 0x5BA PUSH1 0x19 DUP4 PUSH2 0x507 JUMP JUMPDEST SWAP2 POP PUSH2 0x5C5 DUP3 PUSH2 0x584 JUMP JUMPDEST PUSH1 0x20 DUP3 ADD SWAP1 POP SWAP2 SWAP1 POP JUMP JUMPDEST PUSH1 0x0 PUSH1 0x20 DUP3 ADD SWAP1 POP DUP2 DUP2 SUB PUSH1 0x0 DUP4 ADD MSTORE PUSH2 0x5E9 DUP2 PUSH2 0x5AD JUMP JUMPDEST SWAP1 POP SWAP2 SWAP1 POP JUMP JUMPDEST PUSH32 0x4E487B7100000000000000000000000000000000000000000000000000000000 PUSH1 0x0 MSTORE PUSH1 0x11 PUSH1 0x4 MSTORE PUSH1 0x24 PUSH1 0x0 REVERT JUMPDEST PUSH1 0x0 PUSH2 0x62A DUP3 PUSH2 0x3B2 JUMP JUMPDEST SWAP2 POP PUSH2 0x635 DUP4 PUSH2 0x3B2 JUMP JUMPDEST SWAP3 POP DUP3 DUP3 ADD SWAP1 POP DUP1 DUP3 GT ISZERO PUSH2 0x64D JUMPI PUSH2 0x64C PUSH2 0x5F0 JUMP JUMPDEST JUMPDEST SWAP3 SWAP2 POP POP JUMP JUMPDEST PUSH1 0x0 PUSH1 0x40 DUP3 ADD SWAP1 POP PUSH2 0x668 PUSH1 0x0 DUP4 ADD DUP6 PUSH2 0x4DD JUMP JUMPDEST PUSH2 0x675 PUSH1 0x20 DUP4 ADD DUP5 PUSH2 0x4B3 JUMP JUMPDEST SWAP4 SWAP3 POP POP POP JUMP INVALID LOG2 PUSH5 0x6970667358 0x22 SLT KECCAK256 DUP8 0xCA TIMESTAMP 0x1E PUSH26 0x9711EA87E8371AF0A7DAEDAE3B930681022A473CF40922CA9704 PUSH4 0x64736F6C PUSH4 0x43000812 STOP CALLER "
				},
				"gasEstimates": {
					"creation": {
						"codeDepositCost": "342800",
						"executionCost": "infinite",
						"totalCost": "infinite"
					},
					"external": {
						"bid(address)": "2814",
						"bidding(uint256,uint256)": "infinite",
						"highestbidder()": "2533"
					}
				},
				"methodIdentifiers": {
					"bid(address)": "9cf5453d",
					"bidding(uint256,uint256)": "87fe412c",
					"highestbidder()": "dcbfb0ff"
				}
			},
			"storageLayout": {
				"storage": [
					{
						"astId": 3,
						"contract": "contracts/auction1.sol:Bidding",
						"label": "highestbidder",
						"offset": 0,
						"slot": "0",
						"type": "t_address"
					},
					{
						"astId": 5,
						"contract": "contracts/auction1.sol:Bidding",
						"label": "bidEndTime",
						"offset": 0,
						"slot": "1",
						"type": "t_uint256"
					},
					{
						"astId": 7,
						"contract": "contracts/auction1.sol:Bidding",
						"label": "auctionEnded",
						"offset": 0,
						"slot": "2",
						"type": "t_bool"
					},
					{
						"astId": 11,
						"contract": "contracts/auction1.sol:Bidding",
						"label": "bid",
						"offset": 0,
						"slot": "3",
						"type": "t_mapping(t_address,t_uint256)"
					},
					{
						"astId": 34,
						"contract": "contracts/auction1.sol:Bidding",
						"label": "bidder",
						"offset": 0,
						"slot": "4",
						"type": "t_address_payable"
					}
				],
				"types": {
					"t_address": {
						"encoding": "inplace",
						"label": "address",
						"numberOfBytes": "20"
					},
					"t_address_payable": {
						"encoding": "inplace",
						"label": "address payable",
						"numberOfBytes": "20"
					},
					"t_bool": {
						"encoding": "inplace",
						"label": "bool",
						"numberOfBytes": "1"
					},
					"t_mapping(t_address,t_uint256)": {
						"encoding": "mapping",
						"key": "t_address",
						"label": "mapping(address => uint256)",
						"numberOfBytes": "32",
						"value": "t_uint256"
					},
					"t_uint256": {
						"encoding": "inplace",
						"label": "uint256",
						"numberOfBytes": "32"
					}
				}
			},
			"userdoc": {
				"kind": "user",
				"methods": {},
				"version": 1
			}
		}
	}
}