{
	"contracts/property.sol": {
		"propertyTransferApp": {
			"abi": [
				{
					"inputs": [],
					"stateMutability": "nonpayable",
					"type": "constructor"
				},
				{
					"inputs": [
						{
							"internalType": "uint256",
							"name": "_propertyid",
							"type": "uint256"
						},
						{
							"internalType": "string",
							"name": "_name",
							"type": "string"
						},
						{
							"internalType": "string",
							"name": "_owner",
							"type": "string"
						},
						{
							"internalType": "uint256",
							"name": "_value",
							"type": "uint256"
						},
						{
							"internalType": "uint256",
							"name": "_area",
							"type": "uint256"
						}
					],
					"name": "addproperty",
					"outputs": [],
					"stateMutability": "nonpayable",
					"type": "function"
				},
				{
					"inputs": [],
					"name": "contractowner",
					"outputs": [
						{
							"internalType": "address",
							"name": "",
							"type": "address"
						}
					],
					"stateMutability": "view",
					"type": "function"
				},
				{
					"inputs": [
						{
							"internalType": "uint256",
							"name": "",
							"type": "uint256"
						}
					],
					"name": "properties",
					"outputs": [
						{
							"internalType": "uint256",
							"name": "id",
							"type": "uint256"
						},
						{
							"internalType": "string",
							"name": "name",
							"type": "string"
						},
						{
							"internalType": "string",
							"name": "owner",
							"type": "string"
						},
						{
							"internalType": "uint256",
							"name": "value",
							"type": "uint256"
						},
						{
							"internalType": "uint256",
							"name": "area",
							"type": "uint256"
						}
					],
					"stateMutability": "view",
					"type": "function"
				},
				{
					"inputs": [
						{
							"internalType": "uint256",
							"name": "_propertyid",
							"type": "uint256"
						}
					],
					"name": "queryPropertyById",
					"outputs": [
						{
							"internalType": "string",
							"name": "name",
							"type": "string"
						},
						{
							"internalType": "string",
							"name": "owner",
							"type": "string"
						},
						{
							"internalType": "uint256",
							"name": "area",
							"type": "uint256"
						},
						{
							"internalType": "uint256",
							"name": "value",
							"type": "uint256"
						}
					],
					"stateMutability": "view",
					"type": "function"
				},
				{
					"inputs": [
						{
							"internalType": "uint256",
							"name": "_propertyid",
							"type": "uint256"
						},
						{
							"internalType": "string",
							"name": "_newowner",
							"type": "string"
						}
					],
					"name": "transforpropertyownership",
					"outputs": [],
					"stateMutability": "nonpayable",
					"type": "function"
				}
			],
			"devdoc": {
				"kind": "dev",
				"methods": {},
				"version": 1
			},
			"evm": {
				"assembly": "    /* \"contracts/property.sol\":59:1533  contract  propertyTransferApp{... */\n  mstore(0x40, 0x80)\n    /* \"contracts/property.sol\":130:189  constructor() {... */\n  callvalue\n  dup1\n  iszero\n  tag_1\n  jumpi\n  0x00\n  dup1\n  revert\ntag_1:\n  pop\n    /* \"contracts/property.sol\":171:181  msg.sender */\n  caller\n    /* \"contracts/property.sol\":155:168  contractowner */\n  0x00\n  dup1\n    /* \"contracts/property.sol\":155:181  contractowner = msg.sender */\n  0x0100\n  exp\n  dup2\n  sload\n  dup2\n  0xffffffffffffffffffffffffffffffffffffffff\n  mul\n  not\n  and\n  swap1\n  dup4\n  0xffffffffffffffffffffffffffffffffffffffff\n  and\n  mul\n  or\n  swap1\n  sstore\n  pop\n    /* \"contracts/property.sol\":59:1533  contract  propertyTransferApp{... */\n  dataSize(sub_0)\n  dup1\n  dataOffset(sub_0)\n  0x00\n  codecopy\n  0x00\n  return\nstop\n\nsub_0: assembly {\n        /* \"contracts/property.sol\":59:1533  contract  propertyTransferApp{... */\n      mstore(0x40, 0x80)\n      callvalue\n      dup1\n      iszero\n      tag_1\n      jumpi\n      0x00\n      dup1\n      revert\n    tag_1:\n      pop\n      jumpi(tag_2, lt(calldatasize, 0x04))\n      shr(0xe0, calldataload(0x00))\n      dup1\n      0x22f782bd\n      eq\n      tag_3\n      jumpi\n      dup1\n      0x46b489d1\n      eq\n      tag_4\n      jumpi\n      dup1\n      0x6098c94c\n      eq\n      tag_5\n      jumpi\n      dup1\n      0xd852e0be\n      eq\n      tag_6\n      jumpi\n      dup1\n      0xf7b10808\n      eq\n      tag_7\n      jumpi\n    tag_2:\n      0x00\n      dup1\n      revert\n        /* \"contracts/property.sol\":940:1352  function queryPropertyById(uint256 _propertyid)... */\n    tag_3:\n      tag_8\n      0x04\n      dup1\n      calldatasize\n      sub\n      dup2\n      add\n      swap1\n      tag_9\n      swap2\n      swap1\n      tag_10\n      jump\t// in\n    tag_9:\n      tag_11\n      jump\t// in\n    tag_8:\n      mload(0x40)\n      tag_12\n      swap5\n      swap4\n      swap3\n      swap2\n      swap1\n      tag_13\n      jump\t// in\n    tag_12:\n      mload(0x40)\n      dup1\n      swap2\n      sub\n      swap1\n      return\n        /* \"contracts/property.sol\":1358:1530  function transforpropertyownership(... */\n    tag_4:\n      tag_14\n      0x04\n      dup1\n      calldatasize\n      sub\n      dup2\n      add\n      swap1\n      tag_15\n      swap2\n      swap1\n      tag_16\n      jump\t// in\n    tag_15:\n      tag_17\n      jump\t// in\n    tag_14:\n      stop\n        /* \"contracts/property.sol\":95:123  address public contractowner */\n    tag_5:\n      tag_18\n      tag_19\n      jump\t// in\n    tag_18:\n      mload(0x40)\n      tag_20\n      swap2\n      swap1\n      tag_21\n      jump\t// in\n    tag_20:\n      mload(0x40)\n      dup1\n      swap2\n      sub\n      swap1\n      return\n        /* \"contracts/property.sol\":578:934  function addproperty(... */\n    tag_6:\n      tag_22\n      0x04\n      dup1\n      calldatasize\n      sub\n      dup2\n      add\n      swap1\n      tag_23\n      swap2\n      swap1\n      tag_24\n      jump\t// in\n    tag_23:\n      tag_25\n      jump\t// in\n    tag_22:\n      stop\n        /* \"contracts/property.sol\":520:565  mapping(uint256 =>property) public properties */\n    tag_7:\n      tag_26\n      0x04\n      dup1\n      calldatasize\n      sub\n      dup2\n      add\n      swap1\n      tag_27\n      swap2\n      swap1\n      tag_10\n      jump\t// in\n    tag_27:\n      tag_28\n      jump\t// in\n    tag_26:\n      mload(0x40)\n      tag_29\n      swap6\n      swap5\n      swap4\n      swap3\n      swap2\n      swap1\n      tag_30\n      jump\t// in\n    tag_29:\n      mload(0x40)\n      dup1\n      swap2\n      sub\n      swap1\n      return\n        /* \"contracts/property.sol\":940:1352  function queryPropertyById(uint256 _propertyid)... */\n    tag_11:\n        /* \"contracts/property.sol\":1023:1041  string memory name */\n      0x60\n        /* \"contracts/property.sol\":1052:1071  string memory owner */\n      dup1\n        /* \"contracts/property.sol\":1084:1096  uint256 area */\n      0x00\n        /* \"contracts/property.sol\":1107:1120  uint256 value */\n      dup1\n        /* \"contracts/property.sol\":1174:1184  properties */\n      0x01\n        /* \"contracts/property.sol\":1174:1197  properties[_propertyid] */\n      0x00\n        /* \"contracts/property.sol\":1185:1196  _propertyid */\n      dup7\n        /* \"contracts/property.sol\":1174:1197  properties[_propertyid] */\n      dup2\n      mstore\n      0x20\n      add\n      swap1\n      dup2\n      mstore\n      0x20\n      add\n      0x00\n      keccak256\n        /* \"contracts/property.sol\":1174:1202  properties[_propertyid].name */\n      0x01\n      add\n        /* \"contracts/property.sol\":1217:1227  properties */\n      0x01\n        /* \"contracts/property.sol\":1217:1240  properties[_propertyid] */\n      0x00\n        /* \"contracts/property.sol\":1228:1239  _propertyid */\n      dup8\n        /* \"contracts/property.sol\":1217:1240  properties[_propertyid] */\n      dup2\n      mstore\n      0x20\n      add\n      swap1\n      dup2\n      mstore\n      0x20\n      add\n      0x00\n      keccak256\n        /* \"contracts/property.sol\":1217:1246  properties[_propertyid].owner */\n      0x02\n      add\n        /* \"contracts/property.sol\":1261:1271  properties */\n      0x01\n        /* \"contracts/property.sol\":1261:1284  properties[_propertyid] */\n      0x00\n        /* \"contracts/property.sol\":1272:1283  _propertyid */\n      dup9\n        /* \"contracts/property.sol\":1261:1284  properties[_propertyid] */\n      dup2\n      mstore\n      0x20\n      add\n      swap1\n      dup2\n      mstore\n      0x20\n      add\n      0x00\n      keccak256\n        /* \"contracts/property.sol\":1261:1290  properties[_propertyid].value */\n      0x03\n      add\n      sload\n        /* \"contracts/property.sol\":1305:1315  properties */\n      0x01\n        /* \"contracts/property.sol\":1305:1328  properties[_propertyid] */\n      0x00\n        /* \"contracts/property.sol\":1316:1327  _propertyid */\n      dup10\n        /* \"contracts/property.sol\":1305:1328  properties[_propertyid] */\n      dup2\n      mstore\n      0x20\n      add\n      swap1\n      dup2\n      mstore\n      0x20\n      add\n      0x00\n      keccak256\n        /* \"contracts/property.sol\":1305:1333  properties[_propertyid].area */\n      0x04\n      add\n      sload\n        /* \"contracts/property.sol\":1152:1344  return (... */\n      dup4\n      dup1\n      sload\n      tag_32\n      swap1\n      tag_33\n      jump\t// in\n    tag_32:\n      dup1\n      0x1f\n      add\n      0x20\n      dup1\n      swap2\n      div\n      mul\n      0x20\n      add\n      mload(0x40)\n      swap1\n      dup2\n      add\n      0x40\n      mstore\n      dup1\n      swap3\n      swap2\n      swap1\n      dup2\n      dup2\n      mstore\n      0x20\n      add\n      dup3\n      dup1\n      sload\n      tag_34\n      swap1\n      tag_33\n      jump\t// in\n    tag_34:\n      dup1\n      iszero\n      tag_35\n      jumpi\n      dup1\n      0x1f\n      lt\n      tag_36\n      jumpi\n      0x0100\n      dup1\n      dup4\n      sload\n      div\n      mul\n      dup4\n      mstore\n      swap2\n      0x20\n      add\n      swap2\n      jump(tag_35)\n    tag_36:\n      dup3\n      add\n      swap2\n      swap1\n      0x00\n      mstore\n      keccak256(0x00, 0x20)\n      swap1\n    tag_37:\n      dup2\n      sload\n      dup2\n      mstore\n      swap1\n      0x01\n      add\n      swap1\n      0x20\n      add\n      dup1\n      dup4\n      gt\n      tag_37\n      jumpi\n      dup3\n      swap1\n      sub\n      0x1f\n      and\n      dup3\n      add\n      swap2\n    tag_35:\n      pop\n      pop\n      pop\n      pop\n      pop\n      swap4\n      pop\n      dup3\n      dup1\n      sload\n      tag_38\n      swap1\n      tag_33\n      jump\t// in\n    tag_38:\n      dup1\n      0x1f\n      add\n      0x20\n      dup1\n      swap2\n      div\n      mul\n      0x20\n      add\n      mload(0x40)\n      swap1\n      dup2\n      add\n      0x40\n      mstore\n      dup1\n      swap3\n      swap2\n      swap1\n      dup2\n      dup2\n      mstore\n      0x20\n      add\n      dup3\n      dup1\n      sload\n      tag_39\n      swap1\n      tag_33\n      jump\t// in\n    tag_39:\n      dup1\n      iszero\n      tag_40\n      jumpi\n      dup1\n      0x1f\n      lt\n      tag_41\n      jumpi\n      0x0100\n      dup1\n      dup4\n      sload\n      div\n      mul\n      dup4\n      mstore\n      swap2\n      0x20\n      add\n      swap2\n      jump(tag_40)\n    tag_41:\n      dup3\n      add\n      swap2\n      swap1\n      0x00\n      mstore\n      keccak256(0x00, 0x20)\n      swap1\n    tag_42:\n      dup2\n      sload\n      dup2\n      mstore\n      swap1\n      0x01\n      add\n      swap1\n      0x20\n      add\n      dup1\n      dup4\n      gt\n      tag_42\n      jumpi\n      dup3\n      swap1\n      sub\n      0x1f\n      and\n      dup3\n      add\n      swap2\n    tag_40:\n      pop\n      pop\n      pop\n      pop\n      pop\n      swap3\n      pop\n      swap4\n      pop\n      swap4\n      pop\n      swap4\n      pop\n      swap4\n      pop\n        /* \"contracts/property.sol\":940:1352  function queryPropertyById(uint256 _propertyid)... */\n      swap2\n      swap4\n      pop\n      swap2\n      swap4\n      jump\t// out\n        /* \"contracts/property.sol\":1358:1530  function transforpropertyownership(... */\n    tag_17:\n        /* \"contracts/property.sol\":1509:1518  _newowner */\n      dup1\n        /* \"contracts/property.sol\":1479:1489  properties */\n      0x01\n        /* \"contracts/property.sol\":1479:1502  properties[_propertyid] */\n      0x00\n        /* \"contracts/property.sol\":1490:1501  _propertyid */\n      dup5\n        /* \"contracts/property.sol\":1479:1502  properties[_propertyid] */\n      dup2\n      mstore\n      0x20\n      add\n      swap1\n      dup2\n      mstore\n      0x20\n      add\n      0x00\n      keccak256\n        /* \"contracts/property.sol\":1479:1508  properties[_propertyid].owner */\n      0x02\n      add\n        /* \"contracts/property.sol\":1479:1518  properties[_propertyid].owner=_newowner */\n      swap1\n      dup2\n      tag_44\n      swap2\n      swap1\n      tag_45\n      jump\t// in\n    tag_44:\n      pop\n        /* \"contracts/property.sol\":1358:1530  function transforpropertyownership(... */\n      pop\n      pop\n      jump\t// out\n        /* \"contracts/property.sol\":95:123  address public contractowner */\n    tag_19:\n      0x00\n      dup1\n      sload\n      swap1\n      0x0100\n      exp\n      swap1\n      div\n      0xffffffffffffffffffffffffffffffffffffffff\n      and\n      dup2\n      jump\t// out\n        /* \"contracts/property.sol\":578:934  function addproperty(... */\n    tag_25:\n        /* \"contracts/property.sol\":248:261  contractowner */\n      0x00\n      dup1\n      sload\n      swap1\n      0x0100\n      exp\n      swap1\n      div\n      0xffffffffffffffffffffffffffffffffffffffff\n      and\n        /* \"contracts/property.sol\":234:261  msg.sender == contractowner */\n      0xffffffffffffffffffffffffffffffffffffffff\n      and\n        /* \"contracts/property.sol\":234:244  msg.sender */\n      caller\n        /* \"contracts/property.sol\":234:261  msg.sender == contractowner */\n      0xffffffffffffffffffffffffffffffffffffffff\n      and\n      eq\n        /* \"contracts/property.sol\":226:279  require(msg.sender == contractowner, \"Not the owner\") */\n      tag_47\n      jumpi\n      mload(0x40)\n      0x08c379a000000000000000000000000000000000000000000000000000000000\n      dup2\n      mstore\n      0x04\n      add\n      tag_48\n      swap1\n      tag_49\n      jump\t// in\n    tag_48:\n      mload(0x40)\n      dup1\n      swap2\n      sub\n      swap1\n      revert\n    tag_47:\n        /* \"contracts/property.sol\":782:787  _name */\n      dup4\n        /* \"contracts/property.sol\":753:763  properties */\n      0x01\n        /* \"contracts/property.sol\":753:776  properties[_propertyid] */\n      0x00\n        /* \"contracts/property.sol\":764:775  _propertyid */\n      dup8\n        /* \"contracts/property.sol\":753:776  properties[_propertyid] */\n      dup2\n      mstore\n      0x20\n      add\n      swap1\n      dup2\n      mstore\n      0x20\n      add\n      0x00\n      keccak256\n        /* \"contracts/property.sol\":753:781  properties[_propertyid].name */\n      0x01\n      add\n        /* \"contracts/property.sol\":753:787  properties[_propertyid].name=_name */\n      swap1\n      dup2\n      tag_51\n      swap2\n      swap1\n      tag_45\n      jump\t// in\n    tag_51:\n      pop\n        /* \"contracts/property.sol\":828:834  _owner */\n      dup3\n        /* \"contracts/property.sol\":798:808  properties */\n      0x01\n        /* \"contracts/property.sol\":798:821  properties[_propertyid] */\n      0x00\n        /* \"contracts/property.sol\":809:820  _propertyid */\n      dup8\n        /* \"contracts/property.sol\":798:821  properties[_propertyid] */\n      dup2\n      mstore\n      0x20\n      add\n      swap1\n      dup2\n      mstore\n      0x20\n      add\n      0x00\n      keccak256\n        /* \"contracts/property.sol\":798:827  properties[_propertyid].owner */\n      0x02\n      add\n        /* \"contracts/property.sol\":798:834  properties[_propertyid].owner=_owner */\n      swap1\n      dup2\n      tag_52\n      swap2\n      swap1\n      tag_45\n      jump\t// in\n    tag_52:\n      pop\n        /* \"contracts/property.sol\":875:881  _value */\n      dup2\n        /* \"contracts/property.sol\":845:855  properties */\n      0x01\n        /* \"contracts/property.sol\":845:868  properties[_propertyid] */\n      0x00\n        /* \"contracts/property.sol\":856:867  _propertyid */\n      dup8\n        /* \"contracts/property.sol\":845:868  properties[_propertyid] */\n      dup2\n      mstore\n      0x20\n      add\n      swap1\n      dup2\n      mstore\n      0x20\n      add\n      0x00\n      keccak256\n        /* \"contracts/property.sol\":845:874  properties[_propertyid].value */\n      0x03\n      add\n        /* \"contracts/property.sol\":845:881  properties[_propertyid].value=_value */\n      dup2\n      swap1\n      sstore\n      pop\n        /* \"contracts/property.sol\":921:926  _area */\n      dup1\n        /* \"contracts/property.sol\":892:902  properties */\n      0x01\n        /* \"contracts/property.sol\":892:915  properties[_propertyid] */\n      0x00\n        /* \"contracts/property.sol\":903:914  _propertyid */\n      dup8\n        /* \"contracts/property.sol\":892:915  properties[_propertyid] */\n      dup2\n      mstore\n      0x20\n      add\n      swap1\n      dup2\n      mstore\n      0x20\n      add\n      0x00\n      keccak256\n        /* \"contracts/property.sol\":892:920  properties[_propertyid].area */\n      0x04\n      add\n        /* \"contracts/property.sol\":892:926  properties[_propertyid].area=_area */\n      dup2\n      swap1\n      sstore\n      pop\n        /* \"contracts/property.sol\":578:934  function addproperty(... */\n      pop\n      pop\n      pop\n      pop\n      pop\n      jump\t// out\n        /* \"contracts/property.sol\":520:565  mapping(uint256 =>property) public properties */\n    tag_28:\n      mstore(0x20, 0x01)\n      dup1\n      0x00\n      mstore\n      keccak256(0x00, 0x40)\n      0x00\n      swap2\n      pop\n      swap1\n      pop\n      dup1\n      0x00\n      add\n      sload\n      swap1\n      dup1\n      0x01\n      add\n      dup1\n      sload\n      tag_53\n      swap1\n      tag_33\n      jump\t// in\n    tag_53:\n      dup1\n      0x1f\n      add\n      0x20\n      dup1\n      swap2\n      div\n      mul\n      0x20\n      add\n      mload(0x40)\n      swap1\n      dup2\n      add\n      0x40\n      mstore\n      dup1\n      swap3\n      swap2\n      swap1\n      dup2\n      dup2\n      mstore\n      0x20\n      add\n      dup3\n      dup1\n      sload\n      tag_54\n      swap1\n      tag_33\n      jump\t// in\n    tag_54:\n      dup1\n      iszero\n      tag_55\n      jumpi\n      dup1\n      0x1f\n      lt\n      tag_56\n      jumpi\n      0x0100\n      dup1\n      dup4\n      sload\n      div\n      mul\n      dup4\n      mstore\n      swap2\n      0x20\n      add\n      swap2\n      jump(tag_55)\n    tag_56:\n      dup3\n      add\n      swap2\n      swap1\n      0x00\n      mstore\n      keccak256(0x00, 0x20)\n      swap1\n    tag_57:\n      dup2\n      sload\n      dup2\n      mstore\n      swap1\n      0x01\n      add\n      swap1\n      0x20\n      add\n      dup1\n      dup4\n      gt\n      tag_57\n      jumpi\n      dup3\n      swap1\n      sub\n      0x1f\n      and\n      dup3\n      add\n      swap2\n    tag_55:\n      pop\n      pop\n      pop\n      pop\n      pop\n      swap1\n      dup1\n      0x02\n      add\n      dup1\n      sload\n      tag_58\n      swap1\n      tag_33\n      jump\t// in\n    tag_58:\n      dup1\n      0x1f\n      add\n      0x20\n      dup1\n      swap2\n      div\n      mul\n      0x20\n      add\n      mload(0x40)\n      swap1\n      dup2\n      add\n      0x40\n      mstore\n      dup1\n      swap3\n      swap2\n      swap1\n      dup2\n      dup2\n      mstore\n      0x20\n      add\n      dup3\n      dup1\n      sload\n      tag_59\n      swap1\n      tag_33\n      jump\t// in\n    tag_59:\n      dup1\n      iszero\n      tag_60\n      jumpi\n      dup1\n      0x1f\n      lt\n      tag_61\n      jumpi\n      0x0100\n      dup1\n      dup4\n      sload\n      div\n      mul\n      dup4\n      mstore\n      swap2\n      0x20\n      add\n      swap2\n      jump(tag_60)\n    tag_61:\n      dup3\n      add\n      swap2\n      swap1\n      0x00\n      mstore\n      keccak256(0x00, 0x20)\n      swap1\n    tag_62:\n      dup2\n      sload\n      dup2\n      mstore\n      swap1\n      0x01\n      add\n      swap1\n      0x20\n      add\n      dup1\n      dup4\n      gt\n      tag_62\n      jumpi\n      dup3\n      swap1\n      sub\n      0x1f\n      and\n      dup3\n      add\n      swap2\n    tag_60:\n      pop\n      pop\n      pop\n      pop\n      pop\n      swap1\n      dup1\n      0x03\n      add\n      sload\n      swap1\n      dup1\n      0x04\n      add\n      sload\n      swap1\n      pop\n      dup6\n      jump\t// out\n        /* \"#utility.yul\":7:82   */\n    tag_63:\n        /* \"#utility.yul\":40:46   */\n      0x00\n        /* \"#utility.yul\":73:75   */\n      0x40\n        /* \"#utility.yul\":67:76   */\n      mload\n        /* \"#utility.yul\":57:76   */\n      swap1\n      pop\n        /* \"#utility.yul\":7:82   */\n      swap1\n      jump\t// out\n        /* \"#utility.yul\":88:205   */\n    tag_64:\n        /* \"#utility.yul\":197:198   */\n      0x00\n        /* \"#utility.yul\":194:195   */\n      dup1\n        /* \"#utility.yul\":187:199   */\n      revert\n        /* \"#utility.yul\":211:328   */\n    tag_65:\n        /* \"#utility.yul\":320:321   */\n      0x00\n        /* \"#utility.yul\":317:318   */\n      dup1\n        /* \"#utility.yul\":310:322   */\n      revert\n        /* \"#utility.yul\":334:411   */\n    tag_66:\n        /* \"#utility.yul\":371:378   */\n      0x00\n        /* \"#utility.yul\":400:405   */\n      dup2\n        /* \"#utility.yul\":389:405   */\n      swap1\n      pop\n        /* \"#utility.yul\":334:411   */\n      swap2\n      swap1\n      pop\n      jump\t// out\n        /* \"#utility.yul\":417:539   */\n    tag_67:\n        /* \"#utility.yul\":490:514   */\n      tag_111\n        /* \"#utility.yul\":508:513   */\n      dup2\n        /* \"#utility.yul\":490:514   */\n      tag_66\n      jump\t// in\n    tag_111:\n        /* \"#utility.yul\":483:488   */\n      dup2\n        /* \"#utility.yul\":480:515   */\n      eq\n        /* \"#utility.yul\":470:533   */\n      tag_112\n      jumpi\n        /* \"#utility.yul\":529:530   */\n      0x00\n        /* \"#utility.yul\":526:527   */\n      dup1\n        /* \"#utility.yul\":519:531   */\n      revert\n        /* \"#utility.yul\":470:533   */\n    tag_112:\n        /* \"#utility.yul\":417:539   */\n      pop\n      jump\t// out\n        /* \"#utility.yul\":545:684   */\n    tag_68:\n        /* \"#utility.yul\":591:596   */\n      0x00\n        /* \"#utility.yul\":629:635   */\n      dup2\n        /* \"#utility.yul\":616:636   */\n      calldataload\n        /* \"#utility.yul\":607:636   */\n      swap1\n      pop\n        /* \"#utility.yul\":645:678   */\n      tag_114\n        /* \"#utility.yul\":672:677   */\n      dup2\n        /* \"#utility.yul\":645:678   */\n      tag_67\n      jump\t// in\n    tag_114:\n        /* \"#utility.yul\":545:684   */\n      swap3\n      swap2\n      pop\n      pop\n      jump\t// out\n        /* \"#utility.yul\":690:1019   */\n    tag_10:\n        /* \"#utility.yul\":749:755   */\n      0x00\n        /* \"#utility.yul\":798:800   */\n      0x20\n        /* \"#utility.yul\":786:795   */\n      dup3\n        /* \"#utility.yul\":777:784   */\n      dup5\n        /* \"#utility.yul\":773:796   */\n      sub\n        /* \"#utility.yul\":769:801   */\n      slt\n        /* \"#utility.yul\":766:885   */\n      iszero\n      tag_116\n      jumpi\n        /* \"#utility.yul\":804:883   */\n      tag_117\n      tag_64\n      jump\t// in\n    tag_117:\n        /* \"#utility.yul\":766:885   */\n    tag_116:\n        /* \"#utility.yul\":924:925   */\n      0x00\n        /* \"#utility.yul\":949:1002   */\n      tag_118\n        /* \"#utility.yul\":994:1001   */\n      dup5\n        /* \"#utility.yul\":985:991   */\n      dup3\n        /* \"#utility.yul\":974:983   */\n      dup6\n        /* \"#utility.yul\":970:992   */\n      add\n        /* \"#utility.yul\":949:1002   */\n      tag_68\n      jump\t// in\n    tag_118:\n        /* \"#utility.yul\":939:1002   */\n      swap2\n      pop\n        /* \"#utility.yul\":895:1012   */\n      pop\n        /* \"#utility.yul\":690:1019   */\n      swap3\n      swap2\n      pop\n      pop\n      jump\t// out\n        /* \"#utility.yul\":1025:1124   */\n    tag_69:\n        /* \"#utility.yul\":1077:1083   */\n      0x00\n        /* \"#utility.yul\":1111:1116   */\n      dup2\n        /* \"#utility.yul\":1105:1117   */\n      mload\n        /* \"#utility.yul\":1095:1117   */\n      swap1\n      pop\n        /* \"#utility.yul\":1025:1124   */\n      swap2\n      swap1\n      pop\n      jump\t// out\n        /* \"#utility.yul\":1130:1299   */\n    tag_70:\n        /* \"#utility.yul\":1214:1225   */\n      0x00\n        /* \"#utility.yul\":1248:1254   */\n      dup3\n        /* \"#utility.yul\":1243:1246   */\n      dup3\n        /* \"#utility.yul\":1236:1255   */\n      mstore\n        /* \"#utility.yul\":1288:1292   */\n      0x20\n        /* \"#utility.yul\":1283:1286   */\n      dup3\n        /* \"#utility.yul\":1279:1293   */\n      add\n        /* \"#utility.yul\":1264:1293   */\n      swap1\n      pop\n        /* \"#utility.yul\":1130:1299   */\n      swap3\n      swap2\n      pop\n      pop\n      jump\t// out\n        /* \"#utility.yul\":1305:1551   */\n    tag_71:\n        /* \"#utility.yul\":1386:1387   */\n      0x00\n        /* \"#utility.yul\":1396:1509   */\n    tag_122:\n        /* \"#utility.yul\":1410:1416   */\n      dup4\n        /* \"#utility.yul\":1407:1408   */\n      dup2\n        /* \"#utility.yul\":1404:1417   */\n      lt\n        /* \"#utility.yul\":1396:1509   */\n      iszero\n      tag_124\n      jumpi\n        /* \"#utility.yul\":1495:1496   */\n      dup1\n        /* \"#utility.yul\":1490:1493   */\n      dup3\n        /* \"#utility.yul\":1486:1497   */\n      add\n        /* \"#utility.yul\":1480:1498   */\n      mload\n        /* \"#utility.yul\":1476:1477   */\n      dup2\n        /* \"#utility.yul\":1471:1474   */\n      dup5\n        /* \"#utility.yul\":1467:1478   */\n      add\n        /* \"#utility.yul\":1460:1499   */\n      mstore\n        /* \"#utility.yul\":1432:1434   */\n      0x20\n        /* \"#utility.yul\":1429:1430   */\n      dup2\n        /* \"#utility.yul\":1425:1435   */\n      add\n        /* \"#utility.yul\":1420:1435   */\n      swap1\n      pop\n        /* \"#utility.yul\":1396:1509   */\n      jump(tag_122)\n    tag_124:\n        /* \"#utility.yul\":1543:1544   */\n      0x00\n        /* \"#utility.yul\":1534:1540   */\n      dup5\n        /* \"#utility.yul\":1529:1532   */\n      dup5\n        /* \"#utility.yul\":1525:1541   */\n      add\n        /* \"#utility.yul\":1518:1545   */\n      mstore\n        /* \"#utility.yul\":1367:1551   */\n      pop\n        /* \"#utility.yul\":1305:1551   */\n      pop\n      pop\n      pop\n      jump\t// out\n        /* \"#utility.yul\":1557:1659   */\n    tag_72:\n        /* \"#utility.yul\":1598:1604   */\n      0x00\n        /* \"#utility.yul\":1649:1651   */\n      0x1f\n        /* \"#utility.yul\":1645:1652   */\n      not\n        /* \"#utility.yul\":1640:1642   */\n      0x1f\n        /* \"#utility.yul\":1633:1638   */\n      dup4\n        /* \"#utility.yul\":1629:1643   */\n      add\n        /* \"#utility.yul\":1625:1653   */\n      and\n        /* \"#utility.yul\":1615:1653   */\n      swap1\n      pop\n        /* \"#utility.yul\":1557:1659   */\n      swap2\n      swap1\n      pop\n      jump\t// out\n        /* \"#utility.yul\":1665:2042   */\n    tag_73:\n        /* \"#utility.yul\":1753:1756   */\n      0x00\n        /* \"#utility.yul\":1781:1820   */\n      tag_127\n        /* \"#utility.yul\":1814:1819   */\n      dup3\n        /* \"#utility.yul\":1781:1820   */\n      tag_69\n      jump\t// in\n    tag_127:\n        /* \"#utility.yul\":1836:1907   */\n      tag_128\n        /* \"#utility.yul\":1900:1906   */\n      dup2\n        /* \"#utility.yul\":1895:1898   */\n      dup6\n        /* \"#utility.yul\":1836:1907   */\n      tag_70\n      jump\t// in\n    tag_128:\n        /* \"#utility.yul\":1829:1907   */\n      swap4\n      pop\n        /* \"#utility.yul\":1916:1981   */\n      tag_129\n        /* \"#utility.yul\":1974:1980   */\n      dup2\n        /* \"#utility.yul\":1969:1972   */\n      dup6\n        /* \"#utility.yul\":1962:1966   */\n      0x20\n        /* \"#utility.yul\":1955:1960   */\n      dup7\n        /* \"#utility.yul\":1951:1967   */\n      add\n        /* \"#utility.yul\":1916:1981   */\n      tag_71\n      jump\t// in\n    tag_129:\n        /* \"#utility.yul\":2006:2035   */\n      tag_130\n        /* \"#utility.yul\":2028:2034   */\n      dup2\n        /* \"#utility.yul\":2006:2035   */\n      tag_72\n      jump\t// in\n    tag_130:\n        /* \"#utility.yul\":2001:2004   */\n      dup5\n        /* \"#utility.yul\":1997:2036   */\n      add\n        /* \"#utility.yul\":1990:2036   */\n      swap2\n      pop\n        /* \"#utility.yul\":1757:2042   */\n      pop\n        /* \"#utility.yul\":1665:2042   */\n      swap3\n      swap2\n      pop\n      pop\n      jump\t// out\n        /* \"#utility.yul\":2048:2166   */\n    tag_74:\n        /* \"#utility.yul\":2135:2159   */\n      tag_132\n        /* \"#utility.yul\":2153:2158   */\n      dup2\n        /* \"#utility.yul\":2135:2159   */\n      tag_66\n      jump\t// in\n    tag_132:\n        /* \"#utility.yul\":2130:2133   */\n      dup3\n        /* \"#utility.yul\":2123:2160   */\n      mstore\n        /* \"#utility.yul\":2048:2166   */\n      pop\n      pop\n      jump\t// out\n        /* \"#utility.yul\":2172:2907   */\n    tag_13:\n        /* \"#utility.yul\":2389:2393   */\n      0x00\n        /* \"#utility.yul\":2427:2430   */\n      0x80\n        /* \"#utility.yul\":2416:2425   */\n      dup3\n        /* \"#utility.yul\":2412:2431   */\n      add\n        /* \"#utility.yul\":2404:2431   */\n      swap1\n      pop\n        /* \"#utility.yul\":2477:2486   */\n      dup2\n        /* \"#utility.yul\":2471:2475   */\n      dup2\n        /* \"#utility.yul\":2467:2487   */\n      sub\n        /* \"#utility.yul\":2463:2464   */\n      0x00\n        /* \"#utility.yul\":2452:2461   */\n      dup4\n        /* \"#utility.yul\":2448:2465   */\n      add\n        /* \"#utility.yul\":2441:2488   */\n      mstore\n        /* \"#utility.yul\":2505:2583   */\n      tag_134\n        /* \"#utility.yul\":2578:2582   */\n      dup2\n        /* \"#utility.yul\":2569:2575   */\n      dup8\n        /* \"#utility.yul\":2505:2583   */\n      tag_73\n      jump\t// in\n    tag_134:\n        /* \"#utility.yul\":2497:2583   */\n      swap1\n      pop\n        /* \"#utility.yul\":2630:2639   */\n      dup2\n        /* \"#utility.yul\":2624:2628   */\n      dup2\n        /* \"#utility.yul\":2620:2640   */\n      sub\n        /* \"#utility.yul\":2615:2617   */\n      0x20\n        /* \"#utility.yul\":2604:2613   */\n      dup4\n        /* \"#utility.yul\":2600:2618   */\n      add\n        /* \"#utility.yul\":2593:2641   */\n      mstore\n        /* \"#utility.yul\":2658:2736   */\n      tag_135\n        /* \"#utility.yul\":2731:2735   */\n      dup2\n        /* \"#utility.yul\":2722:2728   */\n      dup7\n        /* \"#utility.yul\":2658:2736   */\n      tag_73\n      jump\t// in\n    tag_135:\n        /* \"#utility.yul\":2650:2736   */\n      swap1\n      pop\n        /* \"#utility.yul\":2746:2818   */\n      tag_136\n        /* \"#utility.yul\":2814:2816   */\n      0x40\n        /* \"#utility.yul\":2803:2812   */\n      dup4\n        /* \"#utility.yul\":2799:2817   */\n      add\n        /* \"#utility.yul\":2790:2796   */\n      dup6\n        /* \"#utility.yul\":2746:2818   */\n      tag_74\n      jump\t// in\n    tag_136:\n        /* \"#utility.yul\":2828:2900   */\n      tag_137\n        /* \"#utility.yul\":2896:2898   */\n      0x60\n        /* \"#utility.yul\":2885:2894   */\n      dup4\n        /* \"#utility.yul\":2881:2899   */\n      add\n        /* \"#utility.yul\":2872:2878   */\n      dup5\n        /* \"#utility.yul\":2828:2900   */\n      tag_74\n      jump\t// in\n    tag_137:\n        /* \"#utility.yul\":2172:2907   */\n      swap6\n      swap5\n      pop\n      pop\n      pop\n      pop\n      pop\n      jump\t// out\n        /* \"#utility.yul\":2913:3030   */\n    tag_75:\n        /* \"#utility.yul\":3022:3023   */\n      0x00\n        /* \"#utility.yul\":3019:3020   */\n      dup1\n        /* \"#utility.yul\":3012:3024   */\n      revert\n        /* \"#utility.yul\":3036:3153   */\n    tag_76:\n        /* \"#utility.yul\":3145:3146   */\n      0x00\n        /* \"#utility.yul\":3142:3143   */\n      dup1\n        /* \"#utility.yul\":3135:3147   */\n      revert\n        /* \"#utility.yul\":3159:3339   */\n    tag_77:\n        /* \"#utility.yul\":3207:3284   */\n      0x4e487b7100000000000000000000000000000000000000000000000000000000\n        /* \"#utility.yul\":3204:3205   */\n      0x00\n        /* \"#utility.yul\":3197:3285   */\n      mstore\n        /* \"#utility.yul\":3304:3308   */\n      0x41\n        /* \"#utility.yul\":3301:3302   */\n      0x04\n        /* \"#utility.yul\":3294:3309   */\n      mstore\n        /* \"#utility.yul\":3328:3332   */\n      0x24\n        /* \"#utility.yul\":3325:3326   */\n      0x00\n        /* \"#utility.yul\":3318:3333   */\n      revert\n        /* \"#utility.yul\":3345:3626   */\n    tag_78:\n        /* \"#utility.yul\":3428:3455   */\n      tag_142\n        /* \"#utility.yul\":3450:3454   */\n      dup3\n        /* \"#utility.yul\":3428:3455   */\n      tag_72\n      jump\t// in\n    tag_142:\n        /* \"#utility.yul\":3420:3426   */\n      dup2\n        /* \"#utility.yul\":3416:3456   */\n      add\n        /* \"#utility.yul\":3558:3564   */\n      dup2\n        /* \"#utility.yul\":3546:3556   */\n      dup2\n        /* \"#utility.yul\":3543:3565   */\n      lt\n        /* \"#utility.yul\":3522:3540   */\n      0xffffffffffffffff\n        /* \"#utility.yul\":3510:3520   */\n      dup3\n        /* \"#utility.yul\":3507:3541   */\n      gt\n        /* \"#utility.yul\":3504:3566   */\n      or\n        /* \"#utility.yul\":3501:3589   */\n      iszero\n      tag_143\n      jumpi\n        /* \"#utility.yul\":3569:3587   */\n      tag_144\n      tag_77\n      jump\t// in\n    tag_144:\n        /* \"#utility.yul\":3501:3589   */\n    tag_143:\n        /* \"#utility.yul\":3609:3619   */\n      dup1\n        /* \"#utility.yul\":3605:3607   */\n      0x40\n        /* \"#utility.yul\":3598:3620   */\n      mstore\n        /* \"#utility.yul\":3388:3626   */\n      pop\n        /* \"#utility.yul\":3345:3626   */\n      pop\n      pop\n      jump\t// out\n        /* \"#utility.yul\":3632:3761   */\n    tag_79:\n        /* \"#utility.yul\":3666:3672   */\n      0x00\n        /* \"#utility.yul\":3693:3713   */\n      tag_146\n      tag_63\n      jump\t// in\n    tag_146:\n        /* \"#utility.yul\":3683:3713   */\n      swap1\n      pop\n        /* \"#utility.yul\":3722:3755   */\n      tag_147\n        /* \"#utility.yul\":3750:3754   */\n      dup3\n        /* \"#utility.yul\":3742:3748   */\n      dup3\n        /* \"#utility.yul\":3722:3755   */\n      tag_78\n      jump\t// in\n    tag_147:\n        /* \"#utility.yul\":3632:3761   */\n      swap2\n      swap1\n      pop\n      jump\t// out\n        /* \"#utility.yul\":3767:4075   */\n    tag_80:\n        /* \"#utility.yul\":3829:3833   */\n      0x00\n        /* \"#utility.yul\":3919:3937   */\n      0xffffffffffffffff\n        /* \"#utility.yul\":3911:3917   */\n      dup3\n        /* \"#utility.yul\":3908:3938   */\n      gt\n        /* \"#utility.yul\":3905:3961   */\n      iszero\n      tag_149\n      jumpi\n        /* \"#utility.yul\":3941:3959   */\n      tag_150\n      tag_77\n      jump\t// in\n    tag_150:\n        /* \"#utility.yul\":3905:3961   */\n    tag_149:\n        /* \"#utility.yul\":3979:4008   */\n      tag_151\n        /* \"#utility.yul\":4001:4007   */\n      dup3\n        /* \"#utility.yul\":3979:4008   */\n      tag_72\n      jump\t// in\n    tag_151:\n        /* \"#utility.yul\":3971:4008   */\n      swap1\n      pop\n        /* \"#utility.yul\":4063:4067   */\n      0x20\n        /* \"#utility.yul\":4057:4061   */\n      dup2\n        /* \"#utility.yul\":4053:4068   */\n      add\n        /* \"#utility.yul\":4045:4068   */\n      swap1\n      pop\n        /* \"#utility.yul\":3767:4075   */\n      swap2\n      swap1\n      pop\n      jump\t// out\n        /* \"#utility.yul\":4081:4227   */\n    tag_81:\n        /* \"#utility.yul\":4178:4184   */\n      dup3\n        /* \"#utility.yul\":4173:4176   */\n      dup2\n        /* \"#utility.yul\":4168:4171   */\n      dup4\n        /* \"#utility.yul\":4155:4185   */\n      calldatacopy\n        /* \"#utility.yul\":4219:4220   */\n      0x00\n        /* \"#utility.yul\":4210:4216   */\n      dup4\n        /* \"#utility.yul\":4205:4208   */\n      dup4\n        /* \"#utility.yul\":4201:4217   */\n      add\n        /* \"#utility.yul\":4194:4221   */\n      mstore\n        /* \"#utility.yul\":4081:4227   */\n      pop\n      pop\n      pop\n      jump\t// out\n        /* \"#utility.yul\":4233:4658   */\n    tag_82:\n        /* \"#utility.yul\":4311:4316   */\n      0x00\n        /* \"#utility.yul\":4336:4402   */\n      tag_154\n        /* \"#utility.yul\":4352:4401   */\n      tag_155\n        /* \"#utility.yul\":4394:4400   */\n      dup5\n        /* \"#utility.yul\":4352:4401   */\n      tag_80\n      jump\t// in\n    tag_155:\n        /* \"#utility.yul\":4336:4402   */\n      tag_79\n      jump\t// in\n    tag_154:\n        /* \"#utility.yul\":4327:4402   */\n      swap1\n      pop\n        /* \"#utility.yul\":4425:4431   */\n      dup3\n        /* \"#utility.yul\":4418:4423   */\n      dup2\n        /* \"#utility.yul\":4411:4432   */\n      mstore\n        /* \"#utility.yul\":4463:4467   */\n      0x20\n        /* \"#utility.yul\":4456:4461   */\n      dup2\n        /* \"#utility.yul\":4452:4468   */\n      add\n        /* \"#utility.yul\":4501:4504   */\n      dup5\n        /* \"#utility.yul\":4492:4498   */\n      dup5\n        /* \"#utility.yul\":4487:4490   */\n      dup5\n        /* \"#utility.yul\":4483:4499   */\n      add\n        /* \"#utility.yul\":4480:4505   */\n      gt\n        /* \"#utility.yul\":4477:4589   */\n      iszero\n      tag_156\n      jumpi\n        /* \"#utility.yul\":4508:4587   */\n      tag_157\n      tag_76\n      jump\t// in\n    tag_157:\n        /* \"#utility.yul\":4477:4589   */\n    tag_156:\n        /* \"#utility.yul\":4598:4652   */\n      tag_158\n        /* \"#utility.yul\":4645:4651   */\n      dup5\n        /* \"#utility.yul\":4640:4643   */\n      dup3\n        /* \"#utility.yul\":4635:4638   */\n      dup6\n        /* \"#utility.yul\":4598:4652   */\n      tag_81\n      jump\t// in\n    tag_158:\n        /* \"#utility.yul\":4317:4658   */\n      pop\n        /* \"#utility.yul\":4233:4658   */\n      swap4\n      swap3\n      pop\n      pop\n      pop\n      jump\t// out\n        /* \"#utility.yul\":4678:5018   */\n    tag_83:\n        /* \"#utility.yul\":4734:4739   */\n      0x00\n        /* \"#utility.yul\":4783:4786   */\n      dup3\n        /* \"#utility.yul\":4776:4780   */\n      0x1f\n        /* \"#utility.yul\":4768:4774   */\n      dup4\n        /* \"#utility.yul\":4764:4781   */\n      add\n        /* \"#utility.yul\":4760:4787   */\n      slt\n        /* \"#utility.yul\":4750:4872   */\n      tag_160\n      jumpi\n        /* \"#utility.yul\":4791:4870   */\n      tag_161\n      tag_75\n      jump\t// in\n    tag_161:\n        /* \"#utility.yul\":4750:4872   */\n    tag_160:\n        /* \"#utility.yul\":4908:4914   */\n      dup2\n        /* \"#utility.yul\":4895:4915   */\n      calldataload\n        /* \"#utility.yul\":4933:5012   */\n      tag_162\n        /* \"#utility.yul\":5008:5011   */\n      dup5\n        /* \"#utility.yul\":5000:5006   */\n      dup3\n        /* \"#utility.yul\":4993:4997   */\n      0x20\n        /* \"#utility.yul\":4985:4991   */\n      dup7\n        /* \"#utility.yul\":4981:4998   */\n      add\n        /* \"#utility.yul\":4933:5012   */\n      tag_82\n      jump\t// in\n    tag_162:\n        /* \"#utility.yul\":4924:5012   */\n      swap2\n      pop\n        /* \"#utility.yul\":4740:5018   */\n      pop\n        /* \"#utility.yul\":4678:5018   */\n      swap3\n      swap2\n      pop\n      pop\n      jump\t// out\n        /* \"#utility.yul\":5024:5678   */\n    tag_16:\n        /* \"#utility.yul\":5102:5108   */\n      0x00\n        /* \"#utility.yul\":5110:5116   */\n      dup1\n        /* \"#utility.yul\":5159:5161   */\n      0x40\n        /* \"#utility.yul\":5147:5156   */\n      dup4\n        /* \"#utility.yul\":5138:5145   */\n      dup6\n        /* \"#utility.yul\":5134:5157   */\n      sub\n        /* \"#utility.yul\":5130:5162   */\n      slt\n        /* \"#utility.yul\":5127:5246   */\n      iszero\n      tag_164\n      jumpi\n        /* \"#utility.yul\":5165:5244   */\n      tag_165\n      tag_64\n      jump\t// in\n    tag_165:\n        /* \"#utility.yul\":5127:5246   */\n    tag_164:\n        /* \"#utility.yul\":5285:5286   */\n      0x00\n        /* \"#utility.yul\":5310:5363   */\n      tag_166\n        /* \"#utility.yul\":5355:5362   */\n      dup6\n        /* \"#utility.yul\":5346:5352   */\n      dup3\n        /* \"#utility.yul\":5335:5344   */\n      dup7\n        /* \"#utility.yul\":5331:5353   */\n      add\n        /* \"#utility.yul\":5310:5363   */\n      tag_68\n      jump\t// in\n    tag_166:\n        /* \"#utility.yul\":5300:5363   */\n      swap3\n      pop\n        /* \"#utility.yul\":5256:5373   */\n      pop\n        /* \"#utility.yul\":5440:5442   */\n      0x20\n        /* \"#utility.yul\":5429:5438   */\n      dup4\n        /* \"#utility.yul\":5425:5443   */\n      add\n        /* \"#utility.yul\":5412:5444   */\n      calldataload\n        /* \"#utility.yul\":5471:5489   */\n      0xffffffffffffffff\n        /* \"#utility.yul\":5463:5469   */\n      dup2\n        /* \"#utility.yul\":5460:5490   */\n      gt\n        /* \"#utility.yul\":5457:5574   */\n      iszero\n      tag_167\n      jumpi\n        /* \"#utility.yul\":5493:5572   */\n      tag_168\n      tag_65\n      jump\t// in\n    tag_168:\n        /* \"#utility.yul\":5457:5574   */\n    tag_167:\n        /* \"#utility.yul\":5598:5661   */\n      tag_169\n        /* \"#utility.yul\":5653:5660   */\n      dup6\n        /* \"#utility.yul\":5644:5650   */\n      dup3\n        /* \"#utility.yul\":5633:5642   */\n      dup7\n        /* \"#utility.yul\":5629:5651   */\n      add\n        /* \"#utility.yul\":5598:5661   */\n      tag_83\n      jump\t// in\n    tag_169:\n        /* \"#utility.yul\":5588:5661   */\n      swap2\n      pop\n        /* \"#utility.yul\":5383:5671   */\n      pop\n        /* \"#utility.yul\":5024:5678   */\n      swap3\n      pop\n      swap3\n      swap1\n      pop\n      jump\t// out\n        /* \"#utility.yul\":5684:5810   */\n    tag_84:\n        /* \"#utility.yul\":5721:5728   */\n      0x00\n        /* \"#utility.yul\":5761:5803   */\n      0xffffffffffffffffffffffffffffffffffffffff\n        /* \"#utility.yul\":5754:5759   */\n      dup3\n        /* \"#utility.yul\":5750:5804   */\n      and\n        /* \"#utility.yul\":5739:5804   */\n      swap1\n      pop\n        /* \"#utility.yul\":5684:5810   */\n      swap2\n      swap1\n      pop\n      jump\t// out\n        /* \"#utility.yul\":5816:5912   */\n    tag_85:\n        /* \"#utility.yul\":5853:5860   */\n      0x00\n        /* \"#utility.yul\":5882:5906   */\n      tag_172\n        /* \"#utility.yul\":5900:5905   */\n      dup3\n        /* \"#utility.yul\":5882:5906   */\n      tag_84\n      jump\t// in\n    tag_172:\n        /* \"#utility.yul\":5871:5906   */\n      swap1\n      pop\n        /* \"#utility.yul\":5816:5912   */\n      swap2\n      swap1\n      pop\n      jump\t// out\n        /* \"#utility.yul\":5918:6036   */\n    tag_86:\n        /* \"#utility.yul\":6005:6029   */\n      tag_174\n        /* \"#utility.yul\":6023:6028   */\n      dup2\n        /* \"#utility.yul\":6005:6029   */\n      tag_85\n      jump\t// in\n    tag_174:\n        /* \"#utility.yul\":6000:6003   */\n      dup3\n        /* \"#utility.yul\":5993:6030   */\n      mstore\n        /* \"#utility.yul\":5918:6036   */\n      pop\n      pop\n      jump\t// out\n        /* \"#utility.yul\":6042:6264   */\n    tag_21:\n        /* \"#utility.yul\":6135:6139   */\n      0x00\n        /* \"#utility.yul\":6173:6175   */\n      0x20\n        /* \"#utility.yul\":6162:6171   */\n      dup3\n        /* \"#utility.yul\":6158:6176   */\n      add\n        /* \"#utility.yul\":6150:6176   */\n      swap1\n      pop\n        /* \"#utility.yul\":6186:6257   */\n      tag_176\n        /* \"#utility.yul\":6254:6255   */\n      0x00\n        /* \"#utility.yul\":6243:6252   */\n      dup4\n        /* \"#utility.yul\":6239:6256   */\n      add\n        /* \"#utility.yul\":6230:6236   */\n      dup5\n        /* \"#utility.yul\":6186:6257   */\n      tag_86\n      jump\t// in\n    tag_176:\n        /* \"#utility.yul\":6042:6264   */\n      swap3\n      swap2\n      pop\n      pop\n      jump\t// out\n        /* \"#utility.yul\":6270:7541   */\n    tag_24:\n        /* \"#utility.yul\":6385:6391   */\n      0x00\n        /* \"#utility.yul\":6393:6399   */\n      dup1\n        /* \"#utility.yul\":6401:6407   */\n      0x00\n        /* \"#utility.yul\":6409:6415   */\n      dup1\n        /* \"#utility.yul\":6417:6423   */\n      0x00\n        /* \"#utility.yul\":6466:6469   */\n      0xa0\n        /* \"#utility.yul\":6454:6463   */\n      dup7\n        /* \"#utility.yul\":6445:6452   */\n      dup9\n        /* \"#utility.yul\":6441:6464   */\n      sub\n        /* \"#utility.yul\":6437:6470   */\n      slt\n        /* \"#utility.yul\":6434:6554   */\n      iszero\n      tag_178\n      jumpi\n        /* \"#utility.yul\":6473:6552   */\n      tag_179\n      tag_64\n      jump\t// in\n    tag_179:\n        /* \"#utility.yul\":6434:6554   */\n    tag_178:\n        /* \"#utility.yul\":6593:6594   */\n      0x00\n        /* \"#utility.yul\":6618:6671   */\n      tag_180\n        /* \"#utility.yul\":6663:6670   */\n      dup9\n        /* \"#utility.yul\":6654:6660   */\n      dup3\n        /* \"#utility.yul\":6643:6652   */\n      dup10\n        /* \"#utility.yul\":6639:6661   */\n      add\n        /* \"#utility.yul\":6618:6671   */\n      tag_68\n      jump\t// in\n    tag_180:\n        /* \"#utility.yul\":6608:6671   */\n      swap6\n      pop\n        /* \"#utility.yul\":6564:6681   */\n      pop\n        /* \"#utility.yul\":6748:6750   */\n      0x20\n        /* \"#utility.yul\":6737:6746   */\n      dup7\n        /* \"#utility.yul\":6733:6751   */\n      add\n        /* \"#utility.yul\":6720:6752   */\n      calldataload\n        /* \"#utility.yul\":6779:6797   */\n      0xffffffffffffffff\n        /* \"#utility.yul\":6771:6777   */\n      dup2\n        /* \"#utility.yul\":6768:6798   */\n      gt\n        /* \"#utility.yul\":6765:6882   */\n      iszero\n      tag_181\n      jumpi\n        /* \"#utility.yul\":6801:6880   */\n      tag_182\n      tag_65\n      jump\t// in\n    tag_182:\n        /* \"#utility.yul\":6765:6882   */\n    tag_181:\n        /* \"#utility.yul\":6906:6969   */\n      tag_183\n        /* \"#utility.yul\":6961:6968   */\n      dup9\n        /* \"#utility.yul\":6952:6958   */\n      dup3\n        /* \"#utility.yul\":6941:6950   */\n      dup10\n        /* \"#utility.yul\":6937:6959   */\n      add\n        /* \"#utility.yul\":6906:6969   */\n      tag_83\n      jump\t// in\n    tag_183:\n        /* \"#utility.yul\":6896:6969   */\n      swap5\n      pop\n        /* \"#utility.yul\":6691:6979   */\n      pop\n        /* \"#utility.yul\":7046:7048   */\n      0x40\n        /* \"#utility.yul\":7035:7044   */\n      dup7\n        /* \"#utility.yul\":7031:7049   */\n      add\n        /* \"#utility.yul\":7018:7050   */\n      calldataload\n        /* \"#utility.yul\":7077:7095   */\n      0xffffffffffffffff\n        /* \"#utility.yul\":7069:7075   */\n      dup2\n        /* \"#utility.yul\":7066:7096   */\n      gt\n        /* \"#utility.yul\":7063:7180   */\n      iszero\n      tag_184\n      jumpi\n        /* \"#utility.yul\":7099:7178   */\n      tag_185\n      tag_65\n      jump\t// in\n    tag_185:\n        /* \"#utility.yul\":7063:7180   */\n    tag_184:\n        /* \"#utility.yul\":7204:7267   */\n      tag_186\n        /* \"#utility.yul\":7259:7266   */\n      dup9\n        /* \"#utility.yul\":7250:7256   */\n      dup3\n        /* \"#utility.yul\":7239:7248   */\n      dup10\n        /* \"#utility.yul\":7235:7257   */\n      add\n        /* \"#utility.yul\":7204:7267   */\n      tag_83\n      jump\t// in\n    tag_186:\n        /* \"#utility.yul\":7194:7267   */\n      swap4\n      pop\n        /* \"#utility.yul\":6989:7277   */\n      pop\n        /* \"#utility.yul\":7316:7318   */\n      0x60\n        /* \"#utility.yul\":7342:7395   */\n      tag_187\n        /* \"#utility.yul\":7387:7394   */\n      dup9\n        /* \"#utility.yul\":7378:7384   */\n      dup3\n        /* \"#utility.yul\":7367:7376   */\n      dup10\n        /* \"#utility.yul\":7363:7385   */\n      add\n        /* \"#utility.yul\":7342:7395   */\n      tag_68\n      jump\t// in\n    tag_187:\n        /* \"#utility.yul\":7332:7395   */\n      swap3\n      pop\n        /* \"#utility.yul\":7287:7405   */\n      pop\n        /* \"#utility.yul\":7444:7447   */\n      0x80\n        /* \"#utility.yul\":7471:7524   */\n      tag_188\n        /* \"#utility.yul\":7516:7523   */\n      dup9\n        /* \"#utility.yul\":7507:7513   */\n      dup3\n        /* \"#utility.yul\":7496:7505   */\n      dup10\n        /* \"#utility.yul\":7492:7514   */\n      add\n        /* \"#utility.yul\":7471:7524   */\n      tag_68\n      jump\t// in\n    tag_188:\n        /* \"#utility.yul\":7461:7524   */\n      swap2\n      pop\n        /* \"#utility.yul\":7415:7534   */\n      pop\n        /* \"#utility.yul\":6270:7541   */\n      swap3\n      swap6\n      pop\n      swap3\n      swap6\n      swap1\n      swap4\n      pop\n      jump\t// out\n        /* \"#utility.yul\":7547:8393   */\n    tag_30:\n        /* \"#utility.yul\":7792:7796   */\n      0x00\n        /* \"#utility.yul\":7830:7833   */\n      0xa0\n        /* \"#utility.yul\":7819:7828   */\n      dup3\n        /* \"#utility.yul\":7815:7834   */\n      add\n        /* \"#utility.yul\":7807:7834   */\n      swap1\n      pop\n        /* \"#utility.yul\":7844:7915   */\n      tag_190\n        /* \"#utility.yul\":7912:7913   */\n      0x00\n        /* \"#utility.yul\":7901:7910   */\n      dup4\n        /* \"#utility.yul\":7897:7914   */\n      add\n        /* \"#utility.yul\":7888:7894   */\n      dup9\n        /* \"#utility.yul\":7844:7915   */\n      tag_74\n      jump\t// in\n    tag_190:\n        /* \"#utility.yul\":7962:7971   */\n      dup2\n        /* \"#utility.yul\":7956:7960   */\n      dup2\n        /* \"#utility.yul\":7952:7972   */\n      sub\n        /* \"#utility.yul\":7947:7949   */\n      0x20\n        /* \"#utility.yul\":7936:7945   */\n      dup4\n        /* \"#utility.yul\":7932:7950   */\n      add\n        /* \"#utility.yul\":7925:7973   */\n      mstore\n        /* \"#utility.yul\":7990:8068   */\n      tag_191\n        /* \"#utility.yul\":8063:8067   */\n      dup2\n        /* \"#utility.yul\":8054:8060   */\n      dup8\n        /* \"#utility.yul\":7990:8068   */\n      tag_73\n      jump\t// in\n    tag_191:\n        /* \"#utility.yul\":7982:8068   */\n      swap1\n      pop\n        /* \"#utility.yul\":8115:8124   */\n      dup2\n        /* \"#utility.yul\":8109:8113   */\n      dup2\n        /* \"#utility.yul\":8105:8125   */\n      sub\n        /* \"#utility.yul\":8100:8102   */\n      0x40\n        /* \"#utility.yul\":8089:8098   */\n      dup4\n        /* \"#utility.yul\":8085:8103   */\n      add\n        /* \"#utility.yul\":8078:8126   */\n      mstore\n        /* \"#utility.yul\":8143:8221   */\n      tag_192\n        /* \"#utility.yul\":8216:8220   */\n      dup2\n        /* \"#utility.yul\":8207:8213   */\n      dup7\n        /* \"#utility.yul\":8143:8221   */\n      tag_73\n      jump\t// in\n    tag_192:\n        /* \"#utility.yul\":8135:8221   */\n      swap1\n      pop\n        /* \"#utility.yul\":8231:8303   */\n      tag_193\n        /* \"#utility.yul\":8299:8301   */\n      0x60\n        /* \"#utility.yul\":8288:8297   */\n      dup4\n        /* \"#utility.yul\":8284:8302   */\n      add\n        /* \"#utility.yul\":8275:8281   */\n      dup6\n        /* \"#utility.yul\":8231:8303   */\n      tag_74\n      jump\t// in\n    tag_193:\n        /* \"#utility.yul\":8313:8386   */\n      tag_194\n        /* \"#utility.yul\":8381:8384   */\n      0x80\n        /* \"#utility.yul\":8370:8379   */\n      dup4\n        /* \"#utility.yul\":8366:8385   */\n      add\n        /* \"#utility.yul\":8357:8363   */\n      dup5\n        /* \"#utility.yul\":8313:8386   */\n      tag_74\n      jump\t// in\n    tag_194:\n        /* \"#utility.yul\":7547:8393   */\n      swap7\n      swap6\n      pop\n      pop\n      pop\n      pop\n      pop\n      pop\n      jump\t// out\n        /* \"#utility.yul\":8399:8579   */\n    tag_87:\n        /* \"#utility.yul\":8447:8524   */\n      0x4e487b7100000000000000000000000000000000000000000000000000000000\n        /* \"#utility.yul\":8444:8445   */\n      0x00\n        /* \"#utility.yul\":8437:8525   */\n      mstore\n        /* \"#utility.yul\":8544:8548   */\n      0x22\n        /* \"#utility.yul\":8541:8542   */\n      0x04\n        /* \"#utility.yul\":8534:8549   */\n      mstore\n        /* \"#utility.yul\":8568:8572   */\n      0x24\n        /* \"#utility.yul\":8565:8566   */\n      0x00\n        /* \"#utility.yul\":8558:8573   */\n      revert\n        /* \"#utility.yul\":8585:8905   */\n    tag_33:\n        /* \"#utility.yul\":8629:8635   */\n      0x00\n        /* \"#utility.yul\":8666:8667   */\n      0x02\n        /* \"#utility.yul\":8660:8664   */\n      dup3\n        /* \"#utility.yul\":8656:8668   */\n      div\n        /* \"#utility.yul\":8646:8668   */\n      swap1\n      pop\n        /* \"#utility.yul\":8713:8714   */\n      0x01\n        /* \"#utility.yul\":8707:8711   */\n      dup3\n        /* \"#utility.yul\":8703:8715   */\n      and\n        /* \"#utility.yul\":8734:8752   */\n      dup1\n        /* \"#utility.yul\":8724:8805   */\n      tag_197\n      jumpi\n        /* \"#utility.yul\":8790:8794   */\n      0x7f\n        /* \"#utility.yul\":8782:8788   */\n      dup3\n        /* \"#utility.yul\":8778:8795   */\n      and\n        /* \"#utility.yul\":8768:8795   */\n      swap2\n      pop\n        /* \"#utility.yul\":8724:8805   */\n    tag_197:\n        /* \"#utility.yul\":8852:8854   */\n      0x20\n        /* \"#utility.yul\":8844:8850   */\n      dup3\n        /* \"#utility.yul\":8841:8855   */\n      lt\n        /* \"#utility.yul\":8821:8839   */\n      dup2\n        /* \"#utility.yul\":8818:8856   */\n      sub\n        /* \"#utility.yul\":8815:8899   */\n      tag_198\n      jumpi\n        /* \"#utility.yul\":8871:8889   */\n      tag_199\n      tag_87\n      jump\t// in\n    tag_199:\n        /* \"#utility.yul\":8815:8899   */\n    tag_198:\n        /* \"#utility.yul\":8636:8905   */\n      pop\n        /* \"#utility.yul\":8585:8905   */\n      swap2\n      swap1\n      pop\n      jump\t// out\n        /* \"#utility.yul\":8911:9052   */\n    tag_88:\n        /* \"#utility.yul\":8960:8964   */\n      0x00\n        /* \"#utility.yul\":8983:8986   */\n      dup2\n        /* \"#utility.yul\":8975:8986   */\n      swap1\n      pop\n        /* \"#utility.yul\":9006:9009   */\n      dup2\n        /* \"#utility.yul\":9003:9004   */\n      0x00\n        /* \"#utility.yul\":8996:9010   */\n      mstore\n        /* \"#utility.yul\":9040:9044   */\n      0x20\n        /* \"#utility.yul\":9037:9038   */\n      0x00\n        /* \"#utility.yul\":9027:9045   */\n      keccak256\n        /* \"#utility.yul\":9019:9045   */\n      swap1\n      pop\n        /* \"#utility.yul\":8911:9052   */\n      swap2\n      swap1\n      pop\n      jump\t// out\n        /* \"#utility.yul\":9058:9151   */\n    tag_89:\n        /* \"#utility.yul\":9095:9101   */\n      0x00\n        /* \"#utility.yul\":9142:9144   */\n      0x20\n        /* \"#utility.yul\":9137:9139   */\n      0x1f\n        /* \"#utility.yul\":9130:9135   */\n      dup4\n        /* \"#utility.yul\":9126:9140   */\n      add\n        /* \"#utility.yul\":9122:9145   */\n      div\n        /* \"#utility.yul\":9112:9145   */\n      swap1\n      pop\n        /* \"#utility.yul\":9058:9151   */\n      swap2\n      swap1\n      pop\n      jump\t// out\n        /* \"#utility.yul\":9157:9264   */\n    tag_90:\n        /* \"#utility.yul\":9201:9209   */\n      0x00\n        /* \"#utility.yul\":9251:9256   */\n      dup3\n        /* \"#utility.yul\":9245:9249   */\n      dup3\n        /* \"#utility.yul\":9241:9257   */\n      shl\n        /* \"#utility.yul\":9220:9257   */\n      swap1\n      pop\n        /* \"#utility.yul\":9157:9264   */\n      swap3\n      swap2\n      pop\n      pop\n      jump\t// out\n        /* \"#utility.yul\":9270:9663   */\n    tag_91:\n        /* \"#utility.yul\":9339:9345   */\n      0x00\n        /* \"#utility.yul\":9389:9390   */\n      0x08\n        /* \"#utility.yul\":9377:9387   */\n      dup4\n        /* \"#utility.yul\":9373:9391   */\n      mul\n        /* \"#utility.yul\":9412:9509   */\n      tag_204\n        /* \"#utility.yul\":9442:9508   */\n      0xffffffffffffffffffffffffffffffffffffffffffffffffffffffffffffffff\n        /* \"#utility.yul\":9431:9440   */\n      dup3\n        /* \"#utility.yul\":9412:9509   */\n      tag_90\n      jump\t// in\n    tag_204:\n        /* \"#utility.yul\":9530:9569   */\n      tag_205\n        /* \"#utility.yul\":9560:9568   */\n      dup7\n        /* \"#utility.yul\":9549:9558   */\n      dup4\n        /* \"#utility.yul\":9530:9569   */\n      tag_90\n      jump\t// in\n    tag_205:\n        /* \"#utility.yul\":9518:9569   */\n      swap6\n      pop\n        /* \"#utility.yul\":9602:9606   */\n      dup1\n        /* \"#utility.yul\":9598:9607   */\n      not\n        /* \"#utility.yul\":9591:9596   */\n      dup5\n        /* \"#utility.yul\":9587:9608   */\n      and\n        /* \"#utility.yul\":9578:9608   */\n      swap4\n      pop\n        /* \"#utility.yul\":9651:9655   */\n      dup1\n        /* \"#utility.yul\":9641:9649   */\n      dup7\n        /* \"#utility.yul\":9637:9656   */\n      and\n        /* \"#utility.yul\":9630:9635   */\n      dup5\n        /* \"#utility.yul\":9627:9657   */\n      or\n        /* \"#utility.yul\":9617:9657   */\n      swap3\n      pop\n        /* \"#utility.yul\":9346:9663   */\n      pop\n      pop\n        /* \"#utility.yul\":9270:9663   */\n      swap4\n      swap3\n      pop\n      pop\n      pop\n      jump\t// out\n        /* \"#utility.yul\":9669:9729   */\n    tag_92:\n        /* \"#utility.yul\":9697:9700   */\n      0x00\n        /* \"#utility.yul\":9718:9723   */\n      dup2\n        /* \"#utility.yul\":9711:9723   */\n      swap1\n      pop\n        /* \"#utility.yul\":9669:9729   */\n      swap2\n      swap1\n      pop\n      jump\t// out\n        /* \"#utility.yul\":9735:9877   */\n    tag_93:\n        /* \"#utility.yul\":9785:9794   */\n      0x00\n        /* \"#utility.yul\":9818:9871   */\n      tag_208\n        /* \"#utility.yul\":9836:9870   */\n      tag_209\n        /* \"#utility.yul\":9845:9869   */\n      tag_210\n        /* \"#utility.yul\":9863:9868   */\n      dup5\n        /* \"#utility.yul\":9845:9869   */\n      tag_66\n      jump\t// in\n    tag_210:\n        /* \"#utility.yul\":9836:9870   */\n      tag_92\n      jump\t// in\n    tag_209:\n        /* \"#utility.yul\":9818:9871   */\n      tag_66\n      jump\t// in\n    tag_208:\n        /* \"#utility.yul\":9805:9871   */\n      swap1\n      pop\n        /* \"#utility.yul\":9735:9877   */\n      swap2\n      swap1\n      pop\n      jump\t// out\n        /* \"#utility.yul\":9883:9958   */\n    tag_94:\n        /* \"#utility.yul\":9926:9929   */\n      0x00\n        /* \"#utility.yul\":9947:9952   */\n      dup2\n        /* \"#utility.yul\":9940:9952   */\n      swap1\n      pop\n        /* \"#utility.yul\":9883:9958   */\n      swap2\n      swap1\n      pop\n      jump\t// out\n        /* \"#utility.yul\":9964:10233   */\n    tag_95:\n        /* \"#utility.yul\":10074:10113   */\n      tag_213\n        /* \"#utility.yul\":10105:10112   */\n      dup4\n        /* \"#utility.yul\":10074:10113   */\n      tag_93\n      jump\t// in\n    tag_213:\n        /* \"#utility.yul\":10135:10226   */\n      tag_214\n        /* \"#utility.yul\":10184:10225   */\n      tag_215\n        /* \"#utility.yul\":10208:10224   */\n      dup3\n        /* \"#utility.yul\":10184:10225   */\n      tag_94\n      jump\t// in\n    tag_215:\n        /* \"#utility.yul\":10176:10182   */\n      dup5\n        /* \"#utility.yul\":10169:10173   */\n      dup5\n        /* \"#utility.yul\":10163:10174   */\n      sload\n        /* \"#utility.yul\":10135:10226   */\n      tag_91\n      jump\t// in\n    tag_214:\n        /* \"#utility.yul\":10129:10133   */\n      dup3\n        /* \"#utility.yul\":10122:10227   */\n      sstore\n        /* \"#utility.yul\":10040:10233   */\n      pop\n        /* \"#utility.yul\":9964:10233   */\n      pop\n      pop\n      pop\n      jump\t// out\n        /* \"#utility.yul\":10239:10312   */\n    tag_96:\n        /* \"#utility.yul\":10284:10287   */\n      0x00\n        /* \"#utility.yul\":10239:10312   */\n      swap1\n      jump\t// out\n        /* \"#utility.yul\":10318:10507   */\n    tag_97:\n        /* \"#utility.yul\":10395:10427   */\n      tag_218\n      tag_96\n      jump\t// in\n    tag_218:\n        /* \"#utility.yul\":10436:10501   */\n      tag_219\n        /* \"#utility.yul\":10494:10500   */\n      dup2\n        /* \"#utility.yul\":10486:10492   */\n      dup5\n        /* \"#utility.yul\":10480:10484   */\n      dup5\n        /* \"#utility.yul\":10436:10501   */\n      tag_95\n      jump\t// in\n    tag_219:\n        /* \"#utility.yul\":10371:10507   */\n      pop\n        /* \"#utility.yul\":10318:10507   */\n      pop\n      pop\n      jump\t// out\n        /* \"#utility.yul\":10513:10699   */\n    tag_98:\n        /* \"#utility.yul\":10573:10693   */\n    tag_221:\n        /* \"#utility.yul\":10590:10593   */\n      dup2\n        /* \"#utility.yul\":10583:10588   */\n      dup2\n        /* \"#utility.yul\":10580:10594   */\n      lt\n        /* \"#utility.yul\":10573:10693   */\n      iszero\n      tag_223\n      jumpi\n        /* \"#utility.yul\":10644:10683   */\n      tag_224\n        /* \"#utility.yul\":10681:10682   */\n      0x00\n        /* \"#utility.yul\":10674:10679   */\n      dup3\n        /* \"#utility.yul\":10644:10683   */\n      tag_97\n      jump\t// in\n    tag_224:\n        /* \"#utility.yul\":10617:10618   */\n      0x01\n        /* \"#utility.yul\":10610:10615   */\n      dup2\n        /* \"#utility.yul\":10606:10619   */\n      add\n        /* \"#utility.yul\":10597:10619   */\n      swap1\n      pop\n        /* \"#utility.yul\":10573:10693   */\n      jump(tag_221)\n    tag_223:\n        /* \"#utility.yul\":10513:10699   */\n      pop\n      pop\n      jump\t// out\n        /* \"#utility.yul\":10705:11248   */\n    tag_99:\n        /* \"#utility.yul\":10806:10808   */\n      0x1f\n        /* \"#utility.yul\":10801:10804   */\n      dup3\n        /* \"#utility.yul\":10798:10809   */\n      gt\n        /* \"#utility.yul\":10795:11241   */\n      iszero\n      tag_226\n      jumpi\n        /* \"#utility.yul\":10840:10878   */\n      tag_227\n        /* \"#utility.yul\":10872:10877   */\n      dup2\n        /* \"#utility.yul\":10840:10878   */\n      tag_88\n      jump\t// in\n    tag_227:\n        /* \"#utility.yul\":10924:10953   */\n      tag_228\n        /* \"#utility.yul\":10942:10952   */\n      dup5\n        /* \"#utility.yul\":10924:10953   */\n      tag_89\n      jump\t// in\n    tag_228:\n        /* \"#utility.yul\":10914:10922   */\n      dup2\n        /* \"#utility.yul\":10910:10954   */\n      add\n        /* \"#utility.yul\":11107:11109   */\n      0x20\n        /* \"#utility.yul\":11095:11105   */\n      dup6\n        /* \"#utility.yul\":11092:11110   */\n      lt\n        /* \"#utility.yul\":11089:11138   */\n      iszero\n      tag_229\n      jumpi\n        /* \"#utility.yul\":11128:11136   */\n      dup2\n        /* \"#utility.yul\":11113:11136   */\n      swap1\n      pop\n        /* \"#utility.yul\":11089:11138   */\n    tag_229:\n        /* \"#utility.yul\":11151:11231   */\n      tag_230\n        /* \"#utility.yul\":11207:11229   */\n      tag_231\n        /* \"#utility.yul\":11225:11228   */\n      dup6\n        /* \"#utility.yul\":11207:11229   */\n      tag_89\n      jump\t// in\n    tag_231:\n        /* \"#utility.yul\":11197:11205   */\n      dup4\n        /* \"#utility.yul\":11193:11230   */\n      add\n        /* \"#utility.yul\":11180:11191   */\n      dup3\n        /* \"#utility.yul\":11151:11231   */\n      tag_98\n      jump\t// in\n    tag_230:\n        /* \"#utility.yul\":10810:11241   */\n      pop\n      pop\n        /* \"#utility.yul\":10795:11241   */\n    tag_226:\n        /* \"#utility.yul\":10705:11248   */\n      pop\n      pop\n      pop\n      jump\t// out\n        /* \"#utility.yul\":11254:11371   */\n    tag_100:\n        /* \"#utility.yul\":11308:11316   */\n      0x00\n        /* \"#utility.yul\":11358:11363   */\n      dup3\n        /* \"#utility.yul\":11352:11356   */\n      dup3\n        /* \"#utility.yul\":11348:11364   */\n      shr\n        /* \"#utility.yul\":11327:11364   */\n      swap1\n      pop\n        /* \"#utility.yul\":11254:11371   */\n      swap3\n      swap2\n      pop\n      pop\n      jump\t// out\n        /* \"#utility.yul\":11377:11546   */\n    tag_101:\n        /* \"#utility.yul\":11421:11427   */\n      0x00\n        /* \"#utility.yul\":11454:11505   */\n      tag_234\n        /* \"#utility.yul\":11502:11503   */\n      0x00\n        /* \"#utility.yul\":11498:11504   */\n      not\n        /* \"#utility.yul\":11490:11495   */\n      dup5\n        /* \"#utility.yul\":11487:11488   */\n      0x08\n        /* \"#utility.yul\":11483:11496   */\n      mul\n        /* \"#utility.yul\":11454:11505   */\n      tag_100\n      jump\t// in\n    tag_234:\n        /* \"#utility.yul\":11450:11506   */\n      not\n        /* \"#utility.yul\":11535:11539   */\n      dup1\n        /* \"#utility.yul\":11529:11533   */\n      dup4\n        /* \"#utility.yul\":11525:11540   */\n      and\n        /* \"#utility.yul\":11515:11540   */\n      swap2\n      pop\n        /* \"#utility.yul\":11428:11546   */\n      pop\n        /* \"#utility.yul\":11377:11546   */\n      swap3\n      swap2\n      pop\n      pop\n      jump\t// out\n        /* \"#utility.yul\":11551:11846   */\n    tag_102:\n        /* \"#utility.yul\":11627:11631   */\n      0x00\n        /* \"#utility.yul\":11773:11802   */\n      tag_236\n        /* \"#utility.yul\":11798:11801   */\n      dup4\n        /* \"#utility.yul\":11792:11796   */\n      dup4\n        /* \"#utility.yul\":11773:11802   */\n      tag_101\n      jump\t// in\n    tag_236:\n        /* \"#utility.yul\":11765:11802   */\n      swap2\n      pop\n        /* \"#utility.yul\":11835:11838   */\n      dup3\n        /* \"#utility.yul\":11832:11833   */\n      0x02\n        /* \"#utility.yul\":11828:11839   */\n      mul\n        /* \"#utility.yul\":11822:11826   */\n      dup3\n        /* \"#utility.yul\":11819:11840   */\n      or\n        /* \"#utility.yul\":11811:11840   */\n      swap1\n      pop\n        /* \"#utility.yul\":11551:11846   */\n      swap3\n      swap2\n      pop\n      pop\n      jump\t// out\n        /* \"#utility.yul\":11851:13246   */\n    tag_45:\n        /* \"#utility.yul\":11968:12005   */\n      tag_238\n        /* \"#utility.yul\":12001:12004   */\n      dup3\n        /* \"#utility.yul\":11968:12005   */\n      tag_69\n      jump\t// in\n    tag_238:\n        /* \"#utility.yul\":12070:12088   */\n      0xffffffffffffffff\n        /* \"#utility.yul\":12062:12068   */\n      dup2\n        /* \"#utility.yul\":12059:12089   */\n      gt\n        /* \"#utility.yul\":12056:12112   */\n      iszero\n      tag_239\n      jumpi\n        /* \"#utility.yul\":12092:12110   */\n      tag_240\n      tag_77\n      jump\t// in\n    tag_240:\n        /* \"#utility.yul\":12056:12112   */\n    tag_239:\n        /* \"#utility.yul\":12136:12174   */\n      tag_241\n        /* \"#utility.yul\":12168:12172   */\n      dup3\n        /* \"#utility.yul\":12162:12173   */\n      sload\n        /* \"#utility.yul\":12136:12174   */\n      tag_33\n      jump\t// in\n    tag_241:\n        /* \"#utility.yul\":12221:12288   */\n      tag_242\n        /* \"#utility.yul\":12281:12287   */\n      dup3\n        /* \"#utility.yul\":12273:12279   */\n      dup3\n        /* \"#utility.yul\":12267:12271   */\n      dup6\n        /* \"#utility.yul\":12221:12288   */\n      tag_99\n      jump\t// in\n    tag_242:\n        /* \"#utility.yul\":12315:12316   */\n      0x00\n        /* \"#utility.yul\":12339:12343   */\n      0x20\n        /* \"#utility.yul\":12326:12343   */\n      swap1\n      pop\n        /* \"#utility.yul\":12371:12373   */\n      0x1f\n        /* \"#utility.yul\":12363:12369   */\n      dup4\n        /* \"#utility.yul\":12360:12374   */\n      gt\n        /* \"#utility.yul\":12388:12389   */\n      0x01\n        /* \"#utility.yul\":12383:13001   */\n      dup2\n      eq\n      tag_244\n      jumpi\n        /* \"#utility.yul\":13045:13046   */\n      0x00\n        /* \"#utility.yul\":13062:13068   */\n      dup5\n        /* \"#utility.yul\":13059:13136   */\n      iszero\n      tag_245\n      jumpi\n        /* \"#utility.yul\":13111:13120   */\n      dup3\n        /* \"#utility.yul\":13106:13109   */\n      dup8\n        /* \"#utility.yul\":13102:13121   */\n      add\n        /* \"#utility.yul\":13096:13122   */\n      mload\n        /* \"#utility.yul\":13087:13122   */\n      swap1\n      pop\n        /* \"#utility.yul\":13059:13136   */\n    tag_245:\n        /* \"#utility.yul\":13162:13229   */\n      tag_246\n        /* \"#utility.yul\":13222:13228   */\n      dup6\n        /* \"#utility.yul\":13215:13220   */\n      dup3\n        /* \"#utility.yul\":13162:13229   */\n      tag_102\n      jump\t// in\n    tag_246:\n        /* \"#utility.yul\":13156:13160   */\n      dup7\n        /* \"#utility.yul\":13149:13230   */\n      sstore\n        /* \"#utility.yul\":13018:13240   */\n      pop\n        /* \"#utility.yul\":12353:13240   */\n      jump(tag_243)\n        /* \"#utility.yul\":12383:13001   */\n    tag_244:\n        /* \"#utility.yul\":12435:12439   */\n      0x1f\n        /* \"#utility.yul\":12431:12440   */\n      not\n        /* \"#utility.yul\":12423:12429   */\n      dup5\n        /* \"#utility.yul\":12419:12441   */\n      and\n        /* \"#utility.yul\":12469:12506   */\n      tag_247\n        /* \"#utility.yul\":12501:12505   */\n      dup7\n        /* \"#utility.yul\":12469:12506   */\n      tag_88\n      jump\t// in\n    tag_247:\n        /* \"#utility.yul\":12528:12529   */\n      0x00\n        /* \"#utility.yul\":12542:12750   */\n    tag_248:\n        /* \"#utility.yul\":12556:12563   */\n      dup3\n        /* \"#utility.yul\":12553:12554   */\n      dup2\n        /* \"#utility.yul\":12550:12564   */\n      lt\n        /* \"#utility.yul\":12542:12750   */\n      iszero\n      tag_250\n      jumpi\n        /* \"#utility.yul\":12635:12644   */\n      dup5\n        /* \"#utility.yul\":12630:12633   */\n      dup10\n        /* \"#utility.yul\":12626:12645   */\n      add\n        /* \"#utility.yul\":12620:12646   */\n      mload\n        /* \"#utility.yul\":12612:12618   */\n      dup3\n        /* \"#utility.yul\":12605:12647   */\n      sstore\n        /* \"#utility.yul\":12686:12687   */\n      0x01\n        /* \"#utility.yul\":12678:12684   */\n      dup3\n        /* \"#utility.yul\":12674:12688   */\n      add\n        /* \"#utility.yul\":12664:12688   */\n      swap2\n      pop\n        /* \"#utility.yul\":12733:12735   */\n      0x20\n        /* \"#utility.yul\":12722:12731   */\n      dup6\n        /* \"#utility.yul\":12718:12736   */\n      add\n        /* \"#utility.yul\":12705:12736   */\n      swap5\n      pop\n        /* \"#utility.yul\":12579:12583   */\n      0x20\n        /* \"#utility.yul\":12576:12577   */\n      dup2\n        /* \"#utility.yul\":12572:12584   */\n      add\n        /* \"#utility.yul\":12567:12584   */\n      swap1\n      pop\n        /* \"#utility.yul\":12542:12750   */\n      jump(tag_248)\n    tag_250:\n        /* \"#utility.yul\":12778:12784   */\n      dup7\n        /* \"#utility.yul\":12769:12776   */\n      dup4\n        /* \"#utility.yul\":12766:12785   */\n      lt\n        /* \"#utility.yul\":12763:12942   */\n      iszero\n      tag_251\n      jumpi\n        /* \"#utility.yul\":12836:12845   */\n      dup5\n        /* \"#utility.yul\":12831:12834   */\n      dup10\n        /* \"#utility.yul\":12827:12846   */\n      add\n        /* \"#utility.yul\":12821:12847   */\n      mload\n        /* \"#utility.yul\":12879:12927   */\n      tag_252\n        /* \"#utility.yul\":12921:12925   */\n      0x1f\n        /* \"#utility.yul\":12913:12919   */\n      dup10\n        /* \"#utility.yul\":12909:12926   */\n      and\n        /* \"#utility.yul\":12898:12907   */\n      dup3\n        /* \"#utility.yul\":12879:12927   */\n      tag_101\n      jump\t// in\n    tag_252:\n        /* \"#utility.yul\":12871:12877   */\n      dup4\n        /* \"#utility.yul\":12864:12928   */\n      sstore\n        /* \"#utility.yul\":12786:12942   */\n      pop\n        /* \"#utility.yul\":12763:12942   */\n    tag_251:\n        /* \"#utility.yul\":12988:12989   */\n      0x01\n        /* \"#utility.yul\":12984:12985   */\n      0x02\n        /* \"#utility.yul\":12976:12982   */\n      dup9\n        /* \"#utility.yul\":12972:12986   */\n      mul\n        /* \"#utility.yul\":12968:12990   */\n      add\n        /* \"#utility.yul\":12962:12966   */\n      dup9\n        /* \"#utility.yul\":12955:12991   */\n      sstore\n        /* \"#utility.yul\":12390:13001   */\n      pop\n      pop\n      pop\n        /* \"#utility.yul\":12353:13240   */\n    tag_243:\n      pop\n        /* \"#utility.yul\":11943:13246   */\n      pop\n      pop\n      pop\n        /* \"#utility.yul\":11851:13246   */\n      pop\n      pop\n      jump\t// out\n        /* \"#utility.yul\":13252:13415   */\n    tag_103:\n        /* \"#utility.yul\":13392:13407   */\n      0x4e6f7420746865206f776e657200000000000000000000000000000000000000\n        /* \"#utility.yul\":13388:13389   */\n      0x00\n        /* \"#utility.yul\":13380:13386   */\n      dup3\n        /* \"#utility.yul\":13376:13390   */\n      add\n        /* \"#utility.yul\":13369:13408   */\n      mstore\n        /* \"#utility.yul\":13252:13415   */\n      pop\n      jump\t// out\n        /* \"#utility.yul\":13421:13787   */\n    tag_104:\n        /* \"#utility.yul\":13563:13566   */\n      0x00\n        /* \"#utility.yul\":13584:13651   */\n      tag_255\n        /* \"#utility.yul\":13648:13650   */\n      0x0d\n        /* \"#utility.yul\":13643:13646   */\n      dup4\n        /* \"#utility.yul\":13584:13651   */\n      tag_70\n      jump\t// in\n    tag_255:\n        /* \"#utility.yul\":13577:13651   */\n      swap2\n      pop\n        /* \"#utility.yul\":13660:13753   */\n      tag_256\n        /* \"#utility.yul\":13749:13752   */\n      dup3\n        /* \"#utility.yul\":13660:13753   */\n      tag_103\n      jump\t// in\n    tag_256:\n        /* \"#utility.yul\":13778:13780   */\n      0x20\n        /* \"#utility.yul\":13773:13776   */\n      dup3\n        /* \"#utility.yul\":13769:13781   */\n      add\n        /* \"#utility.yul\":13762:13781   */\n      swap1\n      pop\n        /* \"#utility.yul\":13421:13787   */\n      swap2\n      swap1\n      pop\n      jump\t// out\n        /* \"#utility.yul\":13793:14212   */\n    tag_49:\n        /* \"#utility.yul\":13959:13963   */\n      0x00\n        /* \"#utility.yul\":13997:13999   */\n      0x20\n        /* \"#utility.yul\":13986:13995   */\n      dup3\n        /* \"#utility.yul\":13982:14000   */\n      add\n        /* \"#utility.yul\":13974:14000   */\n      swap1\n      pop\n        /* \"#utility.yul\":14046:14055   */\n      dup2\n        /* \"#utility.yul\":14040:14044   */\n      dup2\n        /* \"#utility.yul\":14036:14056   */\n      sub\n        /* \"#utility.yul\":14032:14033   */\n      0x00\n        /* \"#utility.yul\":14021:14030   */\n      dup4\n        /* \"#utility.yul\":14017:14034   */\n      add\n        /* \"#utility.yul\":14010:14057   */\n      mstore\n        /* \"#utility.yul\":14074:14205   */\n      tag_258\n        /* \"#utility.yul\":14200:14204   */\n      dup2\n        /* \"#utility.yul\":14074:14205   */\n      tag_104\n      jump\t// in\n    tag_258:\n        /* \"#utility.yul\":14066:14205   */\n      swap1\n      pop\n        /* \"#utility.yul\":13793:14212   */\n      swap2\n      swap1\n      pop\n      jump\t// out\n\n    auxdata: 0xa264697066735822122058c762cd31c69b29bb9bf698a935237efeca2bf2286a012d22692d01c925ebbf64736f6c63430008120033\n}\n",
				"bytecode": {
					"linkReferences": {},
					"object": "608060405234801561001057600080fd5b50336000806101000a81548173ffffffffffffffffffffffffffffffffffffffff021916908373ffffffffffffffffffffffffffffffffffffffff160217905550610d2f806100606000396000f3fe608060405234801561001057600080fd5b50600436106100575760003560e01c806322f782bd1461005c57806346b489d11461008f5780636098c94c146100ab578063d852e0be146100c9578063f7b10808146100e5575b600080fd5b6100766004803603810190610071919061058f565b610119565b604051610086949392919061065b565b60405180910390f35b6100a960048036038101906100a491906107e3565b6102a0565b005b6100b36102c8565b6040516100c09190610880565b60405180910390f35b6100e360048036038101906100de919061089b565b6102ec565b005b6100ff60048036038101906100fa919061058f565b6103ff565b60405161011095949392919061094e565b60405180910390f35b606080600080600160008681526020019081526020016000206001016001600087815260200190815260200160002060020160016000888152602001908152602001600020600301546001600089815260200190815260200160002060040154838054610185906109de565b80601f01602080910402602001604051908101604052809291908181526020018280546101b1906109de565b80156101fe5780601f106101d3576101008083540402835291602001916101fe565b820191906000526020600020905b8154815290600101906020018083116101e157829003601f168201915b50505050509350828054610211906109de565b80601f016020809104026020016040519081016040528092919081815260200182805461023d906109de565b801561028a5780601f1061025f5761010080835404028352916020019161028a565b820191906000526020600020905b81548152906001019060200180831161026d57829003601f168201915b5050505050925093509350935093509193509193565b806001600084815260200190815260200160002060020190816102c39190610bbb565b505050565b60008054906101000a900473ffffffffffffffffffffffffffffffffffffffff1681565b60008054906101000a900473ffffffffffffffffffffffffffffffffffffffff1673ffffffffffffffffffffffffffffffffffffffff163373ffffffffffffffffffffffffffffffffffffffff161461037a576040517f08c379a000000000000000000000000000000000000000000000000000000000815260040161037190610cd9565b60405180910390fd5b8360016000878152602001908152602001600020600101908161039d9190610bbb565b50826001600087815260200190815260200160002060020190816103c19190610bbb565b508160016000878152602001908152602001600020600301819055508060016000878152602001908152602001600020600401819055505050505050565b6001602052806000526040600020600091509050806000015490806001018054610428906109de565b80601f0160208091040260200160405190810160405280929190818152602001828054610454906109de565b80156104a15780601f10610476576101008083540402835291602001916104a1565b820191906000526020600020905b81548152906001019060200180831161048457829003601f168201915b5050505050908060020180546104b6906109de565b80601f01602080910402602001604051908101604052809291908181526020018280546104e2906109de565b801561052f5780601f106105045761010080835404028352916020019161052f565b820191906000526020600020905b81548152906001019060200180831161051257829003601f168201915b5050505050908060030154908060040154905085565b6000604051905090565b600080fd5b600080fd5b6000819050919050565b61056c81610559565b811461057757600080fd5b50565b60008135905061058981610563565b92915050565b6000602082840312156105a5576105a461054f565b5b60006105b38482850161057a565b91505092915050565b600081519050919050565b600082825260208201905092915050565b60005b838110156105f65780820151818401526020810190506105db565b60008484015250505050565b6000601f19601f8301169050919050565b600061061e826105bc565b61062881856105c7565b93506106388185602086016105d8565b61064181610602565b840191505092915050565b61065581610559565b82525050565b600060808201905081810360008301526106758187610613565b905081810360208301526106898186610613565b9050610698604083018561064c565b6106a5606083018461064c565b95945050505050565b600080fd5b600080fd5b7f4e487b7100000000000000000000000000000000000000000000000000000000600052604160045260246000fd5b6106f082610602565b810181811067ffffffffffffffff8211171561070f5761070e6106b8565b5b80604052505050565b6000610722610545565b905061072e82826106e7565b919050565b600067ffffffffffffffff82111561074e5761074d6106b8565b5b61075782610602565b9050602081019050919050565b82818337600083830152505050565b600061078661078184610733565b610718565b9050828152602081018484840111156107a2576107a16106b3565b5b6107ad848285610764565b509392505050565b600082601f8301126107ca576107c96106ae565b5b81356107da848260208601610773565b91505092915050565b600080604083850312156107fa576107f961054f565b5b60006108088582860161057a565b925050602083013567ffffffffffffffff81111561082957610828610554565b5b610835858286016107b5565b9150509250929050565b600073ffffffffffffffffffffffffffffffffffffffff82169050919050565b600061086a8261083f565b9050919050565b61087a8161085f565b82525050565b60006020820190506108956000830184610871565b92915050565b600080600080600060a086880312156108b7576108b661054f565b5b60006108c58882890161057a565b955050602086013567ffffffffffffffff8111156108e6576108e5610554565b5b6108f2888289016107b5565b945050604086013567ffffffffffffffff81111561091357610912610554565b5b61091f888289016107b5565b93505060606109308882890161057a565b92505060806109418882890161057a565b9150509295509295909350565b600060a082019050610963600083018861064c565b81810360208301526109758187610613565b905081810360408301526109898186610613565b9050610998606083018561064c565b6109a5608083018461064c565b9695505050505050565b7f4e487b7100000000000000000000000000000000000000000000000000000000600052602260045260246000fd5b600060028204905060018216806109f657607f821691505b602082108103610a0957610a086109af565b5b50919050565b60008190508160005260206000209050919050565b60006020601f8301049050919050565b600082821b905092915050565b600060088302610a717fffffffffffffffffffffffffffffffffffffffffffffffffffffffffffffffff82610a34565b610a7b8683610a34565b95508019841693508086168417925050509392505050565b6000819050919050565b6000610ab8610ab3610aae84610559565b610a93565b610559565b9050919050565b6000819050919050565b610ad283610a9d565b610ae6610ade82610abf565b848454610a41565b825550505050565b600090565b610afb610aee565b610b06818484610ac9565b505050565b5b81811015610b2a57610b1f600082610af3565b600181019050610b0c565b5050565b601f821115610b6f57610b4081610a0f565b610b4984610a24565b81016020851015610b58578190505b610b6c610b6485610a24565b830182610b0b565b50505b505050565b600082821c905092915050565b6000610b9260001984600802610b74565b1980831691505092915050565b6000610bab8383610b81565b9150826002028217905092915050565b610bc4826105bc565b67ffffffffffffffff811115610bdd57610bdc6106b8565b5b610be782546109de565b610bf2828285610b2e565b600060209050601f831160018114610c255760008415610c13578287015190505b610c1d8582610b9f565b865550610c85565b601f198416610c3386610a0f565b60005b82811015610c5b57848901518255600182019150602085019450602081019050610c36565b86831015610c785784890151610c74601f891682610b81565b8355505b6001600288020188555050505b505050505050565b7f4e6f7420746865206f776e657200000000000000000000000000000000000000600082015250565b6000610cc3600d836105c7565b9150610cce82610c8d565b602082019050919050565b60006020820190508181036000830152610cf281610cb6565b905091905056fea264697066735822122058c762cd31c69b29bb9bf698a935237efeca2bf2286a012d22692d01c925ebbf64736f6c63430008120033",
					"opcodes": "PUSH1 0x80 PUSH1 0x40 MSTORE CALLVALUE DUP1 ISZERO PUSH2 0x10 JUMPI PUSH1 0x0 DUP1 REVERT JUMPDEST POP CALLER PUSH1 0x0 DUP1 PUSH2 0x100 EXP DUP2 SLOAD DUP2 PUSH20 0xFFFFFFFFFFFFFFFFFFFFFFFFFFFFFFFFFFFFFFFF MUL NOT AND SWAP1 DUP4 PUSH20 0xFFFFFFFFFFFFFFFFFFFFFFFFFFFFFFFFFFFFFFFF AND MUL OR SWAP1 SSTORE POP PUSH2 0xD2F DUP1 PUSH2 0x60 PUSH1 0x0 CODECOPY PUSH1 0x0 RETURN INVALID PUSH1 0x80 PUSH1 0x40 MSTORE CALLVALUE DUP1 ISZERO PUSH2 0x10 JUMPI PUSH1 0x0 DUP1 REVERT JUMPDEST POP PUSH1 0x4 CALLDATASIZE LT PUSH2 0x57 JUMPI PUSH1 0x0 CALLDATALOAD PUSH1 0xE0 SHR DUP1 PUSH4 0x22F782BD EQ PUSH2 0x5C JUMPI DUP1 PUSH4 0x46B489D1 EQ PUSH2 0x8F JUMPI DUP1 PUSH4 0x6098C94C EQ PUSH2 0xAB JUMPI DUP1 PUSH4 0xD852E0BE EQ PUSH2 0xC9 JUMPI DUP1 PUSH4 0xF7B10808 EQ PUSH2 0xE5 JUMPI JUMPDEST PUSH1 0x0 DUP1 REVERT JUMPDEST PUSH2 0x76 PUSH1 0x4 DUP1 CALLDATASIZE SUB DUP2 ADD SWAP1 PUSH2 0x71 SWAP2 SWAP1 PUSH2 0x58F JUMP JUMPDEST PUSH2 0x119 JUMP JUMPDEST PUSH1 0x40 MLOAD PUSH2 0x86 SWAP5 SWAP4 SWAP3 SWAP2 SWAP1 PUSH2 0x65B JUMP JUMPDEST PUSH1 0x40 MLOAD DUP1 SWAP2 SUB SWAP1 RETURN JUMPDEST PUSH2 0xA9 PUSH1 0x4 DUP1 CALLDATASIZE SUB DUP2 ADD SWAP1 PUSH2 0xA4 SWAP2 SWAP1 PUSH2 0x7E3 JUMP JUMPDEST PUSH2 0x2A0 JUMP JUMPDEST STOP JUMPDEST PUSH2 0xB3 PUSH2 0x2C8 JUMP JUMPDEST PUSH1 0x40 MLOAD PUSH2 0xC0 SWAP2 SWAP1 PUSH2 0x880 JUMP JUMPDEST PUSH1 0x40 MLOAD DUP1 SWAP2 SUB SWAP1 RETURN JUMPDEST PUSH2 0xE3 PUSH1 0x4 DUP1 CALLDATASIZE SUB DUP2 ADD SWAP1 PUSH2 0xDE SWAP2 SWAP1 PUSH2 0x89B JUMP JUMPDEST PUSH2 0x2EC JUMP JUMPDEST STOP JUMPDEST PUSH2 0xFF PUSH1 0x4 DUP1 CALLDATASIZE SUB DUP2 ADD SWAP1 PUSH2 0xFA SWAP2 SWAP1 PUSH2 0x58F JUMP JUMPDEST PUSH2 0x3FF JUMP JUMPDEST PUSH1 0x40 MLOAD PUSH2 0x110 SWAP6 SWAP5 SWAP4 SWAP3 SWAP2 SWAP1 PUSH2 0x94E JUMP JUMPDEST PUSH1 0x40 MLOAD DUP1 SWAP2 SUB SWAP1 RETURN JUMPDEST PUSH1 0x60 DUP1 PUSH1 0x0 DUP1 PUSH1 0x1 PUSH1 0x0 DUP7 DUP2 MSTORE PUSH1 0x20 ADD SWAP1 DUP2 MSTORE PUSH1 0x20 ADD PUSH1 0x0 KECCAK256 PUSH1 0x1 ADD PUSH1 0x1 PUSH1 0x0 DUP8 DUP2 MSTORE PUSH1 0x20 ADD SWAP1 DUP2 MSTORE PUSH1 0x20 ADD PUSH1 0x0 KECCAK256 PUSH1 0x2 ADD PUSH1 0x1 PUSH1 0x0 DUP9 DUP2 MSTORE PUSH1 0x20 ADD SWAP1 DUP2 MSTORE PUSH1 0x20 ADD PUSH1 0x0 KECCAK256 PUSH1 0x3 ADD SLOAD PUSH1 0x1 PUSH1 0x0 DUP10 DUP2 MSTORE PUSH1 0x20 ADD SWAP1 DUP2 MSTORE PUSH1 0x20 ADD PUSH1 0x0 KECCAK256 PUSH1 0x4 ADD SLOAD DUP4 DUP1 SLOAD PUSH2 0x185 SWAP1 PUSH2 0x9DE JUMP JUMPDEST DUP1 PUSH1 0x1F ADD PUSH1 0x20 DUP1 SWAP2 DIV MUL PUSH1 0x20 ADD PUSH1 0x40 MLOAD SWAP1 DUP2 ADD PUSH1 0x40 MSTORE DUP1 SWAP3 SWAP2 SWAP1 DUP2 DUP2 MSTORE PUSH1 0x20 ADD DUP3 DUP1 SLOAD PUSH2 0x1B1 SWAP1 PUSH2 0x9DE JUMP JUMPDEST DUP1 ISZERO PUSH2 0x1FE JUMPI DUP1 PUSH1 0x1F LT PUSH2 0x1D3 JUMPI PUSH2 0x100 DUP1 DUP4 SLOAD DIV MUL DUP4 MSTORE SWAP2 PUSH1 0x20 ADD SWAP2 PUSH2 0x1FE JUMP JUMPDEST DUP3 ADD SWAP2 SWAP1 PUSH1 0x0 MSTORE PUSH1 0x20 PUSH1 0x0 KECCAK256 SWAP1 JUMPDEST DUP2 SLOAD DUP2 MSTORE SWAP1 PUSH1 0x1 ADD SWAP1 PUSH1 0x20 ADD DUP1 DUP4 GT PUSH2 0x1E1 JUMPI DUP3 SWAP1 SUB PUSH1 0x1F AND DUP3 ADD SWAP2 JUMPDEST POP POP POP POP POP SWAP4 POP DUP3 DUP1 SLOAD PUSH2 0x211 SWAP1 PUSH2 0x9DE JUMP JUMPDEST DUP1 PUSH1 0x1F ADD PUSH1 0x20 DUP1 SWAP2 DIV MUL PUSH1 0x20 ADD PUSH1 0x40 MLOAD SWAP1 DUP2 ADD PUSH1 0x40 MSTORE DUP1 SWAP3 SWAP2 SWAP1 DUP2 DUP2 MSTORE PUSH1 0x20 ADD DUP3 DUP1 SLOAD PUSH2 0x23D SWAP1 PUSH2 0x9DE JUMP JUMPDEST DUP1 ISZERO PUSH2 0x28A JUMPI DUP1 PUSH1 0x1F LT PUSH2 0x25F JUMPI PUSH2 0x100 DUP1 DUP4 SLOAD DIV MUL DUP4 MSTORE SWAP2 PUSH1 0x20 ADD SWAP2 PUSH2 0x28A JUMP JUMPDEST DUP3 ADD SWAP2 SWAP1 PUSH1 0x0 MSTORE PUSH1 0x20 PUSH1 0x0 KECCAK256 SWAP1 JUMPDEST DUP2 SLOAD DUP2 MSTORE SWAP1 PUSH1 0x1 ADD SWAP1 PUSH1 0x20 ADD DUP1 DUP4 GT PUSH2 0x26D JUMPI DUP3 SWAP1 SUB PUSH1 0x1F AND DUP3 ADD SWAP2 JUMPDEST POP POP POP POP POP SWAP3 POP SWAP4 POP SWAP4 POP SWAP4 POP SWAP4 POP SWAP2 SWAP4 POP SWAP2 SWAP4 JUMP JUMPDEST DUP1 PUSH1 0x1 PUSH1 0x0 DUP5 DUP2 MSTORE PUSH1 0x20 ADD SWAP1 DUP2 MSTORE PUSH1 0x20 ADD PUSH1 0x0 KECCAK256 PUSH1 0x2 ADD SWAP1 DUP2 PUSH2 0x2C3 SWAP2 SWAP1 PUSH2 0xBBB JUMP JUMPDEST POP POP POP JUMP JUMPDEST PUSH1 0x0 DUP1 SLOAD SWAP1 PUSH2 0x100 EXP SWAP1 DIV PUSH20 0xFFFFFFFFFFFFFFFFFFFFFFFFFFFFFFFFFFFFFFFF AND DUP2 JUMP JUMPDEST PUSH1 0x0 DUP1 SLOAD SWAP1 PUSH2 0x100 EXP SWAP1 DIV PUSH20 0xFFFFFFFFFFFFFFFFFFFFFFFFFFFFFFFFFFFFFFFF AND PUSH20 0xFFFFFFFFFFFFFFFFFFFFFFFFFFFFFFFFFFFFFFFF AND CALLER PUSH20 0xFFFFFFFFFFFFFFFFFFFFFFFFFFFFFFFFFFFFFFFF AND EQ PUSH2 0x37A JUMPI PUSH1 0x40 MLOAD PUSH32 0x8C379A000000000000000000000000000000000000000000000000000000000 DUP2 MSTORE PUSH1 0x4 ADD PUSH2 0x371 SWAP1 PUSH2 0xCD9 JUMP JUMPDEST PUSH1 0x40 MLOAD DUP1 SWAP2 SUB SWAP1 REVERT JUMPDEST DUP4 PUSH1 0x1 PUSH1 0x0 DUP8 DUP2 MSTORE PUSH1 0x20 ADD SWAP1 DUP2 MSTORE PUSH1 0x20 ADD PUSH1 0x0 KECCAK256 PUSH1 0x1 ADD SWAP1 DUP2 PUSH2 0x39D SWAP2 SWAP1 PUSH2 0xBBB JUMP JUMPDEST POP DUP3 PUSH1 0x1 PUSH1 0x0 DUP8 DUP2 MSTORE PUSH1 0x20 ADD SWAP1 DUP2 MSTORE PUSH1 0x20 ADD PUSH1 0x0 KECCAK256 PUSH1 0x2 ADD SWAP1 DUP2 PUSH2 0x3C1 SWAP2 SWAP1 PUSH2 0xBBB JUMP JUMPDEST POP DUP2 PUSH1 0x1 PUSH1 0x0 DUP8 DUP2 MSTORE PUSH1 0x20 ADD SWAP1 DUP2 MSTORE PUSH1 0x20 ADD PUSH1 0x0 KECCAK256 PUSH1 0x3 ADD DUP2 SWAP1 SSTORE POP DUP1 PUSH1 0x1 PUSH1 0x0 DUP8 DUP2 MSTORE PUSH1 0x20 ADD SWAP1 DUP2 MSTORE PUSH1 0x20 ADD PUSH1 0x0 KECCAK256 PUSH1 0x4 ADD DUP2 SWAP1 SSTORE POP POP POP POP POP POP JUMP JUMPDEST PUSH1 0x1 PUSH1 0x20 MSTORE DUP1 PUSH1 0x0 MSTORE PUSH1 0x40 PUSH1 0x0 KECCAK256 PUSH1 0x0 SWAP2 POP SWAP1 POP DUP1 PUSH1 0x0 ADD SLOAD SWAP1 DUP1 PUSH1 0x1 ADD DUP1 SLOAD PUSH2 0x428 SWAP1 PUSH2 0x9DE JUMP JUMPDEST DUP1 PUSH1 0x1F ADD PUSH1 0x20 DUP1 SWAP2 DIV MUL PUSH1 0x20 ADD PUSH1 0x40 MLOAD SWAP1 DUP2 ADD PUSH1 0x40 MSTORE DUP1 SWAP3 SWAP2 SWAP1 DUP2 DUP2 MSTORE PUSH1 0x20 ADD DUP3 DUP1 SLOAD PUSH2 0x454 SWAP1 PUSH2 0x9DE JUMP JUMPDEST DUP1 ISZERO PUSH2 0x4A1 JUMPI DUP1 PUSH1 0x1F LT PUSH2 0x476 JUMPI PUSH2 0x100 DUP1 DUP4 SLOAD DIV MUL DUP4 MSTORE SWAP2 PUSH1 0x20 ADD SWAP2 PUSH2 0x4A1 JUMP JUMPDEST DUP3 ADD SWAP2 SWAP1 PUSH1 0x0 MSTORE PUSH1 0x20 PUSH1 0x0 KECCAK256 SWAP1 JUMPDEST DUP2 SLOAD DUP2 MSTORE SWAP1 PUSH1 0x1 ADD SWAP1 PUSH1 0x20 ADD DUP1 DUP4 GT PUSH2 0x484 JUMPI DUP3 SWAP1 SUB PUSH1 0x1F AND DUP3 ADD SWAP2 JUMPDEST POP POP POP POP POP SWAP1 DUP1 PUSH1 0x2 ADD DUP1 SLOAD PUSH2 0x4B6 SWAP1 PUSH2 0x9DE JUMP JUMPDEST DUP1 PUSH1 0x1F ADD PUSH1 0x20 DUP1 SWAP2 DIV MUL PUSH1 0x20 ADD PUSH1 0x40 MLOAD SWAP1 DUP2 ADD PUSH1 0x40 MSTORE DUP1 SWAP3 SWAP2 SWAP1 DUP2 DUP2 MSTORE PUSH1 0x20 ADD DUP3 DUP1 SLOAD PUSH2 0x4E2 SWAP1 PUSH2 0x9DE JUMP JUMPDEST DUP1 ISZERO PUSH2 0x52F JUMPI DUP1 PUSH1 0x1F LT PUSH2 0x504 JUMPI PUSH2 0x100 DUP1 DUP4 SLOAD DIV MUL DUP4 MSTORE SWAP2 PUSH1 0x20 ADD SWAP2 PUSH2 0x52F JUMP JUMPDEST DUP3 ADD SWAP2 SWAP1 PUSH1 0x0 MSTORE PUSH1 0x20 PUSH1 0x0 KECCAK256 SWAP1 JUMPDEST DUP2 SLOAD DUP2 MSTORE SWAP1 PUSH1 0x1 ADD SWAP1 PUSH1 0x20 ADD DUP1 DUP4 GT PUSH2 0x512 JUMPI DUP3 SWAP1 SUB PUSH1 0x1F AND DUP3 ADD SWAP2 JUMPDEST POP POP POP POP POP SWAP1 DUP1 PUSH1 0x3 ADD SLOAD SWAP1 DUP1 PUSH1 0x4 ADD SLOAD SWAP1 POP DUP6 JUMP JUMPDEST PUSH1 0x0 PUSH1 0x40 MLOAD SWAP1 POP SWAP1 JUMP JUMPDEST PUSH1 0x0 DUP1 REVERT JUMPDEST PUSH1 0x0 DUP1 REVERT JUMPDEST PUSH1 0x0 DUP2 SWAP1 POP SWAP2 SWAP1 POP JUMP JUMPDEST PUSH2 0x56C DUP2 PUSH2 0x559 JUMP JUMPDEST DUP2 EQ PUSH2 0x577 JUMPI PUSH1 0x0 DUP1 REVERT JUMPDEST POP JUMP JUMPDEST PUSH1 0x0 DUP2 CALLDATALOAD SWAP1 POP PUSH2 0x589 DUP2 PUSH2 0x563 JUMP JUMPDEST SWAP3 SWAP2 POP POP JUMP JUMPDEST PUSH1 0x0 PUSH1 0x20 DUP3 DUP5 SUB SLT ISZERO PUSH2 0x5A5 JUMPI PUSH2 0x5A4 PUSH2 0x54F JUMP JUMPDEST JUMPDEST PUSH1 0x0 PUSH2 0x5B3 DUP5 DUP3 DUP6 ADD PUSH2 0x57A JUMP JUMPDEST SWAP2 POP POP SWAP3 SWAP2 POP POP JUMP JUMPDEST PUSH1 0x0 DUP2 MLOAD SWAP1 POP SWAP2 SWAP1 POP JUMP JUMPDEST PUSH1 0x0 DUP3 DUP3 MSTORE PUSH1 0x20 DUP3 ADD SWAP1 POP SWAP3 SWAP2 POP POP JUMP JUMPDEST PUSH1 0x0 JUMPDEST DUP4 DUP2 LT ISZERO PUSH2 0x5F6 JUMPI DUP1 DUP3 ADD MLOAD DUP2 DUP5 ADD MSTORE PUSH1 0x20 DUP2 ADD SWAP1 POP PUSH2 0x5DB JUMP JUMPDEST PUSH1 0x0 DUP5 DUP5 ADD MSTORE POP POP POP POP JUMP JUMPDEST PUSH1 0x0 PUSH1 0x1F NOT PUSH1 0x1F DUP4 ADD AND SWAP1 POP SWAP2 SWAP1 POP JUMP JUMPDEST PUSH1 0x0 PUSH2 0x61E DUP3 PUSH2 0x5BC JUMP JUMPDEST PUSH2 0x628 DUP2 DUP6 PUSH2 0x5C7 JUMP JUMPDEST SWAP4 POP PUSH2 0x638 DUP2 DUP6 PUSH1 0x20 DUP7 ADD PUSH2 0x5D8 JUMP JUMPDEST PUSH2 0x641 DUP2 PUSH2 0x602 JUMP JUMPDEST DUP5 ADD SWAP2 POP POP SWAP3 SWAP2 POP POP JUMP JUMPDEST PUSH2 0x655 DUP2 PUSH2 0x559 JUMP JUMPDEST DUP3 MSTORE POP POP JUMP JUMPDEST PUSH1 0x0 PUSH1 0x80 DUP3 ADD SWAP1 POP DUP2 DUP2 SUB PUSH1 0x0 DUP4 ADD MSTORE PUSH2 0x675 DUP2 DUP8 PUSH2 0x613 JUMP JUMPDEST SWAP1 POP DUP2 DUP2 SUB PUSH1 0x20 DUP4 ADD MSTORE PUSH2 0x689 DUP2 DUP7 PUSH2 0x613 JUMP JUMPDEST SWAP1 POP PUSH2 0x698 PUSH1 0x40 DUP4 ADD DUP6 PUSH2 0x64C JUMP JUMPDEST PUSH2 0x6A5 PUSH1 0x60 DUP4 ADD DUP5 PUSH2 0x64C JUMP JUMPDEST SWAP6 SWAP5 POP POP POP POP POP JUMP JUMPDEST PUSH1 0x0 DUP1 REVERT JUMPDEST PUSH1 0x0 DUP1 REVERT JUMPDEST PUSH32 0x4E487B7100000000000000000000000000000000000000000000000000000000 PUSH1 0x0 MSTORE PUSH1 0x41 PUSH1 0x4 MSTORE PUSH1 0x24 PUSH1 0x0 REVERT JUMPDEST PUSH2 0x6F0 DUP3 PUSH2 0x602 JUMP JUMPDEST DUP2 ADD DUP2 DUP2 LT PUSH8 0xFFFFFFFFFFFFFFFF DUP3 GT OR ISZERO PUSH2 0x70F JUMPI PUSH2 0x70E PUSH2 0x6B8 JUMP JUMPDEST JUMPDEST DUP1 PUSH1 0x40 MSTORE POP POP POP JUMP JUMPDEST PUSH1 0x0 PUSH2 0x722 PUSH2 0x545 JUMP JUMPDEST SWAP1 POP PUSH2 0x72E DUP3 DUP3 PUSH2 0x6E7 JUMP JUMPDEST SWAP2 SWAP1 POP JUMP JUMPDEST PUSH1 0x0 PUSH8 0xFFFFFFFFFFFFFFFF DUP3 GT ISZERO PUSH2 0x74E JUMPI PUSH2 0x74D PUSH2 0x6B8 JUMP JUMPDEST JUMPDEST PUSH2 0x757 DUP3 PUSH2 0x602 JUMP JUMPDEST SWAP1 POP PUSH1 0x20 DUP2 ADD SWAP1 POP SWAP2 SWAP1 POP JUMP JUMPDEST DUP3 DUP2 DUP4 CALLDATACOPY PUSH1 0x0 DUP4 DUP4 ADD MSTORE POP POP POP JUMP JUMPDEST PUSH1 0x0 PUSH2 0x786 PUSH2 0x781 DUP5 PUSH2 0x733 JUMP JUMPDEST PUSH2 0x718 JUMP JUMPDEST SWAP1 POP DUP3 DUP2 MSTORE PUSH1 0x20 DUP2 ADD DUP5 DUP5 DUP5 ADD GT ISZERO PUSH2 0x7A2 JUMPI PUSH2 0x7A1 PUSH2 0x6B3 JUMP JUMPDEST JUMPDEST PUSH2 0x7AD DUP5 DUP3 DUP6 PUSH2 0x764 JUMP JUMPDEST POP SWAP4 SWAP3 POP POP POP JUMP JUMPDEST PUSH1 0x0 DUP3 PUSH1 0x1F DUP4 ADD SLT PUSH2 0x7CA JUMPI PUSH2 0x7C9 PUSH2 0x6AE JUMP JUMPDEST JUMPDEST DUP2 CALLDATALOAD PUSH2 0x7DA DUP5 DUP3 PUSH1 0x20 DUP7 ADD PUSH2 0x773 JUMP JUMPDEST SWAP2 POP POP SWAP3 SWAP2 POP POP JUMP JUMPDEST PUSH1 0x0 DUP1 PUSH1 0x40 DUP4 DUP6 SUB SLT ISZERO PUSH2 0x7FA JUMPI PUSH2 0x7F9 PUSH2 0x54F JUMP JUMPDEST JUMPDEST PUSH1 0x0 PUSH2 0x808 DUP6 DUP3 DUP7 ADD PUSH2 0x57A JUMP JUMPDEST SWAP3 POP POP PUSH1 0x20 DUP4 ADD CALLDATALOAD PUSH8 0xFFFFFFFFFFFFFFFF DUP2 GT ISZERO PUSH2 0x829 JUMPI PUSH2 0x828 PUSH2 0x554 JUMP JUMPDEST JUMPDEST PUSH2 0x835 DUP6 DUP3 DUP7 ADD PUSH2 0x7B5 JUMP JUMPDEST SWAP2 POP POP SWAP3 POP SWAP3 SWAP1 POP JUMP JUMPDEST PUSH1 0x0 PUSH20 0xFFFFFFFFFFFFFFFFFFFFFFFFFFFFFFFFFFFFFFFF DUP3 AND SWAP1 POP SWAP2 SWAP1 POP JUMP JUMPDEST PUSH1 0x0 PUSH2 0x86A DUP3 PUSH2 0x83F JUMP JUMPDEST SWAP1 POP SWAP2 SWAP1 POP JUMP JUMPDEST PUSH2 0x87A DUP2 PUSH2 0x85F JUMP JUMPDEST DUP3 MSTORE POP POP JUMP JUMPDEST PUSH1 0x0 PUSH1 0x20 DUP3 ADD SWAP1 POP PUSH2 0x895 PUSH1 0x0 DUP4 ADD DUP5 PUSH2 0x871 JUMP JUMPDEST SWAP3 SWAP2 POP POP JUMP JUMPDEST PUSH1 0x0 DUP1 PUSH1 0x0 DUP1 PUSH1 0x0 PUSH1 0xA0 DUP7 DUP9 SUB SLT ISZERO PUSH2 0x8B7 JUMPI PUSH2 0x8B6 PUSH2 0x54F JUMP JUMPDEST JUMPDEST PUSH1 0x0 PUSH2 0x8C5 DUP9 DUP3 DUP10 ADD PUSH2 0x57A JUMP JUMPDEST SWAP6 POP POP PUSH1 0x20 DUP7 ADD CALLDATALOAD PUSH8 0xFFFFFFFFFFFFFFFF DUP2 GT ISZERO PUSH2 0x8E6 JUMPI PUSH2 0x8E5 PUSH2 0x554 JUMP JUMPDEST JUMPDEST PUSH2 0x8F2 DUP9 DUP3 DUP10 ADD PUSH2 0x7B5 JUMP JUMPDEST SWAP5 POP POP PUSH1 0x40 DUP7 ADD CALLDATALOAD PUSH8 0xFFFFFFFFFFFFFFFF DUP2 GT ISZERO PUSH2 0x913 JUMPI PUSH2 0x912 PUSH2 0x554 JUMP JUMPDEST JUMPDEST PUSH2 0x91F DUP9 DUP3 DUP10 ADD PUSH2 0x7B5 JUMP JUMPDEST SWAP4 POP POP PUSH1 0x60 PUSH2 0x930 DUP9 DUP3 DUP10 ADD PUSH2 0x57A JUMP JUMPDEST SWAP3 POP POP PUSH1 0x80 PUSH2 0x941 DUP9 DUP3 DUP10 ADD PUSH2 0x57A JUMP JUMPDEST SWAP2 POP POP SWAP3 SWAP6 POP SWAP3 SWAP6 SWAP1 SWAP4 POP JUMP JUMPDEST PUSH1 0x0 PUSH1 0xA0 DUP3 ADD SWAP1 POP PUSH2 0x963 PUSH1 0x0 DUP4 ADD DUP9 PUSH2 0x64C JUMP JUMPDEST DUP2 DUP2 SUB PUSH1 0x20 DUP4 ADD MSTORE PUSH2 0x975 DUP2 DUP8 PUSH2 0x613 JUMP JUMPDEST SWAP1 POP DUP2 DUP2 SUB PUSH1 0x40 DUP4 ADD MSTORE PUSH2 0x989 DUP2 DUP7 PUSH2 0x613 JUMP JUMPDEST SWAP1 POP PUSH2 0x998 PUSH1 0x60 DUP4 ADD DUP6 PUSH2 0x64C JUMP JUMPDEST PUSH2 0x9A5 PUSH1 0x80 DUP4 ADD DUP5 PUSH2 0x64C JUMP JUMPDEST SWAP7 SWAP6 POP POP POP POP POP POP JUMP JUMPDEST PUSH32 0x4E487B7100000000000000000000000000000000000000000000000000000000 PUSH1 0x0 MSTORE PUSH1 0x22 PUSH1 0x4 MSTORE PUSH1 0x24 PUSH1 0x0 REVERT JUMPDEST PUSH1 0x0 PUSH1 0x2 DUP3 DIV SWAP1 POP PUSH1 0x1 DUP3 AND DUP1 PUSH2 0x9F6 JUMPI PUSH1 0x7F DUP3 AND SWAP2 POP JUMPDEST PUSH1 0x20 DUP3 LT DUP2 SUB PUSH2 0xA09 JUMPI PUSH2 0xA08 PUSH2 0x9AF JUMP JUMPDEST JUMPDEST POP SWAP2 SWAP1 POP JUMP JUMPDEST PUSH1 0x0 DUP2 SWAP1 POP DUP2 PUSH1 0x0 MSTORE PUSH1 0x20 PUSH1 0x0 KECCAK256 SWAP1 POP SWAP2 SWAP1 POP JUMP JUMPDEST PUSH1 0x0 PUSH1 0x20 PUSH1 0x1F DUP4 ADD DIV SWAP1 POP SWAP2 SWAP1 POP JUMP JUMPDEST PUSH1 0x0 DUP3 DUP3 SHL SWAP1 POP SWAP3 SWAP2 POP POP JUMP JUMPDEST PUSH1 0x0 PUSH1 0x8 DUP4 MUL PUSH2 0xA71 PUSH32 0xFFFFFFFFFFFFFFFFFFFFFFFFFFFFFFFFFFFFFFFFFFFFFFFFFFFFFFFFFFFFFFFF DUP3 PUSH2 0xA34 JUMP JUMPDEST PUSH2 0xA7B DUP7 DUP4 PUSH2 0xA34 JUMP JUMPDEST SWAP6 POP DUP1 NOT DUP5 AND SWAP4 POP DUP1 DUP7 AND DUP5 OR SWAP3 POP POP POP SWAP4 SWAP3 POP POP POP JUMP JUMPDEST PUSH1 0x0 DUP2 SWAP1 POP SWAP2 SWAP1 POP JUMP JUMPDEST PUSH1 0x0 PUSH2 0xAB8 PUSH2 0xAB3 PUSH2 0xAAE DUP5 PUSH2 0x559 JUMP JUMPDEST PUSH2 0xA93 JUMP JUMPDEST PUSH2 0x559 JUMP JUMPDEST SWAP1 POP SWAP2 SWAP1 POP JUMP JUMPDEST PUSH1 0x0 DUP2 SWAP1 POP SWAP2 SWAP1 POP JUMP JUMPDEST PUSH2 0xAD2 DUP4 PUSH2 0xA9D JUMP JUMPDEST PUSH2 0xAE6 PUSH2 0xADE DUP3 PUSH2 0xABF JUMP JUMPDEST DUP5 DUP5 SLOAD PUSH2 0xA41 JUMP JUMPDEST DUP3 SSTORE POP POP POP POP JUMP JUMPDEST PUSH1 0x0 SWAP1 JUMP JUMPDEST PUSH2 0xAFB PUSH2 0xAEE JUMP JUMPDEST PUSH2 0xB06 DUP2 DUP5 DUP5 PUSH2 0xAC9 JUMP JUMPDEST POP POP POP JUMP JUMPDEST JUMPDEST DUP2 DUP2 LT ISZERO PUSH2 0xB2A JUMPI PUSH2 0xB1F PUSH1 0x0 DUP3 PUSH2 0xAF3 JUMP JUMPDEST PUSH1 0x1 DUP2 ADD SWAP1 POP PUSH2 0xB0C JUMP JUMPDEST POP POP JUMP JUMPDEST PUSH1 0x1F DUP3 GT ISZERO PUSH2 0xB6F JUMPI PUSH2 0xB40 DUP2 PUSH2 0xA0F JUMP JUMPDEST PUSH2 0xB49 DUP5 PUSH2 0xA24 JUMP JUMPDEST DUP2 ADD PUSH1 0x20 DUP6 LT ISZERO PUSH2 0xB58 JUMPI DUP2 SWAP1 POP JUMPDEST PUSH2 0xB6C PUSH2 0xB64 DUP6 PUSH2 0xA24 JUMP JUMPDEST DUP4 ADD DUP3 PUSH2 0xB0B JUMP JUMPDEST POP POP JUMPDEST POP POP POP JUMP JUMPDEST PUSH1 0x0 DUP3 DUP3 SHR SWAP1 POP SWAP3 SWAP2 POP POP JUMP JUMPDEST PUSH1 0x0 PUSH2 0xB92 PUSH1 0x0 NOT DUP5 PUSH1 0x8 MUL PUSH2 0xB74 JUMP JUMPDEST NOT DUP1 DUP4 AND SWAP2 POP POP SWAP3 SWAP2 POP POP JUMP JUMPDEST PUSH1 0x0 PUSH2 0xBAB DUP4 DUP4 PUSH2 0xB81 JUMP JUMPDEST SWAP2 POP DUP3 PUSH1 0x2 MUL DUP3 OR SWAP1 POP SWAP3 SWAP2 POP POP JUMP JUMPDEST PUSH2 0xBC4 DUP3 PUSH2 0x5BC JUMP JUMPDEST PUSH8 0xFFFFFFFFFFFFFFFF DUP2 GT ISZERO PUSH2 0xBDD JUMPI PUSH2 0xBDC PUSH2 0x6B8 JUMP JUMPDEST JUMPDEST PUSH2 0xBE7 DUP3 SLOAD PUSH2 0x9DE JUMP JUMPDEST PUSH2 0xBF2 DUP3 DUP3 DUP6 PUSH2 0xB2E JUMP JUMPDEST PUSH1 0x0 PUSH1 0x20 SWAP1 POP PUSH1 0x1F DUP4 GT PUSH1 0x1 DUP2 EQ PUSH2 0xC25 JUMPI PUSH1 0x0 DUP5 ISZERO PUSH2 0xC13 JUMPI DUP3 DUP8 ADD MLOAD SWAP1 POP JUMPDEST PUSH2 0xC1D DUP6 DUP3 PUSH2 0xB9F JUMP JUMPDEST DUP7 SSTORE POP PUSH2 0xC85 JUMP JUMPDEST PUSH1 0x1F NOT DUP5 AND PUSH2 0xC33 DUP7 PUSH2 0xA0F JUMP JUMPDEST PUSH1 0x0 JUMPDEST DUP3 DUP2 LT ISZERO PUSH2 0xC5B JUMPI DUP5 DUP10 ADD MLOAD DUP3 SSTORE PUSH1 0x1 DUP3 ADD SWAP2 POP PUSH1 0x20 DUP6 ADD SWAP5 POP PUSH1 0x20 DUP2 ADD SWAP1 POP PUSH2 0xC36 JUMP JUMPDEST DUP7 DUP4 LT ISZERO PUSH2 0xC78 JUMPI DUP5 DUP10 ADD MLOAD PUSH2 0xC74 PUSH1 0x1F DUP10 AND DUP3 PUSH2 0xB81 JUMP JUMPDEST DUP4 SSTORE POP JUMPDEST PUSH1 0x1 PUSH1 0x2 DUP9 MUL ADD DUP9 SSTORE POP POP POP JUMPDEST POP POP POP POP POP POP JUMP JUMPDEST PUSH32 0x4E6F7420746865206F776E657200000000000000000000000000000000000000 PUSH1 0x0 DUP3 ADD MSTORE POP JUMP JUMPDEST PUSH1 0x0 PUSH2 0xCC3 PUSH1 0xD DUP4 PUSH2 0x5C7 JUMP JUMPDEST SWAP2 POP PUSH2 0xCCE DUP3 PUSH2 0xC8D JUMP JUMPDEST PUSH1 0x20 DUP3 ADD SWAP1 POP SWAP2 SWAP1 POP JUMP JUMPDEST PUSH1 0x0 PUSH1 0x20 DUP3 ADD SWAP1 POP DUP2 DUP2 SUB PUSH1 0x0 DUP4 ADD MSTORE PUSH2 0xCF2 DUP2 PUSH2 0xCB6 JUMP JUMPDEST SWAP1 POP SWAP2 SWAP1 POP JUMP INVALID LOG2 PUSH5 0x6970667358 0x22 SLT KECCAK256 PC 0xC7 PUSH3 0xCD31C6 SWAP12 0x29 0xBB SWAP12 0xF6 SWAP9 0xA9 CALLDATALOAD 0x23 PUSH31 0xFECA2BF2286A012D22692D01C925EBBF64736F6C6343000812003300000000 "
				},
				"gasEstimates": {
					"creation": {
						"codeDepositCost": "675000",
						"executionCost": "24974",
						"totalCost": "699974"
					},
					"external": {
						"addproperty(uint256,string,string,uint256,uint256)": "infinite",
						"contractowner()": "2533",
						"properties(uint256)": "infinite",
						"queryPropertyById(uint256)": "infinite",
						"transforpropertyownership(uint256,string)": "infinite"
					}
				},
				"methodIdentifiers": {
					"addproperty(uint256,string,string,uint256,uint256)": "d852e0be",
					"contractowner()": "6098c94c",
					"properties(uint256)": "f7b10808",
					"queryPropertyById(uint256)": "22f782bd",
					"transforpropertyownership(uint256,string)": "46b489d1"
				}
			},
			"storageLayout": {
				"storage": [
					{
						"astId": 3,
						"contract": "contracts/property.sol:propertyTransferApp",
						"label": "contractowner",
						"offset": 0,
						"slot": "0",
						"type": "t_address"
					},
					{
						"astId": 40,
						"contract": "contracts/property.sol:propertyTransferApp",
						"label": "properties",
						"offset": 0,
						"slot": "1",
						"type": "t_mapping(t_uint256,t_struct(property)35_storage)"
					}
				],
				"types": {
					"t_address": {
						"encoding": "inplace",
						"label": "address",
						"numberOfBytes": "20"
					},
					"t_mapping(t_uint256,t_struct(property)35_storage)": {
						"encoding": "mapping",
						"key": "t_uint256",
						"label": "mapping(uint256 => struct propertyTransferApp.property)",
						"numberOfBytes": "32",
						"value": "t_struct(property)35_storage"
					},
					"t_string_storage": {
						"encoding": "bytes",
						"label": "string",
						"numberOfBytes": "32"
					},
					"t_struct(property)35_storage": {
						"encoding": "inplace",
						"label": "struct propertyTransferApp.property",
						"members": [
							{
								"astId": 26,
								"contract": "contracts/property.sol:propertyTransferApp",
								"label": "id",
								"offset": 0,
								"slot": "0",
								"type": "t_uint256"
							},
							{
								"astId": 28,
								"contract": "contracts/property.sol:propertyTransferApp",
								"label": "name",
								"offset": 0,
								"slot": "1",
								"type": "t_string_storage"
							},
							{
								"astId": 30,
								"contract": "contracts/property.sol:propertyTransferApp",
								"label": "owner",
								"offset": 0,
								"slot": "2",
								"type": "t_string_storage"
							},
							{
								"astId": 32,
								"contract": "contracts/property.sol:propertyTransferApp",
								"label": "value",
								"offset": 0,
								"slot": "3",
								"type": "t_uint256"
							},
							{
								"astId": 34,
								"contract": "contracts/property.sol:propertyTransferApp",
								"label": "area",
								"offset": 0,
								"slot": "4",
								"type": "t_uint256"
							}
						],
						"numberOfBytes": "160"
					},
					"t_uint256": {
						"encoding": "inplace",
						"label": "uint256",
						"numberOfBytes": "32"
					}
				}
			},
			"userdoc": {
				"kind": "user",
				"methods": {},
				"version": 1
			}
		}
	}
}