{
	"contracts/cropsregistering.sol": {
		"Crops": {
			"abi": [
				{
					"inputs": [],
					"stateMutability": "nonpayable",
					"type": "constructor"
				},
				{
					"anonymous": false,
					"inputs": [
						{
							"indexed": false,
							"internalType": "address",
							"name": "owner",
							"type": "address"
						},
						{
							"indexed": false,
							"internalType": "string",
							"name": "_cropname",
							"type": "string"
						},
						{
							"indexed": false,
							"internalType": "string",
							"name": "farmlocation",
							"type": "string"
						},
						{
							"indexed": false,
							"internalType": "uint256",
							"name": "area",
							"type": "uint256"
						}
					],
					"name": "FarmRegistering",
					"type": "event"
				},
				{
					"inputs": [
						{
							"internalType": "address",
							"name": "",
							"type": "address"
						},
						{
							"internalType": "uint256",
							"name": "",
							"type": "uint256"
						}
					],
					"name": "crops",
					"outputs": [
						{
							"internalType": "string",
							"name": "farmlocation",
							"type": "string"
						},
						{
							"internalType": "string",
							"name": "cropname",
							"type": "string"
						},
						{
							"internalType": "uint256",
							"name": "area",
							"type": "uint256"
						},
						{
							"internalType": "uint256",
							"name": "time",
							"type": "uint256"
						}
					],
					"stateMutability": "view",
					"type": "function"
				},
				{
					"inputs": [],
					"name": "farmer",
					"outputs": [
						{
							"internalType": "address",
							"name": "",
							"type": "address"
						}
					],
					"stateMutability": "view",
					"type": "function"
				},
				{
					"inputs": [
						{
							"internalType": "address",
							"name": "_add",
							"type": "address"
						},
						{
							"internalType": "uint256",
							"name": "_id",
							"type": "uint256"
						},
						{
							"internalType": "string",
							"name": "_farmlocation",
							"type": "string"
						},
						{
							"internalType": "string",
							"name": "_cropname",
							"type": "string"
						},
						{
							"internalType": "uint256",
							"name": "_area",
							"type": "uint256"
						}
					],
					"name": "register",
					"outputs": [],
					"stateMutability": "nonpayable",
					"type": "function"
				},
				{
					"inputs": [
						{
							"internalType": "address",
							"name": "_add",
							"type": "address"
						},
						{
							"internalType": "uint256",
							"name": "_id",
							"type": "uint256"
						},
						{
							"internalType": "string",
							"name": "_cropname",
							"type": "string"
						},
						{
							"internalType": "string",
							"name": "_farmlocation",
							"type": "string"
						},
						{
							"internalType": "uint256",
							"name": "_area",
							"type": "uint256"
						}
					],
					"name": "updateCrops",
					"outputs": [],
					"stateMutability": "nonpayable",
					"type": "function"
				}
			],
			"devdoc": {
				"kind": "dev",
				"methods": {},
				"version": 1
			},
			"evm": {
				"assembly": "    /* \"contracts/cropsregistering.sol\":57:1488  contract Crops{... */\n  mstore(0x40, 0x80)\n    /* \"contracts/cropsregistering.sol\":221:272  constructor(){... */\n  callvalue\n  dup1\n  iszero\n  tag_1\n  jumpi\n  0x00\n  dup1\n  revert\ntag_1:\n  pop\n    /* \"contracts/cropsregistering.sol\":254:264  msg.sender */\n  caller\n    /* \"contracts/cropsregistering.sol\":245:251  farmer */\n  0x00\n  dup1\n    /* \"contracts/cropsregistering.sol\":245:264  farmer = msg.sender */\n  0x0100\n  exp\n  dup2\n  sload\n  dup2\n  0xffffffffffffffffffffffffffffffffffffffff\n  mul\n  not\n  and\n  swap1\n  dup4\n  0xffffffffffffffffffffffffffffffffffffffff\n  and\n  mul\n  or\n  swap1\n  sstore\n  pop\n    /* \"contracts/cropsregistering.sol\":57:1488  contract Crops{... */\n  dataSize(sub_0)\n  dup1\n  dataOffset(sub_0)\n  0x00\n  codecopy\n  0x00\n  return\nstop\n\nsub_0: assembly {\n        /* \"contracts/cropsregistering.sol\":57:1488  contract Crops{... */\n      mstore(0x40, 0x80)\n      callvalue\n      dup1\n      iszero\n      tag_1\n      jumpi\n      0x00\n      dup1\n      revert\n    tag_1:\n      pop\n      jumpi(tag_2, lt(calldatasize, 0x04))\n      shr(0xe0, calldataload(0x00))\n      dup1\n      0x012b28c6\n      eq\n      tag_3\n      jumpi\n      dup1\n      0x3e31ece2\n      eq\n      tag_4\n      jumpi\n      dup1\n      0xa4a123f1\n      eq\n      tag_5\n      jumpi\n      dup1\n      0xd811fcf0\n      eq\n      tag_6\n      jumpi\n    tag_2:\n      0x00\n      dup1\n      revert\n        /* \"contracts/cropsregistering.sol\":556:1210  function register(address _add,uint _id,string memory _farmlocation,string memory _cropname,uint _area) external {... */\n    tag_3:\n      tag_7\n      0x04\n      dup1\n      calldatasize\n      sub\n      dup2\n      add\n      swap1\n      tag_8\n      swap2\n      swap1\n      tag_9\n      jump\t// in\n    tag_8:\n      tag_10\n      jump\t// in\n    tag_7:\n      stop\n        /* \"contracts/cropsregistering.sol\":1216:1483  function updateCrops(address _add,uint _id,string memory _cropname, string memory _farmlocation,uint _area) public {... */\n    tag_4:\n      tag_11\n      0x04\n      dup1\n      calldatasize\n      sub\n      dup2\n      add\n      swap1\n      tag_12\n      swap2\n      swap1\n      tag_9\n      jump\t// in\n    tag_12:\n      tag_13\n      jump\t// in\n    tag_11:\n      stop\n        /* \"contracts/cropsregistering.sol\":401:456  mapping(address =>mapping(uint => Farmer)) public crops */\n    tag_5:\n      tag_14\n      0x04\n      dup1\n      calldatasize\n      sub\n      dup2\n      add\n      swap1\n      tag_15\n      swap2\n      swap1\n      tag_16\n      jump\t// in\n    tag_15:\n      tag_17\n      jump\t// in\n    tag_14:\n      mload(0x40)\n      tag_18\n      swap5\n      swap4\n      swap3\n      swap2\n      swap1\n      tag_19\n      jump\t// in\n    tag_18:\n      mload(0x40)\n      dup1\n      swap2\n      sub\n      swap1\n      return\n        /* \"contracts/cropsregistering.sol\":78:99  address public farmer */\n    tag_6:\n      tag_20\n      tag_21\n      jump\t// in\n    tag_20:\n      mload(0x40)\n      tag_22\n      swap2\n      swap1\n      tag_23\n      jump\t// in\n    tag_22:\n      mload(0x40)\n      dup1\n      swap2\n      sub\n      swap1\n      return\n        /* \"contracts/cropsregistering.sol\":556:1210  function register(address _add,uint _id,string memory _farmlocation,string memory _cropname,uint _area) external {... */\n    tag_10:\n        /* \"contracts/cropsregistering.sol\":714:715  0 */\n      0x00\n        /* \"contracts/cropsregistering.sol\":694:703  _cropname */\n      dup3\n        /* \"contracts/cropsregistering.sol\":688:711  bytes(_cropname).length */\n      mload\n        /* \"contracts/cropsregistering.sol\":688:715  bytes(_cropname).length > 0 */\n      gt\n        /* \"contracts/cropsregistering.sol\":680:749  require(bytes(_cropname).length > 0, \"Crop name should not be empty\") */\n      tag_25\n      jumpi\n      mload(0x40)\n      0x08c379a000000000000000000000000000000000000000000000000000000000\n      dup2\n      mstore\n      0x04\n      add\n      tag_26\n      swap1\n      tag_27\n      jump\t// in\n    tag_26:\n      mload(0x40)\n      dup1\n      swap2\n      sub\n      swap1\n      revert\n    tag_25:\n        /* \"contracts/cropsregistering.sol\":798:799  0 */\n      0x00\n        /* \"contracts/cropsregistering.sol\":774:787  _farmlocation */\n      dup4\n        /* \"contracts/cropsregistering.sol\":768:795  bytes(_farmlocation).length */\n      mload\n        /* \"contracts/cropsregistering.sol\":768:799  bytes(_farmlocation).length > 0 */\n      gt\n        /* \"contracts/cropsregistering.sol\":760:832  require(bytes(_farmlocation).length > 0, \"Location should be specified\") */\n      tag_28\n      jumpi\n      mload(0x40)\n      0x08c379a000000000000000000000000000000000000000000000000000000000\n      dup2\n      mstore\n      0x04\n      add\n      tag_29\n      swap1\n      tag_30\n      jump\t// in\n    tag_29:\n      mload(0x40)\n      dup1\n      swap2\n      sub\n      swap1\n      revert\n    tag_28:\n        /* \"contracts/cropsregistering.sol\":859:860  0 */\n      0x00\n        /* \"contracts/cropsregistering.sol\":851:856  _area */\n      dup2\n        /* \"contracts/cropsregistering.sol\":851:860  _area > 0 */\n      gt\n        /* \"contracts/cropsregistering.sol\":843:897  require(_area > 0, \"Area should be greater than zero\") */\n      tag_31\n      jumpi\n      mload(0x40)\n      0x08c379a000000000000000000000000000000000000000000000000000000000\n      dup2\n      mstore\n      0x04\n      add\n      tag_32\n      swap1\n      tag_33\n      jump\t// in\n    tag_32:\n      mload(0x40)\n      dup1\n      swap2\n      sub\n      swap1\n      revert\n    tag_31:\n        /* \"contracts/cropsregistering.sol\":922:923  0 */\n      0x00\n        /* \"contracts/cropsregistering.sol\":916:919  _id */\n      dup5\n        /* \"contracts/cropsregistering.sol\":916:923  _id > 0 */\n      gt\n        /* \"contracts/cropsregistering.sol\":908:941  require(_id > 0,\"ID is required\") */\n      tag_34\n      jumpi\n      mload(0x40)\n      0x08c379a000000000000000000000000000000000000000000000000000000000\n      dup2\n      mstore\n      0x04\n      add\n      tag_35\n      swap1\n      tag_36\n      jump\t// in\n    tag_35:\n      mload(0x40)\n      dup1\n      swap2\n      sub\n      swap1\n      revert\n    tag_34:\n        /* \"contracts/cropsregistering.sol\":984:997  _farmlocation */\n      dup3\n        /* \"contracts/cropsregistering.sol\":952:957  crops */\n      0x01\n        /* \"contracts/cropsregistering.sol\":952:963  crops[_add] */\n      0x00\n        /* \"contracts/cropsregistering.sol\":958:962  _add */\n      dup8\n        /* \"contracts/cropsregistering.sol\":952:963  crops[_add] */\n      0xffffffffffffffffffffffffffffffffffffffff\n      and\n      0xffffffffffffffffffffffffffffffffffffffff\n      and\n      dup2\n      mstore\n      0x20\n      add\n      swap1\n      dup2\n      mstore\n      0x20\n      add\n      0x00\n      keccak256\n        /* \"contracts/cropsregistering.sol\":952:968  crops[_add][_id] */\n      0x00\n        /* \"contracts/cropsregistering.sol\":964:967  _id */\n      dup7\n        /* \"contracts/cropsregistering.sol\":952:968  crops[_add][_id] */\n      dup2\n      mstore\n      0x20\n      add\n      swap1\n      dup2\n      mstore\n      0x20\n      add\n      0x00\n      keccak256\n        /* \"contracts/cropsregistering.sol\":952:981  crops[_add][_id].farmlocation */\n      0x00\n      add\n        /* \"contracts/cropsregistering.sol\":952:997  crops[_add][_id].farmlocation = _farmlocation */\n      swap1\n      dup2\n      tag_37\n      swap2\n      swap1\n      tag_38\n      jump\t// in\n    tag_37:\n      pop\n        /* \"contracts/cropsregistering.sol\":1036:1045  _cropname */\n      dup2\n        /* \"contracts/cropsregistering.sol\":1008:1013  crops */\n      0x01\n        /* \"contracts/cropsregistering.sol\":1008:1019  crops[_add] */\n      0x00\n        /* \"contracts/cropsregistering.sol\":1014:1018  _add */\n      dup8\n        /* \"contracts/cropsregistering.sol\":1008:1019  crops[_add] */\n      0xffffffffffffffffffffffffffffffffffffffff\n      and\n      0xffffffffffffffffffffffffffffffffffffffff\n      and\n      dup2\n      mstore\n      0x20\n      add\n      swap1\n      dup2\n      mstore\n      0x20\n      add\n      0x00\n      keccak256\n        /* \"contracts/cropsregistering.sol\":1008:1024  crops[_add][_id] */\n      0x00\n        /* \"contracts/cropsregistering.sol\":1020:1023  _id */\n      dup7\n        /* \"contracts/cropsregistering.sol\":1008:1024  crops[_add][_id] */\n      dup2\n      mstore\n      0x20\n      add\n      swap1\n      dup2\n      mstore\n      0x20\n      add\n      0x00\n      keccak256\n        /* \"contracts/cropsregistering.sol\":1008:1033  crops[_add][_id].cropname */\n      0x01\n      add\n        /* \"contracts/cropsregistering.sol\":1008:1045  crops[_add][_id].cropname = _cropname */\n      swap1\n      dup2\n      tag_39\n      swap2\n      swap1\n      tag_38\n      jump\t// in\n    tag_39:\n      pop\n        /* \"contracts/cropsregistering.sol\":1080:1085  _area */\n      dup1\n        /* \"contracts/cropsregistering.sol\":1056:1061  crops */\n      0x01\n        /* \"contracts/cropsregistering.sol\":1056:1067  crops[_add] */\n      0x00\n        /* \"contracts/cropsregistering.sol\":1062:1066  _add */\n      dup8\n        /* \"contracts/cropsregistering.sol\":1056:1067  crops[_add] */\n      0xffffffffffffffffffffffffffffffffffffffff\n      and\n      0xffffffffffffffffffffffffffffffffffffffff\n      and\n      dup2\n      mstore\n      0x20\n      add\n      swap1\n      dup2\n      mstore\n      0x20\n      add\n      0x00\n      keccak256\n        /* \"contracts/cropsregistering.sol\":1056:1072  crops[_add][_id] */\n      0x00\n        /* \"contracts/cropsregistering.sol\":1068:1071  _id */\n      dup7\n        /* \"contracts/cropsregistering.sol\":1056:1072  crops[_add][_id] */\n      dup2\n      mstore\n      0x20\n      add\n      swap1\n      dup2\n      mstore\n      0x20\n      add\n      0x00\n      keccak256\n        /* \"contracts/cropsregistering.sol\":1056:1077  crops[_add][_id].area */\n      0x02\n      add\n        /* \"contracts/cropsregistering.sol\":1056:1085  crops[_add][_id].area = _area */\n      dup2\n      swap1\n      sstore\n      pop\n        /* \"contracts/cropsregistering.sol\":1120:1135  block.timestamp */\n      timestamp\n        /* \"contracts/cropsregistering.sol\":1096:1101  crops */\n      0x01\n        /* \"contracts/cropsregistering.sol\":1096:1107  crops[_add] */\n      0x00\n        /* \"contracts/cropsregistering.sol\":1102:1106  _add */\n      dup8\n        /* \"contracts/cropsregistering.sol\":1096:1107  crops[_add] */\n      0xffffffffffffffffffffffffffffffffffffffff\n      and\n      0xffffffffffffffffffffffffffffffffffffffff\n      and\n      dup2\n      mstore\n      0x20\n      add\n      swap1\n      dup2\n      mstore\n      0x20\n      add\n      0x00\n      keccak256\n        /* \"contracts/cropsregistering.sol\":1096:1112  crops[_add][_id] */\n      0x00\n        /* \"contracts/cropsregistering.sol\":1108:1111  _id */\n      dup7\n        /* \"contracts/cropsregistering.sol\":1096:1112  crops[_add][_id] */\n      dup2\n      mstore\n      0x20\n      add\n      swap1\n      dup2\n      mstore\n      0x20\n      add\n      0x00\n      keccak256\n        /* \"contracts/cropsregistering.sol\":1096:1117  crops[_add][_id].time */\n      0x03\n      add\n        /* \"contracts/cropsregistering.sol\":1096:1135  crops[_add][_id].time = block.timestamp */\n      dup2\n      swap1\n      sstore\n      pop\n        /* \"contracts/cropsregistering.sol\":1151:1202  FarmRegistering(_add,_cropname,_farmlocation,_area) */\n      0x68cfe24f3b199f2f9eec2a8366b7db82a917e6f607a67cf1c8fc94111c9370c6\n        /* \"contracts/cropsregistering.sol\":1167:1171  _add */\n      dup6\n        /* \"contracts/cropsregistering.sol\":1172:1181  _cropname */\n      dup4\n        /* \"contracts/cropsregistering.sol\":1182:1195  _farmlocation */\n      dup6\n        /* \"contracts/cropsregistering.sol\":1196:1201  _area */\n      dup5\n        /* \"contracts/cropsregistering.sol\":1151:1202  FarmRegistering(_add,_cropname,_farmlocation,_area) */\n      mload(0x40)\n      tag_40\n      swap5\n      swap4\n      swap3\n      swap2\n      swap1\n      tag_41\n      jump\t// in\n    tag_40:\n      mload(0x40)\n      dup1\n      swap2\n      sub\n      swap1\n      log1\n        /* \"contracts/cropsregistering.sol\":556:1210  function register(address _add,uint _id,string memory _farmlocation,string memory _cropname,uint _area) external {... */\n      pop\n      pop\n      pop\n      pop\n      pop\n      jump\t// out\n        /* \"contracts/cropsregistering.sol\":1216:1483  function updateCrops(address _add,uint _id,string memory _cropname, string memory _farmlocation,uint _area) public {... */\n    tag_13:\n        /* \"contracts/cropsregistering.sol\":1370:1379  _cropname */\n      dup3\n        /* \"contracts/cropsregistering.sol\":1342:1347  crops */\n      0x01\n        /* \"contracts/cropsregistering.sol\":1342:1353  crops[_add] */\n      0x00\n        /* \"contracts/cropsregistering.sol\":1348:1352  _add */\n      dup8\n        /* \"contracts/cropsregistering.sol\":1342:1353  crops[_add] */\n      0xffffffffffffffffffffffffffffffffffffffff\n      and\n      0xffffffffffffffffffffffffffffffffffffffff\n      and\n      dup2\n      mstore\n      0x20\n      add\n      swap1\n      dup2\n      mstore\n      0x20\n      add\n      0x00\n      keccak256\n        /* \"contracts/cropsregistering.sol\":1342:1358  crops[_add][_id] */\n      0x00\n        /* \"contracts/cropsregistering.sol\":1354:1357  _id */\n      dup7\n        /* \"contracts/cropsregistering.sol\":1342:1358  crops[_add][_id] */\n      dup2\n      mstore\n      0x20\n      add\n      swap1\n      dup2\n      mstore\n      0x20\n      add\n      0x00\n      keccak256\n        /* \"contracts/cropsregistering.sol\":1342:1367  crops[_add][_id].cropname */\n      0x01\n      add\n        /* \"contracts/cropsregistering.sol\":1342:1379  crops[_add][_id].cropname = _cropname */\n      swap1\n      dup2\n      tag_43\n      swap2\n      swap1\n      tag_38\n      jump\t// in\n    tag_43:\n      pop\n        /* \"contracts/cropsregistering.sol\":1414:1419  _area */\n      dup1\n        /* \"contracts/cropsregistering.sol\":1390:1395  crops */\n      0x01\n        /* \"contracts/cropsregistering.sol\":1390:1401  crops[_add] */\n      0x00\n        /* \"contracts/cropsregistering.sol\":1396:1400  _add */\n      dup8\n        /* \"contracts/cropsregistering.sol\":1390:1401  crops[_add] */\n      0xffffffffffffffffffffffffffffffffffffffff\n      and\n      0xffffffffffffffffffffffffffffffffffffffff\n      and\n      dup2\n      mstore\n      0x20\n      add\n      swap1\n      dup2\n      mstore\n      0x20\n      add\n      0x00\n      keccak256\n        /* \"contracts/cropsregistering.sol\":1390:1406  crops[_add][_id] */\n      0x00\n        /* \"contracts/cropsregistering.sol\":1402:1405  _id */\n      dup7\n        /* \"contracts/cropsregistering.sol\":1390:1406  crops[_add][_id] */\n      dup2\n      mstore\n      0x20\n      add\n      swap1\n      dup2\n      mstore\n      0x20\n      add\n      0x00\n      keccak256\n        /* \"contracts/cropsregistering.sol\":1390:1411  crops[_add][_id].area */\n      0x02\n      add\n        /* \"contracts/cropsregistering.sol\":1390:1419  crops[_add][_id].area = _area */\n      dup2\n      swap1\n      sstore\n      pop\n        /* \"contracts/cropsregistering.sol\":1462:1475  _farmlocation */\n      dup2\n        /* \"contracts/cropsregistering.sol\":1430:1435  crops */\n      0x01\n        /* \"contracts/cropsregistering.sol\":1430:1441  crops[_add] */\n      0x00\n        /* \"contracts/cropsregistering.sol\":1436:1440  _add */\n      dup8\n        /* \"contracts/cropsregistering.sol\":1430:1441  crops[_add] */\n      0xffffffffffffffffffffffffffffffffffffffff\n      and\n      0xffffffffffffffffffffffffffffffffffffffff\n      and\n      dup2\n      mstore\n      0x20\n      add\n      swap1\n      dup2\n      mstore\n      0x20\n      add\n      0x00\n      keccak256\n        /* \"contracts/cropsregistering.sol\":1430:1446  crops[_add][_id] */\n      0x00\n        /* \"contracts/cropsregistering.sol\":1442:1445  _id */\n      dup7\n        /* \"contracts/cropsregistering.sol\":1430:1446  crops[_add][_id] */\n      dup2\n      mstore\n      0x20\n      add\n      swap1\n      dup2\n      mstore\n      0x20\n      add\n      0x00\n      keccak256\n        /* \"contracts/cropsregistering.sol\":1430:1459  crops[_add][_id].farmlocation */\n      0x00\n      add\n        /* \"contracts/cropsregistering.sol\":1430:1475  crops[_add][_id].farmlocation = _farmlocation */\n      swap1\n      dup2\n      tag_44\n      swap2\n      swap1\n      tag_38\n      jump\t// in\n    tag_44:\n      pop\n        /* \"contracts/cropsregistering.sol\":1216:1483  function updateCrops(address _add,uint _id,string memory _cropname, string memory _farmlocation,uint _area) public {... */\n      pop\n      pop\n      pop\n      pop\n      pop\n      jump\t// out\n        /* \"contracts/cropsregistering.sol\":401:456  mapping(address =>mapping(uint => Farmer)) public crops */\n    tag_17:\n      mstore(0x20, 0x01)\n      dup2\n      0x00\n      mstore\n      mstore(0x20, keccak256(0x00, 0x40))\n      dup1\n      0x00\n      mstore\n      keccak256(0x00, 0x40)\n      0x00\n      swap2\n      pop\n      swap2\n      pop\n      pop\n      dup1\n      0x00\n      add\n      dup1\n      sload\n      tag_45\n      swap1\n      tag_46\n      jump\t// in\n    tag_45:\n      dup1\n      0x1f\n      add\n      0x20\n      dup1\n      swap2\n      div\n      mul\n      0x20\n      add\n      mload(0x40)\n      swap1\n      dup2\n      add\n      0x40\n      mstore\n      dup1\n      swap3\n      swap2\n      swap1\n      dup2\n      dup2\n      mstore\n      0x20\n      add\n      dup3\n      dup1\n      sload\n      tag_47\n      swap1\n      tag_46\n      jump\t// in\n    tag_47:\n      dup1\n      iszero\n      tag_48\n      jumpi\n      dup1\n      0x1f\n      lt\n      tag_49\n      jumpi\n      0x0100\n      dup1\n      dup4\n      sload\n      div\n      mul\n      dup4\n      mstore\n      swap2\n      0x20\n      add\n      swap2\n      jump(tag_48)\n    tag_49:\n      dup3\n      add\n      swap2\n      swap1\n      0x00\n      mstore\n      keccak256(0x00, 0x20)\n      swap1\n    tag_50:\n      dup2\n      sload\n      dup2\n      mstore\n      swap1\n      0x01\n      add\n      swap1\n      0x20\n      add\n      dup1\n      dup4\n      gt\n      tag_50\n      jumpi\n      dup3\n      swap1\n      sub\n      0x1f\n      and\n      dup3\n      add\n      swap2\n    tag_48:\n      pop\n      pop\n      pop\n      pop\n      pop\n      swap1\n      dup1\n      0x01\n      add\n      dup1\n      sload\n      tag_51\n      swap1\n      tag_46\n      jump\t// in\n    tag_51:\n      dup1\n      0x1f\n      add\n      0x20\n      dup1\n      swap2\n      div\n      mul\n      0x20\n      add\n      mload(0x40)\n      swap1\n      dup2\n      add\n      0x40\n      mstore\n      dup1\n      swap3\n      swap2\n      swap1\n      dup2\n      dup2\n      mstore\n      0x20\n      add\n      dup3\n      dup1\n      sload\n      tag_52\n      swap1\n      tag_46\n      jump\t// in\n    tag_52:\n      dup1\n      iszero\n      tag_53\n      jumpi\n      dup1\n      0x1f\n      lt\n      tag_54\n      jumpi\n      0x0100\n      dup1\n      dup4\n      sload\n      div\n      mul\n      dup4\n      mstore\n      swap2\n      0x20\n      add\n      swap2\n      jump(tag_53)\n    tag_54:\n      dup3\n      add\n      swap2\n      swap1\n      0x00\n      mstore\n      keccak256(0x00, 0x20)\n      swap1\n    tag_55:\n      dup2\n      sload\n      dup2\n      mstore\n      swap1\n      0x01\n      add\n      swap1\n      0x20\n      add\n      dup1\n      dup4\n      gt\n      tag_55\n      jumpi\n      dup3\n      swap1\n      sub\n      0x1f\n      and\n      dup3\n      add\n      swap2\n    tag_53:\n      pop\n      pop\n      pop\n      pop\n      pop\n      swap1\n      dup1\n      0x02\n      add\n      sload\n      swap1\n      dup1\n      0x03\n      add\n      sload\n      swap1\n      pop\n      dup5\n      jump\t// out\n        /* \"contracts/cropsregistering.sol\":78:99  address public farmer */\n    tag_21:\n      0x00\n      dup1\n      sload\n      swap1\n      0x0100\n      exp\n      swap1\n      div\n      0xffffffffffffffffffffffffffffffffffffffff\n      and\n      dup2\n      jump\t// out\n        /* \"#utility.yul\":7:82   */\n    tag_56:\n        /* \"#utility.yul\":40:46   */\n      0x00\n        /* \"#utility.yul\":73:75   */\n      0x40\n        /* \"#utility.yul\":67:76   */\n      mload\n        /* \"#utility.yul\":57:76   */\n      swap1\n      pop\n        /* \"#utility.yul\":7:82   */\n      swap1\n      jump\t// out\n        /* \"#utility.yul\":88:205   */\n    tag_57:\n        /* \"#utility.yul\":197:198   */\n      0x00\n        /* \"#utility.yul\":194:195   */\n      dup1\n        /* \"#utility.yul\":187:199   */\n      revert\n        /* \"#utility.yul\":211:328   */\n    tag_58:\n        /* \"#utility.yul\":320:321   */\n      0x00\n        /* \"#utility.yul\":317:318   */\n      dup1\n        /* \"#utility.yul\":310:322   */\n      revert\n        /* \"#utility.yul\":334:460   */\n    tag_59:\n        /* \"#utility.yul\":371:378   */\n      0x00\n        /* \"#utility.yul\":411:453   */\n      0xffffffffffffffffffffffffffffffffffffffff\n        /* \"#utility.yul\":404:409   */\n      dup3\n        /* \"#utility.yul\":400:454   */\n      and\n        /* \"#utility.yul\":389:454   */\n      swap1\n      pop\n        /* \"#utility.yul\":334:460   */\n      swap2\n      swap1\n      pop\n      jump\t// out\n        /* \"#utility.yul\":466:562   */\n    tag_60:\n        /* \"#utility.yul\":503:510   */\n      0x00\n        /* \"#utility.yul\":532:556   */\n      tag_112\n        /* \"#utility.yul\":550:555   */\n      dup3\n        /* \"#utility.yul\":532:556   */\n      tag_59\n      jump\t// in\n    tag_112:\n        /* \"#utility.yul\":521:556   */\n      swap1\n      pop\n        /* \"#utility.yul\":466:562   */\n      swap2\n      swap1\n      pop\n      jump\t// out\n        /* \"#utility.yul\":568:690   */\n    tag_61:\n        /* \"#utility.yul\":641:665   */\n      tag_114\n        /* \"#utility.yul\":659:664   */\n      dup2\n        /* \"#utility.yul\":641:665   */\n      tag_60\n      jump\t// in\n    tag_114:\n        /* \"#utility.yul\":634:639   */\n      dup2\n        /* \"#utility.yul\":631:666   */\n      eq\n        /* \"#utility.yul\":621:684   */\n      tag_115\n      jumpi\n        /* \"#utility.yul\":680:681   */\n      0x00\n        /* \"#utility.yul\":677:678   */\n      dup1\n        /* \"#utility.yul\":670:682   */\n      revert\n        /* \"#utility.yul\":621:684   */\n    tag_115:\n        /* \"#utility.yul\":568:690   */\n      pop\n      jump\t// out\n        /* \"#utility.yul\":696:835   */\n    tag_62:\n        /* \"#utility.yul\":742:747   */\n      0x00\n        /* \"#utility.yul\":780:786   */\n      dup2\n        /* \"#utility.yul\":767:787   */\n      calldataload\n        /* \"#utility.yul\":758:787   */\n      swap1\n      pop\n        /* \"#utility.yul\":796:829   */\n      tag_117\n        /* \"#utility.yul\":823:828   */\n      dup2\n        /* \"#utility.yul\":796:829   */\n      tag_61\n      jump\t// in\n    tag_117:\n        /* \"#utility.yul\":696:835   */\n      swap3\n      swap2\n      pop\n      pop\n      jump\t// out\n        /* \"#utility.yul\":841:918   */\n    tag_63:\n        /* \"#utility.yul\":878:885   */\n      0x00\n        /* \"#utility.yul\":907:912   */\n      dup2\n        /* \"#utility.yul\":896:912   */\n      swap1\n      pop\n        /* \"#utility.yul\":841:918   */\n      swap2\n      swap1\n      pop\n      jump\t// out\n        /* \"#utility.yul\":924:1046   */\n    tag_64:\n        /* \"#utility.yul\":997:1021   */\n      tag_120\n        /* \"#utility.yul\":1015:1020   */\n      dup2\n        /* \"#utility.yul\":997:1021   */\n      tag_63\n      jump\t// in\n    tag_120:\n        /* \"#utility.yul\":990:995   */\n      dup2\n        /* \"#utility.yul\":987:1022   */\n      eq\n        /* \"#utility.yul\":977:1040   */\n      tag_121\n      jumpi\n        /* \"#utility.yul\":1036:1037   */\n      0x00\n        /* \"#utility.yul\":1033:1034   */\n      dup1\n        /* \"#utility.yul\":1026:1038   */\n      revert\n        /* \"#utility.yul\":977:1040   */\n    tag_121:\n        /* \"#utility.yul\":924:1046   */\n      pop\n      jump\t// out\n        /* \"#utility.yul\":1052:1191   */\n    tag_65:\n        /* \"#utility.yul\":1098:1103   */\n      0x00\n        /* \"#utility.yul\":1136:1142   */\n      dup2\n        /* \"#utility.yul\":1123:1143   */\n      calldataload\n        /* \"#utility.yul\":1114:1143   */\n      swap1\n      pop\n        /* \"#utility.yul\":1152:1185   */\n      tag_123\n        /* \"#utility.yul\":1179:1184   */\n      dup2\n        /* \"#utility.yul\":1152:1185   */\n      tag_64\n      jump\t// in\n    tag_123:\n        /* \"#utility.yul\":1052:1191   */\n      swap3\n      swap2\n      pop\n      pop\n      jump\t// out\n        /* \"#utility.yul\":1197:1314   */\n    tag_66:\n        /* \"#utility.yul\":1306:1307   */\n      0x00\n        /* \"#utility.yul\":1303:1304   */\n      dup1\n        /* \"#utility.yul\":1296:1308   */\n      revert\n        /* \"#utility.yul\":1320:1437   */\n    tag_67:\n        /* \"#utility.yul\":1429:1430   */\n      0x00\n        /* \"#utility.yul\":1426:1427   */\n      dup1\n        /* \"#utility.yul\":1419:1431   */\n      revert\n        /* \"#utility.yul\":1443:1545   */\n    tag_68:\n        /* \"#utility.yul\":1484:1490   */\n      0x00\n        /* \"#utility.yul\":1535:1537   */\n      0x1f\n        /* \"#utility.yul\":1531:1538   */\n      not\n        /* \"#utility.yul\":1526:1528   */\n      0x1f\n        /* \"#utility.yul\":1519:1524   */\n      dup4\n        /* \"#utility.yul\":1515:1529   */\n      add\n        /* \"#utility.yul\":1511:1539   */\n      and\n        /* \"#utility.yul\":1501:1539   */\n      swap1\n      pop\n        /* \"#utility.yul\":1443:1545   */\n      swap2\n      swap1\n      pop\n      jump\t// out\n        /* \"#utility.yul\":1551:1731   */\n    tag_69:\n        /* \"#utility.yul\":1599:1676   */\n      0x4e487b7100000000000000000000000000000000000000000000000000000000\n        /* \"#utility.yul\":1596:1597   */\n      0x00\n        /* \"#utility.yul\":1589:1677   */\n      mstore\n        /* \"#utility.yul\":1696:1700   */\n      0x41\n        /* \"#utility.yul\":1693:1694   */\n      0x04\n        /* \"#utility.yul\":1686:1701   */\n      mstore\n        /* \"#utility.yul\":1720:1724   */\n      0x24\n        /* \"#utility.yul\":1717:1718   */\n      0x00\n        /* \"#utility.yul\":1710:1725   */\n      revert\n        /* \"#utility.yul\":1737:2018   */\n    tag_70:\n        /* \"#utility.yul\":1820:1847   */\n      tag_129\n        /* \"#utility.yul\":1842:1846   */\n      dup3\n        /* \"#utility.yul\":1820:1847   */\n      tag_68\n      jump\t// in\n    tag_129:\n        /* \"#utility.yul\":1812:1818   */\n      dup2\n        /* \"#utility.yul\":1808:1848   */\n      add\n        /* \"#utility.yul\":1950:1956   */\n      dup2\n        /* \"#utility.yul\":1938:1948   */\n      dup2\n        /* \"#utility.yul\":1935:1957   */\n      lt\n        /* \"#utility.yul\":1914:1932   */\n      0xffffffffffffffff\n        /* \"#utility.yul\":1902:1912   */\n      dup3\n        /* \"#utility.yul\":1899:1933   */\n      gt\n        /* \"#utility.yul\":1896:1958   */\n      or\n        /* \"#utility.yul\":1893:1981   */\n      iszero\n      tag_130\n      jumpi\n        /* \"#utility.yul\":1961:1979   */\n      tag_131\n      tag_69\n      jump\t// in\n    tag_131:\n        /* \"#utility.yul\":1893:1981   */\n    tag_130:\n        /* \"#utility.yul\":2001:2011   */\n      dup1\n        /* \"#utility.yul\":1997:1999   */\n      0x40\n        /* \"#utility.yul\":1990:2012   */\n      mstore\n        /* \"#utility.yul\":1780:2018   */\n      pop\n        /* \"#utility.yul\":1737:2018   */\n      pop\n      pop\n      jump\t// out\n        /* \"#utility.yul\":2024:2153   */\n    tag_71:\n        /* \"#utility.yul\":2058:2064   */\n      0x00\n        /* \"#utility.yul\":2085:2105   */\n      tag_133\n      tag_56\n      jump\t// in\n    tag_133:\n        /* \"#utility.yul\":2075:2105   */\n      swap1\n      pop\n        /* \"#utility.yul\":2114:2147   */\n      tag_134\n        /* \"#utility.yul\":2142:2146   */\n      dup3\n        /* \"#utility.yul\":2134:2140   */\n      dup3\n        /* \"#utility.yul\":2114:2147   */\n      tag_70\n      jump\t// in\n    tag_134:\n        /* \"#utility.yul\":2024:2153   */\n      swap2\n      swap1\n      pop\n      jump\t// out\n        /* \"#utility.yul\":2159:2467   */\n    tag_72:\n        /* \"#utility.yul\":2221:2225   */\n      0x00\n        /* \"#utility.yul\":2311:2329   */\n      0xffffffffffffffff\n        /* \"#utility.yul\":2303:2309   */\n      dup3\n        /* \"#utility.yul\":2300:2330   */\n      gt\n        /* \"#utility.yul\":2297:2353   */\n      iszero\n      tag_136\n      jumpi\n        /* \"#utility.yul\":2333:2351   */\n      tag_137\n      tag_69\n      jump\t// in\n    tag_137:\n        /* \"#utility.yul\":2297:2353   */\n    tag_136:\n        /* \"#utility.yul\":2371:2400   */\n      tag_138\n        /* \"#utility.yul\":2393:2399   */\n      dup3\n        /* \"#utility.yul\":2371:2400   */\n      tag_68\n      jump\t// in\n    tag_138:\n        /* \"#utility.yul\":2363:2400   */\n      swap1\n      pop\n        /* \"#utility.yul\":2455:2459   */\n      0x20\n        /* \"#utility.yul\":2449:2453   */\n      dup2\n        /* \"#utility.yul\":2445:2460   */\n      add\n        /* \"#utility.yul\":2437:2460   */\n      swap1\n      pop\n        /* \"#utility.yul\":2159:2467   */\n      swap2\n      swap1\n      pop\n      jump\t// out\n        /* \"#utility.yul\":2473:2619   */\n    tag_73:\n        /* \"#utility.yul\":2570:2576   */\n      dup3\n        /* \"#utility.yul\":2565:2568   */\n      dup2\n        /* \"#utility.yul\":2560:2563   */\n      dup4\n        /* \"#utility.yul\":2547:2577   */\n      calldatacopy\n        /* \"#utility.yul\":2611:2612   */\n      0x00\n        /* \"#utility.yul\":2602:2608   */\n      dup4\n        /* \"#utility.yul\":2597:2600   */\n      dup4\n        /* \"#utility.yul\":2593:2609   */\n      add\n        /* \"#utility.yul\":2586:2613   */\n      mstore\n        /* \"#utility.yul\":2473:2619   */\n      pop\n      pop\n      pop\n      jump\t// out\n        /* \"#utility.yul\":2625:3050   */\n    tag_74:\n        /* \"#utility.yul\":2703:2708   */\n      0x00\n        /* \"#utility.yul\":2728:2794   */\n      tag_141\n        /* \"#utility.yul\":2744:2793   */\n      tag_142\n        /* \"#utility.yul\":2786:2792   */\n      dup5\n        /* \"#utility.yul\":2744:2793   */\n      tag_72\n      jump\t// in\n    tag_142:\n        /* \"#utility.yul\":2728:2794   */\n      tag_71\n      jump\t// in\n    tag_141:\n        /* \"#utility.yul\":2719:2794   */\n      swap1\n      pop\n        /* \"#utility.yul\":2817:2823   */\n      dup3\n        /* \"#utility.yul\":2810:2815   */\n      dup2\n        /* \"#utility.yul\":2803:2824   */\n      mstore\n        /* \"#utility.yul\":2855:2859   */\n      0x20\n        /* \"#utility.yul\":2848:2853   */\n      dup2\n        /* \"#utility.yul\":2844:2860   */\n      add\n        /* \"#utility.yul\":2893:2896   */\n      dup5\n        /* \"#utility.yul\":2884:2890   */\n      dup5\n        /* \"#utility.yul\":2879:2882   */\n      dup5\n        /* \"#utility.yul\":2875:2891   */\n      add\n        /* \"#utility.yul\":2872:2897   */\n      gt\n        /* \"#utility.yul\":2869:2981   */\n      iszero\n      tag_143\n      jumpi\n        /* \"#utility.yul\":2900:2979   */\n      tag_144\n      tag_67\n      jump\t// in\n    tag_144:\n        /* \"#utility.yul\":2869:2981   */\n    tag_143:\n        /* \"#utility.yul\":2990:3044   */\n      tag_145\n        /* \"#utility.yul\":3037:3043   */\n      dup5\n        /* \"#utility.yul\":3032:3035   */\n      dup3\n        /* \"#utility.yul\":3027:3030   */\n      dup6\n        /* \"#utility.yul\":2990:3044   */\n      tag_73\n      jump\t// in\n    tag_145:\n        /* \"#utility.yul\":2709:3050   */\n      pop\n        /* \"#utility.yul\":2625:3050   */\n      swap4\n      swap3\n      pop\n      pop\n      pop\n      jump\t// out\n        /* \"#utility.yul\":3070:3410   */\n    tag_75:\n        /* \"#utility.yul\":3126:3131   */\n      0x00\n        /* \"#utility.yul\":3175:3178   */\n      dup3\n        /* \"#utility.yul\":3168:3172   */\n      0x1f\n        /* \"#utility.yul\":3160:3166   */\n      dup4\n        /* \"#utility.yul\":3156:3173   */\n      add\n        /* \"#utility.yul\":3152:3179   */\n      slt\n        /* \"#utility.yul\":3142:3264   */\n      tag_147\n      jumpi\n        /* \"#utility.yul\":3183:3262   */\n      tag_148\n      tag_66\n      jump\t// in\n    tag_148:\n        /* \"#utility.yul\":3142:3264   */\n    tag_147:\n        /* \"#utility.yul\":3300:3306   */\n      dup2\n        /* \"#utility.yul\":3287:3307   */\n      calldataload\n        /* \"#utility.yul\":3325:3404   */\n      tag_149\n        /* \"#utility.yul\":3400:3403   */\n      dup5\n        /* \"#utility.yul\":3392:3398   */\n      dup3\n        /* \"#utility.yul\":3385:3389   */\n      0x20\n        /* \"#utility.yul\":3377:3383   */\n      dup7\n        /* \"#utility.yul\":3373:3390   */\n      add\n        /* \"#utility.yul\":3325:3404   */\n      tag_74\n      jump\t// in\n    tag_149:\n        /* \"#utility.yul\":3316:3404   */\n      swap2\n      pop\n        /* \"#utility.yul\":3132:3410   */\n      pop\n        /* \"#utility.yul\":3070:3410   */\n      swap3\n      swap2\n      pop\n      pop\n      jump\t// out\n        /* \"#utility.yul\":3416:4687   */\n    tag_9:\n        /* \"#utility.yul\":3531:3537   */\n      0x00\n        /* \"#utility.yul\":3539:3545   */\n      dup1\n        /* \"#utility.yul\":3547:3553   */\n      0x00\n        /* \"#utility.yul\":3555:3561   */\n      dup1\n        /* \"#utility.yul\":3563:3569   */\n      0x00\n        /* \"#utility.yul\":3612:3615   */\n      0xa0\n        /* \"#utility.yul\":3600:3609   */\n      dup7\n        /* \"#utility.yul\":3591:3598   */\n      dup9\n        /* \"#utility.yul\":3587:3610   */\n      sub\n        /* \"#utility.yul\":3583:3616   */\n      slt\n        /* \"#utility.yul\":3580:3700   */\n      iszero\n      tag_151\n      jumpi\n        /* \"#utility.yul\":3619:3698   */\n      tag_152\n      tag_57\n      jump\t// in\n    tag_152:\n        /* \"#utility.yul\":3580:3700   */\n    tag_151:\n        /* \"#utility.yul\":3739:3740   */\n      0x00\n        /* \"#utility.yul\":3764:3817   */\n      tag_153\n        /* \"#utility.yul\":3809:3816   */\n      dup9\n        /* \"#utility.yul\":3800:3806   */\n      dup3\n        /* \"#utility.yul\":3789:3798   */\n      dup10\n        /* \"#utility.yul\":3785:3807   */\n      add\n        /* \"#utility.yul\":3764:3817   */\n      tag_62\n      jump\t// in\n    tag_153:\n        /* \"#utility.yul\":3754:3817   */\n      swap6\n      pop\n        /* \"#utility.yul\":3710:3827   */\n      pop\n        /* \"#utility.yul\":3866:3868   */\n      0x20\n        /* \"#utility.yul\":3892:3945   */\n      tag_154\n        /* \"#utility.yul\":3937:3944   */\n      dup9\n        /* \"#utility.yul\":3928:3934   */\n      dup3\n        /* \"#utility.yul\":3917:3926   */\n      dup10\n        /* \"#utility.yul\":3913:3935   */\n      add\n        /* \"#utility.yul\":3892:3945   */\n      tag_65\n      jump\t// in\n    tag_154:\n        /* \"#utility.yul\":3882:3945   */\n      swap5\n      pop\n        /* \"#utility.yul\":3837:3955   */\n      pop\n        /* \"#utility.yul\":4022:4024   */\n      0x40\n        /* \"#utility.yul\":4011:4020   */\n      dup7\n        /* \"#utility.yul\":4007:4025   */\n      add\n        /* \"#utility.yul\":3994:4026   */\n      calldataload\n        /* \"#utility.yul\":4053:4071   */\n      0xffffffffffffffff\n        /* \"#utility.yul\":4045:4051   */\n      dup2\n        /* \"#utility.yul\":4042:4072   */\n      gt\n        /* \"#utility.yul\":4039:4156   */\n      iszero\n      tag_155\n      jumpi\n        /* \"#utility.yul\":4075:4154   */\n      tag_156\n      tag_58\n      jump\t// in\n    tag_156:\n        /* \"#utility.yul\":4039:4156   */\n    tag_155:\n        /* \"#utility.yul\":4180:4243   */\n      tag_157\n        /* \"#utility.yul\":4235:4242   */\n      dup9\n        /* \"#utility.yul\":4226:4232   */\n      dup3\n        /* \"#utility.yul\":4215:4224   */\n      dup10\n        /* \"#utility.yul\":4211:4233   */\n      add\n        /* \"#utility.yul\":4180:4243   */\n      tag_75\n      jump\t// in\n    tag_157:\n        /* \"#utility.yul\":4170:4243   */\n      swap4\n      pop\n        /* \"#utility.yul\":3965:4253   */\n      pop\n        /* \"#utility.yul\":4320:4322   */\n      0x60\n        /* \"#utility.yul\":4309:4318   */\n      dup7\n        /* \"#utility.yul\":4305:4323   */\n      add\n        /* \"#utility.yul\":4292:4324   */\n      calldataload\n        /* \"#utility.yul\":4351:4369   */\n      0xffffffffffffffff\n        /* \"#utility.yul\":4343:4349   */\n      dup2\n        /* \"#utility.yul\":4340:4370   */\n      gt\n        /* \"#utility.yul\":4337:4454   */\n      iszero\n      tag_158\n      jumpi\n        /* \"#utility.yul\":4373:4452   */\n      tag_159\n      tag_58\n      jump\t// in\n    tag_159:\n        /* \"#utility.yul\":4337:4454   */\n    tag_158:\n        /* \"#utility.yul\":4478:4541   */\n      tag_160\n        /* \"#utility.yul\":4533:4540   */\n      dup9\n        /* \"#utility.yul\":4524:4530   */\n      dup3\n        /* \"#utility.yul\":4513:4522   */\n      dup10\n        /* \"#utility.yul\":4509:4531   */\n      add\n        /* \"#utility.yul\":4478:4541   */\n      tag_75\n      jump\t// in\n    tag_160:\n        /* \"#utility.yul\":4468:4541   */\n      swap3\n      pop\n        /* \"#utility.yul\":4263:4551   */\n      pop\n        /* \"#utility.yul\":4590:4593   */\n      0x80\n        /* \"#utility.yul\":4617:4670   */\n      tag_161\n        /* \"#utility.yul\":4662:4669   */\n      dup9\n        /* \"#utility.yul\":4653:4659   */\n      dup3\n        /* \"#utility.yul\":4642:4651   */\n      dup10\n        /* \"#utility.yul\":4638:4660   */\n      add\n        /* \"#utility.yul\":4617:4670   */\n      tag_65\n      jump\t// in\n    tag_161:\n        /* \"#utility.yul\":4607:4670   */\n      swap2\n      pop\n        /* \"#utility.yul\":4561:4680   */\n      pop\n        /* \"#utility.yul\":3416:4687   */\n      swap3\n      swap6\n      pop\n      swap3\n      swap6\n      swap1\n      swap4\n      pop\n      jump\t// out\n        /* \"#utility.yul\":4693:5167   */\n    tag_16:\n        /* \"#utility.yul\":4761:4767   */\n      0x00\n        /* \"#utility.yul\":4769:4775   */\n      dup1\n        /* \"#utility.yul\":4818:4820   */\n      0x40\n        /* \"#utility.yul\":4806:4815   */\n      dup4\n        /* \"#utility.yul\":4797:4804   */\n      dup6\n        /* \"#utility.yul\":4793:4816   */\n      sub\n        /* \"#utility.yul\":4789:4821   */\n      slt\n        /* \"#utility.yul\":4786:4905   */\n      iszero\n      tag_163\n      jumpi\n        /* \"#utility.yul\":4824:4903   */\n      tag_164\n      tag_57\n      jump\t// in\n    tag_164:\n        /* \"#utility.yul\":4786:4905   */\n    tag_163:\n        /* \"#utility.yul\":4944:4945   */\n      0x00\n        /* \"#utility.yul\":4969:5022   */\n      tag_165\n        /* \"#utility.yul\":5014:5021   */\n      dup6\n        /* \"#utility.yul\":5005:5011   */\n      dup3\n        /* \"#utility.yul\":4994:5003   */\n      dup7\n        /* \"#utility.yul\":4990:5012   */\n      add\n        /* \"#utility.yul\":4969:5022   */\n      tag_62\n      jump\t// in\n    tag_165:\n        /* \"#utility.yul\":4959:5022   */\n      swap3\n      pop\n        /* \"#utility.yul\":4915:5032   */\n      pop\n        /* \"#utility.yul\":5071:5073   */\n      0x20\n        /* \"#utility.yul\":5097:5150   */\n      tag_166\n        /* \"#utility.yul\":5142:5149   */\n      dup6\n        /* \"#utility.yul\":5133:5139   */\n      dup3\n        /* \"#utility.yul\":5122:5131   */\n      dup7\n        /* \"#utility.yul\":5118:5140   */\n      add\n        /* \"#utility.yul\":5097:5150   */\n      tag_65\n      jump\t// in\n    tag_166:\n        /* \"#utility.yul\":5087:5150   */\n      swap2\n      pop\n        /* \"#utility.yul\":5042:5160   */\n      pop\n        /* \"#utility.yul\":4693:5167   */\n      swap3\n      pop\n      swap3\n      swap1\n      pop\n      jump\t// out\n        /* \"#utility.yul\":5173:5272   */\n    tag_76:\n        /* \"#utility.yul\":5225:5231   */\n      0x00\n        /* \"#utility.yul\":5259:5264   */\n      dup2\n        /* \"#utility.yul\":5253:5265   */\n      mload\n        /* \"#utility.yul\":5243:5265   */\n      swap1\n      pop\n        /* \"#utility.yul\":5173:5272   */\n      swap2\n      swap1\n      pop\n      jump\t// out\n        /* \"#utility.yul\":5278:5447   */\n    tag_77:\n        /* \"#utility.yul\":5362:5373   */\n      0x00\n        /* \"#utility.yul\":5396:5402   */\n      dup3\n        /* \"#utility.yul\":5391:5394   */\n      dup3\n        /* \"#utility.yul\":5384:5403   */\n      mstore\n        /* \"#utility.yul\":5436:5440   */\n      0x20\n        /* \"#utility.yul\":5431:5434   */\n      dup3\n        /* \"#utility.yul\":5427:5441   */\n      add\n        /* \"#utility.yul\":5412:5441   */\n      swap1\n      pop\n        /* \"#utility.yul\":5278:5447   */\n      swap3\n      swap2\n      pop\n      pop\n      jump\t// out\n        /* \"#utility.yul\":5453:5699   */\n    tag_78:\n        /* \"#utility.yul\":5534:5535   */\n      0x00\n        /* \"#utility.yul\":5544:5657   */\n    tag_170:\n        /* \"#utility.yul\":5558:5564   */\n      dup4\n        /* \"#utility.yul\":5555:5556   */\n      dup2\n        /* \"#utility.yul\":5552:5565   */\n      lt\n        /* \"#utility.yul\":5544:5657   */\n      iszero\n      tag_172\n      jumpi\n        /* \"#utility.yul\":5643:5644   */\n      dup1\n        /* \"#utility.yul\":5638:5641   */\n      dup3\n        /* \"#utility.yul\":5634:5645   */\n      add\n        /* \"#utility.yul\":5628:5646   */\n      mload\n        /* \"#utility.yul\":5624:5625   */\n      dup2\n        /* \"#utility.yul\":5619:5622   */\n      dup5\n        /* \"#utility.yul\":5615:5626   */\n      add\n        /* \"#utility.yul\":5608:5647   */\n      mstore\n        /* \"#utility.yul\":5580:5582   */\n      0x20\n        /* \"#utility.yul\":5577:5578   */\n      dup2\n        /* \"#utility.yul\":5573:5583   */\n      add\n        /* \"#utility.yul\":5568:5583   */\n      swap1\n      pop\n        /* \"#utility.yul\":5544:5657   */\n      jump(tag_170)\n    tag_172:\n        /* \"#utility.yul\":5691:5692   */\n      0x00\n        /* \"#utility.yul\":5682:5688   */\n      dup5\n        /* \"#utility.yul\":5677:5680   */\n      dup5\n        /* \"#utility.yul\":5673:5689   */\n      add\n        /* \"#utility.yul\":5666:5693   */\n      mstore\n        /* \"#utility.yul\":5515:5699   */\n      pop\n        /* \"#utility.yul\":5453:5699   */\n      pop\n      pop\n      pop\n      jump\t// out\n        /* \"#utility.yul\":5705:6082   */\n    tag_79:\n        /* \"#utility.yul\":5793:5796   */\n      0x00\n        /* \"#utility.yul\":5821:5860   */\n      tag_174\n        /* \"#utility.yul\":5854:5859   */\n      dup3\n        /* \"#utility.yul\":5821:5860   */\n      tag_76\n      jump\t// in\n    tag_174:\n        /* \"#utility.yul\":5876:5947   */\n      tag_175\n        /* \"#utility.yul\":5940:5946   */\n      dup2\n        /* \"#utility.yul\":5935:5938   */\n      dup6\n        /* \"#utility.yul\":5876:5947   */\n      tag_77\n      jump\t// in\n    tag_175:\n        /* \"#utility.yul\":5869:5947   */\n      swap4\n      pop\n        /* \"#utility.yul\":5956:6021   */\n      tag_176\n        /* \"#utility.yul\":6014:6020   */\n      dup2\n        /* \"#utility.yul\":6009:6012   */\n      dup6\n        /* \"#utility.yul\":6002:6006   */\n      0x20\n        /* \"#utility.yul\":5995:6000   */\n      dup7\n        /* \"#utility.yul\":5991:6007   */\n      add\n        /* \"#utility.yul\":5956:6021   */\n      tag_78\n      jump\t// in\n    tag_176:\n        /* \"#utility.yul\":6046:6075   */\n      tag_177\n        /* \"#utility.yul\":6068:6074   */\n      dup2\n        /* \"#utility.yul\":6046:6075   */\n      tag_68\n      jump\t// in\n    tag_177:\n        /* \"#utility.yul\":6041:6044   */\n      dup5\n        /* \"#utility.yul\":6037:6076   */\n      add\n        /* \"#utility.yul\":6030:6076   */\n      swap2\n      pop\n        /* \"#utility.yul\":5797:6082   */\n      pop\n        /* \"#utility.yul\":5705:6082   */\n      swap3\n      swap2\n      pop\n      pop\n      jump\t// out\n        /* \"#utility.yul\":6088:6206   */\n    tag_80:\n        /* \"#utility.yul\":6175:6199   */\n      tag_179\n        /* \"#utility.yul\":6193:6198   */\n      dup2\n        /* \"#utility.yul\":6175:6199   */\n      tag_63\n      jump\t// in\n    tag_179:\n        /* \"#utility.yul\":6170:6173   */\n      dup3\n        /* \"#utility.yul\":6163:6200   */\n      mstore\n        /* \"#utility.yul\":6088:6206   */\n      pop\n      pop\n      jump\t// out\n        /* \"#utility.yul\":6212:6947   */\n    tag_19:\n        /* \"#utility.yul\":6429:6433   */\n      0x00\n        /* \"#utility.yul\":6467:6470   */\n      0x80\n        /* \"#utility.yul\":6456:6465   */\n      dup3\n        /* \"#utility.yul\":6452:6471   */\n      add\n        /* \"#utility.yul\":6444:6471   */\n      swap1\n      pop\n        /* \"#utility.yul\":6517:6526   */\n      dup2\n        /* \"#utility.yul\":6511:6515   */\n      dup2\n        /* \"#utility.yul\":6507:6527   */\n      sub\n        /* \"#utility.yul\":6503:6504   */\n      0x00\n        /* \"#utility.yul\":6492:6501   */\n      dup4\n        /* \"#utility.yul\":6488:6505   */\n      add\n        /* \"#utility.yul\":6481:6528   */\n      mstore\n        /* \"#utility.yul\":6545:6623   */\n      tag_181\n        /* \"#utility.yul\":6618:6622   */\n      dup2\n        /* \"#utility.yul\":6609:6615   */\n      dup8\n        /* \"#utility.yul\":6545:6623   */\n      tag_79\n      jump\t// in\n    tag_181:\n        /* \"#utility.yul\":6537:6623   */\n      swap1\n      pop\n        /* \"#utility.yul\":6670:6679   */\n      dup2\n        /* \"#utility.yul\":6664:6668   */\n      dup2\n        /* \"#utility.yul\":6660:6680   */\n      sub\n        /* \"#utility.yul\":6655:6657   */\n      0x20\n        /* \"#utility.yul\":6644:6653   */\n      dup4\n        /* \"#utility.yul\":6640:6658   */\n      add\n        /* \"#utility.yul\":6633:6681   */\n      mstore\n        /* \"#utility.yul\":6698:6776   */\n      tag_182\n        /* \"#utility.yul\":6771:6775   */\n      dup2\n        /* \"#utility.yul\":6762:6768   */\n      dup7\n        /* \"#utility.yul\":6698:6776   */\n      tag_79\n      jump\t// in\n    tag_182:\n        /* \"#utility.yul\":6690:6776   */\n      swap1\n      pop\n        /* \"#utility.yul\":6786:6858   */\n      tag_183\n        /* \"#utility.yul\":6854:6856   */\n      0x40\n        /* \"#utility.yul\":6843:6852   */\n      dup4\n        /* \"#utility.yul\":6839:6857   */\n      add\n        /* \"#utility.yul\":6830:6836   */\n      dup6\n        /* \"#utility.yul\":6786:6858   */\n      tag_80\n      jump\t// in\n    tag_183:\n        /* \"#utility.yul\":6868:6940   */\n      tag_184\n        /* \"#utility.yul\":6936:6938   */\n      0x60\n        /* \"#utility.yul\":6925:6934   */\n      dup4\n        /* \"#utility.yul\":6921:6939   */\n      add\n        /* \"#utility.yul\":6912:6918   */\n      dup5\n        /* \"#utility.yul\":6868:6940   */\n      tag_80\n      jump\t// in\n    tag_184:\n        /* \"#utility.yul\":6212:6947   */\n      swap6\n      swap5\n      pop\n      pop\n      pop\n      pop\n      pop\n      jump\t// out\n        /* \"#utility.yul\":6953:7071   */\n    tag_81:\n        /* \"#utility.yul\":7040:7064   */\n      tag_186\n        /* \"#utility.yul\":7058:7063   */\n      dup2\n        /* \"#utility.yul\":7040:7064   */\n      tag_60\n      jump\t// in\n    tag_186:\n        /* \"#utility.yul\":7035:7038   */\n      dup3\n        /* \"#utility.yul\":7028:7065   */\n      mstore\n        /* \"#utility.yul\":6953:7071   */\n      pop\n      pop\n      jump\t// out\n        /* \"#utility.yul\":7077:7299   */\n    tag_23:\n        /* \"#utility.yul\":7170:7174   */\n      0x00\n        /* \"#utility.yul\":7208:7210   */\n      0x20\n        /* \"#utility.yul\":7197:7206   */\n      dup3\n        /* \"#utility.yul\":7193:7211   */\n      add\n        /* \"#utility.yul\":7185:7211   */\n      swap1\n      pop\n        /* \"#utility.yul\":7221:7292   */\n      tag_188\n        /* \"#utility.yul\":7289:7290   */\n      0x00\n        /* \"#utility.yul\":7278:7287   */\n      dup4\n        /* \"#utility.yul\":7274:7291   */\n      add\n        /* \"#utility.yul\":7265:7271   */\n      dup5\n        /* \"#utility.yul\":7221:7292   */\n      tag_81\n      jump\t// in\n    tag_188:\n        /* \"#utility.yul\":7077:7299   */\n      swap3\n      swap2\n      pop\n      pop\n      jump\t// out\n        /* \"#utility.yul\":7305:7484   */\n    tag_82:\n        /* \"#utility.yul\":7445:7476   */\n      0x43726f70206e616d652073686f756c64206e6f7420626520656d707479000000\n        /* \"#utility.yul\":7441:7442   */\n      0x00\n        /* \"#utility.yul\":7433:7439   */\n      dup3\n        /* \"#utility.yul\":7429:7443   */\n      add\n        /* \"#utility.yul\":7422:7477   */\n      mstore\n        /* \"#utility.yul\":7305:7484   */\n      pop\n      jump\t// out\n        /* \"#utility.yul\":7490:7856   */\n    tag_83:\n        /* \"#utility.yul\":7632:7635   */\n      0x00\n        /* \"#utility.yul\":7653:7720   */\n      tag_191\n        /* \"#utility.yul\":7717:7719   */\n      0x1d\n        /* \"#utility.yul\":7712:7715   */\n      dup4\n        /* \"#utility.yul\":7653:7720   */\n      tag_77\n      jump\t// in\n    tag_191:\n        /* \"#utility.yul\":7646:7720   */\n      swap2\n      pop\n        /* \"#utility.yul\":7729:7822   */\n      tag_192\n        /* \"#utility.yul\":7818:7821   */\n      dup3\n        /* \"#utility.yul\":7729:7822   */\n      tag_82\n      jump\t// in\n    tag_192:\n        /* \"#utility.yul\":7847:7849   */\n      0x20\n        /* \"#utility.yul\":7842:7845   */\n      dup3\n        /* \"#utility.yul\":7838:7850   */\n      add\n        /* \"#utility.yul\":7831:7850   */\n      swap1\n      pop\n        /* \"#utility.yul\":7490:7856   */\n      swap2\n      swap1\n      pop\n      jump\t// out\n        /* \"#utility.yul\":7862:8281   */\n    tag_27:\n        /* \"#utility.yul\":8028:8032   */\n      0x00\n        /* \"#utility.yul\":8066:8068   */\n      0x20\n        /* \"#utility.yul\":8055:8064   */\n      dup3\n        /* \"#utility.yul\":8051:8069   */\n      add\n        /* \"#utility.yul\":8043:8069   */\n      swap1\n      pop\n        /* \"#utility.yul\":8115:8124   */\n      dup2\n        /* \"#utility.yul\":8109:8113   */\n      dup2\n        /* \"#utility.yul\":8105:8125   */\n      sub\n        /* \"#utility.yul\":8101:8102   */\n      0x00\n        /* \"#utility.yul\":8090:8099   */\n      dup4\n        /* \"#utility.yul\":8086:8103   */\n      add\n        /* \"#utility.yul\":8079:8126   */\n      mstore\n        /* \"#utility.yul\":8143:8274   */\n      tag_194\n        /* \"#utility.yul\":8269:8273   */\n      dup2\n        /* \"#utility.yul\":8143:8274   */\n      tag_83\n      jump\t// in\n    tag_194:\n        /* \"#utility.yul\":8135:8274   */\n      swap1\n      pop\n        /* \"#utility.yul\":7862:8281   */\n      swap2\n      swap1\n      pop\n      jump\t// out\n        /* \"#utility.yul\":8287:8465   */\n    tag_84:\n        /* \"#utility.yul\":8427:8457   */\n      0x4c6f636174696f6e2073686f756c642062652073706563696669656400000000\n        /* \"#utility.yul\":8423:8424   */\n      0x00\n        /* \"#utility.yul\":8415:8421   */\n      dup3\n        /* \"#utility.yul\":8411:8425   */\n      add\n        /* \"#utility.yul\":8404:8458   */\n      mstore\n        /* \"#utility.yul\":8287:8465   */\n      pop\n      jump\t// out\n        /* \"#utility.yul\":8471:8837   */\n    tag_85:\n        /* \"#utility.yul\":8613:8616   */\n      0x00\n        /* \"#utility.yul\":8634:8701   */\n      tag_197\n        /* \"#utility.yul\":8698:8700   */\n      0x1c\n        /* \"#utility.yul\":8693:8696   */\n      dup4\n        /* \"#utility.yul\":8634:8701   */\n      tag_77\n      jump\t// in\n    tag_197:\n        /* \"#utility.yul\":8627:8701   */\n      swap2\n      pop\n        /* \"#utility.yul\":8710:8803   */\n      tag_198\n        /* \"#utility.yul\":8799:8802   */\n      dup3\n        /* \"#utility.yul\":8710:8803   */\n      tag_84\n      jump\t// in\n    tag_198:\n        /* \"#utility.yul\":8828:8830   */\n      0x20\n        /* \"#utility.yul\":8823:8826   */\n      dup3\n        /* \"#utility.yul\":8819:8831   */\n      add\n        /* \"#utility.yul\":8812:8831   */\n      swap1\n      pop\n        /* \"#utility.yul\":8471:8837   */\n      swap2\n      swap1\n      pop\n      jump\t// out\n        /* \"#utility.yul\":8843:9262   */\n    tag_30:\n        /* \"#utility.yul\":9009:9013   */\n      0x00\n        /* \"#utility.yul\":9047:9049   */\n      0x20\n        /* \"#utility.yul\":9036:9045   */\n      dup3\n        /* \"#utility.yul\":9032:9050   */\n      add\n        /* \"#utility.yul\":9024:9050   */\n      swap1\n      pop\n        /* \"#utility.yul\":9096:9105   */\n      dup2\n        /* \"#utility.yul\":9090:9094   */\n      dup2\n        /* \"#utility.yul\":9086:9106   */\n      sub\n        /* \"#utility.yul\":9082:9083   */\n      0x00\n        /* \"#utility.yul\":9071:9080   */\n      dup4\n        /* \"#utility.yul\":9067:9084   */\n      add\n        /* \"#utility.yul\":9060:9107   */\n      mstore\n        /* \"#utility.yul\":9124:9255   */\n      tag_200\n        /* \"#utility.yul\":9250:9254   */\n      dup2\n        /* \"#utility.yul\":9124:9255   */\n      tag_85\n      jump\t// in\n    tag_200:\n        /* \"#utility.yul\":9116:9255   */\n      swap1\n      pop\n        /* \"#utility.yul\":8843:9262   */\n      swap2\n      swap1\n      pop\n      jump\t// out\n        /* \"#utility.yul\":9268:9450   */\n    tag_86:\n        /* \"#utility.yul\":9408:9442   */\n      0x417265612073686f756c642062652067726561746572207468616e207a65726f\n        /* \"#utility.yul\":9404:9405   */\n      0x00\n        /* \"#utility.yul\":9396:9402   */\n      dup3\n        /* \"#utility.yul\":9392:9406   */\n      add\n        /* \"#utility.yul\":9385:9443   */\n      mstore\n        /* \"#utility.yul\":9268:9450   */\n      pop\n      jump\t// out\n        /* \"#utility.yul\":9456:9822   */\n    tag_87:\n        /* \"#utility.yul\":9598:9601   */\n      0x00\n        /* \"#utility.yul\":9619:9686   */\n      tag_203\n        /* \"#utility.yul\":9683:9685   */\n      0x20\n        /* \"#utility.yul\":9678:9681   */\n      dup4\n        /* \"#utility.yul\":9619:9686   */\n      tag_77\n      jump\t// in\n    tag_203:\n        /* \"#utility.yul\":9612:9686   */\n      swap2\n      pop\n        /* \"#utility.yul\":9695:9788   */\n      tag_204\n        /* \"#utility.yul\":9784:9787   */\n      dup3\n        /* \"#utility.yul\":9695:9788   */\n      tag_86\n      jump\t// in\n    tag_204:\n        /* \"#utility.yul\":9813:9815   */\n      0x20\n        /* \"#utility.yul\":9808:9811   */\n      dup3\n        /* \"#utility.yul\":9804:9816   */\n      add\n        /* \"#utility.yul\":9797:9816   */\n      swap1\n      pop\n        /* \"#utility.yul\":9456:9822   */\n      swap2\n      swap1\n      pop\n      jump\t// out\n        /* \"#utility.yul\":9828:10247   */\n    tag_33:\n        /* \"#utility.yul\":9994:9998   */\n      0x00\n        /* \"#utility.yul\":10032:10034   */\n      0x20\n        /* \"#utility.yul\":10021:10030   */\n      dup3\n        /* \"#utility.yul\":10017:10035   */\n      add\n        /* \"#utility.yul\":10009:10035   */\n      swap1\n      pop\n        /* \"#utility.yul\":10081:10090   */\n      dup2\n        /* \"#utility.yul\":10075:10079   */\n      dup2\n        /* \"#utility.yul\":10071:10091   */\n      sub\n        /* \"#utility.yul\":10067:10068   */\n      0x00\n        /* \"#utility.yul\":10056:10065   */\n      dup4\n        /* \"#utility.yul\":10052:10069   */\n      add\n        /* \"#utility.yul\":10045:10092   */\n      mstore\n        /* \"#utility.yul\":10109:10240   */\n      tag_206\n        /* \"#utility.yul\":10235:10239   */\n      dup2\n        /* \"#utility.yul\":10109:10240   */\n      tag_87\n      jump\t// in\n    tag_206:\n        /* \"#utility.yul\":10101:10240   */\n      swap1\n      pop\n        /* \"#utility.yul\":9828:10247   */\n      swap2\n      swap1\n      pop\n      jump\t// out\n        /* \"#utility.yul\":10253:10417   */\n    tag_88:\n        /* \"#utility.yul\":10393:10409   */\n      0x4944206973207265717569726564000000000000000000000000000000000000\n        /* \"#utility.yul\":10389:10390   */\n      0x00\n        /* \"#utility.yul\":10381:10387   */\n      dup3\n        /* \"#utility.yul\":10377:10391   */\n      add\n        /* \"#utility.yul\":10370:10410   */\n      mstore\n        /* \"#utility.yul\":10253:10417   */\n      pop\n      jump\t// out\n        /* \"#utility.yul\":10423:10789   */\n    tag_89:\n        /* \"#utility.yul\":10565:10568   */\n      0x00\n        /* \"#utility.yul\":10586:10653   */\n      tag_209\n        /* \"#utility.yul\":10650:10652   */\n      0x0e\n        /* \"#utility.yul\":10645:10648   */\n      dup4\n        /* \"#utility.yul\":10586:10653   */\n      tag_77\n      jump\t// in\n    tag_209:\n        /* \"#utility.yul\":10579:10653   */\n      swap2\n      pop\n        /* \"#utility.yul\":10662:10755   */\n      tag_210\n        /* \"#utility.yul\":10751:10754   */\n      dup3\n        /* \"#utility.yul\":10662:10755   */\n      tag_88\n      jump\t// in\n    tag_210:\n        /* \"#utility.yul\":10780:10782   */\n      0x20\n        /* \"#utility.yul\":10775:10778   */\n      dup3\n        /* \"#utility.yul\":10771:10783   */\n      add\n        /* \"#utility.yul\":10764:10783   */\n      swap1\n      pop\n        /* \"#utility.yul\":10423:10789   */\n      swap2\n      swap1\n      pop\n      jump\t// out\n        /* \"#utility.yul\":10795:11214   */\n    tag_36:\n        /* \"#utility.yul\":10961:10965   */\n      0x00\n        /* \"#utility.yul\":10999:11001   */\n      0x20\n        /* \"#utility.yul\":10988:10997   */\n      dup3\n        /* \"#utility.yul\":10984:11002   */\n      add\n        /* \"#utility.yul\":10976:11002   */\n      swap1\n      pop\n        /* \"#utility.yul\":11048:11057   */\n      dup2\n        /* \"#utility.yul\":11042:11046   */\n      dup2\n        /* \"#utility.yul\":11038:11058   */\n      sub\n        /* \"#utility.yul\":11034:11035   */\n      0x00\n        /* \"#utility.yul\":11023:11032   */\n      dup4\n        /* \"#utility.yul\":11019:11036   */\n      add\n        /* \"#utility.yul\":11012:11059   */\n      mstore\n        /* \"#utility.yul\":11076:11207   */\n      tag_212\n        /* \"#utility.yul\":11202:11206   */\n      dup2\n        /* \"#utility.yul\":11076:11207   */\n      tag_89\n      jump\t// in\n    tag_212:\n        /* \"#utility.yul\":11068:11207   */\n      swap1\n      pop\n        /* \"#utility.yul\":10795:11214   */\n      swap2\n      swap1\n      pop\n      jump\t// out\n        /* \"#utility.yul\":11220:11400   */\n    tag_90:\n        /* \"#utility.yul\":11268:11345   */\n      0x4e487b7100000000000000000000000000000000000000000000000000000000\n        /* \"#utility.yul\":11265:11266   */\n      0x00\n        /* \"#utility.yul\":11258:11346   */\n      mstore\n        /* \"#utility.yul\":11365:11369   */\n      0x22\n        /* \"#utility.yul\":11362:11363   */\n      0x04\n        /* \"#utility.yul\":11355:11370   */\n      mstore\n        /* \"#utility.yul\":11389:11393   */\n      0x24\n        /* \"#utility.yul\":11386:11387   */\n      0x00\n        /* \"#utility.yul\":11379:11394   */\n      revert\n        /* \"#utility.yul\":11406:11726   */\n    tag_46:\n        /* \"#utility.yul\":11450:11456   */\n      0x00\n        /* \"#utility.yul\":11487:11488   */\n      0x02\n        /* \"#utility.yul\":11481:11485   */\n      dup3\n        /* \"#utility.yul\":11477:11489   */\n      div\n        /* \"#utility.yul\":11467:11489   */\n      swap1\n      pop\n        /* \"#utility.yul\":11534:11535   */\n      0x01\n        /* \"#utility.yul\":11528:11532   */\n      dup3\n        /* \"#utility.yul\":11524:11536   */\n      and\n        /* \"#utility.yul\":11555:11573   */\n      dup1\n        /* \"#utility.yul\":11545:11626   */\n      tag_215\n      jumpi\n        /* \"#utility.yul\":11611:11615   */\n      0x7f\n        /* \"#utility.yul\":11603:11609   */\n      dup3\n        /* \"#utility.yul\":11599:11616   */\n      and\n        /* \"#utility.yul\":11589:11616   */\n      swap2\n      pop\n        /* \"#utility.yul\":11545:11626   */\n    tag_215:\n        /* \"#utility.yul\":11673:11675   */\n      0x20\n        /* \"#utility.yul\":11665:11671   */\n      dup3\n        /* \"#utility.yul\":11662:11676   */\n      lt\n        /* \"#utility.yul\":11642:11660   */\n      dup2\n        /* \"#utility.yul\":11639:11677   */\n      sub\n        /* \"#utility.yul\":11636:11720   */\n      tag_216\n      jumpi\n        /* \"#utility.yul\":11692:11710   */\n      tag_217\n      tag_90\n      jump\t// in\n    tag_217:\n        /* \"#utility.yul\":11636:11720   */\n    tag_216:\n        /* \"#utility.yul\":11457:11726   */\n      pop\n        /* \"#utility.yul\":11406:11726   */\n      swap2\n      swap1\n      pop\n      jump\t// out\n        /* \"#utility.yul\":11732:11873   */\n    tag_91:\n        /* \"#utility.yul\":11781:11785   */\n      0x00\n        /* \"#utility.yul\":11804:11807   */\n      dup2\n        /* \"#utility.yul\":11796:11807   */\n      swap1\n      pop\n        /* \"#utility.yul\":11827:11830   */\n      dup2\n        /* \"#utility.yul\":11824:11825   */\n      0x00\n        /* \"#utility.yul\":11817:11831   */\n      mstore\n        /* \"#utility.yul\":11861:11865   */\n      0x20\n        /* \"#utility.yul\":11858:11859   */\n      0x00\n        /* \"#utility.yul\":11848:11866   */\n      keccak256\n        /* \"#utility.yul\":11840:11866   */\n      swap1\n      pop\n        /* \"#utility.yul\":11732:11873   */\n      swap2\n      swap1\n      pop\n      jump\t// out\n        /* \"#utility.yul\":11879:11972   */\n    tag_92:\n        /* \"#utility.yul\":11916:11922   */\n      0x00\n        /* \"#utility.yul\":11963:11965   */\n      0x20\n        /* \"#utility.yul\":11958:11960   */\n      0x1f\n        /* \"#utility.yul\":11951:11956   */\n      dup4\n        /* \"#utility.yul\":11947:11961   */\n      add\n        /* \"#utility.yul\":11943:11966   */\n      div\n        /* \"#utility.yul\":11933:11966   */\n      swap1\n      pop\n        /* \"#utility.yul\":11879:11972   */\n      swap2\n      swap1\n      pop\n      jump\t// out\n        /* \"#utility.yul\":11978:12085   */\n    tag_93:\n        /* \"#utility.yul\":12022:12030   */\n      0x00\n        /* \"#utility.yul\":12072:12077   */\n      dup3\n        /* \"#utility.yul\":12066:12070   */\n      dup3\n        /* \"#utility.yul\":12062:12078   */\n      shl\n        /* \"#utility.yul\":12041:12078   */\n      swap1\n      pop\n        /* \"#utility.yul\":11978:12085   */\n      swap3\n      swap2\n      pop\n      pop\n      jump\t// out\n        /* \"#utility.yul\":12091:12484   */\n    tag_94:\n        /* \"#utility.yul\":12160:12166   */\n      0x00\n        /* \"#utility.yul\":12210:12211   */\n      0x08\n        /* \"#utility.yul\":12198:12208   */\n      dup4\n        /* \"#utility.yul\":12194:12212   */\n      mul\n        /* \"#utility.yul\":12233:12330   */\n      tag_222\n        /* \"#utility.yul\":12263:12329   */\n      0xffffffffffffffffffffffffffffffffffffffffffffffffffffffffffffffff\n        /* \"#utility.yul\":12252:12261   */\n      dup3\n        /* \"#utility.yul\":12233:12330   */\n      tag_93\n      jump\t// in\n    tag_222:\n        /* \"#utility.yul\":12351:12390   */\n      tag_223\n        /* \"#utility.yul\":12381:12389   */\n      dup7\n        /* \"#utility.yul\":12370:12379   */\n      dup4\n        /* \"#utility.yul\":12351:12390   */\n      tag_93\n      jump\t// in\n    tag_223:\n        /* \"#utility.yul\":12339:12390   */\n      swap6\n      pop\n        /* \"#utility.yul\":12423:12427   */\n      dup1\n        /* \"#utility.yul\":12419:12428   */\n      not\n        /* \"#utility.yul\":12412:12417   */\n      dup5\n        /* \"#utility.yul\":12408:12429   */\n      and\n        /* \"#utility.yul\":12399:12429   */\n      swap4\n      pop\n        /* \"#utility.yul\":12472:12476   */\n      dup1\n        /* \"#utility.yul\":12462:12470   */\n      dup7\n        /* \"#utility.yul\":12458:12477   */\n      and\n        /* \"#utility.yul\":12451:12456   */\n      dup5\n        /* \"#utility.yul\":12448:12478   */\n      or\n        /* \"#utility.yul\":12438:12478   */\n      swap3\n      pop\n        /* \"#utility.yul\":12167:12484   */\n      pop\n      pop\n        /* \"#utility.yul\":12091:12484   */\n      swap4\n      swap3\n      pop\n      pop\n      pop\n      jump\t// out\n        /* \"#utility.yul\":12490:12550   */\n    tag_95:\n        /* \"#utility.yul\":12518:12521   */\n      0x00\n        /* \"#utility.yul\":12539:12544   */\n      dup2\n        /* \"#utility.yul\":12532:12544   */\n      swap1\n      pop\n        /* \"#utility.yul\":12490:12550   */\n      swap2\n      swap1\n      pop\n      jump\t// out\n        /* \"#utility.yul\":12556:12698   */\n    tag_96:\n        /* \"#utility.yul\":12606:12615   */\n      0x00\n        /* \"#utility.yul\":12639:12692   */\n      tag_226\n        /* \"#utility.yul\":12657:12691   */\n      tag_227\n        /* \"#utility.yul\":12666:12690   */\n      tag_228\n        /* \"#utility.yul\":12684:12689   */\n      dup5\n        /* \"#utility.yul\":12666:12690   */\n      tag_63\n      jump\t// in\n    tag_228:\n        /* \"#utility.yul\":12657:12691   */\n      tag_95\n      jump\t// in\n    tag_227:\n        /* \"#utility.yul\":12639:12692   */\n      tag_63\n      jump\t// in\n    tag_226:\n        /* \"#utility.yul\":12626:12692   */\n      swap1\n      pop\n        /* \"#utility.yul\":12556:12698   */\n      swap2\n      swap1\n      pop\n      jump\t// out\n        /* \"#utility.yul\":12704:12779   */\n    tag_97:\n        /* \"#utility.yul\":12747:12750   */\n      0x00\n        /* \"#utility.yul\":12768:12773   */\n      dup2\n        /* \"#utility.yul\":12761:12773   */\n      swap1\n      pop\n        /* \"#utility.yul\":12704:12779   */\n      swap2\n      swap1\n      pop\n      jump\t// out\n        /* \"#utility.yul\":12785:13054   */\n    tag_98:\n        /* \"#utility.yul\":12895:12934   */\n      tag_231\n        /* \"#utility.yul\":12926:12933   */\n      dup4\n        /* \"#utility.yul\":12895:12934   */\n      tag_96\n      jump\t// in\n    tag_231:\n        /* \"#utility.yul\":12956:13047   */\n      tag_232\n        /* \"#utility.yul\":13005:13046   */\n      tag_233\n        /* \"#utility.yul\":13029:13045   */\n      dup3\n        /* \"#utility.yul\":13005:13046   */\n      tag_97\n      jump\t// in\n    tag_233:\n        /* \"#utility.yul\":12997:13003   */\n      dup5\n        /* \"#utility.yul\":12990:12994   */\n      dup5\n        /* \"#utility.yul\":12984:12995   */\n      sload\n        /* \"#utility.yul\":12956:13047   */\n      tag_94\n      jump\t// in\n    tag_232:\n        /* \"#utility.yul\":12950:12954   */\n      dup3\n        /* \"#utility.yul\":12943:13048   */\n      sstore\n        /* \"#utility.yul\":12861:13054   */\n      pop\n        /* \"#utility.yul\":12785:13054   */\n      pop\n      pop\n      pop\n      jump\t// out\n        /* \"#utility.yul\":13060:13133   */\n    tag_99:\n        /* \"#utility.yul\":13105:13108   */\n      0x00\n        /* \"#utility.yul\":13060:13133   */\n      swap1\n      jump\t// out\n        /* \"#utility.yul\":13139:13328   */\n    tag_100:\n        /* \"#utility.yul\":13216:13248   */\n      tag_236\n      tag_99\n      jump\t// in\n    tag_236:\n        /* \"#utility.yul\":13257:13322   */\n      tag_237\n        /* \"#utility.yul\":13315:13321   */\n      dup2\n        /* \"#utility.yul\":13307:13313   */\n      dup5\n        /* \"#utility.yul\":13301:13305   */\n      dup5\n        /* \"#utility.yul\":13257:13322   */\n      tag_98\n      jump\t// in\n    tag_237:\n        /* \"#utility.yul\":13192:13328   */\n      pop\n        /* \"#utility.yul\":13139:13328   */\n      pop\n      pop\n      jump\t// out\n        /* \"#utility.yul\":13334:13520   */\n    tag_101:\n        /* \"#utility.yul\":13394:13514   */\n    tag_239:\n        /* \"#utility.yul\":13411:13414   */\n      dup2\n        /* \"#utility.yul\":13404:13409   */\n      dup2\n        /* \"#utility.yul\":13401:13415   */\n      lt\n        /* \"#utility.yul\":13394:13514   */\n      iszero\n      tag_241\n      jumpi\n        /* \"#utility.yul\":13465:13504   */\n      tag_242\n        /* \"#utility.yul\":13502:13503   */\n      0x00\n        /* \"#utility.yul\":13495:13500   */\n      dup3\n        /* \"#utility.yul\":13465:13504   */\n      tag_100\n      jump\t// in\n    tag_242:\n        /* \"#utility.yul\":13438:13439   */\n      0x01\n        /* \"#utility.yul\":13431:13436   */\n      dup2\n        /* \"#utility.yul\":13427:13440   */\n      add\n        /* \"#utility.yul\":13418:13440   */\n      swap1\n      pop\n        /* \"#utility.yul\":13394:13514   */\n      jump(tag_239)\n    tag_241:\n        /* \"#utility.yul\":13334:13520   */\n      pop\n      pop\n      jump\t// out\n        /* \"#utility.yul\":13526:14069   */\n    tag_102:\n        /* \"#utility.yul\":13627:13629   */\n      0x1f\n        /* \"#utility.yul\":13622:13625   */\n      dup3\n        /* \"#utility.yul\":13619:13630   */\n      gt\n        /* \"#utility.yul\":13616:14062   */\n      iszero\n      tag_244\n      jumpi\n        /* \"#utility.yul\":13661:13699   */\n      tag_245\n        /* \"#utility.yul\":13693:13698   */\n      dup2\n        /* \"#utility.yul\":13661:13699   */\n      tag_91\n      jump\t// in\n    tag_245:\n        /* \"#utility.yul\":13745:13774   */\n      tag_246\n        /* \"#utility.yul\":13763:13773   */\n      dup5\n        /* \"#utility.yul\":13745:13774   */\n      tag_92\n      jump\t// in\n    tag_246:\n        /* \"#utility.yul\":13735:13743   */\n      dup2\n        /* \"#utility.yul\":13731:13775   */\n      add\n        /* \"#utility.yul\":13928:13930   */\n      0x20\n        /* \"#utility.yul\":13916:13926   */\n      dup6\n        /* \"#utility.yul\":13913:13931   */\n      lt\n        /* \"#utility.yul\":13910:13959   */\n      iszero\n      tag_247\n      jumpi\n        /* \"#utility.yul\":13949:13957   */\n      dup2\n        /* \"#utility.yul\":13934:13957   */\n      swap1\n      pop\n        /* \"#utility.yul\":13910:13959   */\n    tag_247:\n        /* \"#utility.yul\":13972:14052   */\n      tag_248\n        /* \"#utility.yul\":14028:14050   */\n      tag_249\n        /* \"#utility.yul\":14046:14049   */\n      dup6\n        /* \"#utility.yul\":14028:14050   */\n      tag_92\n      jump\t// in\n    tag_249:\n        /* \"#utility.yul\":14018:14026   */\n      dup4\n        /* \"#utility.yul\":14014:14051   */\n      add\n        /* \"#utility.yul\":14001:14012   */\n      dup3\n        /* \"#utility.yul\":13972:14052   */\n      tag_101\n      jump\t// in\n    tag_248:\n        /* \"#utility.yul\":13631:14062   */\n      pop\n      pop\n        /* \"#utility.yul\":13616:14062   */\n    tag_244:\n        /* \"#utility.yul\":13526:14069   */\n      pop\n      pop\n      pop\n      jump\t// out\n        /* \"#utility.yul\":14075:14192   */\n    tag_103:\n        /* \"#utility.yul\":14129:14137   */\n      0x00\n        /* \"#utility.yul\":14179:14184   */\n      dup3\n        /* \"#utility.yul\":14173:14177   */\n      dup3\n        /* \"#utility.yul\":14169:14185   */\n      shr\n        /* \"#utility.yul\":14148:14185   */\n      swap1\n      pop\n        /* \"#utility.yul\":14075:14192   */\n      swap3\n      swap2\n      pop\n      pop\n      jump\t// out\n        /* \"#utility.yul\":14198:14367   */\n    tag_104:\n        /* \"#utility.yul\":14242:14248   */\n      0x00\n        /* \"#utility.yul\":14275:14326   */\n      tag_252\n        /* \"#utility.yul\":14323:14324   */\n      0x00\n        /* \"#utility.yul\":14319:14325   */\n      not\n        /* \"#utility.yul\":14311:14316   */\n      dup5\n        /* \"#utility.yul\":14308:14309   */\n      0x08\n        /* \"#utility.yul\":14304:14317   */\n      mul\n        /* \"#utility.yul\":14275:14326   */\n      tag_103\n      jump\t// in\n    tag_252:\n        /* \"#utility.yul\":14271:14327   */\n      not\n        /* \"#utility.yul\":14356:14360   */\n      dup1\n        /* \"#utility.yul\":14350:14354   */\n      dup4\n        /* \"#utility.yul\":14346:14361   */\n      and\n        /* \"#utility.yul\":14336:14361   */\n      swap2\n      pop\n        /* \"#utility.yul\":14249:14367   */\n      pop\n        /* \"#utility.yul\":14198:14367   */\n      swap3\n      swap2\n      pop\n      pop\n      jump\t// out\n        /* \"#utility.yul\":14372:14667   */\n    tag_105:\n        /* \"#utility.yul\":14448:14452   */\n      0x00\n        /* \"#utility.yul\":14594:14623   */\n      tag_254\n        /* \"#utility.yul\":14619:14622   */\n      dup4\n        /* \"#utility.yul\":14613:14617   */\n      dup4\n        /* \"#utility.yul\":14594:14623   */\n      tag_104\n      jump\t// in\n    tag_254:\n        /* \"#utility.yul\":14586:14623   */\n      swap2\n      pop\n        /* \"#utility.yul\":14656:14659   */\n      dup3\n        /* \"#utility.yul\":14653:14654   */\n      0x02\n        /* \"#utility.yul\":14649:14660   */\n      mul\n        /* \"#utility.yul\":14643:14647   */\n      dup3\n        /* \"#utility.yul\":14640:14661   */\n      or\n        /* \"#utility.yul\":14632:14661   */\n      swap1\n      pop\n        /* \"#utility.yul\":14372:14667   */\n      swap3\n      swap2\n      pop\n      pop\n      jump\t// out\n        /* \"#utility.yul\":14672:16067   */\n    tag_38:\n        /* \"#utility.yul\":14789:14826   */\n      tag_256\n        /* \"#utility.yul\":14822:14825   */\n      dup3\n        /* \"#utility.yul\":14789:14826   */\n      tag_76\n      jump\t// in\n    tag_256:\n        /* \"#utility.yul\":14891:14909   */\n      0xffffffffffffffff\n        /* \"#utility.yul\":14883:14889   */\n      dup2\n        /* \"#utility.yul\":14880:14910   */\n      gt\n        /* \"#utility.yul\":14877:14933   */\n      iszero\n      tag_257\n      jumpi\n        /* \"#utility.yul\":14913:14931   */\n      tag_258\n      tag_69\n      jump\t// in\n    tag_258:\n        /* \"#utility.yul\":14877:14933   */\n    tag_257:\n        /* \"#utility.yul\":14957:14995   */\n      tag_259\n        /* \"#utility.yul\":14989:14993   */\n      dup3\n        /* \"#utility.yul\":14983:14994   */\n      sload\n        /* \"#utility.yul\":14957:14995   */\n      tag_46\n      jump\t// in\n    tag_259:\n        /* \"#utility.yul\":15042:15109   */\n      tag_260\n        /* \"#utility.yul\":15102:15108   */\n      dup3\n        /* \"#utility.yul\":15094:15100   */\n      dup3\n        /* \"#utility.yul\":15088:15092   */\n      dup6\n        /* \"#utility.yul\":15042:15109   */\n      tag_102\n      jump\t// in\n    tag_260:\n        /* \"#utility.yul\":15136:15137   */\n      0x00\n        /* \"#utility.yul\":15160:15164   */\n      0x20\n        /* \"#utility.yul\":15147:15164   */\n      swap1\n      pop\n        /* \"#utility.yul\":15192:15194   */\n      0x1f\n        /* \"#utility.yul\":15184:15190   */\n      dup4\n        /* \"#utility.yul\":15181:15195   */\n      gt\n        /* \"#utility.yul\":15209:15210   */\n      0x01\n        /* \"#utility.yul\":15204:15822   */\n      dup2\n      eq\n      tag_262\n      jumpi\n        /* \"#utility.yul\":15866:15867   */\n      0x00\n        /* \"#utility.yul\":15883:15889   */\n      dup5\n        /* \"#utility.yul\":15880:15957   */\n      iszero\n      tag_263\n      jumpi\n        /* \"#utility.yul\":15932:15941   */\n      dup3\n        /* \"#utility.yul\":15927:15930   */\n      dup8\n        /* \"#utility.yul\":15923:15942   */\n      add\n        /* \"#utility.yul\":15917:15943   */\n      mload\n        /* \"#utility.yul\":15908:15943   */\n      swap1\n      pop\n        /* \"#utility.yul\":15880:15957   */\n    tag_263:\n        /* \"#utility.yul\":15983:16050   */\n      tag_264\n        /* \"#utility.yul\":16043:16049   */\n      dup6\n        /* \"#utility.yul\":16036:16041   */\n      dup3\n        /* \"#utility.yul\":15983:16050   */\n      tag_105\n      jump\t// in\n    tag_264:\n        /* \"#utility.yul\":15977:15981   */\n      dup7\n        /* \"#utility.yul\":15970:16051   */\n      sstore\n        /* \"#utility.yul\":15839:16061   */\n      pop\n        /* \"#utility.yul\":15174:16061   */\n      jump(tag_261)\n        /* \"#utility.yul\":15204:15822   */\n    tag_262:\n        /* \"#utility.yul\":15256:15260   */\n      0x1f\n        /* \"#utility.yul\":15252:15261   */\n      not\n        /* \"#utility.yul\":15244:15250   */\n      dup5\n        /* \"#utility.yul\":15240:15262   */\n      and\n        /* \"#utility.yul\":15290:15327   */\n      tag_265\n        /* \"#utility.yul\":15322:15326   */\n      dup7\n        /* \"#utility.yul\":15290:15327   */\n      tag_91\n      jump\t// in\n    tag_265:\n        /* \"#utility.yul\":15349:15350   */\n      0x00\n        /* \"#utility.yul\":15363:15571   */\n    tag_266:\n        /* \"#utility.yul\":15377:15384   */\n      dup3\n        /* \"#utility.yul\":15374:15375   */\n      dup2\n        /* \"#utility.yul\":15371:15385   */\n      lt\n        /* \"#utility.yul\":15363:15571   */\n      iszero\n      tag_268\n      jumpi\n        /* \"#utility.yul\":15456:15465   */\n      dup5\n        /* \"#utility.yul\":15451:15454   */\n      dup10\n        /* \"#utility.yul\":15447:15466   */\n      add\n        /* \"#utility.yul\":15441:15467   */\n      mload\n        /* \"#utility.yul\":15433:15439   */\n      dup3\n        /* \"#utility.yul\":15426:15468   */\n      sstore\n        /* \"#utility.yul\":15507:15508   */\n      0x01\n        /* \"#utility.yul\":15499:15505   */\n      dup3\n        /* \"#utility.yul\":15495:15509   */\n      add\n        /* \"#utility.yul\":15485:15509   */\n      swap2\n      pop\n        /* \"#utility.yul\":15554:15556   */\n      0x20\n        /* \"#utility.yul\":15543:15552   */\n      dup6\n        /* \"#utility.yul\":15539:15557   */\n      add\n        /* \"#utility.yul\":15526:15557   */\n      swap5\n      pop\n        /* \"#utility.yul\":15400:15404   */\n      0x20\n        /* \"#utility.yul\":15397:15398   */\n      dup2\n        /* \"#utility.yul\":15393:15405   */\n      add\n        /* \"#utility.yul\":15388:15405   */\n      swap1\n      pop\n        /* \"#utility.yul\":15363:15571   */\n      jump(tag_266)\n    tag_268:\n        /* \"#utility.yul\":15599:15605   */\n      dup7\n        /* \"#utility.yul\":15590:15597   */\n      dup4\n        /* \"#utility.yul\":15587:15606   */\n      lt\n        /* \"#utility.yul\":15584:15763   */\n      iszero\n      tag_269\n      jumpi\n        /* \"#utility.yul\":15657:15666   */\n      dup5\n        /* \"#utility.yul\":15652:15655   */\n      dup10\n        /* \"#utility.yul\":15648:15667   */\n      add\n        /* \"#utility.yul\":15642:15668   */\n      mload\n        /* \"#utility.yul\":15700:15748   */\n      tag_270\n        /* \"#utility.yul\":15742:15746   */\n      0x1f\n        /* \"#utility.yul\":15734:15740   */\n      dup10\n        /* \"#utility.yul\":15730:15747   */\n      and\n        /* \"#utility.yul\":15719:15728   */\n      dup3\n        /* \"#utility.yul\":15700:15748   */\n      tag_104\n      jump\t// in\n    tag_270:\n        /* \"#utility.yul\":15692:15698   */\n      dup4\n        /* \"#utility.yul\":15685:15749   */\n      sstore\n        /* \"#utility.yul\":15607:15763   */\n      pop\n        /* \"#utility.yul\":15584:15763   */\n    tag_269:\n        /* \"#utility.yul\":15809:15810   */\n      0x01\n        /* \"#utility.yul\":15805:15806   */\n      0x02\n        /* \"#utility.yul\":15797:15803   */\n      dup9\n        /* \"#utility.yul\":15793:15807   */\n      mul\n        /* \"#utility.yul\":15789:15811   */\n      add\n        /* \"#utility.yul\":15783:15787   */\n      dup9\n        /* \"#utility.yul\":15776:15812   */\n      sstore\n        /* \"#utility.yul\":15211:15822   */\n      pop\n      pop\n      pop\n        /* \"#utility.yul\":15174:16061   */\n    tag_261:\n      pop\n        /* \"#utility.yul\":14764:16067   */\n      pop\n      pop\n      pop\n        /* \"#utility.yul\":14672:16067   */\n      pop\n      pop\n      jump\t// out\n        /* \"#utility.yul\":16073:16808   */\n    tag_41:\n        /* \"#utility.yul\":16290:16294   */\n      0x00\n        /* \"#utility.yul\":16328:16331   */\n      0x80\n        /* \"#utility.yul\":16317:16326   */\n      dup3\n        /* \"#utility.yul\":16313:16332   */\n      add\n        /* \"#utility.yul\":16305:16332   */\n      swap1\n      pop\n        /* \"#utility.yul\":16342:16413   */\n      tag_272\n        /* \"#utility.yul\":16410:16411   */\n      0x00\n        /* \"#utility.yul\":16399:16408   */\n      dup4\n        /* \"#utility.yul\":16395:16412   */\n      add\n        /* \"#utility.yul\":16386:16392   */\n      dup8\n        /* \"#utility.yul\":16342:16413   */\n      tag_81\n      jump\t// in\n    tag_272:\n        /* \"#utility.yul\":16460:16469   */\n      dup2\n        /* \"#utility.yul\":16454:16458   */\n      dup2\n        /* \"#utility.yul\":16450:16470   */\n      sub\n        /* \"#utility.yul\":16445:16447   */\n      0x20\n        /* \"#utility.yul\":16434:16443   */\n      dup4\n        /* \"#utility.yul\":16430:16448   */\n      add\n        /* \"#utility.yul\":16423:16471   */\n      mstore\n        /* \"#utility.yul\":16488:16566   */\n      tag_273\n        /* \"#utility.yul\":16561:16565   */\n      dup2\n        /* \"#utility.yul\":16552:16558   */\n      dup7\n        /* \"#utility.yul\":16488:16566   */\n      tag_79\n      jump\t// in\n    tag_273:\n        /* \"#utility.yul\":16480:16566   */\n      swap1\n      pop\n        /* \"#utility.yul\":16613:16622   */\n      dup2\n        /* \"#utility.yul\":16607:16611   */\n      dup2\n        /* \"#utility.yul\":16603:16623   */\n      sub\n        /* \"#utility.yul\":16598:16600   */\n      0x40\n        /* \"#utility.yul\":16587:16596   */\n      dup4\n        /* \"#utility.yul\":16583:16601   */\n      add\n        /* \"#utility.yul\":16576:16624   */\n      mstore\n        /* \"#utility.yul\":16641:16719   */\n      tag_274\n        /* \"#utility.yul\":16714:16718   */\n      dup2\n        /* \"#utility.yul\":16705:16711   */\n      dup6\n        /* \"#utility.yul\":16641:16719   */\n      tag_79\n      jump\t// in\n    tag_274:\n        /* \"#utility.yul\":16633:16719   */\n      swap1\n      pop\n        /* \"#utility.yul\":16729:16801   */\n      tag_275\n        /* \"#utility.yul\":16797:16799   */\n      0x60\n        /* \"#utility.yul\":16786:16795   */\n      dup4\n        /* \"#utility.yul\":16782:16800   */\n      add\n        /* \"#utility.yul\":16773:16779   */\n      dup5\n        /* \"#utility.yul\":16729:16801   */\n      tag_80\n      jump\t// in\n    tag_275:\n        /* \"#utility.yul\":16073:16808   */\n      swap6\n      swap5\n      pop\n      pop\n      pop\n      pop\n      pop\n      jump\t// out\n\n    auxdata: 0xa2646970667358221220df9ea38a8c3c333a8237b6a936ceeca33bbb8bb68a47dec38faa2d86178a95e064736f6c63430008120033\n}\n",
				"bytecode": {
					"linkReferences": {},
					"object": "608060405234801561001057600080fd5b50336000806101000a81548173ffffffffffffffffffffffffffffffffffffffff021916908373ffffffffffffffffffffffffffffffffffffffff160217905550610f33806100606000396000f3fe608060405234801561001057600080fd5b506004361061004c5760003560e01c8063012b28c6146100515780633e31ece21461006d578063a4a123f114610089578063d811fcf0146100bc575b600080fd5b61006b6004803603810190610066919061081e565b6100da565b005b6100876004803603810190610082919061081e565b61039e565b005b6100a3600480360381019061009e91906108d1565b6104bf565b6040516100b3949392919061099f565b60405180910390f35b6100c461060c565b6040516100d19190610a01565b60405180910390f35b600082511161011e576040517f08c379a000000000000000000000000000000000000000000000000000000000815260040161011590610a68565b60405180910390fd5b6000835111610162576040517f08c379a000000000000000000000000000000000000000000000000000000000815260040161015990610ad4565b60405180910390fd5b600081116101a5576040517f08c379a000000000000000000000000000000000000000000000000000000000815260040161019c90610b40565b60405180910390fd5b600084116101e8576040517f08c379a00000000000000000000000000000000000000000000000000000000081526004016101df90610bac565b60405180910390fd5b82600160008773ffffffffffffffffffffffffffffffffffffffff1673ffffffffffffffffffffffffffffffffffffffff168152602001908152602001600020600086815260200190815260200160002060000190816102489190610dd8565b5081600160008773ffffffffffffffffffffffffffffffffffffffff1673ffffffffffffffffffffffffffffffffffffffff168152602001908152602001600020600086815260200190815260200160002060010190816102a99190610dd8565b5080600160008773ffffffffffffffffffffffffffffffffffffffff1673ffffffffffffffffffffffffffffffffffffffff16815260200190815260200160002060008681526020019081526020016000206002018190555042600160008773ffffffffffffffffffffffffffffffffffffffff1673ffffffffffffffffffffffffffffffffffffffff1681526020019081526020016000206000868152602001908152602001600020600301819055507f68cfe24f3b199f2f9eec2a8366b7db82a917e6f607a67cf1c8fc94111c9370c68583858460405161038f9493929190610eaa565b60405180910390a15050505050565b82600160008773ffffffffffffffffffffffffffffffffffffffff1673ffffffffffffffffffffffffffffffffffffffff168152602001908152602001600020600086815260200190815260200160002060010190816103fe9190610dd8565b5080600160008773ffffffffffffffffffffffffffffffffffffffff1673ffffffffffffffffffffffffffffffffffffffff16815260200190815260200160002060008681526020019081526020016000206002018190555081600160008773ffffffffffffffffffffffffffffffffffffffff1673ffffffffffffffffffffffffffffffffffffffff168152602001908152602001600020600086815260200190815260200160002060000190816104b79190610dd8565b505050505050565b6001602052816000526040600020602052806000526040600020600091509150508060000180546104ef90610bfb565b80601f016020809104026020016040519081016040528092919081815260200182805461051b90610bfb565b80156105685780601f1061053d57610100808354040283529160200191610568565b820191906000526020600020905b81548152906001019060200180831161054b57829003601f168201915b50505050509080600101805461057d90610bfb565b80601f01602080910402602001604051908101604052809291908181526020018280546105a990610bfb565b80156105f65780601f106105cb576101008083540402835291602001916105f6565b820191906000526020600020905b8154815290600101906020018083116105d957829003601f168201915b5050505050908060020154908060030154905084565b60008054906101000a900473ffffffffffffffffffffffffffffffffffffffff1681565b6000604051905090565b600080fd5b600080fd5b600073ffffffffffffffffffffffffffffffffffffffff82169050919050565b600061066f82610644565b9050919050565b61067f81610664565b811461068a57600080fd5b50565b60008135905061069c81610676565b92915050565b6000819050919050565b6106b5816106a2565b81146106c057600080fd5b50565b6000813590506106d2816106ac565b92915050565b600080fd5b600080fd5b6000601f19601f8301169050919050565b7f4e487b7100000000000000000000000000000000000000000000000000000000600052604160045260246000fd5b61072b826106e2565b810181811067ffffffffffffffff8211171561074a576107496106f3565b5b80604052505050565b600061075d610630565b90506107698282610722565b919050565b600067ffffffffffffffff821115610789576107886106f3565b5b610792826106e2565b9050602081019050919050565b82818337600083830152505050565b60006107c16107bc8461076e565b610753565b9050828152602081018484840111156107dd576107dc6106dd565b5b6107e884828561079f565b509392505050565b600082601f830112610805576108046106d8565b5b81356108158482602086016107ae565b91505092915050565b600080600080600060a0868803121561083a5761083961063a565b5b60006108488882890161068d565b9550506020610859888289016106c3565b945050604086013567ffffffffffffffff81111561087a5761087961063f565b5b610886888289016107f0565b935050606086013567ffffffffffffffff8111156108a7576108a661063f565b5b6108b3888289016107f0565b92505060806108c4888289016106c3565b9150509295509295909350565b600080604083850312156108e8576108e761063a565b5b60006108f68582860161068d565b9250506020610907858286016106c3565b9150509250929050565b600081519050919050565b600082825260208201905092915050565b60005b8381101561094b578082015181840152602081019050610930565b60008484015250505050565b600061096282610911565b61096c818561091c565b935061097c81856020860161092d565b610985816106e2565b840191505092915050565b610999816106a2565b82525050565b600060808201905081810360008301526109b98187610957565b905081810360208301526109cd8186610957565b90506109dc6040830185610990565b6109e96060830184610990565b95945050505050565b6109fb81610664565b82525050565b6000602082019050610a1660008301846109f2565b92915050565b7f43726f70206e616d652073686f756c64206e6f7420626520656d707479000000600082015250565b6000610a52601d8361091c565b9150610a5d82610a1c565b602082019050919050565b60006020820190508181036000830152610a8181610a45565b9050919050565b7f4c6f636174696f6e2073686f756c642062652073706563696669656400000000600082015250565b6000610abe601c8361091c565b9150610ac982610a88565b602082019050919050565b60006020820190508181036000830152610aed81610ab1565b9050919050565b7f417265612073686f756c642062652067726561746572207468616e207a65726f600082015250565b6000610b2a60208361091c565b9150610b3582610af4565b602082019050919050565b60006020820190508181036000830152610b5981610b1d565b9050919050565b7f4944206973207265717569726564000000000000000000000000000000000000600082015250565b6000610b96600e8361091c565b9150610ba182610b60565b602082019050919050565b60006020820190508181036000830152610bc581610b89565b9050919050565b7f4e487b7100000000000000000000000000000000000000000000000000000000600052602260045260246000fd5b60006002820490506001821680610c1357607f821691505b602082108103610c2657610c25610bcc565b5b50919050565b60008190508160005260206000209050919050565b60006020601f8301049050919050565b600082821b905092915050565b600060088302610c8e7fffffffffffffffffffffffffffffffffffffffffffffffffffffffffffffffff82610c51565b610c988683610c51565b95508019841693508086168417925050509392505050565b6000819050919050565b6000610cd5610cd0610ccb846106a2565b610cb0565b6106a2565b9050919050565b6000819050919050565b610cef83610cba565b610d03610cfb82610cdc565b848454610c5e565b825550505050565b600090565b610d18610d0b565b610d23818484610ce6565b505050565b5b81811015610d4757610d3c600082610d10565b600181019050610d29565b5050565b601f821115610d8c57610d5d81610c2c565b610d6684610c41565b81016020851015610d75578190505b610d89610d8185610c41565b830182610d28565b50505b505050565b600082821c905092915050565b6000610daf60001984600802610d91565b1980831691505092915050565b6000610dc88383610d9e565b9150826002028217905092915050565b610de182610911565b67ffffffffffffffff811115610dfa57610df96106f3565b5b610e048254610bfb565b610e0f828285610d4b565b600060209050601f831160018114610e425760008415610e30578287015190505b610e3a8582610dbc565b865550610ea2565b601f198416610e5086610c2c565b60005b82811015610e7857848901518255600182019150602085019450602081019050610e53565b86831015610e955784890151610e91601f891682610d9e565b8355505b6001600288020188555050505b505050505050565b6000608082019050610ebf60008301876109f2565b8181036020830152610ed18186610957565b90508181036040830152610ee58185610957565b9050610ef46060830184610990565b9594505050505056fea2646970667358221220df9ea38a8c3c333a8237b6a936ceeca33bbb8bb68a47dec38faa2d86178a95e064736f6c63430008120033",
					"opcodes": "PUSH1 0x80 PUSH1 0x40 MSTORE CALLVALUE DUP1 ISZERO PUSH2 0x10 JUMPI PUSH1 0x0 DUP1 REVERT JUMPDEST POP CALLER PUSH1 0x0 DUP1 PUSH2 0x100 EXP DUP2 SLOAD DUP2 PUSH20 0xFFFFFFFFFFFFFFFFFFFFFFFFFFFFFFFFFFFFFFFF MUL NOT AND SWAP1 DUP4 PUSH20 0xFFFFFFFFFFFFFFFFFFFFFFFFFFFFFFFFFFFFFFFF AND MUL OR SWAP1 SSTORE POP PUSH2 0xF33 DUP1 PUSH2 0x60 PUSH1 0x0 CODECOPY PUSH1 0x0 RETURN INVALID PUSH1 0x80 PUSH1 0x40 MSTORE CALLVALUE DUP1 ISZERO PUSH2 0x10 JUMPI PUSH1 0x0 DUP1 REVERT JUMPDEST POP PUSH1 0x4 CALLDATASIZE LT PUSH2 0x4C JUMPI PUSH1 0x0 CALLDATALOAD PUSH1 0xE0 SHR DUP1 PUSH4 0x12B28C6 EQ PUSH2 0x51 JUMPI DUP1 PUSH4 0x3E31ECE2 EQ PUSH2 0x6D JUMPI DUP1 PUSH4 0xA4A123F1 EQ PUSH2 0x89 JUMPI DUP1 PUSH4 0xD811FCF0 EQ PUSH2 0xBC JUMPI JUMPDEST PUSH1 0x0 DUP1 REVERT JUMPDEST PUSH2 0x6B PUSH1 0x4 DUP1 CALLDATASIZE SUB DUP2 ADD SWAP1 PUSH2 0x66 SWAP2 SWAP1 PUSH2 0x81E JUMP JUMPDEST PUSH2 0xDA JUMP JUMPDEST STOP JUMPDEST PUSH2 0x87 PUSH1 0x4 DUP1 CALLDATASIZE SUB DUP2 ADD SWAP1 PUSH2 0x82 SWAP2 SWAP1 PUSH2 0x81E JUMP JUMPDEST PUSH2 0x39E JUMP JUMPDEST STOP JUMPDEST PUSH2 0xA3 PUSH1 0x4 DUP1 CALLDATASIZE SUB DUP2 ADD SWAP1 PUSH2 0x9E SWAP2 SWAP1 PUSH2 0x8D1 JUMP JUMPDEST PUSH2 0x4BF JUMP JUMPDEST PUSH1 0x40 MLOAD PUSH2 0xB3 SWAP5 SWAP4 SWAP3 SWAP2 SWAP1 PUSH2 0x99F JUMP JUMPDEST PUSH1 0x40 MLOAD DUP1 SWAP2 SUB SWAP1 RETURN JUMPDEST PUSH2 0xC4 PUSH2 0x60C JUMP JUMPDEST PUSH1 0x40 MLOAD PUSH2 0xD1 SWAP2 SWAP1 PUSH2 0xA01 JUMP JUMPDEST PUSH1 0x40 MLOAD DUP1 SWAP2 SUB SWAP1 RETURN JUMPDEST PUSH1 0x0 DUP3 MLOAD GT PUSH2 0x11E JUMPI PUSH1 0x40 MLOAD PUSH32 0x8C379A000000000000000000000000000000000000000000000000000000000 DUP2 MSTORE PUSH1 0x4 ADD PUSH2 0x115 SWAP1 PUSH2 0xA68 JUMP JUMPDEST PUSH1 0x40 MLOAD DUP1 SWAP2 SUB SWAP1 REVERT JUMPDEST PUSH1 0x0 DUP4 MLOAD GT PUSH2 0x162 JUMPI PUSH1 0x40 MLOAD PUSH32 0x8C379A000000000000000000000000000000000000000000000000000000000 DUP2 MSTORE PUSH1 0x4 ADD PUSH2 0x159 SWAP1 PUSH2 0xAD4 JUMP JUMPDEST PUSH1 0x40 MLOAD DUP1 SWAP2 SUB SWAP1 REVERT JUMPDEST PUSH1 0x0 DUP2 GT PUSH2 0x1A5 JUMPI PUSH1 0x40 MLOAD PUSH32 0x8C379A000000000000000000000000000000000000000000000000000000000 DUP2 MSTORE PUSH1 0x4 ADD PUSH2 0x19C SWAP1 PUSH2 0xB40 JUMP JUMPDEST PUSH1 0x40 MLOAD DUP1 SWAP2 SUB SWAP1 REVERT JUMPDEST PUSH1 0x0 DUP5 GT PUSH2 0x1E8 JUMPI PUSH1 0x40 MLOAD PUSH32 0x8C379A000000000000000000000000000000000000000000000000000000000 DUP2 MSTORE PUSH1 0x4 ADD PUSH2 0x1DF SWAP1 PUSH2 0xBAC JUMP JUMPDEST PUSH1 0x40 MLOAD DUP1 SWAP2 SUB SWAP1 REVERT JUMPDEST DUP3 PUSH1 0x1 PUSH1 0x0 DUP8 PUSH20 0xFFFFFFFFFFFFFFFFFFFFFFFFFFFFFFFFFFFFFFFF AND PUSH20 0xFFFFFFFFFFFFFFFFFFFFFFFFFFFFFFFFFFFFFFFF AND DUP2 MSTORE PUSH1 0x20 ADD SWAP1 DUP2 MSTORE PUSH1 0x20 ADD PUSH1 0x0 KECCAK256 PUSH1 0x0 DUP7 DUP2 MSTORE PUSH1 0x20 ADD SWAP1 DUP2 MSTORE PUSH1 0x20 ADD PUSH1 0x0 KECCAK256 PUSH1 0x0 ADD SWAP1 DUP2 PUSH2 0x248 SWAP2 SWAP1 PUSH2 0xDD8 JUMP JUMPDEST POP DUP2 PUSH1 0x1 PUSH1 0x0 DUP8 PUSH20 0xFFFFFFFFFFFFFFFFFFFFFFFFFFFFFFFFFFFFFFFF AND PUSH20 0xFFFFFFFFFFFFFFFFFFFFFFFFFFFFFFFFFFFFFFFF AND DUP2 MSTORE PUSH1 0x20 ADD SWAP1 DUP2 MSTORE PUSH1 0x20 ADD PUSH1 0x0 KECCAK256 PUSH1 0x0 DUP7 DUP2 MSTORE PUSH1 0x20 ADD SWAP1 DUP2 MSTORE PUSH1 0x20 ADD PUSH1 0x0 KECCAK256 PUSH1 0x1 ADD SWAP1 DUP2 PUSH2 0x2A9 SWAP2 SWAP1 PUSH2 0xDD8 JUMP JUMPDEST POP DUP1 PUSH1 0x1 PUSH1 0x0 DUP8 PUSH20 0xFFFFFFFFFFFFFFFFFFFFFFFFFFFFFFFFFFFFFFFF AND PUSH20 0xFFFFFFFFFFFFFFFFFFFFFFFFFFFFFFFFFFFFFFFF AND DUP2 MSTORE PUSH1 0x20 ADD SWAP1 DUP2 MSTORE PUSH1 0x20 ADD PUSH1 0x0 KECCAK256 PUSH1 0x0 DUP7 DUP2 MSTORE PUSH1 0x20 ADD SWAP1 DUP2 MSTORE PUSH1 0x20 ADD PUSH1 0x0 KECCAK256 PUSH1 0x2 ADD DUP2 SWAP1 SSTORE POP TIMESTAMP PUSH1 0x1 PUSH1 0x0 DUP8 PUSH20 0xFFFFFFFFFFFFFFFFFFFFFFFFFFFFFFFFFFFFFFFF AND PUSH20 0xFFFFFFFFFFFFFFFFFFFFFFFFFFFFFFFFFFFFFFFF AND DUP2 MSTORE PUSH1 0x20 ADD SWAP1 DUP2 MSTORE PUSH1 0x20 ADD PUSH1 0x0 KECCAK256 PUSH1 0x0 DUP7 DUP2 MSTORE PUSH1 0x20 ADD SWAP1 DUP2 MSTORE PUSH1 0x20 ADD PUSH1 0x0 KECCAK256 PUSH1 0x3 ADD DUP2 SWAP1 SSTORE POP PUSH32 0x68CFE24F3B199F2F9EEC2A8366B7DB82A917E6F607A67CF1C8FC94111C9370C6 DUP6 DUP4 DUP6 DUP5 PUSH1 0x40 MLOAD PUSH2 0x38F SWAP5 SWAP4 SWAP3 SWAP2 SWAP1 PUSH2 0xEAA JUMP JUMPDEST PUSH1 0x40 MLOAD DUP1 SWAP2 SUB SWAP1 LOG1 POP POP POP POP POP JUMP JUMPDEST DUP3 PUSH1 0x1 PUSH1 0x0 DUP8 PUSH20 0xFFFFFFFFFFFFFFFFFFFFFFFFFFFFFFFFFFFFFFFF AND PUSH20 0xFFFFFFFFFFFFFFFFFFFFFFFFFFFFFFFFFFFFFFFF AND DUP2 MSTORE PUSH1 0x20 ADD SWAP1 DUP2 MSTORE PUSH1 0x20 ADD PUSH1 0x0 KECCAK256 PUSH1 0x0 DUP7 DUP2 MSTORE PUSH1 0x20 ADD SWAP1 DUP2 MSTORE PUSH1 0x20 ADD PUSH1 0x0 KECCAK256 PUSH1 0x1 ADD SWAP1 DUP2 PUSH2 0x3FE SWAP2 SWAP1 PUSH2 0xDD8 JUMP JUMPDEST POP DUP1 PUSH1 0x1 PUSH1 0x0 DUP8 PUSH20 0xFFFFFFFFFFFFFFFFFFFFFFFFFFFFFFFFFFFFFFFF AND PUSH20 0xFFFFFFFFFFFFFFFFFFFFFFFFFFFFFFFFFFFFFFFF AND DUP2 MSTORE PUSH1 0x20 ADD SWAP1 DUP2 MSTORE PUSH1 0x20 ADD PUSH1 0x0 KECCAK256 PUSH1 0x0 DUP7 DUP2 MSTORE PUSH1 0x20 ADD SWAP1 DUP2 MSTORE PUSH1 0x20 ADD PUSH1 0x0 KECCAK256 PUSH1 0x2 ADD DUP2 SWAP1 SSTORE POP DUP2 PUSH1 0x1 PUSH1 0x0 DUP8 PUSH20 0xFFFFFFFFFFFFFFFFFFFFFFFFFFFFFFFFFFFFFFFF AND PUSH20 0xFFFFFFFFFFFFFFFFFFFFFFFFFFFFFFFFFFFFFFFF AND DUP2 MSTORE PUSH1 0x20 ADD SWAP1 DUP2 MSTORE PUSH1 0x20 ADD PUSH1 0x0 KECCAK256 PUSH1 0x0 DUP7 DUP2 MSTORE PUSH1 0x20 ADD SWAP1 DUP2 MSTORE PUSH1 0x20 ADD PUSH1 0x0 KECCAK256 PUSH1 0x0 ADD SWAP1 DUP2 PUSH2 0x4B7 SWAP2 SWAP1 PUSH2 0xDD8 JUMP JUMPDEST POP POP POP POP POP POP JUMP JUMPDEST PUSH1 0x1 PUSH1 0x20 MSTORE DUP2 PUSH1 0x0 MSTORE PUSH1 0x40 PUSH1 0x0 KECCAK256 PUSH1 0x20 MSTORE DUP1 PUSH1 0x0 MSTORE PUSH1 0x40 PUSH1 0x0 KECCAK256 PUSH1 0x0 SWAP2 POP SWAP2 POP POP DUP1 PUSH1 0x0 ADD DUP1 SLOAD PUSH2 0x4EF SWAP1 PUSH2 0xBFB JUMP JUMPDEST DUP1 PUSH1 0x1F ADD PUSH1 0x20 DUP1 SWAP2 DIV MUL PUSH1 0x20 ADD PUSH1 0x40 MLOAD SWAP1 DUP2 ADD PUSH1 0x40 MSTORE DUP1 SWAP3 SWAP2 SWAP1 DUP2 DUP2 MSTORE PUSH1 0x20 ADD DUP3 DUP1 SLOAD PUSH2 0x51B SWAP1 PUSH2 0xBFB JUMP JUMPDEST DUP1 ISZERO PUSH2 0x568 JUMPI DUP1 PUSH1 0x1F LT PUSH2 0x53D JUMPI PUSH2 0x100 DUP1 DUP4 SLOAD DIV MUL DUP4 MSTORE SWAP2 PUSH1 0x20 ADD SWAP2 PUSH2 0x568 JUMP JUMPDEST DUP3 ADD SWAP2 SWAP1 PUSH1 0x0 MSTORE PUSH1 0x20 PUSH1 0x0 KECCAK256 SWAP1 JUMPDEST DUP2 SLOAD DUP2 MSTORE SWAP1 PUSH1 0x1 ADD SWAP1 PUSH1 0x20 ADD DUP1 DUP4 GT PUSH2 0x54B JUMPI DUP3 SWAP1 SUB PUSH1 0x1F AND DUP3 ADD SWAP2 JUMPDEST POP POP POP POP POP SWAP1 DUP1 PUSH1 0x1 ADD DUP1 SLOAD PUSH2 0x57D SWAP1 PUSH2 0xBFB JUMP JUMPDEST DUP1 PUSH1 0x1F ADD PUSH1 0x20 DUP1 SWAP2 DIV MUL PUSH1 0x20 ADD PUSH1 0x40 MLOAD SWAP1 DUP2 ADD PUSH1 0x40 MSTORE DUP1 SWAP3 SWAP2 SWAP1 DUP2 DUP2 MSTORE PUSH1 0x20 ADD DUP3 DUP1 SLOAD PUSH2 0x5A9 SWAP1 PUSH2 0xBFB JUMP JUMPDEST DUP1 ISZERO PUSH2 0x5F6 JUMPI DUP1 PUSH1 0x1F LT PUSH2 0x5CB JUMPI PUSH2 0x100 DUP1 DUP4 SLOAD DIV MUL DUP4 MSTORE SWAP2 PUSH1 0x20 ADD SWAP2 PUSH2 0x5F6 JUMP JUMPDEST DUP3 ADD SWAP2 SWAP1 PUSH1 0x0 MSTORE PUSH1 0x20 PUSH1 0x0 KECCAK256 SWAP1 JUMPDEST DUP2 SLOAD DUP2 MSTORE SWAP1 PUSH1 0x1 ADD SWAP1 PUSH1 0x20 ADD DUP1 DUP4 GT PUSH2 0x5D9 JUMPI DUP3 SWAP1 SUB PUSH1 0x1F AND DUP3 ADD SWAP2 JUMPDEST POP POP POP POP POP SWAP1 DUP1 PUSH1 0x2 ADD SLOAD SWAP1 DUP1 PUSH1 0x3 ADD SLOAD SWAP1 POP DUP5 JUMP JUMPDEST PUSH1 0x0 DUP1 SLOAD SWAP1 PUSH2 0x100 EXP SWAP1 DIV PUSH20 0xFFFFFFFFFFFFFFFFFFFFFFFFFFFFFFFFFFFFFFFF AND DUP2 JUMP JUMPDEST PUSH1 0x0 PUSH1 0x40 MLOAD SWAP1 POP SWAP1 JUMP JUMPDEST PUSH1 0x0 DUP1 REVERT JUMPDEST PUSH1 0x0 DUP1 REVERT JUMPDEST PUSH1 0x0 PUSH20 0xFFFFFFFFFFFFFFFFFFFFFFFFFFFFFFFFFFFFFFFF DUP3 AND SWAP1 POP SWAP2 SWAP1 POP JUMP JUMPDEST PUSH1 0x0 PUSH2 0x66F DUP3 PUSH2 0x644 JUMP JUMPDEST SWAP1 POP SWAP2 SWAP1 POP JUMP JUMPDEST PUSH2 0x67F DUP2 PUSH2 0x664 JUMP JUMPDEST DUP2 EQ PUSH2 0x68A JUMPI PUSH1 0x0 DUP1 REVERT JUMPDEST POP JUMP JUMPDEST PUSH1 0x0 DUP2 CALLDATALOAD SWAP1 POP PUSH2 0x69C DUP2 PUSH2 0x676 JUMP JUMPDEST SWAP3 SWAP2 POP POP JUMP JUMPDEST PUSH1 0x0 DUP2 SWAP1 POP SWAP2 SWAP1 POP JUMP JUMPDEST PUSH2 0x6B5 DUP2 PUSH2 0x6A2 JUMP JUMPDEST DUP2 EQ PUSH2 0x6C0 JUMPI PUSH1 0x0 DUP1 REVERT JUMPDEST POP JUMP JUMPDEST PUSH1 0x0 DUP2 CALLDATALOAD SWAP1 POP PUSH2 0x6D2 DUP2 PUSH2 0x6AC JUMP JUMPDEST SWAP3 SWAP2 POP POP JUMP JUMPDEST PUSH1 0x0 DUP1 REVERT JUMPDEST PUSH1 0x0 DUP1 REVERT JUMPDEST PUSH1 0x0 PUSH1 0x1F NOT PUSH1 0x1F DUP4 ADD AND SWAP1 POP SWAP2 SWAP1 POP JUMP JUMPDEST PUSH32 0x4E487B7100000000000000000000000000000000000000000000000000000000 PUSH1 0x0 MSTORE PUSH1 0x41 PUSH1 0x4 MSTORE PUSH1 0x24 PUSH1 0x0 REVERT JUMPDEST PUSH2 0x72B DUP3 PUSH2 0x6E2 JUMP JUMPDEST DUP2 ADD DUP2 DUP2 LT PUSH8 0xFFFFFFFFFFFFFFFF DUP3 GT OR ISZERO PUSH2 0x74A JUMPI PUSH2 0x749 PUSH2 0x6F3 JUMP JUMPDEST JUMPDEST DUP1 PUSH1 0x40 MSTORE POP POP POP JUMP JUMPDEST PUSH1 0x0 PUSH2 0x75D PUSH2 0x630 JUMP JUMPDEST SWAP1 POP PUSH2 0x769 DUP3 DUP3 PUSH2 0x722 JUMP JUMPDEST SWAP2 SWAP1 POP JUMP JUMPDEST PUSH1 0x0 PUSH8 0xFFFFFFFFFFFFFFFF DUP3 GT ISZERO PUSH2 0x789 JUMPI PUSH2 0x788 PUSH2 0x6F3 JUMP JUMPDEST JUMPDEST PUSH2 0x792 DUP3 PUSH2 0x6E2 JUMP JUMPDEST SWAP1 POP PUSH1 0x20 DUP2 ADD SWAP1 POP SWAP2 SWAP1 POP JUMP JUMPDEST DUP3 DUP2 DUP4 CALLDATACOPY PUSH1 0x0 DUP4 DUP4 ADD MSTORE POP POP POP JUMP JUMPDEST PUSH1 0x0 PUSH2 0x7C1 PUSH2 0x7BC DUP5 PUSH2 0x76E JUMP JUMPDEST PUSH2 0x753 JUMP JUMPDEST SWAP1 POP DUP3 DUP2 MSTORE PUSH1 0x20 DUP2 ADD DUP5 DUP5 DUP5 ADD GT ISZERO PUSH2 0x7DD JUMPI PUSH2 0x7DC PUSH2 0x6DD JUMP JUMPDEST JUMPDEST PUSH2 0x7E8 DUP5 DUP3 DUP6 PUSH2 0x79F JUMP JUMPDEST POP SWAP4 SWAP3 POP POP POP JUMP JUMPDEST PUSH1 0x0 DUP3 PUSH1 0x1F DUP4 ADD SLT PUSH2 0x805 JUMPI PUSH2 0x804 PUSH2 0x6D8 JUMP JUMPDEST JUMPDEST DUP2 CALLDATALOAD PUSH2 0x815 DUP5 DUP3 PUSH1 0x20 DUP7 ADD PUSH2 0x7AE JUMP JUMPDEST SWAP2 POP POP SWAP3 SWAP2 POP POP JUMP JUMPDEST PUSH1 0x0 DUP1 PUSH1 0x0 DUP1 PUSH1 0x0 PUSH1 0xA0 DUP7 DUP9 SUB SLT ISZERO PUSH2 0x83A JUMPI PUSH2 0x839 PUSH2 0x63A JUMP JUMPDEST JUMPDEST PUSH1 0x0 PUSH2 0x848 DUP9 DUP3 DUP10 ADD PUSH2 0x68D JUMP JUMPDEST SWAP6 POP POP PUSH1 0x20 PUSH2 0x859 DUP9 DUP3 DUP10 ADD PUSH2 0x6C3 JUMP JUMPDEST SWAP5 POP POP PUSH1 0x40 DUP7 ADD CALLDATALOAD PUSH8 0xFFFFFFFFFFFFFFFF DUP2 GT ISZERO PUSH2 0x87A JUMPI PUSH2 0x879 PUSH2 0x63F JUMP JUMPDEST JUMPDEST PUSH2 0x886 DUP9 DUP3 DUP10 ADD PUSH2 0x7F0 JUMP JUMPDEST SWAP4 POP POP PUSH1 0x60 DUP7 ADD CALLDATALOAD PUSH8 0xFFFFFFFFFFFFFFFF DUP2 GT ISZERO PUSH2 0x8A7 JUMPI PUSH2 0x8A6 PUSH2 0x63F JUMP JUMPDEST JUMPDEST PUSH2 0x8B3 DUP9 DUP3 DUP10 ADD PUSH2 0x7F0 JUMP JUMPDEST SWAP3 POP POP PUSH1 0x80 PUSH2 0x8C4 DUP9 DUP3 DUP10 ADD PUSH2 0x6C3 JUMP JUMPDEST SWAP2 POP POP SWAP3 SWAP6 POP SWAP3 SWAP6 SWAP1 SWAP4 POP JUMP JUMPDEST PUSH1 0x0 DUP1 PUSH1 0x40 DUP4 DUP6 SUB SLT ISZERO PUSH2 0x8E8 JUMPI PUSH2 0x8E7 PUSH2 0x63A JUMP JUMPDEST JUMPDEST PUSH1 0x0 PUSH2 0x8F6 DUP6 DUP3 DUP7 ADD PUSH2 0x68D JUMP JUMPDEST SWAP3 POP POP PUSH1 0x20 PUSH2 0x907 DUP6 DUP3 DUP7 ADD PUSH2 0x6C3 JUMP JUMPDEST SWAP2 POP POP SWAP3 POP SWAP3 SWAP1 POP JUMP JUMPDEST PUSH1 0x0 DUP2 MLOAD SWAP1 POP SWAP2 SWAP1 POP JUMP JUMPDEST PUSH1 0x0 DUP3 DUP3 MSTORE PUSH1 0x20 DUP3 ADD SWAP1 POP SWAP3 SWAP2 POP POP JUMP JUMPDEST PUSH1 0x0 JUMPDEST DUP4 DUP2 LT ISZERO PUSH2 0x94B JUMPI DUP1 DUP3 ADD MLOAD DUP2 DUP5 ADD MSTORE PUSH1 0x20 DUP2 ADD SWAP1 POP PUSH2 0x930 JUMP JUMPDEST PUSH1 0x0 DUP5 DUP5 ADD MSTORE POP POP POP POP JUMP JUMPDEST PUSH1 0x0 PUSH2 0x962 DUP3 PUSH2 0x911 JUMP JUMPDEST PUSH2 0x96C DUP2 DUP6 PUSH2 0x91C JUMP JUMPDEST SWAP4 POP PUSH2 0x97C DUP2 DUP6 PUSH1 0x20 DUP7 ADD PUSH2 0x92D JUMP JUMPDEST PUSH2 0x985 DUP2 PUSH2 0x6E2 JUMP JUMPDEST DUP5 ADD SWAP2 POP POP SWAP3 SWAP2 POP POP JUMP JUMPDEST PUSH2 0x999 DUP2 PUSH2 0x6A2 JUMP JUMPDEST DUP3 MSTORE POP POP JUMP JUMPDEST PUSH1 0x0 PUSH1 0x80 DUP3 ADD SWAP1 POP DUP2 DUP2 SUB PUSH1 0x0 DUP4 ADD MSTORE PUSH2 0x9B9 DUP2 DUP8 PUSH2 0x957 JUMP JUMPDEST SWAP1 POP DUP2 DUP2 SUB PUSH1 0x20 DUP4 ADD MSTORE PUSH2 0x9CD DUP2 DUP7 PUSH2 0x957 JUMP JUMPDEST SWAP1 POP PUSH2 0x9DC PUSH1 0x40 DUP4 ADD DUP6 PUSH2 0x990 JUMP JUMPDEST PUSH2 0x9E9 PUSH1 0x60 DUP4 ADD DUP5 PUSH2 0x990 JUMP JUMPDEST SWAP6 SWAP5 POP POP POP POP POP JUMP JUMPDEST PUSH2 0x9FB DUP2 PUSH2 0x664 JUMP JUMPDEST DUP3 MSTORE POP POP JUMP JUMPDEST PUSH1 0x0 PUSH1 0x20 DUP3 ADD SWAP1 POP PUSH2 0xA16 PUSH1 0x0 DUP4 ADD DUP5 PUSH2 0x9F2 JUMP JUMPDEST SWAP3 SWAP2 POP POP JUMP JUMPDEST PUSH32 0x43726F70206E616D652073686F756C64206E6F7420626520656D707479000000 PUSH1 0x0 DUP3 ADD MSTORE POP JUMP JUMPDEST PUSH1 0x0 PUSH2 0xA52 PUSH1 0x1D DUP4 PUSH2 0x91C JUMP JUMPDEST SWAP2 POP PUSH2 0xA5D DUP3 PUSH2 0xA1C JUMP JUMPDEST PUSH1 0x20 DUP3 ADD SWAP1 POP SWAP2 SWAP1 POP JUMP JUMPDEST PUSH1 0x0 PUSH1 0x20 DUP3 ADD SWAP1 POP DUP2 DUP2 SUB PUSH1 0x0 DUP4 ADD MSTORE PUSH2 0xA81 DUP2 PUSH2 0xA45 JUMP JUMPDEST SWAP1 POP SWAP2 SWAP1 POP JUMP JUMPDEST PUSH32 0x4C6F636174696F6E2073686F756C642062652073706563696669656400000000 PUSH1 0x0 DUP3 ADD MSTORE POP JUMP JUMPDEST PUSH1 0x0 PUSH2 0xABE PUSH1 0x1C DUP4 PUSH2 0x91C JUMP JUMPDEST SWAP2 POP PUSH2 0xAC9 DUP3 PUSH2 0xA88 JUMP JUMPDEST PUSH1 0x20 DUP3 ADD SWAP1 POP SWAP2 SWAP1 POP JUMP JUMPDEST PUSH1 0x0 PUSH1 0x20 DUP3 ADD SWAP1 POP DUP2 DUP2 SUB PUSH1 0x0 DUP4 ADD MSTORE PUSH2 0xAED DUP2 PUSH2 0xAB1 JUMP JUMPDEST SWAP1 POP SWAP2 SWAP1 POP JUMP JUMPDEST PUSH32 0x417265612073686F756C642062652067726561746572207468616E207A65726F PUSH1 0x0 DUP3 ADD MSTORE POP JUMP JUMPDEST PUSH1 0x0 PUSH2 0xB2A PUSH1 0x20 DUP4 PUSH2 0x91C JUMP JUMPDEST SWAP2 POP PUSH2 0xB35 DUP3 PUSH2 0xAF4 JUMP JUMPDEST PUSH1 0x20 DUP3 ADD SWAP1 POP SWAP2 SWAP1 POP JUMP JUMPDEST PUSH1 0x0 PUSH1 0x20 DUP3 ADD SWAP1 POP DUP2 DUP2 SUB PUSH1 0x0 DUP4 ADD MSTORE PUSH2 0xB59 DUP2 PUSH2 0xB1D JUMP JUMPDEST SWAP1 POP SWAP2 SWAP1 POP JUMP JUMPDEST PUSH32 0x4944206973207265717569726564000000000000000000000000000000000000 PUSH1 0x0 DUP3 ADD MSTORE POP JUMP JUMPDEST PUSH1 0x0 PUSH2 0xB96 PUSH1 0xE DUP4 PUSH2 0x91C JUMP JUMPDEST SWAP2 POP PUSH2 0xBA1 DUP3 PUSH2 0xB60 JUMP JUMPDEST PUSH1 0x20 DUP3 ADD SWAP1 POP SWAP2 SWAP1 POP JUMP JUMPDEST PUSH1 0x0 PUSH1 0x20 DUP3 ADD SWAP1 POP DUP2 DUP2 SUB PUSH1 0x0 DUP4 ADD MSTORE PUSH2 0xBC5 DUP2 PUSH2 0xB89 JUMP JUMPDEST SWAP1 POP SWAP2 SWAP1 POP JUMP JUMPDEST PUSH32 0x4E487B7100000000000000000000000000000000000000000000000000000000 PUSH1 0x0 MSTORE PUSH1 0x22 PUSH1 0x4 MSTORE PUSH1 0x24 PUSH1 0x0 REVERT JUMPDEST PUSH1 0x0 PUSH1 0x2 DUP3 DIV SWAP1 POP PUSH1 0x1 DUP3 AND DUP1 PUSH2 0xC13 JUMPI PUSH1 0x7F DUP3 AND SWAP2 POP JUMPDEST PUSH1 0x20 DUP3 LT DUP2 SUB PUSH2 0xC26 JUMPI PUSH2 0xC25 PUSH2 0xBCC JUMP JUMPDEST JUMPDEST POP SWAP2 SWAP1 POP JUMP JUMPDEST PUSH1 0x0 DUP2 SWAP1 POP DUP2 PUSH1 0x0 MSTORE PUSH1 0x20 PUSH1 0x0 KECCAK256 SWAP1 POP SWAP2 SWAP1 POP JUMP JUMPDEST PUSH1 0x0 PUSH1 0x20 PUSH1 0x1F DUP4 ADD DIV SWAP1 POP SWAP2 SWAP1 POP JUMP JUMPDEST PUSH1 0x0 DUP3 DUP3 SHL SWAP1 POP SWAP3 SWAP2 POP POP JUMP JUMPDEST PUSH1 0x0 PUSH1 0x8 DUP4 MUL PUSH2 0xC8E PUSH32 0xFFFFFFFFFFFFFFFFFFFFFFFFFFFFFFFFFFFFFFFFFFFFFFFFFFFFFFFFFFFFFFFF DUP3 PUSH2 0xC51 JUMP JUMPDEST PUSH2 0xC98 DUP7 DUP4 PUSH2 0xC51 JUMP JUMPDEST SWAP6 POP DUP1 NOT DUP5 AND SWAP4 POP DUP1 DUP7 AND DUP5 OR SWAP3 POP POP POP SWAP4 SWAP3 POP POP POP JUMP JUMPDEST PUSH1 0x0 DUP2 SWAP1 POP SWAP2 SWAP1 POP JUMP JUMPDEST PUSH1 0x0 PUSH2 0xCD5 PUSH2 0xCD0 PUSH2 0xCCB DUP5 PUSH2 0x6A2 JUMP JUMPDEST PUSH2 0xCB0 JUMP JUMPDEST PUSH2 0x6A2 JUMP JUMPDEST SWAP1 POP SWAP2 SWAP1 POP JUMP JUMPDEST PUSH1 0x0 DUP2 SWAP1 POP SWAP2 SWAP1 POP JUMP JUMPDEST PUSH2 0xCEF DUP4 PUSH2 0xCBA JUMP JUMPDEST PUSH2 0xD03 PUSH2 0xCFB DUP3 PUSH2 0xCDC JUMP JUMPDEST DUP5 DUP5 SLOAD PUSH2 0xC5E JUMP JUMPDEST DUP3 SSTORE POP POP POP POP JUMP JUMPDEST PUSH1 0x0 SWAP1 JUMP JUMPDEST PUSH2 0xD18 PUSH2 0xD0B JUMP JUMPDEST PUSH2 0xD23 DUP2 DUP5 DUP5 PUSH2 0xCE6 JUMP JUMPDEST POP POP POP JUMP JUMPDEST JUMPDEST DUP2 DUP2 LT ISZERO PUSH2 0xD47 JUMPI PUSH2 0xD3C PUSH1 0x0 DUP3 PUSH2 0xD10 JUMP JUMPDEST PUSH1 0x1 DUP2 ADD SWAP1 POP PUSH2 0xD29 JUMP JUMPDEST POP POP JUMP JUMPDEST PUSH1 0x1F DUP3 GT ISZERO PUSH2 0xD8C JUMPI PUSH2 0xD5D DUP2 PUSH2 0xC2C JUMP JUMPDEST PUSH2 0xD66 DUP5 PUSH2 0xC41 JUMP JUMPDEST DUP2 ADD PUSH1 0x20 DUP6 LT ISZERO PUSH2 0xD75 JUMPI DUP2 SWAP1 POP JUMPDEST PUSH2 0xD89 PUSH2 0xD81 DUP6 PUSH2 0xC41 JUMP JUMPDEST DUP4 ADD DUP3 PUSH2 0xD28 JUMP JUMPDEST POP POP JUMPDEST POP POP POP JUMP JUMPDEST PUSH1 0x0 DUP3 DUP3 SHR SWAP1 POP SWAP3 SWAP2 POP POP JUMP JUMPDEST PUSH1 0x0 PUSH2 0xDAF PUSH1 0x0 NOT DUP5 PUSH1 0x8 MUL PUSH2 0xD91 JUMP JUMPDEST NOT DUP1 DUP4 AND SWAP2 POP POP SWAP3 SWAP2 POP POP JUMP JUMPDEST PUSH1 0x0 PUSH2 0xDC8 DUP4 DUP4 PUSH2 0xD9E JUMP JUMPDEST SWAP2 POP DUP3 PUSH1 0x2 MUL DUP3 OR SWAP1 POP SWAP3 SWAP2 POP POP JUMP JUMPDEST PUSH2 0xDE1 DUP3 PUSH2 0x911 JUMP JUMPDEST PUSH8 0xFFFFFFFFFFFFFFFF DUP2 GT ISZERO PUSH2 0xDFA JUMPI PUSH2 0xDF9 PUSH2 0x6F3 JUMP JUMPDEST JUMPDEST PUSH2 0xE04 DUP3 SLOAD PUSH2 0xBFB JUMP JUMPDEST PUSH2 0xE0F DUP3 DUP3 DUP6 PUSH2 0xD4B JUMP JUMPDEST PUSH1 0x0 PUSH1 0x20 SWAP1 POP PUSH1 0x1F DUP4 GT PUSH1 0x1 DUP2 EQ PUSH2 0xE42 JUMPI PUSH1 0x0 DUP5 ISZERO PUSH2 0xE30 JUMPI DUP3 DUP8 ADD MLOAD SWAP1 POP JUMPDEST PUSH2 0xE3A DUP6 DUP3 PUSH2 0xDBC JUMP JUMPDEST DUP7 SSTORE POP PUSH2 0xEA2 JUMP JUMPDEST PUSH1 0x1F NOT DUP5 AND PUSH2 0xE50 DUP7 PUSH2 0xC2C JUMP JUMPDEST PUSH1 0x0 JUMPDEST DUP3 DUP2 LT ISZERO PUSH2 0xE78 JUMPI DUP5 DUP10 ADD MLOAD DUP3 SSTORE PUSH1 0x1 DUP3 ADD SWAP2 POP PUSH1 0x20 DUP6 ADD SWAP5 POP PUSH1 0x20 DUP2 ADD SWAP1 POP PUSH2 0xE53 JUMP JUMPDEST DUP7 DUP4 LT ISZERO PUSH2 0xE95 JUMPI DUP5 DUP10 ADD MLOAD PUSH2 0xE91 PUSH1 0x1F DUP10 AND DUP3 PUSH2 0xD9E JUMP JUMPDEST DUP4 SSTORE POP JUMPDEST PUSH1 0x1 PUSH1 0x2 DUP9 MUL ADD DUP9 SSTORE POP POP POP JUMPDEST POP POP POP POP POP POP JUMP JUMPDEST PUSH1 0x0 PUSH1 0x80 DUP3 ADD SWAP1 POP PUSH2 0xEBF PUSH1 0x0 DUP4 ADD DUP8 PUSH2 0x9F2 JUMP JUMPDEST DUP2 DUP2 SUB PUSH1 0x20 DUP4 ADD MSTORE PUSH2 0xED1 DUP2 DUP7 PUSH2 0x957 JUMP JUMPDEST SWAP1 POP DUP2 DUP2 SUB PUSH1 0x40 DUP4 ADD MSTORE PUSH2 0xEE5 DUP2 DUP6 PUSH2 0x957 JUMP JUMPDEST SWAP1 POP PUSH2 0xEF4 PUSH1 0x60 DUP4 ADD DUP5 PUSH2 0x990 JUMP JUMPDEST SWAP6 SWAP5 POP POP POP POP POP JUMP INVALID LOG2 PUSH5 0x6970667358 0x22 SLT KECCAK256 0xDF SWAP15 LOG3 DUP11 DUP13 EXTCODECOPY CALLER GASPRICE DUP3 CALLDATACOPY 0xB6 0xA9 CALLDATASIZE 0xCE 0xEC LOG3 EXTCODESIZE 0xBB DUP12 0xB6 DUP11 SELFBALANCE 0xDE 0xC3 DUP16 0xAA 0x2D DUP7 OR DUP11 SWAP6 0xE0 PUSH5 0x736F6C6343 STOP ADDMOD SLT STOP CALLER "
				},
				"gasEstimates": {
					"creation": {
						"codeDepositCost": "778200",
						"executionCost": "25078",
						"totalCost": "803278"
					},
					"external": {
						"crops(address,uint256)": "infinite",
						"farmer()": "2555",
						"register(address,uint256,string,string,uint256)": "infinite",
						"updateCrops(address,uint256,string,string,uint256)": "infinite"
					}
				},
				"methodIdentifiers": {
					"crops(address,uint256)": "a4a123f1",
					"farmer()": "d811fcf0",
					"register(address,uint256,string,string,uint256)": "012b28c6",
					"updateCrops(address,uint256,string,string,uint256)": "3e31ece2"
				}
			},
			"storageLayout": {
				"storage": [
					{
						"astId": 3,
						"contract": "contracts/cropsregistering.sol:Crops",
						"label": "farmer",
						"offset": 0,
						"slot": "0",
						"type": "t_address"
					},
					{
						"astId": 40,
						"contract": "contracts/cropsregistering.sol:Crops",
						"label": "crops",
						"offset": 0,
						"slot": "1",
						"type": "t_mapping(t_address,t_mapping(t_uint256,t_struct(Farmer)33_storage))"
					}
				],
				"types": {
					"t_address": {
						"encoding": "inplace",
						"label": "address",
						"numberOfBytes": "20"
					},
					"t_mapping(t_address,t_mapping(t_uint256,t_struct(Farmer)33_storage))": {
						"encoding": "mapping",
						"key": "t_address",
						"label": "mapping(address => mapping(uint256 => struct Crops.Farmer))",
						"numberOfBytes": "32",
						"value": "t_mapping(t_uint256,t_struct(Farmer)33_storage)"
					},
					"t_mapping(t_uint256,t_struct(Farmer)33_storage)": {
						"encoding": "mapping",
						"key": "t_uint256",
						"label": "mapping(uint256 => struct Crops.Farmer)",
						"numberOfBytes": "32",
						"value": "t_struct(Farmer)33_storage"
					},
					"t_string_storage": {
						"encoding": "bytes",
						"label": "string",
						"numberOfBytes": "32"
					},
					"t_struct(Farmer)33_storage": {
						"encoding": "inplace",
						"label": "struct Crops.Farmer",
						"members": [
							{
								"astId": 26,
								"contract": "contracts/cropsregistering.sol:Crops",
								"label": "farmlocation",
								"offset": 0,
								"slot": "0",
								"type": "t_string_storage"
							},
							{
								"astId": 28,
								"contract": "contracts/cropsregistering.sol:Crops",
								"label": "cropname",
								"offset": 0,
								"slot": "1",
								"type": "t_string_storage"
							},
							{
								"astId": 30,
								"contract": "contracts/cropsregistering.sol:Crops",
								"label": "area",
								"offset": 0,
								"slot": "2",
								"type": "t_uint256"
							},
							{
								"astId": 32,
								"contract": "contracts/cropsregistering.sol:Crops",
								"label": "time",
								"offset": 0,
								"slot": "3",
								"type": "t_uint256"
							}
						],
						"numberOfBytes": "128"
					},
					"t_uint256": {
						"encoding": "inplace",
						"label": "uint256",
						"numberOfBytes": "32"
					}
				}
			},
			"userdoc": {
				"kind": "user",
				"methods": {},
				"version": 1
			}
		}
	}
}