{
	"contracts/arrsum.sol": {
		"Array": {
			"abi": [
				{
					"inputs": [
						{
							"internalType": "uint256",
							"name": "j",
							"type": "uint256"
						}
					],
					"stateMutability": "nonpayable",
					"type": "constructor"
				},
				{
					"inputs": [],
					"name": "a",
					"outputs": [
						{
							"internalType": "uint256",
							"name": "",
							"type": "uint256"
						}
					],
					"stateMutability": "view",
					"type": "function"
				},
				{
					"inputs": [],
					"name": "get",
					"outputs": [
						{
							"internalType": "uint256",
							"name": "",
							"type": "uint256"
						}
					],
					"stateMutability": "view",
					"type": "function"
				}
			],
			"devdoc": {
				"kind": "dev",
				"methods": {},
				"version": 1
			},
			"evm": {
				"assembly": "    /* \"contracts/arrsum.sol\":57:383  contract Array{... */\n  mstore(0x40, 0x80)\n    /* \"contracts/arrsum.sol\":78:101  uint[5] arr=[1,2,3,4,5] */\n  mload(0x40)\n  dup1\n  0xa0\n  add\n  0x40\n  mstore\n  dup1\n    /* \"contracts/arrsum.sol\":91:92  1 */\n  0x01\n    /* \"contracts/arrsum.sol\":78:101  uint[5] arr=[1,2,3,4,5] */\n  0xff\n  and\n  dup2\n  mstore\n  0x20\n  add\n    /* \"contracts/arrsum.sol\":93:94  2 */\n  0x02\n    /* \"contracts/arrsum.sol\":78:101  uint[5] arr=[1,2,3,4,5] */\n  0xff\n  and\n  dup2\n  mstore\n  0x20\n  add\n    /* \"contracts/arrsum.sol\":95:96  3 */\n  0x03\n    /* \"contracts/arrsum.sol\":78:101  uint[5] arr=[1,2,3,4,5] */\n  0xff\n  and\n  dup2\n  mstore\n  0x20\n  add\n    /* \"contracts/arrsum.sol\":97:98  4 */\n  0x04\n    /* \"contracts/arrsum.sol\":78:101  uint[5] arr=[1,2,3,4,5] */\n  0xff\n  and\n  dup2\n  mstore\n  0x20\n  add\n    /* \"contracts/arrsum.sol\":99:100  5 */\n  0x05\n    /* \"contracts/arrsum.sol\":78:101  uint[5] arr=[1,2,3,4,5] */\n  0xff\n  and\n  dup2\n  mstore\n  pop\n  0x00\n  swap1\n  0x05\n  tag_1\n  swap3\n  swap2\n  swap1\n  tag_2\n  jump\t// in\ntag_1:\n  pop\n    /* \"contracts/arrsum.sol\":129:172  constructor(uint j){... */\n  callvalue\n  dup1\n  iszero\n  tag_3\n  jumpi\n  0x00\n  dup1\n  revert\ntag_3:\n  pop\n  mload(0x40)\n  sub(codesize, bytecodeSize)\n  dup1\n  bytecodeSize\n  dup4\n  codecopy\n  dup2\n  dup2\n  add\n  0x40\n  mstore\n  dup2\n  add\n  swap1\n  tag_4\n  swap2\n  swap1\n  tag_5\n  jump\t// in\ntag_4:\n    /* \"contracts/arrsum.sol\":163:164  j */\n  dup1\n    /* \"contracts/arrsum.sol\":161:162  a */\n  0x05\n    /* \"contracts/arrsum.sol\":161:164  a=j */\n  dup2\n  swap1\n  sstore\n  pop\n    /* \"contracts/arrsum.sol\":129:172  constructor(uint j){... */\n  pop\n    /* \"contracts/arrsum.sol\":57:383  contract Array{... */\n  jump(tag_8)\ntag_2:\n  dup3\n  0x05\n  dup2\n  add\n  swap3\n  dup3\n  iszero\n  tag_9\n  jumpi\n  swap2\n  0x20\n  mul\n  dup3\n  add\ntag_10:\n  dup3\n  dup2\n  gt\n  iszero\n  tag_11\n  jumpi\n  dup3\n  mload\n  dup3\n  swap1\n  0xff\n  and\n  swap1\n  sstore\n  swap2\n  0x20\n  add\n  swap2\n  swap1\n  0x01\n  add\n  swap1\n  jump(tag_10)\ntag_11:\ntag_9:\n  pop\n  swap1\n  pop\n  tag_12\n  swap2\n  swap1\n  tag_13\n  jump\t// in\ntag_12:\n  pop\n  swap1\n  jump\t// out\ntag_13:\ntag_14:\n  dup1\n  dup3\n  gt\n  iszero\n  tag_15\n  jumpi\n  0x00\n  dup2\n  0x00\n  swap1\n  sstore\n  pop\n  0x01\n  add\n  jump(tag_14)\ntag_15:\n  pop\n  swap1\n  jump\t// out\n    /* \"#utility.yul\":88:205   */\ntag_17:\n    /* \"#utility.yul\":197:198   */\n  0x00\n    /* \"#utility.yul\":194:195   */\n  dup1\n    /* \"#utility.yul\":187:199   */\n  revert\n    /* \"#utility.yul\":334:411   */\ntag_19:\n    /* \"#utility.yul\":371:378   */\n  0x00\n    /* \"#utility.yul\":400:405   */\n  dup2\n    /* \"#utility.yul\":389:405   */\n  swap1\n  pop\n    /* \"#utility.yul\":334:411   */\n  swap2\n  swap1\n  pop\n  jump\t// out\n    /* \"#utility.yul\":417:539   */\ntag_20:\n    /* \"#utility.yul\":490:514   */\n  tag_28\n    /* \"#utility.yul\":508:513   */\n  dup2\n    /* \"#utility.yul\":490:514   */\n  tag_19\n  jump\t// in\ntag_28:\n    /* \"#utility.yul\":483:488   */\n  dup2\n    /* \"#utility.yul\":480:515   */\n  eq\n    /* \"#utility.yul\":470:533   */\n  tag_29\n  jumpi\n    /* \"#utility.yul\":529:530   */\n  0x00\n    /* \"#utility.yul\":526:527   */\n  dup1\n    /* \"#utility.yul\":519:531   */\n  revert\n    /* \"#utility.yul\":470:533   */\ntag_29:\n    /* \"#utility.yul\":417:539   */\n  pop\n  jump\t// out\n    /* \"#utility.yul\":545:688   */\ntag_21:\n    /* \"#utility.yul\":602:607   */\n  0x00\n    /* \"#utility.yul\":633:639   */\n  dup2\n    /* \"#utility.yul\":627:640   */\n  mload\n    /* \"#utility.yul\":618:640   */\n  swap1\n  pop\n    /* \"#utility.yul\":649:682   */\n  tag_31\n    /* \"#utility.yul\":676:681   */\n  dup2\n    /* \"#utility.yul\":649:682   */\n  tag_20\n  jump\t// in\ntag_31:\n    /* \"#utility.yul\":545:688   */\n  swap3\n  swap2\n  pop\n  pop\n  jump\t// out\n    /* \"#utility.yul\":694:1045   */\ntag_5:\n    /* \"#utility.yul\":764:770   */\n  0x00\n    /* \"#utility.yul\":813:815   */\n  0x20\n    /* \"#utility.yul\":801:810   */\n  dup3\n    /* \"#utility.yul\":792:799   */\n  dup5\n    /* \"#utility.yul\":788:811   */\n  sub\n    /* \"#utility.yul\":784:816   */\n  slt\n    /* \"#utility.yul\":781:900   */\n  iszero\n  tag_33\n  jumpi\n    /* \"#utility.yul\":819:898   */\n  tag_34\n  tag_17\n  jump\t// in\ntag_34:\n    /* \"#utility.yul\":781:900   */\ntag_33:\n    /* \"#utility.yul\":939:940   */\n  0x00\n    /* \"#utility.yul\":964:1028   */\n  tag_35\n    /* \"#utility.yul\":1020:1027   */\n  dup5\n    /* \"#utility.yul\":1011:1017   */\n  dup3\n    /* \"#utility.yul\":1000:1009   */\n  dup6\n    /* \"#utility.yul\":996:1018   */\n  add\n    /* \"#utility.yul\":964:1028   */\n  tag_21\n  jump\t// in\ntag_35:\n    /* \"#utility.yul\":954:1028   */\n  swap2\n  pop\n    /* \"#utility.yul\":910:1038   */\n  pop\n    /* \"#utility.yul\":694:1045   */\n  swap3\n  swap2\n  pop\n  pop\n  jump\t// out\n    /* \"contracts/arrsum.sol\":57:383  contract Array{... */\ntag_8:\n  dataSize(sub_0)\n  dup1\n  dataOffset(sub_0)\n  0x00\n  codecopy\n  0x00\n  return\nstop\n\nsub_0: assembly {\n        /* \"contracts/arrsum.sol\":57:383  contract Array{... */\n      mstore(0x40, 0x80)\n      callvalue\n      dup1\n      iszero\n      tag_1\n      jumpi\n      0x00\n      dup1\n      revert\n    tag_1:\n      pop\n      jumpi(tag_2, lt(calldatasize, 0x04))\n      shr(0xe0, calldataload(0x00))\n      dup1\n      0x0dbe671f\n      eq\n      tag_3\n      jumpi\n      dup1\n      0x6d4ce63c\n      eq\n      tag_4\n      jumpi\n    tag_2:\n      0x00\n      dup1\n      revert\n        /* \"contracts/arrsum.sol\":108:122  uint  public a */\n    tag_3:\n      tag_5\n      tag_6\n      jump\t// in\n    tag_5:\n      mload(0x40)\n      tag_7\n      swap2\n      swap1\n      tag_8\n      jump\t// in\n    tag_7:\n      mload(0x40)\n      dup1\n      swap2\n      sub\n      swap1\n      return\n        /* \"contracts/arrsum.sol\":178:380  function get() public view returns(uint){... */\n    tag_4:\n      tag_9\n      tag_10\n      jump\t// in\n    tag_9:\n      mload(0x40)\n      tag_11\n      swap2\n      swap1\n      tag_8\n      jump\t// in\n    tag_11:\n      mload(0x40)\n      dup1\n      swap2\n      sub\n      swap1\n      return\n        /* \"contracts/arrsum.sol\":108:122  uint  public a */\n    tag_6:\n      sload(0x05)\n      dup2\n      jump\t// out\n        /* \"contracts/arrsum.sol\":178:380  function get() public view returns(uint){... */\n    tag_10:\n        /* \"contracts/arrsum.sol\":213:217  uint */\n      0x00\n        /* \"contracts/arrsum.sol\":233:239  uint i */\n      dup1\n        /* \"contracts/arrsum.sol\":240:241  0 */\n      0x00\n        /* \"contracts/arrsum.sol\":233:241  uint i=0 */\n      swap1\n      pop\n        /* \"contracts/arrsum.sol\":229:341  for(uint i=0;i<arr.length;i++){... */\n    tag_13:\n        /* \"contracts/arrsum.sol\":244:254  arr.length */\n      0x05\n        /* \"contracts/arrsum.sol\":242:243  i */\n      dup2\n        /* \"contracts/arrsum.sol\":242:254  i<arr.length */\n      lt\n        /* \"contracts/arrsum.sol\":229:341  for(uint i=0;i<arr.length;i++){... */\n      iszero\n      tag_14\n      jumpi\n        /* \"contracts/arrsum.sol\":285:286  a */\n      sload(0x05)\n        /* \"contracts/arrsum.sol\":277:280  arr */\n      0x00\n        /* \"contracts/arrsum.sol\":281:282  i */\n      dup3\n        /* \"contracts/arrsum.sol\":277:283  arr[i] */\n      0x05\n      dup2\n      lt\n      tag_16\n      jumpi\n      tag_17\n      tag_18\n      jump\t// in\n    tag_17:\n    tag_16:\n      add\n      sload\n        /* \"contracts/arrsum.sol\":277:286  arr[i]==a */\n      sub\n        /* \"contracts/arrsum.sol\":274:330  if(arr[i]==a){... */\n      tag_20\n      jumpi\n        /* \"contracts/arrsum.sol\":313:314  i */\n      dup1\n        /* \"contracts/arrsum.sol\":306:314  return i */\n      swap2\n      pop\n      pop\n      jump(tag_12)\n        /* \"contracts/arrsum.sol\":274:330  if(arr[i]==a){... */\n    tag_20:\n        /* \"contracts/arrsum.sol\":255:258  i++ */\n      dup1\n      dup1\n      tag_21\n      swap1\n      tag_22\n      jump\t// in\n    tag_21:\n      swap2\n      pop\n      pop\n        /* \"contracts/arrsum.sol\":229:341  for(uint i=0;i<arr.length;i++){... */\n      jump(tag_13)\n    tag_14:\n      pop\n        /* \"contracts/arrsum.sol\":371:372  0 */\n      0x00\n        /* \"contracts/arrsum.sol\":364:372  return 0 */\n      swap1\n      pop\n        /* \"contracts/arrsum.sol\":178:380  function get() public view returns(uint){... */\n    tag_12:\n      swap1\n      jump\t// out\n        /* \"#utility.yul\":7:84   */\n    tag_23:\n        /* \"#utility.yul\":44:51   */\n      0x00\n        /* \"#utility.yul\":73:78   */\n      dup2\n        /* \"#utility.yul\":62:78   */\n      swap1\n      pop\n        /* \"#utility.yul\":7:84   */\n      swap2\n      swap1\n      pop\n      jump\t// out\n        /* \"#utility.yul\":90:208   */\n    tag_24:\n        /* \"#utility.yul\":177:201   */\n      tag_29\n        /* \"#utility.yul\":195:200   */\n      dup2\n        /* \"#utility.yul\":177:201   */\n      tag_23\n      jump\t// in\n    tag_29:\n        /* \"#utility.yul\":172:175   */\n      dup3\n        /* \"#utility.yul\":165:202   */\n      mstore\n        /* \"#utility.yul\":90:208   */\n      pop\n      pop\n      jump\t// out\n        /* \"#utility.yul\":214:436   */\n    tag_8:\n        /* \"#utility.yul\":307:311   */\n      0x00\n        /* \"#utility.yul\":345:347   */\n      0x20\n        /* \"#utility.yul\":334:343   */\n      dup3\n        /* \"#utility.yul\":330:348   */\n      add\n        /* \"#utility.yul\":322:348   */\n      swap1\n      pop\n        /* \"#utility.yul\":358:429   */\n      tag_31\n        /* \"#utility.yul\":426:427   */\n      0x00\n        /* \"#utility.yul\":415:424   */\n      dup4\n        /* \"#utility.yul\":411:428   */\n      add\n        /* \"#utility.yul\":402:408   */\n      dup5\n        /* \"#utility.yul\":358:429   */\n      tag_24\n      jump\t// in\n    tag_31:\n        /* \"#utility.yul\":214:436   */\n      swap3\n      swap2\n      pop\n      pop\n      jump\t// out\n        /* \"#utility.yul\":442:622   */\n    tag_18:\n        /* \"#utility.yul\":490:567   */\n      0x4e487b7100000000000000000000000000000000000000000000000000000000\n        /* \"#utility.yul\":487:488   */\n      0x00\n        /* \"#utility.yul\":480:568   */\n      mstore\n        /* \"#utility.yul\":587:591   */\n      0x32\n        /* \"#utility.yul\":584:585   */\n      0x04\n        /* \"#utility.yul\":577:592   */\n      mstore\n        /* \"#utility.yul\":611:615   */\n      0x24\n        /* \"#utility.yul\":608:609   */\n      0x00\n        /* \"#utility.yul\":601:616   */\n      revert\n        /* \"#utility.yul\":628:808   */\n    tag_25:\n        /* \"#utility.yul\":676:753   */\n      0x4e487b7100000000000000000000000000000000000000000000000000000000\n        /* \"#utility.yul\":673:674   */\n      0x00\n        /* \"#utility.yul\":666:754   */\n      mstore\n        /* \"#utility.yul\":773:777   */\n      0x11\n        /* \"#utility.yul\":770:771   */\n      0x04\n        /* \"#utility.yul\":763:778   */\n      mstore\n        /* \"#utility.yul\":797:801   */\n      0x24\n        /* \"#utility.yul\":794:795   */\n      0x00\n        /* \"#utility.yul\":787:802   */\n      revert\n        /* \"#utility.yul\":814:1047   */\n    tag_22:\n        /* \"#utility.yul\":853:856   */\n      0x00\n        /* \"#utility.yul\":876:900   */\n      tag_35\n        /* \"#utility.yul\":894:899   */\n      dup3\n        /* \"#utility.yul\":876:900   */\n      tag_23\n      jump\t// in\n    tag_35:\n        /* \"#utility.yul\":867:900   */\n      swap2\n      pop\n        /* \"#utility.yul\":922:988   */\n      0xffffffffffffffffffffffffffffffffffffffffffffffffffffffffffffffff\n        /* \"#utility.yul\":915:920   */\n      dup3\n        /* \"#utility.yul\":912:989   */\n      sub\n        /* \"#utility.yul\":909:1012   */\n      tag_36\n      jumpi\n        /* \"#utility.yul\":992:1010   */\n      tag_37\n      tag_25\n      jump\t// in\n    tag_37:\n        /* \"#utility.yul\":909:1012   */\n    tag_36:\n        /* \"#utility.yul\":1039:1040   */\n      0x01\n        /* \"#utility.yul\":1032:1037   */\n      dup3\n        /* \"#utility.yul\":1028:1041   */\n      add\n        /* \"#utility.yul\":1021:1041   */\n      swap1\n      pop\n        /* \"#utility.yul\":814:1047   */\n      swap2\n      swap1\n      pop\n      jump\t// out\n\n    auxdata: 0xa26469706673582212208fd28550d5adfb7849f39895a5d583bde35699890c89b1e9af9a0bb9a064225964736f6c63430008120033\n}\n",
				"bytecode": {
					"linkReferences": {},
					"object": "60806040526040518060a00160405280600160ff168152602001600260ff168152602001600360ff168152602001600460ff168152602001600560ff16815250600090600561004f92919061008b565b5034801561005c57600080fd5b50604051610345380380610345833981810160405281019061007e9190610128565b8060058190555050610155565b82600581019282156100bf579160200282015b828111156100be578251829060ff1690559160200191906001019061009e565b5b5090506100cc91906100d0565b5090565b5b808211156100e95760008160009055506001016100d1565b5090565b600080fd5b6000819050919050565b610105816100f2565b811461011057600080fd5b50565b600081519050610122816100fc565b92915050565b60006020828403121561013e5761013d6100ed565b5b600061014c84828501610113565b91505092915050565b6101e1806101646000396000f3fe608060405234801561001057600080fd5b50600436106100365760003560e01c80630dbe671f1461003b5780636d4ce63c14610059575b600080fd5b610043610077565b60405161005091906100ea565b60405180910390f35b61006161007d565b60405161006e91906100ea565b60405180910390f35b60055481565b600080600090505b60058110156100c857600554600082600581106100a5576100a4610105565b5b0154036100b557809150506100ce565b80806100c090610163565b915050610085565b50600090505b90565b6000819050919050565b6100e4816100d1565b82525050565b60006020820190506100ff60008301846100db565b92915050565b7f4e487b7100000000000000000000000000000000000000000000000000000000600052603260045260246000fd5b7f4e487b7100000000000000000000000000000000000000000000000000000000600052601160045260246000fd5b600061016e826100d1565b91507fffffffffffffffffffffffffffffffffffffffffffffffffffffffffffffffff82036101a05761019f610134565b5b60018201905091905056fea26469706673582212208fd28550d5adfb7849f39895a5d583bde35699890c89b1e9af9a0bb9a064225964736f6c63430008120033",
					"opcodes": "PUSH1 0x80 PUSH1 0x40 MSTORE PUSH1 0x40 MLOAD DUP1 PUSH1 0xA0 ADD PUSH1 0x40 MSTORE DUP1 PUSH1 0x1 PUSH1 0xFF AND DUP2 MSTORE PUSH1 0x20 ADD PUSH1 0x2 PUSH1 0xFF AND DUP2 MSTORE PUSH1 0x20 ADD PUSH1 0x3 PUSH1 0xFF AND DUP2 MSTORE PUSH1 0x20 ADD PUSH1 0x4 PUSH1 0xFF AND DUP2 MSTORE PUSH1 0x20 ADD PUSH1 0x5 PUSH1 0xFF AND DUP2 MSTORE POP PUSH1 0x0 SWAP1 PUSH1 0x5 PUSH2 0x4F SWAP3 SWAP2 SWAP1 PUSH2 0x8B JUMP JUMPDEST POP CALLVALUE DUP1 ISZERO PUSH2 0x5C JUMPI PUSH1 0x0 DUP1 REVERT JUMPDEST POP PUSH1 0x40 MLOAD PUSH2 0x345 CODESIZE SUB DUP1 PUSH2 0x345 DUP4 CODECOPY DUP2 DUP2 ADD PUSH1 0x40 MSTORE DUP2 ADD SWAP1 PUSH2 0x7E SWAP2 SWAP1 PUSH2 0x128 JUMP JUMPDEST DUP1 PUSH1 0x5 DUP2 SWAP1 SSTORE POP POP PUSH2 0x155 JUMP JUMPDEST DUP3 PUSH1 0x5 DUP2 ADD SWAP3 DUP3 ISZERO PUSH2 0xBF JUMPI SWAP2 PUSH1 0x20 MUL DUP3 ADD JUMPDEST DUP3 DUP2 GT ISZERO PUSH2 0xBE JUMPI DUP3 MLOAD DUP3 SWAP1 PUSH1 0xFF AND SWAP1 SSTORE SWAP2 PUSH1 0x20 ADD SWAP2 SWAP1 PUSH1 0x1 ADD SWAP1 PUSH2 0x9E JUMP JUMPDEST JUMPDEST POP SWAP1 POP PUSH2 0xCC SWAP2 SWAP1 PUSH2 0xD0 JUMP JUMPDEST POP SWAP1 JUMP JUMPDEST JUMPDEST DUP1 DUP3 GT ISZERO PUSH2 0xE9 JUMPI PUSH1 0x0 DUP2 PUSH1 0x0 SWAP1 SSTORE POP PUSH1 0x1 ADD PUSH2 0xD1 JUMP JUMPDEST POP SWAP1 JUMP JUMPDEST PUSH1 0x0 DUP1 REVERT JUMPDEST PUSH1 0x0 DUP2 SWAP1 POP SWAP2 SWAP1 POP JUMP JUMPDEST PUSH2 0x105 DUP2 PUSH2 0xF2 JUMP JUMPDEST DUP2 EQ PUSH2 0x110 JUMPI PUSH1 0x0 DUP1 REVERT JUMPDEST POP JUMP JUMPDEST PUSH1 0x0 DUP2 MLOAD SWAP1 POP PUSH2 0x122 DUP2 PUSH2 0xFC JUMP JUMPDEST SWAP3 SWAP2 POP POP JUMP JUMPDEST PUSH1 0x0 PUSH1 0x20 DUP3 DUP5 SUB SLT ISZERO PUSH2 0x13E JUMPI PUSH2 0x13D PUSH2 0xED JUMP JUMPDEST JUMPDEST PUSH1 0x0 PUSH2 0x14C DUP5 DUP3 DUP6 ADD PUSH2 0x113 JUMP JUMPDEST SWAP2 POP POP SWAP3 SWAP2 POP POP JUMP JUMPDEST PUSH2 0x1E1 DUP1 PUSH2 0x164 PUSH1 0x0 CODECOPY PUSH1 0x0 RETURN INVALID PUSH1 0x80 PUSH1 0x40 MSTORE CALLVALUE DUP1 ISZERO PUSH2 0x10 JUMPI PUSH1 0x0 DUP1 REVERT JUMPDEST POP PUSH1 0x4 CALLDATASIZE LT PUSH2 0x36 JUMPI PUSH1 0x0 CALLDATALOAD PUSH1 0xE0 SHR DUP1 PUSH4 0xDBE671F EQ PUSH2 0x3B JUMPI DUP1 PUSH4 0x6D4CE63C EQ PUSH2 0x59 JUMPI JUMPDEST PUSH1 0x0 DUP1 REVERT JUMPDEST PUSH2 0x43 PUSH2 0x77 JUMP JUMPDEST PUSH1 0x40 MLOAD PUSH2 0x50 SWAP2 SWAP1 PUSH2 0xEA JUMP JUMPDEST PUSH1 0x40 MLOAD DUP1 SWAP2 SUB SWAP1 RETURN JUMPDEST PUSH2 0x61 PUSH2 0x7D JUMP JUMPDEST PUSH1 0x40 MLOAD PUSH2 0x6E SWAP2 SWAP1 PUSH2 0xEA JUMP JUMPDEST PUSH1 0x40 MLOAD DUP1 SWAP2 SUB SWAP1 RETURN JUMPDEST PUSH1 0x5 SLOAD DUP2 JUMP JUMPDEST PUSH1 0x0 DUP1 PUSH1 0x0 SWAP1 POP JUMPDEST PUSH1 0x5 DUP2 LT ISZERO PUSH2 0xC8 JUMPI PUSH1 0x5 SLOAD PUSH1 0x0 DUP3 PUSH1 0x5 DUP2 LT PUSH2 0xA5 JUMPI PUSH2 0xA4 PUSH2 0x105 JUMP JUMPDEST JUMPDEST ADD SLOAD SUB PUSH2 0xB5 JUMPI DUP1 SWAP2 POP POP PUSH2 0xCE JUMP JUMPDEST DUP1 DUP1 PUSH2 0xC0 SWAP1 PUSH2 0x163 JUMP JUMPDEST SWAP2 POP POP PUSH2 0x85 JUMP JUMPDEST POP PUSH1 0x0 SWAP1 POP JUMPDEST SWAP1 JUMP JUMPDEST PUSH1 0x0 DUP2 SWAP1 POP SWAP2 SWAP1 POP JUMP JUMPDEST PUSH2 0xE4 DUP2 PUSH2 0xD1 JUMP JUMPDEST DUP3 MSTORE POP POP JUMP JUMPDEST PUSH1 0x0 PUSH1 0x20 DUP3 ADD SWAP1 POP PUSH2 0xFF PUSH1 0x0 DUP4 ADD DUP5 PUSH2 0xDB JUMP JUMPDEST SWAP3 SWAP2 POP POP JUMP JUMPDEST PUSH32 0x4E487B7100000000000000000000000000000000000000000000000000000000 PUSH1 0x0 MSTORE PUSH1 0x32 PUSH1 0x4 MSTORE PUSH1 0x24 PUSH1 0x0 REVERT JUMPDEST PUSH32 0x4E487B7100000000000000000000000000000000000000000000000000000000 PUSH1 0x0 MSTORE PUSH1 0x11 PUSH1 0x4 MSTORE PUSH1 0x24 PUSH1 0x0 REVERT JUMPDEST PUSH1 0x0 PUSH2 0x16E DUP3 PUSH2 0xD1 JUMP JUMPDEST SWAP2 POP PUSH32 0xFFFFFFFFFFFFFFFFFFFFFFFFFFFFFFFFFFFFFFFFFFFFFFFFFFFFFFFFFFFFFFFF DUP3 SUB PUSH2 0x1A0 JUMPI PUSH2 0x19F PUSH2 0x134 JUMP JUMPDEST JUMPDEST PUSH1 0x1 DUP3 ADD SWAP1 POP SWAP2 SWAP1 POP JUMP INVALID LOG2 PUSH5 0x6970667358 0x22 SLT KECCAK256 DUP16 0xD2 DUP6 POP 0xD5 0xAD 0xFB PUSH25 0x49F39895A5D583BDE35699890C89B1E9AF9A0BB9A064225964 PUSH20 0x6F6C634300081200330000000000000000000000 "
				},
				"gasEstimates": {
					"creation": {
						"codeDepositCost": "96200",
						"executionCost": "infinite",
						"totalCost": "infinite"
					},
					"external": {
						"a()": "2407",
						"get()": "infinite"
					}
				},
				"methodIdentifiers": {
					"a()": "0dbe671f",
					"get()": "6d4ce63c"
				}
			},
			"storageLayout": {
				"storage": [
					{
						"astId": 11,
						"contract": "contracts/arrsum.sol:Array",
						"label": "arr",
						"offset": 0,
						"slot": "0",
						"type": "t_array(t_uint256)5_storage"
					},
					{
						"astId": 13,
						"contract": "contracts/arrsum.sol:Array",
						"label": "a",
						"offset": 0,
						"slot": "5",
						"type": "t_uint256"
					}
				],
				"types": {
					"t_array(t_uint256)5_storage": {
						"base": "t_uint256",
						"encoding": "inplace",
						"label": "uint256[5]",
						"numberOfBytes": "160"
					},
					"t_uint256": {
						"encoding": "inplace",
						"label": "uint256",
						"numberOfBytes": "32"
					}
				}
			},
			"userdoc": {
				"kind": "user",
				"methods": {},
				"version": 1
			}
		}
	}
}