{
	"contracts/enums3.sol": {
		"Enums": {
			"abi": [
				{
					"inputs": [],
					"name": "accept",
					"outputs": [],
					"stateMutability": "nonpayable",
					"type": "function"
				},
				{
					"inputs": [
						{
							"internalType": "enum Enums.Item",
							"name": "it",
							"type": "uint8"
						}
					],
					"name": "get",
					"outputs": [],
					"stateMutability": "nonpayable",
					"type": "function"
				},
				{
					"inputs": [],
					"name": "getStatus",
					"outputs": [
						{
							"internalType": "enum Enums.Item",
							"name": "",
							"type": "uint8"
						}
					],
					"stateMutability": "view",
					"type": "function"
				},
				{
					"inputs": [],
					"name": "ship",
					"outputs": [],
					"stateMutability": "nonpayable",
					"type": "function"
				}
			],
			"devdoc": {
				"kind": "dev",
				"methods": {},
				"version": 1
			},
			"evm": {
				"assembly": "    /* \"contracts/enums3.sol\":57:486  contract Enums{... */\n  mstore(0x40, 0x80)\n  callvalue\n  dup1\n  iszero\n  tag_1\n  jumpi\n  0x00\n  dup1\n  revert\ntag_1:\n  pop\n  dataSize(sub_0)\n  dup1\n  dataOffset(sub_0)\n  0x00\n  codecopy\n  0x00\n  return\nstop\n\nsub_0: assembly {\n        /* \"contracts/enums3.sol\":57:486  contract Enums{... */\n      mstore(0x40, 0x80)\n      callvalue\n      dup1\n      iszero\n      tag_1\n      jumpi\n      0x00\n      dup1\n      revert\n    tag_1:\n      pop\n      jumpi(tag_2, lt(calldatasize, 0x04))\n      shr(0xe0, calldataload(0x00))\n      dup1\n      0x2852b71c\n      eq\n      tag_3\n      jumpi\n      dup1\n      0x4e69d560\n      eq\n      tag_4\n      jumpi\n      dup1\n      0xb6bef7b3\n      eq\n      tag_5\n      jumpi\n      dup1\n      0xf72d0b3b\n      eq\n      tag_6\n      jumpi\n    tag_2:\n      0x00\n      dup1\n      revert\n        /* \"contracts/enums3.sol\":270:333  function accept() public{... */\n    tag_3:\n      tag_7\n      tag_8\n      jump\t// in\n    tag_7:\n      stop\n        /* \"contracts/enums3.sol\":407:483  function getStatus() public view returns(Item){... */\n    tag_4:\n      tag_9\n      tag_10\n      jump\t// in\n    tag_9:\n      mload(0x40)\n      tag_11\n      swap2\n      swap1\n      tag_12\n      jump\t// in\n    tag_11:\n      mload(0x40)\n      dup1\n      swap2\n      sub\n      swap1\n      return\n        /* \"contracts/enums3.sol\":339:399  function ship() public{... */\n    tag_5:\n      tag_13\n      tag_14\n      jump\t// in\n    tag_13:\n      stop\n        /* \"contracts/enums3.sol\":207:264  function get(Item it) public {... */\n    tag_6:\n      tag_15\n      0x04\n      dup1\n      calldatasize\n      sub\n      dup2\n      add\n      swap1\n      tag_16\n      swap2\n      swap1\n      tag_17\n      jump\t// in\n    tag_16:\n      tag_18\n      jump\t// in\n    tag_15:\n      stop\n        /* \"contracts/enums3.sol\":270:333  function accept() public{... */\n    tag_8:\n        /* \"contracts/enums3.sol\":312:325  Item.accepted */\n      0x03\n        /* \"contracts/enums3.sol\":305:309  item */\n      0x00\n      dup1\n        /* \"contracts/enums3.sol\":305:325  item = Item.accepted */\n      0x0100\n      exp\n      dup2\n      sload\n      dup2\n      0xff\n      mul\n      not\n      and\n      swap1\n      dup4\n      0x04\n      dup2\n      gt\n      iszero\n      tag_20\n      jumpi\n      tag_21\n      tag_22\n      jump\t// in\n    tag_21:\n    tag_20:\n      mul\n      or\n      swap1\n      sstore\n      pop\n        /* \"contracts/enums3.sol\":270:333  function accept() public{... */\n      jump\t// out\n        /* \"contracts/enums3.sol\":407:483  function getStatus() public view returns(Item){... */\n    tag_10:\n        /* \"contracts/enums3.sol\":448:452  Item */\n      0x00\n        /* \"contracts/enums3.sol\":471:475  item */\n      dup1\n      0x00\n      swap1\n      sload\n      swap1\n      0x0100\n      exp\n      swap1\n      div\n      0xff\n      and\n        /* \"contracts/enums3.sol\":464:475  return item */\n      swap1\n      pop\n        /* \"contracts/enums3.sol\":407:483  function getStatus() public view returns(Item){... */\n      swap1\n      jump\t// out\n        /* \"contracts/enums3.sol\":339:399  function ship() public{... */\n    tag_14:\n        /* \"contracts/enums3.sol\":379:391  Item.shipped */\n      0x01\n        /* \"contracts/enums3.sol\":372:376  item */\n      0x00\n      dup1\n        /* \"contracts/enums3.sol\":372:391  item = Item.shipped */\n      0x0100\n      exp\n      dup2\n      sload\n      dup2\n      0xff\n      mul\n      not\n      and\n      swap1\n      dup4\n      0x04\n      dup2\n      gt\n      iszero\n      tag_25\n      jumpi\n      tag_26\n      tag_22\n      jump\t// in\n    tag_26:\n    tag_25:\n      mul\n      or\n      swap1\n      sstore\n      pop\n        /* \"contracts/enums3.sol\":339:399  function ship() public{... */\n      jump\t// out\n        /* \"contracts/enums3.sol\":207:264  function get(Item it) public {... */\n    tag_18:\n        /* \"contracts/enums3.sol\":254:256  it */\n      dup1\n        /* \"contracts/enums3.sol\":247:251  item */\n      0x00\n      dup1\n        /* \"contracts/enums3.sol\":247:256  item = it */\n      0x0100\n      exp\n      dup2\n      sload\n      dup2\n      0xff\n      mul\n      not\n      and\n      swap1\n      dup4\n      0x04\n      dup2\n      gt\n      iszero\n      tag_28\n      jumpi\n      tag_29\n      tag_22\n      jump\t// in\n    tag_29:\n    tag_28:\n      mul\n      or\n      swap1\n      sstore\n      pop\n        /* \"contracts/enums3.sol\":207:264  function get(Item it) public {... */\n      pop\n      jump\t// out\n        /* \"#utility.yul\":7:187   */\n    tag_22:\n        /* \"#utility.yul\":55:132   */\n      0x4e487b7100000000000000000000000000000000000000000000000000000000\n        /* \"#utility.yul\":52:53   */\n      0x00\n        /* \"#utility.yul\":45:133   */\n      mstore\n        /* \"#utility.yul\":152:156   */\n      0x21\n        /* \"#utility.yul\":149:150   */\n      0x04\n        /* \"#utility.yul\":142:157   */\n      mstore\n        /* \"#utility.yul\":176:180   */\n      0x24\n        /* \"#utility.yul\":173:174   */\n      0x00\n        /* \"#utility.yul\":166:181   */\n      revert\n        /* \"#utility.yul\":193:304   */\n    tag_30:\n        /* \"#utility.yul\":272:273   */\n      0x05\n        /* \"#utility.yul\":265:270   */\n      dup2\n        /* \"#utility.yul\":262:274   */\n      lt\n        /* \"#utility.yul\":252:298   */\n      tag_42\n      jumpi\n        /* \"#utility.yul\":278:296   */\n      tag_43\n      tag_22\n      jump\t// in\n    tag_43:\n        /* \"#utility.yul\":252:298   */\n    tag_42:\n        /* \"#utility.yul\":193:304   */\n      pop\n      jump\t// out\n        /* \"#utility.yul\":310:433   */\n    tag_31:\n        /* \"#utility.yul\":353:360   */\n      0x00\n        /* \"#utility.yul\":382:387   */\n      dup2\n        /* \"#utility.yul\":371:387   */\n      swap1\n      pop\n        /* \"#utility.yul\":388:427   */\n      tag_45\n        /* \"#utility.yul\":421:426   */\n      dup3\n        /* \"#utility.yul\":388:427   */\n      tag_30\n      jump\t// in\n    tag_45:\n        /* \"#utility.yul\":310:433   */\n      swap2\n      swap1\n      pop\n      jump\t// out\n        /* \"#utility.yul\":439:562   */\n    tag_32:\n        /* \"#utility.yul\":493:502   */\n      0x00\n        /* \"#utility.yul\":526:556   */\n      tag_47\n        /* \"#utility.yul\":550:555   */\n      dup3\n        /* \"#utility.yul\":526:556   */\n      tag_31\n      jump\t// in\n    tag_47:\n        /* \"#utility.yul\":513:556   */\n      swap1\n      pop\n        /* \"#utility.yul\":439:562   */\n      swap2\n      swap1\n      pop\n      jump\t// out\n        /* \"#utility.yul\":568:707   */\n    tag_33:\n        /* \"#utility.yul\":659:700   */\n      tag_49\n        /* \"#utility.yul\":694:699   */\n      dup2\n        /* \"#utility.yul\":659:700   */\n      tag_32\n      jump\t// in\n    tag_49:\n        /* \"#utility.yul\":654:657   */\n      dup3\n        /* \"#utility.yul\":647:701   */\n      mstore\n        /* \"#utility.yul\":568:707   */\n      pop\n      pop\n      jump\t// out\n        /* \"#utility.yul\":713:943   */\n    tag_12:\n        /* \"#utility.yul\":810:814   */\n      0x00\n        /* \"#utility.yul\":848:850   */\n      0x20\n        /* \"#utility.yul\":837:846   */\n      dup3\n        /* \"#utility.yul\":833:851   */\n      add\n        /* \"#utility.yul\":825:851   */\n      swap1\n      pop\n        /* \"#utility.yul\":861:936   */\n      tag_51\n        /* \"#utility.yul\":933:934   */\n      0x00\n        /* \"#utility.yul\":922:931   */\n      dup4\n        /* \"#utility.yul\":918:935   */\n      add\n        /* \"#utility.yul\":909:915   */\n      dup5\n        /* \"#utility.yul\":861:936   */\n      tag_33\n      jump\t// in\n    tag_51:\n        /* \"#utility.yul\":713:943   */\n      swap3\n      swap2\n      pop\n      pop\n      jump\t// out\n        /* \"#utility.yul\":1030:1147   */\n    tag_35:\n        /* \"#utility.yul\":1139:1140   */\n      0x00\n        /* \"#utility.yul\":1136:1137   */\n      dup1\n        /* \"#utility.yul\":1129:1141   */\n      revert\n        /* \"#utility.yul\":1276:1381   */\n    tag_37:\n        /* \"#utility.yul\":1355:1356   */\n      0x05\n        /* \"#utility.yul\":1348:1353   */\n      dup2\n        /* \"#utility.yul\":1345:1357   */\n      lt\n        /* \"#utility.yul\":1335:1375   */\n      tag_56\n      jumpi\n        /* \"#utility.yul\":1371:1372   */\n      0x00\n        /* \"#utility.yul\":1368:1369   */\n      dup1\n        /* \"#utility.yul\":1361:1373   */\n      revert\n        /* \"#utility.yul\":1335:1375   */\n    tag_56:\n        /* \"#utility.yul\":1276:1381   */\n      pop\n      jump\t// out\n        /* \"#utility.yul\":1387:1538   */\n    tag_38:\n        /* \"#utility.yul\":1439:1444   */\n      0x00\n        /* \"#utility.yul\":1477:1483   */\n      dup2\n        /* \"#utility.yul\":1464:1484   */\n      calldataload\n        /* \"#utility.yul\":1455:1484   */\n      swap1\n      pop\n        /* \"#utility.yul\":1493:1532   */\n      tag_58\n        /* \"#utility.yul\":1526:1531   */\n      dup2\n        /* \"#utility.yul\":1493:1532   */\n      tag_37\n      jump\t// in\n    tag_58:\n        /* \"#utility.yul\":1387:1538   */\n      swap3\n      swap2\n      pop\n      pop\n      jump\t// out\n        /* \"#utility.yul\":1544:1885   */\n    tag_17:\n        /* \"#utility.yul\":1609:1615   */\n      0x00\n        /* \"#utility.yul\":1658:1660   */\n      0x20\n        /* \"#utility.yul\":1646:1655   */\n      dup3\n        /* \"#utility.yul\":1637:1644   */\n      dup5\n        /* \"#utility.yul\":1633:1656   */\n      sub\n        /* \"#utility.yul\":1629:1661   */\n      slt\n        /* \"#utility.yul\":1626:1745   */\n      iszero\n      tag_60\n      jumpi\n        /* \"#utility.yul\":1664:1743   */\n      tag_61\n      tag_35\n      jump\t// in\n    tag_61:\n        /* \"#utility.yul\":1626:1745   */\n    tag_60:\n        /* \"#utility.yul\":1784:1785   */\n      0x00\n        /* \"#utility.yul\":1809:1868   */\n      tag_62\n        /* \"#utility.yul\":1860:1867   */\n      dup5\n        /* \"#utility.yul\":1851:1857   */\n      dup3\n        /* \"#utility.yul\":1840:1849   */\n      dup6\n        /* \"#utility.yul\":1836:1858   */\n      add\n        /* \"#utility.yul\":1809:1868   */\n      tag_38\n      jump\t// in\n    tag_62:\n        /* \"#utility.yul\":1799:1868   */\n      swap2\n      pop\n        /* \"#utility.yul\":1755:1878   */\n      pop\n        /* \"#utility.yul\":1544:1885   */\n      swap3\n      swap2\n      pop\n      pop\n      jump\t// out\n\n    auxdata: 0xa2646970667358221220f3e3f4f8c80939424ea77eb5e1214bc1cd5edbc9f021fcb663bff69e90ab46c564736f6c63430008120033\n}\n",
				"bytecode": {
					"linkReferences": {},
					"object": "608060405234801561001057600080fd5b50610258806100206000396000f3fe608060405234801561001057600080fd5b506004361061004c5760003560e01c80632852b71c146100515780634e69d5601461005b578063b6bef7b314610079578063f72d0b3b14610083575b600080fd5b61005961009f565b005b6100636100cb565b60405161007091906101b0565b60405180910390f35b6100816100e1565b005b61009d600480360381019061009891906101f5565b61010d565b005b60036000806101000a81548160ff021916908360048111156100c4576100c3610139565b5b0217905550565b60008060009054906101000a900460ff16905090565b60016000806101000a81548160ff0219169083600481111561010657610105610139565b5b0217905550565b806000806101000a81548160ff0219169083600481111561013157610130610139565b5b021790555050565b7f4e487b7100000000000000000000000000000000000000000000000000000000600052602160045260246000fd5b6005811061017957610178610139565b5b50565b600081905061018a82610168565b919050565b600061019a8261017c565b9050919050565b6101aa8161018f565b82525050565b60006020820190506101c560008301846101a1565b92915050565b600080fd5b600581106101dd57600080fd5b50565b6000813590506101ef816101d0565b92915050565b60006020828403121561020b5761020a6101cb565b5b6000610219848285016101e0565b9150509291505056fea2646970667358221220f3e3f4f8c80939424ea77eb5e1214bc1cd5edbc9f021fcb663bff69e90ab46c564736f6c63430008120033",
					"opcodes": "PUSH1 0x80 PUSH1 0x40 MSTORE CALLVALUE DUP1 ISZERO PUSH2 0x10 JUMPI PUSH1 0x0 DUP1 REVERT JUMPDEST POP PUSH2 0x258 DUP1 PUSH2 0x20 PUSH1 0x0 CODECOPY PUSH1 0x0 RETURN INVALID PUSH1 0x80 PUSH1 0x40 MSTORE CALLVALUE DUP1 ISZERO PUSH2 0x10 JUMPI PUSH1 0x0 DUP1 REVERT JUMPDEST POP PUSH1 0x4 CALLDATASIZE LT PUSH2 0x4C JUMPI PUSH1 0x0 CALLDATALOAD PUSH1 0xE0 SHR DUP1 PUSH4 0x2852B71C EQ PUSH2 0x51 JUMPI DUP1 PUSH4 0x4E69D560 EQ PUSH2 0x5B JUMPI DUP1 PUSH4 0xB6BEF7B3 EQ PUSH2 0x79 JUMPI DUP1 PUSH4 0xF72D0B3B EQ PUSH2 0x83 JUMPI JUMPDEST PUSH1 0x0 DUP1 REVERT JUMPDEST PUSH2 0x59 PUSH2 0x9F JUMP JUMPDEST STOP JUMPDEST PUSH2 0x63 PUSH2 0xCB JUMP JUMPDEST PUSH1 0x40 MLOAD PUSH2 0x70 SWAP2 SWAP1 PUSH2 0x1B0 JUMP JUMPDEST PUSH1 0x40 MLOAD DUP1 SWAP2 SUB SWAP1 RETURN JUMPDEST PUSH2 0x81 PUSH2 0xE1 JUMP JUMPDEST STOP JUMPDEST PUSH2 0x9D PUSH1 0x4 DUP1 CALLDATASIZE SUB DUP2 ADD SWAP1 PUSH2 0x98 SWAP2 SWAP1 PUSH2 0x1F5 JUMP JUMPDEST PUSH2 0x10D JUMP JUMPDEST STOP JUMPDEST PUSH1 0x3 PUSH1 0x0 DUP1 PUSH2 0x100 EXP DUP2 SLOAD DUP2 PUSH1 0xFF MUL NOT AND SWAP1 DUP4 PUSH1 0x4 DUP2 GT ISZERO PUSH2 0xC4 JUMPI PUSH2 0xC3 PUSH2 0x139 JUMP JUMPDEST JUMPDEST MUL OR SWAP1 SSTORE POP JUMP JUMPDEST PUSH1 0x0 DUP1 PUSH1 0x0 SWAP1 SLOAD SWAP1 PUSH2 0x100 EXP SWAP1 DIV PUSH1 0xFF AND SWAP1 POP SWAP1 JUMP JUMPDEST PUSH1 0x1 PUSH1 0x0 DUP1 PUSH2 0x100 EXP DUP2 SLOAD DUP2 PUSH1 0xFF MUL NOT AND SWAP1 DUP4 PUSH1 0x4 DUP2 GT ISZERO PUSH2 0x106 JUMPI PUSH2 0x105 PUSH2 0x139 JUMP JUMPDEST JUMPDEST MUL OR SWAP1 SSTORE POP JUMP JUMPDEST DUP1 PUSH1 0x0 DUP1 PUSH2 0x100 EXP DUP2 SLOAD DUP2 PUSH1 0xFF MUL NOT AND SWAP1 DUP4 PUSH1 0x4 DUP2 GT ISZERO PUSH2 0x131 JUMPI PUSH2 0x130 PUSH2 0x139 JUMP JUMPDEST JUMPDEST MUL OR SWAP1 SSTORE POP POP JUMP JUMPDEST PUSH32 0x4E487B7100000000000000000000000000000000000000000000000000000000 PUSH1 0x0 MSTORE PUSH1 0x21 PUSH1 0x4 MSTORE PUSH1 0x24 PUSH1 0x0 REVERT JUMPDEST PUSH1 0x5 DUP2 LT PUSH2 0x179 JUMPI PUSH2 0x178 PUSH2 0x139 JUMP JUMPDEST JUMPDEST POP JUMP JUMPDEST PUSH1 0x0 DUP2 SWAP1 POP PUSH2 0x18A DUP3 PUSH2 0x168 JUMP JUMPDEST SWAP2 SWAP1 POP JUMP JUMPDEST PUSH1 0x0 PUSH2 0x19A DUP3 PUSH2 0x17C JUMP JUMPDEST SWAP1 POP SWAP2 SWAP1 POP JUMP JUMPDEST PUSH2 0x1AA DUP2 PUSH2 0x18F JUMP JUMPDEST DUP3 MSTORE POP POP JUMP JUMPDEST PUSH1 0x0 PUSH1 0x20 DUP3 ADD SWAP1 POP PUSH2 0x1C5 PUSH1 0x0 DUP4 ADD DUP5 PUSH2 0x1A1 JUMP JUMPDEST SWAP3 SWAP2 POP POP JUMP JUMPDEST PUSH1 0x0 DUP1 REVERT JUMPDEST PUSH1 0x5 DUP2 LT PUSH2 0x1DD JUMPI PUSH1 0x0 DUP1 REVERT JUMPDEST POP JUMP JUMPDEST PUSH1 0x0 DUP2 CALLDATALOAD SWAP1 POP PUSH2 0x1EF DUP2 PUSH2 0x1D0 JUMP JUMPDEST SWAP3 SWAP2 POP POP JUMP JUMPDEST PUSH1 0x0 PUSH1 0x20 DUP3 DUP5 SUB SLT ISZERO PUSH2 0x20B JUMPI PUSH2 0x20A PUSH2 0x1CB JUMP JUMPDEST JUMPDEST PUSH1 0x0 PUSH2 0x219 DUP5 DUP3 DUP6 ADD PUSH2 0x1E0 JUMP JUMPDEST SWAP2 POP POP SWAP3 SWAP2 POP POP JUMP INVALID LOG2 PUSH5 0x6970667358 0x22 SLT KECCAK256 RETURN 0xE3 DELEGATECALL 0xF8 0xC8 MULMOD CODECOPY TIMESTAMP 0x4E 0xA7 PUSH31 0xB5E1214BC1CD5EDBC9F021FCB663BFF69E90AB46C564736F6C634300081200 CALLER "
				},
				"gasEstimates": {
					"creation": {
						"codeDepositCost": "120000",
						"executionCost": "165",
						"totalCost": "120165"
					},
					"external": {
						"accept()": "24409",
						"get(uint8)": "24694",
						"getStatus()": "2568",
						"ship()": "24453"
					}
				},
				"methodIdentifiers": {
					"accept()": "2852b71c",
					"get(uint8)": "f72d0b3b",
					"getStatus()": "4e69d560",
					"ship()": "b6bef7b3"
				}
			},
			"storageLayout": {
				"storage": [
					{
						"astId": 10,
						"contract": "contracts/enums3.sol:Enums",
						"label": "item",
						"offset": 0,
						"slot": "0",
						"type": "t_enum(Item)7"
					}
				],
				"types": {
					"t_enum(Item)7": {
						"encoding": "inplace",
						"label": "enum Enums.Item",
						"numberOfBytes": "1"
					}
				}
			},
			"userdoc": {
				"kind": "user",
				"methods": {},
				"version": 1
			}
		}
	}
}