{
	"contracts/room.sol": {
		"RoomBooking": {
			"abi": [
				{
					"inputs": [
						{
							"internalType": "address",
							"name": "",
							"type": "address"
						}
					],
					"name": "Roombooking",
					"outputs": [
						{
							"internalType": "uint256",
							"name": "roomno",
							"type": "uint256"
						},
						{
							"internalType": "string",
							"name": "name",
							"type": "string"
						},
						{
							"internalType": "uint256",
							"name": "date",
							"type": "uint256"
						}
					],
					"stateMutability": "view",
					"type": "function"
				},
				{
					"inputs": [
						{
							"internalType": "address",
							"name": "_roomAddress",
							"type": "address"
						},
						{
							"internalType": "uint256",
							"name": "_roomno",
							"type": "uint256"
						}
					],
					"name": "addRoom",
					"outputs": [],
					"stateMutability": "nonpayable",
					"type": "function"
				},
				{
					"inputs": [
						{
							"internalType": "address",
							"name": "roomAddress",
							"type": "address"
						},
						{
							"internalType": "string",
							"name": "_name",
							"type": "string"
						},
						{
							"internalType": "uint256",
							"name": "_roomno",
							"type": "uint256"
						},
						{
							"internalType": "uint256",
							"name": "_date",
							"type": "uint256"
						}
					],
					"name": "bookRoom",
					"outputs": [],
					"stateMutability": "nonpayable",
					"type": "function"
				},
				{
					"inputs": [
						{
							"internalType": "address",
							"name": "_roomAddress",
							"type": "address"
						}
					],
					"name": "cancelBooking",
					"outputs": [],
					"stateMutability": "nonpayable",
					"type": "function"
				},
				{
					"inputs": [],
					"name": "owner",
					"outputs": [
						{
							"internalType": "address",
							"name": "",
							"type": "address"
						}
					],
					"stateMutability": "view",
					"type": "function"
				},
				{
					"inputs": [],
					"name": "status",
					"outputs": [
						{
							"internalType": "enum RoomBooking.Status",
							"name": "",
							"type": "uint8"
						}
					],
					"stateMutability": "view",
					"type": "function"
				}
			],
			"devdoc": {
				"kind": "dev",
				"methods": {},
				"version": 1
			},
			"evm": {
				"assembly": "    /* \"contracts/room.sol\":57:1206  contract RoomBooking{... */\n  mstore(0x40, 0x80)\n  callvalue\n  dup1\n  iszero\n  tag_1\n  jumpi\n  0x00\n  dup1\n  revert\ntag_1:\n  pop\n  dataSize(sub_0)\n  dup1\n  dataOffset(sub_0)\n  0x00\n  codecopy\n  0x00\n  return\nstop\n\nsub_0: assembly {\n        /* \"contracts/room.sol\":57:1206  contract RoomBooking{... */\n      mstore(0x40, 0x80)\n      callvalue\n      dup1\n      iszero\n      tag_1\n      jumpi\n      0x00\n      dup1\n      revert\n    tag_1:\n      pop\n      jumpi(tag_2, lt(calldatasize, 0x04))\n      shr(0xe0, calldataload(0x00))\n      dup1\n      0x1ed60d0a\n      eq\n      tag_3\n      jumpi\n      dup1\n      0x200d2ed2\n      eq\n      tag_4\n      jumpi\n      dup1\n      0x82394694\n      eq\n      tag_5\n      jumpi\n      dup1\n      0x8271c809\n      eq\n      tag_6\n      jumpi\n      dup1\n      0x8da5cb5b\n      eq\n      tag_7\n      jumpi\n      dup1\n      0xda429b03\n      eq\n      tag_8\n      jumpi\n    tag_2:\n      0x00\n      dup1\n      revert\n        /* \"contracts/room.sol\":455:587  function addRoom(address _roomAddress, uint _roomno) public OnlyOwner{... */\n    tag_3:\n      tag_9\n      0x04\n      dup1\n      calldatasize\n      sub\n      dup2\n      add\n      swap1\n      tag_10\n      swap2\n      swap1\n      tag_11\n      jump\t// in\n    tag_10:\n      tag_12\n      jump\t// in\n    tag_9:\n      stop\n        /* \"contracts/room.sol\":196:216  Status public status */\n    tag_4:\n      tag_13\n      tag_14\n      jump\t// in\n    tag_13:\n      mload(0x40)\n      tag_15\n      swap2\n      swap1\n      tag_16\n      jump\t// in\n    tag_15:\n      mload(0x40)\n      dup1\n      swap2\n      sub\n      swap1\n      return\n        /* \"contracts/room.sol\":956:1201  function cancelBooking(address _roomAddress) public{... */\n    tag_5:\n      tag_17\n      0x04\n      dup1\n      calldatasize\n      sub\n      dup2\n      add\n      swap1\n      tag_18\n      swap2\n      swap1\n      tag_19\n      jump\t// in\n    tag_18:\n      tag_20\n      jump\t// in\n    tag_17:\n      stop\n        /* \"contracts/room.sol\":328:372  mapping(address => Room ) public Roombooking */\n    tag_6:\n      tag_21\n      0x04\n      dup1\n      calldatasize\n      sub\n      dup2\n      add\n      swap1\n      tag_22\n      swap2\n      swap1\n      tag_19\n      jump\t// in\n    tag_22:\n      tag_23\n      jump\t// in\n    tag_21:\n      mload(0x40)\n      tag_24\n      swap4\n      swap3\n      swap2\n      swap1\n      tag_25\n      jump\t// in\n    tag_24:\n      mload(0x40)\n      dup1\n      swap2\n      sub\n      swap1\n      return\n        /* \"contracts/room.sol\":84:104  address public owner */\n    tag_7:\n      tag_26\n      tag_27\n      jump\t// in\n    tag_26:\n      mload(0x40)\n      tag_28\n      swap2\n      swap1\n      tag_29\n      jump\t// in\n    tag_28:\n      mload(0x40)\n      dup1\n      swap2\n      sub\n      swap1\n      return\n        /* \"contracts/room.sol\":593:950  function bookRoom(address roomAddress, string memory _name, uint _roomno, uint _date) public {... */\n    tag_8:\n      tag_30\n      0x04\n      dup1\n      calldatasize\n      sub\n      dup2\n      add\n      swap1\n      tag_31\n      swap2\n      swap1\n      tag_32\n      jump\t// in\n    tag_31:\n      tag_33\n      jump\t// in\n    tag_30:\n      stop\n        /* \"contracts/room.sol\":455:587  function addRoom(address _roomAddress, uint _roomno) public OnlyOwner{... */\n    tag_12:\n        /* \"contracts/room.sol\":419:429  msg.sender */\n      caller\n        /* \"contracts/room.sol\":411:416  owner */\n      0x00\n      dup1\n        /* \"contracts/room.sol\":411:429  owner = msg.sender */\n      0x0100\n      exp\n      dup2\n      sload\n      dup2\n      0xffffffffffffffffffffffffffffffffffffffff\n      mul\n      not\n      and\n      swap1\n      dup4\n      0xffffffffffffffffffffffffffffffffffffffff\n      and\n      mul\n      or\n      swap1\n      sstore\n      pop\n        /* \"contracts/room.sol\":570:577  _roomno */\n      dup1\n        /* \"contracts/room.sol\":535:546  Roombooking */\n      0x01\n        /* \"contracts/room.sol\":535:560  Roombooking[_roomAddress] */\n      0x00\n        /* \"contracts/room.sol\":547:559  _roomAddress */\n      dup5\n        /* \"contracts/room.sol\":535:560  Roombooking[_roomAddress] */\n      0xffffffffffffffffffffffffffffffffffffffff\n      and\n      0xffffffffffffffffffffffffffffffffffffffff\n      and\n      dup2\n      mstore\n      0x20\n      add\n      swap1\n      dup2\n      mstore\n      0x20\n      add\n      0x00\n      keccak256\n        /* \"contracts/room.sol\":535:567  Roombooking[_roomAddress].roomno */\n      0x00\n      add\n        /* \"contracts/room.sol\":535:577  Roombooking[_roomAddress].roomno = _roomno */\n      dup2\n      swap1\n      sstore\n      pop\n        /* \"contracts/room.sol\":455:587  function addRoom(address _roomAddress, uint _roomno) public OnlyOwner{... */\n      pop\n      pop\n      jump\t// out\n        /* \"contracts/room.sol\":196:216  Status public status */\n    tag_14:\n      0x00\n      0x14\n      swap1\n      sload\n      swap1\n      0x0100\n      exp\n      swap1\n      div\n      0xff\n      and\n      dup2\n      jump\t// out\n        /* \"contracts/room.sol\":956:1201  function cancelBooking(address _roomAddress) public{... */\n    tag_20:\n        /* \"contracts/room.sol\":1026:1037  Roombooking */\n      0x01\n        /* \"contracts/room.sol\":1026:1051  Roombooking[_roomAddress] */\n      0x00\n        /* \"contracts/room.sol\":1038:1050  _roomAddress */\n      dup3\n        /* \"contracts/room.sol\":1026:1051  Roombooking[_roomAddress] */\n      0xffffffffffffffffffffffffffffffffffffffff\n      and\n      0xffffffffffffffffffffffffffffffffffffffff\n      and\n      dup2\n      mstore\n      0x20\n      add\n      swap1\n      dup2\n      mstore\n      0x20\n      add\n      0x00\n      keccak256\n        /* \"contracts/room.sol\":1026:1058  Roombooking[_roomAddress].roomno */\n      0x00\n      add\n        /* \"contracts/room.sol\":1019:1058  delete Roombooking[_roomAddress].roomno */\n      0x00\n      swap1\n      sstore\n        /* \"contracts/room.sol\":1077:1088  Roombooking */\n      0x01\n        /* \"contracts/room.sol\":1077:1102  Roombooking[_roomAddress] */\n      0x00\n        /* \"contracts/room.sol\":1089:1101  _roomAddress */\n      dup3\n        /* \"contracts/room.sol\":1077:1102  Roombooking[_roomAddress] */\n      0xffffffffffffffffffffffffffffffffffffffff\n      and\n      0xffffffffffffffffffffffffffffffffffffffff\n      and\n      dup2\n      mstore\n      0x20\n      add\n      swap1\n      dup2\n      mstore\n      0x20\n      add\n      0x00\n      keccak256\n        /* \"contracts/room.sol\":1077:1107  Roombooking[_roomAddress].name */\n      0x01\n      add\n      0x00\n        /* \"contracts/room.sol\":1070:1107  delete Roombooking[_roomAddress].name */\n      tag_37\n      swap2\n      swap1\n      tag_38\n      jump\t// in\n    tag_37:\n        /* \"contracts/room.sol\":1126:1137  Roombooking */\n      0x01\n        /* \"contracts/room.sol\":1126:1151  Roombooking[_roomAddress] */\n      0x00\n        /* \"contracts/room.sol\":1138:1150  _roomAddress */\n      dup3\n        /* \"contracts/room.sol\":1126:1151  Roombooking[_roomAddress] */\n      0xffffffffffffffffffffffffffffffffffffffff\n      and\n      0xffffffffffffffffffffffffffffffffffffffff\n      and\n      dup2\n      mstore\n      0x20\n      add\n      swap1\n      dup2\n      mstore\n      0x20\n      add\n      0x00\n      keccak256\n        /* \"contracts/room.sol\":1126:1156  Roombooking[_roomAddress].date */\n      0x02\n      add\n        /* \"contracts/room.sol\":1119:1156  delete Roombooking[_roomAddress].date */\n      0x00\n      swap1\n      sstore\n        /* \"contracts/room.sol\":1177:1193  Status.Available */\n      0x00\n        /* \"contracts/room.sol\":1168:1174  status */\n      dup1\n      0x14\n        /* \"contracts/room.sol\":1168:1193  status = Status.Available */\n      0x0100\n      exp\n      dup2\n      sload\n      dup2\n      0xff\n      mul\n      not\n      and\n      swap1\n      dup4\n      0x01\n      dup2\n      gt\n      iszero\n      tag_39\n      jumpi\n      tag_40\n      tag_41\n      jump\t// in\n    tag_40:\n    tag_39:\n      mul\n      or\n      swap1\n      sstore\n      pop\n        /* \"contracts/room.sol\":956:1201  function cancelBooking(address _roomAddress) public{... */\n      pop\n      jump\t// out\n        /* \"contracts/room.sol\":328:372  mapping(address => Room ) public Roombooking */\n    tag_23:\n      mstore(0x20, 0x01)\n      dup1\n      0x00\n      mstore\n      keccak256(0x00, 0x40)\n      0x00\n      swap2\n      pop\n      swap1\n      pop\n      dup1\n      0x00\n      add\n      sload\n      swap1\n      dup1\n      0x01\n      add\n      dup1\n      sload\n      tag_42\n      swap1\n      tag_43\n      jump\t// in\n    tag_42:\n      dup1\n      0x1f\n      add\n      0x20\n      dup1\n      swap2\n      div\n      mul\n      0x20\n      add\n      mload(0x40)\n      swap1\n      dup2\n      add\n      0x40\n      mstore\n      dup1\n      swap3\n      swap2\n      swap1\n      dup2\n      dup2\n      mstore\n      0x20\n      add\n      dup3\n      dup1\n      sload\n      tag_44\n      swap1\n      tag_43\n      jump\t// in\n    tag_44:\n      dup1\n      iszero\n      tag_45\n      jumpi\n      dup1\n      0x1f\n      lt\n      tag_46\n      jumpi\n      0x0100\n      dup1\n      dup4\n      sload\n      div\n      mul\n      dup4\n      mstore\n      swap2\n      0x20\n      add\n      swap2\n      jump(tag_45)\n    tag_46:\n      dup3\n      add\n      swap2\n      swap1\n      0x00\n      mstore\n      keccak256(0x00, 0x20)\n      swap1\n    tag_47:\n      dup2\n      sload\n      dup2\n      mstore\n      swap1\n      0x01\n      add\n      swap1\n      0x20\n      add\n      dup1\n      dup4\n      gt\n      tag_47\n      jumpi\n      dup3\n      swap1\n      sub\n      0x1f\n      and\n      dup3\n      add\n      swap2\n    tag_45:\n      pop\n      pop\n      pop\n      pop\n      pop\n      swap1\n      dup1\n      0x02\n      add\n      sload\n      swap1\n      pop\n      dup4\n      jump\t// out\n        /* \"contracts/room.sol\":84:104  address public owner */\n    tag_27:\n      0x00\n      dup1\n      sload\n      swap1\n      0x0100\n      exp\n      swap1\n      div\n      0xffffffffffffffffffffffffffffffffffffffff\n      and\n      dup2\n      jump\t// out\n        /* \"contracts/room.sol\":593:950  function bookRoom(address roomAddress, string memory _name, uint _roomno, uint _date) public {... */\n    tag_33:\n        /* \"contracts/room.sol\":715:731  Status.Available */\n      0x00\n        /* \"contracts/room.sol\":705:731  status == Status.Available */\n      0x01\n      dup2\n      gt\n      iszero\n      tag_49\n      jumpi\n      tag_50\n      tag_41\n      jump\t// in\n    tag_50:\n    tag_49:\n        /* \"contracts/room.sol\":705:711  status */\n      0x00\n      0x14\n      swap1\n      sload\n      swap1\n      0x0100\n      exp\n      swap1\n      div\n      0xff\n      and\n        /* \"contracts/room.sol\":705:731  status == Status.Available */\n      0x01\n      dup2\n      gt\n      iszero\n      tag_51\n      jumpi\n      tag_52\n      tag_41\n      jump\t// in\n    tag_52:\n    tag_51:\n      eq\n        /* \"contracts/room.sol\":697:761  require(status == Status.Available, \"Sorry! The room is Booked\") */\n      tag_53\n      jumpi\n      mload(0x40)\n      0x08c379a000000000000000000000000000000000000000000000000000000000\n      dup2\n      mstore\n      0x04\n      add\n      tag_54\n      swap1\n      tag_55\n      jump\t// in\n    tag_54:\n      mload(0x40)\n      dup1\n      swap2\n      sub\n      swap1\n      revert\n    tag_53:\n        /* \"contracts/room.sol\":804:809  _name */\n      dup3\n        /* \"contracts/room.sol\":772:783  Roombooking */\n      0x01\n        /* \"contracts/room.sol\":772:796  Roombooking[roomAddress] */\n      0x00\n        /* \"contracts/room.sol\":784:795  roomAddress */\n      dup7\n        /* \"contracts/room.sol\":772:796  Roombooking[roomAddress] */\n      0xffffffffffffffffffffffffffffffffffffffff\n      and\n      0xffffffffffffffffffffffffffffffffffffffff\n      and\n      dup2\n      mstore\n      0x20\n      add\n      swap1\n      dup2\n      mstore\n      0x20\n      add\n      0x00\n      keccak256\n        /* \"contracts/room.sol\":772:801  Roombooking[roomAddress].name */\n      0x01\n      add\n        /* \"contracts/room.sol\":772:809  Roombooking[roomAddress].name = _name */\n      swap1\n      dup2\n      tag_56\n      swap2\n      swap1\n      tag_57\n      jump\t// in\n    tag_56:\n      pop\n        /* \"contracts/room.sol\":854:861  _roomno */\n      dup2\n        /* \"contracts/room.sol\":820:831  Roombooking */\n      0x01\n        /* \"contracts/room.sol\":820:844  Roombooking[roomAddress] */\n      0x00\n        /* \"contracts/room.sol\":832:843  roomAddress */\n      dup7\n        /* \"contracts/room.sol\":820:844  Roombooking[roomAddress] */\n      0xffffffffffffffffffffffffffffffffffffffff\n      and\n      0xffffffffffffffffffffffffffffffffffffffff\n      and\n      dup2\n      mstore\n      0x20\n      add\n      swap1\n      dup2\n      mstore\n      0x20\n      add\n      0x00\n      keccak256\n        /* \"contracts/room.sol\":820:851  Roombooking[roomAddress].roomno */\n      0x00\n      add\n        /* \"contracts/room.sol\":820:861  Roombooking[roomAddress].roomno = _roomno */\n      dup2\n      swap1\n      sstore\n      pop\n        /* \"contracts/room.sol\":904:909  _date */\n      dup1\n        /* \"contracts/room.sol\":872:883  Roombooking */\n      0x01\n        /* \"contracts/room.sol\":872:896  Roombooking[roomAddress] */\n      0x00\n        /* \"contracts/room.sol\":884:895  roomAddress */\n      dup7\n        /* \"contracts/room.sol\":872:896  Roombooking[roomAddress] */\n      0xffffffffffffffffffffffffffffffffffffffff\n      and\n      0xffffffffffffffffffffffffffffffffffffffff\n      and\n      dup2\n      mstore\n      0x20\n      add\n      swap1\n      dup2\n      mstore\n      0x20\n      add\n      0x00\n      keccak256\n        /* \"contracts/room.sol\":872:901  Roombooking[roomAddress].date */\n      0x02\n      add\n        /* \"contracts/room.sol\":872:909  Roombooking[roomAddress].date = _date */\n      dup2\n      swap1\n      sstore\n      pop\n        /* \"contracts/room.sol\":929:942  Status.Booked */\n      0x01\n        /* \"contracts/room.sol\":920:926  status */\n      0x00\n      0x14\n        /* \"contracts/room.sol\":920:942  status = Status.Booked */\n      0x0100\n      exp\n      dup2\n      sload\n      dup2\n      0xff\n      mul\n      not\n      and\n      swap1\n      dup4\n      0x01\n      dup2\n      gt\n      iszero\n      tag_58\n      jumpi\n      tag_59\n      tag_41\n      jump\t// in\n    tag_59:\n    tag_58:\n      mul\n      or\n      swap1\n      sstore\n      pop\n        /* \"contracts/room.sol\":593:950  function bookRoom(address roomAddress, string memory _name, uint _roomno, uint _date) public {... */\n      pop\n      pop\n      pop\n      pop\n      jump\t// out\n    tag_38:\n      pop\n      dup1\n      sload\n      tag_60\n      swap1\n      tag_43\n      jump\t// in\n    tag_60:\n      0x00\n      dup3\n      sstore\n      dup1\n      0x1f\n      lt\n      tag_62\n      jumpi\n      pop\n      jump(tag_61)\n    tag_62:\n      0x1f\n      add\n      0x20\n      swap1\n      div\n      swap1\n      0x00\n      mstore\n      keccak256(0x00, 0x20)\n      swap1\n      dup2\n      add\n      swap1\n      tag_63\n      swap2\n      swap1\n      tag_64\n      jump\t// in\n    tag_63:\n    tag_61:\n      pop\n      jump\t// out\n    tag_64:\n    tag_65:\n      dup1\n      dup3\n      gt\n      iszero\n      tag_66\n      jumpi\n      0x00\n      dup2\n      0x00\n      swap1\n      sstore\n      pop\n      0x01\n      add\n      jump(tag_65)\n    tag_66:\n      pop\n      swap1\n      jump\t// out\n        /* \"#utility.yul\":7:82   */\n    tag_67:\n        /* \"#utility.yul\":40:46   */\n      0x00\n        /* \"#utility.yul\":73:75   */\n      0x40\n        /* \"#utility.yul\":67:76   */\n      mload\n        /* \"#utility.yul\":57:76   */\n      swap1\n      pop\n        /* \"#utility.yul\":7:82   */\n      swap1\n      jump\t// out\n        /* \"#utility.yul\":88:205   */\n    tag_68:\n        /* \"#utility.yul\":197:198   */\n      0x00\n        /* \"#utility.yul\":194:195   */\n      dup1\n        /* \"#utility.yul\":187:199   */\n      revert\n        /* \"#utility.yul\":211:328   */\n    tag_69:\n        /* \"#utility.yul\":320:321   */\n      0x00\n        /* \"#utility.yul\":317:318   */\n      dup1\n        /* \"#utility.yul\":310:322   */\n      revert\n        /* \"#utility.yul\":334:460   */\n    tag_70:\n        /* \"#utility.yul\":371:378   */\n      0x00\n        /* \"#utility.yul\":411:453   */\n      0xffffffffffffffffffffffffffffffffffffffff\n        /* \"#utility.yul\":404:409   */\n      dup3\n        /* \"#utility.yul\":400:454   */\n      and\n        /* \"#utility.yul\":389:454   */\n      swap1\n      pop\n        /* \"#utility.yul\":334:460   */\n      swap2\n      swap1\n      pop\n      jump\t// out\n        /* \"#utility.yul\":466:562   */\n    tag_71:\n        /* \"#utility.yul\":503:510   */\n      0x00\n        /* \"#utility.yul\":532:556   */\n      tag_121\n        /* \"#utility.yul\":550:555   */\n      dup3\n        /* \"#utility.yul\":532:556   */\n      tag_70\n      jump\t// in\n    tag_121:\n        /* \"#utility.yul\":521:556   */\n      swap1\n      pop\n        /* \"#utility.yul\":466:562   */\n      swap2\n      swap1\n      pop\n      jump\t// out\n        /* \"#utility.yul\":568:690   */\n    tag_72:\n        /* \"#utility.yul\":641:665   */\n      tag_123\n        /* \"#utility.yul\":659:664   */\n      dup2\n        /* \"#utility.yul\":641:665   */\n      tag_71\n      jump\t// in\n    tag_123:\n        /* \"#utility.yul\":634:639   */\n      dup2\n        /* \"#utility.yul\":631:666   */\n      eq\n        /* \"#utility.yul\":621:684   */\n      tag_124\n      jumpi\n        /* \"#utility.yul\":680:681   */\n      0x00\n        /* \"#utility.yul\":677:678   */\n      dup1\n        /* \"#utility.yul\":670:682   */\n      revert\n        /* \"#utility.yul\":621:684   */\n    tag_124:\n        /* \"#utility.yul\":568:690   */\n      pop\n      jump\t// out\n        /* \"#utility.yul\":696:835   */\n    tag_73:\n        /* \"#utility.yul\":742:747   */\n      0x00\n        /* \"#utility.yul\":780:786   */\n      dup2\n        /* \"#utility.yul\":767:787   */\n      calldataload\n        /* \"#utility.yul\":758:787   */\n      swap1\n      pop\n        /* \"#utility.yul\":796:829   */\n      tag_126\n        /* \"#utility.yul\":823:828   */\n      dup2\n        /* \"#utility.yul\":796:829   */\n      tag_72\n      jump\t// in\n    tag_126:\n        /* \"#utility.yul\":696:835   */\n      swap3\n      swap2\n      pop\n      pop\n      jump\t// out\n        /* \"#utility.yul\":841:918   */\n    tag_74:\n        /* \"#utility.yul\":878:885   */\n      0x00\n        /* \"#utility.yul\":907:912   */\n      dup2\n        /* \"#utility.yul\":896:912   */\n      swap1\n      pop\n        /* \"#utility.yul\":841:918   */\n      swap2\n      swap1\n      pop\n      jump\t// out\n        /* \"#utility.yul\":924:1046   */\n    tag_75:\n        /* \"#utility.yul\":997:1021   */\n      tag_129\n        /* \"#utility.yul\":1015:1020   */\n      dup2\n        /* \"#utility.yul\":997:1021   */\n      tag_74\n      jump\t// in\n    tag_129:\n        /* \"#utility.yul\":990:995   */\n      dup2\n        /* \"#utility.yul\":987:1022   */\n      eq\n        /* \"#utility.yul\":977:1040   */\n      tag_130\n      jumpi\n        /* \"#utility.yul\":1036:1037   */\n      0x00\n        /* \"#utility.yul\":1033:1034   */\n      dup1\n        /* \"#utility.yul\":1026:1038   */\n      revert\n        /* \"#utility.yul\":977:1040   */\n    tag_130:\n        /* \"#utility.yul\":924:1046   */\n      pop\n      jump\t// out\n        /* \"#utility.yul\":1052:1191   */\n    tag_76:\n        /* \"#utility.yul\":1098:1103   */\n      0x00\n        /* \"#utility.yul\":1136:1142   */\n      dup2\n        /* \"#utility.yul\":1123:1143   */\n      calldataload\n        /* \"#utility.yul\":1114:1143   */\n      swap1\n      pop\n        /* \"#utility.yul\":1152:1185   */\n      tag_132\n        /* \"#utility.yul\":1179:1184   */\n      dup2\n        /* \"#utility.yul\":1152:1185   */\n      tag_75\n      jump\t// in\n    tag_132:\n        /* \"#utility.yul\":1052:1191   */\n      swap3\n      swap2\n      pop\n      pop\n      jump\t// out\n        /* \"#utility.yul\":1197:1671   */\n    tag_11:\n        /* \"#utility.yul\":1265:1271   */\n      0x00\n        /* \"#utility.yul\":1273:1279   */\n      dup1\n        /* \"#utility.yul\":1322:1324   */\n      0x40\n        /* \"#utility.yul\":1310:1319   */\n      dup4\n        /* \"#utility.yul\":1301:1308   */\n      dup6\n        /* \"#utility.yul\":1297:1320   */\n      sub\n        /* \"#utility.yul\":1293:1325   */\n      slt\n        /* \"#utility.yul\":1290:1409   */\n      iszero\n      tag_134\n      jumpi\n        /* \"#utility.yul\":1328:1407   */\n      tag_135\n      tag_68\n      jump\t// in\n    tag_135:\n        /* \"#utility.yul\":1290:1409   */\n    tag_134:\n        /* \"#utility.yul\":1448:1449   */\n      0x00\n        /* \"#utility.yul\":1473:1526   */\n      tag_136\n        /* \"#utility.yul\":1518:1525   */\n      dup6\n        /* \"#utility.yul\":1509:1515   */\n      dup3\n        /* \"#utility.yul\":1498:1507   */\n      dup7\n        /* \"#utility.yul\":1494:1516   */\n      add\n        /* \"#utility.yul\":1473:1526   */\n      tag_73\n      jump\t// in\n    tag_136:\n        /* \"#utility.yul\":1463:1526   */\n      swap3\n      pop\n        /* \"#utility.yul\":1419:1536   */\n      pop\n        /* \"#utility.yul\":1575:1577   */\n      0x20\n        /* \"#utility.yul\":1601:1654   */\n      tag_137\n        /* \"#utility.yul\":1646:1653   */\n      dup6\n        /* \"#utility.yul\":1637:1643   */\n      dup3\n        /* \"#utility.yul\":1626:1635   */\n      dup7\n        /* \"#utility.yul\":1622:1644   */\n      add\n        /* \"#utility.yul\":1601:1654   */\n      tag_76\n      jump\t// in\n    tag_137:\n        /* \"#utility.yul\":1591:1654   */\n      swap2\n      pop\n        /* \"#utility.yul\":1546:1664   */\n      pop\n        /* \"#utility.yul\":1197:1671   */\n      swap3\n      pop\n      swap3\n      swap1\n      pop\n      jump\t// out\n        /* \"#utility.yul\":1677:1857   */\n    tag_41:\n        /* \"#utility.yul\":1725:1802   */\n      0x4e487b7100000000000000000000000000000000000000000000000000000000\n        /* \"#utility.yul\":1722:1723   */\n      0x00\n        /* \"#utility.yul\":1715:1803   */\n      mstore\n        /* \"#utility.yul\":1822:1826   */\n      0x21\n        /* \"#utility.yul\":1819:1820   */\n      0x04\n        /* \"#utility.yul\":1812:1827   */\n      mstore\n        /* \"#utility.yul\":1846:1850   */\n      0x24\n        /* \"#utility.yul\":1843:1844   */\n      0x00\n        /* \"#utility.yul\":1836:1851   */\n      revert\n        /* \"#utility.yul\":1863:1976   */\n    tag_77:\n        /* \"#utility.yul\":1944:1945   */\n      0x02\n        /* \"#utility.yul\":1937:1942   */\n      dup2\n        /* \"#utility.yul\":1934:1946   */\n      lt\n        /* \"#utility.yul\":1924:1970   */\n      tag_140\n      jumpi\n        /* \"#utility.yul\":1950:1968   */\n      tag_141\n      tag_41\n      jump\t// in\n    tag_141:\n        /* \"#utility.yul\":1924:1970   */\n    tag_140:\n        /* \"#utility.yul\":1863:1976   */\n      pop\n      jump\t// out\n        /* \"#utility.yul\":1982:2109   */\n    tag_78:\n        /* \"#utility.yul\":2027:2034   */\n      0x00\n        /* \"#utility.yul\":2056:2061   */\n      dup2\n        /* \"#utility.yul\":2045:2061   */\n      swap1\n      pop\n        /* \"#utility.yul\":2062:2103   */\n      tag_143\n        /* \"#utility.yul\":2097:2102   */\n      dup3\n        /* \"#utility.yul\":2062:2103   */\n      tag_77\n      jump\t// in\n    tag_143:\n        /* \"#utility.yul\":1982:2109   */\n      swap2\n      swap1\n      pop\n      jump\t// out\n        /* \"#utility.yul\":2115:2242   */\n    tag_79:\n        /* \"#utility.yul\":2171:2180   */\n      0x00\n        /* \"#utility.yul\":2204:2236   */\n      tag_145\n        /* \"#utility.yul\":2230:2235   */\n      dup3\n        /* \"#utility.yul\":2204:2236   */\n      tag_78\n      jump\t// in\n    tag_145:\n        /* \"#utility.yul\":2191:2236   */\n      swap1\n      pop\n        /* \"#utility.yul\":2115:2242   */\n      swap2\n      swap1\n      pop\n      jump\t// out\n        /* \"#utility.yul\":2248:2391   */\n    tag_80:\n        /* \"#utility.yul\":2341:2384   */\n      tag_147\n        /* \"#utility.yul\":2378:2383   */\n      dup2\n        /* \"#utility.yul\":2341:2384   */\n      tag_79\n      jump\t// in\n    tag_147:\n        /* \"#utility.yul\":2336:2339   */\n      dup3\n        /* \"#utility.yul\":2329:2385   */\n      mstore\n        /* \"#utility.yul\":2248:2391   */\n      pop\n      pop\n      jump\t// out\n        /* \"#utility.yul\":2397:2631   */\n    tag_16:\n        /* \"#utility.yul\":2496:2500   */\n      0x00\n        /* \"#utility.yul\":2534:2536   */\n      0x20\n        /* \"#utility.yul\":2523:2532   */\n      dup3\n        /* \"#utility.yul\":2519:2537   */\n      add\n        /* \"#utility.yul\":2511:2537   */\n      swap1\n      pop\n        /* \"#utility.yul\":2547:2624   */\n      tag_149\n        /* \"#utility.yul\":2621:2622   */\n      0x00\n        /* \"#utility.yul\":2610:2619   */\n      dup4\n        /* \"#utility.yul\":2606:2623   */\n      add\n        /* \"#utility.yul\":2597:2603   */\n      dup5\n        /* \"#utility.yul\":2547:2624   */\n      tag_80\n      jump\t// in\n    tag_149:\n        /* \"#utility.yul\":2397:2631   */\n      swap3\n      swap2\n      pop\n      pop\n      jump\t// out\n        /* \"#utility.yul\":2637:2966   */\n    tag_19:\n        /* \"#utility.yul\":2696:2702   */\n      0x00\n        /* \"#utility.yul\":2745:2747   */\n      0x20\n        /* \"#utility.yul\":2733:2742   */\n      dup3\n        /* \"#utility.yul\":2724:2731   */\n      dup5\n        /* \"#utility.yul\":2720:2743   */\n      sub\n        /* \"#utility.yul\":2716:2748   */\n      slt\n        /* \"#utility.yul\":2713:2832   */\n      iszero\n      tag_151\n      jumpi\n        /* \"#utility.yul\":2751:2830   */\n      tag_152\n      tag_68\n      jump\t// in\n    tag_152:\n        /* \"#utility.yul\":2713:2832   */\n    tag_151:\n        /* \"#utility.yul\":2871:2872   */\n      0x00\n        /* \"#utility.yul\":2896:2949   */\n      tag_153\n        /* \"#utility.yul\":2941:2948   */\n      dup5\n        /* \"#utility.yul\":2932:2938   */\n      dup3\n        /* \"#utility.yul\":2921:2930   */\n      dup6\n        /* \"#utility.yul\":2917:2939   */\n      add\n        /* \"#utility.yul\":2896:2949   */\n      tag_73\n      jump\t// in\n    tag_153:\n        /* \"#utility.yul\":2886:2949   */\n      swap2\n      pop\n        /* \"#utility.yul\":2842:2959   */\n      pop\n        /* \"#utility.yul\":2637:2966   */\n      swap3\n      swap2\n      pop\n      pop\n      jump\t// out\n        /* \"#utility.yul\":2972:3090   */\n    tag_81:\n        /* \"#utility.yul\":3059:3083   */\n      tag_155\n        /* \"#utility.yul\":3077:3082   */\n      dup2\n        /* \"#utility.yul\":3059:3083   */\n      tag_74\n      jump\t// in\n    tag_155:\n        /* \"#utility.yul\":3054:3057   */\n      dup3\n        /* \"#utility.yul\":3047:3084   */\n      mstore\n        /* \"#utility.yul\":2972:3090   */\n      pop\n      pop\n      jump\t// out\n        /* \"#utility.yul\":3096:3195   */\n    tag_82:\n        /* \"#utility.yul\":3148:3154   */\n      0x00\n        /* \"#utility.yul\":3182:3187   */\n      dup2\n        /* \"#utility.yul\":3176:3188   */\n      mload\n        /* \"#utility.yul\":3166:3188   */\n      swap1\n      pop\n        /* \"#utility.yul\":3096:3195   */\n      swap2\n      swap1\n      pop\n      jump\t// out\n        /* \"#utility.yul\":3201:3370   */\n    tag_83:\n        /* \"#utility.yul\":3285:3296   */\n      0x00\n        /* \"#utility.yul\":3319:3325   */\n      dup3\n        /* \"#utility.yul\":3314:3317   */\n      dup3\n        /* \"#utility.yul\":3307:3326   */\n      mstore\n        /* \"#utility.yul\":3359:3363   */\n      0x20\n        /* \"#utility.yul\":3354:3357   */\n      dup3\n        /* \"#utility.yul\":3350:3364   */\n      add\n        /* \"#utility.yul\":3335:3364   */\n      swap1\n      pop\n        /* \"#utility.yul\":3201:3370   */\n      swap3\n      swap2\n      pop\n      pop\n      jump\t// out\n        /* \"#utility.yul\":3376:3622   */\n    tag_84:\n        /* \"#utility.yul\":3457:3458   */\n      0x00\n        /* \"#utility.yul\":3467:3580   */\n    tag_159:\n        /* \"#utility.yul\":3481:3487   */\n      dup4\n        /* \"#utility.yul\":3478:3479   */\n      dup2\n        /* \"#utility.yul\":3475:3488   */\n      lt\n        /* \"#utility.yul\":3467:3580   */\n      iszero\n      tag_161\n      jumpi\n        /* \"#utility.yul\":3566:3567   */\n      dup1\n        /* \"#utility.yul\":3561:3564   */\n      dup3\n        /* \"#utility.yul\":3557:3568   */\n      add\n        /* \"#utility.yul\":3551:3569   */\n      mload\n        /* \"#utility.yul\":3547:3548   */\n      dup2\n        /* \"#utility.yul\":3542:3545   */\n      dup5\n        /* \"#utility.yul\":3538:3549   */\n      add\n        /* \"#utility.yul\":3531:3570   */\n      mstore\n        /* \"#utility.yul\":3503:3505   */\n      0x20\n        /* \"#utility.yul\":3500:3501   */\n      dup2\n        /* \"#utility.yul\":3496:3506   */\n      add\n        /* \"#utility.yul\":3491:3506   */\n      swap1\n      pop\n        /* \"#utility.yul\":3467:3580   */\n      jump(tag_159)\n    tag_161:\n        /* \"#utility.yul\":3614:3615   */\n      0x00\n        /* \"#utility.yul\":3605:3611   */\n      dup5\n        /* \"#utility.yul\":3600:3603   */\n      dup5\n        /* \"#utility.yul\":3596:3612   */\n      add\n        /* \"#utility.yul\":3589:3616   */\n      mstore\n        /* \"#utility.yul\":3438:3622   */\n      pop\n        /* \"#utility.yul\":3376:3622   */\n      pop\n      pop\n      pop\n      jump\t// out\n        /* \"#utility.yul\":3628:3730   */\n    tag_85:\n        /* \"#utility.yul\":3669:3675   */\n      0x00\n        /* \"#utility.yul\":3720:3722   */\n      0x1f\n        /* \"#utility.yul\":3716:3723   */\n      not\n        /* \"#utility.yul\":3711:3713   */\n      0x1f\n        /* \"#utility.yul\":3704:3709   */\n      dup4\n        /* \"#utility.yul\":3700:3714   */\n      add\n        /* \"#utility.yul\":3696:3724   */\n      and\n        /* \"#utility.yul\":3686:3724   */\n      swap1\n      pop\n        /* \"#utility.yul\":3628:3730   */\n      swap2\n      swap1\n      pop\n      jump\t// out\n        /* \"#utility.yul\":3736:4113   */\n    tag_86:\n        /* \"#utility.yul\":3824:3827   */\n      0x00\n        /* \"#utility.yul\":3852:3891   */\n      tag_164\n        /* \"#utility.yul\":3885:3890   */\n      dup3\n        /* \"#utility.yul\":3852:3891   */\n      tag_82\n      jump\t// in\n    tag_164:\n        /* \"#utility.yul\":3907:3978   */\n      tag_165\n        /* \"#utility.yul\":3971:3977   */\n      dup2\n        /* \"#utility.yul\":3966:3969   */\n      dup6\n        /* \"#utility.yul\":3907:3978   */\n      tag_83\n      jump\t// in\n    tag_165:\n        /* \"#utility.yul\":3900:3978   */\n      swap4\n      pop\n        /* \"#utility.yul\":3987:4052   */\n      tag_166\n        /* \"#utility.yul\":4045:4051   */\n      dup2\n        /* \"#utility.yul\":4040:4043   */\n      dup6\n        /* \"#utility.yul\":4033:4037   */\n      0x20\n        /* \"#utility.yul\":4026:4031   */\n      dup7\n        /* \"#utility.yul\":4022:4038   */\n      add\n        /* \"#utility.yul\":3987:4052   */\n      tag_84\n      jump\t// in\n    tag_166:\n        /* \"#utility.yul\":4077:4106   */\n      tag_167\n        /* \"#utility.yul\":4099:4105   */\n      dup2\n        /* \"#utility.yul\":4077:4106   */\n      tag_85\n      jump\t// in\n    tag_167:\n        /* \"#utility.yul\":4072:4075   */\n      dup5\n        /* \"#utility.yul\":4068:4107   */\n      add\n        /* \"#utility.yul\":4061:4107   */\n      swap2\n      pop\n        /* \"#utility.yul\":3828:4113   */\n      pop\n        /* \"#utility.yul\":3736:4113   */\n      swap3\n      swap2\n      pop\n      pop\n      jump\t// out\n        /* \"#utility.yul\":4119:4652   */\n    tag_25:\n        /* \"#utility.yul\":4288:4292   */\n      0x00\n        /* \"#utility.yul\":4326:4328   */\n      0x60\n        /* \"#utility.yul\":4315:4324   */\n      dup3\n        /* \"#utility.yul\":4311:4329   */\n      add\n        /* \"#utility.yul\":4303:4329   */\n      swap1\n      pop\n        /* \"#utility.yul\":4339:4410   */\n      tag_169\n        /* \"#utility.yul\":4407:4408   */\n      0x00\n        /* \"#utility.yul\":4396:4405   */\n      dup4\n        /* \"#utility.yul\":4392:4409   */\n      add\n        /* \"#utility.yul\":4383:4389   */\n      dup7\n        /* \"#utility.yul\":4339:4410   */\n      tag_81\n      jump\t// in\n    tag_169:\n        /* \"#utility.yul\":4457:4466   */\n      dup2\n        /* \"#utility.yul\":4451:4455   */\n      dup2\n        /* \"#utility.yul\":4447:4467   */\n      sub\n        /* \"#utility.yul\":4442:4444   */\n      0x20\n        /* \"#utility.yul\":4431:4440   */\n      dup4\n        /* \"#utility.yul\":4427:4445   */\n      add\n        /* \"#utility.yul\":4420:4468   */\n      mstore\n        /* \"#utility.yul\":4485:4563   */\n      tag_170\n        /* \"#utility.yul\":4558:4562   */\n      dup2\n        /* \"#utility.yul\":4549:4555   */\n      dup6\n        /* \"#utility.yul\":4485:4563   */\n      tag_86\n      jump\t// in\n    tag_170:\n        /* \"#utility.yul\":4477:4563   */\n      swap1\n      pop\n        /* \"#utility.yul\":4573:4645   */\n      tag_171\n        /* \"#utility.yul\":4641:4643   */\n      0x40\n        /* \"#utility.yul\":4630:4639   */\n      dup4\n        /* \"#utility.yul\":4626:4644   */\n      add\n        /* \"#utility.yul\":4617:4623   */\n      dup5\n        /* \"#utility.yul\":4573:4645   */\n      tag_81\n      jump\t// in\n    tag_171:\n        /* \"#utility.yul\":4119:4652   */\n      swap5\n      swap4\n      pop\n      pop\n      pop\n      pop\n      jump\t// out\n        /* \"#utility.yul\":4658:4776   */\n    tag_87:\n        /* \"#utility.yul\":4745:4769   */\n      tag_173\n        /* \"#utility.yul\":4763:4768   */\n      dup2\n        /* \"#utility.yul\":4745:4769   */\n      tag_71\n      jump\t// in\n    tag_173:\n        /* \"#utility.yul\":4740:4743   */\n      dup3\n        /* \"#utility.yul\":4733:4770   */\n      mstore\n        /* \"#utility.yul\":4658:4776   */\n      pop\n      pop\n      jump\t// out\n        /* \"#utility.yul\":4782:5004   */\n    tag_29:\n        /* \"#utility.yul\":4875:4879   */\n      0x00\n        /* \"#utility.yul\":4913:4915   */\n      0x20\n        /* \"#utility.yul\":4902:4911   */\n      dup3\n        /* \"#utility.yul\":4898:4916   */\n      add\n        /* \"#utility.yul\":4890:4916   */\n      swap1\n      pop\n        /* \"#utility.yul\":4926:4997   */\n      tag_175\n        /* \"#utility.yul\":4994:4995   */\n      0x00\n        /* \"#utility.yul\":4983:4992   */\n      dup4\n        /* \"#utility.yul\":4979:4996   */\n      add\n        /* \"#utility.yul\":4970:4976   */\n      dup5\n        /* \"#utility.yul\":4926:4997   */\n      tag_87\n      jump\t// in\n    tag_175:\n        /* \"#utility.yul\":4782:5004   */\n      swap3\n      swap2\n      pop\n      pop\n      jump\t// out\n        /* \"#utility.yul\":5010:5127   */\n    tag_88:\n        /* \"#utility.yul\":5119:5120   */\n      0x00\n        /* \"#utility.yul\":5116:5117   */\n      dup1\n        /* \"#utility.yul\":5109:5121   */\n      revert\n        /* \"#utility.yul\":5133:5250   */\n    tag_89:\n        /* \"#utility.yul\":5242:5243   */\n      0x00\n        /* \"#utility.yul\":5239:5240   */\n      dup1\n        /* \"#utility.yul\":5232:5244   */\n      revert\n        /* \"#utility.yul\":5256:5436   */\n    tag_90:\n        /* \"#utility.yul\":5304:5381   */\n      0x4e487b7100000000000000000000000000000000000000000000000000000000\n        /* \"#utility.yul\":5301:5302   */\n      0x00\n        /* \"#utility.yul\":5294:5382   */\n      mstore\n        /* \"#utility.yul\":5401:5405   */\n      0x41\n        /* \"#utility.yul\":5398:5399   */\n      0x04\n        /* \"#utility.yul\":5391:5406   */\n      mstore\n        /* \"#utility.yul\":5425:5429   */\n      0x24\n        /* \"#utility.yul\":5422:5423   */\n      0x00\n        /* \"#utility.yul\":5415:5430   */\n      revert\n        /* \"#utility.yul\":5442:5723   */\n    tag_91:\n        /* \"#utility.yul\":5525:5552   */\n      tag_180\n        /* \"#utility.yul\":5547:5551   */\n      dup3\n        /* \"#utility.yul\":5525:5552   */\n      tag_85\n      jump\t// in\n    tag_180:\n        /* \"#utility.yul\":5517:5523   */\n      dup2\n        /* \"#utility.yul\":5513:5553   */\n      add\n        /* \"#utility.yul\":5655:5661   */\n      dup2\n        /* \"#utility.yul\":5643:5653   */\n      dup2\n        /* \"#utility.yul\":5640:5662   */\n      lt\n        /* \"#utility.yul\":5619:5637   */\n      0xffffffffffffffff\n        /* \"#utility.yul\":5607:5617   */\n      dup3\n        /* \"#utility.yul\":5604:5638   */\n      gt\n        /* \"#utility.yul\":5601:5663   */\n      or\n        /* \"#utility.yul\":5598:5686   */\n      iszero\n      tag_181\n      jumpi\n        /* \"#utility.yul\":5666:5684   */\n      tag_182\n      tag_90\n      jump\t// in\n    tag_182:\n        /* \"#utility.yul\":5598:5686   */\n    tag_181:\n        /* \"#utility.yul\":5706:5716   */\n      dup1\n        /* \"#utility.yul\":5702:5704   */\n      0x40\n        /* \"#utility.yul\":5695:5717   */\n      mstore\n        /* \"#utility.yul\":5485:5723   */\n      pop\n        /* \"#utility.yul\":5442:5723   */\n      pop\n      pop\n      jump\t// out\n        /* \"#utility.yul\":5729:5858   */\n    tag_92:\n        /* \"#utility.yul\":5763:5769   */\n      0x00\n        /* \"#utility.yul\":5790:5810   */\n      tag_184\n      tag_67\n      jump\t// in\n    tag_184:\n        /* \"#utility.yul\":5780:5810   */\n      swap1\n      pop\n        /* \"#utility.yul\":5819:5852   */\n      tag_185\n        /* \"#utility.yul\":5847:5851   */\n      dup3\n        /* \"#utility.yul\":5839:5845   */\n      dup3\n        /* \"#utility.yul\":5819:5852   */\n      tag_91\n      jump\t// in\n    tag_185:\n        /* \"#utility.yul\":5729:5858   */\n      swap2\n      swap1\n      pop\n      jump\t// out\n        /* \"#utility.yul\":5864:6172   */\n    tag_93:\n        /* \"#utility.yul\":5926:5930   */\n      0x00\n        /* \"#utility.yul\":6016:6034   */\n      0xffffffffffffffff\n        /* \"#utility.yul\":6008:6014   */\n      dup3\n        /* \"#utility.yul\":6005:6035   */\n      gt\n        /* \"#utility.yul\":6002:6058   */\n      iszero\n      tag_187\n      jumpi\n        /* \"#utility.yul\":6038:6056   */\n      tag_188\n      tag_90\n      jump\t// in\n    tag_188:\n        /* \"#utility.yul\":6002:6058   */\n    tag_187:\n        /* \"#utility.yul\":6076:6105   */\n      tag_189\n        /* \"#utility.yul\":6098:6104   */\n      dup3\n        /* \"#utility.yul\":6076:6105   */\n      tag_85\n      jump\t// in\n    tag_189:\n        /* \"#utility.yul\":6068:6105   */\n      swap1\n      pop\n        /* \"#utility.yul\":6160:6164   */\n      0x20\n        /* \"#utility.yul\":6154:6158   */\n      dup2\n        /* \"#utility.yul\":6150:6165   */\n      add\n        /* \"#utility.yul\":6142:6165   */\n      swap1\n      pop\n        /* \"#utility.yul\":5864:6172   */\n      swap2\n      swap1\n      pop\n      jump\t// out\n        /* \"#utility.yul\":6178:6324   */\n    tag_94:\n        /* \"#utility.yul\":6275:6281   */\n      dup3\n        /* \"#utility.yul\":6270:6273   */\n      dup2\n        /* \"#utility.yul\":6265:6268   */\n      dup4\n        /* \"#utility.yul\":6252:6282   */\n      calldatacopy\n        /* \"#utility.yul\":6316:6317   */\n      0x00\n        /* \"#utility.yul\":6307:6313   */\n      dup4\n        /* \"#utility.yul\":6302:6305   */\n      dup4\n        /* \"#utility.yul\":6298:6314   */\n      add\n        /* \"#utility.yul\":6291:6318   */\n      mstore\n        /* \"#utility.yul\":6178:6324   */\n      pop\n      pop\n      pop\n      jump\t// out\n        /* \"#utility.yul\":6330:6755   */\n    tag_95:\n        /* \"#utility.yul\":6408:6413   */\n      0x00\n        /* \"#utility.yul\":6433:6499   */\n      tag_192\n        /* \"#utility.yul\":6449:6498   */\n      tag_193\n        /* \"#utility.yul\":6491:6497   */\n      dup5\n        /* \"#utility.yul\":6449:6498   */\n      tag_93\n      jump\t// in\n    tag_193:\n        /* \"#utility.yul\":6433:6499   */\n      tag_92\n      jump\t// in\n    tag_192:\n        /* \"#utility.yul\":6424:6499   */\n      swap1\n      pop\n        /* \"#utility.yul\":6522:6528   */\n      dup3\n        /* \"#utility.yul\":6515:6520   */\n      dup2\n        /* \"#utility.yul\":6508:6529   */\n      mstore\n        /* \"#utility.yul\":6560:6564   */\n      0x20\n        /* \"#utility.yul\":6553:6558   */\n      dup2\n        /* \"#utility.yul\":6549:6565   */\n      add\n        /* \"#utility.yul\":6598:6601   */\n      dup5\n        /* \"#utility.yul\":6589:6595   */\n      dup5\n        /* \"#utility.yul\":6584:6587   */\n      dup5\n        /* \"#utility.yul\":6580:6596   */\n      add\n        /* \"#utility.yul\":6577:6602   */\n      gt\n        /* \"#utility.yul\":6574:6686   */\n      iszero\n      tag_194\n      jumpi\n        /* \"#utility.yul\":6605:6684   */\n      tag_195\n      tag_89\n      jump\t// in\n    tag_195:\n        /* \"#utility.yul\":6574:6686   */\n    tag_194:\n        /* \"#utility.yul\":6695:6749   */\n      tag_196\n        /* \"#utility.yul\":6742:6748   */\n      dup5\n        /* \"#utility.yul\":6737:6740   */\n      dup3\n        /* \"#utility.yul\":6732:6735   */\n      dup6\n        /* \"#utility.yul\":6695:6749   */\n      tag_94\n      jump\t// in\n    tag_196:\n        /* \"#utility.yul\":6414:6755   */\n      pop\n        /* \"#utility.yul\":6330:6755   */\n      swap4\n      swap3\n      pop\n      pop\n      pop\n      jump\t// out\n        /* \"#utility.yul\":6775:7115   */\n    tag_96:\n        /* \"#utility.yul\":6831:6836   */\n      0x00\n        /* \"#utility.yul\":6880:6883   */\n      dup3\n        /* \"#utility.yul\":6873:6877   */\n      0x1f\n        /* \"#utility.yul\":6865:6871   */\n      dup4\n        /* \"#utility.yul\":6861:6878   */\n      add\n        /* \"#utility.yul\":6857:6884   */\n      slt\n        /* \"#utility.yul\":6847:6969   */\n      tag_198\n      jumpi\n        /* \"#utility.yul\":6888:6967   */\n      tag_199\n      tag_88\n      jump\t// in\n    tag_199:\n        /* \"#utility.yul\":6847:6969   */\n    tag_198:\n        /* \"#utility.yul\":7005:7011   */\n      dup2\n        /* \"#utility.yul\":6992:7012   */\n      calldataload\n        /* \"#utility.yul\":7030:7109   */\n      tag_200\n        /* \"#utility.yul\":7105:7108   */\n      dup5\n        /* \"#utility.yul\":7097:7103   */\n      dup3\n        /* \"#utility.yul\":7090:7094   */\n      0x20\n        /* \"#utility.yul\":7082:7088   */\n      dup7\n        /* \"#utility.yul\":7078:7095   */\n      add\n        /* \"#utility.yul\":7030:7109   */\n      tag_95\n      jump\t// in\n    tag_200:\n        /* \"#utility.yul\":7021:7109   */\n      swap2\n      pop\n        /* \"#utility.yul\":6837:7115   */\n      pop\n        /* \"#utility.yul\":6775:7115   */\n      swap3\n      swap2\n      pop\n      pop\n      jump\t// out\n        /* \"#utility.yul\":7121:8066   */\n    tag_32:\n        /* \"#utility.yul\":7217:7223   */\n      0x00\n        /* \"#utility.yul\":7225:7231   */\n      dup1\n        /* \"#utility.yul\":7233:7239   */\n      0x00\n        /* \"#utility.yul\":7241:7247   */\n      dup1\n        /* \"#utility.yul\":7290:7293   */\n      0x80\n        /* \"#utility.yul\":7278:7287   */\n      dup6\n        /* \"#utility.yul\":7269:7276   */\n      dup8\n        /* \"#utility.yul\":7265:7288   */\n      sub\n        /* \"#utility.yul\":7261:7294   */\n      slt\n        /* \"#utility.yul\":7258:7378   */\n      iszero\n      tag_202\n      jumpi\n        /* \"#utility.yul\":7297:7376   */\n      tag_203\n      tag_68\n      jump\t// in\n    tag_203:\n        /* \"#utility.yul\":7258:7378   */\n    tag_202:\n        /* \"#utility.yul\":7417:7418   */\n      0x00\n        /* \"#utility.yul\":7442:7495   */\n      tag_204\n        /* \"#utility.yul\":7487:7494   */\n      dup8\n        /* \"#utility.yul\":7478:7484   */\n      dup3\n        /* \"#utility.yul\":7467:7476   */\n      dup9\n        /* \"#utility.yul\":7463:7485   */\n      add\n        /* \"#utility.yul\":7442:7495   */\n      tag_73\n      jump\t// in\n    tag_204:\n        /* \"#utility.yul\":7432:7495   */\n      swap5\n      pop\n        /* \"#utility.yul\":7388:7505   */\n      pop\n        /* \"#utility.yul\":7572:7574   */\n      0x20\n        /* \"#utility.yul\":7561:7570   */\n      dup6\n        /* \"#utility.yul\":7557:7575   */\n      add\n        /* \"#utility.yul\":7544:7576   */\n      calldataload\n        /* \"#utility.yul\":7603:7621   */\n      0xffffffffffffffff\n        /* \"#utility.yul\":7595:7601   */\n      dup2\n        /* \"#utility.yul\":7592:7622   */\n      gt\n        /* \"#utility.yul\":7589:7706   */\n      iszero\n      tag_205\n      jumpi\n        /* \"#utility.yul\":7625:7704   */\n      tag_206\n      tag_69\n      jump\t// in\n    tag_206:\n        /* \"#utility.yul\":7589:7706   */\n    tag_205:\n        /* \"#utility.yul\":7730:7793   */\n      tag_207\n        /* \"#utility.yul\":7785:7792   */\n      dup8\n        /* \"#utility.yul\":7776:7782   */\n      dup3\n        /* \"#utility.yul\":7765:7774   */\n      dup9\n        /* \"#utility.yul\":7761:7783   */\n      add\n        /* \"#utility.yul\":7730:7793   */\n      tag_96\n      jump\t// in\n    tag_207:\n        /* \"#utility.yul\":7720:7793   */\n      swap4\n      pop\n        /* \"#utility.yul\":7515:7803   */\n      pop\n        /* \"#utility.yul\":7842:7844   */\n      0x40\n        /* \"#utility.yul\":7868:7921   */\n      tag_208\n        /* \"#utility.yul\":7913:7920   */\n      dup8\n        /* \"#utility.yul\":7904:7910   */\n      dup3\n        /* \"#utility.yul\":7893:7902   */\n      dup9\n        /* \"#utility.yul\":7889:7911   */\n      add\n        /* \"#utility.yul\":7868:7921   */\n      tag_76\n      jump\t// in\n    tag_208:\n        /* \"#utility.yul\":7858:7921   */\n      swap3\n      pop\n        /* \"#utility.yul\":7813:7931   */\n      pop\n        /* \"#utility.yul\":7970:7972   */\n      0x60\n        /* \"#utility.yul\":7996:8049   */\n      tag_209\n        /* \"#utility.yul\":8041:8048   */\n      dup8\n        /* \"#utility.yul\":8032:8038   */\n      dup3\n        /* \"#utility.yul\":8021:8030   */\n      dup9\n        /* \"#utility.yul\":8017:8039   */\n      add\n        /* \"#utility.yul\":7996:8049   */\n      tag_76\n      jump\t// in\n    tag_209:\n        /* \"#utility.yul\":7986:8049   */\n      swap2\n      pop\n        /* \"#utility.yul\":7941:8059   */\n      pop\n        /* \"#utility.yul\":7121:8066   */\n      swap3\n      swap6\n      swap2\n      swap5\n      pop\n      swap3\n      pop\n      jump\t// out\n        /* \"#utility.yul\":8072:8252   */\n    tag_97:\n        /* \"#utility.yul\":8120:8197   */\n      0x4e487b7100000000000000000000000000000000000000000000000000000000\n        /* \"#utility.yul\":8117:8118   */\n      0x00\n        /* \"#utility.yul\":8110:8198   */\n      mstore\n        /* \"#utility.yul\":8217:8221   */\n      0x22\n        /* \"#utility.yul\":8214:8215   */\n      0x04\n        /* \"#utility.yul\":8207:8222   */\n      mstore\n        /* \"#utility.yul\":8241:8245   */\n      0x24\n        /* \"#utility.yul\":8238:8239   */\n      0x00\n        /* \"#utility.yul\":8231:8246   */\n      revert\n        /* \"#utility.yul\":8258:8578   */\n    tag_43:\n        /* \"#utility.yul\":8302:8308   */\n      0x00\n        /* \"#utility.yul\":8339:8340   */\n      0x02\n        /* \"#utility.yul\":8333:8337   */\n      dup3\n        /* \"#utility.yul\":8329:8341   */\n      div\n        /* \"#utility.yul\":8319:8341   */\n      swap1\n      pop\n        /* \"#utility.yul\":8386:8387   */\n      0x01\n        /* \"#utility.yul\":8380:8384   */\n      dup3\n        /* \"#utility.yul\":8376:8388   */\n      and\n        /* \"#utility.yul\":8407:8425   */\n      dup1\n        /* \"#utility.yul\":8397:8478   */\n      tag_212\n      jumpi\n        /* \"#utility.yul\":8463:8467   */\n      0x7f\n        /* \"#utility.yul\":8455:8461   */\n      dup3\n        /* \"#utility.yul\":8451:8468   */\n      and\n        /* \"#utility.yul\":8441:8468   */\n      swap2\n      pop\n        /* \"#utility.yul\":8397:8478   */\n    tag_212:\n        /* \"#utility.yul\":8525:8527   */\n      0x20\n        /* \"#utility.yul\":8517:8523   */\n      dup3\n        /* \"#utility.yul\":8514:8528   */\n      lt\n        /* \"#utility.yul\":8494:8512   */\n      dup2\n        /* \"#utility.yul\":8491:8529   */\n      sub\n        /* \"#utility.yul\":8488:8572   */\n      tag_213\n      jumpi\n        /* \"#utility.yul\":8544:8562   */\n      tag_214\n      tag_97\n      jump\t// in\n    tag_214:\n        /* \"#utility.yul\":8488:8572   */\n    tag_213:\n        /* \"#utility.yul\":8309:8578   */\n      pop\n        /* \"#utility.yul\":8258:8578   */\n      swap2\n      swap1\n      pop\n      jump\t// out\n        /* \"#utility.yul\":8584:8759   */\n    tag_98:\n        /* \"#utility.yul\":8724:8751   */\n      0x536f727279212054686520726f6f6d20697320426f6f6b656400000000000000\n        /* \"#utility.yul\":8720:8721   */\n      0x00\n        /* \"#utility.yul\":8712:8718   */\n      dup3\n        /* \"#utility.yul\":8708:8722   */\n      add\n        /* \"#utility.yul\":8701:8752   */\n      mstore\n        /* \"#utility.yul\":8584:8759   */\n      pop\n      jump\t// out\n        /* \"#utility.yul\":8765:9131   */\n    tag_99:\n        /* \"#utility.yul\":8907:8910   */\n      0x00\n        /* \"#utility.yul\":8928:8995   */\n      tag_217\n        /* \"#utility.yul\":8992:8994   */\n      0x19\n        /* \"#utility.yul\":8987:8990   */\n      dup4\n        /* \"#utility.yul\":8928:8995   */\n      tag_83\n      jump\t// in\n    tag_217:\n        /* \"#utility.yul\":8921:8995   */\n      swap2\n      pop\n        /* \"#utility.yul\":9004:9097   */\n      tag_218\n        /* \"#utility.yul\":9093:9096   */\n      dup3\n        /* \"#utility.yul\":9004:9097   */\n      tag_98\n      jump\t// in\n    tag_218:\n        /* \"#utility.yul\":9122:9124   */\n      0x20\n        /* \"#utility.yul\":9117:9120   */\n      dup3\n        /* \"#utility.yul\":9113:9125   */\n      add\n        /* \"#utility.yul\":9106:9125   */\n      swap1\n      pop\n        /* \"#utility.yul\":8765:9131   */\n      swap2\n      swap1\n      pop\n      jump\t// out\n        /* \"#utility.yul\":9137:9556   */\n    tag_55:\n        /* \"#utility.yul\":9303:9307   */\n      0x00\n        /* \"#utility.yul\":9341:9343   */\n      0x20\n        /* \"#utility.yul\":9330:9339   */\n      dup3\n        /* \"#utility.yul\":9326:9344   */\n      add\n        /* \"#utility.yul\":9318:9344   */\n      swap1\n      pop\n        /* \"#utility.yul\":9390:9399   */\n      dup2\n        /* \"#utility.yul\":9384:9388   */\n      dup2\n        /* \"#utility.yul\":9380:9400   */\n      sub\n        /* \"#utility.yul\":9376:9377   */\n      0x00\n        /* \"#utility.yul\":9365:9374   */\n      dup4\n        /* \"#utility.yul\":9361:9378   */\n      add\n        /* \"#utility.yul\":9354:9401   */\n      mstore\n        /* \"#utility.yul\":9418:9549   */\n      tag_220\n        /* \"#utility.yul\":9544:9548   */\n      dup2\n        /* \"#utility.yul\":9418:9549   */\n      tag_99\n      jump\t// in\n    tag_220:\n        /* \"#utility.yul\":9410:9549   */\n      swap1\n      pop\n        /* \"#utility.yul\":9137:9556   */\n      swap2\n      swap1\n      pop\n      jump\t// out\n        /* \"#utility.yul\":9562:9703   */\n    tag_100:\n        /* \"#utility.yul\":9611:9615   */\n      0x00\n        /* \"#utility.yul\":9634:9637   */\n      dup2\n        /* \"#utility.yul\":9626:9637   */\n      swap1\n      pop\n        /* \"#utility.yul\":9657:9660   */\n      dup2\n        /* \"#utility.yul\":9654:9655   */\n      0x00\n        /* \"#utility.yul\":9647:9661   */\n      mstore\n        /* \"#utility.yul\":9691:9695   */\n      0x20\n        /* \"#utility.yul\":9688:9689   */\n      0x00\n        /* \"#utility.yul\":9678:9696   */\n      keccak256\n        /* \"#utility.yul\":9670:9696   */\n      swap1\n      pop\n        /* \"#utility.yul\":9562:9703   */\n      swap2\n      swap1\n      pop\n      jump\t// out\n        /* \"#utility.yul\":9709:9802   */\n    tag_101:\n        /* \"#utility.yul\":9746:9752   */\n      0x00\n        /* \"#utility.yul\":9793:9795   */\n      0x20\n        /* \"#utility.yul\":9788:9790   */\n      0x1f\n        /* \"#utility.yul\":9781:9786   */\n      dup4\n        /* \"#utility.yul\":9777:9791   */\n      add\n        /* \"#utility.yul\":9773:9796   */\n      div\n        /* \"#utility.yul\":9763:9796   */\n      swap1\n      pop\n        /* \"#utility.yul\":9709:9802   */\n      swap2\n      swap1\n      pop\n      jump\t// out\n        /* \"#utility.yul\":9808:9915   */\n    tag_102:\n        /* \"#utility.yul\":9852:9860   */\n      0x00\n        /* \"#utility.yul\":9902:9907   */\n      dup3\n        /* \"#utility.yul\":9896:9900   */\n      dup3\n        /* \"#utility.yul\":9892:9908   */\n      shl\n        /* \"#utility.yul\":9871:9908   */\n      swap1\n      pop\n        /* \"#utility.yul\":9808:9915   */\n      swap3\n      swap2\n      pop\n      pop\n      jump\t// out\n        /* \"#utility.yul\":9921:10314   */\n    tag_103:\n        /* \"#utility.yul\":9990:9996   */\n      0x00\n        /* \"#utility.yul\":10040:10041   */\n      0x08\n        /* \"#utility.yul\":10028:10038   */\n      dup4\n        /* \"#utility.yul\":10024:10042   */\n      mul\n        /* \"#utility.yul\":10063:10160   */\n      tag_225\n        /* \"#utility.yul\":10093:10159   */\n      0xffffffffffffffffffffffffffffffffffffffffffffffffffffffffffffffff\n        /* \"#utility.yul\":10082:10091   */\n      dup3\n        /* \"#utility.yul\":10063:10160   */\n      tag_102\n      jump\t// in\n    tag_225:\n        /* \"#utility.yul\":10181:10220   */\n      tag_226\n        /* \"#utility.yul\":10211:10219   */\n      dup7\n        /* \"#utility.yul\":10200:10209   */\n      dup4\n        /* \"#utility.yul\":10181:10220   */\n      tag_102\n      jump\t// in\n    tag_226:\n        /* \"#utility.yul\":10169:10220   */\n      swap6\n      pop\n        /* \"#utility.yul\":10253:10257   */\n      dup1\n        /* \"#utility.yul\":10249:10258   */\n      not\n        /* \"#utility.yul\":10242:10247   */\n      dup5\n        /* \"#utility.yul\":10238:10259   */\n      and\n        /* \"#utility.yul\":10229:10259   */\n      swap4\n      pop\n        /* \"#utility.yul\":10302:10306   */\n      dup1\n        /* \"#utility.yul\":10292:10300   */\n      dup7\n        /* \"#utility.yul\":10288:10307   */\n      and\n        /* \"#utility.yul\":10281:10286   */\n      dup5\n        /* \"#utility.yul\":10278:10308   */\n      or\n        /* \"#utility.yul\":10268:10308   */\n      swap3\n      pop\n        /* \"#utility.yul\":9997:10314   */\n      pop\n      pop\n        /* \"#utility.yul\":9921:10314   */\n      swap4\n      swap3\n      pop\n      pop\n      pop\n      jump\t// out\n        /* \"#utility.yul\":10320:10380   */\n    tag_104:\n        /* \"#utility.yul\":10348:10351   */\n      0x00\n        /* \"#utility.yul\":10369:10374   */\n      dup2\n        /* \"#utility.yul\":10362:10374   */\n      swap1\n      pop\n        /* \"#utility.yul\":10320:10380   */\n      swap2\n      swap1\n      pop\n      jump\t// out\n        /* \"#utility.yul\":10386:10528   */\n    tag_105:\n        /* \"#utility.yul\":10436:10445   */\n      0x00\n        /* \"#utility.yul\":10469:10522   */\n      tag_229\n        /* \"#utility.yul\":10487:10521   */\n      tag_230\n        /* \"#utility.yul\":10496:10520   */\n      tag_231\n        /* \"#utility.yul\":10514:10519   */\n      dup5\n        /* \"#utility.yul\":10496:10520   */\n      tag_74\n      jump\t// in\n    tag_231:\n        /* \"#utility.yul\":10487:10521   */\n      tag_104\n      jump\t// in\n    tag_230:\n        /* \"#utility.yul\":10469:10522   */\n      tag_74\n      jump\t// in\n    tag_229:\n        /* \"#utility.yul\":10456:10522   */\n      swap1\n      pop\n        /* \"#utility.yul\":10386:10528   */\n      swap2\n      swap1\n      pop\n      jump\t// out\n        /* \"#utility.yul\":10534:10609   */\n    tag_106:\n        /* \"#utility.yul\":10577:10580   */\n      0x00\n        /* \"#utility.yul\":10598:10603   */\n      dup2\n        /* \"#utility.yul\":10591:10603   */\n      swap1\n      pop\n        /* \"#utility.yul\":10534:10609   */\n      swap2\n      swap1\n      pop\n      jump\t// out\n        /* \"#utility.yul\":10615:10884   */\n    tag_107:\n        /* \"#utility.yul\":10725:10764   */\n      tag_234\n        /* \"#utility.yul\":10756:10763   */\n      dup4\n        /* \"#utility.yul\":10725:10764   */\n      tag_105\n      jump\t// in\n    tag_234:\n        /* \"#utility.yul\":10786:10877   */\n      tag_235\n        /* \"#utility.yul\":10835:10876   */\n      tag_236\n        /* \"#utility.yul\":10859:10875   */\n      dup3\n        /* \"#utility.yul\":10835:10876   */\n      tag_106\n      jump\t// in\n    tag_236:\n        /* \"#utility.yul\":10827:10833   */\n      dup5\n        /* \"#utility.yul\":10820:10824   */\n      dup5\n        /* \"#utility.yul\":10814:10825   */\n      sload\n        /* \"#utility.yul\":10786:10877   */\n      tag_103\n      jump\t// in\n    tag_235:\n        /* \"#utility.yul\":10780:10784   */\n      dup3\n        /* \"#utility.yul\":10773:10878   */\n      sstore\n        /* \"#utility.yul\":10691:10884   */\n      pop\n        /* \"#utility.yul\":10615:10884   */\n      pop\n      pop\n      pop\n      jump\t// out\n        /* \"#utility.yul\":10890:10963   */\n    tag_108:\n        /* \"#utility.yul\":10935:10938   */\n      0x00\n        /* \"#utility.yul\":10890:10963   */\n      swap1\n      jump\t// out\n        /* \"#utility.yul\":10969:11158   */\n    tag_109:\n        /* \"#utility.yul\":11046:11078   */\n      tag_239\n      tag_108\n      jump\t// in\n    tag_239:\n        /* \"#utility.yul\":11087:11152   */\n      tag_240\n        /* \"#utility.yul\":11145:11151   */\n      dup2\n        /* \"#utility.yul\":11137:11143   */\n      dup5\n        /* \"#utility.yul\":11131:11135   */\n      dup5\n        /* \"#utility.yul\":11087:11152   */\n      tag_107\n      jump\t// in\n    tag_240:\n        /* \"#utility.yul\":11022:11158   */\n      pop\n        /* \"#utility.yul\":10969:11158   */\n      pop\n      pop\n      jump\t// out\n        /* \"#utility.yul\":11164:11350   */\n    tag_110:\n        /* \"#utility.yul\":11224:11344   */\n    tag_242:\n        /* \"#utility.yul\":11241:11244   */\n      dup2\n        /* \"#utility.yul\":11234:11239   */\n      dup2\n        /* \"#utility.yul\":11231:11245   */\n      lt\n        /* \"#utility.yul\":11224:11344   */\n      iszero\n      tag_244\n      jumpi\n        /* \"#utility.yul\":11295:11334   */\n      tag_245\n        /* \"#utility.yul\":11332:11333   */\n      0x00\n        /* \"#utility.yul\":11325:11330   */\n      dup3\n        /* \"#utility.yul\":11295:11334   */\n      tag_109\n      jump\t// in\n    tag_245:\n        /* \"#utility.yul\":11268:11269   */\n      0x01\n        /* \"#utility.yul\":11261:11266   */\n      dup2\n        /* \"#utility.yul\":11257:11270   */\n      add\n        /* \"#utility.yul\":11248:11270   */\n      swap1\n      pop\n        /* \"#utility.yul\":11224:11344   */\n      jump(tag_242)\n    tag_244:\n        /* \"#utility.yul\":11164:11350   */\n      pop\n      pop\n      jump\t// out\n        /* \"#utility.yul\":11356:11899   */\n    tag_111:\n        /* \"#utility.yul\":11457:11459   */\n      0x1f\n        /* \"#utility.yul\":11452:11455   */\n      dup3\n        /* \"#utility.yul\":11449:11460   */\n      gt\n        /* \"#utility.yul\":11446:11892   */\n      iszero\n      tag_247\n      jumpi\n        /* \"#utility.yul\":11491:11529   */\n      tag_248\n        /* \"#utility.yul\":11523:11528   */\n      dup2\n        /* \"#utility.yul\":11491:11529   */\n      tag_100\n      jump\t// in\n    tag_248:\n        /* \"#utility.yul\":11575:11604   */\n      tag_249\n        /* \"#utility.yul\":11593:11603   */\n      dup5\n        /* \"#utility.yul\":11575:11604   */\n      tag_101\n      jump\t// in\n    tag_249:\n        /* \"#utility.yul\":11565:11573   */\n      dup2\n        /* \"#utility.yul\":11561:11605   */\n      add\n        /* \"#utility.yul\":11758:11760   */\n      0x20\n        /* \"#utility.yul\":11746:11756   */\n      dup6\n        /* \"#utility.yul\":11743:11761   */\n      lt\n        /* \"#utility.yul\":11740:11789   */\n      iszero\n      tag_250\n      jumpi\n        /* \"#utility.yul\":11779:11787   */\n      dup2\n        /* \"#utility.yul\":11764:11787   */\n      swap1\n      pop\n        /* \"#utility.yul\":11740:11789   */\n    tag_250:\n        /* \"#utility.yul\":11802:11882   */\n      tag_251\n        /* \"#utility.yul\":11858:11880   */\n      tag_252\n        /* \"#utility.yul\":11876:11879   */\n      dup6\n        /* \"#utility.yul\":11858:11880   */\n      tag_101\n      jump\t// in\n    tag_252:\n        /* \"#utility.yul\":11848:11856   */\n      dup4\n        /* \"#utility.yul\":11844:11881   */\n      add\n        /* \"#utility.yul\":11831:11842   */\n      dup3\n        /* \"#utility.yul\":11802:11882   */\n      tag_110\n      jump\t// in\n    tag_251:\n        /* \"#utility.yul\":11461:11892   */\n      pop\n      pop\n        /* \"#utility.yul\":11446:11892   */\n    tag_247:\n        /* \"#utility.yul\":11356:11899   */\n      pop\n      pop\n      pop\n      jump\t// out\n        /* \"#utility.yul\":11905:12022   */\n    tag_112:\n        /* \"#utility.yul\":11959:11967   */\n      0x00\n        /* \"#utility.yul\":12009:12014   */\n      dup3\n        /* \"#utility.yul\":12003:12007   */\n      dup3\n        /* \"#utility.yul\":11999:12015   */\n      shr\n        /* \"#utility.yul\":11978:12015   */\n      swap1\n      pop\n        /* \"#utility.yul\":11905:12022   */\n      swap3\n      swap2\n      pop\n      pop\n      jump\t// out\n        /* \"#utility.yul\":12028:12197   */\n    tag_113:\n        /* \"#utility.yul\":12072:12078   */\n      0x00\n        /* \"#utility.yul\":12105:12156   */\n      tag_255\n        /* \"#utility.yul\":12153:12154   */\n      0x00\n        /* \"#utility.yul\":12149:12155   */\n      not\n        /* \"#utility.yul\":12141:12146   */\n      dup5\n        /* \"#utility.yul\":12138:12139   */\n      0x08\n        /* \"#utility.yul\":12134:12147   */\n      mul\n        /* \"#utility.yul\":12105:12156   */\n      tag_112\n      jump\t// in\n    tag_255:\n        /* \"#utility.yul\":12101:12157   */\n      not\n        /* \"#utility.yul\":12186:12190   */\n      dup1\n        /* \"#utility.yul\":12180:12184   */\n      dup4\n        /* \"#utility.yul\":12176:12191   */\n      and\n        /* \"#utility.yul\":12166:12191   */\n      swap2\n      pop\n        /* \"#utility.yul\":12079:12197   */\n      pop\n        /* \"#utility.yul\":12028:12197   */\n      swap3\n      swap2\n      pop\n      pop\n      jump\t// out\n        /* \"#utility.yul\":12202:12497   */\n    tag_114:\n        /* \"#utility.yul\":12278:12282   */\n      0x00\n        /* \"#utility.yul\":12424:12453   */\n      tag_257\n        /* \"#utility.yul\":12449:12452   */\n      dup4\n        /* \"#utility.yul\":12443:12447   */\n      dup4\n        /* \"#utility.yul\":12424:12453   */\n      tag_113\n      jump\t// in\n    tag_257:\n        /* \"#utility.yul\":12416:12453   */\n      swap2\n      pop\n        /* \"#utility.yul\":12486:12489   */\n      dup3\n        /* \"#utility.yul\":12483:12484   */\n      0x02\n        /* \"#utility.yul\":12479:12490   */\n      mul\n        /* \"#utility.yul\":12473:12477   */\n      dup3\n        /* \"#utility.yul\":12470:12491   */\n      or\n        /* \"#utility.yul\":12462:12491   */\n      swap1\n      pop\n        /* \"#utility.yul\":12202:12497   */\n      swap3\n      swap2\n      pop\n      pop\n      jump\t// out\n        /* \"#utility.yul\":12502:13897   */\n    tag_57:\n        /* \"#utility.yul\":12619:12656   */\n      tag_259\n        /* \"#utility.yul\":12652:12655   */\n      dup3\n        /* \"#utility.yul\":12619:12656   */\n      tag_82\n      jump\t// in\n    tag_259:\n        /* \"#utility.yul\":12721:12739   */\n      0xffffffffffffffff\n        /* \"#utility.yul\":12713:12719   */\n      dup2\n        /* \"#utility.yul\":12710:12740   */\n      gt\n        /* \"#utility.yul\":12707:12763   */\n      iszero\n      tag_260\n      jumpi\n        /* \"#utility.yul\":12743:12761   */\n      tag_261\n      tag_90\n      jump\t// in\n    tag_261:\n        /* \"#utility.yul\":12707:12763   */\n    tag_260:\n        /* \"#utility.yul\":12787:12825   */\n      tag_262\n        /* \"#utility.yul\":12819:12823   */\n      dup3\n        /* \"#utility.yul\":12813:12824   */\n      sload\n        /* \"#utility.yul\":12787:12825   */\n      tag_43\n      jump\t// in\n    tag_262:\n        /* \"#utility.yul\":12872:12939   */\n      tag_263\n        /* \"#utility.yul\":12932:12938   */\n      dup3\n        /* \"#utility.yul\":12924:12930   */\n      dup3\n        /* \"#utility.yul\":12918:12922   */\n      dup6\n        /* \"#utility.yul\":12872:12939   */\n      tag_111\n      jump\t// in\n    tag_263:\n        /* \"#utility.yul\":12966:12967   */\n      0x00\n        /* \"#utility.yul\":12990:12994   */\n      0x20\n        /* \"#utility.yul\":12977:12994   */\n      swap1\n      pop\n        /* \"#utility.yul\":13022:13024   */\n      0x1f\n        /* \"#utility.yul\":13014:13020   */\n      dup4\n        /* \"#utility.yul\":13011:13025   */\n      gt\n        /* \"#utility.yul\":13039:13040   */\n      0x01\n        /* \"#utility.yul\":13034:13652   */\n      dup2\n      eq\n      tag_265\n      jumpi\n        /* \"#utility.yul\":13696:13697   */\n      0x00\n        /* \"#utility.yul\":13713:13719   */\n      dup5\n        /* \"#utility.yul\":13710:13787   */\n      iszero\n      tag_266\n      jumpi\n        /* \"#utility.yul\":13762:13771   */\n      dup3\n        /* \"#utility.yul\":13757:13760   */\n      dup8\n        /* \"#utility.yul\":13753:13772   */\n      add\n        /* \"#utility.yul\":13747:13773   */\n      mload\n        /* \"#utility.yul\":13738:13773   */\n      swap1\n      pop\n        /* \"#utility.yul\":13710:13787   */\n    tag_266:\n        /* \"#utility.yul\":13813:13880   */\n      tag_267\n        /* \"#utility.yul\":13873:13879   */\n      dup6\n        /* \"#utility.yul\":13866:13871   */\n      dup3\n        /* \"#utility.yul\":13813:13880   */\n      tag_114\n      jump\t// in\n    tag_267:\n        /* \"#utility.yul\":13807:13811   */\n      dup7\n        /* \"#utility.yul\":13800:13881   */\n      sstore\n        /* \"#utility.yul\":13669:13891   */\n      pop\n        /* \"#utility.yul\":13004:13891   */\n      jump(tag_264)\n        /* \"#utility.yul\":13034:13652   */\n    tag_265:\n        /* \"#utility.yul\":13086:13090   */\n      0x1f\n        /* \"#utility.yul\":13082:13091   */\n      not\n        /* \"#utility.yul\":13074:13080   */\n      dup5\n        /* \"#utility.yul\":13070:13092   */\n      and\n        /* \"#utility.yul\":13120:13157   */\n      tag_268\n        /* \"#utility.yul\":13152:13156   */\n      dup7\n        /* \"#utility.yul\":13120:13157   */\n      tag_100\n      jump\t// in\n    tag_268:\n        /* \"#utility.yul\":13179:13180   */\n      0x00\n        /* \"#utility.yul\":13193:13401   */\n    tag_269:\n        /* \"#utility.yul\":13207:13214   */\n      dup3\n        /* \"#utility.yul\":13204:13205   */\n      dup2\n        /* \"#utility.yul\":13201:13215   */\n      lt\n        /* \"#utility.yul\":13193:13401   */\n      iszero\n      tag_271\n      jumpi\n        /* \"#utility.yul\":13286:13295   */\n      dup5\n        /* \"#utility.yul\":13281:13284   */\n      dup10\n        /* \"#utility.yul\":13277:13296   */\n      add\n        /* \"#utility.yul\":13271:13297   */\n      mload\n        /* \"#utility.yul\":13263:13269   */\n      dup3\n        /* \"#utility.yul\":13256:13298   */\n      sstore\n        /* \"#utility.yul\":13337:13338   */\n      0x01\n        /* \"#utility.yul\":13329:13335   */\n      dup3\n        /* \"#utility.yul\":13325:13339   */\n      add\n        /* \"#utility.yul\":13315:13339   */\n      swap2\n      pop\n        /* \"#utility.yul\":13384:13386   */\n      0x20\n        /* \"#utility.yul\":13373:13382   */\n      dup6\n        /* \"#utility.yul\":13369:13387   */\n      add\n        /* \"#utility.yul\":13356:13387   */\n      swap5\n      pop\n        /* \"#utility.yul\":13230:13234   */\n      0x20\n        /* \"#utility.yul\":13227:13228   */\n      dup2\n        /* \"#utility.yul\":13223:13235   */\n      add\n        /* \"#utility.yul\":13218:13235   */\n      swap1\n      pop\n        /* \"#utility.yul\":13193:13401   */\n      jump(tag_269)\n    tag_271:\n        /* \"#utility.yul\":13429:13435   */\n      dup7\n        /* \"#utility.yul\":13420:13427   */\n      dup4\n        /* \"#utility.yul\":13417:13436   */\n      lt\n        /* \"#utility.yul\":13414:13593   */\n      iszero\n      tag_272\n      jumpi\n        /* \"#utility.yul\":13487:13496   */\n      dup5\n        /* \"#utility.yul\":13482:13485   */\n      dup10\n        /* \"#utility.yul\":13478:13497   */\n      add\n        /* \"#utility.yul\":13472:13498   */\n      mload\n        /* \"#utility.yul\":13530:13578   */\n      tag_273\n        /* \"#utility.yul\":13572:13576   */\n      0x1f\n        /* \"#utility.yul\":13564:13570   */\n      dup10\n        /* \"#utility.yul\":13560:13577   */\n      and\n        /* \"#utility.yul\":13549:13558   */\n      dup3\n        /* \"#utility.yul\":13530:13578   */\n      tag_113\n      jump\t// in\n    tag_273:\n        /* \"#utility.yul\":13522:13528   */\n      dup4\n        /* \"#utility.yul\":13515:13579   */\n      sstore\n        /* \"#utility.yul\":13437:13593   */\n      pop\n        /* \"#utility.yul\":13414:13593   */\n    tag_272:\n        /* \"#utility.yul\":13639:13640   */\n      0x01\n        /* \"#utility.yul\":13635:13636   */\n      0x02\n        /* \"#utility.yul\":13627:13633   */\n      dup9\n        /* \"#utility.yul\":13623:13637   */\n      mul\n        /* \"#utility.yul\":13619:13641   */\n      add\n        /* \"#utility.yul\":13613:13617   */\n      dup9\n        /* \"#utility.yul\":13606:13642   */\n      sstore\n        /* \"#utility.yul\":13041:13652   */\n      pop\n      pop\n      pop\n        /* \"#utility.yul\":13004:13891   */\n    tag_264:\n      pop\n        /* \"#utility.yul\":12594:13897   */\n      pop\n      pop\n      pop\n        /* \"#utility.yul\":12502:13897   */\n      pop\n      pop\n      jump\t// out\n\n    auxdata: 0xa26469706673582212207095aa6d968c1e7f01874f3141851c01b9c3d1f544fa5824109486aae9edc11464736f6c63430008120033\n}\n",
				"bytecode": {
					"linkReferences": {},
					"object": "608060405234801561001057600080fd5b50610d6c806100206000396000f3fe608060405234801561001057600080fd5b50600436106100625760003560e01c80631ed60d0a14610067578063200d2ed21461008357806382394694146100a15780638271c809146100bd5780638da5cb5b146100ef578063da429b031461010d575b600080fd5b610081600480360381019061007c919061062e565b610129565b005b61008b6101b4565b60405161009891906106e5565b60405180910390f35b6100bb60048036038101906100b69190610700565b6101c7565b005b6100d760048036038101906100d29190610700565b6102ce565b6040516100e6939291906107cc565b60405180910390f35b6100f7610380565b6040516101049190610819565b60405180910390f35b61012760048036038101906101229190610969565b6103a4565b005b336000806101000a81548173ffffffffffffffffffffffffffffffffffffffff021916908373ffffffffffffffffffffffffffffffffffffffff16021790555080600160008473ffffffffffffffffffffffffffffffffffffffff1673ffffffffffffffffffffffffffffffffffffffff168152602001908152602001600020600001819055505050565b600060149054906101000a900460ff1681565b600160008273ffffffffffffffffffffffffffffffffffffffff1673ffffffffffffffffffffffffffffffffffffffff16815260200190815260200160002060000160009055600160008273ffffffffffffffffffffffffffffffffffffffff1673ffffffffffffffffffffffffffffffffffffffff168152602001908152602001600020600101600061025b9190610529565b600160008273ffffffffffffffffffffffffffffffffffffffff1673ffffffffffffffffffffffffffffffffffffffff1681526020019081526020016000206002016000905560008060146101000a81548160ff021916908360018111156102c6576102c561066e565b5b021790555050565b60016020528060005260406000206000915090508060000154908060010180546102f790610a1b565b80601f016020809104026020016040519081016040528092919081815260200182805461032390610a1b565b80156103705780601f1061034557610100808354040283529160200191610370565b820191906000526020600020905b81548152906001019060200180831161035357829003601f168201915b5050505050908060020154905083565b60008054906101000a900473ffffffffffffffffffffffffffffffffffffffff1681565b600060018111156103b8576103b761066e565b5b600060149054906101000a900460ff1660018111156103da576103d961066e565b5b1461041a576040517f08c379a000000000000000000000000000000000000000000000000000000000815260040161041190610a98565b60405180910390fd5b82600160008673ffffffffffffffffffffffffffffffffffffffff1673ffffffffffffffffffffffffffffffffffffffff16815260200190815260200160002060010190816104699190610c64565b5081600160008673ffffffffffffffffffffffffffffffffffffffff1673ffffffffffffffffffffffffffffffffffffffff1681526020019081526020016000206000018190555080600160008673ffffffffffffffffffffffffffffffffffffffff1673ffffffffffffffffffffffffffffffffffffffff168152602001908152602001600020600201819055506001600060146101000a81548160ff0219169083600181111561051e5761051d61066e565b5b021790555050505050565b50805461053590610a1b565b6000825580601f106105475750610566565b601f0160209004906000526020600020908101906105659190610569565b5b50565b5b8082111561058257600081600090555060010161056a565b5090565b6000604051905090565b600080fd5b600080fd5b600073ffffffffffffffffffffffffffffffffffffffff82169050919050565b60006105c58261059a565b9050919050565b6105d5816105ba565b81146105e057600080fd5b50565b6000813590506105f2816105cc565b92915050565b6000819050919050565b61060b816105f8565b811461061657600080fd5b50565b60008135905061062881610602565b92915050565b6000806040838503121561064557610644610590565b5b6000610653858286016105e3565b925050602061066485828601610619565b9150509250929050565b7f4e487b7100000000000000000000000000000000000000000000000000000000600052602160045260246000fd5b600281106106ae576106ad61066e565b5b50565b60008190506106bf8261069d565b919050565b60006106cf826106b1565b9050919050565b6106df816106c4565b82525050565b60006020820190506106fa60008301846106d6565b92915050565b60006020828403121561071657610715610590565b5b6000610724848285016105e3565b91505092915050565b610736816105f8565b82525050565b600081519050919050565b600082825260208201905092915050565b60005b8381101561077657808201518184015260208101905061075b565b60008484015250505050565b6000601f19601f8301169050919050565b600061079e8261073c565b6107a88185610747565b93506107b8818560208601610758565b6107c181610782565b840191505092915050565b60006060820190506107e1600083018661072d565b81810360208301526107f38185610793565b9050610802604083018461072d565b949350505050565b610813816105ba565b82525050565b600060208201905061082e600083018461080a565b92915050565b600080fd5b600080fd5b7f4e487b7100000000000000000000000000000000000000000000000000000000600052604160045260246000fd5b61087682610782565b810181811067ffffffffffffffff821117156108955761089461083e565b5b80604052505050565b60006108a8610586565b90506108b4828261086d565b919050565b600067ffffffffffffffff8211156108d4576108d361083e565b5b6108dd82610782565b9050602081019050919050565b82818337600083830152505050565b600061090c610907846108b9565b61089e565b90508281526020810184848401111561092857610927610839565b5b6109338482856108ea565b509392505050565b600082601f8301126109505761094f610834565b5b81356109608482602086016108f9565b91505092915050565b6000806000806080858703121561098357610982610590565b5b6000610991878288016105e3565b945050602085013567ffffffffffffffff8111156109b2576109b1610595565b5b6109be8782880161093b565b93505060406109cf87828801610619565b92505060606109e087828801610619565b91505092959194509250565b7f4e487b7100000000000000000000000000000000000000000000000000000000600052602260045260246000fd5b60006002820490506001821680610a3357607f821691505b602082108103610a4657610a456109ec565b5b50919050565b7f536f727279212054686520726f6f6d20697320426f6f6b656400000000000000600082015250565b6000610a82601983610747565b9150610a8d82610a4c565b602082019050919050565b60006020820190508181036000830152610ab181610a75565b9050919050565b60008190508160005260206000209050919050565b60006020601f8301049050919050565b600082821b905092915050565b600060088302610b1a7fffffffffffffffffffffffffffffffffffffffffffffffffffffffffffffffff82610add565b610b248683610add565b95508019841693508086168417925050509392505050565b6000819050919050565b6000610b61610b5c610b57846105f8565b610b3c565b6105f8565b9050919050565b6000819050919050565b610b7b83610b46565b610b8f610b8782610b68565b848454610aea565b825550505050565b600090565b610ba4610b97565b610baf818484610b72565b505050565b5b81811015610bd357610bc8600082610b9c565b600181019050610bb5565b5050565b601f821115610c1857610be981610ab8565b610bf284610acd565b81016020851015610c01578190505b610c15610c0d85610acd565b830182610bb4565b50505b505050565b600082821c905092915050565b6000610c3b60001984600802610c1d565b1980831691505092915050565b6000610c548383610c2a565b9150826002028217905092915050565b610c6d8261073c565b67ffffffffffffffff811115610c8657610c8561083e565b5b610c908254610a1b565b610c9b828285610bd7565b600060209050601f831160018114610cce5760008415610cbc578287015190505b610cc68582610c48565b865550610d2e565b601f198416610cdc86610ab8565b60005b82811015610d0457848901518255600182019150602085019450602081019050610cdf565b86831015610d215784890151610d1d601f891682610c2a565b8355505b6001600288020188555050505b50505050505056fea26469706673582212207095aa6d968c1e7f01874f3141851c01b9c3d1f544fa5824109486aae9edc11464736f6c63430008120033",
					"opcodes": "PUSH1 0x80 PUSH1 0x40 MSTORE CALLVALUE DUP1 ISZERO PUSH2 0x10 JUMPI PUSH1 0x0 DUP1 REVERT JUMPDEST POP PUSH2 0xD6C DUP1 PUSH2 0x20 PUSH1 0x0 CODECOPY PUSH1 0x0 RETURN INVALID PUSH1 0x80 PUSH1 0x40 MSTORE CALLVALUE DUP1 ISZERO PUSH2 0x10 JUMPI PUSH1 0x0 DUP1 REVERT JUMPDEST POP PUSH1 0x4 CALLDATASIZE LT PUSH2 0x62 JUMPI PUSH1 0x0 CALLDATALOAD PUSH1 0xE0 SHR DUP1 PUSH4 0x1ED60D0A EQ PUSH2 0x67 JUMPI DUP1 PUSH4 0x200D2ED2 EQ PUSH2 0x83 JUMPI DUP1 PUSH4 0x82394694 EQ PUSH2 0xA1 JUMPI DUP1 PUSH4 0x8271C809 EQ PUSH2 0xBD JUMPI DUP1 PUSH4 0x8DA5CB5B EQ PUSH2 0xEF JUMPI DUP1 PUSH4 0xDA429B03 EQ PUSH2 0x10D JUMPI JUMPDEST PUSH1 0x0 DUP1 REVERT JUMPDEST PUSH2 0x81 PUSH1 0x4 DUP1 CALLDATASIZE SUB DUP2 ADD SWAP1 PUSH2 0x7C SWAP2 SWAP1 PUSH2 0x62E JUMP JUMPDEST PUSH2 0x129 JUMP JUMPDEST STOP JUMPDEST PUSH2 0x8B PUSH2 0x1B4 JUMP JUMPDEST PUSH1 0x40 MLOAD PUSH2 0x98 SWAP2 SWAP1 PUSH2 0x6E5 JUMP JUMPDEST PUSH1 0x40 MLOAD DUP1 SWAP2 SUB SWAP1 RETURN JUMPDEST PUSH2 0xBB PUSH1 0x4 DUP1 CALLDATASIZE SUB DUP2 ADD SWAP1 PUSH2 0xB6 SWAP2 SWAP1 PUSH2 0x700 JUMP JUMPDEST PUSH2 0x1C7 JUMP JUMPDEST STOP JUMPDEST PUSH2 0xD7 PUSH1 0x4 DUP1 CALLDATASIZE SUB DUP2 ADD SWAP1 PUSH2 0xD2 SWAP2 SWAP1 PUSH2 0x700 JUMP JUMPDEST PUSH2 0x2CE JUMP JUMPDEST PUSH1 0x40 MLOAD PUSH2 0xE6 SWAP4 SWAP3 SWAP2 SWAP1 PUSH2 0x7CC JUMP JUMPDEST PUSH1 0x40 MLOAD DUP1 SWAP2 SUB SWAP1 RETURN JUMPDEST PUSH2 0xF7 PUSH2 0x380 JUMP JUMPDEST PUSH1 0x40 MLOAD PUSH2 0x104 SWAP2 SWAP1 PUSH2 0x819 JUMP JUMPDEST PUSH1 0x40 MLOAD DUP1 SWAP2 SUB SWAP1 RETURN JUMPDEST PUSH2 0x127 PUSH1 0x4 DUP1 CALLDATASIZE SUB DUP2 ADD SWAP1 PUSH2 0x122 SWAP2 SWAP1 PUSH2 0x969 JUMP JUMPDEST PUSH2 0x3A4 JUMP JUMPDEST STOP JUMPDEST CALLER PUSH1 0x0 DUP1 PUSH2 0x100 EXP DUP2 SLOAD DUP2 PUSH20 0xFFFFFFFFFFFFFFFFFFFFFFFFFFFFFFFFFFFFFFFF MUL NOT AND SWAP1 DUP4 PUSH20 0xFFFFFFFFFFFFFFFFFFFFFFFFFFFFFFFFFFFFFFFF AND MUL OR SWAP1 SSTORE POP DUP1 PUSH1 0x1 PUSH1 0x0 DUP5 PUSH20 0xFFFFFFFFFFFFFFFFFFFFFFFFFFFFFFFFFFFFFFFF AND PUSH20 0xFFFFFFFFFFFFFFFFFFFFFFFFFFFFFFFFFFFFFFFF AND DUP2 MSTORE PUSH1 0x20 ADD SWAP1 DUP2 MSTORE PUSH1 0x20 ADD PUSH1 0x0 KECCAK256 PUSH1 0x0 ADD DUP2 SWAP1 SSTORE POP POP POP JUMP JUMPDEST PUSH1 0x0 PUSH1 0x14 SWAP1 SLOAD SWAP1 PUSH2 0x100 EXP SWAP1 DIV PUSH1 0xFF AND DUP2 JUMP JUMPDEST PUSH1 0x1 PUSH1 0x0 DUP3 PUSH20 0xFFFFFFFFFFFFFFFFFFFFFFFFFFFFFFFFFFFFFFFF AND PUSH20 0xFFFFFFFFFFFFFFFFFFFFFFFFFFFFFFFFFFFFFFFF AND DUP2 MSTORE PUSH1 0x20 ADD SWAP1 DUP2 MSTORE PUSH1 0x20 ADD PUSH1 0x0 KECCAK256 PUSH1 0x0 ADD PUSH1 0x0 SWAP1 SSTORE PUSH1 0x1 PUSH1 0x0 DUP3 PUSH20 0xFFFFFFFFFFFFFFFFFFFFFFFFFFFFFFFFFFFFFFFF AND PUSH20 0xFFFFFFFFFFFFFFFFFFFFFFFFFFFFFFFFFFFFFFFF AND DUP2 MSTORE PUSH1 0x20 ADD SWAP1 DUP2 MSTORE PUSH1 0x20 ADD PUSH1 0x0 KECCAK256 PUSH1 0x1 ADD PUSH1 0x0 PUSH2 0x25B SWAP2 SWAP1 PUSH2 0x529 JUMP JUMPDEST PUSH1 0x1 PUSH1 0x0 DUP3 PUSH20 0xFFFFFFFFFFFFFFFFFFFFFFFFFFFFFFFFFFFFFFFF AND PUSH20 0xFFFFFFFFFFFFFFFFFFFFFFFFFFFFFFFFFFFFFFFF AND DUP2 MSTORE PUSH1 0x20 ADD SWAP1 DUP2 MSTORE PUSH1 0x20 ADD PUSH1 0x0 KECCAK256 PUSH1 0x2 ADD PUSH1 0x0 SWAP1 SSTORE PUSH1 0x0 DUP1 PUSH1 0x14 PUSH2 0x100 EXP DUP2 SLOAD DUP2 PUSH1 0xFF MUL NOT AND SWAP1 DUP4 PUSH1 0x1 DUP2 GT ISZERO PUSH2 0x2C6 JUMPI PUSH2 0x2C5 PUSH2 0x66E JUMP JUMPDEST JUMPDEST MUL OR SWAP1 SSTORE POP POP JUMP JUMPDEST PUSH1 0x1 PUSH1 0x20 MSTORE DUP1 PUSH1 0x0 MSTORE PUSH1 0x40 PUSH1 0x0 KECCAK256 PUSH1 0x0 SWAP2 POP SWAP1 POP DUP1 PUSH1 0x0 ADD SLOAD SWAP1 DUP1 PUSH1 0x1 ADD DUP1 SLOAD PUSH2 0x2F7 SWAP1 PUSH2 0xA1B JUMP JUMPDEST DUP1 PUSH1 0x1F ADD PUSH1 0x20 DUP1 SWAP2 DIV MUL PUSH1 0x20 ADD PUSH1 0x40 MLOAD SWAP1 DUP2 ADD PUSH1 0x40 MSTORE DUP1 SWAP3 SWAP2 SWAP1 DUP2 DUP2 MSTORE PUSH1 0x20 ADD DUP3 DUP1 SLOAD PUSH2 0x323 SWAP1 PUSH2 0xA1B JUMP JUMPDEST DUP1 ISZERO PUSH2 0x370 JUMPI DUP1 PUSH1 0x1F LT PUSH2 0x345 JUMPI PUSH2 0x100 DUP1 DUP4 SLOAD DIV MUL DUP4 MSTORE SWAP2 PUSH1 0x20 ADD SWAP2 PUSH2 0x370 JUMP JUMPDEST DUP3 ADD SWAP2 SWAP1 PUSH1 0x0 MSTORE PUSH1 0x20 PUSH1 0x0 KECCAK256 SWAP1 JUMPDEST DUP2 SLOAD DUP2 MSTORE SWAP1 PUSH1 0x1 ADD SWAP1 PUSH1 0x20 ADD DUP1 DUP4 GT PUSH2 0x353 JUMPI DUP3 SWAP1 SUB PUSH1 0x1F AND DUP3 ADD SWAP2 JUMPDEST POP POP POP POP POP SWAP1 DUP1 PUSH1 0x2 ADD SLOAD SWAP1 POP DUP4 JUMP JUMPDEST PUSH1 0x0 DUP1 SLOAD SWAP1 PUSH2 0x100 EXP SWAP1 DIV PUSH20 0xFFFFFFFFFFFFFFFFFFFFFFFFFFFFFFFFFFFFFFFF AND DUP2 JUMP JUMPDEST PUSH1 0x0 PUSH1 0x1 DUP2 GT ISZERO PUSH2 0x3B8 JUMPI PUSH2 0x3B7 PUSH2 0x66E JUMP JUMPDEST JUMPDEST PUSH1 0x0 PUSH1 0x14 SWAP1 SLOAD SWAP1 PUSH2 0x100 EXP SWAP1 DIV PUSH1 0xFF AND PUSH1 0x1 DUP2 GT ISZERO PUSH2 0x3DA JUMPI PUSH2 0x3D9 PUSH2 0x66E JUMP JUMPDEST JUMPDEST EQ PUSH2 0x41A JUMPI PUSH1 0x40 MLOAD PUSH32 0x8C379A000000000000000000000000000000000000000000000000000000000 DUP2 MSTORE PUSH1 0x4 ADD PUSH2 0x411 SWAP1 PUSH2 0xA98 JUMP JUMPDEST PUSH1 0x40 MLOAD DUP1 SWAP2 SUB SWAP1 REVERT JUMPDEST DUP3 PUSH1 0x1 PUSH1 0x0 DUP7 PUSH20 0xFFFFFFFFFFFFFFFFFFFFFFFFFFFFFFFFFFFFFFFF AND PUSH20 0xFFFFFFFFFFFFFFFFFFFFFFFFFFFFFFFFFFFFFFFF AND DUP2 MSTORE PUSH1 0x20 ADD SWAP1 DUP2 MSTORE PUSH1 0x20 ADD PUSH1 0x0 KECCAK256 PUSH1 0x1 ADD SWAP1 DUP2 PUSH2 0x469 SWAP2 SWAP1 PUSH2 0xC64 JUMP JUMPDEST POP DUP2 PUSH1 0x1 PUSH1 0x0 DUP7 PUSH20 0xFFFFFFFFFFFFFFFFFFFFFFFFFFFFFFFFFFFFFFFF AND PUSH20 0xFFFFFFFFFFFFFFFFFFFFFFFFFFFFFFFFFFFFFFFF AND DUP2 MSTORE PUSH1 0x20 ADD SWAP1 DUP2 MSTORE PUSH1 0x20 ADD PUSH1 0x0 KECCAK256 PUSH1 0x0 ADD DUP2 SWAP1 SSTORE POP DUP1 PUSH1 0x1 PUSH1 0x0 DUP7 PUSH20 0xFFFFFFFFFFFFFFFFFFFFFFFFFFFFFFFFFFFFFFFF AND PUSH20 0xFFFFFFFFFFFFFFFFFFFFFFFFFFFFFFFFFFFFFFFF AND DUP2 MSTORE PUSH1 0x20 ADD SWAP1 DUP2 MSTORE PUSH1 0x20 ADD PUSH1 0x0 KECCAK256 PUSH1 0x2 ADD DUP2 SWAP1 SSTORE POP PUSH1 0x1 PUSH1 0x0 PUSH1 0x14 PUSH2 0x100 EXP DUP2 SLOAD DUP2 PUSH1 0xFF MUL NOT AND SWAP1 DUP4 PUSH1 0x1 DUP2 GT ISZERO PUSH2 0x51E JUMPI PUSH2 0x51D PUSH2 0x66E JUMP JUMPDEST JUMPDEST MUL OR SWAP1 SSTORE POP POP POP POP POP JUMP JUMPDEST POP DUP1 SLOAD PUSH2 0x535 SWAP1 PUSH2 0xA1B JUMP JUMPDEST PUSH1 0x0 DUP3 SSTORE DUP1 PUSH1 0x1F LT PUSH2 0x547 JUMPI POP PUSH2 0x566 JUMP JUMPDEST PUSH1 0x1F ADD PUSH1 0x20 SWAP1 DIV SWAP1 PUSH1 0x0 MSTORE PUSH1 0x20 PUSH1 0x0 KECCAK256 SWAP1 DUP2 ADD SWAP1 PUSH2 0x565 SWAP2 SWAP1 PUSH2 0x569 JUMP JUMPDEST JUMPDEST POP JUMP JUMPDEST JUMPDEST DUP1 DUP3 GT ISZERO PUSH2 0x582 JUMPI PUSH1 0x0 DUP2 PUSH1 0x0 SWAP1 SSTORE POP PUSH1 0x1 ADD PUSH2 0x56A JUMP JUMPDEST POP SWAP1 JUMP JUMPDEST PUSH1 0x0 PUSH1 0x40 MLOAD SWAP1 POP SWAP1 JUMP JUMPDEST PUSH1 0x0 DUP1 REVERT JUMPDEST PUSH1 0x0 DUP1 REVERT JUMPDEST PUSH1 0x0 PUSH20 0xFFFFFFFFFFFFFFFFFFFFFFFFFFFFFFFFFFFFFFFF DUP3 AND SWAP1 POP SWAP2 SWAP1 POP JUMP JUMPDEST PUSH1 0x0 PUSH2 0x5C5 DUP3 PUSH2 0x59A JUMP JUMPDEST SWAP1 POP SWAP2 SWAP1 POP JUMP JUMPDEST PUSH2 0x5D5 DUP2 PUSH2 0x5BA JUMP JUMPDEST DUP2 EQ PUSH2 0x5E0 JUMPI PUSH1 0x0 DUP1 REVERT JUMPDEST POP JUMP JUMPDEST PUSH1 0x0 DUP2 CALLDATALOAD SWAP1 POP PUSH2 0x5F2 DUP2 PUSH2 0x5CC JUMP JUMPDEST SWAP3 SWAP2 POP POP JUMP JUMPDEST PUSH1 0x0 DUP2 SWAP1 POP SWAP2 SWAP1 POP JUMP JUMPDEST PUSH2 0x60B DUP2 PUSH2 0x5F8 JUMP JUMPDEST DUP2 EQ PUSH2 0x616 JUMPI PUSH1 0x0 DUP1 REVERT JUMPDEST POP JUMP JUMPDEST PUSH1 0x0 DUP2 CALLDATALOAD SWAP1 POP PUSH2 0x628 DUP2 PUSH2 0x602 JUMP JUMPDEST SWAP3 SWAP2 POP POP JUMP JUMPDEST PUSH1 0x0 DUP1 PUSH1 0x40 DUP4 DUP6 SUB SLT ISZERO PUSH2 0x645 JUMPI PUSH2 0x644 PUSH2 0x590 JUMP JUMPDEST JUMPDEST PUSH1 0x0 PUSH2 0x653 DUP6 DUP3 DUP7 ADD PUSH2 0x5E3 JUMP JUMPDEST SWAP3 POP POP PUSH1 0x20 PUSH2 0x664 DUP6 DUP3 DUP7 ADD PUSH2 0x619 JUMP JUMPDEST SWAP2 POP POP SWAP3 POP SWAP3 SWAP1 POP JUMP JUMPDEST PUSH32 0x4E487B7100000000000000000000000000000000000000000000000000000000 PUSH1 0x0 MSTORE PUSH1 0x21 PUSH1 0x4 MSTORE PUSH1 0x24 PUSH1 0x0 REVERT JUMPDEST PUSH1 0x2 DUP2 LT PUSH2 0x6AE JUMPI PUSH2 0x6AD PUSH2 0x66E JUMP JUMPDEST JUMPDEST POP JUMP JUMPDEST PUSH1 0x0 DUP2 SWAP1 POP PUSH2 0x6BF DUP3 PUSH2 0x69D JUMP JUMPDEST SWAP2 SWAP1 POP JUMP JUMPDEST PUSH1 0x0 PUSH2 0x6CF DUP3 PUSH2 0x6B1 JUMP JUMPDEST SWAP1 POP SWAP2 SWAP1 POP JUMP JUMPDEST PUSH2 0x6DF DUP2 PUSH2 0x6C4 JUMP JUMPDEST DUP3 MSTORE POP POP JUMP JUMPDEST PUSH1 0x0 PUSH1 0x20 DUP3 ADD SWAP1 POP PUSH2 0x6FA PUSH1 0x0 DUP4 ADD DUP5 PUSH2 0x6D6 JUMP JUMPDEST SWAP3 SWAP2 POP POP JUMP JUMPDEST PUSH1 0x0 PUSH1 0x20 DUP3 DUP5 SUB SLT ISZERO PUSH2 0x716 JUMPI PUSH2 0x715 PUSH2 0x590 JUMP JUMPDEST JUMPDEST PUSH1 0x0 PUSH2 0x724 DUP5 DUP3 DUP6 ADD PUSH2 0x5E3 JUMP JUMPDEST SWAP2 POP POP SWAP3 SWAP2 POP POP JUMP JUMPDEST PUSH2 0x736 DUP2 PUSH2 0x5F8 JUMP JUMPDEST DUP3 MSTORE POP POP JUMP JUMPDEST PUSH1 0x0 DUP2 MLOAD SWAP1 POP SWAP2 SWAP1 POP JUMP JUMPDEST PUSH1 0x0 DUP3 DUP3 MSTORE PUSH1 0x20 DUP3 ADD SWAP1 POP SWAP3 SWAP2 POP POP JUMP JUMPDEST PUSH1 0x0 JUMPDEST DUP4 DUP2 LT ISZERO PUSH2 0x776 JUMPI DUP1 DUP3 ADD MLOAD DUP2 DUP5 ADD MSTORE PUSH1 0x20 DUP2 ADD SWAP1 POP PUSH2 0x75B JUMP JUMPDEST PUSH1 0x0 DUP5 DUP5 ADD MSTORE POP POP POP POP JUMP JUMPDEST PUSH1 0x0 PUSH1 0x1F NOT PUSH1 0x1F DUP4 ADD AND SWAP1 POP SWAP2 SWAP1 POP JUMP JUMPDEST PUSH1 0x0 PUSH2 0x79E DUP3 PUSH2 0x73C JUMP JUMPDEST PUSH2 0x7A8 DUP2 DUP6 PUSH2 0x747 JUMP JUMPDEST SWAP4 POP PUSH2 0x7B8 DUP2 DUP6 PUSH1 0x20 DUP7 ADD PUSH2 0x758 JUMP JUMPDEST PUSH2 0x7C1 DUP2 PUSH2 0x782 JUMP JUMPDEST DUP5 ADD SWAP2 POP POP SWAP3 SWAP2 POP POP JUMP JUMPDEST PUSH1 0x0 PUSH1 0x60 DUP3 ADD SWAP1 POP PUSH2 0x7E1 PUSH1 0x0 DUP4 ADD DUP7 PUSH2 0x72D JUMP JUMPDEST DUP2 DUP2 SUB PUSH1 0x20 DUP4 ADD MSTORE PUSH2 0x7F3 DUP2 DUP6 PUSH2 0x793 JUMP JUMPDEST SWAP1 POP PUSH2 0x802 PUSH1 0x40 DUP4 ADD DUP5 PUSH2 0x72D JUMP JUMPDEST SWAP5 SWAP4 POP POP POP POP JUMP JUMPDEST PUSH2 0x813 DUP2 PUSH2 0x5BA JUMP JUMPDEST DUP3 MSTORE POP POP JUMP JUMPDEST PUSH1 0x0 PUSH1 0x20 DUP3 ADD SWAP1 POP PUSH2 0x82E PUSH1 0x0 DUP4 ADD DUP5 PUSH2 0x80A JUMP JUMPDEST SWAP3 SWAP2 POP POP JUMP JUMPDEST PUSH1 0x0 DUP1 REVERT JUMPDEST PUSH1 0x0 DUP1 REVERT JUMPDEST PUSH32 0x4E487B7100000000000000000000000000000000000000000000000000000000 PUSH1 0x0 MSTORE PUSH1 0x41 PUSH1 0x4 MSTORE PUSH1 0x24 PUSH1 0x0 REVERT JUMPDEST PUSH2 0x876 DUP3 PUSH2 0x782 JUMP JUMPDEST DUP2 ADD DUP2 DUP2 LT PUSH8 0xFFFFFFFFFFFFFFFF DUP3 GT OR ISZERO PUSH2 0x895 JUMPI PUSH2 0x894 PUSH2 0x83E JUMP JUMPDEST JUMPDEST DUP1 PUSH1 0x40 MSTORE POP POP POP JUMP JUMPDEST PUSH1 0x0 PUSH2 0x8A8 PUSH2 0x586 JUMP JUMPDEST SWAP1 POP PUSH2 0x8B4 DUP3 DUP3 PUSH2 0x86D JUMP JUMPDEST SWAP2 SWAP1 POP JUMP JUMPDEST PUSH1 0x0 PUSH8 0xFFFFFFFFFFFFFFFF DUP3 GT ISZERO PUSH2 0x8D4 JUMPI PUSH2 0x8D3 PUSH2 0x83E JUMP JUMPDEST JUMPDEST PUSH2 0x8DD DUP3 PUSH2 0x782 JUMP JUMPDEST SWAP1 POP PUSH1 0x20 DUP2 ADD SWAP1 POP SWAP2 SWAP1 POP JUMP JUMPDEST DUP3 DUP2 DUP4 CALLDATACOPY PUSH1 0x0 DUP4 DUP4 ADD MSTORE POP POP POP JUMP JUMPDEST PUSH1 0x0 PUSH2 0x90C PUSH2 0x907 DUP5 PUSH2 0x8B9 JUMP JUMPDEST PUSH2 0x89E JUMP JUMPDEST SWAP1 POP DUP3 DUP2 MSTORE PUSH1 0x20 DUP2 ADD DUP5 DUP5 DUP5 ADD GT ISZERO PUSH2 0x928 JUMPI PUSH2 0x927 PUSH2 0x839 JUMP JUMPDEST JUMPDEST PUSH2 0x933 DUP5 DUP3 DUP6 PUSH2 0x8EA JUMP JUMPDEST POP SWAP4 SWAP3 POP POP POP JUMP JUMPDEST PUSH1 0x0 DUP3 PUSH1 0x1F DUP4 ADD SLT PUSH2 0x950 JUMPI PUSH2 0x94F PUSH2 0x834 JUMP JUMPDEST JUMPDEST DUP2 CALLDATALOAD PUSH2 0x960 DUP5 DUP3 PUSH1 0x20 DUP7 ADD PUSH2 0x8F9 JUMP JUMPDEST SWAP2 POP POP SWAP3 SWAP2 POP POP JUMP JUMPDEST PUSH1 0x0 DUP1 PUSH1 0x0 DUP1 PUSH1 0x80 DUP6 DUP8 SUB SLT ISZERO PUSH2 0x983 JUMPI PUSH2 0x982 PUSH2 0x590 JUMP JUMPDEST JUMPDEST PUSH1 0x0 PUSH2 0x991 DUP8 DUP3 DUP9 ADD PUSH2 0x5E3 JUMP JUMPDEST SWAP5 POP POP PUSH1 0x20 DUP6 ADD CALLDATALOAD PUSH8 0xFFFFFFFFFFFFFFFF DUP2 GT ISZERO PUSH2 0x9B2 JUMPI PUSH2 0x9B1 PUSH2 0x595 JUMP JUMPDEST JUMPDEST PUSH2 0x9BE DUP8 DUP3 DUP9 ADD PUSH2 0x93B JUMP JUMPDEST SWAP4 POP POP PUSH1 0x40 PUSH2 0x9CF DUP8 DUP3 DUP9 ADD PUSH2 0x619 JUMP JUMPDEST SWAP3 POP POP PUSH1 0x60 PUSH2 0x9E0 DUP8 DUP3 DUP9 ADD PUSH2 0x619 JUMP JUMPDEST SWAP2 POP POP SWAP3 SWAP6 SWAP2 SWAP5 POP SWAP3 POP JUMP JUMPDEST PUSH32 0x4E487B7100000000000000000000000000000000000000000000000000000000 PUSH1 0x0 MSTORE PUSH1 0x22 PUSH1 0x4 MSTORE PUSH1 0x24 PUSH1 0x0 REVERT JUMPDEST PUSH1 0x0 PUSH1 0x2 DUP3 DIV SWAP1 POP PUSH1 0x1 DUP3 AND DUP1 PUSH2 0xA33 JUMPI PUSH1 0x7F DUP3 AND SWAP2 POP JUMPDEST PUSH1 0x20 DUP3 LT DUP2 SUB PUSH2 0xA46 JUMPI PUSH2 0xA45 PUSH2 0x9EC JUMP JUMPDEST JUMPDEST POP SWAP2 SWAP1 POP JUMP JUMPDEST PUSH32 0x536F727279212054686520726F6F6D20697320426F6F6B656400000000000000 PUSH1 0x0 DUP3 ADD MSTORE POP JUMP JUMPDEST PUSH1 0x0 PUSH2 0xA82 PUSH1 0x19 DUP4 PUSH2 0x747 JUMP JUMPDEST SWAP2 POP PUSH2 0xA8D DUP3 PUSH2 0xA4C JUMP JUMPDEST PUSH1 0x20 DUP3 ADD SWAP1 POP SWAP2 SWAP1 POP JUMP JUMPDEST PUSH1 0x0 PUSH1 0x20 DUP3 ADD SWAP1 POP DUP2 DUP2 SUB PUSH1 0x0 DUP4 ADD MSTORE PUSH2 0xAB1 DUP2 PUSH2 0xA75 JUMP JUMPDEST SWAP1 POP SWAP2 SWAP1 POP JUMP JUMPDEST PUSH1 0x0 DUP2 SWAP1 POP DUP2 PUSH1 0x0 MSTORE PUSH1 0x20 PUSH1 0x0 KECCAK256 SWAP1 POP SWAP2 SWAP1 POP JUMP JUMPDEST PUSH1 0x0 PUSH1 0x20 PUSH1 0x1F DUP4 ADD DIV SWAP1 POP SWAP2 SWAP1 POP JUMP JUMPDEST PUSH1 0x0 DUP3 DUP3 SHL SWAP1 POP SWAP3 SWAP2 POP POP JUMP JUMPDEST PUSH1 0x0 PUSH1 0x8 DUP4 MUL PUSH2 0xB1A PUSH32 0xFFFFFFFFFFFFFFFFFFFFFFFFFFFFFFFFFFFFFFFFFFFFFFFFFFFFFFFFFFFFFFFF DUP3 PUSH2 0xADD JUMP JUMPDEST PUSH2 0xB24 DUP7 DUP4 PUSH2 0xADD JUMP JUMPDEST SWAP6 POP DUP1 NOT DUP5 AND SWAP4 POP DUP1 DUP7 AND DUP5 OR SWAP3 POP POP POP SWAP4 SWAP3 POP POP POP JUMP JUMPDEST PUSH1 0x0 DUP2 SWAP1 POP SWAP2 SWAP1 POP JUMP JUMPDEST PUSH1 0x0 PUSH2 0xB61 PUSH2 0xB5C PUSH2 0xB57 DUP5 PUSH2 0x5F8 JUMP JUMPDEST PUSH2 0xB3C JUMP JUMPDEST PUSH2 0x5F8 JUMP JUMPDEST SWAP1 POP SWAP2 SWAP1 POP JUMP JUMPDEST PUSH1 0x0 DUP2 SWAP1 POP SWAP2 SWAP1 POP JUMP JUMPDEST PUSH2 0xB7B DUP4 PUSH2 0xB46 JUMP JUMPDEST PUSH2 0xB8F PUSH2 0xB87 DUP3 PUSH2 0xB68 JUMP JUMPDEST DUP5 DUP5 SLOAD PUSH2 0xAEA JUMP JUMPDEST DUP3 SSTORE POP POP POP POP JUMP JUMPDEST PUSH1 0x0 SWAP1 JUMP JUMPDEST PUSH2 0xBA4 PUSH2 0xB97 JUMP JUMPDEST PUSH2 0xBAF DUP2 DUP5 DUP5 PUSH2 0xB72 JUMP JUMPDEST POP POP POP JUMP JUMPDEST JUMPDEST DUP2 DUP2 LT ISZERO PUSH2 0xBD3 JUMPI PUSH2 0xBC8 PUSH1 0x0 DUP3 PUSH2 0xB9C JUMP JUMPDEST PUSH1 0x1 DUP2 ADD SWAP1 POP PUSH2 0xBB5 JUMP JUMPDEST POP POP JUMP JUMPDEST PUSH1 0x1F DUP3 GT ISZERO PUSH2 0xC18 JUMPI PUSH2 0xBE9 DUP2 PUSH2 0xAB8 JUMP JUMPDEST PUSH2 0xBF2 DUP5 PUSH2 0xACD JUMP JUMPDEST DUP2 ADD PUSH1 0x20 DUP6 LT ISZERO PUSH2 0xC01 JUMPI DUP2 SWAP1 POP JUMPDEST PUSH2 0xC15 PUSH2 0xC0D DUP6 PUSH2 0xACD JUMP JUMPDEST DUP4 ADD DUP3 PUSH2 0xBB4 JUMP JUMPDEST POP POP JUMPDEST POP POP POP JUMP JUMPDEST PUSH1 0x0 DUP3 DUP3 SHR SWAP1 POP SWAP3 SWAP2 POP POP JUMP JUMPDEST PUSH1 0x0 PUSH2 0xC3B PUSH1 0x0 NOT DUP5 PUSH1 0x8 MUL PUSH2 0xC1D JUMP JUMPDEST NOT DUP1 DUP4 AND SWAP2 POP POP SWAP3 SWAP2 POP POP JUMP JUMPDEST PUSH1 0x0 PUSH2 0xC54 DUP4 DUP4 PUSH2 0xC2A JUMP JUMPDEST SWAP2 POP DUP3 PUSH1 0x2 MUL DUP3 OR SWAP1 POP SWAP3 SWAP2 POP POP JUMP JUMPDEST PUSH2 0xC6D DUP3 PUSH2 0x73C JUMP JUMPDEST PUSH8 0xFFFFFFFFFFFFFFFF DUP2 GT ISZERO PUSH2 0xC86 JUMPI PUSH2 0xC85 PUSH2 0x83E JUMP JUMPDEST JUMPDEST PUSH2 0xC90 DUP3 SLOAD PUSH2 0xA1B JUMP JUMPDEST PUSH2 0xC9B DUP3 DUP3 DUP6 PUSH2 0xBD7 JUMP JUMPDEST PUSH1 0x0 PUSH1 0x20 SWAP1 POP PUSH1 0x1F DUP4 GT PUSH1 0x1 DUP2 EQ PUSH2 0xCCE JUMPI PUSH1 0x0 DUP5 ISZERO PUSH2 0xCBC JUMPI DUP3 DUP8 ADD MLOAD SWAP1 POP JUMPDEST PUSH2 0xCC6 DUP6 DUP3 PUSH2 0xC48 JUMP JUMPDEST DUP7 SSTORE POP PUSH2 0xD2E JUMP JUMPDEST PUSH1 0x1F NOT DUP5 AND PUSH2 0xCDC DUP7 PUSH2 0xAB8 JUMP JUMPDEST PUSH1 0x0 JUMPDEST DUP3 DUP2 LT ISZERO PUSH2 0xD04 JUMPI DUP5 DUP10 ADD MLOAD DUP3 SSTORE PUSH1 0x1 DUP3 ADD SWAP2 POP PUSH1 0x20 DUP6 ADD SWAP5 POP PUSH1 0x20 DUP2 ADD SWAP1 POP PUSH2 0xCDF JUMP JUMPDEST DUP7 DUP4 LT ISZERO PUSH2 0xD21 JUMPI DUP5 DUP10 ADD MLOAD PUSH2 0xD1D PUSH1 0x1F DUP10 AND DUP3 PUSH2 0xC2A JUMP JUMPDEST DUP4 SSTORE POP JUMPDEST PUSH1 0x1 PUSH1 0x2 DUP9 MUL ADD DUP9 SSTORE POP POP POP JUMPDEST POP POP POP POP POP POP JUMP INVALID LOG2 PUSH5 0x6970667358 0x22 SLT KECCAK256 PUSH17 0x95AA6D968C1E7F01874F3141851C01B9C3 0xD1 CREATE2 PREVRANDAO STATICCALL PC 0x24 LT SWAP5 DUP7 0xAA 0xE9 0xED 0xC1 EQ PUSH5 0x736F6C6343 STOP ADDMOD SLT STOP CALLER "
				},
				"gasEstimates": {
					"creation": {
						"codeDepositCost": "687200",
						"executionCost": "721",
						"totalCost": "687921"
					},
					"external": {
						"Roombooking(address)": "infinite",
						"addRoom(address,uint256)": "47082",
						"bookRoom(address,string,uint256,uint256)": "infinite",
						"cancelBooking(address)": "infinite",
						"owner()": "2577",
						"status()": "2610"
					}
				},
				"methodIdentifiers": {
					"Roombooking(address)": "8271c809",
					"addRoom(address,uint256)": "1ed60d0a",
					"bookRoom(address,string,uint256,uint256)": "da429b03",
					"cancelBooking(address)": "82394694",
					"owner()": "8da5cb5b",
					"status()": "200d2ed2"
				}
			},
			"storageLayout": {
				"storage": [
					{
						"astId": 3,
						"contract": "contracts/room.sol:RoomBooking",
						"label": "owner",
						"offset": 0,
						"slot": "0",
						"type": "t_address"
					},
					{
						"astId": 9,
						"contract": "contracts/room.sol:RoomBooking",
						"label": "status",
						"offset": 20,
						"slot": "0",
						"type": "t_enum(Status)6"
					},
					{
						"astId": 21,
						"contract": "contracts/room.sol:RoomBooking",
						"label": "Roombooking",
						"offset": 0,
						"slot": "1",
						"type": "t_mapping(t_address,t_struct(Room)16_storage)"
					}
				],
				"types": {
					"t_address": {
						"encoding": "inplace",
						"label": "address",
						"numberOfBytes": "20"
					},
					"t_enum(Status)6": {
						"encoding": "inplace",
						"label": "enum RoomBooking.Status",
						"numberOfBytes": "1"
					},
					"t_mapping(t_address,t_struct(Room)16_storage)": {
						"encoding": "mapping",
						"key": "t_address",
						"label": "mapping(address => struct RoomBooking.Room)",
						"numberOfBytes": "32",
						"value": "t_struct(Room)16_storage"
					},
					"t_string_storage": {
						"encoding": "bytes",
						"label": "string",
						"numberOfBytes": "32"
					},
					"t_struct(Room)16_storage": {
						"encoding": "inplace",
						"label": "struct RoomBooking.Room",
						"members": [
							{
								"astId": 11,
								"contract": "contracts/room.sol:RoomBooking",
								"label": "roomno",
								"offset": 0,
								"slot": "0",
								"type": "t_uint256"
							},
							{
								"astId": 13,
								"contract": "contracts/room.sol:RoomBooking",
								"label": "name",
								"offset": 0,
								"slot": "1",
								"type": "t_string_storage"
							},
							{
								"astId": 15,
								"contract": "contracts/room.sol:RoomBooking",
								"label": "date",
								"offset": 0,
								"slot": "2",
								"type": "t_uint256"
							}
						],
						"numberOfBytes": "96"
					},
					"t_uint256": {
						"encoding": "inplace",
						"label": "uint256",
						"numberOfBytes": "32"
					}
				}
			},
			"userdoc": {
				"kind": "user",
				"methods": {},
				"version": 1
			}
		}
	}
}