{
	"contracts/todolist.sol": {
		"Todo": {
			"abi": [
				{
					"inputs": [
						{
							"internalType": "string",
							"name": "_text",
							"type": "string"
						}
					],
					"name": "create",
					"outputs": [],
					"stateMutability": "nonpayable",
					"type": "function"
				},
				{
					"inputs": [
						{
							"internalType": "uint256",
							"name": "_index",
							"type": "uint256"
						}
					],
					"name": "getData",
					"outputs": [
						{
							"internalType": "string",
							"name": "",
							"type": "string"
						},
						{
							"internalType": "bool",
							"name": "",
							"type": "bool"
						}
					],
					"stateMutability": "view",
					"type": "function"
				},
				{
					"inputs": [
						{
							"internalType": "uint256",
							"name": "",
							"type": "uint256"
						}
					],
					"name": "todo",
					"outputs": [
						{
							"internalType": "string",
							"name": "text",
							"type": "string"
						},
						{
							"internalType": "bool",
							"name": "status",
							"type": "bool"
						}
					],
					"stateMutability": "view",
					"type": "function"
				},
				{
					"inputs": [
						{
							"internalType": "string",
							"name": "_text",
							"type": "string"
						},
						{
							"internalType": "uint256",
							"name": "_index",
							"type": "uint256"
						}
					],
					"name": "updateTodo",
					"outputs": [],
					"stateMutability": "nonpayable",
					"type": "function"
				}
			],
			"devdoc": {
				"kind": "dev",
				"methods": {},
				"version": 1
			},
			"evm": {
				"assembly": "    /* \"contracts/todolist.sol\":57:591  contract Todo{... */\n  mstore(0x40, 0x80)\n  callvalue\n  dup1\n  iszero\n  tag_1\n  jumpi\n  0x00\n  dup1\n  revert\ntag_1:\n  pop\n  dataSize(sub_0)\n  dup1\n  dataOffset(sub_0)\n  0x00\n  codecopy\n  0x00\n  return\nstop\n\nsub_0: assembly {\n        /* \"contracts/todolist.sol\":57:591  contract Todo{... */\n      mstore(0x40, 0x80)\n      callvalue\n      dup1\n      iszero\n      tag_1\n      jumpi\n      0x00\n      dup1\n      revert\n    tag_1:\n      pop\n      jumpi(tag_2, lt(calldatasize, 0x04))\n      shr(0xe0, calldataload(0x00))\n      dup1\n      0x0178fe3f\n      eq\n      tag_3\n      jumpi\n      dup1\n      0x1a784ed4\n      eq\n      tag_4\n      jumpi\n      dup1\n      0x89b5aadd\n      eq\n      tag_5\n      jumpi\n      dup1\n      0xb6a46b3b\n      eq\n      tag_6\n      jumpi\n    tag_2:\n      0x00\n      dup1\n      revert\n        /* \"contracts/todolist.sol\":421:588  function getData(uint _index) public  view returns(string memory,bool){... */\n    tag_3:\n      tag_7\n      0x04\n      dup1\n      calldatasize\n      sub\n      dup2\n      add\n      swap1\n      tag_8\n      swap2\n      swap1\n      tag_9\n      jump\t// in\n    tag_8:\n      tag_10\n      jump\t// in\n    tag_7:\n      mload(0x40)\n      tag_11\n      swap3\n      swap2\n      swap1\n      tag_12\n      jump\t// in\n    tag_11:\n      mload(0x40)\n      dup1\n      swap2\n      sub\n      swap1\n      return\n        /* \"contracts/todolist.sol\":304:413  function updateTodo(string calldata _text,uint _index) public{... */\n    tag_4:\n      tag_13\n      0x04\n      dup1\n      calldatasize\n      sub\n      dup2\n      add\n      swap1\n      tag_14\n      swap2\n      swap1\n      tag_15\n      jump\t// in\n    tag_14:\n      tag_16\n      jump\t// in\n    tag_13:\n      stop\n        /* \"contracts/todolist.sol\":156:174  ToDo[] public todo */\n    tag_5:\n      tag_17\n      0x04\n      dup1\n      calldatasize\n      sub\n      dup2\n      add\n      swap1\n      tag_18\n      swap2\n      swap1\n      tag_9\n      jump\t// in\n    tag_18:\n      tag_19\n      jump\t// in\n    tag_17:\n      mload(0x40)\n      tag_20\n      swap3\n      swap2\n      swap1\n      tag_12\n      jump\t// in\n    tag_20:\n      mload(0x40)\n      dup1\n      swap2\n      sub\n      swap1\n      return\n        /* \"contracts/todolist.sol\":183:296  function create(string calldata _text) public {... */\n    tag_6:\n      tag_21\n      0x04\n      dup1\n      calldatasize\n      sub\n      dup2\n      add\n      swap1\n      tag_22\n      swap2\n      swap1\n      tag_23\n      jump\t// in\n    tag_22:\n      tag_24\n      jump\t// in\n    tag_21:\n      stop\n        /* \"contracts/todolist.sol\":421:588  function getData(uint _index) public  view returns(string memory,bool){... */\n    tag_10:\n        /* \"contracts/todolist.sol\":472:485  string memory */\n      0x60\n        /* \"contracts/todolist.sol\":486:490  bool */\n      0x00\n        /* \"contracts/todolist.sol\":503:520  ToDo memory todos */\n      dup1\n        /* \"contracts/todolist.sol\":523:527  todo */\n      0x00\n        /* \"contracts/todolist.sol\":528:534  _index */\n      dup5\n        /* \"contracts/todolist.sol\":523:535  todo[_index] */\n      dup2\n      sload\n      dup2\n      lt\n      tag_26\n      jumpi\n      tag_27\n      tag_28\n      jump\t// in\n    tag_27:\n    tag_26:\n      swap1\n      0x00\n      mstore\n      keccak256(0x00, 0x20)\n      swap1\n      0x02\n      mul\n      add\n        /* \"contracts/todolist.sol\":503:535  ToDo memory todos = todo[_index] */\n      mload(0x40)\n      dup1\n      0x40\n      add\n      0x40\n      mstore\n      swap1\n      dup2\n      0x00\n      dup3\n      add\n      dup1\n      sload\n      tag_30\n      swap1\n      tag_31\n      jump\t// in\n    tag_30:\n      dup1\n      0x1f\n      add\n      0x20\n      dup1\n      swap2\n      div\n      mul\n      0x20\n      add\n      mload(0x40)\n      swap1\n      dup2\n      add\n      0x40\n      mstore\n      dup1\n      swap3\n      swap2\n      swap1\n      dup2\n      dup2\n      mstore\n      0x20\n      add\n      dup3\n      dup1\n      sload\n      tag_32\n      swap1\n      tag_31\n      jump\t// in\n    tag_32:\n      dup1\n      iszero\n      tag_33\n      jumpi\n      dup1\n      0x1f\n      lt\n      tag_34\n      jumpi\n      0x0100\n      dup1\n      dup4\n      sload\n      div\n      mul\n      dup4\n      mstore\n      swap2\n      0x20\n      add\n      swap2\n      jump(tag_33)\n    tag_34:\n      dup3\n      add\n      swap2\n      swap1\n      0x00\n      mstore\n      keccak256(0x00, 0x20)\n      swap1\n    tag_35:\n      dup2\n      sload\n      dup2\n      mstore\n      swap1\n      0x01\n      add\n      swap1\n      0x20\n      add\n      dup1\n      dup4\n      gt\n      tag_35\n      jumpi\n      dup3\n      swap1\n      sub\n      0x1f\n      and\n      dup3\n      add\n      swap2\n    tag_33:\n      pop\n      pop\n      pop\n      pop\n      pop\n      dup2\n      mstore\n      0x20\n      add\n      0x01\n      dup3\n      add\n      0x00\n      swap1\n      sload\n      swap1\n      0x0100\n      exp\n      swap1\n      div\n      0xff\n      and\n      iszero\n      iszero\n      iszero\n      iszero\n      dup2\n      mstore\n      pop\n      pop\n      swap1\n      pop\n        /* \"contracts/todolist.sol\":554:559  todos */\n      dup1\n        /* \"contracts/todolist.sol\":554:564  todos.text */\n      0x00\n      add\n      mload\n        /* \"contracts/todolist.sol\":565:570  todos */\n      dup2\n        /* \"contracts/todolist.sol\":565:577  todos.status */\n      0x20\n      add\n      mload\n        /* \"contracts/todolist.sol\":547:578  return(todos.text,todos.status) */\n      swap3\n      pop\n      swap3\n      pop\n      pop\n        /* \"contracts/todolist.sol\":421:588  function getData(uint _index) public  view returns(string memory,bool){... */\n      swap2\n      pop\n      swap2\n      jump\t// out\n        /* \"contracts/todolist.sol\":304:413  function updateTodo(string calldata _text,uint _index) public{... */\n    tag_16:\n        /* \"contracts/todolist.sol\":398:403  _text */\n      dup3\n      dup3\n        /* \"contracts/todolist.sol\":378:382  todo */\n      0x00\n        /* \"contracts/todolist.sol\":383:389  _index */\n      dup4\n        /* \"contracts/todolist.sol\":378:390  todo[_index] */\n      dup2\n      sload\n      dup2\n      lt\n      tag_37\n      jumpi\n      tag_38\n      tag_28\n      jump\t// in\n    tag_38:\n    tag_37:\n      swap1\n      0x00\n      mstore\n      keccak256(0x00, 0x20)\n      swap1\n      0x02\n      mul\n      add\n        /* \"contracts/todolist.sol\":378:395  todo[_index].text */\n      0x00\n      add\n        /* \"contracts/todolist.sol\":378:403  todo[_index].text = _text */\n      swap2\n      dup3\n      tag_40\n      swap3\n      swap2\n      swap1\n      tag_41\n      jump\t// in\n    tag_40:\n      pop\n        /* \"contracts/todolist.sol\":304:413  function updateTodo(string calldata _text,uint _index) public{... */\n      pop\n      pop\n      pop\n      jump\t// out\n        /* \"contracts/todolist.sol\":156:174  ToDo[] public todo */\n    tag_19:\n      0x00\n      dup2\n      dup2\n      sload\n      dup2\n      lt\n      tag_42\n      jumpi\n      0x00\n      dup1\n      revert\n    tag_42:\n      swap1\n      0x00\n      mstore\n      keccak256(0x00, 0x20)\n      swap1\n      0x02\n      mul\n      add\n      0x00\n      swap2\n      pop\n      swap1\n      pop\n      dup1\n      0x00\n      add\n      dup1\n      sload\n      tag_44\n      swap1\n      tag_31\n      jump\t// in\n    tag_44:\n      dup1\n      0x1f\n      add\n      0x20\n      dup1\n      swap2\n      div\n      mul\n      0x20\n      add\n      mload(0x40)\n      swap1\n      dup2\n      add\n      0x40\n      mstore\n      dup1\n      swap3\n      swap2\n      swap1\n      dup2\n      dup2\n      mstore\n      0x20\n      add\n      dup3\n      dup1\n      sload\n      tag_45\n      swap1\n      tag_31\n      jump\t// in\n    tag_45:\n      dup1\n      iszero\n      tag_46\n      jumpi\n      dup1\n      0x1f\n      lt\n      tag_47\n      jumpi\n      0x0100\n      dup1\n      dup4\n      sload\n      div\n      mul\n      dup4\n      mstore\n      swap2\n      0x20\n      add\n      swap2\n      jump(tag_46)\n    tag_47:\n      dup3\n      add\n      swap2\n      swap1\n      0x00\n      mstore\n      keccak256(0x00, 0x20)\n      swap1\n    tag_48:\n      dup2\n      sload\n      dup2\n      mstore\n      swap1\n      0x01\n      add\n      swap1\n      0x20\n      add\n      dup1\n      dup4\n      gt\n      tag_48\n      jumpi\n      dup3\n      swap1\n      sub\n      0x1f\n      and\n      dup3\n      add\n      swap2\n    tag_46:\n      pop\n      pop\n      pop\n      pop\n      pop\n      swap1\n      dup1\n      0x01\n      add\n      0x00\n      swap1\n      sload\n      swap1\n      0x0100\n      exp\n      swap1\n      div\n      0xff\n      and\n      swap1\n      pop\n      dup3\n      jump\t// out\n        /* \"contracts/todolist.sol\":183:296  function create(string calldata _text) public {... */\n    tag_24:\n        /* \"contracts/todolist.sol\":241:245  todo */\n      0x00\n        /* \"contracts/todolist.sol\":251:285  ToDo({text : _text,status : true}) */\n      mload(0x40)\n      dup1\n      0x40\n      add\n      0x40\n      mstore\n      dup1\n        /* \"contracts/todolist.sol\":264:269  _text */\n      dup5\n      dup5\n        /* \"contracts/todolist.sol\":251:285  ToDo({text : _text,status : true}) */\n      dup1\n      dup1\n      0x1f\n      add\n      0x20\n      dup1\n      swap2\n      div\n      mul\n      0x20\n      add\n      mload(0x40)\n      swap1\n      dup2\n      add\n      0x40\n      mstore\n      dup1\n      swap4\n      swap3\n      swap2\n      swap1\n      dup2\n      dup2\n      mstore\n      0x20\n      add\n      dup4\n      dup4\n      dup1\n      dup3\n      dup5\n      calldatacopy\n      0x00\n      dup2\n      dup5\n      add\n      mstore\n      not(0x1f)\n      0x1f\n      dup3\n      add\n      and\n      swap1\n      pop\n      dup1\n      dup4\n      add\n      swap3\n      pop\n      pop\n      pop\n      pop\n      pop\n      pop\n      pop\n      dup2\n      mstore\n      0x20\n      add\n        /* \"contracts/todolist.sol\":279:283  true */\n      0x01\n        /* \"contracts/todolist.sol\":251:285  ToDo({text : _text,status : true}) */\n      iszero\n      iszero\n      dup2\n      mstore\n      pop\n        /* \"contracts/todolist.sol\":241:286  todo.push(ToDo({text : _text,status : true})) */\n      swap1\n      dup1\n      0x01\n      dup2\n      sload\n      add\n      dup1\n      dup3\n      sstore\n      dup1\n      swap2\n      pop\n      pop\n      0x01\n      swap1\n      sub\n      swap1\n      0x00\n      mstore\n      keccak256(0x00, 0x20)\n      swap1\n      0x02\n      mul\n      add\n      0x00\n      swap1\n      swap2\n      swap1\n      swap2\n      swap1\n      swap2\n      pop\n      0x00\n      dup3\n      add\n      mload\n      dup2\n      0x00\n      add\n      swap1\n      dup2\n      tag_51\n      swap2\n      swap1\n      tag_52\n      jump\t// in\n    tag_51:\n      pop\n      0x20\n      dup3\n      add\n      mload\n      dup2\n      0x01\n      add\n      exp(0x0100, 0x00)\n      dup2\n      sload\n      dup2\n      0xff\n      mul\n      not\n      and\n      swap1\n      dup4\n      iszero\n      iszero\n      mul\n      or\n      swap1\n      sstore\n      pop\n      pop\n      pop\n        /* \"contracts/todolist.sol\":183:296  function create(string calldata _text) public {... */\n      pop\n      pop\n      jump\t// out\n        /* \"#utility.yul\":88:205   */\n    tag_54:\n        /* \"#utility.yul\":197:198   */\n      0x00\n        /* \"#utility.yul\":194:195   */\n      dup1\n        /* \"#utility.yul\":187:199   */\n      revert\n        /* \"#utility.yul\":211:328   */\n    tag_55:\n        /* \"#utility.yul\":320:321   */\n      0x00\n        /* \"#utility.yul\":317:318   */\n      dup1\n        /* \"#utility.yul\":310:322   */\n      revert\n        /* \"#utility.yul\":334:411   */\n    tag_56:\n        /* \"#utility.yul\":371:378   */\n      0x00\n        /* \"#utility.yul\":400:405   */\n      dup2\n        /* \"#utility.yul\":389:405   */\n      swap1\n      pop\n        /* \"#utility.yul\":334:411   */\n      swap2\n      swap1\n      pop\n      jump\t// out\n        /* \"#utility.yul\":417:539   */\n    tag_57:\n        /* \"#utility.yul\":490:514   */\n      tag_94\n        /* \"#utility.yul\":508:513   */\n      dup2\n        /* \"#utility.yul\":490:514   */\n      tag_56\n      jump\t// in\n    tag_94:\n        /* \"#utility.yul\":483:488   */\n      dup2\n        /* \"#utility.yul\":480:515   */\n      eq\n        /* \"#utility.yul\":470:533   */\n      tag_95\n      jumpi\n        /* \"#utility.yul\":529:530   */\n      0x00\n        /* \"#utility.yul\":526:527   */\n      dup1\n        /* \"#utility.yul\":519:531   */\n      revert\n        /* \"#utility.yul\":470:533   */\n    tag_95:\n        /* \"#utility.yul\":417:539   */\n      pop\n      jump\t// out\n        /* \"#utility.yul\":545:684   */\n    tag_58:\n        /* \"#utility.yul\":591:596   */\n      0x00\n        /* \"#utility.yul\":629:635   */\n      dup2\n        /* \"#utility.yul\":616:636   */\n      calldataload\n        /* \"#utility.yul\":607:636   */\n      swap1\n      pop\n        /* \"#utility.yul\":645:678   */\n      tag_97\n        /* \"#utility.yul\":672:677   */\n      dup2\n        /* \"#utility.yul\":645:678   */\n      tag_57\n      jump\t// in\n    tag_97:\n        /* \"#utility.yul\":545:684   */\n      swap3\n      swap2\n      pop\n      pop\n      jump\t// out\n        /* \"#utility.yul\":690:1019   */\n    tag_9:\n        /* \"#utility.yul\":749:755   */\n      0x00\n        /* \"#utility.yul\":798:800   */\n      0x20\n        /* \"#utility.yul\":786:795   */\n      dup3\n        /* \"#utility.yul\":777:784   */\n      dup5\n        /* \"#utility.yul\":773:796   */\n      sub\n        /* \"#utility.yul\":769:801   */\n      slt\n        /* \"#utility.yul\":766:885   */\n      iszero\n      tag_99\n      jumpi\n        /* \"#utility.yul\":804:883   */\n      tag_100\n      tag_54\n      jump\t// in\n    tag_100:\n        /* \"#utility.yul\":766:885   */\n    tag_99:\n        /* \"#utility.yul\":924:925   */\n      0x00\n        /* \"#utility.yul\":949:1002   */\n      tag_101\n        /* \"#utility.yul\":994:1001   */\n      dup5\n        /* \"#utility.yul\":985:991   */\n      dup3\n        /* \"#utility.yul\":974:983   */\n      dup6\n        /* \"#utility.yul\":970:992   */\n      add\n        /* \"#utility.yul\":949:1002   */\n      tag_58\n      jump\t// in\n    tag_101:\n        /* \"#utility.yul\":939:1002   */\n      swap2\n      pop\n        /* \"#utility.yul\":895:1012   */\n      pop\n        /* \"#utility.yul\":690:1019   */\n      swap3\n      swap2\n      pop\n      pop\n      jump\t// out\n        /* \"#utility.yul\":1025:1124   */\n    tag_59:\n        /* \"#utility.yul\":1077:1083   */\n      0x00\n        /* \"#utility.yul\":1111:1116   */\n      dup2\n        /* \"#utility.yul\":1105:1117   */\n      mload\n        /* \"#utility.yul\":1095:1117   */\n      swap1\n      pop\n        /* \"#utility.yul\":1025:1124   */\n      swap2\n      swap1\n      pop\n      jump\t// out\n        /* \"#utility.yul\":1130:1299   */\n    tag_60:\n        /* \"#utility.yul\":1214:1225   */\n      0x00\n        /* \"#utility.yul\":1248:1254   */\n      dup3\n        /* \"#utility.yul\":1243:1246   */\n      dup3\n        /* \"#utility.yul\":1236:1255   */\n      mstore\n        /* \"#utility.yul\":1288:1292   */\n      0x20\n        /* \"#utility.yul\":1283:1286   */\n      dup3\n        /* \"#utility.yul\":1279:1293   */\n      add\n        /* \"#utility.yul\":1264:1293   */\n      swap1\n      pop\n        /* \"#utility.yul\":1130:1299   */\n      swap3\n      swap2\n      pop\n      pop\n      jump\t// out\n        /* \"#utility.yul\":1305:1551   */\n    tag_61:\n        /* \"#utility.yul\":1386:1387   */\n      0x00\n        /* \"#utility.yul\":1396:1509   */\n    tag_105:\n        /* \"#utility.yul\":1410:1416   */\n      dup4\n        /* \"#utility.yul\":1407:1408   */\n      dup2\n        /* \"#utility.yul\":1404:1417   */\n      lt\n        /* \"#utility.yul\":1396:1509   */\n      iszero\n      tag_107\n      jumpi\n        /* \"#utility.yul\":1495:1496   */\n      dup1\n        /* \"#utility.yul\":1490:1493   */\n      dup3\n        /* \"#utility.yul\":1486:1497   */\n      add\n        /* \"#utility.yul\":1480:1498   */\n      mload\n        /* \"#utility.yul\":1476:1477   */\n      dup2\n        /* \"#utility.yul\":1471:1474   */\n      dup5\n        /* \"#utility.yul\":1467:1478   */\n      add\n        /* \"#utility.yul\":1460:1499   */\n      mstore\n        /* \"#utility.yul\":1432:1434   */\n      0x20\n        /* \"#utility.yul\":1429:1430   */\n      dup2\n        /* \"#utility.yul\":1425:1435   */\n      add\n        /* \"#utility.yul\":1420:1435   */\n      swap1\n      pop\n        /* \"#utility.yul\":1396:1509   */\n      jump(tag_105)\n    tag_107:\n        /* \"#utility.yul\":1543:1544   */\n      0x00\n        /* \"#utility.yul\":1534:1540   */\n      dup5\n        /* \"#utility.yul\":1529:1532   */\n      dup5\n        /* \"#utility.yul\":1525:1541   */\n      add\n        /* \"#utility.yul\":1518:1545   */\n      mstore\n        /* \"#utility.yul\":1367:1551   */\n      pop\n        /* \"#utility.yul\":1305:1551   */\n      pop\n      pop\n      pop\n      jump\t// out\n        /* \"#utility.yul\":1557:1659   */\n    tag_62:\n        /* \"#utility.yul\":1598:1604   */\n      0x00\n        /* \"#utility.yul\":1649:1651   */\n      0x1f\n        /* \"#utility.yul\":1645:1652   */\n      not\n        /* \"#utility.yul\":1640:1642   */\n      0x1f\n        /* \"#utility.yul\":1633:1638   */\n      dup4\n        /* \"#utility.yul\":1629:1643   */\n      add\n        /* \"#utility.yul\":1625:1653   */\n      and\n        /* \"#utility.yul\":1615:1653   */\n      swap1\n      pop\n        /* \"#utility.yul\":1557:1659   */\n      swap2\n      swap1\n      pop\n      jump\t// out\n        /* \"#utility.yul\":1665:2042   */\n    tag_63:\n        /* \"#utility.yul\":1753:1756   */\n      0x00\n        /* \"#utility.yul\":1781:1820   */\n      tag_110\n        /* \"#utility.yul\":1814:1819   */\n      dup3\n        /* \"#utility.yul\":1781:1820   */\n      tag_59\n      jump\t// in\n    tag_110:\n        /* \"#utility.yul\":1836:1907   */\n      tag_111\n        /* \"#utility.yul\":1900:1906   */\n      dup2\n        /* \"#utility.yul\":1895:1898   */\n      dup6\n        /* \"#utility.yul\":1836:1907   */\n      tag_60\n      jump\t// in\n    tag_111:\n        /* \"#utility.yul\":1829:1907   */\n      swap4\n      pop\n        /* \"#utility.yul\":1916:1981   */\n      tag_112\n        /* \"#utility.yul\":1974:1980   */\n      dup2\n        /* \"#utility.yul\":1969:1972   */\n      dup6\n        /* \"#utility.yul\":1962:1966   */\n      0x20\n        /* \"#utility.yul\":1955:1960   */\n      dup7\n        /* \"#utility.yul\":1951:1967   */\n      add\n        /* \"#utility.yul\":1916:1981   */\n      tag_61\n      jump\t// in\n    tag_112:\n        /* \"#utility.yul\":2006:2035   */\n      tag_113\n        /* \"#utility.yul\":2028:2034   */\n      dup2\n        /* \"#utility.yul\":2006:2035   */\n      tag_62\n      jump\t// in\n    tag_113:\n        /* \"#utility.yul\":2001:2004   */\n      dup5\n        /* \"#utility.yul\":1997:2036   */\n      add\n        /* \"#utility.yul\":1990:2036   */\n      swap2\n      pop\n        /* \"#utility.yul\":1757:2042   */\n      pop\n        /* \"#utility.yul\":1665:2042   */\n      swap3\n      swap2\n      pop\n      pop\n      jump\t// out\n        /* \"#utility.yul\":2048:2138   */\n    tag_64:\n        /* \"#utility.yul\":2082:2089   */\n      0x00\n        /* \"#utility.yul\":2125:2130   */\n      dup2\n        /* \"#utility.yul\":2118:2131   */\n      iszero\n        /* \"#utility.yul\":2111:2132   */\n      iszero\n        /* \"#utility.yul\":2100:2132   */\n      swap1\n      pop\n        /* \"#utility.yul\":2048:2138   */\n      swap2\n      swap1\n      pop\n      jump\t// out\n        /* \"#utility.yul\":2144:2253   */\n    tag_65:\n        /* \"#utility.yul\":2225:2246   */\n      tag_116\n        /* \"#utility.yul\":2240:2245   */\n      dup2\n        /* \"#utility.yul\":2225:2246   */\n      tag_64\n      jump\t// in\n    tag_116:\n        /* \"#utility.yul\":2220:2223   */\n      dup3\n        /* \"#utility.yul\":2213:2247   */\n      mstore\n        /* \"#utility.yul\":2144:2253   */\n      pop\n      pop\n      jump\t// out\n        /* \"#utility.yul\":2259:2670   */\n    tag_12:\n        /* \"#utility.yul\":2394:2398   */\n      0x00\n        /* \"#utility.yul\":2432:2434   */\n      0x40\n        /* \"#utility.yul\":2421:2430   */\n      dup3\n        /* \"#utility.yul\":2417:2435   */\n      add\n        /* \"#utility.yul\":2409:2435   */\n      swap1\n      pop\n        /* \"#utility.yul\":2481:2490   */\n      dup2\n        /* \"#utility.yul\":2475:2479   */\n      dup2\n        /* \"#utility.yul\":2471:2491   */\n      sub\n        /* \"#utility.yul\":2467:2468   */\n      0x00\n        /* \"#utility.yul\":2456:2465   */\n      dup4\n        /* \"#utility.yul\":2452:2469   */\n      add\n        /* \"#utility.yul\":2445:2492   */\n      mstore\n        /* \"#utility.yul\":2509:2587   */\n      tag_118\n        /* \"#utility.yul\":2582:2586   */\n      dup2\n        /* \"#utility.yul\":2573:2579   */\n      dup6\n        /* \"#utility.yul\":2509:2587   */\n      tag_63\n      jump\t// in\n    tag_118:\n        /* \"#utility.yul\":2501:2587   */\n      swap1\n      pop\n        /* \"#utility.yul\":2597:2663   */\n      tag_119\n        /* \"#utility.yul\":2659:2661   */\n      0x20\n        /* \"#utility.yul\":2648:2657   */\n      dup4\n        /* \"#utility.yul\":2644:2662   */\n      add\n        /* \"#utility.yul\":2635:2641   */\n      dup5\n        /* \"#utility.yul\":2597:2663   */\n      tag_65\n      jump\t// in\n    tag_119:\n        /* \"#utility.yul\":2259:2670   */\n      swap4\n      swap3\n      pop\n      pop\n      pop\n      jump\t// out\n        /* \"#utility.yul\":2676:2793   */\n    tag_66:\n        /* \"#utility.yul\":2785:2786   */\n      0x00\n        /* \"#utility.yul\":2782:2783   */\n      dup1\n        /* \"#utility.yul\":2775:2787   */\n      revert\n        /* \"#utility.yul\":2799:2916   */\n    tag_67:\n        /* \"#utility.yul\":2908:2909   */\n      0x00\n        /* \"#utility.yul\":2905:2906   */\n      dup1\n        /* \"#utility.yul\":2898:2910   */\n      revert\n        /* \"#utility.yul\":2922:3039   */\n    tag_68:\n        /* \"#utility.yul\":3031:3032   */\n      0x00\n        /* \"#utility.yul\":3028:3029   */\n      dup1\n        /* \"#utility.yul\":3021:3033   */\n      revert\n        /* \"#utility.yul\":3059:3612   */\n    tag_69:\n        /* \"#utility.yul\":3117:3125   */\n      0x00\n        /* \"#utility.yul\":3127:3133   */\n      dup1\n        /* \"#utility.yul\":3177:3180   */\n      dup4\n        /* \"#utility.yul\":3170:3174   */\n      0x1f\n        /* \"#utility.yul\":3162:3168   */\n      dup5\n        /* \"#utility.yul\":3158:3175   */\n      add\n        /* \"#utility.yul\":3154:3181   */\n      slt\n        /* \"#utility.yul\":3144:3266   */\n      tag_124\n      jumpi\n        /* \"#utility.yul\":3185:3264   */\n      tag_125\n      tag_66\n      jump\t// in\n    tag_125:\n        /* \"#utility.yul\":3144:3266   */\n    tag_124:\n        /* \"#utility.yul\":3298:3304   */\n      dup3\n        /* \"#utility.yul\":3285:3305   */\n      calldataload\n        /* \"#utility.yul\":3275:3305   */\n      swap1\n      pop\n        /* \"#utility.yul\":3328:3346   */\n      0xffffffffffffffff\n        /* \"#utility.yul\":3320:3326   */\n      dup2\n        /* \"#utility.yul\":3317:3347   */\n      gt\n        /* \"#utility.yul\":3314:3431   */\n      iszero\n      tag_126\n      jumpi\n        /* \"#utility.yul\":3350:3429   */\n      tag_127\n      tag_67\n      jump\t// in\n    tag_127:\n        /* \"#utility.yul\":3314:3431   */\n    tag_126:\n        /* \"#utility.yul\":3464:3468   */\n      0x20\n        /* \"#utility.yul\":3456:3462   */\n      dup4\n        /* \"#utility.yul\":3452:3469   */\n      add\n        /* \"#utility.yul\":3440:3469   */\n      swap2\n      pop\n        /* \"#utility.yul\":3518:3521   */\n      dup4\n        /* \"#utility.yul\":3510:3514   */\n      0x01\n        /* \"#utility.yul\":3502:3508   */\n      dup3\n        /* \"#utility.yul\":3498:3515   */\n      mul\n        /* \"#utility.yul\":3488:3496   */\n      dup4\n        /* \"#utility.yul\":3484:3516   */\n      add\n        /* \"#utility.yul\":3481:3522   */\n      gt\n        /* \"#utility.yul\":3478:3606   */\n      iszero\n      tag_128\n      jumpi\n        /* \"#utility.yul\":3525:3604   */\n      tag_129\n      tag_68\n      jump\t// in\n    tag_129:\n        /* \"#utility.yul\":3478:3606   */\n    tag_128:\n        /* \"#utility.yul\":3059:3612   */\n      swap3\n      pop\n      swap3\n      swap1\n      pop\n      jump\t// out\n        /* \"#utility.yul\":3618:4292   */\n    tag_15:\n        /* \"#utility.yul\":3698:3704   */\n      0x00\n        /* \"#utility.yul\":3706:3712   */\n      dup1\n        /* \"#utility.yul\":3714:3720   */\n      0x00\n        /* \"#utility.yul\":3763:3765   */\n      0x40\n        /* \"#utility.yul\":3751:3760   */\n      dup5\n        /* \"#utility.yul\":3742:3749   */\n      dup7\n        /* \"#utility.yul\":3738:3761   */\n      sub\n        /* \"#utility.yul\":3734:3766   */\n      slt\n        /* \"#utility.yul\":3731:3850   */\n      iszero\n      tag_131\n      jumpi\n        /* \"#utility.yul\":3769:3848   */\n      tag_132\n      tag_54\n      jump\t// in\n    tag_132:\n        /* \"#utility.yul\":3731:3850   */\n    tag_131:\n        /* \"#utility.yul\":3917:3918   */\n      0x00\n        /* \"#utility.yul\":3906:3915   */\n      dup5\n        /* \"#utility.yul\":3902:3919   */\n      add\n        /* \"#utility.yul\":3889:3920   */\n      calldataload\n        /* \"#utility.yul\":3947:3965   */\n      0xffffffffffffffff\n        /* \"#utility.yul\":3939:3945   */\n      dup2\n        /* \"#utility.yul\":3936:3966   */\n      gt\n        /* \"#utility.yul\":3933:4050   */\n      iszero\n      tag_133\n      jumpi\n        /* \"#utility.yul\":3969:4048   */\n      tag_134\n      tag_55\n      jump\t// in\n    tag_134:\n        /* \"#utility.yul\":3933:4050   */\n    tag_133:\n        /* \"#utility.yul\":4082:4147   */\n      tag_135\n        /* \"#utility.yul\":4139:4146   */\n      dup7\n        /* \"#utility.yul\":4130:4136   */\n      dup3\n        /* \"#utility.yul\":4119:4128   */\n      dup8\n        /* \"#utility.yul\":4115:4137   */\n      add\n        /* \"#utility.yul\":4082:4147   */\n      tag_69\n      jump\t// in\n    tag_135:\n        /* \"#utility.yul\":4064:4147   */\n      swap4\n      pop\n      swap4\n      pop\n        /* \"#utility.yul\":3860:4157   */\n      pop\n        /* \"#utility.yul\":4196:4198   */\n      0x20\n        /* \"#utility.yul\":4222:4275   */\n      tag_136\n        /* \"#utility.yul\":4267:4274   */\n      dup7\n        /* \"#utility.yul\":4258:4264   */\n      dup3\n        /* \"#utility.yul\":4247:4256   */\n      dup8\n        /* \"#utility.yul\":4243:4265   */\n      add\n        /* \"#utility.yul\":4222:4275   */\n      tag_58\n      jump\t// in\n    tag_136:\n        /* \"#utility.yul\":4212:4275   */\n      swap2\n      pop\n        /* \"#utility.yul\":4167:4285   */\n      pop\n        /* \"#utility.yul\":3618:4292   */\n      swap3\n      pop\n      swap3\n      pop\n      swap3\n      jump\t// out\n        /* \"#utility.yul\":4298:4827   */\n    tag_23:\n        /* \"#utility.yul\":4369:4375   */\n      0x00\n        /* \"#utility.yul\":4377:4383   */\n      dup1\n        /* \"#utility.yul\":4426:4428   */\n      0x20\n        /* \"#utility.yul\":4414:4423   */\n      dup4\n        /* \"#utility.yul\":4405:4412   */\n      dup6\n        /* \"#utility.yul\":4401:4424   */\n      sub\n        /* \"#utility.yul\":4397:4429   */\n      slt\n        /* \"#utility.yul\":4394:4513   */\n      iszero\n      tag_138\n      jumpi\n        /* \"#utility.yul\":4432:4511   */\n      tag_139\n      tag_54\n      jump\t// in\n    tag_139:\n        /* \"#utility.yul\":4394:4513   */\n    tag_138:\n        /* \"#utility.yul\":4580:4581   */\n      0x00\n        /* \"#utility.yul\":4569:4578   */\n      dup4\n        /* \"#utility.yul\":4565:4582   */\n      add\n        /* \"#utility.yul\":4552:4583   */\n      calldataload\n        /* \"#utility.yul\":4610:4628   */\n      0xffffffffffffffff\n        /* \"#utility.yul\":4602:4608   */\n      dup2\n        /* \"#utility.yul\":4599:4629   */\n      gt\n        /* \"#utility.yul\":4596:4713   */\n      iszero\n      tag_140\n      jumpi\n        /* \"#utility.yul\":4632:4711   */\n      tag_141\n      tag_55\n      jump\t// in\n    tag_141:\n        /* \"#utility.yul\":4596:4713   */\n    tag_140:\n        /* \"#utility.yul\":4745:4810   */\n      tag_142\n        /* \"#utility.yul\":4802:4809   */\n      dup6\n        /* \"#utility.yul\":4793:4799   */\n      dup3\n        /* \"#utility.yul\":4782:4791   */\n      dup7\n        /* \"#utility.yul\":4778:4800   */\n      add\n        /* \"#utility.yul\":4745:4810   */\n      tag_69\n      jump\t// in\n    tag_142:\n        /* \"#utility.yul\":4727:4810   */\n      swap3\n      pop\n      swap3\n      pop\n        /* \"#utility.yul\":4523:4820   */\n      pop\n        /* \"#utility.yul\":4298:4827   */\n      swap3\n      pop\n      swap3\n      swap1\n      pop\n      jump\t// out\n        /* \"#utility.yul\":4833:5013   */\n    tag_28:\n        /* \"#utility.yul\":4881:4958   */\n      0x4e487b7100000000000000000000000000000000000000000000000000000000\n        /* \"#utility.yul\":4878:4879   */\n      0x00\n        /* \"#utility.yul\":4871:4959   */\n      mstore\n        /* \"#utility.yul\":4978:4982   */\n      0x32\n        /* \"#utility.yul\":4975:4976   */\n      0x04\n        /* \"#utility.yul\":4968:4983   */\n      mstore\n        /* \"#utility.yul\":5002:5006   */\n      0x24\n        /* \"#utility.yul\":4999:5000   */\n      0x00\n        /* \"#utility.yul\":4992:5007   */\n      revert\n        /* \"#utility.yul\":5019:5199   */\n    tag_70:\n        /* \"#utility.yul\":5067:5144   */\n      0x4e487b7100000000000000000000000000000000000000000000000000000000\n        /* \"#utility.yul\":5064:5065   */\n      0x00\n        /* \"#utility.yul\":5057:5145   */\n      mstore\n        /* \"#utility.yul\":5164:5168   */\n      0x22\n        /* \"#utility.yul\":5161:5162   */\n      0x04\n        /* \"#utility.yul\":5154:5169   */\n      mstore\n        /* \"#utility.yul\":5188:5192   */\n      0x24\n        /* \"#utility.yul\":5185:5186   */\n      0x00\n        /* \"#utility.yul\":5178:5193   */\n      revert\n        /* \"#utility.yul\":5205:5525   */\n    tag_31:\n        /* \"#utility.yul\":5249:5255   */\n      0x00\n        /* \"#utility.yul\":5286:5287   */\n      0x02\n        /* \"#utility.yul\":5280:5284   */\n      dup3\n        /* \"#utility.yul\":5276:5288   */\n      div\n        /* \"#utility.yul\":5266:5288   */\n      swap1\n      pop\n        /* \"#utility.yul\":5333:5334   */\n      0x01\n        /* \"#utility.yul\":5327:5331   */\n      dup3\n        /* \"#utility.yul\":5323:5335   */\n      and\n        /* \"#utility.yul\":5354:5372   */\n      dup1\n        /* \"#utility.yul\":5344:5425   */\n      tag_146\n      jumpi\n        /* \"#utility.yul\":5410:5414   */\n      0x7f\n        /* \"#utility.yul\":5402:5408   */\n      dup3\n        /* \"#utility.yul\":5398:5415   */\n      and\n        /* \"#utility.yul\":5388:5415   */\n      swap2\n      pop\n        /* \"#utility.yul\":5344:5425   */\n    tag_146:\n        /* \"#utility.yul\":5472:5474   */\n      0x20\n        /* \"#utility.yul\":5464:5470   */\n      dup3\n        /* \"#utility.yul\":5461:5475   */\n      lt\n        /* \"#utility.yul\":5441:5459   */\n      dup2\n        /* \"#utility.yul\":5438:5476   */\n      sub\n        /* \"#utility.yul\":5435:5519   */\n      tag_147\n      jumpi\n        /* \"#utility.yul\":5491:5509   */\n      tag_148\n      tag_70\n      jump\t// in\n    tag_148:\n        /* \"#utility.yul\":5435:5519   */\n    tag_147:\n        /* \"#utility.yul\":5256:5525   */\n      pop\n        /* \"#utility.yul\":5205:5525   */\n      swap2\n      swap1\n      pop\n      jump\t// out\n        /* \"#utility.yul\":5531:5628   */\n    tag_71:\n        /* \"#utility.yul\":5590:5596   */\n      0x00\n        /* \"#utility.yul\":5618:5621   */\n      dup3\n        /* \"#utility.yul\":5608:5621   */\n      swap1\n      pop\n        /* \"#utility.yul\":5531:5628   */\n      swap3\n      swap2\n      pop\n      pop\n      jump\t// out\n        /* \"#utility.yul\":5634:5814   */\n    tag_72:\n        /* \"#utility.yul\":5682:5759   */\n      0x4e487b7100000000000000000000000000000000000000000000000000000000\n        /* \"#utility.yul\":5679:5680   */\n      0x00\n        /* \"#utility.yul\":5672:5760   */\n      mstore\n        /* \"#utility.yul\":5779:5783   */\n      0x41\n        /* \"#utility.yul\":5776:5777   */\n      0x04\n        /* \"#utility.yul\":5769:5784   */\n      mstore\n        /* \"#utility.yul\":5803:5807   */\n      0x24\n        /* \"#utility.yul\":5800:5801   */\n      0x00\n        /* \"#utility.yul\":5793:5808   */\n      revert\n        /* \"#utility.yul\":5820:5961   */\n    tag_73:\n        /* \"#utility.yul\":5869:5873   */\n      0x00\n        /* \"#utility.yul\":5892:5895   */\n      dup2\n        /* \"#utility.yul\":5884:5895   */\n      swap1\n      pop\n        /* \"#utility.yul\":5915:5918   */\n      dup2\n        /* \"#utility.yul\":5912:5913   */\n      0x00\n        /* \"#utility.yul\":5905:5919   */\n      mstore\n        /* \"#utility.yul\":5949:5953   */\n      0x20\n        /* \"#utility.yul\":5946:5947   */\n      0x00\n        /* \"#utility.yul\":5936:5954   */\n      keccak256\n        /* \"#utility.yul\":5928:5954   */\n      swap1\n      pop\n        /* \"#utility.yul\":5820:5961   */\n      swap2\n      swap1\n      pop\n      jump\t// out\n        /* \"#utility.yul\":5967:6060   */\n    tag_74:\n        /* \"#utility.yul\":6004:6010   */\n      0x00\n        /* \"#utility.yul\":6051:6053   */\n      0x20\n        /* \"#utility.yul\":6046:6048   */\n      0x1f\n        /* \"#utility.yul\":6039:6044   */\n      dup4\n        /* \"#utility.yul\":6035:6049   */\n      add\n        /* \"#utility.yul\":6031:6054   */\n      div\n        /* \"#utility.yul\":6021:6054   */\n      swap1\n      pop\n        /* \"#utility.yul\":5967:6060   */\n      swap2\n      swap1\n      pop\n      jump\t// out\n        /* \"#utility.yul\":6066:6173   */\n    tag_75:\n        /* \"#utility.yul\":6110:6118   */\n      0x00\n        /* \"#utility.yul\":6160:6165   */\n      dup3\n        /* \"#utility.yul\":6154:6158   */\n      dup3\n        /* \"#utility.yul\":6150:6166   */\n      shl\n        /* \"#utility.yul\":6129:6166   */\n      swap1\n      pop\n        /* \"#utility.yul\":6066:6173   */\n      swap3\n      swap2\n      pop\n      pop\n      jump\t// out\n        /* \"#utility.yul\":6179:6572   */\n    tag_76:\n        /* \"#utility.yul\":6248:6254   */\n      0x00\n        /* \"#utility.yul\":6298:6299   */\n      0x08\n        /* \"#utility.yul\":6286:6296   */\n      dup4\n        /* \"#utility.yul\":6282:6300   */\n      mul\n        /* \"#utility.yul\":6321:6418   */\n      tag_155\n        /* \"#utility.yul\":6351:6417   */\n      0xffffffffffffffffffffffffffffffffffffffffffffffffffffffffffffffff\n        /* \"#utility.yul\":6340:6349   */\n      dup3\n        /* \"#utility.yul\":6321:6418   */\n      tag_75\n      jump\t// in\n    tag_155:\n        /* \"#utility.yul\":6439:6478   */\n      tag_156\n        /* \"#utility.yul\":6469:6477   */\n      dup7\n        /* \"#utility.yul\":6458:6467   */\n      dup4\n        /* \"#utility.yul\":6439:6478   */\n      tag_75\n      jump\t// in\n    tag_156:\n        /* \"#utility.yul\":6427:6478   */\n      swap6\n      pop\n        /* \"#utility.yul\":6511:6515   */\n      dup1\n        /* \"#utility.yul\":6507:6516   */\n      not\n        /* \"#utility.yul\":6500:6505   */\n      dup5\n        /* \"#utility.yul\":6496:6517   */\n      and\n        /* \"#utility.yul\":6487:6517   */\n      swap4\n      pop\n        /* \"#utility.yul\":6560:6564   */\n      dup1\n        /* \"#utility.yul\":6550:6558   */\n      dup7\n        /* \"#utility.yul\":6546:6565   */\n      and\n        /* \"#utility.yul\":6539:6544   */\n      dup5\n        /* \"#utility.yul\":6536:6566   */\n      or\n        /* \"#utility.yul\":6526:6566   */\n      swap3\n      pop\n        /* \"#utility.yul\":6255:6572   */\n      pop\n      pop\n        /* \"#utility.yul\":6179:6572   */\n      swap4\n      swap3\n      pop\n      pop\n      pop\n      jump\t// out\n        /* \"#utility.yul\":6578:6638   */\n    tag_77:\n        /* \"#utility.yul\":6606:6609   */\n      0x00\n        /* \"#utility.yul\":6627:6632   */\n      dup2\n        /* \"#utility.yul\":6620:6632   */\n      swap1\n      pop\n        /* \"#utility.yul\":6578:6638   */\n      swap2\n      swap1\n      pop\n      jump\t// out\n        /* \"#utility.yul\":6644:6786   */\n    tag_78:\n        /* \"#utility.yul\":6694:6703   */\n      0x00\n        /* \"#utility.yul\":6727:6780   */\n      tag_159\n        /* \"#utility.yul\":6745:6779   */\n      tag_160\n        /* \"#utility.yul\":6754:6778   */\n      tag_161\n        /* \"#utility.yul\":6772:6777   */\n      dup5\n        /* \"#utility.yul\":6754:6778   */\n      tag_56\n      jump\t// in\n    tag_161:\n        /* \"#utility.yul\":6745:6779   */\n      tag_77\n      jump\t// in\n    tag_160:\n        /* \"#utility.yul\":6727:6780   */\n      tag_56\n      jump\t// in\n    tag_159:\n        /* \"#utility.yul\":6714:6780   */\n      swap1\n      pop\n        /* \"#utility.yul\":6644:6786   */\n      swap2\n      swap1\n      pop\n      jump\t// out\n        /* \"#utility.yul\":6792:6867   */\n    tag_79:\n        /* \"#utility.yul\":6835:6838   */\n      0x00\n        /* \"#utility.yul\":6856:6861   */\n      dup2\n        /* \"#utility.yul\":6849:6861   */\n      swap1\n      pop\n        /* \"#utility.yul\":6792:6867   */\n      swap2\n      swap1\n      pop\n      jump\t// out\n        /* \"#utility.yul\":6873:7142   */\n    tag_80:\n        /* \"#utility.yul\":6983:7022   */\n      tag_164\n        /* \"#utility.yul\":7014:7021   */\n      dup4\n        /* \"#utility.yul\":6983:7022   */\n      tag_78\n      jump\t// in\n    tag_164:\n        /* \"#utility.yul\":7044:7135   */\n      tag_165\n        /* \"#utility.yul\":7093:7134   */\n      tag_166\n        /* \"#utility.yul\":7117:7133   */\n      dup3\n        /* \"#utility.yul\":7093:7134   */\n      tag_79\n      jump\t// in\n    tag_166:\n        /* \"#utility.yul\":7085:7091   */\n      dup5\n        /* \"#utility.yul\":7078:7082   */\n      dup5\n        /* \"#utility.yul\":7072:7083   */\n      sload\n        /* \"#utility.yul\":7044:7135   */\n      tag_76\n      jump\t// in\n    tag_165:\n        /* \"#utility.yul\":7038:7042   */\n      dup3\n        /* \"#utility.yul\":7031:7136   */\n      sstore\n        /* \"#utility.yul\":6949:7142   */\n      pop\n        /* \"#utility.yul\":6873:7142   */\n      pop\n      pop\n      pop\n      jump\t// out\n        /* \"#utility.yul\":7148:7221   */\n    tag_81:\n        /* \"#utility.yul\":7193:7196   */\n      0x00\n        /* \"#utility.yul\":7148:7221   */\n      swap1\n      jump\t// out\n        /* \"#utility.yul\":7227:7416   */\n    tag_82:\n        /* \"#utility.yul\":7304:7336   */\n      tag_169\n      tag_81\n      jump\t// in\n    tag_169:\n        /* \"#utility.yul\":7345:7410   */\n      tag_170\n        /* \"#utility.yul\":7403:7409   */\n      dup2\n        /* \"#utility.yul\":7395:7401   */\n      dup5\n        /* \"#utility.yul\":7389:7393   */\n      dup5\n        /* \"#utility.yul\":7345:7410   */\n      tag_80\n      jump\t// in\n    tag_170:\n        /* \"#utility.yul\":7280:7416   */\n      pop\n        /* \"#utility.yul\":7227:7416   */\n      pop\n      pop\n      jump\t// out\n        /* \"#utility.yul\":7422:7608   */\n    tag_83:\n        /* \"#utility.yul\":7482:7602   */\n    tag_172:\n        /* \"#utility.yul\":7499:7502   */\n      dup2\n        /* \"#utility.yul\":7492:7497   */\n      dup2\n        /* \"#utility.yul\":7489:7503   */\n      lt\n        /* \"#utility.yul\":7482:7602   */\n      iszero\n      tag_174\n      jumpi\n        /* \"#utility.yul\":7553:7592   */\n      tag_175\n        /* \"#utility.yul\":7590:7591   */\n      0x00\n        /* \"#utility.yul\":7583:7588   */\n      dup3\n        /* \"#utility.yul\":7553:7592   */\n      tag_82\n      jump\t// in\n    tag_175:\n        /* \"#utility.yul\":7526:7527   */\n      0x01\n        /* \"#utility.yul\":7519:7524   */\n      dup2\n        /* \"#utility.yul\":7515:7528   */\n      add\n        /* \"#utility.yul\":7506:7528   */\n      swap1\n      pop\n        /* \"#utility.yul\":7482:7602   */\n      jump(tag_172)\n    tag_174:\n        /* \"#utility.yul\":7422:7608   */\n      pop\n      pop\n      jump\t// out\n        /* \"#utility.yul\":7614:8157   */\n    tag_84:\n        /* \"#utility.yul\":7715:7717   */\n      0x1f\n        /* \"#utility.yul\":7710:7713   */\n      dup3\n        /* \"#utility.yul\":7707:7718   */\n      gt\n        /* \"#utility.yul\":7704:8150   */\n      iszero\n      tag_177\n      jumpi\n        /* \"#utility.yul\":7749:7787   */\n      tag_178\n        /* \"#utility.yul\":7781:7786   */\n      dup2\n        /* \"#utility.yul\":7749:7787   */\n      tag_73\n      jump\t// in\n    tag_178:\n        /* \"#utility.yul\":7833:7862   */\n      tag_179\n        /* \"#utility.yul\":7851:7861   */\n      dup5\n        /* \"#utility.yul\":7833:7862   */\n      tag_74\n      jump\t// in\n    tag_179:\n        /* \"#utility.yul\":7823:7831   */\n      dup2\n        /* \"#utility.yul\":7819:7863   */\n      add\n        /* \"#utility.yul\":8016:8018   */\n      0x20\n        /* \"#utility.yul\":8004:8014   */\n      dup6\n        /* \"#utility.yul\":8001:8019   */\n      lt\n        /* \"#utility.yul\":7998:8047   */\n      iszero\n      tag_180\n      jumpi\n        /* \"#utility.yul\":8037:8045   */\n      dup2\n        /* \"#utility.yul\":8022:8045   */\n      swap1\n      pop\n        /* \"#utility.yul\":7998:8047   */\n    tag_180:\n        /* \"#utility.yul\":8060:8140   */\n      tag_181\n        /* \"#utility.yul\":8116:8138   */\n      tag_182\n        /* \"#utility.yul\":8134:8137   */\n      dup6\n        /* \"#utility.yul\":8116:8138   */\n      tag_74\n      jump\t// in\n    tag_182:\n        /* \"#utility.yul\":8106:8114   */\n      dup4\n        /* \"#utility.yul\":8102:8139   */\n      add\n        /* \"#utility.yul\":8089:8100   */\n      dup3\n        /* \"#utility.yul\":8060:8140   */\n      tag_83\n      jump\t// in\n    tag_181:\n        /* \"#utility.yul\":7719:8150   */\n      pop\n      pop\n        /* \"#utility.yul\":7704:8150   */\n    tag_177:\n        /* \"#utility.yul\":7614:8157   */\n      pop\n      pop\n      pop\n      jump\t// out\n        /* \"#utility.yul\":8163:8280   */\n    tag_85:\n        /* \"#utility.yul\":8217:8225   */\n      0x00\n        /* \"#utility.yul\":8267:8272   */\n      dup3\n        /* \"#utility.yul\":8261:8265   */\n      dup3\n        /* \"#utility.yul\":8257:8273   */\n      shr\n        /* \"#utility.yul\":8236:8273   */\n      swap1\n      pop\n        /* \"#utility.yul\":8163:8280   */\n      swap3\n      swap2\n      pop\n      pop\n      jump\t// out\n        /* \"#utility.yul\":8286:8455   */\n    tag_86:\n        /* \"#utility.yul\":8330:8336   */\n      0x00\n        /* \"#utility.yul\":8363:8414   */\n      tag_185\n        /* \"#utility.yul\":8411:8412   */\n      0x00\n        /* \"#utility.yul\":8407:8413   */\n      not\n        /* \"#utility.yul\":8399:8404   */\n      dup5\n        /* \"#utility.yul\":8396:8397   */\n      0x08\n        /* \"#utility.yul\":8392:8405   */\n      mul\n        /* \"#utility.yul\":8363:8414   */\n      tag_85\n      jump\t// in\n    tag_185:\n        /* \"#utility.yul\":8359:8415   */\n      not\n        /* \"#utility.yul\":8444:8448   */\n      dup1\n        /* \"#utility.yul\":8438:8442   */\n      dup4\n        /* \"#utility.yul\":8434:8449   */\n      and\n        /* \"#utility.yul\":8424:8449   */\n      swap2\n      pop\n        /* \"#utility.yul\":8337:8455   */\n      pop\n        /* \"#utility.yul\":8286:8455   */\n      swap3\n      swap2\n      pop\n      pop\n      jump\t// out\n        /* \"#utility.yul\":8460:8755   */\n    tag_87:\n        /* \"#utility.yul\":8536:8540   */\n      0x00\n        /* \"#utility.yul\":8682:8711   */\n      tag_187\n        /* \"#utility.yul\":8707:8710   */\n      dup4\n        /* \"#utility.yul\":8701:8705   */\n      dup4\n        /* \"#utility.yul\":8682:8711   */\n      tag_86\n      jump\t// in\n    tag_187:\n        /* \"#utility.yul\":8674:8711   */\n      swap2\n      pop\n        /* \"#utility.yul\":8744:8747   */\n      dup3\n        /* \"#utility.yul\":8741:8742   */\n      0x02\n        /* \"#utility.yul\":8737:8748   */\n      mul\n        /* \"#utility.yul\":8731:8735   */\n      dup3\n        /* \"#utility.yul\":8728:8749   */\n      or\n        /* \"#utility.yul\":8720:8749   */\n      swap1\n      pop\n        /* \"#utility.yul\":8460:8755   */\n      swap3\n      swap2\n      pop\n      pop\n      jump\t// out\n        /* \"#utility.yul\":8760:10163   */\n    tag_41:\n        /* \"#utility.yul\":8884:8928   */\n      tag_189\n        /* \"#utility.yul\":8924:8927   */\n      dup4\n        /* \"#utility.yul\":8919:8922   */\n      dup4\n        /* \"#utility.yul\":8884:8928   */\n      tag_71\n      jump\t// in\n    tag_189:\n        /* \"#utility.yul\":8993:9011   */\n      0xffffffffffffffff\n        /* \"#utility.yul\":8985:8991   */\n      dup2\n        /* \"#utility.yul\":8982:9012   */\n      gt\n        /* \"#utility.yul\":8979:9035   */\n      iszero\n      tag_190\n      jumpi\n        /* \"#utility.yul\":9015:9033   */\n      tag_191\n      tag_72\n      jump\t// in\n    tag_191:\n        /* \"#utility.yul\":8979:9035   */\n    tag_190:\n        /* \"#utility.yul\":9059:9097   */\n      tag_192\n        /* \"#utility.yul\":9091:9095   */\n      dup3\n        /* \"#utility.yul\":9085:9096   */\n      sload\n        /* \"#utility.yul\":9059:9097   */\n      tag_31\n      jump\t// in\n    tag_192:\n        /* \"#utility.yul\":9144:9211   */\n      tag_193\n        /* \"#utility.yul\":9204:9210   */\n      dup3\n        /* \"#utility.yul\":9196:9202   */\n      dup3\n        /* \"#utility.yul\":9190:9194   */\n      dup6\n        /* \"#utility.yul\":9144:9211   */\n      tag_84\n      jump\t// in\n    tag_193:\n        /* \"#utility.yul\":9238:9239   */\n      0x00\n        /* \"#utility.yul\":9267:9269   */\n      0x1f\n        /* \"#utility.yul\":9259:9265   */\n      dup4\n        /* \"#utility.yul\":9256:9270   */\n      gt\n        /* \"#utility.yul\":9284:9285   */\n      0x01\n        /* \"#utility.yul\":9279:9911   */\n      dup2\n      eq\n      tag_195\n      jumpi\n        /* \"#utility.yul\":9955:9956   */\n      0x00\n        /* \"#utility.yul\":9972:9978   */\n      dup5\n        /* \"#utility.yul\":9969:10053   */\n      iszero\n      tag_196\n      jumpi\n        /* \"#utility.yul\":10028:10037   */\n      dup3\n        /* \"#utility.yul\":10023:10026   */\n      dup8\n        /* \"#utility.yul\":10019:10038   */\n      add\n        /* \"#utility.yul\":10006:10039   */\n      calldataload\n        /* \"#utility.yul\":9997:10039   */\n      swap1\n      pop\n        /* \"#utility.yul\":9969:10053   */\n    tag_196:\n        /* \"#utility.yul\":10079:10146   */\n      tag_197\n        /* \"#utility.yul\":10139:10145   */\n      dup6\n        /* \"#utility.yul\":10132:10137   */\n      dup3\n        /* \"#utility.yul\":10079:10146   */\n      tag_87\n      jump\t// in\n    tag_197:\n        /* \"#utility.yul\":10073:10077   */\n      dup7\n        /* \"#utility.yul\":10066:10147   */\n      sstore\n        /* \"#utility.yul\":9928:10157   */\n      pop\n        /* \"#utility.yul\":9249:10157   */\n      jump(tag_194)\n        /* \"#utility.yul\":9279:9911   */\n    tag_195:\n        /* \"#utility.yul\":9331:9335   */\n      0x1f\n        /* \"#utility.yul\":9327:9336   */\n      not\n        /* \"#utility.yul\":9319:9325   */\n      dup5\n        /* \"#utility.yul\":9315:9337   */\n      and\n        /* \"#utility.yul\":9365:9402   */\n      tag_198\n        /* \"#utility.yul\":9397:9401   */\n      dup7\n        /* \"#utility.yul\":9365:9402   */\n      tag_73\n      jump\t// in\n    tag_198:\n        /* \"#utility.yul\":9424:9425   */\n      0x00\n        /* \"#utility.yul\":9438:9653   */\n    tag_199:\n        /* \"#utility.yul\":9452:9459   */\n      dup3\n        /* \"#utility.yul\":9449:9450   */\n      dup2\n        /* \"#utility.yul\":9446:9460   */\n      lt\n        /* \"#utility.yul\":9438:9653   */\n      iszero\n      tag_201\n      jumpi\n        /* \"#utility.yul\":9538:9547   */\n      dup5\n        /* \"#utility.yul\":9533:9536   */\n      dup10\n        /* \"#utility.yul\":9529:9548   */\n      add\n        /* \"#utility.yul\":9516:9549   */\n      calldataload\n        /* \"#utility.yul\":9508:9514   */\n      dup3\n        /* \"#utility.yul\":9501:9550   */\n      sstore\n        /* \"#utility.yul\":9589:9590   */\n      0x01\n        /* \"#utility.yul\":9581:9587   */\n      dup3\n        /* \"#utility.yul\":9577:9591   */\n      add\n        /* \"#utility.yul\":9567:9591   */\n      swap2\n      pop\n        /* \"#utility.yul\":9636:9638   */\n      0x20\n        /* \"#utility.yul\":9625:9634   */\n      dup6\n        /* \"#utility.yul\":9621:9639   */\n      add\n        /* \"#utility.yul\":9608:9639   */\n      swap5\n      pop\n        /* \"#utility.yul\":9475:9479   */\n      0x20\n        /* \"#utility.yul\":9472:9473   */\n      dup2\n        /* \"#utility.yul\":9468:9480   */\n      add\n        /* \"#utility.yul\":9463:9480   */\n      swap1\n      pop\n        /* \"#utility.yul\":9438:9653   */\n      jump(tag_199)\n    tag_201:\n        /* \"#utility.yul\":9681:9687   */\n      dup7\n        /* \"#utility.yul\":9672:9679   */\n      dup4\n        /* \"#utility.yul\":9669:9688   */\n      lt\n        /* \"#utility.yul\":9666:9852   */\n      iszero\n      tag_202\n      jumpi\n        /* \"#utility.yul\":9746:9755   */\n      dup5\n        /* \"#utility.yul\":9741:9744   */\n      dup10\n        /* \"#utility.yul\":9737:9756   */\n      add\n        /* \"#utility.yul\":9724:9757   */\n      calldataload\n        /* \"#utility.yul\":9789:9837   */\n      tag_203\n        /* \"#utility.yul\":9831:9835   */\n      0x1f\n        /* \"#utility.yul\":9823:9829   */\n      dup10\n        /* \"#utility.yul\":9819:9836   */\n      and\n        /* \"#utility.yul\":9808:9817   */\n      dup3\n        /* \"#utility.yul\":9789:9837   */\n      tag_86\n      jump\t// in\n    tag_203:\n        /* \"#utility.yul\":9781:9787   */\n      dup4\n        /* \"#utility.yul\":9774:9838   */\n      sstore\n        /* \"#utility.yul\":9689:9852   */\n      pop\n        /* \"#utility.yul\":9666:9852   */\n    tag_202:\n        /* \"#utility.yul\":9898:9899   */\n      0x01\n        /* \"#utility.yul\":9894:9895   */\n      0x02\n        /* \"#utility.yul\":9886:9892   */\n      dup9\n        /* \"#utility.yul\":9882:9896   */\n      mul\n        /* \"#utility.yul\":9878:9900   */\n      add\n        /* \"#utility.yul\":9872:9876   */\n      dup9\n        /* \"#utility.yul\":9865:9901   */\n      sstore\n        /* \"#utility.yul\":9286:9911   */\n      pop\n      pop\n      pop\n        /* \"#utility.yul\":9249:10157   */\n    tag_194:\n      pop\n        /* \"#utility.yul\":8859:10163   */\n      pop\n      pop\n      pop\n        /* \"#utility.yul\":8760:10163   */\n      pop\n      pop\n      pop\n      jump\t// out\n        /* \"#utility.yul\":10169:11564   */\n    tag_52:\n        /* \"#utility.yul\":10286:10323   */\n      tag_205\n        /* \"#utility.yul\":10319:10322   */\n      dup3\n        /* \"#utility.yul\":10286:10323   */\n      tag_59\n      jump\t// in\n    tag_205:\n        /* \"#utility.yul\":10388:10406   */\n      0xffffffffffffffff\n        /* \"#utility.yul\":10380:10386   */\n      dup2\n        /* \"#utility.yul\":10377:10407   */\n      gt\n        /* \"#utility.yul\":10374:10430   */\n      iszero\n      tag_206\n      jumpi\n        /* \"#utility.yul\":10410:10428   */\n      tag_207\n      tag_72\n      jump\t// in\n    tag_207:\n        /* \"#utility.yul\":10374:10430   */\n    tag_206:\n        /* \"#utility.yul\":10454:10492   */\n      tag_208\n        /* \"#utility.yul\":10486:10490   */\n      dup3\n        /* \"#utility.yul\":10480:10491   */\n      sload\n        /* \"#utility.yul\":10454:10492   */\n      tag_31\n      jump\t// in\n    tag_208:\n        /* \"#utility.yul\":10539:10606   */\n      tag_209\n        /* \"#utility.yul\":10599:10605   */\n      dup3\n        /* \"#utility.yul\":10591:10597   */\n      dup3\n        /* \"#utility.yul\":10585:10589   */\n      dup6\n        /* \"#utility.yul\":10539:10606   */\n      tag_84\n      jump\t// in\n    tag_209:\n        /* \"#utility.yul\":10633:10634   */\n      0x00\n        /* \"#utility.yul\":10657:10661   */\n      0x20\n        /* \"#utility.yul\":10644:10661   */\n      swap1\n      pop\n        /* \"#utility.yul\":10689:10691   */\n      0x1f\n        /* \"#utility.yul\":10681:10687   */\n      dup4\n        /* \"#utility.yul\":10678:10692   */\n      gt\n        /* \"#utility.yul\":10706:10707   */\n      0x01\n        /* \"#utility.yul\":10701:11319   */\n      dup2\n      eq\n      tag_211\n      jumpi\n        /* \"#utility.yul\":11363:11364   */\n      0x00\n        /* \"#utility.yul\":11380:11386   */\n      dup5\n        /* \"#utility.yul\":11377:11454   */\n      iszero\n      tag_212\n      jumpi\n        /* \"#utility.yul\":11429:11438   */\n      dup3\n        /* \"#utility.yul\":11424:11427   */\n      dup8\n        /* \"#utility.yul\":11420:11439   */\n      add\n        /* \"#utility.yul\":11414:11440   */\n      mload\n        /* \"#utility.yul\":11405:11440   */\n      swap1\n      pop\n        /* \"#utility.yul\":11377:11454   */\n    tag_212:\n        /* \"#utility.yul\":11480:11547   */\n      tag_213\n        /* \"#utility.yul\":11540:11546   */\n      dup6\n        /* \"#utility.yul\":11533:11538   */\n      dup3\n        /* \"#utility.yul\":11480:11547   */\n      tag_87\n      jump\t// in\n    tag_213:\n        /* \"#utility.yul\":11474:11478   */\n      dup7\n        /* \"#utility.yul\":11467:11548   */\n      sstore\n        /* \"#utility.yul\":11336:11558   */\n      pop\n        /* \"#utility.yul\":10671:11558   */\n      jump(tag_210)\n        /* \"#utility.yul\":10701:11319   */\n    tag_211:\n        /* \"#utility.yul\":10753:10757   */\n      0x1f\n        /* \"#utility.yul\":10749:10758   */\n      not\n        /* \"#utility.yul\":10741:10747   */\n      dup5\n        /* \"#utility.yul\":10737:10759   */\n      and\n        /* \"#utility.yul\":10787:10824   */\n      tag_214\n        /* \"#utility.yul\":10819:10823   */\n      dup7\n        /* \"#utility.yul\":10787:10824   */\n      tag_73\n      jump\t// in\n    tag_214:\n        /* \"#utility.yul\":10846:10847   */\n      0x00\n        /* \"#utility.yul\":10860:11068   */\n    tag_215:\n        /* \"#utility.yul\":10874:10881   */\n      dup3\n        /* \"#utility.yul\":10871:10872   */\n      dup2\n        /* \"#utility.yul\":10868:10882   */\n      lt\n        /* \"#utility.yul\":10860:11068   */\n      iszero\n      tag_217\n      jumpi\n        /* \"#utility.yul\":10953:10962   */\n      dup5\n        /* \"#utility.yul\":10948:10951   */\n      dup10\n        /* \"#utility.yul\":10944:10963   */\n      add\n        /* \"#utility.yul\":10938:10964   */\n      mload\n        /* \"#utility.yul\":10930:10936   */\n      dup3\n        /* \"#utility.yul\":10923:10965   */\n      sstore\n        /* \"#utility.yul\":11004:11005   */\n      0x01\n        /* \"#utility.yul\":10996:11002   */\n      dup3\n        /* \"#utility.yul\":10992:11006   */\n      add\n        /* \"#utility.yul\":10982:11006   */\n      swap2\n      pop\n        /* \"#utility.yul\":11051:11053   */\n      0x20\n        /* \"#utility.yul\":11040:11049   */\n      dup6\n        /* \"#utility.yul\":11036:11054   */\n      add\n        /* \"#utility.yul\":11023:11054   */\n      swap5\n      pop\n        /* \"#utility.yul\":10897:10901   */\n      0x20\n        /* \"#utility.yul\":10894:10895   */\n      dup2\n        /* \"#utility.yul\":10890:10902   */\n      add\n        /* \"#utility.yul\":10885:10902   */\n      swap1\n      pop\n        /* \"#utility.yul\":10860:11068   */\n      jump(tag_215)\n    tag_217:\n        /* \"#utility.yul\":11096:11102   */\n      dup7\n        /* \"#utility.yul\":11087:11094   */\n      dup4\n        /* \"#utility.yul\":11084:11103   */\n      lt\n        /* \"#utility.yul\":11081:11260   */\n      iszero\n      tag_218\n      jumpi\n        /* \"#utility.yul\":11154:11163   */\n      dup5\n        /* \"#utility.yul\":11149:11152   */\n      dup10\n        /* \"#utility.yul\":11145:11164   */\n      add\n        /* \"#utility.yul\":11139:11165   */\n      mload\n        /* \"#utility.yul\":11197:11245   */\n      tag_219\n        /* \"#utility.yul\":11239:11243   */\n      0x1f\n        /* \"#utility.yul\":11231:11237   */\n      dup10\n        /* \"#utility.yul\":11227:11244   */\n      and\n        /* \"#utility.yul\":11216:11225   */\n      dup3\n        /* \"#utility.yul\":11197:11245   */\n      tag_86\n      jump\t// in\n    tag_219:\n        /* \"#utility.yul\":11189:11195   */\n      dup4\n        /* \"#utility.yul\":11182:11246   */\n      sstore\n        /* \"#utility.yul\":11104:11260   */\n      pop\n        /* \"#utility.yul\":11081:11260   */\n    tag_218:\n        /* \"#utility.yul\":11306:11307   */\n      0x01\n        /* \"#utility.yul\":11302:11303   */\n      0x02\n        /* \"#utility.yul\":11294:11300   */\n      dup9\n        /* \"#utility.yul\":11290:11304   */\n      mul\n        /* \"#utility.yul\":11286:11308   */\n      add\n        /* \"#utility.yul\":11280:11284   */\n      dup9\n        /* \"#utility.yul\":11273:11309   */\n      sstore\n        /* \"#utility.yul\":10708:11319   */\n      pop\n      pop\n      pop\n        /* \"#utility.yul\":10671:11558   */\n    tag_210:\n      pop\n        /* \"#utility.yul\":10261:11564   */\n      pop\n      pop\n      pop\n        /* \"#utility.yul\":10169:11564   */\n      pop\n      pop\n      jump\t// out\n\n    auxdata: 0xa26469706673582212200dfe18be49d531c2c7547513201f23b091e16087e026be3bb3b48d5ffacedd0564736f6c63430008120033\n}\n",
				"bytecode": {
					"linkReferences": {},
					"object": "608060405234801561001057600080fd5b50610a4d806100206000396000f3fe608060405234801561001057600080fd5b506004361061004c5760003560e01c80630178fe3f146100515780631a784ed41461008257806389b5aadd1461009e578063b6a46b3b146100cf575b600080fd5b61006b600480360381019061006691906103e6565b6100eb565b6040516100799291906104be565b60405180910390f35b61009c60048036038101906100979190610553565b6101e0565b005b6100b860048036038101906100b391906103e6565b61021a565b6040516100c69291906104be565b60405180910390f35b6100e960048036038101906100e491906105b3565b6102e3565b005b60606000806000848154811061010457610103610600565b5b906000526020600020906002020160405180604001604052908160008201805461012d9061065e565b80601f01602080910402602001604051908101604052809291908181526020018280546101599061065e565b80156101a65780601f1061017b576101008083540402835291602001916101a6565b820191906000526020600020905b81548152906001019060200180831161018957829003601f168201915b505050505081526020016001820160009054906101000a900460ff1615151515815250509050806000015181602001519250925050915091565b8282600083815481106101f6576101f5610600565b5b90600052602060002090600202016000019182610214929190610875565b50505050565b6000818154811061022a57600080fd5b906000526020600020906002020160009150905080600001805461024d9061065e565b80601f01602080910402602001604051908101604052809291908181526020018280546102799061065e565b80156102c65780601f1061029b576101008083540402835291602001916102c6565b820191906000526020600020905b8154815290600101906020018083116102a957829003601f168201915b5050505050908060010160009054906101000a900460ff16905082565b6000604051806040016040528084848080601f016020809104026020016040519081016040528093929190818152602001838380828437600081840152601f19601f820116905080830192505050505050508152602001600115158152509080600181540180825580915050600190039060005260206000209060020201600090919091909150600082015181600001908161037f9190610945565b5060208201518160010160006101000a81548160ff02191690831515021790555050505050565b600080fd5b600080fd5b6000819050919050565b6103c3816103b0565b81146103ce57600080fd5b50565b6000813590506103e0816103ba565b92915050565b6000602082840312156103fc576103fb6103a6565b5b600061040a848285016103d1565b91505092915050565b600081519050919050565b600082825260208201905092915050565b60005b8381101561044d578082015181840152602081019050610432565b60008484015250505050565b6000601f19601f8301169050919050565b600061047582610413565b61047f818561041e565b935061048f81856020860161042f565b61049881610459565b840191505092915050565b60008115159050919050565b6104b8816104a3565b82525050565b600060408201905081810360008301526104d8818561046a565b90506104e760208301846104af565b9392505050565b600080fd5b600080fd5b600080fd5b60008083601f840112610513576105126104ee565b5b8235905067ffffffffffffffff8111156105305761052f6104f3565b5b60208301915083600182028301111561054c5761054b6104f8565b5b9250929050565b60008060006040848603121561056c5761056b6103a6565b5b600084013567ffffffffffffffff81111561058a576105896103ab565b5b610596868287016104fd565b935093505060206105a9868287016103d1565b9150509250925092565b600080602083850312156105ca576105c96103a6565b5b600083013567ffffffffffffffff8111156105e8576105e76103ab565b5b6105f4858286016104fd565b92509250509250929050565b7f4e487b7100000000000000000000000000000000000000000000000000000000600052603260045260246000fd5b7f4e487b7100000000000000000000000000000000000000000000000000000000600052602260045260246000fd5b6000600282049050600182168061067657607f821691505b6020821081036106895761068861062f565b5b50919050565b600082905092915050565b7f4e487b7100000000000000000000000000000000000000000000000000000000600052604160045260246000fd5b60008190508160005260206000209050919050565b60006020601f8301049050919050565b600082821b905092915050565b60006008830261072b7fffffffffffffffffffffffffffffffffffffffffffffffffffffffffffffffff826106ee565b61073586836106ee565b95508019841693508086168417925050509392505050565b6000819050919050565b600061077261076d610768846103b0565b61074d565b6103b0565b9050919050565b6000819050919050565b61078c83610757565b6107a061079882610779565b8484546106fb565b825550505050565b600090565b6107b56107a8565b6107c0818484610783565b505050565b5b818110156107e4576107d96000826107ad565b6001810190506107c6565b5050565b601f821115610829576107fa816106c9565b610803846106de565b81016020851015610812578190505b61082661081e856106de565b8301826107c5565b50505b505050565b600082821c905092915050565b600061084c6000198460080261082e565b1980831691505092915050565b6000610865838361083b565b9150826002028217905092915050565b61087f838361068f565b67ffffffffffffffff8111156108985761089761069a565b5b6108a2825461065e565b6108ad8282856107e8565b6000601f8311600181146108dc57600084156108ca578287013590505b6108d48582610859565b86555061093c565b601f1984166108ea866106c9565b60005b82811015610912578489013582556001820191506020850194506020810190506108ed565b8683101561092f578489013561092b601f89168261083b565b8355505b6001600288020188555050505b50505050505050565b61094e82610413565b67ffffffffffffffff8111156109675761096661069a565b5b610971825461065e565b61097c8282856107e8565b600060209050601f8311600181146109af576000841561099d578287015190505b6109a78582610859565b865550610a0f565b601f1984166109bd866106c9565b60005b828110156109e5578489015182556001820191506020850194506020810190506109c0565b86831015610a0257848901516109fe601f89168261083b565b8355505b6001600288020188555050505b50505050505056fea26469706673582212200dfe18be49d531c2c7547513201f23b091e16087e026be3bb3b48d5ffacedd0564736f6c63430008120033",
					"opcodes": "PUSH1 0x80 PUSH1 0x40 MSTORE CALLVALUE DUP1 ISZERO PUSH2 0x10 JUMPI PUSH1 0x0 DUP1 REVERT JUMPDEST POP PUSH2 0xA4D DUP1 PUSH2 0x20 PUSH1 0x0 CODECOPY PUSH1 0x0 RETURN INVALID PUSH1 0x80 PUSH1 0x40 MSTORE CALLVALUE DUP1 ISZERO PUSH2 0x10 JUMPI PUSH1 0x0 DUP1 REVERT JUMPDEST POP PUSH1 0x4 CALLDATASIZE LT PUSH2 0x4C JUMPI PUSH1 0x0 CALLDATALOAD PUSH1 0xE0 SHR DUP1 PUSH4 0x178FE3F EQ PUSH2 0x51 JUMPI DUP1 PUSH4 0x1A784ED4 EQ PUSH2 0x82 JUMPI DUP1 PUSH4 0x89B5AADD EQ PUSH2 0x9E JUMPI DUP1 PUSH4 0xB6A46B3B EQ PUSH2 0xCF JUMPI JUMPDEST PUSH1 0x0 DUP1 REVERT JUMPDEST PUSH2 0x6B PUSH1 0x4 DUP1 CALLDATASIZE SUB DUP2 ADD SWAP1 PUSH2 0x66 SWAP2 SWAP1 PUSH2 0x3E6 JUMP JUMPDEST PUSH2 0xEB JUMP JUMPDEST PUSH1 0x40 MLOAD PUSH2 0x79 SWAP3 SWAP2 SWAP1 PUSH2 0x4BE JUMP JUMPDEST PUSH1 0x40 MLOAD DUP1 SWAP2 SUB SWAP1 RETURN JUMPDEST PUSH2 0x9C PUSH1 0x4 DUP1 CALLDATASIZE SUB DUP2 ADD SWAP1 PUSH2 0x97 SWAP2 SWAP1 PUSH2 0x553 JUMP JUMPDEST PUSH2 0x1E0 JUMP JUMPDEST STOP JUMPDEST PUSH2 0xB8 PUSH1 0x4 DUP1 CALLDATASIZE SUB DUP2 ADD SWAP1 PUSH2 0xB3 SWAP2 SWAP1 PUSH2 0x3E6 JUMP JUMPDEST PUSH2 0x21A JUMP JUMPDEST PUSH1 0x40 MLOAD PUSH2 0xC6 SWAP3 SWAP2 SWAP1 PUSH2 0x4BE JUMP JUMPDEST PUSH1 0x40 MLOAD DUP1 SWAP2 SUB SWAP1 RETURN JUMPDEST PUSH2 0xE9 PUSH1 0x4 DUP1 CALLDATASIZE SUB DUP2 ADD SWAP1 PUSH2 0xE4 SWAP2 SWAP1 PUSH2 0x5B3 JUMP JUMPDEST PUSH2 0x2E3 JUMP JUMPDEST STOP JUMPDEST PUSH1 0x60 PUSH1 0x0 DUP1 PUSH1 0x0 DUP5 DUP2 SLOAD DUP2 LT PUSH2 0x104 JUMPI PUSH2 0x103 PUSH2 0x600 JUMP JUMPDEST JUMPDEST SWAP1 PUSH1 0x0 MSTORE PUSH1 0x20 PUSH1 0x0 KECCAK256 SWAP1 PUSH1 0x2 MUL ADD PUSH1 0x40 MLOAD DUP1 PUSH1 0x40 ADD PUSH1 0x40 MSTORE SWAP1 DUP2 PUSH1 0x0 DUP3 ADD DUP1 SLOAD PUSH2 0x12D SWAP1 PUSH2 0x65E JUMP JUMPDEST DUP1 PUSH1 0x1F ADD PUSH1 0x20 DUP1 SWAP2 DIV MUL PUSH1 0x20 ADD PUSH1 0x40 MLOAD SWAP1 DUP2 ADD PUSH1 0x40 MSTORE DUP1 SWAP3 SWAP2 SWAP1 DUP2 DUP2 MSTORE PUSH1 0x20 ADD DUP3 DUP1 SLOAD PUSH2 0x159 SWAP1 PUSH2 0x65E JUMP JUMPDEST DUP1 ISZERO PUSH2 0x1A6 JUMPI DUP1 PUSH1 0x1F LT PUSH2 0x17B JUMPI PUSH2 0x100 DUP1 DUP4 SLOAD DIV MUL DUP4 MSTORE SWAP2 PUSH1 0x20 ADD SWAP2 PUSH2 0x1A6 JUMP JUMPDEST DUP3 ADD SWAP2 SWAP1 PUSH1 0x0 MSTORE PUSH1 0x20 PUSH1 0x0 KECCAK256 SWAP1 JUMPDEST DUP2 SLOAD DUP2 MSTORE SWAP1 PUSH1 0x1 ADD SWAP1 PUSH1 0x20 ADD DUP1 DUP4 GT PUSH2 0x189 JUMPI DUP3 SWAP1 SUB PUSH1 0x1F AND DUP3 ADD SWAP2 JUMPDEST POP POP POP POP POP DUP2 MSTORE PUSH1 0x20 ADD PUSH1 0x1 DUP3 ADD PUSH1 0x0 SWAP1 SLOAD SWAP1 PUSH2 0x100 EXP SWAP1 DIV PUSH1 0xFF AND ISZERO ISZERO ISZERO ISZERO DUP2 MSTORE POP POP SWAP1 POP DUP1 PUSH1 0x0 ADD MLOAD DUP2 PUSH1 0x20 ADD MLOAD SWAP3 POP SWAP3 POP POP SWAP2 POP SWAP2 JUMP JUMPDEST DUP3 DUP3 PUSH1 0x0 DUP4 DUP2 SLOAD DUP2 LT PUSH2 0x1F6 JUMPI PUSH2 0x1F5 PUSH2 0x600 JUMP JUMPDEST JUMPDEST SWAP1 PUSH1 0x0 MSTORE PUSH1 0x20 PUSH1 0x0 KECCAK256 SWAP1 PUSH1 0x2 MUL ADD PUSH1 0x0 ADD SWAP2 DUP3 PUSH2 0x214 SWAP3 SWAP2 SWAP1 PUSH2 0x875 JUMP JUMPDEST POP POP POP POP JUMP JUMPDEST PUSH1 0x0 DUP2 DUP2 SLOAD DUP2 LT PUSH2 0x22A JUMPI PUSH1 0x0 DUP1 REVERT JUMPDEST SWAP1 PUSH1 0x0 MSTORE PUSH1 0x20 PUSH1 0x0 KECCAK256 SWAP1 PUSH1 0x2 MUL ADD PUSH1 0x0 SWAP2 POP SWAP1 POP DUP1 PUSH1 0x0 ADD DUP1 SLOAD PUSH2 0x24D SWAP1 PUSH2 0x65E JUMP JUMPDEST DUP1 PUSH1 0x1F ADD PUSH1 0x20 DUP1 SWAP2 DIV MUL PUSH1 0x20 ADD PUSH1 0x40 MLOAD SWAP1 DUP2 ADD PUSH1 0x40 MSTORE DUP1 SWAP3 SWAP2 SWAP1 DUP2 DUP2 MSTORE PUSH1 0x20 ADD DUP3 DUP1 SLOAD PUSH2 0x279 SWAP1 PUSH2 0x65E JUMP JUMPDEST DUP1 ISZERO PUSH2 0x2C6 JUMPI DUP1 PUSH1 0x1F LT PUSH2 0x29B JUMPI PUSH2 0x100 DUP1 DUP4 SLOAD DIV MUL DUP4 MSTORE SWAP2 PUSH1 0x20 ADD SWAP2 PUSH2 0x2C6 JUMP JUMPDEST DUP3 ADD SWAP2 SWAP1 PUSH1 0x0 MSTORE PUSH1 0x20 PUSH1 0x0 KECCAK256 SWAP1 JUMPDEST DUP2 SLOAD DUP2 MSTORE SWAP1 PUSH1 0x1 ADD SWAP1 PUSH1 0x20 ADD DUP1 DUP4 GT PUSH2 0x2A9 JUMPI DUP3 SWAP1 SUB PUSH1 0x1F AND DUP3 ADD SWAP2 JUMPDEST POP POP POP POP POP SWAP1 DUP1 PUSH1 0x1 ADD PUSH1 0x0 SWAP1 SLOAD SWAP1 PUSH2 0x100 EXP SWAP1 DIV PUSH1 0xFF AND SWAP1 POP DUP3 JUMP JUMPDEST PUSH1 0x0 PUSH1 0x40 MLOAD DUP1 PUSH1 0x40 ADD PUSH1 0x40 MSTORE DUP1 DUP5 DUP5 DUP1 DUP1 PUSH1 0x1F ADD PUSH1 0x20 DUP1 SWAP2 DIV MUL PUSH1 0x20 ADD PUSH1 0x40 MLOAD SWAP1 DUP2 ADD PUSH1 0x40 MSTORE DUP1 SWAP4 SWAP3 SWAP2 SWAP1 DUP2 DUP2 MSTORE PUSH1 0x20 ADD DUP4 DUP4 DUP1 DUP3 DUP5 CALLDATACOPY PUSH1 0x0 DUP2 DUP5 ADD MSTORE PUSH1 0x1F NOT PUSH1 0x1F DUP3 ADD AND SWAP1 POP DUP1 DUP4 ADD SWAP3 POP POP POP POP POP POP POP DUP2 MSTORE PUSH1 0x20 ADD PUSH1 0x1 ISZERO ISZERO DUP2 MSTORE POP SWAP1 DUP1 PUSH1 0x1 DUP2 SLOAD ADD DUP1 DUP3 SSTORE DUP1 SWAP2 POP POP PUSH1 0x1 SWAP1 SUB SWAP1 PUSH1 0x0 MSTORE PUSH1 0x20 PUSH1 0x0 KECCAK256 SWAP1 PUSH1 0x2 MUL ADD PUSH1 0x0 SWAP1 SWAP2 SWAP1 SWAP2 SWAP1 SWAP2 POP PUSH1 0x0 DUP3 ADD MLOAD DUP2 PUSH1 0x0 ADD SWAP1 DUP2 PUSH2 0x37F SWAP2 SWAP1 PUSH2 0x945 JUMP JUMPDEST POP PUSH1 0x20 DUP3 ADD MLOAD DUP2 PUSH1 0x1 ADD PUSH1 0x0 PUSH2 0x100 EXP DUP2 SLOAD DUP2 PUSH1 0xFF MUL NOT AND SWAP1 DUP4 ISZERO ISZERO MUL OR SWAP1 SSTORE POP POP POP POP POP JUMP JUMPDEST PUSH1 0x0 DUP1 REVERT JUMPDEST PUSH1 0x0 DUP1 REVERT JUMPDEST PUSH1 0x0 DUP2 SWAP1 POP SWAP2 SWAP1 POP JUMP JUMPDEST PUSH2 0x3C3 DUP2 PUSH2 0x3B0 JUMP JUMPDEST DUP2 EQ PUSH2 0x3CE JUMPI PUSH1 0x0 DUP1 REVERT JUMPDEST POP JUMP JUMPDEST PUSH1 0x0 DUP2 CALLDATALOAD SWAP1 POP PUSH2 0x3E0 DUP2 PUSH2 0x3BA JUMP JUMPDEST SWAP3 SWAP2 POP POP JUMP JUMPDEST PUSH1 0x0 PUSH1 0x20 DUP3 DUP5 SUB SLT ISZERO PUSH2 0x3FC JUMPI PUSH2 0x3FB PUSH2 0x3A6 JUMP JUMPDEST JUMPDEST PUSH1 0x0 PUSH2 0x40A DUP5 DUP3 DUP6 ADD PUSH2 0x3D1 JUMP JUMPDEST SWAP2 POP POP SWAP3 SWAP2 POP POP JUMP JUMPDEST PUSH1 0x0 DUP2 MLOAD SWAP1 POP SWAP2 SWAP1 POP JUMP JUMPDEST PUSH1 0x0 DUP3 DUP3 MSTORE PUSH1 0x20 DUP3 ADD SWAP1 POP SWAP3 SWAP2 POP POP JUMP JUMPDEST PUSH1 0x0 JUMPDEST DUP4 DUP2 LT ISZERO PUSH2 0x44D JUMPI DUP1 DUP3 ADD MLOAD DUP2 DUP5 ADD MSTORE PUSH1 0x20 DUP2 ADD SWAP1 POP PUSH2 0x432 JUMP JUMPDEST PUSH1 0x0 DUP5 DUP5 ADD MSTORE POP POP POP POP JUMP JUMPDEST PUSH1 0x0 PUSH1 0x1F NOT PUSH1 0x1F DUP4 ADD AND SWAP1 POP SWAP2 SWAP1 POP JUMP JUMPDEST PUSH1 0x0 PUSH2 0x475 DUP3 PUSH2 0x413 JUMP JUMPDEST PUSH2 0x47F DUP2 DUP6 PUSH2 0x41E JUMP JUMPDEST SWAP4 POP PUSH2 0x48F DUP2 DUP6 PUSH1 0x20 DUP7 ADD PUSH2 0x42F JUMP JUMPDEST PUSH2 0x498 DUP2 PUSH2 0x459 JUMP JUMPDEST DUP5 ADD SWAP2 POP POP SWAP3 SWAP2 POP POP JUMP JUMPDEST PUSH1 0x0 DUP2 ISZERO ISZERO SWAP1 POP SWAP2 SWAP1 POP JUMP JUMPDEST PUSH2 0x4B8 DUP2 PUSH2 0x4A3 JUMP JUMPDEST DUP3 MSTORE POP POP JUMP JUMPDEST PUSH1 0x0 PUSH1 0x40 DUP3 ADD SWAP1 POP DUP2 DUP2 SUB PUSH1 0x0 DUP4 ADD MSTORE PUSH2 0x4D8 DUP2 DUP6 PUSH2 0x46A JUMP JUMPDEST SWAP1 POP PUSH2 0x4E7 PUSH1 0x20 DUP4 ADD DUP5 PUSH2 0x4AF JUMP JUMPDEST SWAP4 SWAP3 POP POP POP JUMP JUMPDEST PUSH1 0x0 DUP1 REVERT JUMPDEST PUSH1 0x0 DUP1 REVERT JUMPDEST PUSH1 0x0 DUP1 REVERT JUMPDEST PUSH1 0x0 DUP1 DUP4 PUSH1 0x1F DUP5 ADD SLT PUSH2 0x513 JUMPI PUSH2 0x512 PUSH2 0x4EE JUMP JUMPDEST JUMPDEST DUP3 CALLDATALOAD SWAP1 POP PUSH8 0xFFFFFFFFFFFFFFFF DUP2 GT ISZERO PUSH2 0x530 JUMPI PUSH2 0x52F PUSH2 0x4F3 JUMP JUMPDEST JUMPDEST PUSH1 0x20 DUP4 ADD SWAP2 POP DUP4 PUSH1 0x1 DUP3 MUL DUP4 ADD GT ISZERO PUSH2 0x54C JUMPI PUSH2 0x54B PUSH2 0x4F8 JUMP JUMPDEST JUMPDEST SWAP3 POP SWAP3 SWAP1 POP JUMP JUMPDEST PUSH1 0x0 DUP1 PUSH1 0x0 PUSH1 0x40 DUP5 DUP7 SUB SLT ISZERO PUSH2 0x56C JUMPI PUSH2 0x56B PUSH2 0x3A6 JUMP JUMPDEST JUMPDEST PUSH1 0x0 DUP5 ADD CALLDATALOAD PUSH8 0xFFFFFFFFFFFFFFFF DUP2 GT ISZERO PUSH2 0x58A JUMPI PUSH2 0x589 PUSH2 0x3AB JUMP JUMPDEST JUMPDEST PUSH2 0x596 DUP7 DUP3 DUP8 ADD PUSH2 0x4FD JUMP JUMPDEST SWAP4 POP SWAP4 POP POP PUSH1 0x20 PUSH2 0x5A9 DUP7 DUP3 DUP8 ADD PUSH2 0x3D1 JUMP JUMPDEST SWAP2 POP POP SWAP3 POP SWAP3 POP SWAP3 JUMP JUMPDEST PUSH1 0x0 DUP1 PUSH1 0x20 DUP4 DUP6 SUB SLT ISZERO PUSH2 0x5CA JUMPI PUSH2 0x5C9 PUSH2 0x3A6 JUMP JUMPDEST JUMPDEST PUSH1 0x0 DUP4 ADD CALLDATALOAD PUSH8 0xFFFFFFFFFFFFFFFF DUP2 GT ISZERO PUSH2 0x5E8 JUMPI PUSH2 0x5E7 PUSH2 0x3AB JUMP JUMPDEST JUMPDEST PUSH2 0x5F4 DUP6 DUP3 DUP7 ADD PUSH2 0x4FD JUMP JUMPDEST SWAP3 POP SWAP3 POP POP SWAP3 POP SWAP3 SWAP1 POP JUMP JUMPDEST PUSH32 0x4E487B7100000000000000000000000000000000000000000000000000000000 PUSH1 0x0 MSTORE PUSH1 0x32 PUSH1 0x4 MSTORE PUSH1 0x24 PUSH1 0x0 REVERT JUMPDEST PUSH32 0x4E487B7100000000000000000000000000000000000000000000000000000000 PUSH1 0x0 MSTORE PUSH1 0x22 PUSH1 0x4 MSTORE PUSH1 0x24 PUSH1 0x0 REVERT JUMPDEST PUSH1 0x0 PUSH1 0x2 DUP3 DIV SWAP1 POP PUSH1 0x1 DUP3 AND DUP1 PUSH2 0x676 JUMPI PUSH1 0x7F DUP3 AND SWAP2 POP JUMPDEST PUSH1 0x20 DUP3 LT DUP2 SUB PUSH2 0x689 JUMPI PUSH2 0x688 PUSH2 0x62F JUMP JUMPDEST JUMPDEST POP SWAP2 SWAP1 POP JUMP JUMPDEST PUSH1 0x0 DUP3 SWAP1 POP SWAP3 SWAP2 POP POP JUMP JUMPDEST PUSH32 0x4E487B7100000000000000000000000000000000000000000000000000000000 PUSH1 0x0 MSTORE PUSH1 0x41 PUSH1 0x4 MSTORE PUSH1 0x24 PUSH1 0x0 REVERT JUMPDEST PUSH1 0x0 DUP2 SWAP1 POP DUP2 PUSH1 0x0 MSTORE PUSH1 0x20 PUSH1 0x0 KECCAK256 SWAP1 POP SWAP2 SWAP1 POP JUMP JUMPDEST PUSH1 0x0 PUSH1 0x20 PUSH1 0x1F DUP4 ADD DIV SWAP1 POP SWAP2 SWAP1 POP JUMP JUMPDEST PUSH1 0x0 DUP3 DUP3 SHL SWAP1 POP SWAP3 SWAP2 POP POP JUMP JUMPDEST PUSH1 0x0 PUSH1 0x8 DUP4 MUL PUSH2 0x72B PUSH32 0xFFFFFFFFFFFFFFFFFFFFFFFFFFFFFFFFFFFFFFFFFFFFFFFFFFFFFFFFFFFFFFFF DUP3 PUSH2 0x6EE JUMP JUMPDEST PUSH2 0x735 DUP7 DUP4 PUSH2 0x6EE JUMP JUMPDEST SWAP6 POP DUP1 NOT DUP5 AND SWAP4 POP DUP1 DUP7 AND DUP5 OR SWAP3 POP POP POP SWAP4 SWAP3 POP POP POP JUMP JUMPDEST PUSH1 0x0 DUP2 SWAP1 POP SWAP2 SWAP1 POP JUMP JUMPDEST PUSH1 0x0 PUSH2 0x772 PUSH2 0x76D PUSH2 0x768 DUP5 PUSH2 0x3B0 JUMP JUMPDEST PUSH2 0x74D JUMP JUMPDEST PUSH2 0x3B0 JUMP JUMPDEST SWAP1 POP SWAP2 SWAP1 POP JUMP JUMPDEST PUSH1 0x0 DUP2 SWAP1 POP SWAP2 SWAP1 POP JUMP JUMPDEST PUSH2 0x78C DUP4 PUSH2 0x757 JUMP JUMPDEST PUSH2 0x7A0 PUSH2 0x798 DUP3 PUSH2 0x779 JUMP JUMPDEST DUP5 DUP5 SLOAD PUSH2 0x6FB JUMP JUMPDEST DUP3 SSTORE POP POP POP POP JUMP JUMPDEST PUSH1 0x0 SWAP1 JUMP JUMPDEST PUSH2 0x7B5 PUSH2 0x7A8 JUMP JUMPDEST PUSH2 0x7C0 DUP2 DUP5 DUP5 PUSH2 0x783 JUMP JUMPDEST POP POP POP JUMP JUMPDEST JUMPDEST DUP2 DUP2 LT ISZERO PUSH2 0x7E4 JUMPI PUSH2 0x7D9 PUSH1 0x0 DUP3 PUSH2 0x7AD JUMP JUMPDEST PUSH1 0x1 DUP2 ADD SWAP1 POP PUSH2 0x7C6 JUMP JUMPDEST POP POP JUMP JUMPDEST PUSH1 0x1F DUP3 GT ISZERO PUSH2 0x829 JUMPI PUSH2 0x7FA DUP2 PUSH2 0x6C9 JUMP JUMPDEST PUSH2 0x803 DUP5 PUSH2 0x6DE JUMP JUMPDEST DUP2 ADD PUSH1 0x20 DUP6 LT ISZERO PUSH2 0x812 JUMPI DUP2 SWAP1 POP JUMPDEST PUSH2 0x826 PUSH2 0x81E DUP6 PUSH2 0x6DE JUMP JUMPDEST DUP4 ADD DUP3 PUSH2 0x7C5 JUMP JUMPDEST POP POP JUMPDEST POP POP POP JUMP JUMPDEST PUSH1 0x0 DUP3 DUP3 SHR SWAP1 POP SWAP3 SWAP2 POP POP JUMP JUMPDEST PUSH1 0x0 PUSH2 0x84C PUSH1 0x0 NOT DUP5 PUSH1 0x8 MUL PUSH2 0x82E JUMP JUMPDEST NOT DUP1 DUP4 AND SWAP2 POP POP SWAP3 SWAP2 POP POP JUMP JUMPDEST PUSH1 0x0 PUSH2 0x865 DUP4 DUP4 PUSH2 0x83B JUMP JUMPDEST SWAP2 POP DUP3 PUSH1 0x2 MUL DUP3 OR SWAP1 POP SWAP3 SWAP2 POP POP JUMP JUMPDEST PUSH2 0x87F DUP4 DUP4 PUSH2 0x68F JUMP JUMPDEST PUSH8 0xFFFFFFFFFFFFFFFF DUP2 GT ISZERO PUSH2 0x898 JUMPI PUSH2 0x897 PUSH2 0x69A JUMP JUMPDEST JUMPDEST PUSH2 0x8A2 DUP3 SLOAD PUSH2 0x65E JUMP JUMPDEST PUSH2 0x8AD DUP3 DUP3 DUP6 PUSH2 0x7E8 JUMP JUMPDEST PUSH1 0x0 PUSH1 0x1F DUP4 GT PUSH1 0x1 DUP2 EQ PUSH2 0x8DC JUMPI PUSH1 0x0 DUP5 ISZERO PUSH2 0x8CA JUMPI DUP3 DUP8 ADD CALLDATALOAD SWAP1 POP JUMPDEST PUSH2 0x8D4 DUP6 DUP3 PUSH2 0x859 JUMP JUMPDEST DUP7 SSTORE POP PUSH2 0x93C JUMP JUMPDEST PUSH1 0x1F NOT DUP5 AND PUSH2 0x8EA DUP7 PUSH2 0x6C9 JUMP JUMPDEST PUSH1 0x0 JUMPDEST DUP3 DUP2 LT ISZERO PUSH2 0x912 JUMPI DUP5 DUP10 ADD CALLDATALOAD DUP3 SSTORE PUSH1 0x1 DUP3 ADD SWAP2 POP PUSH1 0x20 DUP6 ADD SWAP5 POP PUSH1 0x20 DUP2 ADD SWAP1 POP PUSH2 0x8ED JUMP JUMPDEST DUP7 DUP4 LT ISZERO PUSH2 0x92F JUMPI DUP5 DUP10 ADD CALLDATALOAD PUSH2 0x92B PUSH1 0x1F DUP10 AND DUP3 PUSH2 0x83B JUMP JUMPDEST DUP4 SSTORE POP JUMPDEST PUSH1 0x1 PUSH1 0x2 DUP9 MUL ADD DUP9 SSTORE POP POP POP JUMPDEST POP POP POP POP POP POP POP JUMP JUMPDEST PUSH2 0x94E DUP3 PUSH2 0x413 JUMP JUMPDEST PUSH8 0xFFFFFFFFFFFFFFFF DUP2 GT ISZERO PUSH2 0x967 JUMPI PUSH2 0x966 PUSH2 0x69A JUMP JUMPDEST JUMPDEST PUSH2 0x971 DUP3 SLOAD PUSH2 0x65E JUMP JUMPDEST PUSH2 0x97C DUP3 DUP3 DUP6 PUSH2 0x7E8 JUMP JUMPDEST PUSH1 0x0 PUSH1 0x20 SWAP1 POP PUSH1 0x1F DUP4 GT PUSH1 0x1 DUP2 EQ PUSH2 0x9AF JUMPI PUSH1 0x0 DUP5 ISZERO PUSH2 0x99D JUMPI DUP3 DUP8 ADD MLOAD SWAP1 POP JUMPDEST PUSH2 0x9A7 DUP6 DUP3 PUSH2 0x859 JUMP JUMPDEST DUP7 SSTORE POP PUSH2 0xA0F JUMP JUMPDEST PUSH1 0x1F NOT DUP5 AND PUSH2 0x9BD DUP7 PUSH2 0x6C9 JUMP JUMPDEST PUSH1 0x0 JUMPDEST DUP3 DUP2 LT ISZERO PUSH2 0x9E5 JUMPI DUP5 DUP10 ADD MLOAD DUP3 SSTORE PUSH1 0x1 DUP3 ADD SWAP2 POP PUSH1 0x20 DUP6 ADD SWAP5 POP PUSH1 0x20 DUP2 ADD SWAP1 POP PUSH2 0x9C0 JUMP JUMPDEST DUP7 DUP4 LT ISZERO PUSH2 0xA02 JUMPI DUP5 DUP10 ADD MLOAD PUSH2 0x9FE PUSH1 0x1F DUP10 AND DUP3 PUSH2 0x83B JUMP JUMPDEST DUP4 SSTORE POP JUMPDEST PUSH1 0x1 PUSH1 0x2 DUP9 MUL ADD DUP9 SSTORE POP POP POP JUMPDEST POP POP POP POP POP POP JUMP INVALID LOG2 PUSH5 0x6970667358 0x22 SLT KECCAK256 0xD INVALID XOR 0xBE 0x49 0xD5 BALANCE 0xC2 0xC7 SLOAD PUSH22 0x13201F23B091E16087E026BE3BB3B48D5FFACEDD0564 PUSH20 0x6F6C634300081200330000000000000000000000 "
				},
				"gasEstimates": {
					"creation": {
						"codeDepositCost": "527400",
						"executionCost": "562",
						"totalCost": "527962"
					},
					"external": {
						"create(string)": "infinite",
						"getData(uint256)": "infinite",
						"todo(uint256)": "infinite",
						"updateTodo(string,uint256)": "infinite"
					}
				},
				"methodIdentifiers": {
					"create(string)": "b6a46b3b",
					"getData(uint256)": "0178fe3f",
					"todo(uint256)": "89b5aadd",
					"updateTodo(string,uint256)": "1a784ed4"
				}
			},
			"storageLayout": {
				"storage": [
					{
						"astId": 10,
						"contract": "contracts/todolist.sol:Todo",
						"label": "todo",
						"offset": 0,
						"slot": "0",
						"type": "t_array(t_struct(ToDo)6_storage)dyn_storage"
					}
				],
				"types": {
					"t_array(t_struct(ToDo)6_storage)dyn_storage": {
						"base": "t_struct(ToDo)6_storage",
						"encoding": "dynamic_array",
						"label": "struct Todo.ToDo[]",
						"numberOfBytes": "32"
					},
					"t_bool": {
						"encoding": "inplace",
						"label": "bool",
						"numberOfBytes": "1"
					},
					"t_string_storage": {
						"encoding": "bytes",
						"label": "string",
						"numberOfBytes": "32"
					},
					"t_struct(ToDo)6_storage": {
						"encoding": "inplace",
						"label": "struct Todo.ToDo",
						"members": [
							{
								"astId": 3,
								"contract": "contracts/todolist.sol:Todo",
								"label": "text",
								"offset": 0,
								"slot": "0",
								"type": "t_string_storage"
							},
							{
								"astId": 5,
								"contract": "contracts/todolist.sol:Todo",
								"label": "status",
								"offset": 0,
								"slot": "1",
								"type": "t_bool"
							}
						],
						"numberOfBytes": "64"
					}
				}
			},
			"userdoc": {
				"kind": "user",
				"methods": {},
				"version": 1
			}
		}
	}
}