{
	"contracts/prop.sol": {
		"Property": {
			"abi": [
				{
					"inputs": [
						{
							"internalType": "uint256",
							"name": "_maxLand",
							"type": "uint256"
						},
						{
							"internalType": "uint256",
							"name": "_maxAnnualIncome",
							"type": "uint256"
						}
					],
					"stateMutability": "nonpayable",
					"type": "constructor"
				},
				{
					"inputs": [
						{
							"internalType": "address",
							"name": "_add",
							"type": "address"
						},
						{
							"internalType": "uint256",
							"name": "_land",
							"type": "uint256"
						}
					],
					"name": "buyLand",
					"outputs": [],
					"stateMutability": "nonpayable",
					"type": "function"
				},
				{
					"inputs": [],
					"name": "contractowner",
					"outputs": [
						{
							"internalType": "address",
							"name": "",
							"type": "address"
						}
					],
					"stateMutability": "view",
					"type": "function"
				},
				{
					"inputs": [
						{
							"internalType": "address",
							"name": "_add",
							"type": "address"
						}
					],
					"name": "eligible",
					"outputs": [
						{
							"internalType": "string",
							"name": "",
							"type": "string"
						}
					],
					"stateMutability": "view",
					"type": "function"
				},
				{
					"inputs": [
						{
							"internalType": "address",
							"name": "_add",
							"type": "address"
						}
					],
					"name": "get",
					"outputs": [
						{
							"internalType": "string",
							"name": "_name",
							"type": "string"
						},
						{
							"internalType": "string",
							"name": "_owner",
							"type": "string"
						},
						{
							"internalType": "uint256",
							"name": "_annualIncome",
							"type": "uint256"
						},
						{
							"internalType": "uint256",
							"name": "_totalLand",
							"type": "uint256"
						}
					],
					"stateMutability": "view",
					"type": "function"
				},
				{
					"inputs": [
						{
							"internalType": "address",
							"name": "",
							"type": "address"
						}
					],
					"name": "property",
					"outputs": [
						{
							"internalType": "string",
							"name": "name",
							"type": "string"
						},
						{
							"internalType": "uint256",
							"name": "totalLand",
							"type": "uint256"
						},
						{
							"internalType": "uint256",
							"name": "annualIncome",
							"type": "uint256"
						},
						{
							"internalType": "string",
							"name": "owner",
							"type": "string"
						}
					],
					"stateMutability": "view",
					"type": "function"
				},
				{
					"inputs": [
						{
							"internalType": "address",
							"name": "_add",
							"type": "address"
						},
						{
							"internalType": "string",
							"name": "_name",
							"type": "string"
						},
						{
							"internalType": "string",
							"name": "_owner",
							"type": "string"
						},
						{
							"internalType": "uint256",
							"name": "annualIncome",
							"type": "uint256"
						},
						{
							"internalType": "uint256",
							"name": "totalLand",
							"type": "uint256"
						}
					],
					"name": "set",
					"outputs": [],
					"stateMutability": "nonpayable",
					"type": "function"
				},
				{
					"inputs": [
						{
							"internalType": "address",
							"name": "_add",
							"type": "address"
						},
						{
							"internalType": "address",
							"name": "_to",
							"type": "address"
						},
						{
							"internalType": "uint256",
							"name": "_land",
							"type": "uint256"
						},
						{
							"internalType": "uint256",
							"name": "_income",
							"type": "uint256"
						},
						{
							"internalType": "string",
							"name": "_newname",
							"type": "string"
						}
					],
					"name": "transfer",
					"outputs": [],
					"stateMutability": "nonpayable",
					"type": "function"
				}
			],
			"devdoc": {
				"kind": "dev",
				"methods": {},
				"version": 1
			},
			"evm": {
				"assembly": "    /* \"contracts/prop.sol\":57:2395  contract Property{... */\n  mstore(0x40, 0x80)\n    /* \"contracts/prop.sol\":171:338  constructor(uint _maxLand,uint _maxAnnualIncome){... */\n  callvalue\n  dup1\n  iszero\n  tag_1\n  jumpi\n  0x00\n  dup1\n  revert\ntag_1:\n  pop\n  mload(0x40)\n  sub(codesize, bytecodeSize)\n  dup1\n  bytecodeSize\n  dup4\n  codecopy\n  dup2\n  dup2\n  add\n  0x40\n  mstore\n  dup2\n  add\n  swap1\n  tag_2\n  swap2\n  swap1\n  tag_3\n  jump\t// in\ntag_2:\n    /* \"contracts/prop.sol\":246:256  msg.sender */\n  caller\n    /* \"contracts/prop.sol\":230:243  contractowner */\n  0x00\n  dup1\n    /* \"contracts/prop.sol\":230:256  contractowner = msg.sender */\n  0x0100\n  exp\n  dup2\n  sload\n  dup2\n  0xffffffffffffffffffffffffffffffffffffffff\n  mul\n  not\n  and\n  swap1\n  dup4\n  0xffffffffffffffffffffffffffffffffffffffff\n  and\n  mul\n  or\n  swap1\n  sstore\n  pop\n    /* \"contracts/prop.sol\":277:285  _maxLand */\n  dup2\n    /* \"contracts/prop.sol\":267:274  maxLand */\n  0x01\n    /* \"contracts/prop.sol\":267:285  maxLand = _maxLand */\n  dup2\n  swap1\n  sstore\n  pop\n    /* \"contracts/prop.sol\":314:330  _maxAnnualIncome */\n  dup1\n    /* \"contracts/prop.sol\":296:311  maxAnnualIncome */\n  0x02\n    /* \"contracts/prop.sol\":296:330  maxAnnualIncome = _maxAnnualIncome */\n  dup2\n  swap1\n  sstore\n  pop\n    /* \"contracts/prop.sol\":171:338  constructor(uint _maxLand,uint _maxAnnualIncome){... */\n  pop\n  pop\n    /* \"contracts/prop.sol\":57:2395  contract Property{... */\n  jump(tag_6)\n    /* \"#utility.yul\":88:205   */\ntag_8:\n    /* \"#utility.yul\":197:198   */\n  0x00\n    /* \"#utility.yul\":194:195   */\n  dup1\n    /* \"#utility.yul\":187:199   */\n  revert\n    /* \"#utility.yul\":334:411   */\ntag_10:\n    /* \"#utility.yul\":371:378   */\n  0x00\n    /* \"#utility.yul\":400:405   */\n  dup2\n    /* \"#utility.yul\":389:405   */\n  swap1\n  pop\n    /* \"#utility.yul\":334:411   */\n  swap2\n  swap1\n  pop\n  jump\t// out\n    /* \"#utility.yul\":417:539   */\ntag_11:\n    /* \"#utility.yul\":490:514   */\n  tag_19\n    /* \"#utility.yul\":508:513   */\n  dup2\n    /* \"#utility.yul\":490:514   */\n  tag_10\n  jump\t// in\ntag_19:\n    /* \"#utility.yul\":483:488   */\n  dup2\n    /* \"#utility.yul\":480:515   */\n  eq\n    /* \"#utility.yul\":470:533   */\n  tag_20\n  jumpi\n    /* \"#utility.yul\":529:530   */\n  0x00\n    /* \"#utility.yul\":526:527   */\n  dup1\n    /* \"#utility.yul\":519:531   */\n  revert\n    /* \"#utility.yul\":470:533   */\ntag_20:\n    /* \"#utility.yul\":417:539   */\n  pop\n  jump\t// out\n    /* \"#utility.yul\":545:688   */\ntag_12:\n    /* \"#utility.yul\":602:607   */\n  0x00\n    /* \"#utility.yul\":633:639   */\n  dup2\n    /* \"#utility.yul\":627:640   */\n  mload\n    /* \"#utility.yul\":618:640   */\n  swap1\n  pop\n    /* \"#utility.yul\":649:682   */\n  tag_22\n    /* \"#utility.yul\":676:681   */\n  dup2\n    /* \"#utility.yul\":649:682   */\n  tag_11\n  jump\t// in\ntag_22:\n    /* \"#utility.yul\":545:688   */\n  swap3\n  swap2\n  pop\n  pop\n  jump\t// out\n    /* \"#utility.yul\":694:1201   */\ntag_3:\n    /* \"#utility.yul\":773:779   */\n  0x00\n    /* \"#utility.yul\":781:787   */\n  dup1\n    /* \"#utility.yul\":830:832   */\n  0x40\n    /* \"#utility.yul\":818:827   */\n  dup4\n    /* \"#utility.yul\":809:816   */\n  dup6\n    /* \"#utility.yul\":805:828   */\n  sub\n    /* \"#utility.yul\":801:833   */\n  slt\n    /* \"#utility.yul\":798:917   */\n  iszero\n  tag_24\n  jumpi\n    /* \"#utility.yul\":836:915   */\n  tag_25\n  tag_8\n  jump\t// in\ntag_25:\n    /* \"#utility.yul\":798:917   */\ntag_24:\n    /* \"#utility.yul\":956:957   */\n  0x00\n    /* \"#utility.yul\":981:1045   */\n  tag_26\n    /* \"#utility.yul\":1037:1044   */\n  dup6\n    /* \"#utility.yul\":1028:1034   */\n  dup3\n    /* \"#utility.yul\":1017:1026   */\n  dup7\n    /* \"#utility.yul\":1013:1035   */\n  add\n    /* \"#utility.yul\":981:1045   */\n  tag_12\n  jump\t// in\ntag_26:\n    /* \"#utility.yul\":971:1045   */\n  swap3\n  pop\n    /* \"#utility.yul\":927:1055   */\n  pop\n    /* \"#utility.yul\":1094:1096   */\n  0x20\n    /* \"#utility.yul\":1120:1184   */\n  tag_27\n    /* \"#utility.yul\":1176:1183   */\n  dup6\n    /* \"#utility.yul\":1167:1173   */\n  dup3\n    /* \"#utility.yul\":1156:1165   */\n  dup7\n    /* \"#utility.yul\":1152:1174   */\n  add\n    /* \"#utility.yul\":1120:1184   */\n  tag_12\n  jump\t// in\ntag_27:\n    /* \"#utility.yul\":1110:1184   */\n  swap2\n  pop\n    /* \"#utility.yul\":1065:1194   */\n  pop\n    /* \"#utility.yul\":694:1201   */\n  swap3\n  pop\n  swap3\n  swap1\n  pop\n  jump\t// out\n    /* \"contracts/prop.sol\":57:2395  contract Property{... */\ntag_6:\n  dataSize(sub_0)\n  dup1\n  dataOffset(sub_0)\n  0x00\n  codecopy\n  0x00\n  return\nstop\n\nsub_0: assembly {\n        /* \"contracts/prop.sol\":57:2395  contract Property{... */\n      mstore(0x40, 0x80)\n      callvalue\n      dup1\n      iszero\n      tag_1\n      jumpi\n      0x00\n      dup1\n      revert\n    tag_1:\n      pop\n      jumpi(tag_2, lt(calldatasize, 0x04))\n      shr(0xe0, calldataload(0x00))\n      dup1\n      0x9dedfc70\n      gt\n      tag_10\n      jumpi\n      dup1\n      0x9dedfc70\n      eq\n      tag_6\n      jumpi\n      dup1\n      0xb4aa4d0d\n      eq\n      tag_7\n      jumpi\n      dup1\n      0xc2bc2efc\n      eq\n      tag_8\n      jumpi\n      dup1\n      0xf5c2b123\n      eq\n      tag_9\n      jumpi\n      jump(tag_2)\n    tag_10:\n      dup1\n      0x0713b139\n      eq\n      tag_3\n      jumpi\n      dup1\n      0x6098c94c\n      eq\n      tag_4\n      jumpi\n      dup1\n      0x8f77e230\n      eq\n      tag_5\n      jumpi\n    tag_2:\n      0x00\n      dup1\n      revert\n        /* \"contracts/prop.sol\":1783:2390  function eligible(address _add) public view returns(string memory){... */\n    tag_3:\n      tag_11\n      0x04\n      dup1\n      calldatasize\n      sub\n      dup2\n      add\n      swap1\n      tag_12\n      swap2\n      swap1\n      tag_13\n      jump\t// in\n    tag_12:\n      tag_14\n      jump\t// in\n    tag_11:\n      mload(0x40)\n      tag_15\n      swap2\n      swap1\n      tag_16\n      jump\t// in\n    tag_15:\n      mload(0x40)\n      dup1\n      swap2\n      sub\n      swap1\n      return\n        /* \"contracts/prop.sol\":81:109  address public contractowner */\n    tag_4:\n      tag_17\n      tag_18\n      jump\t// in\n    tag_17:\n      mload(0x40)\n      tag_19\n      swap2\n      swap1\n      tag_20\n      jump\t// in\n    tag_19:\n      mload(0x40)\n      dup1\n      swap2\n      sub\n      swap1\n      return\n        /* \"contracts/prop.sol\":1214:1372  function buyLand(address _add,uint _land) public {... */\n    tag_5:\n      tag_21\n      0x04\n      dup1\n      calldatasize\n      sub\n      dup2\n      add\n      swap1\n      tag_22\n      swap2\n      swap1\n      tag_23\n      jump\t// in\n    tag_22:\n      tag_24\n      jump\t// in\n    tag_21:\n      stop\n        /* \"contracts/prop.sol\":1378:1777  function transfer(address _add,address _to,uint _land,uint _income,string memory _newname) public{... */\n    tag_6:\n      tag_25\n      0x04\n      dup1\n      calldatasize\n      sub\n      dup2\n      add\n      swap1\n      tag_26\n      swap2\n      swap1\n      tag_27\n      jump\t// in\n    tag_26:\n      tag_28\n      jump\t// in\n    tag_25:\n      stop\n        /* \"contracts/prop.sol\":625:918  function set(address _add,string memory _name,string memory _owner, uint annualIncome,uint totalLand) public{... */\n    tag_7:\n      tag_29\n      0x04\n      dup1\n      calldatasize\n      sub\n      dup2\n      add\n      swap1\n      tag_30\n      swap2\n      swap1\n      tag_31\n      jump\t// in\n    tag_30:\n      tag_32\n      jump\t// in\n    tag_29:\n      stop\n        /* \"contracts/prop.sol\":924:1208  function get(address _add) public  view returns(string memory _name,string memory _owner,uint _annualIncome,uint _totalLand){... */\n    tag_8:\n      tag_33\n      0x04\n      dup1\n      calldatasize\n      sub\n      dup2\n      add\n      swap1\n      tag_34\n      swap2\n      swap1\n      tag_13\n      jump\t// in\n    tag_34:\n      tag_35\n      jump\t// in\n    tag_33:\n      mload(0x40)\n      tag_36\n      swap5\n      swap4\n      swap3\n      swap2\n      swap1\n      tag_37\n      jump\t// in\n    tag_36:\n      mload(0x40)\n      dup1\n      swap2\n      sub\n      swap1\n      return\n        /* \"contracts/prop.sol\":578:618  mapping(address => Land) public property */\n    tag_9:\n      tag_38\n      0x04\n      dup1\n      calldatasize\n      sub\n      dup2\n      add\n      swap1\n      tag_39\n      swap2\n      swap1\n      tag_13\n      jump\t// in\n    tag_39:\n      tag_40\n      jump\t// in\n    tag_38:\n      mload(0x40)\n      tag_41\n      swap5\n      swap4\n      swap3\n      swap2\n      swap1\n      tag_42\n      jump\t// in\n    tag_41:\n      mload(0x40)\n      dup1\n      swap2\n      sub\n      swap1\n      return\n        /* \"contracts/prop.sol\":1783:2390  function eligible(address _add) public view returns(string memory){... */\n    tag_14:\n        /* \"contracts/prop.sol\":1835:1848  string memory */\n      0x60\n        /* \"contracts/prop.sol\":1892:1899  maxLand */\n      sload(0x01)\n        /* \"contracts/prop.sol\":1864:1872  property */\n      0x03\n        /* \"contracts/prop.sol\":1864:1878  property[_add] */\n      0x00\n        /* \"contracts/prop.sol\":1873:1877  _add */\n      dup5\n        /* \"contracts/prop.sol\":1864:1878  property[_add] */\n      0xffffffffffffffffffffffffffffffffffffffff\n      and\n      0xffffffffffffffffffffffffffffffffffffffff\n      and\n      dup2\n      mstore\n      0x20\n      add\n      swap1\n      dup2\n      mstore\n      0x20\n      add\n      0x00\n      keccak256\n        /* \"contracts/prop.sol\":1864:1888  property[_add].totalLand */\n      0x01\n      add\n      sload\n        /* \"contracts/prop.sol\":1864:1899  property[_add].totalLand <= maxLand */\n      gt\n        /* \"contracts/prop.sol\":1861:2383  if(property[_add].totalLand <= maxLand){  //\"Your Land is greater than required\");... */\n      tag_44\n      jumpi\n        /* \"contracts/prop.sol\":1992:2007  maxAnnualIncome */\n      sload(0x02)\n        /* \"contracts/prop.sol\":1961:1969  property */\n      0x03\n        /* \"contracts/prop.sol\":1961:1975  property[_add] */\n      0x00\n        /* \"contracts/prop.sol\":1970:1974  _add */\n      dup5\n        /* \"contracts/prop.sol\":1961:1975  property[_add] */\n      0xffffffffffffffffffffffffffffffffffffffff\n      and\n      0xffffffffffffffffffffffffffffffffffffffff\n      and\n      dup2\n      mstore\n      0x20\n      add\n      swap1\n      dup2\n      mstore\n      0x20\n      add\n      0x00\n      keccak256\n        /* \"contracts/prop.sol\":1961:1988  property[_add].annualIncome */\n      0x02\n      add\n      sload\n        /* \"contracts/prop.sol\":1961:2007  property[_add].annualIncome <= maxAnnualIncome */\n      gt\n        /* \"contracts/prop.sol\":1958:2248  if(property[_add].annualIncome <= maxAnnualIncome){ //\"Your income is greater than maxAnnualincome\");... */\n      tag_45\n      jumpi\n        /* \"contracts/prop.sol\":2079:2107  return (\"Your are Eligible\") */\n      mload(0x40)\n      dup1\n      0x40\n      add\n      0x40\n      mstore\n      dup1\n      0x11\n      dup2\n      mstore\n      0x20\n      add\n      0x596f75722061726520456c696769626c65000000000000000000000000000000\n      dup2\n      mstore\n      pop\n      swap1\n      pop\n      jump(tag_43)\n        /* \"contracts/prop.sol\":1958:2248  if(property[_add].annualIncome <= maxAnnualIncome){ //\"Your income is greater than maxAnnualincome\");... */\n    tag_45:\n        /* \"contracts/prop.sol\":2164:2231  return \"Your income is greater than required, You are not Eligible\" */\n      mload(0x40)\n      dup1\n      0x60\n      add\n      0x40\n      mstore\n      dup1\n      0x3a\n      dup2\n      mstore\n      0x20\n      add\n      data_0ca2f15729f69752c2b5125de0bdc304f054fa14900921cf98bd51c3c741ab45\n      0x3a\n      swap2\n      codecopy\n      swap1\n      pop\n      jump(tag_43)\n        /* \"contracts/prop.sol\":1861:2383  if(property[_add].totalLand <= maxLand){  //\"Your Land is greater than required\");... */\n    tag_44:\n        /* \"contracts/prop.sol\":2305:2370  return \"Your land is greater than required, You are not Eligible\" */\n      mload(0x40)\n      dup1\n      0x60\n      add\n      0x40\n      mstore\n      dup1\n      0x38\n      dup2\n      mstore\n      0x20\n      add\n      data_d8870fa02eff567749f02e3637269613d5d1b227d5ea4a83fa1bc2c2cacd158d\n      0x38\n      swap2\n      codecopy\n      swap1\n      pop\n        /* \"contracts/prop.sol\":1783:2390  function eligible(address _add) public view returns(string memory){... */\n    tag_43:\n      swap2\n      swap1\n      pop\n      jump\t// out\n        /* \"contracts/prop.sol\":81:109  address public contractowner */\n    tag_18:\n      0x00\n      dup1\n      sload\n      swap1\n      0x0100\n      exp\n      swap1\n      div\n      0xffffffffffffffffffffffffffffffffffffffff\n      and\n      dup2\n      jump\t// out\n        /* \"contracts/prop.sol\":1214:1372  function buyLand(address _add,uint _land) public {... */\n    tag_24:\n        /* \"contracts/prop.sol\":1302:1307  _land */\n      dup1\n        /* \"contracts/prop.sol\":1274:1282  property */\n      0x03\n        /* \"contracts/prop.sol\":1274:1288  property[_add] */\n      0x00\n        /* \"contracts/prop.sol\":1283:1287  _add */\n      dup5\n        /* \"contracts/prop.sol\":1274:1288  property[_add] */\n      0xffffffffffffffffffffffffffffffffffffffff\n      and\n      0xffffffffffffffffffffffffffffffffffffffff\n      and\n      dup2\n      mstore\n      0x20\n      add\n      swap1\n      dup2\n      mstore\n      0x20\n      add\n      0x00\n      keccak256\n        /* \"contracts/prop.sol\":1274:1298  property[_add].totalLand */\n      0x01\n      add\n      0x00\n        /* \"contracts/prop.sol\":1274:1307  property[_add].totalLand += _land */\n      dup3\n      dup3\n      sload\n      tag_49\n      swap2\n      swap1\n      tag_50\n      jump\t// in\n    tag_49:\n      swap3\n      pop\n      pop\n      dup2\n      swap1\n      sstore\n      pop\n        /* \"contracts/prop.sol\":1214:1372  function buyLand(address _add,uint _land) public {... */\n      pop\n      pop\n      jump\t// out\n        /* \"contracts/prop.sol\":1378:1777  function transfer(address _add,address _to,uint _land,uint _income,string memory _newname) public{... */\n    tag_28:\n        /* \"contracts/prop.sol\":1521:1526  _land */\n      dup3\n        /* \"contracts/prop.sol\":1494:1502  property */\n      0x03\n        /* \"contracts/prop.sol\":1494:1508  property[_add] */\n      0x00\n        /* \"contracts/prop.sol\":1503:1507  _add */\n      dup8\n        /* \"contracts/prop.sol\":1494:1508  property[_add] */\n      0xffffffffffffffffffffffffffffffffffffffff\n      and\n      0xffffffffffffffffffffffffffffffffffffffff\n      and\n      dup2\n      mstore\n      0x20\n      add\n      swap1\n      dup2\n      mstore\n      0x20\n      add\n      0x00\n      keccak256\n        /* \"contracts/prop.sol\":1494:1518  property[_add].totalLand */\n      0x01\n      add\n      sload\n        /* \"contracts/prop.sol\":1494:1526  property[_add].totalLand > _land */\n      gt\n        /* \"contracts/prop.sol\":1486:1570  require(property[_add].totalLand > _land, \"You have no sufficient land to transfer\") */\n      tag_52\n      jumpi\n      mload(0x40)\n      0x08c379a000000000000000000000000000000000000000000000000000000000\n      dup2\n      mstore\n      0x04\n      add\n      tag_53\n      swap1\n      tag_54\n      jump\t// in\n    tag_53:\n      mload(0x40)\n      dup1\n      swap2\n      sub\n      swap1\n      revert\n    tag_52:\n        /* \"contracts/prop.sol\":1609:1614  _land */\n      dup3\n        /* \"contracts/prop.sol\":1581:1589  property */\n      0x03\n        /* \"contracts/prop.sol\":1581:1595  property[_add] */\n      0x00\n        /* \"contracts/prop.sol\":1590:1594  _add */\n      dup8\n        /* \"contracts/prop.sol\":1581:1595  property[_add] */\n      0xffffffffffffffffffffffffffffffffffffffff\n      and\n      0xffffffffffffffffffffffffffffffffffffffff\n      and\n      dup2\n      mstore\n      0x20\n      add\n      swap1\n      dup2\n      mstore\n      0x20\n      add\n      0x00\n      keccak256\n        /* \"contracts/prop.sol\":1581:1605  property[_add].totalLand */\n      0x01\n      add\n      0x00\n        /* \"contracts/prop.sol\":1581:1614  property[_add].totalLand -= _land */\n      dup3\n      dup3\n      sload\n      tag_55\n      swap2\n      swap1\n      tag_56\n      jump\t// in\n    tag_55:\n      swap3\n      pop\n      pop\n      dup2\n      swap1\n      sstore\n      pop\n        /* \"contracts/prop.sol\":1652:1657  _land */\n      dup3\n        /* \"contracts/prop.sol\":1625:1633  property */\n      0x03\n        /* \"contracts/prop.sol\":1625:1638  property[_to] */\n      0x00\n        /* \"contracts/prop.sol\":1634:1637  _to */\n      dup7\n        /* \"contracts/prop.sol\":1625:1638  property[_to] */\n      0xffffffffffffffffffffffffffffffffffffffff\n      and\n      0xffffffffffffffffffffffffffffffffffffffff\n      and\n      dup2\n      mstore\n      0x20\n      add\n      swap1\n      dup2\n      mstore\n      0x20\n      add\n      0x00\n      keccak256\n        /* \"contracts/prop.sol\":1625:1648  property[_to].totalLand */\n      0x01\n      add\n      0x00\n        /* \"contracts/prop.sol\":1625:1657  property[_to].totalLand += _land */\n      dup3\n      dup3\n      sload\n      tag_57\n      swap2\n      swap1\n      tag_50\n      jump\t// in\n    tag_57:\n      swap3\n      pop\n      pop\n      dup2\n      swap1\n      sstore\n      pop\n        /* \"contracts/prop.sol\":1692:1700  _newname */\n      dup1\n        /* \"contracts/prop.sol\":1669:1677  property */\n      0x03\n        /* \"contracts/prop.sol\":1669:1683  property[_add] */\n      0x00\n        /* \"contracts/prop.sol\":1678:1682  _add */\n      dup8\n        /* \"contracts/prop.sol\":1669:1683  property[_add] */\n      0xffffffffffffffffffffffffffffffffffffffff\n      and\n      0xffffffffffffffffffffffffffffffffffffffff\n      and\n      dup2\n      mstore\n      0x20\n      add\n      swap1\n      dup2\n      mstore\n      0x20\n      add\n      0x00\n      keccak256\n        /* \"contracts/prop.sol\":1669:1689  property[_add].owner */\n      0x03\n      add\n        /* \"contracts/prop.sol\":1669:1700  property[_add].owner = _newname */\n      swap1\n      dup2\n      tag_58\n      swap2\n      swap1\n      tag_59\n      jump\t// in\n    tag_58:\n      pop\n        /* \"contracts/prop.sol\":1742:1749  _income */\n      dup2\n        /* \"contracts/prop.sol\":1711:1719  property */\n      0x03\n        /* \"contracts/prop.sol\":1711:1725  property[_add] */\n      0x00\n        /* \"contracts/prop.sol\":1720:1724  _add */\n      dup8\n        /* \"contracts/prop.sol\":1711:1725  property[_add] */\n      0xffffffffffffffffffffffffffffffffffffffff\n      and\n      0xffffffffffffffffffffffffffffffffffffffff\n      and\n      dup2\n      mstore\n      0x20\n      add\n      swap1\n      dup2\n      mstore\n      0x20\n      add\n      0x00\n      keccak256\n        /* \"contracts/prop.sol\":1711:1738  property[_add].annualIncome */\n      0x02\n      add\n      0x00\n        /* \"contracts/prop.sol\":1711:1749  property[_add].annualIncome -= _income */\n      dup3\n      dup3\n      sload\n      tag_60\n      swap2\n      swap1\n      tag_56\n      jump\t// in\n    tag_60:\n      swap3\n      pop\n      pop\n      dup2\n      swap1\n      sstore\n      pop\n        /* \"contracts/prop.sol\":1378:1777  function transfer(address _add,address _to,uint _land,uint _income,string memory _newname) public{... */\n      pop\n      pop\n      pop\n      pop\n      pop\n      jump\t// out\n        /* \"contracts/prop.sol\":625:918  function set(address _add,string memory _name,string memory _owner, uint annualIncome,uint totalLand) public{... */\n    tag_32:\n        /* \"contracts/prop.sol\":766:771  _name */\n      dup4\n        /* \"contracts/prop.sol\":744:752  property */\n      0x03\n        /* \"contracts/prop.sol\":744:758  property[_add] */\n      0x00\n        /* \"contracts/prop.sol\":753:757  _add */\n      dup8\n        /* \"contracts/prop.sol\":744:758  property[_add] */\n      0xffffffffffffffffffffffffffffffffffffffff\n      and\n      0xffffffffffffffffffffffffffffffffffffffff\n      and\n      dup2\n      mstore\n      0x20\n      add\n      swap1\n      dup2\n      mstore\n      0x20\n      add\n      0x00\n      keccak256\n        /* \"contracts/prop.sol\":744:763  property[_add].name */\n      0x00\n      add\n        /* \"contracts/prop.sol\":744:771  property[_add].name = _name */\n      swap1\n      dup2\n      tag_62\n      swap2\n      swap1\n      tag_59\n      jump\t// in\n    tag_62:\n      pop\n        /* \"contracts/prop.sol\":804:810  _owner */\n      dup3\n        /* \"contracts/prop.sol\":782:790  property */\n      0x03\n        /* \"contracts/prop.sol\":782:796  property[_add] */\n      0x00\n        /* \"contracts/prop.sol\":791:795  _add */\n      dup8\n        /* \"contracts/prop.sol\":782:796  property[_add] */\n      0xffffffffffffffffffffffffffffffffffffffff\n      and\n      0xffffffffffffffffffffffffffffffffffffffff\n      and\n      dup2\n      mstore\n      0x20\n      add\n      swap1\n      dup2\n      mstore\n      0x20\n      add\n      0x00\n      keccak256\n        /* \"contracts/prop.sol\":782:802  property[_add].owner */\n      0x03\n      add\n        /* \"contracts/prop.sol\":782:810  property[_add].owner= _owner */\n      swap1\n      dup2\n      tag_63\n      swap2\n      swap1\n      tag_59\n      jump\t// in\n    tag_63:\n      pop\n        /* \"contracts/prop.sol\":851:863  annualIncome */\n      dup2\n        /* \"contracts/prop.sol\":821:829  property */\n      0x03\n        /* \"contracts/prop.sol\":821:835  property[_add] */\n      0x00\n        /* \"contracts/prop.sol\":830:834  _add */\n      dup8\n        /* \"contracts/prop.sol\":821:835  property[_add] */\n      0xffffffffffffffffffffffffffffffffffffffff\n      and\n      0xffffffffffffffffffffffffffffffffffffffff\n      and\n      dup2\n      mstore\n      0x20\n      add\n      swap1\n      dup2\n      mstore\n      0x20\n      add\n      0x00\n      keccak256\n        /* \"contracts/prop.sol\":821:848  property[_add].annualIncome */\n      0x02\n      add\n        /* \"contracts/prop.sol\":821:863  property[_add].annualIncome = annualIncome */\n      dup2\n      swap1\n      sstore\n      pop\n        /* \"contracts/prop.sol\":901:910  totalLand */\n      dup1\n        /* \"contracts/prop.sol\":874:882  property */\n      0x03\n        /* \"contracts/prop.sol\":874:888  property[_add] */\n      0x00\n        /* \"contracts/prop.sol\":883:887  _add */\n      dup8\n        /* \"contracts/prop.sol\":874:888  property[_add] */\n      0xffffffffffffffffffffffffffffffffffffffff\n      and\n      0xffffffffffffffffffffffffffffffffffffffff\n      and\n      dup2\n      mstore\n      0x20\n      add\n      swap1\n      dup2\n      mstore\n      0x20\n      add\n      0x00\n      keccak256\n        /* \"contracts/prop.sol\":874:898  property[_add].totalLand */\n      0x01\n      add\n        /* \"contracts/prop.sol\":874:910  property[_add].totalLand = totalLand */\n      dup2\n      swap1\n      sstore\n      pop\n        /* \"contracts/prop.sol\":625:918  function set(address _add,string memory _name,string memory _owner, uint annualIncome,uint totalLand) public{... */\n      pop\n      pop\n      pop\n      pop\n      pop\n      jump\t// out\n        /* \"contracts/prop.sol\":924:1208  function get(address _add) public  view returns(string memory _name,string memory _owner,uint _annualIncome,uint _totalLand){... */\n    tag_35:\n        /* \"contracts/prop.sol\":972:991  string memory _name */\n      0x60\n        /* \"contracts/prop.sol\":992:1012  string memory _owner */\n      dup1\n        /* \"contracts/prop.sol\":1013:1031  uint _annualIncome */\n      0x00\n        /* \"contracts/prop.sol\":1032:1047  uint _totalLand */\n      dup1\n        /* \"contracts/prop.sol\":1066:1074  property */\n      0x03\n        /* \"contracts/prop.sol\":1066:1080  property[_add] */\n      0x00\n        /* \"contracts/prop.sol\":1075:1079  _add */\n      dup7\n        /* \"contracts/prop.sol\":1066:1080  property[_add] */\n      0xffffffffffffffffffffffffffffffffffffffff\n      and\n      0xffffffffffffffffffffffffffffffffffffffff\n      and\n      dup2\n      mstore\n      0x20\n      add\n      swap1\n      dup2\n      mstore\n      0x20\n      add\n      0x00\n      keccak256\n        /* \"contracts/prop.sol\":1066:1085  property[_add].name */\n      0x00\n      add\n        /* \"contracts/prop.sol\":1096:1104  property */\n      0x03\n        /* \"contracts/prop.sol\":1096:1110  property[_add] */\n      0x00\n        /* \"contracts/prop.sol\":1105:1109  _add */\n      dup8\n        /* \"contracts/prop.sol\":1096:1110  property[_add] */\n      0xffffffffffffffffffffffffffffffffffffffff\n      and\n      0xffffffffffffffffffffffffffffffffffffffff\n      and\n      dup2\n      mstore\n      0x20\n      add\n      swap1\n      dup2\n      mstore\n      0x20\n      add\n      0x00\n      keccak256\n        /* \"contracts/prop.sol\":1096:1116  property[_add].owner */\n      0x03\n      add\n        /* \"contracts/prop.sol\":1127:1135  property */\n      0x03\n        /* \"contracts/prop.sol\":1127:1141  property[_add] */\n      0x00\n        /* \"contracts/prop.sol\":1136:1140  _add */\n      dup9\n        /* \"contracts/prop.sol\":1127:1141  property[_add] */\n      0xffffffffffffffffffffffffffffffffffffffff\n      and\n      0xffffffffffffffffffffffffffffffffffffffff\n      and\n      dup2\n      mstore\n      0x20\n      add\n      swap1\n      dup2\n      mstore\n      0x20\n      add\n      0x00\n      keccak256\n        /* \"contracts/prop.sol\":1127:1154  property[_add].annualIncome */\n      0x02\n      add\n      sload\n        /* \"contracts/prop.sol\":1165:1173  property */\n      0x03\n        /* \"contracts/prop.sol\":1165:1179  property[_add] */\n      0x00\n        /* \"contracts/prop.sol\":1174:1178  _add */\n      dup10\n        /* \"contracts/prop.sol\":1165:1179  property[_add] */\n      0xffffffffffffffffffffffffffffffffffffffff\n      and\n      0xffffffffffffffffffffffffffffffffffffffff\n      and\n      dup2\n      mstore\n      0x20\n      add\n      swap1\n      dup2\n      mstore\n      0x20\n      add\n      0x00\n      keccak256\n        /* \"contracts/prop.sol\":1165:1189  property[_add].totalLand */\n      0x01\n      add\n      sload\n        /* \"contracts/prop.sol\":1059:1200  return(property[_add].name,... */\n      dup4\n      dup1\n      sload\n      tag_65\n      swap1\n      tag_66\n      jump\t// in\n    tag_65:\n      dup1\n      0x1f\n      add\n      0x20\n      dup1\n      swap2\n      div\n      mul\n      0x20\n      add\n      mload(0x40)\n      swap1\n      dup2\n      add\n      0x40\n      mstore\n      dup1\n      swap3\n      swap2\n      swap1\n      dup2\n      dup2\n      mstore\n      0x20\n      add\n      dup3\n      dup1\n      sload\n      tag_67\n      swap1\n      tag_66\n      jump\t// in\n    tag_67:\n      dup1\n      iszero\n      tag_68\n      jumpi\n      dup1\n      0x1f\n      lt\n      tag_69\n      jumpi\n      0x0100\n      dup1\n      dup4\n      sload\n      div\n      mul\n      dup4\n      mstore\n      swap2\n      0x20\n      add\n      swap2\n      jump(tag_68)\n    tag_69:\n      dup3\n      add\n      swap2\n      swap1\n      0x00\n      mstore\n      keccak256(0x00, 0x20)\n      swap1\n    tag_70:\n      dup2\n      sload\n      dup2\n      mstore\n      swap1\n      0x01\n      add\n      swap1\n      0x20\n      add\n      dup1\n      dup4\n      gt\n      tag_70\n      jumpi\n      dup3\n      swap1\n      sub\n      0x1f\n      and\n      dup3\n      add\n      swap2\n    tag_68:\n      pop\n      pop\n      pop\n      pop\n      pop\n      swap4\n      pop\n      dup3\n      dup1\n      sload\n      tag_71\n      swap1\n      tag_66\n      jump\t// in\n    tag_71:\n      dup1\n      0x1f\n      add\n      0x20\n      dup1\n      swap2\n      div\n      mul\n      0x20\n      add\n      mload(0x40)\n      swap1\n      dup2\n      add\n      0x40\n      mstore\n      dup1\n      swap3\n      swap2\n      swap1\n      dup2\n      dup2\n      mstore\n      0x20\n      add\n      dup3\n      dup1\n      sload\n      tag_72\n      swap1\n      tag_66\n      jump\t// in\n    tag_72:\n      dup1\n      iszero\n      tag_73\n      jumpi\n      dup1\n      0x1f\n      lt\n      tag_74\n      jumpi\n      0x0100\n      dup1\n      dup4\n      sload\n      div\n      mul\n      dup4\n      mstore\n      swap2\n      0x20\n      add\n      swap2\n      jump(tag_73)\n    tag_74:\n      dup3\n      add\n      swap2\n      swap1\n      0x00\n      mstore\n      keccak256(0x00, 0x20)\n      swap1\n    tag_75:\n      dup2\n      sload\n      dup2\n      mstore\n      swap1\n      0x01\n      add\n      swap1\n      0x20\n      add\n      dup1\n      dup4\n      gt\n      tag_75\n      jumpi\n      dup3\n      swap1\n      sub\n      0x1f\n      and\n      dup3\n      add\n      swap2\n    tag_73:\n      pop\n      pop\n      pop\n      pop\n      pop\n      swap3\n      pop\n      swap4\n      pop\n      swap4\n      pop\n      swap4\n      pop\n      swap4\n      pop\n        /* \"contracts/prop.sol\":924:1208  function get(address _add) public  view returns(string memory _name,string memory _owner,uint _annualIncome,uint _totalLand){... */\n      swap2\n      swap4\n      pop\n      swap2\n      swap4\n      jump\t// out\n        /* \"contracts/prop.sol\":578:618  mapping(address => Land) public property */\n    tag_40:\n      mstore(0x20, 0x03)\n      dup1\n      0x00\n      mstore\n      keccak256(0x00, 0x40)\n      0x00\n      swap2\n      pop\n      swap1\n      pop\n      dup1\n      0x00\n      add\n      dup1\n      sload\n      tag_76\n      swap1\n      tag_66\n      jump\t// in\n    tag_76:\n      dup1\n      0x1f\n      add\n      0x20\n      dup1\n      swap2\n      div\n      mul\n      0x20\n      add\n      mload(0x40)\n      swap1\n      dup2\n      add\n      0x40\n      mstore\n      dup1\n      swap3\n      swap2\n      swap1\n      dup2\n      dup2\n      mstore\n      0x20\n      add\n      dup3\n      dup1\n      sload\n      tag_77\n      swap1\n      tag_66\n      jump\t// in\n    tag_77:\n      dup1\n      iszero\n      tag_78\n      jumpi\n      dup1\n      0x1f\n      lt\n      tag_79\n      jumpi\n      0x0100\n      dup1\n      dup4\n      sload\n      div\n      mul\n      dup4\n      mstore\n      swap2\n      0x20\n      add\n      swap2\n      jump(tag_78)\n    tag_79:\n      dup3\n      add\n      swap2\n      swap1\n      0x00\n      mstore\n      keccak256(0x00, 0x20)\n      swap1\n    tag_80:\n      dup2\n      sload\n      dup2\n      mstore\n      swap1\n      0x01\n      add\n      swap1\n      0x20\n      add\n      dup1\n      dup4\n      gt\n      tag_80\n      jumpi\n      dup3\n      swap1\n      sub\n      0x1f\n      and\n      dup3\n      add\n      swap2\n    tag_78:\n      pop\n      pop\n      pop\n      pop\n      pop\n      swap1\n      dup1\n      0x01\n      add\n      sload\n      swap1\n      dup1\n      0x02\n      add\n      sload\n      swap1\n      dup1\n      0x03\n      add\n      dup1\n      sload\n      tag_81\n      swap1\n      tag_66\n      jump\t// in\n    tag_81:\n      dup1\n      0x1f\n      add\n      0x20\n      dup1\n      swap2\n      div\n      mul\n      0x20\n      add\n      mload(0x40)\n      swap1\n      dup2\n      add\n      0x40\n      mstore\n      dup1\n      swap3\n      swap2\n      swap1\n      dup2\n      dup2\n      mstore\n      0x20\n      add\n      dup3\n      dup1\n      sload\n      tag_82\n      swap1\n      tag_66\n      jump\t// in\n    tag_82:\n      dup1\n      iszero\n      tag_83\n      jumpi\n      dup1\n      0x1f\n      lt\n      tag_84\n      jumpi\n      0x0100\n      dup1\n      dup4\n      sload\n      div\n      mul\n      dup4\n      mstore\n      swap2\n      0x20\n      add\n      swap2\n      jump(tag_83)\n    tag_84:\n      dup3\n      add\n      swap2\n      swap1\n      0x00\n      mstore\n      keccak256(0x00, 0x20)\n      swap1\n    tag_85:\n      dup2\n      sload\n      dup2\n      mstore\n      swap1\n      0x01\n      add\n      swap1\n      0x20\n      add\n      dup1\n      dup4\n      gt\n      tag_85\n      jumpi\n      dup3\n      swap1\n      sub\n      0x1f\n      and\n      dup3\n      add\n      swap2\n    tag_83:\n      pop\n      pop\n      pop\n      pop\n      pop\n      swap1\n      pop\n      dup5\n      jump\t// out\n        /* \"#utility.yul\":7:82   */\n    tag_86:\n        /* \"#utility.yul\":40:46   */\n      0x00\n        /* \"#utility.yul\":73:75   */\n      0x40\n        /* \"#utility.yul\":67:76   */\n      mload\n        /* \"#utility.yul\":57:76   */\n      swap1\n      pop\n        /* \"#utility.yul\":7:82   */\n      swap1\n      jump\t// out\n        /* \"#utility.yul\":88:205   */\n    tag_87:\n        /* \"#utility.yul\":197:198   */\n      0x00\n        /* \"#utility.yul\":194:195   */\n      dup1\n        /* \"#utility.yul\":187:199   */\n      revert\n        /* \"#utility.yul\":211:328   */\n    tag_88:\n        /* \"#utility.yul\":320:321   */\n      0x00\n        /* \"#utility.yul\":317:318   */\n      dup1\n        /* \"#utility.yul\":310:322   */\n      revert\n        /* \"#utility.yul\":334:460   */\n    tag_89:\n        /* \"#utility.yul\":371:378   */\n      0x00\n        /* \"#utility.yul\":411:453   */\n      0xffffffffffffffffffffffffffffffffffffffff\n        /* \"#utility.yul\":404:409   */\n      dup3\n        /* \"#utility.yul\":400:454   */\n      and\n        /* \"#utility.yul\":389:454   */\n      swap1\n      pop\n        /* \"#utility.yul\":334:460   */\n      swap2\n      swap1\n      pop\n      jump\t// out\n        /* \"#utility.yul\":466:562   */\n    tag_90:\n        /* \"#utility.yul\":503:510   */\n      0x00\n        /* \"#utility.yul\":532:556   */\n      tag_137\n        /* \"#utility.yul\":550:555   */\n      dup3\n        /* \"#utility.yul\":532:556   */\n      tag_89\n      jump\t// in\n    tag_137:\n        /* \"#utility.yul\":521:556   */\n      swap1\n      pop\n        /* \"#utility.yul\":466:562   */\n      swap2\n      swap1\n      pop\n      jump\t// out\n        /* \"#utility.yul\":568:690   */\n    tag_91:\n        /* \"#utility.yul\":641:665   */\n      tag_139\n        /* \"#utility.yul\":659:664   */\n      dup2\n        /* \"#utility.yul\":641:665   */\n      tag_90\n      jump\t// in\n    tag_139:\n        /* \"#utility.yul\":634:639   */\n      dup2\n        /* \"#utility.yul\":631:666   */\n      eq\n        /* \"#utility.yul\":621:684   */\n      tag_140\n      jumpi\n        /* \"#utility.yul\":680:681   */\n      0x00\n        /* \"#utility.yul\":677:678   */\n      dup1\n        /* \"#utility.yul\":670:682   */\n      revert\n        /* \"#utility.yul\":621:684   */\n    tag_140:\n        /* \"#utility.yul\":568:690   */\n      pop\n      jump\t// out\n        /* \"#utility.yul\":696:835   */\n    tag_92:\n        /* \"#utility.yul\":742:747   */\n      0x00\n        /* \"#utility.yul\":780:786   */\n      dup2\n        /* \"#utility.yul\":767:787   */\n      calldataload\n        /* \"#utility.yul\":758:787   */\n      swap1\n      pop\n        /* \"#utility.yul\":796:829   */\n      tag_142\n        /* \"#utility.yul\":823:828   */\n      dup2\n        /* \"#utility.yul\":796:829   */\n      tag_91\n      jump\t// in\n    tag_142:\n        /* \"#utility.yul\":696:835   */\n      swap3\n      swap2\n      pop\n      pop\n      jump\t// out\n        /* \"#utility.yul\":841:1170   */\n    tag_13:\n        /* \"#utility.yul\":900:906   */\n      0x00\n        /* \"#utility.yul\":949:951   */\n      0x20\n        /* \"#utility.yul\":937:946   */\n      dup3\n        /* \"#utility.yul\":928:935   */\n      dup5\n        /* \"#utility.yul\":924:947   */\n      sub\n        /* \"#utility.yul\":920:952   */\n      slt\n        /* \"#utility.yul\":917:1036   */\n      iszero\n      tag_144\n      jumpi\n        /* \"#utility.yul\":955:1034   */\n      tag_145\n      tag_87\n      jump\t// in\n    tag_145:\n        /* \"#utility.yul\":917:1036   */\n    tag_144:\n        /* \"#utility.yul\":1075:1076   */\n      0x00\n        /* \"#utility.yul\":1100:1153   */\n      tag_146\n        /* \"#utility.yul\":1145:1152   */\n      dup5\n        /* \"#utility.yul\":1136:1142   */\n      dup3\n        /* \"#utility.yul\":1125:1134   */\n      dup6\n        /* \"#utility.yul\":1121:1143   */\n      add\n        /* \"#utility.yul\":1100:1153   */\n      tag_92\n      jump\t// in\n    tag_146:\n        /* \"#utility.yul\":1090:1153   */\n      swap2\n      pop\n        /* \"#utility.yul\":1046:1163   */\n      pop\n        /* \"#utility.yul\":841:1170   */\n      swap3\n      swap2\n      pop\n      pop\n      jump\t// out\n        /* \"#utility.yul\":1176:1275   */\n    tag_93:\n        /* \"#utility.yul\":1228:1234   */\n      0x00\n        /* \"#utility.yul\":1262:1267   */\n      dup2\n        /* \"#utility.yul\":1256:1268   */\n      mload\n        /* \"#utility.yul\":1246:1268   */\n      swap1\n      pop\n        /* \"#utility.yul\":1176:1275   */\n      swap2\n      swap1\n      pop\n      jump\t// out\n        /* \"#utility.yul\":1281:1450   */\n    tag_94:\n        /* \"#utility.yul\":1365:1376   */\n      0x00\n        /* \"#utility.yul\":1399:1405   */\n      dup3\n        /* \"#utility.yul\":1394:1397   */\n      dup3\n        /* \"#utility.yul\":1387:1406   */\n      mstore\n        /* \"#utility.yul\":1439:1443   */\n      0x20\n        /* \"#utility.yul\":1434:1437   */\n      dup3\n        /* \"#utility.yul\":1430:1444   */\n      add\n        /* \"#utility.yul\":1415:1444   */\n      swap1\n      pop\n        /* \"#utility.yul\":1281:1450   */\n      swap3\n      swap2\n      pop\n      pop\n      jump\t// out\n        /* \"#utility.yul\":1456:1702   */\n    tag_95:\n        /* \"#utility.yul\":1537:1538   */\n      0x00\n        /* \"#utility.yul\":1547:1660   */\n    tag_150:\n        /* \"#utility.yul\":1561:1567   */\n      dup4\n        /* \"#utility.yul\":1558:1559   */\n      dup2\n        /* \"#utility.yul\":1555:1568   */\n      lt\n        /* \"#utility.yul\":1547:1660   */\n      iszero\n      tag_152\n      jumpi\n        /* \"#utility.yul\":1646:1647   */\n      dup1\n        /* \"#utility.yul\":1641:1644   */\n      dup3\n        /* \"#utility.yul\":1637:1648   */\n      add\n        /* \"#utility.yul\":1631:1649   */\n      mload\n        /* \"#utility.yul\":1627:1628   */\n      dup2\n        /* \"#utility.yul\":1622:1625   */\n      dup5\n        /* \"#utility.yul\":1618:1629   */\n      add\n        /* \"#utility.yul\":1611:1650   */\n      mstore\n        /* \"#utility.yul\":1583:1585   */\n      0x20\n        /* \"#utility.yul\":1580:1581   */\n      dup2\n        /* \"#utility.yul\":1576:1586   */\n      add\n        /* \"#utility.yul\":1571:1586   */\n      swap1\n      pop\n        /* \"#utility.yul\":1547:1660   */\n      jump(tag_150)\n    tag_152:\n        /* \"#utility.yul\":1694:1695   */\n      0x00\n        /* \"#utility.yul\":1685:1691   */\n      dup5\n        /* \"#utility.yul\":1680:1683   */\n      dup5\n        /* \"#utility.yul\":1676:1692   */\n      add\n        /* \"#utility.yul\":1669:1696   */\n      mstore\n        /* \"#utility.yul\":1518:1702   */\n      pop\n        /* \"#utility.yul\":1456:1702   */\n      pop\n      pop\n      pop\n      jump\t// out\n        /* \"#utility.yul\":1708:1810   */\n    tag_96:\n        /* \"#utility.yul\":1749:1755   */\n      0x00\n        /* \"#utility.yul\":1800:1802   */\n      0x1f\n        /* \"#utility.yul\":1796:1803   */\n      not\n        /* \"#utility.yul\":1791:1793   */\n      0x1f\n        /* \"#utility.yul\":1784:1789   */\n      dup4\n        /* \"#utility.yul\":1780:1794   */\n      add\n        /* \"#utility.yul\":1776:1804   */\n      and\n        /* \"#utility.yul\":1766:1804   */\n      swap1\n      pop\n        /* \"#utility.yul\":1708:1810   */\n      swap2\n      swap1\n      pop\n      jump\t// out\n        /* \"#utility.yul\":1816:2193   */\n    tag_97:\n        /* \"#utility.yul\":1904:1907   */\n      0x00\n        /* \"#utility.yul\":1932:1971   */\n      tag_155\n        /* \"#utility.yul\":1965:1970   */\n      dup3\n        /* \"#utility.yul\":1932:1971   */\n      tag_93\n      jump\t// in\n    tag_155:\n        /* \"#utility.yul\":1987:2058   */\n      tag_156\n        /* \"#utility.yul\":2051:2057   */\n      dup2\n        /* \"#utility.yul\":2046:2049   */\n      dup6\n        /* \"#utility.yul\":1987:2058   */\n      tag_94\n      jump\t// in\n    tag_156:\n        /* \"#utility.yul\":1980:2058   */\n      swap4\n      pop\n        /* \"#utility.yul\":2067:2132   */\n      tag_157\n        /* \"#utility.yul\":2125:2131   */\n      dup2\n        /* \"#utility.yul\":2120:2123   */\n      dup6\n        /* \"#utility.yul\":2113:2117   */\n      0x20\n        /* \"#utility.yul\":2106:2111   */\n      dup7\n        /* \"#utility.yul\":2102:2118   */\n      add\n        /* \"#utility.yul\":2067:2132   */\n      tag_95\n      jump\t// in\n    tag_157:\n        /* \"#utility.yul\":2157:2186   */\n      tag_158\n        /* \"#utility.yul\":2179:2185   */\n      dup2\n        /* \"#utility.yul\":2157:2186   */\n      tag_96\n      jump\t// in\n    tag_158:\n        /* \"#utility.yul\":2152:2155   */\n      dup5\n        /* \"#utility.yul\":2148:2187   */\n      add\n        /* \"#utility.yul\":2141:2187   */\n      swap2\n      pop\n        /* \"#utility.yul\":1908:2193   */\n      pop\n        /* \"#utility.yul\":1816:2193   */\n      swap3\n      swap2\n      pop\n      pop\n      jump\t// out\n        /* \"#utility.yul\":2199:2512   */\n    tag_16:\n        /* \"#utility.yul\":2312:2316   */\n      0x00\n        /* \"#utility.yul\":2350:2352   */\n      0x20\n        /* \"#utility.yul\":2339:2348   */\n      dup3\n        /* \"#utility.yul\":2335:2353   */\n      add\n        /* \"#utility.yul\":2327:2353   */\n      swap1\n      pop\n        /* \"#utility.yul\":2399:2408   */\n      dup2\n        /* \"#utility.yul\":2393:2397   */\n      dup2\n        /* \"#utility.yul\":2389:2409   */\n      sub\n        /* \"#utility.yul\":2385:2386   */\n      0x00\n        /* \"#utility.yul\":2374:2383   */\n      dup4\n        /* \"#utility.yul\":2370:2387   */\n      add\n        /* \"#utility.yul\":2363:2410   */\n      mstore\n        /* \"#utility.yul\":2427:2505   */\n      tag_160\n        /* \"#utility.yul\":2500:2504   */\n      dup2\n        /* \"#utility.yul\":2491:2497   */\n      dup5\n        /* \"#utility.yul\":2427:2505   */\n      tag_97\n      jump\t// in\n    tag_160:\n        /* \"#utility.yul\":2419:2505   */\n      swap1\n      pop\n        /* \"#utility.yul\":2199:2512   */\n      swap3\n      swap2\n      pop\n      pop\n      jump\t// out\n        /* \"#utility.yul\":2518:2636   */\n    tag_98:\n        /* \"#utility.yul\":2605:2629   */\n      tag_162\n        /* \"#utility.yul\":2623:2628   */\n      dup2\n        /* \"#utility.yul\":2605:2629   */\n      tag_90\n      jump\t// in\n    tag_162:\n        /* \"#utility.yul\":2600:2603   */\n      dup3\n        /* \"#utility.yul\":2593:2630   */\n      mstore\n        /* \"#utility.yul\":2518:2636   */\n      pop\n      pop\n      jump\t// out\n        /* \"#utility.yul\":2642:2864   */\n    tag_20:\n        /* \"#utility.yul\":2735:2739   */\n      0x00\n        /* \"#utility.yul\":2773:2775   */\n      0x20\n        /* \"#utility.yul\":2762:2771   */\n      dup3\n        /* \"#utility.yul\":2758:2776   */\n      add\n        /* \"#utility.yul\":2750:2776   */\n      swap1\n      pop\n        /* \"#utility.yul\":2786:2857   */\n      tag_164\n        /* \"#utility.yul\":2854:2855   */\n      0x00\n        /* \"#utility.yul\":2843:2852   */\n      dup4\n        /* \"#utility.yul\":2839:2856   */\n      add\n        /* \"#utility.yul\":2830:2836   */\n      dup5\n        /* \"#utility.yul\":2786:2857   */\n      tag_98\n      jump\t// in\n    tag_164:\n        /* \"#utility.yul\":2642:2864   */\n      swap3\n      swap2\n      pop\n      pop\n      jump\t// out\n        /* \"#utility.yul\":2870:2947   */\n    tag_99:\n        /* \"#utility.yul\":2907:2914   */\n      0x00\n        /* \"#utility.yul\":2936:2941   */\n      dup2\n        /* \"#utility.yul\":2925:2941   */\n      swap1\n      pop\n        /* \"#utility.yul\":2870:2947   */\n      swap2\n      swap1\n      pop\n      jump\t// out\n        /* \"#utility.yul\":2953:3075   */\n    tag_100:\n        /* \"#utility.yul\":3026:3050   */\n      tag_167\n        /* \"#utility.yul\":3044:3049   */\n      dup2\n        /* \"#utility.yul\":3026:3050   */\n      tag_99\n      jump\t// in\n    tag_167:\n        /* \"#utility.yul\":3019:3024   */\n      dup2\n        /* \"#utility.yul\":3016:3051   */\n      eq\n        /* \"#utility.yul\":3006:3069   */\n      tag_168\n      jumpi\n        /* \"#utility.yul\":3065:3066   */\n      0x00\n        /* \"#utility.yul\":3062:3063   */\n      dup1\n        /* \"#utility.yul\":3055:3067   */\n      revert\n        /* \"#utility.yul\":3006:3069   */\n    tag_168:\n        /* \"#utility.yul\":2953:3075   */\n      pop\n      jump\t// out\n        /* \"#utility.yul\":3081:3220   */\n    tag_101:\n        /* \"#utility.yul\":3127:3132   */\n      0x00\n        /* \"#utility.yul\":3165:3171   */\n      dup2\n        /* \"#utility.yul\":3152:3172   */\n      calldataload\n        /* \"#utility.yul\":3143:3172   */\n      swap1\n      pop\n        /* \"#utility.yul\":3181:3214   */\n      tag_170\n        /* \"#utility.yul\":3208:3213   */\n      dup2\n        /* \"#utility.yul\":3181:3214   */\n      tag_100\n      jump\t// in\n    tag_170:\n        /* \"#utility.yul\":3081:3220   */\n      swap3\n      swap2\n      pop\n      pop\n      jump\t// out\n        /* \"#utility.yul\":3226:3700   */\n    tag_23:\n        /* \"#utility.yul\":3294:3300   */\n      0x00\n        /* \"#utility.yul\":3302:3308   */\n      dup1\n        /* \"#utility.yul\":3351:3353   */\n      0x40\n        /* \"#utility.yul\":3339:3348   */\n      dup4\n        /* \"#utility.yul\":3330:3337   */\n      dup6\n        /* \"#utility.yul\":3326:3349   */\n      sub\n        /* \"#utility.yul\":3322:3354   */\n      slt\n        /* \"#utility.yul\":3319:3438   */\n      iszero\n      tag_172\n      jumpi\n        /* \"#utility.yul\":3357:3436   */\n      tag_173\n      tag_87\n      jump\t// in\n    tag_173:\n        /* \"#utility.yul\":3319:3438   */\n    tag_172:\n        /* \"#utility.yul\":3477:3478   */\n      0x00\n        /* \"#utility.yul\":3502:3555   */\n      tag_174\n        /* \"#utility.yul\":3547:3554   */\n      dup6\n        /* \"#utility.yul\":3538:3544   */\n      dup3\n        /* \"#utility.yul\":3527:3536   */\n      dup7\n        /* \"#utility.yul\":3523:3545   */\n      add\n        /* \"#utility.yul\":3502:3555   */\n      tag_92\n      jump\t// in\n    tag_174:\n        /* \"#utility.yul\":3492:3555   */\n      swap3\n      pop\n        /* \"#utility.yul\":3448:3565   */\n      pop\n        /* \"#utility.yul\":3604:3606   */\n      0x20\n        /* \"#utility.yul\":3630:3683   */\n      tag_175\n        /* \"#utility.yul\":3675:3682   */\n      dup6\n        /* \"#utility.yul\":3666:3672   */\n      dup3\n        /* \"#utility.yul\":3655:3664   */\n      dup7\n        /* \"#utility.yul\":3651:3673   */\n      add\n        /* \"#utility.yul\":3630:3683   */\n      tag_101\n      jump\t// in\n    tag_175:\n        /* \"#utility.yul\":3620:3683   */\n      swap2\n      pop\n        /* \"#utility.yul\":3575:3693   */\n      pop\n        /* \"#utility.yul\":3226:3700   */\n      swap3\n      pop\n      swap3\n      swap1\n      pop\n      jump\t// out\n        /* \"#utility.yul\":3706:3823   */\n    tag_102:\n        /* \"#utility.yul\":3815:3816   */\n      0x00\n        /* \"#utility.yul\":3812:3813   */\n      dup1\n        /* \"#utility.yul\":3805:3817   */\n      revert\n        /* \"#utility.yul\":3829:3946   */\n    tag_103:\n        /* \"#utility.yul\":3938:3939   */\n      0x00\n        /* \"#utility.yul\":3935:3936   */\n      dup1\n        /* \"#utility.yul\":3928:3940   */\n      revert\n        /* \"#utility.yul\":3952:4132   */\n    tag_104:\n        /* \"#utility.yul\":4000:4077   */\n      0x4e487b7100000000000000000000000000000000000000000000000000000000\n        /* \"#utility.yul\":3997:3998   */\n      0x00\n        /* \"#utility.yul\":3990:4078   */\n      mstore\n        /* \"#utility.yul\":4097:4101   */\n      0x41\n        /* \"#utility.yul\":4094:4095   */\n      0x04\n        /* \"#utility.yul\":4087:4102   */\n      mstore\n        /* \"#utility.yul\":4121:4125   */\n      0x24\n        /* \"#utility.yul\":4118:4119   */\n      0x00\n        /* \"#utility.yul\":4111:4126   */\n      revert\n        /* \"#utility.yul\":4138:4419   */\n    tag_105:\n        /* \"#utility.yul\":4221:4248   */\n      tag_180\n        /* \"#utility.yul\":4243:4247   */\n      dup3\n        /* \"#utility.yul\":4221:4248   */\n      tag_96\n      jump\t// in\n    tag_180:\n        /* \"#utility.yul\":4213:4219   */\n      dup2\n        /* \"#utility.yul\":4209:4249   */\n      add\n        /* \"#utility.yul\":4351:4357   */\n      dup2\n        /* \"#utility.yul\":4339:4349   */\n      dup2\n        /* \"#utility.yul\":4336:4358   */\n      lt\n        /* \"#utility.yul\":4315:4333   */\n      0xffffffffffffffff\n        /* \"#utility.yul\":4303:4313   */\n      dup3\n        /* \"#utility.yul\":4300:4334   */\n      gt\n        /* \"#utility.yul\":4297:4359   */\n      or\n        /* \"#utility.yul\":4294:4382   */\n      iszero\n      tag_181\n      jumpi\n        /* \"#utility.yul\":4362:4380   */\n      tag_182\n      tag_104\n      jump\t// in\n    tag_182:\n        /* \"#utility.yul\":4294:4382   */\n    tag_181:\n        /* \"#utility.yul\":4402:4412   */\n      dup1\n        /* \"#utility.yul\":4398:4400   */\n      0x40\n        /* \"#utility.yul\":4391:4413   */\n      mstore\n        /* \"#utility.yul\":4181:4419   */\n      pop\n        /* \"#utility.yul\":4138:4419   */\n      pop\n      pop\n      jump\t// out\n        /* \"#utility.yul\":4425:4554   */\n    tag_106:\n        /* \"#utility.yul\":4459:4465   */\n      0x00\n        /* \"#utility.yul\":4486:4506   */\n      tag_184\n      tag_86\n      jump\t// in\n    tag_184:\n        /* \"#utility.yul\":4476:4506   */\n      swap1\n      pop\n        /* \"#utility.yul\":4515:4548   */\n      tag_185\n        /* \"#utility.yul\":4543:4547   */\n      dup3\n        /* \"#utility.yul\":4535:4541   */\n      dup3\n        /* \"#utility.yul\":4515:4548   */\n      tag_105\n      jump\t// in\n    tag_185:\n        /* \"#utility.yul\":4425:4554   */\n      swap2\n      swap1\n      pop\n      jump\t// out\n        /* \"#utility.yul\":4560:4868   */\n    tag_107:\n        /* \"#utility.yul\":4622:4626   */\n      0x00\n        /* \"#utility.yul\":4712:4730   */\n      0xffffffffffffffff\n        /* \"#utility.yul\":4704:4710   */\n      dup3\n        /* \"#utility.yul\":4701:4731   */\n      gt\n        /* \"#utility.yul\":4698:4754   */\n      iszero\n      tag_187\n      jumpi\n        /* \"#utility.yul\":4734:4752   */\n      tag_188\n      tag_104\n      jump\t// in\n    tag_188:\n        /* \"#utility.yul\":4698:4754   */\n    tag_187:\n        /* \"#utility.yul\":4772:4801   */\n      tag_189\n        /* \"#utility.yul\":4794:4800   */\n      dup3\n        /* \"#utility.yul\":4772:4801   */\n      tag_96\n      jump\t// in\n    tag_189:\n        /* \"#utility.yul\":4764:4801   */\n      swap1\n      pop\n        /* \"#utility.yul\":4856:4860   */\n      0x20\n        /* \"#utility.yul\":4850:4854   */\n      dup2\n        /* \"#utility.yul\":4846:4861   */\n      add\n        /* \"#utility.yul\":4838:4861   */\n      swap1\n      pop\n        /* \"#utility.yul\":4560:4868   */\n      swap2\n      swap1\n      pop\n      jump\t// out\n        /* \"#utility.yul\":4874:5020   */\n    tag_108:\n        /* \"#utility.yul\":4971:4977   */\n      dup3\n        /* \"#utility.yul\":4966:4969   */\n      dup2\n        /* \"#utility.yul\":4961:4964   */\n      dup4\n        /* \"#utility.yul\":4948:4978   */\n      calldatacopy\n        /* \"#utility.yul\":5012:5013   */\n      0x00\n        /* \"#utility.yul\":5003:5009   */\n      dup4\n        /* \"#utility.yul\":4998:5001   */\n      dup4\n        /* \"#utility.yul\":4994:5010   */\n      add\n        /* \"#utility.yul\":4987:5014   */\n      mstore\n        /* \"#utility.yul\":4874:5020   */\n      pop\n      pop\n      pop\n      jump\t// out\n        /* \"#utility.yul\":5026:5451   */\n    tag_109:\n        /* \"#utility.yul\":5104:5109   */\n      0x00\n        /* \"#utility.yul\":5129:5195   */\n      tag_192\n        /* \"#utility.yul\":5145:5194   */\n      tag_193\n        /* \"#utility.yul\":5187:5193   */\n      dup5\n        /* \"#utility.yul\":5145:5194   */\n      tag_107\n      jump\t// in\n    tag_193:\n        /* \"#utility.yul\":5129:5195   */\n      tag_106\n      jump\t// in\n    tag_192:\n        /* \"#utility.yul\":5120:5195   */\n      swap1\n      pop\n        /* \"#utility.yul\":5218:5224   */\n      dup3\n        /* \"#utility.yul\":5211:5216   */\n      dup2\n        /* \"#utility.yul\":5204:5225   */\n      mstore\n        /* \"#utility.yul\":5256:5260   */\n      0x20\n        /* \"#utility.yul\":5249:5254   */\n      dup2\n        /* \"#utility.yul\":5245:5261   */\n      add\n        /* \"#utility.yul\":5294:5297   */\n      dup5\n        /* \"#utility.yul\":5285:5291   */\n      dup5\n        /* \"#utility.yul\":5280:5283   */\n      dup5\n        /* \"#utility.yul\":5276:5292   */\n      add\n        /* \"#utility.yul\":5273:5298   */\n      gt\n        /* \"#utility.yul\":5270:5382   */\n      iszero\n      tag_194\n      jumpi\n        /* \"#utility.yul\":5301:5380   */\n      tag_195\n      tag_103\n      jump\t// in\n    tag_195:\n        /* \"#utility.yul\":5270:5382   */\n    tag_194:\n        /* \"#utility.yul\":5391:5445   */\n      tag_196\n        /* \"#utility.yul\":5438:5444   */\n      dup5\n        /* \"#utility.yul\":5433:5436   */\n      dup3\n        /* \"#utility.yul\":5428:5431   */\n      dup6\n        /* \"#utility.yul\":5391:5445   */\n      tag_108\n      jump\t// in\n    tag_196:\n        /* \"#utility.yul\":5110:5451   */\n      pop\n        /* \"#utility.yul\":5026:5451   */\n      swap4\n      swap3\n      pop\n      pop\n      pop\n      jump\t// out\n        /* \"#utility.yul\":5471:5811   */\n    tag_110:\n        /* \"#utility.yul\":5527:5532   */\n      0x00\n        /* \"#utility.yul\":5576:5579   */\n      dup3\n        /* \"#utility.yul\":5569:5573   */\n      0x1f\n        /* \"#utility.yul\":5561:5567   */\n      dup4\n        /* \"#utility.yul\":5557:5574   */\n      add\n        /* \"#utility.yul\":5553:5580   */\n      slt\n        /* \"#utility.yul\":5543:5665   */\n      tag_198\n      jumpi\n        /* \"#utility.yul\":5584:5663   */\n      tag_199\n      tag_102\n      jump\t// in\n    tag_199:\n        /* \"#utility.yul\":5543:5665   */\n    tag_198:\n        /* \"#utility.yul\":5701:5707   */\n      dup2\n        /* \"#utility.yul\":5688:5708   */\n      calldataload\n        /* \"#utility.yul\":5726:5805   */\n      tag_200\n        /* \"#utility.yul\":5801:5804   */\n      dup5\n        /* \"#utility.yul\":5793:5799   */\n      dup3\n        /* \"#utility.yul\":5786:5790   */\n      0x20\n        /* \"#utility.yul\":5778:5784   */\n      dup7\n        /* \"#utility.yul\":5774:5791   */\n      add\n        /* \"#utility.yul\":5726:5805   */\n      tag_109\n      jump\t// in\n    tag_200:\n        /* \"#utility.yul\":5717:5805   */\n      swap2\n      pop\n        /* \"#utility.yul\":5533:5811   */\n      pop\n        /* \"#utility.yul\":5471:5811   */\n      swap3\n      swap2\n      pop\n      pop\n      jump\t// out\n        /* \"#utility.yul\":5817:6908   */\n    tag_27:\n        /* \"#utility.yul\":5922:5928   */\n      0x00\n        /* \"#utility.yul\":5930:5936   */\n      dup1\n        /* \"#utility.yul\":5938:5944   */\n      0x00\n        /* \"#utility.yul\":5946:5952   */\n      dup1\n        /* \"#utility.yul\":5954:5960   */\n      0x00\n        /* \"#utility.yul\":6003:6006   */\n      0xa0\n        /* \"#utility.yul\":5991:6000   */\n      dup7\n        /* \"#utility.yul\":5982:5989   */\n      dup9\n        /* \"#utility.yul\":5978:6001   */\n      sub\n        /* \"#utility.yul\":5974:6007   */\n      slt\n        /* \"#utility.yul\":5971:6091   */\n      iszero\n      tag_202\n      jumpi\n        /* \"#utility.yul\":6010:6089   */\n      tag_203\n      tag_87\n      jump\t// in\n    tag_203:\n        /* \"#utility.yul\":5971:6091   */\n    tag_202:\n        /* \"#utility.yul\":6130:6131   */\n      0x00\n        /* \"#utility.yul\":6155:6208   */\n      tag_204\n        /* \"#utility.yul\":6200:6207   */\n      dup9\n        /* \"#utility.yul\":6191:6197   */\n      dup3\n        /* \"#utility.yul\":6180:6189   */\n      dup10\n        /* \"#utility.yul\":6176:6198   */\n      add\n        /* \"#utility.yul\":6155:6208   */\n      tag_92\n      jump\t// in\n    tag_204:\n        /* \"#utility.yul\":6145:6208   */\n      swap6\n      pop\n        /* \"#utility.yul\":6101:6218   */\n      pop\n        /* \"#utility.yul\":6257:6259   */\n      0x20\n        /* \"#utility.yul\":6283:6336   */\n      tag_205\n        /* \"#utility.yul\":6328:6335   */\n      dup9\n        /* \"#utility.yul\":6319:6325   */\n      dup3\n        /* \"#utility.yul\":6308:6317   */\n      dup10\n        /* \"#utility.yul\":6304:6326   */\n      add\n        /* \"#utility.yul\":6283:6336   */\n      tag_92\n      jump\t// in\n    tag_205:\n        /* \"#utility.yul\":6273:6336   */\n      swap5\n      pop\n        /* \"#utility.yul\":6228:6346   */\n      pop\n        /* \"#utility.yul\":6385:6387   */\n      0x40\n        /* \"#utility.yul\":6411:6464   */\n      tag_206\n        /* \"#utility.yul\":6456:6463   */\n      dup9\n        /* \"#utility.yul\":6447:6453   */\n      dup3\n        /* \"#utility.yul\":6436:6445   */\n      dup10\n        /* \"#utility.yul\":6432:6454   */\n      add\n        /* \"#utility.yul\":6411:6464   */\n      tag_101\n      jump\t// in\n    tag_206:\n        /* \"#utility.yul\":6401:6464   */\n      swap4\n      pop\n        /* \"#utility.yul\":6356:6474   */\n      pop\n        /* \"#utility.yul\":6513:6515   */\n      0x60\n        /* \"#utility.yul\":6539:6592   */\n      tag_207\n        /* \"#utility.yul\":6584:6591   */\n      dup9\n        /* \"#utility.yul\":6575:6581   */\n      dup3\n        /* \"#utility.yul\":6564:6573   */\n      dup10\n        /* \"#utility.yul\":6560:6582   */\n      add\n        /* \"#utility.yul\":6539:6592   */\n      tag_101\n      jump\t// in\n    tag_207:\n        /* \"#utility.yul\":6529:6592   */\n      swap3\n      pop\n        /* \"#utility.yul\":6484:6602   */\n      pop\n        /* \"#utility.yul\":6669:6672   */\n      0x80\n        /* \"#utility.yul\":6658:6667   */\n      dup7\n        /* \"#utility.yul\":6654:6673   */\n      add\n        /* \"#utility.yul\":6641:6674   */\n      calldataload\n        /* \"#utility.yul\":6701:6719   */\n      0xffffffffffffffff\n        /* \"#utility.yul\":6693:6699   */\n      dup2\n        /* \"#utility.yul\":6690:6720   */\n      gt\n        /* \"#utility.yul\":6687:6804   */\n      iszero\n      tag_208\n      jumpi\n        /* \"#utility.yul\":6723:6802   */\n      tag_209\n      tag_88\n      jump\t// in\n    tag_209:\n        /* \"#utility.yul\":6687:6804   */\n    tag_208:\n        /* \"#utility.yul\":6828:6891   */\n      tag_210\n        /* \"#utility.yul\":6883:6890   */\n      dup9\n        /* \"#utility.yul\":6874:6880   */\n      dup3\n        /* \"#utility.yul\":6863:6872   */\n      dup10\n        /* \"#utility.yul\":6859:6881   */\n      add\n        /* \"#utility.yul\":6828:6891   */\n      tag_110\n      jump\t// in\n    tag_210:\n        /* \"#utility.yul\":6818:6891   */\n      swap2\n      pop\n        /* \"#utility.yul\":6612:6901   */\n      pop\n        /* \"#utility.yul\":5817:6908   */\n      swap3\n      swap6\n      pop\n      swap3\n      swap6\n      swap1\n      swap4\n      pop\n      jump\t// out\n        /* \"#utility.yul\":6914:8185   */\n    tag_31:\n        /* \"#utility.yul\":7029:7035   */\n      0x00\n        /* \"#utility.yul\":7037:7043   */\n      dup1\n        /* \"#utility.yul\":7045:7051   */\n      0x00\n        /* \"#utility.yul\":7053:7059   */\n      dup1\n        /* \"#utility.yul\":7061:7067   */\n      0x00\n        /* \"#utility.yul\":7110:7113   */\n      0xa0\n        /* \"#utility.yul\":7098:7107   */\n      dup7\n        /* \"#utility.yul\":7089:7096   */\n      dup9\n        /* \"#utility.yul\":7085:7108   */\n      sub\n        /* \"#utility.yul\":7081:7114   */\n      slt\n        /* \"#utility.yul\":7078:7198   */\n      iszero\n      tag_212\n      jumpi\n        /* \"#utility.yul\":7117:7196   */\n      tag_213\n      tag_87\n      jump\t// in\n    tag_213:\n        /* \"#utility.yul\":7078:7198   */\n    tag_212:\n        /* \"#utility.yul\":7237:7238   */\n      0x00\n        /* \"#utility.yul\":7262:7315   */\n      tag_214\n        /* \"#utility.yul\":7307:7314   */\n      dup9\n        /* \"#utility.yul\":7298:7304   */\n      dup3\n        /* \"#utility.yul\":7287:7296   */\n      dup10\n        /* \"#utility.yul\":7283:7305   */\n      add\n        /* \"#utility.yul\":7262:7315   */\n      tag_92\n      jump\t// in\n    tag_214:\n        /* \"#utility.yul\":7252:7315   */\n      swap6\n      pop\n        /* \"#utility.yul\":7208:7325   */\n      pop\n        /* \"#utility.yul\":7392:7394   */\n      0x20\n        /* \"#utility.yul\":7381:7390   */\n      dup7\n        /* \"#utility.yul\":7377:7395   */\n      add\n        /* \"#utility.yul\":7364:7396   */\n      calldataload\n        /* \"#utility.yul\":7423:7441   */\n      0xffffffffffffffff\n        /* \"#utility.yul\":7415:7421   */\n      dup2\n        /* \"#utility.yul\":7412:7442   */\n      gt\n        /* \"#utility.yul\":7409:7526   */\n      iszero\n      tag_215\n      jumpi\n        /* \"#utility.yul\":7445:7524   */\n      tag_216\n      tag_88\n      jump\t// in\n    tag_216:\n        /* \"#utility.yul\":7409:7526   */\n    tag_215:\n        /* \"#utility.yul\":7550:7613   */\n      tag_217\n        /* \"#utility.yul\":7605:7612   */\n      dup9\n        /* \"#utility.yul\":7596:7602   */\n      dup3\n        /* \"#utility.yul\":7585:7594   */\n      dup10\n        /* \"#utility.yul\":7581:7603   */\n      add\n        /* \"#utility.yul\":7550:7613   */\n      tag_110\n      jump\t// in\n    tag_217:\n        /* \"#utility.yul\":7540:7613   */\n      swap5\n      pop\n        /* \"#utility.yul\":7335:7623   */\n      pop\n        /* \"#utility.yul\":7690:7692   */\n      0x40\n        /* \"#utility.yul\":7679:7688   */\n      dup7\n        /* \"#utility.yul\":7675:7693   */\n      add\n        /* \"#utility.yul\":7662:7694   */\n      calldataload\n        /* \"#utility.yul\":7721:7739   */\n      0xffffffffffffffff\n        /* \"#utility.yul\":7713:7719   */\n      dup2\n        /* \"#utility.yul\":7710:7740   */\n      gt\n        /* \"#utility.yul\":7707:7824   */\n      iszero\n      tag_218\n      jumpi\n        /* \"#utility.yul\":7743:7822   */\n      tag_219\n      tag_88\n      jump\t// in\n    tag_219:\n        /* \"#utility.yul\":7707:7824   */\n    tag_218:\n        /* \"#utility.yul\":7848:7911   */\n      tag_220\n        /* \"#utility.yul\":7903:7910   */\n      dup9\n        /* \"#utility.yul\":7894:7900   */\n      dup3\n        /* \"#utility.yul\":7883:7892   */\n      dup10\n        /* \"#utility.yul\":7879:7901   */\n      add\n        /* \"#utility.yul\":7848:7911   */\n      tag_110\n      jump\t// in\n    tag_220:\n        /* \"#utility.yul\":7838:7911   */\n      swap4\n      pop\n        /* \"#utility.yul\":7633:7921   */\n      pop\n        /* \"#utility.yul\":7960:7962   */\n      0x60\n        /* \"#utility.yul\":7986:8039   */\n      tag_221\n        /* \"#utility.yul\":8031:8038   */\n      dup9\n        /* \"#utility.yul\":8022:8028   */\n      dup3\n        /* \"#utility.yul\":8011:8020   */\n      dup10\n        /* \"#utility.yul\":8007:8029   */\n      add\n        /* \"#utility.yul\":7986:8039   */\n      tag_101\n      jump\t// in\n    tag_221:\n        /* \"#utility.yul\":7976:8039   */\n      swap3\n      pop\n        /* \"#utility.yul\":7931:8049   */\n      pop\n        /* \"#utility.yul\":8088:8091   */\n      0x80\n        /* \"#utility.yul\":8115:8168   */\n      tag_222\n        /* \"#utility.yul\":8160:8167   */\n      dup9\n        /* \"#utility.yul\":8151:8157   */\n      dup3\n        /* \"#utility.yul\":8140:8149   */\n      dup10\n        /* \"#utility.yul\":8136:8158   */\n      add\n        /* \"#utility.yul\":8115:8168   */\n      tag_101\n      jump\t// in\n    tag_222:\n        /* \"#utility.yul\":8105:8168   */\n      swap2\n      pop\n        /* \"#utility.yul\":8059:8178   */\n      pop\n        /* \"#utility.yul\":6914:8185   */\n      swap3\n      swap6\n      pop\n      swap3\n      swap6\n      swap1\n      swap4\n      pop\n      jump\t// out\n        /* \"#utility.yul\":8191:8309   */\n    tag_111:\n        /* \"#utility.yul\":8278:8302   */\n      tag_224\n        /* \"#utility.yul\":8296:8301   */\n      dup2\n        /* \"#utility.yul\":8278:8302   */\n      tag_99\n      jump\t// in\n    tag_224:\n        /* \"#utility.yul\":8273:8276   */\n      dup3\n        /* \"#utility.yul\":8266:8303   */\n      mstore\n        /* \"#utility.yul\":8191:8309   */\n      pop\n      pop\n      jump\t// out\n        /* \"#utility.yul\":8315:9050   */\n    tag_37:\n        /* \"#utility.yul\":8532:8536   */\n      0x00\n        /* \"#utility.yul\":8570:8573   */\n      0x80\n        /* \"#utility.yul\":8559:8568   */\n      dup3\n        /* \"#utility.yul\":8555:8574   */\n      add\n        /* \"#utility.yul\":8547:8574   */\n      swap1\n      pop\n        /* \"#utility.yul\":8620:8629   */\n      dup2\n        /* \"#utility.yul\":8614:8618   */\n      dup2\n        /* \"#utility.yul\":8610:8630   */\n      sub\n        /* \"#utility.yul\":8606:8607   */\n      0x00\n        /* \"#utility.yul\":8595:8604   */\n      dup4\n        /* \"#utility.yul\":8591:8608   */\n      add\n        /* \"#utility.yul\":8584:8631   */\n      mstore\n        /* \"#utility.yul\":8648:8726   */\n      tag_226\n        /* \"#utility.yul\":8721:8725   */\n      dup2\n        /* \"#utility.yul\":8712:8718   */\n      dup8\n        /* \"#utility.yul\":8648:8726   */\n      tag_97\n      jump\t// in\n    tag_226:\n        /* \"#utility.yul\":8640:8726   */\n      swap1\n      pop\n        /* \"#utility.yul\":8773:8782   */\n      dup2\n        /* \"#utility.yul\":8767:8771   */\n      dup2\n        /* \"#utility.yul\":8763:8783   */\n      sub\n        /* \"#utility.yul\":8758:8760   */\n      0x20\n        /* \"#utility.yul\":8747:8756   */\n      dup4\n        /* \"#utility.yul\":8743:8761   */\n      add\n        /* \"#utility.yul\":8736:8784   */\n      mstore\n        /* \"#utility.yul\":8801:8879   */\n      tag_227\n        /* \"#utility.yul\":8874:8878   */\n      dup2\n        /* \"#utility.yul\":8865:8871   */\n      dup7\n        /* \"#utility.yul\":8801:8879   */\n      tag_97\n      jump\t// in\n    tag_227:\n        /* \"#utility.yul\":8793:8879   */\n      swap1\n      pop\n        /* \"#utility.yul\":8889:8961   */\n      tag_228\n        /* \"#utility.yul\":8957:8959   */\n      0x40\n        /* \"#utility.yul\":8946:8955   */\n      dup4\n        /* \"#utility.yul\":8942:8960   */\n      add\n        /* \"#utility.yul\":8933:8939   */\n      dup6\n        /* \"#utility.yul\":8889:8961   */\n      tag_111\n      jump\t// in\n    tag_228:\n        /* \"#utility.yul\":8971:9043   */\n      tag_229\n        /* \"#utility.yul\":9039:9041   */\n      0x60\n        /* \"#utility.yul\":9028:9037   */\n      dup4\n        /* \"#utility.yul\":9024:9042   */\n      add\n        /* \"#utility.yul\":9015:9021   */\n      dup5\n        /* \"#utility.yul\":8971:9043   */\n      tag_111\n      jump\t// in\n    tag_229:\n        /* \"#utility.yul\":8315:9050   */\n      swap6\n      swap5\n      pop\n      pop\n      pop\n      pop\n      pop\n      jump\t// out\n        /* \"#utility.yul\":9056:9791   */\n    tag_42:\n        /* \"#utility.yul\":9273:9277   */\n      0x00\n        /* \"#utility.yul\":9311:9314   */\n      0x80\n        /* \"#utility.yul\":9300:9309   */\n      dup3\n        /* \"#utility.yul\":9296:9315   */\n      add\n        /* \"#utility.yul\":9288:9315   */\n      swap1\n      pop\n        /* \"#utility.yul\":9361:9370   */\n      dup2\n        /* \"#utility.yul\":9355:9359   */\n      dup2\n        /* \"#utility.yul\":9351:9371   */\n      sub\n        /* \"#utility.yul\":9347:9348   */\n      0x00\n        /* \"#utility.yul\":9336:9345   */\n      dup4\n        /* \"#utility.yul\":9332:9349   */\n      add\n        /* \"#utility.yul\":9325:9372   */\n      mstore\n        /* \"#utility.yul\":9389:9467   */\n      tag_231\n        /* \"#utility.yul\":9462:9466   */\n      dup2\n        /* \"#utility.yul\":9453:9459   */\n      dup8\n        /* \"#utility.yul\":9389:9467   */\n      tag_97\n      jump\t// in\n    tag_231:\n        /* \"#utility.yul\":9381:9467   */\n      swap1\n      pop\n        /* \"#utility.yul\":9477:9549   */\n      tag_232\n        /* \"#utility.yul\":9545:9547   */\n      0x20\n        /* \"#utility.yul\":9534:9543   */\n      dup4\n        /* \"#utility.yul\":9530:9548   */\n      add\n        /* \"#utility.yul\":9521:9527   */\n      dup7\n        /* \"#utility.yul\":9477:9549   */\n      tag_111\n      jump\t// in\n    tag_232:\n        /* \"#utility.yul\":9559:9631   */\n      tag_233\n        /* \"#utility.yul\":9627:9629   */\n      0x40\n        /* \"#utility.yul\":9616:9625   */\n      dup4\n        /* \"#utility.yul\":9612:9630   */\n      add\n        /* \"#utility.yul\":9603:9609   */\n      dup6\n        /* \"#utility.yul\":9559:9631   */\n      tag_111\n      jump\t// in\n    tag_233:\n        /* \"#utility.yul\":9678:9687   */\n      dup2\n        /* \"#utility.yul\":9672:9676   */\n      dup2\n        /* \"#utility.yul\":9668:9688   */\n      sub\n        /* \"#utility.yul\":9663:9665   */\n      0x60\n        /* \"#utility.yul\":9652:9661   */\n      dup4\n        /* \"#utility.yul\":9648:9666   */\n      add\n        /* \"#utility.yul\":9641:9689   */\n      mstore\n        /* \"#utility.yul\":9706:9784   */\n      tag_234\n        /* \"#utility.yul\":9779:9783   */\n      dup2\n        /* \"#utility.yul\":9770:9776   */\n      dup5\n        /* \"#utility.yul\":9706:9784   */\n      tag_97\n      jump\t// in\n    tag_234:\n        /* \"#utility.yul\":9698:9784   */\n      swap1\n      pop\n        /* \"#utility.yul\":9056:9791   */\n      swap6\n      swap5\n      pop\n      pop\n      pop\n      pop\n      pop\n      jump\t// out\n        /* \"#utility.yul\":9797:9977   */\n    tag_112:\n        /* \"#utility.yul\":9845:9922   */\n      0x4e487b7100000000000000000000000000000000000000000000000000000000\n        /* \"#utility.yul\":9842:9843   */\n      0x00\n        /* \"#utility.yul\":9835:9923   */\n      mstore\n        /* \"#utility.yul\":9942:9946   */\n      0x11\n        /* \"#utility.yul\":9939:9940   */\n      0x04\n        /* \"#utility.yul\":9932:9947   */\n      mstore\n        /* \"#utility.yul\":9966:9970   */\n      0x24\n        /* \"#utility.yul\":9963:9964   */\n      0x00\n        /* \"#utility.yul\":9956:9971   */\n      revert\n        /* \"#utility.yul\":9983:10174   */\n    tag_50:\n        /* \"#utility.yul\":10023:10026   */\n      0x00\n        /* \"#utility.yul\":10042:10062   */\n      tag_237\n        /* \"#utility.yul\":10060:10061   */\n      dup3\n        /* \"#utility.yul\":10042:10062   */\n      tag_99\n      jump\t// in\n    tag_237:\n        /* \"#utility.yul\":10037:10062   */\n      swap2\n      pop\n        /* \"#utility.yul\":10076:10096   */\n      tag_238\n        /* \"#utility.yul\":10094:10095   */\n      dup4\n        /* \"#utility.yul\":10076:10096   */\n      tag_99\n      jump\t// in\n    tag_238:\n        /* \"#utility.yul\":10071:10096   */\n      swap3\n      pop\n        /* \"#utility.yul\":10119:10120   */\n      dup3\n        /* \"#utility.yul\":10116:10117   */\n      dup3\n        /* \"#utility.yul\":10112:10121   */\n      add\n        /* \"#utility.yul\":10105:10121   */\n      swap1\n      pop\n        /* \"#utility.yul\":10140:10143   */\n      dup1\n        /* \"#utility.yul\":10137:10138   */\n      dup3\n        /* \"#utility.yul\":10134:10144   */\n      gt\n        /* \"#utility.yul\":10131:10167   */\n      iszero\n      tag_239\n      jumpi\n        /* \"#utility.yul\":10147:10165   */\n      tag_240\n      tag_112\n      jump\t// in\n    tag_240:\n        /* \"#utility.yul\":10131:10167   */\n    tag_239:\n        /* \"#utility.yul\":9983:10174   */\n      swap3\n      swap2\n      pop\n      pop\n      jump\t// out\n        /* \"#utility.yul\":10180:10406   */\n    tag_113:\n        /* \"#utility.yul\":10320:10354   */\n      0x596f752068617665206e6f2073756666696369656e74206c616e6420746f2074\n        /* \"#utility.yul\":10316:10317   */\n      0x00\n        /* \"#utility.yul\":10308:10314   */\n      dup3\n        /* \"#utility.yul\":10304:10318   */\n      add\n        /* \"#utility.yul\":10297:10355   */\n      mstore\n        /* \"#utility.yul\":10389:10398   */\n      0x72616e7366657200000000000000000000000000000000000000000000000000\n        /* \"#utility.yul\":10384:10386   */\n      0x20\n        /* \"#utility.yul\":10376:10382   */\n      dup3\n        /* \"#utility.yul\":10372:10387   */\n      add\n        /* \"#utility.yul\":10365:10399   */\n      mstore\n        /* \"#utility.yul\":10180:10406   */\n      pop\n      jump\t// out\n        /* \"#utility.yul\":10412:10778   */\n    tag_114:\n        /* \"#utility.yul\":10554:10557   */\n      0x00\n        /* \"#utility.yul\":10575:10642   */\n      tag_243\n        /* \"#utility.yul\":10639:10641   */\n      0x27\n        /* \"#utility.yul\":10634:10637   */\n      dup4\n        /* \"#utility.yul\":10575:10642   */\n      tag_94\n      jump\t// in\n    tag_243:\n        /* \"#utility.yul\":10568:10642   */\n      swap2\n      pop\n        /* \"#utility.yul\":10651:10744   */\n      tag_244\n        /* \"#utility.yul\":10740:10743   */\n      dup3\n        /* \"#utility.yul\":10651:10744   */\n      tag_113\n      jump\t// in\n    tag_244:\n        /* \"#utility.yul\":10769:10771   */\n      0x40\n        /* \"#utility.yul\":10764:10767   */\n      dup3\n        /* \"#utility.yul\":10760:10772   */\n      add\n        /* \"#utility.yul\":10753:10772   */\n      swap1\n      pop\n        /* \"#utility.yul\":10412:10778   */\n      swap2\n      swap1\n      pop\n      jump\t// out\n        /* \"#utility.yul\":10784:11203   */\n    tag_54:\n        /* \"#utility.yul\":10950:10954   */\n      0x00\n        /* \"#utility.yul\":10988:10990   */\n      0x20\n        /* \"#utility.yul\":10977:10986   */\n      dup3\n        /* \"#utility.yul\":10973:10991   */\n      add\n        /* \"#utility.yul\":10965:10991   */\n      swap1\n      pop\n        /* \"#utility.yul\":11037:11046   */\n      dup2\n        /* \"#utility.yul\":11031:11035   */\n      dup2\n        /* \"#utility.yul\":11027:11047   */\n      sub\n        /* \"#utility.yul\":11023:11024   */\n      0x00\n        /* \"#utility.yul\":11012:11021   */\n      dup4\n        /* \"#utility.yul\":11008:11025   */\n      add\n        /* \"#utility.yul\":11001:11048   */\n      mstore\n        /* \"#utility.yul\":11065:11196   */\n      tag_246\n        /* \"#utility.yul\":11191:11195   */\n      dup2\n        /* \"#utility.yul\":11065:11196   */\n      tag_114\n      jump\t// in\n    tag_246:\n        /* \"#utility.yul\":11057:11196   */\n      swap1\n      pop\n        /* \"#utility.yul\":10784:11203   */\n      swap2\n      swap1\n      pop\n      jump\t// out\n        /* \"#utility.yul\":11209:11403   */\n    tag_56:\n        /* \"#utility.yul\":11249:11253   */\n      0x00\n        /* \"#utility.yul\":11269:11289   */\n      tag_248\n        /* \"#utility.yul\":11287:11288   */\n      dup3\n        /* \"#utility.yul\":11269:11289   */\n      tag_99\n      jump\t// in\n    tag_248:\n        /* \"#utility.yul\":11264:11289   */\n      swap2\n      pop\n        /* \"#utility.yul\":11303:11323   */\n      tag_249\n        /* \"#utility.yul\":11321:11322   */\n      dup4\n        /* \"#utility.yul\":11303:11323   */\n      tag_99\n      jump\t// in\n    tag_249:\n        /* \"#utility.yul\":11298:11323   */\n      swap3\n      pop\n        /* \"#utility.yul\":11347:11348   */\n      dup3\n        /* \"#utility.yul\":11344:11345   */\n      dup3\n        /* \"#utility.yul\":11340:11349   */\n      sub\n        /* \"#utility.yul\":11332:11349   */\n      swap1\n      pop\n        /* \"#utility.yul\":11371:11372   */\n      dup2\n        /* \"#utility.yul\":11365:11369   */\n      dup2\n        /* \"#utility.yul\":11362:11373   */\n      gt\n        /* \"#utility.yul\":11359:11396   */\n      iszero\n      tag_250\n      jumpi\n        /* \"#utility.yul\":11376:11394   */\n      tag_251\n      tag_112\n      jump\t// in\n    tag_251:\n        /* \"#utility.yul\":11359:11396   */\n    tag_250:\n        /* \"#utility.yul\":11209:11403   */\n      swap3\n      swap2\n      pop\n      pop\n      jump\t// out\n        /* \"#utility.yul\":11409:11589   */\n    tag_115:\n        /* \"#utility.yul\":11457:11534   */\n      0x4e487b7100000000000000000000000000000000000000000000000000000000\n        /* \"#utility.yul\":11454:11455   */\n      0x00\n        /* \"#utility.yul\":11447:11535   */\n      mstore\n        /* \"#utility.yul\":11554:11558   */\n      0x22\n        /* \"#utility.yul\":11551:11552   */\n      0x04\n        /* \"#utility.yul\":11544:11559   */\n      mstore\n        /* \"#utility.yul\":11578:11582   */\n      0x24\n        /* \"#utility.yul\":11575:11576   */\n      0x00\n        /* \"#utility.yul\":11568:11583   */\n      revert\n        /* \"#utility.yul\":11595:11915   */\n    tag_66:\n        /* \"#utility.yul\":11639:11645   */\n      0x00\n        /* \"#utility.yul\":11676:11677   */\n      0x02\n        /* \"#utility.yul\":11670:11674   */\n      dup3\n        /* \"#utility.yul\":11666:11678   */\n      div\n        /* \"#utility.yul\":11656:11678   */\n      swap1\n      pop\n        /* \"#utility.yul\":11723:11724   */\n      0x01\n        /* \"#utility.yul\":11717:11721   */\n      dup3\n        /* \"#utility.yul\":11713:11725   */\n      and\n        /* \"#utility.yul\":11744:11762   */\n      dup1\n        /* \"#utility.yul\":11734:11815   */\n      tag_254\n      jumpi\n        /* \"#utility.yul\":11800:11804   */\n      0x7f\n        /* \"#utility.yul\":11792:11798   */\n      dup3\n        /* \"#utility.yul\":11788:11805   */\n      and\n        /* \"#utility.yul\":11778:11805   */\n      swap2\n      pop\n        /* \"#utility.yul\":11734:11815   */\n    tag_254:\n        /* \"#utility.yul\":11862:11864   */\n      0x20\n        /* \"#utility.yul\":11854:11860   */\n      dup3\n        /* \"#utility.yul\":11851:11865   */\n      lt\n        /* \"#utility.yul\":11831:11849   */\n      dup2\n        /* \"#utility.yul\":11828:11866   */\n      sub\n        /* \"#utility.yul\":11825:11909   */\n      tag_255\n      jumpi\n        /* \"#utility.yul\":11881:11899   */\n      tag_256\n      tag_115\n      jump\t// in\n    tag_256:\n        /* \"#utility.yul\":11825:11909   */\n    tag_255:\n        /* \"#utility.yul\":11646:11915   */\n      pop\n        /* \"#utility.yul\":11595:11915   */\n      swap2\n      swap1\n      pop\n      jump\t// out\n        /* \"#utility.yul\":11921:12062   */\n    tag_116:\n        /* \"#utility.yul\":11970:11974   */\n      0x00\n        /* \"#utility.yul\":11993:11996   */\n      dup2\n        /* \"#utility.yul\":11985:11996   */\n      swap1\n      pop\n        /* \"#utility.yul\":12016:12019   */\n      dup2\n        /* \"#utility.yul\":12013:12014   */\n      0x00\n        /* \"#utility.yul\":12006:12020   */\n      mstore\n        /* \"#utility.yul\":12050:12054   */\n      0x20\n        /* \"#utility.yul\":12047:12048   */\n      0x00\n        /* \"#utility.yul\":12037:12055   */\n      keccak256\n        /* \"#utility.yul\":12029:12055   */\n      swap1\n      pop\n        /* \"#utility.yul\":11921:12062   */\n      swap2\n      swap1\n      pop\n      jump\t// out\n        /* \"#utility.yul\":12068:12161   */\n    tag_117:\n        /* \"#utility.yul\":12105:12111   */\n      0x00\n        /* \"#utility.yul\":12152:12154   */\n      0x20\n        /* \"#utility.yul\":12147:12149   */\n      0x1f\n        /* \"#utility.yul\":12140:12145   */\n      dup4\n        /* \"#utility.yul\":12136:12150   */\n      add\n        /* \"#utility.yul\":12132:12155   */\n      div\n        /* \"#utility.yul\":12122:12155   */\n      swap1\n      pop\n        /* \"#utility.yul\":12068:12161   */\n      swap2\n      swap1\n      pop\n      jump\t// out\n        /* \"#utility.yul\":12167:12274   */\n    tag_118:\n        /* \"#utility.yul\":12211:12219   */\n      0x00\n        /* \"#utility.yul\":12261:12266   */\n      dup3\n        /* \"#utility.yul\":12255:12259   */\n      dup3\n        /* \"#utility.yul\":12251:12267   */\n      shl\n        /* \"#utility.yul\":12230:12267   */\n      swap1\n      pop\n        /* \"#utility.yul\":12167:12274   */\n      swap3\n      swap2\n      pop\n      pop\n      jump\t// out\n        /* \"#utility.yul\":12280:12673   */\n    tag_119:\n        /* \"#utility.yul\":12349:12355   */\n      0x00\n        /* \"#utility.yul\":12399:12400   */\n      0x08\n        /* \"#utility.yul\":12387:12397   */\n      dup4\n        /* \"#utility.yul\":12383:12401   */\n      mul\n        /* \"#utility.yul\":12422:12519   */\n      tag_261\n        /* \"#utility.yul\":12452:12518   */\n      0xffffffffffffffffffffffffffffffffffffffffffffffffffffffffffffffff\n        /* \"#utility.yul\":12441:12450   */\n      dup3\n        /* \"#utility.yul\":12422:12519   */\n      tag_118\n      jump\t// in\n    tag_261:\n        /* \"#utility.yul\":12540:12579   */\n      tag_262\n        /* \"#utility.yul\":12570:12578   */\n      dup7\n        /* \"#utility.yul\":12559:12568   */\n      dup4\n        /* \"#utility.yul\":12540:12579   */\n      tag_118\n      jump\t// in\n    tag_262:\n        /* \"#utility.yul\":12528:12579   */\n      swap6\n      pop\n        /* \"#utility.yul\":12612:12616   */\n      dup1\n        /* \"#utility.yul\":12608:12617   */\n      not\n        /* \"#utility.yul\":12601:12606   */\n      dup5\n        /* \"#utility.yul\":12597:12618   */\n      and\n        /* \"#utility.yul\":12588:12618   */\n      swap4\n      pop\n        /* \"#utility.yul\":12661:12665   */\n      dup1\n        /* \"#utility.yul\":12651:12659   */\n      dup7\n        /* \"#utility.yul\":12647:12666   */\n      and\n        /* \"#utility.yul\":12640:12645   */\n      dup5\n        /* \"#utility.yul\":12637:12667   */\n      or\n        /* \"#utility.yul\":12627:12667   */\n      swap3\n      pop\n        /* \"#utility.yul\":12356:12673   */\n      pop\n      pop\n        /* \"#utility.yul\":12280:12673   */\n      swap4\n      swap3\n      pop\n      pop\n      pop\n      jump\t// out\n        /* \"#utility.yul\":12679:12739   */\n    tag_120:\n        /* \"#utility.yul\":12707:12710   */\n      0x00\n        /* \"#utility.yul\":12728:12733   */\n      dup2\n        /* \"#utility.yul\":12721:12733   */\n      swap1\n      pop\n        /* \"#utility.yul\":12679:12739   */\n      swap2\n      swap1\n      pop\n      jump\t// out\n        /* \"#utility.yul\":12745:12887   */\n    tag_121:\n        /* \"#utility.yul\":12795:12804   */\n      0x00\n        /* \"#utility.yul\":12828:12881   */\n      tag_265\n        /* \"#utility.yul\":12846:12880   */\n      tag_266\n        /* \"#utility.yul\":12855:12879   */\n      tag_267\n        /* \"#utility.yul\":12873:12878   */\n      dup5\n        /* \"#utility.yul\":12855:12879   */\n      tag_99\n      jump\t// in\n    tag_267:\n        /* \"#utility.yul\":12846:12880   */\n      tag_120\n      jump\t// in\n    tag_266:\n        /* \"#utility.yul\":12828:12881   */\n      tag_99\n      jump\t// in\n    tag_265:\n        /* \"#utility.yul\":12815:12881   */\n      swap1\n      pop\n        /* \"#utility.yul\":12745:12887   */\n      swap2\n      swap1\n      pop\n      jump\t// out\n        /* \"#utility.yul\":12893:12968   */\n    tag_122:\n        /* \"#utility.yul\":12936:12939   */\n      0x00\n        /* \"#utility.yul\":12957:12962   */\n      dup2\n        /* \"#utility.yul\":12950:12962   */\n      swap1\n      pop\n        /* \"#utility.yul\":12893:12968   */\n      swap2\n      swap1\n      pop\n      jump\t// out\n        /* \"#utility.yul\":12974:13243   */\n    tag_123:\n        /* \"#utility.yul\":13084:13123   */\n      tag_270\n        /* \"#utility.yul\":13115:13122   */\n      dup4\n        /* \"#utility.yul\":13084:13123   */\n      tag_121\n      jump\t// in\n    tag_270:\n        /* \"#utility.yul\":13145:13236   */\n      tag_271\n        /* \"#utility.yul\":13194:13235   */\n      tag_272\n        /* \"#utility.yul\":13218:13234   */\n      dup3\n        /* \"#utility.yul\":13194:13235   */\n      tag_122\n      jump\t// in\n    tag_272:\n        /* \"#utility.yul\":13186:13192   */\n      dup5\n        /* \"#utility.yul\":13179:13183   */\n      dup5\n        /* \"#utility.yul\":13173:13184   */\n      sload\n        /* \"#utility.yul\":13145:13236   */\n      tag_119\n      jump\t// in\n    tag_271:\n        /* \"#utility.yul\":13139:13143   */\n      dup3\n        /* \"#utility.yul\":13132:13237   */\n      sstore\n        /* \"#utility.yul\":13050:13243   */\n      pop\n        /* \"#utility.yul\":12974:13243   */\n      pop\n      pop\n      pop\n      jump\t// out\n        /* \"#utility.yul\":13249:13322   */\n    tag_124:\n        /* \"#utility.yul\":13294:13297   */\n      0x00\n        /* \"#utility.yul\":13249:13322   */\n      swap1\n      jump\t// out\n        /* \"#utility.yul\":13328:13517   */\n    tag_125:\n        /* \"#utility.yul\":13405:13437   */\n      tag_275\n      tag_124\n      jump\t// in\n    tag_275:\n        /* \"#utility.yul\":13446:13511   */\n      tag_276\n        /* \"#utility.yul\":13504:13510   */\n      dup2\n        /* \"#utility.yul\":13496:13502   */\n      dup5\n        /* \"#utility.yul\":13490:13494   */\n      dup5\n        /* \"#utility.yul\":13446:13511   */\n      tag_123\n      jump\t// in\n    tag_276:\n        /* \"#utility.yul\":13381:13517   */\n      pop\n        /* \"#utility.yul\":13328:13517   */\n      pop\n      pop\n      jump\t// out\n        /* \"#utility.yul\":13523:13709   */\n    tag_126:\n        /* \"#utility.yul\":13583:13703   */\n    tag_278:\n        /* \"#utility.yul\":13600:13603   */\n      dup2\n        /* \"#utility.yul\":13593:13598   */\n      dup2\n        /* \"#utility.yul\":13590:13604   */\n      lt\n        /* \"#utility.yul\":13583:13703   */\n      iszero\n      tag_280\n      jumpi\n        /* \"#utility.yul\":13654:13693   */\n      tag_281\n        /* \"#utility.yul\":13691:13692   */\n      0x00\n        /* \"#utility.yul\":13684:13689   */\n      dup3\n        /* \"#utility.yul\":13654:13693   */\n      tag_125\n      jump\t// in\n    tag_281:\n        /* \"#utility.yul\":13627:13628   */\n      0x01\n        /* \"#utility.yul\":13620:13625   */\n      dup2\n        /* \"#utility.yul\":13616:13629   */\n      add\n        /* \"#utility.yul\":13607:13629   */\n      swap1\n      pop\n        /* \"#utility.yul\":13583:13703   */\n      jump(tag_278)\n    tag_280:\n        /* \"#utility.yul\":13523:13709   */\n      pop\n      pop\n      jump\t// out\n        /* \"#utility.yul\":13715:14258   */\n    tag_127:\n        /* \"#utility.yul\":13816:13818   */\n      0x1f\n        /* \"#utility.yul\":13811:13814   */\n      dup3\n        /* \"#utility.yul\":13808:13819   */\n      gt\n        /* \"#utility.yul\":13805:14251   */\n      iszero\n      tag_283\n      jumpi\n        /* \"#utility.yul\":13850:13888   */\n      tag_284\n        /* \"#utility.yul\":13882:13887   */\n      dup2\n        /* \"#utility.yul\":13850:13888   */\n      tag_116\n      jump\t// in\n    tag_284:\n        /* \"#utility.yul\":13934:13963   */\n      tag_285\n        /* \"#utility.yul\":13952:13962   */\n      dup5\n        /* \"#utility.yul\":13934:13963   */\n      tag_117\n      jump\t// in\n    tag_285:\n        /* \"#utility.yul\":13924:13932   */\n      dup2\n        /* \"#utility.yul\":13920:13964   */\n      add\n        /* \"#utility.yul\":14117:14119   */\n      0x20\n        /* \"#utility.yul\":14105:14115   */\n      dup6\n        /* \"#utility.yul\":14102:14120   */\n      lt\n        /* \"#utility.yul\":14099:14148   */\n      iszero\n      tag_286\n      jumpi\n        /* \"#utility.yul\":14138:14146   */\n      dup2\n        /* \"#utility.yul\":14123:14146   */\n      swap1\n      pop\n        /* \"#utility.yul\":14099:14148   */\n    tag_286:\n        /* \"#utility.yul\":14161:14241   */\n      tag_287\n        /* \"#utility.yul\":14217:14239   */\n      tag_288\n        /* \"#utility.yul\":14235:14238   */\n      dup6\n        /* \"#utility.yul\":14217:14239   */\n      tag_117\n      jump\t// in\n    tag_288:\n        /* \"#utility.yul\":14207:14215   */\n      dup4\n        /* \"#utility.yul\":14203:14240   */\n      add\n        /* \"#utility.yul\":14190:14201   */\n      dup3\n        /* \"#utility.yul\":14161:14241   */\n      tag_126\n      jump\t// in\n    tag_287:\n        /* \"#utility.yul\":13820:14251   */\n      pop\n      pop\n        /* \"#utility.yul\":13805:14251   */\n    tag_283:\n        /* \"#utility.yul\":13715:14258   */\n      pop\n      pop\n      pop\n      jump\t// out\n        /* \"#utility.yul\":14264:14381   */\n    tag_128:\n        /* \"#utility.yul\":14318:14326   */\n      0x00\n        /* \"#utility.yul\":14368:14373   */\n      dup3\n        /* \"#utility.yul\":14362:14366   */\n      dup3\n        /* \"#utility.yul\":14358:14374   */\n      shr\n        /* \"#utility.yul\":14337:14374   */\n      swap1\n      pop\n        /* \"#utility.yul\":14264:14381   */\n      swap3\n      swap2\n      pop\n      pop\n      jump\t// out\n        /* \"#utility.yul\":14387:14556   */\n    tag_129:\n        /* \"#utility.yul\":14431:14437   */\n      0x00\n        /* \"#utility.yul\":14464:14515   */\n      tag_291\n        /* \"#utility.yul\":14512:14513   */\n      0x00\n        /* \"#utility.yul\":14508:14514   */\n      not\n        /* \"#utility.yul\":14500:14505   */\n      dup5\n        /* \"#utility.yul\":14497:14498   */\n      0x08\n        /* \"#utility.yul\":14493:14506   */\n      mul\n        /* \"#utility.yul\":14464:14515   */\n      tag_128\n      jump\t// in\n    tag_291:\n        /* \"#utility.yul\":14460:14516   */\n      not\n        /* \"#utility.yul\":14545:14549   */\n      dup1\n        /* \"#utility.yul\":14539:14543   */\n      dup4\n        /* \"#utility.yul\":14535:14550   */\n      and\n        /* \"#utility.yul\":14525:14550   */\n      swap2\n      pop\n        /* \"#utility.yul\":14438:14556   */\n      pop\n        /* \"#utility.yul\":14387:14556   */\n      swap3\n      swap2\n      pop\n      pop\n      jump\t// out\n        /* \"#utility.yul\":14561:14856   */\n    tag_130:\n        /* \"#utility.yul\":14637:14641   */\n      0x00\n        /* \"#utility.yul\":14783:14812   */\n      tag_293\n        /* \"#utility.yul\":14808:14811   */\n      dup4\n        /* \"#utility.yul\":14802:14806   */\n      dup4\n        /* \"#utility.yul\":14783:14812   */\n      tag_129\n      jump\t// in\n    tag_293:\n        /* \"#utility.yul\":14775:14812   */\n      swap2\n      pop\n        /* \"#utility.yul\":14845:14848   */\n      dup3\n        /* \"#utility.yul\":14842:14843   */\n      0x02\n        /* \"#utility.yul\":14838:14849   */\n      mul\n        /* \"#utility.yul\":14832:14836   */\n      dup3\n        /* \"#utility.yul\":14829:14850   */\n      or\n        /* \"#utility.yul\":14821:14850   */\n      swap1\n      pop\n        /* \"#utility.yul\":14561:14856   */\n      swap3\n      swap2\n      pop\n      pop\n      jump\t// out\n        /* \"#utility.yul\":14861:16256   */\n    tag_59:\n        /* \"#utility.yul\":14978:15015   */\n      tag_295\n        /* \"#utility.yul\":15011:15014   */\n      dup3\n        /* \"#utility.yul\":14978:15015   */\n      tag_93\n      jump\t// in\n    tag_295:\n        /* \"#utility.yul\":15080:15098   */\n      0xffffffffffffffff\n        /* \"#utility.yul\":15072:15078   */\n      dup2\n        /* \"#utility.yul\":15069:15099   */\n      gt\n        /* \"#utility.yul\":15066:15122   */\n      iszero\n      tag_296\n      jumpi\n        /* \"#utility.yul\":15102:15120   */\n      tag_297\n      tag_104\n      jump\t// in\n    tag_297:\n        /* \"#utility.yul\":15066:15122   */\n    tag_296:\n        /* \"#utility.yul\":15146:15184   */\n      tag_298\n        /* \"#utility.yul\":15178:15182   */\n      dup3\n        /* \"#utility.yul\":15172:15183   */\n      sload\n        /* \"#utility.yul\":15146:15184   */\n      tag_66\n      jump\t// in\n    tag_298:\n        /* \"#utility.yul\":15231:15298   */\n      tag_299\n        /* \"#utility.yul\":15291:15297   */\n      dup3\n        /* \"#utility.yul\":15283:15289   */\n      dup3\n        /* \"#utility.yul\":15277:15281   */\n      dup6\n        /* \"#utility.yul\":15231:15298   */\n      tag_127\n      jump\t// in\n    tag_299:\n        /* \"#utility.yul\":15325:15326   */\n      0x00\n        /* \"#utility.yul\":15349:15353   */\n      0x20\n        /* \"#utility.yul\":15336:15353   */\n      swap1\n      pop\n        /* \"#utility.yul\":15381:15383   */\n      0x1f\n        /* \"#utility.yul\":15373:15379   */\n      dup4\n        /* \"#utility.yul\":15370:15384   */\n      gt\n        /* \"#utility.yul\":15398:15399   */\n      0x01\n        /* \"#utility.yul\":15393:16011   */\n      dup2\n      eq\n      tag_301\n      jumpi\n        /* \"#utility.yul\":16055:16056   */\n      0x00\n        /* \"#utility.yul\":16072:16078   */\n      dup5\n        /* \"#utility.yul\":16069:16146   */\n      iszero\n      tag_302\n      jumpi\n        /* \"#utility.yul\":16121:16130   */\n      dup3\n        /* \"#utility.yul\":16116:16119   */\n      dup8\n        /* \"#utility.yul\":16112:16131   */\n      add\n        /* \"#utility.yul\":16106:16132   */\n      mload\n        /* \"#utility.yul\":16097:16132   */\n      swap1\n      pop\n        /* \"#utility.yul\":16069:16146   */\n    tag_302:\n        /* \"#utility.yul\":16172:16239   */\n      tag_303\n        /* \"#utility.yul\":16232:16238   */\n      dup6\n        /* \"#utility.yul\":16225:16230   */\n      dup3\n        /* \"#utility.yul\":16172:16239   */\n      tag_130\n      jump\t// in\n    tag_303:\n        /* \"#utility.yul\":16166:16170   */\n      dup7\n        /* \"#utility.yul\":16159:16240   */\n      sstore\n        /* \"#utility.yul\":16028:16250   */\n      pop\n        /* \"#utility.yul\":15363:16250   */\n      jump(tag_300)\n        /* \"#utility.yul\":15393:16011   */\n    tag_301:\n        /* \"#utility.yul\":15445:15449   */\n      0x1f\n        /* \"#utility.yul\":15441:15450   */\n      not\n        /* \"#utility.yul\":15433:15439   */\n      dup5\n        /* \"#utility.yul\":15429:15451   */\n      and\n        /* \"#utility.yul\":15479:15516   */\n      tag_304\n        /* \"#utility.yul\":15511:15515   */\n      dup7\n        /* \"#utility.yul\":15479:15516   */\n      tag_116\n      jump\t// in\n    tag_304:\n        /* \"#utility.yul\":15538:15539   */\n      0x00\n        /* \"#utility.yul\":15552:15760   */\n    tag_305:\n        /* \"#utility.yul\":15566:15573   */\n      dup3\n        /* \"#utility.yul\":15563:15564   */\n      dup2\n        /* \"#utility.yul\":15560:15574   */\n      lt\n        /* \"#utility.yul\":15552:15760   */\n      iszero\n      tag_307\n      jumpi\n        /* \"#utility.yul\":15645:15654   */\n      dup5\n        /* \"#utility.yul\":15640:15643   */\n      dup10\n        /* \"#utility.yul\":15636:15655   */\n      add\n        /* \"#utility.yul\":15630:15656   */\n      mload\n        /* \"#utility.yul\":15622:15628   */\n      dup3\n        /* \"#utility.yul\":15615:15657   */\n      sstore\n        /* \"#utility.yul\":15696:15697   */\n      0x01\n        /* \"#utility.yul\":15688:15694   */\n      dup3\n        /* \"#utility.yul\":15684:15698   */\n      add\n        /* \"#utility.yul\":15674:15698   */\n      swap2\n      pop\n        /* \"#utility.yul\":15743:15745   */\n      0x20\n        /* \"#utility.yul\":15732:15741   */\n      dup6\n        /* \"#utility.yul\":15728:15746   */\n      add\n        /* \"#utility.yul\":15715:15746   */\n      swap5\n      pop\n        /* \"#utility.yul\":15589:15593   */\n      0x20\n        /* \"#utility.yul\":15586:15587   */\n      dup2\n        /* \"#utility.yul\":15582:15594   */\n      add\n        /* \"#utility.yul\":15577:15594   */\n      swap1\n      pop\n        /* \"#utility.yul\":15552:15760   */\n      jump(tag_305)\n    tag_307:\n        /* \"#utility.yul\":15788:15794   */\n      dup7\n        /* \"#utility.yul\":15779:15786   */\n      dup4\n        /* \"#utility.yul\":15776:15795   */\n      lt\n        /* \"#utility.yul\":15773:15952   */\n      iszero\n      tag_308\n      jumpi\n        /* \"#utility.yul\":15846:15855   */\n      dup5\n        /* \"#utility.yul\":15841:15844   */\n      dup10\n        /* \"#utility.yul\":15837:15856   */\n      add\n        /* \"#utility.yul\":15831:15857   */\n      mload\n        /* \"#utility.yul\":15889:15937   */\n      tag_309\n        /* \"#utility.yul\":15931:15935   */\n      0x1f\n        /* \"#utility.yul\":15923:15929   */\n      dup10\n        /* \"#utility.yul\":15919:15936   */\n      and\n        /* \"#utility.yul\":15908:15917   */\n      dup3\n        /* \"#utility.yul\":15889:15937   */\n      tag_129\n      jump\t// in\n    tag_309:\n        /* \"#utility.yul\":15881:15887   */\n      dup4\n        /* \"#utility.yul\":15874:15938   */\n      sstore\n        /* \"#utility.yul\":15796:15952   */\n      pop\n        /* \"#utility.yul\":15773:15952   */\n    tag_308:\n        /* \"#utility.yul\":15998:15999   */\n      0x01\n        /* \"#utility.yul\":15994:15995   */\n      0x02\n        /* \"#utility.yul\":15986:15992   */\n      dup9\n        /* \"#utility.yul\":15982:15996   */\n      mul\n        /* \"#utility.yul\":15978:16000   */\n      add\n        /* \"#utility.yul\":15972:15976   */\n      dup9\n        /* \"#utility.yul\":15965:16001   */\n      sstore\n        /* \"#utility.yul\":15400:16011   */\n      pop\n      pop\n      pop\n        /* \"#utility.yul\":15363:16250   */\n    tag_300:\n      pop\n        /* \"#utility.yul\":14953:16256   */\n      pop\n      pop\n      pop\n        /* \"#utility.yul\":14861:16256   */\n      pop\n      pop\n      jump\t// out\n    stop\n    data_0ca2f15729f69752c2b5125de0bdc304f054fa14900921cf98bd51c3c741ab45 596f757220696e636f6d652069732067726561746572207468616e2072657175697265642c20596f7520617265206e6f7420456c696769626c65\n    data_d8870fa02eff567749f02e3637269613d5d1b227d5ea4a83fa1bc2c2cacd158d 596f7572206c616e642069732067726561746572207468616e2072657175697265642c20596f7520617265206e6f7420456c696769626c65\n\n    auxdata: 0xa2646970667358221220afb255b5dbb7cffa034d69add5949b9f92478feea2fef640c8dc0232f75d007464736f6c63430008120033\n}\n",
				"bytecode": {
					"linkReferences": {},
					"object": "60806040523480156200001157600080fd5b50604051620014ab380380620014ab8339818101604052810190620000379190620000cd565b336000806101000a81548173ffffffffffffffffffffffffffffffffffffffff021916908373ffffffffffffffffffffffffffffffffffffffff1602179055508160018190555080600281905550505062000114565b600080fd5b6000819050919050565b620000a78162000092565b8114620000b357600080fd5b50565b600081519050620000c7816200009c565b92915050565b60008060408385031215620000e757620000e66200008d565b5b6000620000f785828601620000b6565b92505060206200010a85828601620000b6565b9150509250929050565b61138780620001246000396000f3fe608060405234801561001057600080fd5b506004361061007d5760003560e01c80639dedfc701161005b5780639dedfc70146100ec578063b4aa4d0d14610108578063c2bc2efc14610124578063f5c2b123146101575761007d565b80630713b139146100825780636098c94c146100b25780638f77e230146100d0575b600080fd5b61009c60048036038101906100979190610a25565b61018a565b6040516100a99190610ae2565b60405180910390f35b6100ba6102a0565b6040516100c79190610b13565b60405180910390f35b6100ea60048036038101906100e59190610b64565b6102c4565b005b61010660048036038101906101019190610cd9565b610321565b005b610122600480360381019061011d9190610d70565b610507565b005b61013e60048036038101906101399190610a25565b61063c565b60405161014e9493929190610e32565b60405180910390f35b610171600480360381019061016c9190610a25565b610873565b6040516101819493929190610e85565b60405180910390f35b6060600154600360008473ffffffffffffffffffffffffffffffffffffffff1673ffffffffffffffffffffffffffffffffffffffff168152602001908152602001600020600101541161027f57600254600360008473ffffffffffffffffffffffffffffffffffffffff1673ffffffffffffffffffffffffffffffffffffffff168152602001908152602001600020600201541161025f576040518060400160405280601181526020017f596f75722061726520456c696769626c65000000000000000000000000000000815250905061029b565b6040518060600160405280603a81526020016112e0603a9139905061029b565b60405180606001604052806038815260200161131a6038913990505b919050565b60008054906101000a900473ffffffffffffffffffffffffffffffffffffffff1681565b80600360008473ffffffffffffffffffffffffffffffffffffffff1673ffffffffffffffffffffffffffffffffffffffff16815260200190815260200160002060010160008282546103169190610f07565b925050819055505050565b82600360008773ffffffffffffffffffffffffffffffffffffffff1673ffffffffffffffffffffffffffffffffffffffff16815260200190815260200160002060010154116103a5576040517f08c379a000000000000000000000000000000000000000000000000000000000815260040161039c90610fad565b60405180910390fd5b82600360008773ffffffffffffffffffffffffffffffffffffffff1673ffffffffffffffffffffffffffffffffffffffff16815260200190815260200160002060010160008282546103f79190610fcd565b9250508190555082600360008673ffffffffffffffffffffffffffffffffffffffff1673ffffffffffffffffffffffffffffffffffffffff16815260200190815260200160002060010160008282546104509190610f07565b9250508190555080600360008773ffffffffffffffffffffffffffffffffffffffff1673ffffffffffffffffffffffffffffffffffffffff16815260200190815260200160002060030190816104a6919061120d565b5081600360008773ffffffffffffffffffffffffffffffffffffffff1673ffffffffffffffffffffffffffffffffffffffff16815260200190815260200160002060020160008282546104f99190610fcd565b925050819055505050505050565b83600360008773ffffffffffffffffffffffffffffffffffffffff1673ffffffffffffffffffffffffffffffffffffffff1681526020019081526020016000206000019081610556919061120d565b5082600360008773ffffffffffffffffffffffffffffffffffffffff1673ffffffffffffffffffffffffffffffffffffffff16815260200190815260200160002060030190816105a6919061120d565b5081600360008773ffffffffffffffffffffffffffffffffffffffff1673ffffffffffffffffffffffffffffffffffffffff1681526020019081526020016000206002018190555080600360008773ffffffffffffffffffffffffffffffffffffffff1673ffffffffffffffffffffffffffffffffffffffff168152602001908152602001600020600101819055505050505050565b606080600080600360008673ffffffffffffffffffffffffffffffffffffffff1673ffffffffffffffffffffffffffffffffffffffff168152602001908152602001600020600001600360008773ffffffffffffffffffffffffffffffffffffffff1673ffffffffffffffffffffffffffffffffffffffff168152602001908152602001600020600301600360008873ffffffffffffffffffffffffffffffffffffffff1673ffffffffffffffffffffffffffffffffffffffff16815260200190815260200160002060020154600360008973ffffffffffffffffffffffffffffffffffffffff1673ffffffffffffffffffffffffffffffffffffffff1681526020019081526020016000206001015483805461075890611030565b80601f016020809104026020016040519081016040528092919081815260200182805461078490611030565b80156107d15780601f106107a6576101008083540402835291602001916107d1565b820191906000526020600020905b8154815290600101906020018083116107b457829003601f168201915b505050505093508280546107e490611030565b80601f016020809104026020016040519081016040528092919081815260200182805461081090611030565b801561085d5780601f106108325761010080835404028352916020019161085d565b820191906000526020600020905b81548152906001019060200180831161084057829003601f168201915b5050505050925093509350935093509193509193565b600360205280600052604060002060009150905080600001805461089690611030565b80601f01602080910402602001604051908101604052809291908181526020018280546108c290611030565b801561090f5780601f106108e45761010080835404028352916020019161090f565b820191906000526020600020905b8154815290600101906020018083116108f257829003601f168201915b50505050509080600101549080600201549080600301805461093090611030565b80601f016020809104026020016040519081016040528092919081815260200182805461095c90611030565b80156109a95780601f1061097e576101008083540402835291602001916109a9565b820191906000526020600020905b81548152906001019060200180831161098c57829003601f168201915b5050505050905084565b6000604051905090565b600080fd5b600080fd5b600073ffffffffffffffffffffffffffffffffffffffff82169050919050565b60006109f2826109c7565b9050919050565b610a02816109e7565b8114610a0d57600080fd5b50565b600081359050610a1f816109f9565b92915050565b600060208284031215610a3b57610a3a6109bd565b5b6000610a4984828501610a10565b91505092915050565b600081519050919050565b600082825260208201905092915050565b60005b83811015610a8c578082015181840152602081019050610a71565b60008484015250505050565b6000601f19601f8301169050919050565b6000610ab482610a52565b610abe8185610a5d565b9350610ace818560208601610a6e565b610ad781610a98565b840191505092915050565b60006020820190508181036000830152610afc8184610aa9565b905092915050565b610b0d816109e7565b82525050565b6000602082019050610b286000830184610b04565b92915050565b6000819050919050565b610b4181610b2e565b8114610b4c57600080fd5b50565b600081359050610b5e81610b38565b92915050565b60008060408385031215610b7b57610b7a6109bd565b5b6000610b8985828601610a10565b9250506020610b9a85828601610b4f565b9150509250929050565b600080fd5b600080fd5b7f4e487b7100000000000000000000000000000000000000000000000000000000600052604160045260246000fd5b610be682610a98565b810181811067ffffffffffffffff82111715610c0557610c04610bae565b5b80604052505050565b6000610c186109b3565b9050610c248282610bdd565b919050565b600067ffffffffffffffff821115610c4457610c43610bae565b5b610c4d82610a98565b9050602081019050919050565b82818337600083830152505050565b6000610c7c610c7784610c29565b610c0e565b905082815260208101848484011115610c9857610c97610ba9565b5b610ca3848285610c5a565b509392505050565b600082601f830112610cc057610cbf610ba4565b5b8135610cd0848260208601610c69565b91505092915050565b600080600080600060a08688031215610cf557610cf46109bd565b5b6000610d0388828901610a10565b9550506020610d1488828901610a10565b9450506040610d2588828901610b4f565b9350506060610d3688828901610b4f565b925050608086013567ffffffffffffffff811115610d5757610d566109c2565b5b610d6388828901610cab565b9150509295509295909350565b600080600080600060a08688031215610d8c57610d8b6109bd565b5b6000610d9a88828901610a10565b955050602086013567ffffffffffffffff811115610dbb57610dba6109c2565b5b610dc788828901610cab565b945050604086013567ffffffffffffffff811115610de857610de76109c2565b5b610df488828901610cab565b9350506060610e0588828901610b4f565b9250506080610e1688828901610b4f565b9150509295509295909350565b610e2c81610b2e565b82525050565b60006080820190508181036000830152610e4c8187610aa9565b90508181036020830152610e608186610aa9565b9050610e6f6040830185610e23565b610e7c6060830184610e23565b95945050505050565b60006080820190508181036000830152610e9f8187610aa9565b9050610eae6020830186610e23565b610ebb6040830185610e23565b8181036060830152610ecd8184610aa9565b905095945050505050565b7f4e487b7100000000000000000000000000000000000000000000000000000000600052601160045260246000fd5b6000610f1282610b2e565b9150610f1d83610b2e565b9250828201905080821115610f3557610f34610ed8565b5b92915050565b7f596f752068617665206e6f2073756666696369656e74206c616e6420746f207460008201527f72616e7366657200000000000000000000000000000000000000000000000000602082015250565b6000610f97602783610a5d565b9150610fa282610f3b565b604082019050919050565b60006020820190508181036000830152610fc681610f8a565b9050919050565b6000610fd882610b2e565b9150610fe383610b2e565b9250828203905081811115610ffb57610ffa610ed8565b5b92915050565b7f4e487b7100000000000000000000000000000000000000000000000000000000600052602260045260246000fd5b6000600282049050600182168061104857607f821691505b60208210810361105b5761105a611001565b5b50919050565b60008190508160005260206000209050919050565b60006020601f8301049050919050565b600082821b905092915050565b6000600883026110c37fffffffffffffffffffffffffffffffffffffffffffffffffffffffffffffffff82611086565b6110cd8683611086565b95508019841693508086168417925050509392505050565b6000819050919050565b600061110a61110561110084610b2e565b6110e5565b610b2e565b9050919050565b6000819050919050565b611124836110ef565b61113861113082611111565b848454611093565b825550505050565b600090565b61114d611140565b61115881848461111b565b505050565b5b8181101561117c57611171600082611145565b60018101905061115e565b5050565b601f8211156111c15761119281611061565b61119b84611076565b810160208510156111aa578190505b6111be6111b685611076565b83018261115d565b50505b505050565b600082821c905092915050565b60006111e4600019846008026111c6565b1980831691505092915050565b60006111fd83836111d3565b9150826002028217905092915050565b61121682610a52565b67ffffffffffffffff81111561122f5761122e610bae565b5b6112398254611030565b611244828285611180565b600060209050601f8311600181146112775760008415611265578287015190505b61126f85826111f1565b8655506112d7565b601f19841661128586611061565b60005b828110156112ad57848901518255600182019150602085019450602081019050611288565b868310156112ca57848901516112c6601f8916826111d3565b8355505b6001600288020188555050505b50505050505056fe596f757220696e636f6d652069732067726561746572207468616e2072657175697265642c20596f7520617265206e6f7420456c696769626c65596f7572206c616e642069732067726561746572207468616e2072657175697265642c20596f7520617265206e6f7420456c696769626c65a2646970667358221220afb255b5dbb7cffa034d69add5949b9f92478feea2fef640c8dc0232f75d007464736f6c63430008120033",
					"opcodes": "PUSH1 0x80 PUSH1 0x40 MSTORE CALLVALUE DUP1 ISZERO PUSH3 0x11 JUMPI PUSH1 0x0 DUP1 REVERT JUMPDEST POP PUSH1 0x40 MLOAD PUSH3 0x14AB CODESIZE SUB DUP1 PUSH3 0x14AB DUP4 CODECOPY DUP2 DUP2 ADD PUSH1 0x40 MSTORE DUP2 ADD SWAP1 PUSH3 0x37 SWAP2 SWAP1 PUSH3 0xCD JUMP JUMPDEST CALLER PUSH1 0x0 DUP1 PUSH2 0x100 EXP DUP2 SLOAD DUP2 PUSH20 0xFFFFFFFFFFFFFFFFFFFFFFFFFFFFFFFFFFFFFFFF MUL NOT AND SWAP1 DUP4 PUSH20 0xFFFFFFFFFFFFFFFFFFFFFFFFFFFFFFFFFFFFFFFF AND MUL OR SWAP1 SSTORE POP DUP2 PUSH1 0x1 DUP2 SWAP1 SSTORE POP DUP1 PUSH1 0x2 DUP2 SWAP1 SSTORE POP POP POP PUSH3 0x114 JUMP JUMPDEST PUSH1 0x0 DUP1 REVERT JUMPDEST PUSH1 0x0 DUP2 SWAP1 POP SWAP2 SWAP1 POP JUMP JUMPDEST PUSH3 0xA7 DUP2 PUSH3 0x92 JUMP JUMPDEST DUP2 EQ PUSH3 0xB3 JUMPI PUSH1 0x0 DUP1 REVERT JUMPDEST POP JUMP JUMPDEST PUSH1 0x0 DUP2 MLOAD SWAP1 POP PUSH3 0xC7 DUP2 PUSH3 0x9C JUMP JUMPDEST SWAP3 SWAP2 POP POP JUMP JUMPDEST PUSH1 0x0 DUP1 PUSH1 0x40 DUP4 DUP6 SUB SLT ISZERO PUSH3 0xE7 JUMPI PUSH3 0xE6 PUSH3 0x8D JUMP JUMPDEST JUMPDEST PUSH1 0x0 PUSH3 0xF7 DUP6 DUP3 DUP7 ADD PUSH3 0xB6 JUMP JUMPDEST SWAP3 POP POP PUSH1 0x20 PUSH3 0x10A DUP6 DUP3 DUP7 ADD PUSH3 0xB6 JUMP JUMPDEST SWAP2 POP POP SWAP3 POP SWAP3 SWAP1 POP JUMP JUMPDEST PUSH2 0x1387 DUP1 PUSH3 0x124 PUSH1 0x0 CODECOPY PUSH1 0x0 RETURN INVALID PUSH1 0x80 PUSH1 0x40 MSTORE CALLVALUE DUP1 ISZERO PUSH2 0x10 JUMPI PUSH1 0x0 DUP1 REVERT JUMPDEST POP PUSH1 0x4 CALLDATASIZE LT PUSH2 0x7D JUMPI PUSH1 0x0 CALLDATALOAD PUSH1 0xE0 SHR DUP1 PUSH4 0x9DEDFC70 GT PUSH2 0x5B JUMPI DUP1 PUSH4 0x9DEDFC70 EQ PUSH2 0xEC JUMPI DUP1 PUSH4 0xB4AA4D0D EQ PUSH2 0x108 JUMPI DUP1 PUSH4 0xC2BC2EFC EQ PUSH2 0x124 JUMPI DUP1 PUSH4 0xF5C2B123 EQ PUSH2 0x157 JUMPI PUSH2 0x7D JUMP JUMPDEST DUP1 PUSH4 0x713B139 EQ PUSH2 0x82 JUMPI DUP1 PUSH4 0x6098C94C EQ PUSH2 0xB2 JUMPI DUP1 PUSH4 0x8F77E230 EQ PUSH2 0xD0 JUMPI JUMPDEST PUSH1 0x0 DUP1 REVERT JUMPDEST PUSH2 0x9C PUSH1 0x4 DUP1 CALLDATASIZE SUB DUP2 ADD SWAP1 PUSH2 0x97 SWAP2 SWAP1 PUSH2 0xA25 JUMP JUMPDEST PUSH2 0x18A JUMP JUMPDEST PUSH1 0x40 MLOAD PUSH2 0xA9 SWAP2 SWAP1 PUSH2 0xAE2 JUMP JUMPDEST PUSH1 0x40 MLOAD DUP1 SWAP2 SUB SWAP1 RETURN JUMPDEST PUSH2 0xBA PUSH2 0x2A0 JUMP JUMPDEST PUSH1 0x40 MLOAD PUSH2 0xC7 SWAP2 SWAP1 PUSH2 0xB13 JUMP JUMPDEST PUSH1 0x40 MLOAD DUP1 SWAP2 SUB SWAP1 RETURN JUMPDEST PUSH2 0xEA PUSH1 0x4 DUP1 CALLDATASIZE SUB DUP2 ADD SWAP1 PUSH2 0xE5 SWAP2 SWAP1 PUSH2 0xB64 JUMP JUMPDEST PUSH2 0x2C4 JUMP JUMPDEST STOP JUMPDEST PUSH2 0x106 PUSH1 0x4 DUP1 CALLDATASIZE SUB DUP2 ADD SWAP1 PUSH2 0x101 SWAP2 SWAP1 PUSH2 0xCD9 JUMP JUMPDEST PUSH2 0x321 JUMP JUMPDEST STOP JUMPDEST PUSH2 0x122 PUSH1 0x4 DUP1 CALLDATASIZE SUB DUP2 ADD SWAP1 PUSH2 0x11D SWAP2 SWAP1 PUSH2 0xD70 JUMP JUMPDEST PUSH2 0x507 JUMP JUMPDEST STOP JUMPDEST PUSH2 0x13E PUSH1 0x4 DUP1 CALLDATASIZE SUB DUP2 ADD SWAP1 PUSH2 0x139 SWAP2 SWAP1 PUSH2 0xA25 JUMP JUMPDEST PUSH2 0x63C JUMP JUMPDEST PUSH1 0x40 MLOAD PUSH2 0x14E SWAP5 SWAP4 SWAP3 SWAP2 SWAP1 PUSH2 0xE32 JUMP JUMPDEST PUSH1 0x40 MLOAD DUP1 SWAP2 SUB SWAP1 RETURN JUMPDEST PUSH2 0x171 PUSH1 0x4 DUP1 CALLDATASIZE SUB DUP2 ADD SWAP1 PUSH2 0x16C SWAP2 SWAP1 PUSH2 0xA25 JUMP JUMPDEST PUSH2 0x873 JUMP JUMPDEST PUSH1 0x40 MLOAD PUSH2 0x181 SWAP5 SWAP4 SWAP3 SWAP2 SWAP1 PUSH2 0xE85 JUMP JUMPDEST PUSH1 0x40 MLOAD DUP1 SWAP2 SUB SWAP1 RETURN JUMPDEST PUSH1 0x60 PUSH1 0x1 SLOAD PUSH1 0x3 PUSH1 0x0 DUP5 PUSH20 0xFFFFFFFFFFFFFFFFFFFFFFFFFFFFFFFFFFFFFFFF AND PUSH20 0xFFFFFFFFFFFFFFFFFFFFFFFFFFFFFFFFFFFFFFFF AND DUP2 MSTORE PUSH1 0x20 ADD SWAP1 DUP2 MSTORE PUSH1 0x20 ADD PUSH1 0x0 KECCAK256 PUSH1 0x1 ADD SLOAD GT PUSH2 0x27F JUMPI PUSH1 0x2 SLOAD PUSH1 0x3 PUSH1 0x0 DUP5 PUSH20 0xFFFFFFFFFFFFFFFFFFFFFFFFFFFFFFFFFFFFFFFF AND PUSH20 0xFFFFFFFFFFFFFFFFFFFFFFFFFFFFFFFFFFFFFFFF AND DUP2 MSTORE PUSH1 0x20 ADD SWAP1 DUP2 MSTORE PUSH1 0x20 ADD PUSH1 0x0 KECCAK256 PUSH1 0x2 ADD SLOAD GT PUSH2 0x25F JUMPI PUSH1 0x40 MLOAD DUP1 PUSH1 0x40 ADD PUSH1 0x40 MSTORE DUP1 PUSH1 0x11 DUP2 MSTORE PUSH1 0x20 ADD PUSH32 0x596F75722061726520456C696769626C65000000000000000000000000000000 DUP2 MSTORE POP SWAP1 POP PUSH2 0x29B JUMP JUMPDEST PUSH1 0x40 MLOAD DUP1 PUSH1 0x60 ADD PUSH1 0x40 MSTORE DUP1 PUSH1 0x3A DUP2 MSTORE PUSH1 0x20 ADD PUSH2 0x12E0 PUSH1 0x3A SWAP2 CODECOPY SWAP1 POP PUSH2 0x29B JUMP JUMPDEST PUSH1 0x40 MLOAD DUP1 PUSH1 0x60 ADD PUSH1 0x40 MSTORE DUP1 PUSH1 0x38 DUP2 MSTORE PUSH1 0x20 ADD PUSH2 0x131A PUSH1 0x38 SWAP2 CODECOPY SWAP1 POP JUMPDEST SWAP2 SWAP1 POP JUMP JUMPDEST PUSH1 0x0 DUP1 SLOAD SWAP1 PUSH2 0x100 EXP SWAP1 DIV PUSH20 0xFFFFFFFFFFFFFFFFFFFFFFFFFFFFFFFFFFFFFFFF AND DUP2 JUMP JUMPDEST DUP1 PUSH1 0x3 PUSH1 0x0 DUP5 PUSH20 0xFFFFFFFFFFFFFFFFFFFFFFFFFFFFFFFFFFFFFFFF AND PUSH20 0xFFFFFFFFFFFFFFFFFFFFFFFFFFFFFFFFFFFFFFFF AND DUP2 MSTORE PUSH1 0x20 ADD SWAP1 DUP2 MSTORE PUSH1 0x20 ADD PUSH1 0x0 KECCAK256 PUSH1 0x1 ADD PUSH1 0x0 DUP3 DUP3 SLOAD PUSH2 0x316 SWAP2 SWAP1 PUSH2 0xF07 JUMP JUMPDEST SWAP3 POP POP DUP2 SWAP1 SSTORE POP POP POP JUMP JUMPDEST DUP3 PUSH1 0x3 PUSH1 0x0 DUP8 PUSH20 0xFFFFFFFFFFFFFFFFFFFFFFFFFFFFFFFFFFFFFFFF AND PUSH20 0xFFFFFFFFFFFFFFFFFFFFFFFFFFFFFFFFFFFFFFFF AND DUP2 MSTORE PUSH1 0x20 ADD SWAP1 DUP2 MSTORE PUSH1 0x20 ADD PUSH1 0x0 KECCAK256 PUSH1 0x1 ADD SLOAD GT PUSH2 0x3A5 JUMPI PUSH1 0x40 MLOAD PUSH32 0x8C379A000000000000000000000000000000000000000000000000000000000 DUP2 MSTORE PUSH1 0x4 ADD PUSH2 0x39C SWAP1 PUSH2 0xFAD JUMP JUMPDEST PUSH1 0x40 MLOAD DUP1 SWAP2 SUB SWAP1 REVERT JUMPDEST DUP3 PUSH1 0x3 PUSH1 0x0 DUP8 PUSH20 0xFFFFFFFFFFFFFFFFFFFFFFFFFFFFFFFFFFFFFFFF AND PUSH20 0xFFFFFFFFFFFFFFFFFFFFFFFFFFFFFFFFFFFFFFFF AND DUP2 MSTORE PUSH1 0x20 ADD SWAP1 DUP2 MSTORE PUSH1 0x20 ADD PUSH1 0x0 KECCAK256 PUSH1 0x1 ADD PUSH1 0x0 DUP3 DUP3 SLOAD PUSH2 0x3F7 SWAP2 SWAP1 PUSH2 0xFCD JUMP JUMPDEST SWAP3 POP POP DUP2 SWAP1 SSTORE POP DUP3 PUSH1 0x3 PUSH1 0x0 DUP7 PUSH20 0xFFFFFFFFFFFFFFFFFFFFFFFFFFFFFFFFFFFFFFFF AND PUSH20 0xFFFFFFFFFFFFFFFFFFFFFFFFFFFFFFFFFFFFFFFF AND DUP2 MSTORE PUSH1 0x20 ADD SWAP1 DUP2 MSTORE PUSH1 0x20 ADD PUSH1 0x0 KECCAK256 PUSH1 0x1 ADD PUSH1 0x0 DUP3 DUP3 SLOAD PUSH2 0x450 SWAP2 SWAP1 PUSH2 0xF07 JUMP JUMPDEST SWAP3 POP POP DUP2 SWAP1 SSTORE POP DUP1 PUSH1 0x3 PUSH1 0x0 DUP8 PUSH20 0xFFFFFFFFFFFFFFFFFFFFFFFFFFFFFFFFFFFFFFFF AND PUSH20 0xFFFFFFFFFFFFFFFFFFFFFFFFFFFFFFFFFFFFFFFF AND DUP2 MSTORE PUSH1 0x20 ADD SWAP1 DUP2 MSTORE PUSH1 0x20 ADD PUSH1 0x0 KECCAK256 PUSH1 0x3 ADD SWAP1 DUP2 PUSH2 0x4A6 SWAP2 SWAP1 PUSH2 0x120D JUMP JUMPDEST POP DUP2 PUSH1 0x3 PUSH1 0x0 DUP8 PUSH20 0xFFFFFFFFFFFFFFFFFFFFFFFFFFFFFFFFFFFFFFFF AND PUSH20 0xFFFFFFFFFFFFFFFFFFFFFFFFFFFFFFFFFFFFFFFF AND DUP2 MSTORE PUSH1 0x20 ADD SWAP1 DUP2 MSTORE PUSH1 0x20 ADD PUSH1 0x0 KECCAK256 PUSH1 0x2 ADD PUSH1 0x0 DUP3 DUP3 SLOAD PUSH2 0x4F9 SWAP2 SWAP1 PUSH2 0xFCD JUMP JUMPDEST SWAP3 POP POP DUP2 SWAP1 SSTORE POP POP POP POP POP POP JUMP JUMPDEST DUP4 PUSH1 0x3 PUSH1 0x0 DUP8 PUSH20 0xFFFFFFFFFFFFFFFFFFFFFFFFFFFFFFFFFFFFFFFF AND PUSH20 0xFFFFFFFFFFFFFFFFFFFFFFFFFFFFFFFFFFFFFFFF AND DUP2 MSTORE PUSH1 0x20 ADD SWAP1 DUP2 MSTORE PUSH1 0x20 ADD PUSH1 0x0 KECCAK256 PUSH1 0x0 ADD SWAP1 DUP2 PUSH2 0x556 SWAP2 SWAP1 PUSH2 0x120D JUMP JUMPDEST POP DUP3 PUSH1 0x3 PUSH1 0x0 DUP8 PUSH20 0xFFFFFFFFFFFFFFFFFFFFFFFFFFFFFFFFFFFFFFFF AND PUSH20 0xFFFFFFFFFFFFFFFFFFFFFFFFFFFFFFFFFFFFFFFF AND DUP2 MSTORE PUSH1 0x20 ADD SWAP1 DUP2 MSTORE PUSH1 0x20 ADD PUSH1 0x0 KECCAK256 PUSH1 0x3 ADD SWAP1 DUP2 PUSH2 0x5A6 SWAP2 SWAP1 PUSH2 0x120D JUMP JUMPDEST POP DUP2 PUSH1 0x3 PUSH1 0x0 DUP8 PUSH20 0xFFFFFFFFFFFFFFFFFFFFFFFFFFFFFFFFFFFFFFFF AND PUSH20 0xFFFFFFFFFFFFFFFFFFFFFFFFFFFFFFFFFFFFFFFF AND DUP2 MSTORE PUSH1 0x20 ADD SWAP1 DUP2 MSTORE PUSH1 0x20 ADD PUSH1 0x0 KECCAK256 PUSH1 0x2 ADD DUP2 SWAP1 SSTORE POP DUP1 PUSH1 0x3 PUSH1 0x0 DUP8 PUSH20 0xFFFFFFFFFFFFFFFFFFFFFFFFFFFFFFFFFFFFFFFF AND PUSH20 0xFFFFFFFFFFFFFFFFFFFFFFFFFFFFFFFFFFFFFFFF AND DUP2 MSTORE PUSH1 0x20 ADD SWAP1 DUP2 MSTORE PUSH1 0x20 ADD PUSH1 0x0 KECCAK256 PUSH1 0x1 ADD DUP2 SWAP1 SSTORE POP POP POP POP POP POP JUMP JUMPDEST PUSH1 0x60 DUP1 PUSH1 0x0 DUP1 PUSH1 0x3 PUSH1 0x0 DUP7 PUSH20 0xFFFFFFFFFFFFFFFFFFFFFFFFFFFFFFFFFFFFFFFF AND PUSH20 0xFFFFFFFFFFFFFFFFFFFFFFFFFFFFFFFFFFFFFFFF AND DUP2 MSTORE PUSH1 0x20 ADD SWAP1 DUP2 MSTORE PUSH1 0x20 ADD PUSH1 0x0 KECCAK256 PUSH1 0x0 ADD PUSH1 0x3 PUSH1 0x0 DUP8 PUSH20 0xFFFFFFFFFFFFFFFFFFFFFFFFFFFFFFFFFFFFFFFF AND PUSH20 0xFFFFFFFFFFFFFFFFFFFFFFFFFFFFFFFFFFFFFFFF AND DUP2 MSTORE PUSH1 0x20 ADD SWAP1 DUP2 MSTORE PUSH1 0x20 ADD PUSH1 0x0 KECCAK256 PUSH1 0x3 ADD PUSH1 0x3 PUSH1 0x0 DUP9 PUSH20 0xFFFFFFFFFFFFFFFFFFFFFFFFFFFFFFFFFFFFFFFF AND PUSH20 0xFFFFFFFFFFFFFFFFFFFFFFFFFFFFFFFFFFFFFFFF AND DUP2 MSTORE PUSH1 0x20 ADD SWAP1 DUP2 MSTORE PUSH1 0x20 ADD PUSH1 0x0 KECCAK256 PUSH1 0x2 ADD SLOAD PUSH1 0x3 PUSH1 0x0 DUP10 PUSH20 0xFFFFFFFFFFFFFFFFFFFFFFFFFFFFFFFFFFFFFFFF AND PUSH20 0xFFFFFFFFFFFFFFFFFFFFFFFFFFFFFFFFFFFFFFFF AND DUP2 MSTORE PUSH1 0x20 ADD SWAP1 DUP2 MSTORE PUSH1 0x20 ADD PUSH1 0x0 KECCAK256 PUSH1 0x1 ADD SLOAD DUP4 DUP1 SLOAD PUSH2 0x758 SWAP1 PUSH2 0x1030 JUMP JUMPDEST DUP1 PUSH1 0x1F ADD PUSH1 0x20 DUP1 SWAP2 DIV MUL PUSH1 0x20 ADD PUSH1 0x40 MLOAD SWAP1 DUP2 ADD PUSH1 0x40 MSTORE DUP1 SWAP3 SWAP2 SWAP1 DUP2 DUP2 MSTORE PUSH1 0x20 ADD DUP3 DUP1 SLOAD PUSH2 0x784 SWAP1 PUSH2 0x1030 JUMP JUMPDEST DUP1 ISZERO PUSH2 0x7D1 JUMPI DUP1 PUSH1 0x1F LT PUSH2 0x7A6 JUMPI PUSH2 0x100 DUP1 DUP4 SLOAD DIV MUL DUP4 MSTORE SWAP2 PUSH1 0x20 ADD SWAP2 PUSH2 0x7D1 JUMP JUMPDEST DUP3 ADD SWAP2 SWAP1 PUSH1 0x0 MSTORE PUSH1 0x20 PUSH1 0x0 KECCAK256 SWAP1 JUMPDEST DUP2 SLOAD DUP2 MSTORE SWAP1 PUSH1 0x1 ADD SWAP1 PUSH1 0x20 ADD DUP1 DUP4 GT PUSH2 0x7B4 JUMPI DUP3 SWAP1 SUB PUSH1 0x1F AND DUP3 ADD SWAP2 JUMPDEST POP POP POP POP POP SWAP4 POP DUP3 DUP1 SLOAD PUSH2 0x7E4 SWAP1 PUSH2 0x1030 JUMP JUMPDEST DUP1 PUSH1 0x1F ADD PUSH1 0x20 DUP1 SWAP2 DIV MUL PUSH1 0x20 ADD PUSH1 0x40 MLOAD SWAP1 DUP2 ADD PUSH1 0x40 MSTORE DUP1 SWAP3 SWAP2 SWAP1 DUP2 DUP2 MSTORE PUSH1 0x20 ADD DUP3 DUP1 SLOAD PUSH2 0x810 SWAP1 PUSH2 0x1030 JUMP JUMPDEST DUP1 ISZERO PUSH2 0x85D JUMPI DUP1 PUSH1 0x1F LT PUSH2 0x832 JUMPI PUSH2 0x100 DUP1 DUP4 SLOAD DIV MUL DUP4 MSTORE SWAP2 PUSH1 0x20 ADD SWAP2 PUSH2 0x85D JUMP JUMPDEST DUP3 ADD SWAP2 SWAP1 PUSH1 0x0 MSTORE PUSH1 0x20 PUSH1 0x0 KECCAK256 SWAP1 JUMPDEST DUP2 SLOAD DUP2 MSTORE SWAP1 PUSH1 0x1 ADD SWAP1 PUSH1 0x20 ADD DUP1 DUP4 GT PUSH2 0x840 JUMPI DUP3 SWAP1 SUB PUSH1 0x1F AND DUP3 ADD SWAP2 JUMPDEST POP POP POP POP POP SWAP3 POP SWAP4 POP SWAP4 POP SWAP4 POP SWAP4 POP SWAP2 SWAP4 POP SWAP2 SWAP4 JUMP JUMPDEST PUSH1 0x3 PUSH1 0x20 MSTORE DUP1 PUSH1 0x0 MSTORE PUSH1 0x40 PUSH1 0x0 KECCAK256 PUSH1 0x0 SWAP2 POP SWAP1 POP DUP1 PUSH1 0x0 ADD DUP1 SLOAD PUSH2 0x896 SWAP1 PUSH2 0x1030 JUMP JUMPDEST DUP1 PUSH1 0x1F ADD PUSH1 0x20 DUP1 SWAP2 DIV MUL PUSH1 0x20 ADD PUSH1 0x40 MLOAD SWAP1 DUP2 ADD PUSH1 0x40 MSTORE DUP1 SWAP3 SWAP2 SWAP1 DUP2 DUP2 MSTORE PUSH1 0x20 ADD DUP3 DUP1 SLOAD PUSH2 0x8C2 SWAP1 PUSH2 0x1030 JUMP JUMPDEST DUP1 ISZERO PUSH2 0x90F JUMPI DUP1 PUSH1 0x1F LT PUSH2 0x8E4 JUMPI PUSH2 0x100 DUP1 DUP4 SLOAD DIV MUL DUP4 MSTORE SWAP2 PUSH1 0x20 ADD SWAP2 PUSH2 0x90F JUMP JUMPDEST DUP3 ADD SWAP2 SWAP1 PUSH1 0x0 MSTORE PUSH1 0x20 PUSH1 0x0 KECCAK256 SWAP1 JUMPDEST DUP2 SLOAD DUP2 MSTORE SWAP1 PUSH1 0x1 ADD SWAP1 PUSH1 0x20 ADD DUP1 DUP4 GT PUSH2 0x8F2 JUMPI DUP3 SWAP1 SUB PUSH1 0x1F AND DUP3 ADD SWAP2 JUMPDEST POP POP POP POP POP SWAP1 DUP1 PUSH1 0x1 ADD SLOAD SWAP1 DUP1 PUSH1 0x2 ADD SLOAD SWAP1 DUP1 PUSH1 0x3 ADD DUP1 SLOAD PUSH2 0x930 SWAP1 PUSH2 0x1030 JUMP JUMPDEST DUP1 PUSH1 0x1F ADD PUSH1 0x20 DUP1 SWAP2 DIV MUL PUSH1 0x20 ADD PUSH1 0x40 MLOAD SWAP1 DUP2 ADD PUSH1 0x40 MSTORE DUP1 SWAP3 SWAP2 SWAP1 DUP2 DUP2 MSTORE PUSH1 0x20 ADD DUP3 DUP1 SLOAD PUSH2 0x95C SWAP1 PUSH2 0x1030 JUMP JUMPDEST DUP1 ISZERO PUSH2 0x9A9 JUMPI DUP1 PUSH1 0x1F LT PUSH2 0x97E JUMPI PUSH2 0x100 DUP1 DUP4 SLOAD DIV MUL DUP4 MSTORE SWAP2 PUSH1 0x20 ADD SWAP2 PUSH2 0x9A9 JUMP JUMPDEST DUP3 ADD SWAP2 SWAP1 PUSH1 0x0 MSTORE PUSH1 0x20 PUSH1 0x0 KECCAK256 SWAP1 JUMPDEST DUP2 SLOAD DUP2 MSTORE SWAP1 PUSH1 0x1 ADD SWAP1 PUSH1 0x20 ADD DUP1 DUP4 GT PUSH2 0x98C JUMPI DUP3 SWAP1 SUB PUSH1 0x1F AND DUP3 ADD SWAP2 JUMPDEST POP POP POP POP POP SWAP1 POP DUP5 JUMP JUMPDEST PUSH1 0x0 PUSH1 0x40 MLOAD SWAP1 POP SWAP1 JUMP JUMPDEST PUSH1 0x0 DUP1 REVERT JUMPDEST PUSH1 0x0 DUP1 REVERT JUMPDEST PUSH1 0x0 PUSH20 0xFFFFFFFFFFFFFFFFFFFFFFFFFFFFFFFFFFFFFFFF DUP3 AND SWAP1 POP SWAP2 SWAP1 POP JUMP JUMPDEST PUSH1 0x0 PUSH2 0x9F2 DUP3 PUSH2 0x9C7 JUMP JUMPDEST SWAP1 POP SWAP2 SWAP1 POP JUMP JUMPDEST PUSH2 0xA02 DUP2 PUSH2 0x9E7 JUMP JUMPDEST DUP2 EQ PUSH2 0xA0D JUMPI PUSH1 0x0 DUP1 REVERT JUMPDEST POP JUMP JUMPDEST PUSH1 0x0 DUP2 CALLDATALOAD SWAP1 POP PUSH2 0xA1F DUP2 PUSH2 0x9F9 JUMP JUMPDEST SWAP3 SWAP2 POP POP JUMP JUMPDEST PUSH1 0x0 PUSH1 0x20 DUP3 DUP5 SUB SLT ISZERO PUSH2 0xA3B JUMPI PUSH2 0xA3A PUSH2 0x9BD JUMP JUMPDEST JUMPDEST PUSH1 0x0 PUSH2 0xA49 DUP5 DUP3 DUP6 ADD PUSH2 0xA10 JUMP JUMPDEST SWAP2 POP POP SWAP3 SWAP2 POP POP JUMP JUMPDEST PUSH1 0x0 DUP2 MLOAD SWAP1 POP SWAP2 SWAP1 POP JUMP JUMPDEST PUSH1 0x0 DUP3 DUP3 MSTORE PUSH1 0x20 DUP3 ADD SWAP1 POP SWAP3 SWAP2 POP POP JUMP JUMPDEST PUSH1 0x0 JUMPDEST DUP4 DUP2 LT ISZERO PUSH2 0xA8C JUMPI DUP1 DUP3 ADD MLOAD DUP2 DUP5 ADD MSTORE PUSH1 0x20 DUP2 ADD SWAP1 POP PUSH2 0xA71 JUMP JUMPDEST PUSH1 0x0 DUP5 DUP5 ADD MSTORE POP POP POP POP JUMP JUMPDEST PUSH1 0x0 PUSH1 0x1F NOT PUSH1 0x1F DUP4 ADD AND SWAP1 POP SWAP2 SWAP1 POP JUMP JUMPDEST PUSH1 0x0 PUSH2 0xAB4 DUP3 PUSH2 0xA52 JUMP JUMPDEST PUSH2 0xABE DUP2 DUP6 PUSH2 0xA5D JUMP JUMPDEST SWAP4 POP PUSH2 0xACE DUP2 DUP6 PUSH1 0x20 DUP7 ADD PUSH2 0xA6E JUMP JUMPDEST PUSH2 0xAD7 DUP2 PUSH2 0xA98 JUMP JUMPDEST DUP5 ADD SWAP2 POP POP SWAP3 SWAP2 POP POP JUMP JUMPDEST PUSH1 0x0 PUSH1 0x20 DUP3 ADD SWAP1 POP DUP2 DUP2 SUB PUSH1 0x0 DUP4 ADD MSTORE PUSH2 0xAFC DUP2 DUP5 PUSH2 0xAA9 JUMP JUMPDEST SWAP1 POP SWAP3 SWAP2 POP POP JUMP JUMPDEST PUSH2 0xB0D DUP2 PUSH2 0x9E7 JUMP JUMPDEST DUP3 MSTORE POP POP JUMP JUMPDEST PUSH1 0x0 PUSH1 0x20 DUP3 ADD SWAP1 POP PUSH2 0xB28 PUSH1 0x0 DUP4 ADD DUP5 PUSH2 0xB04 JUMP JUMPDEST SWAP3 SWAP2 POP POP JUMP JUMPDEST PUSH1 0x0 DUP2 SWAP1 POP SWAP2 SWAP1 POP JUMP JUMPDEST PUSH2 0xB41 DUP2 PUSH2 0xB2E JUMP JUMPDEST DUP2 EQ PUSH2 0xB4C JUMPI PUSH1 0x0 DUP1 REVERT JUMPDEST POP JUMP JUMPDEST PUSH1 0x0 DUP2 CALLDATALOAD SWAP1 POP PUSH2 0xB5E DUP2 PUSH2 0xB38 JUMP JUMPDEST SWAP3 SWAP2 POP POP JUMP JUMPDEST PUSH1 0x0 DUP1 PUSH1 0x40 DUP4 DUP6 SUB SLT ISZERO PUSH2 0xB7B JUMPI PUSH2 0xB7A PUSH2 0x9BD JUMP JUMPDEST JUMPDEST PUSH1 0x0 PUSH2 0xB89 DUP6 DUP3 DUP7 ADD PUSH2 0xA10 JUMP JUMPDEST SWAP3 POP POP PUSH1 0x20 PUSH2 0xB9A DUP6 DUP3 DUP7 ADD PUSH2 0xB4F JUMP JUMPDEST SWAP2 POP POP SWAP3 POP SWAP3 SWAP1 POP JUMP JUMPDEST PUSH1 0x0 DUP1 REVERT JUMPDEST PUSH1 0x0 DUP1 REVERT JUMPDEST PUSH32 0x4E487B7100000000000000000000000000000000000000000000000000000000 PUSH1 0x0 MSTORE PUSH1 0x41 PUSH1 0x4 MSTORE PUSH1 0x24 PUSH1 0x0 REVERT JUMPDEST PUSH2 0xBE6 DUP3 PUSH2 0xA98 JUMP JUMPDEST DUP2 ADD DUP2 DUP2 LT PUSH8 0xFFFFFFFFFFFFFFFF DUP3 GT OR ISZERO PUSH2 0xC05 JUMPI PUSH2 0xC04 PUSH2 0xBAE JUMP JUMPDEST JUMPDEST DUP1 PUSH1 0x40 MSTORE POP POP POP JUMP JUMPDEST PUSH1 0x0 PUSH2 0xC18 PUSH2 0x9B3 JUMP JUMPDEST SWAP1 POP PUSH2 0xC24 DUP3 DUP3 PUSH2 0xBDD JUMP JUMPDEST SWAP2 SWAP1 POP JUMP JUMPDEST PUSH1 0x0 PUSH8 0xFFFFFFFFFFFFFFFF DUP3 GT ISZERO PUSH2 0xC44 JUMPI PUSH2 0xC43 PUSH2 0xBAE JUMP JUMPDEST JUMPDEST PUSH2 0xC4D DUP3 PUSH2 0xA98 JUMP JUMPDEST SWAP1 POP PUSH1 0x20 DUP2 ADD SWAP1 POP SWAP2 SWAP1 POP JUMP JUMPDEST DUP3 DUP2 DUP4 CALLDATACOPY PUSH1 0x0 DUP4 DUP4 ADD MSTORE POP POP POP JUMP JUMPDEST PUSH1 0x0 PUSH2 0xC7C PUSH2 0xC77 DUP5 PUSH2 0xC29 JUMP JUMPDEST PUSH2 0xC0E JUMP JUMPDEST SWAP1 POP DUP3 DUP2 MSTORE PUSH1 0x20 DUP2 ADD DUP5 DUP5 DUP5 ADD GT ISZERO PUSH2 0xC98 JUMPI PUSH2 0xC97 PUSH2 0xBA9 JUMP JUMPDEST JUMPDEST PUSH2 0xCA3 DUP5 DUP3 DUP6 PUSH2 0xC5A JUMP JUMPDEST POP SWAP4 SWAP3 POP POP POP JUMP JUMPDEST PUSH1 0x0 DUP3 PUSH1 0x1F DUP4 ADD SLT PUSH2 0xCC0 JUMPI PUSH2 0xCBF PUSH2 0xBA4 JUMP JUMPDEST JUMPDEST DUP2 CALLDATALOAD PUSH2 0xCD0 DUP5 DUP3 PUSH1 0x20 DUP7 ADD PUSH2 0xC69 JUMP JUMPDEST SWAP2 POP POP SWAP3 SWAP2 POP POP JUMP JUMPDEST PUSH1 0x0 DUP1 PUSH1 0x0 DUP1 PUSH1 0x0 PUSH1 0xA0 DUP7 DUP9 SUB SLT ISZERO PUSH2 0xCF5 JUMPI PUSH2 0xCF4 PUSH2 0x9BD JUMP JUMPDEST JUMPDEST PUSH1 0x0 PUSH2 0xD03 DUP9 DUP3 DUP10 ADD PUSH2 0xA10 JUMP JUMPDEST SWAP6 POP POP PUSH1 0x20 PUSH2 0xD14 DUP9 DUP3 DUP10 ADD PUSH2 0xA10 JUMP JUMPDEST SWAP5 POP POP PUSH1 0x40 PUSH2 0xD25 DUP9 DUP3 DUP10 ADD PUSH2 0xB4F JUMP JUMPDEST SWAP4 POP POP PUSH1 0x60 PUSH2 0xD36 DUP9 DUP3 DUP10 ADD PUSH2 0xB4F JUMP JUMPDEST SWAP3 POP POP PUSH1 0x80 DUP7 ADD CALLDATALOAD PUSH8 0xFFFFFFFFFFFFFFFF DUP2 GT ISZERO PUSH2 0xD57 JUMPI PUSH2 0xD56 PUSH2 0x9C2 JUMP JUMPDEST JUMPDEST PUSH2 0xD63 DUP9 DUP3 DUP10 ADD PUSH2 0xCAB JUMP JUMPDEST SWAP2 POP POP SWAP3 SWAP6 POP SWAP3 SWAP6 SWAP1 SWAP4 POP JUMP JUMPDEST PUSH1 0x0 DUP1 PUSH1 0x0 DUP1 PUSH1 0x0 PUSH1 0xA0 DUP7 DUP9 SUB SLT ISZERO PUSH2 0xD8C JUMPI PUSH2 0xD8B PUSH2 0x9BD JUMP JUMPDEST JUMPDEST PUSH1 0x0 PUSH2 0xD9A DUP9 DUP3 DUP10 ADD PUSH2 0xA10 JUMP JUMPDEST SWAP6 POP POP PUSH1 0x20 DUP7 ADD CALLDATALOAD PUSH8 0xFFFFFFFFFFFFFFFF DUP2 GT ISZERO PUSH2 0xDBB JUMPI PUSH2 0xDBA PUSH2 0x9C2 JUMP JUMPDEST JUMPDEST PUSH2 0xDC7 DUP9 DUP3 DUP10 ADD PUSH2 0xCAB JUMP JUMPDEST SWAP5 POP POP PUSH1 0x40 DUP7 ADD CALLDATALOAD PUSH8 0xFFFFFFFFFFFFFFFF DUP2 GT ISZERO PUSH2 0xDE8 JUMPI PUSH2 0xDE7 PUSH2 0x9C2 JUMP JUMPDEST JUMPDEST PUSH2 0xDF4 DUP9 DUP3 DUP10 ADD PUSH2 0xCAB JUMP JUMPDEST SWAP4 POP POP PUSH1 0x60 PUSH2 0xE05 DUP9 DUP3 DUP10 ADD PUSH2 0xB4F JUMP JUMPDEST SWAP3 POP POP PUSH1 0x80 PUSH2 0xE16 DUP9 DUP3 DUP10 ADD PUSH2 0xB4F JUMP JUMPDEST SWAP2 POP POP SWAP3 SWAP6 POP SWAP3 SWAP6 SWAP1 SWAP4 POP JUMP JUMPDEST PUSH2 0xE2C DUP2 PUSH2 0xB2E JUMP JUMPDEST DUP3 MSTORE POP POP JUMP JUMPDEST PUSH1 0x0 PUSH1 0x80 DUP3 ADD SWAP1 POP DUP2 DUP2 SUB PUSH1 0x0 DUP4 ADD MSTORE PUSH2 0xE4C DUP2 DUP8 PUSH2 0xAA9 JUMP JUMPDEST SWAP1 POP DUP2 DUP2 SUB PUSH1 0x20 DUP4 ADD MSTORE PUSH2 0xE60 DUP2 DUP7 PUSH2 0xAA9 JUMP JUMPDEST SWAP1 POP PUSH2 0xE6F PUSH1 0x40 DUP4 ADD DUP6 PUSH2 0xE23 JUMP JUMPDEST PUSH2 0xE7C PUSH1 0x60 DUP4 ADD DUP5 PUSH2 0xE23 JUMP JUMPDEST SWAP6 SWAP5 POP POP POP POP POP JUMP JUMPDEST PUSH1 0x0 PUSH1 0x80 DUP3 ADD SWAP1 POP DUP2 DUP2 SUB PUSH1 0x0 DUP4 ADD MSTORE PUSH2 0xE9F DUP2 DUP8 PUSH2 0xAA9 JUMP JUMPDEST SWAP1 POP PUSH2 0xEAE PUSH1 0x20 DUP4 ADD DUP7 PUSH2 0xE23 JUMP JUMPDEST PUSH2 0xEBB PUSH1 0x40 DUP4 ADD DUP6 PUSH2 0xE23 JUMP JUMPDEST DUP2 DUP2 SUB PUSH1 0x60 DUP4 ADD MSTORE PUSH2 0xECD DUP2 DUP5 PUSH2 0xAA9 JUMP JUMPDEST SWAP1 POP SWAP6 SWAP5 POP POP POP POP POP JUMP JUMPDEST PUSH32 0x4E487B7100000000000000000000000000000000000000000000000000000000 PUSH1 0x0 MSTORE PUSH1 0x11 PUSH1 0x4 MSTORE PUSH1 0x24 PUSH1 0x0 REVERT JUMPDEST PUSH1 0x0 PUSH2 0xF12 DUP3 PUSH2 0xB2E JUMP JUMPDEST SWAP2 POP PUSH2 0xF1D DUP4 PUSH2 0xB2E JUMP JUMPDEST SWAP3 POP DUP3 DUP3 ADD SWAP1 POP DUP1 DUP3 GT ISZERO PUSH2 0xF35 JUMPI PUSH2 0xF34 PUSH2 0xED8 JUMP JUMPDEST JUMPDEST SWAP3 SWAP2 POP POP JUMP JUMPDEST PUSH32 0x596F752068617665206E6F2073756666696369656E74206C616E6420746F2074 PUSH1 0x0 DUP3 ADD MSTORE PUSH32 0x72616E7366657200000000000000000000000000000000000000000000000000 PUSH1 0x20 DUP3 ADD MSTORE POP JUMP JUMPDEST PUSH1 0x0 PUSH2 0xF97 PUSH1 0x27 DUP4 PUSH2 0xA5D JUMP JUMPDEST SWAP2 POP PUSH2 0xFA2 DUP3 PUSH2 0xF3B JUMP JUMPDEST PUSH1 0x40 DUP3 ADD SWAP1 POP SWAP2 SWAP1 POP JUMP JUMPDEST PUSH1 0x0 PUSH1 0x20 DUP3 ADD SWAP1 POP DUP2 DUP2 SUB PUSH1 0x0 DUP4 ADD MSTORE PUSH2 0xFC6 DUP2 PUSH2 0xF8A JUMP JUMPDEST SWAP1 POP SWAP2 SWAP1 POP JUMP JUMPDEST PUSH1 0x0 PUSH2 0xFD8 DUP3 PUSH2 0xB2E JUMP JUMPDEST SWAP2 POP PUSH2 0xFE3 DUP4 PUSH2 0xB2E JUMP JUMPDEST SWAP3 POP DUP3 DUP3 SUB SWAP1 POP DUP2 DUP2 GT ISZERO PUSH2 0xFFB JUMPI PUSH2 0xFFA PUSH2 0xED8 JUMP JUMPDEST JUMPDEST SWAP3 SWAP2 POP POP JUMP JUMPDEST PUSH32 0x4E487B7100000000000000000000000000000000000000000000000000000000 PUSH1 0x0 MSTORE PUSH1 0x22 PUSH1 0x4 MSTORE PUSH1 0x24 PUSH1 0x0 REVERT JUMPDEST PUSH1 0x0 PUSH1 0x2 DUP3 DIV SWAP1 POP PUSH1 0x1 DUP3 AND DUP1 PUSH2 0x1048 JUMPI PUSH1 0x7F DUP3 AND SWAP2 POP JUMPDEST PUSH1 0x20 DUP3 LT DUP2 SUB PUSH2 0x105B JUMPI PUSH2 0x105A PUSH2 0x1001 JUMP JUMPDEST JUMPDEST POP SWAP2 SWAP1 POP JUMP JUMPDEST PUSH1 0x0 DUP2 SWAP1 POP DUP2 PUSH1 0x0 MSTORE PUSH1 0x20 PUSH1 0x0 KECCAK256 SWAP1 POP SWAP2 SWAP1 POP JUMP JUMPDEST PUSH1 0x0 PUSH1 0x20 PUSH1 0x1F DUP4 ADD DIV SWAP1 POP SWAP2 SWAP1 POP JUMP JUMPDEST PUSH1 0x0 DUP3 DUP3 SHL SWAP1 POP SWAP3 SWAP2 POP POP JUMP JUMPDEST PUSH1 0x0 PUSH1 0x8 DUP4 MUL PUSH2 0x10C3 PUSH32 0xFFFFFFFFFFFFFFFFFFFFFFFFFFFFFFFFFFFFFFFFFFFFFFFFFFFFFFFFFFFFFFFF DUP3 PUSH2 0x1086 JUMP JUMPDEST PUSH2 0x10CD DUP7 DUP4 PUSH2 0x1086 JUMP JUMPDEST SWAP6 POP DUP1 NOT DUP5 AND SWAP4 POP DUP1 DUP7 AND DUP5 OR SWAP3 POP POP POP SWAP4 SWAP3 POP POP POP JUMP JUMPDEST PUSH1 0x0 DUP2 SWAP1 POP SWAP2 SWAP1 POP JUMP JUMPDEST PUSH1 0x0 PUSH2 0x110A PUSH2 0x1105 PUSH2 0x1100 DUP5 PUSH2 0xB2E JUMP JUMPDEST PUSH2 0x10E5 JUMP JUMPDEST PUSH2 0xB2E JUMP JUMPDEST SWAP1 POP SWAP2 SWAP1 POP JUMP JUMPDEST PUSH1 0x0 DUP2 SWAP1 POP SWAP2 SWAP1 POP JUMP JUMPDEST PUSH2 0x1124 DUP4 PUSH2 0x10EF JUMP JUMPDEST PUSH2 0x1138 PUSH2 0x1130 DUP3 PUSH2 0x1111 JUMP JUMPDEST DUP5 DUP5 SLOAD PUSH2 0x1093 JUMP JUMPDEST DUP3 SSTORE POP POP POP POP JUMP JUMPDEST PUSH1 0x0 SWAP1 JUMP JUMPDEST PUSH2 0x114D PUSH2 0x1140 JUMP JUMPDEST PUSH2 0x1158 DUP2 DUP5 DUP5 PUSH2 0x111B JUMP JUMPDEST POP POP POP JUMP JUMPDEST JUMPDEST DUP2 DUP2 LT ISZERO PUSH2 0x117C JUMPI PUSH2 0x1171 PUSH1 0x0 DUP3 PUSH2 0x1145 JUMP JUMPDEST PUSH1 0x1 DUP2 ADD SWAP1 POP PUSH2 0x115E JUMP JUMPDEST POP POP JUMP JUMPDEST PUSH1 0x1F DUP3 GT ISZERO PUSH2 0x11C1 JUMPI PUSH2 0x1192 DUP2 PUSH2 0x1061 JUMP JUMPDEST PUSH2 0x119B DUP5 PUSH2 0x1076 JUMP JUMPDEST DUP2 ADD PUSH1 0x20 DUP6 LT ISZERO PUSH2 0x11AA JUMPI DUP2 SWAP1 POP JUMPDEST PUSH2 0x11BE PUSH2 0x11B6 DUP6 PUSH2 0x1076 JUMP JUMPDEST DUP4 ADD DUP3 PUSH2 0x115D JUMP JUMPDEST POP POP JUMPDEST POP POP POP JUMP JUMPDEST PUSH1 0x0 DUP3 DUP3 SHR SWAP1 POP SWAP3 SWAP2 POP POP JUMP JUMPDEST PUSH1 0x0 PUSH2 0x11E4 PUSH1 0x0 NOT DUP5 PUSH1 0x8 MUL PUSH2 0x11C6 JUMP JUMPDEST NOT DUP1 DUP4 AND SWAP2 POP POP SWAP3 SWAP2 POP POP JUMP JUMPDEST PUSH1 0x0 PUSH2 0x11FD DUP4 DUP4 PUSH2 0x11D3 JUMP JUMPDEST SWAP2 POP DUP3 PUSH1 0x2 MUL DUP3 OR SWAP1 POP SWAP3 SWAP2 POP POP JUMP JUMPDEST PUSH2 0x1216 DUP3 PUSH2 0xA52 JUMP JUMPDEST PUSH8 0xFFFFFFFFFFFFFFFF DUP2 GT ISZERO PUSH2 0x122F JUMPI PUSH2 0x122E PUSH2 0xBAE JUMP JUMPDEST JUMPDEST PUSH2 0x1239 DUP3 SLOAD PUSH2 0x1030 JUMP JUMPDEST PUSH2 0x1244 DUP3 DUP3 DUP6 PUSH2 0x1180 JUMP JUMPDEST PUSH1 0x0 PUSH1 0x20 SWAP1 POP PUSH1 0x1F DUP4 GT PUSH1 0x1 DUP2 EQ PUSH2 0x1277 JUMPI PUSH1 0x0 DUP5 ISZERO PUSH2 0x1265 JUMPI DUP3 DUP8 ADD MLOAD SWAP1 POP JUMPDEST PUSH2 0x126F DUP6 DUP3 PUSH2 0x11F1 JUMP JUMPDEST DUP7 SSTORE POP PUSH2 0x12D7 JUMP JUMPDEST PUSH1 0x1F NOT DUP5 AND PUSH2 0x1285 DUP7 PUSH2 0x1061 JUMP JUMPDEST PUSH1 0x0 JUMPDEST DUP3 DUP2 LT ISZERO PUSH2 0x12AD JUMPI DUP5 DUP10 ADD MLOAD DUP3 SSTORE PUSH1 0x1 DUP3 ADD SWAP2 POP PUSH1 0x20 DUP6 ADD SWAP5 POP PUSH1 0x20 DUP2 ADD SWAP1 POP PUSH2 0x1288 JUMP JUMPDEST DUP7 DUP4 LT ISZERO PUSH2 0x12CA JUMPI DUP5 DUP10 ADD MLOAD PUSH2 0x12C6 PUSH1 0x1F DUP10 AND DUP3 PUSH2 0x11D3 JUMP JUMPDEST DUP4 SSTORE POP JUMPDEST PUSH1 0x1 PUSH1 0x2 DUP9 MUL ADD DUP9 SSTORE POP POP POP JUMPDEST POP POP POP POP POP POP JUMP INVALID MSIZE PUSH16 0x757220696E636F6D6520697320677265 PUSH2 0x7465 PUSH19 0x207468616E2072657175697265642C20596F75 KECCAK256 PUSH2 0x7265 KECCAK256 PUSH15 0x6F7420456C696769626C65596F7572 KECCAK256 PUSH13 0x616E6420697320677265617465 PUSH19 0x207468616E2072657175697265642C20596F75 KECCAK256 PUSH2 0x7265 KECCAK256 PUSH15 0x6F7420456C696769626C65A2646970 PUSH7 0x7358221220AFB2 SSTORE 0xB5 0xDB 0xB7 0xCF STATICCALL SUB 0x4D PUSH10 0xADD5949B9F92478FEEA2 INVALID 0xF6 BLOCKHASH 0xC8 0xDC MUL ORIGIN 0xF7 0x5D STOP PUSH21 0x64736F6C6343000812003300000000000000000000 "
				},
				"gasEstimates": {
					"creation": {
						"codeDepositCost": "999800",
						"executionCost": "infinite",
						"totalCost": "infinite"
					},
					"external": {
						"buyLand(address,uint256)": "infinite",
						"contractowner()": "2534",
						"eligible(address)": "infinite",
						"get(address)": "infinite",
						"property(address)": "infinite",
						"set(address,string,string,uint256,uint256)": "infinite",
						"transfer(address,address,uint256,uint256,string)": "infinite"
					}
				},
				"methodIdentifiers": {
					"buyLand(address,uint256)": "8f77e230",
					"contractowner()": "6098c94c",
					"eligible(address)": "0713b139",
					"get(address)": "c2bc2efc",
					"property(address)": "f5c2b123",
					"set(address,string,string,uint256,uint256)": "b4aa4d0d",
					"transfer(address,address,uint256,uint256,string)": "9dedfc70"
				}
			},
			"storageLayout": {
				"storage": [
					{
						"astId": 3,
						"contract": "contracts/prop.sol:Property",
						"label": "contractowner",
						"offset": 0,
						"slot": "0",
						"type": "t_address"
					},
					{
						"astId": 5,
						"contract": "contracts/prop.sol:Property",
						"label": "maxLand",
						"offset": 0,
						"slot": "1",
						"type": "t_uint256"
					},
					{
						"astId": 7,
						"contract": "contracts/prop.sol:Property",
						"label": "maxAnnualIncome",
						"offset": 0,
						"slot": "2",
						"type": "t_uint256"
					},
					{
						"astId": 54,
						"contract": "contracts/prop.sol:Property",
						"label": "property",
						"offset": 0,
						"slot": "3",
						"type": "t_mapping(t_address,t_struct(Land)49_storage)"
					}
				],
				"types": {
					"t_address": {
						"encoding": "inplace",
						"label": "address",
						"numberOfBytes": "20"
					},
					"t_mapping(t_address,t_struct(Land)49_storage)": {
						"encoding": "mapping",
						"key": "t_address",
						"label": "mapping(address => struct Property.Land)",
						"numberOfBytes": "32",
						"value": "t_struct(Land)49_storage"
					},
					"t_string_storage": {
						"encoding": "bytes",
						"label": "string",
						"numberOfBytes": "32"
					},
					"t_struct(Land)49_storage": {
						"encoding": "inplace",
						"label": "struct Property.Land",
						"members": [
							{
								"astId": 42,
								"contract": "contracts/prop.sol:Property",
								"label": "name",
								"offset": 0,
								"slot": "0",
								"type": "t_string_storage"
							},
							{
								"astId": 44,
								"contract": "contracts/prop.sol:Property",
								"label": "totalLand",
								"offset": 0,
								"slot": "1",
								"type": "t_uint256"
							},
							{
								"astId": 46,
								"contract": "contracts/prop.sol:Property",
								"label": "annualIncome",
								"offset": 0,
								"slot": "2",
								"type": "t_uint256"
							},
							{
								"astId": 48,
								"contract": "contracts/prop.sol:Property",
								"label": "owner",
								"offset": 0,
								"slot": "3",
								"type": "t_string_storage"
							}
						],
						"numberOfBytes": "128"
					},
					"t_uint256": {
						"encoding": "inplace",
						"label": "uint256",
						"numberOfBytes": "32"
					}
				}
			},
			"userdoc": {
				"kind": "user",
				"methods": {},
				"version": 1
			}
		}
	}
}