{
	"contracts/count.sol": {
		"Count": {
			"abi": [
				{
					"inputs": [],
					"name": "decrement",
					"outputs": [],
					"stateMutability": "nonpayable",
					"type": "function"
				},
				{
					"inputs": [],
					"name": "get",
					"outputs": [
						{
							"internalType": "uint256",
							"name": "",
							"type": "uint256"
						}
					],
					"stateMutability": "view",
					"type": "function"
				},
				{
					"inputs": [],
					"name": "increment",
					"outputs": [],
					"stateMutability": "nonpayable",
					"type": "function"
				}
			],
			"devdoc": {
				"kind": "dev",
				"methods": {},
				"version": 1
			},
			"evm": {
				"assembly": "    /* \"contracts/count.sol\":61:300  contract Count{... */\n  mstore(0x40, 0x80)\n    /* \"contracts/count.sol\":94:95  0 */\n  0x00\n    /* \"contracts/count.sol\":83:95  uint count=0 */\n  dup1\n  sstore\n    /* \"contracts/count.sol\":61:300  contract Count{... */\n  callvalue\n  dup1\n  iszero\n  tag_1\n  jumpi\n  0x00\n  dup1\n  revert\ntag_1:\n  pop\n  dataSize(sub_0)\n  dup1\n  dataOffset(sub_0)\n  0x00\n  codecopy\n  0x00\n  return\nstop\n\nsub_0: assembly {\n        /* \"contracts/count.sol\":61:300  contract Count{... */\n      mstore(0x40, 0x80)\n      callvalue\n      dup1\n      iszero\n      tag_1\n      jumpi\n      0x00\n      dup1\n      revert\n    tag_1:\n      pop\n      jumpi(tag_2, lt(calldatasize, 0x04))\n      shr(0xe0, calldataload(0x00))\n      dup1\n      0x2baeceb7\n      eq\n      tag_3\n      jumpi\n      dup1\n      0x6d4ce63c\n      eq\n      tag_4\n      jumpi\n      dup1\n      0xd09de08a\n      eq\n      tag_5\n      jumpi\n    tag_2:\n      0x00\n      dup1\n      revert\n        /* \"contracts/count.sol\":165:220  function decrement() public {... */\n    tag_3:\n      tag_6\n      tag_7\n      jump\t// in\n    tag_6:\n      stop\n        /* \"contracts/count.sol\":226:297  function get() public view returns(uint){... */\n    tag_4:\n      tag_8\n      tag_9\n      jump\t// in\n    tag_8:\n      mload(0x40)\n      tag_10\n      swap2\n      swap1\n      tag_11\n      jump\t// in\n    tag_10:\n      mload(0x40)\n      dup1\n      swap2\n      sub\n      swap1\n      return\n        /* \"contracts/count.sol\":105:159  function increment() public {... */\n    tag_5:\n      tag_12\n      tag_13\n      jump\t// in\n    tag_12:\n      stop\n        /* \"contracts/count.sol\":165:220  function decrement() public {... */\n    tag_7:\n        /* \"contracts/count.sol\":211:212  1 */\n      0x01\n        /* \"contracts/count.sol\":204:209  count */\n      0x00\n      dup1\n        /* \"contracts/count.sol\":204:212  count-=1 */\n      dup3\n      dup3\n      sload\n      tag_15\n      swap2\n      swap1\n      tag_16\n      jump\t// in\n    tag_15:\n      swap3\n      pop\n      pop\n      dup2\n      swap1\n      sstore\n      pop\n        /* \"contracts/count.sol\":165:220  function decrement() public {... */\n      jump\t// out\n        /* \"contracts/count.sol\":226:297  function get() public view returns(uint){... */\n    tag_9:\n        /* \"contracts/count.sol\":261:265  uint */\n      0x00\n        /* \"contracts/count.sol\":284:289  count */\n      dup1\n      sload\n        /* \"contracts/count.sol\":277:289  return count */\n      swap1\n      pop\n        /* \"contracts/count.sol\":226:297  function get() public view returns(uint){... */\n      swap1\n      jump\t// out\n        /* \"contracts/count.sol\":105:159  function increment() public {... */\n    tag_13:\n        /* \"contracts/count.sol\":150:151  1 */\n      0x01\n        /* \"contracts/count.sol\":143:148  count */\n      0x00\n      dup1\n        /* \"contracts/count.sol\":143:151  count+=1 */\n      dup3\n      dup3\n      sload\n      tag_19\n      swap2\n      swap1\n      tag_20\n      jump\t// in\n    tag_19:\n      swap3\n      pop\n      pop\n      dup2\n      swap1\n      sstore\n      pop\n        /* \"contracts/count.sol\":105:159  function increment() public {... */\n      jump\t// out\n        /* \"#utility.yul\":7:84   */\n    tag_21:\n        /* \"#utility.yul\":44:51   */\n      0x00\n        /* \"#utility.yul\":73:78   */\n      dup2\n        /* \"#utility.yul\":62:78   */\n      swap1\n      pop\n        /* \"#utility.yul\":7:84   */\n      swap2\n      swap1\n      pop\n      jump\t// out\n        /* \"#utility.yul\":90:208   */\n    tag_22:\n        /* \"#utility.yul\":177:201   */\n      tag_27\n        /* \"#utility.yul\":195:200   */\n      dup2\n        /* \"#utility.yul\":177:201   */\n      tag_21\n      jump\t// in\n    tag_27:\n        /* \"#utility.yul\":172:175   */\n      dup3\n        /* \"#utility.yul\":165:202   */\n      mstore\n        /* \"#utility.yul\":90:208   */\n      pop\n      pop\n      jump\t// out\n        /* \"#utility.yul\":214:436   */\n    tag_11:\n        /* \"#utility.yul\":307:311   */\n      0x00\n        /* \"#utility.yul\":345:347   */\n      0x20\n        /* \"#utility.yul\":334:343   */\n      dup3\n        /* \"#utility.yul\":330:348   */\n      add\n        /* \"#utility.yul\":322:348   */\n      swap1\n      pop\n        /* \"#utility.yul\":358:429   */\n      tag_29\n        /* \"#utility.yul\":426:427   */\n      0x00\n        /* \"#utility.yul\":415:424   */\n      dup4\n        /* \"#utility.yul\":411:428   */\n      add\n        /* \"#utility.yul\":402:408   */\n      dup5\n        /* \"#utility.yul\":358:429   */\n      tag_22\n      jump\t// in\n    tag_29:\n        /* \"#utility.yul\":214:436   */\n      swap3\n      swap2\n      pop\n      pop\n      jump\t// out\n        /* \"#utility.yul\":442:622   */\n    tag_23:\n        /* \"#utility.yul\":490:567   */\n      0x4e487b7100000000000000000000000000000000000000000000000000000000\n        /* \"#utility.yul\":487:488   */\n      0x00\n        /* \"#utility.yul\":480:568   */\n      mstore\n        /* \"#utility.yul\":587:591   */\n      0x11\n        /* \"#utility.yul\":584:585   */\n      0x04\n        /* \"#utility.yul\":577:592   */\n      mstore\n        /* \"#utility.yul\":611:615   */\n      0x24\n        /* \"#utility.yul\":608:609   */\n      0x00\n        /* \"#utility.yul\":601:616   */\n      revert\n        /* \"#utility.yul\":628:822   */\n    tag_16:\n        /* \"#utility.yul\":668:672   */\n      0x00\n        /* \"#utility.yul\":688:708   */\n      tag_32\n        /* \"#utility.yul\":706:707   */\n      dup3\n        /* \"#utility.yul\":688:708   */\n      tag_21\n      jump\t// in\n    tag_32:\n        /* \"#utility.yul\":683:708   */\n      swap2\n      pop\n        /* \"#utility.yul\":722:742   */\n      tag_33\n        /* \"#utility.yul\":740:741   */\n      dup4\n        /* \"#utility.yul\":722:742   */\n      tag_21\n      jump\t// in\n    tag_33:\n        /* \"#utility.yul\":717:742   */\n      swap3\n      pop\n        /* \"#utility.yul\":766:767   */\n      dup3\n        /* \"#utility.yul\":763:764   */\n      dup3\n        /* \"#utility.yul\":759:768   */\n      sub\n        /* \"#utility.yul\":751:768   */\n      swap1\n      pop\n        /* \"#utility.yul\":790:791   */\n      dup2\n        /* \"#utility.yul\":784:788   */\n      dup2\n        /* \"#utility.yul\":781:792   */\n      gt\n        /* \"#utility.yul\":778:815   */\n      iszero\n      tag_34\n      jumpi\n        /* \"#utility.yul\":795:813   */\n      tag_35\n      tag_23\n      jump\t// in\n    tag_35:\n        /* \"#utility.yul\":778:815   */\n    tag_34:\n        /* \"#utility.yul\":628:822   */\n      swap3\n      swap2\n      pop\n      pop\n      jump\t// out\n        /* \"#utility.yul\":828:1019   */\n    tag_20:\n        /* \"#utility.yul\":868:871   */\n      0x00\n        /* \"#utility.yul\":887:907   */\n      tag_37\n        /* \"#utility.yul\":905:906   */\n      dup3\n        /* \"#utility.yul\":887:907   */\n      tag_21\n      jump\t// in\n    tag_37:\n        /* \"#utility.yul\":882:907   */\n      swap2\n      pop\n        /* \"#utility.yul\":921:941   */\n      tag_38\n        /* \"#utility.yul\":939:940   */\n      dup4\n        /* \"#utility.yul\":921:941   */\n      tag_21\n      jump\t// in\n    tag_38:\n        /* \"#utility.yul\":916:941   */\n      swap3\n      pop\n        /* \"#utility.yul\":964:965   */\n      dup3\n        /* \"#utility.yul\":961:962   */\n      dup3\n        /* \"#utility.yul\":957:966   */\n      add\n        /* \"#utility.yul\":950:966   */\n      swap1\n      pop\n        /* \"#utility.yul\":985:988   */\n      dup1\n        /* \"#utility.yul\":982:983   */\n      dup3\n        /* \"#utility.yul\":979:989   */\n      gt\n        /* \"#utility.yul\":976:1012   */\n      iszero\n      tag_39\n      jumpi\n        /* \"#utility.yul\":992:1010   */\n      tag_40\n      tag_23\n      jump\t// in\n    tag_40:\n        /* \"#utility.yul\":976:1012   */\n    tag_39:\n        /* \"#utility.yul\":828:1019   */\n      swap3\n      swap2\n      pop\n      pop\n      jump\t// out\n\n    auxdata: 0xa26469706673582212206afcd550c83b2872c8f3fa69ea0511c14b196ce0a5f75f4005007c569716c39664736f6c63430008110033\n}\n",
				"bytecode": {
					"linkReferences": {},
					"object": "60806040526000805534801561001457600080fd5b506101b8806100246000396000f3fe608060405234801561001057600080fd5b50600436106100415760003560e01c80632baeceb7146100465780636d4ce63c14610050578063d09de08a1461006e575b600080fd5b61004e610078565b005b610058610093565b60405161006591906100d0565b60405180910390f35b61007661009c565b005b600160008082825461008a919061011a565b92505081905550565b60008054905090565b60016000808282546100ae919061014e565b92505081905550565b6000819050919050565b6100ca816100b7565b82525050565b60006020820190506100e560008301846100c1565b92915050565b7f4e487b7100000000000000000000000000000000000000000000000000000000600052601160045260246000fd5b6000610125826100b7565b9150610130836100b7565b9250828203905081811115610148576101476100eb565b5b92915050565b6000610159826100b7565b9150610164836100b7565b925082820190508082111561017c5761017b6100eb565b5b9291505056fea26469706673582212206afcd550c83b2872c8f3fa69ea0511c14b196ce0a5f75f4005007c569716c39664736f6c63430008110033",
					"opcodes": "PUSH1 0x80 PUSH1 0x40 MSTORE PUSH1 0x0 DUP1 SSTORE CALLVALUE DUP1 ISZERO PUSH2 0x14 JUMPI PUSH1 0x0 DUP1 REVERT JUMPDEST POP PUSH2 0x1B8 DUP1 PUSH2 0x24 PUSH1 0x0 CODECOPY PUSH1 0x0 RETURN INVALID PUSH1 0x80 PUSH1 0x40 MSTORE CALLVALUE DUP1 ISZERO PUSH2 0x10 JUMPI PUSH1 0x0 DUP1 REVERT JUMPDEST POP PUSH1 0x4 CALLDATASIZE LT PUSH2 0x41 JUMPI PUSH1 0x0 CALLDATALOAD PUSH1 0xE0 SHR DUP1 PUSH4 0x2BAECEB7 EQ PUSH2 0x46 JUMPI DUP1 PUSH4 0x6D4CE63C EQ PUSH2 0x50 JUMPI DUP1 PUSH4 0xD09DE08A EQ PUSH2 0x6E JUMPI JUMPDEST PUSH1 0x0 DUP1 REVERT JUMPDEST PUSH2 0x4E PUSH2 0x78 JUMP JUMPDEST STOP JUMPDEST PUSH2 0x58 PUSH2 0x93 JUMP JUMPDEST PUSH1 0x40 MLOAD PUSH2 0x65 SWAP2 SWAP1 PUSH2 0xD0 JUMP JUMPDEST PUSH1 0x40 MLOAD DUP1 SWAP2 SUB SWAP1 RETURN JUMPDEST PUSH2 0x76 PUSH2 0x9C JUMP JUMPDEST STOP JUMPDEST PUSH1 0x1 PUSH1 0x0 DUP1 DUP3 DUP3 SLOAD PUSH2 0x8A SWAP2 SWAP1 PUSH2 0x11A JUMP JUMPDEST SWAP3 POP POP DUP2 SWAP1 SSTORE POP JUMP JUMPDEST PUSH1 0x0 DUP1 SLOAD SWAP1 POP SWAP1 JUMP JUMPDEST PUSH1 0x1 PUSH1 0x0 DUP1 DUP3 DUP3 SLOAD PUSH2 0xAE SWAP2 SWAP1 PUSH2 0x14E JUMP JUMPDEST SWAP3 POP POP DUP2 SWAP1 SSTORE POP JUMP JUMPDEST PUSH1 0x0 DUP2 SWAP1 POP SWAP2 SWAP1 POP JUMP JUMPDEST PUSH2 0xCA DUP2 PUSH2 0xB7 JUMP JUMPDEST DUP3 MSTORE POP POP JUMP JUMPDEST PUSH1 0x0 PUSH1 0x20 DUP3 ADD SWAP1 POP PUSH2 0xE5 PUSH1 0x0 DUP4 ADD DUP5 PUSH2 0xC1 JUMP JUMPDEST SWAP3 SWAP2 POP POP JUMP JUMPDEST PUSH32 0x4E487B7100000000000000000000000000000000000000000000000000000000 PUSH1 0x0 MSTORE PUSH1 0x11 PUSH1 0x4 MSTORE PUSH1 0x24 PUSH1 0x0 REVERT JUMPDEST PUSH1 0x0 PUSH2 0x125 DUP3 PUSH2 0xB7 JUMP JUMPDEST SWAP2 POP PUSH2 0x130 DUP4 PUSH2 0xB7 JUMP JUMPDEST SWAP3 POP DUP3 DUP3 SUB SWAP1 POP DUP2 DUP2 GT ISZERO PUSH2 0x148 JUMPI PUSH2 0x147 PUSH2 0xEB JUMP JUMPDEST JUMPDEST SWAP3 SWAP2 POP POP JUMP JUMPDEST PUSH1 0x0 PUSH2 0x159 DUP3 PUSH2 0xB7 JUMP JUMPDEST SWAP2 POP PUSH2 0x164 DUP4 PUSH2 0xB7 JUMP JUMPDEST SWAP3 POP DUP3 DUP3 ADD SWAP1 POP DUP1 DUP3 GT ISZERO PUSH2 0x17C JUMPI PUSH2 0x17B PUSH2 0xEB JUMP JUMPDEST JUMPDEST SWAP3 SWAP2 POP POP JUMP INVALID LOG2 PUSH5 0x6970667358 0x22 SLT KECCAK256 PUSH11 0xFCD550C83B2872C8F3FA69 0xEA SDIV GT 0xC1 0x4B NOT PUSH13 0xE0A5F75F4005007C569716C396 PUSH5 0x736F6C6343 STOP ADDMOD GT STOP CALLER "
				},
				"gasEstimates": {
					"creation": {
						"codeDepositCost": "88000",
						"executionCost": "5141",
						"totalCost": "93141"
					},
					"external": {
						"decrement()": "infinite",
						"get()": "2437",
						"increment()": "infinite"
					}
				},
				"methodIdentifiers": {
					"decrement()": "2baeceb7",
					"get()": "6d4ce63c",
					"increment()": "d09de08a"
				}
			},
			"storageLayout": {
				"storage": [
					{
						"astId": 4,
						"contract": "contracts/count.sol:Count",
						"label": "count",
						"offset": 0,
						"slot": "0",
						"type": "t_uint256"
					}
				],
				"types": {
					"t_uint256": {
						"encoding": "inplace",
						"label": "uint256",
						"numberOfBytes": "32"
					}
				}
			},
			"userdoc": {
				"kind": "user",
				"methods": {},
				"version": 1
			}
		}
	}
}