{
	"contracts/flightReservation.sol": {
		"FlightBooking": {
			"abi": [
				{
					"inputs": [],
					"stateMutability": "nonpayable",
					"type": "constructor"
				},
				{
					"inputs": [
						{
							"internalType": "address",
							"name": "staff",
							"type": "address"
						}
					],
					"name": "addAuthorizedStaff",
					"outputs": [],
					"stateMutability": "nonpayable",
					"type": "function"
				},
				{
					"inputs": [],
					"name": "addBalances",
					"outputs": [
						{
							"internalType": "uint256",
							"name": "",
							"type": "uint256"
						}
					],
					"stateMutability": "nonpayable",
					"type": "function"
				},
				{
					"inputs": [
						{
							"internalType": "uint256",
							"name": "flightNumber",
							"type": "uint256"
						},
						{
							"internalType": "uint256",
							"name": "_ticketPrice",
							"type": "uint256"
						},
						{
							"internalType": "uint256",
							"name": "_availableTickets",
							"type": "uint256"
						}
					],
					"name": "addFlight",
					"outputs": [],
					"stateMutability": "nonpayable",
					"type": "function"
				},
				{
					"inputs": [
						{
							"internalType": "address",
							"name": "",
							"type": "address"
						}
					],
					"name": "authorizedStaff",
					"outputs": [
						{
							"internalType": "bool",
							"name": "",
							"type": "bool"
						}
					],
					"stateMutability": "view",
					"type": "function"
				},
				{
					"inputs": [
						{
							"internalType": "address",
							"name": "",
							"type": "address"
						}
					],
					"name": "balances",
					"outputs": [
						{
							"internalType": "uint256",
							"name": "",
							"type": "uint256"
						}
					],
					"stateMutability": "view",
					"type": "function"
				},
				{
					"inputs": [
						{
							"internalType": "uint256",
							"name": "",
							"type": "uint256"
						}
					],
					"name": "booking",
					"outputs": [
						{
							"internalType": "address",
							"name": "owner",
							"type": "address"
						},
						{
							"internalType": "uint256",
							"name": "ticketPrice",
							"type": "uint256"
						},
						{
							"internalType": "uint256",
							"name": "availableTickets",
							"type": "uint256"
						},
						{
							"internalType": "bool",
							"name": "isPaid",
							"type": "bool"
						},
						{
							"internalType": "bool",
							"name": "isConfirmed",
							"type": "bool"
						},
						{
							"internalType": "uint256",
							"name": "flightStatus",
							"type": "uint256"
						}
					],
					"stateMutability": "view",
					"type": "function"
				},
				{
					"inputs": [
						{
							"internalType": "address",
							"name": "add",
							"type": "address"
						},
						{
							"internalType": "uint256",
							"name": "flightNumber",
							"type": "uint256"
						},
						{
							"internalType": "uint256",
							"name": "seatNumber",
							"type": "uint256"
						},
						{
							"internalType": "uint256",
							"name": "numberOfTickets",
							"type": "uint256"
						}
					],
					"name": "cancelTicket",
					"outputs": [],
					"stateMutability": "nonpayable",
					"type": "function"
				},
				{
					"inputs": [
						{
							"internalType": "uint256",
							"name": "flightNumber",
							"type": "uint256"
						}
					],
					"name": "checkFlightAvailable",
					"outputs": [],
					"stateMutability": "nonpayable",
					"type": "function"
				},
				{
					"inputs": [
						{
							"internalType": "uint256",
							"name": "flightNumber",
							"type": "uint256"
						}
					],
					"name": "checkFlightCancelled",
					"outputs": [],
					"stateMutability": "nonpayable",
					"type": "function"
				},
				{
					"inputs": [
						{
							"internalType": "uint256",
							"name": "flightNumber",
							"type": "uint256"
						}
					],
					"name": "confirmBooking",
					"outputs": [],
					"stateMutability": "nonpayable",
					"type": "function"
				},
				{
					"inputs": [
						{
							"internalType": "uint256",
							"name": "flightNumber",
							"type": "uint256"
						}
					],
					"name": "getRemainingTickets",
					"outputs": [
						{
							"internalType": "uint256",
							"name": "",
							"type": "uint256"
						}
					],
					"stateMutability": "view",
					"type": "function"
				},
				{
					"inputs": [
						{
							"internalType": "address",
							"name": "add",
							"type": "address"
						},
						{
							"internalType": "uint256",
							"name": "flightNumber",
							"type": "uint256"
						},
						{
							"internalType": "uint256",
							"name": "numberOfTickets",
							"type": "uint256"
						},
						{
							"internalType": "uint256",
							"name": "seatNumber",
							"type": "uint256"
						}
					],
					"name": "makePayment",
					"outputs": [],
					"stateMutability": "payable",
					"type": "function"
				},
				{
					"inputs": [],
					"name": "owner",
					"outputs": [
						{
							"internalType": "address",
							"name": "",
							"type": "address"
						}
					],
					"stateMutability": "view",
					"type": "function"
				},
				{
					"inputs": [
						{
							"internalType": "uint256",
							"name": "flightNumber",
							"type": "uint256"
						},
						{
							"internalType": "uint256",
							"name": "seatNumber",
							"type": "uint256"
						}
					],
					"name": "requestBooking",
					"outputs": [],
					"stateMutability": "nonpayable",
					"type": "function"
				},
				{
					"inputs": [],
					"name": "status",
					"outputs": [
						{
							"internalType": "enum FlightBooking.seatStatus",
							"name": "",
							"type": "uint8"
						}
					],
					"stateMutability": "view",
					"type": "function"
				}
			],
			"devdoc": {
				"kind": "dev",
				"methods": {},
				"version": 1
			},
			"evm": {
				"assembly": "    /* \"contracts/flightReservation.sol\":57:5469  contract FlightBooking{... */\n  mstore(0x40, 0x80)\n    /* \"contracts/flightReservation.sol\":938:1025  constructor(){... */\n  callvalue\n  dup1\n  iszero\n  tag_1\n  jumpi\n  0x00\n  dup1\n  revert\ntag_1:\n  pop\n    /* \"contracts/flightReservation.sol\":970:980  msg.sender */\n  caller\n    /* \"contracts/flightReservation.sol\":962:967  owner */\n  0x00\n  dup1\n    /* \"contracts/flightReservation.sol\":962:980  owner = msg.sender */\n  0x0100\n  exp\n  dup2\n  sload\n  dup2\n  0xffffffffffffffffffffffffffffffffffffffff\n  mul\n  not\n  and\n  swap1\n  dup4\n  0xffffffffffffffffffffffffffffffffffffffff\n  and\n  mul\n  or\n  swap1\n  sstore\n  pop\n    /* \"contracts/flightReservation.sol\":57:5469  contract FlightBooking{... */\n  dataSize(sub_0)\n  dup1\n  dataOffset(sub_0)\n  0x00\n  codecopy\n  0x00\n  return\nstop\n\nsub_0: assembly {\n        /* \"contracts/flightReservation.sol\":57:5469  contract FlightBooking{... */\n      mstore(0x40, 0x80)\n      jumpi(tag_1, lt(calldatasize, 0x04))\n      shr(0xe0, calldataload(0x00))\n      dup1\n      0x54056b69\n      gt\n      tag_17\n      jumpi\n      dup1\n      0x8da5cb5b\n      gt\n      tag_18\n      jumpi\n      dup1\n      0x8da5cb5b\n      eq\n      tag_13\n      jumpi\n      dup1\n      0x9c043f8c\n      eq\n      tag_14\n      jumpi\n      dup1\n      0xdecf5bd3\n      eq\n      tag_15\n      jumpi\n      dup1\n      0xf4b770dd\n      eq\n      tag_16\n      jumpi\n      jump(tag_1)\n    tag_18:\n      dup1\n      0x54056b69\n      eq\n      tag_9\n      jumpi\n      dup1\n      0x543be60b\n      eq\n      tag_10\n      jumpi\n      dup1\n      0x80af305a\n      eq\n      tag_11\n      jumpi\n      dup1\n      0x85ef45ec\n      eq\n      tag_12\n      jumpi\n      jump(tag_1)\n    tag_17:\n      dup1\n      0x2feac173\n      gt\n      tag_19\n      jumpi\n      dup1\n      0x2feac173\n      eq\n      tag_5\n      jumpi\n      dup1\n      0x358dc19c\n      eq\n      tag_6\n      jumpi\n      dup1\n      0x477a5fb5\n      eq\n      tag_7\n      jumpi\n      dup1\n      0x4d40d54f\n      eq\n      tag_8\n      jumpi\n      jump(tag_1)\n    tag_19:\n      dup1\n      0x0f64252f\n      eq\n      tag_2\n      jumpi\n      dup1\n      0x200d2ed2\n      eq\n      tag_3\n      jumpi\n      dup1\n      0x27e235e3\n      eq\n      tag_4\n      jumpi\n    tag_1:\n      0x00\n      dup1\n      revert\n        /* \"contracts/flightReservation.sol\":1773:2455  function requestBooking(uint flightNumber,uint seatNumber) public {... */\n    tag_2:\n      callvalue\n      dup1\n      iszero\n      tag_20\n      jumpi\n      0x00\n      dup1\n      revert\n    tag_20:\n      pop\n      tag_21\n      0x04\n      dup1\n      calldatasize\n      sub\n      dup2\n      add\n      swap1\n      tag_22\n      swap2\n      swap1\n      tag_23\n      jump\t// in\n    tag_22:\n      tag_24\n      jump\t// in\n    tag_21:\n      stop\n        /* \"contracts/flightReservation.sol\":907:931  seatStatus public status */\n    tag_3:\n      callvalue\n      dup1\n      iszero\n      tag_25\n      jumpi\n      0x00\n      dup1\n      revert\n    tag_25:\n      pop\n      tag_26\n      tag_27\n      jump\t// in\n    tag_26:\n      mload(0x40)\n      tag_28\n      swap2\n      swap1\n      tag_29\n      jump\t// in\n    tag_28:\n      mload(0x40)\n      dup1\n      swap2\n      sub\n      swap1\n      return\n        /* \"contracts/flightReservation.sol\":599:639  mapping(address => uint) public balances */\n    tag_4:\n      callvalue\n      dup1\n      iszero\n      tag_30\n      jumpi\n      0x00\n      dup1\n      revert\n    tag_30:\n      pop\n      tag_31\n      0x04\n      dup1\n      calldatasize\n      sub\n      dup2\n      add\n      swap1\n      tag_32\n      swap2\n      swap1\n      tag_33\n      jump\t// in\n    tag_32:\n      tag_34\n      jump\t// in\n    tag_31:\n      mload(0x40)\n      tag_35\n      swap2\n      swap1\n      tag_36\n      jump\t// in\n    tag_35:\n      mload(0x40)\n      dup1\n      swap2\n      sub\n      swap1\n      return\n        /* \"contracts/flightReservation.sol\":545:592  mapping(address => bool) public authorizedStaff */\n    tag_5:\n      callvalue\n      dup1\n      iszero\n      tag_37\n      jumpi\n      0x00\n      dup1\n      revert\n    tag_37:\n      pop\n      tag_38\n      0x04\n      dup1\n      calldatasize\n      sub\n      dup2\n      add\n      swap1\n      tag_39\n      swap2\n      swap1\n      tag_33\n      jump\t// in\n    tag_39:\n      tag_40\n      jump\t// in\n    tag_38:\n      mload(0x40)\n      tag_41\n      swap2\n      swap1\n      tag_42\n      jump\t// in\n    tag_41:\n      mload(0x40)\n      dup1\n      swap2\n      sub\n      swap1\n      return\n        /* \"contracts/flightReservation.sol\":499:538  mapping(uint => Booking) public booking */\n    tag_6:\n      callvalue\n      dup1\n      iszero\n      tag_43\n      jumpi\n      0x00\n      dup1\n      revert\n    tag_43:\n      pop\n      tag_44\n      0x04\n      dup1\n      calldatasize\n      sub\n      dup2\n      add\n      swap1\n      tag_45\n      swap2\n      swap1\n      tag_46\n      jump\t// in\n    tag_45:\n      tag_47\n      jump\t// in\n    tag_44:\n      mload(0x40)\n      tag_48\n      swap7\n      swap6\n      swap5\n      swap4\n      swap3\n      swap2\n      swap1\n      tag_49\n      jump\t// in\n    tag_48:\n      mload(0x40)\n      dup1\n      swap2\n      sub\n      swap1\n      return\n        /* \"contracts/flightReservation.sol\":5239:5460  function checkFlightCancelled(uint flightNumber) public {... */\n    tag_7:\n      callvalue\n      dup1\n      iszero\n      tag_50\n      jumpi\n      0x00\n      dup1\n      revert\n    tag_50:\n      pop\n      tag_51\n      0x04\n      dup1\n      calldatasize\n      sub\n      dup2\n      add\n      swap1\n      tag_52\n      swap2\n      swap1\n      tag_46\n      jump\t// in\n    tag_52:\n      tag_53\n      jump\t// in\n    tag_51:\n      stop\n        /* \"contracts/flightReservation.sol\":1247:1376  function addBalances() public returns(uint) {... */\n    tag_8:\n      callvalue\n      dup1\n      iszero\n      tag_54\n      jumpi\n      0x00\n      dup1\n      revert\n    tag_54:\n      pop\n      tag_55\n      tag_56\n      jump\t// in\n    tag_55:\n      mload(0x40)\n      tag_57\n      swap2\n      swap1\n      tag_36\n      jump\t// in\n    tag_57:\n      mload(0x40)\n      dup1\n      swap2\n      sub\n      swap1\n      return\n        /* \"contracts/flightReservation.sol\":3674:3855  function confirmBooking(uint flightNumber) public {... */\n    tag_9:\n      callvalue\n      dup1\n      iszero\n      tag_58\n      jumpi\n      0x00\n      dup1\n      revert\n    tag_58:\n      pop\n      tag_59\n      0x04\n      dup1\n      calldatasize\n      sub\n      dup2\n      add\n      swap1\n      tag_60\n      swap2\n      swap1\n      tag_46\n      jump\t// in\n    tag_60:\n      tag_61\n      jump\t// in\n    tag_59:\n      stop\n        /* \"contracts/flightReservation.sol\":5007:5231  function checkFlightAvailable(uint flightNumber) public {... */\n    tag_10:\n      callvalue\n      dup1\n      iszero\n      tag_62\n      jumpi\n      0x00\n      dup1\n      revert\n    tag_62:\n      pop\n      tag_63\n      0x04\n      dup1\n      calldatasize\n      sub\n      dup2\n      add\n      swap1\n      tag_64\n      swap2\n      swap1\n      tag_46\n      jump\t// in\n    tag_64:\n      tag_65\n      jump\t// in\n    tag_63:\n      stop\n        /* \"contracts/flightReservation.sol\":2467:2604  function getRemainingTickets(uint flightNumber) public view returns(uint){... */\n    tag_11:\n      callvalue\n      dup1\n      iszero\n      tag_66\n      jumpi\n      0x00\n      dup1\n      revert\n    tag_66:\n      pop\n      tag_67\n      0x04\n      dup1\n      calldatasize\n      sub\n      dup2\n      add\n      swap1\n      tag_68\n      swap2\n      swap1\n      tag_46\n      jump\t// in\n    tag_68:\n      tag_69\n      jump\t// in\n    tag_67:\n      mload(0x40)\n      tag_70\n      swap2\n      swap1\n      tag_36\n      jump\t// in\n    tag_70:\n      mload(0x40)\n      dup1\n      swap2\n      sub\n      swap1\n      return\n        /* \"contracts/flightReservation.sol\":2612:3662  function makePayment(address add,uint flightNumber,uint numberOfTickets,uint seatNumber) public payable{... */\n    tag_12:\n      tag_71\n      0x04\n      dup1\n      calldatasize\n      sub\n      dup2\n      add\n      swap1\n      tag_72\n      swap2\n      swap1\n      tag_73\n      jump\t// in\n    tag_72:\n      tag_74\n      jump\t// in\n    tag_71:\n      stop\n        /* \"contracts/flightReservation.sol\":88:108  address public owner */\n    tag_13:\n      callvalue\n      dup1\n      iszero\n      tag_75\n      jumpi\n      0x00\n      dup1\n      revert\n    tag_75:\n      pop\n      tag_76\n      tag_77\n      jump\t// in\n    tag_76:\n      mload(0x40)\n      tag_78\n      swap2\n      swap1\n      tag_79\n      jump\t// in\n    tag_78:\n      mload(0x40)\n      dup1\n      swap2\n      sub\n      swap1\n      return\n        /* \"contracts/flightReservation.sol\":1143:1239  function addAuthorizedStaff(address staff) public {... */\n    tag_14:\n      callvalue\n      dup1\n      iszero\n      tag_80\n      jumpi\n      0x00\n      dup1\n      revert\n    tag_80:\n      pop\n      tag_81\n      0x04\n      dup1\n      calldatasize\n      sub\n      dup2\n      add\n      swap1\n      tag_82\n      swap2\n      swap1\n      tag_33\n      jump\t// in\n    tag_82:\n      tag_83\n      jump\t// in\n    tag_81:\n      stop\n        /* \"contracts/flightReservation.sol\":3863:4654  function cancelTicket(address add,uint flightNumber,uint seatNumber,uint numberOfTickets) public {... */\n    tag_15:\n      callvalue\n      dup1\n      iszero\n      tag_84\n      jumpi\n      0x00\n      dup1\n      revert\n    tag_84:\n      pop\n      tag_85\n      0x04\n      dup1\n      calldatasize\n      sub\n      dup2\n      add\n      swap1\n      tag_86\n      swap2\n      swap1\n      tag_73\n      jump\t// in\n    tag_86:\n      tag_87\n      jump\t// in\n    tag_85:\n      stop\n        /* \"contracts/flightReservation.sol\":1384:1761  function addFlight(uint flightNumber,uint _ticketPrice,uint _availableTickets) public onlyOwner(){... */\n    tag_16:\n      callvalue\n      dup1\n      iszero\n      tag_88\n      jumpi\n      0x00\n      dup1\n      revert\n    tag_88:\n      pop\n      tag_89\n      0x04\n      dup1\n      calldatasize\n      sub\n      dup2\n      add\n      swap1\n      tag_90\n      swap2\n      swap1\n      tag_91\n      jump\t// in\n    tag_90:\n      tag_92\n      jump\t// in\n    tag_89:\n      stop\n        /* \"contracts/flightReservation.sol\":1773:2455  function requestBooking(uint flightNumber,uint seatNumber) public {... */\n    tag_24:\n        /* \"contracts/flightReservation.sol\":1877:1887  msg.sender */\n      caller\n        /* \"contracts/flightReservation.sol\":1847:1854  booking */\n      0x01\n        /* \"contracts/flightReservation.sol\":1847:1868  booking[flightNumber] */\n      0x00\n        /* \"contracts/flightReservation.sol\":1855:1867  flightNumber */\n      dup5\n        /* \"contracts/flightReservation.sol\":1847:1868  booking[flightNumber] */\n      dup2\n      mstore\n      0x20\n      add\n      swap1\n      dup2\n      mstore\n      0x20\n      add\n      0x00\n      keccak256\n        /* \"contracts/flightReservation.sol\":1847:1874  booking[flightNumber].owner */\n      0x00\n      add\n      0x00\n        /* \"contracts/flightReservation.sol\":1847:1887  booking[flightNumber].owner = msg.sender */\n      0x0100\n      exp\n      dup2\n      sload\n      dup2\n      0xffffffffffffffffffffffffffffffffffffffff\n      mul\n      not\n      and\n      swap1\n      dup4\n      0xffffffffffffffffffffffffffffffffffffffff\n      and\n      mul\n      or\n      swap1\n      sstore\n      pop\n        /* \"contracts/flightReservation.sol\":1941:1942  0 */\n      0x00\n        /* \"contracts/flightReservation.sol\":1903:1910  booking */\n      0x01\n        /* \"contracts/flightReservation.sol\":1903:1924  booking[flightNumber] */\n      0x00\n        /* \"contracts/flightReservation.sol\":1911:1923  flightNumber */\n      dup5\n        /* \"contracts/flightReservation.sol\":1903:1924  booking[flightNumber] */\n      dup2\n      mstore\n      0x20\n      add\n      swap1\n      dup2\n      mstore\n      0x20\n      add\n      0x00\n      keccak256\n        /* \"contracts/flightReservation.sol\":1903:1937  booking[flightNumber].flightStatus */\n      0x04\n      add\n      sload\n        /* \"contracts/flightReservation.sol\":1903:1942  booking[flightNumber].flightStatus == 0 */\n      eq\n        /* \"contracts/flightReservation.sol\":1895:1969  require(booking[flightNumber].flightStatus == 0,\"Flight is not Available\") */\n      tag_94\n      jumpi\n      mload(0x40)\n      0x08c379a000000000000000000000000000000000000000000000000000000000\n      dup2\n      mstore\n      0x04\n      add\n      tag_95\n      swap1\n      tag_96\n      jump\t// in\n    tag_95:\n      mload(0x40)\n      dup1\n      swap2\n      sub\n      swap1\n      revert\n    tag_94:\n        /* \"contracts/flightReservation.sol\":2087:2092  false */\n      0x00\n        /* \"contracts/flightReservation.sol\":2041:2092  seatAvailability[flightNumber][seatNumber] == false */\n      iszero\n      iszero\n        /* \"contracts/flightReservation.sol\":2041:2057  seatAvailability */\n      0x05\n        /* \"contracts/flightReservation.sol\":2041:2071  seatAvailability[flightNumber] */\n      0x00\n        /* \"contracts/flightReservation.sol\":2058:2070  flightNumber */\n      dup5\n        /* \"contracts/flightReservation.sol\":2041:2071  seatAvailability[flightNumber] */\n      dup2\n      mstore\n      0x20\n      add\n      swap1\n      dup2\n      mstore\n      0x20\n      add\n      0x00\n      keccak256\n        /* \"contracts/flightReservation.sol\":2041:2083  seatAvailability[flightNumber][seatNumber] */\n      0x00\n        /* \"contracts/flightReservation.sol\":2072:2082  seatNumber */\n      dup4\n        /* \"contracts/flightReservation.sol\":2041:2083  seatAvailability[flightNumber][seatNumber] */\n      dup2\n      mstore\n      0x20\n      add\n      swap1\n      dup2\n      mstore\n      0x20\n      add\n      0x00\n      keccak256\n      0x00\n      swap1\n      sload\n      swap1\n      0x0100\n      exp\n      swap1\n      div\n      0xff\n      and\n        /* \"contracts/flightReservation.sol\":2041:2092  seatAvailability[flightNumber][seatNumber] == false */\n      iszero\n      iszero\n      eq\n        /* \"contracts/flightReservation.sol\":2033:2115  require(seatAvailability[flightNumber][seatNumber] == false,\"Seat already Booked\") */\n      tag_97\n      jumpi\n      mload(0x40)\n      0x08c379a000000000000000000000000000000000000000000000000000000000\n      dup2\n      mstore\n      0x04\n      add\n      tag_98\n      swap1\n      tag_99\n      jump\t// in\n    tag_98:\n      mload(0x40)\n      dup1\n      swap2\n      sub\n      swap1\n      revert\n    tag_97:\n        /* \"contracts/flightReservation.sol\":2188:2189  1 */\n      0x01\n        /* \"contracts/flightReservation.sol\":2146:2153  booking */\n      dup1\n        /* \"contracts/flightReservation.sol\":2146:2167  booking[flightNumber] */\n      0x00\n        /* \"contracts/flightReservation.sol\":2154:2166  flightNumber */\n      dup5\n        /* \"contracts/flightReservation.sol\":2146:2167  booking[flightNumber] */\n      dup2\n      mstore\n      0x20\n      add\n      swap1\n      dup2\n      mstore\n      0x20\n      add\n      0x00\n      keccak256\n        /* \"contracts/flightReservation.sol\":2146:2184  booking[flightNumber].availableTickets */\n      0x02\n      add\n      sload\n        /* \"contracts/flightReservation.sol\":2146:2189  booking[flightNumber].availableTickets >= 1 */\n      lt\n      iszero\n        /* \"contracts/flightReservation.sol\":2138:2235  require(booking[flightNumber].availableTickets >= 1,\"Sorry! No enough tickets available to book\") */\n      tag_100\n      jumpi\n      mload(0x40)\n      0x08c379a000000000000000000000000000000000000000000000000000000000\n      dup2\n      mstore\n      0x04\n      add\n      tag_101\n      swap1\n      tag_102\n      jump\t// in\n    tag_101:\n      mload(0x40)\n      dup1\n      swap2\n      sub\n      swap1\n      revert\n    tag_100:\n        /* \"contracts/flightReservation.sol\":1773:2455  function requestBooking(uint flightNumber,uint seatNumber) public {... */\n      pop\n      pop\n      jump\t// out\n        /* \"contracts/flightReservation.sol\":907:931  seatStatus public status */\n    tag_27:\n      0x07\n      0x00\n      swap1\n      sload\n      swap1\n      0x0100\n      exp\n      swap1\n      div\n      0xff\n      and\n      dup2\n      jump\t// out\n        /* \"contracts/flightReservation.sol\":599:639  mapping(address => uint) public balances */\n    tag_34:\n      mstore(0x20, 0x03)\n      dup1\n      0x00\n      mstore\n      keccak256(0x00, 0x40)\n      0x00\n      swap2\n      pop\n      swap1\n      pop\n      sload\n      dup2\n      jump\t// out\n        /* \"contracts/flightReservation.sol\":545:592  mapping(address => bool) public authorizedStaff */\n    tag_40:\n      mstore(0x20, 0x02)\n      dup1\n      0x00\n      mstore\n      keccak256(0x00, 0x40)\n      0x00\n      swap2\n      pop\n      sload\n      swap1\n      0x0100\n      exp\n      swap1\n      div\n      0xff\n      and\n      dup2\n      jump\t// out\n        /* \"contracts/flightReservation.sol\":499:538  mapping(uint => Booking) public booking */\n    tag_47:\n      mstore(0x20, 0x01)\n      dup1\n      0x00\n      mstore\n      keccak256(0x00, 0x40)\n      0x00\n      swap2\n      pop\n      swap1\n      pop\n      dup1\n      0x00\n      add\n      0x00\n      swap1\n      sload\n      swap1\n      0x0100\n      exp\n      swap1\n      div\n      0xffffffffffffffffffffffffffffffffffffffff\n      and\n      swap1\n      dup1\n      0x01\n      add\n      sload\n      swap1\n      dup1\n      0x02\n      add\n      sload\n      swap1\n      dup1\n      0x03\n      add\n      0x00\n      swap1\n      sload\n      swap1\n      0x0100\n      exp\n      swap1\n      div\n      0xff\n      and\n      swap1\n      dup1\n      0x03\n      add\n      0x01\n      swap1\n      sload\n      swap1\n      0x0100\n      exp\n      swap1\n      div\n      0xff\n      and\n      swap1\n      dup1\n      0x04\n      add\n      sload\n      swap1\n      pop\n      dup7\n      jump\t// out\n        /* \"contracts/flightReservation.sol\":5239:5460  function checkFlightCancelled(uint flightNumber) public {... */\n    tag_53:\n        /* \"contracts/flightReservation.sol\":5344:5348  true */\n      0x01\n        /* \"contracts/flightReservation.sol\":5313:5348  authorizedStaff[msg.sender] == true */\n      iszero\n      iszero\n        /* \"contracts/flightReservation.sol\":5313:5328  authorizedStaff */\n      0x02\n        /* \"contracts/flightReservation.sol\":5313:5340  authorizedStaff[msg.sender] */\n      0x00\n        /* \"contracts/flightReservation.sol\":5329:5339  msg.sender */\n      caller\n        /* \"contracts/flightReservation.sol\":5313:5340  authorizedStaff[msg.sender] */\n      0xffffffffffffffffffffffffffffffffffffffff\n      and\n      0xffffffffffffffffffffffffffffffffffffffff\n      and\n      dup2\n      mstore\n      0x20\n      add\n      swap1\n      dup2\n      mstore\n      0x20\n      add\n      0x00\n      keccak256\n      0x00\n      swap1\n      sload\n      swap1\n      0x0100\n      exp\n      swap1\n      div\n      0xff\n      and\n        /* \"contracts/flightReservation.sol\":5313:5348  authorizedStaff[msg.sender] == true */\n      iszero\n      iszero\n      eq\n        /* \"contracts/flightReservation.sol\":5305:5384  require(authorizedStaff[msg.sender] == true,\"You are not the Authorized Staff\") */\n      tag_104\n      jumpi\n      mload(0x40)\n      0x08c379a000000000000000000000000000000000000000000000000000000000\n      dup2\n      mstore\n      0x04\n      add\n      tag_105\n      swap1\n      tag_106\n      jump\t// in\n    tag_105:\n      mload(0x40)\n      dup1\n      swap2\n      sub\n      swap1\n      revert\n    tag_104:\n        /* \"contracts/flightReservation.sol\":5432:5433  1 */\n      0x01\n        /* \"contracts/flightReservation.sol\":5395:5402  booking */\n      dup1\n        /* \"contracts/flightReservation.sol\":5395:5416  booking[flightNumber] */\n      0x00\n        /* \"contracts/flightReservation.sol\":5403:5415  flightNumber */\n      dup4\n        /* \"contracts/flightReservation.sol\":5395:5416  booking[flightNumber] */\n      dup2\n      mstore\n      0x20\n      add\n      swap1\n      dup2\n      mstore\n      0x20\n      add\n      0x00\n      keccak256\n        /* \"contracts/flightReservation.sol\":5395:5429  booking[flightNumber].flightStatus */\n      0x04\n      add\n        /* \"contracts/flightReservation.sol\":5395:5433  booking[flightNumber].flightStatus = 1 */\n      dup2\n      swap1\n      sstore\n      pop\n        /* \"contracts/flightReservation.sol\":5239:5460  function checkFlightCancelled(uint flightNumber) public {... */\n      pop\n      jump\t// out\n        /* \"contracts/flightReservation.sol\":1247:1376  function addBalances() public returns(uint) {... */\n    tag_56:\n        /* \"contracts/flightReservation.sol\":1285:1289  uint */\n      0x00\n        /* \"contracts/flightReservation.sol\":1325:1330  50000 */\n      0xc350\n        /* \"contracts/flightReservation.sol\":1302:1310  balances */\n      0x03\n        /* \"contracts/flightReservation.sol\":1302:1322  balances[msg.sender] */\n      0x00\n        /* \"contracts/flightReservation.sol\":1311:1321  msg.sender */\n      caller\n        /* \"contracts/flightReservation.sol\":1302:1322  balances[msg.sender] */\n      0xffffffffffffffffffffffffffffffffffffffff\n      and\n      0xffffffffffffffffffffffffffffffffffffffff\n      and\n      dup2\n      mstore\n      0x20\n      add\n      swap1\n      dup2\n      mstore\n      0x20\n      add\n      0x00\n      keccak256\n      0x00\n        /* \"contracts/flightReservation.sol\":1302:1330  balances[msg.sender]+= 50000 */\n      dup3\n      dup3\n      sload\n      tag_108\n      swap2\n      swap1\n      tag_109\n      jump\t// in\n    tag_108:\n      swap3\n      pop\n      pop\n      dup2\n      swap1\n      sstore\n      pop\n        /* \"contracts/flightReservation.sol\":1348:1356  balances */\n      0x03\n        /* \"contracts/flightReservation.sol\":1348:1368  balances[msg.sender] */\n      0x00\n        /* \"contracts/flightReservation.sol\":1357:1367  msg.sender */\n      caller\n        /* \"contracts/flightReservation.sol\":1348:1368  balances[msg.sender] */\n      0xffffffffffffffffffffffffffffffffffffffff\n      and\n      0xffffffffffffffffffffffffffffffffffffffff\n      and\n      dup2\n      mstore\n      0x20\n      add\n      swap1\n      dup2\n      mstore\n      0x20\n      add\n      0x00\n      keccak256\n      sload\n        /* \"contracts/flightReservation.sol\":1341:1368  return balances[msg.sender] */\n      swap1\n      pop\n        /* \"contracts/flightReservation.sol\":1247:1376  function addBalances() public returns(uint) {... */\n      swap1\n      jump\t// out\n        /* \"contracts/flightReservation.sol\":3674:3855  function confirmBooking(uint flightNumber) public {... */\n    tag_61:\n        /* \"contracts/flightReservation.sol\":3743:3750  booking */\n      0x01\n        /* \"contracts/flightReservation.sol\":3743:3764  booking[flightNumber] */\n      0x00\n        /* \"contracts/flightReservation.sol\":3751:3763  flightNumber */\n      dup3\n        /* \"contracts/flightReservation.sol\":3743:3764  booking[flightNumber] */\n      dup2\n      mstore\n      0x20\n      add\n      swap1\n      dup2\n      mstore\n      0x20\n      add\n      0x00\n      keccak256\n        /* \"contracts/flightReservation.sol\":3743:3771  booking[flightNumber].isPaid */\n      0x03\n      add\n      0x00\n      swap1\n      sload\n      swap1\n      0x0100\n      exp\n      swap1\n      div\n      0xff\n      and\n        /* \"contracts/flightReservation.sol\":3735:3796  require(booking[flightNumber].isPaid,\"Payment not Completed\") */\n      tag_111\n      jumpi\n      mload(0x40)\n      0x08c379a000000000000000000000000000000000000000000000000000000000\n      dup2\n      mstore\n      0x04\n      add\n      tag_112\n      swap1\n      tag_113\n      jump\t// in\n    tag_112:\n      mload(0x40)\n      dup1\n      swap2\n      sub\n      swap1\n      revert\n    tag_111:\n        /* \"contracts/flightReservation.sol\":3843:3847  true */\n      0x01\n        /* \"contracts/flightReservation.sol\":3807:3814  booking */\n      dup1\n        /* \"contracts/flightReservation.sol\":3807:3828  booking[flightNumber] */\n      0x00\n        /* \"contracts/flightReservation.sol\":3815:3827  flightNumber */\n      dup4\n        /* \"contracts/flightReservation.sol\":3807:3828  booking[flightNumber] */\n      dup2\n      mstore\n      0x20\n      add\n      swap1\n      dup2\n      mstore\n      0x20\n      add\n      0x00\n      keccak256\n        /* \"contracts/flightReservation.sol\":3807:3840  booking[flightNumber].isConfirmed */\n      0x03\n      add\n      0x01\n        /* \"contracts/flightReservation.sol\":3807:3847  booking[flightNumber].isConfirmed = true */\n      0x0100\n      exp\n      dup2\n      sload\n      dup2\n      0xff\n      mul\n      not\n      and\n      swap1\n      dup4\n      iszero\n      iszero\n      mul\n      or\n      swap1\n      sstore\n      pop\n        /* \"contracts/flightReservation.sol\":3674:3855  function confirmBooking(uint flightNumber) public {... */\n      pop\n      jump\t// out\n        /* \"contracts/flightReservation.sol\":5007:5231  function checkFlightAvailable(uint flightNumber) public {... */\n    tag_65:\n        /* \"contracts/flightReservation.sol\":5113:5117  true */\n      0x01\n        /* \"contracts/flightReservation.sol\":5082:5117  authorizedStaff[msg.sender] == true */\n      iszero\n      iszero\n        /* \"contracts/flightReservation.sol\":5082:5097  authorizedStaff */\n      0x02\n        /* \"contracts/flightReservation.sol\":5082:5109  authorizedStaff[msg.sender] */\n      0x00\n        /* \"contracts/flightReservation.sol\":5098:5108  msg.sender */\n      caller\n        /* \"contracts/flightReservation.sol\":5082:5109  authorizedStaff[msg.sender] */\n      0xffffffffffffffffffffffffffffffffffffffff\n      and\n      0xffffffffffffffffffffffffffffffffffffffff\n      and\n      dup2\n      mstore\n      0x20\n      add\n      swap1\n      dup2\n      mstore\n      0x20\n      add\n      0x00\n      keccak256\n      0x00\n      swap1\n      sload\n      swap1\n      0x0100\n      exp\n      swap1\n      div\n      0xff\n      and\n        /* \"contracts/flightReservation.sol\":5082:5117  authorizedStaff[msg.sender] == true */\n      iszero\n      iszero\n      eq\n        /* \"contracts/flightReservation.sol\":5074:5153  require(authorizedStaff[msg.sender] == true,\"You are not the Authorized Staff\") */\n      tag_115\n      jumpi\n      mload(0x40)\n      0x08c379a000000000000000000000000000000000000000000000000000000000\n      dup2\n      mstore\n      0x04\n      add\n      tag_116\n      swap1\n      tag_106\n      jump\t// in\n    tag_116:\n      mload(0x40)\n      dup1\n      swap2\n      sub\n      swap1\n      revert\n    tag_115:\n        /* \"contracts/flightReservation.sol\":5201:5202  0 */\n      0x00\n        /* \"contracts/flightReservation.sol\":5164:5171  booking */\n      0x01\n        /* \"contracts/flightReservation.sol\":5164:5185  booking[flightNumber] */\n      0x00\n        /* \"contracts/flightReservation.sol\":5172:5184  flightNumber */\n      dup4\n        /* \"contracts/flightReservation.sol\":5164:5185  booking[flightNumber] */\n      dup2\n      mstore\n      0x20\n      add\n      swap1\n      dup2\n      mstore\n      0x20\n      add\n      0x00\n      keccak256\n        /* \"contracts/flightReservation.sol\":5164:5198  booking[flightNumber].flightStatus */\n      0x04\n      add\n        /* \"contracts/flightReservation.sol\":5164:5202  booking[flightNumber].flightStatus = 0 */\n      dup2\n      swap1\n      sstore\n      pop\n        /* \"contracts/flightReservation.sol\":5007:5231  function checkFlightAvailable(uint flightNumber) public {... */\n      pop\n      jump\t// out\n        /* \"contracts/flightReservation.sol\":2467:2604  function getRemainingTickets(uint flightNumber) public view returns(uint){... */\n    tag_69:\n        /* \"contracts/flightReservation.sol\":2535:2539  uint */\n      0x00\n        /* \"contracts/flightReservation.sol\":2558:2565  booking */\n      0x01\n        /* \"contracts/flightReservation.sol\":2558:2579  booking[flightNumber] */\n      0x00\n        /* \"contracts/flightReservation.sol\":2566:2578  flightNumber */\n      dup4\n        /* \"contracts/flightReservation.sol\":2558:2579  booking[flightNumber] */\n      dup2\n      mstore\n      0x20\n      add\n      swap1\n      dup2\n      mstore\n      0x20\n      add\n      0x00\n      keccak256\n        /* \"contracts/flightReservation.sol\":2558:2596  booking[flightNumber].availableTickets */\n      0x02\n      add\n      sload\n        /* \"contracts/flightReservation.sol\":2551:2596  return booking[flightNumber].availableTickets */\n      swap1\n      pop\n        /* \"contracts/flightReservation.sol\":2467:2604  function getRemainingTickets(uint flightNumber) public view returns(uint){... */\n      swap2\n      swap1\n      pop\n      jump\t// out\n        /* \"contracts/flightReservation.sol\":2612:3662  function makePayment(address add,uint flightNumber,uint numberOfTickets,uint seatNumber) public payable{... */\n    tag_74:\n        /* \"contracts/flightReservation.sol\":2778:2783  false */\n      0x00\n        /* \"contracts/flightReservation.sol\":2732:2783  seatAvailability[flightNumber][seatNumber] == false */\n      iszero\n      iszero\n        /* \"contracts/flightReservation.sol\":2732:2748  seatAvailability */\n      0x05\n        /* \"contracts/flightReservation.sol\":2732:2762  seatAvailability[flightNumber] */\n      0x00\n        /* \"contracts/flightReservation.sol\":2749:2761  flightNumber */\n      dup6\n        /* \"contracts/flightReservation.sol\":2732:2762  seatAvailability[flightNumber] */\n      dup2\n      mstore\n      0x20\n      add\n      swap1\n      dup2\n      mstore\n      0x20\n      add\n      0x00\n      keccak256\n        /* \"contracts/flightReservation.sol\":2732:2774  seatAvailability[flightNumber][seatNumber] */\n      0x00\n        /* \"contracts/flightReservation.sol\":2763:2773  seatNumber */\n      dup4\n        /* \"contracts/flightReservation.sol\":2732:2774  seatAvailability[flightNumber][seatNumber] */\n      dup2\n      mstore\n      0x20\n      add\n      swap1\n      dup2\n      mstore\n      0x20\n      add\n      0x00\n      keccak256\n      0x00\n      swap1\n      sload\n      swap1\n      0x0100\n      exp\n      swap1\n      div\n      0xff\n      and\n        /* \"contracts/flightReservation.sol\":2732:2783  seatAvailability[flightNumber][seatNumber] == false */\n      iszero\n      iszero\n      eq\n        /* \"contracts/flightReservation.sol\":2724:2806  require(seatAvailability[flightNumber][seatNumber] == false,\"Seat already Booked\") */\n      tag_119\n      jumpi\n      mload(0x40)\n      0x08c379a000000000000000000000000000000000000000000000000000000000\n      dup2\n      mstore\n      0x04\n      add\n      tag_120\n      swap1\n      tag_99\n      jump\t// in\n    tag_120:\n      mload(0x40)\n      dup1\n      swap2\n      sub\n      swap1\n      revert\n    tag_119:\n        /* \"contracts/flightReservation.sol\":2979:2980  1 */\n      0x01\n        /* \"contracts/flightReservation.sol\":2960:2975  numberOfTickets */\n      dup3\n        /* \"contracts/flightReservation.sol\":2960:2980  numberOfTickets == 1 */\n      eq\n        /* \"contracts/flightReservation.sol\":2952:3004  require(numberOfTickets == 1,\"Book only one Ticket\") */\n      tag_121\n      jumpi\n      mload(0x40)\n      0x08c379a000000000000000000000000000000000000000000000000000000000\n      dup2\n      mstore\n      0x04\n      add\n      tag_122\n      swap1\n      tag_123\n      jump\t// in\n    tag_122:\n      mload(0x40)\n      dup1\n      swap2\n      sub\n      swap1\n      revert\n    tag_121:\n        /* \"contracts/flightReservation.sol\":3080:3095  numberOfTickets */\n      dup2\n        /* \"contracts/flightReservation.sol\":3044:3051  booking */\n      0x01\n        /* \"contracts/flightReservation.sol\":3044:3065  booking[flightNumber] */\n      0x00\n        /* \"contracts/flightReservation.sol\":3052:3064  flightNumber */\n      dup6\n        /* \"contracts/flightReservation.sol\":3044:3065  booking[flightNumber] */\n      dup2\n      mstore\n      0x20\n      add\n      swap1\n      dup2\n      mstore\n      0x20\n      add\n      0x00\n      keccak256\n        /* \"contracts/flightReservation.sol\":3044:3077  booking[flightNumber].ticketPrice */\n      0x01\n      add\n      sload\n        /* \"contracts/flightReservation.sol\":3044:3095  booking[flightNumber].ticketPrice * numberOfTickets */\n      tag_124\n      swap2\n      swap1\n      tag_125\n      jump\t// in\n    tag_124:\n        /* \"contracts/flightReservation.sol\":3021:3029  balances */\n      0x03\n        /* \"contracts/flightReservation.sol\":3021:3041  balances[msg.sender] */\n      0x00\n        /* \"contracts/flightReservation.sol\":3030:3040  msg.sender */\n      caller\n        /* \"contracts/flightReservation.sol\":3021:3041  balances[msg.sender] */\n      0xffffffffffffffffffffffffffffffffffffffff\n      and\n      0xffffffffffffffffffffffffffffffffffffffff\n      and\n      dup2\n      mstore\n      0x20\n      add\n      swap1\n      dup2\n      mstore\n      0x20\n      add\n      0x00\n      keccak256\n      sload\n        /* \"contracts/flightReservation.sol\":3021:3095  balances[msg.sender] > booking[flightNumber].ticketPrice * numberOfTickets */\n      gt\n        /* \"contracts/flightReservation.sol\":3013:3117  require(balances[msg.sender] > booking[flightNumber].ticketPrice * numberOfTickets,\"Not enough balance\") */\n      tag_126\n      jumpi\n      mload(0x40)\n      0x08c379a000000000000000000000000000000000000000000000000000000000\n      dup2\n      mstore\n      0x04\n      add\n      tag_127\n      swap1\n      tag_128\n      jump\t// in\n    tag_127:\n      mload(0x40)\n      dup1\n      swap2\n      sub\n      swap1\n      revert\n    tag_126:\n        /* \"contracts/flightReservation.sol\":3126:3132  uint k */\n      0x00\n        /* \"contracts/flightReservation.sol\":3171:3186  numberOfTickets */\n      dup3\n        /* \"contracts/flightReservation.sol\":3135:3142  booking */\n      0x01\n        /* \"contracts/flightReservation.sol\":3135:3156  booking[flightNumber] */\n      0x00\n        /* \"contracts/flightReservation.sol\":3143:3155  flightNumber */\n      dup7\n        /* \"contracts/flightReservation.sol\":3135:3156  booking[flightNumber] */\n      dup2\n      mstore\n      0x20\n      add\n      swap1\n      dup2\n      mstore\n      0x20\n      add\n      0x00\n      keccak256\n        /* \"contracts/flightReservation.sol\":3135:3168  booking[flightNumber].ticketPrice */\n      0x01\n      add\n      sload\n        /* \"contracts/flightReservation.sol\":3135:3186  booking[flightNumber].ticketPrice * numberOfTickets */\n      tag_129\n      swap2\n      swap1\n      tag_125\n      jump\t// in\n    tag_129:\n        /* \"contracts/flightReservation.sol\":3126:3186  uint k = booking[flightNumber].ticketPrice * numberOfTickets */\n      swap1\n      pop\n        /* \"contracts/flightReservation.sol\":3237:3252  numberOfTickets */\n      dup3\n        /* \"contracts/flightReservation.sol\":3195:3202  booking */\n      0x01\n        /* \"contracts/flightReservation.sol\":3195:3216  booking[flightNumber] */\n      0x00\n        /* \"contracts/flightReservation.sol\":3203:3215  flightNumber */\n      dup7\n        /* \"contracts/flightReservation.sol\":3195:3216  booking[flightNumber] */\n      dup2\n      mstore\n      0x20\n      add\n      swap1\n      dup2\n      mstore\n      0x20\n      add\n      0x00\n      keccak256\n        /* \"contracts/flightReservation.sol\":3195:3233  booking[flightNumber].availableTickets */\n      0x02\n      add\n      0x00\n        /* \"contracts/flightReservation.sol\":3195:3252  booking[flightNumber].availableTickets -= numberOfTickets */\n      dup3\n      dup3\n      sload\n      tag_130\n      swap2\n      swap1\n      tag_131\n      jump\t// in\n    tag_130:\n      swap3\n      pop\n      pop\n      dup2\n      swap1\n      sstore\n      pop\n        /* \"contracts/flightReservation.sol\":3285:3286  k */\n      dup1\n        /* \"contracts/flightReservation.sol\":3261:3269  balances */\n      0x03\n        /* \"contracts/flightReservation.sol\":3261:3281  balances[msg.sender] */\n      0x00\n        /* \"contracts/flightReservation.sol\":3270:3280  msg.sender */\n      caller\n        /* \"contracts/flightReservation.sol\":3261:3281  balances[msg.sender] */\n      0xffffffffffffffffffffffffffffffffffffffff\n      and\n      0xffffffffffffffffffffffffffffffffffffffff\n      and\n      dup2\n      mstore\n      0x20\n      add\n      swap1\n      dup2\n      mstore\n      0x20\n      add\n      0x00\n      keccak256\n      0x00\n        /* \"contracts/flightReservation.sol\":3261:3286  balances[msg.sender] -= k */\n      dup3\n      dup3\n      sload\n      tag_132\n      swap2\n      swap1\n      tag_131\n      jump\t// in\n    tag_132:\n      swap3\n      pop\n      pop\n      dup2\n      swap1\n      sstore\n      pop\n        /* \"contracts/flightReservation.sol\":3332:3336  true */\n      0x01\n        /* \"contracts/flightReservation.sol\":3295:3299  seat */\n      0x06\n        /* \"contracts/flightReservation.sol\":3295:3313  seat[flightNumber] */\n      0x00\n        /* \"contracts/flightReservation.sol\":3300:3312  flightNumber */\n      dup7\n        /* \"contracts/flightReservation.sol\":3295:3313  seat[flightNumber] */\n      dup2\n      mstore\n      0x20\n      add\n      swap1\n      dup2\n      mstore\n      0x20\n      add\n      0x00\n      keccak256\n        /* \"contracts/flightReservation.sol\":3295:3325  seat[flightNumber][seatNumber] */\n      0x00\n        /* \"contracts/flightReservation.sol\":3314:3324  seatNumber */\n      dup5\n        /* \"contracts/flightReservation.sol\":3295:3325  seat[flightNumber][seatNumber] */\n      dup2\n      mstore\n      0x20\n      add\n      swap1\n      dup2\n      mstore\n      0x20\n      add\n      0x00\n      keccak256\n        /* \"contracts/flightReservation.sol\":3295:3329  seat[flightNumber][seatNumber].pay */\n      0x00\n      add\n      0x00\n        /* \"contracts/flightReservation.sol\":3295:3336  seat[flightNumber][seatNumber].pay = true */\n      0x0100\n      exp\n      dup2\n      sload\n      dup2\n      0xff\n      mul\n      not\n      and\n      swap1\n      dup4\n      iszero\n      iszero\n      mul\n      or\n      swap1\n      sstore\n      pop\n        /* \"contracts/flightReservation.sol\":3354:3361  payment */\n      0x04\n        /* \"contracts/flightReservation.sol\":3354:3375  payment[flightNumber] */\n      0x00\n        /* \"contracts/flightReservation.sol\":3362:3374  flightNumber */\n      dup6\n        /* \"contracts/flightReservation.sol\":3354:3375  payment[flightNumber] */\n      dup2\n      mstore\n      0x20\n      add\n      swap1\n      dup2\n      mstore\n      0x20\n      add\n      0x00\n      keccak256\n        /* \"contracts/flightReservation.sol\":3354:3380  payment[flightNumber][add] */\n      0x00\n        /* \"contracts/flightReservation.sol\":3376:3379  add */\n      dup7\n        /* \"contracts/flightReservation.sol\":3354:3380  payment[flightNumber][add] */\n      0xffffffffffffffffffffffffffffffffffffffff\n      and\n      0xffffffffffffffffffffffffffffffffffffffff\n      and\n      dup2\n      mstore\n      0x20\n      add\n      swap1\n      dup2\n      mstore\n      0x20\n      add\n      0x00\n      keccak256\n        /* \"contracts/flightReservation.sol\":3354:3387  payment[flightNumber][add].isPaid */\n      0x03\n      add\n      0x00\n      swap1\n      sload\n      swap1\n      0x0100\n      exp\n      swap1\n      div\n      0xff\n      and\n        /* \"contracts/flightReservation.sol\":3353:3387  !payment[flightNumber][add].isPaid */\n      iszero\n        /* \"contracts/flightReservation.sol\":3345:3417  require(!payment[flightNumber][add].isPaid, \"Booking already completed\") */\n      tag_133\n      jumpi\n      mload(0x40)\n      0x08c379a000000000000000000000000000000000000000000000000000000000\n      dup2\n      mstore\n      0x04\n      add\n      tag_134\n      swap1\n      tag_135\n      jump\t// in\n    tag_134:\n      mload(0x40)\n      dup1\n      swap2\n      sub\n      swap1\n      revert\n    tag_133:\n        /* \"contracts/flightReservation.sol\":3529:3533  true */\n      0x01\n        /* \"contracts/flightReservation.sol\":3498:3505  booking */\n      dup1\n        /* \"contracts/flightReservation.sol\":3498:3519  booking[flightNumber] */\n      0x00\n        /* \"contracts/flightReservation.sol\":3506:3518  flightNumber */\n      dup7\n        /* \"contracts/flightReservation.sol\":3498:3519  booking[flightNumber] */\n      dup2\n      mstore\n      0x20\n      add\n      swap1\n      dup2\n      mstore\n      0x20\n      add\n      0x00\n      keccak256\n        /* \"contracts/flightReservation.sol\":3498:3526  booking[flightNumber].isPaid */\n      0x03\n      add\n      0x00\n        /* \"contracts/flightReservation.sol\":3498:3533  booking[flightNumber].isPaid = true */\n      0x0100\n      exp\n      dup2\n      sload\n      dup2\n      0xff\n      mul\n      not\n      and\n      swap1\n      dup4\n      iszero\n      iszero\n      mul\n      or\n      swap1\n      sstore\n      pop\n        /* \"contracts/flightReservation.sol\":3588:3592  true */\n      0x01\n        /* \"contracts/flightReservation.sol\":3543:3559  seatAvailability */\n      0x05\n        /* \"contracts/flightReservation.sol\":3543:3573  seatAvailability[flightNumber] */\n      0x00\n        /* \"contracts/flightReservation.sol\":3560:3572  flightNumber */\n      dup7\n        /* \"contracts/flightReservation.sol\":3543:3573  seatAvailability[flightNumber] */\n      dup2\n      mstore\n      0x20\n      add\n      swap1\n      dup2\n      mstore\n      0x20\n      add\n      0x00\n      keccak256\n        /* \"contracts/flightReservation.sol\":3543:3585  seatAvailability[flightNumber][seatNumber] */\n      0x00\n        /* \"contracts/flightReservation.sol\":3574:3584  seatNumber */\n      dup5\n        /* \"contracts/flightReservation.sol\":3543:3585  seatAvailability[flightNumber][seatNumber] */\n      dup2\n      mstore\n      0x20\n      add\n      swap1\n      dup2\n      mstore\n      0x20\n      add\n      0x00\n      keccak256\n      0x00\n        /* \"contracts/flightReservation.sol\":3543:3592  seatAvailability[flightNumber][seatNumber] = true */\n      0x0100\n      exp\n      dup2\n      sload\n      dup2\n      0xff\n      mul\n      not\n      and\n      swap1\n      dup4\n      iszero\n      iszero\n      mul\n      or\n      swap1\n      sstore\n      pop\n        /* \"contracts/flightReservation.sol\":2715:3662  {... */\n      pop\n        /* \"contracts/flightReservation.sol\":2612:3662  function makePayment(address add,uint flightNumber,uint numberOfTickets,uint seatNumber) public payable{... */\n      pop\n      pop\n      pop\n      pop\n      jump\t// out\n        /* \"contracts/flightReservation.sol\":88:108  address public owner */\n    tag_77:\n      0x00\n      dup1\n      sload\n      swap1\n      0x0100\n      exp\n      swap1\n      div\n      0xffffffffffffffffffffffffffffffffffffffff\n      and\n      dup2\n      jump\t// out\n        /* \"contracts/flightReservation.sol\":1143:1239  function addAuthorizedStaff(address staff) public {... */\n    tag_83:\n        /* \"contracts/flightReservation.sol\":1227:1231  true */\n      0x01\n        /* \"contracts/flightReservation.sol\":1202:1217  authorizedStaff */\n      0x02\n        /* \"contracts/flightReservation.sol\":1202:1224  authorizedStaff[staff] */\n      0x00\n        /* \"contracts/flightReservation.sol\":1218:1223  staff */\n      dup4\n        /* \"contracts/flightReservation.sol\":1202:1224  authorizedStaff[staff] */\n      0xffffffffffffffffffffffffffffffffffffffff\n      and\n      0xffffffffffffffffffffffffffffffffffffffff\n      and\n      dup2\n      mstore\n      0x20\n      add\n      swap1\n      dup2\n      mstore\n      0x20\n      add\n      0x00\n      keccak256\n      0x00\n        /* \"contracts/flightReservation.sol\":1202:1231  authorizedStaff[staff] = true */\n      0x0100\n      exp\n      dup2\n      sload\n      dup2\n      0xff\n      mul\n      not\n      and\n      swap1\n      dup4\n      iszero\n      iszero\n      mul\n      or\n      swap1\n      sstore\n      pop\n        /* \"contracts/flightReservation.sol\":1143:1239  function addAuthorizedStaff(address staff) public {... */\n      pop\n      jump\t// out\n        /* \"contracts/flightReservation.sol\":3863:4654  function cancelTicket(address add,uint flightNumber,uint seatNumber,uint numberOfTickets) public {... */\n    tag_87:\n        /* \"contracts/flightReservation.sol\":4016:4020  true */\n      0x01\n        /* \"contracts/flightReservation.sol\":3978:4020  seat[flightNumber][seatNumber].pay == true */\n      iszero\n      iszero\n        /* \"contracts/flightReservation.sol\":3978:3982  seat */\n      0x06\n        /* \"contracts/flightReservation.sol\":3978:3996  seat[flightNumber] */\n      0x00\n        /* \"contracts/flightReservation.sol\":3983:3995  flightNumber */\n      dup6\n        /* \"contracts/flightReservation.sol\":3978:3996  seat[flightNumber] */\n      dup2\n      mstore\n      0x20\n      add\n      swap1\n      dup2\n      mstore\n      0x20\n      add\n      0x00\n      keccak256\n        /* \"contracts/flightReservation.sol\":3978:4008  seat[flightNumber][seatNumber] */\n      0x00\n        /* \"contracts/flightReservation.sol\":3997:4007  seatNumber */\n      dup5\n        /* \"contracts/flightReservation.sol\":3978:4008  seat[flightNumber][seatNumber] */\n      dup2\n      mstore\n      0x20\n      add\n      swap1\n      dup2\n      mstore\n      0x20\n      add\n      0x00\n      keccak256\n        /* \"contracts/flightReservation.sol\":3978:4012  seat[flightNumber][seatNumber].pay */\n      0x00\n      add\n      0x00\n      swap1\n      sload\n      swap1\n      0x0100\n      exp\n      swap1\n      div\n      0xff\n      and\n        /* \"contracts/flightReservation.sol\":3978:4020  seat[flightNumber][seatNumber].pay == true */\n      iszero\n      iszero\n      eq\n        /* \"contracts/flightReservation.sol\":3970:4045  require(seat[flightNumber][seatNumber].pay == true, \"Payment not yet done\") */\n      tag_138\n      jumpi\n      mload(0x40)\n      0x08c379a000000000000000000000000000000000000000000000000000000000\n      dup2\n      mstore\n      0x04\n      add\n      tag_139\n      swap1\n      tag_140\n      jump\t// in\n    tag_139:\n      mload(0x40)\n      dup1\n      swap2\n      sub\n      swap1\n      revert\n    tag_138:\n        /* \"contracts/flightReservation.sol\":4109:4113  true */\n      0x01\n        /* \"contracts/flightReservation.sol\":4063:4113  seatAvailability[flightNumber][seatNumber] == true */\n      iszero\n      iszero\n        /* \"contracts/flightReservation.sol\":4063:4079  seatAvailability */\n      0x05\n        /* \"contracts/flightReservation.sol\":4063:4093  seatAvailability[flightNumber] */\n      0x00\n        /* \"contracts/flightReservation.sol\":4080:4092  flightNumber */\n      dup6\n        /* \"contracts/flightReservation.sol\":4063:4093  seatAvailability[flightNumber] */\n      dup2\n      mstore\n      0x20\n      add\n      swap1\n      dup2\n      mstore\n      0x20\n      add\n      0x00\n      keccak256\n        /* \"contracts/flightReservation.sol\":4063:4105  seatAvailability[flightNumber][seatNumber] */\n      0x00\n        /* \"contracts/flightReservation.sol\":4094:4104  seatNumber */\n      dup5\n        /* \"contracts/flightReservation.sol\":4063:4105  seatAvailability[flightNumber][seatNumber] */\n      dup2\n      mstore\n      0x20\n      add\n      swap1\n      dup2\n      mstore\n      0x20\n      add\n      0x00\n      keccak256\n      0x00\n      swap1\n      sload\n      swap1\n      0x0100\n      exp\n      swap1\n      div\n      0xff\n      and\n        /* \"contracts/flightReservation.sol\":4063:4113  seatAvailability[flightNumber][seatNumber] == true */\n      iszero\n      iszero\n      eq\n        /* \"contracts/flightReservation.sol\":4055:4132  require(seatAvailability[flightNumber][seatNumber] == true,\"Seat not Booked\") */\n      tag_141\n      jumpi\n      mload(0x40)\n      0x08c379a000000000000000000000000000000000000000000000000000000000\n      dup2\n      mstore\n      0x04\n      add\n      tag_142\n      swap1\n      tag_143\n      jump\t// in\n    tag_142:\n      mload(0x40)\n      dup1\n      swap2\n      sub\n      swap1\n      revert\n    tag_141:\n        /* \"contracts/flightReservation.sol\":4257:4258  1 */\n      0x01\n        /* \"contracts/flightReservation.sol\":4238:4253  numberOfTickets */\n      dup2\n        /* \"contracts/flightReservation.sol\":4238:4258  numberOfTickets == 1 */\n      eq\n        /* \"contracts/flightReservation.sol\":4230:4279  require(numberOfTickets == 1,\"Cancel one Ticket\") */\n      tag_144\n      jumpi\n      mload(0x40)\n      0x08c379a000000000000000000000000000000000000000000000000000000000\n      dup2\n      mstore\n      0x04\n      add\n      tag_145\n      swap1\n      tag_146\n      jump\t// in\n    tag_145:\n      mload(0x40)\n      dup1\n      swap2\n      sub\n      swap1\n      revert\n    tag_144:\n        /* \"contracts/flightReservation.sol\":4342:4357  numberOfTickets */\n      dup1\n        /* \"contracts/flightReservation.sol\":4306:4313  booking */\n      0x01\n        /* \"contracts/flightReservation.sol\":4306:4327  booking[flightNumber] */\n      0x00\n        /* \"contracts/flightReservation.sol\":4314:4326  flightNumber */\n      dup6\n        /* \"contracts/flightReservation.sol\":4306:4327  booking[flightNumber] */\n      dup2\n      mstore\n      0x20\n      add\n      swap1\n      dup2\n      mstore\n      0x20\n      add\n      0x00\n      keccak256\n        /* \"contracts/flightReservation.sol\":4306:4339  booking[flightNumber].ticketPrice */\n      0x01\n      add\n      sload\n        /* \"contracts/flightReservation.sol\":4306:4357  booking[flightNumber].ticketPrice * numberOfTickets */\n      tag_147\n      swap2\n      swap1\n      tag_125\n      jump\t// in\n    tag_147:\n        /* \"contracts/flightReservation.sol\":4289:4297  balances */\n      0x03\n        /* \"contracts/flightReservation.sol\":4289:4302  balances[add] */\n      0x00\n        /* \"contracts/flightReservation.sol\":4298:4301  add */\n      dup7\n        /* \"contracts/flightReservation.sol\":4289:4302  balances[add] */\n      0xffffffffffffffffffffffffffffffffffffffff\n      and\n      0xffffffffffffffffffffffffffffffffffffffff\n      and\n      dup2\n      mstore\n      0x20\n      add\n      swap1\n      dup2\n      mstore\n      0x20\n      add\n      0x00\n      keccak256\n      0x00\n        /* \"contracts/flightReservation.sol\":4289:4357  balances[add] += booking[flightNumber].ticketPrice * numberOfTickets */\n      dup3\n      dup3\n      sload\n      tag_148\n      swap2\n      swap1\n      tag_109\n      jump\t// in\n    tag_148:\n      swap3\n      pop\n      pop\n      dup2\n      swap1\n      sstore\n      pop\n        /* \"contracts/flightReservation.sol\":4409:4424  numberOfTickets */\n      dup1\n        /* \"contracts/flightReservation.sol\":4367:4374  booking */\n      0x01\n        /* \"contracts/flightReservation.sol\":4367:4388  booking[flightNumber] */\n      0x00\n        /* \"contracts/flightReservation.sol\":4375:4387  flightNumber */\n      dup6\n        /* \"contracts/flightReservation.sol\":4367:4388  booking[flightNumber] */\n      dup2\n      mstore\n      0x20\n      add\n      swap1\n      dup2\n      mstore\n      0x20\n      add\n      0x00\n      keccak256\n        /* \"contracts/flightReservation.sol\":4367:4405  booking[flightNumber].availableTickets */\n      0x02\n      add\n      0x00\n        /* \"contracts/flightReservation.sol\":4367:4424  booking[flightNumber].availableTickets += numberOfTickets */\n      dup3\n      dup3\n      sload\n      tag_149\n      swap2\n      swap1\n      tag_109\n      jump\t// in\n    tag_149:\n      swap3\n      pop\n      pop\n      dup2\n      swap1\n      sstore\n      pop\n        /* \"contracts/flightReservation.sol\":4471:4476  false */\n      0x00\n        /* \"contracts/flightReservation.sol\":4434:4438  seat */\n      0x06\n        /* \"contracts/flightReservation.sol\":4434:4452  seat[flightNumber] */\n      0x00\n        /* \"contracts/flightReservation.sol\":4439:4451  flightNumber */\n      dup6\n        /* \"contracts/flightReservation.sol\":4434:4452  seat[flightNumber] */\n      dup2\n      mstore\n      0x20\n      add\n      swap1\n      dup2\n      mstore\n      0x20\n      add\n      0x00\n      keccak256\n        /* \"contracts/flightReservation.sol\":4434:4464  seat[flightNumber][seatNumber] */\n      0x00\n        /* \"contracts/flightReservation.sol\":4453:4463  seatNumber */\n      dup5\n        /* \"contracts/flightReservation.sol\":4434:4464  seat[flightNumber][seatNumber] */\n      dup2\n      mstore\n      0x20\n      add\n      swap1\n      dup2\n      mstore\n      0x20\n      add\n      0x00\n      keccak256\n        /* \"contracts/flightReservation.sol\":4434:4468  seat[flightNumber][seatNumber].pay */\n      0x00\n      add\n      0x00\n        /* \"contracts/flightReservation.sol\":4434:4476  seat[flightNumber][seatNumber].pay = false */\n      0x0100\n      exp\n      dup2\n      sload\n      dup2\n      0xff\n      mul\n      not\n      and\n      swap1\n      dup4\n      iszero\n      iszero\n      mul\n      or\n      swap1\n      sstore\n      pop\n        /* \"contracts/flightReservation.sol\":4531:4536  false */\n      0x00\n        /* \"contracts/flightReservation.sol\":4486:4502  seatAvailability */\n      0x05\n        /* \"contracts/flightReservation.sol\":4486:4516  seatAvailability[flightNumber] */\n      0x00\n        /* \"contracts/flightReservation.sol\":4503:4515  flightNumber */\n      dup6\n        /* \"contracts/flightReservation.sol\":4486:4516  seatAvailability[flightNumber] */\n      dup2\n      mstore\n      0x20\n      add\n      swap1\n      dup2\n      mstore\n      0x20\n      add\n      0x00\n      keccak256\n        /* \"contracts/flightReservation.sol\":4486:4528  seatAvailability[flightNumber][seatNumber] */\n      0x00\n        /* \"contracts/flightReservation.sol\":4517:4527  seatNumber */\n      dup5\n        /* \"contracts/flightReservation.sol\":4486:4528  seatAvailability[flightNumber][seatNumber] */\n      dup2\n      mstore\n      0x20\n      add\n      swap1\n      dup2\n      mstore\n      0x20\n      add\n      0x00\n      keccak256\n      0x00\n        /* \"contracts/flightReservation.sol\":4486:4536  seatAvailability[flightNumber][seatNumber] = false */\n      0x0100\n      exp\n      dup2\n      sload\n      dup2\n      0xff\n      mul\n      not\n      and\n      swap1\n      dup4\n      iszero\n      iszero\n      mul\n      or\n      swap1\n      sstore\n      pop\n        /* \"contracts/flightReservation.sol\":4590:4595  false */\n      0x00\n        /* \"contracts/flightReservation.sol\":4559:4566  booking */\n      0x01\n        /* \"contracts/flightReservation.sol\":4559:4580  booking[flightNumber] */\n      0x00\n        /* \"contracts/flightReservation.sol\":4567:4579  flightNumber */\n      dup6\n        /* \"contracts/flightReservation.sol\":4559:4580  booking[flightNumber] */\n      dup2\n      mstore\n      0x20\n      add\n      swap1\n      dup2\n      mstore\n      0x20\n      add\n      0x00\n      keccak256\n        /* \"contracts/flightReservation.sol\":4559:4587  booking[flightNumber].isPaid */\n      0x03\n      add\n      0x00\n        /* \"contracts/flightReservation.sol\":4559:4595  booking[flightNumber].isPaid = false */\n      0x0100\n      exp\n      dup2\n      sload\n      dup2\n      0xff\n      mul\n      not\n      and\n      swap1\n      dup4\n      iszero\n      iszero\n      mul\n      or\n      swap1\n      sstore\n      pop\n        /* \"contracts/flightReservation.sol\":4641:4646  false */\n      0x00\n        /* \"contracts/flightReservation.sol\":4605:4612  booking */\n      0x01\n        /* \"contracts/flightReservation.sol\":4605:4626  booking[flightNumber] */\n      0x00\n        /* \"contracts/flightReservation.sol\":4613:4625  flightNumber */\n      dup6\n        /* \"contracts/flightReservation.sol\":4605:4626  booking[flightNumber] */\n      dup2\n      mstore\n      0x20\n      add\n      swap1\n      dup2\n      mstore\n      0x20\n      add\n      0x00\n      keccak256\n        /* \"contracts/flightReservation.sol\":4605:4638  booking[flightNumber].isConfirmed */\n      0x03\n      add\n      0x01\n        /* \"contracts/flightReservation.sol\":4605:4646  booking[flightNumber].isConfirmed = false */\n      0x0100\n      exp\n      dup2\n      sload\n      dup2\n      0xff\n      mul\n      not\n      and\n      swap1\n      dup4\n      iszero\n      iszero\n      mul\n      or\n      swap1\n      sstore\n      pop\n        /* \"contracts/flightReservation.sol\":3863:4654  function cancelTicket(address add,uint flightNumber,uint seatNumber,uint numberOfTickets) public {... */\n      pop\n      pop\n      pop\n      pop\n      jump\t// out\n        /* \"contracts/flightReservation.sol\":1384:1761  function addFlight(uint flightNumber,uint _ticketPrice,uint _availableTickets) public onlyOwner(){... */\n    tag_92:\n        /* \"contracts/flightReservation.sol\":1079:1089  msg.sender */\n      caller\n        /* \"contracts/flightReservation.sol\":1070:1089  owner == msg.sender */\n      0xffffffffffffffffffffffffffffffffffffffff\n      and\n        /* \"contracts/flightReservation.sol\":1070:1075  owner */\n      0x00\n      dup1\n      sload\n      swap1\n      0x0100\n      exp\n      swap1\n      div\n      0xffffffffffffffffffffffffffffffffffffffff\n      and\n        /* \"contracts/flightReservation.sol\":1070:1089  owner == msg.sender */\n      0xffffffffffffffffffffffffffffffffffffffff\n      and\n      eq\n        /* \"contracts/flightReservation.sol\":1062:1115  require(owner == msg.sender ,\"You are not the Owner\") */\n      tag_151\n      jumpi\n      mload(0x40)\n      0x08c379a000000000000000000000000000000000000000000000000000000000\n      dup2\n      mstore\n      0x04\n      add\n      tag_152\n      swap1\n      tag_153\n      jump\t// in\n    tag_152:\n      mload(0x40)\n      dup1\n      swap2\n      sub\n      swap1\n      revert\n    tag_151:\n        /* \"contracts/flightReservation.sol\":1531:1535  true */\n      0x01\n        /* \"contracts/flightReservation.sol\":1500:1535  authorizedStaff[msg.sender] == true */\n      iszero\n      iszero\n        /* \"contracts/flightReservation.sol\":1500:1515  authorizedStaff */\n      0x02\n        /* \"contracts/flightReservation.sol\":1500:1527  authorizedStaff[msg.sender] */\n      0x00\n        /* \"contracts/flightReservation.sol\":1516:1526  msg.sender */\n      caller\n        /* \"contracts/flightReservation.sol\":1500:1527  authorizedStaff[msg.sender] */\n      0xffffffffffffffffffffffffffffffffffffffff\n      and\n      0xffffffffffffffffffffffffffffffffffffffff\n      and\n      dup2\n      mstore\n      0x20\n      add\n      swap1\n      dup2\n      mstore\n      0x20\n      add\n      0x00\n      keccak256\n      0x00\n      swap1\n      sload\n      swap1\n      0x0100\n      exp\n      swap1\n      div\n      0xff\n      and\n        /* \"contracts/flightReservation.sol\":1500:1535  authorizedStaff[msg.sender] == true */\n      iszero\n      iszero\n      eq\n        /* \"contracts/flightReservation.sol\":1492:1563  require(authorizedStaff[msg.sender] == true,\"Not the Authorized Staff\") */\n      tag_155\n      jumpi\n      mload(0x40)\n      0x08c379a000000000000000000000000000000000000000000000000000000000\n      dup2\n      mstore\n      0x04\n      add\n      tag_156\n      swap1\n      tag_157\n      jump\t// in\n    tag_156:\n      mload(0x40)\n      dup1\n      swap2\n      sub\n      swap1\n      revert\n    tag_155:\n        /* \"contracts/flightReservation.sol\":1611:1612  0 */\n      0x00\n        /* \"contracts/flightReservation.sol\":1574:1581  booking */\n      0x01\n        /* \"contracts/flightReservation.sol\":1574:1595  booking[flightNumber] */\n      0x00\n        /* \"contracts/flightReservation.sol\":1582:1594  flightNumber */\n      dup6\n        /* \"contracts/flightReservation.sol\":1574:1595  booking[flightNumber] */\n      dup2\n      mstore\n      0x20\n      add\n      swap1\n      dup2\n      mstore\n      0x20\n      add\n      0x00\n      keccak256\n        /* \"contracts/flightReservation.sol\":1574:1608  booking[flightNumber].flightStatus */\n      0x04\n      add\n        /* \"contracts/flightReservation.sol\":1574:1612  booking[flightNumber].flightStatus = 0 */\n      dup2\n      swap1\n      sstore\n      pop\n        /* \"contracts/flightReservation.sol\":1677:1694  _availableTickets */\n      dup1\n        /* \"contracts/flightReservation.sol\":1636:1643  booking */\n      0x01\n        /* \"contracts/flightReservation.sol\":1636:1657  booking[flightNumber] */\n      0x00\n        /* \"contracts/flightReservation.sol\":1644:1656  flightNumber */\n      dup6\n        /* \"contracts/flightReservation.sol\":1636:1657  booking[flightNumber] */\n      dup2\n      mstore\n      0x20\n      add\n      swap1\n      dup2\n      mstore\n      0x20\n      add\n      0x00\n      keccak256\n        /* \"contracts/flightReservation.sol\":1636:1674  booking[flightNumber].availableTickets */\n      0x02\n      add\n        /* \"contracts/flightReservation.sol\":1636:1694  booking[flightNumber].availableTickets = _availableTickets */\n      dup2\n      swap1\n      sstore\n      pop\n        /* \"contracts/flightReservation.sol\":1741:1753  _ticketPrice */\n      dup2\n        /* \"contracts/flightReservation.sol\":1705:1712  booking */\n      0x01\n        /* \"contracts/flightReservation.sol\":1705:1726  booking[flightNumber] */\n      0x00\n        /* \"contracts/flightReservation.sol\":1713:1725  flightNumber */\n      dup6\n        /* \"contracts/flightReservation.sol\":1705:1726  booking[flightNumber] */\n      dup2\n      mstore\n      0x20\n      add\n      swap1\n      dup2\n      mstore\n      0x20\n      add\n      0x00\n      keccak256\n        /* \"contracts/flightReservation.sol\":1705:1738  booking[flightNumber].ticketPrice */\n      0x01\n      add\n        /* \"contracts/flightReservation.sol\":1705:1753  booking[flightNumber].ticketPrice = _ticketPrice */\n      dup2\n      swap1\n      sstore\n      pop\n        /* \"contracts/flightReservation.sol\":1384:1761  function addFlight(uint flightNumber,uint _ticketPrice,uint _availableTickets) public onlyOwner(){... */\n      pop\n      pop\n      pop\n      jump\t// out\n        /* \"#utility.yul\":88:205   */\n    tag_159:\n        /* \"#utility.yul\":197:198   */\n      0x00\n        /* \"#utility.yul\":194:195   */\n      dup1\n        /* \"#utility.yul\":187:199   */\n      revert\n        /* \"#utility.yul\":334:411   */\n    tag_161:\n        /* \"#utility.yul\":371:378   */\n      0x00\n        /* \"#utility.yul\":400:405   */\n      dup2\n        /* \"#utility.yul\":389:405   */\n      swap1\n      pop\n        /* \"#utility.yul\":334:411   */\n      swap2\n      swap1\n      pop\n      jump\t// out\n        /* \"#utility.yul\":417:539   */\n    tag_162:\n        /* \"#utility.yul\":490:514   */\n      tag_211\n        /* \"#utility.yul\":508:513   */\n      dup2\n        /* \"#utility.yul\":490:514   */\n      tag_161\n      jump\t// in\n    tag_211:\n        /* \"#utility.yul\":483:488   */\n      dup2\n        /* \"#utility.yul\":480:515   */\n      eq\n        /* \"#utility.yul\":470:533   */\n      tag_212\n      jumpi\n        /* \"#utility.yul\":529:530   */\n      0x00\n        /* \"#utility.yul\":526:527   */\n      dup1\n        /* \"#utility.yul\":519:531   */\n      revert\n        /* \"#utility.yul\":470:533   */\n    tag_212:\n        /* \"#utility.yul\":417:539   */\n      pop\n      jump\t// out\n        /* \"#utility.yul\":545:684   */\n    tag_163:\n        /* \"#utility.yul\":591:596   */\n      0x00\n        /* \"#utility.yul\":629:635   */\n      dup2\n        /* \"#utility.yul\":616:636   */\n      calldataload\n        /* \"#utility.yul\":607:636   */\n      swap1\n      pop\n        /* \"#utility.yul\":645:678   */\n      tag_214\n        /* \"#utility.yul\":672:677   */\n      dup2\n        /* \"#utility.yul\":645:678   */\n      tag_162\n      jump\t// in\n    tag_214:\n        /* \"#utility.yul\":545:684   */\n      swap3\n      swap2\n      pop\n      pop\n      jump\t// out\n        /* \"#utility.yul\":690:1164   */\n    tag_23:\n        /* \"#utility.yul\":758:764   */\n      0x00\n        /* \"#utility.yul\":766:772   */\n      dup1\n        /* \"#utility.yul\":815:817   */\n      0x40\n        /* \"#utility.yul\":803:812   */\n      dup4\n        /* \"#utility.yul\":794:801   */\n      dup6\n        /* \"#utility.yul\":790:813   */\n      sub\n        /* \"#utility.yul\":786:818   */\n      slt\n        /* \"#utility.yul\":783:902   */\n      iszero\n      tag_216\n      jumpi\n        /* \"#utility.yul\":821:900   */\n      tag_217\n      tag_159\n      jump\t// in\n    tag_217:\n        /* \"#utility.yul\":783:902   */\n    tag_216:\n        /* \"#utility.yul\":941:942   */\n      0x00\n        /* \"#utility.yul\":966:1019   */\n      tag_218\n        /* \"#utility.yul\":1011:1018   */\n      dup6\n        /* \"#utility.yul\":1002:1008   */\n      dup3\n        /* \"#utility.yul\":991:1000   */\n      dup7\n        /* \"#utility.yul\":987:1009   */\n      add\n        /* \"#utility.yul\":966:1019   */\n      tag_163\n      jump\t// in\n    tag_218:\n        /* \"#utility.yul\":956:1019   */\n      swap3\n      pop\n        /* \"#utility.yul\":912:1029   */\n      pop\n        /* \"#utility.yul\":1068:1070   */\n      0x20\n        /* \"#utility.yul\":1094:1147   */\n      tag_219\n        /* \"#utility.yul\":1139:1146   */\n      dup6\n        /* \"#utility.yul\":1130:1136   */\n      dup3\n        /* \"#utility.yul\":1119:1128   */\n      dup7\n        /* \"#utility.yul\":1115:1137   */\n      add\n        /* \"#utility.yul\":1094:1147   */\n      tag_163\n      jump\t// in\n    tag_219:\n        /* \"#utility.yul\":1084:1147   */\n      swap2\n      pop\n        /* \"#utility.yul\":1039:1157   */\n      pop\n        /* \"#utility.yul\":690:1164   */\n      swap3\n      pop\n      swap3\n      swap1\n      pop\n      jump\t// out\n        /* \"#utility.yul\":1170:1350   */\n    tag_164:\n        /* \"#utility.yul\":1218:1295   */\n      0x4e487b7100000000000000000000000000000000000000000000000000000000\n        /* \"#utility.yul\":1215:1216   */\n      0x00\n        /* \"#utility.yul\":1208:1296   */\n      mstore\n        /* \"#utility.yul\":1315:1319   */\n      0x21\n        /* \"#utility.yul\":1312:1313   */\n      0x04\n        /* \"#utility.yul\":1305:1320   */\n      mstore\n        /* \"#utility.yul\":1339:1343   */\n      0x24\n        /* \"#utility.yul\":1336:1337   */\n      0x00\n        /* \"#utility.yul\":1329:1344   */\n      revert\n        /* \"#utility.yul\":1356:1474   */\n    tag_165:\n        /* \"#utility.yul\":1442:1443   */\n      0x02\n        /* \"#utility.yul\":1435:1440   */\n      dup2\n        /* \"#utility.yul\":1432:1444   */\n      lt\n        /* \"#utility.yul\":1422:1468   */\n      tag_222\n      jumpi\n        /* \"#utility.yul\":1448:1466   */\n      tag_223\n      tag_164\n      jump\t// in\n    tag_223:\n        /* \"#utility.yul\":1422:1468   */\n    tag_222:\n        /* \"#utility.yul\":1356:1474   */\n      pop\n      jump\t// out\n        /* \"#utility.yul\":1480:1617   */\n    tag_166:\n        /* \"#utility.yul\":1530:1537   */\n      0x00\n        /* \"#utility.yul\":1559:1564   */\n      dup2\n        /* \"#utility.yul\":1548:1564   */\n      swap1\n      pop\n        /* \"#utility.yul\":1565:1611   */\n      tag_225\n        /* \"#utility.yul\":1605:1610   */\n      dup3\n        /* \"#utility.yul\":1565:1611   */\n      tag_165\n      jump\t// in\n    tag_225:\n        /* \"#utility.yul\":1480:1617   */\n      swap2\n      swap1\n      pop\n      jump\t// out\n        /* \"#utility.yul\":1623:1760   */\n    tag_167:\n        /* \"#utility.yul\":1684:1693   */\n      0x00\n        /* \"#utility.yul\":1717:1754   */\n      tag_227\n        /* \"#utility.yul\":1748:1753   */\n      dup3\n        /* \"#utility.yul\":1717:1754   */\n      tag_166\n      jump\t// in\n    tag_227:\n        /* \"#utility.yul\":1704:1754   */\n      swap1\n      pop\n        /* \"#utility.yul\":1623:1760   */\n      swap2\n      swap1\n      pop\n      jump\t// out\n        /* \"#utility.yul\":1766:1919   */\n    tag_168:\n        /* \"#utility.yul\":1864:1912   */\n      tag_229\n        /* \"#utility.yul\":1906:1911   */\n      dup2\n        /* \"#utility.yul\":1864:1912   */\n      tag_167\n      jump\t// in\n    tag_229:\n        /* \"#utility.yul\":1859:1862   */\n      dup3\n        /* \"#utility.yul\":1852:1913   */\n      mstore\n        /* \"#utility.yul\":1766:1919   */\n      pop\n      pop\n      jump\t// out\n        /* \"#utility.yul\":1925:2169   */\n    tag_29:\n        /* \"#utility.yul\":2029:2033   */\n      0x00\n        /* \"#utility.yul\":2067:2069   */\n      0x20\n        /* \"#utility.yul\":2056:2065   */\n      dup3\n        /* \"#utility.yul\":2052:2070   */\n      add\n        /* \"#utility.yul\":2044:2070   */\n      swap1\n      pop\n        /* \"#utility.yul\":2080:2162   */\n      tag_231\n        /* \"#utility.yul\":2159:2160   */\n      0x00\n        /* \"#utility.yul\":2148:2157   */\n      dup4\n        /* \"#utility.yul\":2144:2161   */\n      add\n        /* \"#utility.yul\":2135:2141   */\n      dup5\n        /* \"#utility.yul\":2080:2162   */\n      tag_168\n      jump\t// in\n    tag_231:\n        /* \"#utility.yul\":1925:2169   */\n      swap3\n      swap2\n      pop\n      pop\n      jump\t// out\n        /* \"#utility.yul\":2175:2301   */\n    tag_169:\n        /* \"#utility.yul\":2212:2219   */\n      0x00\n        /* \"#utility.yul\":2252:2294   */\n      0xffffffffffffffffffffffffffffffffffffffff\n        /* \"#utility.yul\":2245:2250   */\n      dup3\n        /* \"#utility.yul\":2241:2295   */\n      and\n        /* \"#utility.yul\":2230:2295   */\n      swap1\n      pop\n        /* \"#utility.yul\":2175:2301   */\n      swap2\n      swap1\n      pop\n      jump\t// out\n        /* \"#utility.yul\":2307:2403   */\n    tag_170:\n        /* \"#utility.yul\":2344:2351   */\n      0x00\n        /* \"#utility.yul\":2373:2397   */\n      tag_234\n        /* \"#utility.yul\":2391:2396   */\n      dup3\n        /* \"#utility.yul\":2373:2397   */\n      tag_169\n      jump\t// in\n    tag_234:\n        /* \"#utility.yul\":2362:2397   */\n      swap1\n      pop\n        /* \"#utility.yul\":2307:2403   */\n      swap2\n      swap1\n      pop\n      jump\t// out\n        /* \"#utility.yul\":2409:2531   */\n    tag_171:\n        /* \"#utility.yul\":2482:2506   */\n      tag_236\n        /* \"#utility.yul\":2500:2505   */\n      dup2\n        /* \"#utility.yul\":2482:2506   */\n      tag_170\n      jump\t// in\n    tag_236:\n        /* \"#utility.yul\":2475:2480   */\n      dup2\n        /* \"#utility.yul\":2472:2507   */\n      eq\n        /* \"#utility.yul\":2462:2525   */\n      tag_237\n      jumpi\n        /* \"#utility.yul\":2521:2522   */\n      0x00\n        /* \"#utility.yul\":2518:2519   */\n      dup1\n        /* \"#utility.yul\":2511:2523   */\n      revert\n        /* \"#utility.yul\":2462:2525   */\n    tag_237:\n        /* \"#utility.yul\":2409:2531   */\n      pop\n      jump\t// out\n        /* \"#utility.yul\":2537:2676   */\n    tag_172:\n        /* \"#utility.yul\":2583:2588   */\n      0x00\n        /* \"#utility.yul\":2621:2627   */\n      dup2\n        /* \"#utility.yul\":2608:2628   */\n      calldataload\n        /* \"#utility.yul\":2599:2628   */\n      swap1\n      pop\n        /* \"#utility.yul\":2637:2670   */\n      tag_239\n        /* \"#utility.yul\":2664:2669   */\n      dup2\n        /* \"#utility.yul\":2637:2670   */\n      tag_171\n      jump\t// in\n    tag_239:\n        /* \"#utility.yul\":2537:2676   */\n      swap3\n      swap2\n      pop\n      pop\n      jump\t// out\n        /* \"#utility.yul\":2682:3011   */\n    tag_33:\n        /* \"#utility.yul\":2741:2747   */\n      0x00\n        /* \"#utility.yul\":2790:2792   */\n      0x20\n        /* \"#utility.yul\":2778:2787   */\n      dup3\n        /* \"#utility.yul\":2769:2776   */\n      dup5\n        /* \"#utility.yul\":2765:2788   */\n      sub\n        /* \"#utility.yul\":2761:2793   */\n      slt\n        /* \"#utility.yul\":2758:2877   */\n      iszero\n      tag_241\n      jumpi\n        /* \"#utility.yul\":2796:2875   */\n      tag_242\n      tag_159\n      jump\t// in\n    tag_242:\n        /* \"#utility.yul\":2758:2877   */\n    tag_241:\n        /* \"#utility.yul\":2916:2917   */\n      0x00\n        /* \"#utility.yul\":2941:2994   */\n      tag_243\n        /* \"#utility.yul\":2986:2993   */\n      dup5\n        /* \"#utility.yul\":2977:2983   */\n      dup3\n        /* \"#utility.yul\":2966:2975   */\n      dup6\n        /* \"#utility.yul\":2962:2984   */\n      add\n        /* \"#utility.yul\":2941:2994   */\n      tag_172\n      jump\t// in\n    tag_243:\n        /* \"#utility.yul\":2931:2994   */\n      swap2\n      pop\n        /* \"#utility.yul\":2887:3004   */\n      pop\n        /* \"#utility.yul\":2682:3011   */\n      swap3\n      swap2\n      pop\n      pop\n      jump\t// out\n        /* \"#utility.yul\":3017:3135   */\n    tag_173:\n        /* \"#utility.yul\":3104:3128   */\n      tag_245\n        /* \"#utility.yul\":3122:3127   */\n      dup2\n        /* \"#utility.yul\":3104:3128   */\n      tag_161\n      jump\t// in\n    tag_245:\n        /* \"#utility.yul\":3099:3102   */\n      dup3\n        /* \"#utility.yul\":3092:3129   */\n      mstore\n        /* \"#utility.yul\":3017:3135   */\n      pop\n      pop\n      jump\t// out\n        /* \"#utility.yul\":3141:3363   */\n    tag_36:\n        /* \"#utility.yul\":3234:3238   */\n      0x00\n        /* \"#utility.yul\":3272:3274   */\n      0x20\n        /* \"#utility.yul\":3261:3270   */\n      dup3\n        /* \"#utility.yul\":3257:3275   */\n      add\n        /* \"#utility.yul\":3249:3275   */\n      swap1\n      pop\n        /* \"#utility.yul\":3285:3356   */\n      tag_247\n        /* \"#utility.yul\":3353:3354   */\n      0x00\n        /* \"#utility.yul\":3342:3351   */\n      dup4\n        /* \"#utility.yul\":3338:3355   */\n      add\n        /* \"#utility.yul\":3329:3335   */\n      dup5\n        /* \"#utility.yul\":3285:3356   */\n      tag_173\n      jump\t// in\n    tag_247:\n        /* \"#utility.yul\":3141:3363   */\n      swap3\n      swap2\n      pop\n      pop\n      jump\t// out\n        /* \"#utility.yul\":3369:3459   */\n    tag_174:\n        /* \"#utility.yul\":3403:3410   */\n      0x00\n        /* \"#utility.yul\":3446:3451   */\n      dup2\n        /* \"#utility.yul\":3439:3452   */\n      iszero\n        /* \"#utility.yul\":3432:3453   */\n      iszero\n        /* \"#utility.yul\":3421:3453   */\n      swap1\n      pop\n        /* \"#utility.yul\":3369:3459   */\n      swap2\n      swap1\n      pop\n      jump\t// out\n        /* \"#utility.yul\":3465:3574   */\n    tag_175:\n        /* \"#utility.yul\":3546:3567   */\n      tag_250\n        /* \"#utility.yul\":3561:3566   */\n      dup2\n        /* \"#utility.yul\":3546:3567   */\n      tag_174\n      jump\t// in\n    tag_250:\n        /* \"#utility.yul\":3541:3544   */\n      dup3\n        /* \"#utility.yul\":3534:3568   */\n      mstore\n        /* \"#utility.yul\":3465:3574   */\n      pop\n      pop\n      jump\t// out\n        /* \"#utility.yul\":3580:3790   */\n    tag_42:\n        /* \"#utility.yul\":3667:3671   */\n      0x00\n        /* \"#utility.yul\":3705:3707   */\n      0x20\n        /* \"#utility.yul\":3694:3703   */\n      dup3\n        /* \"#utility.yul\":3690:3708   */\n      add\n        /* \"#utility.yul\":3682:3708   */\n      swap1\n      pop\n        /* \"#utility.yul\":3718:3783   */\n      tag_252\n        /* \"#utility.yul\":3780:3781   */\n      0x00\n        /* \"#utility.yul\":3769:3778   */\n      dup4\n        /* \"#utility.yul\":3765:3782   */\n      add\n        /* \"#utility.yul\":3756:3762   */\n      dup5\n        /* \"#utility.yul\":3718:3783   */\n      tag_175\n      jump\t// in\n    tag_252:\n        /* \"#utility.yul\":3580:3790   */\n      swap3\n      swap2\n      pop\n      pop\n      jump\t// out\n        /* \"#utility.yul\":3796:4125   */\n    tag_46:\n        /* \"#utility.yul\":3855:3861   */\n      0x00\n        /* \"#utility.yul\":3904:3906   */\n      0x20\n        /* \"#utility.yul\":3892:3901   */\n      dup3\n        /* \"#utility.yul\":3883:3890   */\n      dup5\n        /* \"#utility.yul\":3879:3902   */\n      sub\n        /* \"#utility.yul\":3875:3907   */\n      slt\n        /* \"#utility.yul\":3872:3991   */\n      iszero\n      tag_254\n      jumpi\n        /* \"#utility.yul\":3910:3989   */\n      tag_255\n      tag_159\n      jump\t// in\n    tag_255:\n        /* \"#utility.yul\":3872:3991   */\n    tag_254:\n        /* \"#utility.yul\":4030:4031   */\n      0x00\n        /* \"#utility.yul\":4055:4108   */\n      tag_256\n        /* \"#utility.yul\":4100:4107   */\n      dup5\n        /* \"#utility.yul\":4091:4097   */\n      dup3\n        /* \"#utility.yul\":4080:4089   */\n      dup6\n        /* \"#utility.yul\":4076:4098   */\n      add\n        /* \"#utility.yul\":4055:4108   */\n      tag_163\n      jump\t// in\n    tag_256:\n        /* \"#utility.yul\":4045:4108   */\n      swap2\n      pop\n        /* \"#utility.yul\":4001:4118   */\n      pop\n        /* \"#utility.yul\":3796:4125   */\n      swap3\n      swap2\n      pop\n      pop\n      jump\t// out\n        /* \"#utility.yul\":4131:4249   */\n    tag_176:\n        /* \"#utility.yul\":4218:4242   */\n      tag_258\n        /* \"#utility.yul\":4236:4241   */\n      dup2\n        /* \"#utility.yul\":4218:4242   */\n      tag_170\n      jump\t// in\n    tag_258:\n        /* \"#utility.yul\":4213:4216   */\n      dup3\n        /* \"#utility.yul\":4206:4243   */\n      mstore\n        /* \"#utility.yul\":4131:4249   */\n      pop\n      pop\n      jump\t// out\n        /* \"#utility.yul\":4255:5006   */\n    tag_49:\n        /* \"#utility.yul\":4476:4480   */\n      0x00\n        /* \"#utility.yul\":4514:4517   */\n      0xc0\n        /* \"#utility.yul\":4503:4512   */\n      dup3\n        /* \"#utility.yul\":4499:4518   */\n      add\n        /* \"#utility.yul\":4491:4518   */\n      swap1\n      pop\n        /* \"#utility.yul\":4528:4599   */\n      tag_260\n        /* \"#utility.yul\":4596:4597   */\n      0x00\n        /* \"#utility.yul\":4585:4594   */\n      dup4\n        /* \"#utility.yul\":4581:4598   */\n      add\n        /* \"#utility.yul\":4572:4578   */\n      dup10\n        /* \"#utility.yul\":4528:4599   */\n      tag_176\n      jump\t// in\n    tag_260:\n        /* \"#utility.yul\":4609:4681   */\n      tag_261\n        /* \"#utility.yul\":4677:4679   */\n      0x20\n        /* \"#utility.yul\":4666:4675   */\n      dup4\n        /* \"#utility.yul\":4662:4680   */\n      add\n        /* \"#utility.yul\":4653:4659   */\n      dup9\n        /* \"#utility.yul\":4609:4681   */\n      tag_173\n      jump\t// in\n    tag_261:\n        /* \"#utility.yul\":4691:4763   */\n      tag_262\n        /* \"#utility.yul\":4759:4761   */\n      0x40\n        /* \"#utility.yul\":4748:4757   */\n      dup4\n        /* \"#utility.yul\":4744:4762   */\n      add\n        /* \"#utility.yul\":4735:4741   */\n      dup8\n        /* \"#utility.yul\":4691:4763   */\n      tag_173\n      jump\t// in\n    tag_262:\n        /* \"#utility.yul\":4773:4839   */\n      tag_263\n        /* \"#utility.yul\":4835:4837   */\n      0x60\n        /* \"#utility.yul\":4824:4833   */\n      dup4\n        /* \"#utility.yul\":4820:4838   */\n      add\n        /* \"#utility.yul\":4811:4817   */\n      dup7\n        /* \"#utility.yul\":4773:4839   */\n      tag_175\n      jump\t// in\n    tag_263:\n        /* \"#utility.yul\":4849:4916   */\n      tag_264\n        /* \"#utility.yul\":4911:4914   */\n      0x80\n        /* \"#utility.yul\":4900:4909   */\n      dup4\n        /* \"#utility.yul\":4896:4915   */\n      add\n        /* \"#utility.yul\":4887:4893   */\n      dup6\n        /* \"#utility.yul\":4849:4916   */\n      tag_175\n      jump\t// in\n    tag_264:\n        /* \"#utility.yul\":4926:4999   */\n      tag_265\n        /* \"#utility.yul\":4994:4997   */\n      0xa0\n        /* \"#utility.yul\":4983:4992   */\n      dup4\n        /* \"#utility.yul\":4979:4998   */\n      add\n        /* \"#utility.yul\":4970:4976   */\n      dup5\n        /* \"#utility.yul\":4926:4999   */\n      tag_173\n      jump\t// in\n    tag_265:\n        /* \"#utility.yul\":4255:5006   */\n      swap8\n      swap7\n      pop\n      pop\n      pop\n      pop\n      pop\n      pop\n      pop\n      jump\t// out\n        /* \"#utility.yul\":5012:5777   */\n    tag_73:\n        /* \"#utility.yul\":5098:5104   */\n      0x00\n        /* \"#utility.yul\":5106:5112   */\n      dup1\n        /* \"#utility.yul\":5114:5120   */\n      0x00\n        /* \"#utility.yul\":5122:5128   */\n      dup1\n        /* \"#utility.yul\":5171:5174   */\n      0x80\n        /* \"#utility.yul\":5159:5168   */\n      dup6\n        /* \"#utility.yul\":5150:5157   */\n      dup8\n        /* \"#utility.yul\":5146:5169   */\n      sub\n        /* \"#utility.yul\":5142:5175   */\n      slt\n        /* \"#utility.yul\":5139:5259   */\n      iszero\n      tag_267\n      jumpi\n        /* \"#utility.yul\":5178:5257   */\n      tag_268\n      tag_159\n      jump\t// in\n    tag_268:\n        /* \"#utility.yul\":5139:5259   */\n    tag_267:\n        /* \"#utility.yul\":5298:5299   */\n      0x00\n        /* \"#utility.yul\":5323:5376   */\n      tag_269\n        /* \"#utility.yul\":5368:5375   */\n      dup8\n        /* \"#utility.yul\":5359:5365   */\n      dup3\n        /* \"#utility.yul\":5348:5357   */\n      dup9\n        /* \"#utility.yul\":5344:5366   */\n      add\n        /* \"#utility.yul\":5323:5376   */\n      tag_172\n      jump\t// in\n    tag_269:\n        /* \"#utility.yul\":5313:5376   */\n      swap5\n      pop\n        /* \"#utility.yul\":5269:5386   */\n      pop\n        /* \"#utility.yul\":5425:5427   */\n      0x20\n        /* \"#utility.yul\":5451:5504   */\n      tag_270\n        /* \"#utility.yul\":5496:5503   */\n      dup8\n        /* \"#utility.yul\":5487:5493   */\n      dup3\n        /* \"#utility.yul\":5476:5485   */\n      dup9\n        /* \"#utility.yul\":5472:5494   */\n      add\n        /* \"#utility.yul\":5451:5504   */\n      tag_163\n      jump\t// in\n    tag_270:\n        /* \"#utility.yul\":5441:5504   */\n      swap4\n      pop\n        /* \"#utility.yul\":5396:5514   */\n      pop\n        /* \"#utility.yul\":5553:5555   */\n      0x40\n        /* \"#utility.yul\":5579:5632   */\n      tag_271\n        /* \"#utility.yul\":5624:5631   */\n      dup8\n        /* \"#utility.yul\":5615:5621   */\n      dup3\n        /* \"#utility.yul\":5604:5613   */\n      dup9\n        /* \"#utility.yul\":5600:5622   */\n      add\n        /* \"#utility.yul\":5579:5632   */\n      tag_163\n      jump\t// in\n    tag_271:\n        /* \"#utility.yul\":5569:5632   */\n      swap3\n      pop\n        /* \"#utility.yul\":5524:5642   */\n      pop\n        /* \"#utility.yul\":5681:5683   */\n      0x60\n        /* \"#utility.yul\":5707:5760   */\n      tag_272\n        /* \"#utility.yul\":5752:5759   */\n      dup8\n        /* \"#utility.yul\":5743:5749   */\n      dup3\n        /* \"#utility.yul\":5732:5741   */\n      dup9\n        /* \"#utility.yul\":5728:5750   */\n      add\n        /* \"#utility.yul\":5707:5760   */\n      tag_163\n      jump\t// in\n    tag_272:\n        /* \"#utility.yul\":5697:5760   */\n      swap2\n      pop\n        /* \"#utility.yul\":5652:5770   */\n      pop\n        /* \"#utility.yul\":5012:5777   */\n      swap3\n      swap6\n      swap2\n      swap5\n      pop\n      swap3\n      pop\n      jump\t// out\n        /* \"#utility.yul\":5783:6005   */\n    tag_79:\n        /* \"#utility.yul\":5876:5880   */\n      0x00\n        /* \"#utility.yul\":5914:5916   */\n      0x20\n        /* \"#utility.yul\":5903:5912   */\n      dup3\n        /* \"#utility.yul\":5899:5917   */\n      add\n        /* \"#utility.yul\":5891:5917   */\n      swap1\n      pop\n        /* \"#utility.yul\":5927:5998   */\n      tag_274\n        /* \"#utility.yul\":5995:5996   */\n      0x00\n        /* \"#utility.yul\":5984:5993   */\n      dup4\n        /* \"#utility.yul\":5980:5997   */\n      add\n        /* \"#utility.yul\":5971:5977   */\n      dup5\n        /* \"#utility.yul\":5927:5998   */\n      tag_176\n      jump\t// in\n    tag_274:\n        /* \"#utility.yul\":5783:6005   */\n      swap3\n      swap2\n      pop\n      pop\n      jump\t// out\n        /* \"#utility.yul\":6011:6630   */\n    tag_91:\n        /* \"#utility.yul\":6088:6094   */\n      0x00\n        /* \"#utility.yul\":6096:6102   */\n      dup1\n        /* \"#utility.yul\":6104:6110   */\n      0x00\n        /* \"#utility.yul\":6153:6155   */\n      0x60\n        /* \"#utility.yul\":6141:6150   */\n      dup5\n        /* \"#utility.yul\":6132:6139   */\n      dup7\n        /* \"#utility.yul\":6128:6151   */\n      sub\n        /* \"#utility.yul\":6124:6156   */\n      slt\n        /* \"#utility.yul\":6121:6240   */\n      iszero\n      tag_276\n      jumpi\n        /* \"#utility.yul\":6159:6238   */\n      tag_277\n      tag_159\n      jump\t// in\n    tag_277:\n        /* \"#utility.yul\":6121:6240   */\n    tag_276:\n        /* \"#utility.yul\":6279:6280   */\n      0x00\n        /* \"#utility.yul\":6304:6357   */\n      tag_278\n        /* \"#utility.yul\":6349:6356   */\n      dup7\n        /* \"#utility.yul\":6340:6346   */\n      dup3\n        /* \"#utility.yul\":6329:6338   */\n      dup8\n        /* \"#utility.yul\":6325:6347   */\n      add\n        /* \"#utility.yul\":6304:6357   */\n      tag_163\n      jump\t// in\n    tag_278:\n        /* \"#utility.yul\":6294:6357   */\n      swap4\n      pop\n        /* \"#utility.yul\":6250:6367   */\n      pop\n        /* \"#utility.yul\":6406:6408   */\n      0x20\n        /* \"#utility.yul\":6432:6485   */\n      tag_279\n        /* \"#utility.yul\":6477:6484   */\n      dup7\n        /* \"#utility.yul\":6468:6474   */\n      dup3\n        /* \"#utility.yul\":6457:6466   */\n      dup8\n        /* \"#utility.yul\":6453:6475   */\n      add\n        /* \"#utility.yul\":6432:6485   */\n      tag_163\n      jump\t// in\n    tag_279:\n        /* \"#utility.yul\":6422:6485   */\n      swap3\n      pop\n        /* \"#utility.yul\":6377:6495   */\n      pop\n        /* \"#utility.yul\":6534:6536   */\n      0x40\n        /* \"#utility.yul\":6560:6613   */\n      tag_280\n        /* \"#utility.yul\":6605:6612   */\n      dup7\n        /* \"#utility.yul\":6596:6602   */\n      dup3\n        /* \"#utility.yul\":6585:6594   */\n      dup8\n        /* \"#utility.yul\":6581:6603   */\n      add\n        /* \"#utility.yul\":6560:6613   */\n      tag_163\n      jump\t// in\n    tag_280:\n        /* \"#utility.yul\":6550:6613   */\n      swap2\n      pop\n        /* \"#utility.yul\":6505:6623   */\n      pop\n        /* \"#utility.yul\":6011:6630   */\n      swap3\n      pop\n      swap3\n      pop\n      swap3\n      jump\t// out\n        /* \"#utility.yul\":6636:6805   */\n    tag_177:\n        /* \"#utility.yul\":6720:6731   */\n      0x00\n        /* \"#utility.yul\":6754:6760   */\n      dup3\n        /* \"#utility.yul\":6749:6752   */\n      dup3\n        /* \"#utility.yul\":6742:6761   */\n      mstore\n        /* \"#utility.yul\":6794:6798   */\n      0x20\n        /* \"#utility.yul\":6789:6792   */\n      dup3\n        /* \"#utility.yul\":6785:6799   */\n      add\n        /* \"#utility.yul\":6770:6799   */\n      swap1\n      pop\n        /* \"#utility.yul\":6636:6805   */\n      swap3\n      swap2\n      pop\n      pop\n      jump\t// out\n        /* \"#utility.yul\":6811:6984   */\n    tag_178:\n        /* \"#utility.yul\":6951:6976   */\n      0x466c69676874206973206e6f7420417661696c61626c65000000000000000000\n        /* \"#utility.yul\":6947:6948   */\n      0x00\n        /* \"#utility.yul\":6939:6945   */\n      dup3\n        /* \"#utility.yul\":6935:6949   */\n      add\n        /* \"#utility.yul\":6928:6977   */\n      mstore\n        /* \"#utility.yul\":6811:6984   */\n      pop\n      jump\t// out\n        /* \"#utility.yul\":6990:7356   */\n    tag_179:\n        /* \"#utility.yul\":7132:7135   */\n      0x00\n        /* \"#utility.yul\":7153:7220   */\n      tag_284\n        /* \"#utility.yul\":7217:7219   */\n      0x17\n        /* \"#utility.yul\":7212:7215   */\n      dup4\n        /* \"#utility.yul\":7153:7220   */\n      tag_177\n      jump\t// in\n    tag_284:\n        /* \"#utility.yul\":7146:7220   */\n      swap2\n      pop\n        /* \"#utility.yul\":7229:7322   */\n      tag_285\n        /* \"#utility.yul\":7318:7321   */\n      dup3\n        /* \"#utility.yul\":7229:7322   */\n      tag_178\n      jump\t// in\n    tag_285:\n        /* \"#utility.yul\":7347:7349   */\n      0x20\n        /* \"#utility.yul\":7342:7345   */\n      dup3\n        /* \"#utility.yul\":7338:7350   */\n      add\n        /* \"#utility.yul\":7331:7350   */\n      swap1\n      pop\n        /* \"#utility.yul\":6990:7356   */\n      swap2\n      swap1\n      pop\n      jump\t// out\n        /* \"#utility.yul\":7362:7781   */\n    tag_96:\n        /* \"#utility.yul\":7528:7532   */\n      0x00\n        /* \"#utility.yul\":7566:7568   */\n      0x20\n        /* \"#utility.yul\":7555:7564   */\n      dup3\n        /* \"#utility.yul\":7551:7569   */\n      add\n        /* \"#utility.yul\":7543:7569   */\n      swap1\n      pop\n        /* \"#utility.yul\":7615:7624   */\n      dup2\n        /* \"#utility.yul\":7609:7613   */\n      dup2\n        /* \"#utility.yul\":7605:7625   */\n      sub\n        /* \"#utility.yul\":7601:7602   */\n      0x00\n        /* \"#utility.yul\":7590:7599   */\n      dup4\n        /* \"#utility.yul\":7586:7603   */\n      add\n        /* \"#utility.yul\":7579:7626   */\n      mstore\n        /* \"#utility.yul\":7643:7774   */\n      tag_287\n        /* \"#utility.yul\":7769:7773   */\n      dup2\n        /* \"#utility.yul\":7643:7774   */\n      tag_179\n      jump\t// in\n    tag_287:\n        /* \"#utility.yul\":7635:7774   */\n      swap1\n      pop\n        /* \"#utility.yul\":7362:7781   */\n      swap2\n      swap1\n      pop\n      jump\t// out\n        /* \"#utility.yul\":7787:7956   */\n    tag_180:\n        /* \"#utility.yul\":7927:7948   */\n      0x5365617420616c726561647920426f6f6b656400000000000000000000000000\n        /* \"#utility.yul\":7923:7924   */\n      0x00\n        /* \"#utility.yul\":7915:7921   */\n      dup3\n        /* \"#utility.yul\":7911:7925   */\n      add\n        /* \"#utility.yul\":7904:7949   */\n      mstore\n        /* \"#utility.yul\":7787:7956   */\n      pop\n      jump\t// out\n        /* \"#utility.yul\":7962:8328   */\n    tag_181:\n        /* \"#utility.yul\":8104:8107   */\n      0x00\n        /* \"#utility.yul\":8125:8192   */\n      tag_290\n        /* \"#utility.yul\":8189:8191   */\n      0x13\n        /* \"#utility.yul\":8184:8187   */\n      dup4\n        /* \"#utility.yul\":8125:8192   */\n      tag_177\n      jump\t// in\n    tag_290:\n        /* \"#utility.yul\":8118:8192   */\n      swap2\n      pop\n        /* \"#utility.yul\":8201:8294   */\n      tag_291\n        /* \"#utility.yul\":8290:8293   */\n      dup3\n        /* \"#utility.yul\":8201:8294   */\n      tag_180\n      jump\t// in\n    tag_291:\n        /* \"#utility.yul\":8319:8321   */\n      0x20\n        /* \"#utility.yul\":8314:8317   */\n      dup3\n        /* \"#utility.yul\":8310:8322   */\n      add\n        /* \"#utility.yul\":8303:8322   */\n      swap1\n      pop\n        /* \"#utility.yul\":7962:8328   */\n      swap2\n      swap1\n      pop\n      jump\t// out\n        /* \"#utility.yul\":8334:8753   */\n    tag_99:\n        /* \"#utility.yul\":8500:8504   */\n      0x00\n        /* \"#utility.yul\":8538:8540   */\n      0x20\n        /* \"#utility.yul\":8527:8536   */\n      dup3\n        /* \"#utility.yul\":8523:8541   */\n      add\n        /* \"#utility.yul\":8515:8541   */\n      swap1\n      pop\n        /* \"#utility.yul\":8587:8596   */\n      dup2\n        /* \"#utility.yul\":8581:8585   */\n      dup2\n        /* \"#utility.yul\":8577:8597   */\n      sub\n        /* \"#utility.yul\":8573:8574   */\n      0x00\n        /* \"#utility.yul\":8562:8571   */\n      dup4\n        /* \"#utility.yul\":8558:8575   */\n      add\n        /* \"#utility.yul\":8551:8598   */\n      mstore\n        /* \"#utility.yul\":8615:8746   */\n      tag_293\n        /* \"#utility.yul\":8741:8745   */\n      dup2\n        /* \"#utility.yul\":8615:8746   */\n      tag_181\n      jump\t// in\n    tag_293:\n        /* \"#utility.yul\":8607:8746   */\n      swap1\n      pop\n        /* \"#utility.yul\":8334:8753   */\n      swap2\n      swap1\n      pop\n      jump\t// out\n        /* \"#utility.yul\":8759:8988   */\n    tag_182:\n        /* \"#utility.yul\":8899:8933   */\n      0x536f72727921204e6f20656e6f756768207469636b65747320617661696c6162\n        /* \"#utility.yul\":8895:8896   */\n      0x00\n        /* \"#utility.yul\":8887:8893   */\n      dup3\n        /* \"#utility.yul\":8883:8897   */\n      add\n        /* \"#utility.yul\":8876:8934   */\n      mstore\n        /* \"#utility.yul\":8968:8980   */\n      0x6c6520746f20626f6f6b00000000000000000000000000000000000000000000\n        /* \"#utility.yul\":8963:8965   */\n      0x20\n        /* \"#utility.yul\":8955:8961   */\n      dup3\n        /* \"#utility.yul\":8951:8966   */\n      add\n        /* \"#utility.yul\":8944:8981   */\n      mstore\n        /* \"#utility.yul\":8759:8988   */\n      pop\n      jump\t// out\n        /* \"#utility.yul\":8994:9360   */\n    tag_183:\n        /* \"#utility.yul\":9136:9139   */\n      0x00\n        /* \"#utility.yul\":9157:9224   */\n      tag_296\n        /* \"#utility.yul\":9221:9223   */\n      0x2a\n        /* \"#utility.yul\":9216:9219   */\n      dup4\n        /* \"#utility.yul\":9157:9224   */\n      tag_177\n      jump\t// in\n    tag_296:\n        /* \"#utility.yul\":9150:9224   */\n      swap2\n      pop\n        /* \"#utility.yul\":9233:9326   */\n      tag_297\n        /* \"#utility.yul\":9322:9325   */\n      dup3\n        /* \"#utility.yul\":9233:9326   */\n      tag_182\n      jump\t// in\n    tag_297:\n        /* \"#utility.yul\":9351:9353   */\n      0x40\n        /* \"#utility.yul\":9346:9349   */\n      dup3\n        /* \"#utility.yul\":9342:9354   */\n      add\n        /* \"#utility.yul\":9335:9354   */\n      swap1\n      pop\n        /* \"#utility.yul\":8994:9360   */\n      swap2\n      swap1\n      pop\n      jump\t// out\n        /* \"#utility.yul\":9366:9785   */\n    tag_102:\n        /* \"#utility.yul\":9532:9536   */\n      0x00\n        /* \"#utility.yul\":9570:9572   */\n      0x20\n        /* \"#utility.yul\":9559:9568   */\n      dup3\n        /* \"#utility.yul\":9555:9573   */\n      add\n        /* \"#utility.yul\":9547:9573   */\n      swap1\n      pop\n        /* \"#utility.yul\":9619:9628   */\n      dup2\n        /* \"#utility.yul\":9613:9617   */\n      dup2\n        /* \"#utility.yul\":9609:9629   */\n      sub\n        /* \"#utility.yul\":9605:9606   */\n      0x00\n        /* \"#utility.yul\":9594:9603   */\n      dup4\n        /* \"#utility.yul\":9590:9607   */\n      add\n        /* \"#utility.yul\":9583:9630   */\n      mstore\n        /* \"#utility.yul\":9647:9778   */\n      tag_299\n        /* \"#utility.yul\":9773:9777   */\n      dup2\n        /* \"#utility.yul\":9647:9778   */\n      tag_183\n      jump\t// in\n    tag_299:\n        /* \"#utility.yul\":9639:9778   */\n      swap1\n      pop\n        /* \"#utility.yul\":9366:9785   */\n      swap2\n      swap1\n      pop\n      jump\t// out\n        /* \"#utility.yul\":9791:9973   */\n    tag_184:\n        /* \"#utility.yul\":9931:9965   */\n      0x596f7520617265206e6f742074686520417574686f72697a6564205374616666\n        /* \"#utility.yul\":9927:9928   */\n      0x00\n        /* \"#utility.yul\":9919:9925   */\n      dup3\n        /* \"#utility.yul\":9915:9929   */\n      add\n        /* \"#utility.yul\":9908:9966   */\n      mstore\n        /* \"#utility.yul\":9791:9973   */\n      pop\n      jump\t// out\n        /* \"#utility.yul\":9979:10345   */\n    tag_185:\n        /* \"#utility.yul\":10121:10124   */\n      0x00\n        /* \"#utility.yul\":10142:10209   */\n      tag_302\n        /* \"#utility.yul\":10206:10208   */\n      0x20\n        /* \"#utility.yul\":10201:10204   */\n      dup4\n        /* \"#utility.yul\":10142:10209   */\n      tag_177\n      jump\t// in\n    tag_302:\n        /* \"#utility.yul\":10135:10209   */\n      swap2\n      pop\n        /* \"#utility.yul\":10218:10311   */\n      tag_303\n        /* \"#utility.yul\":10307:10310   */\n      dup3\n        /* \"#utility.yul\":10218:10311   */\n      tag_184\n      jump\t// in\n    tag_303:\n        /* \"#utility.yul\":10336:10338   */\n      0x20\n        /* \"#utility.yul\":10331:10334   */\n      dup3\n        /* \"#utility.yul\":10327:10339   */\n      add\n        /* \"#utility.yul\":10320:10339   */\n      swap1\n      pop\n        /* \"#utility.yul\":9979:10345   */\n      swap2\n      swap1\n      pop\n      jump\t// out\n        /* \"#utility.yul\":10351:10770   */\n    tag_106:\n        /* \"#utility.yul\":10517:10521   */\n      0x00\n        /* \"#utility.yul\":10555:10557   */\n      0x20\n        /* \"#utility.yul\":10544:10553   */\n      dup3\n        /* \"#utility.yul\":10540:10558   */\n      add\n        /* \"#utility.yul\":10532:10558   */\n      swap1\n      pop\n        /* \"#utility.yul\":10604:10613   */\n      dup2\n        /* \"#utility.yul\":10598:10602   */\n      dup2\n        /* \"#utility.yul\":10594:10614   */\n      sub\n        /* \"#utility.yul\":10590:10591   */\n      0x00\n        /* \"#utility.yul\":10579:10588   */\n      dup4\n        /* \"#utility.yul\":10575:10592   */\n      add\n        /* \"#utility.yul\":10568:10615   */\n      mstore\n        /* \"#utility.yul\":10632:10763   */\n      tag_305\n        /* \"#utility.yul\":10758:10762   */\n      dup2\n        /* \"#utility.yul\":10632:10763   */\n      tag_185\n      jump\t// in\n    tag_305:\n        /* \"#utility.yul\":10624:10763   */\n      swap1\n      pop\n        /* \"#utility.yul\":10351:10770   */\n      swap2\n      swap1\n      pop\n      jump\t// out\n        /* \"#utility.yul\":10776:10956   */\n    tag_186:\n        /* \"#utility.yul\":10824:10901   */\n      0x4e487b7100000000000000000000000000000000000000000000000000000000\n        /* \"#utility.yul\":10821:10822   */\n      0x00\n        /* \"#utility.yul\":10814:10902   */\n      mstore\n        /* \"#utility.yul\":10921:10925   */\n      0x11\n        /* \"#utility.yul\":10918:10919   */\n      0x04\n        /* \"#utility.yul\":10911:10926   */\n      mstore\n        /* \"#utility.yul\":10945:10949   */\n      0x24\n        /* \"#utility.yul\":10942:10943   */\n      0x00\n        /* \"#utility.yul\":10935:10950   */\n      revert\n        /* \"#utility.yul\":10962:11153   */\n    tag_109:\n        /* \"#utility.yul\":11002:11005   */\n      0x00\n        /* \"#utility.yul\":11021:11041   */\n      tag_308\n        /* \"#utility.yul\":11039:11040   */\n      dup3\n        /* \"#utility.yul\":11021:11041   */\n      tag_161\n      jump\t// in\n    tag_308:\n        /* \"#utility.yul\":11016:11041   */\n      swap2\n      pop\n        /* \"#utility.yul\":11055:11075   */\n      tag_309\n        /* \"#utility.yul\":11073:11074   */\n      dup4\n        /* \"#utility.yul\":11055:11075   */\n      tag_161\n      jump\t// in\n    tag_309:\n        /* \"#utility.yul\":11050:11075   */\n      swap3\n      pop\n        /* \"#utility.yul\":11098:11099   */\n      dup3\n        /* \"#utility.yul\":11095:11096   */\n      dup3\n        /* \"#utility.yul\":11091:11100   */\n      add\n        /* \"#utility.yul\":11084:11100   */\n      swap1\n      pop\n        /* \"#utility.yul\":11119:11122   */\n      dup1\n        /* \"#utility.yul\":11116:11117   */\n      dup3\n        /* \"#utility.yul\":11113:11123   */\n      gt\n        /* \"#utility.yul\":11110:11146   */\n      iszero\n      tag_310\n      jumpi\n        /* \"#utility.yul\":11126:11144   */\n      tag_311\n      tag_186\n      jump\t// in\n    tag_311:\n        /* \"#utility.yul\":11110:11146   */\n    tag_310:\n        /* \"#utility.yul\":10962:11153   */\n      swap3\n      swap2\n      pop\n      pop\n      jump\t// out\n        /* \"#utility.yul\":11159:11330   */\n    tag_187:\n        /* \"#utility.yul\":11299:11322   */\n      0x5061796d656e74206e6f7420436f6d706c657465640000000000000000000000\n        /* \"#utility.yul\":11295:11296   */\n      0x00\n        /* \"#utility.yul\":11287:11293   */\n      dup3\n        /* \"#utility.yul\":11283:11297   */\n      add\n        /* \"#utility.yul\":11276:11323   */\n      mstore\n        /* \"#utility.yul\":11159:11330   */\n      pop\n      jump\t// out\n        /* \"#utility.yul\":11336:11702   */\n    tag_188:\n        /* \"#utility.yul\":11478:11481   */\n      0x00\n        /* \"#utility.yul\":11499:11566   */\n      tag_314\n        /* \"#utility.yul\":11563:11565   */\n      0x15\n        /* \"#utility.yul\":11558:11561   */\n      dup4\n        /* \"#utility.yul\":11499:11566   */\n      tag_177\n      jump\t// in\n    tag_314:\n        /* \"#utility.yul\":11492:11566   */\n      swap2\n      pop\n        /* \"#utility.yul\":11575:11668   */\n      tag_315\n        /* \"#utility.yul\":11664:11667   */\n      dup3\n        /* \"#utility.yul\":11575:11668   */\n      tag_187\n      jump\t// in\n    tag_315:\n        /* \"#utility.yul\":11693:11695   */\n      0x20\n        /* \"#utility.yul\":11688:11691   */\n      dup3\n        /* \"#utility.yul\":11684:11696   */\n      add\n        /* \"#utility.yul\":11677:11696   */\n      swap1\n      pop\n        /* \"#utility.yul\":11336:11702   */\n      swap2\n      swap1\n      pop\n      jump\t// out\n        /* \"#utility.yul\":11708:12127   */\n    tag_113:\n        /* \"#utility.yul\":11874:11878   */\n      0x00\n        /* \"#utility.yul\":11912:11914   */\n      0x20\n        /* \"#utility.yul\":11901:11910   */\n      dup3\n        /* \"#utility.yul\":11897:11915   */\n      add\n        /* \"#utility.yul\":11889:11915   */\n      swap1\n      pop\n        /* \"#utility.yul\":11961:11970   */\n      dup2\n        /* \"#utility.yul\":11955:11959   */\n      dup2\n        /* \"#utility.yul\":11951:11971   */\n      sub\n        /* \"#utility.yul\":11947:11948   */\n      0x00\n        /* \"#utility.yul\":11936:11945   */\n      dup4\n        /* \"#utility.yul\":11932:11949   */\n      add\n        /* \"#utility.yul\":11925:11972   */\n      mstore\n        /* \"#utility.yul\":11989:12120   */\n      tag_317\n        /* \"#utility.yul\":12115:12119   */\n      dup2\n        /* \"#utility.yul\":11989:12120   */\n      tag_188\n      jump\t// in\n    tag_317:\n        /* \"#utility.yul\":11981:12120   */\n      swap1\n      pop\n        /* \"#utility.yul\":11708:12127   */\n      swap2\n      swap1\n      pop\n      jump\t// out\n        /* \"#utility.yul\":12133:12303   */\n    tag_189:\n        /* \"#utility.yul\":12273:12295   */\n      0x426f6f6b206f6e6c79206f6e65205469636b6574000000000000000000000000\n        /* \"#utility.yul\":12269:12270   */\n      0x00\n        /* \"#utility.yul\":12261:12267   */\n      dup3\n        /* \"#utility.yul\":12257:12271   */\n      add\n        /* \"#utility.yul\":12250:12296   */\n      mstore\n        /* \"#utility.yul\":12133:12303   */\n      pop\n      jump\t// out\n        /* \"#utility.yul\":12309:12675   */\n    tag_190:\n        /* \"#utility.yul\":12451:12454   */\n      0x00\n        /* \"#utility.yul\":12472:12539   */\n      tag_320\n        /* \"#utility.yul\":12536:12538   */\n      0x14\n        /* \"#utility.yul\":12531:12534   */\n      dup4\n        /* \"#utility.yul\":12472:12539   */\n      tag_177\n      jump\t// in\n    tag_320:\n        /* \"#utility.yul\":12465:12539   */\n      swap2\n      pop\n        /* \"#utility.yul\":12548:12641   */\n      tag_321\n        /* \"#utility.yul\":12637:12640   */\n      dup3\n        /* \"#utility.yul\":12548:12641   */\n      tag_189\n      jump\t// in\n    tag_321:\n        /* \"#utility.yul\":12666:12668   */\n      0x20\n        /* \"#utility.yul\":12661:12664   */\n      dup3\n        /* \"#utility.yul\":12657:12669   */\n      add\n        /* \"#utility.yul\":12650:12669   */\n      swap1\n      pop\n        /* \"#utility.yul\":12309:12675   */\n      swap2\n      swap1\n      pop\n      jump\t// out\n        /* \"#utility.yul\":12681:13100   */\n    tag_123:\n        /* \"#utility.yul\":12847:12851   */\n      0x00\n        /* \"#utility.yul\":12885:12887   */\n      0x20\n        /* \"#utility.yul\":12874:12883   */\n      dup3\n        /* \"#utility.yul\":12870:12888   */\n      add\n        /* \"#utility.yul\":12862:12888   */\n      swap1\n      pop\n        /* \"#utility.yul\":12934:12943   */\n      dup2\n        /* \"#utility.yul\":12928:12932   */\n      dup2\n        /* \"#utility.yul\":12924:12944   */\n      sub\n        /* \"#utility.yul\":12920:12921   */\n      0x00\n        /* \"#utility.yul\":12909:12918   */\n      dup4\n        /* \"#utility.yul\":12905:12922   */\n      add\n        /* \"#utility.yul\":12898:12945   */\n      mstore\n        /* \"#utility.yul\":12962:13093   */\n      tag_323\n        /* \"#utility.yul\":13088:13092   */\n      dup2\n        /* \"#utility.yul\":12962:13093   */\n      tag_190\n      jump\t// in\n    tag_323:\n        /* \"#utility.yul\":12954:13093   */\n      swap1\n      pop\n        /* \"#utility.yul\":12681:13100   */\n      swap2\n      swap1\n      pop\n      jump\t// out\n        /* \"#utility.yul\":13106:13516   */\n    tag_125:\n        /* \"#utility.yul\":13146:13153   */\n      0x00\n        /* \"#utility.yul\":13169:13189   */\n      tag_325\n        /* \"#utility.yul\":13187:13188   */\n      dup3\n        /* \"#utility.yul\":13169:13189   */\n      tag_161\n      jump\t// in\n    tag_325:\n        /* \"#utility.yul\":13164:13189   */\n      swap2\n      pop\n        /* \"#utility.yul\":13203:13223   */\n      tag_326\n        /* \"#utility.yul\":13221:13222   */\n      dup4\n        /* \"#utility.yul\":13203:13223   */\n      tag_161\n      jump\t// in\n    tag_326:\n        /* \"#utility.yul\":13198:13223   */\n      swap3\n      pop\n        /* \"#utility.yul\":13258:13259   */\n      dup3\n        /* \"#utility.yul\":13255:13256   */\n      dup3\n        /* \"#utility.yul\":13251:13260   */\n      mul\n        /* \"#utility.yul\":13280:13310   */\n      tag_327\n        /* \"#utility.yul\":13298:13309   */\n      dup2\n        /* \"#utility.yul\":13280:13310   */\n      tag_161\n      jump\t// in\n    tag_327:\n        /* \"#utility.yul\":13269:13310   */\n      swap2\n      pop\n        /* \"#utility.yul\":13459:13460   */\n      dup3\n        /* \"#utility.yul\":13450:13457   */\n      dup3\n        /* \"#utility.yul\":13446:13461   */\n      div\n        /* \"#utility.yul\":13443:13444   */\n      dup5\n        /* \"#utility.yul\":13440:13462   */\n      eq\n        /* \"#utility.yul\":13420:13421   */\n      dup4\n        /* \"#utility.yul\":13413:13422   */\n      iszero\n        /* \"#utility.yul\":13393:13476   */\n      or\n        /* \"#utility.yul\":13370:13509   */\n      tag_328\n      jumpi\n        /* \"#utility.yul\":13489:13507   */\n      tag_329\n      tag_186\n      jump\t// in\n    tag_329:\n        /* \"#utility.yul\":13370:13509   */\n    tag_328:\n        /* \"#utility.yul\":13154:13516   */\n      pop\n        /* \"#utility.yul\":13106:13516   */\n      swap3\n      swap2\n      pop\n      pop\n      jump\t// out\n        /* \"#utility.yul\":13522:13690   */\n    tag_191:\n        /* \"#utility.yul\":13662:13682   */\n      0x4e6f7420656e6f7567682062616c616e63650000000000000000000000000000\n        /* \"#utility.yul\":13658:13659   */\n      0x00\n        /* \"#utility.yul\":13650:13656   */\n      dup3\n        /* \"#utility.yul\":13646:13660   */\n      add\n        /* \"#utility.yul\":13639:13683   */\n      mstore\n        /* \"#utility.yul\":13522:13690   */\n      pop\n      jump\t// out\n        /* \"#utility.yul\":13696:14062   */\n    tag_192:\n        /* \"#utility.yul\":13838:13841   */\n      0x00\n        /* \"#utility.yul\":13859:13926   */\n      tag_332\n        /* \"#utility.yul\":13923:13925   */\n      0x12\n        /* \"#utility.yul\":13918:13921   */\n      dup4\n        /* \"#utility.yul\":13859:13926   */\n      tag_177\n      jump\t// in\n    tag_332:\n        /* \"#utility.yul\":13852:13926   */\n      swap2\n      pop\n        /* \"#utility.yul\":13935:14028   */\n      tag_333\n        /* \"#utility.yul\":14024:14027   */\n      dup3\n        /* \"#utility.yul\":13935:14028   */\n      tag_191\n      jump\t// in\n    tag_333:\n        /* \"#utility.yul\":14053:14055   */\n      0x20\n        /* \"#utility.yul\":14048:14051   */\n      dup3\n        /* \"#utility.yul\":14044:14056   */\n      add\n        /* \"#utility.yul\":14037:14056   */\n      swap1\n      pop\n        /* \"#utility.yul\":13696:14062   */\n      swap2\n      swap1\n      pop\n      jump\t// out\n        /* \"#utility.yul\":14068:14487   */\n    tag_128:\n        /* \"#utility.yul\":14234:14238   */\n      0x00\n        /* \"#utility.yul\":14272:14274   */\n      0x20\n        /* \"#utility.yul\":14261:14270   */\n      dup3\n        /* \"#utility.yul\":14257:14275   */\n      add\n        /* \"#utility.yul\":14249:14275   */\n      swap1\n      pop\n        /* \"#utility.yul\":14321:14330   */\n      dup2\n        /* \"#utility.yul\":14315:14319   */\n      dup2\n        /* \"#utility.yul\":14311:14331   */\n      sub\n        /* \"#utility.yul\":14307:14308   */\n      0x00\n        /* \"#utility.yul\":14296:14305   */\n      dup4\n        /* \"#utility.yul\":14292:14309   */\n      add\n        /* \"#utility.yul\":14285:14332   */\n      mstore\n        /* \"#utility.yul\":14349:14480   */\n      tag_335\n        /* \"#utility.yul\":14475:14479   */\n      dup2\n        /* \"#utility.yul\":14349:14480   */\n      tag_192\n      jump\t// in\n    tag_335:\n        /* \"#utility.yul\":14341:14480   */\n      swap1\n      pop\n        /* \"#utility.yul\":14068:14487   */\n      swap2\n      swap1\n      pop\n      jump\t// out\n        /* \"#utility.yul\":14493:14687   */\n    tag_131:\n        /* \"#utility.yul\":14533:14537   */\n      0x00\n        /* \"#utility.yul\":14553:14573   */\n      tag_337\n        /* \"#utility.yul\":14571:14572   */\n      dup3\n        /* \"#utility.yul\":14553:14573   */\n      tag_161\n      jump\t// in\n    tag_337:\n        /* \"#utility.yul\":14548:14573   */\n      swap2\n      pop\n        /* \"#utility.yul\":14587:14607   */\n      tag_338\n        /* \"#utility.yul\":14605:14606   */\n      dup4\n        /* \"#utility.yul\":14587:14607   */\n      tag_161\n      jump\t// in\n    tag_338:\n        /* \"#utility.yul\":14582:14607   */\n      swap3\n      pop\n        /* \"#utility.yul\":14631:14632   */\n      dup3\n        /* \"#utility.yul\":14628:14629   */\n      dup3\n        /* \"#utility.yul\":14624:14633   */\n      sub\n        /* \"#utility.yul\":14616:14633   */\n      swap1\n      pop\n        /* \"#utility.yul\":14655:14656   */\n      dup2\n        /* \"#utility.yul\":14649:14653   */\n      dup2\n        /* \"#utility.yul\":14646:14657   */\n      gt\n        /* \"#utility.yul\":14643:14680   */\n      iszero\n      tag_339\n      jumpi\n        /* \"#utility.yul\":14660:14678   */\n      tag_340\n      tag_186\n      jump\t// in\n    tag_340:\n        /* \"#utility.yul\":14643:14680   */\n    tag_339:\n        /* \"#utility.yul\":14493:14687   */\n      swap3\n      swap2\n      pop\n      pop\n      jump\t// out\n        /* \"#utility.yul\":14693:14868   */\n    tag_193:\n        /* \"#utility.yul\":14833:14860   */\n      0x426f6f6b696e6720616c726561647920636f6d706c6574656400000000000000\n        /* \"#utility.yul\":14829:14830   */\n      0x00\n        /* \"#utility.yul\":14821:14827   */\n      dup3\n        /* \"#utility.yul\":14817:14831   */\n      add\n        /* \"#utility.yul\":14810:14861   */\n      mstore\n        /* \"#utility.yul\":14693:14868   */\n      pop\n      jump\t// out\n        /* \"#utility.yul\":14874:15240   */\n    tag_194:\n        /* \"#utility.yul\":15016:15019   */\n      0x00\n        /* \"#utility.yul\":15037:15104   */\n      tag_343\n        /* \"#utility.yul\":15101:15103   */\n      0x19\n        /* \"#utility.yul\":15096:15099   */\n      dup4\n        /* \"#utility.yul\":15037:15104   */\n      tag_177\n      jump\t// in\n    tag_343:\n        /* \"#utility.yul\":15030:15104   */\n      swap2\n      pop\n        /* \"#utility.yul\":15113:15206   */\n      tag_344\n        /* \"#utility.yul\":15202:15205   */\n      dup3\n        /* \"#utility.yul\":15113:15206   */\n      tag_193\n      jump\t// in\n    tag_344:\n        /* \"#utility.yul\":15231:15233   */\n      0x20\n        /* \"#utility.yul\":15226:15229   */\n      dup3\n        /* \"#utility.yul\":15222:15234   */\n      add\n        /* \"#utility.yul\":15215:15234   */\n      swap1\n      pop\n        /* \"#utility.yul\":14874:15240   */\n      swap2\n      swap1\n      pop\n      jump\t// out\n        /* \"#utility.yul\":15246:15665   */\n    tag_135:\n        /* \"#utility.yul\":15412:15416   */\n      0x00\n        /* \"#utility.yul\":15450:15452   */\n      0x20\n        /* \"#utility.yul\":15439:15448   */\n      dup3\n        /* \"#utility.yul\":15435:15453   */\n      add\n        /* \"#utility.yul\":15427:15453   */\n      swap1\n      pop\n        /* \"#utility.yul\":15499:15508   */\n      dup2\n        /* \"#utility.yul\":15493:15497   */\n      dup2\n        /* \"#utility.yul\":15489:15509   */\n      sub\n        /* \"#utility.yul\":15485:15486   */\n      0x00\n        /* \"#utility.yul\":15474:15483   */\n      dup4\n        /* \"#utility.yul\":15470:15487   */\n      add\n        /* \"#utility.yul\":15463:15510   */\n      mstore\n        /* \"#utility.yul\":15527:15658   */\n      tag_346\n        /* \"#utility.yul\":15653:15657   */\n      dup2\n        /* \"#utility.yul\":15527:15658   */\n      tag_194\n      jump\t// in\n    tag_346:\n        /* \"#utility.yul\":15519:15658   */\n      swap1\n      pop\n        /* \"#utility.yul\":15246:15665   */\n      swap2\n      swap1\n      pop\n      jump\t// out\n        /* \"#utility.yul\":15671:15841   */\n    tag_195:\n        /* \"#utility.yul\":15811:15833   */\n      0x5061796d656e74206e6f742079657420646f6e65000000000000000000000000\n        /* \"#utility.yul\":15807:15808   */\n      0x00\n        /* \"#utility.yul\":15799:15805   */\n      dup3\n        /* \"#utility.yul\":15795:15809   */\n      add\n        /* \"#utility.yul\":15788:15834   */\n      mstore\n        /* \"#utility.yul\":15671:15841   */\n      pop\n      jump\t// out\n        /* \"#utility.yul\":15847:16213   */\n    tag_196:\n        /* \"#utility.yul\":15989:15992   */\n      0x00\n        /* \"#utility.yul\":16010:16077   */\n      tag_349\n        /* \"#utility.yul\":16074:16076   */\n      0x14\n        /* \"#utility.yul\":16069:16072   */\n      dup4\n        /* \"#utility.yul\":16010:16077   */\n      tag_177\n      jump\t// in\n    tag_349:\n        /* \"#utility.yul\":16003:16077   */\n      swap2\n      pop\n        /* \"#utility.yul\":16086:16179   */\n      tag_350\n        /* \"#utility.yul\":16175:16178   */\n      dup3\n        /* \"#utility.yul\":16086:16179   */\n      tag_195\n      jump\t// in\n    tag_350:\n        /* \"#utility.yul\":16204:16206   */\n      0x20\n        /* \"#utility.yul\":16199:16202   */\n      dup3\n        /* \"#utility.yul\":16195:16207   */\n      add\n        /* \"#utility.yul\":16188:16207   */\n      swap1\n      pop\n        /* \"#utility.yul\":15847:16213   */\n      swap2\n      swap1\n      pop\n      jump\t// out\n        /* \"#utility.yul\":16219:16638   */\n    tag_140:\n        /* \"#utility.yul\":16385:16389   */\n      0x00\n        /* \"#utility.yul\":16423:16425   */\n      0x20\n        /* \"#utility.yul\":16412:16421   */\n      dup3\n        /* \"#utility.yul\":16408:16426   */\n      add\n        /* \"#utility.yul\":16400:16426   */\n      swap1\n      pop\n        /* \"#utility.yul\":16472:16481   */\n      dup2\n        /* \"#utility.yul\":16466:16470   */\n      dup2\n        /* \"#utility.yul\":16462:16482   */\n      sub\n        /* \"#utility.yul\":16458:16459   */\n      0x00\n        /* \"#utility.yul\":16447:16456   */\n      dup4\n        /* \"#utility.yul\":16443:16460   */\n      add\n        /* \"#utility.yul\":16436:16483   */\n      mstore\n        /* \"#utility.yul\":16500:16631   */\n      tag_352\n        /* \"#utility.yul\":16626:16630   */\n      dup2\n        /* \"#utility.yul\":16500:16631   */\n      tag_196\n      jump\t// in\n    tag_352:\n        /* \"#utility.yul\":16492:16631   */\n      swap1\n      pop\n        /* \"#utility.yul\":16219:16638   */\n      swap2\n      swap1\n      pop\n      jump\t// out\n        /* \"#utility.yul\":16644:16809   */\n    tag_197:\n        /* \"#utility.yul\":16784:16801   */\n      0x53656174206e6f7420426f6f6b65640000000000000000000000000000000000\n        /* \"#utility.yul\":16780:16781   */\n      0x00\n        /* \"#utility.yul\":16772:16778   */\n      dup3\n        /* \"#utility.yul\":16768:16782   */\n      add\n        /* \"#utility.yul\":16761:16802   */\n      mstore\n        /* \"#utility.yul\":16644:16809   */\n      pop\n      jump\t// out\n        /* \"#utility.yul\":16815:17181   */\n    tag_198:\n        /* \"#utility.yul\":16957:16960   */\n      0x00\n        /* \"#utility.yul\":16978:17045   */\n      tag_355\n        /* \"#utility.yul\":17042:17044   */\n      0x0f\n        /* \"#utility.yul\":17037:17040   */\n      dup4\n        /* \"#utility.yul\":16978:17045   */\n      tag_177\n      jump\t// in\n    tag_355:\n        /* \"#utility.yul\":16971:17045   */\n      swap2\n      pop\n        /* \"#utility.yul\":17054:17147   */\n      tag_356\n        /* \"#utility.yul\":17143:17146   */\n      dup3\n        /* \"#utility.yul\":17054:17147   */\n      tag_197\n      jump\t// in\n    tag_356:\n        /* \"#utility.yul\":17172:17174   */\n      0x20\n        /* \"#utility.yul\":17167:17170   */\n      dup3\n        /* \"#utility.yul\":17163:17175   */\n      add\n        /* \"#utility.yul\":17156:17175   */\n      swap1\n      pop\n        /* \"#utility.yul\":16815:17181   */\n      swap2\n      swap1\n      pop\n      jump\t// out\n        /* \"#utility.yul\":17187:17606   */\n    tag_143:\n        /* \"#utility.yul\":17353:17357   */\n      0x00\n        /* \"#utility.yul\":17391:17393   */\n      0x20\n        /* \"#utility.yul\":17380:17389   */\n      dup3\n        /* \"#utility.yul\":17376:17394   */\n      add\n        /* \"#utility.yul\":17368:17394   */\n      swap1\n      pop\n        /* \"#utility.yul\":17440:17449   */\n      dup2\n        /* \"#utility.yul\":17434:17438   */\n      dup2\n        /* \"#utility.yul\":17430:17450   */\n      sub\n        /* \"#utility.yul\":17426:17427   */\n      0x00\n        /* \"#utility.yul\":17415:17424   */\n      dup4\n        /* \"#utility.yul\":17411:17428   */\n      add\n        /* \"#utility.yul\":17404:17451   */\n      mstore\n        /* \"#utility.yul\":17468:17599   */\n      tag_358\n        /* \"#utility.yul\":17594:17598   */\n      dup2\n        /* \"#utility.yul\":17468:17599   */\n      tag_198\n      jump\t// in\n    tag_358:\n        /* \"#utility.yul\":17460:17599   */\n      swap1\n      pop\n        /* \"#utility.yul\":17187:17606   */\n      swap2\n      swap1\n      pop\n      jump\t// out\n        /* \"#utility.yul\":17612:17779   */\n    tag_199:\n        /* \"#utility.yul\":17752:17771   */\n      0x43616e63656c206f6e65205469636b6574000000000000000000000000000000\n        /* \"#utility.yul\":17748:17749   */\n      0x00\n        /* \"#utility.yul\":17740:17746   */\n      dup3\n        /* \"#utility.yul\":17736:17750   */\n      add\n        /* \"#utility.yul\":17729:17772   */\n      mstore\n        /* \"#utility.yul\":17612:17779   */\n      pop\n      jump\t// out\n        /* \"#utility.yul\":17785:18151   */\n    tag_200:\n        /* \"#utility.yul\":17927:17930   */\n      0x00\n        /* \"#utility.yul\":17948:18015   */\n      tag_361\n        /* \"#utility.yul\":18012:18014   */\n      0x11\n        /* \"#utility.yul\":18007:18010   */\n      dup4\n        /* \"#utility.yul\":17948:18015   */\n      tag_177\n      jump\t// in\n    tag_361:\n        /* \"#utility.yul\":17941:18015   */\n      swap2\n      pop\n        /* \"#utility.yul\":18024:18117   */\n      tag_362\n        /* \"#utility.yul\":18113:18116   */\n      dup3\n        /* \"#utility.yul\":18024:18117   */\n      tag_199\n      jump\t// in\n    tag_362:\n        /* \"#utility.yul\":18142:18144   */\n      0x20\n        /* \"#utility.yul\":18137:18140   */\n      dup3\n        /* \"#utility.yul\":18133:18145   */\n      add\n        /* \"#utility.yul\":18126:18145   */\n      swap1\n      pop\n        /* \"#utility.yul\":17785:18151   */\n      swap2\n      swap1\n      pop\n      jump\t// out\n        /* \"#utility.yul\":18157:18576   */\n    tag_146:\n        /* \"#utility.yul\":18323:18327   */\n      0x00\n        /* \"#utility.yul\":18361:18363   */\n      0x20\n        /* \"#utility.yul\":18350:18359   */\n      dup3\n        /* \"#utility.yul\":18346:18364   */\n      add\n        /* \"#utility.yul\":18338:18364   */\n      swap1\n      pop\n        /* \"#utility.yul\":18410:18419   */\n      dup2\n        /* \"#utility.yul\":18404:18408   */\n      dup2\n        /* \"#utility.yul\":18400:18420   */\n      sub\n        /* \"#utility.yul\":18396:18397   */\n      0x00\n        /* \"#utility.yul\":18385:18394   */\n      dup4\n        /* \"#utility.yul\":18381:18398   */\n      add\n        /* \"#utility.yul\":18374:18421   */\n      mstore\n        /* \"#utility.yul\":18438:18569   */\n      tag_364\n        /* \"#utility.yul\":18564:18568   */\n      dup2\n        /* \"#utility.yul\":18438:18569   */\n      tag_200\n      jump\t// in\n    tag_364:\n        /* \"#utility.yul\":18430:18569   */\n      swap1\n      pop\n        /* \"#utility.yul\":18157:18576   */\n      swap2\n      swap1\n      pop\n      jump\t// out\n        /* \"#utility.yul\":18582:18753   */\n    tag_201:\n        /* \"#utility.yul\":18722:18745   */\n      0x596f7520617265206e6f7420746865204f776e65720000000000000000000000\n        /* \"#utility.yul\":18718:18719   */\n      0x00\n        /* \"#utility.yul\":18710:18716   */\n      dup3\n        /* \"#utility.yul\":18706:18720   */\n      add\n        /* \"#utility.yul\":18699:18746   */\n      mstore\n        /* \"#utility.yul\":18582:18753   */\n      pop\n      jump\t// out\n        /* \"#utility.yul\":18759:19125   */\n    tag_202:\n        /* \"#utility.yul\":18901:18904   */\n      0x00\n        /* \"#utility.yul\":18922:18989   */\n      tag_367\n        /* \"#utility.yul\":18986:18988   */\n      0x15\n        /* \"#utility.yul\":18981:18984   */\n      dup4\n        /* \"#utility.yul\":18922:18989   */\n      tag_177\n      jump\t// in\n    tag_367:\n        /* \"#utility.yul\":18915:18989   */\n      swap2\n      pop\n        /* \"#utility.yul\":18998:19091   */\n      tag_368\n        /* \"#utility.yul\":19087:19090   */\n      dup3\n        /* \"#utility.yul\":18998:19091   */\n      tag_201\n      jump\t// in\n    tag_368:\n        /* \"#utility.yul\":19116:19118   */\n      0x20\n        /* \"#utility.yul\":19111:19114   */\n      dup3\n        /* \"#utility.yul\":19107:19119   */\n      add\n        /* \"#utility.yul\":19100:19119   */\n      swap1\n      pop\n        /* \"#utility.yul\":18759:19125   */\n      swap2\n      swap1\n      pop\n      jump\t// out\n        /* \"#utility.yul\":19131:19550   */\n    tag_153:\n        /* \"#utility.yul\":19297:19301   */\n      0x00\n        /* \"#utility.yul\":19335:19337   */\n      0x20\n        /* \"#utility.yul\":19324:19333   */\n      dup3\n        /* \"#utility.yul\":19320:19338   */\n      add\n        /* \"#utility.yul\":19312:19338   */\n      swap1\n      pop\n        /* \"#utility.yul\":19384:19393   */\n      dup2\n        /* \"#utility.yul\":19378:19382   */\n      dup2\n        /* \"#utility.yul\":19374:19394   */\n      sub\n        /* \"#utility.yul\":19370:19371   */\n      0x00\n        /* \"#utility.yul\":19359:19368   */\n      dup4\n        /* \"#utility.yul\":19355:19372   */\n      add\n        /* \"#utility.yul\":19348:19395   */\n      mstore\n        /* \"#utility.yul\":19412:19543   */\n      tag_370\n        /* \"#utility.yul\":19538:19542   */\n      dup2\n        /* \"#utility.yul\":19412:19543   */\n      tag_202\n      jump\t// in\n    tag_370:\n        /* \"#utility.yul\":19404:19543   */\n      swap1\n      pop\n        /* \"#utility.yul\":19131:19550   */\n      swap2\n      swap1\n      pop\n      jump\t// out\n        /* \"#utility.yul\":19556:19730   */\n    tag_203:\n        /* \"#utility.yul\":19696:19722   */\n      0x4e6f742074686520417574686f72697a65642053746166660000000000000000\n        /* \"#utility.yul\":19692:19693   */\n      0x00\n        /* \"#utility.yul\":19684:19690   */\n      dup3\n        /* \"#utility.yul\":19680:19694   */\n      add\n        /* \"#utility.yul\":19673:19723   */\n      mstore\n        /* \"#utility.yul\":19556:19730   */\n      pop\n      jump\t// out\n        /* \"#utility.yul\":19736:20102   */\n    tag_204:\n        /* \"#utility.yul\":19878:19881   */\n      0x00\n        /* \"#utility.yul\":19899:19966   */\n      tag_373\n        /* \"#utility.yul\":19963:19965   */\n      0x18\n        /* \"#utility.yul\":19958:19961   */\n      dup4\n        /* \"#utility.yul\":19899:19966   */\n      tag_177\n      jump\t// in\n    tag_373:\n        /* \"#utility.yul\":19892:19966   */\n      swap2\n      pop\n        /* \"#utility.yul\":19975:20068   */\n      tag_374\n        /* \"#utility.yul\":20064:20067   */\n      dup3\n        /* \"#utility.yul\":19975:20068   */\n      tag_203\n      jump\t// in\n    tag_374:\n        /* \"#utility.yul\":20093:20095   */\n      0x20\n        /* \"#utility.yul\":20088:20091   */\n      dup3\n        /* \"#utility.yul\":20084:20096   */\n      add\n        /* \"#utility.yul\":20077:20096   */\n      swap1\n      pop\n        /* \"#utility.yul\":19736:20102   */\n      swap2\n      swap1\n      pop\n      jump\t// out\n        /* \"#utility.yul\":20108:20527   */\n    tag_157:\n        /* \"#utility.yul\":20274:20278   */\n      0x00\n        /* \"#utility.yul\":20312:20314   */\n      0x20\n        /* \"#utility.yul\":20301:20310   */\n      dup3\n        /* \"#utility.yul\":20297:20315   */\n      add\n        /* \"#utility.yul\":20289:20315   */\n      swap1\n      pop\n        /* \"#utility.yul\":20361:20370   */\n      dup2\n        /* \"#utility.yul\":20355:20359   */\n      dup2\n        /* \"#utility.yul\":20351:20371   */\n      sub\n        /* \"#utility.yul\":20347:20348   */\n      0x00\n        /* \"#utility.yul\":20336:20345   */\n      dup4\n        /* \"#utility.yul\":20332:20349   */\n      add\n        /* \"#utility.yul\":20325:20372   */\n      mstore\n        /* \"#utility.yul\":20389:20520   */\n      tag_376\n        /* \"#utility.yul\":20515:20519   */\n      dup2\n        /* \"#utility.yul\":20389:20520   */\n      tag_204\n      jump\t// in\n    tag_376:\n        /* \"#utility.yul\":20381:20520   */\n      swap1\n      pop\n        /* \"#utility.yul\":20108:20527   */\n      swap2\n      swap1\n      pop\n      jump\t// out\n\n    auxdata: 0xa26469706673582212200e2c7d98c9c286eb6df66ff128cd9252ab956771213256bbe58af94bf398448164736f6c63430008120033\n}\n",
				"bytecode": {
					"linkReferences": {},
					"object": "608060405234801561001057600080fd5b50336000806101000a81548173ffffffffffffffffffffffffffffffffffffffff021916908373ffffffffffffffffffffffffffffffffffffffff160217905550611ad3806100606000396000f3fe6080604052600436106100e85760003560e01c806354056b691161008a5780638da5cb5b116100595780638da5cb5b146102fc5780639c043f8c14610327578063decf5bd314610350578063f4b770dd14610379576100e8565b806354056b6914610251578063543be60b1461027a57806380af305a146102a357806385ef45ec146102e0576100e8565b80632feac173116100c65780632feac1731461017e578063358dc19c146101bb578063477a5fb5146101fd5780634d40d54f14610226576100e8565b80630f64252f146100ed578063200d2ed21461011657806327e235e314610141575b600080fd5b3480156100f957600080fd5b50610114600480360381019061010f91906110e2565b6103a2565b005b34801561012257600080fd5b5061012b610525565b6040516101389190611199565b60405180910390f35b34801561014d57600080fd5b5061016860048036038101906101639190611212565b610538565b604051610175919061124e565b60405180910390f35b34801561018a57600080fd5b506101a560048036038101906101a09190611212565b610550565b6040516101b29190611284565b60405180910390f35b3480156101c757600080fd5b506101e260048036038101906101dd919061129f565b610570565b6040516101f4969594939291906112db565b60405180910390f35b34801561020957600080fd5b50610224600480360381019061021f919061129f565b6105e6565b005b34801561023257600080fd5b5061023b610697565b604051610248919061124e565b60405180910390f35b34801561025d57600080fd5b506102786004803603810190610273919061129f565b610736565b005b34801561028657600080fd5b506102a1600480360381019061029c919061129f565b6107ca565b005b3480156102af57600080fd5b506102ca60048036038101906102c5919061129f565b61087c565b6040516102d7919061124e565b60405180910390f35b6102fa60048036038101906102f5919061133c565b61089c565b005b34801561030857600080fd5b50610311610bf5565b60405161031e91906113a3565b60405180910390f35b34801561033357600080fd5b5061034e60048036038101906103499190611212565b610c19565b005b34801561035c57600080fd5b506103776004803603810190610372919061133c565b610c74565b005b34801561038557600080fd5b506103a0600480360381019061039b91906113be565b610f2f565b005b336001600084815260200190815260200160002060000160006101000a81548173ffffffffffffffffffffffffffffffffffffffff021916908373ffffffffffffffffffffffffffffffffffffffff1602179055506000600160008481526020019081526020016000206004015414610450576040517f08c379a00000000000000000000000000000000000000000000000000000000081526004016104479061146e565b60405180910390fd5b6000151560056000848152602001908152602001600020600083815260200190815260200160002060009054906101000a900460ff161515146104c8576040517f08c379a00000000000000000000000000000000000000000000000000000000081526004016104bf906114da565b60405180910390fd5b6001806000848152602001908152602001600020600201541015610521576040517f08c379a00000000000000000000000000000000000000000000000000000000081526004016105189061156c565b60405180910390fd5b5050565b600760009054906101000a900460ff1681565b60036020528060005260406000206000915090505481565b60026020528060005260406000206000915054906101000a900460ff1681565b60016020528060005260406000206000915090508060000160009054906101000a900473ffffffffffffffffffffffffffffffffffffffff16908060010154908060020154908060030160009054906101000a900460ff16908060030160019054906101000a900460ff16908060040154905086565b60011515600260003373ffffffffffffffffffffffffffffffffffffffff1673ffffffffffffffffffffffffffffffffffffffff16815260200190815260200160002060009054906101000a900460ff16151514610679576040517f08c379a0000000000000000000000000000000000000000000000000000000008152600401610670906115d8565b60405180910390fd5b60018060008381526020019081526020016000206004018190555050565b600061c350600360003373ffffffffffffffffffffffffffffffffffffffff1673ffffffffffffffffffffffffffffffffffffffff16815260200190815260200160002060008282546106ea9190611627565b92505081905550600360003373ffffffffffffffffffffffffffffffffffffffff1673ffffffffffffffffffffffffffffffffffffffff16815260200190815260200160002054905090565b6001600082815260200190815260200160002060030160009054906101000a900460ff16610799576040517f08c379a0000000000000000000000000000000000000000000000000000000008152600401610790906116a7565b60405180910390fd5b600180600083815260200190815260200160002060030160016101000a81548160ff02191690831515021790555050565b60011515600260003373ffffffffffffffffffffffffffffffffffffffff1673ffffffffffffffffffffffffffffffffffffffff16815260200190815260200160002060009054906101000a900460ff1615151461085d576040517f08c379a0000000000000000000000000000000000000000000000000000000008152600401610854906115d8565b60405180910390fd5b6000600160008381526020019081526020016000206004018190555050565b600060016000838152602001908152602001600020600201549050919050565b6000151560056000858152602001908152602001600020600083815260200190815260200160002060009054906101000a900460ff16151514610914576040517f08c379a000000000000000000000000000000000000000000000000000000000815260040161090b906114da565b60405180910390fd5b60018214610957576040517f08c379a000000000000000000000000000000000000000000000000000000000815260040161094e90611713565b60405180910390fd5b8160016000858152602001908152602001600020600101546109799190611733565b600360003373ffffffffffffffffffffffffffffffffffffffff1673ffffffffffffffffffffffffffffffffffffffff16815260200190815260200160002054116109f9576040517f08c379a00000000000000000000000000000000000000000000000000000000081526004016109f0906117c1565b60405180910390fd5b6000826001600086815260200190815260200160002060010154610a1d9190611733565b905082600160008681526020019081526020016000206002016000828254610a4591906117e1565b9250508190555080600360003373ffffffffffffffffffffffffffffffffffffffff1673ffffffffffffffffffffffffffffffffffffffff1681526020019081526020016000206000828254610a9b91906117e1565b92505081905550600160066000868152602001908152602001600020600084815260200190815260200160002060000160006101000a81548160ff0219169083151502179055506004600085815260200190815260200160002060008673ffffffffffffffffffffffffffffffffffffffff1673ffffffffffffffffffffffffffffffffffffffff16815260200190815260200160002060030160009054906101000a900460ff1615610b83576040517f08c379a0000000000000000000000000000000000000000000000000000000008152600401610b7a90611861565b60405180910390fd5b600180600086815260200190815260200160002060030160006101000a81548160ff021916908315150217905550600160056000868152602001908152602001600020600084815260200190815260200160002060006101000a81548160ff0219169083151502179055505050505050565b60008054906101000a900473ffffffffffffffffffffffffffffffffffffffff1681565b6001600260008373ffffffffffffffffffffffffffffffffffffffff1673ffffffffffffffffffffffffffffffffffffffff16815260200190815260200160002060006101000a81548160ff02191690831515021790555050565b6001151560066000858152602001908152602001600020600084815260200190815260200160002060000160009054906101000a900460ff16151514610cef576040517f08c379a0000000000000000000000000000000000000000000000000000000008152600401610ce6906118cd565b60405180910390fd5b6001151560056000858152602001908152602001600020600084815260200190815260200160002060009054906101000a900460ff16151514610d67576040517f08c379a0000000000000000000000000000000000000000000000000000000008152600401610d5e90611939565b60405180910390fd5b60018114610daa576040517f08c379a0000000000000000000000000000000000000000000000000000000008152600401610da1906119a5565b60405180910390fd5b806001600085815260200190815260200160002060010154610dcc9190611733565b600360008673ffffffffffffffffffffffffffffffffffffffff1673ffffffffffffffffffffffffffffffffffffffff1681526020019081526020016000206000828254610e1a9190611627565b9250508190555080600160008581526020019081526020016000206002016000828254610e479190611627565b92505081905550600060066000858152602001908152602001600020600084815260200190815260200160002060000160006101000a81548160ff021916908315150217905550600060056000858152602001908152602001600020600084815260200190815260200160002060006101000a81548160ff02191690831515021790555060006001600085815260200190815260200160002060030160006101000a81548160ff02191690831515021790555060006001600085815260200190815260200160002060030160016101000a81548160ff02191690831515021790555050505050565b3373ffffffffffffffffffffffffffffffffffffffff1660008054906101000a900473ffffffffffffffffffffffffffffffffffffffff1673ffffffffffffffffffffffffffffffffffffffff1614610fbd576040517f08c379a0000000000000000000000000000000000000000000000000000000008152600401610fb490611a11565b60405180910390fd5b60011515600260003373ffffffffffffffffffffffffffffffffffffffff1673ffffffffffffffffffffffffffffffffffffffff16815260200190815260200160002060009054906101000a900460ff16151514611050576040517f08c379a000000000000000000000000000000000000000000000000000000000815260040161104790611a7d565b60405180910390fd5b60006001600085815260200190815260200160002060040181905550806001600085815260200190815260200160002060020181905550816001600085815260200190815260200160002060010181905550505050565b600080fd5b6000819050919050565b6110bf816110ac565b81146110ca57600080fd5b50565b6000813590506110dc816110b6565b92915050565b600080604083850312156110f9576110f86110a7565b5b6000611107858286016110cd565b9250506020611118858286016110cd565b9150509250929050565b7f4e487b7100000000000000000000000000000000000000000000000000000000600052602160045260246000fd5b6002811061116257611161611122565b5b50565b600081905061117382611151565b919050565b600061118382611165565b9050919050565b61119381611178565b82525050565b60006020820190506111ae600083018461118a565b92915050565b600073ffffffffffffffffffffffffffffffffffffffff82169050919050565b60006111df826111b4565b9050919050565b6111ef816111d4565b81146111fa57600080fd5b50565b60008135905061120c816111e6565b92915050565b600060208284031215611228576112276110a7565b5b6000611236848285016111fd565b91505092915050565b611248816110ac565b82525050565b6000602082019050611263600083018461123f565b92915050565b60008115159050919050565b61127e81611269565b82525050565b60006020820190506112996000830184611275565b92915050565b6000602082840312156112b5576112b46110a7565b5b60006112c3848285016110cd565b91505092915050565b6112d5816111d4565b82525050565b600060c0820190506112f060008301896112cc565b6112fd602083018861123f565b61130a604083018761123f565b6113176060830186611275565b6113246080830185611275565b61133160a083018461123f565b979650505050505050565b60008060008060808587031215611356576113556110a7565b5b6000611364878288016111fd565b9450506020611375878288016110cd565b9350506040611386878288016110cd565b9250506060611397878288016110cd565b91505092959194509250565b60006020820190506113b860008301846112cc565b92915050565b6000806000606084860312156113d7576113d66110a7565b5b60006113e5868287016110cd565b93505060206113f6868287016110cd565b9250506040611407868287016110cd565b9150509250925092565b600082825260208201905092915050565b7f466c69676874206973206e6f7420417661696c61626c65000000000000000000600082015250565b6000611458601783611411565b915061146382611422565b602082019050919050565b600060208201905081810360008301526114878161144b565b9050919050565b7f5365617420616c726561647920426f6f6b656400000000000000000000000000600082015250565b60006114c4601383611411565b91506114cf8261148e565b602082019050919050565b600060208201905081810360008301526114f3816114b7565b9050919050565b7f536f72727921204e6f20656e6f756768207469636b65747320617661696c616260008201527f6c6520746f20626f6f6b00000000000000000000000000000000000000000000602082015250565b6000611556602a83611411565b9150611561826114fa565b604082019050919050565b6000602082019050818103600083015261158581611549565b9050919050565b7f596f7520617265206e6f742074686520417574686f72697a6564205374616666600082015250565b60006115c2602083611411565b91506115cd8261158c565b602082019050919050565b600060208201905081810360008301526115f1816115b5565b9050919050565b7f4e487b7100000000000000000000000000000000000000000000000000000000600052601160045260246000fd5b6000611632826110ac565b915061163d836110ac565b9250828201905080821115611655576116546115f8565b5b92915050565b7f5061796d656e74206e6f7420436f6d706c657465640000000000000000000000600082015250565b6000611691601583611411565b915061169c8261165b565b602082019050919050565b600060208201905081810360008301526116c081611684565b9050919050565b7f426f6f6b206f6e6c79206f6e65205469636b6574000000000000000000000000600082015250565b60006116fd601483611411565b9150611708826116c7565b602082019050919050565b6000602082019050818103600083015261172c816116f0565b9050919050565b600061173e826110ac565b9150611749836110ac565b9250828202611757816110ac565b9150828204841483151761176e5761176d6115f8565b5b5092915050565b7f4e6f7420656e6f7567682062616c616e63650000000000000000000000000000600082015250565b60006117ab601283611411565b91506117b682611775565b602082019050919050565b600060208201905081810360008301526117da8161179e565b9050919050565b60006117ec826110ac565b91506117f7836110ac565b925082820390508181111561180f5761180e6115f8565b5b92915050565b7f426f6f6b696e6720616c726561647920636f6d706c6574656400000000000000600082015250565b600061184b601983611411565b915061185682611815565b602082019050919050565b6000602082019050818103600083015261187a8161183e565b9050919050565b7f5061796d656e74206e6f742079657420646f6e65000000000000000000000000600082015250565b60006118b7601483611411565b91506118c282611881565b602082019050919050565b600060208201905081810360008301526118e6816118aa565b9050919050565b7f53656174206e6f7420426f6f6b65640000000000000000000000000000000000600082015250565b6000611923600f83611411565b915061192e826118ed565b602082019050919050565b6000602082019050818103600083015261195281611916565b9050919050565b7f43616e63656c206f6e65205469636b6574000000000000000000000000000000600082015250565b600061198f601183611411565b915061199a82611959565b602082019050919050565b600060208201905081810360008301526119be81611982565b9050919050565b7f596f7520617265206e6f7420746865204f776e65720000000000000000000000600082015250565b60006119fb601583611411565b9150611a06826119c5565b602082019050919050565b60006020820190508181036000830152611a2a816119ee565b9050919050565b7f4e6f742074686520417574686f72697a65642053746166660000000000000000600082015250565b6000611a67601883611411565b9150611a7282611a31565b602082019050919050565b60006020820190508181036000830152611a9681611a5a565b905091905056fea26469706673582212200e2c7d98c9c286eb6df66ff128cd9252ab956771213256bbe58af94bf398448164736f6c63430008120033",
					"opcodes": "PUSH1 0x80 PUSH1 0x40 MSTORE CALLVALUE DUP1 ISZERO PUSH2 0x10 JUMPI PUSH1 0x0 DUP1 REVERT JUMPDEST POP CALLER PUSH1 0x0 DUP1 PUSH2 0x100 EXP DUP2 SLOAD DUP2 PUSH20 0xFFFFFFFFFFFFFFFFFFFFFFFFFFFFFFFFFFFFFFFF MUL NOT AND SWAP1 DUP4 PUSH20 0xFFFFFFFFFFFFFFFFFFFFFFFFFFFFFFFFFFFFFFFF AND MUL OR SWAP1 SSTORE POP PUSH2 0x1AD3 DUP1 PUSH2 0x60 PUSH1 0x0 CODECOPY PUSH1 0x0 RETURN INVALID PUSH1 0x80 PUSH1 0x40 MSTORE PUSH1 0x4 CALLDATASIZE LT PUSH2 0xE8 JUMPI PUSH1 0x0 CALLDATALOAD PUSH1 0xE0 SHR DUP1 PUSH4 0x54056B69 GT PUSH2 0x8A JUMPI DUP1 PUSH4 0x8DA5CB5B GT PUSH2 0x59 JUMPI DUP1 PUSH4 0x8DA5CB5B EQ PUSH2 0x2FC JUMPI DUP1 PUSH4 0x9C043F8C EQ PUSH2 0x327 JUMPI DUP1 PUSH4 0xDECF5BD3 EQ PUSH2 0x350 JUMPI DUP1 PUSH4 0xF4B770DD EQ PUSH2 0x379 JUMPI PUSH2 0xE8 JUMP JUMPDEST DUP1 PUSH4 0x54056B69 EQ PUSH2 0x251 JUMPI DUP1 PUSH4 0x543BE60B EQ PUSH2 0x27A JUMPI DUP1 PUSH4 0x80AF305A EQ PUSH2 0x2A3 JUMPI DUP1 PUSH4 0x85EF45EC EQ PUSH2 0x2E0 JUMPI PUSH2 0xE8 JUMP JUMPDEST DUP1 PUSH4 0x2FEAC173 GT PUSH2 0xC6 JUMPI DUP1 PUSH4 0x2FEAC173 EQ PUSH2 0x17E JUMPI DUP1 PUSH4 0x358DC19C EQ PUSH2 0x1BB JUMPI DUP1 PUSH4 0x477A5FB5 EQ PUSH2 0x1FD JUMPI DUP1 PUSH4 0x4D40D54F EQ PUSH2 0x226 JUMPI PUSH2 0xE8 JUMP JUMPDEST DUP1 PUSH4 0xF64252F EQ PUSH2 0xED JUMPI DUP1 PUSH4 0x200D2ED2 EQ PUSH2 0x116 JUMPI DUP1 PUSH4 0x27E235E3 EQ PUSH2 0x141 JUMPI JUMPDEST PUSH1 0x0 DUP1 REVERT JUMPDEST CALLVALUE DUP1 ISZERO PUSH2 0xF9 JUMPI PUSH1 0x0 DUP1 REVERT JUMPDEST POP PUSH2 0x114 PUSH1 0x4 DUP1 CALLDATASIZE SUB DUP2 ADD SWAP1 PUSH2 0x10F SWAP2 SWAP1 PUSH2 0x10E2 JUMP JUMPDEST PUSH2 0x3A2 JUMP JUMPDEST STOP JUMPDEST CALLVALUE DUP1 ISZERO PUSH2 0x122 JUMPI PUSH1 0x0 DUP1 REVERT JUMPDEST POP PUSH2 0x12B PUSH2 0x525 JUMP JUMPDEST PUSH1 0x40 MLOAD PUSH2 0x138 SWAP2 SWAP1 PUSH2 0x1199 JUMP JUMPDEST PUSH1 0x40 MLOAD DUP1 SWAP2 SUB SWAP1 RETURN JUMPDEST CALLVALUE DUP1 ISZERO PUSH2 0x14D JUMPI PUSH1 0x0 DUP1 REVERT JUMPDEST POP PUSH2 0x168 PUSH1 0x4 DUP1 CALLDATASIZE SUB DUP2 ADD SWAP1 PUSH2 0x163 SWAP2 SWAP1 PUSH2 0x1212 JUMP JUMPDEST PUSH2 0x538 JUMP JUMPDEST PUSH1 0x40 MLOAD PUSH2 0x175 SWAP2 SWAP1 PUSH2 0x124E JUMP JUMPDEST PUSH1 0x40 MLOAD DUP1 SWAP2 SUB SWAP1 RETURN JUMPDEST CALLVALUE DUP1 ISZERO PUSH2 0x18A JUMPI PUSH1 0x0 DUP1 REVERT JUMPDEST POP PUSH2 0x1A5 PUSH1 0x4 DUP1 CALLDATASIZE SUB DUP2 ADD SWAP1 PUSH2 0x1A0 SWAP2 SWAP1 PUSH2 0x1212 JUMP JUMPDEST PUSH2 0x550 JUMP JUMPDEST PUSH1 0x40 MLOAD PUSH2 0x1B2 SWAP2 SWAP1 PUSH2 0x1284 JUMP JUMPDEST PUSH1 0x40 MLOAD DUP1 SWAP2 SUB SWAP1 RETURN JUMPDEST CALLVALUE DUP1 ISZERO PUSH2 0x1C7 JUMPI PUSH1 0x0 DUP1 REVERT JUMPDEST POP PUSH2 0x1E2 PUSH1 0x4 DUP1 CALLDATASIZE SUB DUP2 ADD SWAP1 PUSH2 0x1DD SWAP2 SWAP1 PUSH2 0x129F JUMP JUMPDEST PUSH2 0x570 JUMP JUMPDEST PUSH1 0x40 MLOAD PUSH2 0x1F4 SWAP7 SWAP6 SWAP5 SWAP4 SWAP3 SWAP2 SWAP1 PUSH2 0x12DB JUMP JUMPDEST PUSH1 0x40 MLOAD DUP1 SWAP2 SUB SWAP1 RETURN JUMPDEST CALLVALUE DUP1 ISZERO PUSH2 0x209 JUMPI PUSH1 0x0 DUP1 REVERT JUMPDEST POP PUSH2 0x224 PUSH1 0x4 DUP1 CALLDATASIZE SUB DUP2 ADD SWAP1 PUSH2 0x21F SWAP2 SWAP1 PUSH2 0x129F JUMP JUMPDEST PUSH2 0x5E6 JUMP JUMPDEST STOP JUMPDEST CALLVALUE DUP1 ISZERO PUSH2 0x232 JUMPI PUSH1 0x0 DUP1 REVERT JUMPDEST POP PUSH2 0x23B PUSH2 0x697 JUMP JUMPDEST PUSH1 0x40 MLOAD PUSH2 0x248 SWAP2 SWAP1 PUSH2 0x124E JUMP JUMPDEST PUSH1 0x40 MLOAD DUP1 SWAP2 SUB SWAP1 RETURN JUMPDEST CALLVALUE DUP1 ISZERO PUSH2 0x25D JUMPI PUSH1 0x0 DUP1 REVERT JUMPDEST POP PUSH2 0x278 PUSH1 0x4 DUP1 CALLDATASIZE SUB DUP2 ADD SWAP1 PUSH2 0x273 SWAP2 SWAP1 PUSH2 0x129F JUMP JUMPDEST PUSH2 0x736 JUMP JUMPDEST STOP JUMPDEST CALLVALUE DUP1 ISZERO PUSH2 0x286 JUMPI PUSH1 0x0 DUP1 REVERT JUMPDEST POP PUSH2 0x2A1 PUSH1 0x4 DUP1 CALLDATASIZE SUB DUP2 ADD SWAP1 PUSH2 0x29C SWAP2 SWAP1 PUSH2 0x129F JUMP JUMPDEST PUSH2 0x7CA JUMP JUMPDEST STOP JUMPDEST CALLVALUE DUP1 ISZERO PUSH2 0x2AF JUMPI PUSH1 0x0 DUP1 REVERT JUMPDEST POP PUSH2 0x2CA PUSH1 0x4 DUP1 CALLDATASIZE SUB DUP2 ADD SWAP1 PUSH2 0x2C5 SWAP2 SWAP1 PUSH2 0x129F JUMP JUMPDEST PUSH2 0x87C JUMP JUMPDEST PUSH1 0x40 MLOAD PUSH2 0x2D7 SWAP2 SWAP1 PUSH2 0x124E JUMP JUMPDEST PUSH1 0x40 MLOAD DUP1 SWAP2 SUB SWAP1 RETURN JUMPDEST PUSH2 0x2FA PUSH1 0x4 DUP1 CALLDATASIZE SUB DUP2 ADD SWAP1 PUSH2 0x2F5 SWAP2 SWAP1 PUSH2 0x133C JUMP JUMPDEST PUSH2 0x89C JUMP JUMPDEST STOP JUMPDEST CALLVALUE DUP1 ISZERO PUSH2 0x308 JUMPI PUSH1 0x0 DUP1 REVERT JUMPDEST POP PUSH2 0x311 PUSH2 0xBF5 JUMP JUMPDEST PUSH1 0x40 MLOAD PUSH2 0x31E SWAP2 SWAP1 PUSH2 0x13A3 JUMP JUMPDEST PUSH1 0x40 MLOAD DUP1 SWAP2 SUB SWAP1 RETURN JUMPDEST CALLVALUE DUP1 ISZERO PUSH2 0x333 JUMPI PUSH1 0x0 DUP1 REVERT JUMPDEST POP PUSH2 0x34E PUSH1 0x4 DUP1 CALLDATASIZE SUB DUP2 ADD SWAP1 PUSH2 0x349 SWAP2 SWAP1 PUSH2 0x1212 JUMP JUMPDEST PUSH2 0xC19 JUMP JUMPDEST STOP JUMPDEST CALLVALUE DUP1 ISZERO PUSH2 0x35C JUMPI PUSH1 0x0 DUP1 REVERT JUMPDEST POP PUSH2 0x377 PUSH1 0x4 DUP1 CALLDATASIZE SUB DUP2 ADD SWAP1 PUSH2 0x372 SWAP2 SWAP1 PUSH2 0x133C JUMP JUMPDEST PUSH2 0xC74 JUMP JUMPDEST STOP JUMPDEST CALLVALUE DUP1 ISZERO PUSH2 0x385 JUMPI PUSH1 0x0 DUP1 REVERT JUMPDEST POP PUSH2 0x3A0 PUSH1 0x4 DUP1 CALLDATASIZE SUB DUP2 ADD SWAP1 PUSH2 0x39B SWAP2 SWAP1 PUSH2 0x13BE JUMP JUMPDEST PUSH2 0xF2F JUMP JUMPDEST STOP JUMPDEST CALLER PUSH1 0x1 PUSH1 0x0 DUP5 DUP2 MSTORE PUSH1 0x20 ADD SWAP1 DUP2 MSTORE PUSH1 0x20 ADD PUSH1 0x0 KECCAK256 PUSH1 0x0 ADD PUSH1 0x0 PUSH2 0x100 EXP DUP2 SLOAD DUP2 PUSH20 0xFFFFFFFFFFFFFFFFFFFFFFFFFFFFFFFFFFFFFFFF MUL NOT AND SWAP1 DUP4 PUSH20 0xFFFFFFFFFFFFFFFFFFFFFFFFFFFFFFFFFFFFFFFF AND MUL OR SWAP1 SSTORE POP PUSH1 0x0 PUSH1 0x1 PUSH1 0x0 DUP5 DUP2 MSTORE PUSH1 0x20 ADD SWAP1 DUP2 MSTORE PUSH1 0x20 ADD PUSH1 0x0 KECCAK256 PUSH1 0x4 ADD SLOAD EQ PUSH2 0x450 JUMPI PUSH1 0x40 MLOAD PUSH32 0x8C379A000000000000000000000000000000000000000000000000000000000 DUP2 MSTORE PUSH1 0x4 ADD PUSH2 0x447 SWAP1 PUSH2 0x146E JUMP JUMPDEST PUSH1 0x40 MLOAD DUP1 SWAP2 SUB SWAP1 REVERT JUMPDEST PUSH1 0x0 ISZERO ISZERO PUSH1 0x5 PUSH1 0x0 DUP5 DUP2 MSTORE PUSH1 0x20 ADD SWAP1 DUP2 MSTORE PUSH1 0x20 ADD PUSH1 0x0 KECCAK256 PUSH1 0x0 DUP4 DUP2 MSTORE PUSH1 0x20 ADD SWAP1 DUP2 MSTORE PUSH1 0x20 ADD PUSH1 0x0 KECCAK256 PUSH1 0x0 SWAP1 SLOAD SWAP1 PUSH2 0x100 EXP SWAP1 DIV PUSH1 0xFF AND ISZERO ISZERO EQ PUSH2 0x4C8 JUMPI PUSH1 0x40 MLOAD PUSH32 0x8C379A000000000000000000000000000000000000000000000000000000000 DUP2 MSTORE PUSH1 0x4 ADD PUSH2 0x4BF SWAP1 PUSH2 0x14DA JUMP JUMPDEST PUSH1 0x40 MLOAD DUP1 SWAP2 SUB SWAP1 REVERT JUMPDEST PUSH1 0x1 DUP1 PUSH1 0x0 DUP5 DUP2 MSTORE PUSH1 0x20 ADD SWAP1 DUP2 MSTORE PUSH1 0x20 ADD PUSH1 0x0 KECCAK256 PUSH1 0x2 ADD SLOAD LT ISZERO PUSH2 0x521 JUMPI PUSH1 0x40 MLOAD PUSH32 0x8C379A000000000000000000000000000000000000000000000000000000000 DUP2 MSTORE PUSH1 0x4 ADD PUSH2 0x518 SWAP1 PUSH2 0x156C JUMP JUMPDEST PUSH1 0x40 MLOAD DUP1 SWAP2 SUB SWAP1 REVERT JUMPDEST POP POP JUMP JUMPDEST PUSH1 0x7 PUSH1 0x0 SWAP1 SLOAD SWAP1 PUSH2 0x100 EXP SWAP1 DIV PUSH1 0xFF AND DUP2 JUMP JUMPDEST PUSH1 0x3 PUSH1 0x20 MSTORE DUP1 PUSH1 0x0 MSTORE PUSH1 0x40 PUSH1 0x0 KECCAK256 PUSH1 0x0 SWAP2 POP SWAP1 POP SLOAD DUP2 JUMP JUMPDEST PUSH1 0x2 PUSH1 0x20 MSTORE DUP1 PUSH1 0x0 MSTORE PUSH1 0x40 PUSH1 0x0 KECCAK256 PUSH1 0x0 SWAP2 POP SLOAD SWAP1 PUSH2 0x100 EXP SWAP1 DIV PUSH1 0xFF AND DUP2 JUMP JUMPDEST PUSH1 0x1 PUSH1 0x20 MSTORE DUP1 PUSH1 0x0 MSTORE PUSH1 0x40 PUSH1 0x0 KECCAK256 PUSH1 0x0 SWAP2 POP SWAP1 POP DUP1 PUSH1 0x0 ADD PUSH1 0x0 SWAP1 SLOAD SWAP1 PUSH2 0x100 EXP SWAP1 DIV PUSH20 0xFFFFFFFFFFFFFFFFFFFFFFFFFFFFFFFFFFFFFFFF AND SWAP1 DUP1 PUSH1 0x1 ADD SLOAD SWAP1 DUP1 PUSH1 0x2 ADD SLOAD SWAP1 DUP1 PUSH1 0x3 ADD PUSH1 0x0 SWAP1 SLOAD SWAP1 PUSH2 0x100 EXP SWAP1 DIV PUSH1 0xFF AND SWAP1 DUP1 PUSH1 0x3 ADD PUSH1 0x1 SWAP1 SLOAD SWAP1 PUSH2 0x100 EXP SWAP1 DIV PUSH1 0xFF AND SWAP1 DUP1 PUSH1 0x4 ADD SLOAD SWAP1 POP DUP7 JUMP JUMPDEST PUSH1 0x1 ISZERO ISZERO PUSH1 0x2 PUSH1 0x0 CALLER PUSH20 0xFFFFFFFFFFFFFFFFFFFFFFFFFFFFFFFFFFFFFFFF AND PUSH20 0xFFFFFFFFFFFFFFFFFFFFFFFFFFFFFFFFFFFFFFFF AND DUP2 MSTORE PUSH1 0x20 ADD SWAP1 DUP2 MSTORE PUSH1 0x20 ADD PUSH1 0x0 KECCAK256 PUSH1 0x0 SWAP1 SLOAD SWAP1 PUSH2 0x100 EXP SWAP1 DIV PUSH1 0xFF AND ISZERO ISZERO EQ PUSH2 0x679 JUMPI PUSH1 0x40 MLOAD PUSH32 0x8C379A000000000000000000000000000000000000000000000000000000000 DUP2 MSTORE PUSH1 0x4 ADD PUSH2 0x670 SWAP1 PUSH2 0x15D8 JUMP JUMPDEST PUSH1 0x40 MLOAD DUP1 SWAP2 SUB SWAP1 REVERT JUMPDEST PUSH1 0x1 DUP1 PUSH1 0x0 DUP4 DUP2 MSTORE PUSH1 0x20 ADD SWAP1 DUP2 MSTORE PUSH1 0x20 ADD PUSH1 0x0 KECCAK256 PUSH1 0x4 ADD DUP2 SWAP1 SSTORE POP POP JUMP JUMPDEST PUSH1 0x0 PUSH2 0xC350 PUSH1 0x3 PUSH1 0x0 CALLER PUSH20 0xFFFFFFFFFFFFFFFFFFFFFFFFFFFFFFFFFFFFFFFF AND PUSH20 0xFFFFFFFFFFFFFFFFFFFFFFFFFFFFFFFFFFFFFFFF AND DUP2 MSTORE PUSH1 0x20 ADD SWAP1 DUP2 MSTORE PUSH1 0x20 ADD PUSH1 0x0 KECCAK256 PUSH1 0x0 DUP3 DUP3 SLOAD PUSH2 0x6EA SWAP2 SWAP1 PUSH2 0x1627 JUMP JUMPDEST SWAP3 POP POP DUP2 SWAP1 SSTORE POP PUSH1 0x3 PUSH1 0x0 CALLER PUSH20 0xFFFFFFFFFFFFFFFFFFFFFFFFFFFFFFFFFFFFFFFF AND PUSH20 0xFFFFFFFFFFFFFFFFFFFFFFFFFFFFFFFFFFFFFFFF AND DUP2 MSTORE PUSH1 0x20 ADD SWAP1 DUP2 MSTORE PUSH1 0x20 ADD PUSH1 0x0 KECCAK256 SLOAD SWAP1 POP SWAP1 JUMP JUMPDEST PUSH1 0x1 PUSH1 0x0 DUP3 DUP2 MSTORE PUSH1 0x20 ADD SWAP1 DUP2 MSTORE PUSH1 0x20 ADD PUSH1 0x0 KECCAK256 PUSH1 0x3 ADD PUSH1 0x0 SWAP1 SLOAD SWAP1 PUSH2 0x100 EXP SWAP1 DIV PUSH1 0xFF AND PUSH2 0x799 JUMPI PUSH1 0x40 MLOAD PUSH32 0x8C379A000000000000000000000000000000000000000000000000000000000 DUP2 MSTORE PUSH1 0x4 ADD PUSH2 0x790 SWAP1 PUSH2 0x16A7 JUMP JUMPDEST PUSH1 0x40 MLOAD DUP1 SWAP2 SUB SWAP1 REVERT JUMPDEST PUSH1 0x1 DUP1 PUSH1 0x0 DUP4 DUP2 MSTORE PUSH1 0x20 ADD SWAP1 DUP2 MSTORE PUSH1 0x20 ADD PUSH1 0x0 KECCAK256 PUSH1 0x3 ADD PUSH1 0x1 PUSH2 0x100 EXP DUP2 SLOAD DUP2 PUSH1 0xFF MUL NOT AND SWAP1 DUP4 ISZERO ISZERO MUL OR SWAP1 SSTORE POP POP JUMP JUMPDEST PUSH1 0x1 ISZERO ISZERO PUSH1 0x2 PUSH1 0x0 CALLER PUSH20 0xFFFFFFFFFFFFFFFFFFFFFFFFFFFFFFFFFFFFFFFF AND PUSH20 0xFFFFFFFFFFFFFFFFFFFFFFFFFFFFFFFFFFFFFFFF AND DUP2 MSTORE PUSH1 0x20 ADD SWAP1 DUP2 MSTORE PUSH1 0x20 ADD PUSH1 0x0 KECCAK256 PUSH1 0x0 SWAP1 SLOAD SWAP1 PUSH2 0x100 EXP SWAP1 DIV PUSH1 0xFF AND ISZERO ISZERO EQ PUSH2 0x85D JUMPI PUSH1 0x40 MLOAD PUSH32 0x8C379A000000000000000000000000000000000000000000000000000000000 DUP2 MSTORE PUSH1 0x4 ADD PUSH2 0x854 SWAP1 PUSH2 0x15D8 JUMP JUMPDEST PUSH1 0x40 MLOAD DUP1 SWAP2 SUB SWAP1 REVERT JUMPDEST PUSH1 0x0 PUSH1 0x1 PUSH1 0x0 DUP4 DUP2 MSTORE PUSH1 0x20 ADD SWAP1 DUP2 MSTORE PUSH1 0x20 ADD PUSH1 0x0 KECCAK256 PUSH1 0x4 ADD DUP2 SWAP1 SSTORE POP POP JUMP JUMPDEST PUSH1 0x0 PUSH1 0x1 PUSH1 0x0 DUP4 DUP2 MSTORE PUSH1 0x20 ADD SWAP1 DUP2 MSTORE PUSH1 0x20 ADD PUSH1 0x0 KECCAK256 PUSH1 0x2 ADD SLOAD SWAP1 POP SWAP2 SWAP1 POP JUMP JUMPDEST PUSH1 0x0 ISZERO ISZERO PUSH1 0x5 PUSH1 0x0 DUP6 DUP2 MSTORE PUSH1 0x20 ADD SWAP1 DUP2 MSTORE PUSH1 0x20 ADD PUSH1 0x0 KECCAK256 PUSH1 0x0 DUP4 DUP2 MSTORE PUSH1 0x20 ADD SWAP1 DUP2 MSTORE PUSH1 0x20 ADD PUSH1 0x0 KECCAK256 PUSH1 0x0 SWAP1 SLOAD SWAP1 PUSH2 0x100 EXP SWAP1 DIV PUSH1 0xFF AND ISZERO ISZERO EQ PUSH2 0x914 JUMPI PUSH1 0x40 MLOAD PUSH32 0x8C379A000000000000000000000000000000000000000000000000000000000 DUP2 MSTORE PUSH1 0x4 ADD PUSH2 0x90B SWAP1 PUSH2 0x14DA JUMP JUMPDEST PUSH1 0x40 MLOAD DUP1 SWAP2 SUB SWAP1 REVERT JUMPDEST PUSH1 0x1 DUP3 EQ PUSH2 0x957 JUMPI PUSH1 0x40 MLOAD PUSH32 0x8C379A000000000000000000000000000000000000000000000000000000000 DUP2 MSTORE PUSH1 0x4 ADD PUSH2 0x94E SWAP1 PUSH2 0x1713 JUMP JUMPDEST PUSH1 0x40 MLOAD DUP1 SWAP2 SUB SWAP1 REVERT JUMPDEST DUP2 PUSH1 0x1 PUSH1 0x0 DUP6 DUP2 MSTORE PUSH1 0x20 ADD SWAP1 DUP2 MSTORE PUSH1 0x20 ADD PUSH1 0x0 KECCAK256 PUSH1 0x1 ADD SLOAD PUSH2 0x979 SWAP2 SWAP1 PUSH2 0x1733 JUMP JUMPDEST PUSH1 0x3 PUSH1 0x0 CALLER PUSH20 0xFFFFFFFFFFFFFFFFFFFFFFFFFFFFFFFFFFFFFFFF AND PUSH20 0xFFFFFFFFFFFFFFFFFFFFFFFFFFFFFFFFFFFFFFFF AND DUP2 MSTORE PUSH1 0x20 ADD SWAP1 DUP2 MSTORE PUSH1 0x20 ADD PUSH1 0x0 KECCAK256 SLOAD GT PUSH2 0x9F9 JUMPI PUSH1 0x40 MLOAD PUSH32 0x8C379A000000000000000000000000000000000000000000000000000000000 DUP2 MSTORE PUSH1 0x4 ADD PUSH2 0x9F0 SWAP1 PUSH2 0x17C1 JUMP JUMPDEST PUSH1 0x40 MLOAD DUP1 SWAP2 SUB SWAP1 REVERT JUMPDEST PUSH1 0x0 DUP3 PUSH1 0x1 PUSH1 0x0 DUP7 DUP2 MSTORE PUSH1 0x20 ADD SWAP1 DUP2 MSTORE PUSH1 0x20 ADD PUSH1 0x0 KECCAK256 PUSH1 0x1 ADD SLOAD PUSH2 0xA1D SWAP2 SWAP1 PUSH2 0x1733 JUMP JUMPDEST SWAP1 POP DUP3 PUSH1 0x1 PUSH1 0x0 DUP7 DUP2 MSTORE PUSH1 0x20 ADD SWAP1 DUP2 MSTORE PUSH1 0x20 ADD PUSH1 0x0 KECCAK256 PUSH1 0x2 ADD PUSH1 0x0 DUP3 DUP3 SLOAD PUSH2 0xA45 SWAP2 SWAP1 PUSH2 0x17E1 JUMP JUMPDEST SWAP3 POP POP DUP2 SWAP1 SSTORE POP DUP1 PUSH1 0x3 PUSH1 0x0 CALLER PUSH20 0xFFFFFFFFFFFFFFFFFFFFFFFFFFFFFFFFFFFFFFFF AND PUSH20 0xFFFFFFFFFFFFFFFFFFFFFFFFFFFFFFFFFFFFFFFF AND DUP2 MSTORE PUSH1 0x20 ADD SWAP1 DUP2 MSTORE PUSH1 0x20 ADD PUSH1 0x0 KECCAK256 PUSH1 0x0 DUP3 DUP3 SLOAD PUSH2 0xA9B SWAP2 SWAP1 PUSH2 0x17E1 JUMP JUMPDEST SWAP3 POP POP DUP2 SWAP1 SSTORE POP PUSH1 0x1 PUSH1 0x6 PUSH1 0x0 DUP7 DUP2 MSTORE PUSH1 0x20 ADD SWAP1 DUP2 MSTORE PUSH1 0x20 ADD PUSH1 0x0 KECCAK256 PUSH1 0x0 DUP5 DUP2 MSTORE PUSH1 0x20 ADD SWAP1 DUP2 MSTORE PUSH1 0x20 ADD PUSH1 0x0 KECCAK256 PUSH1 0x0 ADD PUSH1 0x0 PUSH2 0x100 EXP DUP2 SLOAD DUP2 PUSH1 0xFF MUL NOT AND SWAP1 DUP4 ISZERO ISZERO MUL OR SWAP1 SSTORE POP PUSH1 0x4 PUSH1 0x0 DUP6 DUP2 MSTORE PUSH1 0x20 ADD SWAP1 DUP2 MSTORE PUSH1 0x20 ADD PUSH1 0x0 KECCAK256 PUSH1 0x0 DUP7 PUSH20 0xFFFFFFFFFFFFFFFFFFFFFFFFFFFFFFFFFFFFFFFF AND PUSH20 0xFFFFFFFFFFFFFFFFFFFFFFFFFFFFFFFFFFFFFFFF AND DUP2 MSTORE PUSH1 0x20 ADD SWAP1 DUP2 MSTORE PUSH1 0x20 ADD PUSH1 0x0 KECCAK256 PUSH1 0x3 ADD PUSH1 0x0 SWAP1 SLOAD SWAP1 PUSH2 0x100 EXP SWAP1 DIV PUSH1 0xFF AND ISZERO PUSH2 0xB83 JUMPI PUSH1 0x40 MLOAD PUSH32 0x8C379A000000000000000000000000000000000000000000000000000000000 DUP2 MSTORE PUSH1 0x4 ADD PUSH2 0xB7A SWAP1 PUSH2 0x1861 JUMP JUMPDEST PUSH1 0x40 MLOAD DUP1 SWAP2 SUB SWAP1 REVERT JUMPDEST PUSH1 0x1 DUP1 PUSH1 0x0 DUP7 DUP2 MSTORE PUSH1 0x20 ADD SWAP1 DUP2 MSTORE PUSH1 0x20 ADD PUSH1 0x0 KECCAK256 PUSH1 0x3 ADD PUSH1 0x0 PUSH2 0x100 EXP DUP2 SLOAD DUP2 PUSH1 0xFF MUL NOT AND SWAP1 DUP4 ISZERO ISZERO MUL OR SWAP1 SSTORE POP PUSH1 0x1 PUSH1 0x5 PUSH1 0x0 DUP7 DUP2 MSTORE PUSH1 0x20 ADD SWAP1 DUP2 MSTORE PUSH1 0x20 ADD PUSH1 0x0 KECCAK256 PUSH1 0x0 DUP5 DUP2 MSTORE PUSH1 0x20 ADD SWAP1 DUP2 MSTORE PUSH1 0x20 ADD PUSH1 0x0 KECCAK256 PUSH1 0x0 PUSH2 0x100 EXP DUP2 SLOAD DUP2 PUSH1 0xFF MUL NOT AND SWAP1 DUP4 ISZERO ISZERO MUL OR SWAP1 SSTORE POP POP POP POP POP POP JUMP JUMPDEST PUSH1 0x0 DUP1 SLOAD SWAP1 PUSH2 0x100 EXP SWAP1 DIV PUSH20 0xFFFFFFFFFFFFFFFFFFFFFFFFFFFFFFFFFFFFFFFF AND DUP2 JUMP JUMPDEST PUSH1 0x1 PUSH1 0x2 PUSH1 0x0 DUP4 PUSH20 0xFFFFFFFFFFFFFFFFFFFFFFFFFFFFFFFFFFFFFFFF AND PUSH20 0xFFFFFFFFFFFFFFFFFFFFFFFFFFFFFFFFFFFFFFFF AND DUP2 MSTORE PUSH1 0x20 ADD SWAP1 DUP2 MSTORE PUSH1 0x20 ADD PUSH1 0x0 KECCAK256 PUSH1 0x0 PUSH2 0x100 EXP DUP2 SLOAD DUP2 PUSH1 0xFF MUL NOT AND SWAP1 DUP4 ISZERO ISZERO MUL OR SWAP1 SSTORE POP POP JUMP JUMPDEST PUSH1 0x1 ISZERO ISZERO PUSH1 0x6 PUSH1 0x0 DUP6 DUP2 MSTORE PUSH1 0x20 ADD SWAP1 DUP2 MSTORE PUSH1 0x20 ADD PUSH1 0x0 KECCAK256 PUSH1 0x0 DUP5 DUP2 MSTORE PUSH1 0x20 ADD SWAP1 DUP2 MSTORE PUSH1 0x20 ADD PUSH1 0x0 KECCAK256 PUSH1 0x0 ADD PUSH1 0x0 SWAP1 SLOAD SWAP1 PUSH2 0x100 EXP SWAP1 DIV PUSH1 0xFF AND ISZERO ISZERO EQ PUSH2 0xCEF JUMPI PUSH1 0x40 MLOAD PUSH32 0x8C379A000000000000000000000000000000000000000000000000000000000 DUP2 MSTORE PUSH1 0x4 ADD PUSH2 0xCE6 SWAP1 PUSH2 0x18CD JUMP JUMPDEST PUSH1 0x40 MLOAD DUP1 SWAP2 SUB SWAP1 REVERT JUMPDEST PUSH1 0x1 ISZERO ISZERO PUSH1 0x5 PUSH1 0x0 DUP6 DUP2 MSTORE PUSH1 0x20 ADD SWAP1 DUP2 MSTORE PUSH1 0x20 ADD PUSH1 0x0 KECCAK256 PUSH1 0x0 DUP5 DUP2 MSTORE PUSH1 0x20 ADD SWAP1 DUP2 MSTORE PUSH1 0x20 ADD PUSH1 0x0 KECCAK256 PUSH1 0x0 SWAP1 SLOAD SWAP1 PUSH2 0x100 EXP SWAP1 DIV PUSH1 0xFF AND ISZERO ISZERO EQ PUSH2 0xD67 JUMPI PUSH1 0x40 MLOAD PUSH32 0x8C379A000000000000000000000000000000000000000000000000000000000 DUP2 MSTORE PUSH1 0x4 ADD PUSH2 0xD5E SWAP1 PUSH2 0x1939 JUMP JUMPDEST PUSH1 0x40 MLOAD DUP1 SWAP2 SUB SWAP1 REVERT JUMPDEST PUSH1 0x1 DUP2 EQ PUSH2 0xDAA JUMPI PUSH1 0x40 MLOAD PUSH32 0x8C379A000000000000000000000000000000000000000000000000000000000 DUP2 MSTORE PUSH1 0x4 ADD PUSH2 0xDA1 SWAP1 PUSH2 0x19A5 JUMP JUMPDEST PUSH1 0x40 MLOAD DUP1 SWAP2 SUB SWAP1 REVERT JUMPDEST DUP1 PUSH1 0x1 PUSH1 0x0 DUP6 DUP2 MSTORE PUSH1 0x20 ADD SWAP1 DUP2 MSTORE PUSH1 0x20 ADD PUSH1 0x0 KECCAK256 PUSH1 0x1 ADD SLOAD PUSH2 0xDCC SWAP2 SWAP1 PUSH2 0x1733 JUMP JUMPDEST PUSH1 0x3 PUSH1 0x0 DUP7 PUSH20 0xFFFFFFFFFFFFFFFFFFFFFFFFFFFFFFFFFFFFFFFF AND PUSH20 0xFFFFFFFFFFFFFFFFFFFFFFFFFFFFFFFFFFFFFFFF AND DUP2 MSTORE PUSH1 0x20 ADD SWAP1 DUP2 MSTORE PUSH1 0x20 ADD PUSH1 0x0 KECCAK256 PUSH1 0x0 DUP3 DUP3 SLOAD PUSH2 0xE1A SWAP2 SWAP1 PUSH2 0x1627 JUMP JUMPDEST SWAP3 POP POP DUP2 SWAP1 SSTORE POP DUP1 PUSH1 0x1 PUSH1 0x0 DUP6 DUP2 MSTORE PUSH1 0x20 ADD SWAP1 DUP2 MSTORE PUSH1 0x20 ADD PUSH1 0x0 KECCAK256 PUSH1 0x2 ADD PUSH1 0x0 DUP3 DUP3 SLOAD PUSH2 0xE47 SWAP2 SWAP1 PUSH2 0x1627 JUMP JUMPDEST SWAP3 POP POP DUP2 SWAP1 SSTORE POP PUSH1 0x0 PUSH1 0x6 PUSH1 0x0 DUP6 DUP2 MSTORE PUSH1 0x20 ADD SWAP1 DUP2 MSTORE PUSH1 0x20 ADD PUSH1 0x0 KECCAK256 PUSH1 0x0 DUP5 DUP2 MSTORE PUSH1 0x20 ADD SWAP1 DUP2 MSTORE PUSH1 0x20 ADD PUSH1 0x0 KECCAK256 PUSH1 0x0 ADD PUSH1 0x0 PUSH2 0x100 EXP DUP2 SLOAD DUP2 PUSH1 0xFF MUL NOT AND SWAP1 DUP4 ISZERO ISZERO MUL OR SWAP1 SSTORE POP PUSH1 0x0 PUSH1 0x5 PUSH1 0x0 DUP6 DUP2 MSTORE PUSH1 0x20 ADD SWAP1 DUP2 MSTORE PUSH1 0x20 ADD PUSH1 0x0 KECCAK256 PUSH1 0x0 DUP5 DUP2 MSTORE PUSH1 0x20 ADD SWAP1 DUP2 MSTORE PUSH1 0x20 ADD PUSH1 0x0 KECCAK256 PUSH1 0x0 PUSH2 0x100 EXP DUP2 SLOAD DUP2 PUSH1 0xFF MUL NOT AND SWAP1 DUP4 ISZERO ISZERO MUL OR SWAP1 SSTORE POP PUSH1 0x0 PUSH1 0x1 PUSH1 0x0 DUP6 DUP2 MSTORE PUSH1 0x20 ADD SWAP1 DUP2 MSTORE PUSH1 0x20 ADD PUSH1 0x0 KECCAK256 PUSH1 0x3 ADD PUSH1 0x0 PUSH2 0x100 EXP DUP2 SLOAD DUP2 PUSH1 0xFF MUL NOT AND SWAP1 DUP4 ISZERO ISZERO MUL OR SWAP1 SSTORE POP PUSH1 0x0 PUSH1 0x1 PUSH1 0x0 DUP6 DUP2 MSTORE PUSH1 0x20 ADD SWAP1 DUP2 MSTORE PUSH1 0x20 ADD PUSH1 0x0 KECCAK256 PUSH1 0x3 ADD PUSH1 0x1 PUSH2 0x100 EXP DUP2 SLOAD DUP2 PUSH1 0xFF MUL NOT AND SWAP1 DUP4 ISZERO ISZERO MUL OR SWAP1 SSTORE POP POP POP POP POP JUMP JUMPDEST CALLER PUSH20 0xFFFFFFFFFFFFFFFFFFFFFFFFFFFFFFFFFFFFFFFF AND PUSH1 0x0 DUP1 SLOAD SWAP1 PUSH2 0x100 EXP SWAP1 DIV PUSH20 0xFFFFFFFFFFFFFFFFFFFFFFFFFFFFFFFFFFFFFFFF AND PUSH20 0xFFFFFFFFFFFFFFFFFFFFFFFFFFFFFFFFFFFFFFFF AND EQ PUSH2 0xFBD JUMPI PUSH1 0x40 MLOAD PUSH32 0x8C379A000000000000000000000000000000000000000000000000000000000 DUP2 MSTORE PUSH1 0x4 ADD PUSH2 0xFB4 SWAP1 PUSH2 0x1A11 JUMP JUMPDEST PUSH1 0x40 MLOAD DUP1 SWAP2 SUB SWAP1 REVERT JUMPDEST PUSH1 0x1 ISZERO ISZERO PUSH1 0x2 PUSH1 0x0 CALLER PUSH20 0xFFFFFFFFFFFFFFFFFFFFFFFFFFFFFFFFFFFFFFFF AND PUSH20 0xFFFFFFFFFFFFFFFFFFFFFFFFFFFFFFFFFFFFFFFF AND DUP2 MSTORE PUSH1 0x20 ADD SWAP1 DUP2 MSTORE PUSH1 0x20 ADD PUSH1 0x0 KECCAK256 PUSH1 0x0 SWAP1 SLOAD SWAP1 PUSH2 0x100 EXP SWAP1 DIV PUSH1 0xFF AND ISZERO ISZERO EQ PUSH2 0x1050 JUMPI PUSH1 0x40 MLOAD PUSH32 0x8C379A000000000000000000000000000000000000000000000000000000000 DUP2 MSTORE PUSH1 0x4 ADD PUSH2 0x1047 SWAP1 PUSH2 0x1A7D JUMP JUMPDEST PUSH1 0x40 MLOAD DUP1 SWAP2 SUB SWAP1 REVERT JUMPDEST PUSH1 0x0 PUSH1 0x1 PUSH1 0x0 DUP6 DUP2 MSTORE PUSH1 0x20 ADD SWAP1 DUP2 MSTORE PUSH1 0x20 ADD PUSH1 0x0 KECCAK256 PUSH1 0x4 ADD DUP2 SWAP1 SSTORE POP DUP1 PUSH1 0x1 PUSH1 0x0 DUP6 DUP2 MSTORE PUSH1 0x20 ADD SWAP1 DUP2 MSTORE PUSH1 0x20 ADD PUSH1 0x0 KECCAK256 PUSH1 0x2 ADD DUP2 SWAP1 SSTORE POP DUP2 PUSH1 0x1 PUSH1 0x0 DUP6 DUP2 MSTORE PUSH1 0x20 ADD SWAP1 DUP2 MSTORE PUSH1 0x20 ADD PUSH1 0x0 KECCAK256 PUSH1 0x1 ADD DUP2 SWAP1 SSTORE POP POP POP POP JUMP JUMPDEST PUSH1 0x0 DUP1 REVERT JUMPDEST PUSH1 0x0 DUP2 SWAP1 POP SWAP2 SWAP1 POP JUMP JUMPDEST PUSH2 0x10BF DUP2 PUSH2 0x10AC JUMP JUMPDEST DUP2 EQ PUSH2 0x10CA JUMPI PUSH1 0x0 DUP1 REVERT JUMPDEST POP JUMP JUMPDEST PUSH1 0x0 DUP2 CALLDATALOAD SWAP1 POP PUSH2 0x10DC DUP2 PUSH2 0x10B6 JUMP JUMPDEST SWAP3 SWAP2 POP POP JUMP JUMPDEST PUSH1 0x0 DUP1 PUSH1 0x40 DUP4 DUP6 SUB SLT ISZERO PUSH2 0x10F9 JUMPI PUSH2 0x10F8 PUSH2 0x10A7 JUMP JUMPDEST JUMPDEST PUSH1 0x0 PUSH2 0x1107 DUP6 DUP3 DUP7 ADD PUSH2 0x10CD JUMP JUMPDEST SWAP3 POP POP PUSH1 0x20 PUSH2 0x1118 DUP6 DUP3 DUP7 ADD PUSH2 0x10CD JUMP JUMPDEST SWAP2 POP POP SWAP3 POP SWAP3 SWAP1 POP JUMP JUMPDEST PUSH32 0x4E487B7100000000000000000000000000000000000000000000000000000000 PUSH1 0x0 MSTORE PUSH1 0x21 PUSH1 0x4 MSTORE PUSH1 0x24 PUSH1 0x0 REVERT JUMPDEST PUSH1 0x2 DUP2 LT PUSH2 0x1162 JUMPI PUSH2 0x1161 PUSH2 0x1122 JUMP JUMPDEST JUMPDEST POP JUMP JUMPDEST PUSH1 0x0 DUP2 SWAP1 POP PUSH2 0x1173 DUP3 PUSH2 0x1151 JUMP JUMPDEST SWAP2 SWAP1 POP JUMP JUMPDEST PUSH1 0x0 PUSH2 0x1183 DUP3 PUSH2 0x1165 JUMP JUMPDEST SWAP1 POP SWAP2 SWAP1 POP JUMP JUMPDEST PUSH2 0x1193 DUP2 PUSH2 0x1178 JUMP JUMPDEST DUP3 MSTORE POP POP JUMP JUMPDEST PUSH1 0x0 PUSH1 0x20 DUP3 ADD SWAP1 POP PUSH2 0x11AE PUSH1 0x0 DUP4 ADD DUP5 PUSH2 0x118A JUMP JUMPDEST SWAP3 SWAP2 POP POP JUMP JUMPDEST PUSH1 0x0 PUSH20 0xFFFFFFFFFFFFFFFFFFFFFFFFFFFFFFFFFFFFFFFF DUP3 AND SWAP1 POP SWAP2 SWAP1 POP JUMP JUMPDEST PUSH1 0x0 PUSH2 0x11DF DUP3 PUSH2 0x11B4 JUMP JUMPDEST SWAP1 POP SWAP2 SWAP1 POP JUMP JUMPDEST PUSH2 0x11EF DUP2 PUSH2 0x11D4 JUMP JUMPDEST DUP2 EQ PUSH2 0x11FA JUMPI PUSH1 0x0 DUP1 REVERT JUMPDEST POP JUMP JUMPDEST PUSH1 0x0 DUP2 CALLDATALOAD SWAP1 POP PUSH2 0x120C DUP2 PUSH2 0x11E6 JUMP JUMPDEST SWAP3 SWAP2 POP POP JUMP JUMPDEST PUSH1 0x0 PUSH1 0x20 DUP3 DUP5 SUB SLT ISZERO PUSH2 0x1228 JUMPI PUSH2 0x1227 PUSH2 0x10A7 JUMP JUMPDEST JUMPDEST PUSH1 0x0 PUSH2 0x1236 DUP5 DUP3 DUP6 ADD PUSH2 0x11FD JUMP JUMPDEST SWAP2 POP POP SWAP3 SWAP2 POP POP JUMP JUMPDEST PUSH2 0x1248 DUP2 PUSH2 0x10AC JUMP JUMPDEST DUP3 MSTORE POP POP JUMP JUMPDEST PUSH1 0x0 PUSH1 0x20 DUP3 ADD SWAP1 POP PUSH2 0x1263 PUSH1 0x0 DUP4 ADD DUP5 PUSH2 0x123F JUMP JUMPDEST SWAP3 SWAP2 POP POP JUMP JUMPDEST PUSH1 0x0 DUP2 ISZERO ISZERO SWAP1 POP SWAP2 SWAP1 POP JUMP JUMPDEST PUSH2 0x127E DUP2 PUSH2 0x1269 JUMP JUMPDEST DUP3 MSTORE POP POP JUMP JUMPDEST PUSH1 0x0 PUSH1 0x20 DUP3 ADD SWAP1 POP PUSH2 0x1299 PUSH1 0x0 DUP4 ADD DUP5 PUSH2 0x1275 JUMP JUMPDEST SWAP3 SWAP2 POP POP JUMP JUMPDEST PUSH1 0x0 PUSH1 0x20 DUP3 DUP5 SUB SLT ISZERO PUSH2 0x12B5 JUMPI PUSH2 0x12B4 PUSH2 0x10A7 JUMP JUMPDEST JUMPDEST PUSH1 0x0 PUSH2 0x12C3 DUP5 DUP3 DUP6 ADD PUSH2 0x10CD JUMP JUMPDEST SWAP2 POP POP SWAP3 SWAP2 POP POP JUMP JUMPDEST PUSH2 0x12D5 DUP2 PUSH2 0x11D4 JUMP JUMPDEST DUP3 MSTORE POP POP JUMP JUMPDEST PUSH1 0x0 PUSH1 0xC0 DUP3 ADD SWAP1 POP PUSH2 0x12F0 PUSH1 0x0 DUP4 ADD DUP10 PUSH2 0x12CC JUMP JUMPDEST PUSH2 0x12FD PUSH1 0x20 DUP4 ADD DUP9 PUSH2 0x123F JUMP JUMPDEST PUSH2 0x130A PUSH1 0x40 DUP4 ADD DUP8 PUSH2 0x123F JUMP JUMPDEST PUSH2 0x1317 PUSH1 0x60 DUP4 ADD DUP7 PUSH2 0x1275 JUMP JUMPDEST PUSH2 0x1324 PUSH1 0x80 DUP4 ADD DUP6 PUSH2 0x1275 JUMP JUMPDEST PUSH2 0x1331 PUSH1 0xA0 DUP4 ADD DUP5 PUSH2 0x123F JUMP JUMPDEST SWAP8 SWAP7 POP POP POP POP POP POP POP JUMP JUMPDEST PUSH1 0x0 DUP1 PUSH1 0x0 DUP1 PUSH1 0x80 DUP6 DUP8 SUB SLT ISZERO PUSH2 0x1356 JUMPI PUSH2 0x1355 PUSH2 0x10A7 JUMP JUMPDEST JUMPDEST PUSH1 0x0 PUSH2 0x1364 DUP8 DUP3 DUP9 ADD PUSH2 0x11FD JUMP JUMPDEST SWAP5 POP POP PUSH1 0x20 PUSH2 0x1375 DUP8 DUP3 DUP9 ADD PUSH2 0x10CD JUMP JUMPDEST SWAP4 POP POP PUSH1 0x40 PUSH2 0x1386 DUP8 DUP3 DUP9 ADD PUSH2 0x10CD JUMP JUMPDEST SWAP3 POP POP PUSH1 0x60 PUSH2 0x1397 DUP8 DUP3 DUP9 ADD PUSH2 0x10CD JUMP JUMPDEST SWAP2 POP POP SWAP3 SWAP6 SWAP2 SWAP5 POP SWAP3 POP JUMP JUMPDEST PUSH1 0x0 PUSH1 0x20 DUP3 ADD SWAP1 POP PUSH2 0x13B8 PUSH1 0x0 DUP4 ADD DUP5 PUSH2 0x12CC JUMP JUMPDEST SWAP3 SWAP2 POP POP JUMP JUMPDEST PUSH1 0x0 DUP1 PUSH1 0x0 PUSH1 0x60 DUP5 DUP7 SUB SLT ISZERO PUSH2 0x13D7 JUMPI PUSH2 0x13D6 PUSH2 0x10A7 JUMP JUMPDEST JUMPDEST PUSH1 0x0 PUSH2 0x13E5 DUP7 DUP3 DUP8 ADD PUSH2 0x10CD JUMP JUMPDEST SWAP4 POP POP PUSH1 0x20 PUSH2 0x13F6 DUP7 DUP3 DUP8 ADD PUSH2 0x10CD JUMP JUMPDEST SWAP3 POP POP PUSH1 0x40 PUSH2 0x1407 DUP7 DUP3 DUP8 ADD PUSH2 0x10CD JUMP JUMPDEST SWAP2 POP POP SWAP3 POP SWAP3 POP SWAP3 JUMP JUMPDEST PUSH1 0x0 DUP3 DUP3 MSTORE PUSH1 0x20 DUP3 ADD SWAP1 POP SWAP3 SWAP2 POP POP JUMP JUMPDEST PUSH32 0x466C69676874206973206E6F7420417661696C61626C65000000000000000000 PUSH1 0x0 DUP3 ADD MSTORE POP JUMP JUMPDEST PUSH1 0x0 PUSH2 0x1458 PUSH1 0x17 DUP4 PUSH2 0x1411 JUMP JUMPDEST SWAP2 POP PUSH2 0x1463 DUP3 PUSH2 0x1422 JUMP JUMPDEST PUSH1 0x20 DUP3 ADD SWAP1 POP SWAP2 SWAP1 POP JUMP JUMPDEST PUSH1 0x0 PUSH1 0x20 DUP3 ADD SWAP1 POP DUP2 DUP2 SUB PUSH1 0x0 DUP4 ADD MSTORE PUSH2 0x1487 DUP2 PUSH2 0x144B JUMP JUMPDEST SWAP1 POP SWAP2 SWAP1 POP JUMP JUMPDEST PUSH32 0x5365617420616C726561647920426F6F6B656400000000000000000000000000 PUSH1 0x0 DUP3 ADD MSTORE POP JUMP JUMPDEST PUSH1 0x0 PUSH2 0x14C4 PUSH1 0x13 DUP4 PUSH2 0x1411 JUMP JUMPDEST SWAP2 POP PUSH2 0x14CF DUP3 PUSH2 0x148E JUMP JUMPDEST PUSH1 0x20 DUP3 ADD SWAP1 POP SWAP2 SWAP1 POP JUMP JUMPDEST PUSH1 0x0 PUSH1 0x20 DUP3 ADD SWAP1 POP DUP2 DUP2 SUB PUSH1 0x0 DUP4 ADD MSTORE PUSH2 0x14F3 DUP2 PUSH2 0x14B7 JUMP JUMPDEST SWAP1 POP SWAP2 SWAP1 POP JUMP JUMPDEST PUSH32 0x536F72727921204E6F20656E6F756768207469636B65747320617661696C6162 PUSH1 0x0 DUP3 ADD MSTORE PUSH32 0x6C6520746F20626F6F6B00000000000000000000000000000000000000000000 PUSH1 0x20 DUP3 ADD MSTORE POP JUMP JUMPDEST PUSH1 0x0 PUSH2 0x1556 PUSH1 0x2A DUP4 PUSH2 0x1411 JUMP JUMPDEST SWAP2 POP PUSH2 0x1561 DUP3 PUSH2 0x14FA JUMP JUMPDEST PUSH1 0x40 DUP3 ADD SWAP1 POP SWAP2 SWAP1 POP JUMP JUMPDEST PUSH1 0x0 PUSH1 0x20 DUP3 ADD SWAP1 POP DUP2 DUP2 SUB PUSH1 0x0 DUP4 ADD MSTORE PUSH2 0x1585 DUP2 PUSH2 0x1549 JUMP JUMPDEST SWAP1 POP SWAP2 SWAP1 POP JUMP JUMPDEST PUSH32 0x596F7520617265206E6F742074686520417574686F72697A6564205374616666 PUSH1 0x0 DUP3 ADD MSTORE POP JUMP JUMPDEST PUSH1 0x0 PUSH2 0x15C2 PUSH1 0x20 DUP4 PUSH2 0x1411 JUMP JUMPDEST SWAP2 POP PUSH2 0x15CD DUP3 PUSH2 0x158C JUMP JUMPDEST PUSH1 0x20 DUP3 ADD SWAP1 POP SWAP2 SWAP1 POP JUMP JUMPDEST PUSH1 0x0 PUSH1 0x20 DUP3 ADD SWAP1 POP DUP2 DUP2 SUB PUSH1 0x0 DUP4 ADD MSTORE PUSH2 0x15F1 DUP2 PUSH2 0x15B5 JUMP JUMPDEST SWAP1 POP SWAP2 SWAP1 POP JUMP JUMPDEST PUSH32 0x4E487B7100000000000000000000000000000000000000000000000000000000 PUSH1 0x0 MSTORE PUSH1 0x11 PUSH1 0x4 MSTORE PUSH1 0x24 PUSH1 0x0 REVERT JUMPDEST PUSH1 0x0 PUSH2 0x1632 DUP3 PUSH2 0x10AC JUMP JUMPDEST SWAP2 POP PUSH2 0x163D DUP4 PUSH2 0x10AC JUMP JUMPDEST SWAP3 POP DUP3 DUP3 ADD SWAP1 POP DUP1 DUP3 GT ISZERO PUSH2 0x1655 JUMPI PUSH2 0x1654 PUSH2 0x15F8 JUMP JUMPDEST JUMPDEST SWAP3 SWAP2 POP POP JUMP JUMPDEST PUSH32 0x5061796D656E74206E6F7420436F6D706C657465640000000000000000000000 PUSH1 0x0 DUP3 ADD MSTORE POP JUMP JUMPDEST PUSH1 0x0 PUSH2 0x1691 PUSH1 0x15 DUP4 PUSH2 0x1411 JUMP JUMPDEST SWAP2 POP PUSH2 0x169C DUP3 PUSH2 0x165B JUMP JUMPDEST PUSH1 0x20 DUP3 ADD SWAP1 POP SWAP2 SWAP1 POP JUMP JUMPDEST PUSH1 0x0 PUSH1 0x20 DUP3 ADD SWAP1 POP DUP2 DUP2 SUB PUSH1 0x0 DUP4 ADD MSTORE PUSH2 0x16C0 DUP2 PUSH2 0x1684 JUMP JUMPDEST SWAP1 POP SWAP2 SWAP1 POP JUMP JUMPDEST PUSH32 0x426F6F6B206F6E6C79206F6E65205469636B6574000000000000000000000000 PUSH1 0x0 DUP3 ADD MSTORE POP JUMP JUMPDEST PUSH1 0x0 PUSH2 0x16FD PUSH1 0x14 DUP4 PUSH2 0x1411 JUMP JUMPDEST SWAP2 POP PUSH2 0x1708 DUP3 PUSH2 0x16C7 JUMP JUMPDEST PUSH1 0x20 DUP3 ADD SWAP1 POP SWAP2 SWAP1 POP JUMP JUMPDEST PUSH1 0x0 PUSH1 0x20 DUP3 ADD SWAP1 POP DUP2 DUP2 SUB PUSH1 0x0 DUP4 ADD MSTORE PUSH2 0x172C DUP2 PUSH2 0x16F0 JUMP JUMPDEST SWAP1 POP SWAP2 SWAP1 POP JUMP JUMPDEST PUSH1 0x0 PUSH2 0x173E DUP3 PUSH2 0x10AC JUMP JUMPDEST SWAP2 POP PUSH2 0x1749 DUP4 PUSH2 0x10AC JUMP JUMPDEST SWAP3 POP DUP3 DUP3 MUL PUSH2 0x1757 DUP2 PUSH2 0x10AC JUMP JUMPDEST SWAP2 POP DUP3 DUP3 DIV DUP5 EQ DUP4 ISZERO OR PUSH2 0x176E JUMPI PUSH2 0x176D PUSH2 0x15F8 JUMP JUMPDEST JUMPDEST POP SWAP3 SWAP2 POP POP JUMP JUMPDEST PUSH32 0x4E6F7420656E6F7567682062616C616E63650000000000000000000000000000 PUSH1 0x0 DUP3 ADD MSTORE POP JUMP JUMPDEST PUSH1 0x0 PUSH2 0x17AB PUSH1 0x12 DUP4 PUSH2 0x1411 JUMP JUMPDEST SWAP2 POP PUSH2 0x17B6 DUP3 PUSH2 0x1775 JUMP JUMPDEST PUSH1 0x20 DUP3 ADD SWAP1 POP SWAP2 SWAP1 POP JUMP JUMPDEST PUSH1 0x0 PUSH1 0x20 DUP3 ADD SWAP1 POP DUP2 DUP2 SUB PUSH1 0x0 DUP4 ADD MSTORE PUSH2 0x17DA DUP2 PUSH2 0x179E JUMP JUMPDEST SWAP1 POP SWAP2 SWAP1 POP JUMP JUMPDEST PUSH1 0x0 PUSH2 0x17EC DUP3 PUSH2 0x10AC JUMP JUMPDEST SWAP2 POP PUSH2 0x17F7 DUP4 PUSH2 0x10AC JUMP JUMPDEST SWAP3 POP DUP3 DUP3 SUB SWAP1 POP DUP2 DUP2 GT ISZERO PUSH2 0x180F JUMPI PUSH2 0x180E PUSH2 0x15F8 JUMP JUMPDEST JUMPDEST SWAP3 SWAP2 POP POP JUMP JUMPDEST PUSH32 0x426F6F6B696E6720616C726561647920636F6D706C6574656400000000000000 PUSH1 0x0 DUP3 ADD MSTORE POP JUMP JUMPDEST PUSH1 0x0 PUSH2 0x184B PUSH1 0x19 DUP4 PUSH2 0x1411 JUMP JUMPDEST SWAP2 POP PUSH2 0x1856 DUP3 PUSH2 0x1815 JUMP JUMPDEST PUSH1 0x20 DUP3 ADD SWAP1 POP SWAP2 SWAP1 POP JUMP JUMPDEST PUSH1 0x0 PUSH1 0x20 DUP3 ADD SWAP1 POP DUP2 DUP2 SUB PUSH1 0x0 DUP4 ADD MSTORE PUSH2 0x187A DUP2 PUSH2 0x183E JUMP JUMPDEST SWAP1 POP SWAP2 SWAP1 POP JUMP JUMPDEST PUSH32 0x5061796D656E74206E6F742079657420646F6E65000000000000000000000000 PUSH1 0x0 DUP3 ADD MSTORE POP JUMP JUMPDEST PUSH1 0x0 PUSH2 0x18B7 PUSH1 0x14 DUP4 PUSH2 0x1411 JUMP JUMPDEST SWAP2 POP PUSH2 0x18C2 DUP3 PUSH2 0x1881 JUMP JUMPDEST PUSH1 0x20 DUP3 ADD SWAP1 POP SWAP2 SWAP1 POP JUMP JUMPDEST PUSH1 0x0 PUSH1 0x20 DUP3 ADD SWAP1 POP DUP2 DUP2 SUB PUSH1 0x0 DUP4 ADD MSTORE PUSH2 0x18E6 DUP2 PUSH2 0x18AA JUMP JUMPDEST SWAP1 POP SWAP2 SWAP1 POP JUMP JUMPDEST PUSH32 0x53656174206E6F7420426F6F6B65640000000000000000000000000000000000 PUSH1 0x0 DUP3 ADD MSTORE POP JUMP JUMPDEST PUSH1 0x0 PUSH2 0x1923 PUSH1 0xF DUP4 PUSH2 0x1411 JUMP JUMPDEST SWAP2 POP PUSH2 0x192E DUP3 PUSH2 0x18ED JUMP JUMPDEST PUSH1 0x20 DUP3 ADD SWAP1 POP SWAP2 SWAP1 POP JUMP JUMPDEST PUSH1 0x0 PUSH1 0x20 DUP3 ADD SWAP1 POP DUP2 DUP2 SUB PUSH1 0x0 DUP4 ADD MSTORE PUSH2 0x1952 DUP2 PUSH2 0x1916 JUMP JUMPDEST SWAP1 POP SWAP2 SWAP1 POP JUMP JUMPDEST PUSH32 0x43616E63656C206F6E65205469636B6574000000000000000000000000000000 PUSH1 0x0 DUP3 ADD MSTORE POP JUMP JUMPDEST PUSH1 0x0 PUSH2 0x198F PUSH1 0x11 DUP4 PUSH2 0x1411 JUMP JUMPDEST SWAP2 POP PUSH2 0x199A DUP3 PUSH2 0x1959 JUMP JUMPDEST PUSH1 0x20 DUP3 ADD SWAP1 POP SWAP2 SWAP1 POP JUMP JUMPDEST PUSH1 0x0 PUSH1 0x20 DUP3 ADD SWAP1 POP DUP2 DUP2 SUB PUSH1 0x0 DUP4 ADD MSTORE PUSH2 0x19BE DUP2 PUSH2 0x1982 JUMP JUMPDEST SWAP1 POP SWAP2 SWAP1 POP JUMP JUMPDEST PUSH32 0x596F7520617265206E6F7420746865204F776E65720000000000000000000000 PUSH1 0x0 DUP3 ADD MSTORE POP JUMP JUMPDEST PUSH1 0x0 PUSH2 0x19FB PUSH1 0x15 DUP4 PUSH2 0x1411 JUMP JUMPDEST SWAP2 POP PUSH2 0x1A06 DUP3 PUSH2 0x19C5 JUMP JUMPDEST PUSH1 0x20 DUP3 ADD SWAP1 POP SWAP2 SWAP1 POP JUMP JUMPDEST PUSH1 0x0 PUSH1 0x20 DUP3 ADD SWAP1 POP DUP2 DUP2 SUB PUSH1 0x0 DUP4 ADD MSTORE PUSH2 0x1A2A DUP2 PUSH2 0x19EE JUMP JUMPDEST SWAP1 POP SWAP2 SWAP1 POP JUMP JUMPDEST PUSH32 0x4E6F742074686520417574686F72697A65642053746166660000000000000000 PUSH1 0x0 DUP3 ADD MSTORE POP JUMP JUMPDEST PUSH1 0x0 PUSH2 0x1A67 PUSH1 0x18 DUP4 PUSH2 0x1411 JUMP JUMPDEST SWAP2 POP PUSH2 0x1A72 DUP3 PUSH2 0x1A31 JUMP JUMPDEST PUSH1 0x20 DUP3 ADD SWAP1 POP SWAP2 SWAP1 POP JUMP JUMPDEST PUSH1 0x0 PUSH1 0x20 DUP3 ADD SWAP1 POP DUP2 DUP2 SUB PUSH1 0x0 DUP4 ADD MSTORE PUSH2 0x1A96 DUP2 PUSH2 0x1A5A JUMP JUMPDEST SWAP1 POP SWAP2 SWAP1 POP JUMP INVALID LOG2 PUSH5 0x6970667358 0x22 SLT KECCAK256 0xE 0x2C PUSH30 0x98C9C286EB6DF66FF128CD9252AB956771213256BBE58AF94BF398448164 PUSH20 0x6F6C634300081200330000000000000000000000 "
				},
				"gasEstimates": {
					"creation": {
						"codeDepositCost": "1373400",
						"executionCost": "25697",
						"totalCost": "1399097"
					},
					"external": {
						"addAuthorizedStaff(address)": "24856",
						"addBalances()": "infinite",
						"addFlight(uint256,uint256,uint256)": "infinite",
						"authorizedStaff(address)": "2868",
						"balances(address)": "2882",
						"booking(uint256)": "infinite",
						"cancelTicket(address,uint256,uint256,uint256)": "infinite",
						"checkFlightAvailable(uint256)": "7809",
						"checkFlightCancelled(uint256)": "24931",
						"confirmBooking(uint256)": "27067",
						"getRemainingTickets(uint256)": "infinite",
						"makePayment(address,uint256,uint256,uint256)": "infinite",
						"owner()": "2533",
						"requestBooking(uint256,uint256)": "infinite",
						"status()": "2606"
					}
				},
				"methodIdentifiers": {
					"addAuthorizedStaff(address)": "9c043f8c",
					"addBalances()": "4d40d54f",
					"addFlight(uint256,uint256,uint256)": "f4b770dd",
					"authorizedStaff(address)": "2feac173",
					"balances(address)": "27e235e3",
					"booking(uint256)": "358dc19c",
					"cancelTicket(address,uint256,uint256,uint256)": "decf5bd3",
					"checkFlightAvailable(uint256)": "543be60b",
					"checkFlightCancelled(uint256)": "477a5fb5",
					"confirmBooking(uint256)": "54056b69",
					"getRemainingTickets(uint256)": "80af305a",
					"makePayment(address,uint256,uint256,uint256)": "85ef45ec",
					"owner()": "8da5cb5b",
					"requestBooking(uint256,uint256)": "0f64252f",
					"status()": "200d2ed2"
				}
			},
			"storageLayout": {
				"storage": [
					{
						"astId": 3,
						"contract": "contracts/flightReservation.sol:FlightBooking",
						"label": "owner",
						"offset": 0,
						"slot": "0",
						"type": "t_address"
					},
					{
						"astId": 24,
						"contract": "contracts/flightReservation.sol:FlightBooking",
						"label": "booking",
						"offset": 0,
						"slot": "1",
						"type": "t_mapping(t_uint256,t_struct(Booking)16_storage)"
					},
					{
						"astId": 28,
						"contract": "contracts/flightReservation.sol:FlightBooking",
						"label": "authorizedStaff",
						"offset": 0,
						"slot": "2",
						"type": "t_mapping(t_address,t_bool)"
					},
					{
						"astId": 32,
						"contract": "contracts/flightReservation.sol:FlightBooking",
						"label": "balances",
						"offset": 0,
						"slot": "3",
						"type": "t_mapping(t_address,t_uint256)"
					},
					{
						"astId": 39,
						"contract": "contracts/flightReservation.sol:FlightBooking",
						"label": "payment",
						"offset": 0,
						"slot": "4",
						"type": "t_mapping(t_uint256,t_mapping(t_address,t_struct(Booking)16_storage))"
					},
					{
						"astId": 45,
						"contract": "contracts/flightReservation.sol:FlightBooking",
						"label": "seatAvailability",
						"offset": 0,
						"slot": "5",
						"type": "t_mapping(t_uint256,t_mapping(t_uint256,t_bool))"
					},
					{
						"astId": 52,
						"contract": "contracts/flightReservation.sol:FlightBooking",
						"label": "seat",
						"offset": 0,
						"slot": "6",
						"type": "t_mapping(t_uint256,t_mapping(t_uint256,t_struct(Pay)19_storage))"
					},
					{
						"astId": 58,
						"contract": "contracts/flightReservation.sol:FlightBooking",
						"label": "status",
						"offset": 0,
						"slot": "7",
						"type": "t_enum(seatStatus)55"
					}
				],
				"types": {
					"t_address": {
						"encoding": "inplace",
						"label": "address",
						"numberOfBytes": "20"
					},
					"t_bool": {
						"encoding": "inplace",
						"label": "bool",
						"numberOfBytes": "1"
					},
					"t_enum(seatStatus)55": {
						"encoding": "inplace",
						"label": "enum FlightBooking.seatStatus",
						"numberOfBytes": "1"
					},
					"t_mapping(t_address,t_bool)": {
						"encoding": "mapping",
						"key": "t_address",
						"label": "mapping(address => bool)",
						"numberOfBytes": "32",
						"value": "t_bool"
					},
					"t_mapping(t_address,t_struct(Booking)16_storage)": {
						"encoding": "mapping",
						"key": "t_address",
						"label": "mapping(address => struct FlightBooking.Booking)",
						"numberOfBytes": "32",
						"value": "t_struct(Booking)16_storage"
					},
					"t_mapping(t_address,t_uint256)": {
						"encoding": "mapping",
						"key": "t_address",
						"label": "mapping(address => uint256)",
						"numberOfBytes": "32",
						"value": "t_uint256"
					},
					"t_mapping(t_uint256,t_bool)": {
						"encoding": "mapping",
						"key": "t_uint256",
						"label": "mapping(uint256 => bool)",
						"numberOfBytes": "32",
						"value": "t_bool"
					},
					"t_mapping(t_uint256,t_mapping(t_address,t_struct(Booking)16_storage))": {
						"encoding": "mapping",
						"key": "t_uint256",
						"label": "mapping(uint256 => mapping(address => struct FlightBooking.Booking))",
						"numberOfBytes": "32",
						"value": "t_mapping(t_address,t_struct(Booking)16_storage)"
					},
					"t_mapping(t_uint256,t_mapping(t_uint256,t_bool))": {
						"encoding": "mapping",
						"key": "t_uint256",
						"label": "mapping(uint256 => mapping(uint256 => bool))",
						"numberOfBytes": "32",
						"value": "t_mapping(t_uint256,t_bool)"
					},
					"t_mapping(t_uint256,t_mapping(t_uint256,t_struct(Pay)19_storage))": {
						"encoding": "mapping",
						"key": "t_uint256",
						"label": "mapping(uint256 => mapping(uint256 => struct FlightBooking.Pay))",
						"numberOfBytes": "32",
						"value": "t_mapping(t_uint256,t_struct(Pay)19_storage)"
					},
					"t_mapping(t_uint256,t_struct(Booking)16_storage)": {
						"encoding": "mapping",
						"key": "t_uint256",
						"label": "mapping(uint256 => struct FlightBooking.Booking)",
						"numberOfBytes": "32",
						"value": "t_struct(Booking)16_storage"
					},
					"t_mapping(t_uint256,t_struct(Pay)19_storage)": {
						"encoding": "mapping",
						"key": "t_uint256",
						"label": "mapping(uint256 => struct FlightBooking.Pay)",
						"numberOfBytes": "32",
						"value": "t_struct(Pay)19_storage"
					},
					"t_struct(Booking)16_storage": {
						"encoding": "inplace",
						"label": "struct FlightBooking.Booking",
						"members": [
							{
								"astId": 5,
								"contract": "contracts/flightReservation.sol:FlightBooking",
								"label": "owner",
								"offset": 0,
								"slot": "0",
								"type": "t_address"
							},
							{
								"astId": 7,
								"contract": "contracts/flightReservation.sol:FlightBooking",
								"label": "ticketPrice",
								"offset": 0,
								"slot": "1",
								"type": "t_uint256"
							},
							{
								"astId": 9,
								"contract": "contracts/flightReservation.sol:FlightBooking",
								"label": "availableTickets",
								"offset": 0,
								"slot": "2",
								"type": "t_uint256"
							},
							{
								"astId": 11,
								"contract": "contracts/flightReservation.sol:FlightBooking",
								"label": "isPaid",
								"offset": 0,
								"slot": "3",
								"type": "t_bool"
							},
							{
								"astId": 13,
								"contract": "contracts/flightReservation.sol:FlightBooking",
								"label": "isConfirmed",
								"offset": 1,
								"slot": "3",
								"type": "t_bool"
							},
							{
								"astId": 15,
								"contract": "contracts/flightReservation.sol:FlightBooking",
								"label": "flightStatus",
								"offset": 0,
								"slot": "4",
								"type": "t_uint256"
							}
						],
						"numberOfBytes": "160"
					},
					"t_struct(Pay)19_storage": {
						"encoding": "inplace",
						"label": "struct FlightBooking.Pay",
						"members": [
							{
								"astId": 18,
								"contract": "contracts/flightReservation.sol:FlightBooking",
								"label": "pay",
								"offset": 0,
								"slot": "0",
								"type": "t_bool"
							}
						],
						"numberOfBytes": "32"
					},
					"t_uint256": {
						"encoding": "inplace",
						"label": "uint256",
						"numberOfBytes": "32"
					}
				}
			},
			"userdoc": {
				"kind": "user",
				"methods": {},
				"version": 1
			}
		}
	}
}