{
	"contracts/doctors.sol": {
		"HospitalBooking": {
			"abi": [
				{
					"inputs": [
						{
							"internalType": "uint256",
							"name": "_maxAppointmentsPerDay",
							"type": "uint256"
						}
					],
					"stateMutability": "nonpayable",
					"type": "constructor"
				},
				{
					"inputs": [
						{
							"internalType": "address",
							"name": "doctorAddress",
							"type": "address"
						},
						{
							"internalType": "string",
							"name": "name",
							"type": "string"
						}
					],
					"name": "addDoctor",
					"outputs": [],
					"stateMutability": "nonpayable",
					"type": "function"
				},
				{
					"inputs": [],
					"name": "admin",
					"outputs": [
						{
							"internalType": "address",
							"name": "",
							"type": "address"
						}
					],
					"stateMutability": "view",
					"type": "function"
				},
				{
					"inputs": [
						{
							"internalType": "address",
							"name": "doctorAddress",
							"type": "address"
						},
						{
							"internalType": "uint256",
							"name": "appointmentDate",
							"type": "uint256"
						}
					],
					"name": "bookAppointment",
					"outputs": [],
					"stateMutability": "nonpayable",
					"type": "function"
				},
				{
					"inputs": [
						{
							"internalType": "address",
							"name": "doctorAddress",
							"type": "address"
						},
						{
							"internalType": "uint256",
							"name": "appointmentDate",
							"type": "uint256"
						}
					],
					"name": "cancelAppointment",
					"outputs": [],
					"stateMutability": "nonpayable",
					"type": "function"
				},
				{
					"inputs": [
						{
							"internalType": "address",
							"name": "",
							"type": "address"
						}
					],
					"name": "doctors",
					"outputs": [
						{
							"internalType": "string",
							"name": "name",
							"type": "string"
						},
						{
							"internalType": "uint256",
							"name": "appointmentsCount",
							"type": "uint256"
						}
					],
					"stateMutability": "view",
					"type": "function"
				},
				{
					"inputs": [],
					"name": "maxAppointmentsPerDay",
					"outputs": [
						{
							"internalType": "uint256",
							"name": "",
							"type": "uint256"
						}
					],
					"stateMutability": "view",
					"type": "function"
				}
			],
			"devdoc": {
				"kind": "dev",
				"methods": {},
				"version": 1
			},
			"evm": {
				"assembly": "    /* \"contracts/doctors.sol\":58:2071  contract HospitalBooking {... */\n  mstore(0x40, 0x80)\n    /* \"contracts/doctors.sol\":717:855  constructor(uint256 _maxAppointmentsPerDay) {... */\n  callvalue\n  dup1\n  iszero\n  tag_1\n  jumpi\n  0x00\n  dup1\n  revert\ntag_1:\n  pop\n  mload(0x40)\n  sub(codesize, bytecodeSize)\n  dup1\n  bytecodeSize\n  dup4\n  codecopy\n  dup2\n  dup2\n  add\n  0x40\n  mstore\n  dup2\n  add\n  swap1\n  tag_2\n  swap2\n  swap1\n  tag_3\n  jump\t// in\ntag_2:\n    /* \"contracts/doctors.sol\":780:790  msg.sender */\n  caller\n    /* \"contracts/doctors.sol\":772:777  admin */\n  0x00\n  dup1\n    /* \"contracts/doctors.sol\":772:790  admin = msg.sender */\n  0x0100\n  exp\n  dup2\n  sload\n  dup2\n  0xffffffffffffffffffffffffffffffffffffffff\n  mul\n  not\n  and\n  swap1\n  dup4\n  0xffffffffffffffffffffffffffffffffffffffff\n  and\n  mul\n  or\n  swap1\n  sstore\n  pop\n    /* \"contracts/doctors.sol\":825:847  _maxAppointmentsPerDay */\n  dup1\n    /* \"contracts/doctors.sol\":801:822  maxAppointmentsPerDay */\n  0x01\n    /* \"contracts/doctors.sol\":801:847  maxAppointmentsPerDay = _maxAppointmentsPerDay */\n  dup2\n  swap1\n  sstore\n  pop\n    /* \"contracts/doctors.sol\":717:855  constructor(uint256 _maxAppointmentsPerDay) {... */\n  pop\n    /* \"contracts/doctors.sol\":58:2071  contract HospitalBooking {... */\n  jump(tag_6)\n    /* \"#utility.yul\":88:205   */\ntag_8:\n    /* \"#utility.yul\":197:198   */\n  0x00\n    /* \"#utility.yul\":194:195   */\n  dup1\n    /* \"#utility.yul\":187:199   */\n  revert\n    /* \"#utility.yul\":334:411   */\ntag_10:\n    /* \"#utility.yul\":371:378   */\n  0x00\n    /* \"#utility.yul\":400:405   */\n  dup2\n    /* \"#utility.yul\":389:405   */\n  swap1\n  pop\n    /* \"#utility.yul\":334:411   */\n  swap2\n  swap1\n  pop\n  jump\t// out\n    /* \"#utility.yul\":417:539   */\ntag_11:\n    /* \"#utility.yul\":490:514   */\n  tag_19\n    /* \"#utility.yul\":508:513   */\n  dup2\n    /* \"#utility.yul\":490:514   */\n  tag_10\n  jump\t// in\ntag_19:\n    /* \"#utility.yul\":483:488   */\n  dup2\n    /* \"#utility.yul\":480:515   */\n  eq\n    /* \"#utility.yul\":470:533   */\n  tag_20\n  jumpi\n    /* \"#utility.yul\":529:530   */\n  0x00\n    /* \"#utility.yul\":526:527   */\n  dup1\n    /* \"#utility.yul\":519:531   */\n  revert\n    /* \"#utility.yul\":470:533   */\ntag_20:\n    /* \"#utility.yul\":417:539   */\n  pop\n  jump\t// out\n    /* \"#utility.yul\":545:688   */\ntag_12:\n    /* \"#utility.yul\":602:607   */\n  0x00\n    /* \"#utility.yul\":633:639   */\n  dup2\n    /* \"#utility.yul\":627:640   */\n  mload\n    /* \"#utility.yul\":618:640   */\n  swap1\n  pop\n    /* \"#utility.yul\":649:682   */\n  tag_22\n    /* \"#utility.yul\":676:681   */\n  dup2\n    /* \"#utility.yul\":649:682   */\n  tag_11\n  jump\t// in\ntag_22:\n    /* \"#utility.yul\":545:688   */\n  swap3\n  swap2\n  pop\n  pop\n  jump\t// out\n    /* \"#utility.yul\":694:1045   */\ntag_3:\n    /* \"#utility.yul\":764:770   */\n  0x00\n    /* \"#utility.yul\":813:815   */\n  0x20\n    /* \"#utility.yul\":801:810   */\n  dup3\n    /* \"#utility.yul\":792:799   */\n  dup5\n    /* \"#utility.yul\":788:811   */\n  sub\n    /* \"#utility.yul\":784:816   */\n  slt\n    /* \"#utility.yul\":781:900   */\n  iszero\n  tag_24\n  jumpi\n    /* \"#utility.yul\":819:898   */\n  tag_25\n  tag_8\n  jump\t// in\ntag_25:\n    /* \"#utility.yul\":781:900   */\ntag_24:\n    /* \"#utility.yul\":939:940   */\n  0x00\n    /* \"#utility.yul\":964:1028   */\n  tag_26\n    /* \"#utility.yul\":1020:1027   */\n  dup5\n    /* \"#utility.yul\":1011:1017   */\n  dup3\n    /* \"#utility.yul\":1000:1009   */\n  dup6\n    /* \"#utility.yul\":996:1018   */\n  add\n    /* \"#utility.yul\":964:1028   */\n  tag_12\n  jump\t// in\ntag_26:\n    /* \"#utility.yul\":954:1028   */\n  swap2\n  pop\n    /* \"#utility.yul\":910:1038   */\n  pop\n    /* \"#utility.yul\":694:1045   */\n  swap3\n  swap2\n  pop\n  pop\n  jump\t// out\n    /* \"contracts/doctors.sol\":58:2071  contract HospitalBooking {... */\ntag_6:\n  dataSize(sub_0)\n  dup1\n  dataOffset(sub_0)\n  0x00\n  codecopy\n  0x00\n  return\nstop\n\nsub_0: assembly {\n        /* \"contracts/doctors.sol\":58:2071  contract HospitalBooking {... */\n      mstore(0x40, 0x80)\n      callvalue\n      dup1\n      iszero\n      tag_1\n      jumpi\n      0x00\n      dup1\n      revert\n    tag_1:\n      pop\n      jumpi(tag_2, lt(calldatasize, 0x04))\n      shr(0xe0, calldataload(0x00))\n      dup1\n      0x7cf1e445\n      eq\n      tag_3\n      jumpi\n      dup1\n      0x8a5fdfa7\n      eq\n      tag_4\n      jumpi\n      dup1\n      0xa9583c22\n      eq\n      tag_5\n      jumpi\n      dup1\n      0xeef28996\n      eq\n      tag_6\n      jumpi\n      dup1\n      0xf851a440\n      eq\n      tag_7\n      jumpi\n      dup1\n      0xfa88ab82\n      eq\n      tag_8\n      jumpi\n    tag_2:\n      0x00\n      dup1\n      revert\n        /* \"contracts/doctors.sol\":867:1054  function addDoctor(address doctorAddress, string memory name) public onlyAdmin {... */\n    tag_3:\n      tag_9\n      0x04\n      dup1\n      calldatasize\n      sub\n      dup2\n      add\n      swap1\n      tag_10\n      swap2\n      swap1\n      tag_11\n      jump\t// in\n    tag_10:\n      tag_12\n      jump\t// in\n    tag_9:\n      stop\n        /* \"contracts/doctors.sol\":117:153  uint256 public maxAppointmentsPerDay */\n    tag_4:\n      tag_13\n      tag_14\n      jump\t// in\n    tag_13:\n      mload(0x40)\n      tag_15\n      swap2\n      swap1\n      tag_16\n      jump\t// in\n    tag_15:\n      mload(0x40)\n      dup1\n      swap2\n      sub\n      swap1\n      return\n        /* \"contracts/doctors.sol\":386:427  mapping(address => Doctor) public doctors */\n    tag_5:\n      tag_17\n      0x04\n      dup1\n      calldatasize\n      sub\n      dup2\n      add\n      swap1\n      tag_18\n      swap2\n      swap1\n      tag_19\n      jump\t// in\n    tag_18:\n      tag_20\n      jump\t// in\n    tag_17:\n      mload(0x40)\n      tag_21\n      swap3\n      swap2\n      swap1\n      tag_22\n      jump\t// in\n    tag_21:\n      mload(0x40)\n      dup1\n      swap2\n      sub\n      swap1\n      return\n        /* \"contracts/doctors.sol\":1066:1668  function bookAppointment(address doctorAddress, uint256 appointmentDate) public {... */\n    tag_6:\n      tag_23\n      0x04\n      dup1\n      calldatasize\n      sub\n      dup2\n      add\n      swap1\n      tag_24\n      swap2\n      swap1\n      tag_25\n      jump\t// in\n    tag_24:\n      tag_26\n      jump\t// in\n    tag_23:\n      stop\n        /* \"contracts/doctors.sol\":90:110  address public admin */\n    tag_7:\n      tag_27\n      tag_28\n      jump\t// in\n    tag_27:\n      mload(0x40)\n      tag_29\n      swap2\n      swap1\n      tag_30\n      jump\t// in\n    tag_29:\n      mload(0x40)\n      dup1\n      swap2\n      sub\n      swap1\n      return\n        /* \"contracts/doctors.sol\":1680:2068  function cancelAppointment(address doctorAddress, uint256 appointmentDate) public {... */\n    tag_8:\n      tag_31\n      0x04\n      dup1\n      calldatasize\n      sub\n      dup2\n      add\n      swap1\n      tag_32\n      swap2\n      swap1\n      tag_25\n      jump\t// in\n    tag_32:\n      tag_33\n      jump\t// in\n    tag_31:\n      stop\n        /* \"contracts/doctors.sol\":867:1054  function addDoctor(address doctorAddress, string memory name) public onlyAdmin {... */\n    tag_12:\n        /* \"contracts/doctors.sol\":645:650  admin */\n      0x00\n      dup1\n      sload\n      swap1\n      0x0100\n      exp\n      swap1\n      div\n      0xffffffffffffffffffffffffffffffffffffffff\n      and\n        /* \"contracts/doctors.sol\":631:650  msg.sender == admin */\n      0xffffffffffffffffffffffffffffffffffffffff\n      and\n        /* \"contracts/doctors.sol\":631:641  msg.sender */\n      caller\n        /* \"contracts/doctors.sol\":631:650  msg.sender == admin */\n      0xffffffffffffffffffffffffffffffffffffffff\n      and\n      eq\n        /* \"contracts/doctors.sol\":623:689  require(msg.sender == admin, \"Only admin can call this function.\") */\n      tag_35\n      jumpi\n      mload(0x40)\n      0x08c379a000000000000000000000000000000000000000000000000000000000\n      dup2\n      mstore\n      0x04\n      add\n      tag_36\n      swap1\n      tag_37\n      jump\t// in\n    tag_36:\n      mload(0x40)\n      dup1\n      swap2\n      sub\n      swap1\n      revert\n    tag_35:\n        /* \"contracts/doctors.sol\":987:991  name */\n      dup1\n        /* \"contracts/doctors.sol\":957:964  doctors */\n      0x02\n        /* \"contracts/doctors.sol\":957:979  doctors[doctorAddress] */\n      0x00\n        /* \"contracts/doctors.sol\":965:978  doctorAddress */\n      dup5\n        /* \"contracts/doctors.sol\":957:979  doctors[doctorAddress] */\n      0xffffffffffffffffffffffffffffffffffffffff\n      and\n      0xffffffffffffffffffffffffffffffffffffffff\n      and\n      dup2\n      mstore\n      0x20\n      add\n      swap1\n      dup2\n      mstore\n      0x20\n      add\n      0x00\n      keccak256\n        /* \"contracts/doctors.sol\":957:984  doctors[doctorAddress].name */\n      0x00\n      add\n        /* \"contracts/doctors.sol\":957:991  doctors[doctorAddress].name = name */\n      swap1\n      dup2\n      tag_39\n      swap2\n      swap1\n      tag_40\n      jump\t// in\n    tag_39:\n      pop\n        /* \"contracts/doctors.sol\":1045:1046  0 */\n      0x00\n        /* \"contracts/doctors.sol\":1002:1009  doctors */\n      0x02\n        /* \"contracts/doctors.sol\":1002:1024  doctors[doctorAddress] */\n      0x00\n        /* \"contracts/doctors.sol\":1010:1023  doctorAddress */\n      dup5\n        /* \"contracts/doctors.sol\":1002:1024  doctors[doctorAddress] */\n      0xffffffffffffffffffffffffffffffffffffffff\n      and\n      0xffffffffffffffffffffffffffffffffffffffff\n      and\n      dup2\n      mstore\n      0x20\n      add\n      swap1\n      dup2\n      mstore\n      0x20\n      add\n      0x00\n      keccak256\n        /* \"contracts/doctors.sol\":1002:1042  doctors[doctorAddress].appointmentsCount */\n      0x01\n      add\n        /* \"contracts/doctors.sol\":1002:1046  doctors[doctorAddress].appointmentsCount = 0 */\n      dup2\n      swap1\n      sstore\n      pop\n        /* \"contracts/doctors.sol\":867:1054  function addDoctor(address doctorAddress, string memory name) public onlyAdmin {... */\n      pop\n      pop\n      jump\t// out\n        /* \"contracts/doctors.sol\":117:153  uint256 public maxAppointmentsPerDay */\n    tag_14:\n      sload(0x01)\n      dup2\n      jump\t// out\n        /* \"contracts/doctors.sol\":386:427  mapping(address => Doctor) public doctors */\n    tag_20:\n      mstore(0x20, 0x02)\n      dup1\n      0x00\n      mstore\n      keccak256(0x00, 0x40)\n      0x00\n      swap2\n      pop\n      swap1\n      pop\n      dup1\n      0x00\n      add\n      dup1\n      sload\n      tag_41\n      swap1\n      tag_42\n      jump\t// in\n    tag_41:\n      dup1\n      0x1f\n      add\n      0x20\n      dup1\n      swap2\n      div\n      mul\n      0x20\n      add\n      mload(0x40)\n      swap1\n      dup2\n      add\n      0x40\n      mstore\n      dup1\n      swap3\n      swap2\n      swap1\n      dup2\n      dup2\n      mstore\n      0x20\n      add\n      dup3\n      dup1\n      sload\n      tag_43\n      swap1\n      tag_42\n      jump\t// in\n    tag_43:\n      dup1\n      iszero\n      tag_44\n      jumpi\n      dup1\n      0x1f\n      lt\n      tag_45\n      jumpi\n      0x0100\n      dup1\n      dup4\n      sload\n      div\n      mul\n      dup4\n      mstore\n      swap2\n      0x20\n      add\n      swap2\n      jump(tag_44)\n    tag_45:\n      dup3\n      add\n      swap2\n      swap1\n      0x00\n      mstore\n      keccak256(0x00, 0x20)\n      swap1\n    tag_46:\n      dup2\n      sload\n      dup2\n      mstore\n      swap1\n      0x01\n      add\n      swap1\n      0x20\n      add\n      dup1\n      dup4\n      gt\n      tag_46\n      jumpi\n      dup3\n      swap1\n      sub\n      0x1f\n      and\n      dup3\n      add\n      swap2\n    tag_44:\n      pop\n      pop\n      pop\n      pop\n      pop\n      swap1\n      dup1\n      0x01\n      add\n      sload\n      swap1\n      pop\n      dup3\n      jump\t// out\n        /* \"contracts/doctors.sol\":1066:1668  function bookAppointment(address doctorAddress, uint256 appointmentDate) public {... */\n    tag_26:\n        /* \"contracts/doctors.sol\":1208:1229  maxAppointmentsPerDay */\n      sload(0x01)\n        /* \"contracts/doctors.sol\":1165:1172  doctors */\n      0x02\n        /* \"contracts/doctors.sol\":1165:1187  doctors[doctorAddress] */\n      0x00\n        /* \"contracts/doctors.sol\":1173:1186  doctorAddress */\n      dup5\n        /* \"contracts/doctors.sol\":1165:1187  doctors[doctorAddress] */\n      0xffffffffffffffffffffffffffffffffffffffff\n      and\n      0xffffffffffffffffffffffffffffffffffffffff\n      and\n      dup2\n      mstore\n      0x20\n      add\n      swap1\n      dup2\n      mstore\n      0x20\n      add\n      0x00\n      keccak256\n        /* \"contracts/doctors.sol\":1165:1205  doctors[doctorAddress].appointmentsCount */\n      0x01\n      add\n      sload\n        /* \"contracts/doctors.sol\":1165:1229  doctors[doctorAddress].appointmentsCount < maxAppointmentsPerDay */\n      lt\n        /* \"contracts/doctors.sol\":1157:1269  require(doctors[doctorAddress].appointmentsCount < maxAppointmentsPerDay, \"Doctor is fully booked for the day.\") */\n      tag_48\n      jumpi\n      mload(0x40)\n      0x08c379a000000000000000000000000000000000000000000000000000000000\n      dup2\n      mstore\n      0x04\n      add\n      tag_49\n      swap1\n      tag_50\n      jump\t// in\n    tag_49:\n      mload(0x40)\n      dup1\n      swap2\n      sub\n      swap1\n      revert\n    tag_48:\n        /* \"contracts/doctors.sol\":1344:1371  AppointmentStatus.Available */\n      0x00\n        /* \"contracts/doctors.sol\":1288:1371  doctors[doctorAddress].appointments[appointmentDate] == AppointmentStatus.Available */\n      0x01\n      dup2\n      gt\n      iszero\n      tag_51\n      jumpi\n      tag_52\n      tag_53\n      jump\t// in\n    tag_52:\n    tag_51:\n        /* \"contracts/doctors.sol\":1288:1295  doctors */\n      0x02\n        /* \"contracts/doctors.sol\":1288:1310  doctors[doctorAddress] */\n      0x00\n        /* \"contracts/doctors.sol\":1296:1309  doctorAddress */\n      dup5\n        /* \"contracts/doctors.sol\":1288:1310  doctors[doctorAddress] */\n      0xffffffffffffffffffffffffffffffffffffffff\n      and\n      0xffffffffffffffffffffffffffffffffffffffff\n      and\n      dup2\n      mstore\n      0x20\n      add\n      swap1\n      dup2\n      mstore\n      0x20\n      add\n      0x00\n      keccak256\n        /* \"contracts/doctors.sol\":1288:1323  doctors[doctorAddress].appointments */\n      0x02\n      add\n        /* \"contracts/doctors.sol\":1288:1340  doctors[doctorAddress].appointments[appointmentDate] */\n      0x00\n        /* \"contracts/doctors.sol\":1324:1339  appointmentDate */\n      dup4\n        /* \"contracts/doctors.sol\":1288:1340  doctors[doctorAddress].appointments[appointmentDate] */\n      dup2\n      mstore\n      0x20\n      add\n      swap1\n      dup2\n      mstore\n      0x20\n      add\n      0x00\n      keccak256\n      0x00\n      swap1\n      sload\n      swap1\n      0x0100\n      exp\n      swap1\n      div\n      0xff\n      and\n        /* \"contracts/doctors.sol\":1288:1371  doctors[doctorAddress].appointments[appointmentDate] == AppointmentStatus.Available */\n      0x01\n      dup2\n      gt\n      iszero\n      tag_54\n      jumpi\n      tag_55\n      tag_53\n      jump\t// in\n    tag_55:\n    tag_54:\n      eq\n        /* \"contracts/doctors.sol\":1280:1418  require(doctors[doctorAddress].appointments[appointmentDate] == AppointmentStatus.Available, \"Appointment already booked or unavailable.\") */\n      tag_56\n      jumpi\n      mload(0x40)\n      0x08c379a000000000000000000000000000000000000000000000000000000000\n      dup2\n      mstore\n      0x04\n      add\n      tag_57\n      swap1\n      tag_58\n      jump\t// in\n    tag_57:\n      mload(0x40)\n      dup1\n      swap2\n      sub\n      swap1\n      revert\n    tag_56:\n        /* \"contracts/doctors.sol\":1439:1446  doctors */\n      0x02\n        /* \"contracts/doctors.sol\":1439:1461  doctors[doctorAddress] */\n      0x00\n        /* \"contracts/doctors.sol\":1447:1460  doctorAddress */\n      dup4\n        /* \"contracts/doctors.sol\":1439:1461  doctors[doctorAddress] */\n      0xffffffffffffffffffffffffffffffffffffffff\n      and\n      0xffffffffffffffffffffffffffffffffffffffff\n      and\n      dup2\n      mstore\n      0x20\n      add\n      swap1\n      dup2\n      mstore\n      0x20\n      add\n      0x00\n      keccak256\n        /* \"contracts/doctors.sol\":1439:1479  doctors[doctorAddress].appointmentsCount */\n      0x01\n      add\n      0x00\n        /* \"contracts/doctors.sol\":1439:1481  doctors[doctorAddress].appointmentsCount++ */\n      dup2\n      sload\n      dup1\n      swap3\n      swap2\n      swap1\n      tag_59\n      swap1\n      tag_60\n      jump\t// in\n    tag_59:\n      swap2\n      swap1\n      pop\n      sstore\n      pop\n        /* \"contracts/doctors.sol\":1547:1571  AppointmentStatus.Booked */\n      0x01\n        /* \"contracts/doctors.sol\":1492:1499  doctors */\n      0x02\n        /* \"contracts/doctors.sol\":1492:1514  doctors[doctorAddress] */\n      0x00\n        /* \"contracts/doctors.sol\":1500:1513  doctorAddress */\n      dup5\n        /* \"contracts/doctors.sol\":1492:1514  doctors[doctorAddress] */\n      0xffffffffffffffffffffffffffffffffffffffff\n      and\n      0xffffffffffffffffffffffffffffffffffffffff\n      and\n      dup2\n      mstore\n      0x20\n      add\n      swap1\n      dup2\n      mstore\n      0x20\n      add\n      0x00\n      keccak256\n        /* \"contracts/doctors.sol\":1492:1527  doctors[doctorAddress].appointments */\n      0x02\n      add\n        /* \"contracts/doctors.sol\":1492:1544  doctors[doctorAddress].appointments[appointmentDate] */\n      0x00\n        /* \"contracts/doctors.sol\":1528:1543  appointmentDate */\n      dup4\n        /* \"contracts/doctors.sol\":1492:1544  doctors[doctorAddress].appointments[appointmentDate] */\n      dup2\n      mstore\n      0x20\n      add\n      swap1\n      dup2\n      mstore\n      0x20\n      add\n      0x00\n      keccak256\n      0x00\n        /* \"contracts/doctors.sol\":1492:1571  doctors[doctorAddress].appointments[appointmentDate] = AppointmentStatus.Booked */\n      0x0100\n      exp\n      dup2\n      sload\n      dup2\n      0xff\n      mul\n      not\n      and\n      swap1\n      dup4\n      0x01\n      dup2\n      gt\n      iszero\n      tag_61\n      jumpi\n      tag_62\n      tag_53\n      jump\t// in\n    tag_62:\n    tag_61:\n      mul\n      or\n      swap1\n      sstore\n      pop\n        /* \"contracts/doctors.sol\":1066:1668  function bookAppointment(address doctorAddress, uint256 appointmentDate) public {... */\n      pop\n      pop\n      jump\t// out\n        /* \"contracts/doctors.sol\":90:110  address public admin */\n    tag_28:\n      0x00\n      dup1\n      sload\n      swap1\n      0x0100\n      exp\n      swap1\n      div\n      0xffffffffffffffffffffffffffffffffffffffff\n      and\n      dup2\n      jump\t// out\n        /* \"contracts/doctors.sol\":1680:2068  function cancelAppointment(address doctorAddress, uint256 appointmentDate) public {... */\n    tag_33:\n        /* \"contracts/doctors.sol\":1837:1861  AppointmentStatus.Booked */\n      0x01\n        /* \"contracts/doctors.sol\":1781:1861  doctors[doctorAddress].appointments[appointmentDate] == AppointmentStatus.Booked */\n      dup1\n      dup2\n      gt\n      iszero\n      tag_64\n      jumpi\n      tag_65\n      tag_53\n      jump\t// in\n    tag_65:\n    tag_64:\n        /* \"contracts/doctors.sol\":1781:1788  doctors */\n      0x02\n        /* \"contracts/doctors.sol\":1781:1803  doctors[doctorAddress] */\n      0x00\n        /* \"contracts/doctors.sol\":1789:1802  doctorAddress */\n      dup5\n        /* \"contracts/doctors.sol\":1781:1803  doctors[doctorAddress] */\n      0xffffffffffffffffffffffffffffffffffffffff\n      and\n      0xffffffffffffffffffffffffffffffffffffffff\n      and\n      dup2\n      mstore\n      0x20\n      add\n      swap1\n      dup2\n      mstore\n      0x20\n      add\n      0x00\n      keccak256\n        /* \"contracts/doctors.sol\":1781:1816  doctors[doctorAddress].appointments */\n      0x02\n      add\n        /* \"contracts/doctors.sol\":1781:1833  doctors[doctorAddress].appointments[appointmentDate] */\n      0x00\n        /* \"contracts/doctors.sol\":1817:1832  appointmentDate */\n      dup4\n        /* \"contracts/doctors.sol\":1781:1833  doctors[doctorAddress].appointments[appointmentDate] */\n      dup2\n      mstore\n      0x20\n      add\n      swap1\n      dup2\n      mstore\n      0x20\n      add\n      0x00\n      keccak256\n      0x00\n      swap1\n      sload\n      swap1\n      0x0100\n      exp\n      swap1\n      div\n      0xff\n      and\n        /* \"contracts/doctors.sol\":1781:1861  doctors[doctorAddress].appointments[appointmentDate] == AppointmentStatus.Booked */\n      0x01\n      dup2\n      gt\n      iszero\n      tag_66\n      jumpi\n      tag_67\n      tag_53\n      jump\t// in\n    tag_67:\n    tag_66:\n      eq\n        /* \"contracts/doctors.sol\":1773:1904  require(doctors[doctorAddress].appointments[appointmentDate] == AppointmentStatus.Booked, \"No appointment found for cancellation.\") */\n      tag_68\n      jumpi\n      mload(0x40)\n      0x08c379a000000000000000000000000000000000000000000000000000000000\n      dup2\n      mstore\n      0x04\n      add\n      tag_69\n      swap1\n      tag_70\n      jump\t// in\n    tag_69:\n      mload(0x40)\n      dup1\n      swap2\n      sub\n      swap1\n      revert\n    tag_68:\n        /* \"contracts/doctors.sol\":1925:1932  doctors */\n      0x02\n        /* \"contracts/doctors.sol\":1925:1947  doctors[doctorAddress] */\n      0x00\n        /* \"contracts/doctors.sol\":1933:1946  doctorAddress */\n      dup4\n        /* \"contracts/doctors.sol\":1925:1947  doctors[doctorAddress] */\n      0xffffffffffffffffffffffffffffffffffffffff\n      and\n      0xffffffffffffffffffffffffffffffffffffffff\n      and\n      dup2\n      mstore\n      0x20\n      add\n      swap1\n      dup2\n      mstore\n      0x20\n      add\n      0x00\n      keccak256\n        /* \"contracts/doctors.sol\":1925:1965  doctors[doctorAddress].appointmentsCount */\n      0x01\n      add\n      0x00\n        /* \"contracts/doctors.sol\":1925:1967  doctors[doctorAddress].appointmentsCount-- */\n      dup2\n      sload\n      dup1\n      swap3\n      swap2\n      swap1\n      tag_71\n      swap1\n      tag_72\n      jump\t// in\n    tag_71:\n      swap2\n      swap1\n      pop\n      sstore\n      pop\n        /* \"contracts/doctors.sol\":2033:2060  AppointmentStatus.Available */\n      0x00\n        /* \"contracts/doctors.sol\":1978:1985  doctors */\n      0x02\n        /* \"contracts/doctors.sol\":1978:2000  doctors[doctorAddress] */\n      0x00\n        /* \"contracts/doctors.sol\":1986:1999  doctorAddress */\n      dup5\n        /* \"contracts/doctors.sol\":1978:2000  doctors[doctorAddress] */\n      0xffffffffffffffffffffffffffffffffffffffff\n      and\n      0xffffffffffffffffffffffffffffffffffffffff\n      and\n      dup2\n      mstore\n      0x20\n      add\n      swap1\n      dup2\n      mstore\n      0x20\n      add\n      0x00\n      keccak256\n        /* \"contracts/doctors.sol\":1978:2013  doctors[doctorAddress].appointments */\n      0x02\n      add\n        /* \"contracts/doctors.sol\":1978:2030  doctors[doctorAddress].appointments[appointmentDate] */\n      0x00\n        /* \"contracts/doctors.sol\":2014:2029  appointmentDate */\n      dup4\n        /* \"contracts/doctors.sol\":1978:2030  doctors[doctorAddress].appointments[appointmentDate] */\n      dup2\n      mstore\n      0x20\n      add\n      swap1\n      dup2\n      mstore\n      0x20\n      add\n      0x00\n      keccak256\n      0x00\n        /* \"contracts/doctors.sol\":1978:2060  doctors[doctorAddress].appointments[appointmentDate] = AppointmentStatus.Available */\n      0x0100\n      exp\n      dup2\n      sload\n      dup2\n      0xff\n      mul\n      not\n      and\n      swap1\n      dup4\n      0x01\n      dup2\n      gt\n      iszero\n      tag_73\n      jumpi\n      tag_74\n      tag_53\n      jump\t// in\n    tag_74:\n    tag_73:\n      mul\n      or\n      swap1\n      sstore\n      pop\n        /* \"contracts/doctors.sol\":1680:2068  function cancelAppointment(address doctorAddress, uint256 appointmentDate) public {... */\n      pop\n      pop\n      jump\t// out\n        /* \"#utility.yul\":7:82   */\n    tag_75:\n        /* \"#utility.yul\":40:46   */\n      0x00\n        /* \"#utility.yul\":73:75   */\n      0x40\n        /* \"#utility.yul\":67:76   */\n      mload\n        /* \"#utility.yul\":57:76   */\n      swap1\n      pop\n        /* \"#utility.yul\":7:82   */\n      swap1\n      jump\t// out\n        /* \"#utility.yul\":88:205   */\n    tag_76:\n        /* \"#utility.yul\":197:198   */\n      0x00\n        /* \"#utility.yul\":194:195   */\n      dup1\n        /* \"#utility.yul\":187:199   */\n      revert\n        /* \"#utility.yul\":211:328   */\n    tag_77:\n        /* \"#utility.yul\":320:321   */\n      0x00\n        /* \"#utility.yul\":317:318   */\n      dup1\n        /* \"#utility.yul\":310:322   */\n      revert\n        /* \"#utility.yul\":334:460   */\n    tag_78:\n        /* \"#utility.yul\":371:378   */\n      0x00\n        /* \"#utility.yul\":411:453   */\n      0xffffffffffffffffffffffffffffffffffffffff\n        /* \"#utility.yul\":404:409   */\n      dup3\n        /* \"#utility.yul\":400:454   */\n      and\n        /* \"#utility.yul\":389:454   */\n      swap1\n      pop\n        /* \"#utility.yul\":334:460   */\n      swap2\n      swap1\n      pop\n      jump\t// out\n        /* \"#utility.yul\":466:562   */\n    tag_79:\n        /* \"#utility.yul\":503:510   */\n      0x00\n        /* \"#utility.yul\":532:556   */\n      tag_132\n        /* \"#utility.yul\":550:555   */\n      dup3\n        /* \"#utility.yul\":532:556   */\n      tag_78\n      jump\t// in\n    tag_132:\n        /* \"#utility.yul\":521:556   */\n      swap1\n      pop\n        /* \"#utility.yul\":466:562   */\n      swap2\n      swap1\n      pop\n      jump\t// out\n        /* \"#utility.yul\":568:690   */\n    tag_80:\n        /* \"#utility.yul\":641:665   */\n      tag_134\n        /* \"#utility.yul\":659:664   */\n      dup2\n        /* \"#utility.yul\":641:665   */\n      tag_79\n      jump\t// in\n    tag_134:\n        /* \"#utility.yul\":634:639   */\n      dup2\n        /* \"#utility.yul\":631:666   */\n      eq\n        /* \"#utility.yul\":621:684   */\n      tag_135\n      jumpi\n        /* \"#utility.yul\":680:681   */\n      0x00\n        /* \"#utility.yul\":677:678   */\n      dup1\n        /* \"#utility.yul\":670:682   */\n      revert\n        /* \"#utility.yul\":621:684   */\n    tag_135:\n        /* \"#utility.yul\":568:690   */\n      pop\n      jump\t// out\n        /* \"#utility.yul\":696:835   */\n    tag_81:\n        /* \"#utility.yul\":742:747   */\n      0x00\n        /* \"#utility.yul\":780:786   */\n      dup2\n        /* \"#utility.yul\":767:787   */\n      calldataload\n        /* \"#utility.yul\":758:787   */\n      swap1\n      pop\n        /* \"#utility.yul\":796:829   */\n      tag_137\n        /* \"#utility.yul\":823:828   */\n      dup2\n        /* \"#utility.yul\":796:829   */\n      tag_80\n      jump\t// in\n    tag_137:\n        /* \"#utility.yul\":696:835   */\n      swap3\n      swap2\n      pop\n      pop\n      jump\t// out\n        /* \"#utility.yul\":841:958   */\n    tag_82:\n        /* \"#utility.yul\":950:951   */\n      0x00\n        /* \"#utility.yul\":947:948   */\n      dup1\n        /* \"#utility.yul\":940:952   */\n      revert\n        /* \"#utility.yul\":964:1081   */\n    tag_83:\n        /* \"#utility.yul\":1073:1074   */\n      0x00\n        /* \"#utility.yul\":1070:1071   */\n      dup1\n        /* \"#utility.yul\":1063:1075   */\n      revert\n        /* \"#utility.yul\":1087:1189   */\n    tag_84:\n        /* \"#utility.yul\":1128:1134   */\n      0x00\n        /* \"#utility.yul\":1179:1181   */\n      0x1f\n        /* \"#utility.yul\":1175:1182   */\n      not\n        /* \"#utility.yul\":1170:1172   */\n      0x1f\n        /* \"#utility.yul\":1163:1168   */\n      dup4\n        /* \"#utility.yul\":1159:1173   */\n      add\n        /* \"#utility.yul\":1155:1183   */\n      and\n        /* \"#utility.yul\":1145:1183   */\n      swap1\n      pop\n        /* \"#utility.yul\":1087:1189   */\n      swap2\n      swap1\n      pop\n      jump\t// out\n        /* \"#utility.yul\":1195:1375   */\n    tag_85:\n        /* \"#utility.yul\":1243:1320   */\n      0x4e487b7100000000000000000000000000000000000000000000000000000000\n        /* \"#utility.yul\":1240:1241   */\n      0x00\n        /* \"#utility.yul\":1233:1321   */\n      mstore\n        /* \"#utility.yul\":1340:1344   */\n      0x41\n        /* \"#utility.yul\":1337:1338   */\n      0x04\n        /* \"#utility.yul\":1330:1345   */\n      mstore\n        /* \"#utility.yul\":1364:1368   */\n      0x24\n        /* \"#utility.yul\":1361:1362   */\n      0x00\n        /* \"#utility.yul\":1354:1369   */\n      revert\n        /* \"#utility.yul\":1381:1662   */\n    tag_86:\n        /* \"#utility.yul\":1464:1491   */\n      tag_143\n        /* \"#utility.yul\":1486:1490   */\n      dup3\n        /* \"#utility.yul\":1464:1491   */\n      tag_84\n      jump\t// in\n    tag_143:\n        /* \"#utility.yul\":1456:1462   */\n      dup2\n        /* \"#utility.yul\":1452:1492   */\n      add\n        /* \"#utility.yul\":1594:1600   */\n      dup2\n        /* \"#utility.yul\":1582:1592   */\n      dup2\n        /* \"#utility.yul\":1579:1601   */\n      lt\n        /* \"#utility.yul\":1558:1576   */\n      0xffffffffffffffff\n        /* \"#utility.yul\":1546:1556   */\n      dup3\n        /* \"#utility.yul\":1543:1577   */\n      gt\n        /* \"#utility.yul\":1540:1602   */\n      or\n        /* \"#utility.yul\":1537:1625   */\n      iszero\n      tag_144\n      jumpi\n        /* \"#utility.yul\":1605:1623   */\n      tag_145\n      tag_85\n      jump\t// in\n    tag_145:\n        /* \"#utility.yul\":1537:1625   */\n    tag_144:\n        /* \"#utility.yul\":1645:1655   */\n      dup1\n        /* \"#utility.yul\":1641:1643   */\n      0x40\n        /* \"#utility.yul\":1634:1656   */\n      mstore\n        /* \"#utility.yul\":1424:1662   */\n      pop\n        /* \"#utility.yul\":1381:1662   */\n      pop\n      pop\n      jump\t// out\n        /* \"#utility.yul\":1668:1797   */\n    tag_87:\n        /* \"#utility.yul\":1702:1708   */\n      0x00\n        /* \"#utility.yul\":1729:1749   */\n      tag_147\n      tag_75\n      jump\t// in\n    tag_147:\n        /* \"#utility.yul\":1719:1749   */\n      swap1\n      pop\n        /* \"#utility.yul\":1758:1791   */\n      tag_148\n        /* \"#utility.yul\":1786:1790   */\n      dup3\n        /* \"#utility.yul\":1778:1784   */\n      dup3\n        /* \"#utility.yul\":1758:1791   */\n      tag_86\n      jump\t// in\n    tag_148:\n        /* \"#utility.yul\":1668:1797   */\n      swap2\n      swap1\n      pop\n      jump\t// out\n        /* \"#utility.yul\":1803:2111   */\n    tag_88:\n        /* \"#utility.yul\":1865:1869   */\n      0x00\n        /* \"#utility.yul\":1955:1973   */\n      0xffffffffffffffff\n        /* \"#utility.yul\":1947:1953   */\n      dup3\n        /* \"#utility.yul\":1944:1974   */\n      gt\n        /* \"#utility.yul\":1941:1997   */\n      iszero\n      tag_150\n      jumpi\n        /* \"#utility.yul\":1977:1995   */\n      tag_151\n      tag_85\n      jump\t// in\n    tag_151:\n        /* \"#utility.yul\":1941:1997   */\n    tag_150:\n        /* \"#utility.yul\":2015:2044   */\n      tag_152\n        /* \"#utility.yul\":2037:2043   */\n      dup3\n        /* \"#utility.yul\":2015:2044   */\n      tag_84\n      jump\t// in\n    tag_152:\n        /* \"#utility.yul\":2007:2044   */\n      swap1\n      pop\n        /* \"#utility.yul\":2099:2103   */\n      0x20\n        /* \"#utility.yul\":2093:2097   */\n      dup2\n        /* \"#utility.yul\":2089:2104   */\n      add\n        /* \"#utility.yul\":2081:2104   */\n      swap1\n      pop\n        /* \"#utility.yul\":1803:2111   */\n      swap2\n      swap1\n      pop\n      jump\t// out\n        /* \"#utility.yul\":2117:2263   */\n    tag_89:\n        /* \"#utility.yul\":2214:2220   */\n      dup3\n        /* \"#utility.yul\":2209:2212   */\n      dup2\n        /* \"#utility.yul\":2204:2207   */\n      dup4\n        /* \"#utility.yul\":2191:2221   */\n      calldatacopy\n        /* \"#utility.yul\":2255:2256   */\n      0x00\n        /* \"#utility.yul\":2246:2252   */\n      dup4\n        /* \"#utility.yul\":2241:2244   */\n      dup4\n        /* \"#utility.yul\":2237:2253   */\n      add\n        /* \"#utility.yul\":2230:2257   */\n      mstore\n        /* \"#utility.yul\":2117:2263   */\n      pop\n      pop\n      pop\n      jump\t// out\n        /* \"#utility.yul\":2269:2694   */\n    tag_90:\n        /* \"#utility.yul\":2347:2352   */\n      0x00\n        /* \"#utility.yul\":2372:2438   */\n      tag_155\n        /* \"#utility.yul\":2388:2437   */\n      tag_156\n        /* \"#utility.yul\":2430:2436   */\n      dup5\n        /* \"#utility.yul\":2388:2437   */\n      tag_88\n      jump\t// in\n    tag_156:\n        /* \"#utility.yul\":2372:2438   */\n      tag_87\n      jump\t// in\n    tag_155:\n        /* \"#utility.yul\":2363:2438   */\n      swap1\n      pop\n        /* \"#utility.yul\":2461:2467   */\n      dup3\n        /* \"#utility.yul\":2454:2459   */\n      dup2\n        /* \"#utility.yul\":2447:2468   */\n      mstore\n        /* \"#utility.yul\":2499:2503   */\n      0x20\n        /* \"#utility.yul\":2492:2497   */\n      dup2\n        /* \"#utility.yul\":2488:2504   */\n      add\n        /* \"#utility.yul\":2537:2540   */\n      dup5\n        /* \"#utility.yul\":2528:2534   */\n      dup5\n        /* \"#utility.yul\":2523:2526   */\n      dup5\n        /* \"#utility.yul\":2519:2535   */\n      add\n        /* \"#utility.yul\":2516:2541   */\n      gt\n        /* \"#utility.yul\":2513:2625   */\n      iszero\n      tag_157\n      jumpi\n        /* \"#utility.yul\":2544:2623   */\n      tag_158\n      tag_83\n      jump\t// in\n    tag_158:\n        /* \"#utility.yul\":2513:2625   */\n    tag_157:\n        /* \"#utility.yul\":2634:2688   */\n      tag_159\n        /* \"#utility.yul\":2681:2687   */\n      dup5\n        /* \"#utility.yul\":2676:2679   */\n      dup3\n        /* \"#utility.yul\":2671:2674   */\n      dup6\n        /* \"#utility.yul\":2634:2688   */\n      tag_89\n      jump\t// in\n    tag_159:\n        /* \"#utility.yul\":2353:2694   */\n      pop\n        /* \"#utility.yul\":2269:2694   */\n      swap4\n      swap3\n      pop\n      pop\n      pop\n      jump\t// out\n        /* \"#utility.yul\":2714:3054   */\n    tag_91:\n        /* \"#utility.yul\":2770:2775   */\n      0x00\n        /* \"#utility.yul\":2819:2822   */\n      dup3\n        /* \"#utility.yul\":2812:2816   */\n      0x1f\n        /* \"#utility.yul\":2804:2810   */\n      dup4\n        /* \"#utility.yul\":2800:2817   */\n      add\n        /* \"#utility.yul\":2796:2823   */\n      slt\n        /* \"#utility.yul\":2786:2908   */\n      tag_161\n      jumpi\n        /* \"#utility.yul\":2827:2906   */\n      tag_162\n      tag_82\n      jump\t// in\n    tag_162:\n        /* \"#utility.yul\":2786:2908   */\n    tag_161:\n        /* \"#utility.yul\":2944:2950   */\n      dup2\n        /* \"#utility.yul\":2931:2951   */\n      calldataload\n        /* \"#utility.yul\":2969:3048   */\n      tag_163\n        /* \"#utility.yul\":3044:3047   */\n      dup5\n        /* \"#utility.yul\":3036:3042   */\n      dup3\n        /* \"#utility.yul\":3029:3033   */\n      0x20\n        /* \"#utility.yul\":3021:3027   */\n      dup7\n        /* \"#utility.yul\":3017:3034   */\n      add\n        /* \"#utility.yul\":2969:3048   */\n      tag_90\n      jump\t// in\n    tag_163:\n        /* \"#utility.yul\":2960:3048   */\n      swap2\n      pop\n        /* \"#utility.yul\":2776:3054   */\n      pop\n        /* \"#utility.yul\":2714:3054   */\n      swap3\n      swap2\n      pop\n      pop\n      jump\t// out\n        /* \"#utility.yul\":3060:3714   */\n    tag_11:\n        /* \"#utility.yul\":3138:3144   */\n      0x00\n        /* \"#utility.yul\":3146:3152   */\n      dup1\n        /* \"#utility.yul\":3195:3197   */\n      0x40\n        /* \"#utility.yul\":3183:3192   */\n      dup4\n        /* \"#utility.yul\":3174:3181   */\n      dup6\n        /* \"#utility.yul\":3170:3193   */\n      sub\n        /* \"#utility.yul\":3166:3198   */\n      slt\n        /* \"#utility.yul\":3163:3282   */\n      iszero\n      tag_165\n      jumpi\n        /* \"#utility.yul\":3201:3280   */\n      tag_166\n      tag_76\n      jump\t// in\n    tag_166:\n        /* \"#utility.yul\":3163:3282   */\n    tag_165:\n        /* \"#utility.yul\":3321:3322   */\n      0x00\n        /* \"#utility.yul\":3346:3399   */\n      tag_167\n        /* \"#utility.yul\":3391:3398   */\n      dup6\n        /* \"#utility.yul\":3382:3388   */\n      dup3\n        /* \"#utility.yul\":3371:3380   */\n      dup7\n        /* \"#utility.yul\":3367:3389   */\n      add\n        /* \"#utility.yul\":3346:3399   */\n      tag_81\n      jump\t// in\n    tag_167:\n        /* \"#utility.yul\":3336:3399   */\n      swap3\n      pop\n        /* \"#utility.yul\":3292:3409   */\n      pop\n        /* \"#utility.yul\":3476:3478   */\n      0x20\n        /* \"#utility.yul\":3465:3474   */\n      dup4\n        /* \"#utility.yul\":3461:3479   */\n      add\n        /* \"#utility.yul\":3448:3480   */\n      calldataload\n        /* \"#utility.yul\":3507:3525   */\n      0xffffffffffffffff\n        /* \"#utility.yul\":3499:3505   */\n      dup2\n        /* \"#utility.yul\":3496:3526   */\n      gt\n        /* \"#utility.yul\":3493:3610   */\n      iszero\n      tag_168\n      jumpi\n        /* \"#utility.yul\":3529:3608   */\n      tag_169\n      tag_77\n      jump\t// in\n    tag_169:\n        /* \"#utility.yul\":3493:3610   */\n    tag_168:\n        /* \"#utility.yul\":3634:3697   */\n      tag_170\n        /* \"#utility.yul\":3689:3696   */\n      dup6\n        /* \"#utility.yul\":3680:3686   */\n      dup3\n        /* \"#utility.yul\":3669:3678   */\n      dup7\n        /* \"#utility.yul\":3665:3687   */\n      add\n        /* \"#utility.yul\":3634:3697   */\n      tag_91\n      jump\t// in\n    tag_170:\n        /* \"#utility.yul\":3624:3697   */\n      swap2\n      pop\n        /* \"#utility.yul\":3419:3707   */\n      pop\n        /* \"#utility.yul\":3060:3714   */\n      swap3\n      pop\n      swap3\n      swap1\n      pop\n      jump\t// out\n        /* \"#utility.yul\":3720:3797   */\n    tag_92:\n        /* \"#utility.yul\":3757:3764   */\n      0x00\n        /* \"#utility.yul\":3786:3791   */\n      dup2\n        /* \"#utility.yul\":3775:3791   */\n      swap1\n      pop\n        /* \"#utility.yul\":3720:3797   */\n      swap2\n      swap1\n      pop\n      jump\t// out\n        /* \"#utility.yul\":3803:3921   */\n    tag_93:\n        /* \"#utility.yul\":3890:3914   */\n      tag_173\n        /* \"#utility.yul\":3908:3913   */\n      dup2\n        /* \"#utility.yul\":3890:3914   */\n      tag_92\n      jump\t// in\n    tag_173:\n        /* \"#utility.yul\":3885:3888   */\n      dup3\n        /* \"#utility.yul\":3878:3915   */\n      mstore\n        /* \"#utility.yul\":3803:3921   */\n      pop\n      pop\n      jump\t// out\n        /* \"#utility.yul\":3927:4149   */\n    tag_16:\n        /* \"#utility.yul\":4020:4024   */\n      0x00\n        /* \"#utility.yul\":4058:4060   */\n      0x20\n        /* \"#utility.yul\":4047:4056   */\n      dup3\n        /* \"#utility.yul\":4043:4061   */\n      add\n        /* \"#utility.yul\":4035:4061   */\n      swap1\n      pop\n        /* \"#utility.yul\":4071:4142   */\n      tag_175\n        /* \"#utility.yul\":4139:4140   */\n      0x00\n        /* \"#utility.yul\":4128:4137   */\n      dup4\n        /* \"#utility.yul\":4124:4141   */\n      add\n        /* \"#utility.yul\":4115:4121   */\n      dup5\n        /* \"#utility.yul\":4071:4142   */\n      tag_93\n      jump\t// in\n    tag_175:\n        /* \"#utility.yul\":3927:4149   */\n      swap3\n      swap2\n      pop\n      pop\n      jump\t// out\n        /* \"#utility.yul\":4155:4484   */\n    tag_19:\n        /* \"#utility.yul\":4214:4220   */\n      0x00\n        /* \"#utility.yul\":4263:4265   */\n      0x20\n        /* \"#utility.yul\":4251:4260   */\n      dup3\n        /* \"#utility.yul\":4242:4249   */\n      dup5\n        /* \"#utility.yul\":4238:4261   */\n      sub\n        /* \"#utility.yul\":4234:4266   */\n      slt\n        /* \"#utility.yul\":4231:4350   */\n      iszero\n      tag_177\n      jumpi\n        /* \"#utility.yul\":4269:4348   */\n      tag_178\n      tag_76\n      jump\t// in\n    tag_178:\n        /* \"#utility.yul\":4231:4350   */\n    tag_177:\n        /* \"#utility.yul\":4389:4390   */\n      0x00\n        /* \"#utility.yul\":4414:4467   */\n      tag_179\n        /* \"#utility.yul\":4459:4466   */\n      dup5\n        /* \"#utility.yul\":4450:4456   */\n      dup3\n        /* \"#utility.yul\":4439:4448   */\n      dup6\n        /* \"#utility.yul\":4435:4457   */\n      add\n        /* \"#utility.yul\":4414:4467   */\n      tag_81\n      jump\t// in\n    tag_179:\n        /* \"#utility.yul\":4404:4467   */\n      swap2\n      pop\n        /* \"#utility.yul\":4360:4477   */\n      pop\n        /* \"#utility.yul\":4155:4484   */\n      swap3\n      swap2\n      pop\n      pop\n      jump\t// out\n        /* \"#utility.yul\":4490:4589   */\n    tag_94:\n        /* \"#utility.yul\":4542:4548   */\n      0x00\n        /* \"#utility.yul\":4576:4581   */\n      dup2\n        /* \"#utility.yul\":4570:4582   */\n      mload\n        /* \"#utility.yul\":4560:4582   */\n      swap1\n      pop\n        /* \"#utility.yul\":4490:4589   */\n      swap2\n      swap1\n      pop\n      jump\t// out\n        /* \"#utility.yul\":4595:4764   */\n    tag_95:\n        /* \"#utility.yul\":4679:4690   */\n      0x00\n        /* \"#utility.yul\":4713:4719   */\n      dup3\n        /* \"#utility.yul\":4708:4711   */\n      dup3\n        /* \"#utility.yul\":4701:4720   */\n      mstore\n        /* \"#utility.yul\":4753:4757   */\n      0x20\n        /* \"#utility.yul\":4748:4751   */\n      dup3\n        /* \"#utility.yul\":4744:4758   */\n      add\n        /* \"#utility.yul\":4729:4758   */\n      swap1\n      pop\n        /* \"#utility.yul\":4595:4764   */\n      swap3\n      swap2\n      pop\n      pop\n      jump\t// out\n        /* \"#utility.yul\":4770:5016   */\n    tag_96:\n        /* \"#utility.yul\":4851:4852   */\n      0x00\n        /* \"#utility.yul\":4861:4974   */\n    tag_183:\n        /* \"#utility.yul\":4875:4881   */\n      dup4\n        /* \"#utility.yul\":4872:4873   */\n      dup2\n        /* \"#utility.yul\":4869:4882   */\n      lt\n        /* \"#utility.yul\":4861:4974   */\n      iszero\n      tag_185\n      jumpi\n        /* \"#utility.yul\":4960:4961   */\n      dup1\n        /* \"#utility.yul\":4955:4958   */\n      dup3\n        /* \"#utility.yul\":4951:4962   */\n      add\n        /* \"#utility.yul\":4945:4963   */\n      mload\n        /* \"#utility.yul\":4941:4942   */\n      dup2\n        /* \"#utility.yul\":4936:4939   */\n      dup5\n        /* \"#utility.yul\":4932:4943   */\n      add\n        /* \"#utility.yul\":4925:4964   */\n      mstore\n        /* \"#utility.yul\":4897:4899   */\n      0x20\n        /* \"#utility.yul\":4894:4895   */\n      dup2\n        /* \"#utility.yul\":4890:4900   */\n      add\n        /* \"#utility.yul\":4885:4900   */\n      swap1\n      pop\n        /* \"#utility.yul\":4861:4974   */\n      jump(tag_183)\n    tag_185:\n        /* \"#utility.yul\":5008:5009   */\n      0x00\n        /* \"#utility.yul\":4999:5005   */\n      dup5\n        /* \"#utility.yul\":4994:4997   */\n      dup5\n        /* \"#utility.yul\":4990:5006   */\n      add\n        /* \"#utility.yul\":4983:5010   */\n      mstore\n        /* \"#utility.yul\":4832:5016   */\n      pop\n        /* \"#utility.yul\":4770:5016   */\n      pop\n      pop\n      pop\n      jump\t// out\n        /* \"#utility.yul\":5022:5399   */\n    tag_97:\n        /* \"#utility.yul\":5110:5113   */\n      0x00\n        /* \"#utility.yul\":5138:5177   */\n      tag_187\n        /* \"#utility.yul\":5171:5176   */\n      dup3\n        /* \"#utility.yul\":5138:5177   */\n      tag_94\n      jump\t// in\n    tag_187:\n        /* \"#utility.yul\":5193:5264   */\n      tag_188\n        /* \"#utility.yul\":5257:5263   */\n      dup2\n        /* \"#utility.yul\":5252:5255   */\n      dup6\n        /* \"#utility.yul\":5193:5264   */\n      tag_95\n      jump\t// in\n    tag_188:\n        /* \"#utility.yul\":5186:5264   */\n      swap4\n      pop\n        /* \"#utility.yul\":5273:5338   */\n      tag_189\n        /* \"#utility.yul\":5331:5337   */\n      dup2\n        /* \"#utility.yul\":5326:5329   */\n      dup6\n        /* \"#utility.yul\":5319:5323   */\n      0x20\n        /* \"#utility.yul\":5312:5317   */\n      dup7\n        /* \"#utility.yul\":5308:5324   */\n      add\n        /* \"#utility.yul\":5273:5338   */\n      tag_96\n      jump\t// in\n    tag_189:\n        /* \"#utility.yul\":5363:5392   */\n      tag_190\n        /* \"#utility.yul\":5385:5391   */\n      dup2\n        /* \"#utility.yul\":5363:5392   */\n      tag_84\n      jump\t// in\n    tag_190:\n        /* \"#utility.yul\":5358:5361   */\n      dup5\n        /* \"#utility.yul\":5354:5393   */\n      add\n        /* \"#utility.yul\":5347:5393   */\n      swap2\n      pop\n        /* \"#utility.yul\":5114:5399   */\n      pop\n        /* \"#utility.yul\":5022:5399   */\n      swap3\n      swap2\n      pop\n      pop\n      jump\t// out\n        /* \"#utility.yul\":5405:5828   */\n    tag_22:\n        /* \"#utility.yul\":5546:5550   */\n      0x00\n        /* \"#utility.yul\":5584:5586   */\n      0x40\n        /* \"#utility.yul\":5573:5582   */\n      dup3\n        /* \"#utility.yul\":5569:5587   */\n      add\n        /* \"#utility.yul\":5561:5587   */\n      swap1\n      pop\n        /* \"#utility.yul\":5633:5642   */\n      dup2\n        /* \"#utility.yul\":5627:5631   */\n      dup2\n        /* \"#utility.yul\":5623:5643   */\n      sub\n        /* \"#utility.yul\":5619:5620   */\n      0x00\n        /* \"#utility.yul\":5608:5617   */\n      dup4\n        /* \"#utility.yul\":5604:5621   */\n      add\n        /* \"#utility.yul\":5597:5644   */\n      mstore\n        /* \"#utility.yul\":5661:5739   */\n      tag_192\n        /* \"#utility.yul\":5734:5738   */\n      dup2\n        /* \"#utility.yul\":5725:5731   */\n      dup6\n        /* \"#utility.yul\":5661:5739   */\n      tag_97\n      jump\t// in\n    tag_192:\n        /* \"#utility.yul\":5653:5739   */\n      swap1\n      pop\n        /* \"#utility.yul\":5749:5821   */\n      tag_193\n        /* \"#utility.yul\":5817:5819   */\n      0x20\n        /* \"#utility.yul\":5806:5815   */\n      dup4\n        /* \"#utility.yul\":5802:5820   */\n      add\n        /* \"#utility.yul\":5793:5799   */\n      dup5\n        /* \"#utility.yul\":5749:5821   */\n      tag_93\n      jump\t// in\n    tag_193:\n        /* \"#utility.yul\":5405:5828   */\n      swap4\n      swap3\n      pop\n      pop\n      pop\n      jump\t// out\n        /* \"#utility.yul\":5834:5956   */\n    tag_98:\n        /* \"#utility.yul\":5907:5931   */\n      tag_195\n        /* \"#utility.yul\":5925:5930   */\n      dup2\n        /* \"#utility.yul\":5907:5931   */\n      tag_92\n      jump\t// in\n    tag_195:\n        /* \"#utility.yul\":5900:5905   */\n      dup2\n        /* \"#utility.yul\":5897:5932   */\n      eq\n        /* \"#utility.yul\":5887:5950   */\n      tag_196\n      jumpi\n        /* \"#utility.yul\":5946:5947   */\n      0x00\n        /* \"#utility.yul\":5943:5944   */\n      dup1\n        /* \"#utility.yul\":5936:5948   */\n      revert\n        /* \"#utility.yul\":5887:5950   */\n    tag_196:\n        /* \"#utility.yul\":5834:5956   */\n      pop\n      jump\t// out\n        /* \"#utility.yul\":5962:6101   */\n    tag_99:\n        /* \"#utility.yul\":6008:6013   */\n      0x00\n        /* \"#utility.yul\":6046:6052   */\n      dup2\n        /* \"#utility.yul\":6033:6053   */\n      calldataload\n        /* \"#utility.yul\":6024:6053   */\n      swap1\n      pop\n        /* \"#utility.yul\":6062:6095   */\n      tag_198\n        /* \"#utility.yul\":6089:6094   */\n      dup2\n        /* \"#utility.yul\":6062:6095   */\n      tag_98\n      jump\t// in\n    tag_198:\n        /* \"#utility.yul\":5962:6101   */\n      swap3\n      swap2\n      pop\n      pop\n      jump\t// out\n        /* \"#utility.yul\":6107:6581   */\n    tag_25:\n        /* \"#utility.yul\":6175:6181   */\n      0x00\n        /* \"#utility.yul\":6183:6189   */\n      dup1\n        /* \"#utility.yul\":6232:6234   */\n      0x40\n        /* \"#utility.yul\":6220:6229   */\n      dup4\n        /* \"#utility.yul\":6211:6218   */\n      dup6\n        /* \"#utility.yul\":6207:6230   */\n      sub\n        /* \"#utility.yul\":6203:6235   */\n      slt\n        /* \"#utility.yul\":6200:6319   */\n      iszero\n      tag_200\n      jumpi\n        /* \"#utility.yul\":6238:6317   */\n      tag_201\n      tag_76\n      jump\t// in\n    tag_201:\n        /* \"#utility.yul\":6200:6319   */\n    tag_200:\n        /* \"#utility.yul\":6358:6359   */\n      0x00\n        /* \"#utility.yul\":6383:6436   */\n      tag_202\n        /* \"#utility.yul\":6428:6435   */\n      dup6\n        /* \"#utility.yul\":6419:6425   */\n      dup3\n        /* \"#utility.yul\":6408:6417   */\n      dup7\n        /* \"#utility.yul\":6404:6426   */\n      add\n        /* \"#utility.yul\":6383:6436   */\n      tag_81\n      jump\t// in\n    tag_202:\n        /* \"#utility.yul\":6373:6436   */\n      swap3\n      pop\n        /* \"#utility.yul\":6329:6446   */\n      pop\n        /* \"#utility.yul\":6485:6487   */\n      0x20\n        /* \"#utility.yul\":6511:6564   */\n      tag_203\n        /* \"#utility.yul\":6556:6563   */\n      dup6\n        /* \"#utility.yul\":6547:6553   */\n      dup3\n        /* \"#utility.yul\":6536:6545   */\n      dup7\n        /* \"#utility.yul\":6532:6554   */\n      add\n        /* \"#utility.yul\":6511:6564   */\n      tag_99\n      jump\t// in\n    tag_203:\n        /* \"#utility.yul\":6501:6564   */\n      swap2\n      pop\n        /* \"#utility.yul\":6456:6574   */\n      pop\n        /* \"#utility.yul\":6107:6581   */\n      swap3\n      pop\n      swap3\n      swap1\n      pop\n      jump\t// out\n        /* \"#utility.yul\":6587:6705   */\n    tag_100:\n        /* \"#utility.yul\":6674:6698   */\n      tag_205\n        /* \"#utility.yul\":6692:6697   */\n      dup2\n        /* \"#utility.yul\":6674:6698   */\n      tag_79\n      jump\t// in\n    tag_205:\n        /* \"#utility.yul\":6669:6672   */\n      dup3\n        /* \"#utility.yul\":6662:6699   */\n      mstore\n        /* \"#utility.yul\":6587:6705   */\n      pop\n      pop\n      jump\t// out\n        /* \"#utility.yul\":6711:6933   */\n    tag_30:\n        /* \"#utility.yul\":6804:6808   */\n      0x00\n        /* \"#utility.yul\":6842:6844   */\n      0x20\n        /* \"#utility.yul\":6831:6840   */\n      dup3\n        /* \"#utility.yul\":6827:6845   */\n      add\n        /* \"#utility.yul\":6819:6845   */\n      swap1\n      pop\n        /* \"#utility.yul\":6855:6926   */\n      tag_207\n        /* \"#utility.yul\":6923:6924   */\n      0x00\n        /* \"#utility.yul\":6912:6921   */\n      dup4\n        /* \"#utility.yul\":6908:6925   */\n      add\n        /* \"#utility.yul\":6899:6905   */\n      dup5\n        /* \"#utility.yul\":6855:6926   */\n      tag_100\n      jump\t// in\n    tag_207:\n        /* \"#utility.yul\":6711:6933   */\n      swap3\n      swap2\n      pop\n      pop\n      jump\t// out\n        /* \"#utility.yul\":6939:7160   */\n    tag_101:\n        /* \"#utility.yul\":7079:7113   */\n      0x4f6e6c792061646d696e2063616e2063616c6c20746869732066756e6374696f\n        /* \"#utility.yul\":7075:7076   */\n      0x00\n        /* \"#utility.yul\":7067:7073   */\n      dup3\n        /* \"#utility.yul\":7063:7077   */\n      add\n        /* \"#utility.yul\":7056:7114   */\n      mstore\n        /* \"#utility.yul\":7148:7152   */\n      0x6e2e000000000000000000000000000000000000000000000000000000000000\n        /* \"#utility.yul\":7143:7145   */\n      0x20\n        /* \"#utility.yul\":7135:7141   */\n      dup3\n        /* \"#utility.yul\":7131:7146   */\n      add\n        /* \"#utility.yul\":7124:7153   */\n      mstore\n        /* \"#utility.yul\":6939:7160   */\n      pop\n      jump\t// out\n        /* \"#utility.yul\":7166:7532   */\n    tag_102:\n        /* \"#utility.yul\":7308:7311   */\n      0x00\n        /* \"#utility.yul\":7329:7396   */\n      tag_210\n        /* \"#utility.yul\":7393:7395   */\n      0x22\n        /* \"#utility.yul\":7388:7391   */\n      dup4\n        /* \"#utility.yul\":7329:7396   */\n      tag_95\n      jump\t// in\n    tag_210:\n        /* \"#utility.yul\":7322:7396   */\n      swap2\n      pop\n        /* \"#utility.yul\":7405:7498   */\n      tag_211\n        /* \"#utility.yul\":7494:7497   */\n      dup3\n        /* \"#utility.yul\":7405:7498   */\n      tag_101\n      jump\t// in\n    tag_211:\n        /* \"#utility.yul\":7523:7525   */\n      0x40\n        /* \"#utility.yul\":7518:7521   */\n      dup3\n        /* \"#utility.yul\":7514:7526   */\n      add\n        /* \"#utility.yul\":7507:7526   */\n      swap1\n      pop\n        /* \"#utility.yul\":7166:7532   */\n      swap2\n      swap1\n      pop\n      jump\t// out\n        /* \"#utility.yul\":7538:7957   */\n    tag_37:\n        /* \"#utility.yul\":7704:7708   */\n      0x00\n        /* \"#utility.yul\":7742:7744   */\n      0x20\n        /* \"#utility.yul\":7731:7740   */\n      dup3\n        /* \"#utility.yul\":7727:7745   */\n      add\n        /* \"#utility.yul\":7719:7745   */\n      swap1\n      pop\n        /* \"#utility.yul\":7791:7800   */\n      dup2\n        /* \"#utility.yul\":7785:7789   */\n      dup2\n        /* \"#utility.yul\":7781:7801   */\n      sub\n        /* \"#utility.yul\":7777:7778   */\n      0x00\n        /* \"#utility.yul\":7766:7775   */\n      dup4\n        /* \"#utility.yul\":7762:7779   */\n      add\n        /* \"#utility.yul\":7755:7802   */\n      mstore\n        /* \"#utility.yul\":7819:7950   */\n      tag_213\n        /* \"#utility.yul\":7945:7949   */\n      dup2\n        /* \"#utility.yul\":7819:7950   */\n      tag_102\n      jump\t// in\n    tag_213:\n        /* \"#utility.yul\":7811:7950   */\n      swap1\n      pop\n        /* \"#utility.yul\":7538:7957   */\n      swap2\n      swap1\n      pop\n      jump\t// out\n        /* \"#utility.yul\":7963:8143   */\n    tag_103:\n        /* \"#utility.yul\":8011:8088   */\n      0x4e487b7100000000000000000000000000000000000000000000000000000000\n        /* \"#utility.yul\":8008:8009   */\n      0x00\n        /* \"#utility.yul\":8001:8089   */\n      mstore\n        /* \"#utility.yul\":8108:8112   */\n      0x22\n        /* \"#utility.yul\":8105:8106   */\n      0x04\n        /* \"#utility.yul\":8098:8113   */\n      mstore\n        /* \"#utility.yul\":8132:8136   */\n      0x24\n        /* \"#utility.yul\":8129:8130   */\n      0x00\n        /* \"#utility.yul\":8122:8137   */\n      revert\n        /* \"#utility.yul\":8149:8469   */\n    tag_42:\n        /* \"#utility.yul\":8193:8199   */\n      0x00\n        /* \"#utility.yul\":8230:8231   */\n      0x02\n        /* \"#utility.yul\":8224:8228   */\n      dup3\n        /* \"#utility.yul\":8220:8232   */\n      div\n        /* \"#utility.yul\":8210:8232   */\n      swap1\n      pop\n        /* \"#utility.yul\":8277:8278   */\n      0x01\n        /* \"#utility.yul\":8271:8275   */\n      dup3\n        /* \"#utility.yul\":8267:8279   */\n      and\n        /* \"#utility.yul\":8298:8316   */\n      dup1\n        /* \"#utility.yul\":8288:8369   */\n      tag_216\n      jumpi\n        /* \"#utility.yul\":8354:8358   */\n      0x7f\n        /* \"#utility.yul\":8346:8352   */\n      dup3\n        /* \"#utility.yul\":8342:8359   */\n      and\n        /* \"#utility.yul\":8332:8359   */\n      swap2\n      pop\n        /* \"#utility.yul\":8288:8369   */\n    tag_216:\n        /* \"#utility.yul\":8416:8418   */\n      0x20\n        /* \"#utility.yul\":8408:8414   */\n      dup3\n        /* \"#utility.yul\":8405:8419   */\n      lt\n        /* \"#utility.yul\":8385:8403   */\n      dup2\n        /* \"#utility.yul\":8382:8420   */\n      sub\n        /* \"#utility.yul\":8379:8463   */\n      tag_217\n      jumpi\n        /* \"#utility.yul\":8435:8453   */\n      tag_218\n      tag_103\n      jump\t// in\n    tag_218:\n        /* \"#utility.yul\":8379:8463   */\n    tag_217:\n        /* \"#utility.yul\":8200:8469   */\n      pop\n        /* \"#utility.yul\":8149:8469   */\n      swap2\n      swap1\n      pop\n      jump\t// out\n        /* \"#utility.yul\":8475:8616   */\n    tag_104:\n        /* \"#utility.yul\":8524:8528   */\n      0x00\n        /* \"#utility.yul\":8547:8550   */\n      dup2\n        /* \"#utility.yul\":8539:8550   */\n      swap1\n      pop\n        /* \"#utility.yul\":8570:8573   */\n      dup2\n        /* \"#utility.yul\":8567:8568   */\n      0x00\n        /* \"#utility.yul\":8560:8574   */\n      mstore\n        /* \"#utility.yul\":8604:8608   */\n      0x20\n        /* \"#utility.yul\":8601:8602   */\n      0x00\n        /* \"#utility.yul\":8591:8609   */\n      keccak256\n        /* \"#utility.yul\":8583:8609   */\n      swap1\n      pop\n        /* \"#utility.yul\":8475:8616   */\n      swap2\n      swap1\n      pop\n      jump\t// out\n        /* \"#utility.yul\":8622:8715   */\n    tag_105:\n        /* \"#utility.yul\":8659:8665   */\n      0x00\n        /* \"#utility.yul\":8706:8708   */\n      0x20\n        /* \"#utility.yul\":8701:8703   */\n      0x1f\n        /* \"#utility.yul\":8694:8699   */\n      dup4\n        /* \"#utility.yul\":8690:8704   */\n      add\n        /* \"#utility.yul\":8686:8709   */\n      div\n        /* \"#utility.yul\":8676:8709   */\n      swap1\n      pop\n        /* \"#utility.yul\":8622:8715   */\n      swap2\n      swap1\n      pop\n      jump\t// out\n        /* \"#utility.yul\":8721:8828   */\n    tag_106:\n        /* \"#utility.yul\":8765:8773   */\n      0x00\n        /* \"#utility.yul\":8815:8820   */\n      dup3\n        /* \"#utility.yul\":8809:8813   */\n      dup3\n        /* \"#utility.yul\":8805:8821   */\n      shl\n        /* \"#utility.yul\":8784:8821   */\n      swap1\n      pop\n        /* \"#utility.yul\":8721:8828   */\n      swap3\n      swap2\n      pop\n      pop\n      jump\t// out\n        /* \"#utility.yul\":8834:9227   */\n    tag_107:\n        /* \"#utility.yul\":8903:8909   */\n      0x00\n        /* \"#utility.yul\":8953:8954   */\n      0x08\n        /* \"#utility.yul\":8941:8951   */\n      dup4\n        /* \"#utility.yul\":8937:8955   */\n      mul\n        /* \"#utility.yul\":8976:9073   */\n      tag_223\n        /* \"#utility.yul\":9006:9072   */\n      0xffffffffffffffffffffffffffffffffffffffffffffffffffffffffffffffff\n        /* \"#utility.yul\":8995:9004   */\n      dup3\n        /* \"#utility.yul\":8976:9073   */\n      tag_106\n      jump\t// in\n    tag_223:\n        /* \"#utility.yul\":9094:9133   */\n      tag_224\n        /* \"#utility.yul\":9124:9132   */\n      dup7\n        /* \"#utility.yul\":9113:9122   */\n      dup4\n        /* \"#utility.yul\":9094:9133   */\n      tag_106\n      jump\t// in\n    tag_224:\n        /* \"#utility.yul\":9082:9133   */\n      swap6\n      pop\n        /* \"#utility.yul\":9166:9170   */\n      dup1\n        /* \"#utility.yul\":9162:9171   */\n      not\n        /* \"#utility.yul\":9155:9160   */\n      dup5\n        /* \"#utility.yul\":9151:9172   */\n      and\n        /* \"#utility.yul\":9142:9172   */\n      swap4\n      pop\n        /* \"#utility.yul\":9215:9219   */\n      dup1\n        /* \"#utility.yul\":9205:9213   */\n      dup7\n        /* \"#utility.yul\":9201:9220   */\n      and\n        /* \"#utility.yul\":9194:9199   */\n      dup5\n        /* \"#utility.yul\":9191:9221   */\n      or\n        /* \"#utility.yul\":9181:9221   */\n      swap3\n      pop\n        /* \"#utility.yul\":8910:9227   */\n      pop\n      pop\n        /* \"#utility.yul\":8834:9227   */\n      swap4\n      swap3\n      pop\n      pop\n      pop\n      jump\t// out\n        /* \"#utility.yul\":9233:9293   */\n    tag_108:\n        /* \"#utility.yul\":9261:9264   */\n      0x00\n        /* \"#utility.yul\":9282:9287   */\n      dup2\n        /* \"#utility.yul\":9275:9287   */\n      swap1\n      pop\n        /* \"#utility.yul\":9233:9293   */\n      swap2\n      swap1\n      pop\n      jump\t// out\n        /* \"#utility.yul\":9299:9441   */\n    tag_109:\n        /* \"#utility.yul\":9349:9358   */\n      0x00\n        /* \"#utility.yul\":9382:9435   */\n      tag_227\n        /* \"#utility.yul\":9400:9434   */\n      tag_228\n        /* \"#utility.yul\":9409:9433   */\n      tag_229\n        /* \"#utility.yul\":9427:9432   */\n      dup5\n        /* \"#utility.yul\":9409:9433   */\n      tag_92\n      jump\t// in\n    tag_229:\n        /* \"#utility.yul\":9400:9434   */\n      tag_108\n      jump\t// in\n    tag_228:\n        /* \"#utility.yul\":9382:9435   */\n      tag_92\n      jump\t// in\n    tag_227:\n        /* \"#utility.yul\":9369:9435   */\n      swap1\n      pop\n        /* \"#utility.yul\":9299:9441   */\n      swap2\n      swap1\n      pop\n      jump\t// out\n        /* \"#utility.yul\":9447:9522   */\n    tag_110:\n        /* \"#utility.yul\":9490:9493   */\n      0x00\n        /* \"#utility.yul\":9511:9516   */\n      dup2\n        /* \"#utility.yul\":9504:9516   */\n      swap1\n      pop\n        /* \"#utility.yul\":9447:9522   */\n      swap2\n      swap1\n      pop\n      jump\t// out\n        /* \"#utility.yul\":9528:9797   */\n    tag_111:\n        /* \"#utility.yul\":9638:9677   */\n      tag_232\n        /* \"#utility.yul\":9669:9676   */\n      dup4\n        /* \"#utility.yul\":9638:9677   */\n      tag_109\n      jump\t// in\n    tag_232:\n        /* \"#utility.yul\":9699:9790   */\n      tag_233\n        /* \"#utility.yul\":9748:9789   */\n      tag_234\n        /* \"#utility.yul\":9772:9788   */\n      dup3\n        /* \"#utility.yul\":9748:9789   */\n      tag_110\n      jump\t// in\n    tag_234:\n        /* \"#utility.yul\":9740:9746   */\n      dup5\n        /* \"#utility.yul\":9733:9737   */\n      dup5\n        /* \"#utility.yul\":9727:9738   */\n      sload\n        /* \"#utility.yul\":9699:9790   */\n      tag_107\n      jump\t// in\n    tag_233:\n        /* \"#utility.yul\":9693:9697   */\n      dup3\n        /* \"#utility.yul\":9686:9791   */\n      sstore\n        /* \"#utility.yul\":9604:9797   */\n      pop\n        /* \"#utility.yul\":9528:9797   */\n      pop\n      pop\n      pop\n      jump\t// out\n        /* \"#utility.yul\":9803:9876   */\n    tag_112:\n        /* \"#utility.yul\":9848:9851   */\n      0x00\n        /* \"#utility.yul\":9803:9876   */\n      swap1\n      jump\t// out\n        /* \"#utility.yul\":9882:10071   */\n    tag_113:\n        /* \"#utility.yul\":9959:9991   */\n      tag_237\n      tag_112\n      jump\t// in\n    tag_237:\n        /* \"#utility.yul\":10000:10065   */\n      tag_238\n        /* \"#utility.yul\":10058:10064   */\n      dup2\n        /* \"#utility.yul\":10050:10056   */\n      dup5\n        /* \"#utility.yul\":10044:10048   */\n      dup5\n        /* \"#utility.yul\":10000:10065   */\n      tag_111\n      jump\t// in\n    tag_238:\n        /* \"#utility.yul\":9935:10071   */\n      pop\n        /* \"#utility.yul\":9882:10071   */\n      pop\n      pop\n      jump\t// out\n        /* \"#utility.yul\":10077:10263   */\n    tag_114:\n        /* \"#utility.yul\":10137:10257   */\n    tag_240:\n        /* \"#utility.yul\":10154:10157   */\n      dup2\n        /* \"#utility.yul\":10147:10152   */\n      dup2\n        /* \"#utility.yul\":10144:10158   */\n      lt\n        /* \"#utility.yul\":10137:10257   */\n      iszero\n      tag_242\n      jumpi\n        /* \"#utility.yul\":10208:10247   */\n      tag_243\n        /* \"#utility.yul\":10245:10246   */\n      0x00\n        /* \"#utility.yul\":10238:10243   */\n      dup3\n        /* \"#utility.yul\":10208:10247   */\n      tag_113\n      jump\t// in\n    tag_243:\n        /* \"#utility.yul\":10181:10182   */\n      0x01\n        /* \"#utility.yul\":10174:10179   */\n      dup2\n        /* \"#utility.yul\":10170:10183   */\n      add\n        /* \"#utility.yul\":10161:10183   */\n      swap1\n      pop\n        /* \"#utility.yul\":10137:10257   */\n      jump(tag_240)\n    tag_242:\n        /* \"#utility.yul\":10077:10263   */\n      pop\n      pop\n      jump\t// out\n        /* \"#utility.yul\":10269:10812   */\n    tag_115:\n        /* \"#utility.yul\":10370:10372   */\n      0x1f\n        /* \"#utility.yul\":10365:10368   */\n      dup3\n        /* \"#utility.yul\":10362:10373   */\n      gt\n        /* \"#utility.yul\":10359:10805   */\n      iszero\n      tag_245\n      jumpi\n        /* \"#utility.yul\":10404:10442   */\n      tag_246\n        /* \"#utility.yul\":10436:10441   */\n      dup2\n        /* \"#utility.yul\":10404:10442   */\n      tag_104\n      jump\t// in\n    tag_246:\n        /* \"#utility.yul\":10488:10517   */\n      tag_247\n        /* \"#utility.yul\":10506:10516   */\n      dup5\n        /* \"#utility.yul\":10488:10517   */\n      tag_105\n      jump\t// in\n    tag_247:\n        /* \"#utility.yul\":10478:10486   */\n      dup2\n        /* \"#utility.yul\":10474:10518   */\n      add\n        /* \"#utility.yul\":10671:10673   */\n      0x20\n        /* \"#utility.yul\":10659:10669   */\n      dup6\n        /* \"#utility.yul\":10656:10674   */\n      lt\n        /* \"#utility.yul\":10653:10702   */\n      iszero\n      tag_248\n      jumpi\n        /* \"#utility.yul\":10692:10700   */\n      dup2\n        /* \"#utility.yul\":10677:10700   */\n      swap1\n      pop\n        /* \"#utility.yul\":10653:10702   */\n    tag_248:\n        /* \"#utility.yul\":10715:10795   */\n      tag_249\n        /* \"#utility.yul\":10771:10793   */\n      tag_250\n        /* \"#utility.yul\":10789:10792   */\n      dup6\n        /* \"#utility.yul\":10771:10793   */\n      tag_105\n      jump\t// in\n    tag_250:\n        /* \"#utility.yul\":10761:10769   */\n      dup4\n        /* \"#utility.yul\":10757:10794   */\n      add\n        /* \"#utility.yul\":10744:10755   */\n      dup3\n        /* \"#utility.yul\":10715:10795   */\n      tag_114\n      jump\t// in\n    tag_249:\n        /* \"#utility.yul\":10374:10805   */\n      pop\n      pop\n        /* \"#utility.yul\":10359:10805   */\n    tag_245:\n        /* \"#utility.yul\":10269:10812   */\n      pop\n      pop\n      pop\n      jump\t// out\n        /* \"#utility.yul\":10818:10935   */\n    tag_116:\n        /* \"#utility.yul\":10872:10880   */\n      0x00\n        /* \"#utility.yul\":10922:10927   */\n      dup3\n        /* \"#utility.yul\":10916:10920   */\n      dup3\n        /* \"#utility.yul\":10912:10928   */\n      shr\n        /* \"#utility.yul\":10891:10928   */\n      swap1\n      pop\n        /* \"#utility.yul\":10818:10935   */\n      swap3\n      swap2\n      pop\n      pop\n      jump\t// out\n        /* \"#utility.yul\":10941:11110   */\n    tag_117:\n        /* \"#utility.yul\":10985:10991   */\n      0x00\n        /* \"#utility.yul\":11018:11069   */\n      tag_253\n        /* \"#utility.yul\":11066:11067   */\n      0x00\n        /* \"#utility.yul\":11062:11068   */\n      not\n        /* \"#utility.yul\":11054:11059   */\n      dup5\n        /* \"#utility.yul\":11051:11052   */\n      0x08\n        /* \"#utility.yul\":11047:11060   */\n      mul\n        /* \"#utility.yul\":11018:11069   */\n      tag_116\n      jump\t// in\n    tag_253:\n        /* \"#utility.yul\":11014:11070   */\n      not\n        /* \"#utility.yul\":11099:11103   */\n      dup1\n        /* \"#utility.yul\":11093:11097   */\n      dup4\n        /* \"#utility.yul\":11089:11104   */\n      and\n        /* \"#utility.yul\":11079:11104   */\n      swap2\n      pop\n        /* \"#utility.yul\":10992:11110   */\n      pop\n        /* \"#utility.yul\":10941:11110   */\n      swap3\n      swap2\n      pop\n      pop\n      jump\t// out\n        /* \"#utility.yul\":11115:11410   */\n    tag_118:\n        /* \"#utility.yul\":11191:11195   */\n      0x00\n        /* \"#utility.yul\":11337:11366   */\n      tag_255\n        /* \"#utility.yul\":11362:11365   */\n      dup4\n        /* \"#utility.yul\":11356:11360   */\n      dup4\n        /* \"#utility.yul\":11337:11366   */\n      tag_117\n      jump\t// in\n    tag_255:\n        /* \"#utility.yul\":11329:11366   */\n      swap2\n      pop\n        /* \"#utility.yul\":11399:11402   */\n      dup3\n        /* \"#utility.yul\":11396:11397   */\n      0x02\n        /* \"#utility.yul\":11392:11403   */\n      mul\n        /* \"#utility.yul\":11386:11390   */\n      dup3\n        /* \"#utility.yul\":11383:11404   */\n      or\n        /* \"#utility.yul\":11375:11404   */\n      swap1\n      pop\n        /* \"#utility.yul\":11115:11410   */\n      swap3\n      swap2\n      pop\n      pop\n      jump\t// out\n        /* \"#utility.yul\":11415:12810   */\n    tag_40:\n        /* \"#utility.yul\":11532:11569   */\n      tag_257\n        /* \"#utility.yul\":11565:11568   */\n      dup3\n        /* \"#utility.yul\":11532:11569   */\n      tag_94\n      jump\t// in\n    tag_257:\n        /* \"#utility.yul\":11634:11652   */\n      0xffffffffffffffff\n        /* \"#utility.yul\":11626:11632   */\n      dup2\n        /* \"#utility.yul\":11623:11653   */\n      gt\n        /* \"#utility.yul\":11620:11676   */\n      iszero\n      tag_258\n      jumpi\n        /* \"#utility.yul\":11656:11674   */\n      tag_259\n      tag_85\n      jump\t// in\n    tag_259:\n        /* \"#utility.yul\":11620:11676   */\n    tag_258:\n        /* \"#utility.yul\":11700:11738   */\n      tag_260\n        /* \"#utility.yul\":11732:11736   */\n      dup3\n        /* \"#utility.yul\":11726:11737   */\n      sload\n        /* \"#utility.yul\":11700:11738   */\n      tag_42\n      jump\t// in\n    tag_260:\n        /* \"#utility.yul\":11785:11852   */\n      tag_261\n        /* \"#utility.yul\":11845:11851   */\n      dup3\n        /* \"#utility.yul\":11837:11843   */\n      dup3\n        /* \"#utility.yul\":11831:11835   */\n      dup6\n        /* \"#utility.yul\":11785:11852   */\n      tag_115\n      jump\t// in\n    tag_261:\n        /* \"#utility.yul\":11879:11880   */\n      0x00\n        /* \"#utility.yul\":11903:11907   */\n      0x20\n        /* \"#utility.yul\":11890:11907   */\n      swap1\n      pop\n        /* \"#utility.yul\":11935:11937   */\n      0x1f\n        /* \"#utility.yul\":11927:11933   */\n      dup4\n        /* \"#utility.yul\":11924:11938   */\n      gt\n        /* \"#utility.yul\":11952:11953   */\n      0x01\n        /* \"#utility.yul\":11947:12565   */\n      dup2\n      eq\n      tag_263\n      jumpi\n        /* \"#utility.yul\":12609:12610   */\n      0x00\n        /* \"#utility.yul\":12626:12632   */\n      dup5\n        /* \"#utility.yul\":12623:12700   */\n      iszero\n      tag_264\n      jumpi\n        /* \"#utility.yul\":12675:12684   */\n      dup3\n        /* \"#utility.yul\":12670:12673   */\n      dup8\n        /* \"#utility.yul\":12666:12685   */\n      add\n        /* \"#utility.yul\":12660:12686   */\n      mload\n        /* \"#utility.yul\":12651:12686   */\n      swap1\n      pop\n        /* \"#utility.yul\":12623:12700   */\n    tag_264:\n        /* \"#utility.yul\":12726:12793   */\n      tag_265\n        /* \"#utility.yul\":12786:12792   */\n      dup6\n        /* \"#utility.yul\":12779:12784   */\n      dup3\n        /* \"#utility.yul\":12726:12793   */\n      tag_118\n      jump\t// in\n    tag_265:\n        /* \"#utility.yul\":12720:12724   */\n      dup7\n        /* \"#utility.yul\":12713:12794   */\n      sstore\n        /* \"#utility.yul\":12582:12804   */\n      pop\n        /* \"#utility.yul\":11917:12804   */\n      jump(tag_262)\n        /* \"#utility.yul\":11947:12565   */\n    tag_263:\n        /* \"#utility.yul\":11999:12003   */\n      0x1f\n        /* \"#utility.yul\":11995:12004   */\n      not\n        /* \"#utility.yul\":11987:11993   */\n      dup5\n        /* \"#utility.yul\":11983:12005   */\n      and\n        /* \"#utility.yul\":12033:12070   */\n      tag_266\n        /* \"#utility.yul\":12065:12069   */\n      dup7\n        /* \"#utility.yul\":12033:12070   */\n      tag_104\n      jump\t// in\n    tag_266:\n        /* \"#utility.yul\":12092:12093   */\n      0x00\n        /* \"#utility.yul\":12106:12314   */\n    tag_267:\n        /* \"#utility.yul\":12120:12127   */\n      dup3\n        /* \"#utility.yul\":12117:12118   */\n      dup2\n        /* \"#utility.yul\":12114:12128   */\n      lt\n        /* \"#utility.yul\":12106:12314   */\n      iszero\n      tag_269\n      jumpi\n        /* \"#utility.yul\":12199:12208   */\n      dup5\n        /* \"#utility.yul\":12194:12197   */\n      dup10\n        /* \"#utility.yul\":12190:12209   */\n      add\n        /* \"#utility.yul\":12184:12210   */\n      mload\n        /* \"#utility.yul\":12176:12182   */\n      dup3\n        /* \"#utility.yul\":12169:12211   */\n      sstore\n        /* \"#utility.yul\":12250:12251   */\n      0x01\n        /* \"#utility.yul\":12242:12248   */\n      dup3\n        /* \"#utility.yul\":12238:12252   */\n      add\n        /* \"#utility.yul\":12228:12252   */\n      swap2\n      pop\n        /* \"#utility.yul\":12297:12299   */\n      0x20\n        /* \"#utility.yul\":12286:12295   */\n      dup6\n        /* \"#utility.yul\":12282:12300   */\n      add\n        /* \"#utility.yul\":12269:12300   */\n      swap5\n      pop\n        /* \"#utility.yul\":12143:12147   */\n      0x20\n        /* \"#utility.yul\":12140:12141   */\n      dup2\n        /* \"#utility.yul\":12136:12148   */\n      add\n        /* \"#utility.yul\":12131:12148   */\n      swap1\n      pop\n        /* \"#utility.yul\":12106:12314   */\n      jump(tag_267)\n    tag_269:\n        /* \"#utility.yul\":12342:12348   */\n      dup7\n        /* \"#utility.yul\":12333:12340   */\n      dup4\n        /* \"#utility.yul\":12330:12349   */\n      lt\n        /* \"#utility.yul\":12327:12506   */\n      iszero\n      tag_270\n      jumpi\n        /* \"#utility.yul\":12400:12409   */\n      dup5\n        /* \"#utility.yul\":12395:12398   */\n      dup10\n        /* \"#utility.yul\":12391:12410   */\n      add\n        /* \"#utility.yul\":12385:12411   */\n      mload\n        /* \"#utility.yul\":12443:12491   */\n      tag_271\n        /* \"#utility.yul\":12485:12489   */\n      0x1f\n        /* \"#utility.yul\":12477:12483   */\n      dup10\n        /* \"#utility.yul\":12473:12490   */\n      and\n        /* \"#utility.yul\":12462:12471   */\n      dup3\n        /* \"#utility.yul\":12443:12491   */\n      tag_117\n      jump\t// in\n    tag_271:\n        /* \"#utility.yul\":12435:12441   */\n      dup4\n        /* \"#utility.yul\":12428:12492   */\n      sstore\n        /* \"#utility.yul\":12350:12506   */\n      pop\n        /* \"#utility.yul\":12327:12506   */\n    tag_270:\n        /* \"#utility.yul\":12552:12553   */\n      0x01\n        /* \"#utility.yul\":12548:12549   */\n      0x02\n        /* \"#utility.yul\":12540:12546   */\n      dup9\n        /* \"#utility.yul\":12536:12550   */\n      mul\n        /* \"#utility.yul\":12532:12554   */\n      add\n        /* \"#utility.yul\":12526:12530   */\n      dup9\n        /* \"#utility.yul\":12519:12555   */\n      sstore\n        /* \"#utility.yul\":11954:12565   */\n      pop\n      pop\n      pop\n        /* \"#utility.yul\":11917:12804   */\n    tag_262:\n      pop\n        /* \"#utility.yul\":11507:12810   */\n      pop\n      pop\n      pop\n        /* \"#utility.yul\":11415:12810   */\n      pop\n      pop\n      jump\t// out\n        /* \"#utility.yul\":12816:13038   */\n    tag_119:\n        /* \"#utility.yul\":12956:12990   */\n      0x446f63746f722069732066756c6c7920626f6f6b656420666f72207468652064\n        /* \"#utility.yul\":12952:12953   */\n      0x00\n        /* \"#utility.yul\":12944:12950   */\n      dup3\n        /* \"#utility.yul\":12940:12954   */\n      add\n        /* \"#utility.yul\":12933:12991   */\n      mstore\n        /* \"#utility.yul\":13025:13030   */\n      0x61792e0000000000000000000000000000000000000000000000000000000000\n        /* \"#utility.yul\":13020:13022   */\n      0x20\n        /* \"#utility.yul\":13012:13018   */\n      dup3\n        /* \"#utility.yul\":13008:13023   */\n      add\n        /* \"#utility.yul\":13001:13031   */\n      mstore\n        /* \"#utility.yul\":12816:13038   */\n      pop\n      jump\t// out\n        /* \"#utility.yul\":13044:13410   */\n    tag_120:\n        /* \"#utility.yul\":13186:13189   */\n      0x00\n        /* \"#utility.yul\":13207:13274   */\n      tag_274\n        /* \"#utility.yul\":13271:13273   */\n      0x23\n        /* \"#utility.yul\":13266:13269   */\n      dup4\n        /* \"#utility.yul\":13207:13274   */\n      tag_95\n      jump\t// in\n    tag_274:\n        /* \"#utility.yul\":13200:13274   */\n      swap2\n      pop\n        /* \"#utility.yul\":13283:13376   */\n      tag_275\n        /* \"#utility.yul\":13372:13375   */\n      dup3\n        /* \"#utility.yul\":13283:13376   */\n      tag_119\n      jump\t// in\n    tag_275:\n        /* \"#utility.yul\":13401:13403   */\n      0x40\n        /* \"#utility.yul\":13396:13399   */\n      dup3\n        /* \"#utility.yul\":13392:13404   */\n      add\n        /* \"#utility.yul\":13385:13404   */\n      swap1\n      pop\n        /* \"#utility.yul\":13044:13410   */\n      swap2\n      swap1\n      pop\n      jump\t// out\n        /* \"#utility.yul\":13416:13835   */\n    tag_50:\n        /* \"#utility.yul\":13582:13586   */\n      0x00\n        /* \"#utility.yul\":13620:13622   */\n      0x20\n        /* \"#utility.yul\":13609:13618   */\n      dup3\n        /* \"#utility.yul\":13605:13623   */\n      add\n        /* \"#utility.yul\":13597:13623   */\n      swap1\n      pop\n        /* \"#utility.yul\":13669:13678   */\n      dup2\n        /* \"#utility.yul\":13663:13667   */\n      dup2\n        /* \"#utility.yul\":13659:13679   */\n      sub\n        /* \"#utility.yul\":13655:13656   */\n      0x00\n        /* \"#utility.yul\":13644:13653   */\n      dup4\n        /* \"#utility.yul\":13640:13657   */\n      add\n        /* \"#utility.yul\":13633:13680   */\n      mstore\n        /* \"#utility.yul\":13697:13828   */\n      tag_277\n        /* \"#utility.yul\":13823:13827   */\n      dup2\n        /* \"#utility.yul\":13697:13828   */\n      tag_120\n      jump\t// in\n    tag_277:\n        /* \"#utility.yul\":13689:13828   */\n      swap1\n      pop\n        /* \"#utility.yul\":13416:13835   */\n      swap2\n      swap1\n      pop\n      jump\t// out\n        /* \"#utility.yul\":13841:14021   */\n    tag_53:\n        /* \"#utility.yul\":13889:13966   */\n      0x4e487b7100000000000000000000000000000000000000000000000000000000\n        /* \"#utility.yul\":13886:13887   */\n      0x00\n        /* \"#utility.yul\":13879:13967   */\n      mstore\n        /* \"#utility.yul\":13986:13990   */\n      0x21\n        /* \"#utility.yul\":13983:13984   */\n      0x04\n        /* \"#utility.yul\":13976:13991   */\n      mstore\n        /* \"#utility.yul\":14010:14014   */\n      0x24\n        /* \"#utility.yul\":14007:14008   */\n      0x00\n        /* \"#utility.yul\":14000:14015   */\n      revert\n        /* \"#utility.yul\":14027:14256   */\n    tag_121:\n        /* \"#utility.yul\":14167:14201   */\n      0x4170706f696e746d656e7420616c726561647920626f6f6b6564206f7220756e\n        /* \"#utility.yul\":14163:14164   */\n      0x00\n        /* \"#utility.yul\":14155:14161   */\n      dup3\n        /* \"#utility.yul\":14151:14165   */\n      add\n        /* \"#utility.yul\":14144:14202   */\n      mstore\n        /* \"#utility.yul\":14236:14248   */\n      0x617661696c61626c652e00000000000000000000000000000000000000000000\n        /* \"#utility.yul\":14231:14233   */\n      0x20\n        /* \"#utility.yul\":14223:14229   */\n      dup3\n        /* \"#utility.yul\":14219:14234   */\n      add\n        /* \"#utility.yul\":14212:14249   */\n      mstore\n        /* \"#utility.yul\":14027:14256   */\n      pop\n      jump\t// out\n        /* \"#utility.yul\":14262:14628   */\n    tag_122:\n        /* \"#utility.yul\":14404:14407   */\n      0x00\n        /* \"#utility.yul\":14425:14492   */\n      tag_281\n        /* \"#utility.yul\":14489:14491   */\n      0x2a\n        /* \"#utility.yul\":14484:14487   */\n      dup4\n        /* \"#utility.yul\":14425:14492   */\n      tag_95\n      jump\t// in\n    tag_281:\n        /* \"#utility.yul\":14418:14492   */\n      swap2\n      pop\n        /* \"#utility.yul\":14501:14594   */\n      tag_282\n        /* \"#utility.yul\":14590:14593   */\n      dup3\n        /* \"#utility.yul\":14501:14594   */\n      tag_121\n      jump\t// in\n    tag_282:\n        /* \"#utility.yul\":14619:14621   */\n      0x40\n        /* \"#utility.yul\":14614:14617   */\n      dup3\n        /* \"#utility.yul\":14610:14622   */\n      add\n        /* \"#utility.yul\":14603:14622   */\n      swap1\n      pop\n        /* \"#utility.yul\":14262:14628   */\n      swap2\n      swap1\n      pop\n      jump\t// out\n        /* \"#utility.yul\":14634:15053   */\n    tag_58:\n        /* \"#utility.yul\":14800:14804   */\n      0x00\n        /* \"#utility.yul\":14838:14840   */\n      0x20\n        /* \"#utility.yul\":14827:14836   */\n      dup3\n        /* \"#utility.yul\":14823:14841   */\n      add\n        /* \"#utility.yul\":14815:14841   */\n      swap1\n      pop\n        /* \"#utility.yul\":14887:14896   */\n      dup2\n        /* \"#utility.yul\":14881:14885   */\n      dup2\n        /* \"#utility.yul\":14877:14897   */\n      sub\n        /* \"#utility.yul\":14873:14874   */\n      0x00\n        /* \"#utility.yul\":14862:14871   */\n      dup4\n        /* \"#utility.yul\":14858:14875   */\n      add\n        /* \"#utility.yul\":14851:14898   */\n      mstore\n        /* \"#utility.yul\":14915:15046   */\n      tag_284\n        /* \"#utility.yul\":15041:15045   */\n      dup2\n        /* \"#utility.yul\":14915:15046   */\n      tag_122\n      jump\t// in\n    tag_284:\n        /* \"#utility.yul\":14907:15046   */\n      swap1\n      pop\n        /* \"#utility.yul\":14634:15053   */\n      swap2\n      swap1\n      pop\n      jump\t// out\n        /* \"#utility.yul\":15059:15239   */\n    tag_123:\n        /* \"#utility.yul\":15107:15184   */\n      0x4e487b7100000000000000000000000000000000000000000000000000000000\n        /* \"#utility.yul\":15104:15105   */\n      0x00\n        /* \"#utility.yul\":15097:15185   */\n      mstore\n        /* \"#utility.yul\":15204:15208   */\n      0x11\n        /* \"#utility.yul\":15201:15202   */\n      0x04\n        /* \"#utility.yul\":15194:15209   */\n      mstore\n        /* \"#utility.yul\":15228:15232   */\n      0x24\n        /* \"#utility.yul\":15225:15226   */\n      0x00\n        /* \"#utility.yul\":15218:15233   */\n      revert\n        /* \"#utility.yul\":15245:15478   */\n    tag_60:\n        /* \"#utility.yul\":15284:15287   */\n      0x00\n        /* \"#utility.yul\":15307:15331   */\n      tag_287\n        /* \"#utility.yul\":15325:15330   */\n      dup3\n        /* \"#utility.yul\":15307:15331   */\n      tag_92\n      jump\t// in\n    tag_287:\n        /* \"#utility.yul\":15298:15331   */\n      swap2\n      pop\n        /* \"#utility.yul\":15353:15419   */\n      0xffffffffffffffffffffffffffffffffffffffffffffffffffffffffffffffff\n        /* \"#utility.yul\":15346:15351   */\n      dup3\n        /* \"#utility.yul\":15343:15420   */\n      sub\n        /* \"#utility.yul\":15340:15443   */\n      tag_288\n      jumpi\n        /* \"#utility.yul\":15423:15441   */\n      tag_289\n      tag_123\n      jump\t// in\n    tag_289:\n        /* \"#utility.yul\":15340:15443   */\n    tag_288:\n        /* \"#utility.yul\":15470:15471   */\n      0x01\n        /* \"#utility.yul\":15463:15468   */\n      dup3\n        /* \"#utility.yul\":15459:15472   */\n      add\n        /* \"#utility.yul\":15452:15472   */\n      swap1\n      pop\n        /* \"#utility.yul\":15245:15478   */\n      swap2\n      swap1\n      pop\n      jump\t// out\n        /* \"#utility.yul\":15484:15709   */\n    tag_124:\n        /* \"#utility.yul\":15624:15658   */\n      0x4e6f206170706f696e746d656e7420666f756e6420666f722063616e63656c6c\n        /* \"#utility.yul\":15620:15621   */\n      0x00\n        /* \"#utility.yul\":15612:15618   */\n      dup3\n        /* \"#utility.yul\":15608:15622   */\n      add\n        /* \"#utility.yul\":15601:15659   */\n      mstore\n        /* \"#utility.yul\":15693:15701   */\n      0x6174696f6e2e0000000000000000000000000000000000000000000000000000\n        /* \"#utility.yul\":15688:15690   */\n      0x20\n        /* \"#utility.yul\":15680:15686   */\n      dup3\n        /* \"#utility.yul\":15676:15691   */\n      add\n        /* \"#utility.yul\":15669:15702   */\n      mstore\n        /* \"#utility.yul\":15484:15709   */\n      pop\n      jump\t// out\n        /* \"#utility.yul\":15715:16081   */\n    tag_125:\n        /* \"#utility.yul\":15857:15860   */\n      0x00\n        /* \"#utility.yul\":15878:15945   */\n      tag_292\n        /* \"#utility.yul\":15942:15944   */\n      0x26\n        /* \"#utility.yul\":15937:15940   */\n      dup4\n        /* \"#utility.yul\":15878:15945   */\n      tag_95\n      jump\t// in\n    tag_292:\n        /* \"#utility.yul\":15871:15945   */\n      swap2\n      pop\n        /* \"#utility.yul\":15954:16047   */\n      tag_293\n        /* \"#utility.yul\":16043:16046   */\n      dup3\n        /* \"#utility.yul\":15954:16047   */\n      tag_124\n      jump\t// in\n    tag_293:\n        /* \"#utility.yul\":16072:16074   */\n      0x40\n        /* \"#utility.yul\":16067:16070   */\n      dup3\n        /* \"#utility.yul\":16063:16075   */\n      add\n        /* \"#utility.yul\":16056:16075   */\n      swap1\n      pop\n        /* \"#utility.yul\":15715:16081   */\n      swap2\n      swap1\n      pop\n      jump\t// out\n        /* \"#utility.yul\":16087:16506   */\n    tag_70:\n        /* \"#utility.yul\":16253:16257   */\n      0x00\n        /* \"#utility.yul\":16291:16293   */\n      0x20\n        /* \"#utility.yul\":16280:16289   */\n      dup3\n        /* \"#utility.yul\":16276:16294   */\n      add\n        /* \"#utility.yul\":16268:16294   */\n      swap1\n      pop\n        /* \"#utility.yul\":16340:16349   */\n      dup2\n        /* \"#utility.yul\":16334:16338   */\n      dup2\n        /* \"#utility.yul\":16330:16350   */\n      sub\n        /* \"#utility.yul\":16326:16327   */\n      0x00\n        /* \"#utility.yul\":16315:16324   */\n      dup4\n        /* \"#utility.yul\":16311:16328   */\n      add\n        /* \"#utility.yul\":16304:16351   */\n      mstore\n        /* \"#utility.yul\":16368:16499   */\n      tag_295\n        /* \"#utility.yul\":16494:16498   */\n      dup2\n        /* \"#utility.yul\":16368:16499   */\n      tag_125\n      jump\t// in\n    tag_295:\n        /* \"#utility.yul\":16360:16499   */\n      swap1\n      pop\n        /* \"#utility.yul\":16087:16506   */\n      swap2\n      swap1\n      pop\n      jump\t// out\n        /* \"#utility.yul\":16512:16683   */\n    tag_72:\n        /* \"#utility.yul\":16551:16554   */\n      0x00\n        /* \"#utility.yul\":16574:16598   */\n      tag_297\n        /* \"#utility.yul\":16592:16597   */\n      dup3\n        /* \"#utility.yul\":16574:16598   */\n      tag_92\n      jump\t// in\n    tag_297:\n        /* \"#utility.yul\":16565:16598   */\n      swap2\n      pop\n        /* \"#utility.yul\":16620:16624   */\n      0x00\n        /* \"#utility.yul\":16613:16618   */\n      dup3\n        /* \"#utility.yul\":16610:16625   */\n      sub\n        /* \"#utility.yul\":16607:16648   */\n      tag_298\n      jumpi\n        /* \"#utility.yul\":16628:16646   */\n      tag_299\n      tag_123\n      jump\t// in\n    tag_299:\n        /* \"#utility.yul\":16607:16648   */\n    tag_298:\n        /* \"#utility.yul\":16675:16676   */\n      0x01\n        /* \"#utility.yul\":16668:16673   */\n      dup3\n        /* \"#utility.yul\":16664:16677   */\n      sub\n        /* \"#utility.yul\":16657:16677   */\n      swap1\n      pop\n        /* \"#utility.yul\":16512:16683   */\n      swap2\n      swap1\n      pop\n      jump\t// out\n\n    auxdata: 0xa26469706673582212208eb5a0058c87cb28101d4c692a4d91a444598edf2554f291c69dd168f73abd7864736f6c63430008150033\n}\n",
				"bytecode": {
					"linkReferences": {},
					"object": "608060405234801561000f575f80fd5b506040516200113f3803806200113f833981810160405281019061003391906100b6565b335f806101000a81548173ffffffffffffffffffffffffffffffffffffffff021916908373ffffffffffffffffffffffffffffffffffffffff16021790555080600181905550506100e1565b5f80fd5b5f819050919050565b61009581610083565b811461009f575f80fd5b50565b5f815190506100b08161008c565b92915050565b5f602082840312156100cb576100ca61007f565b5b5f6100d8848285016100a2565b91505092915050565b61105080620000ef5f395ff3fe608060405234801561000f575f80fd5b5060043610610060575f3560e01c80637cf1e445146100645780638a5fdfa714610080578063a9583c221461009e578063eef28996146100cf578063f851a440146100eb578063fa88ab8214610109575b5f80fd5b61007e60048036038101906100799190610863565b610125565b005b610088610248565b60405161009591906108d5565b60405180910390f35b6100b860048036038101906100b391906108ee565b61024e565b6040516100c6929190610993565b60405180910390f35b6100e960048036038101906100e491906109eb565b6102f4565b005b6100f3610509565b6040516101009190610a38565b60405180910390f35b610123600480360381019061011e91906109eb565b61052c565b005b5f8054906101000a900473ffffffffffffffffffffffffffffffffffffffff1673ffffffffffffffffffffffffffffffffffffffff163373ffffffffffffffffffffffffffffffffffffffff16146101b2576040517f08c379a00000000000000000000000000000000000000000000000000000000081526004016101a990610ac1565b60405180910390fd5b8060025f8473ffffffffffffffffffffffffffffffffffffffff1673ffffffffffffffffffffffffffffffffffffffff1681526020019081526020015f205f0190816101fe9190610cd9565b505f60025f8473ffffffffffffffffffffffffffffffffffffffff1673ffffffffffffffffffffffffffffffffffffffff1681526020019081526020015f20600101819055505050565b60015481565b6002602052805f5260405f205f91509050805f01805461026d90610b0c565b80601f016020809104026020016040519081016040528092919081815260200182805461029990610b0c565b80156102e45780601f106102bb576101008083540402835291602001916102e4565b820191905f5260205f20905b8154815290600101906020018083116102c757829003601f168201915b5050505050908060010154905082565b60015460025f8473ffffffffffffffffffffffffffffffffffffffff1673ffffffffffffffffffffffffffffffffffffffff1681526020019081526020015f206001015410610378576040517f08c379a000000000000000000000000000000000000000000000000000000000815260040161036f90610e18565b60405180910390fd5b5f600181111561038b5761038a610e36565b5b60025f8473ffffffffffffffffffffffffffffffffffffffff1673ffffffffffffffffffffffffffffffffffffffff1681526020019081526020015f206002015f8381526020019081526020015f205f9054906101000a900460ff1660018111156103f9576103f8610e36565b5b14610439576040517f08c379a000000000000000000000000000000000000000000000000000000000815260040161043090610ed3565b60405180910390fd5b60025f8373ffffffffffffffffffffffffffffffffffffffff1673ffffffffffffffffffffffffffffffffffffffff1681526020019081526020015f206001015f81548092919061048990610f1e565b9190505550600160025f8473ffffffffffffffffffffffffffffffffffffffff1673ffffffffffffffffffffffffffffffffffffffff1681526020019081526020015f206002015f8381526020019081526020015f205f6101000a81548160ff02191690836001811115610500576104ff610e36565b5b02179055505050565b5f8054906101000a900473ffffffffffffffffffffffffffffffffffffffff1681565b60018081111561053f5761053e610e36565b5b60025f8473ffffffffffffffffffffffffffffffffffffffff1673ffffffffffffffffffffffffffffffffffffffff1681526020019081526020015f206002015f8381526020019081526020015f205f9054906101000a900460ff1660018111156105ad576105ac610e36565b5b146105ed576040517f08c379a00000000000000000000000000000000000000000000000000000000081526004016105e490610fd5565b60405180910390fd5b60025f8373ffffffffffffffffffffffffffffffffffffffff1673ffffffffffffffffffffffffffffffffffffffff1681526020019081526020015f206001015f81548092919061063d90610ff3565b91905055505f60025f8473ffffffffffffffffffffffffffffffffffffffff1673ffffffffffffffffffffffffffffffffffffffff1681526020019081526020015f206002015f8381526020019081526020015f205f6101000a81548160ff021916908360018111156106b3576106b2610e36565b5b02179055505050565b5f604051905090565b5f80fd5b5f80fd5b5f73ffffffffffffffffffffffffffffffffffffffff82169050919050565b5f6106f6826106cd565b9050919050565b610706816106ec565b8114610710575f80fd5b50565b5f81359050610721816106fd565b92915050565b5f80fd5b5f80fd5b5f601f19601f8301169050919050565b7f4e487b71000000000000000000000000000000000000000000000000000000005f52604160045260245ffd5b6107758261072f565b810181811067ffffffffffffffff821117156107945761079361073f565b5b80604052505050565b5f6107a66106bc565b90506107b2828261076c565b919050565b5f67ffffffffffffffff8211156107d1576107d061073f565b5b6107da8261072f565b9050602081019050919050565b828183375f83830152505050565b5f610807610802846107b7565b61079d565b9050828152602081018484840111156108235761082261072b565b5b61082e8482856107e7565b509392505050565b5f82601f83011261084a57610849610727565b5b813561085a8482602086016107f5565b91505092915050565b5f8060408385031215610879576108786106c5565b5b5f61088685828601610713565b925050602083013567ffffffffffffffff8111156108a7576108a66106c9565b5b6108b385828601610836565b9150509250929050565b5f819050919050565b6108cf816108bd565b82525050565b5f6020820190506108e85f8301846108c6565b92915050565b5f60208284031215610903576109026106c5565b5b5f61091084828501610713565b91505092915050565b5f81519050919050565b5f82825260208201905092915050565b5f5b83811015610950578082015181840152602081019050610935565b5f8484015250505050565b5f61096582610919565b61096f8185610923565b935061097f818560208601610933565b6109888161072f565b840191505092915050565b5f6040820190508181035f8301526109ab818561095b565b90506109ba60208301846108c6565b9392505050565b6109ca816108bd565b81146109d4575f80fd5b50565b5f813590506109e5816109c1565b92915050565b5f8060408385031215610a0157610a006106c5565b5b5f610a0e85828601610713565b9250506020610a1f858286016109d7565b9150509250929050565b610a32816106ec565b82525050565b5f602082019050610a4b5f830184610a29565b92915050565b7f4f6e6c792061646d696e2063616e2063616c6c20746869732066756e6374696f5f8201527f6e2e000000000000000000000000000000000000000000000000000000000000602082015250565b5f610aab602283610923565b9150610ab682610a51565b604082019050919050565b5f6020820190508181035f830152610ad881610a9f565b9050919050565b7f4e487b71000000000000000000000000000000000000000000000000000000005f52602260045260245ffd5b5f6002820490506001821680610b2357607f821691505b602082108103610b3657610b35610adf565b5b50919050565b5f819050815f5260205f209050919050565b5f6020601f8301049050919050565b5f82821b905092915050565b5f60088302610b987fffffffffffffffffffffffffffffffffffffffffffffffffffffffffffffffff82610b5d565b610ba28683610b5d565b95508019841693508086168417925050509392505050565b5f819050919050565b5f610bdd610bd8610bd3846108bd565b610bba565b6108bd565b9050919050565b5f819050919050565b610bf683610bc3565b610c0a610c0282610be4565b848454610b69565b825550505050565b5f90565b610c1e610c12565b610c29818484610bed565b505050565b5b81811015610c4c57610c415f82610c16565b600181019050610c2f565b5050565b601f821115610c9157610c6281610b3c565b610c6b84610b4e565b81016020851015610c7a578190505b610c8e610c8685610b4e565b830182610c2e565b50505b505050565b5f82821c905092915050565b5f610cb15f1984600802610c96565b1980831691505092915050565b5f610cc98383610ca2565b9150826002028217905092915050565b610ce282610919565b67ffffffffffffffff811115610cfb57610cfa61073f565b5b610d058254610b0c565b610d10828285610c50565b5f60209050601f831160018114610d41575f8415610d2f578287015190505b610d398582610cbe565b865550610da0565b601f198416610d4f86610b3c565b5f5b82811015610d7657848901518255600182019150602085019450602081019050610d51565b86831015610d935784890151610d8f601f891682610ca2565b8355505b6001600288020188555050505b505050505050565b7f446f63746f722069732066756c6c7920626f6f6b656420666f722074686520645f8201527f61792e0000000000000000000000000000000000000000000000000000000000602082015250565b5f610e02602383610923565b9150610e0d82610da8565b604082019050919050565b5f6020820190508181035f830152610e2f81610df6565b9050919050565b7f4e487b71000000000000000000000000000000000000000000000000000000005f52602160045260245ffd5b7f4170706f696e746d656e7420616c726561647920626f6f6b6564206f7220756e5f8201527f617661696c61626c652e00000000000000000000000000000000000000000000602082015250565b5f610ebd602a83610923565b9150610ec882610e63565b604082019050919050565b5f6020820190508181035f830152610eea81610eb1565b9050919050565b7f4e487b71000000000000000000000000000000000000000000000000000000005f52601160045260245ffd5b5f610f28826108bd565b91507fffffffffffffffffffffffffffffffffffffffffffffffffffffffffffffffff8203610f5a57610f59610ef1565b5b600182019050919050565b7f4e6f206170706f696e746d656e7420666f756e6420666f722063616e63656c6c5f8201527f6174696f6e2e0000000000000000000000000000000000000000000000000000602082015250565b5f610fbf602683610923565b9150610fca82610f65565b604082019050919050565b5f6020820190508181035f830152610fec81610fb3565b9050919050565b5f610ffd826108bd565b91505f820361100f5761100e610ef1565b5b60018203905091905056fea26469706673582212208eb5a0058c87cb28101d4c692a4d91a444598edf2554f291c69dd168f73abd7864736f6c63430008150033",
					"opcodes": "PUSH1 0x80 PUSH1 0x40 MSTORE CALLVALUE DUP1 ISZERO PUSH2 0xF JUMPI PUSH0 DUP1 REVERT JUMPDEST POP PUSH1 0x40 MLOAD PUSH3 0x113F CODESIZE SUB DUP1 PUSH3 0x113F DUP4 CODECOPY DUP2 DUP2 ADD PUSH1 0x40 MSTORE DUP2 ADD SWAP1 PUSH2 0x33 SWAP2 SWAP1 PUSH2 0xB6 JUMP JUMPDEST CALLER PUSH0 DUP1 PUSH2 0x100 EXP DUP2 SLOAD DUP2 PUSH20 0xFFFFFFFFFFFFFFFFFFFFFFFFFFFFFFFFFFFFFFFF MUL NOT AND SWAP1 DUP4 PUSH20 0xFFFFFFFFFFFFFFFFFFFFFFFFFFFFFFFFFFFFFFFF AND MUL OR SWAP1 SSTORE POP DUP1 PUSH1 0x1 DUP2 SWAP1 SSTORE POP POP PUSH2 0xE1 JUMP JUMPDEST PUSH0 DUP1 REVERT JUMPDEST PUSH0 DUP2 SWAP1 POP SWAP2 SWAP1 POP JUMP JUMPDEST PUSH2 0x95 DUP2 PUSH2 0x83 JUMP JUMPDEST DUP2 EQ PUSH2 0x9F JUMPI PUSH0 DUP1 REVERT JUMPDEST POP JUMP JUMPDEST PUSH0 DUP2 MLOAD SWAP1 POP PUSH2 0xB0 DUP2 PUSH2 0x8C JUMP JUMPDEST SWAP3 SWAP2 POP POP JUMP JUMPDEST PUSH0 PUSH1 0x20 DUP3 DUP5 SUB SLT ISZERO PUSH2 0xCB JUMPI PUSH2 0xCA PUSH2 0x7F JUMP JUMPDEST JUMPDEST PUSH0 PUSH2 0xD8 DUP5 DUP3 DUP6 ADD PUSH2 0xA2 JUMP JUMPDEST SWAP2 POP POP SWAP3 SWAP2 POP POP JUMP JUMPDEST PUSH2 0x1050 DUP1 PUSH3 0xEF PUSH0 CODECOPY PUSH0 RETURN INVALID PUSH1 0x80 PUSH1 0x40 MSTORE CALLVALUE DUP1 ISZERO PUSH2 0xF JUMPI PUSH0 DUP1 REVERT JUMPDEST POP PUSH1 0x4 CALLDATASIZE LT PUSH2 0x60 JUMPI PUSH0 CALLDATALOAD PUSH1 0xE0 SHR DUP1 PUSH4 0x7CF1E445 EQ PUSH2 0x64 JUMPI DUP1 PUSH4 0x8A5FDFA7 EQ PUSH2 0x80 JUMPI DUP1 PUSH4 0xA9583C22 EQ PUSH2 0x9E JUMPI DUP1 PUSH4 0xEEF28996 EQ PUSH2 0xCF JUMPI DUP1 PUSH4 0xF851A440 EQ PUSH2 0xEB JUMPI DUP1 PUSH4 0xFA88AB82 EQ PUSH2 0x109 JUMPI JUMPDEST PUSH0 DUP1 REVERT JUMPDEST PUSH2 0x7E PUSH1 0x4 DUP1 CALLDATASIZE SUB DUP2 ADD SWAP1 PUSH2 0x79 SWAP2 SWAP1 PUSH2 0x863 JUMP JUMPDEST PUSH2 0x125 JUMP JUMPDEST STOP JUMPDEST PUSH2 0x88 PUSH2 0x248 JUMP JUMPDEST PUSH1 0x40 MLOAD PUSH2 0x95 SWAP2 SWAP1 PUSH2 0x8D5 JUMP JUMPDEST PUSH1 0x40 MLOAD DUP1 SWAP2 SUB SWAP1 RETURN JUMPDEST PUSH2 0xB8 PUSH1 0x4 DUP1 CALLDATASIZE SUB DUP2 ADD SWAP1 PUSH2 0xB3 SWAP2 SWAP1 PUSH2 0x8EE JUMP JUMPDEST PUSH2 0x24E JUMP JUMPDEST PUSH1 0x40 MLOAD PUSH2 0xC6 SWAP3 SWAP2 SWAP1 PUSH2 0x993 JUMP JUMPDEST PUSH1 0x40 MLOAD DUP1 SWAP2 SUB SWAP1 RETURN JUMPDEST PUSH2 0xE9 PUSH1 0x4 DUP1 CALLDATASIZE SUB DUP2 ADD SWAP1 PUSH2 0xE4 SWAP2 SWAP1 PUSH2 0x9EB JUMP JUMPDEST PUSH2 0x2F4 JUMP JUMPDEST STOP JUMPDEST PUSH2 0xF3 PUSH2 0x509 JUMP JUMPDEST PUSH1 0x40 MLOAD PUSH2 0x100 SWAP2 SWAP1 PUSH2 0xA38 JUMP JUMPDEST PUSH1 0x40 MLOAD DUP1 SWAP2 SUB SWAP1 RETURN JUMPDEST PUSH2 0x123 PUSH1 0x4 DUP1 CALLDATASIZE SUB DUP2 ADD SWAP1 PUSH2 0x11E SWAP2 SWAP1 PUSH2 0x9EB JUMP JUMPDEST PUSH2 0x52C JUMP JUMPDEST STOP JUMPDEST PUSH0 DUP1 SLOAD SWAP1 PUSH2 0x100 EXP SWAP1 DIV PUSH20 0xFFFFFFFFFFFFFFFFFFFFFFFFFFFFFFFFFFFFFFFF AND PUSH20 0xFFFFFFFFFFFFFFFFFFFFFFFFFFFFFFFFFFFFFFFF AND CALLER PUSH20 0xFFFFFFFFFFFFFFFFFFFFFFFFFFFFFFFFFFFFFFFF AND EQ PUSH2 0x1B2 JUMPI PUSH1 0x40 MLOAD PUSH32 0x8C379A000000000000000000000000000000000000000000000000000000000 DUP2 MSTORE PUSH1 0x4 ADD PUSH2 0x1A9 SWAP1 PUSH2 0xAC1 JUMP JUMPDEST PUSH1 0x40 MLOAD DUP1 SWAP2 SUB SWAP1 REVERT JUMPDEST DUP1 PUSH1 0x2 PUSH0 DUP5 PUSH20 0xFFFFFFFFFFFFFFFFFFFFFFFFFFFFFFFFFFFFFFFF AND PUSH20 0xFFFFFFFFFFFFFFFFFFFFFFFFFFFFFFFFFFFFFFFF AND DUP2 MSTORE PUSH1 0x20 ADD SWAP1 DUP2 MSTORE PUSH1 0x20 ADD PUSH0 KECCAK256 PUSH0 ADD SWAP1 DUP2 PUSH2 0x1FE SWAP2 SWAP1 PUSH2 0xCD9 JUMP JUMPDEST POP PUSH0 PUSH1 0x2 PUSH0 DUP5 PUSH20 0xFFFFFFFFFFFFFFFFFFFFFFFFFFFFFFFFFFFFFFFF AND PUSH20 0xFFFFFFFFFFFFFFFFFFFFFFFFFFFFFFFFFFFFFFFF AND DUP2 MSTORE PUSH1 0x20 ADD SWAP1 DUP2 MSTORE PUSH1 0x20 ADD PUSH0 KECCAK256 PUSH1 0x1 ADD DUP2 SWAP1 SSTORE POP POP POP JUMP JUMPDEST PUSH1 0x1 SLOAD DUP2 JUMP JUMPDEST PUSH1 0x2 PUSH1 0x20 MSTORE DUP1 PUSH0 MSTORE PUSH1 0x40 PUSH0 KECCAK256 PUSH0 SWAP2 POP SWAP1 POP DUP1 PUSH0 ADD DUP1 SLOAD PUSH2 0x26D SWAP1 PUSH2 0xB0C JUMP JUMPDEST DUP1 PUSH1 0x1F ADD PUSH1 0x20 DUP1 SWAP2 DIV MUL PUSH1 0x20 ADD PUSH1 0x40 MLOAD SWAP1 DUP2 ADD PUSH1 0x40 MSTORE DUP1 SWAP3 SWAP2 SWAP1 DUP2 DUP2 MSTORE PUSH1 0x20 ADD DUP3 DUP1 SLOAD PUSH2 0x299 SWAP1 PUSH2 0xB0C JUMP JUMPDEST DUP1 ISZERO PUSH2 0x2E4 JUMPI DUP1 PUSH1 0x1F LT PUSH2 0x2BB JUMPI PUSH2 0x100 DUP1 DUP4 SLOAD DIV MUL DUP4 MSTORE SWAP2 PUSH1 0x20 ADD SWAP2 PUSH2 0x2E4 JUMP JUMPDEST DUP3 ADD SWAP2 SWAP1 PUSH0 MSTORE PUSH1 0x20 PUSH0 KECCAK256 SWAP1 JUMPDEST DUP2 SLOAD DUP2 MSTORE SWAP1 PUSH1 0x1 ADD SWAP1 PUSH1 0x20 ADD DUP1 DUP4 GT PUSH2 0x2C7 JUMPI DUP3 SWAP1 SUB PUSH1 0x1F AND DUP3 ADD SWAP2 JUMPDEST POP POP POP POP POP SWAP1 DUP1 PUSH1 0x1 ADD SLOAD SWAP1 POP DUP3 JUMP JUMPDEST PUSH1 0x1 SLOAD PUSH1 0x2 PUSH0 DUP5 PUSH20 0xFFFFFFFFFFFFFFFFFFFFFFFFFFFFFFFFFFFFFFFF AND PUSH20 0xFFFFFFFFFFFFFFFFFFFFFFFFFFFFFFFFFFFFFFFF AND DUP2 MSTORE PUSH1 0x20 ADD SWAP1 DUP2 MSTORE PUSH1 0x20 ADD PUSH0 KECCAK256 PUSH1 0x1 ADD SLOAD LT PUSH2 0x378 JUMPI PUSH1 0x40 MLOAD PUSH32 0x8C379A000000000000000000000000000000000000000000000000000000000 DUP2 MSTORE PUSH1 0x4 ADD PUSH2 0x36F SWAP1 PUSH2 0xE18 JUMP JUMPDEST PUSH1 0x40 MLOAD DUP1 SWAP2 SUB SWAP1 REVERT JUMPDEST PUSH0 PUSH1 0x1 DUP2 GT ISZERO PUSH2 0x38B JUMPI PUSH2 0x38A PUSH2 0xE36 JUMP JUMPDEST JUMPDEST PUSH1 0x2 PUSH0 DUP5 PUSH20 0xFFFFFFFFFFFFFFFFFFFFFFFFFFFFFFFFFFFFFFFF AND PUSH20 0xFFFFFFFFFFFFFFFFFFFFFFFFFFFFFFFFFFFFFFFF AND DUP2 MSTORE PUSH1 0x20 ADD SWAP1 DUP2 MSTORE PUSH1 0x20 ADD PUSH0 KECCAK256 PUSH1 0x2 ADD PUSH0 DUP4 DUP2 MSTORE PUSH1 0x20 ADD SWAP1 DUP2 MSTORE PUSH1 0x20 ADD PUSH0 KECCAK256 PUSH0 SWAP1 SLOAD SWAP1 PUSH2 0x100 EXP SWAP1 DIV PUSH1 0xFF AND PUSH1 0x1 DUP2 GT ISZERO PUSH2 0x3F9 JUMPI PUSH2 0x3F8 PUSH2 0xE36 JUMP JUMPDEST JUMPDEST EQ PUSH2 0x439 JUMPI PUSH1 0x40 MLOAD PUSH32 0x8C379A000000000000000000000000000000000000000000000000000000000 DUP2 MSTORE PUSH1 0x4 ADD PUSH2 0x430 SWAP1 PUSH2 0xED3 JUMP JUMPDEST PUSH1 0x40 MLOAD DUP1 SWAP2 SUB SWAP1 REVERT JUMPDEST PUSH1 0x2 PUSH0 DUP4 PUSH20 0xFFFFFFFFFFFFFFFFFFFFFFFFFFFFFFFFFFFFFFFF AND PUSH20 0xFFFFFFFFFFFFFFFFFFFFFFFFFFFFFFFFFFFFFFFF AND DUP2 MSTORE PUSH1 0x20 ADD SWAP1 DUP2 MSTORE PUSH1 0x20 ADD PUSH0 KECCAK256 PUSH1 0x1 ADD PUSH0 DUP2 SLOAD DUP1 SWAP3 SWAP2 SWAP1 PUSH2 0x489 SWAP1 PUSH2 0xF1E JUMP JUMPDEST SWAP2 SWAP1 POP SSTORE POP PUSH1 0x1 PUSH1 0x2 PUSH0 DUP5 PUSH20 0xFFFFFFFFFFFFFFFFFFFFFFFFFFFFFFFFFFFFFFFF AND PUSH20 0xFFFFFFFFFFFFFFFFFFFFFFFFFFFFFFFFFFFFFFFF AND DUP2 MSTORE PUSH1 0x20 ADD SWAP1 DUP2 MSTORE PUSH1 0x20 ADD PUSH0 KECCAK256 PUSH1 0x2 ADD PUSH0 DUP4 DUP2 MSTORE PUSH1 0x20 ADD SWAP1 DUP2 MSTORE PUSH1 0x20 ADD PUSH0 KECCAK256 PUSH0 PUSH2 0x100 EXP DUP2 SLOAD DUP2 PUSH1 0xFF MUL NOT AND SWAP1 DUP4 PUSH1 0x1 DUP2 GT ISZERO PUSH2 0x500 JUMPI PUSH2 0x4FF PUSH2 0xE36 JUMP JUMPDEST JUMPDEST MUL OR SWAP1 SSTORE POP POP POP JUMP JUMPDEST PUSH0 DUP1 SLOAD SWAP1 PUSH2 0x100 EXP SWAP1 DIV PUSH20 0xFFFFFFFFFFFFFFFFFFFFFFFFFFFFFFFFFFFFFFFF AND DUP2 JUMP JUMPDEST PUSH1 0x1 DUP1 DUP2 GT ISZERO PUSH2 0x53F JUMPI PUSH2 0x53E PUSH2 0xE36 JUMP JUMPDEST JUMPDEST PUSH1 0x2 PUSH0 DUP5 PUSH20 0xFFFFFFFFFFFFFFFFFFFFFFFFFFFFFFFFFFFFFFFF AND PUSH20 0xFFFFFFFFFFFFFFFFFFFFFFFFFFFFFFFFFFFFFFFF AND DUP2 MSTORE PUSH1 0x20 ADD SWAP1 DUP2 MSTORE PUSH1 0x20 ADD PUSH0 KECCAK256 PUSH1 0x2 ADD PUSH0 DUP4 DUP2 MSTORE PUSH1 0x20 ADD SWAP1 DUP2 MSTORE PUSH1 0x20 ADD PUSH0 KECCAK256 PUSH0 SWAP1 SLOAD SWAP1 PUSH2 0x100 EXP SWAP1 DIV PUSH1 0xFF AND PUSH1 0x1 DUP2 GT ISZERO PUSH2 0x5AD JUMPI PUSH2 0x5AC PUSH2 0xE36 JUMP JUMPDEST JUMPDEST EQ PUSH2 0x5ED JUMPI PUSH1 0x40 MLOAD PUSH32 0x8C379A000000000000000000000000000000000000000000000000000000000 DUP2 MSTORE PUSH1 0x4 ADD PUSH2 0x5E4 SWAP1 PUSH2 0xFD5 JUMP JUMPDEST PUSH1 0x40 MLOAD DUP1 SWAP2 SUB SWAP1 REVERT JUMPDEST PUSH1 0x2 PUSH0 DUP4 PUSH20 0xFFFFFFFFFFFFFFFFFFFFFFFFFFFFFFFFFFFFFFFF AND PUSH20 0xFFFFFFFFFFFFFFFFFFFFFFFFFFFFFFFFFFFFFFFF AND DUP2 MSTORE PUSH1 0x20 ADD SWAP1 DUP2 MSTORE PUSH1 0x20 ADD PUSH0 KECCAK256 PUSH1 0x1 ADD PUSH0 DUP2 SLOAD DUP1 SWAP3 SWAP2 SWAP1 PUSH2 0x63D SWAP1 PUSH2 0xFF3 JUMP JUMPDEST SWAP2 SWAP1 POP SSTORE POP PUSH0 PUSH1 0x2 PUSH0 DUP5 PUSH20 0xFFFFFFFFFFFFFFFFFFFFFFFFFFFFFFFFFFFFFFFF AND PUSH20 0xFFFFFFFFFFFFFFFFFFFFFFFFFFFFFFFFFFFFFFFF AND DUP2 MSTORE PUSH1 0x20 ADD SWAP1 DUP2 MSTORE PUSH1 0x20 ADD PUSH0 KECCAK256 PUSH1 0x2 ADD PUSH0 DUP4 DUP2 MSTORE PUSH1 0x20 ADD SWAP1 DUP2 MSTORE PUSH1 0x20 ADD PUSH0 KECCAK256 PUSH0 PUSH2 0x100 EXP DUP2 SLOAD DUP2 PUSH1 0xFF MUL NOT AND SWAP1 DUP4 PUSH1 0x1 DUP2 GT ISZERO PUSH2 0x6B3 JUMPI PUSH2 0x6B2 PUSH2 0xE36 JUMP JUMPDEST JUMPDEST MUL OR SWAP1 SSTORE POP POP POP JUMP JUMPDEST PUSH0 PUSH1 0x40 MLOAD SWAP1 POP SWAP1 JUMP JUMPDEST PUSH0 DUP1 REVERT JUMPDEST PUSH0 DUP1 REVERT JUMPDEST PUSH0 PUSH20 0xFFFFFFFFFFFFFFFFFFFFFFFFFFFFFFFFFFFFFFFF DUP3 AND SWAP1 POP SWAP2 SWAP1 POP JUMP JUMPDEST PUSH0 PUSH2 0x6F6 DUP3 PUSH2 0x6CD JUMP JUMPDEST SWAP1 POP SWAP2 SWAP1 POP JUMP JUMPDEST PUSH2 0x706 DUP2 PUSH2 0x6EC JUMP JUMPDEST DUP2 EQ PUSH2 0x710 JUMPI PUSH0 DUP1 REVERT JUMPDEST POP JUMP JUMPDEST PUSH0 DUP2 CALLDATALOAD SWAP1 POP PUSH2 0x721 DUP2 PUSH2 0x6FD JUMP JUMPDEST SWAP3 SWAP2 POP POP JUMP JUMPDEST PUSH0 DUP1 REVERT JUMPDEST PUSH0 DUP1 REVERT JUMPDEST PUSH0 PUSH1 0x1F NOT PUSH1 0x1F DUP4 ADD AND SWAP1 POP SWAP2 SWAP1 POP JUMP JUMPDEST PUSH32 0x4E487B7100000000000000000000000000000000000000000000000000000000 PUSH0 MSTORE PUSH1 0x41 PUSH1 0x4 MSTORE PUSH1 0x24 PUSH0 REVERT JUMPDEST PUSH2 0x775 DUP3 PUSH2 0x72F JUMP JUMPDEST DUP2 ADD DUP2 DUP2 LT PUSH8 0xFFFFFFFFFFFFFFFF DUP3 GT OR ISZERO PUSH2 0x794 JUMPI PUSH2 0x793 PUSH2 0x73F JUMP JUMPDEST JUMPDEST DUP1 PUSH1 0x40 MSTORE POP POP POP JUMP JUMPDEST PUSH0 PUSH2 0x7A6 PUSH2 0x6BC JUMP JUMPDEST SWAP1 POP PUSH2 0x7B2 DUP3 DUP3 PUSH2 0x76C JUMP JUMPDEST SWAP2 SWAP1 POP JUMP JUMPDEST PUSH0 PUSH8 0xFFFFFFFFFFFFFFFF DUP3 GT ISZERO PUSH2 0x7D1 JUMPI PUSH2 0x7D0 PUSH2 0x73F JUMP JUMPDEST JUMPDEST PUSH2 0x7DA DUP3 PUSH2 0x72F JUMP JUMPDEST SWAP1 POP PUSH1 0x20 DUP2 ADD SWAP1 POP SWAP2 SWAP1 POP JUMP JUMPDEST DUP3 DUP2 DUP4 CALLDATACOPY PUSH0 DUP4 DUP4 ADD MSTORE POP POP POP JUMP JUMPDEST PUSH0 PUSH2 0x807 PUSH2 0x802 DUP5 PUSH2 0x7B7 JUMP JUMPDEST PUSH2 0x79D JUMP JUMPDEST SWAP1 POP DUP3 DUP2 MSTORE PUSH1 0x20 DUP2 ADD DUP5 DUP5 DUP5 ADD GT ISZERO PUSH2 0x823 JUMPI PUSH2 0x822 PUSH2 0x72B JUMP JUMPDEST JUMPDEST PUSH2 0x82E DUP5 DUP3 DUP6 PUSH2 0x7E7 JUMP JUMPDEST POP SWAP4 SWAP3 POP POP POP JUMP JUMPDEST PUSH0 DUP3 PUSH1 0x1F DUP4 ADD SLT PUSH2 0x84A JUMPI PUSH2 0x849 PUSH2 0x727 JUMP JUMPDEST JUMPDEST DUP2 CALLDATALOAD PUSH2 0x85A DUP5 DUP3 PUSH1 0x20 DUP7 ADD PUSH2 0x7F5 JUMP JUMPDEST SWAP2 POP POP SWAP3 SWAP2 POP POP JUMP JUMPDEST PUSH0 DUP1 PUSH1 0x40 DUP4 DUP6 SUB SLT ISZERO PUSH2 0x879 JUMPI PUSH2 0x878 PUSH2 0x6C5 JUMP JUMPDEST JUMPDEST PUSH0 PUSH2 0x886 DUP6 DUP3 DUP7 ADD PUSH2 0x713 JUMP JUMPDEST SWAP3 POP POP PUSH1 0x20 DUP4 ADD CALLDATALOAD PUSH8 0xFFFFFFFFFFFFFFFF DUP2 GT ISZERO PUSH2 0x8A7 JUMPI PUSH2 0x8A6 PUSH2 0x6C9 JUMP JUMPDEST JUMPDEST PUSH2 0x8B3 DUP6 DUP3 DUP7 ADD PUSH2 0x836 JUMP JUMPDEST SWAP2 POP POP SWAP3 POP SWAP3 SWAP1 POP JUMP JUMPDEST PUSH0 DUP2 SWAP1 POP SWAP2 SWAP1 POP JUMP JUMPDEST PUSH2 0x8CF DUP2 PUSH2 0x8BD JUMP JUMPDEST DUP3 MSTORE POP POP JUMP JUMPDEST PUSH0 PUSH1 0x20 DUP3 ADD SWAP1 POP PUSH2 0x8E8 PUSH0 DUP4 ADD DUP5 PUSH2 0x8C6 JUMP JUMPDEST SWAP3 SWAP2 POP POP JUMP JUMPDEST PUSH0 PUSH1 0x20 DUP3 DUP5 SUB SLT ISZERO PUSH2 0x903 JUMPI PUSH2 0x902 PUSH2 0x6C5 JUMP JUMPDEST JUMPDEST PUSH0 PUSH2 0x910 DUP5 DUP3 DUP6 ADD PUSH2 0x713 JUMP JUMPDEST SWAP2 POP POP SWAP3 SWAP2 POP POP JUMP JUMPDEST PUSH0 DUP2 MLOAD SWAP1 POP SWAP2 SWAP1 POP JUMP JUMPDEST PUSH0 DUP3 DUP3 MSTORE PUSH1 0x20 DUP3 ADD SWAP1 POP SWAP3 SWAP2 POP POP JUMP JUMPDEST PUSH0 JUMPDEST DUP4 DUP2 LT ISZERO PUSH2 0x950 JUMPI DUP1 DUP3 ADD MLOAD DUP2 DUP5 ADD MSTORE PUSH1 0x20 DUP2 ADD SWAP1 POP PUSH2 0x935 JUMP JUMPDEST PUSH0 DUP5 DUP5 ADD MSTORE POP POP POP POP JUMP JUMPDEST PUSH0 PUSH2 0x965 DUP3 PUSH2 0x919 JUMP JUMPDEST PUSH2 0x96F DUP2 DUP6 PUSH2 0x923 JUMP JUMPDEST SWAP4 POP PUSH2 0x97F DUP2 DUP6 PUSH1 0x20 DUP7 ADD PUSH2 0x933 JUMP JUMPDEST PUSH2 0x988 DUP2 PUSH2 0x72F JUMP JUMPDEST DUP5 ADD SWAP2 POP POP SWAP3 SWAP2 POP POP JUMP JUMPDEST PUSH0 PUSH1 0x40 DUP3 ADD SWAP1 POP DUP2 DUP2 SUB PUSH0 DUP4 ADD MSTORE PUSH2 0x9AB DUP2 DUP6 PUSH2 0x95B JUMP JUMPDEST SWAP1 POP PUSH2 0x9BA PUSH1 0x20 DUP4 ADD DUP5 PUSH2 0x8C6 JUMP JUMPDEST SWAP4 SWAP3 POP POP POP JUMP JUMPDEST PUSH2 0x9CA DUP2 PUSH2 0x8BD JUMP JUMPDEST DUP2 EQ PUSH2 0x9D4 JUMPI PUSH0 DUP1 REVERT JUMPDEST POP JUMP JUMPDEST PUSH0 DUP2 CALLDATALOAD SWAP1 POP PUSH2 0x9E5 DUP2 PUSH2 0x9C1 JUMP JUMPDEST SWAP3 SWAP2 POP POP JUMP JUMPDEST PUSH0 DUP1 PUSH1 0x40 DUP4 DUP6 SUB SLT ISZERO PUSH2 0xA01 JUMPI PUSH2 0xA00 PUSH2 0x6C5 JUMP JUMPDEST JUMPDEST PUSH0 PUSH2 0xA0E DUP6 DUP3 DUP7 ADD PUSH2 0x713 JUMP JUMPDEST SWAP3 POP POP PUSH1 0x20 PUSH2 0xA1F DUP6 DUP3 DUP7 ADD PUSH2 0x9D7 JUMP JUMPDEST SWAP2 POP POP SWAP3 POP SWAP3 SWAP1 POP JUMP JUMPDEST PUSH2 0xA32 DUP2 PUSH2 0x6EC JUMP JUMPDEST DUP3 MSTORE POP POP JUMP JUMPDEST PUSH0 PUSH1 0x20 DUP3 ADD SWAP1 POP PUSH2 0xA4B PUSH0 DUP4 ADD DUP5 PUSH2 0xA29 JUMP JUMPDEST SWAP3 SWAP2 POP POP JUMP JUMPDEST PUSH32 0x4F6E6C792061646D696E2063616E2063616C6C20746869732066756E6374696F PUSH0 DUP3 ADD MSTORE PUSH32 0x6E2E000000000000000000000000000000000000000000000000000000000000 PUSH1 0x20 DUP3 ADD MSTORE POP JUMP JUMPDEST PUSH0 PUSH2 0xAAB PUSH1 0x22 DUP4 PUSH2 0x923 JUMP JUMPDEST SWAP2 POP PUSH2 0xAB6 DUP3 PUSH2 0xA51 JUMP JUMPDEST PUSH1 0x40 DUP3 ADD SWAP1 POP SWAP2 SWAP1 POP JUMP JUMPDEST PUSH0 PUSH1 0x20 DUP3 ADD SWAP1 POP DUP2 DUP2 SUB PUSH0 DUP4 ADD MSTORE PUSH2 0xAD8 DUP2 PUSH2 0xA9F JUMP JUMPDEST SWAP1 POP SWAP2 SWAP1 POP JUMP JUMPDEST PUSH32 0x4E487B7100000000000000000000000000000000000000000000000000000000 PUSH0 MSTORE PUSH1 0x22 PUSH1 0x4 MSTORE PUSH1 0x24 PUSH0 REVERT JUMPDEST PUSH0 PUSH1 0x2 DUP3 DIV SWAP1 POP PUSH1 0x1 DUP3 AND DUP1 PUSH2 0xB23 JUMPI PUSH1 0x7F DUP3 AND SWAP2 POP JUMPDEST PUSH1 0x20 DUP3 LT DUP2 SUB PUSH2 0xB36 JUMPI PUSH2 0xB35 PUSH2 0xADF JUMP JUMPDEST JUMPDEST POP SWAP2 SWAP1 POP JUMP JUMPDEST PUSH0 DUP2 SWAP1 POP DUP2 PUSH0 MSTORE PUSH1 0x20 PUSH0 KECCAK256 SWAP1 POP SWAP2 SWAP1 POP JUMP JUMPDEST PUSH0 PUSH1 0x20 PUSH1 0x1F DUP4 ADD DIV SWAP1 POP SWAP2 SWAP1 POP JUMP JUMPDEST PUSH0 DUP3 DUP3 SHL SWAP1 POP SWAP3 SWAP2 POP POP JUMP JUMPDEST PUSH0 PUSH1 0x8 DUP4 MUL PUSH2 0xB98 PUSH32 0xFFFFFFFFFFFFFFFFFFFFFFFFFFFFFFFFFFFFFFFFFFFFFFFFFFFFFFFFFFFFFFFF DUP3 PUSH2 0xB5D JUMP JUMPDEST PUSH2 0xBA2 DUP7 DUP4 PUSH2 0xB5D JUMP JUMPDEST SWAP6 POP DUP1 NOT DUP5 AND SWAP4 POP DUP1 DUP7 AND DUP5 OR SWAP3 POP POP POP SWAP4 SWAP3 POP POP POP JUMP JUMPDEST PUSH0 DUP2 SWAP1 POP SWAP2 SWAP1 POP JUMP JUMPDEST PUSH0 PUSH2 0xBDD PUSH2 0xBD8 PUSH2 0xBD3 DUP5 PUSH2 0x8BD JUMP JUMPDEST PUSH2 0xBBA JUMP JUMPDEST PUSH2 0x8BD JUMP JUMPDEST SWAP1 POP SWAP2 SWAP1 POP JUMP JUMPDEST PUSH0 DUP2 SWAP1 POP SWAP2 SWAP1 POP JUMP JUMPDEST PUSH2 0xBF6 DUP4 PUSH2 0xBC3 JUMP JUMPDEST PUSH2 0xC0A PUSH2 0xC02 DUP3 PUSH2 0xBE4 JUMP JUMPDEST DUP5 DUP5 SLOAD PUSH2 0xB69 JUMP JUMPDEST DUP3 SSTORE POP POP POP POP JUMP JUMPDEST PUSH0 SWAP1 JUMP JUMPDEST PUSH2 0xC1E PUSH2 0xC12 JUMP JUMPDEST PUSH2 0xC29 DUP2 DUP5 DUP5 PUSH2 0xBED JUMP JUMPDEST POP POP POP JUMP JUMPDEST JUMPDEST DUP2 DUP2 LT ISZERO PUSH2 0xC4C JUMPI PUSH2 0xC41 PUSH0 DUP3 PUSH2 0xC16 JUMP JUMPDEST PUSH1 0x1 DUP2 ADD SWAP1 POP PUSH2 0xC2F JUMP JUMPDEST POP POP JUMP JUMPDEST PUSH1 0x1F DUP3 GT ISZERO PUSH2 0xC91 JUMPI PUSH2 0xC62 DUP2 PUSH2 0xB3C JUMP JUMPDEST PUSH2 0xC6B DUP5 PUSH2 0xB4E JUMP JUMPDEST DUP2 ADD PUSH1 0x20 DUP6 LT ISZERO PUSH2 0xC7A JUMPI DUP2 SWAP1 POP JUMPDEST PUSH2 0xC8E PUSH2 0xC86 DUP6 PUSH2 0xB4E JUMP JUMPDEST DUP4 ADD DUP3 PUSH2 0xC2E JUMP JUMPDEST POP POP JUMPDEST POP POP POP JUMP JUMPDEST PUSH0 DUP3 DUP3 SHR SWAP1 POP SWAP3 SWAP2 POP POP JUMP JUMPDEST PUSH0 PUSH2 0xCB1 PUSH0 NOT DUP5 PUSH1 0x8 MUL PUSH2 0xC96 JUMP JUMPDEST NOT DUP1 DUP4 AND SWAP2 POP POP SWAP3 SWAP2 POP POP JUMP JUMPDEST PUSH0 PUSH2 0xCC9 DUP4 DUP4 PUSH2 0xCA2 JUMP JUMPDEST SWAP2 POP DUP3 PUSH1 0x2 MUL DUP3 OR SWAP1 POP SWAP3 SWAP2 POP POP JUMP JUMPDEST PUSH2 0xCE2 DUP3 PUSH2 0x919 JUMP JUMPDEST PUSH8 0xFFFFFFFFFFFFFFFF DUP2 GT ISZERO PUSH2 0xCFB JUMPI PUSH2 0xCFA PUSH2 0x73F JUMP JUMPDEST JUMPDEST PUSH2 0xD05 DUP3 SLOAD PUSH2 0xB0C JUMP JUMPDEST PUSH2 0xD10 DUP3 DUP3 DUP6 PUSH2 0xC50 JUMP JUMPDEST PUSH0 PUSH1 0x20 SWAP1 POP PUSH1 0x1F DUP4 GT PUSH1 0x1 DUP2 EQ PUSH2 0xD41 JUMPI PUSH0 DUP5 ISZERO PUSH2 0xD2F JUMPI DUP3 DUP8 ADD MLOAD SWAP1 POP JUMPDEST PUSH2 0xD39 DUP6 DUP3 PUSH2 0xCBE JUMP JUMPDEST DUP7 SSTORE POP PUSH2 0xDA0 JUMP JUMPDEST PUSH1 0x1F NOT DUP5 AND PUSH2 0xD4F DUP7 PUSH2 0xB3C JUMP JUMPDEST PUSH0 JUMPDEST DUP3 DUP2 LT ISZERO PUSH2 0xD76 JUMPI DUP5 DUP10 ADD MLOAD DUP3 SSTORE PUSH1 0x1 DUP3 ADD SWAP2 POP PUSH1 0x20 DUP6 ADD SWAP5 POP PUSH1 0x20 DUP2 ADD SWAP1 POP PUSH2 0xD51 JUMP JUMPDEST DUP7 DUP4 LT ISZERO PUSH2 0xD93 JUMPI DUP5 DUP10 ADD MLOAD PUSH2 0xD8F PUSH1 0x1F DUP10 AND DUP3 PUSH2 0xCA2 JUMP JUMPDEST DUP4 SSTORE POP JUMPDEST PUSH1 0x1 PUSH1 0x2 DUP9 MUL ADD DUP9 SSTORE POP POP POP JUMPDEST POP POP POP POP POP POP JUMP JUMPDEST PUSH32 0x446F63746F722069732066756C6C7920626F6F6B656420666F72207468652064 PUSH0 DUP3 ADD MSTORE PUSH32 0x61792E0000000000000000000000000000000000000000000000000000000000 PUSH1 0x20 DUP3 ADD MSTORE POP JUMP JUMPDEST PUSH0 PUSH2 0xE02 PUSH1 0x23 DUP4 PUSH2 0x923 JUMP JUMPDEST SWAP2 POP PUSH2 0xE0D DUP3 PUSH2 0xDA8 JUMP JUMPDEST PUSH1 0x40 DUP3 ADD SWAP1 POP SWAP2 SWAP1 POP JUMP JUMPDEST PUSH0 PUSH1 0x20 DUP3 ADD SWAP1 POP DUP2 DUP2 SUB PUSH0 DUP4 ADD MSTORE PUSH2 0xE2F DUP2 PUSH2 0xDF6 JUMP JUMPDEST SWAP1 POP SWAP2 SWAP1 POP JUMP JUMPDEST PUSH32 0x4E487B7100000000000000000000000000000000000000000000000000000000 PUSH0 MSTORE PUSH1 0x21 PUSH1 0x4 MSTORE PUSH1 0x24 PUSH0 REVERT JUMPDEST PUSH32 0x4170706F696E746D656E7420616C726561647920626F6F6B6564206F7220756E PUSH0 DUP3 ADD MSTORE PUSH32 0x617661696C61626C652E00000000000000000000000000000000000000000000 PUSH1 0x20 DUP3 ADD MSTORE POP JUMP JUMPDEST PUSH0 PUSH2 0xEBD PUSH1 0x2A DUP4 PUSH2 0x923 JUMP JUMPDEST SWAP2 POP PUSH2 0xEC8 DUP3 PUSH2 0xE63 JUMP JUMPDEST PUSH1 0x40 DUP3 ADD SWAP1 POP SWAP2 SWAP1 POP JUMP JUMPDEST PUSH0 PUSH1 0x20 DUP3 ADD SWAP1 POP DUP2 DUP2 SUB PUSH0 DUP4 ADD MSTORE PUSH2 0xEEA DUP2 PUSH2 0xEB1 JUMP JUMPDEST SWAP1 POP SWAP2 SWAP1 POP JUMP JUMPDEST PUSH32 0x4E487B7100000000000000000000000000000000000000000000000000000000 PUSH0 MSTORE PUSH1 0x11 PUSH1 0x4 MSTORE PUSH1 0x24 PUSH0 REVERT JUMPDEST PUSH0 PUSH2 0xF28 DUP3 PUSH2 0x8BD JUMP JUMPDEST SWAP2 POP PUSH32 0xFFFFFFFFFFFFFFFFFFFFFFFFFFFFFFFFFFFFFFFFFFFFFFFFFFFFFFFFFFFFFFFF DUP3 SUB PUSH2 0xF5A JUMPI PUSH2 0xF59 PUSH2 0xEF1 JUMP JUMPDEST JUMPDEST PUSH1 0x1 DUP3 ADD SWAP1 POP SWAP2 SWAP1 POP JUMP JUMPDEST PUSH32 0x4E6F206170706F696E746D656E7420666F756E6420666F722063616E63656C6C PUSH0 DUP3 ADD MSTORE PUSH32 0x6174696F6E2E0000000000000000000000000000000000000000000000000000 PUSH1 0x20 DUP3 ADD MSTORE POP JUMP JUMPDEST PUSH0 PUSH2 0xFBF PUSH1 0x26 DUP4 PUSH2 0x923 JUMP JUMPDEST SWAP2 POP PUSH2 0xFCA DUP3 PUSH2 0xF65 JUMP JUMPDEST PUSH1 0x40 DUP3 ADD SWAP1 POP SWAP2 SWAP1 POP JUMP JUMPDEST PUSH0 PUSH1 0x20 DUP3 ADD SWAP1 POP DUP2 DUP2 SUB PUSH0 DUP4 ADD MSTORE PUSH2 0xFEC DUP2 PUSH2 0xFB3 JUMP JUMPDEST SWAP1 POP SWAP2 SWAP1 POP JUMP JUMPDEST PUSH0 PUSH2 0xFFD DUP3 PUSH2 0x8BD JUMP JUMPDEST SWAP2 POP PUSH0 DUP3 SUB PUSH2 0x100F JUMPI PUSH2 0x100E PUSH2 0xEF1 JUMP JUMPDEST JUMPDEST PUSH1 0x1 DUP3 SUB SWAP1 POP SWAP2 SWAP1 POP JUMP INVALID LOG2 PUSH5 0x6970667358 0x22 SLT KECCAK256 DUP15 0xB5 LOG0 SDIV DUP13 DUP8 0xCB 0x28 LT SAR 0x4C PUSH10 0x2A4D91A444598EDF2554 CALLCODE SWAP2 0xC6 SWAP14 0xD1 PUSH9 0xF73ABD7864736F6C63 NUMBER STOP ADDMOD ISZERO STOP CALLER "
				},
				"gasEstimates": {
					"creation": {
						"codeDepositCost": "835200",
						"executionCost": "infinite",
						"totalCost": "infinite"
					},
					"external": {
						"addDoctor(address,string)": "infinite",
						"admin()": "2571",
						"bookAppointment(address,uint256)": "infinite",
						"cancelAppointment(address,uint256)": "infinite",
						"doctors(address)": "infinite",
						"maxAppointmentsPerDay()": "2425"
					}
				},
				"methodIdentifiers": {
					"addDoctor(address,string)": "7cf1e445",
					"admin()": "f851a440",
					"bookAppointment(address,uint256)": "eef28996",
					"cancelAppointment(address,uint256)": "fa88ab82",
					"doctors(address)": "a9583c22",
					"maxAppointmentsPerDay()": "8a5fdfa7"
				}
			},
			"storageLayout": {
				"storage": [
					{
						"astId": 3,
						"contract": "contracts/doctors.sol:HospitalBooking",
						"label": "admin",
						"offset": 0,
						"slot": "0",
						"type": "t_address"
					},
					{
						"astId": 5,
						"contract": "contracts/doctors.sol:HospitalBooking",
						"label": "maxAppointmentsPerDay",
						"offset": 0,
						"slot": "1",
						"type": "t_uint256"
					},
					{
						"astId": 23,
						"contract": "contracts/doctors.sol:HospitalBooking",
						"label": "doctors",
						"offset": 0,
						"slot": "2",
						"type": "t_mapping(t_address,t_struct(Doctor)18_storage)"
					}
				],
				"types": {
					"t_address": {
						"encoding": "inplace",
						"label": "address",
						"numberOfBytes": "20"
					},
					"t_enum(AppointmentStatus)8": {
						"encoding": "inplace",
						"label": "enum HospitalBooking.AppointmentStatus",
						"numberOfBytes": "1"
					},
					"t_mapping(t_address,t_struct(Doctor)18_storage)": {
						"encoding": "mapping",
						"key": "t_address",
						"label": "mapping(address => struct HospitalBooking.Doctor)",
						"numberOfBytes": "32",
						"value": "t_struct(Doctor)18_storage"
					},
					"t_mapping(t_uint256,t_enum(AppointmentStatus)8)": {
						"encoding": "mapping",
						"key": "t_uint256",
						"label": "mapping(uint256 => enum HospitalBooking.AppointmentStatus)",
						"numberOfBytes": "32",
						"value": "t_enum(AppointmentStatus)8"
					},
					"t_string_storage": {
						"encoding": "bytes",
						"label": "string",
						"numberOfBytes": "32"
					},
					"t_struct(Doctor)18_storage": {
						"encoding": "inplace",
						"label": "struct HospitalBooking.Doctor",
						"members": [
							{
								"astId": 10,
								"contract": "contracts/doctors.sol:HospitalBooking",
								"label": "name",
								"offset": 0,
								"slot": "0",
								"type": "t_string_storage"
							},
							{
								"astId": 12,
								"contract": "contracts/doctors.sol:HospitalBooking",
								"label": "appointmentsCount",
								"offset": 0,
								"slot": "1",
								"type": "t_uint256"
							},
							{
								"astId": 17,
								"contract": "contracts/doctors.sol:HospitalBooking",
								"label": "appointments",
								"offset": 0,
								"slot": "2",
								"type": "t_mapping(t_uint256,t_enum(AppointmentStatus)8)"
							}
						],
						"numberOfBytes": "96"
					},
					"t_uint256": {
						"encoding": "inplace",
						"label": "uint256",
						"numberOfBytes": "32"
					}
				}
			},
			"userdoc": {
				"kind": "user",
				"methods": {},
				"version": 1
			}
		}
	}
}