{
	"contracts/propexchange.sol": {
		"Property": {
			"abi": [
				{
					"inputs": [
						{
							"internalType": "uint256",
							"name": "_maxLand",
							"type": "uint256"
						},
						{
							"internalType": "uint256",
							"name": "_maxAnnualIncome",
							"type": "uint256"
						}
					],
					"stateMutability": "nonpayable",
					"type": "constructor"
				},
				{
					"inputs": [
						{
							"internalType": "address",
							"name": "_add",
							"type": "address"
						},
						{
							"internalType": "uint256",
							"name": "_land",
							"type": "uint256"
						},
						{
							"internalType": "uint256",
							"name": "_annualIncome",
							"type": "uint256"
						}
					],
					"name": "buyLand",
					"outputs": [],
					"stateMutability": "nonpayable",
					"type": "function"
				},
				{
					"inputs": [],
					"name": "contractowner",
					"outputs": [
						{
							"internalType": "address",
							"name": "",
							"type": "address"
						}
					],
					"stateMutability": "view",
					"type": "function"
				},
				{
					"inputs": [
						{
							"internalType": "address",
							"name": "_add",
							"type": "address"
						}
					],
					"name": "eligible",
					"outputs": [
						{
							"internalType": "string",
							"name": "",
							"type": "string"
						}
					],
					"stateMutability": "view",
					"type": "function"
				},
				{
					"inputs": [
						{
							"internalType": "address",
							"name": "_add",
							"type": "address"
						}
					],
					"name": "get",
					"outputs": [
						{
							"internalType": "string",
							"name": "_name",
							"type": "string"
						},
						{
							"internalType": "string",
							"name": "_owner",
							"type": "string"
						},
						{
							"internalType": "uint256",
							"name": "_annualIncome",
							"type": "uint256"
						},
						{
							"internalType": "uint256",
							"name": "_totalLand",
							"type": "uint256"
						}
					],
					"stateMutability": "view",
					"type": "function"
				},
				{
					"inputs": [
						{
							"internalType": "address",
							"name": "",
							"type": "address"
						}
					],
					"name": "property",
					"outputs": [
						{
							"internalType": "string",
							"name": "name",
							"type": "string"
						},
						{
							"internalType": "uint256",
							"name": "totalLand",
							"type": "uint256"
						},
						{
							"internalType": "uint256",
							"name": "annualIncome",
							"type": "uint256"
						},
						{
							"internalType": "string",
							"name": "owner",
							"type": "string"
						}
					],
					"stateMutability": "view",
					"type": "function"
				},
				{
					"inputs": [
						{
							"internalType": "address",
							"name": "_add",
							"type": "address"
						},
						{
							"internalType": "string",
							"name": "_name",
							"type": "string"
						},
						{
							"internalType": "string",
							"name": "_owner",
							"type": "string"
						},
						{
							"internalType": "uint256",
							"name": "annualIncome",
							"type": "uint256"
						},
						{
							"internalType": "uint256",
							"name": "totalLand",
							"type": "uint256"
						}
					],
					"name": "set",
					"outputs": [],
					"stateMutability": "nonpayable",
					"type": "function"
				},
				{
					"inputs": [
						{
							"internalType": "address",
							"name": "_add",
							"type": "address"
						},
						{
							"internalType": "address",
							"name": "_to",
							"type": "address"
						},
						{
							"internalType": "uint256",
							"name": "_land",
							"type": "uint256"
						},
						{
							"internalType": "uint256",
							"name": "_income",
							"type": "uint256"
						},
						{
							"internalType": "string",
							"name": "_newname",
							"type": "string"
						}
					],
					"name": "transfer",
					"outputs": [],
					"stateMutability": "nonpayable",
					"type": "function"
				}
			],
			"devdoc": {
				"kind": "dev",
				"methods": {},
				"version": 1
			},
			"evm": {
				"assembly": "    /* \"contracts/propexchange.sol\":57:2412  contract Property{... */\n  mstore(0x40, 0x80)\n    /* \"contracts/propexchange.sol\":171:338  constructor(uint _maxLand,uint _maxAnnualIncome){... */\n  callvalue\n  dup1\n  iszero\n  tag_1\n  jumpi\n  0x00\n  dup1\n  revert\ntag_1:\n  pop\n  mload(0x40)\n  sub(codesize, bytecodeSize)\n  dup1\n  bytecodeSize\n  dup4\n  codecopy\n  dup2\n  dup2\n  add\n  0x40\n  mstore\n  dup2\n  add\n  swap1\n  tag_2\n  swap2\n  swap1\n  tag_3\n  jump\t// in\ntag_2:\n    /* \"contracts/propexchange.sol\":246:256  msg.sender */\n  caller\n    /* \"contracts/propexchange.sol\":230:243  contractowner */\n  0x00\n  dup1\n    /* \"contracts/propexchange.sol\":230:256  contractowner = msg.sender */\n  0x0100\n  exp\n  dup2\n  sload\n  dup2\n  0xffffffffffffffffffffffffffffffffffffffff\n  mul\n  not\n  and\n  swap1\n  dup4\n  0xffffffffffffffffffffffffffffffffffffffff\n  and\n  mul\n  or\n  swap1\n  sstore\n  pop\n    /* \"contracts/propexchange.sol\":277:285  _maxLand */\n  dup2\n    /* \"contracts/propexchange.sol\":267:274  maxLand */\n  0x01\n    /* \"contracts/propexchange.sol\":267:285  maxLand = _maxLand */\n  dup2\n  swap1\n  sstore\n  pop\n    /* \"contracts/propexchange.sol\":314:330  _maxAnnualIncome */\n  dup1\n    /* \"contracts/propexchange.sol\":296:311  maxAnnualIncome */\n  0x02\n    /* \"contracts/propexchange.sol\":296:330  maxAnnualIncome = _maxAnnualIncome */\n  dup2\n  swap1\n  sstore\n  pop\n    /* \"contracts/propexchange.sol\":171:338  constructor(uint _maxLand,uint _maxAnnualIncome){... */\n  pop\n  pop\n    /* \"contracts/propexchange.sol\":57:2412  contract Property{... */\n  jump(tag_6)\n    /* \"#utility.yul\":88:205   */\ntag_8:\n    /* \"#utility.yul\":197:198   */\n  0x00\n    /* \"#utility.yul\":194:195   */\n  dup1\n    /* \"#utility.yul\":187:199   */\n  revert\n    /* \"#utility.yul\":334:411   */\ntag_10:\n    /* \"#utility.yul\":371:378   */\n  0x00\n    /* \"#utility.yul\":400:405   */\n  dup2\n    /* \"#utility.yul\":389:405   */\n  swap1\n  pop\n    /* \"#utility.yul\":334:411   */\n  swap2\n  swap1\n  pop\n  jump\t// out\n    /* \"#utility.yul\":417:539   */\ntag_11:\n    /* \"#utility.yul\":490:514   */\n  tag_19\n    /* \"#utility.yul\":508:513   */\n  dup2\n    /* \"#utility.yul\":490:514   */\n  tag_10\n  jump\t// in\ntag_19:\n    /* \"#utility.yul\":483:488   */\n  dup2\n    /* \"#utility.yul\":480:515   */\n  eq\n    /* \"#utility.yul\":470:533   */\n  tag_20\n  jumpi\n    /* \"#utility.yul\":529:530   */\n  0x00\n    /* \"#utility.yul\":526:527   */\n  dup1\n    /* \"#utility.yul\":519:531   */\n  revert\n    /* \"#utility.yul\":470:533   */\ntag_20:\n    /* \"#utility.yul\":417:539   */\n  pop\n  jump\t// out\n    /* \"#utility.yul\":545:688   */\ntag_12:\n    /* \"#utility.yul\":602:607   */\n  0x00\n    /* \"#utility.yul\":633:639   */\n  dup2\n    /* \"#utility.yul\":627:640   */\n  mload\n    /* \"#utility.yul\":618:640   */\n  swap1\n  pop\n    /* \"#utility.yul\":649:682   */\n  tag_22\n    /* \"#utility.yul\":676:681   */\n  dup2\n    /* \"#utility.yul\":649:682   */\n  tag_11\n  jump\t// in\ntag_22:\n    /* \"#utility.yul\":545:688   */\n  swap3\n  swap2\n  pop\n  pop\n  jump\t// out\n    /* \"#utility.yul\":694:1201   */\ntag_3:\n    /* \"#utility.yul\":773:779   */\n  0x00\n    /* \"#utility.yul\":781:787   */\n  dup1\n    /* \"#utility.yul\":830:832   */\n  0x40\n    /* \"#utility.yul\":818:827   */\n  dup4\n    /* \"#utility.yul\":809:816   */\n  dup6\n    /* \"#utility.yul\":805:828   */\n  sub\n    /* \"#utility.yul\":801:833   */\n  slt\n    /* \"#utility.yul\":798:917   */\n  iszero\n  tag_24\n  jumpi\n    /* \"#utility.yul\":836:915   */\n  tag_25\n  tag_8\n  jump\t// in\ntag_25:\n    /* \"#utility.yul\":798:917   */\ntag_24:\n    /* \"#utility.yul\":956:957   */\n  0x00\n    /* \"#utility.yul\":981:1045   */\n  tag_26\n    /* \"#utility.yul\":1037:1044   */\n  dup6\n    /* \"#utility.yul\":1028:1034   */\n  dup3\n    /* \"#utility.yul\":1017:1026   */\n  dup7\n    /* \"#utility.yul\":1013:1035   */\n  add\n    /* \"#utility.yul\":981:1045   */\n  tag_12\n  jump\t// in\ntag_26:\n    /* \"#utility.yul\":971:1045   */\n  swap3\n  pop\n    /* \"#utility.yul\":927:1055   */\n  pop\n    /* \"#utility.yul\":1094:1096   */\n  0x20\n    /* \"#utility.yul\":1120:1184   */\n  tag_27\n    /* \"#utility.yul\":1176:1183   */\n  dup6\n    /* \"#utility.yul\":1167:1173   */\n  dup3\n    /* \"#utility.yul\":1156:1165   */\n  dup7\n    /* \"#utility.yul\":1152:1174   */\n  add\n    /* \"#utility.yul\":1120:1184   */\n  tag_12\n  jump\t// in\ntag_27:\n    /* \"#utility.yul\":1110:1184   */\n  swap2\n  pop\n    /* \"#utility.yul\":1065:1194   */\n  pop\n    /* \"#utility.yul\":694:1201   */\n  swap3\n  pop\n  swap3\n  swap1\n  pop\n  jump\t// out\n    /* \"contracts/propexchange.sol\":57:2412  contract Property{... */\ntag_6:\n  dataSize(sub_0)\n  dup1\n  dataOffset(sub_0)\n  0x00\n  codecopy\n  0x00\n  return\nstop\n\nsub_0: assembly {\n        /* \"contracts/propexchange.sol\":57:2412  contract Property{... */\n      mstore(0x40, 0x80)\n      callvalue\n      dup1\n      iszero\n      tag_1\n      jumpi\n      0x00\n      dup1\n      revert\n    tag_1:\n      pop\n      jumpi(tag_2, lt(calldatasize, 0x04))\n      shr(0xe0, calldataload(0x00))\n      dup1\n      0x9dedfc70\n      gt\n      tag_10\n      jumpi\n      dup1\n      0x9dedfc70\n      eq\n      tag_6\n      jumpi\n      dup1\n      0xb4aa4d0d\n      eq\n      tag_7\n      jumpi\n      dup1\n      0xc2bc2efc\n      eq\n      tag_8\n      jumpi\n      dup1\n      0xf5c2b123\n      eq\n      tag_9\n      jumpi\n      jump(tag_2)\n    tag_10:\n      dup1\n      0x0713b139\n      eq\n      tag_3\n      jumpi\n      dup1\n      0x6098c94c\n      eq\n      tag_4\n      jumpi\n      dup1\n      0x9db23f4d\n      eq\n      tag_5\n      jumpi\n    tag_2:\n      0x00\n      dup1\n      revert\n        /* \"contracts/propexchange.sol\":1800:2407  function eligible(address _add) public view returns(string memory){... */\n    tag_3:\n      tag_11\n      0x04\n      dup1\n      calldatasize\n      sub\n      dup2\n      add\n      swap1\n      tag_12\n      swap2\n      swap1\n      tag_13\n      jump\t// in\n    tag_12:\n      tag_14\n      jump\t// in\n    tag_11:\n      mload(0x40)\n      tag_15\n      swap2\n      swap1\n      tag_16\n      jump\t// in\n    tag_15:\n      mload(0x40)\n      dup1\n      swap2\n      sub\n      swap1\n      return\n        /* \"contracts/propexchange.sol\":81:109  address public contractowner */\n    tag_4:\n      tag_17\n      tag_18\n      jump\t// in\n    tag_17:\n      mload(0x40)\n      tag_19\n      swap2\n      swap1\n      tag_20\n      jump\t// in\n    tag_19:\n      mload(0x40)\n      dup1\n      swap2\n      sub\n      swap1\n      return\n        /* \"contracts/propexchange.sol\":1214:1389  function buyLand(address _add,uint _land,uint _annualIncome) public {... */\n    tag_5:\n      tag_21\n      0x04\n      dup1\n      calldatasize\n      sub\n      dup2\n      add\n      swap1\n      tag_22\n      swap2\n      swap1\n      tag_23\n      jump\t// in\n    tag_22:\n      tag_24\n      jump\t// in\n    tag_21:\n      stop\n        /* \"contracts/propexchange.sol\":1395:1794  function transfer(address _add,address _to,uint _land,uint _income,string memory _newname) public{... */\n    tag_6:\n      tag_25\n      0x04\n      dup1\n      calldatasize\n      sub\n      dup2\n      add\n      swap1\n      tag_26\n      swap2\n      swap1\n      tag_27\n      jump\t// in\n    tag_26:\n      tag_28\n      jump\t// in\n    tag_25:\n      stop\n        /* \"contracts/propexchange.sol\":625:918  function set(address _add,string memory _name,string memory _owner, uint annualIncome,uint totalLand) public{... */\n    tag_7:\n      tag_29\n      0x04\n      dup1\n      calldatasize\n      sub\n      dup2\n      add\n      swap1\n      tag_30\n      swap2\n      swap1\n      tag_31\n      jump\t// in\n    tag_30:\n      tag_32\n      jump\t// in\n    tag_29:\n      stop\n        /* \"contracts/propexchange.sol\":924:1208  function get(address _add) public  view returns(string memory _name,string memory _owner,uint _annualIncome,uint _totalLand){... */\n    tag_8:\n      tag_33\n      0x04\n      dup1\n      calldatasize\n      sub\n      dup2\n      add\n      swap1\n      tag_34\n      swap2\n      swap1\n      tag_13\n      jump\t// in\n    tag_34:\n      tag_35\n      jump\t// in\n    tag_33:\n      mload(0x40)\n      tag_36\n      swap5\n      swap4\n      swap3\n      swap2\n      swap1\n      tag_37\n      jump\t// in\n    tag_36:\n      mload(0x40)\n      dup1\n      swap2\n      sub\n      swap1\n      return\n        /* \"contracts/propexchange.sol\":578:618  mapping(address => Land) public property */\n    tag_9:\n      tag_38\n      0x04\n      dup1\n      calldatasize\n      sub\n      dup2\n      add\n      swap1\n      tag_39\n      swap2\n      swap1\n      tag_13\n      jump\t// in\n    tag_39:\n      tag_40\n      jump\t// in\n    tag_38:\n      mload(0x40)\n      tag_41\n      swap5\n      swap4\n      swap3\n      swap2\n      swap1\n      tag_42\n      jump\t// in\n    tag_41:\n      mload(0x40)\n      dup1\n      swap2\n      sub\n      swap1\n      return\n        /* \"contracts/propexchange.sol\":1800:2407  function eligible(address _add) public view returns(string memory){... */\n    tag_14:\n        /* \"contracts/propexchange.sol\":1852:1865  string memory */\n      0x60\n        /* \"contracts/propexchange.sol\":1909:1916  maxLand */\n      sload(0x01)\n        /* \"contracts/propexchange.sol\":1881:1889  property */\n      0x03\n        /* \"contracts/propexchange.sol\":1881:1895  property[_add] */\n      0x00\n        /* \"contracts/propexchange.sol\":1890:1894  _add */\n      dup5\n        /* \"contracts/propexchange.sol\":1881:1895  property[_add] */\n      0xffffffffffffffffffffffffffffffffffffffff\n      and\n      0xffffffffffffffffffffffffffffffffffffffff\n      and\n      dup2\n      mstore\n      0x20\n      add\n      swap1\n      dup2\n      mstore\n      0x20\n      add\n      0x00\n      keccak256\n        /* \"contracts/propexchange.sol\":1881:1905  property[_add].totalLand */\n      0x01\n      add\n      sload\n        /* \"contracts/propexchange.sol\":1881:1916  property[_add].totalLand <= maxLand */\n      gt\n        /* \"contracts/propexchange.sol\":1878:2400  if(property[_add].totalLand <= maxLand){  //\"Your Land is greater than required\");... */\n      tag_44\n      jumpi\n        /* \"contracts/propexchange.sol\":2009:2024  maxAnnualIncome */\n      sload(0x02)\n        /* \"contracts/propexchange.sol\":1978:1986  property */\n      0x03\n        /* \"contracts/propexchange.sol\":1978:1992  property[_add] */\n      0x00\n        /* \"contracts/propexchange.sol\":1987:1991  _add */\n      dup5\n        /* \"contracts/propexchange.sol\":1978:1992  property[_add] */\n      0xffffffffffffffffffffffffffffffffffffffff\n      and\n      0xffffffffffffffffffffffffffffffffffffffff\n      and\n      dup2\n      mstore\n      0x20\n      add\n      swap1\n      dup2\n      mstore\n      0x20\n      add\n      0x00\n      keccak256\n        /* \"contracts/propexchange.sol\":1978:2005  property[_add].annualIncome */\n      0x02\n      add\n      sload\n        /* \"contracts/propexchange.sol\":1978:2024  property[_add].annualIncome <= maxAnnualIncome */\n      gt\n        /* \"contracts/propexchange.sol\":1975:2265  if(property[_add].annualIncome <= maxAnnualIncome){ //\"Your income is greater than maxAnnualincome\");... */\n      tag_45\n      jumpi\n        /* \"contracts/propexchange.sol\":2096:2124  return (\"Your are Eligible\") */\n      mload(0x40)\n      dup1\n      0x40\n      add\n      0x40\n      mstore\n      dup1\n      0x11\n      dup2\n      mstore\n      0x20\n      add\n      0x596f75722061726520456c696769626c65000000000000000000000000000000\n      dup2\n      mstore\n      pop\n      swap1\n      pop\n      jump(tag_43)\n        /* \"contracts/propexchange.sol\":1975:2265  if(property[_add].annualIncome <= maxAnnualIncome){ //\"Your income is greater than maxAnnualincome\");... */\n    tag_45:\n        /* \"contracts/propexchange.sol\":2181:2248  return \"Your income is greater than required, You are not Eligible\" */\n      mload(0x40)\n      dup1\n      0x60\n      add\n      0x40\n      mstore\n      dup1\n      0x3a\n      dup2\n      mstore\n      0x20\n      add\n      data_0ca2f15729f69752c2b5125de0bdc304f054fa14900921cf98bd51c3c741ab45\n      0x3a\n      swap2\n      codecopy\n      swap1\n      pop\n      jump(tag_43)\n        /* \"contracts/propexchange.sol\":1878:2400  if(property[_add].totalLand <= maxLand){  //\"Your Land is greater than required\");... */\n    tag_44:\n        /* \"contracts/propexchange.sol\":2322:2387  return \"Your land is greater than required, You are not Eligible\" */\n      mload(0x40)\n      dup1\n      0x60\n      add\n      0x40\n      mstore\n      dup1\n      0x38\n      dup2\n      mstore\n      0x20\n      add\n      data_d8870fa02eff567749f02e3637269613d5d1b227d5ea4a83fa1bc2c2cacd158d\n      0x38\n      swap2\n      codecopy\n      swap1\n      pop\n        /* \"contracts/propexchange.sol\":1800:2407  function eligible(address _add) public view returns(string memory){... */\n    tag_43:\n      swap2\n      swap1\n      pop\n      jump\t// out\n        /* \"contracts/propexchange.sol\":81:109  address public contractowner */\n    tag_18:\n      0x00\n      dup1\n      sload\n      swap1\n      0x0100\n      exp\n      swap1\n      div\n      0xffffffffffffffffffffffffffffffffffffffff\n      and\n      dup2\n      jump\t// out\n        /* \"contracts/propexchange.sol\":1214:1389  function buyLand(address _add,uint _land,uint _annualIncome) public {... */\n    tag_24:\n        /* \"contracts/propexchange.sol\":1321:1326  _land */\n      dup2\n        /* \"contracts/propexchange.sol\":1293:1301  property */\n      0x03\n        /* \"contracts/propexchange.sol\":1293:1307  property[_add] */\n      0x00\n        /* \"contracts/propexchange.sol\":1302:1306  _add */\n      dup6\n        /* \"contracts/propexchange.sol\":1293:1307  property[_add] */\n      0xffffffffffffffffffffffffffffffffffffffff\n      and\n      0xffffffffffffffffffffffffffffffffffffffff\n      and\n      dup2\n      mstore\n      0x20\n      add\n      swap1\n      dup2\n      mstore\n      0x20\n      add\n      0x00\n      keccak256\n        /* \"contracts/propexchange.sol\":1293:1317  property[_add].totalLand */\n      0x01\n      add\n      0x00\n        /* \"contracts/propexchange.sol\":1293:1326  property[_add].totalLand += _land */\n      dup3\n      dup3\n      sload\n      tag_49\n      swap2\n      swap1\n      tag_50\n      jump\t// in\n    tag_49:\n      swap3\n      pop\n      pop\n      dup2\n      swap1\n      sstore\n      pop\n        /* \"contracts/propexchange.sol\":1368:1381  _annualIncome */\n      dup1\n        /* \"contracts/propexchange.sol\":1337:1345  property */\n      0x03\n        /* \"contracts/propexchange.sol\":1337:1351  property[_add] */\n      0x00\n        /* \"contracts/propexchange.sol\":1346:1350  _add */\n      dup6\n        /* \"contracts/propexchange.sol\":1337:1351  property[_add] */\n      0xffffffffffffffffffffffffffffffffffffffff\n      and\n      0xffffffffffffffffffffffffffffffffffffffff\n      and\n      dup2\n      mstore\n      0x20\n      add\n      swap1\n      dup2\n      mstore\n      0x20\n      add\n      0x00\n      keccak256\n        /* \"contracts/propexchange.sol\":1337:1364  property[_add].annualIncome */\n      0x02\n      add\n      0x00\n        /* \"contracts/propexchange.sol\":1337:1381  property[_add].annualIncome -= _annualIncome */\n      dup3\n      dup3\n      sload\n      tag_51\n      swap2\n      swap1\n      tag_52\n      jump\t// in\n    tag_51:\n      swap3\n      pop\n      pop\n      dup2\n      swap1\n      sstore\n      pop\n        /* \"contracts/propexchange.sol\":1214:1389  function buyLand(address _add,uint _land,uint _annualIncome) public {... */\n      pop\n      pop\n      pop\n      jump\t// out\n        /* \"contracts/propexchange.sol\":1395:1794  function transfer(address _add,address _to,uint _land,uint _income,string memory _newname) public{... */\n    tag_28:\n        /* \"contracts/propexchange.sol\":1538:1543  _land */\n      dup3\n        /* \"contracts/propexchange.sol\":1511:1519  property */\n      0x03\n        /* \"contracts/propexchange.sol\":1511:1525  property[_add] */\n      0x00\n        /* \"contracts/propexchange.sol\":1520:1524  _add */\n      dup8\n        /* \"contracts/propexchange.sol\":1511:1525  property[_add] */\n      0xffffffffffffffffffffffffffffffffffffffff\n      and\n      0xffffffffffffffffffffffffffffffffffffffff\n      and\n      dup2\n      mstore\n      0x20\n      add\n      swap1\n      dup2\n      mstore\n      0x20\n      add\n      0x00\n      keccak256\n        /* \"contracts/propexchange.sol\":1511:1535  property[_add].totalLand */\n      0x01\n      add\n      sload\n        /* \"contracts/propexchange.sol\":1511:1543  property[_add].totalLand > _land */\n      gt\n        /* \"contracts/propexchange.sol\":1503:1587  require(property[_add].totalLand > _land, \"You have no sufficient land to transfer\") */\n      tag_54\n      jumpi\n      mload(0x40)\n      0x08c379a000000000000000000000000000000000000000000000000000000000\n      dup2\n      mstore\n      0x04\n      add\n      tag_55\n      swap1\n      tag_56\n      jump\t// in\n    tag_55:\n      mload(0x40)\n      dup1\n      swap2\n      sub\n      swap1\n      revert\n    tag_54:\n        /* \"contracts/propexchange.sol\":1626:1631  _land */\n      dup3\n        /* \"contracts/propexchange.sol\":1598:1606  property */\n      0x03\n        /* \"contracts/propexchange.sol\":1598:1612  property[_add] */\n      0x00\n        /* \"contracts/propexchange.sol\":1607:1611  _add */\n      dup8\n        /* \"contracts/propexchange.sol\":1598:1612  property[_add] */\n      0xffffffffffffffffffffffffffffffffffffffff\n      and\n      0xffffffffffffffffffffffffffffffffffffffff\n      and\n      dup2\n      mstore\n      0x20\n      add\n      swap1\n      dup2\n      mstore\n      0x20\n      add\n      0x00\n      keccak256\n        /* \"contracts/propexchange.sol\":1598:1622  property[_add].totalLand */\n      0x01\n      add\n      0x00\n        /* \"contracts/propexchange.sol\":1598:1631  property[_add].totalLand -= _land */\n      dup3\n      dup3\n      sload\n      tag_57\n      swap2\n      swap1\n      tag_52\n      jump\t// in\n    tag_57:\n      swap3\n      pop\n      pop\n      dup2\n      swap1\n      sstore\n      pop\n        /* \"contracts/propexchange.sol\":1669:1674  _land */\n      dup3\n        /* \"contracts/propexchange.sol\":1642:1650  property */\n      0x03\n        /* \"contracts/propexchange.sol\":1642:1655  property[_to] */\n      0x00\n        /* \"contracts/propexchange.sol\":1651:1654  _to */\n      dup7\n        /* \"contracts/propexchange.sol\":1642:1655  property[_to] */\n      0xffffffffffffffffffffffffffffffffffffffff\n      and\n      0xffffffffffffffffffffffffffffffffffffffff\n      and\n      dup2\n      mstore\n      0x20\n      add\n      swap1\n      dup2\n      mstore\n      0x20\n      add\n      0x00\n      keccak256\n        /* \"contracts/propexchange.sol\":1642:1665  property[_to].totalLand */\n      0x01\n      add\n      0x00\n        /* \"contracts/propexchange.sol\":1642:1674  property[_to].totalLand += _land */\n      dup3\n      dup3\n      sload\n      tag_58\n      swap2\n      swap1\n      tag_50\n      jump\t// in\n    tag_58:\n      swap3\n      pop\n      pop\n      dup2\n      swap1\n      sstore\n      pop\n        /* \"contracts/propexchange.sol\":1709:1717  _newname */\n      dup1\n        /* \"contracts/propexchange.sol\":1686:1694  property */\n      0x03\n        /* \"contracts/propexchange.sol\":1686:1700  property[_add] */\n      0x00\n        /* \"contracts/propexchange.sol\":1695:1699  _add */\n      dup8\n        /* \"contracts/propexchange.sol\":1686:1700  property[_add] */\n      0xffffffffffffffffffffffffffffffffffffffff\n      and\n      0xffffffffffffffffffffffffffffffffffffffff\n      and\n      dup2\n      mstore\n      0x20\n      add\n      swap1\n      dup2\n      mstore\n      0x20\n      add\n      0x00\n      keccak256\n        /* \"contracts/propexchange.sol\":1686:1706  property[_add].owner */\n      0x03\n      add\n        /* \"contracts/propexchange.sol\":1686:1717  property[_add].owner = _newname */\n      swap1\n      dup2\n      tag_59\n      swap2\n      swap1\n      tag_60\n      jump\t// in\n    tag_59:\n      pop\n        /* \"contracts/propexchange.sol\":1759:1766  _income */\n      dup2\n        /* \"contracts/propexchange.sol\":1728:1736  property */\n      0x03\n        /* \"contracts/propexchange.sol\":1728:1742  property[_add] */\n      0x00\n        /* \"contracts/propexchange.sol\":1737:1741  _add */\n      dup8\n        /* \"contracts/propexchange.sol\":1728:1742  property[_add] */\n      0xffffffffffffffffffffffffffffffffffffffff\n      and\n      0xffffffffffffffffffffffffffffffffffffffff\n      and\n      dup2\n      mstore\n      0x20\n      add\n      swap1\n      dup2\n      mstore\n      0x20\n      add\n      0x00\n      keccak256\n        /* \"contracts/propexchange.sol\":1728:1755  property[_add].annualIncome */\n      0x02\n      add\n      0x00\n        /* \"contracts/propexchange.sol\":1728:1766  property[_add].annualIncome += _income */\n      dup3\n      dup3\n      sload\n      tag_61\n      swap2\n      swap1\n      tag_50\n      jump\t// in\n    tag_61:\n      swap3\n      pop\n      pop\n      dup2\n      swap1\n      sstore\n      pop\n        /* \"contracts/propexchange.sol\":1395:1794  function transfer(address _add,address _to,uint _land,uint _income,string memory _newname) public{... */\n      pop\n      pop\n      pop\n      pop\n      pop\n      jump\t// out\n        /* \"contracts/propexchange.sol\":625:918  function set(address _add,string memory _name,string memory _owner, uint annualIncome,uint totalLand) public{... */\n    tag_32:\n        /* \"contracts/propexchange.sol\":766:771  _name */\n      dup4\n        /* \"contracts/propexchange.sol\":744:752  property */\n      0x03\n        /* \"contracts/propexchange.sol\":744:758  property[_add] */\n      0x00\n        /* \"contracts/propexchange.sol\":753:757  _add */\n      dup8\n        /* \"contracts/propexchange.sol\":744:758  property[_add] */\n      0xffffffffffffffffffffffffffffffffffffffff\n      and\n      0xffffffffffffffffffffffffffffffffffffffff\n      and\n      dup2\n      mstore\n      0x20\n      add\n      swap1\n      dup2\n      mstore\n      0x20\n      add\n      0x00\n      keccak256\n        /* \"contracts/propexchange.sol\":744:763  property[_add].name */\n      0x00\n      add\n        /* \"contracts/propexchange.sol\":744:771  property[_add].name = _name */\n      swap1\n      dup2\n      tag_63\n      swap2\n      swap1\n      tag_60\n      jump\t// in\n    tag_63:\n      pop\n        /* \"contracts/propexchange.sol\":804:810  _owner */\n      dup3\n        /* \"contracts/propexchange.sol\":782:790  property */\n      0x03\n        /* \"contracts/propexchange.sol\":782:796  property[_add] */\n      0x00\n        /* \"contracts/propexchange.sol\":791:795  _add */\n      dup8\n        /* \"contracts/propexchange.sol\":782:796  property[_add] */\n      0xffffffffffffffffffffffffffffffffffffffff\n      and\n      0xffffffffffffffffffffffffffffffffffffffff\n      and\n      dup2\n      mstore\n      0x20\n      add\n      swap1\n      dup2\n      mstore\n      0x20\n      add\n      0x00\n      keccak256\n        /* \"contracts/propexchange.sol\":782:802  property[_add].owner */\n      0x03\n      add\n        /* \"contracts/propexchange.sol\":782:810  property[_add].owner= _owner */\n      swap1\n      dup2\n      tag_64\n      swap2\n      swap1\n      tag_60\n      jump\t// in\n    tag_64:\n      pop\n        /* \"contracts/propexchange.sol\":851:863  annualIncome */\n      dup2\n        /* \"contracts/propexchange.sol\":821:829  property */\n      0x03\n        /* \"contracts/propexchange.sol\":821:835  property[_add] */\n      0x00\n        /* \"contracts/propexchange.sol\":830:834  _add */\n      dup8\n        /* \"contracts/propexchange.sol\":821:835  property[_add] */\n      0xffffffffffffffffffffffffffffffffffffffff\n      and\n      0xffffffffffffffffffffffffffffffffffffffff\n      and\n      dup2\n      mstore\n      0x20\n      add\n      swap1\n      dup2\n      mstore\n      0x20\n      add\n      0x00\n      keccak256\n        /* \"contracts/propexchange.sol\":821:848  property[_add].annualIncome */\n      0x02\n      add\n        /* \"contracts/propexchange.sol\":821:863  property[_add].annualIncome = annualIncome */\n      dup2\n      swap1\n      sstore\n      pop\n        /* \"contracts/propexchange.sol\":901:910  totalLand */\n      dup1\n        /* \"contracts/propexchange.sol\":874:882  property */\n      0x03\n        /* \"contracts/propexchange.sol\":874:888  property[_add] */\n      0x00\n        /* \"contracts/propexchange.sol\":883:887  _add */\n      dup8\n        /* \"contracts/propexchange.sol\":874:888  property[_add] */\n      0xffffffffffffffffffffffffffffffffffffffff\n      and\n      0xffffffffffffffffffffffffffffffffffffffff\n      and\n      dup2\n      mstore\n      0x20\n      add\n      swap1\n      dup2\n      mstore\n      0x20\n      add\n      0x00\n      keccak256\n        /* \"contracts/propexchange.sol\":874:898  property[_add].totalLand */\n      0x01\n      add\n        /* \"contracts/propexchange.sol\":874:910  property[_add].totalLand = totalLand */\n      dup2\n      swap1\n      sstore\n      pop\n        /* \"contracts/propexchange.sol\":625:918  function set(address _add,string memory _name,string memory _owner, uint annualIncome,uint totalLand) public{... */\n      pop\n      pop\n      pop\n      pop\n      pop\n      jump\t// out\n        /* \"contracts/propexchange.sol\":924:1208  function get(address _add) public  view returns(string memory _name,string memory _owner,uint _annualIncome,uint _totalLand){... */\n    tag_35:\n        /* \"contracts/propexchange.sol\":972:991  string memory _name */\n      0x60\n        /* \"contracts/propexchange.sol\":992:1012  string memory _owner */\n      dup1\n        /* \"contracts/propexchange.sol\":1013:1031  uint _annualIncome */\n      0x00\n        /* \"contracts/propexchange.sol\":1032:1047  uint _totalLand */\n      dup1\n        /* \"contracts/propexchange.sol\":1066:1074  property */\n      0x03\n        /* \"contracts/propexchange.sol\":1066:1080  property[_add] */\n      0x00\n        /* \"contracts/propexchange.sol\":1075:1079  _add */\n      dup7\n        /* \"contracts/propexchange.sol\":1066:1080  property[_add] */\n      0xffffffffffffffffffffffffffffffffffffffff\n      and\n      0xffffffffffffffffffffffffffffffffffffffff\n      and\n      dup2\n      mstore\n      0x20\n      add\n      swap1\n      dup2\n      mstore\n      0x20\n      add\n      0x00\n      keccak256\n        /* \"contracts/propexchange.sol\":1066:1085  property[_add].name */\n      0x00\n      add\n        /* \"contracts/propexchange.sol\":1096:1104  property */\n      0x03\n        /* \"contracts/propexchange.sol\":1096:1110  property[_add] */\n      0x00\n        /* \"contracts/propexchange.sol\":1105:1109  _add */\n      dup8\n        /* \"contracts/propexchange.sol\":1096:1110  property[_add] */\n      0xffffffffffffffffffffffffffffffffffffffff\n      and\n      0xffffffffffffffffffffffffffffffffffffffff\n      and\n      dup2\n      mstore\n      0x20\n      add\n      swap1\n      dup2\n      mstore\n      0x20\n      add\n      0x00\n      keccak256\n        /* \"contracts/propexchange.sol\":1096:1116  property[_add].owner */\n      0x03\n      add\n        /* \"contracts/propexchange.sol\":1127:1135  property */\n      0x03\n        /* \"contracts/propexchange.sol\":1127:1141  property[_add] */\n      0x00\n        /* \"contracts/propexchange.sol\":1136:1140  _add */\n      dup9\n        /* \"contracts/propexchange.sol\":1127:1141  property[_add] */\n      0xffffffffffffffffffffffffffffffffffffffff\n      and\n      0xffffffffffffffffffffffffffffffffffffffff\n      and\n      dup2\n      mstore\n      0x20\n      add\n      swap1\n      dup2\n      mstore\n      0x20\n      add\n      0x00\n      keccak256\n        /* \"contracts/propexchange.sol\":1127:1154  property[_add].annualIncome */\n      0x02\n      add\n      sload\n        /* \"contracts/propexchange.sol\":1165:1173  property */\n      0x03\n        /* \"contracts/propexchange.sol\":1165:1179  property[_add] */\n      0x00\n        /* \"contracts/propexchange.sol\":1174:1178  _add */\n      dup10\n        /* \"contracts/propexchange.sol\":1165:1179  property[_add] */\n      0xffffffffffffffffffffffffffffffffffffffff\n      and\n      0xffffffffffffffffffffffffffffffffffffffff\n      and\n      dup2\n      mstore\n      0x20\n      add\n      swap1\n      dup2\n      mstore\n      0x20\n      add\n      0x00\n      keccak256\n        /* \"contracts/propexchange.sol\":1165:1189  property[_add].totalLand */\n      0x01\n      add\n      sload\n        /* \"contracts/propexchange.sol\":1059:1200  return(property[_add].name,... */\n      dup4\n      dup1\n      sload\n      tag_66\n      swap1\n      tag_67\n      jump\t// in\n    tag_66:\n      dup1\n      0x1f\n      add\n      0x20\n      dup1\n      swap2\n      div\n      mul\n      0x20\n      add\n      mload(0x40)\n      swap1\n      dup2\n      add\n      0x40\n      mstore\n      dup1\n      swap3\n      swap2\n      swap1\n      dup2\n      dup2\n      mstore\n      0x20\n      add\n      dup3\n      dup1\n      sload\n      tag_68\n      swap1\n      tag_67\n      jump\t// in\n    tag_68:\n      dup1\n      iszero\n      tag_69\n      jumpi\n      dup1\n      0x1f\n      lt\n      tag_70\n      jumpi\n      0x0100\n      dup1\n      dup4\n      sload\n      div\n      mul\n      dup4\n      mstore\n      swap2\n      0x20\n      add\n      swap2\n      jump(tag_69)\n    tag_70:\n      dup3\n      add\n      swap2\n      swap1\n      0x00\n      mstore\n      keccak256(0x00, 0x20)\n      swap1\n    tag_71:\n      dup2\n      sload\n      dup2\n      mstore\n      swap1\n      0x01\n      add\n      swap1\n      0x20\n      add\n      dup1\n      dup4\n      gt\n      tag_71\n      jumpi\n      dup3\n      swap1\n      sub\n      0x1f\n      and\n      dup3\n      add\n      swap2\n    tag_69:\n      pop\n      pop\n      pop\n      pop\n      pop\n      swap4\n      pop\n      dup3\n      dup1\n      sload\n      tag_72\n      swap1\n      tag_67\n      jump\t// in\n    tag_72:\n      dup1\n      0x1f\n      add\n      0x20\n      dup1\n      swap2\n      div\n      mul\n      0x20\n      add\n      mload(0x40)\n      swap1\n      dup2\n      add\n      0x40\n      mstore\n      dup1\n      swap3\n      swap2\n      swap1\n      dup2\n      dup2\n      mstore\n      0x20\n      add\n      dup3\n      dup1\n      sload\n      tag_73\n      swap1\n      tag_67\n      jump\t// in\n    tag_73:\n      dup1\n      iszero\n      tag_74\n      jumpi\n      dup1\n      0x1f\n      lt\n      tag_75\n      jumpi\n      0x0100\n      dup1\n      dup4\n      sload\n      div\n      mul\n      dup4\n      mstore\n      swap2\n      0x20\n      add\n      swap2\n      jump(tag_74)\n    tag_75:\n      dup3\n      add\n      swap2\n      swap1\n      0x00\n      mstore\n      keccak256(0x00, 0x20)\n      swap1\n    tag_76:\n      dup2\n      sload\n      dup2\n      mstore\n      swap1\n      0x01\n      add\n      swap1\n      0x20\n      add\n      dup1\n      dup4\n      gt\n      tag_76\n      jumpi\n      dup3\n      swap1\n      sub\n      0x1f\n      and\n      dup3\n      add\n      swap2\n    tag_74:\n      pop\n      pop\n      pop\n      pop\n      pop\n      swap3\n      pop\n      swap4\n      pop\n      swap4\n      pop\n      swap4\n      pop\n      swap4\n      pop\n        /* \"contracts/propexchange.sol\":924:1208  function get(address _add) public  view returns(string memory _name,string memory _owner,uint _annualIncome,uint _totalLand){... */\n      swap2\n      swap4\n      pop\n      swap2\n      swap4\n      jump\t// out\n        /* \"contracts/propexchange.sol\":578:618  mapping(address => Land) public property */\n    tag_40:\n      mstore(0x20, 0x03)\n      dup1\n      0x00\n      mstore\n      keccak256(0x00, 0x40)\n      0x00\n      swap2\n      pop\n      swap1\n      pop\n      dup1\n      0x00\n      add\n      dup1\n      sload\n      tag_77\n      swap1\n      tag_67\n      jump\t// in\n    tag_77:\n      dup1\n      0x1f\n      add\n      0x20\n      dup1\n      swap2\n      div\n      mul\n      0x20\n      add\n      mload(0x40)\n      swap1\n      dup2\n      add\n      0x40\n      mstore\n      dup1\n      swap3\n      swap2\n      swap1\n      dup2\n      dup2\n      mstore\n      0x20\n      add\n      dup3\n      dup1\n      sload\n      tag_78\n      swap1\n      tag_67\n      jump\t// in\n    tag_78:\n      dup1\n      iszero\n      tag_79\n      jumpi\n      dup1\n      0x1f\n      lt\n      tag_80\n      jumpi\n      0x0100\n      dup1\n      dup4\n      sload\n      div\n      mul\n      dup4\n      mstore\n      swap2\n      0x20\n      add\n      swap2\n      jump(tag_79)\n    tag_80:\n      dup3\n      add\n      swap2\n      swap1\n      0x00\n      mstore\n      keccak256(0x00, 0x20)\n      swap1\n    tag_81:\n      dup2\n      sload\n      dup2\n      mstore\n      swap1\n      0x01\n      add\n      swap1\n      0x20\n      add\n      dup1\n      dup4\n      gt\n      tag_81\n      jumpi\n      dup3\n      swap1\n      sub\n      0x1f\n      and\n      dup3\n      add\n      swap2\n    tag_79:\n      pop\n      pop\n      pop\n      pop\n      pop\n      swap1\n      dup1\n      0x01\n      add\n      sload\n      swap1\n      dup1\n      0x02\n      add\n      sload\n      swap1\n      dup1\n      0x03\n      add\n      dup1\n      sload\n      tag_82\n      swap1\n      tag_67\n      jump\t// in\n    tag_82:\n      dup1\n      0x1f\n      add\n      0x20\n      dup1\n      swap2\n      div\n      mul\n      0x20\n      add\n      mload(0x40)\n      swap1\n      dup2\n      add\n      0x40\n      mstore\n      dup1\n      swap3\n      swap2\n      swap1\n      dup2\n      dup2\n      mstore\n      0x20\n      add\n      dup3\n      dup1\n      sload\n      tag_83\n      swap1\n      tag_67\n      jump\t// in\n    tag_83:\n      dup1\n      iszero\n      tag_84\n      jumpi\n      dup1\n      0x1f\n      lt\n      tag_85\n      jumpi\n      0x0100\n      dup1\n      dup4\n      sload\n      div\n      mul\n      dup4\n      mstore\n      swap2\n      0x20\n      add\n      swap2\n      jump(tag_84)\n    tag_85:\n      dup3\n      add\n      swap2\n      swap1\n      0x00\n      mstore\n      keccak256(0x00, 0x20)\n      swap1\n    tag_86:\n      dup2\n      sload\n      dup2\n      mstore\n      swap1\n      0x01\n      add\n      swap1\n      0x20\n      add\n      dup1\n      dup4\n      gt\n      tag_86\n      jumpi\n      dup3\n      swap1\n      sub\n      0x1f\n      and\n      dup3\n      add\n      swap2\n    tag_84:\n      pop\n      pop\n      pop\n      pop\n      pop\n      swap1\n      pop\n      dup5\n      jump\t// out\n        /* \"#utility.yul\":7:82   */\n    tag_87:\n        /* \"#utility.yul\":40:46   */\n      0x00\n        /* \"#utility.yul\":73:75   */\n      0x40\n        /* \"#utility.yul\":67:76   */\n      mload\n        /* \"#utility.yul\":57:76   */\n      swap1\n      pop\n        /* \"#utility.yul\":7:82   */\n      swap1\n      jump\t// out\n        /* \"#utility.yul\":88:205   */\n    tag_88:\n        /* \"#utility.yul\":197:198   */\n      0x00\n        /* \"#utility.yul\":194:195   */\n      dup1\n        /* \"#utility.yul\":187:199   */\n      revert\n        /* \"#utility.yul\":211:328   */\n    tag_89:\n        /* \"#utility.yul\":320:321   */\n      0x00\n        /* \"#utility.yul\":317:318   */\n      dup1\n        /* \"#utility.yul\":310:322   */\n      revert\n        /* \"#utility.yul\":334:460   */\n    tag_90:\n        /* \"#utility.yul\":371:378   */\n      0x00\n        /* \"#utility.yul\":411:453   */\n      0xffffffffffffffffffffffffffffffffffffffff\n        /* \"#utility.yul\":404:409   */\n      dup3\n        /* \"#utility.yul\":400:454   */\n      and\n        /* \"#utility.yul\":389:454   */\n      swap1\n      pop\n        /* \"#utility.yul\":334:460   */\n      swap2\n      swap1\n      pop\n      jump\t// out\n        /* \"#utility.yul\":466:562   */\n    tag_91:\n        /* \"#utility.yul\":503:510   */\n      0x00\n        /* \"#utility.yul\":532:556   */\n      tag_138\n        /* \"#utility.yul\":550:555   */\n      dup3\n        /* \"#utility.yul\":532:556   */\n      tag_90\n      jump\t// in\n    tag_138:\n        /* \"#utility.yul\":521:556   */\n      swap1\n      pop\n        /* \"#utility.yul\":466:562   */\n      swap2\n      swap1\n      pop\n      jump\t// out\n        /* \"#utility.yul\":568:690   */\n    tag_92:\n        /* \"#utility.yul\":641:665   */\n      tag_140\n        /* \"#utility.yul\":659:664   */\n      dup2\n        /* \"#utility.yul\":641:665   */\n      tag_91\n      jump\t// in\n    tag_140:\n        /* \"#utility.yul\":634:639   */\n      dup2\n        /* \"#utility.yul\":631:666   */\n      eq\n        /* \"#utility.yul\":621:684   */\n      tag_141\n      jumpi\n        /* \"#utility.yul\":680:681   */\n      0x00\n        /* \"#utility.yul\":677:678   */\n      dup1\n        /* \"#utility.yul\":670:682   */\n      revert\n        /* \"#utility.yul\":621:684   */\n    tag_141:\n        /* \"#utility.yul\":568:690   */\n      pop\n      jump\t// out\n        /* \"#utility.yul\":696:835   */\n    tag_93:\n        /* \"#utility.yul\":742:747   */\n      0x00\n        /* \"#utility.yul\":780:786   */\n      dup2\n        /* \"#utility.yul\":767:787   */\n      calldataload\n        /* \"#utility.yul\":758:787   */\n      swap1\n      pop\n        /* \"#utility.yul\":796:829   */\n      tag_143\n        /* \"#utility.yul\":823:828   */\n      dup2\n        /* \"#utility.yul\":796:829   */\n      tag_92\n      jump\t// in\n    tag_143:\n        /* \"#utility.yul\":696:835   */\n      swap3\n      swap2\n      pop\n      pop\n      jump\t// out\n        /* \"#utility.yul\":841:1170   */\n    tag_13:\n        /* \"#utility.yul\":900:906   */\n      0x00\n        /* \"#utility.yul\":949:951   */\n      0x20\n        /* \"#utility.yul\":937:946   */\n      dup3\n        /* \"#utility.yul\":928:935   */\n      dup5\n        /* \"#utility.yul\":924:947   */\n      sub\n        /* \"#utility.yul\":920:952   */\n      slt\n        /* \"#utility.yul\":917:1036   */\n      iszero\n      tag_145\n      jumpi\n        /* \"#utility.yul\":955:1034   */\n      tag_146\n      tag_88\n      jump\t// in\n    tag_146:\n        /* \"#utility.yul\":917:1036   */\n    tag_145:\n        /* \"#utility.yul\":1075:1076   */\n      0x00\n        /* \"#utility.yul\":1100:1153   */\n      tag_147\n        /* \"#utility.yul\":1145:1152   */\n      dup5\n        /* \"#utility.yul\":1136:1142   */\n      dup3\n        /* \"#utility.yul\":1125:1134   */\n      dup6\n        /* \"#utility.yul\":1121:1143   */\n      add\n        /* \"#utility.yul\":1100:1153   */\n      tag_93\n      jump\t// in\n    tag_147:\n        /* \"#utility.yul\":1090:1153   */\n      swap2\n      pop\n        /* \"#utility.yul\":1046:1163   */\n      pop\n        /* \"#utility.yul\":841:1170   */\n      swap3\n      swap2\n      pop\n      pop\n      jump\t// out\n        /* \"#utility.yul\":1176:1275   */\n    tag_94:\n        /* \"#utility.yul\":1228:1234   */\n      0x00\n        /* \"#utility.yul\":1262:1267   */\n      dup2\n        /* \"#utility.yul\":1256:1268   */\n      mload\n        /* \"#utility.yul\":1246:1268   */\n      swap1\n      pop\n        /* \"#utility.yul\":1176:1275   */\n      swap2\n      swap1\n      pop\n      jump\t// out\n        /* \"#utility.yul\":1281:1450   */\n    tag_95:\n        /* \"#utility.yul\":1365:1376   */\n      0x00\n        /* \"#utility.yul\":1399:1405   */\n      dup3\n        /* \"#utility.yul\":1394:1397   */\n      dup3\n        /* \"#utility.yul\":1387:1406   */\n      mstore\n        /* \"#utility.yul\":1439:1443   */\n      0x20\n        /* \"#utility.yul\":1434:1437   */\n      dup3\n        /* \"#utility.yul\":1430:1444   */\n      add\n        /* \"#utility.yul\":1415:1444   */\n      swap1\n      pop\n        /* \"#utility.yul\":1281:1450   */\n      swap3\n      swap2\n      pop\n      pop\n      jump\t// out\n        /* \"#utility.yul\":1456:1702   */\n    tag_96:\n        /* \"#utility.yul\":1537:1538   */\n      0x00\n        /* \"#utility.yul\":1547:1660   */\n    tag_151:\n        /* \"#utility.yul\":1561:1567   */\n      dup4\n        /* \"#utility.yul\":1558:1559   */\n      dup2\n        /* \"#utility.yul\":1555:1568   */\n      lt\n        /* \"#utility.yul\":1547:1660   */\n      iszero\n      tag_153\n      jumpi\n        /* \"#utility.yul\":1646:1647   */\n      dup1\n        /* \"#utility.yul\":1641:1644   */\n      dup3\n        /* \"#utility.yul\":1637:1648   */\n      add\n        /* \"#utility.yul\":1631:1649   */\n      mload\n        /* \"#utility.yul\":1627:1628   */\n      dup2\n        /* \"#utility.yul\":1622:1625   */\n      dup5\n        /* \"#utility.yul\":1618:1629   */\n      add\n        /* \"#utility.yul\":1611:1650   */\n      mstore\n        /* \"#utility.yul\":1583:1585   */\n      0x20\n        /* \"#utility.yul\":1580:1581   */\n      dup2\n        /* \"#utility.yul\":1576:1586   */\n      add\n        /* \"#utility.yul\":1571:1586   */\n      swap1\n      pop\n        /* \"#utility.yul\":1547:1660   */\n      jump(tag_151)\n    tag_153:\n        /* \"#utility.yul\":1694:1695   */\n      0x00\n        /* \"#utility.yul\":1685:1691   */\n      dup5\n        /* \"#utility.yul\":1680:1683   */\n      dup5\n        /* \"#utility.yul\":1676:1692   */\n      add\n        /* \"#utility.yul\":1669:1696   */\n      mstore\n        /* \"#utility.yul\":1518:1702   */\n      pop\n        /* \"#utility.yul\":1456:1702   */\n      pop\n      pop\n      pop\n      jump\t// out\n        /* \"#utility.yul\":1708:1810   */\n    tag_97:\n        /* \"#utility.yul\":1749:1755   */\n      0x00\n        /* \"#utility.yul\":1800:1802   */\n      0x1f\n        /* \"#utility.yul\":1796:1803   */\n      not\n        /* \"#utility.yul\":1791:1793   */\n      0x1f\n        /* \"#utility.yul\":1784:1789   */\n      dup4\n        /* \"#utility.yul\":1780:1794   */\n      add\n        /* \"#utility.yul\":1776:1804   */\n      and\n        /* \"#utility.yul\":1766:1804   */\n      swap1\n      pop\n        /* \"#utility.yul\":1708:1810   */\n      swap2\n      swap1\n      pop\n      jump\t// out\n        /* \"#utility.yul\":1816:2193   */\n    tag_98:\n        /* \"#utility.yul\":1904:1907   */\n      0x00\n        /* \"#utility.yul\":1932:1971   */\n      tag_156\n        /* \"#utility.yul\":1965:1970   */\n      dup3\n        /* \"#utility.yul\":1932:1971   */\n      tag_94\n      jump\t// in\n    tag_156:\n        /* \"#utility.yul\":1987:2058   */\n      tag_157\n        /* \"#utility.yul\":2051:2057   */\n      dup2\n        /* \"#utility.yul\":2046:2049   */\n      dup6\n        /* \"#utility.yul\":1987:2058   */\n      tag_95\n      jump\t// in\n    tag_157:\n        /* \"#utility.yul\":1980:2058   */\n      swap4\n      pop\n        /* \"#utility.yul\":2067:2132   */\n      tag_158\n        /* \"#utility.yul\":2125:2131   */\n      dup2\n        /* \"#utility.yul\":2120:2123   */\n      dup6\n        /* \"#utility.yul\":2113:2117   */\n      0x20\n        /* \"#utility.yul\":2106:2111   */\n      dup7\n        /* \"#utility.yul\":2102:2118   */\n      add\n        /* \"#utility.yul\":2067:2132   */\n      tag_96\n      jump\t// in\n    tag_158:\n        /* \"#utility.yul\":2157:2186   */\n      tag_159\n        /* \"#utility.yul\":2179:2185   */\n      dup2\n        /* \"#utility.yul\":2157:2186   */\n      tag_97\n      jump\t// in\n    tag_159:\n        /* \"#utility.yul\":2152:2155   */\n      dup5\n        /* \"#utility.yul\":2148:2187   */\n      add\n        /* \"#utility.yul\":2141:2187   */\n      swap2\n      pop\n        /* \"#utility.yul\":1908:2193   */\n      pop\n        /* \"#utility.yul\":1816:2193   */\n      swap3\n      swap2\n      pop\n      pop\n      jump\t// out\n        /* \"#utility.yul\":2199:2512   */\n    tag_16:\n        /* \"#utility.yul\":2312:2316   */\n      0x00\n        /* \"#utility.yul\":2350:2352   */\n      0x20\n        /* \"#utility.yul\":2339:2348   */\n      dup3\n        /* \"#utility.yul\":2335:2353   */\n      add\n        /* \"#utility.yul\":2327:2353   */\n      swap1\n      pop\n        /* \"#utility.yul\":2399:2408   */\n      dup2\n        /* \"#utility.yul\":2393:2397   */\n      dup2\n        /* \"#utility.yul\":2389:2409   */\n      sub\n        /* \"#utility.yul\":2385:2386   */\n      0x00\n        /* \"#utility.yul\":2374:2383   */\n      dup4\n        /* \"#utility.yul\":2370:2387   */\n      add\n        /* \"#utility.yul\":2363:2410   */\n      mstore\n        /* \"#utility.yul\":2427:2505   */\n      tag_161\n        /* \"#utility.yul\":2500:2504   */\n      dup2\n        /* \"#utility.yul\":2491:2497   */\n      dup5\n        /* \"#utility.yul\":2427:2505   */\n      tag_98\n      jump\t// in\n    tag_161:\n        /* \"#utility.yul\":2419:2505   */\n      swap1\n      pop\n        /* \"#utility.yul\":2199:2512   */\n      swap3\n      swap2\n      pop\n      pop\n      jump\t// out\n        /* \"#utility.yul\":2518:2636   */\n    tag_99:\n        /* \"#utility.yul\":2605:2629   */\n      tag_163\n        /* \"#utility.yul\":2623:2628   */\n      dup2\n        /* \"#utility.yul\":2605:2629   */\n      tag_91\n      jump\t// in\n    tag_163:\n        /* \"#utility.yul\":2600:2603   */\n      dup3\n        /* \"#utility.yul\":2593:2630   */\n      mstore\n        /* \"#utility.yul\":2518:2636   */\n      pop\n      pop\n      jump\t// out\n        /* \"#utility.yul\":2642:2864   */\n    tag_20:\n        /* \"#utility.yul\":2735:2739   */\n      0x00\n        /* \"#utility.yul\":2773:2775   */\n      0x20\n        /* \"#utility.yul\":2762:2771   */\n      dup3\n        /* \"#utility.yul\":2758:2776   */\n      add\n        /* \"#utility.yul\":2750:2776   */\n      swap1\n      pop\n        /* \"#utility.yul\":2786:2857   */\n      tag_165\n        /* \"#utility.yul\":2854:2855   */\n      0x00\n        /* \"#utility.yul\":2843:2852   */\n      dup4\n        /* \"#utility.yul\":2839:2856   */\n      add\n        /* \"#utility.yul\":2830:2836   */\n      dup5\n        /* \"#utility.yul\":2786:2857   */\n      tag_99\n      jump\t// in\n    tag_165:\n        /* \"#utility.yul\":2642:2864   */\n      swap3\n      swap2\n      pop\n      pop\n      jump\t// out\n        /* \"#utility.yul\":2870:2947   */\n    tag_100:\n        /* \"#utility.yul\":2907:2914   */\n      0x00\n        /* \"#utility.yul\":2936:2941   */\n      dup2\n        /* \"#utility.yul\":2925:2941   */\n      swap1\n      pop\n        /* \"#utility.yul\":2870:2947   */\n      swap2\n      swap1\n      pop\n      jump\t// out\n        /* \"#utility.yul\":2953:3075   */\n    tag_101:\n        /* \"#utility.yul\":3026:3050   */\n      tag_168\n        /* \"#utility.yul\":3044:3049   */\n      dup2\n        /* \"#utility.yul\":3026:3050   */\n      tag_100\n      jump\t// in\n    tag_168:\n        /* \"#utility.yul\":3019:3024   */\n      dup2\n        /* \"#utility.yul\":3016:3051   */\n      eq\n        /* \"#utility.yul\":3006:3069   */\n      tag_169\n      jumpi\n        /* \"#utility.yul\":3065:3066   */\n      0x00\n        /* \"#utility.yul\":3062:3063   */\n      dup1\n        /* \"#utility.yul\":3055:3067   */\n      revert\n        /* \"#utility.yul\":3006:3069   */\n    tag_169:\n        /* \"#utility.yul\":2953:3075   */\n      pop\n      jump\t// out\n        /* \"#utility.yul\":3081:3220   */\n    tag_102:\n        /* \"#utility.yul\":3127:3132   */\n      0x00\n        /* \"#utility.yul\":3165:3171   */\n      dup2\n        /* \"#utility.yul\":3152:3172   */\n      calldataload\n        /* \"#utility.yul\":3143:3172   */\n      swap1\n      pop\n        /* \"#utility.yul\":3181:3214   */\n      tag_171\n        /* \"#utility.yul\":3208:3213   */\n      dup2\n        /* \"#utility.yul\":3181:3214   */\n      tag_101\n      jump\t// in\n    tag_171:\n        /* \"#utility.yul\":3081:3220   */\n      swap3\n      swap2\n      pop\n      pop\n      jump\t// out\n        /* \"#utility.yul\":3226:3845   */\n    tag_23:\n        /* \"#utility.yul\":3303:3309   */\n      0x00\n        /* \"#utility.yul\":3311:3317   */\n      dup1\n        /* \"#utility.yul\":3319:3325   */\n      0x00\n        /* \"#utility.yul\":3368:3370   */\n      0x60\n        /* \"#utility.yul\":3356:3365   */\n      dup5\n        /* \"#utility.yul\":3347:3354   */\n      dup7\n        /* \"#utility.yul\":3343:3366   */\n      sub\n        /* \"#utility.yul\":3339:3371   */\n      slt\n        /* \"#utility.yul\":3336:3455   */\n      iszero\n      tag_173\n      jumpi\n        /* \"#utility.yul\":3374:3453   */\n      tag_174\n      tag_88\n      jump\t// in\n    tag_174:\n        /* \"#utility.yul\":3336:3455   */\n    tag_173:\n        /* \"#utility.yul\":3494:3495   */\n      0x00\n        /* \"#utility.yul\":3519:3572   */\n      tag_175\n        /* \"#utility.yul\":3564:3571   */\n      dup7\n        /* \"#utility.yul\":3555:3561   */\n      dup3\n        /* \"#utility.yul\":3544:3553   */\n      dup8\n        /* \"#utility.yul\":3540:3562   */\n      add\n        /* \"#utility.yul\":3519:3572   */\n      tag_93\n      jump\t// in\n    tag_175:\n        /* \"#utility.yul\":3509:3572   */\n      swap4\n      pop\n        /* \"#utility.yul\":3465:3582   */\n      pop\n        /* \"#utility.yul\":3621:3623   */\n      0x20\n        /* \"#utility.yul\":3647:3700   */\n      tag_176\n        /* \"#utility.yul\":3692:3699   */\n      dup7\n        /* \"#utility.yul\":3683:3689   */\n      dup3\n        /* \"#utility.yul\":3672:3681   */\n      dup8\n        /* \"#utility.yul\":3668:3690   */\n      add\n        /* \"#utility.yul\":3647:3700   */\n      tag_102\n      jump\t// in\n    tag_176:\n        /* \"#utility.yul\":3637:3700   */\n      swap3\n      pop\n        /* \"#utility.yul\":3592:3710   */\n      pop\n        /* \"#utility.yul\":3749:3751   */\n      0x40\n        /* \"#utility.yul\":3775:3828   */\n      tag_177\n        /* \"#utility.yul\":3820:3827   */\n      dup7\n        /* \"#utility.yul\":3811:3817   */\n      dup3\n        /* \"#utility.yul\":3800:3809   */\n      dup8\n        /* \"#utility.yul\":3796:3818   */\n      add\n        /* \"#utility.yul\":3775:3828   */\n      tag_102\n      jump\t// in\n    tag_177:\n        /* \"#utility.yul\":3765:3828   */\n      swap2\n      pop\n        /* \"#utility.yul\":3720:3838   */\n      pop\n        /* \"#utility.yul\":3226:3845   */\n      swap3\n      pop\n      swap3\n      pop\n      swap3\n      jump\t// out\n        /* \"#utility.yul\":3851:3968   */\n    tag_103:\n        /* \"#utility.yul\":3960:3961   */\n      0x00\n        /* \"#utility.yul\":3957:3958   */\n      dup1\n        /* \"#utility.yul\":3950:3962   */\n      revert\n        /* \"#utility.yul\":3974:4091   */\n    tag_104:\n        /* \"#utility.yul\":4083:4084   */\n      0x00\n        /* \"#utility.yul\":4080:4081   */\n      dup1\n        /* \"#utility.yul\":4073:4085   */\n      revert\n        /* \"#utility.yul\":4097:4277   */\n    tag_105:\n        /* \"#utility.yul\":4145:4222   */\n      0x4e487b7100000000000000000000000000000000000000000000000000000000\n        /* \"#utility.yul\":4142:4143   */\n      0x00\n        /* \"#utility.yul\":4135:4223   */\n      mstore\n        /* \"#utility.yul\":4242:4246   */\n      0x41\n        /* \"#utility.yul\":4239:4240   */\n      0x04\n        /* \"#utility.yul\":4232:4247   */\n      mstore\n        /* \"#utility.yul\":4266:4270   */\n      0x24\n        /* \"#utility.yul\":4263:4264   */\n      0x00\n        /* \"#utility.yul\":4256:4271   */\n      revert\n        /* \"#utility.yul\":4283:4564   */\n    tag_106:\n        /* \"#utility.yul\":4366:4393   */\n      tag_182\n        /* \"#utility.yul\":4388:4392   */\n      dup3\n        /* \"#utility.yul\":4366:4393   */\n      tag_97\n      jump\t// in\n    tag_182:\n        /* \"#utility.yul\":4358:4364   */\n      dup2\n        /* \"#utility.yul\":4354:4394   */\n      add\n        /* \"#utility.yul\":4496:4502   */\n      dup2\n        /* \"#utility.yul\":4484:4494   */\n      dup2\n        /* \"#utility.yul\":4481:4503   */\n      lt\n        /* \"#utility.yul\":4460:4478   */\n      0xffffffffffffffff\n        /* \"#utility.yul\":4448:4458   */\n      dup3\n        /* \"#utility.yul\":4445:4479   */\n      gt\n        /* \"#utility.yul\":4442:4504   */\n      or\n        /* \"#utility.yul\":4439:4527   */\n      iszero\n      tag_183\n      jumpi\n        /* \"#utility.yul\":4507:4525   */\n      tag_184\n      tag_105\n      jump\t// in\n    tag_184:\n        /* \"#utility.yul\":4439:4527   */\n    tag_183:\n        /* \"#utility.yul\":4547:4557   */\n      dup1\n        /* \"#utility.yul\":4543:4545   */\n      0x40\n        /* \"#utility.yul\":4536:4558   */\n      mstore\n        /* \"#utility.yul\":4326:4564   */\n      pop\n        /* \"#utility.yul\":4283:4564   */\n      pop\n      pop\n      jump\t// out\n        /* \"#utility.yul\":4570:4699   */\n    tag_107:\n        /* \"#utility.yul\":4604:4610   */\n      0x00\n        /* \"#utility.yul\":4631:4651   */\n      tag_186\n      tag_87\n      jump\t// in\n    tag_186:\n        /* \"#utility.yul\":4621:4651   */\n      swap1\n      pop\n        /* \"#utility.yul\":4660:4693   */\n      tag_187\n        /* \"#utility.yul\":4688:4692   */\n      dup3\n        /* \"#utility.yul\":4680:4686   */\n      dup3\n        /* \"#utility.yul\":4660:4693   */\n      tag_106\n      jump\t// in\n    tag_187:\n        /* \"#utility.yul\":4570:4699   */\n      swap2\n      swap1\n      pop\n      jump\t// out\n        /* \"#utility.yul\":4705:5013   */\n    tag_108:\n        /* \"#utility.yul\":4767:4771   */\n      0x00\n        /* \"#utility.yul\":4857:4875   */\n      0xffffffffffffffff\n        /* \"#utility.yul\":4849:4855   */\n      dup3\n        /* \"#utility.yul\":4846:4876   */\n      gt\n        /* \"#utility.yul\":4843:4899   */\n      iszero\n      tag_189\n      jumpi\n        /* \"#utility.yul\":4879:4897   */\n      tag_190\n      tag_105\n      jump\t// in\n    tag_190:\n        /* \"#utility.yul\":4843:4899   */\n    tag_189:\n        /* \"#utility.yul\":4917:4946   */\n      tag_191\n        /* \"#utility.yul\":4939:4945   */\n      dup3\n        /* \"#utility.yul\":4917:4946   */\n      tag_97\n      jump\t// in\n    tag_191:\n        /* \"#utility.yul\":4909:4946   */\n      swap1\n      pop\n        /* \"#utility.yul\":5001:5005   */\n      0x20\n        /* \"#utility.yul\":4995:4999   */\n      dup2\n        /* \"#utility.yul\":4991:5006   */\n      add\n        /* \"#utility.yul\":4983:5006   */\n      swap1\n      pop\n        /* \"#utility.yul\":4705:5013   */\n      swap2\n      swap1\n      pop\n      jump\t// out\n        /* \"#utility.yul\":5019:5165   */\n    tag_109:\n        /* \"#utility.yul\":5116:5122   */\n      dup3\n        /* \"#utility.yul\":5111:5114   */\n      dup2\n        /* \"#utility.yul\":5106:5109   */\n      dup4\n        /* \"#utility.yul\":5093:5123   */\n      calldatacopy\n        /* \"#utility.yul\":5157:5158   */\n      0x00\n        /* \"#utility.yul\":5148:5154   */\n      dup4\n        /* \"#utility.yul\":5143:5146   */\n      dup4\n        /* \"#utility.yul\":5139:5155   */\n      add\n        /* \"#utility.yul\":5132:5159   */\n      mstore\n        /* \"#utility.yul\":5019:5165   */\n      pop\n      pop\n      pop\n      jump\t// out\n        /* \"#utility.yul\":5171:5596   */\n    tag_110:\n        /* \"#utility.yul\":5249:5254   */\n      0x00\n        /* \"#utility.yul\":5274:5340   */\n      tag_194\n        /* \"#utility.yul\":5290:5339   */\n      tag_195\n        /* \"#utility.yul\":5332:5338   */\n      dup5\n        /* \"#utility.yul\":5290:5339   */\n      tag_108\n      jump\t// in\n    tag_195:\n        /* \"#utility.yul\":5274:5340   */\n      tag_107\n      jump\t// in\n    tag_194:\n        /* \"#utility.yul\":5265:5340   */\n      swap1\n      pop\n        /* \"#utility.yul\":5363:5369   */\n      dup3\n        /* \"#utility.yul\":5356:5361   */\n      dup2\n        /* \"#utility.yul\":5349:5370   */\n      mstore\n        /* \"#utility.yul\":5401:5405   */\n      0x20\n        /* \"#utility.yul\":5394:5399   */\n      dup2\n        /* \"#utility.yul\":5390:5406   */\n      add\n        /* \"#utility.yul\":5439:5442   */\n      dup5\n        /* \"#utility.yul\":5430:5436   */\n      dup5\n        /* \"#utility.yul\":5425:5428   */\n      dup5\n        /* \"#utility.yul\":5421:5437   */\n      add\n        /* \"#utility.yul\":5418:5443   */\n      gt\n        /* \"#utility.yul\":5415:5527   */\n      iszero\n      tag_196\n      jumpi\n        /* \"#utility.yul\":5446:5525   */\n      tag_197\n      tag_104\n      jump\t// in\n    tag_197:\n        /* \"#utility.yul\":5415:5527   */\n    tag_196:\n        /* \"#utility.yul\":5536:5590   */\n      tag_198\n        /* \"#utility.yul\":5583:5589   */\n      dup5\n        /* \"#utility.yul\":5578:5581   */\n      dup3\n        /* \"#utility.yul\":5573:5576   */\n      dup6\n        /* \"#utility.yul\":5536:5590   */\n      tag_109\n      jump\t// in\n    tag_198:\n        /* \"#utility.yul\":5255:5596   */\n      pop\n        /* \"#utility.yul\":5171:5596   */\n      swap4\n      swap3\n      pop\n      pop\n      pop\n      jump\t// out\n        /* \"#utility.yul\":5616:5956   */\n    tag_111:\n        /* \"#utility.yul\":5672:5677   */\n      0x00\n        /* \"#utility.yul\":5721:5724   */\n      dup3\n        /* \"#utility.yul\":5714:5718   */\n      0x1f\n        /* \"#utility.yul\":5706:5712   */\n      dup4\n        /* \"#utility.yul\":5702:5719   */\n      add\n        /* \"#utility.yul\":5698:5725   */\n      slt\n        /* \"#utility.yul\":5688:5810   */\n      tag_200\n      jumpi\n        /* \"#utility.yul\":5729:5808   */\n      tag_201\n      tag_103\n      jump\t// in\n    tag_201:\n        /* \"#utility.yul\":5688:5810   */\n    tag_200:\n        /* \"#utility.yul\":5846:5852   */\n      dup2\n        /* \"#utility.yul\":5833:5853   */\n      calldataload\n        /* \"#utility.yul\":5871:5950   */\n      tag_202\n        /* \"#utility.yul\":5946:5949   */\n      dup5\n        /* \"#utility.yul\":5938:5944   */\n      dup3\n        /* \"#utility.yul\":5931:5935   */\n      0x20\n        /* \"#utility.yul\":5923:5929   */\n      dup7\n        /* \"#utility.yul\":5919:5936   */\n      add\n        /* \"#utility.yul\":5871:5950   */\n      tag_110\n      jump\t// in\n    tag_202:\n        /* \"#utility.yul\":5862:5950   */\n      swap2\n      pop\n        /* \"#utility.yul\":5678:5956   */\n      pop\n        /* \"#utility.yul\":5616:5956   */\n      swap3\n      swap2\n      pop\n      pop\n      jump\t// out\n        /* \"#utility.yul\":5962:7053   */\n    tag_27:\n        /* \"#utility.yul\":6067:6073   */\n      0x00\n        /* \"#utility.yul\":6075:6081   */\n      dup1\n        /* \"#utility.yul\":6083:6089   */\n      0x00\n        /* \"#utility.yul\":6091:6097   */\n      dup1\n        /* \"#utility.yul\":6099:6105   */\n      0x00\n        /* \"#utility.yul\":6148:6151   */\n      0xa0\n        /* \"#utility.yul\":6136:6145   */\n      dup7\n        /* \"#utility.yul\":6127:6134   */\n      dup9\n        /* \"#utility.yul\":6123:6146   */\n      sub\n        /* \"#utility.yul\":6119:6152   */\n      slt\n        /* \"#utility.yul\":6116:6236   */\n      iszero\n      tag_204\n      jumpi\n        /* \"#utility.yul\":6155:6234   */\n      tag_205\n      tag_88\n      jump\t// in\n    tag_205:\n        /* \"#utility.yul\":6116:6236   */\n    tag_204:\n        /* \"#utility.yul\":6275:6276   */\n      0x00\n        /* \"#utility.yul\":6300:6353   */\n      tag_206\n        /* \"#utility.yul\":6345:6352   */\n      dup9\n        /* \"#utility.yul\":6336:6342   */\n      dup3\n        /* \"#utility.yul\":6325:6334   */\n      dup10\n        /* \"#utility.yul\":6321:6343   */\n      add\n        /* \"#utility.yul\":6300:6353   */\n      tag_93\n      jump\t// in\n    tag_206:\n        /* \"#utility.yul\":6290:6353   */\n      swap6\n      pop\n        /* \"#utility.yul\":6246:6363   */\n      pop\n        /* \"#utility.yul\":6402:6404   */\n      0x20\n        /* \"#utility.yul\":6428:6481   */\n      tag_207\n        /* \"#utility.yul\":6473:6480   */\n      dup9\n        /* \"#utility.yul\":6464:6470   */\n      dup3\n        /* \"#utility.yul\":6453:6462   */\n      dup10\n        /* \"#utility.yul\":6449:6471   */\n      add\n        /* \"#utility.yul\":6428:6481   */\n      tag_93\n      jump\t// in\n    tag_207:\n        /* \"#utility.yul\":6418:6481   */\n      swap5\n      pop\n        /* \"#utility.yul\":6373:6491   */\n      pop\n        /* \"#utility.yul\":6530:6532   */\n      0x40\n        /* \"#utility.yul\":6556:6609   */\n      tag_208\n        /* \"#utility.yul\":6601:6608   */\n      dup9\n        /* \"#utility.yul\":6592:6598   */\n      dup3\n        /* \"#utility.yul\":6581:6590   */\n      dup10\n        /* \"#utility.yul\":6577:6599   */\n      add\n        /* \"#utility.yul\":6556:6609   */\n      tag_102\n      jump\t// in\n    tag_208:\n        /* \"#utility.yul\":6546:6609   */\n      swap4\n      pop\n        /* \"#utility.yul\":6501:6619   */\n      pop\n        /* \"#utility.yul\":6658:6660   */\n      0x60\n        /* \"#utility.yul\":6684:6737   */\n      tag_209\n        /* \"#utility.yul\":6729:6736   */\n      dup9\n        /* \"#utility.yul\":6720:6726   */\n      dup3\n        /* \"#utility.yul\":6709:6718   */\n      dup10\n        /* \"#utility.yul\":6705:6727   */\n      add\n        /* \"#utility.yul\":6684:6737   */\n      tag_102\n      jump\t// in\n    tag_209:\n        /* \"#utility.yul\":6674:6737   */\n      swap3\n      pop\n        /* \"#utility.yul\":6629:6747   */\n      pop\n        /* \"#utility.yul\":6814:6817   */\n      0x80\n        /* \"#utility.yul\":6803:6812   */\n      dup7\n        /* \"#utility.yul\":6799:6818   */\n      add\n        /* \"#utility.yul\":6786:6819   */\n      calldataload\n        /* \"#utility.yul\":6846:6864   */\n      0xffffffffffffffff\n        /* \"#utility.yul\":6838:6844   */\n      dup2\n        /* \"#utility.yul\":6835:6865   */\n      gt\n        /* \"#utility.yul\":6832:6949   */\n      iszero\n      tag_210\n      jumpi\n        /* \"#utility.yul\":6868:6947   */\n      tag_211\n      tag_89\n      jump\t// in\n    tag_211:\n        /* \"#utility.yul\":6832:6949   */\n    tag_210:\n        /* \"#utility.yul\":6973:7036   */\n      tag_212\n        /* \"#utility.yul\":7028:7035   */\n      dup9\n        /* \"#utility.yul\":7019:7025   */\n      dup3\n        /* \"#utility.yul\":7008:7017   */\n      dup10\n        /* \"#utility.yul\":7004:7026   */\n      add\n        /* \"#utility.yul\":6973:7036   */\n      tag_111\n      jump\t// in\n    tag_212:\n        /* \"#utility.yul\":6963:7036   */\n      swap2\n      pop\n        /* \"#utility.yul\":6757:7046   */\n      pop\n        /* \"#utility.yul\":5962:7053   */\n      swap3\n      swap6\n      pop\n      swap3\n      swap6\n      swap1\n      swap4\n      pop\n      jump\t// out\n        /* \"#utility.yul\":7059:8330   */\n    tag_31:\n        /* \"#utility.yul\":7174:7180   */\n      0x00\n        /* \"#utility.yul\":7182:7188   */\n      dup1\n        /* \"#utility.yul\":7190:7196   */\n      0x00\n        /* \"#utility.yul\":7198:7204   */\n      dup1\n        /* \"#utility.yul\":7206:7212   */\n      0x00\n        /* \"#utility.yul\":7255:7258   */\n      0xa0\n        /* \"#utility.yul\":7243:7252   */\n      dup7\n        /* \"#utility.yul\":7234:7241   */\n      dup9\n        /* \"#utility.yul\":7230:7253   */\n      sub\n        /* \"#utility.yul\":7226:7259   */\n      slt\n        /* \"#utility.yul\":7223:7343   */\n      iszero\n      tag_214\n      jumpi\n        /* \"#utility.yul\":7262:7341   */\n      tag_215\n      tag_88\n      jump\t// in\n    tag_215:\n        /* \"#utility.yul\":7223:7343   */\n    tag_214:\n        /* \"#utility.yul\":7382:7383   */\n      0x00\n        /* \"#utility.yul\":7407:7460   */\n      tag_216\n        /* \"#utility.yul\":7452:7459   */\n      dup9\n        /* \"#utility.yul\":7443:7449   */\n      dup3\n        /* \"#utility.yul\":7432:7441   */\n      dup10\n        /* \"#utility.yul\":7428:7450   */\n      add\n        /* \"#utility.yul\":7407:7460   */\n      tag_93\n      jump\t// in\n    tag_216:\n        /* \"#utility.yul\":7397:7460   */\n      swap6\n      pop\n        /* \"#utility.yul\":7353:7470   */\n      pop\n        /* \"#utility.yul\":7537:7539   */\n      0x20\n        /* \"#utility.yul\":7526:7535   */\n      dup7\n        /* \"#utility.yul\":7522:7540   */\n      add\n        /* \"#utility.yul\":7509:7541   */\n      calldataload\n        /* \"#utility.yul\":7568:7586   */\n      0xffffffffffffffff\n        /* \"#utility.yul\":7560:7566   */\n      dup2\n        /* \"#utility.yul\":7557:7587   */\n      gt\n        /* \"#utility.yul\":7554:7671   */\n      iszero\n      tag_217\n      jumpi\n        /* \"#utility.yul\":7590:7669   */\n      tag_218\n      tag_89\n      jump\t// in\n    tag_218:\n        /* \"#utility.yul\":7554:7671   */\n    tag_217:\n        /* \"#utility.yul\":7695:7758   */\n      tag_219\n        /* \"#utility.yul\":7750:7757   */\n      dup9\n        /* \"#utility.yul\":7741:7747   */\n      dup3\n        /* \"#utility.yul\":7730:7739   */\n      dup10\n        /* \"#utility.yul\":7726:7748   */\n      add\n        /* \"#utility.yul\":7695:7758   */\n      tag_111\n      jump\t// in\n    tag_219:\n        /* \"#utility.yul\":7685:7758   */\n      swap5\n      pop\n        /* \"#utility.yul\":7480:7768   */\n      pop\n        /* \"#utility.yul\":7835:7837   */\n      0x40\n        /* \"#utility.yul\":7824:7833   */\n      dup7\n        /* \"#utility.yul\":7820:7838   */\n      add\n        /* \"#utility.yul\":7807:7839   */\n      calldataload\n        /* \"#utility.yul\":7866:7884   */\n      0xffffffffffffffff\n        /* \"#utility.yul\":7858:7864   */\n      dup2\n        /* \"#utility.yul\":7855:7885   */\n      gt\n        /* \"#utility.yul\":7852:7969   */\n      iszero\n      tag_220\n      jumpi\n        /* \"#utility.yul\":7888:7967   */\n      tag_221\n      tag_89\n      jump\t// in\n    tag_221:\n        /* \"#utility.yul\":7852:7969   */\n    tag_220:\n        /* \"#utility.yul\":7993:8056   */\n      tag_222\n        /* \"#utility.yul\":8048:8055   */\n      dup9\n        /* \"#utility.yul\":8039:8045   */\n      dup3\n        /* \"#utility.yul\":8028:8037   */\n      dup10\n        /* \"#utility.yul\":8024:8046   */\n      add\n        /* \"#utility.yul\":7993:8056   */\n      tag_111\n      jump\t// in\n    tag_222:\n        /* \"#utility.yul\":7983:8056   */\n      swap4\n      pop\n        /* \"#utility.yul\":7778:8066   */\n      pop\n        /* \"#utility.yul\":8105:8107   */\n      0x60\n        /* \"#utility.yul\":8131:8184   */\n      tag_223\n        /* \"#utility.yul\":8176:8183   */\n      dup9\n        /* \"#utility.yul\":8167:8173   */\n      dup3\n        /* \"#utility.yul\":8156:8165   */\n      dup10\n        /* \"#utility.yul\":8152:8174   */\n      add\n        /* \"#utility.yul\":8131:8184   */\n      tag_102\n      jump\t// in\n    tag_223:\n        /* \"#utility.yul\":8121:8184   */\n      swap3\n      pop\n        /* \"#utility.yul\":8076:8194   */\n      pop\n        /* \"#utility.yul\":8233:8236   */\n      0x80\n        /* \"#utility.yul\":8260:8313   */\n      tag_224\n        /* \"#utility.yul\":8305:8312   */\n      dup9\n        /* \"#utility.yul\":8296:8302   */\n      dup3\n        /* \"#utility.yul\":8285:8294   */\n      dup10\n        /* \"#utility.yul\":8281:8303   */\n      add\n        /* \"#utility.yul\":8260:8313   */\n      tag_102\n      jump\t// in\n    tag_224:\n        /* \"#utility.yul\":8250:8313   */\n      swap2\n      pop\n        /* \"#utility.yul\":8204:8323   */\n      pop\n        /* \"#utility.yul\":7059:8330   */\n      swap3\n      swap6\n      pop\n      swap3\n      swap6\n      swap1\n      swap4\n      pop\n      jump\t// out\n        /* \"#utility.yul\":8336:8454   */\n    tag_112:\n        /* \"#utility.yul\":8423:8447   */\n      tag_226\n        /* \"#utility.yul\":8441:8446   */\n      dup2\n        /* \"#utility.yul\":8423:8447   */\n      tag_100\n      jump\t// in\n    tag_226:\n        /* \"#utility.yul\":8418:8421   */\n      dup3\n        /* \"#utility.yul\":8411:8448   */\n      mstore\n        /* \"#utility.yul\":8336:8454   */\n      pop\n      pop\n      jump\t// out\n        /* \"#utility.yul\":8460:9195   */\n    tag_37:\n        /* \"#utility.yul\":8677:8681   */\n      0x00\n        /* \"#utility.yul\":8715:8718   */\n      0x80\n        /* \"#utility.yul\":8704:8713   */\n      dup3\n        /* \"#utility.yul\":8700:8719   */\n      add\n        /* \"#utility.yul\":8692:8719   */\n      swap1\n      pop\n        /* \"#utility.yul\":8765:8774   */\n      dup2\n        /* \"#utility.yul\":8759:8763   */\n      dup2\n        /* \"#utility.yul\":8755:8775   */\n      sub\n        /* \"#utility.yul\":8751:8752   */\n      0x00\n        /* \"#utility.yul\":8740:8749   */\n      dup4\n        /* \"#utility.yul\":8736:8753   */\n      add\n        /* \"#utility.yul\":8729:8776   */\n      mstore\n        /* \"#utility.yul\":8793:8871   */\n      tag_228\n        /* \"#utility.yul\":8866:8870   */\n      dup2\n        /* \"#utility.yul\":8857:8863   */\n      dup8\n        /* \"#utility.yul\":8793:8871   */\n      tag_98\n      jump\t// in\n    tag_228:\n        /* \"#utility.yul\":8785:8871   */\n      swap1\n      pop\n        /* \"#utility.yul\":8918:8927   */\n      dup2\n        /* \"#utility.yul\":8912:8916   */\n      dup2\n        /* \"#utility.yul\":8908:8928   */\n      sub\n        /* \"#utility.yul\":8903:8905   */\n      0x20\n        /* \"#utility.yul\":8892:8901   */\n      dup4\n        /* \"#utility.yul\":8888:8906   */\n      add\n        /* \"#utility.yul\":8881:8929   */\n      mstore\n        /* \"#utility.yul\":8946:9024   */\n      tag_229\n        /* \"#utility.yul\":9019:9023   */\n      dup2\n        /* \"#utility.yul\":9010:9016   */\n      dup7\n        /* \"#utility.yul\":8946:9024   */\n      tag_98\n      jump\t// in\n    tag_229:\n        /* \"#utility.yul\":8938:9024   */\n      swap1\n      pop\n        /* \"#utility.yul\":9034:9106   */\n      tag_230\n        /* \"#utility.yul\":9102:9104   */\n      0x40\n        /* \"#utility.yul\":9091:9100   */\n      dup4\n        /* \"#utility.yul\":9087:9105   */\n      add\n        /* \"#utility.yul\":9078:9084   */\n      dup6\n        /* \"#utility.yul\":9034:9106   */\n      tag_112\n      jump\t// in\n    tag_230:\n        /* \"#utility.yul\":9116:9188   */\n      tag_231\n        /* \"#utility.yul\":9184:9186   */\n      0x60\n        /* \"#utility.yul\":9173:9182   */\n      dup4\n        /* \"#utility.yul\":9169:9187   */\n      add\n        /* \"#utility.yul\":9160:9166   */\n      dup5\n        /* \"#utility.yul\":9116:9188   */\n      tag_112\n      jump\t// in\n    tag_231:\n        /* \"#utility.yul\":8460:9195   */\n      swap6\n      swap5\n      pop\n      pop\n      pop\n      pop\n      pop\n      jump\t// out\n        /* \"#utility.yul\":9201:9936   */\n    tag_42:\n        /* \"#utility.yul\":9418:9422   */\n      0x00\n        /* \"#utility.yul\":9456:9459   */\n      0x80\n        /* \"#utility.yul\":9445:9454   */\n      dup3\n        /* \"#utility.yul\":9441:9460   */\n      add\n        /* \"#utility.yul\":9433:9460   */\n      swap1\n      pop\n        /* \"#utility.yul\":9506:9515   */\n      dup2\n        /* \"#utility.yul\":9500:9504   */\n      dup2\n        /* \"#utility.yul\":9496:9516   */\n      sub\n        /* \"#utility.yul\":9492:9493   */\n      0x00\n        /* \"#utility.yul\":9481:9490   */\n      dup4\n        /* \"#utility.yul\":9477:9494   */\n      add\n        /* \"#utility.yul\":9470:9517   */\n      mstore\n        /* \"#utility.yul\":9534:9612   */\n      tag_233\n        /* \"#utility.yul\":9607:9611   */\n      dup2\n        /* \"#utility.yul\":9598:9604   */\n      dup8\n        /* \"#utility.yul\":9534:9612   */\n      tag_98\n      jump\t// in\n    tag_233:\n        /* \"#utility.yul\":9526:9612   */\n      swap1\n      pop\n        /* \"#utility.yul\":9622:9694   */\n      tag_234\n        /* \"#utility.yul\":9690:9692   */\n      0x20\n        /* \"#utility.yul\":9679:9688   */\n      dup4\n        /* \"#utility.yul\":9675:9693   */\n      add\n        /* \"#utility.yul\":9666:9672   */\n      dup7\n        /* \"#utility.yul\":9622:9694   */\n      tag_112\n      jump\t// in\n    tag_234:\n        /* \"#utility.yul\":9704:9776   */\n      tag_235\n        /* \"#utility.yul\":9772:9774   */\n      0x40\n        /* \"#utility.yul\":9761:9770   */\n      dup4\n        /* \"#utility.yul\":9757:9775   */\n      add\n        /* \"#utility.yul\":9748:9754   */\n      dup6\n        /* \"#utility.yul\":9704:9776   */\n      tag_112\n      jump\t// in\n    tag_235:\n        /* \"#utility.yul\":9823:9832   */\n      dup2\n        /* \"#utility.yul\":9817:9821   */\n      dup2\n        /* \"#utility.yul\":9813:9833   */\n      sub\n        /* \"#utility.yul\":9808:9810   */\n      0x60\n        /* \"#utility.yul\":9797:9806   */\n      dup4\n        /* \"#utility.yul\":9793:9811   */\n      add\n        /* \"#utility.yul\":9786:9834   */\n      mstore\n        /* \"#utility.yul\":9851:9929   */\n      tag_236\n        /* \"#utility.yul\":9924:9928   */\n      dup2\n        /* \"#utility.yul\":9915:9921   */\n      dup5\n        /* \"#utility.yul\":9851:9929   */\n      tag_98\n      jump\t// in\n    tag_236:\n        /* \"#utility.yul\":9843:9929   */\n      swap1\n      pop\n        /* \"#utility.yul\":9201:9936   */\n      swap6\n      swap5\n      pop\n      pop\n      pop\n      pop\n      pop\n      jump\t// out\n        /* \"#utility.yul\":9942:10122   */\n    tag_113:\n        /* \"#utility.yul\":9990:10067   */\n      0x4e487b7100000000000000000000000000000000000000000000000000000000\n        /* \"#utility.yul\":9987:9988   */\n      0x00\n        /* \"#utility.yul\":9980:10068   */\n      mstore\n        /* \"#utility.yul\":10087:10091   */\n      0x11\n        /* \"#utility.yul\":10084:10085   */\n      0x04\n        /* \"#utility.yul\":10077:10092   */\n      mstore\n        /* \"#utility.yul\":10111:10115   */\n      0x24\n        /* \"#utility.yul\":10108:10109   */\n      0x00\n        /* \"#utility.yul\":10101:10116   */\n      revert\n        /* \"#utility.yul\":10128:10319   */\n    tag_50:\n        /* \"#utility.yul\":10168:10171   */\n      0x00\n        /* \"#utility.yul\":10187:10207   */\n      tag_239\n        /* \"#utility.yul\":10205:10206   */\n      dup3\n        /* \"#utility.yul\":10187:10207   */\n      tag_100\n      jump\t// in\n    tag_239:\n        /* \"#utility.yul\":10182:10207   */\n      swap2\n      pop\n        /* \"#utility.yul\":10221:10241   */\n      tag_240\n        /* \"#utility.yul\":10239:10240   */\n      dup4\n        /* \"#utility.yul\":10221:10241   */\n      tag_100\n      jump\t// in\n    tag_240:\n        /* \"#utility.yul\":10216:10241   */\n      swap3\n      pop\n        /* \"#utility.yul\":10264:10265   */\n      dup3\n        /* \"#utility.yul\":10261:10262   */\n      dup3\n        /* \"#utility.yul\":10257:10266   */\n      add\n        /* \"#utility.yul\":10250:10266   */\n      swap1\n      pop\n        /* \"#utility.yul\":10285:10288   */\n      dup1\n        /* \"#utility.yul\":10282:10283   */\n      dup3\n        /* \"#utility.yul\":10279:10289   */\n      gt\n        /* \"#utility.yul\":10276:10312   */\n      iszero\n      tag_241\n      jumpi\n        /* \"#utility.yul\":10292:10310   */\n      tag_242\n      tag_113\n      jump\t// in\n    tag_242:\n        /* \"#utility.yul\":10276:10312   */\n    tag_241:\n        /* \"#utility.yul\":10128:10319   */\n      swap3\n      swap2\n      pop\n      pop\n      jump\t// out\n        /* \"#utility.yul\":10325:10519   */\n    tag_52:\n        /* \"#utility.yul\":10365:10369   */\n      0x00\n        /* \"#utility.yul\":10385:10405   */\n      tag_244\n        /* \"#utility.yul\":10403:10404   */\n      dup3\n        /* \"#utility.yul\":10385:10405   */\n      tag_100\n      jump\t// in\n    tag_244:\n        /* \"#utility.yul\":10380:10405   */\n      swap2\n      pop\n        /* \"#utility.yul\":10419:10439   */\n      tag_245\n        /* \"#utility.yul\":10437:10438   */\n      dup4\n        /* \"#utility.yul\":10419:10439   */\n      tag_100\n      jump\t// in\n    tag_245:\n        /* \"#utility.yul\":10414:10439   */\n      swap3\n      pop\n        /* \"#utility.yul\":10463:10464   */\n      dup3\n        /* \"#utility.yul\":10460:10461   */\n      dup3\n        /* \"#utility.yul\":10456:10465   */\n      sub\n        /* \"#utility.yul\":10448:10465   */\n      swap1\n      pop\n        /* \"#utility.yul\":10487:10488   */\n      dup2\n        /* \"#utility.yul\":10481:10485   */\n      dup2\n        /* \"#utility.yul\":10478:10489   */\n      gt\n        /* \"#utility.yul\":10475:10512   */\n      iszero\n      tag_246\n      jumpi\n        /* \"#utility.yul\":10492:10510   */\n      tag_247\n      tag_113\n      jump\t// in\n    tag_247:\n        /* \"#utility.yul\":10475:10512   */\n    tag_246:\n        /* \"#utility.yul\":10325:10519   */\n      swap3\n      swap2\n      pop\n      pop\n      jump\t// out\n        /* \"#utility.yul\":10525:10751   */\n    tag_114:\n        /* \"#utility.yul\":10665:10699   */\n      0x596f752068617665206e6f2073756666696369656e74206c616e6420746f2074\n        /* \"#utility.yul\":10661:10662   */\n      0x00\n        /* \"#utility.yul\":10653:10659   */\n      dup3\n        /* \"#utility.yul\":10649:10663   */\n      add\n        /* \"#utility.yul\":10642:10700   */\n      mstore\n        /* \"#utility.yul\":10734:10743   */\n      0x72616e7366657200000000000000000000000000000000000000000000000000\n        /* \"#utility.yul\":10729:10731   */\n      0x20\n        /* \"#utility.yul\":10721:10727   */\n      dup3\n        /* \"#utility.yul\":10717:10732   */\n      add\n        /* \"#utility.yul\":10710:10744   */\n      mstore\n        /* \"#utility.yul\":10525:10751   */\n      pop\n      jump\t// out\n        /* \"#utility.yul\":10757:11123   */\n    tag_115:\n        /* \"#utility.yul\":10899:10902   */\n      0x00\n        /* \"#utility.yul\":10920:10987   */\n      tag_250\n        /* \"#utility.yul\":10984:10986   */\n      0x27\n        /* \"#utility.yul\":10979:10982   */\n      dup4\n        /* \"#utility.yul\":10920:10987   */\n      tag_95\n      jump\t// in\n    tag_250:\n        /* \"#utility.yul\":10913:10987   */\n      swap2\n      pop\n        /* \"#utility.yul\":10996:11089   */\n      tag_251\n        /* \"#utility.yul\":11085:11088   */\n      dup3\n        /* \"#utility.yul\":10996:11089   */\n      tag_114\n      jump\t// in\n    tag_251:\n        /* \"#utility.yul\":11114:11116   */\n      0x40\n        /* \"#utility.yul\":11109:11112   */\n      dup3\n        /* \"#utility.yul\":11105:11117   */\n      add\n        /* \"#utility.yul\":11098:11117   */\n      swap1\n      pop\n        /* \"#utility.yul\":10757:11123   */\n      swap2\n      swap1\n      pop\n      jump\t// out\n        /* \"#utility.yul\":11129:11548   */\n    tag_56:\n        /* \"#utility.yul\":11295:11299   */\n      0x00\n        /* \"#utility.yul\":11333:11335   */\n      0x20\n        /* \"#utility.yul\":11322:11331   */\n      dup3\n        /* \"#utility.yul\":11318:11336   */\n      add\n        /* \"#utility.yul\":11310:11336   */\n      swap1\n      pop\n        /* \"#utility.yul\":11382:11391   */\n      dup2\n        /* \"#utility.yul\":11376:11380   */\n      dup2\n        /* \"#utility.yul\":11372:11392   */\n      sub\n        /* \"#utility.yul\":11368:11369   */\n      0x00\n        /* \"#utility.yul\":11357:11366   */\n      dup4\n        /* \"#utility.yul\":11353:11370   */\n      add\n        /* \"#utility.yul\":11346:11393   */\n      mstore\n        /* \"#utility.yul\":11410:11541   */\n      tag_253\n        /* \"#utility.yul\":11536:11540   */\n      dup2\n        /* \"#utility.yul\":11410:11541   */\n      tag_115\n      jump\t// in\n    tag_253:\n        /* \"#utility.yul\":11402:11541   */\n      swap1\n      pop\n        /* \"#utility.yul\":11129:11548   */\n      swap2\n      swap1\n      pop\n      jump\t// out\n        /* \"#utility.yul\":11554:11734   */\n    tag_116:\n        /* \"#utility.yul\":11602:11679   */\n      0x4e487b7100000000000000000000000000000000000000000000000000000000\n        /* \"#utility.yul\":11599:11600   */\n      0x00\n        /* \"#utility.yul\":11592:11680   */\n      mstore\n        /* \"#utility.yul\":11699:11703   */\n      0x22\n        /* \"#utility.yul\":11696:11697   */\n      0x04\n        /* \"#utility.yul\":11689:11704   */\n      mstore\n        /* \"#utility.yul\":11723:11727   */\n      0x24\n        /* \"#utility.yul\":11720:11721   */\n      0x00\n        /* \"#utility.yul\":11713:11728   */\n      revert\n        /* \"#utility.yul\":11740:12060   */\n    tag_67:\n        /* \"#utility.yul\":11784:11790   */\n      0x00\n        /* \"#utility.yul\":11821:11822   */\n      0x02\n        /* \"#utility.yul\":11815:11819   */\n      dup3\n        /* \"#utility.yul\":11811:11823   */\n      div\n        /* \"#utility.yul\":11801:11823   */\n      swap1\n      pop\n        /* \"#utility.yul\":11868:11869   */\n      0x01\n        /* \"#utility.yul\":11862:11866   */\n      dup3\n        /* \"#utility.yul\":11858:11870   */\n      and\n        /* \"#utility.yul\":11889:11907   */\n      dup1\n        /* \"#utility.yul\":11879:11960   */\n      tag_256\n      jumpi\n        /* \"#utility.yul\":11945:11949   */\n      0x7f\n        /* \"#utility.yul\":11937:11943   */\n      dup3\n        /* \"#utility.yul\":11933:11950   */\n      and\n        /* \"#utility.yul\":11923:11950   */\n      swap2\n      pop\n        /* \"#utility.yul\":11879:11960   */\n    tag_256:\n        /* \"#utility.yul\":12007:12009   */\n      0x20\n        /* \"#utility.yul\":11999:12005   */\n      dup3\n        /* \"#utility.yul\":11996:12010   */\n      lt\n        /* \"#utility.yul\":11976:11994   */\n      dup2\n        /* \"#utility.yul\":11973:12011   */\n      sub\n        /* \"#utility.yul\":11970:12054   */\n      tag_257\n      jumpi\n        /* \"#utility.yul\":12026:12044   */\n      tag_258\n      tag_116\n      jump\t// in\n    tag_258:\n        /* \"#utility.yul\":11970:12054   */\n    tag_257:\n        /* \"#utility.yul\":11791:12060   */\n      pop\n        /* \"#utility.yul\":11740:12060   */\n      swap2\n      swap1\n      pop\n      jump\t// out\n        /* \"#utility.yul\":12066:12207   */\n    tag_117:\n        /* \"#utility.yul\":12115:12119   */\n      0x00\n        /* \"#utility.yul\":12138:12141   */\n      dup2\n        /* \"#utility.yul\":12130:12141   */\n      swap1\n      pop\n        /* \"#utility.yul\":12161:12164   */\n      dup2\n        /* \"#utility.yul\":12158:12159   */\n      0x00\n        /* \"#utility.yul\":12151:12165   */\n      mstore\n        /* \"#utility.yul\":12195:12199   */\n      0x20\n        /* \"#utility.yul\":12192:12193   */\n      0x00\n        /* \"#utility.yul\":12182:12200   */\n      keccak256\n        /* \"#utility.yul\":12174:12200   */\n      swap1\n      pop\n        /* \"#utility.yul\":12066:12207   */\n      swap2\n      swap1\n      pop\n      jump\t// out\n        /* \"#utility.yul\":12213:12306   */\n    tag_118:\n        /* \"#utility.yul\":12250:12256   */\n      0x00\n        /* \"#utility.yul\":12297:12299   */\n      0x20\n        /* \"#utility.yul\":12292:12294   */\n      0x1f\n        /* \"#utility.yul\":12285:12290   */\n      dup4\n        /* \"#utility.yul\":12281:12295   */\n      add\n        /* \"#utility.yul\":12277:12300   */\n      div\n        /* \"#utility.yul\":12267:12300   */\n      swap1\n      pop\n        /* \"#utility.yul\":12213:12306   */\n      swap2\n      swap1\n      pop\n      jump\t// out\n        /* \"#utility.yul\":12312:12419   */\n    tag_119:\n        /* \"#utility.yul\":12356:12364   */\n      0x00\n        /* \"#utility.yul\":12406:12411   */\n      dup3\n        /* \"#utility.yul\":12400:12404   */\n      dup3\n        /* \"#utility.yul\":12396:12412   */\n      shl\n        /* \"#utility.yul\":12375:12412   */\n      swap1\n      pop\n        /* \"#utility.yul\":12312:12419   */\n      swap3\n      swap2\n      pop\n      pop\n      jump\t// out\n        /* \"#utility.yul\":12425:12818   */\n    tag_120:\n        /* \"#utility.yul\":12494:12500   */\n      0x00\n        /* \"#utility.yul\":12544:12545   */\n      0x08\n        /* \"#utility.yul\":12532:12542   */\n      dup4\n        /* \"#utility.yul\":12528:12546   */\n      mul\n        /* \"#utility.yul\":12567:12664   */\n      tag_263\n        /* \"#utility.yul\":12597:12663   */\n      0xffffffffffffffffffffffffffffffffffffffffffffffffffffffffffffffff\n        /* \"#utility.yul\":12586:12595   */\n      dup3\n        /* \"#utility.yul\":12567:12664   */\n      tag_119\n      jump\t// in\n    tag_263:\n        /* \"#utility.yul\":12685:12724   */\n      tag_264\n        /* \"#utility.yul\":12715:12723   */\n      dup7\n        /* \"#utility.yul\":12704:12713   */\n      dup4\n        /* \"#utility.yul\":12685:12724   */\n      tag_119\n      jump\t// in\n    tag_264:\n        /* \"#utility.yul\":12673:12724   */\n      swap6\n      pop\n        /* \"#utility.yul\":12757:12761   */\n      dup1\n        /* \"#utility.yul\":12753:12762   */\n      not\n        /* \"#utility.yul\":12746:12751   */\n      dup5\n        /* \"#utility.yul\":12742:12763   */\n      and\n        /* \"#utility.yul\":12733:12763   */\n      swap4\n      pop\n        /* \"#utility.yul\":12806:12810   */\n      dup1\n        /* \"#utility.yul\":12796:12804   */\n      dup7\n        /* \"#utility.yul\":12792:12811   */\n      and\n        /* \"#utility.yul\":12785:12790   */\n      dup5\n        /* \"#utility.yul\":12782:12812   */\n      or\n        /* \"#utility.yul\":12772:12812   */\n      swap3\n      pop\n        /* \"#utility.yul\":12501:12818   */\n      pop\n      pop\n        /* \"#utility.yul\":12425:12818   */\n      swap4\n      swap3\n      pop\n      pop\n      pop\n      jump\t// out\n        /* \"#utility.yul\":12824:12884   */\n    tag_121:\n        /* \"#utility.yul\":12852:12855   */\n      0x00\n        /* \"#utility.yul\":12873:12878   */\n      dup2\n        /* \"#utility.yul\":12866:12878   */\n      swap1\n      pop\n        /* \"#utility.yul\":12824:12884   */\n      swap2\n      swap1\n      pop\n      jump\t// out\n        /* \"#utility.yul\":12890:13032   */\n    tag_122:\n        /* \"#utility.yul\":12940:12949   */\n      0x00\n        /* \"#utility.yul\":12973:13026   */\n      tag_267\n        /* \"#utility.yul\":12991:13025   */\n      tag_268\n        /* \"#utility.yul\":13000:13024   */\n      tag_269\n        /* \"#utility.yul\":13018:13023   */\n      dup5\n        /* \"#utility.yul\":13000:13024   */\n      tag_100\n      jump\t// in\n    tag_269:\n        /* \"#utility.yul\":12991:13025   */\n      tag_121\n      jump\t// in\n    tag_268:\n        /* \"#utility.yul\":12973:13026   */\n      tag_100\n      jump\t// in\n    tag_267:\n        /* \"#utility.yul\":12960:13026   */\n      swap1\n      pop\n        /* \"#utility.yul\":12890:13032   */\n      swap2\n      swap1\n      pop\n      jump\t// out\n        /* \"#utility.yul\":13038:13113   */\n    tag_123:\n        /* \"#utility.yul\":13081:13084   */\n      0x00\n        /* \"#utility.yul\":13102:13107   */\n      dup2\n        /* \"#utility.yul\":13095:13107   */\n      swap1\n      pop\n        /* \"#utility.yul\":13038:13113   */\n      swap2\n      swap1\n      pop\n      jump\t// out\n        /* \"#utility.yul\":13119:13388   */\n    tag_124:\n        /* \"#utility.yul\":13229:13268   */\n      tag_272\n        /* \"#utility.yul\":13260:13267   */\n      dup4\n        /* \"#utility.yul\":13229:13268   */\n      tag_122\n      jump\t// in\n    tag_272:\n        /* \"#utility.yul\":13290:13381   */\n      tag_273\n        /* \"#utility.yul\":13339:13380   */\n      tag_274\n        /* \"#utility.yul\":13363:13379   */\n      dup3\n        /* \"#utility.yul\":13339:13380   */\n      tag_123\n      jump\t// in\n    tag_274:\n        /* \"#utility.yul\":13331:13337   */\n      dup5\n        /* \"#utility.yul\":13324:13328   */\n      dup5\n        /* \"#utility.yul\":13318:13329   */\n      sload\n        /* \"#utility.yul\":13290:13381   */\n      tag_120\n      jump\t// in\n    tag_273:\n        /* \"#utility.yul\":13284:13288   */\n      dup3\n        /* \"#utility.yul\":13277:13382   */\n      sstore\n        /* \"#utility.yul\":13195:13388   */\n      pop\n        /* \"#utility.yul\":13119:13388   */\n      pop\n      pop\n      pop\n      jump\t// out\n        /* \"#utility.yul\":13394:13467   */\n    tag_125:\n        /* \"#utility.yul\":13439:13442   */\n      0x00\n        /* \"#utility.yul\":13394:13467   */\n      swap1\n      jump\t// out\n        /* \"#utility.yul\":13473:13662   */\n    tag_126:\n        /* \"#utility.yul\":13550:13582   */\n      tag_277\n      tag_125\n      jump\t// in\n    tag_277:\n        /* \"#utility.yul\":13591:13656   */\n      tag_278\n        /* \"#utility.yul\":13649:13655   */\n      dup2\n        /* \"#utility.yul\":13641:13647   */\n      dup5\n        /* \"#utility.yul\":13635:13639   */\n      dup5\n        /* \"#utility.yul\":13591:13656   */\n      tag_124\n      jump\t// in\n    tag_278:\n        /* \"#utility.yul\":13526:13662   */\n      pop\n        /* \"#utility.yul\":13473:13662   */\n      pop\n      pop\n      jump\t// out\n        /* \"#utility.yul\":13668:13854   */\n    tag_127:\n        /* \"#utility.yul\":13728:13848   */\n    tag_280:\n        /* \"#utility.yul\":13745:13748   */\n      dup2\n        /* \"#utility.yul\":13738:13743   */\n      dup2\n        /* \"#utility.yul\":13735:13749   */\n      lt\n        /* \"#utility.yul\":13728:13848   */\n      iszero\n      tag_282\n      jumpi\n        /* \"#utility.yul\":13799:13838   */\n      tag_283\n        /* \"#utility.yul\":13836:13837   */\n      0x00\n        /* \"#utility.yul\":13829:13834   */\n      dup3\n        /* \"#utility.yul\":13799:13838   */\n      tag_126\n      jump\t// in\n    tag_283:\n        /* \"#utility.yul\":13772:13773   */\n      0x01\n        /* \"#utility.yul\":13765:13770   */\n      dup2\n        /* \"#utility.yul\":13761:13774   */\n      add\n        /* \"#utility.yul\":13752:13774   */\n      swap1\n      pop\n        /* \"#utility.yul\":13728:13848   */\n      jump(tag_280)\n    tag_282:\n        /* \"#utility.yul\":13668:13854   */\n      pop\n      pop\n      jump\t// out\n        /* \"#utility.yul\":13860:14403   */\n    tag_128:\n        /* \"#utility.yul\":13961:13963   */\n      0x1f\n        /* \"#utility.yul\":13956:13959   */\n      dup3\n        /* \"#utility.yul\":13953:13964   */\n      gt\n        /* \"#utility.yul\":13950:14396   */\n      iszero\n      tag_285\n      jumpi\n        /* \"#utility.yul\":13995:14033   */\n      tag_286\n        /* \"#utility.yul\":14027:14032   */\n      dup2\n        /* \"#utility.yul\":13995:14033   */\n      tag_117\n      jump\t// in\n    tag_286:\n        /* \"#utility.yul\":14079:14108   */\n      tag_287\n        /* \"#utility.yul\":14097:14107   */\n      dup5\n        /* \"#utility.yul\":14079:14108   */\n      tag_118\n      jump\t// in\n    tag_287:\n        /* \"#utility.yul\":14069:14077   */\n      dup2\n        /* \"#utility.yul\":14065:14109   */\n      add\n        /* \"#utility.yul\":14262:14264   */\n      0x20\n        /* \"#utility.yul\":14250:14260   */\n      dup6\n        /* \"#utility.yul\":14247:14265   */\n      lt\n        /* \"#utility.yul\":14244:14293   */\n      iszero\n      tag_288\n      jumpi\n        /* \"#utility.yul\":14283:14291   */\n      dup2\n        /* \"#utility.yul\":14268:14291   */\n      swap1\n      pop\n        /* \"#utility.yul\":14244:14293   */\n    tag_288:\n        /* \"#utility.yul\":14306:14386   */\n      tag_289\n        /* \"#utility.yul\":14362:14384   */\n      tag_290\n        /* \"#utility.yul\":14380:14383   */\n      dup6\n        /* \"#utility.yul\":14362:14384   */\n      tag_118\n      jump\t// in\n    tag_290:\n        /* \"#utility.yul\":14352:14360   */\n      dup4\n        /* \"#utility.yul\":14348:14385   */\n      add\n        /* \"#utility.yul\":14335:14346   */\n      dup3\n        /* \"#utility.yul\":14306:14386   */\n      tag_127\n      jump\t// in\n    tag_289:\n        /* \"#utility.yul\":13965:14396   */\n      pop\n      pop\n        /* \"#utility.yul\":13950:14396   */\n    tag_285:\n        /* \"#utility.yul\":13860:14403   */\n      pop\n      pop\n      pop\n      jump\t// out\n        /* \"#utility.yul\":14409:14526   */\n    tag_129:\n        /* \"#utility.yul\":14463:14471   */\n      0x00\n        /* \"#utility.yul\":14513:14518   */\n      dup3\n        /* \"#utility.yul\":14507:14511   */\n      dup3\n        /* \"#utility.yul\":14503:14519   */\n      shr\n        /* \"#utility.yul\":14482:14519   */\n      swap1\n      pop\n        /* \"#utility.yul\":14409:14526   */\n      swap3\n      swap2\n      pop\n      pop\n      jump\t// out\n        /* \"#utility.yul\":14532:14701   */\n    tag_130:\n        /* \"#utility.yul\":14576:14582   */\n      0x00\n        /* \"#utility.yul\":14609:14660   */\n      tag_293\n        /* \"#utility.yul\":14657:14658   */\n      0x00\n        /* \"#utility.yul\":14653:14659   */\n      not\n        /* \"#utility.yul\":14645:14650   */\n      dup5\n        /* \"#utility.yul\":14642:14643   */\n      0x08\n        /* \"#utility.yul\":14638:14651   */\n      mul\n        /* \"#utility.yul\":14609:14660   */\n      tag_129\n      jump\t// in\n    tag_293:\n        /* \"#utility.yul\":14605:14661   */\n      not\n        /* \"#utility.yul\":14690:14694   */\n      dup1\n        /* \"#utility.yul\":14684:14688   */\n      dup4\n        /* \"#utility.yul\":14680:14695   */\n      and\n        /* \"#utility.yul\":14670:14695   */\n      swap2\n      pop\n        /* \"#utility.yul\":14583:14701   */\n      pop\n        /* \"#utility.yul\":14532:14701   */\n      swap3\n      swap2\n      pop\n      pop\n      jump\t// out\n        /* \"#utility.yul\":14706:15001   */\n    tag_131:\n        /* \"#utility.yul\":14782:14786   */\n      0x00\n        /* \"#utility.yul\":14928:14957   */\n      tag_295\n        /* \"#utility.yul\":14953:14956   */\n      dup4\n        /* \"#utility.yul\":14947:14951   */\n      dup4\n        /* \"#utility.yul\":14928:14957   */\n      tag_130\n      jump\t// in\n    tag_295:\n        /* \"#utility.yul\":14920:14957   */\n      swap2\n      pop\n        /* \"#utility.yul\":14990:14993   */\n      dup3\n        /* \"#utility.yul\":14987:14988   */\n      0x02\n        /* \"#utility.yul\":14983:14994   */\n      mul\n        /* \"#utility.yul\":14977:14981   */\n      dup3\n        /* \"#utility.yul\":14974:14995   */\n      or\n        /* \"#utility.yul\":14966:14995   */\n      swap1\n      pop\n        /* \"#utility.yul\":14706:15001   */\n      swap3\n      swap2\n      pop\n      pop\n      jump\t// out\n        /* \"#utility.yul\":15006:16401   */\n    tag_60:\n        /* \"#utility.yul\":15123:15160   */\n      tag_297\n        /* \"#utility.yul\":15156:15159   */\n      dup3\n        /* \"#utility.yul\":15123:15160   */\n      tag_94\n      jump\t// in\n    tag_297:\n        /* \"#utility.yul\":15225:15243   */\n      0xffffffffffffffff\n        /* \"#utility.yul\":15217:15223   */\n      dup2\n        /* \"#utility.yul\":15214:15244   */\n      gt\n        /* \"#utility.yul\":15211:15267   */\n      iszero\n      tag_298\n      jumpi\n        /* \"#utility.yul\":15247:15265   */\n      tag_299\n      tag_105\n      jump\t// in\n    tag_299:\n        /* \"#utility.yul\":15211:15267   */\n    tag_298:\n        /* \"#utility.yul\":15291:15329   */\n      tag_300\n        /* \"#utility.yul\":15323:15327   */\n      dup3\n        /* \"#utility.yul\":15317:15328   */\n      sload\n        /* \"#utility.yul\":15291:15329   */\n      tag_67\n      jump\t// in\n    tag_300:\n        /* \"#utility.yul\":15376:15443   */\n      tag_301\n        /* \"#utility.yul\":15436:15442   */\n      dup3\n        /* \"#utility.yul\":15428:15434   */\n      dup3\n        /* \"#utility.yul\":15422:15426   */\n      dup6\n        /* \"#utility.yul\":15376:15443   */\n      tag_128\n      jump\t// in\n    tag_301:\n        /* \"#utility.yul\":15470:15471   */\n      0x00\n        /* \"#utility.yul\":15494:15498   */\n      0x20\n        /* \"#utility.yul\":15481:15498   */\n      swap1\n      pop\n        /* \"#utility.yul\":15526:15528   */\n      0x1f\n        /* \"#utility.yul\":15518:15524   */\n      dup4\n        /* \"#utility.yul\":15515:15529   */\n      gt\n        /* \"#utility.yul\":15543:15544   */\n      0x01\n        /* \"#utility.yul\":15538:16156   */\n      dup2\n      eq\n      tag_303\n      jumpi\n        /* \"#utility.yul\":16200:16201   */\n      0x00\n        /* \"#utility.yul\":16217:16223   */\n      dup5\n        /* \"#utility.yul\":16214:16291   */\n      iszero\n      tag_304\n      jumpi\n        /* \"#utility.yul\":16266:16275   */\n      dup3\n        /* \"#utility.yul\":16261:16264   */\n      dup8\n        /* \"#utility.yul\":16257:16276   */\n      add\n        /* \"#utility.yul\":16251:16277   */\n      mload\n        /* \"#utility.yul\":16242:16277   */\n      swap1\n      pop\n        /* \"#utility.yul\":16214:16291   */\n    tag_304:\n        /* \"#utility.yul\":16317:16384   */\n      tag_305\n        /* \"#utility.yul\":16377:16383   */\n      dup6\n        /* \"#utility.yul\":16370:16375   */\n      dup3\n        /* \"#utility.yul\":16317:16384   */\n      tag_131\n      jump\t// in\n    tag_305:\n        /* \"#utility.yul\":16311:16315   */\n      dup7\n        /* \"#utility.yul\":16304:16385   */\n      sstore\n        /* \"#utility.yul\":16173:16395   */\n      pop\n        /* \"#utility.yul\":15508:16395   */\n      jump(tag_302)\n        /* \"#utility.yul\":15538:16156   */\n    tag_303:\n        /* \"#utility.yul\":15590:15594   */\n      0x1f\n        /* \"#utility.yul\":15586:15595   */\n      not\n        /* \"#utility.yul\":15578:15584   */\n      dup5\n        /* \"#utility.yul\":15574:15596   */\n      and\n        /* \"#utility.yul\":15624:15661   */\n      tag_306\n        /* \"#utility.yul\":15656:15660   */\n      dup7\n        /* \"#utility.yul\":15624:15661   */\n      tag_117\n      jump\t// in\n    tag_306:\n        /* \"#utility.yul\":15683:15684   */\n      0x00\n        /* \"#utility.yul\":15697:15905   */\n    tag_307:\n        /* \"#utility.yul\":15711:15718   */\n      dup3\n        /* \"#utility.yul\":15708:15709   */\n      dup2\n        /* \"#utility.yul\":15705:15719   */\n      lt\n        /* \"#utility.yul\":15697:15905   */\n      iszero\n      tag_309\n      jumpi\n        /* \"#utility.yul\":15790:15799   */\n      dup5\n        /* \"#utility.yul\":15785:15788   */\n      dup10\n        /* \"#utility.yul\":15781:15800   */\n      add\n        /* \"#utility.yul\":15775:15801   */\n      mload\n        /* \"#utility.yul\":15767:15773   */\n      dup3\n        /* \"#utility.yul\":15760:15802   */\n      sstore\n        /* \"#utility.yul\":15841:15842   */\n      0x01\n        /* \"#utility.yul\":15833:15839   */\n      dup3\n        /* \"#utility.yul\":15829:15843   */\n      add\n        /* \"#utility.yul\":15819:15843   */\n      swap2\n      pop\n        /* \"#utility.yul\":15888:15890   */\n      0x20\n        /* \"#utility.yul\":15877:15886   */\n      dup6\n        /* \"#utility.yul\":15873:15891   */\n      add\n        /* \"#utility.yul\":15860:15891   */\n      swap5\n      pop\n        /* \"#utility.yul\":15734:15738   */\n      0x20\n        /* \"#utility.yul\":15731:15732   */\n      dup2\n        /* \"#utility.yul\":15727:15739   */\n      add\n        /* \"#utility.yul\":15722:15739   */\n      swap1\n      pop\n        /* \"#utility.yul\":15697:15905   */\n      jump(tag_307)\n    tag_309:\n        /* \"#utility.yul\":15933:15939   */\n      dup7\n        /* \"#utility.yul\":15924:15931   */\n      dup4\n        /* \"#utility.yul\":15921:15940   */\n      lt\n        /* \"#utility.yul\":15918:16097   */\n      iszero\n      tag_310\n      jumpi\n        /* \"#utility.yul\":15991:16000   */\n      dup5\n        /* \"#utility.yul\":15986:15989   */\n      dup10\n        /* \"#utility.yul\":15982:16001   */\n      add\n        /* \"#utility.yul\":15976:16002   */\n      mload\n        /* \"#utility.yul\":16034:16082   */\n      tag_311\n        /* \"#utility.yul\":16076:16080   */\n      0x1f\n        /* \"#utility.yul\":16068:16074   */\n      dup10\n        /* \"#utility.yul\":16064:16081   */\n      and\n        /* \"#utility.yul\":16053:16062   */\n      dup3\n        /* \"#utility.yul\":16034:16082   */\n      tag_130\n      jump\t// in\n    tag_311:\n        /* \"#utility.yul\":16026:16032   */\n      dup4\n        /* \"#utility.yul\":16019:16083   */\n      sstore\n        /* \"#utility.yul\":15941:16097   */\n      pop\n        /* \"#utility.yul\":15918:16097   */\n    tag_310:\n        /* \"#utility.yul\":16143:16144   */\n      0x01\n        /* \"#utility.yul\":16139:16140   */\n      0x02\n        /* \"#utility.yul\":16131:16137   */\n      dup9\n        /* \"#utility.yul\":16127:16141   */\n      mul\n        /* \"#utility.yul\":16123:16145   */\n      add\n        /* \"#utility.yul\":16117:16121   */\n      dup9\n        /* \"#utility.yul\":16110:16146   */\n      sstore\n        /* \"#utility.yul\":15545:16156   */\n      pop\n      pop\n      pop\n        /* \"#utility.yul\":15508:16395   */\n    tag_302:\n      pop\n        /* \"#utility.yul\":15098:16401   */\n      pop\n      pop\n      pop\n        /* \"#utility.yul\":15006:16401   */\n      pop\n      pop\n      jump\t// out\n    stop\n    data_0ca2f15729f69752c2b5125de0bdc304f054fa14900921cf98bd51c3c741ab45 596f757220696e636f6d652069732067726561746572207468616e2072657175697265642c20596f7520617265206e6f7420456c696769626c65\n    data_d8870fa02eff567749f02e3637269613d5d1b227d5ea4a83fa1bc2c2cacd158d 596f7572206c616e642069732067726561746572207468616e2072657175697265642c20596f7520617265206e6f7420456c696769626c65\n\n    auxdata: 0xa2646970667358221220049c0b7d670c6d9882e48e7db1fdd1b8cefcf0efe25bc058ae9c9ec34b1e1dc264736f6c63430008120033\n}\n",
				"bytecode": {
					"linkReferences": {},
					"object": "60806040523480156200001157600080fd5b5060405162001518380380620015188339818101604052810190620000379190620000cd565b336000806101000a81548173ffffffffffffffffffffffffffffffffffffffff021916908373ffffffffffffffffffffffffffffffffffffffff1602179055508160018190555080600281905550505062000114565b600080fd5b6000819050919050565b620000a78162000092565b8114620000b357600080fd5b50565b600081519050620000c7816200009c565b92915050565b60008060408385031215620000e757620000e66200008d565b5b6000620000f785828601620000b6565b92505060206200010a85828601620000b6565b9150509250929050565b6113f480620001246000396000f3fe608060405234801561001057600080fd5b506004361061007d5760003560e01c80639dedfc701161005b5780639dedfc70146100ec578063b4aa4d0d14610108578063c2bc2efc14610124578063f5c2b123146101575761007d565b80630713b139146100825780636098c94c146100b25780639db23f4d146100d0575b600080fd5b61009c60048036038101906100979190610a7f565b61018a565b6040516100a99190610b3c565b60405180910390f35b6100ba6102a0565b6040516100c79190610b6d565b60405180910390f35b6100ea60048036038101906100e59190610bbe565b6102c4565b005b61010660048036038101906101019190610d46565b61037b565b005b610122600480360381019061011d9190610ddd565b610561565b005b61013e60048036038101906101399190610a7f565b610696565b60405161014e9493929190610e9f565b60405180910390f35b610171600480360381019061016c9190610a7f565b6108cd565b6040516101819493929190610ef2565b60405180910390f35b6060600154600360008473ffffffffffffffffffffffffffffffffffffffff1673ffffffffffffffffffffffffffffffffffffffff168152602001908152602001600020600101541161027f57600254600360008473ffffffffffffffffffffffffffffffffffffffff1673ffffffffffffffffffffffffffffffffffffffff168152602001908152602001600020600201541161025f576040518060400160405280601181526020017f596f75722061726520456c696769626c65000000000000000000000000000000815250905061029b565b6040518060600160405280603a815260200161134d603a9139905061029b565b6040518060600160405280603881526020016113876038913990505b919050565b60008054906101000a900473ffffffffffffffffffffffffffffffffffffffff1681565b81600360008573ffffffffffffffffffffffffffffffffffffffff1673ffffffffffffffffffffffffffffffffffffffff16815260200190815260200160002060010160008282546103169190610f74565b9250508190555080600360008573ffffffffffffffffffffffffffffffffffffffff1673ffffffffffffffffffffffffffffffffffffffff168152602001908152602001600020600201600082825461036f9190610fa8565b92505081905550505050565b82600360008773ffffffffffffffffffffffffffffffffffffffff1673ffffffffffffffffffffffffffffffffffffffff16815260200190815260200160002060010154116103ff576040517f08c379a00000000000000000000000000000000000000000000000000000000081526004016103f69061104e565b60405180910390fd5b82600360008773ffffffffffffffffffffffffffffffffffffffff1673ffffffffffffffffffffffffffffffffffffffff16815260200190815260200160002060010160008282546104519190610fa8565b9250508190555082600360008673ffffffffffffffffffffffffffffffffffffffff1673ffffffffffffffffffffffffffffffffffffffff16815260200190815260200160002060010160008282546104aa9190610f74565b9250508190555080600360008773ffffffffffffffffffffffffffffffffffffffff1673ffffffffffffffffffffffffffffffffffffffff1681526020019081526020016000206003019081610500919061127a565b5081600360008773ffffffffffffffffffffffffffffffffffffffff1673ffffffffffffffffffffffffffffffffffffffff16815260200190815260200160002060020160008282546105539190610f74565b925050819055505050505050565b83600360008773ffffffffffffffffffffffffffffffffffffffff1673ffffffffffffffffffffffffffffffffffffffff16815260200190815260200160002060000190816105b0919061127a565b5082600360008773ffffffffffffffffffffffffffffffffffffffff1673ffffffffffffffffffffffffffffffffffffffff1681526020019081526020016000206003019081610600919061127a565b5081600360008773ffffffffffffffffffffffffffffffffffffffff1673ffffffffffffffffffffffffffffffffffffffff1681526020019081526020016000206002018190555080600360008773ffffffffffffffffffffffffffffffffffffffff1673ffffffffffffffffffffffffffffffffffffffff168152602001908152602001600020600101819055505050505050565b606080600080600360008673ffffffffffffffffffffffffffffffffffffffff1673ffffffffffffffffffffffffffffffffffffffff168152602001908152602001600020600001600360008773ffffffffffffffffffffffffffffffffffffffff1673ffffffffffffffffffffffffffffffffffffffff168152602001908152602001600020600301600360008873ffffffffffffffffffffffffffffffffffffffff1673ffffffffffffffffffffffffffffffffffffffff16815260200190815260200160002060020154600360008973ffffffffffffffffffffffffffffffffffffffff1673ffffffffffffffffffffffffffffffffffffffff168152602001908152602001600020600101548380546107b29061109d565b80601f01602080910402602001604051908101604052809291908181526020018280546107de9061109d565b801561082b5780601f106108005761010080835404028352916020019161082b565b820191906000526020600020905b81548152906001019060200180831161080e57829003601f168201915b5050505050935082805461083e9061109d565b80601f016020809104026020016040519081016040528092919081815260200182805461086a9061109d565b80156108b75780601f1061088c576101008083540402835291602001916108b7565b820191906000526020600020905b81548152906001019060200180831161089a57829003601f168201915b5050505050925093509350935093509193509193565b60036020528060005260406000206000915090508060000180546108f09061109d565b80601f016020809104026020016040519081016040528092919081815260200182805461091c9061109d565b80156109695780601f1061093e57610100808354040283529160200191610969565b820191906000526020600020905b81548152906001019060200180831161094c57829003601f168201915b50505050509080600101549080600201549080600301805461098a9061109d565b80601f01602080910402602001604051908101604052809291908181526020018280546109b69061109d565b8015610a035780601f106109d857610100808354040283529160200191610a03565b820191906000526020600020905b8154815290600101906020018083116109e657829003601f168201915b5050505050905084565b6000604051905090565b600080fd5b600080fd5b600073ffffffffffffffffffffffffffffffffffffffff82169050919050565b6000610a4c82610a21565b9050919050565b610a5c81610a41565b8114610a6757600080fd5b50565b600081359050610a7981610a53565b92915050565b600060208284031215610a9557610a94610a17565b5b6000610aa384828501610a6a565b91505092915050565b600081519050919050565b600082825260208201905092915050565b60005b83811015610ae6578082015181840152602081019050610acb565b60008484015250505050565b6000601f19601f8301169050919050565b6000610b0e82610aac565b610b188185610ab7565b9350610b28818560208601610ac8565b610b3181610af2565b840191505092915050565b60006020820190508181036000830152610b568184610b03565b905092915050565b610b6781610a41565b82525050565b6000602082019050610b826000830184610b5e565b92915050565b6000819050919050565b610b9b81610b88565b8114610ba657600080fd5b50565b600081359050610bb881610b92565b92915050565b600080600060608486031215610bd757610bd6610a17565b5b6000610be586828701610a6a565b9350506020610bf686828701610ba9565b9250506040610c0786828701610ba9565b9150509250925092565b600080fd5b600080fd5b7f4e487b7100000000000000000000000000000000000000000000000000000000600052604160045260246000fd5b610c5382610af2565b810181811067ffffffffffffffff82111715610c7257610c71610c1b565b5b80604052505050565b6000610c85610a0d565b9050610c918282610c4a565b919050565b600067ffffffffffffffff821115610cb157610cb0610c1b565b5b610cba82610af2565b9050602081019050919050565b82818337600083830152505050565b6000610ce9610ce484610c96565b610c7b565b905082815260208101848484011115610d0557610d04610c16565b5b610d10848285610cc7565b509392505050565b600082601f830112610d2d57610d2c610c11565b5b8135610d3d848260208601610cd6565b91505092915050565b600080600080600060a08688031215610d6257610d61610a17565b5b6000610d7088828901610a6a565b9550506020610d8188828901610a6a565b9450506040610d9288828901610ba9565b9350506060610da388828901610ba9565b925050608086013567ffffffffffffffff811115610dc457610dc3610a1c565b5b610dd088828901610d18565b9150509295509295909350565b600080600080600060a08688031215610df957610df8610a17565b5b6000610e0788828901610a6a565b955050602086013567ffffffffffffffff811115610e2857610e27610a1c565b5b610e3488828901610d18565b945050604086013567ffffffffffffffff811115610e5557610e54610a1c565b5b610e6188828901610d18565b9350506060610e7288828901610ba9565b9250506080610e8388828901610ba9565b9150509295509295909350565b610e9981610b88565b82525050565b60006080820190508181036000830152610eb98187610b03565b90508181036020830152610ecd8186610b03565b9050610edc6040830185610e90565b610ee96060830184610e90565b95945050505050565b60006080820190508181036000830152610f0c8187610b03565b9050610f1b6020830186610e90565b610f286040830185610e90565b8181036060830152610f3a8184610b03565b905095945050505050565b7f4e487b7100000000000000000000000000000000000000000000000000000000600052601160045260246000fd5b6000610f7f82610b88565b9150610f8a83610b88565b9250828201905080821115610fa257610fa1610f45565b5b92915050565b6000610fb382610b88565b9150610fbe83610b88565b9250828203905081811115610fd657610fd5610f45565b5b92915050565b7f596f752068617665206e6f2073756666696369656e74206c616e6420746f207460008201527f72616e7366657200000000000000000000000000000000000000000000000000602082015250565b6000611038602783610ab7565b915061104382610fdc565b604082019050919050565b600060208201905081810360008301526110678161102b565b9050919050565b7f4e487b7100000000000000000000000000000000000000000000000000000000600052602260045260246000fd5b600060028204905060018216806110b557607f821691505b6020821081036110c8576110c761106e565b5b50919050565b60008190508160005260206000209050919050565b60006020601f8301049050919050565b600082821b905092915050565b6000600883026111307fffffffffffffffffffffffffffffffffffffffffffffffffffffffffffffffff826110f3565b61113a86836110f3565b95508019841693508086168417925050509392505050565b6000819050919050565b600061117761117261116d84610b88565b611152565b610b88565b9050919050565b6000819050919050565b6111918361115c565b6111a561119d8261117e565b848454611100565b825550505050565b600090565b6111ba6111ad565b6111c5818484611188565b505050565b5b818110156111e9576111de6000826111b2565b6001810190506111cb565b5050565b601f82111561122e576111ff816110ce565b611208846110e3565b81016020851015611217578190505b61122b611223856110e3565b8301826111ca565b50505b505050565b600082821c905092915050565b600061125160001984600802611233565b1980831691505092915050565b600061126a8383611240565b9150826002028217905092915050565b61128382610aac565b67ffffffffffffffff81111561129c5761129b610c1b565b5b6112a6825461109d565b6112b18282856111ed565b600060209050601f8311600181146112e457600084156112d2578287015190505b6112dc858261125e565b865550611344565b601f1984166112f2866110ce565b60005b8281101561131a578489015182556001820191506020850194506020810190506112f5565b868310156113375784890151611333601f891682611240565b8355505b6001600288020188555050505b50505050505056fe596f757220696e636f6d652069732067726561746572207468616e2072657175697265642c20596f7520617265206e6f7420456c696769626c65596f7572206c616e642069732067726561746572207468616e2072657175697265642c20596f7520617265206e6f7420456c696769626c65a2646970667358221220049c0b7d670c6d9882e48e7db1fdd1b8cefcf0efe25bc058ae9c9ec34b1e1dc264736f6c63430008120033",
					"opcodes": "PUSH1 0x80 PUSH1 0x40 MSTORE CALLVALUE DUP1 ISZERO PUSH3 0x11 JUMPI PUSH1 0x0 DUP1 REVERT JUMPDEST POP PUSH1 0x40 MLOAD PUSH3 0x1518 CODESIZE SUB DUP1 PUSH3 0x1518 DUP4 CODECOPY DUP2 DUP2 ADD PUSH1 0x40 MSTORE DUP2 ADD SWAP1 PUSH3 0x37 SWAP2 SWAP1 PUSH3 0xCD JUMP JUMPDEST CALLER PUSH1 0x0 DUP1 PUSH2 0x100 EXP DUP2 SLOAD DUP2 PUSH20 0xFFFFFFFFFFFFFFFFFFFFFFFFFFFFFFFFFFFFFFFF MUL NOT AND SWAP1 DUP4 PUSH20 0xFFFFFFFFFFFFFFFFFFFFFFFFFFFFFFFFFFFFFFFF AND MUL OR SWAP1 SSTORE POP DUP2 PUSH1 0x1 DUP2 SWAP1 SSTORE POP DUP1 PUSH1 0x2 DUP2 SWAP1 SSTORE POP POP POP PUSH3 0x114 JUMP JUMPDEST PUSH1 0x0 DUP1 REVERT JUMPDEST PUSH1 0x0 DUP2 SWAP1 POP SWAP2 SWAP1 POP JUMP JUMPDEST PUSH3 0xA7 DUP2 PUSH3 0x92 JUMP JUMPDEST DUP2 EQ PUSH3 0xB3 JUMPI PUSH1 0x0 DUP1 REVERT JUMPDEST POP JUMP JUMPDEST PUSH1 0x0 DUP2 MLOAD SWAP1 POP PUSH3 0xC7 DUP2 PUSH3 0x9C JUMP JUMPDEST SWAP3 SWAP2 POP POP JUMP JUMPDEST PUSH1 0x0 DUP1 PUSH1 0x40 DUP4 DUP6 SUB SLT ISZERO PUSH3 0xE7 JUMPI PUSH3 0xE6 PUSH3 0x8D JUMP JUMPDEST JUMPDEST PUSH1 0x0 PUSH3 0xF7 DUP6 DUP3 DUP7 ADD PUSH3 0xB6 JUMP JUMPDEST SWAP3 POP POP PUSH1 0x20 PUSH3 0x10A DUP6 DUP3 DUP7 ADD PUSH3 0xB6 JUMP JUMPDEST SWAP2 POP POP SWAP3 POP SWAP3 SWAP1 POP JUMP JUMPDEST PUSH2 0x13F4 DUP1 PUSH3 0x124 PUSH1 0x0 CODECOPY PUSH1 0x0 RETURN INVALID PUSH1 0x80 PUSH1 0x40 MSTORE CALLVALUE DUP1 ISZERO PUSH2 0x10 JUMPI PUSH1 0x0 DUP1 REVERT JUMPDEST POP PUSH1 0x4 CALLDATASIZE LT PUSH2 0x7D JUMPI PUSH1 0x0 CALLDATALOAD PUSH1 0xE0 SHR DUP1 PUSH4 0x9DEDFC70 GT PUSH2 0x5B JUMPI DUP1 PUSH4 0x9DEDFC70 EQ PUSH2 0xEC JUMPI DUP1 PUSH4 0xB4AA4D0D EQ PUSH2 0x108 JUMPI DUP1 PUSH4 0xC2BC2EFC EQ PUSH2 0x124 JUMPI DUP1 PUSH4 0xF5C2B123 EQ PUSH2 0x157 JUMPI PUSH2 0x7D JUMP JUMPDEST DUP1 PUSH4 0x713B139 EQ PUSH2 0x82 JUMPI DUP1 PUSH4 0x6098C94C EQ PUSH2 0xB2 JUMPI DUP1 PUSH4 0x9DB23F4D EQ PUSH2 0xD0 JUMPI JUMPDEST PUSH1 0x0 DUP1 REVERT JUMPDEST PUSH2 0x9C PUSH1 0x4 DUP1 CALLDATASIZE SUB DUP2 ADD SWAP1 PUSH2 0x97 SWAP2 SWAP1 PUSH2 0xA7F JUMP JUMPDEST PUSH2 0x18A JUMP JUMPDEST PUSH1 0x40 MLOAD PUSH2 0xA9 SWAP2 SWAP1 PUSH2 0xB3C JUMP JUMPDEST PUSH1 0x40 MLOAD DUP1 SWAP2 SUB SWAP1 RETURN JUMPDEST PUSH2 0xBA PUSH2 0x2A0 JUMP JUMPDEST PUSH1 0x40 MLOAD PUSH2 0xC7 SWAP2 SWAP1 PUSH2 0xB6D JUMP JUMPDEST PUSH1 0x40 MLOAD DUP1 SWAP2 SUB SWAP1 RETURN JUMPDEST PUSH2 0xEA PUSH1 0x4 DUP1 CALLDATASIZE SUB DUP2 ADD SWAP1 PUSH2 0xE5 SWAP2 SWAP1 PUSH2 0xBBE JUMP JUMPDEST PUSH2 0x2C4 JUMP JUMPDEST STOP JUMPDEST PUSH2 0x106 PUSH1 0x4 DUP1 CALLDATASIZE SUB DUP2 ADD SWAP1 PUSH2 0x101 SWAP2 SWAP1 PUSH2 0xD46 JUMP JUMPDEST PUSH2 0x37B JUMP JUMPDEST STOP JUMPDEST PUSH2 0x122 PUSH1 0x4 DUP1 CALLDATASIZE SUB DUP2 ADD SWAP1 PUSH2 0x11D SWAP2 SWAP1 PUSH2 0xDDD JUMP JUMPDEST PUSH2 0x561 JUMP JUMPDEST STOP JUMPDEST PUSH2 0x13E PUSH1 0x4 DUP1 CALLDATASIZE SUB DUP2 ADD SWAP1 PUSH2 0x139 SWAP2 SWAP1 PUSH2 0xA7F JUMP JUMPDEST PUSH2 0x696 JUMP JUMPDEST PUSH1 0x40 MLOAD PUSH2 0x14E SWAP5 SWAP4 SWAP3 SWAP2 SWAP1 PUSH2 0xE9F JUMP JUMPDEST PUSH1 0x40 MLOAD DUP1 SWAP2 SUB SWAP1 RETURN JUMPDEST PUSH2 0x171 PUSH1 0x4 DUP1 CALLDATASIZE SUB DUP2 ADD SWAP1 PUSH2 0x16C SWAP2 SWAP1 PUSH2 0xA7F JUMP JUMPDEST PUSH2 0x8CD JUMP JUMPDEST PUSH1 0x40 MLOAD PUSH2 0x181 SWAP5 SWAP4 SWAP3 SWAP2 SWAP1 PUSH2 0xEF2 JUMP JUMPDEST PUSH1 0x40 MLOAD DUP1 SWAP2 SUB SWAP1 RETURN JUMPDEST PUSH1 0x60 PUSH1 0x1 SLOAD PUSH1 0x3 PUSH1 0x0 DUP5 PUSH20 0xFFFFFFFFFFFFFFFFFFFFFFFFFFFFFFFFFFFFFFFF AND PUSH20 0xFFFFFFFFFFFFFFFFFFFFFFFFFFFFFFFFFFFFFFFF AND DUP2 MSTORE PUSH1 0x20 ADD SWAP1 DUP2 MSTORE PUSH1 0x20 ADD PUSH1 0x0 KECCAK256 PUSH1 0x1 ADD SLOAD GT PUSH2 0x27F JUMPI PUSH1 0x2 SLOAD PUSH1 0x3 PUSH1 0x0 DUP5 PUSH20 0xFFFFFFFFFFFFFFFFFFFFFFFFFFFFFFFFFFFFFFFF AND PUSH20 0xFFFFFFFFFFFFFFFFFFFFFFFFFFFFFFFFFFFFFFFF AND DUP2 MSTORE PUSH1 0x20 ADD SWAP1 DUP2 MSTORE PUSH1 0x20 ADD PUSH1 0x0 KECCAK256 PUSH1 0x2 ADD SLOAD GT PUSH2 0x25F JUMPI PUSH1 0x40 MLOAD DUP1 PUSH1 0x40 ADD PUSH1 0x40 MSTORE DUP1 PUSH1 0x11 DUP2 MSTORE PUSH1 0x20 ADD PUSH32 0x596F75722061726520456C696769626C65000000000000000000000000000000 DUP2 MSTORE POP SWAP1 POP PUSH2 0x29B JUMP JUMPDEST PUSH1 0x40 MLOAD DUP1 PUSH1 0x60 ADD PUSH1 0x40 MSTORE DUP1 PUSH1 0x3A DUP2 MSTORE PUSH1 0x20 ADD PUSH2 0x134D PUSH1 0x3A SWAP2 CODECOPY SWAP1 POP PUSH2 0x29B JUMP JUMPDEST PUSH1 0x40 MLOAD DUP1 PUSH1 0x60 ADD PUSH1 0x40 MSTORE DUP1 PUSH1 0x38 DUP2 MSTORE PUSH1 0x20 ADD PUSH2 0x1387 PUSH1 0x38 SWAP2 CODECOPY SWAP1 POP JUMPDEST SWAP2 SWAP1 POP JUMP JUMPDEST PUSH1 0x0 DUP1 SLOAD SWAP1 PUSH2 0x100 EXP SWAP1 DIV PUSH20 0xFFFFFFFFFFFFFFFFFFFFFFFFFFFFFFFFFFFFFFFF AND DUP2 JUMP JUMPDEST DUP2 PUSH1 0x3 PUSH1 0x0 DUP6 PUSH20 0xFFFFFFFFFFFFFFFFFFFFFFFFFFFFFFFFFFFFFFFF AND PUSH20 0xFFFFFFFFFFFFFFFFFFFFFFFFFFFFFFFFFFFFFFFF AND DUP2 MSTORE PUSH1 0x20 ADD SWAP1 DUP2 MSTORE PUSH1 0x20 ADD PUSH1 0x0 KECCAK256 PUSH1 0x1 ADD PUSH1 0x0 DUP3 DUP3 SLOAD PUSH2 0x316 SWAP2 SWAP1 PUSH2 0xF74 JUMP JUMPDEST SWAP3 POP POP DUP2 SWAP1 SSTORE POP DUP1 PUSH1 0x3 PUSH1 0x0 DUP6 PUSH20 0xFFFFFFFFFFFFFFFFFFFFFFFFFFFFFFFFFFFFFFFF AND PUSH20 0xFFFFFFFFFFFFFFFFFFFFFFFFFFFFFFFFFFFFFFFF AND DUP2 MSTORE PUSH1 0x20 ADD SWAP1 DUP2 MSTORE PUSH1 0x20 ADD PUSH1 0x0 KECCAK256 PUSH1 0x2 ADD PUSH1 0x0 DUP3 DUP3 SLOAD PUSH2 0x36F SWAP2 SWAP1 PUSH2 0xFA8 JUMP JUMPDEST SWAP3 POP POP DUP2 SWAP1 SSTORE POP POP POP POP JUMP JUMPDEST DUP3 PUSH1 0x3 PUSH1 0x0 DUP8 PUSH20 0xFFFFFFFFFFFFFFFFFFFFFFFFFFFFFFFFFFFFFFFF AND PUSH20 0xFFFFFFFFFFFFFFFFFFFFFFFFFFFFFFFFFFFFFFFF AND DUP2 MSTORE PUSH1 0x20 ADD SWAP1 DUP2 MSTORE PUSH1 0x20 ADD PUSH1 0x0 KECCAK256 PUSH1 0x1 ADD SLOAD GT PUSH2 0x3FF JUMPI PUSH1 0x40 MLOAD PUSH32 0x8C379A000000000000000000000000000000000000000000000000000000000 DUP2 MSTORE PUSH1 0x4 ADD PUSH2 0x3F6 SWAP1 PUSH2 0x104E JUMP JUMPDEST PUSH1 0x40 MLOAD DUP1 SWAP2 SUB SWAP1 REVERT JUMPDEST DUP3 PUSH1 0x3 PUSH1 0x0 DUP8 PUSH20 0xFFFFFFFFFFFFFFFFFFFFFFFFFFFFFFFFFFFFFFFF AND PUSH20 0xFFFFFFFFFFFFFFFFFFFFFFFFFFFFFFFFFFFFFFFF AND DUP2 MSTORE PUSH1 0x20 ADD SWAP1 DUP2 MSTORE PUSH1 0x20 ADD PUSH1 0x0 KECCAK256 PUSH1 0x1 ADD PUSH1 0x0 DUP3 DUP3 SLOAD PUSH2 0x451 SWAP2 SWAP1 PUSH2 0xFA8 JUMP JUMPDEST SWAP3 POP POP DUP2 SWAP1 SSTORE POP DUP3 PUSH1 0x3 PUSH1 0x0 DUP7 PUSH20 0xFFFFFFFFFFFFFFFFFFFFFFFFFFFFFFFFFFFFFFFF AND PUSH20 0xFFFFFFFFFFFFFFFFFFFFFFFFFFFFFFFFFFFFFFFF AND DUP2 MSTORE PUSH1 0x20 ADD SWAP1 DUP2 MSTORE PUSH1 0x20 ADD PUSH1 0x0 KECCAK256 PUSH1 0x1 ADD PUSH1 0x0 DUP3 DUP3 SLOAD PUSH2 0x4AA SWAP2 SWAP1 PUSH2 0xF74 JUMP JUMPDEST SWAP3 POP POP DUP2 SWAP1 SSTORE POP DUP1 PUSH1 0x3 PUSH1 0x0 DUP8 PUSH20 0xFFFFFFFFFFFFFFFFFFFFFFFFFFFFFFFFFFFFFFFF AND PUSH20 0xFFFFFFFFFFFFFFFFFFFFFFFFFFFFFFFFFFFFFFFF AND DUP2 MSTORE PUSH1 0x20 ADD SWAP1 DUP2 MSTORE PUSH1 0x20 ADD PUSH1 0x0 KECCAK256 PUSH1 0x3 ADD SWAP1 DUP2 PUSH2 0x500 SWAP2 SWAP1 PUSH2 0x127A JUMP JUMPDEST POP DUP2 PUSH1 0x3 PUSH1 0x0 DUP8 PUSH20 0xFFFFFFFFFFFFFFFFFFFFFFFFFFFFFFFFFFFFFFFF AND PUSH20 0xFFFFFFFFFFFFFFFFFFFFFFFFFFFFFFFFFFFFFFFF AND DUP2 MSTORE PUSH1 0x20 ADD SWAP1 DUP2 MSTORE PUSH1 0x20 ADD PUSH1 0x0 KECCAK256 PUSH1 0x2 ADD PUSH1 0x0 DUP3 DUP3 SLOAD PUSH2 0x553 SWAP2 SWAP1 PUSH2 0xF74 JUMP JUMPDEST SWAP3 POP POP DUP2 SWAP1 SSTORE POP POP POP POP POP POP JUMP JUMPDEST DUP4 PUSH1 0x3 PUSH1 0x0 DUP8 PUSH20 0xFFFFFFFFFFFFFFFFFFFFFFFFFFFFFFFFFFFFFFFF AND PUSH20 0xFFFFFFFFFFFFFFFFFFFFFFFFFFFFFFFFFFFFFFFF AND DUP2 MSTORE PUSH1 0x20 ADD SWAP1 DUP2 MSTORE PUSH1 0x20 ADD PUSH1 0x0 KECCAK256 PUSH1 0x0 ADD SWAP1 DUP2 PUSH2 0x5B0 SWAP2 SWAP1 PUSH2 0x127A JUMP JUMPDEST POP DUP3 PUSH1 0x3 PUSH1 0x0 DUP8 PUSH20 0xFFFFFFFFFFFFFFFFFFFFFFFFFFFFFFFFFFFFFFFF AND PUSH20 0xFFFFFFFFFFFFFFFFFFFFFFFFFFFFFFFFFFFFFFFF AND DUP2 MSTORE PUSH1 0x20 ADD SWAP1 DUP2 MSTORE PUSH1 0x20 ADD PUSH1 0x0 KECCAK256 PUSH1 0x3 ADD SWAP1 DUP2 PUSH2 0x600 SWAP2 SWAP1 PUSH2 0x127A JUMP JUMPDEST POP DUP2 PUSH1 0x3 PUSH1 0x0 DUP8 PUSH20 0xFFFFFFFFFFFFFFFFFFFFFFFFFFFFFFFFFFFFFFFF AND PUSH20 0xFFFFFFFFFFFFFFFFFFFFFFFFFFFFFFFFFFFFFFFF AND DUP2 MSTORE PUSH1 0x20 ADD SWAP1 DUP2 MSTORE PUSH1 0x20 ADD PUSH1 0x0 KECCAK256 PUSH1 0x2 ADD DUP2 SWAP1 SSTORE POP DUP1 PUSH1 0x3 PUSH1 0x0 DUP8 PUSH20 0xFFFFFFFFFFFFFFFFFFFFFFFFFFFFFFFFFFFFFFFF AND PUSH20 0xFFFFFFFFFFFFFFFFFFFFFFFFFFFFFFFFFFFFFFFF AND DUP2 MSTORE PUSH1 0x20 ADD SWAP1 DUP2 MSTORE PUSH1 0x20 ADD PUSH1 0x0 KECCAK256 PUSH1 0x1 ADD DUP2 SWAP1 SSTORE POP POP POP POP POP POP JUMP JUMPDEST PUSH1 0x60 DUP1 PUSH1 0x0 DUP1 PUSH1 0x3 PUSH1 0x0 DUP7 PUSH20 0xFFFFFFFFFFFFFFFFFFFFFFFFFFFFFFFFFFFFFFFF AND PUSH20 0xFFFFFFFFFFFFFFFFFFFFFFFFFFFFFFFFFFFFFFFF AND DUP2 MSTORE PUSH1 0x20 ADD SWAP1 DUP2 MSTORE PUSH1 0x20 ADD PUSH1 0x0 KECCAK256 PUSH1 0x0 ADD PUSH1 0x3 PUSH1 0x0 DUP8 PUSH20 0xFFFFFFFFFFFFFFFFFFFFFFFFFFFFFFFFFFFFFFFF AND PUSH20 0xFFFFFFFFFFFFFFFFFFFFFFFFFFFFFFFFFFFFFFFF AND DUP2 MSTORE PUSH1 0x20 ADD SWAP1 DUP2 MSTORE PUSH1 0x20 ADD PUSH1 0x0 KECCAK256 PUSH1 0x3 ADD PUSH1 0x3 PUSH1 0x0 DUP9 PUSH20 0xFFFFFFFFFFFFFFFFFFFFFFFFFFFFFFFFFFFFFFFF AND PUSH20 0xFFFFFFFFFFFFFFFFFFFFFFFFFFFFFFFFFFFFFFFF AND DUP2 MSTORE PUSH1 0x20 ADD SWAP1 DUP2 MSTORE PUSH1 0x20 ADD PUSH1 0x0 KECCAK256 PUSH1 0x2 ADD SLOAD PUSH1 0x3 PUSH1 0x0 DUP10 PUSH20 0xFFFFFFFFFFFFFFFFFFFFFFFFFFFFFFFFFFFFFFFF AND PUSH20 0xFFFFFFFFFFFFFFFFFFFFFFFFFFFFFFFFFFFFFFFF AND DUP2 MSTORE PUSH1 0x20 ADD SWAP1 DUP2 MSTORE PUSH1 0x20 ADD PUSH1 0x0 KECCAK256 PUSH1 0x1 ADD SLOAD DUP4 DUP1 SLOAD PUSH2 0x7B2 SWAP1 PUSH2 0x109D JUMP JUMPDEST DUP1 PUSH1 0x1F ADD PUSH1 0x20 DUP1 SWAP2 DIV MUL PUSH1 0x20 ADD PUSH1 0x40 MLOAD SWAP1 DUP2 ADD PUSH1 0x40 MSTORE DUP1 SWAP3 SWAP2 SWAP1 DUP2 DUP2 MSTORE PUSH1 0x20 ADD DUP3 DUP1 SLOAD PUSH2 0x7DE SWAP1 PUSH2 0x109D JUMP JUMPDEST DUP1 ISZERO PUSH2 0x82B JUMPI DUP1 PUSH1 0x1F LT PUSH2 0x800 JUMPI PUSH2 0x100 DUP1 DUP4 SLOAD DIV MUL DUP4 MSTORE SWAP2 PUSH1 0x20 ADD SWAP2 PUSH2 0x82B JUMP JUMPDEST DUP3 ADD SWAP2 SWAP1 PUSH1 0x0 MSTORE PUSH1 0x20 PUSH1 0x0 KECCAK256 SWAP1 JUMPDEST DUP2 SLOAD DUP2 MSTORE SWAP1 PUSH1 0x1 ADD SWAP1 PUSH1 0x20 ADD DUP1 DUP4 GT PUSH2 0x80E JUMPI DUP3 SWAP1 SUB PUSH1 0x1F AND DUP3 ADD SWAP2 JUMPDEST POP POP POP POP POP SWAP4 POP DUP3 DUP1 SLOAD PUSH2 0x83E SWAP1 PUSH2 0x109D JUMP JUMPDEST DUP1 PUSH1 0x1F ADD PUSH1 0x20 DUP1 SWAP2 DIV MUL PUSH1 0x20 ADD PUSH1 0x40 MLOAD SWAP1 DUP2 ADD PUSH1 0x40 MSTORE DUP1 SWAP3 SWAP2 SWAP1 DUP2 DUP2 MSTORE PUSH1 0x20 ADD DUP3 DUP1 SLOAD PUSH2 0x86A SWAP1 PUSH2 0x109D JUMP JUMPDEST DUP1 ISZERO PUSH2 0x8B7 JUMPI DUP1 PUSH1 0x1F LT PUSH2 0x88C JUMPI PUSH2 0x100 DUP1 DUP4 SLOAD DIV MUL DUP4 MSTORE SWAP2 PUSH1 0x20 ADD SWAP2 PUSH2 0x8B7 JUMP JUMPDEST DUP3 ADD SWAP2 SWAP1 PUSH1 0x0 MSTORE PUSH1 0x20 PUSH1 0x0 KECCAK256 SWAP1 JUMPDEST DUP2 SLOAD DUP2 MSTORE SWAP1 PUSH1 0x1 ADD SWAP1 PUSH1 0x20 ADD DUP1 DUP4 GT PUSH2 0x89A JUMPI DUP3 SWAP1 SUB PUSH1 0x1F AND DUP3 ADD SWAP2 JUMPDEST POP POP POP POP POP SWAP3 POP SWAP4 POP SWAP4 POP SWAP4 POP SWAP4 POP SWAP2 SWAP4 POP SWAP2 SWAP4 JUMP JUMPDEST PUSH1 0x3 PUSH1 0x20 MSTORE DUP1 PUSH1 0x0 MSTORE PUSH1 0x40 PUSH1 0x0 KECCAK256 PUSH1 0x0 SWAP2 POP SWAP1 POP DUP1 PUSH1 0x0 ADD DUP1 SLOAD PUSH2 0x8F0 SWAP1 PUSH2 0x109D JUMP JUMPDEST DUP1 PUSH1 0x1F ADD PUSH1 0x20 DUP1 SWAP2 DIV MUL PUSH1 0x20 ADD PUSH1 0x40 MLOAD SWAP1 DUP2 ADD PUSH1 0x40 MSTORE DUP1 SWAP3 SWAP2 SWAP1 DUP2 DUP2 MSTORE PUSH1 0x20 ADD DUP3 DUP1 SLOAD PUSH2 0x91C SWAP1 PUSH2 0x109D JUMP JUMPDEST DUP1 ISZERO PUSH2 0x969 JUMPI DUP1 PUSH1 0x1F LT PUSH2 0x93E JUMPI PUSH2 0x100 DUP1 DUP4 SLOAD DIV MUL DUP4 MSTORE SWAP2 PUSH1 0x20 ADD SWAP2 PUSH2 0x969 JUMP JUMPDEST DUP3 ADD SWAP2 SWAP1 PUSH1 0x0 MSTORE PUSH1 0x20 PUSH1 0x0 KECCAK256 SWAP1 JUMPDEST DUP2 SLOAD DUP2 MSTORE SWAP1 PUSH1 0x1 ADD SWAP1 PUSH1 0x20 ADD DUP1 DUP4 GT PUSH2 0x94C JUMPI DUP3 SWAP1 SUB PUSH1 0x1F AND DUP3 ADD SWAP2 JUMPDEST POP POP POP POP POP SWAP1 DUP1 PUSH1 0x1 ADD SLOAD SWAP1 DUP1 PUSH1 0x2 ADD SLOAD SWAP1 DUP1 PUSH1 0x3 ADD DUP1 SLOAD PUSH2 0x98A SWAP1 PUSH2 0x109D JUMP JUMPDEST DUP1 PUSH1 0x1F ADD PUSH1 0x20 DUP1 SWAP2 DIV MUL PUSH1 0x20 ADD PUSH1 0x40 MLOAD SWAP1 DUP2 ADD PUSH1 0x40 MSTORE DUP1 SWAP3 SWAP2 SWAP1 DUP2 DUP2 MSTORE PUSH1 0x20 ADD DUP3 DUP1 SLOAD PUSH2 0x9B6 SWAP1 PUSH2 0x109D JUMP JUMPDEST DUP1 ISZERO PUSH2 0xA03 JUMPI DUP1 PUSH1 0x1F LT PUSH2 0x9D8 JUMPI PUSH2 0x100 DUP1 DUP4 SLOAD DIV MUL DUP4 MSTORE SWAP2 PUSH1 0x20 ADD SWAP2 PUSH2 0xA03 JUMP JUMPDEST DUP3 ADD SWAP2 SWAP1 PUSH1 0x0 MSTORE PUSH1 0x20 PUSH1 0x0 KECCAK256 SWAP1 JUMPDEST DUP2 SLOAD DUP2 MSTORE SWAP1 PUSH1 0x1 ADD SWAP1 PUSH1 0x20 ADD DUP1 DUP4 GT PUSH2 0x9E6 JUMPI DUP3 SWAP1 SUB PUSH1 0x1F AND DUP3 ADD SWAP2 JUMPDEST POP POP POP POP POP SWAP1 POP DUP5 JUMP JUMPDEST PUSH1 0x0 PUSH1 0x40 MLOAD SWAP1 POP SWAP1 JUMP JUMPDEST PUSH1 0x0 DUP1 REVERT JUMPDEST PUSH1 0x0 DUP1 REVERT JUMPDEST PUSH1 0x0 PUSH20 0xFFFFFFFFFFFFFFFFFFFFFFFFFFFFFFFFFFFFFFFF DUP3 AND SWAP1 POP SWAP2 SWAP1 POP JUMP JUMPDEST PUSH1 0x0 PUSH2 0xA4C DUP3 PUSH2 0xA21 JUMP JUMPDEST SWAP1 POP SWAP2 SWAP1 POP JUMP JUMPDEST PUSH2 0xA5C DUP2 PUSH2 0xA41 JUMP JUMPDEST DUP2 EQ PUSH2 0xA67 JUMPI PUSH1 0x0 DUP1 REVERT JUMPDEST POP JUMP JUMPDEST PUSH1 0x0 DUP2 CALLDATALOAD SWAP1 POP PUSH2 0xA79 DUP2 PUSH2 0xA53 JUMP JUMPDEST SWAP3 SWAP2 POP POP JUMP JUMPDEST PUSH1 0x0 PUSH1 0x20 DUP3 DUP5 SUB SLT ISZERO PUSH2 0xA95 JUMPI PUSH2 0xA94 PUSH2 0xA17 JUMP JUMPDEST JUMPDEST PUSH1 0x0 PUSH2 0xAA3 DUP5 DUP3 DUP6 ADD PUSH2 0xA6A JUMP JUMPDEST SWAP2 POP POP SWAP3 SWAP2 POP POP JUMP JUMPDEST PUSH1 0x0 DUP2 MLOAD SWAP1 POP SWAP2 SWAP1 POP JUMP JUMPDEST PUSH1 0x0 DUP3 DUP3 MSTORE PUSH1 0x20 DUP3 ADD SWAP1 POP SWAP3 SWAP2 POP POP JUMP JUMPDEST PUSH1 0x0 JUMPDEST DUP4 DUP2 LT ISZERO PUSH2 0xAE6 JUMPI DUP1 DUP3 ADD MLOAD DUP2 DUP5 ADD MSTORE PUSH1 0x20 DUP2 ADD SWAP1 POP PUSH2 0xACB JUMP JUMPDEST PUSH1 0x0 DUP5 DUP5 ADD MSTORE POP POP POP POP JUMP JUMPDEST PUSH1 0x0 PUSH1 0x1F NOT PUSH1 0x1F DUP4 ADD AND SWAP1 POP SWAP2 SWAP1 POP JUMP JUMPDEST PUSH1 0x0 PUSH2 0xB0E DUP3 PUSH2 0xAAC JUMP JUMPDEST PUSH2 0xB18 DUP2 DUP6 PUSH2 0xAB7 JUMP JUMPDEST SWAP4 POP PUSH2 0xB28 DUP2 DUP6 PUSH1 0x20 DUP7 ADD PUSH2 0xAC8 JUMP JUMPDEST PUSH2 0xB31 DUP2 PUSH2 0xAF2 JUMP JUMPDEST DUP5 ADD SWAP2 POP POP SWAP3 SWAP2 POP POP JUMP JUMPDEST PUSH1 0x0 PUSH1 0x20 DUP3 ADD SWAP1 POP DUP2 DUP2 SUB PUSH1 0x0 DUP4 ADD MSTORE PUSH2 0xB56 DUP2 DUP5 PUSH2 0xB03 JUMP JUMPDEST SWAP1 POP SWAP3 SWAP2 POP POP JUMP JUMPDEST PUSH2 0xB67 DUP2 PUSH2 0xA41 JUMP JUMPDEST DUP3 MSTORE POP POP JUMP JUMPDEST PUSH1 0x0 PUSH1 0x20 DUP3 ADD SWAP1 POP PUSH2 0xB82 PUSH1 0x0 DUP4 ADD DUP5 PUSH2 0xB5E JUMP JUMPDEST SWAP3 SWAP2 POP POP JUMP JUMPDEST PUSH1 0x0 DUP2 SWAP1 POP SWAP2 SWAP1 POP JUMP JUMPDEST PUSH2 0xB9B DUP2 PUSH2 0xB88 JUMP JUMPDEST DUP2 EQ PUSH2 0xBA6 JUMPI PUSH1 0x0 DUP1 REVERT JUMPDEST POP JUMP JUMPDEST PUSH1 0x0 DUP2 CALLDATALOAD SWAP1 POP PUSH2 0xBB8 DUP2 PUSH2 0xB92 JUMP JUMPDEST SWAP3 SWAP2 POP POP JUMP JUMPDEST PUSH1 0x0 DUP1 PUSH1 0x0 PUSH1 0x60 DUP5 DUP7 SUB SLT ISZERO PUSH2 0xBD7 JUMPI PUSH2 0xBD6 PUSH2 0xA17 JUMP JUMPDEST JUMPDEST PUSH1 0x0 PUSH2 0xBE5 DUP7 DUP3 DUP8 ADD PUSH2 0xA6A JUMP JUMPDEST SWAP4 POP POP PUSH1 0x20 PUSH2 0xBF6 DUP7 DUP3 DUP8 ADD PUSH2 0xBA9 JUMP JUMPDEST SWAP3 POP POP PUSH1 0x40 PUSH2 0xC07 DUP7 DUP3 DUP8 ADD PUSH2 0xBA9 JUMP JUMPDEST SWAP2 POP POP SWAP3 POP SWAP3 POP SWAP3 JUMP JUMPDEST PUSH1 0x0 DUP1 REVERT JUMPDEST PUSH1 0x0 DUP1 REVERT JUMPDEST PUSH32 0x4E487B7100000000000000000000000000000000000000000000000000000000 PUSH1 0x0 MSTORE PUSH1 0x41 PUSH1 0x4 MSTORE PUSH1 0x24 PUSH1 0x0 REVERT JUMPDEST PUSH2 0xC53 DUP3 PUSH2 0xAF2 JUMP JUMPDEST DUP2 ADD DUP2 DUP2 LT PUSH8 0xFFFFFFFFFFFFFFFF DUP3 GT OR ISZERO PUSH2 0xC72 JUMPI PUSH2 0xC71 PUSH2 0xC1B JUMP JUMPDEST JUMPDEST DUP1 PUSH1 0x40 MSTORE POP POP POP JUMP JUMPDEST PUSH1 0x0 PUSH2 0xC85 PUSH2 0xA0D JUMP JUMPDEST SWAP1 POP PUSH2 0xC91 DUP3 DUP3 PUSH2 0xC4A JUMP JUMPDEST SWAP2 SWAP1 POP JUMP JUMPDEST PUSH1 0x0 PUSH8 0xFFFFFFFFFFFFFFFF DUP3 GT ISZERO PUSH2 0xCB1 JUMPI PUSH2 0xCB0 PUSH2 0xC1B JUMP JUMPDEST JUMPDEST PUSH2 0xCBA DUP3 PUSH2 0xAF2 JUMP JUMPDEST SWAP1 POP PUSH1 0x20 DUP2 ADD SWAP1 POP SWAP2 SWAP1 POP JUMP JUMPDEST DUP3 DUP2 DUP4 CALLDATACOPY PUSH1 0x0 DUP4 DUP4 ADD MSTORE POP POP POP JUMP JUMPDEST PUSH1 0x0 PUSH2 0xCE9 PUSH2 0xCE4 DUP5 PUSH2 0xC96 JUMP JUMPDEST PUSH2 0xC7B JUMP JUMPDEST SWAP1 POP DUP3 DUP2 MSTORE PUSH1 0x20 DUP2 ADD DUP5 DUP5 DUP5 ADD GT ISZERO PUSH2 0xD05 JUMPI PUSH2 0xD04 PUSH2 0xC16 JUMP JUMPDEST JUMPDEST PUSH2 0xD10 DUP5 DUP3 DUP6 PUSH2 0xCC7 JUMP JUMPDEST POP SWAP4 SWAP3 POP POP POP JUMP JUMPDEST PUSH1 0x0 DUP3 PUSH1 0x1F DUP4 ADD SLT PUSH2 0xD2D JUMPI PUSH2 0xD2C PUSH2 0xC11 JUMP JUMPDEST JUMPDEST DUP2 CALLDATALOAD PUSH2 0xD3D DUP5 DUP3 PUSH1 0x20 DUP7 ADD PUSH2 0xCD6 JUMP JUMPDEST SWAP2 POP POP SWAP3 SWAP2 POP POP JUMP JUMPDEST PUSH1 0x0 DUP1 PUSH1 0x0 DUP1 PUSH1 0x0 PUSH1 0xA0 DUP7 DUP9 SUB SLT ISZERO PUSH2 0xD62 JUMPI PUSH2 0xD61 PUSH2 0xA17 JUMP JUMPDEST JUMPDEST PUSH1 0x0 PUSH2 0xD70 DUP9 DUP3 DUP10 ADD PUSH2 0xA6A JUMP JUMPDEST SWAP6 POP POP PUSH1 0x20 PUSH2 0xD81 DUP9 DUP3 DUP10 ADD PUSH2 0xA6A JUMP JUMPDEST SWAP5 POP POP PUSH1 0x40 PUSH2 0xD92 DUP9 DUP3 DUP10 ADD PUSH2 0xBA9 JUMP JUMPDEST SWAP4 POP POP PUSH1 0x60 PUSH2 0xDA3 DUP9 DUP3 DUP10 ADD PUSH2 0xBA9 JUMP JUMPDEST SWAP3 POP POP PUSH1 0x80 DUP7 ADD CALLDATALOAD PUSH8 0xFFFFFFFFFFFFFFFF DUP2 GT ISZERO PUSH2 0xDC4 JUMPI PUSH2 0xDC3 PUSH2 0xA1C JUMP JUMPDEST JUMPDEST PUSH2 0xDD0 DUP9 DUP3 DUP10 ADD PUSH2 0xD18 JUMP JUMPDEST SWAP2 POP POP SWAP3 SWAP6 POP SWAP3 SWAP6 SWAP1 SWAP4 POP JUMP JUMPDEST PUSH1 0x0 DUP1 PUSH1 0x0 DUP1 PUSH1 0x0 PUSH1 0xA0 DUP7 DUP9 SUB SLT ISZERO PUSH2 0xDF9 JUMPI PUSH2 0xDF8 PUSH2 0xA17 JUMP JUMPDEST JUMPDEST PUSH1 0x0 PUSH2 0xE07 DUP9 DUP3 DUP10 ADD PUSH2 0xA6A JUMP JUMPDEST SWAP6 POP POP PUSH1 0x20 DUP7 ADD CALLDATALOAD PUSH8 0xFFFFFFFFFFFFFFFF DUP2 GT ISZERO PUSH2 0xE28 JUMPI PUSH2 0xE27 PUSH2 0xA1C JUMP JUMPDEST JUMPDEST PUSH2 0xE34 DUP9 DUP3 DUP10 ADD PUSH2 0xD18 JUMP JUMPDEST SWAP5 POP POP PUSH1 0x40 DUP7 ADD CALLDATALOAD PUSH8 0xFFFFFFFFFFFFFFFF DUP2 GT ISZERO PUSH2 0xE55 JUMPI PUSH2 0xE54 PUSH2 0xA1C JUMP JUMPDEST JUMPDEST PUSH2 0xE61 DUP9 DUP3 DUP10 ADD PUSH2 0xD18 JUMP JUMPDEST SWAP4 POP POP PUSH1 0x60 PUSH2 0xE72 DUP9 DUP3 DUP10 ADD PUSH2 0xBA9 JUMP JUMPDEST SWAP3 POP POP PUSH1 0x80 PUSH2 0xE83 DUP9 DUP3 DUP10 ADD PUSH2 0xBA9 JUMP JUMPDEST SWAP2 POP POP SWAP3 SWAP6 POP SWAP3 SWAP6 SWAP1 SWAP4 POP JUMP JUMPDEST PUSH2 0xE99 DUP2 PUSH2 0xB88 JUMP JUMPDEST DUP3 MSTORE POP POP JUMP JUMPDEST PUSH1 0x0 PUSH1 0x80 DUP3 ADD SWAP1 POP DUP2 DUP2 SUB PUSH1 0x0 DUP4 ADD MSTORE PUSH2 0xEB9 DUP2 DUP8 PUSH2 0xB03 JUMP JUMPDEST SWAP1 POP DUP2 DUP2 SUB PUSH1 0x20 DUP4 ADD MSTORE PUSH2 0xECD DUP2 DUP7 PUSH2 0xB03 JUMP JUMPDEST SWAP1 POP PUSH2 0xEDC PUSH1 0x40 DUP4 ADD DUP6 PUSH2 0xE90 JUMP JUMPDEST PUSH2 0xEE9 PUSH1 0x60 DUP4 ADD DUP5 PUSH2 0xE90 JUMP JUMPDEST SWAP6 SWAP5 POP POP POP POP POP JUMP JUMPDEST PUSH1 0x0 PUSH1 0x80 DUP3 ADD SWAP1 POP DUP2 DUP2 SUB PUSH1 0x0 DUP4 ADD MSTORE PUSH2 0xF0C DUP2 DUP8 PUSH2 0xB03 JUMP JUMPDEST SWAP1 POP PUSH2 0xF1B PUSH1 0x20 DUP4 ADD DUP7 PUSH2 0xE90 JUMP JUMPDEST PUSH2 0xF28 PUSH1 0x40 DUP4 ADD DUP6 PUSH2 0xE90 JUMP JUMPDEST DUP2 DUP2 SUB PUSH1 0x60 DUP4 ADD MSTORE PUSH2 0xF3A DUP2 DUP5 PUSH2 0xB03 JUMP JUMPDEST SWAP1 POP SWAP6 SWAP5 POP POP POP POP POP JUMP JUMPDEST PUSH32 0x4E487B7100000000000000000000000000000000000000000000000000000000 PUSH1 0x0 MSTORE PUSH1 0x11 PUSH1 0x4 MSTORE PUSH1 0x24 PUSH1 0x0 REVERT JUMPDEST PUSH1 0x0 PUSH2 0xF7F DUP3 PUSH2 0xB88 JUMP JUMPDEST SWAP2 POP PUSH2 0xF8A DUP4 PUSH2 0xB88 JUMP JUMPDEST SWAP3 POP DUP3 DUP3 ADD SWAP1 POP DUP1 DUP3 GT ISZERO PUSH2 0xFA2 JUMPI PUSH2 0xFA1 PUSH2 0xF45 JUMP JUMPDEST JUMPDEST SWAP3 SWAP2 POP POP JUMP JUMPDEST PUSH1 0x0 PUSH2 0xFB3 DUP3 PUSH2 0xB88 JUMP JUMPDEST SWAP2 POP PUSH2 0xFBE DUP4 PUSH2 0xB88 JUMP JUMPDEST SWAP3 POP DUP3 DUP3 SUB SWAP1 POP DUP2 DUP2 GT ISZERO PUSH2 0xFD6 JUMPI PUSH2 0xFD5 PUSH2 0xF45 JUMP JUMPDEST JUMPDEST SWAP3 SWAP2 POP POP JUMP JUMPDEST PUSH32 0x596F752068617665206E6F2073756666696369656E74206C616E6420746F2074 PUSH1 0x0 DUP3 ADD MSTORE PUSH32 0x72616E7366657200000000000000000000000000000000000000000000000000 PUSH1 0x20 DUP3 ADD MSTORE POP JUMP JUMPDEST PUSH1 0x0 PUSH2 0x1038 PUSH1 0x27 DUP4 PUSH2 0xAB7 JUMP JUMPDEST SWAP2 POP PUSH2 0x1043 DUP3 PUSH2 0xFDC JUMP JUMPDEST PUSH1 0x40 DUP3 ADD SWAP1 POP SWAP2 SWAP1 POP JUMP JUMPDEST PUSH1 0x0 PUSH1 0x20 DUP3 ADD SWAP1 POP DUP2 DUP2 SUB PUSH1 0x0 DUP4 ADD MSTORE PUSH2 0x1067 DUP2 PUSH2 0x102B JUMP JUMPDEST SWAP1 POP SWAP2 SWAP1 POP JUMP JUMPDEST PUSH32 0x4E487B7100000000000000000000000000000000000000000000000000000000 PUSH1 0x0 MSTORE PUSH1 0x22 PUSH1 0x4 MSTORE PUSH1 0x24 PUSH1 0x0 REVERT JUMPDEST PUSH1 0x0 PUSH1 0x2 DUP3 DIV SWAP1 POP PUSH1 0x1 DUP3 AND DUP1 PUSH2 0x10B5 JUMPI PUSH1 0x7F DUP3 AND SWAP2 POP JUMPDEST PUSH1 0x20 DUP3 LT DUP2 SUB PUSH2 0x10C8 JUMPI PUSH2 0x10C7 PUSH2 0x106E JUMP JUMPDEST JUMPDEST POP SWAP2 SWAP1 POP JUMP JUMPDEST PUSH1 0x0 DUP2 SWAP1 POP DUP2 PUSH1 0x0 MSTORE PUSH1 0x20 PUSH1 0x0 KECCAK256 SWAP1 POP SWAP2 SWAP1 POP JUMP JUMPDEST PUSH1 0x0 PUSH1 0x20 PUSH1 0x1F DUP4 ADD DIV SWAP1 POP SWAP2 SWAP1 POP JUMP JUMPDEST PUSH1 0x0 DUP3 DUP3 SHL SWAP1 POP SWAP3 SWAP2 POP POP JUMP JUMPDEST PUSH1 0x0 PUSH1 0x8 DUP4 MUL PUSH2 0x1130 PUSH32 0xFFFFFFFFFFFFFFFFFFFFFFFFFFFFFFFFFFFFFFFFFFFFFFFFFFFFFFFFFFFFFFFF DUP3 PUSH2 0x10F3 JUMP JUMPDEST PUSH2 0x113A DUP7 DUP4 PUSH2 0x10F3 JUMP JUMPDEST SWAP6 POP DUP1 NOT DUP5 AND SWAP4 POP DUP1 DUP7 AND DUP5 OR SWAP3 POP POP POP SWAP4 SWAP3 POP POP POP JUMP JUMPDEST PUSH1 0x0 DUP2 SWAP1 POP SWAP2 SWAP1 POP JUMP JUMPDEST PUSH1 0x0 PUSH2 0x1177 PUSH2 0x1172 PUSH2 0x116D DUP5 PUSH2 0xB88 JUMP JUMPDEST PUSH2 0x1152 JUMP JUMPDEST PUSH2 0xB88 JUMP JUMPDEST SWAP1 POP SWAP2 SWAP1 POP JUMP JUMPDEST PUSH1 0x0 DUP2 SWAP1 POP SWAP2 SWAP1 POP JUMP JUMPDEST PUSH2 0x1191 DUP4 PUSH2 0x115C JUMP JUMPDEST PUSH2 0x11A5 PUSH2 0x119D DUP3 PUSH2 0x117E JUMP JUMPDEST DUP5 DUP5 SLOAD PUSH2 0x1100 JUMP JUMPDEST DUP3 SSTORE POP POP POP POP JUMP JUMPDEST PUSH1 0x0 SWAP1 JUMP JUMPDEST PUSH2 0x11BA PUSH2 0x11AD JUMP JUMPDEST PUSH2 0x11C5 DUP2 DUP5 DUP5 PUSH2 0x1188 JUMP JUMPDEST POP POP POP JUMP JUMPDEST JUMPDEST DUP2 DUP2 LT ISZERO PUSH2 0x11E9 JUMPI PUSH2 0x11DE PUSH1 0x0 DUP3 PUSH2 0x11B2 JUMP JUMPDEST PUSH1 0x1 DUP2 ADD SWAP1 POP PUSH2 0x11CB JUMP JUMPDEST POP POP JUMP JUMPDEST PUSH1 0x1F DUP3 GT ISZERO PUSH2 0x122E JUMPI PUSH2 0x11FF DUP2 PUSH2 0x10CE JUMP JUMPDEST PUSH2 0x1208 DUP5 PUSH2 0x10E3 JUMP JUMPDEST DUP2 ADD PUSH1 0x20 DUP6 LT ISZERO PUSH2 0x1217 JUMPI DUP2 SWAP1 POP JUMPDEST PUSH2 0x122B PUSH2 0x1223 DUP6 PUSH2 0x10E3 JUMP JUMPDEST DUP4 ADD DUP3 PUSH2 0x11CA JUMP JUMPDEST POP POP JUMPDEST POP POP POP JUMP JUMPDEST PUSH1 0x0 DUP3 DUP3 SHR SWAP1 POP SWAP3 SWAP2 POP POP JUMP JUMPDEST PUSH1 0x0 PUSH2 0x1251 PUSH1 0x0 NOT DUP5 PUSH1 0x8 MUL PUSH2 0x1233 JUMP JUMPDEST NOT DUP1 DUP4 AND SWAP2 POP POP SWAP3 SWAP2 POP POP JUMP JUMPDEST PUSH1 0x0 PUSH2 0x126A DUP4 DUP4 PUSH2 0x1240 JUMP JUMPDEST SWAP2 POP DUP3 PUSH1 0x2 MUL DUP3 OR SWAP1 POP SWAP3 SWAP2 POP POP JUMP JUMPDEST PUSH2 0x1283 DUP3 PUSH2 0xAAC JUMP JUMPDEST PUSH8 0xFFFFFFFFFFFFFFFF DUP2 GT ISZERO PUSH2 0x129C JUMPI PUSH2 0x129B PUSH2 0xC1B JUMP JUMPDEST JUMPDEST PUSH2 0x12A6 DUP3 SLOAD PUSH2 0x109D JUMP JUMPDEST PUSH2 0x12B1 DUP3 DUP3 DUP6 PUSH2 0x11ED JUMP JUMPDEST PUSH1 0x0 PUSH1 0x20 SWAP1 POP PUSH1 0x1F DUP4 GT PUSH1 0x1 DUP2 EQ PUSH2 0x12E4 JUMPI PUSH1 0x0 DUP5 ISZERO PUSH2 0x12D2 JUMPI DUP3 DUP8 ADD MLOAD SWAP1 POP JUMPDEST PUSH2 0x12DC DUP6 DUP3 PUSH2 0x125E JUMP JUMPDEST DUP7 SSTORE POP PUSH2 0x1344 JUMP JUMPDEST PUSH1 0x1F NOT DUP5 AND PUSH2 0x12F2 DUP7 PUSH2 0x10CE JUMP JUMPDEST PUSH1 0x0 JUMPDEST DUP3 DUP2 LT ISZERO PUSH2 0x131A JUMPI DUP5 DUP10 ADD MLOAD DUP3 SSTORE PUSH1 0x1 DUP3 ADD SWAP2 POP PUSH1 0x20 DUP6 ADD SWAP5 POP PUSH1 0x20 DUP2 ADD SWAP1 POP PUSH2 0x12F5 JUMP JUMPDEST DUP7 DUP4 LT ISZERO PUSH2 0x1337 JUMPI DUP5 DUP10 ADD MLOAD PUSH2 0x1333 PUSH1 0x1F DUP10 AND DUP3 PUSH2 0x1240 JUMP JUMPDEST DUP4 SSTORE POP JUMPDEST PUSH1 0x1 PUSH1 0x2 DUP9 MUL ADD DUP9 SSTORE POP POP POP JUMPDEST POP POP POP POP POP POP JUMP INVALID MSIZE PUSH16 0x757220696E636F6D6520697320677265 PUSH2 0x7465 PUSH19 0x207468616E2072657175697265642C20596F75 KECCAK256 PUSH2 0x7265 KECCAK256 PUSH15 0x6F7420456C696769626C65596F7572 KECCAK256 PUSH13 0x616E6420697320677265617465 PUSH19 0x207468616E2072657175697265642C20596F75 KECCAK256 PUSH2 0x7265 KECCAK256 PUSH15 0x6F7420456C696769626C65A2646970 PUSH7 0x7358221220049C SIGNEXTEND PUSH30 0x670C6D9882E48E7DB1FDD1B8CEFCF0EFE25BC058AE9C9EC34B1E1DC26473 PUSH16 0x6C634300081200330000000000000000 "
				},
				"gasEstimates": {
					"creation": {
						"codeDepositCost": "1021600",
						"executionCost": "infinite",
						"totalCost": "infinite"
					},
					"external": {
						"buyLand(address,uint256,uint256)": "infinite",
						"contractowner()": "2534",
						"eligible(address)": "infinite",
						"get(address)": "infinite",
						"property(address)": "infinite",
						"set(address,string,string,uint256,uint256)": "infinite",
						"transfer(address,address,uint256,uint256,string)": "infinite"
					}
				},
				"methodIdentifiers": {
					"buyLand(address,uint256,uint256)": "9db23f4d",
					"contractowner()": "6098c94c",
					"eligible(address)": "0713b139",
					"get(address)": "c2bc2efc",
					"property(address)": "f5c2b123",
					"set(address,string,string,uint256,uint256)": "b4aa4d0d",
					"transfer(address,address,uint256,uint256,string)": "9dedfc70"
				}
			},
			"storageLayout": {
				"storage": [
					{
						"astId": 3,
						"contract": "contracts/propexchange.sol:Property",
						"label": "contractowner",
						"offset": 0,
						"slot": "0",
						"type": "t_address"
					},
					{
						"astId": 5,
						"contract": "contracts/propexchange.sol:Property",
						"label": "maxLand",
						"offset": 0,
						"slot": "1",
						"type": "t_uint256"
					},
					{
						"astId": 7,
						"contract": "contracts/propexchange.sol:Property",
						"label": "maxAnnualIncome",
						"offset": 0,
						"slot": "2",
						"type": "t_uint256"
					},
					{
						"astId": 54,
						"contract": "contracts/propexchange.sol:Property",
						"label": "property",
						"offset": 0,
						"slot": "3",
						"type": "t_mapping(t_address,t_struct(Land)49_storage)"
					}
				],
				"types": {
					"t_address": {
						"encoding": "inplace",
						"label": "address",
						"numberOfBytes": "20"
					},
					"t_mapping(t_address,t_struct(Land)49_storage)": {
						"encoding": "mapping",
						"key": "t_address",
						"label": "mapping(address => struct Property.Land)",
						"numberOfBytes": "32",
						"value": "t_struct(Land)49_storage"
					},
					"t_string_storage": {
						"encoding": "bytes",
						"label": "string",
						"numberOfBytes": "32"
					},
					"t_struct(Land)49_storage": {
						"encoding": "inplace",
						"label": "struct Property.Land",
						"members": [
							{
								"astId": 42,
								"contract": "contracts/propexchange.sol:Property",
								"label": "name",
								"offset": 0,
								"slot": "0",
								"type": "t_string_storage"
							},
							{
								"astId": 44,
								"contract": "contracts/propexchange.sol:Property",
								"label": "totalLand",
								"offset": 0,
								"slot": "1",
								"type": "t_uint256"
							},
							{
								"astId": 46,
								"contract": "contracts/propexchange.sol:Property",
								"label": "annualIncome",
								"offset": 0,
								"slot": "2",
								"type": "t_uint256"
							},
							{
								"astId": 48,
								"contract": "contracts/propexchange.sol:Property",
								"label": "owner",
								"offset": 0,
								"slot": "3",
								"type": "t_string_storage"
							}
						],
						"numberOfBytes": "128"
					},
					"t_uint256": {
						"encoding": "inplace",
						"label": "uint256",
						"numberOfBytes": "32"
					}
				}
			},
			"userdoc": {
				"kind": "user",
				"methods": {},
				"version": 1
			}
		}
	}
}