{
	"contracts/send.sol": {
		"TrackMoney": {
			"abi": [
				{
					"inputs": [],
					"name": "getBalance",
					"outputs": [
						{
							"internalType": "uint256",
							"name": "",
							"type": "uint256"
						}
					],
					"stateMutability": "view",
					"type": "function"
				},
				{
					"inputs": [
						{
							"internalType": "address",
							"name": "",
							"type": "address"
						}
					],
					"name": "mymap",
					"outputs": [
						{
							"internalType": "uint256",
							"name": "",
							"type": "uint256"
						}
					],
					"stateMutability": "view",
					"type": "function"
				},
				{
					"inputs": [],
					"name": "owner",
					"outputs": [
						{
							"internalType": "address",
							"name": "",
							"type": "address"
						}
					],
					"stateMutability": "view",
					"type": "function"
				},
				{
					"inputs": [],
					"name": "send",
					"outputs": [],
					"stateMutability": "payable",
					"type": "function"
				},
				{
					"inputs": [
						{
							"internalType": "address payable",
							"name": "_to",
							"type": "address"
						}
					],
					"name": "withdrawmoney",
					"outputs": [],
					"stateMutability": "nonpayable",
					"type": "function"
				}
			],
			"devdoc": {
				"kind": "dev",
				"methods": {},
				"version": 1
			},
			"evm": {
				"assembly": "    /* \"contracts/send.sol\":57:526  contract TrackMoney{... */\n  mstore(0x40, 0x80)\n    /* \"contracts/send.sol\":104:114  msg.sender */\n  caller\n    /* \"contracts/send.sol\":83:114  address public owner=msg.sender */\n  0x00\n  dup1\n  0x0100\n  exp\n  dup2\n  sload\n  dup2\n  0xffffffffffffffffffffffffffffffffffffffff\n  mul\n  not\n  and\n  swap1\n  dup4\n  0xffffffffffffffffffffffffffffffffffffffff\n  and\n  mul\n  or\n  swap1\n  sstore\n  pop\n    /* \"contracts/send.sol\":57:526  contract TrackMoney{... */\n  callvalue\n  dup1\n  iszero\n  tag_1\n  jumpi\n  0x00\n  dup1\n  revert\ntag_1:\n  pop\n  dataSize(sub_0)\n  dup1\n  dataOffset(sub_0)\n  0x00\n  codecopy\n  0x00\n  return\nstop\n\nsub_0: assembly {\n        /* \"contracts/send.sol\":57:526  contract TrackMoney{... */\n      mstore(0x40, 0x80)\n      jumpi(tag_1, lt(calldatasize, 0x04))\n      shr(0xe0, calldataload(0x00))\n      dup1\n      0x12065fe0\n      eq\n      tag_2\n      jumpi\n      dup1\n      0x8da5cb5b\n      eq\n      tag_3\n      jumpi\n      dup1\n      0x90ec34a7\n      eq\n      tag_4\n      jumpi\n      dup1\n      0xa5b248d9\n      eq\n      tag_5\n      jumpi\n      dup1\n      0xb46300ec\n      eq\n      tag_6\n      jumpi\n    tag_1:\n      0x00\n      dup1\n      revert\n        /* \"contracts/send.sol\":166:252  function getBalance() public view returns(uint){... */\n    tag_2:\n      callvalue\n      dup1\n      iszero\n      tag_7\n      jumpi\n      0x00\n      dup1\n      revert\n    tag_7:\n      pop\n      tag_8\n      tag_9\n      jump\t// in\n    tag_8:\n      mload(0x40)\n      tag_10\n      swap2\n      swap1\n      tag_11\n      jump\t// in\n    tag_10:\n      mload(0x40)\n      dup1\n      swap2\n      sub\n      swap1\n      return\n        /* \"contracts/send.sol\":83:114  address public owner=msg.sender */\n    tag_3:\n      callvalue\n      dup1\n      iszero\n      tag_12\n      jumpi\n      0x00\n      dup1\n      revert\n    tag_12:\n      pop\n      tag_13\n      tag_14\n      jump\t// in\n    tag_13:\n      mload(0x40)\n      tag_15\n      swap2\n      swap1\n      tag_16\n      jump\t// in\n    tag_15:\n      mload(0x40)\n      dup1\n      swap2\n      sub\n      swap1\n      return\n        /* \"contracts/send.sol\":343:521  function withdrawmoney(address payable _to) public {... */\n    tag_4:\n      callvalue\n      dup1\n      iszero\n      tag_17\n      jumpi\n      0x00\n      dup1\n      revert\n    tag_17:\n      pop\n      tag_18\n      0x04\n      dup1\n      calldatasize\n      sub\n      dup2\n      add\n      swap1\n      tag_19\n      swap2\n      swap1\n      tag_20\n      jump\t// in\n    tag_19:\n      tag_21\n      jump\t// in\n    tag_18:\n      stop\n        /* \"contracts/send.sol\":121:157  mapping(address =>uint) public mymap */\n    tag_5:\n      callvalue\n      dup1\n      iszero\n      tag_22\n      jumpi\n      0x00\n      dup1\n      revert\n    tag_22:\n      pop\n      tag_23\n      0x04\n      dup1\n      calldatasize\n      sub\n      dup2\n      add\n      swap1\n      tag_24\n      swap2\n      swap1\n      tag_25\n      jump\t// in\n    tag_24:\n      tag_26\n      jump\t// in\n    tag_23:\n      mload(0x40)\n      tag_27\n      swap2\n      swap1\n      tag_11\n      jump\t// in\n    tag_27:\n      mload(0x40)\n      dup1\n      swap2\n      sub\n      swap1\n      return\n        /* \"contracts/send.sol\":258:337  function send() public payable{... */\n    tag_6:\n      tag_28\n      tag_29\n      jump\t// in\n    tag_28:\n      stop\n        /* \"contracts/send.sol\":166:252  function getBalance() public view returns(uint){... */\n    tag_9:\n        /* \"contracts/send.sol\":208:212  uint */\n      0x00\n        /* \"contracts/send.sol\":231:236  owner */\n      dup1\n      0x00\n      swap1\n      sload\n      swap1\n      0x0100\n      exp\n      swap1\n      div\n      0xffffffffffffffffffffffffffffffffffffffff\n      and\n        /* \"contracts/send.sol\":231:244  owner.balance */\n      0xffffffffffffffffffffffffffffffffffffffff\n      and\n      balance\n        /* \"contracts/send.sol\":224:244  return owner.balance */\n      swap1\n      pop\n        /* \"contracts/send.sol\":166:252  function getBalance() public view returns(uint){... */\n      swap1\n      jump\t// out\n        /* \"contracts/send.sol\":83:114  address public owner=msg.sender */\n    tag_14:\n      0x00\n      dup1\n      sload\n      swap1\n      0x0100\n      exp\n      swap1\n      div\n      0xffffffffffffffffffffffffffffffffffffffff\n      and\n      dup2\n      jump\t// out\n        /* \"contracts/send.sol\":343:521  function withdrawmoney(address payable _to) public {... */\n    tag_21:\n        /* \"contracts/send.sol\":405:423  uint balancetoSend */\n      0x00\n        /* \"contracts/send.sol\":425:430  mymap */\n      0x01\n        /* \"contracts/send.sol\":425:442  mymap[msg.sender] */\n      0x00\n        /* \"contracts/send.sol\":431:441  msg.sender */\n      caller\n        /* \"contracts/send.sol\":425:442  mymap[msg.sender] */\n      0xffffffffffffffffffffffffffffffffffffffff\n      and\n      0xffffffffffffffffffffffffffffffffffffffff\n      and\n      dup2\n      mstore\n      0x20\n      add\n      swap1\n      dup2\n      mstore\n      0x20\n      add\n      0x00\n      keccak256\n      sload\n        /* \"contracts/send.sol\":405:442  uint balancetoSend= mymap[msg.sender] */\n      swap1\n      pop\n        /* \"contracts/send.sol\":471:472  0 */\n      0x00\n        /* \"contracts/send.sol\":453:458  mymap */\n      0x01\n        /* \"contracts/send.sol\":453:470  mymap[msg.sender] */\n      0x00\n        /* \"contracts/send.sol\":459:469  msg.sender */\n      caller\n        /* \"contracts/send.sol\":453:470  mymap[msg.sender] */\n      0xffffffffffffffffffffffffffffffffffffffff\n      and\n      0xffffffffffffffffffffffffffffffffffffffff\n      and\n      dup2\n      mstore\n      0x20\n      add\n      swap1\n      dup2\n      mstore\n      0x20\n      add\n      0x00\n      keccak256\n        /* \"contracts/send.sol\":453:472  mymap[msg.sender]=0 */\n      dup2\n      swap1\n      sstore\n      pop\n        /* \"contracts/send.sol\":482:485  _to */\n      dup2\n        /* \"contracts/send.sol\":482:494  _to.transfer */\n      0xffffffffffffffffffffffffffffffffffffffff\n      and\n        /* \"contracts/send.sol\":482:509  _to.transfer(balancetoSend) */\n      0x08fc\n        /* \"contracts/send.sol\":495:508  balancetoSend */\n      dup3\n        /* \"contracts/send.sol\":482:509  _to.transfer(balancetoSend) */\n      swap1\n      dup2\n      iszero\n      mul\n      swap1\n      mload(0x40)\n      0x00\n      mload(0x40)\n      dup1\n      dup4\n      sub\n      dup2\n      dup6\n      dup9\n      dup9\n      call\n      swap4\n      pop\n      pop\n      pop\n      pop\n      iszero\n      dup1\n      iszero\n      tag_33\n      jumpi\n      returndatasize\n      0x00\n      dup1\n      returndatacopy\n      revert(0x00, returndatasize)\n    tag_33:\n      pop\n        /* \"contracts/send.sol\":394:521  {... */\n      pop\n        /* \"contracts/send.sol\":343:521  function withdrawmoney(address payable _to) public {... */\n      pop\n      jump\t// out\n        /* \"contracts/send.sol\":121:157  mapping(address =>uint) public mymap */\n    tag_26:\n      mstore(0x20, 0x01)\n      dup1\n      0x00\n      mstore\n      keccak256(0x00, 0x40)\n      0x00\n      swap2\n      pop\n      swap1\n      pop\n      sload\n      dup2\n      jump\t// out\n        /* \"contracts/send.sol\":258:337  function send() public payable{... */\n    tag_29:\n        /* \"contracts/send.sol\":320:329  msg.value */\n      callvalue\n        /* \"contracts/send.sol\":299:304  mymap */\n      0x01\n        /* \"contracts/send.sol\":299:316  mymap[msg.sender] */\n      0x00\n        /* \"contracts/send.sol\":305:315  msg.sender */\n      caller\n        /* \"contracts/send.sol\":299:316  mymap[msg.sender] */\n      0xffffffffffffffffffffffffffffffffffffffff\n      and\n      0xffffffffffffffffffffffffffffffffffffffff\n      and\n      dup2\n      mstore\n      0x20\n      add\n      swap1\n      dup2\n      mstore\n      0x20\n      add\n      0x00\n      keccak256\n      0x00\n        /* \"contracts/send.sol\":299:329  mymap[msg.sender] += msg.value */\n      dup3\n      dup3\n      sload\n      tag_35\n      swap2\n      swap1\n      tag_36\n      jump\t// in\n    tag_35:\n      swap3\n      pop\n      pop\n      dup2\n      swap1\n      sstore\n      pop\n        /* \"contracts/send.sol\":258:337  function send() public payable{... */\n      jump\t// out\n        /* \"#utility.yul\":7:84   */\n    tag_37:\n        /* \"#utility.yul\":44:51   */\n      0x00\n        /* \"#utility.yul\":73:78   */\n      dup2\n        /* \"#utility.yul\":62:78   */\n      swap1\n      pop\n        /* \"#utility.yul\":7:84   */\n      swap2\n      swap1\n      pop\n      jump\t// out\n        /* \"#utility.yul\":90:208   */\n    tag_38:\n        /* \"#utility.yul\":177:201   */\n      tag_54\n        /* \"#utility.yul\":195:200   */\n      dup2\n        /* \"#utility.yul\":177:201   */\n      tag_37\n      jump\t// in\n    tag_54:\n        /* \"#utility.yul\":172:175   */\n      dup3\n        /* \"#utility.yul\":165:202   */\n      mstore\n        /* \"#utility.yul\":90:208   */\n      pop\n      pop\n      jump\t// out\n        /* \"#utility.yul\":214:436   */\n    tag_11:\n        /* \"#utility.yul\":307:311   */\n      0x00\n        /* \"#utility.yul\":345:347   */\n      0x20\n        /* \"#utility.yul\":334:343   */\n      dup3\n        /* \"#utility.yul\":330:348   */\n      add\n        /* \"#utility.yul\":322:348   */\n      swap1\n      pop\n        /* \"#utility.yul\":358:429   */\n      tag_56\n        /* \"#utility.yul\":426:427   */\n      0x00\n        /* \"#utility.yul\":415:424   */\n      dup4\n        /* \"#utility.yul\":411:428   */\n      add\n        /* \"#utility.yul\":402:408   */\n      dup5\n        /* \"#utility.yul\":358:429   */\n      tag_38\n      jump\t// in\n    tag_56:\n        /* \"#utility.yul\":214:436   */\n      swap3\n      swap2\n      pop\n      pop\n      jump\t// out\n        /* \"#utility.yul\":442:568   */\n    tag_39:\n        /* \"#utility.yul\":479:486   */\n      0x00\n        /* \"#utility.yul\":519:561   */\n      0xffffffffffffffffffffffffffffffffffffffff\n        /* \"#utility.yul\":512:517   */\n      dup3\n        /* \"#utility.yul\":508:562   */\n      and\n        /* \"#utility.yul\":497:562   */\n      swap1\n      pop\n        /* \"#utility.yul\":442:568   */\n      swap2\n      swap1\n      pop\n      jump\t// out\n        /* \"#utility.yul\":574:670   */\n    tag_40:\n        /* \"#utility.yul\":611:618   */\n      0x00\n        /* \"#utility.yul\":640:664   */\n      tag_59\n        /* \"#utility.yul\":658:663   */\n      dup3\n        /* \"#utility.yul\":640:664   */\n      tag_39\n      jump\t// in\n    tag_59:\n        /* \"#utility.yul\":629:664   */\n      swap1\n      pop\n        /* \"#utility.yul\":574:670   */\n      swap2\n      swap1\n      pop\n      jump\t// out\n        /* \"#utility.yul\":676:794   */\n    tag_41:\n        /* \"#utility.yul\":763:787   */\n      tag_61\n        /* \"#utility.yul\":781:786   */\n      dup2\n        /* \"#utility.yul\":763:787   */\n      tag_40\n      jump\t// in\n    tag_61:\n        /* \"#utility.yul\":758:761   */\n      dup3\n        /* \"#utility.yul\":751:788   */\n      mstore\n        /* \"#utility.yul\":676:794   */\n      pop\n      pop\n      jump\t// out\n        /* \"#utility.yul\":800:1022   */\n    tag_16:\n        /* \"#utility.yul\":893:897   */\n      0x00\n        /* \"#utility.yul\":931:933   */\n      0x20\n        /* \"#utility.yul\":920:929   */\n      dup3\n        /* \"#utility.yul\":916:934   */\n      add\n        /* \"#utility.yul\":908:934   */\n      swap1\n      pop\n        /* \"#utility.yul\":944:1015   */\n      tag_63\n        /* \"#utility.yul\":1012:1013   */\n      0x00\n        /* \"#utility.yul\":1001:1010   */\n      dup4\n        /* \"#utility.yul\":997:1014   */\n      add\n        /* \"#utility.yul\":988:994   */\n      dup5\n        /* \"#utility.yul\":944:1015   */\n      tag_41\n      jump\t// in\n    tag_63:\n        /* \"#utility.yul\":800:1022   */\n      swap3\n      swap2\n      pop\n      pop\n      jump\t// out\n        /* \"#utility.yul\":1109:1226   */\n    tag_43:\n        /* \"#utility.yul\":1218:1219   */\n      0x00\n        /* \"#utility.yul\":1215:1216   */\n      dup1\n        /* \"#utility.yul\":1208:1220   */\n      revert\n        /* \"#utility.yul\":1355:1459   */\n    tag_45:\n        /* \"#utility.yul\":1400:1407   */\n      0x00\n        /* \"#utility.yul\":1429:1453   */\n      tag_68\n        /* \"#utility.yul\":1447:1452   */\n      dup3\n        /* \"#utility.yul\":1429:1453   */\n      tag_39\n      jump\t// in\n    tag_68:\n        /* \"#utility.yul\":1418:1453   */\n      swap1\n      pop\n        /* \"#utility.yul\":1355:1459   */\n      swap2\n      swap1\n      pop\n      jump\t// out\n        /* \"#utility.yul\":1465:1603   */\n    tag_46:\n        /* \"#utility.yul\":1546:1578   */\n      tag_70\n        /* \"#utility.yul\":1572:1577   */\n      dup2\n        /* \"#utility.yul\":1546:1578   */\n      tag_45\n      jump\t// in\n    tag_70:\n        /* \"#utility.yul\":1539:1544   */\n      dup2\n        /* \"#utility.yul\":1536:1579   */\n      eq\n        /* \"#utility.yul\":1526:1597   */\n      tag_71\n      jumpi\n        /* \"#utility.yul\":1593:1594   */\n      0x00\n        /* \"#utility.yul\":1590:1591   */\n      dup1\n        /* \"#utility.yul\":1583:1595   */\n      revert\n        /* \"#utility.yul\":1526:1597   */\n    tag_71:\n        /* \"#utility.yul\":1465:1603   */\n      pop\n      jump\t// out\n        /* \"#utility.yul\":1609:1764   */\n    tag_47:\n        /* \"#utility.yul\":1663:1668   */\n      0x00\n        /* \"#utility.yul\":1701:1707   */\n      dup2\n        /* \"#utility.yul\":1688:1708   */\n      calldataload\n        /* \"#utility.yul\":1679:1708   */\n      swap1\n      pop\n        /* \"#utility.yul\":1717:1758   */\n      tag_73\n        /* \"#utility.yul\":1752:1757   */\n      dup2\n        /* \"#utility.yul\":1717:1758   */\n      tag_46\n      jump\t// in\n    tag_73:\n        /* \"#utility.yul\":1609:1764   */\n      swap3\n      swap2\n      pop\n      pop\n      jump\t// out\n        /* \"#utility.yul\":1770:2115   */\n    tag_20:\n        /* \"#utility.yul\":1837:1843   */\n      0x00\n        /* \"#utility.yul\":1886:1888   */\n      0x20\n        /* \"#utility.yul\":1874:1883   */\n      dup3\n        /* \"#utility.yul\":1865:1872   */\n      dup5\n        /* \"#utility.yul\":1861:1884   */\n      sub\n        /* \"#utility.yul\":1857:1889   */\n      slt\n        /* \"#utility.yul\":1854:1973   */\n      iszero\n      tag_75\n      jumpi\n        /* \"#utility.yul\":1892:1971   */\n      tag_76\n      tag_43\n      jump\t// in\n    tag_76:\n        /* \"#utility.yul\":1854:1973   */\n    tag_75:\n        /* \"#utility.yul\":2012:2013   */\n      0x00\n        /* \"#utility.yul\":2037:2098   */\n      tag_77\n        /* \"#utility.yul\":2090:2097   */\n      dup5\n        /* \"#utility.yul\":2081:2087   */\n      dup3\n        /* \"#utility.yul\":2070:2079   */\n      dup6\n        /* \"#utility.yul\":2066:2088   */\n      add\n        /* \"#utility.yul\":2037:2098   */\n      tag_47\n      jump\t// in\n    tag_77:\n        /* \"#utility.yul\":2027:2098   */\n      swap2\n      pop\n        /* \"#utility.yul\":1983:2108   */\n      pop\n        /* \"#utility.yul\":1770:2115   */\n      swap3\n      swap2\n      pop\n      pop\n      jump\t// out\n        /* \"#utility.yul\":2121:2243   */\n    tag_48:\n        /* \"#utility.yul\":2194:2218   */\n      tag_79\n        /* \"#utility.yul\":2212:2217   */\n      dup2\n        /* \"#utility.yul\":2194:2218   */\n      tag_40\n      jump\t// in\n    tag_79:\n        /* \"#utility.yul\":2187:2192   */\n      dup2\n        /* \"#utility.yul\":2184:2219   */\n      eq\n        /* \"#utility.yul\":2174:2237   */\n      tag_80\n      jumpi\n        /* \"#utility.yul\":2233:2234   */\n      0x00\n        /* \"#utility.yul\":2230:2231   */\n      dup1\n        /* \"#utility.yul\":2223:2235   */\n      revert\n        /* \"#utility.yul\":2174:2237   */\n    tag_80:\n        /* \"#utility.yul\":2121:2243   */\n      pop\n      jump\t// out\n        /* \"#utility.yul\":2249:2388   */\n    tag_49:\n        /* \"#utility.yul\":2295:2300   */\n      0x00\n        /* \"#utility.yul\":2333:2339   */\n      dup2\n        /* \"#utility.yul\":2320:2340   */\n      calldataload\n        /* \"#utility.yul\":2311:2340   */\n      swap1\n      pop\n        /* \"#utility.yul\":2349:2382   */\n      tag_82\n        /* \"#utility.yul\":2376:2381   */\n      dup2\n        /* \"#utility.yul\":2349:2382   */\n      tag_48\n      jump\t// in\n    tag_82:\n        /* \"#utility.yul\":2249:2388   */\n      swap3\n      swap2\n      pop\n      pop\n      jump\t// out\n        /* \"#utility.yul\":2394:2723   */\n    tag_25:\n        /* \"#utility.yul\":2453:2459   */\n      0x00\n        /* \"#utility.yul\":2502:2504   */\n      0x20\n        /* \"#utility.yul\":2490:2499   */\n      dup3\n        /* \"#utility.yul\":2481:2488   */\n      dup5\n        /* \"#utility.yul\":2477:2500   */\n      sub\n        /* \"#utility.yul\":2473:2505   */\n      slt\n        /* \"#utility.yul\":2470:2589   */\n      iszero\n      tag_84\n      jumpi\n        /* \"#utility.yul\":2508:2587   */\n      tag_85\n      tag_43\n      jump\t// in\n    tag_85:\n        /* \"#utility.yul\":2470:2589   */\n    tag_84:\n        /* \"#utility.yul\":2628:2629   */\n      0x00\n        /* \"#utility.yul\":2653:2706   */\n      tag_86\n        /* \"#utility.yul\":2698:2705   */\n      dup5\n        /* \"#utility.yul\":2689:2695   */\n      dup3\n        /* \"#utility.yul\":2678:2687   */\n      dup6\n        /* \"#utility.yul\":2674:2696   */\n      add\n        /* \"#utility.yul\":2653:2706   */\n      tag_49\n      jump\t// in\n    tag_86:\n        /* \"#utility.yul\":2643:2706   */\n      swap2\n      pop\n        /* \"#utility.yul\":2599:2716   */\n      pop\n        /* \"#utility.yul\":2394:2723   */\n      swap3\n      swap2\n      pop\n      pop\n      jump\t// out\n        /* \"#utility.yul\":2729:2909   */\n    tag_50:\n        /* \"#utility.yul\":2777:2854   */\n      0x4e487b7100000000000000000000000000000000000000000000000000000000\n        /* \"#utility.yul\":2774:2775   */\n      0x00\n        /* \"#utility.yul\":2767:2855   */\n      mstore\n        /* \"#utility.yul\":2874:2878   */\n      0x11\n        /* \"#utility.yul\":2871:2872   */\n      0x04\n        /* \"#utility.yul\":2864:2879   */\n      mstore\n        /* \"#utility.yul\":2898:2902   */\n      0x24\n        /* \"#utility.yul\":2895:2896   */\n      0x00\n        /* \"#utility.yul\":2888:2903   */\n      revert\n        /* \"#utility.yul\":2915:3106   */\n    tag_36:\n        /* \"#utility.yul\":2955:2958   */\n      0x00\n        /* \"#utility.yul\":2974:2994   */\n      tag_89\n        /* \"#utility.yul\":2992:2993   */\n      dup3\n        /* \"#utility.yul\":2974:2994   */\n      tag_37\n      jump\t// in\n    tag_89:\n        /* \"#utility.yul\":2969:2994   */\n      swap2\n      pop\n        /* \"#utility.yul\":3008:3028   */\n      tag_90\n        /* \"#utility.yul\":3026:3027   */\n      dup4\n        /* \"#utility.yul\":3008:3028   */\n      tag_37\n      jump\t// in\n    tag_90:\n        /* \"#utility.yul\":3003:3028   */\n      swap3\n      pop\n        /* \"#utility.yul\":3051:3052   */\n      dup3\n        /* \"#utility.yul\":3048:3049   */\n      dup3\n        /* \"#utility.yul\":3044:3053   */\n      add\n        /* \"#utility.yul\":3037:3053   */\n      swap1\n      pop\n        /* \"#utility.yul\":3072:3075   */\n      dup1\n        /* \"#utility.yul\":3069:3070   */\n      dup3\n        /* \"#utility.yul\":3066:3076   */\n      gt\n        /* \"#utility.yul\":3063:3099   */\n      iszero\n      tag_91\n      jumpi\n        /* \"#utility.yul\":3079:3097   */\n      tag_92\n      tag_50\n      jump\t// in\n    tag_92:\n        /* \"#utility.yul\":3063:3099   */\n    tag_91:\n        /* \"#utility.yul\":2915:3106   */\n      swap3\n      swap2\n      pop\n      pop\n      jump\t// out\n\n    auxdata: 0xa2646970667358221220e9c141f37d1d11eccc10ddcaa0fd0749ef53423959d41240648f3de1a3c51fc664736f6c63430008120033\n}\n",
				"bytecode": {
					"linkReferences": {},
					"object": "6080604052336000806101000a81548173ffffffffffffffffffffffffffffffffffffffff021916908373ffffffffffffffffffffffffffffffffffffffff16021790555034801561005057600080fd5b506104af806100606000396000f3fe60806040526004361061004a5760003560e01c806312065fe01461004f5780638da5cb5b1461007a57806390ec34a7146100a5578063a5b248d9146100ce578063b46300ec1461010b575b600080fd5b34801561005b57600080fd5b50610064610115565b60405161007191906102d6565b60405180910390f35b34801561008657600080fd5b5061008f610155565b60405161009c9190610332565b60405180910390f35b3480156100b157600080fd5b506100cc60048036038101906100c79190610390565b610179565b005b3480156100da57600080fd5b506100f560048036038101906100f091906103e9565b61024d565b60405161010291906102d6565b60405180910390f35b610113610265565b005b60008060009054906101000a900473ffffffffffffffffffffffffffffffffffffffff1673ffffffffffffffffffffffffffffffffffffffff1631905090565b60008054906101000a900473ffffffffffffffffffffffffffffffffffffffff1681565b6000600160003373ffffffffffffffffffffffffffffffffffffffff1673ffffffffffffffffffffffffffffffffffffffff1681526020019081526020016000205490506000600160003373ffffffffffffffffffffffffffffffffffffffff1673ffffffffffffffffffffffffffffffffffffffff168152602001908152602001600020819055508173ffffffffffffffffffffffffffffffffffffffff166108fc829081150290604051600060405180830381858888f19350505050158015610248573d6000803e3d6000fd5b505050565b60016020528060005260406000206000915090505481565b34600160003373ffffffffffffffffffffffffffffffffffffffff1673ffffffffffffffffffffffffffffffffffffffff16815260200190815260200160002060008282546102b49190610445565b92505081905550565b6000819050919050565b6102d0816102bd565b82525050565b60006020820190506102eb60008301846102c7565b92915050565b600073ffffffffffffffffffffffffffffffffffffffff82169050919050565b600061031c826102f1565b9050919050565b61032c81610311565b82525050565b60006020820190506103476000830184610323565b92915050565b600080fd5b600061035d826102f1565b9050919050565b61036d81610352565b811461037857600080fd5b50565b60008135905061038a81610364565b92915050565b6000602082840312156103a6576103a561034d565b5b60006103b48482850161037b565b91505092915050565b6103c681610311565b81146103d157600080fd5b50565b6000813590506103e3816103bd565b92915050565b6000602082840312156103ff576103fe61034d565b5b600061040d848285016103d4565b91505092915050565b7f4e487b7100000000000000000000000000000000000000000000000000000000600052601160045260246000fd5b6000610450826102bd565b915061045b836102bd565b925082820190508082111561047357610472610416565b5b9291505056fea2646970667358221220e9c141f37d1d11eccc10ddcaa0fd0749ef53423959d41240648f3de1a3c51fc664736f6c63430008120033",
					"opcodes": "PUSH1 0x80 PUSH1 0x40 MSTORE CALLER PUSH1 0x0 DUP1 PUSH2 0x100 EXP DUP2 SLOAD DUP2 PUSH20 0xFFFFFFFFFFFFFFFFFFFFFFFFFFFFFFFFFFFFFFFF MUL NOT AND SWAP1 DUP4 PUSH20 0xFFFFFFFFFFFFFFFFFFFFFFFFFFFFFFFFFFFFFFFF AND MUL OR SWAP1 SSTORE POP CALLVALUE DUP1 ISZERO PUSH2 0x50 JUMPI PUSH1 0x0 DUP1 REVERT JUMPDEST POP PUSH2 0x4AF DUP1 PUSH2 0x60 PUSH1 0x0 CODECOPY PUSH1 0x0 RETURN INVALID PUSH1 0x80 PUSH1 0x40 MSTORE PUSH1 0x4 CALLDATASIZE LT PUSH2 0x4A JUMPI PUSH1 0x0 CALLDATALOAD PUSH1 0xE0 SHR DUP1 PUSH4 0x12065FE0 EQ PUSH2 0x4F JUMPI DUP1 PUSH4 0x8DA5CB5B EQ PUSH2 0x7A JUMPI DUP1 PUSH4 0x90EC34A7 EQ PUSH2 0xA5 JUMPI DUP1 PUSH4 0xA5B248D9 EQ PUSH2 0xCE JUMPI DUP1 PUSH4 0xB46300EC EQ PUSH2 0x10B JUMPI JUMPDEST PUSH1 0x0 DUP1 REVERT JUMPDEST CALLVALUE DUP1 ISZERO PUSH2 0x5B JUMPI PUSH1 0x0 DUP1 REVERT JUMPDEST POP PUSH2 0x64 PUSH2 0x115 JUMP JUMPDEST PUSH1 0x40 MLOAD PUSH2 0x71 SWAP2 SWAP1 PUSH2 0x2D6 JUMP JUMPDEST PUSH1 0x40 MLOAD DUP1 SWAP2 SUB SWAP1 RETURN JUMPDEST CALLVALUE DUP1 ISZERO PUSH2 0x86 JUMPI PUSH1 0x0 DUP1 REVERT JUMPDEST POP PUSH2 0x8F PUSH2 0x155 JUMP JUMPDEST PUSH1 0x40 MLOAD PUSH2 0x9C SWAP2 SWAP1 PUSH2 0x332 JUMP JUMPDEST PUSH1 0x40 MLOAD DUP1 SWAP2 SUB SWAP1 RETURN JUMPDEST CALLVALUE DUP1 ISZERO PUSH2 0xB1 JUMPI PUSH1 0x0 DUP1 REVERT JUMPDEST POP PUSH2 0xCC PUSH1 0x4 DUP1 CALLDATASIZE SUB DUP2 ADD SWAP1 PUSH2 0xC7 SWAP2 SWAP1 PUSH2 0x390 JUMP JUMPDEST PUSH2 0x179 JUMP JUMPDEST STOP JUMPDEST CALLVALUE DUP1 ISZERO PUSH2 0xDA JUMPI PUSH1 0x0 DUP1 REVERT JUMPDEST POP PUSH2 0xF5 PUSH1 0x4 DUP1 CALLDATASIZE SUB DUP2 ADD SWAP1 PUSH2 0xF0 SWAP2 SWAP1 PUSH2 0x3E9 JUMP JUMPDEST PUSH2 0x24D JUMP JUMPDEST PUSH1 0x40 MLOAD PUSH2 0x102 SWAP2 SWAP1 PUSH2 0x2D6 JUMP JUMPDEST PUSH1 0x40 MLOAD DUP1 SWAP2 SUB SWAP1 RETURN JUMPDEST PUSH2 0x113 PUSH2 0x265 JUMP JUMPDEST STOP JUMPDEST PUSH1 0x0 DUP1 PUSH1 0x0 SWAP1 SLOAD SWAP1 PUSH2 0x100 EXP SWAP1 DIV PUSH20 0xFFFFFFFFFFFFFFFFFFFFFFFFFFFFFFFFFFFFFFFF AND PUSH20 0xFFFFFFFFFFFFFFFFFFFFFFFFFFFFFFFFFFFFFFFF AND BALANCE SWAP1 POP SWAP1 JUMP JUMPDEST PUSH1 0x0 DUP1 SLOAD SWAP1 PUSH2 0x100 EXP SWAP1 DIV PUSH20 0xFFFFFFFFFFFFFFFFFFFFFFFFFFFFFFFFFFFFFFFF AND DUP2 JUMP JUMPDEST PUSH1 0x0 PUSH1 0x1 PUSH1 0x0 CALLER PUSH20 0xFFFFFFFFFFFFFFFFFFFFFFFFFFFFFFFFFFFFFFFF AND PUSH20 0xFFFFFFFFFFFFFFFFFFFFFFFFFFFFFFFFFFFFFFFF AND DUP2 MSTORE PUSH1 0x20 ADD SWAP1 DUP2 MSTORE PUSH1 0x20 ADD PUSH1 0x0 KECCAK256 SLOAD SWAP1 POP PUSH1 0x0 PUSH1 0x1 PUSH1 0x0 CALLER PUSH20 0xFFFFFFFFFFFFFFFFFFFFFFFFFFFFFFFFFFFFFFFF AND PUSH20 0xFFFFFFFFFFFFFFFFFFFFFFFFFFFFFFFFFFFFFFFF AND DUP2 MSTORE PUSH1 0x20 ADD SWAP1 DUP2 MSTORE PUSH1 0x20 ADD PUSH1 0x0 KECCAK256 DUP2 SWAP1 SSTORE POP DUP2 PUSH20 0xFFFFFFFFFFFFFFFFFFFFFFFFFFFFFFFFFFFFFFFF AND PUSH2 0x8FC DUP3 SWAP1 DUP2 ISZERO MUL SWAP1 PUSH1 0x40 MLOAD PUSH1 0x0 PUSH1 0x40 MLOAD DUP1 DUP4 SUB DUP2 DUP6 DUP9 DUP9 CALL SWAP4 POP POP POP POP ISZERO DUP1 ISZERO PUSH2 0x248 JUMPI RETURNDATASIZE PUSH1 0x0 DUP1 RETURNDATACOPY RETURNDATASIZE PUSH1 0x0 REVERT JUMPDEST POP POP POP JUMP JUMPDEST PUSH1 0x1 PUSH1 0x20 MSTORE DUP1 PUSH1 0x0 MSTORE PUSH1 0x40 PUSH1 0x0 KECCAK256 PUSH1 0x0 SWAP2 POP SWAP1 POP SLOAD DUP2 JUMP JUMPDEST CALLVALUE PUSH1 0x1 PUSH1 0x0 CALLER PUSH20 0xFFFFFFFFFFFFFFFFFFFFFFFFFFFFFFFFFFFFFFFF AND PUSH20 0xFFFFFFFFFFFFFFFFFFFFFFFFFFFFFFFFFFFFFFFF AND DUP2 MSTORE PUSH1 0x20 ADD SWAP1 DUP2 MSTORE PUSH1 0x20 ADD PUSH1 0x0 KECCAK256 PUSH1 0x0 DUP3 DUP3 SLOAD PUSH2 0x2B4 SWAP2 SWAP1 PUSH2 0x445 JUMP JUMPDEST SWAP3 POP POP DUP2 SWAP1 SSTORE POP JUMP JUMPDEST PUSH1 0x0 DUP2 SWAP1 POP SWAP2 SWAP1 POP JUMP JUMPDEST PUSH2 0x2D0 DUP2 PUSH2 0x2BD JUMP JUMPDEST DUP3 MSTORE POP POP JUMP JUMPDEST PUSH1 0x0 PUSH1 0x20 DUP3 ADD SWAP1 POP PUSH2 0x2EB PUSH1 0x0 DUP4 ADD DUP5 PUSH2 0x2C7 JUMP JUMPDEST SWAP3 SWAP2 POP POP JUMP JUMPDEST PUSH1 0x0 PUSH20 0xFFFFFFFFFFFFFFFFFFFFFFFFFFFFFFFFFFFFFFFF DUP3 AND SWAP1 POP SWAP2 SWAP1 POP JUMP JUMPDEST PUSH1 0x0 PUSH2 0x31C DUP3 PUSH2 0x2F1 JUMP JUMPDEST SWAP1 POP SWAP2 SWAP1 POP JUMP JUMPDEST PUSH2 0x32C DUP2 PUSH2 0x311 JUMP JUMPDEST DUP3 MSTORE POP POP JUMP JUMPDEST PUSH1 0x0 PUSH1 0x20 DUP3 ADD SWAP1 POP PUSH2 0x347 PUSH1 0x0 DUP4 ADD DUP5 PUSH2 0x323 JUMP JUMPDEST SWAP3 SWAP2 POP POP JUMP JUMPDEST PUSH1 0x0 DUP1 REVERT JUMPDEST PUSH1 0x0 PUSH2 0x35D DUP3 PUSH2 0x2F1 JUMP JUMPDEST SWAP1 POP SWAP2 SWAP1 POP JUMP JUMPDEST PUSH2 0x36D DUP2 PUSH2 0x352 JUMP JUMPDEST DUP2 EQ PUSH2 0x378 JUMPI PUSH1 0x0 DUP1 REVERT JUMPDEST POP JUMP JUMPDEST PUSH1 0x0 DUP2 CALLDATALOAD SWAP1 POP PUSH2 0x38A DUP2 PUSH2 0x364 JUMP JUMPDEST SWAP3 SWAP2 POP POP JUMP JUMPDEST PUSH1 0x0 PUSH1 0x20 DUP3 DUP5 SUB SLT ISZERO PUSH2 0x3A6 JUMPI PUSH2 0x3A5 PUSH2 0x34D JUMP JUMPDEST JUMPDEST PUSH1 0x0 PUSH2 0x3B4 DUP5 DUP3 DUP6 ADD PUSH2 0x37B JUMP JUMPDEST SWAP2 POP POP SWAP3 SWAP2 POP POP JUMP JUMPDEST PUSH2 0x3C6 DUP2 PUSH2 0x311 JUMP JUMPDEST DUP2 EQ PUSH2 0x3D1 JUMPI PUSH1 0x0 DUP1 REVERT JUMPDEST POP JUMP JUMPDEST PUSH1 0x0 DUP2 CALLDATALOAD SWAP1 POP PUSH2 0x3E3 DUP2 PUSH2 0x3BD JUMP JUMPDEST SWAP3 SWAP2 POP POP JUMP JUMPDEST PUSH1 0x0 PUSH1 0x20 DUP3 DUP5 SUB SLT ISZERO PUSH2 0x3FF JUMPI PUSH2 0x3FE PUSH2 0x34D JUMP JUMPDEST JUMPDEST PUSH1 0x0 PUSH2 0x40D DUP5 DUP3 DUP6 ADD PUSH2 0x3D4 JUMP JUMPDEST SWAP2 POP POP SWAP3 SWAP2 POP POP JUMP JUMPDEST PUSH32 0x4E487B7100000000000000000000000000000000000000000000000000000000 PUSH1 0x0 MSTORE PUSH1 0x11 PUSH1 0x4 MSTORE PUSH1 0x24 PUSH1 0x0 REVERT JUMPDEST PUSH1 0x0 PUSH2 0x450 DUP3 PUSH2 0x2BD JUMP JUMPDEST SWAP2 POP PUSH2 0x45B DUP4 PUSH2 0x2BD JUMP JUMPDEST SWAP3 POP DUP3 DUP3 ADD SWAP1 POP DUP1 DUP3 GT ISZERO PUSH2 0x473 JUMPI PUSH2 0x472 PUSH2 0x416 JUMP JUMPDEST JUMPDEST SWAP3 SWAP2 POP POP JUMP INVALID LOG2 PUSH5 0x6970667358 0x22 SLT KECCAK256 0xE9 0xC1 COINBASE RETURN PUSH30 0x1D11ECCC10DDCAA0FD0749EF53423959D41240648F3DE1A3C51FC664736F PUSH13 0x63430008120033000000000000 "
				},
				"gasEstimates": {
					"creation": {
						"codeDepositCost": "239800",
						"executionCost": "24547",
						"totalCost": "264347"
					},
					"external": {
						"getBalance()": "5057",
						"mymap(address)": "2858",
						"owner()": "2511",
						"send()": "infinite",
						"withdrawmoney(address)": "infinite"
					}
				},
				"methodIdentifiers": {
					"getBalance()": "12065fe0",
					"mymap(address)": "a5b248d9",
					"owner()": "8da5cb5b",
					"send()": "b46300ec",
					"withdrawmoney(address)": "90ec34a7"
				}
			},
			"storageLayout": {
				"storage": [
					{
						"astId": 5,
						"contract": "contracts/send.sol:TrackMoney",
						"label": "owner",
						"offset": 0,
						"slot": "0",
						"type": "t_address"
					},
					{
						"astId": 9,
						"contract": "contracts/send.sol:TrackMoney",
						"label": "mymap",
						"offset": 0,
						"slot": "1",
						"type": "t_mapping(t_address,t_uint256)"
					}
				],
				"types": {
					"t_address": {
						"encoding": "inplace",
						"label": "address",
						"numberOfBytes": "20"
					},
					"t_mapping(t_address,t_uint256)": {
						"encoding": "mapping",
						"key": "t_address",
						"label": "mapping(address => uint256)",
						"numberOfBytes": "32",
						"value": "t_uint256"
					},
					"t_uint256": {
						"encoding": "inplace",
						"label": "uint256",
						"numberOfBytes": "32"
					}
				}
			},
			"userdoc": {
				"kind": "user",
				"methods": {},
				"version": 1
			}
		}
	}
}