{
	"contracts/ifElse.sol": {
		"IfElse": {
			"abi": [
				{
					"inputs": [],
					"name": "info",
					"outputs": [
						{
							"internalType": "string",
							"name": "",
							"type": "string"
						}
					],
					"stateMutability": "nonpayable",
					"type": "function"
				},
				{
					"inputs": [],
					"name": "num",
					"outputs": [
						{
							"internalType": "uint256",
							"name": "",
							"type": "uint256"
						}
					],
					"stateMutability": "view",
					"type": "function"
				},
				{
					"inputs": [],
					"name": "text",
					"outputs": [
						{
							"internalType": "string",
							"name": "",
							"type": "string"
						}
					],
					"stateMutability": "view",
					"type": "function"
				},
				{
					"inputs": [
						{
							"internalType": "uint256",
							"name": "_num",
							"type": "uint256"
						}
					],
					"name": "update",
					"outputs": [],
					"stateMutability": "nonpayable",
					"type": "function"
				}
			],
			"devdoc": {
				"kind": "dev",
				"methods": {},
				"version": 1
			},
			"evm": {
				"assembly": "    /* \"contracts/ifElse.sol\":59:449  contract IfElse{... */\n  mstore(0x40, 0x80)\n  callvalue\n  dup1\n  iszero\n  tag_1\n  jumpi\n  0x00\n  dup1\n  revert\ntag_1:\n  pop\n  dataSize(sub_0)\n  dup1\n  dataOffset(sub_0)\n  0x00\n  codecopy\n  0x00\n  return\nstop\n\nsub_0: assembly {\n        /* \"contracts/ifElse.sol\":59:449  contract IfElse{... */\n      mstore(0x40, 0x80)\n      callvalue\n      dup1\n      iszero\n      tag_1\n      jumpi\n      0x00\n      dup1\n      revert\n    tag_1:\n      pop\n      jumpi(tag_2, lt(calldatasize, 0x04))\n      shr(0xe0, calldataload(0x00))\n      dup1\n      0x1f1bd692\n      eq\n      tag_3\n      jumpi\n      dup1\n      0x370158ea\n      eq\n      tag_4\n      jumpi\n      dup1\n      0x4e70b1dc\n      eq\n      tag_5\n      jumpi\n      dup1\n      0x82ab890a\n      eq\n      tag_6\n      jumpi\n    tag_2:\n      0x00\n      dup1\n      revert\n        /* \"contracts/ifElse.sol\":105:123  string public text */\n    tag_3:\n      tag_7\n      tag_8\n      jump\t// in\n    tag_7:\n      mload(0x40)\n      tag_9\n      swap2\n      swap1\n      tag_10\n      jump\t// in\n    tag_9:\n      mload(0x40)\n      dup1\n      swap2\n      sub\n      swap1\n      return\n        /* \"contracts/ifElse.sol\":207:444  function info() public returns (string memory){... */\n    tag_4:\n      tag_11\n      tag_12\n      jump\t// in\n    tag_11:\n      mload(0x40)\n      tag_13\n      swap2\n      swap1\n      tag_10\n      jump\t// in\n    tag_13:\n      mload(0x40)\n      dup1\n      swap2\n      sub\n      swap1\n      return\n        /* \"contracts/ifElse.sol\":82:97  uint public num */\n    tag_5:\n      tag_14\n      tag_15\n      jump\t// in\n    tag_14:\n      mload(0x40)\n      tag_16\n      swap2\n      swap1\n      tag_17\n      jump\t// in\n    tag_16:\n      mload(0x40)\n      dup1\n      swap2\n      sub\n      swap1\n      return\n        /* \"contracts/ifElse.sol\":133:198  function update(uint _num) public {... */\n    tag_6:\n      tag_18\n      0x04\n      dup1\n      calldatasize\n      sub\n      dup2\n      add\n      swap1\n      tag_19\n      swap2\n      swap1\n      tag_20\n      jump\t// in\n    tag_19:\n      tag_21\n      jump\t// in\n    tag_18:\n      stop\n        /* \"contracts/ifElse.sol\":105:123  string public text */\n    tag_8:\n      0x01\n      dup1\n      sload\n      tag_22\n      swap1\n      tag_23\n      jump\t// in\n    tag_22:\n      dup1\n      0x1f\n      add\n      0x20\n      dup1\n      swap2\n      div\n      mul\n      0x20\n      add\n      mload(0x40)\n      swap1\n      dup2\n      add\n      0x40\n      mstore\n      dup1\n      swap3\n      swap2\n      swap1\n      dup2\n      dup2\n      mstore\n      0x20\n      add\n      dup3\n      dup1\n      sload\n      tag_24\n      swap1\n      tag_23\n      jump\t// in\n    tag_24:\n      dup1\n      iszero\n      tag_25\n      jumpi\n      dup1\n      0x1f\n      lt\n      tag_26\n      jumpi\n      0x0100\n      dup1\n      dup4\n      sload\n      div\n      mul\n      dup4\n      mstore\n      swap2\n      0x20\n      add\n      swap2\n      jump(tag_25)\n    tag_26:\n      dup3\n      add\n      swap2\n      swap1\n      0x00\n      mstore\n      keccak256(0x00, 0x20)\n      swap1\n    tag_27:\n      dup2\n      sload\n      dup2\n      mstore\n      swap1\n      0x01\n      add\n      swap1\n      0x20\n      add\n      dup1\n      dup4\n      gt\n      tag_27\n      jumpi\n      dup3\n      swap1\n      sub\n      0x1f\n      and\n      dup3\n      add\n      swap2\n    tag_25:\n      pop\n      pop\n      pop\n      pop\n      pop\n      dup2\n      jump\t// out\n        /* \"contracts/ifElse.sol\":207:444  function info() public returns (string memory){... */\n    tag_12:\n        /* \"contracts/ifElse.sol\":239:252  string memory */\n      0x60\n        /* \"contracts/ifElse.sol\":276:278  10 */\n      0x0a\n        /* \"contracts/ifElse.sol\":270:273  num */\n      sload(0x00)\n        /* \"contracts/ifElse.sol\":270:278  num < 10 */\n      lt\n        /* \"contracts/ifElse.sol\":267:436  if(num < 10)... */\n      iszero\n      tag_29\n      jumpi\n        /* \"contracts/ifElse.sol\":313:341  text = \"num is less than 10\" */\n      mload(0x40)\n      dup1\n      0x40\n      add\n      0x40\n      mstore\n      dup1\n      0x13\n      dup2\n      mstore\n      0x20\n      add\n      0x6e756d206973206c657373207468616e20313000000000000000000000000000\n      dup2\n      mstore\n      pop\n        /* \"contracts/ifElse.sol\":313:317  text */\n      0x01\n        /* \"contracts/ifElse.sol\":313:341  text = \"num is less than 10\" */\n      swap1\n      dup2\n      tag_30\n      swap2\n      swap1\n      tag_31\n      jump\t// in\n    tag_30:\n        /* \"contracts/ifElse.sol\":305:341  return  text = \"num is less than 10\" */\n      dup1\n      sload\n      tag_32\n      swap1\n      tag_23\n      jump\t// in\n    tag_32:\n      dup1\n      0x1f\n      add\n      0x20\n      dup1\n      swap2\n      div\n      mul\n      0x20\n      add\n      mload(0x40)\n      swap1\n      dup2\n      add\n      0x40\n      mstore\n      dup1\n      swap3\n      swap2\n      swap1\n      dup2\n      dup2\n      mstore\n      0x20\n      add\n      dup3\n      dup1\n      sload\n      tag_33\n      swap1\n      tag_23\n      jump\t// in\n    tag_33:\n      dup1\n      iszero\n      tag_34\n      jumpi\n      dup1\n      0x1f\n      lt\n      tag_35\n      jumpi\n      0x0100\n      dup1\n      dup4\n      sload\n      div\n      mul\n      dup4\n      mstore\n      swap2\n      0x20\n      add\n      swap2\n      jump(tag_34)\n    tag_35:\n      dup3\n      add\n      swap2\n      swap1\n      0x00\n      mstore\n      keccak256(0x00, 0x20)\n      swap1\n    tag_36:\n      dup2\n      sload\n      dup2\n      mstore\n      swap1\n      0x01\n      add\n      swap1\n      0x20\n      add\n      dup1\n      dup4\n      gt\n      tag_36\n      jumpi\n      dup3\n      swap1\n      sub\n      0x1f\n      and\n      dup3\n      add\n      swap2\n    tag_34:\n      pop\n      pop\n      pop\n      pop\n      pop\n      swap1\n      pop\n      jump(tag_28)\n        /* \"contracts/ifElse.sol\":267:436  if(num < 10)... */\n    tag_29:\n        /* \"contracts/ifElse.sol\":392:423  text = \"num is greater than 10\" */\n      mload(0x40)\n      dup1\n      0x40\n      add\n      0x40\n      mstore\n      dup1\n      0x16\n      dup2\n      mstore\n      0x20\n      add\n      0x6e756d2069732067726561746572207468616e20313000000000000000000000\n      dup2\n      mstore\n      pop\n        /* \"contracts/ifElse.sol\":392:396  text */\n      0x01\n        /* \"contracts/ifElse.sol\":392:423  text = \"num is greater than 10\" */\n      swap1\n      dup2\n      tag_38\n      swap2\n      swap1\n      tag_31\n      jump\t// in\n    tag_38:\n        /* \"contracts/ifElse.sol\":385:423  return text = \"num is greater than 10\" */\n      dup1\n      sload\n      tag_39\n      swap1\n      tag_23\n      jump\t// in\n    tag_39:\n      dup1\n      0x1f\n      add\n      0x20\n      dup1\n      swap2\n      div\n      mul\n      0x20\n      add\n      mload(0x40)\n      swap1\n      dup2\n      add\n      0x40\n      mstore\n      dup1\n      swap3\n      swap2\n      swap1\n      dup2\n      dup2\n      mstore\n      0x20\n      add\n      dup3\n      dup1\n      sload\n      tag_40\n      swap1\n      tag_23\n      jump\t// in\n    tag_40:\n      dup1\n      iszero\n      tag_41\n      jumpi\n      dup1\n      0x1f\n      lt\n      tag_42\n      jumpi\n      0x0100\n      dup1\n      dup4\n      sload\n      div\n      mul\n      dup4\n      mstore\n      swap2\n      0x20\n      add\n      swap2\n      jump(tag_41)\n    tag_42:\n      dup3\n      add\n      swap2\n      swap1\n      0x00\n      mstore\n      keccak256(0x00, 0x20)\n      swap1\n    tag_43:\n      dup2\n      sload\n      dup2\n      mstore\n      swap1\n      0x01\n      add\n      swap1\n      0x20\n      add\n      dup1\n      dup4\n      gt\n      tag_43\n      jumpi\n      dup3\n      swap1\n      sub\n      0x1f\n      and\n      dup3\n      add\n      swap2\n    tag_41:\n      pop\n      pop\n      pop\n      pop\n      pop\n      swap1\n      pop\n        /* \"contracts/ifElse.sol\":207:444  function info() public returns (string memory){... */\n    tag_28:\n      swap1\n      jump\t// out\n        /* \"contracts/ifElse.sol\":82:97  uint public num */\n    tag_15:\n      sload(0x00)\n      dup2\n      jump\t// out\n        /* \"contracts/ifElse.sol\":133:198  function update(uint _num) public {... */\n    tag_21:\n        /* \"contracts/ifElse.sol\":185:189  _num */\n      dup1\n        /* \"contracts/ifElse.sol\":179:182  num */\n      0x00\n        /* \"contracts/ifElse.sol\":179:189  num = _num */\n      dup2\n      swap1\n      sstore\n      pop\n        /* \"contracts/ifElse.sol\":133:198  function update(uint _num) public {... */\n      pop\n      jump\t// out\n        /* \"#utility.yul\":7:106   */\n    tag_45:\n        /* \"#utility.yul\":59:65   */\n      0x00\n        /* \"#utility.yul\":93:98   */\n      dup2\n        /* \"#utility.yul\":87:99   */\n      mload\n        /* \"#utility.yul\":77:99   */\n      swap1\n      pop\n        /* \"#utility.yul\":7:106   */\n      swap2\n      swap1\n      pop\n      jump\t// out\n        /* \"#utility.yul\":112:281   */\n    tag_46:\n        /* \"#utility.yul\":196:207   */\n      0x00\n        /* \"#utility.yul\":230:236   */\n      dup3\n        /* \"#utility.yul\":225:228   */\n      dup3\n        /* \"#utility.yul\":218:237   */\n      mstore\n        /* \"#utility.yul\":270:274   */\n      0x20\n        /* \"#utility.yul\":265:268   */\n      dup3\n        /* \"#utility.yul\":261:275   */\n      add\n        /* \"#utility.yul\":246:275   */\n      swap1\n      pop\n        /* \"#utility.yul\":112:281   */\n      swap3\n      swap2\n      pop\n      pop\n      jump\t// out\n        /* \"#utility.yul\":287:533   */\n    tag_47:\n        /* \"#utility.yul\":368:369   */\n      0x00\n        /* \"#utility.yul\":378:491   */\n    tag_78:\n        /* \"#utility.yul\":392:398   */\n      dup4\n        /* \"#utility.yul\":389:390   */\n      dup2\n        /* \"#utility.yul\":386:399   */\n      lt\n        /* \"#utility.yul\":378:491   */\n      iszero\n      tag_80\n      jumpi\n        /* \"#utility.yul\":477:478   */\n      dup1\n        /* \"#utility.yul\":472:475   */\n      dup3\n        /* \"#utility.yul\":468:479   */\n      add\n        /* \"#utility.yul\":462:480   */\n      mload\n        /* \"#utility.yul\":458:459   */\n      dup2\n        /* \"#utility.yul\":453:456   */\n      dup5\n        /* \"#utility.yul\":449:460   */\n      add\n        /* \"#utility.yul\":442:481   */\n      mstore\n        /* \"#utility.yul\":414:416   */\n      0x20\n        /* \"#utility.yul\":411:412   */\n      dup2\n        /* \"#utility.yul\":407:417   */\n      add\n        /* \"#utility.yul\":402:417   */\n      swap1\n      pop\n        /* \"#utility.yul\":378:491   */\n      jump(tag_78)\n    tag_80:\n        /* \"#utility.yul\":525:526   */\n      0x00\n        /* \"#utility.yul\":516:522   */\n      dup5\n        /* \"#utility.yul\":511:514   */\n      dup5\n        /* \"#utility.yul\":507:523   */\n      add\n        /* \"#utility.yul\":500:527   */\n      mstore\n        /* \"#utility.yul\":349:533   */\n      pop\n        /* \"#utility.yul\":287:533   */\n      pop\n      pop\n      pop\n      jump\t// out\n        /* \"#utility.yul\":539:641   */\n    tag_48:\n        /* \"#utility.yul\":580:586   */\n      0x00\n        /* \"#utility.yul\":631:633   */\n      0x1f\n        /* \"#utility.yul\":627:634   */\n      not\n        /* \"#utility.yul\":622:624   */\n      0x1f\n        /* \"#utility.yul\":615:620   */\n      dup4\n        /* \"#utility.yul\":611:625   */\n      add\n        /* \"#utility.yul\":607:635   */\n      and\n        /* \"#utility.yul\":597:635   */\n      swap1\n      pop\n        /* \"#utility.yul\":539:641   */\n      swap2\n      swap1\n      pop\n      jump\t// out\n        /* \"#utility.yul\":647:1024   */\n    tag_49:\n        /* \"#utility.yul\":735:738   */\n      0x00\n        /* \"#utility.yul\":763:802   */\n      tag_83\n        /* \"#utility.yul\":796:801   */\n      dup3\n        /* \"#utility.yul\":763:802   */\n      tag_45\n      jump\t// in\n    tag_83:\n        /* \"#utility.yul\":818:889   */\n      tag_84\n        /* \"#utility.yul\":882:888   */\n      dup2\n        /* \"#utility.yul\":877:880   */\n      dup6\n        /* \"#utility.yul\":818:889   */\n      tag_46\n      jump\t// in\n    tag_84:\n        /* \"#utility.yul\":811:889   */\n      swap4\n      pop\n        /* \"#utility.yul\":898:963   */\n      tag_85\n        /* \"#utility.yul\":956:962   */\n      dup2\n        /* \"#utility.yul\":951:954   */\n      dup6\n        /* \"#utility.yul\":944:948   */\n      0x20\n        /* \"#utility.yul\":937:942   */\n      dup7\n        /* \"#utility.yul\":933:949   */\n      add\n        /* \"#utility.yul\":898:963   */\n      tag_47\n      jump\t// in\n    tag_85:\n        /* \"#utility.yul\":988:1017   */\n      tag_86\n        /* \"#utility.yul\":1010:1016   */\n      dup2\n        /* \"#utility.yul\":988:1017   */\n      tag_48\n      jump\t// in\n    tag_86:\n        /* \"#utility.yul\":983:986   */\n      dup5\n        /* \"#utility.yul\":979:1018   */\n      add\n        /* \"#utility.yul\":972:1018   */\n      swap2\n      pop\n        /* \"#utility.yul\":739:1024   */\n      pop\n        /* \"#utility.yul\":647:1024   */\n      swap3\n      swap2\n      pop\n      pop\n      jump\t// out\n        /* \"#utility.yul\":1030:1343   */\n    tag_10:\n        /* \"#utility.yul\":1143:1147   */\n      0x00\n        /* \"#utility.yul\":1181:1183   */\n      0x20\n        /* \"#utility.yul\":1170:1179   */\n      dup3\n        /* \"#utility.yul\":1166:1184   */\n      add\n        /* \"#utility.yul\":1158:1184   */\n      swap1\n      pop\n        /* \"#utility.yul\":1230:1239   */\n      dup2\n        /* \"#utility.yul\":1224:1228   */\n      dup2\n        /* \"#utility.yul\":1220:1240   */\n      sub\n        /* \"#utility.yul\":1216:1217   */\n      0x00\n        /* \"#utility.yul\":1205:1214   */\n      dup4\n        /* \"#utility.yul\":1201:1218   */\n      add\n        /* \"#utility.yul\":1194:1241   */\n      mstore\n        /* \"#utility.yul\":1258:1336   */\n      tag_88\n        /* \"#utility.yul\":1331:1335   */\n      dup2\n        /* \"#utility.yul\":1322:1328   */\n      dup5\n        /* \"#utility.yul\":1258:1336   */\n      tag_49\n      jump\t// in\n    tag_88:\n        /* \"#utility.yul\":1250:1336   */\n      swap1\n      pop\n        /* \"#utility.yul\":1030:1343   */\n      swap3\n      swap2\n      pop\n      pop\n      jump\t// out\n        /* \"#utility.yul\":1349:1426   */\n    tag_50:\n        /* \"#utility.yul\":1386:1393   */\n      0x00\n        /* \"#utility.yul\":1415:1420   */\n      dup2\n        /* \"#utility.yul\":1404:1420   */\n      swap1\n      pop\n        /* \"#utility.yul\":1349:1426   */\n      swap2\n      swap1\n      pop\n      jump\t// out\n        /* \"#utility.yul\":1432:1550   */\n    tag_51:\n        /* \"#utility.yul\":1519:1543   */\n      tag_91\n        /* \"#utility.yul\":1537:1542   */\n      dup2\n        /* \"#utility.yul\":1519:1543   */\n      tag_50\n      jump\t// in\n    tag_91:\n        /* \"#utility.yul\":1514:1517   */\n      dup3\n        /* \"#utility.yul\":1507:1544   */\n      mstore\n        /* \"#utility.yul\":1432:1550   */\n      pop\n      pop\n      jump\t// out\n        /* \"#utility.yul\":1556:1778   */\n    tag_17:\n        /* \"#utility.yul\":1649:1653   */\n      0x00\n        /* \"#utility.yul\":1687:1689   */\n      0x20\n        /* \"#utility.yul\":1676:1685   */\n      dup3\n        /* \"#utility.yul\":1672:1690   */\n      add\n        /* \"#utility.yul\":1664:1690   */\n      swap1\n      pop\n        /* \"#utility.yul\":1700:1771   */\n      tag_93\n        /* \"#utility.yul\":1768:1769   */\n      0x00\n        /* \"#utility.yul\":1757:1766   */\n      dup4\n        /* \"#utility.yul\":1753:1770   */\n      add\n        /* \"#utility.yul\":1744:1750   */\n      dup5\n        /* \"#utility.yul\":1700:1771   */\n      tag_51\n      jump\t// in\n    tag_93:\n        /* \"#utility.yul\":1556:1778   */\n      swap3\n      swap2\n      pop\n      pop\n      jump\t// out\n        /* \"#utility.yul\":1865:1982   */\n    tag_53:\n        /* \"#utility.yul\":1974:1975   */\n      0x00\n        /* \"#utility.yul\":1971:1972   */\n      dup1\n        /* \"#utility.yul\":1964:1976   */\n      revert\n        /* \"#utility.yul\":2111:2233   */\n    tag_55:\n        /* \"#utility.yul\":2184:2208   */\n      tag_98\n        /* \"#utility.yul\":2202:2207   */\n      dup2\n        /* \"#utility.yul\":2184:2208   */\n      tag_50\n      jump\t// in\n    tag_98:\n        /* \"#utility.yul\":2177:2182   */\n      dup2\n        /* \"#utility.yul\":2174:2209   */\n      eq\n        /* \"#utility.yul\":2164:2227   */\n      tag_99\n      jumpi\n        /* \"#utility.yul\":2223:2224   */\n      0x00\n        /* \"#utility.yul\":2220:2221   */\n      dup1\n        /* \"#utility.yul\":2213:2225   */\n      revert\n        /* \"#utility.yul\":2164:2227   */\n    tag_99:\n        /* \"#utility.yul\":2111:2233   */\n      pop\n      jump\t// out\n        /* \"#utility.yul\":2239:2378   */\n    tag_56:\n        /* \"#utility.yul\":2285:2290   */\n      0x00\n        /* \"#utility.yul\":2323:2329   */\n      dup2\n        /* \"#utility.yul\":2310:2330   */\n      calldataload\n        /* \"#utility.yul\":2301:2330   */\n      swap1\n      pop\n        /* \"#utility.yul\":2339:2372   */\n      tag_101\n        /* \"#utility.yul\":2366:2371   */\n      dup2\n        /* \"#utility.yul\":2339:2372   */\n      tag_55\n      jump\t// in\n    tag_101:\n        /* \"#utility.yul\":2239:2378   */\n      swap3\n      swap2\n      pop\n      pop\n      jump\t// out\n        /* \"#utility.yul\":2384:2713   */\n    tag_20:\n        /* \"#utility.yul\":2443:2449   */\n      0x00\n        /* \"#utility.yul\":2492:2494   */\n      0x20\n        /* \"#utility.yul\":2480:2489   */\n      dup3\n        /* \"#utility.yul\":2471:2478   */\n      dup5\n        /* \"#utility.yul\":2467:2490   */\n      sub\n        /* \"#utility.yul\":2463:2495   */\n      slt\n        /* \"#utility.yul\":2460:2579   */\n      iszero\n      tag_103\n      jumpi\n        /* \"#utility.yul\":2498:2577   */\n      tag_104\n      tag_53\n      jump\t// in\n    tag_104:\n        /* \"#utility.yul\":2460:2579   */\n    tag_103:\n        /* \"#utility.yul\":2618:2619   */\n      0x00\n        /* \"#utility.yul\":2643:2696   */\n      tag_105\n        /* \"#utility.yul\":2688:2695   */\n      dup5\n        /* \"#utility.yul\":2679:2685   */\n      dup3\n        /* \"#utility.yul\":2668:2677   */\n      dup6\n        /* \"#utility.yul\":2664:2686   */\n      add\n        /* \"#utility.yul\":2643:2696   */\n      tag_56\n      jump\t// in\n    tag_105:\n        /* \"#utility.yul\":2633:2696   */\n      swap2\n      pop\n        /* \"#utility.yul\":2589:2706   */\n      pop\n        /* \"#utility.yul\":2384:2713   */\n      swap3\n      swap2\n      pop\n      pop\n      jump\t// out\n        /* \"#utility.yul\":2719:2899   */\n    tag_57:\n        /* \"#utility.yul\":2767:2844   */\n      0x4e487b7100000000000000000000000000000000000000000000000000000000\n        /* \"#utility.yul\":2764:2765   */\n      0x00\n        /* \"#utility.yul\":2757:2845   */\n      mstore\n        /* \"#utility.yul\":2864:2868   */\n      0x22\n        /* \"#utility.yul\":2861:2862   */\n      0x04\n        /* \"#utility.yul\":2854:2869   */\n      mstore\n        /* \"#utility.yul\":2888:2892   */\n      0x24\n        /* \"#utility.yul\":2885:2886   */\n      0x00\n        /* \"#utility.yul\":2878:2893   */\n      revert\n        /* \"#utility.yul\":2905:3225   */\n    tag_23:\n        /* \"#utility.yul\":2949:2955   */\n      0x00\n        /* \"#utility.yul\":2986:2987   */\n      0x02\n        /* \"#utility.yul\":2980:2984   */\n      dup3\n        /* \"#utility.yul\":2976:2988   */\n      div\n        /* \"#utility.yul\":2966:2988   */\n      swap1\n      pop\n        /* \"#utility.yul\":3033:3034   */\n      0x01\n        /* \"#utility.yul\":3027:3031   */\n      dup3\n        /* \"#utility.yul\":3023:3035   */\n      and\n        /* \"#utility.yul\":3054:3072   */\n      dup1\n        /* \"#utility.yul\":3044:3125   */\n      tag_108\n      jumpi\n        /* \"#utility.yul\":3110:3114   */\n      0x7f\n        /* \"#utility.yul\":3102:3108   */\n      dup3\n        /* \"#utility.yul\":3098:3115   */\n      and\n        /* \"#utility.yul\":3088:3115   */\n      swap2\n      pop\n        /* \"#utility.yul\":3044:3125   */\n    tag_108:\n        /* \"#utility.yul\":3172:3174   */\n      0x20\n        /* \"#utility.yul\":3164:3170   */\n      dup3\n        /* \"#utility.yul\":3161:3175   */\n      lt\n        /* \"#utility.yul\":3141:3159   */\n      dup2\n        /* \"#utility.yul\":3138:3176   */\n      sub\n        /* \"#utility.yul\":3135:3219   */\n      tag_109\n      jumpi\n        /* \"#utility.yul\":3191:3209   */\n      tag_110\n      tag_57\n      jump\t// in\n    tag_110:\n        /* \"#utility.yul\":3135:3219   */\n    tag_109:\n        /* \"#utility.yul\":2956:3225   */\n      pop\n        /* \"#utility.yul\":2905:3225   */\n      swap2\n      swap1\n      pop\n      jump\t// out\n        /* \"#utility.yul\":3231:3411   */\n    tag_58:\n        /* \"#utility.yul\":3279:3356   */\n      0x4e487b7100000000000000000000000000000000000000000000000000000000\n        /* \"#utility.yul\":3276:3277   */\n      0x00\n        /* \"#utility.yul\":3269:3357   */\n      mstore\n        /* \"#utility.yul\":3376:3380   */\n      0x41\n        /* \"#utility.yul\":3373:3374   */\n      0x04\n        /* \"#utility.yul\":3366:3381   */\n      mstore\n        /* \"#utility.yul\":3400:3404   */\n      0x24\n        /* \"#utility.yul\":3397:3398   */\n      0x00\n        /* \"#utility.yul\":3390:3405   */\n      revert\n        /* \"#utility.yul\":3417:3558   */\n    tag_59:\n        /* \"#utility.yul\":3466:3470   */\n      0x00\n        /* \"#utility.yul\":3489:3492   */\n      dup2\n        /* \"#utility.yul\":3481:3492   */\n      swap1\n      pop\n        /* \"#utility.yul\":3512:3515   */\n      dup2\n        /* \"#utility.yul\":3509:3510   */\n      0x00\n        /* \"#utility.yul\":3502:3516   */\n      mstore\n        /* \"#utility.yul\":3546:3550   */\n      0x20\n        /* \"#utility.yul\":3543:3544   */\n      0x00\n        /* \"#utility.yul\":3533:3551   */\n      keccak256\n        /* \"#utility.yul\":3525:3551   */\n      swap1\n      pop\n        /* \"#utility.yul\":3417:3558   */\n      swap2\n      swap1\n      pop\n      jump\t// out\n        /* \"#utility.yul\":3564:3657   */\n    tag_60:\n        /* \"#utility.yul\":3601:3607   */\n      0x00\n        /* \"#utility.yul\":3648:3650   */\n      0x20\n        /* \"#utility.yul\":3643:3645   */\n      0x1f\n        /* \"#utility.yul\":3636:3641   */\n      dup4\n        /* \"#utility.yul\":3632:3646   */\n      add\n        /* \"#utility.yul\":3628:3651   */\n      div\n        /* \"#utility.yul\":3618:3651   */\n      swap1\n      pop\n        /* \"#utility.yul\":3564:3657   */\n      swap2\n      swap1\n      pop\n      jump\t// out\n        /* \"#utility.yul\":3663:3770   */\n    tag_61:\n        /* \"#utility.yul\":3707:3715   */\n      0x00\n        /* \"#utility.yul\":3757:3762   */\n      dup3\n        /* \"#utility.yul\":3751:3755   */\n      dup3\n        /* \"#utility.yul\":3747:3763   */\n      shl\n        /* \"#utility.yul\":3726:3763   */\n      swap1\n      pop\n        /* \"#utility.yul\":3663:3770   */\n      swap3\n      swap2\n      pop\n      pop\n      jump\t// out\n        /* \"#utility.yul\":3776:4169   */\n    tag_62:\n        /* \"#utility.yul\":3845:3851   */\n      0x00\n        /* \"#utility.yul\":3895:3896   */\n      0x08\n        /* \"#utility.yul\":3883:3893   */\n      dup4\n        /* \"#utility.yul\":3879:3897   */\n      mul\n        /* \"#utility.yul\":3918:4015   */\n      tag_116\n        /* \"#utility.yul\":3948:4014   */\n      0xffffffffffffffffffffffffffffffffffffffffffffffffffffffffffffffff\n        /* \"#utility.yul\":3937:3946   */\n      dup3\n        /* \"#utility.yul\":3918:4015   */\n      tag_61\n      jump\t// in\n    tag_116:\n        /* \"#utility.yul\":4036:4075   */\n      tag_117\n        /* \"#utility.yul\":4066:4074   */\n      dup7\n        /* \"#utility.yul\":4055:4064   */\n      dup4\n        /* \"#utility.yul\":4036:4075   */\n      tag_61\n      jump\t// in\n    tag_117:\n        /* \"#utility.yul\":4024:4075   */\n      swap6\n      pop\n        /* \"#utility.yul\":4108:4112   */\n      dup1\n        /* \"#utility.yul\":4104:4113   */\n      not\n        /* \"#utility.yul\":4097:4102   */\n      dup5\n        /* \"#utility.yul\":4093:4114   */\n      and\n        /* \"#utility.yul\":4084:4114   */\n      swap4\n      pop\n        /* \"#utility.yul\":4157:4161   */\n      dup1\n        /* \"#utility.yul\":4147:4155   */\n      dup7\n        /* \"#utility.yul\":4143:4162   */\n      and\n        /* \"#utility.yul\":4136:4141   */\n      dup5\n        /* \"#utility.yul\":4133:4163   */\n      or\n        /* \"#utility.yul\":4123:4163   */\n      swap3\n      pop\n        /* \"#utility.yul\":3852:4169   */\n      pop\n      pop\n        /* \"#utility.yul\":3776:4169   */\n      swap4\n      swap3\n      pop\n      pop\n      pop\n      jump\t// out\n        /* \"#utility.yul\":4175:4235   */\n    tag_63:\n        /* \"#utility.yul\":4203:4206   */\n      0x00\n        /* \"#utility.yul\":4224:4229   */\n      dup2\n        /* \"#utility.yul\":4217:4229   */\n      swap1\n      pop\n        /* \"#utility.yul\":4175:4235   */\n      swap2\n      swap1\n      pop\n      jump\t// out\n        /* \"#utility.yul\":4241:4383   */\n    tag_64:\n        /* \"#utility.yul\":4291:4300   */\n      0x00\n        /* \"#utility.yul\":4324:4377   */\n      tag_120\n        /* \"#utility.yul\":4342:4376   */\n      tag_121\n        /* \"#utility.yul\":4351:4375   */\n      tag_122\n        /* \"#utility.yul\":4369:4374   */\n      dup5\n        /* \"#utility.yul\":4351:4375   */\n      tag_50\n      jump\t// in\n    tag_122:\n        /* \"#utility.yul\":4342:4376   */\n      tag_63\n      jump\t// in\n    tag_121:\n        /* \"#utility.yul\":4324:4377   */\n      tag_50\n      jump\t// in\n    tag_120:\n        /* \"#utility.yul\":4311:4377   */\n      swap1\n      pop\n        /* \"#utility.yul\":4241:4383   */\n      swap2\n      swap1\n      pop\n      jump\t// out\n        /* \"#utility.yul\":4389:4464   */\n    tag_65:\n        /* \"#utility.yul\":4432:4435   */\n      0x00\n        /* \"#utility.yul\":4453:4458   */\n      dup2\n        /* \"#utility.yul\":4446:4458   */\n      swap1\n      pop\n        /* \"#utility.yul\":4389:4464   */\n      swap2\n      swap1\n      pop\n      jump\t// out\n        /* \"#utility.yul\":4470:4739   */\n    tag_66:\n        /* \"#utility.yul\":4580:4619   */\n      tag_125\n        /* \"#utility.yul\":4611:4618   */\n      dup4\n        /* \"#utility.yul\":4580:4619   */\n      tag_64\n      jump\t// in\n    tag_125:\n        /* \"#utility.yul\":4641:4732   */\n      tag_126\n        /* \"#utility.yul\":4690:4731   */\n      tag_127\n        /* \"#utility.yul\":4714:4730   */\n      dup3\n        /* \"#utility.yul\":4690:4731   */\n      tag_65\n      jump\t// in\n    tag_127:\n        /* \"#utility.yul\":4682:4688   */\n      dup5\n        /* \"#utility.yul\":4675:4679   */\n      dup5\n        /* \"#utility.yul\":4669:4680   */\n      sload\n        /* \"#utility.yul\":4641:4732   */\n      tag_62\n      jump\t// in\n    tag_126:\n        /* \"#utility.yul\":4635:4639   */\n      dup3\n        /* \"#utility.yul\":4628:4733   */\n      sstore\n        /* \"#utility.yul\":4546:4739   */\n      pop\n        /* \"#utility.yul\":4470:4739   */\n      pop\n      pop\n      pop\n      jump\t// out\n        /* \"#utility.yul\":4745:4818   */\n    tag_67:\n        /* \"#utility.yul\":4790:4793   */\n      0x00\n        /* \"#utility.yul\":4745:4818   */\n      swap1\n      jump\t// out\n        /* \"#utility.yul\":4824:5013   */\n    tag_68:\n        /* \"#utility.yul\":4901:4933   */\n      tag_130\n      tag_67\n      jump\t// in\n    tag_130:\n        /* \"#utility.yul\":4942:5007   */\n      tag_131\n        /* \"#utility.yul\":5000:5006   */\n      dup2\n        /* \"#utility.yul\":4992:4998   */\n      dup5\n        /* \"#utility.yul\":4986:4990   */\n      dup5\n        /* \"#utility.yul\":4942:5007   */\n      tag_66\n      jump\t// in\n    tag_131:\n        /* \"#utility.yul\":4877:5013   */\n      pop\n        /* \"#utility.yul\":4824:5013   */\n      pop\n      pop\n      jump\t// out\n        /* \"#utility.yul\":5019:5205   */\n    tag_69:\n        /* \"#utility.yul\":5079:5199   */\n    tag_133:\n        /* \"#utility.yul\":5096:5099   */\n      dup2\n        /* \"#utility.yul\":5089:5094   */\n      dup2\n        /* \"#utility.yul\":5086:5100   */\n      lt\n        /* \"#utility.yul\":5079:5199   */\n      iszero\n      tag_135\n      jumpi\n        /* \"#utility.yul\":5150:5189   */\n      tag_136\n        /* \"#utility.yul\":5187:5188   */\n      0x00\n        /* \"#utility.yul\":5180:5185   */\n      dup3\n        /* \"#utility.yul\":5150:5189   */\n      tag_68\n      jump\t// in\n    tag_136:\n        /* \"#utility.yul\":5123:5124   */\n      0x01\n        /* \"#utility.yul\":5116:5121   */\n      dup2\n        /* \"#utility.yul\":5112:5125   */\n      add\n        /* \"#utility.yul\":5103:5125   */\n      swap1\n      pop\n        /* \"#utility.yul\":5079:5199   */\n      jump(tag_133)\n    tag_135:\n        /* \"#utility.yul\":5019:5205   */\n      pop\n      pop\n      jump\t// out\n        /* \"#utility.yul\":5211:5754   */\n    tag_70:\n        /* \"#utility.yul\":5312:5314   */\n      0x1f\n        /* \"#utility.yul\":5307:5310   */\n      dup3\n        /* \"#utility.yul\":5304:5315   */\n      gt\n        /* \"#utility.yul\":5301:5747   */\n      iszero\n      tag_138\n      jumpi\n        /* \"#utility.yul\":5346:5384   */\n      tag_139\n        /* \"#utility.yul\":5378:5383   */\n      dup2\n        /* \"#utility.yul\":5346:5384   */\n      tag_59\n      jump\t// in\n    tag_139:\n        /* \"#utility.yul\":5430:5459   */\n      tag_140\n        /* \"#utility.yul\":5448:5458   */\n      dup5\n        /* \"#utility.yul\":5430:5459   */\n      tag_60\n      jump\t// in\n    tag_140:\n        /* \"#utility.yul\":5420:5428   */\n      dup2\n        /* \"#utility.yul\":5416:5460   */\n      add\n        /* \"#utility.yul\":5613:5615   */\n      0x20\n        /* \"#utility.yul\":5601:5611   */\n      dup6\n        /* \"#utility.yul\":5598:5616   */\n      lt\n        /* \"#utility.yul\":5595:5644   */\n      iszero\n      tag_141\n      jumpi\n        /* \"#utility.yul\":5634:5642   */\n      dup2\n        /* \"#utility.yul\":5619:5642   */\n      swap1\n      pop\n        /* \"#utility.yul\":5595:5644   */\n    tag_141:\n        /* \"#utility.yul\":5657:5737   */\n      tag_142\n        /* \"#utility.yul\":5713:5735   */\n      tag_143\n        /* \"#utility.yul\":5731:5734   */\n      dup6\n        /* \"#utility.yul\":5713:5735   */\n      tag_60\n      jump\t// in\n    tag_143:\n        /* \"#utility.yul\":5703:5711   */\n      dup4\n        /* \"#utility.yul\":5699:5736   */\n      add\n        /* \"#utility.yul\":5686:5697   */\n      dup3\n        /* \"#utility.yul\":5657:5737   */\n      tag_69\n      jump\t// in\n    tag_142:\n        /* \"#utility.yul\":5316:5747   */\n      pop\n      pop\n        /* \"#utility.yul\":5301:5747   */\n    tag_138:\n        /* \"#utility.yul\":5211:5754   */\n      pop\n      pop\n      pop\n      jump\t// out\n        /* \"#utility.yul\":5760:5877   */\n    tag_71:\n        /* \"#utility.yul\":5814:5822   */\n      0x00\n        /* \"#utility.yul\":5864:5869   */\n      dup3\n        /* \"#utility.yul\":5858:5862   */\n      dup3\n        /* \"#utility.yul\":5854:5870   */\n      shr\n        /* \"#utility.yul\":5833:5870   */\n      swap1\n      pop\n        /* \"#utility.yul\":5760:5877   */\n      swap3\n      swap2\n      pop\n      pop\n      jump\t// out\n        /* \"#utility.yul\":5883:6052   */\n    tag_72:\n        /* \"#utility.yul\":5927:5933   */\n      0x00\n        /* \"#utility.yul\":5960:6011   */\n      tag_146\n        /* \"#utility.yul\":6008:6009   */\n      0x00\n        /* \"#utility.yul\":6004:6010   */\n      not\n        /* \"#utility.yul\":5996:6001   */\n      dup5\n        /* \"#utility.yul\":5993:5994   */\n      0x08\n        /* \"#utility.yul\":5989:6002   */\n      mul\n        /* \"#utility.yul\":5960:6011   */\n      tag_71\n      jump\t// in\n    tag_146:\n        /* \"#utility.yul\":5956:6012   */\n      not\n        /* \"#utility.yul\":6041:6045   */\n      dup1\n        /* \"#utility.yul\":6035:6039   */\n      dup4\n        /* \"#utility.yul\":6031:6046   */\n      and\n        /* \"#utility.yul\":6021:6046   */\n      swap2\n      pop\n        /* \"#utility.yul\":5934:6052   */\n      pop\n        /* \"#utility.yul\":5883:6052   */\n      swap3\n      swap2\n      pop\n      pop\n      jump\t// out\n        /* \"#utility.yul\":6057:6352   */\n    tag_73:\n        /* \"#utility.yul\":6133:6137   */\n      0x00\n        /* \"#utility.yul\":6279:6308   */\n      tag_148\n        /* \"#utility.yul\":6304:6307   */\n      dup4\n        /* \"#utility.yul\":6298:6302   */\n      dup4\n        /* \"#utility.yul\":6279:6308   */\n      tag_72\n      jump\t// in\n    tag_148:\n        /* \"#utility.yul\":6271:6308   */\n      swap2\n      pop\n        /* \"#utility.yul\":6341:6344   */\n      dup3\n        /* \"#utility.yul\":6338:6339   */\n      0x02\n        /* \"#utility.yul\":6334:6345   */\n      mul\n        /* \"#utility.yul\":6328:6332   */\n      dup3\n        /* \"#utility.yul\":6325:6346   */\n      or\n        /* \"#utility.yul\":6317:6346   */\n      swap1\n      pop\n        /* \"#utility.yul\":6057:6352   */\n      swap3\n      swap2\n      pop\n      pop\n      jump\t// out\n        /* \"#utility.yul\":6357:7752   */\n    tag_31:\n        /* \"#utility.yul\":6474:6511   */\n      tag_150\n        /* \"#utility.yul\":6507:6510   */\n      dup3\n        /* \"#utility.yul\":6474:6511   */\n      tag_45\n      jump\t// in\n    tag_150:\n        /* \"#utility.yul\":6576:6594   */\n      0xffffffffffffffff\n        /* \"#utility.yul\":6568:6574   */\n      dup2\n        /* \"#utility.yul\":6565:6595   */\n      gt\n        /* \"#utility.yul\":6562:6618   */\n      iszero\n      tag_151\n      jumpi\n        /* \"#utility.yul\":6598:6616   */\n      tag_152\n      tag_58\n      jump\t// in\n    tag_152:\n        /* \"#utility.yul\":6562:6618   */\n    tag_151:\n        /* \"#utility.yul\":6642:6680   */\n      tag_153\n        /* \"#utility.yul\":6674:6678   */\n      dup3\n        /* \"#utility.yul\":6668:6679   */\n      sload\n        /* \"#utility.yul\":6642:6680   */\n      tag_23\n      jump\t// in\n    tag_153:\n        /* \"#utility.yul\":6727:6794   */\n      tag_154\n        /* \"#utility.yul\":6787:6793   */\n      dup3\n        /* \"#utility.yul\":6779:6785   */\n      dup3\n        /* \"#utility.yul\":6773:6777   */\n      dup6\n        /* \"#utility.yul\":6727:6794   */\n      tag_70\n      jump\t// in\n    tag_154:\n        /* \"#utility.yul\":6821:6822   */\n      0x00\n        /* \"#utility.yul\":6845:6849   */\n      0x20\n        /* \"#utility.yul\":6832:6849   */\n      swap1\n      pop\n        /* \"#utility.yul\":6877:6879   */\n      0x1f\n        /* \"#utility.yul\":6869:6875   */\n      dup4\n        /* \"#utility.yul\":6866:6880   */\n      gt\n        /* \"#utility.yul\":6894:6895   */\n      0x01\n        /* \"#utility.yul\":6889:7507   */\n      dup2\n      eq\n      tag_156\n      jumpi\n        /* \"#utility.yul\":7551:7552   */\n      0x00\n        /* \"#utility.yul\":7568:7574   */\n      dup5\n        /* \"#utility.yul\":7565:7642   */\n      iszero\n      tag_157\n      jumpi\n        /* \"#utility.yul\":7617:7626   */\n      dup3\n        /* \"#utility.yul\":7612:7615   */\n      dup8\n        /* \"#utility.yul\":7608:7627   */\n      add\n        /* \"#utility.yul\":7602:7628   */\n      mload\n        /* \"#utility.yul\":7593:7628   */\n      swap1\n      pop\n        /* \"#utility.yul\":7565:7642   */\n    tag_157:\n        /* \"#utility.yul\":7668:7735   */\n      tag_158\n        /* \"#utility.yul\":7728:7734   */\n      dup6\n        /* \"#utility.yul\":7721:7726   */\n      dup3\n        /* \"#utility.yul\":7668:7735   */\n      tag_73\n      jump\t// in\n    tag_158:\n        /* \"#utility.yul\":7662:7666   */\n      dup7\n        /* \"#utility.yul\":7655:7736   */\n      sstore\n        /* \"#utility.yul\":7524:7746   */\n      pop\n        /* \"#utility.yul\":6859:7746   */\n      jump(tag_155)\n        /* \"#utility.yul\":6889:7507   */\n    tag_156:\n        /* \"#utility.yul\":6941:6945   */\n      0x1f\n        /* \"#utility.yul\":6937:6946   */\n      not\n        /* \"#utility.yul\":6929:6935   */\n      dup5\n        /* \"#utility.yul\":6925:6947   */\n      and\n        /* \"#utility.yul\":6975:7012   */\n      tag_159\n        /* \"#utility.yul\":7007:7011   */\n      dup7\n        /* \"#utility.yul\":6975:7012   */\n      tag_59\n      jump\t// in\n    tag_159:\n        /* \"#utility.yul\":7034:7035   */\n      0x00\n        /* \"#utility.yul\":7048:7256   */\n    tag_160:\n        /* \"#utility.yul\":7062:7069   */\n      dup3\n        /* \"#utility.yul\":7059:7060   */\n      dup2\n        /* \"#utility.yul\":7056:7070   */\n      lt\n        /* \"#utility.yul\":7048:7256   */\n      iszero\n      tag_162\n      jumpi\n        /* \"#utility.yul\":7141:7150   */\n      dup5\n        /* \"#utility.yul\":7136:7139   */\n      dup10\n        /* \"#utility.yul\":7132:7151   */\n      add\n        /* \"#utility.yul\":7126:7152   */\n      mload\n        /* \"#utility.yul\":7118:7124   */\n      dup3\n        /* \"#utility.yul\":7111:7153   */\n      sstore\n        /* \"#utility.yul\":7192:7193   */\n      0x01\n        /* \"#utility.yul\":7184:7190   */\n      dup3\n        /* \"#utility.yul\":7180:7194   */\n      add\n        /* \"#utility.yul\":7170:7194   */\n      swap2\n      pop\n        /* \"#utility.yul\":7239:7241   */\n      0x20\n        /* \"#utility.yul\":7228:7237   */\n      dup6\n        /* \"#utility.yul\":7224:7242   */\n      add\n        /* \"#utility.yul\":7211:7242   */\n      swap5\n      pop\n        /* \"#utility.yul\":7085:7089   */\n      0x20\n        /* \"#utility.yul\":7082:7083   */\n      dup2\n        /* \"#utility.yul\":7078:7090   */\n      add\n        /* \"#utility.yul\":7073:7090   */\n      swap1\n      pop\n        /* \"#utility.yul\":7048:7256   */\n      jump(tag_160)\n    tag_162:\n        /* \"#utility.yul\":7284:7290   */\n      dup7\n        /* \"#utility.yul\":7275:7282   */\n      dup4\n        /* \"#utility.yul\":7272:7291   */\n      lt\n        /* \"#utility.yul\":7269:7448   */\n      iszero\n      tag_163\n      jumpi\n        /* \"#utility.yul\":7342:7351   */\n      dup5\n        /* \"#utility.yul\":7337:7340   */\n      dup10\n        /* \"#utility.yul\":7333:7352   */\n      add\n        /* \"#utility.yul\":7327:7353   */\n      mload\n        /* \"#utility.yul\":7385:7433   */\n      tag_164\n        /* \"#utility.yul\":7427:7431   */\n      0x1f\n        /* \"#utility.yul\":7419:7425   */\n      dup10\n        /* \"#utility.yul\":7415:7432   */\n      and\n        /* \"#utility.yul\":7404:7413   */\n      dup3\n        /* \"#utility.yul\":7385:7433   */\n      tag_72\n      jump\t// in\n    tag_164:\n        /* \"#utility.yul\":7377:7383   */\n      dup4\n        /* \"#utility.yul\":7370:7434   */\n      sstore\n        /* \"#utility.yul\":7292:7448   */\n      pop\n        /* \"#utility.yul\":7269:7448   */\n    tag_163:\n        /* \"#utility.yul\":7494:7495   */\n      0x01\n        /* \"#utility.yul\":7490:7491   */\n      0x02\n        /* \"#utility.yul\":7482:7488   */\n      dup9\n        /* \"#utility.yul\":7478:7492   */\n      mul\n        /* \"#utility.yul\":7474:7496   */\n      add\n        /* \"#utility.yul\":7468:7472   */\n      dup9\n        /* \"#utility.yul\":7461:7497   */\n      sstore\n        /* \"#utility.yul\":6896:7507   */\n      pop\n      pop\n      pop\n        /* \"#utility.yul\":6859:7746   */\n    tag_155:\n      pop\n        /* \"#utility.yul\":6449:7752   */\n      pop\n      pop\n      pop\n        /* \"#utility.yul\":6357:7752   */\n      pop\n      pop\n      jump\t// out\n\n    auxdata: 0xa2646970667358221220ae8c8010a064a33a287e71e8461142fbd382424bc42749ae1d49cc197de4954964736f6c63430008120033\n}\n",
				"bytecode": {
					"linkReferences": {},
					"object": "608060405234801561001057600080fd5b506107a0806100206000396000f3fe608060405234801561001057600080fd5b506004361061004c5760003560e01c80631f1bd69214610051578063370158ea1461006f5780634e70b1dc1461008d57806382ab890a146100ab575b600080fd5b6100596100c7565b60405161006691906103a9565b60405180910390f35b610077610155565b60405161008491906103a9565b60405180910390f35b610095610309565b6040516100a291906103e4565b60405180910390f35b6100c560048036038101906100c09190610430565b61030f565b005b600180546100d49061048c565b80601f01602080910402602001604051908101604052809291908181526020018280546101009061048c565b801561014d5780601f106101225761010080835404028352916020019161014d565b820191906000526020600020905b81548152906001019060200180831161013057829003601f168201915b505050505081565b6060600a6000541015610236576040518060400160405280601381526020017f6e756d206973206c657373207468616e20313000000000000000000000000000815250600190816101a69190610698565b80546101b19061048c565b80601f01602080910402602001604051908101604052809291908181526020018280546101dd9061048c565b801561022a5780601f106101ff5761010080835404028352916020019161022a565b820191906000526020600020905b81548152906001019060200180831161020d57829003601f168201915b50505050509050610306565b6040518060400160405280601681526020017f6e756d2069732067726561746572207468616e203130000000000000000000008152506001908161027a9190610698565b80546102859061048c565b80601f01602080910402602001604051908101604052809291908181526020018280546102b19061048c565b80156102fe5780601f106102d3576101008083540402835291602001916102fe565b820191906000526020600020905b8154815290600101906020018083116102e157829003601f168201915b505050505090505b90565b60005481565b8060008190555050565b600081519050919050565b600082825260208201905092915050565b60005b83811015610353578082015181840152602081019050610338565b60008484015250505050565b6000601f19601f8301169050919050565b600061037b82610319565b6103858185610324565b9350610395818560208601610335565b61039e8161035f565b840191505092915050565b600060208201905081810360008301526103c38184610370565b905092915050565b6000819050919050565b6103de816103cb565b82525050565b60006020820190506103f960008301846103d5565b92915050565b600080fd5b61040d816103cb565b811461041857600080fd5b50565b60008135905061042a81610404565b92915050565b600060208284031215610446576104456103ff565b5b60006104548482850161041b565b91505092915050565b7f4e487b7100000000000000000000000000000000000000000000000000000000600052602260045260246000fd5b600060028204905060018216806104a457607f821691505b6020821081036104b7576104b661045d565b5b50919050565b7f4e487b7100000000000000000000000000000000000000000000000000000000600052604160045260246000fd5b60008190508160005260206000209050919050565b60006020601f8301049050919050565b600082821b905092915050565b60006008830261054e7fffffffffffffffffffffffffffffffffffffffffffffffffffffffffffffffff82610511565b6105588683610511565b95508019841693508086168417925050509392505050565b6000819050919050565b600061059561059061058b846103cb565b610570565b6103cb565b9050919050565b6000819050919050565b6105af8361057a565b6105c36105bb8261059c565b84845461051e565b825550505050565b600090565b6105d86105cb565b6105e38184846105a6565b505050565b5b81811015610607576105fc6000826105d0565b6001810190506105e9565b5050565b601f82111561064c5761061d816104ec565b61062684610501565b81016020851015610635578190505b61064961064185610501565b8301826105e8565b50505b505050565b600082821c905092915050565b600061066f60001984600802610651565b1980831691505092915050565b6000610688838361065e565b9150826002028217905092915050565b6106a182610319565b67ffffffffffffffff8111156106ba576106b96104bd565b5b6106c4825461048c565b6106cf82828561060b565b600060209050601f83116001811461070257600084156106f0578287015190505b6106fa858261067c565b865550610762565b601f198416610710866104ec565b60005b8281101561073857848901518255600182019150602085019450602081019050610713565b868310156107555784890151610751601f89168261065e565b8355505b6001600288020188555050505b50505050505056fea2646970667358221220ae8c8010a064a33a287e71e8461142fbd382424bc42749ae1d49cc197de4954964736f6c63430008120033",
					"opcodes": "PUSH1 0x80 PUSH1 0x40 MSTORE CALLVALUE DUP1 ISZERO PUSH2 0x10 JUMPI PUSH1 0x0 DUP1 REVERT JUMPDEST POP PUSH2 0x7A0 DUP1 PUSH2 0x20 PUSH1 0x0 CODECOPY PUSH1 0x0 RETURN INVALID PUSH1 0x80 PUSH1 0x40 MSTORE CALLVALUE DUP1 ISZERO PUSH2 0x10 JUMPI PUSH1 0x0 DUP1 REVERT JUMPDEST POP PUSH1 0x4 CALLDATASIZE LT PUSH2 0x4C JUMPI PUSH1 0x0 CALLDATALOAD PUSH1 0xE0 SHR DUP1 PUSH4 0x1F1BD692 EQ PUSH2 0x51 JUMPI DUP1 PUSH4 0x370158EA EQ PUSH2 0x6F JUMPI DUP1 PUSH4 0x4E70B1DC EQ PUSH2 0x8D JUMPI DUP1 PUSH4 0x82AB890A EQ PUSH2 0xAB JUMPI JUMPDEST PUSH1 0x0 DUP1 REVERT JUMPDEST PUSH2 0x59 PUSH2 0xC7 JUMP JUMPDEST PUSH1 0x40 MLOAD PUSH2 0x66 SWAP2 SWAP1 PUSH2 0x3A9 JUMP JUMPDEST PUSH1 0x40 MLOAD DUP1 SWAP2 SUB SWAP1 RETURN JUMPDEST PUSH2 0x77 PUSH2 0x155 JUMP JUMPDEST PUSH1 0x40 MLOAD PUSH2 0x84 SWAP2 SWAP1 PUSH2 0x3A9 JUMP JUMPDEST PUSH1 0x40 MLOAD DUP1 SWAP2 SUB SWAP1 RETURN JUMPDEST PUSH2 0x95 PUSH2 0x309 JUMP JUMPDEST PUSH1 0x40 MLOAD PUSH2 0xA2 SWAP2 SWAP1 PUSH2 0x3E4 JUMP JUMPDEST PUSH1 0x40 MLOAD DUP1 SWAP2 SUB SWAP1 RETURN JUMPDEST PUSH2 0xC5 PUSH1 0x4 DUP1 CALLDATASIZE SUB DUP2 ADD SWAP1 PUSH2 0xC0 SWAP2 SWAP1 PUSH2 0x430 JUMP JUMPDEST PUSH2 0x30F JUMP JUMPDEST STOP JUMPDEST PUSH1 0x1 DUP1 SLOAD PUSH2 0xD4 SWAP1 PUSH2 0x48C JUMP JUMPDEST DUP1 PUSH1 0x1F ADD PUSH1 0x20 DUP1 SWAP2 DIV MUL PUSH1 0x20 ADD PUSH1 0x40 MLOAD SWAP1 DUP2 ADD PUSH1 0x40 MSTORE DUP1 SWAP3 SWAP2 SWAP1 DUP2 DUP2 MSTORE PUSH1 0x20 ADD DUP3 DUP1 SLOAD PUSH2 0x100 SWAP1 PUSH2 0x48C JUMP JUMPDEST DUP1 ISZERO PUSH2 0x14D JUMPI DUP1 PUSH1 0x1F LT PUSH2 0x122 JUMPI PUSH2 0x100 DUP1 DUP4 SLOAD DIV MUL DUP4 MSTORE SWAP2 PUSH1 0x20 ADD SWAP2 PUSH2 0x14D JUMP JUMPDEST DUP3 ADD SWAP2 SWAP1 PUSH1 0x0 MSTORE PUSH1 0x20 PUSH1 0x0 KECCAK256 SWAP1 JUMPDEST DUP2 SLOAD DUP2 MSTORE SWAP1 PUSH1 0x1 ADD SWAP1 PUSH1 0x20 ADD DUP1 DUP4 GT PUSH2 0x130 JUMPI DUP3 SWAP1 SUB PUSH1 0x1F AND DUP3 ADD SWAP2 JUMPDEST POP POP POP POP POP DUP2 JUMP JUMPDEST PUSH1 0x60 PUSH1 0xA PUSH1 0x0 SLOAD LT ISZERO PUSH2 0x236 JUMPI PUSH1 0x40 MLOAD DUP1 PUSH1 0x40 ADD PUSH1 0x40 MSTORE DUP1 PUSH1 0x13 DUP2 MSTORE PUSH1 0x20 ADD PUSH32 0x6E756D206973206C657373207468616E20313000000000000000000000000000 DUP2 MSTORE POP PUSH1 0x1 SWAP1 DUP2 PUSH2 0x1A6 SWAP2 SWAP1 PUSH2 0x698 JUMP JUMPDEST DUP1 SLOAD PUSH2 0x1B1 SWAP1 PUSH2 0x48C JUMP JUMPDEST DUP1 PUSH1 0x1F ADD PUSH1 0x20 DUP1 SWAP2 DIV MUL PUSH1 0x20 ADD PUSH1 0x40 MLOAD SWAP1 DUP2 ADD PUSH1 0x40 MSTORE DUP1 SWAP3 SWAP2 SWAP1 DUP2 DUP2 MSTORE PUSH1 0x20 ADD DUP3 DUP1 SLOAD PUSH2 0x1DD SWAP1 PUSH2 0x48C JUMP JUMPDEST DUP1 ISZERO PUSH2 0x22A JUMPI DUP1 PUSH1 0x1F LT PUSH2 0x1FF JUMPI PUSH2 0x100 DUP1 DUP4 SLOAD DIV MUL DUP4 MSTORE SWAP2 PUSH1 0x20 ADD SWAP2 PUSH2 0x22A JUMP JUMPDEST DUP3 ADD SWAP2 SWAP1 PUSH1 0x0 MSTORE PUSH1 0x20 PUSH1 0x0 KECCAK256 SWAP1 JUMPDEST DUP2 SLOAD DUP2 MSTORE SWAP1 PUSH1 0x1 ADD SWAP1 PUSH1 0x20 ADD DUP1 DUP4 GT PUSH2 0x20D JUMPI DUP3 SWAP1 SUB PUSH1 0x1F AND DUP3 ADD SWAP2 JUMPDEST POP POP POP POP POP SWAP1 POP PUSH2 0x306 JUMP JUMPDEST PUSH1 0x40 MLOAD DUP1 PUSH1 0x40 ADD PUSH1 0x40 MSTORE DUP1 PUSH1 0x16 DUP2 MSTORE PUSH1 0x20 ADD PUSH32 0x6E756D2069732067726561746572207468616E20313000000000000000000000 DUP2 MSTORE POP PUSH1 0x1 SWAP1 DUP2 PUSH2 0x27A SWAP2 SWAP1 PUSH2 0x698 JUMP JUMPDEST DUP1 SLOAD PUSH2 0x285 SWAP1 PUSH2 0x48C JUMP JUMPDEST DUP1 PUSH1 0x1F ADD PUSH1 0x20 DUP1 SWAP2 DIV MUL PUSH1 0x20 ADD PUSH1 0x40 MLOAD SWAP1 DUP2 ADD PUSH1 0x40 MSTORE DUP1 SWAP3 SWAP2 SWAP1 DUP2 DUP2 MSTORE PUSH1 0x20 ADD DUP3 DUP1 SLOAD PUSH2 0x2B1 SWAP1 PUSH2 0x48C JUMP JUMPDEST DUP1 ISZERO PUSH2 0x2FE JUMPI DUP1 PUSH1 0x1F LT PUSH2 0x2D3 JUMPI PUSH2 0x100 DUP1 DUP4 SLOAD DIV MUL DUP4 MSTORE SWAP2 PUSH1 0x20 ADD SWAP2 PUSH2 0x2FE JUMP JUMPDEST DUP3 ADD SWAP2 SWAP1 PUSH1 0x0 MSTORE PUSH1 0x20 PUSH1 0x0 KECCAK256 SWAP1 JUMPDEST DUP2 SLOAD DUP2 MSTORE SWAP1 PUSH1 0x1 ADD SWAP1 PUSH1 0x20 ADD DUP1 DUP4 GT PUSH2 0x2E1 JUMPI DUP3 SWAP1 SUB PUSH1 0x1F AND DUP3 ADD SWAP2 JUMPDEST POP POP POP POP POP SWAP1 POP JUMPDEST SWAP1 JUMP JUMPDEST PUSH1 0x0 SLOAD DUP2 JUMP JUMPDEST DUP1 PUSH1 0x0 DUP2 SWAP1 SSTORE POP POP JUMP JUMPDEST PUSH1 0x0 DUP2 MLOAD SWAP1 POP SWAP2 SWAP1 POP JUMP JUMPDEST PUSH1 0x0 DUP3 DUP3 MSTORE PUSH1 0x20 DUP3 ADD SWAP1 POP SWAP3 SWAP2 POP POP JUMP JUMPDEST PUSH1 0x0 JUMPDEST DUP4 DUP2 LT ISZERO PUSH2 0x353 JUMPI DUP1 DUP3 ADD MLOAD DUP2 DUP5 ADD MSTORE PUSH1 0x20 DUP2 ADD SWAP1 POP PUSH2 0x338 JUMP JUMPDEST PUSH1 0x0 DUP5 DUP5 ADD MSTORE POP POP POP POP JUMP JUMPDEST PUSH1 0x0 PUSH1 0x1F NOT PUSH1 0x1F DUP4 ADD AND SWAP1 POP SWAP2 SWAP1 POP JUMP JUMPDEST PUSH1 0x0 PUSH2 0x37B DUP3 PUSH2 0x319 JUMP JUMPDEST PUSH2 0x385 DUP2 DUP6 PUSH2 0x324 JUMP JUMPDEST SWAP4 POP PUSH2 0x395 DUP2 DUP6 PUSH1 0x20 DUP7 ADD PUSH2 0x335 JUMP JUMPDEST PUSH2 0x39E DUP2 PUSH2 0x35F JUMP JUMPDEST DUP5 ADD SWAP2 POP POP SWAP3 SWAP2 POP POP JUMP JUMPDEST PUSH1 0x0 PUSH1 0x20 DUP3 ADD SWAP1 POP DUP2 DUP2 SUB PUSH1 0x0 DUP4 ADD MSTORE PUSH2 0x3C3 DUP2 DUP5 PUSH2 0x370 JUMP JUMPDEST SWAP1 POP SWAP3 SWAP2 POP POP JUMP JUMPDEST PUSH1 0x0 DUP2 SWAP1 POP SWAP2 SWAP1 POP JUMP JUMPDEST PUSH2 0x3DE DUP2 PUSH2 0x3CB JUMP JUMPDEST DUP3 MSTORE POP POP JUMP JUMPDEST PUSH1 0x0 PUSH1 0x20 DUP3 ADD SWAP1 POP PUSH2 0x3F9 PUSH1 0x0 DUP4 ADD DUP5 PUSH2 0x3D5 JUMP JUMPDEST SWAP3 SWAP2 POP POP JUMP JUMPDEST PUSH1 0x0 DUP1 REVERT JUMPDEST PUSH2 0x40D DUP2 PUSH2 0x3CB JUMP JUMPDEST DUP2 EQ PUSH2 0x418 JUMPI PUSH1 0x0 DUP1 REVERT JUMPDEST POP JUMP JUMPDEST PUSH1 0x0 DUP2 CALLDATALOAD SWAP1 POP PUSH2 0x42A DUP2 PUSH2 0x404 JUMP JUMPDEST SWAP3 SWAP2 POP POP JUMP JUMPDEST PUSH1 0x0 PUSH1 0x20 DUP3 DUP5 SUB SLT ISZERO PUSH2 0x446 JUMPI PUSH2 0x445 PUSH2 0x3FF JUMP JUMPDEST JUMPDEST PUSH1 0x0 PUSH2 0x454 DUP5 DUP3 DUP6 ADD PUSH2 0x41B JUMP JUMPDEST SWAP2 POP POP SWAP3 SWAP2 POP POP JUMP JUMPDEST PUSH32 0x4E487B7100000000000000000000000000000000000000000000000000000000 PUSH1 0x0 MSTORE PUSH1 0x22 PUSH1 0x4 MSTORE PUSH1 0x24 PUSH1 0x0 REVERT JUMPDEST PUSH1 0x0 PUSH1 0x2 DUP3 DIV SWAP1 POP PUSH1 0x1 DUP3 AND DUP1 PUSH2 0x4A4 JUMPI PUSH1 0x7F DUP3 AND SWAP2 POP JUMPDEST PUSH1 0x20 DUP3 LT DUP2 SUB PUSH2 0x4B7 JUMPI PUSH2 0x4B6 PUSH2 0x45D JUMP JUMPDEST JUMPDEST POP SWAP2 SWAP1 POP JUMP JUMPDEST PUSH32 0x4E487B7100000000000000000000000000000000000000000000000000000000 PUSH1 0x0 MSTORE PUSH1 0x41 PUSH1 0x4 MSTORE PUSH1 0x24 PUSH1 0x0 REVERT JUMPDEST PUSH1 0x0 DUP2 SWAP1 POP DUP2 PUSH1 0x0 MSTORE PUSH1 0x20 PUSH1 0x0 KECCAK256 SWAP1 POP SWAP2 SWAP1 POP JUMP JUMPDEST PUSH1 0x0 PUSH1 0x20 PUSH1 0x1F DUP4 ADD DIV SWAP1 POP SWAP2 SWAP1 POP JUMP JUMPDEST PUSH1 0x0 DUP3 DUP3 SHL SWAP1 POP SWAP3 SWAP2 POP POP JUMP JUMPDEST PUSH1 0x0 PUSH1 0x8 DUP4 MUL PUSH2 0x54E PUSH32 0xFFFFFFFFFFFFFFFFFFFFFFFFFFFFFFFFFFFFFFFFFFFFFFFFFFFFFFFFFFFFFFFF DUP3 PUSH2 0x511 JUMP JUMPDEST PUSH2 0x558 DUP7 DUP4 PUSH2 0x511 JUMP JUMPDEST SWAP6 POP DUP1 NOT DUP5 AND SWAP4 POP DUP1 DUP7 AND DUP5 OR SWAP3 POP POP POP SWAP4 SWAP3 POP POP POP JUMP JUMPDEST PUSH1 0x0 DUP2 SWAP1 POP SWAP2 SWAP1 POP JUMP JUMPDEST PUSH1 0x0 PUSH2 0x595 PUSH2 0x590 PUSH2 0x58B DUP5 PUSH2 0x3CB JUMP JUMPDEST PUSH2 0x570 JUMP JUMPDEST PUSH2 0x3CB JUMP JUMPDEST SWAP1 POP SWAP2 SWAP1 POP JUMP JUMPDEST PUSH1 0x0 DUP2 SWAP1 POP SWAP2 SWAP1 POP JUMP JUMPDEST PUSH2 0x5AF DUP4 PUSH2 0x57A JUMP JUMPDEST PUSH2 0x5C3 PUSH2 0x5BB DUP3 PUSH2 0x59C JUMP JUMPDEST DUP5 DUP5 SLOAD PUSH2 0x51E JUMP JUMPDEST DUP3 SSTORE POP POP POP POP JUMP JUMPDEST PUSH1 0x0 SWAP1 JUMP JUMPDEST PUSH2 0x5D8 PUSH2 0x5CB JUMP JUMPDEST PUSH2 0x5E3 DUP2 DUP5 DUP5 PUSH2 0x5A6 JUMP JUMPDEST POP POP POP JUMP JUMPDEST JUMPDEST DUP2 DUP2 LT ISZERO PUSH2 0x607 JUMPI PUSH2 0x5FC PUSH1 0x0 DUP3 PUSH2 0x5D0 JUMP JUMPDEST PUSH1 0x1 DUP2 ADD SWAP1 POP PUSH2 0x5E9 JUMP JUMPDEST POP POP JUMP JUMPDEST PUSH1 0x1F DUP3 GT ISZERO PUSH2 0x64C JUMPI PUSH2 0x61D DUP2 PUSH2 0x4EC JUMP JUMPDEST PUSH2 0x626 DUP5 PUSH2 0x501 JUMP JUMPDEST DUP2 ADD PUSH1 0x20 DUP6 LT ISZERO PUSH2 0x635 JUMPI DUP2 SWAP1 POP JUMPDEST PUSH2 0x649 PUSH2 0x641 DUP6 PUSH2 0x501 JUMP JUMPDEST DUP4 ADD DUP3 PUSH2 0x5E8 JUMP JUMPDEST POP POP JUMPDEST POP POP POP JUMP JUMPDEST PUSH1 0x0 DUP3 DUP3 SHR SWAP1 POP SWAP3 SWAP2 POP POP JUMP JUMPDEST PUSH1 0x0 PUSH2 0x66F PUSH1 0x0 NOT DUP5 PUSH1 0x8 MUL PUSH2 0x651 JUMP JUMPDEST NOT DUP1 DUP4 AND SWAP2 POP POP SWAP3 SWAP2 POP POP JUMP JUMPDEST PUSH1 0x0 PUSH2 0x688 DUP4 DUP4 PUSH2 0x65E JUMP JUMPDEST SWAP2 POP DUP3 PUSH1 0x2 MUL DUP3 OR SWAP1 POP SWAP3 SWAP2 POP POP JUMP JUMPDEST PUSH2 0x6A1 DUP3 PUSH2 0x319 JUMP JUMPDEST PUSH8 0xFFFFFFFFFFFFFFFF DUP2 GT ISZERO PUSH2 0x6BA JUMPI PUSH2 0x6B9 PUSH2 0x4BD JUMP JUMPDEST JUMPDEST PUSH2 0x6C4 DUP3 SLOAD PUSH2 0x48C JUMP JUMPDEST PUSH2 0x6CF DUP3 DUP3 DUP6 PUSH2 0x60B JUMP JUMPDEST PUSH1 0x0 PUSH1 0x20 SWAP1 POP PUSH1 0x1F DUP4 GT PUSH1 0x1 DUP2 EQ PUSH2 0x702 JUMPI PUSH1 0x0 DUP5 ISZERO PUSH2 0x6F0 JUMPI DUP3 DUP8 ADD MLOAD SWAP1 POP JUMPDEST PUSH2 0x6FA DUP6 DUP3 PUSH2 0x67C JUMP JUMPDEST DUP7 SSTORE POP PUSH2 0x762 JUMP JUMPDEST PUSH1 0x1F NOT DUP5 AND PUSH2 0x710 DUP7 PUSH2 0x4EC JUMP JUMPDEST PUSH1 0x0 JUMPDEST DUP3 DUP2 LT ISZERO PUSH2 0x738 JUMPI DUP5 DUP10 ADD MLOAD DUP3 SSTORE PUSH1 0x1 DUP3 ADD SWAP2 POP PUSH1 0x20 DUP6 ADD SWAP5 POP PUSH1 0x20 DUP2 ADD SWAP1 POP PUSH2 0x713 JUMP JUMPDEST DUP7 DUP4 LT ISZERO PUSH2 0x755 JUMPI DUP5 DUP10 ADD MLOAD PUSH2 0x751 PUSH1 0x1F DUP10 AND DUP3 PUSH2 0x65E JUMP JUMPDEST DUP4 SSTORE POP JUMPDEST PUSH1 0x1 PUSH1 0x2 DUP9 MUL ADD DUP9 SSTORE POP POP POP JUMPDEST POP POP POP POP POP POP JUMP INVALID LOG2 PUSH5 0x6970667358 0x22 SLT KECCAK256 0xAE DUP13 DUP1 LT LOG0 PUSH5 0xA33A287E71 0xE8 CHAINID GT TIMESTAMP 0xFB 0xD3 DUP3 TIMESTAMP 0x4B 0xC4 0x27 0x49 0xAE SAR 0x49 0xCC NOT PUSH30 0xE4954964736F6C6343000812003300000000000000000000000000000000 "
				},
				"gasEstimates": {
					"creation": {
						"codeDepositCost": "390400",
						"executionCost": "424",
						"totalCost": "390824"
					},
					"external": {
						"info()": "infinite",
						"num()": "2451",
						"text()": "infinite",
						"update(uint256)": "22564"
					}
				},
				"methodIdentifiers": {
					"info()": "370158ea",
					"num()": "4e70b1dc",
					"text()": "1f1bd692",
					"update(uint256)": "82ab890a"
				}
			},
			"storageLayout": {
				"storage": [
					{
						"astId": 3,
						"contract": "contracts/ifElse.sol:IfElse",
						"label": "num",
						"offset": 0,
						"slot": "0",
						"type": "t_uint256"
					},
					{
						"astId": 5,
						"contract": "contracts/ifElse.sol:IfElse",
						"label": "text",
						"offset": 0,
						"slot": "1",
						"type": "t_string_storage"
					}
				],
				"types": {
					"t_string_storage": {
						"encoding": "bytes",
						"label": "string",
						"numberOfBytes": "32"
					},
					"t_uint256": {
						"encoding": "inplace",
						"label": "uint256",
						"numberOfBytes": "32"
					}
				}
			},
			"userdoc": {
				"kind": "user",
				"methods": {},
				"version": 1
			}
		}
	}
}