{
	"contracts/Banking.sol": {
		"Banking": {
			"abi": [
				{
					"inputs": [],
					"stateMutability": "nonpayable",
					"type": "constructor"
				},
				{
					"inputs": [
						{
							"internalType": "address",
							"name": "_add",
							"type": "address"
						}
					],
					"name": "createAccount",
					"outputs": [
						{
							"internalType": "string",
							"name": "",
							"type": "string"
						}
					],
					"stateMutability": "nonpayable",
					"type": "function"
				},
				{
					"inputs": [
						{
							"internalType": "uint256",
							"name": "amount",
							"type": "uint256"
						}
					],
					"name": "deposit",
					"outputs": [
						{
							"internalType": "string",
							"name": "",
							"type": "string"
						}
					],
					"stateMutability": "payable",
					"type": "function"
				},
				{
					"inputs": [],
					"name": "owner",
					"outputs": [
						{
							"internalType": "address",
							"name": "",
							"type": "address"
						}
					],
					"stateMutability": "view",
					"type": "function"
				},
				{
					"inputs": [
						{
							"internalType": "address payable",
							"name": "receipent",
							"type": "address"
						},
						{
							"internalType": "uint256",
							"name": "amount",
							"type": "uint256"
						}
					],
					"name": "transfer",
					"outputs": [
						{
							"internalType": "string",
							"name": "",
							"type": "string"
						}
					],
					"stateMutability": "nonpayable",
					"type": "function"
				},
				{
					"inputs": [
						{
							"internalType": "address",
							"name": "_add",
							"type": "address"
						}
					],
					"name": "userAccountBalance",
					"outputs": [
						{
							"internalType": "uint256",
							"name": "",
							"type": "uint256"
						}
					],
					"stateMutability": "view",
					"type": "function"
				},
				{
					"inputs": [
						{
							"internalType": "address",
							"name": "",
							"type": "address"
						}
					],
					"name": "userExist",
					"outputs": [
						{
							"internalType": "bool",
							"name": "",
							"type": "bool"
						}
					],
					"stateMutability": "view",
					"type": "function"
				},
				{
					"inputs": [
						{
							"internalType": "uint256",
							"name": "amount",
							"type": "uint256"
						}
					],
					"name": "withdraw",
					"outputs": [
						{
							"internalType": "string",
							"name": "",
							"type": "string"
						}
					],
					"stateMutability": "payable",
					"type": "function"
				}
			],
			"devdoc": {
				"kind": "dev",
				"methods": {},
				"version": 1
			},
			"evm": {
				"assembly": "    /* \"contracts/Banking.sol\":57:1690  contract Banking{... */\n  mstore(0x40, 0x80)\n    /* \"contracts/Banking.sol\":107:157  constructor(){... */\n  callvalue\n  dup1\n  iszero\n  tag_1\n  jumpi\n  0x00\n  dup1\n  revert\ntag_1:\n  pop\n    /* \"contracts/Banking.sol\":139:149  msg.sender */\n  caller\n    /* \"contracts/Banking.sol\":131:136  owner */\n  0x00\n  dup1\n    /* \"contracts/Banking.sol\":131:149  owner = msg.sender */\n  0x0100\n  exp\n  dup2\n  sload\n  dup2\n  0xffffffffffffffffffffffffffffffffffffffff\n  mul\n  not\n  and\n  swap1\n  dup4\n  0xffffffffffffffffffffffffffffffffffffffff\n  and\n  mul\n  or\n  swap1\n  sstore\n  pop\n    /* \"contracts/Banking.sol\":57:1690  contract Banking{... */\n  dataSize(sub_0)\n  dup1\n  dataOffset(sub_0)\n  0x00\n  codecopy\n  0x00\n  return\nstop\n\nsub_0: assembly {\n        /* \"contracts/Banking.sol\":57:1690  contract Banking{... */\n      mstore(0x40, 0x80)\n      jumpi(tag_1, lt(calldatasize, 0x04))\n      shr(0xe0, calldataload(0x00))\n      dup1\n      0xa9059cbb\n      gt\n      tag_9\n      jumpi\n      dup1\n      0xa9059cbb\n      eq\n      tag_5\n      jumpi\n      dup1\n      0xab7e7cf6\n      eq\n      tag_6\n      jumpi\n      dup1\n      0xb5815d13\n      eq\n      tag_7\n      jumpi\n      dup1\n      0xb6b55f25\n      eq\n      tag_8\n      jumpi\n      jump(tag_1)\n    tag_9:\n      dup1\n      0x2e1a7d4d\n      eq\n      tag_2\n      jumpi\n      dup1\n      0x8da5cb5b\n      eq\n      tag_3\n      jumpi\n      dup1\n      0x9859387b\n      eq\n      tag_4\n      jumpi\n    tag_1:\n      0x00\n      dup1\n      revert\n        /* \"contracts/Banking.sol\":818:1123  function withdraw(uint amount) public payable returns(string memory){... */\n    tag_2:\n      tag_10\n      0x04\n      dup1\n      calldatasize\n      sub\n      dup2\n      add\n      swap1\n      tag_11\n      swap2\n      swap1\n      tag_12\n      jump\t// in\n    tag_11:\n      tag_13\n      jump\t// in\n    tag_10:\n      mload(0x40)\n      tag_14\n      swap2\n      swap1\n      tag_15\n      jump\t// in\n    tag_14:\n      mload(0x40)\n      dup1\n      swap2\n      sub\n      swap1\n      return\n        /* \"contracts/Banking.sol\":80:100  address public owner */\n    tag_3:\n      callvalue\n      dup1\n      iszero\n      tag_16\n      jumpi\n      0x00\n      dup1\n      revert\n    tag_16:\n      pop\n      tag_17\n      tag_18\n      jump\t// in\n    tag_17:\n      mload(0x40)\n      tag_19\n      swap2\n      swap1\n      tag_20\n      jump\t// in\n    tag_19:\n      mload(0x40)\n      dup1\n      swap2\n      sub\n      swap1\n      return\n        /* \"contracts/Banking.sol\":254:512  function createAccount(address _add) public returns(string memory){... */\n    tag_4:\n      callvalue\n      dup1\n      iszero\n      tag_21\n      jumpi\n      0x00\n      dup1\n      revert\n    tag_21:\n      pop\n      tag_22\n      0x04\n      dup1\n      calldatasize\n      sub\n      dup2\n      add\n      swap1\n      tag_23\n      swap2\n      swap1\n      tag_24\n      jump\t// in\n    tag_23:\n      tag_25\n      jump\t// in\n    tag_22:\n      mload(0x40)\n      tag_26\n      swap2\n      swap1\n      tag_15\n      jump\t// in\n    tag_26:\n      mload(0x40)\n      dup1\n      swap2\n      sub\n      swap1\n      return\n        /* \"contracts/Banking.sol\":1129:1569  function transfer(address payable receipent,uint amount) public returns(string memory){... */\n    tag_5:\n      callvalue\n      dup1\n      iszero\n      tag_27\n      jumpi\n      0x00\n      dup1\n      revert\n    tag_27:\n      pop\n      tag_28\n      0x04\n      dup1\n      calldatasize\n      sub\n      dup2\n      add\n      swap1\n      tag_29\n      swap2\n      swap1\n      tag_30\n      jump\t// in\n    tag_29:\n      tag_31\n      jump\t// in\n    tag_28:\n      mload(0x40)\n      tag_32\n      swap2\n      swap1\n      tag_15\n      jump\t// in\n    tag_32:\n      mload(0x40)\n      dup1\n      swap2\n      sub\n      swap1\n      return\n        /* \"contracts/Banking.sol\":206:247  mapping(address => bool) public userExist */\n    tag_6:\n      callvalue\n      dup1\n      iszero\n      tag_33\n      jumpi\n      0x00\n      dup1\n      revert\n    tag_33:\n      pop\n      tag_34\n      0x04\n      dup1\n      calldatasize\n      sub\n      dup2\n      add\n      swap1\n      tag_35\n      swap2\n      swap1\n      tag_24\n      jump\t// in\n    tag_35:\n      tag_36\n      jump\t// in\n    tag_34:\n      mload(0x40)\n      tag_37\n      swap2\n      swap1\n      tag_38\n      jump\t// in\n    tag_37:\n      mload(0x40)\n      dup1\n      swap2\n      sub\n      swap1\n      return\n        /* \"contracts/Banking.sol\":1575:1685  function userAccountBalance(address _add) public view returns(uint){... */\n    tag_7:\n      callvalue\n      dup1\n      iszero\n      tag_39\n      jumpi\n      0x00\n      dup1\n      revert\n    tag_39:\n      pop\n      tag_40\n      0x04\n      dup1\n      calldatasize\n      sub\n      dup2\n      add\n      swap1\n      tag_41\n      swap2\n      swap1\n      tag_24\n      jump\t// in\n    tag_41:\n      tag_42\n      jump\t// in\n    tag_40:\n      mload(0x40)\n      tag_43\n      swap2\n      swap1\n      tag_44\n      jump\t// in\n    tag_43:\n      mload(0x40)\n      dup1\n      swap2\n      sub\n      swap1\n      return\n        /* \"contracts/Banking.sol\":518:812  function deposit(uint amount) public payable returns(string memory){... */\n    tag_8:\n      tag_45\n      0x04\n      dup1\n      calldatasize\n      sub\n      dup2\n      add\n      swap1\n      tag_46\n      swap2\n      swap1\n      tag_12\n      jump\t// in\n    tag_46:\n      tag_47\n      jump\t// in\n    tag_45:\n      mload(0x40)\n      tag_48\n      swap2\n      swap1\n      tag_15\n      jump\t// in\n    tag_48:\n      mload(0x40)\n      dup1\n      swap2\n      sub\n      swap1\n      return\n        /* \"contracts/Banking.sol\":818:1123  function withdraw(uint amount) public payable returns(string memory){... */\n    tag_13:\n        /* \"contracts/Banking.sol\":872:885  string memory */\n      0x60\n        /* \"contracts/Banking.sol\":930:934  true */\n      0x01\n        /* \"contracts/Banking.sol\":905:934  userExist[msg.sender] == true */\n      iszero\n      iszero\n        /* \"contracts/Banking.sol\":905:914  userExist */\n      0x02\n        /* \"contracts/Banking.sol\":905:926  userExist[msg.sender] */\n      0x00\n        /* \"contracts/Banking.sol\":915:925  msg.sender */\n      caller\n        /* \"contracts/Banking.sol\":905:926  userExist[msg.sender] */\n      0xffffffffffffffffffffffffffffffffffffffff\n      and\n      0xffffffffffffffffffffffffffffffffffffffff\n      and\n      dup2\n      mstore\n      0x20\n      add\n      swap1\n      dup2\n      mstore\n      0x20\n      add\n      0x00\n      keccak256\n      0x00\n      swap1\n      sload\n      swap1\n      0x0100\n      exp\n      swap1\n      div\n      0xff\n      and\n        /* \"contracts/Banking.sol\":905:934  userExist[msg.sender] == true */\n      iszero\n      iszero\n      eq\n        /* \"contracts/Banking.sol\":897:958  require(userExist[msg.sender] == true, \"Account not created\") */\n      tag_50\n      jumpi\n      mload(0x40)\n      0x08c379a000000000000000000000000000000000000000000000000000000000\n      dup2\n      mstore\n      0x04\n      add\n      tag_51\n      swap1\n      tag_52\n      jump\t// in\n    tag_51:\n      mload(0x40)\n      dup1\n      swap2\n      sub\n      swap1\n      revert\n    tag_50:\n        /* \"contracts/Banking.sol\":1004:1010  amount */\n      dup2\n        /* \"contracts/Banking.sol\":977:988  userAccount */\n      0x01\n        /* \"contracts/Banking.sol\":977:1000  userAccount[msg.sender] */\n      0x00\n        /* \"contracts/Banking.sol\":989:999  msg.sender */\n      caller\n        /* \"contracts/Banking.sol\":977:1000  userAccount[msg.sender] */\n      0xffffffffffffffffffffffffffffffffffffffff\n      and\n      0xffffffffffffffffffffffffffffffffffffffff\n      and\n      dup2\n      mstore\n      0x20\n      add\n      swap1\n      dup2\n      mstore\n      0x20\n      add\n      0x00\n      keccak256\n      sload\n        /* \"contracts/Banking.sol\":977:1010  userAccount[msg.sender] >= amount */\n      lt\n      iszero\n        /* \"contracts/Banking.sol\":969:1033  require(userAccount[msg.sender] >= amount, \"Insufficient Funds\") */\n      tag_53\n      jumpi\n      mload(0x40)\n      0x08c379a000000000000000000000000000000000000000000000000000000000\n      dup2\n      mstore\n      0x04\n      add\n      tag_54\n      swap1\n      tag_55\n      jump\t// in\n    tag_54:\n      mload(0x40)\n      dup1\n      swap2\n      sub\n      swap1\n      revert\n    tag_53:\n        /* \"contracts/Banking.sol\":1070:1076  amount */\n      dup2\n        /* \"contracts/Banking.sol\":1044:1055  userAccount */\n      0x01\n        /* \"contracts/Banking.sol\":1044:1067  userAccount[msg.sender] */\n      0x00\n        /* \"contracts/Banking.sol\":1056:1066  msg.sender */\n      caller\n        /* \"contracts/Banking.sol\":1044:1067  userAccount[msg.sender] */\n      0xffffffffffffffffffffffffffffffffffffffff\n      and\n      0xffffffffffffffffffffffffffffffffffffffff\n      and\n      dup2\n      mstore\n      0x20\n      add\n      swap1\n      dup2\n      mstore\n      0x20\n      add\n      0x00\n      keccak256\n      0x00\n        /* \"contracts/Banking.sol\":1044:1076  userAccount[msg.sender]-= amount */\n      dup3\n      dup3\n      sload\n      tag_56\n      swap2\n      swap1\n      tag_57\n      jump\t// in\n    tag_56:\n      swap3\n      pop\n      pop\n      dup2\n      swap1\n      sstore\n      pop\n        /* \"contracts/Banking.sol\":1087:1115  return \"Withdraw successful\" */\n      mload(0x40)\n      dup1\n      0x40\n      add\n      0x40\n      mstore\n      dup1\n      0x13\n      dup2\n      mstore\n      0x20\n      add\n      0x5769746864726177207375636365737366756c00000000000000000000000000\n      dup2\n      mstore\n      pop\n      swap1\n      pop\n        /* \"contracts/Banking.sol\":818:1123  function withdraw(uint amount) public payable returns(string memory){... */\n      swap2\n      swap1\n      pop\n      jump\t// out\n        /* \"contracts/Banking.sol\":80:100  address public owner */\n    tag_18:\n      0x00\n      dup1\n      sload\n      swap1\n      0x0100\n      exp\n      swap1\n      div\n      0xffffffffffffffffffffffffffffffffffffffff\n      and\n      dup2\n      jump\t// out\n        /* \"contracts/Banking.sol\":254:512  function createAccount(address _add) public returns(string memory){... */\n    tag_25:\n        /* \"contracts/Banking.sol\":306:319  string memory */\n      0x60\n        /* \"contracts/Banking.sol\":358:363  false */\n      0x00\n        /* \"contracts/Banking.sol\":339:363  userExist[_add] == false */\n      iszero\n      iszero\n        /* \"contracts/Banking.sol\":339:348  userExist */\n      0x02\n        /* \"contracts/Banking.sol\":339:354  userExist[_add] */\n      0x00\n        /* \"contracts/Banking.sol\":349:353  _add */\n      dup5\n        /* \"contracts/Banking.sol\":339:354  userExist[_add] */\n      0xffffffffffffffffffffffffffffffffffffffff\n      and\n      0xffffffffffffffffffffffffffffffffffffffff\n      and\n      dup2\n      mstore\n      0x20\n      add\n      swap1\n      dup2\n      mstore\n      0x20\n      add\n      0x00\n      keccak256\n      0x00\n      swap1\n      sload\n      swap1\n      0x0100\n      exp\n      swap1\n      div\n      0xff\n      and\n        /* \"contracts/Banking.sol\":339:363  userExist[_add] == false */\n      iszero\n      iszero\n      eq\n        /* \"contracts/Banking.sol\":331:391  require(userExist[_add] == false, \"Account already created\") */\n      tag_59\n      jumpi\n      mload(0x40)\n      0x08c379a000000000000000000000000000000000000000000000000000000000\n      dup2\n      mstore\n      0x04\n      add\n      tag_60\n      swap1\n      tag_61\n      jump\t// in\n    tag_60:\n      mload(0x40)\n      dup1\n      swap2\n      sub\n      swap1\n      revert\n    tag_59:\n        /* \"contracts/Banking.sol\":422:423  0 */\n      0x00\n        /* \"contracts/Banking.sol\":402:413  userAccount */\n      0x01\n        /* \"contracts/Banking.sol\":402:419  userAccount[_add] */\n      0x00\n        /* \"contracts/Banking.sol\":414:418  _add */\n      dup5\n        /* \"contracts/Banking.sol\":402:419  userAccount[_add] */\n      0xffffffffffffffffffffffffffffffffffffffff\n      and\n      0xffffffffffffffffffffffffffffffffffffffff\n      and\n      dup2\n      mstore\n      0x20\n      add\n      swap1\n      dup2\n      mstore\n      0x20\n      add\n      0x00\n      keccak256\n        /* \"contracts/Banking.sol\":402:423  userAccount[_add] = 0 */\n      dup2\n      swap1\n      sstore\n      pop\n        /* \"contracts/Banking.sol\":452:456  true */\n      0x01\n        /* \"contracts/Banking.sol\":434:443  userExist */\n      0x02\n        /* \"contracts/Banking.sol\":434:449  userExist[_add] */\n      0x00\n        /* \"contracts/Banking.sol\":444:448  _add */\n      dup5\n        /* \"contracts/Banking.sol\":434:449  userExist[_add] */\n      0xffffffffffffffffffffffffffffffffffffffff\n      and\n      0xffffffffffffffffffffffffffffffffffffffff\n      and\n      dup2\n      mstore\n      0x20\n      add\n      swap1\n      dup2\n      mstore\n      0x20\n      add\n      0x00\n      keccak256\n      0x00\n        /* \"contracts/Banking.sol\":434:456  userExist[_add] = true */\n      0x0100\n      exp\n      dup2\n      sload\n      dup2\n      0xff\n      mul\n      not\n      and\n      swap1\n      dup4\n      iszero\n      iszero\n      mul\n      or\n      swap1\n      sstore\n      pop\n        /* \"contracts/Banking.sol\":467:504  return \"Account Created Successfully\" */\n      mload(0x40)\n      dup1\n      0x40\n      add\n      0x40\n      mstore\n      dup1\n      0x1c\n      dup2\n      mstore\n      0x20\n      add\n      0x4163636f756e742043726561746564205375636365737366756c6c7900000000\n      dup2\n      mstore\n      pop\n      swap1\n      pop\n        /* \"contracts/Banking.sol\":254:512  function createAccount(address _add) public returns(string memory){... */\n      swap2\n      swap1\n      pop\n      jump\t// out\n        /* \"contracts/Banking.sol\":1129:1569  function transfer(address payable receipent,uint amount) public returns(string memory){... */\n    tag_31:\n        /* \"contracts/Banking.sol\":1201:1214  string memory */\n      0x60\n        /* \"contracts/Banking.sol\":1259:1263  true */\n      0x01\n        /* \"contracts/Banking.sol\":1234:1263  userExist[msg.sender] == true */\n      iszero\n      iszero\n        /* \"contracts/Banking.sol\":1234:1243  userExist */\n      0x02\n        /* \"contracts/Banking.sol\":1234:1255  userExist[msg.sender] */\n      0x00\n        /* \"contracts/Banking.sol\":1244:1254  msg.sender */\n      caller\n        /* \"contracts/Banking.sol\":1234:1255  userExist[msg.sender] */\n      0xffffffffffffffffffffffffffffffffffffffff\n      and\n      0xffffffffffffffffffffffffffffffffffffffff\n      and\n      dup2\n      mstore\n      0x20\n      add\n      swap1\n      dup2\n      mstore\n      0x20\n      add\n      0x00\n      keccak256\n      0x00\n      swap1\n      sload\n      swap1\n      0x0100\n      exp\n      swap1\n      div\n      0xff\n      and\n        /* \"contracts/Banking.sol\":1234:1263  userExist[msg.sender] == true */\n      iszero\n      iszero\n      eq\n        /* \"contracts/Banking.sol\":1226:1287  require(userExist[msg.sender] == true, \"Account not created\") */\n      tag_63\n      jumpi\n      mload(0x40)\n      0x08c379a000000000000000000000000000000000000000000000000000000000\n      dup2\n      mstore\n      0x04\n      add\n      tag_64\n      swap1\n      tag_52\n      jump\t// in\n    tag_64:\n      mload(0x40)\n      dup1\n      swap2\n      sub\n      swap1\n      revert\n    tag_63:\n        /* \"contracts/Banking.sol\":1330:1334  true */\n      0x01\n        /* \"contracts/Banking.sol\":1306:1334  userExist[receipent] == true */\n      iszero\n      iszero\n        /* \"contracts/Banking.sol\":1306:1315  userExist */\n      0x02\n        /* \"contracts/Banking.sol\":1306:1326  userExist[receipent] */\n      0x00\n        /* \"contracts/Banking.sol\":1316:1325  receipent */\n      dup6\n        /* \"contracts/Banking.sol\":1306:1326  userExist[receipent] */\n      0xffffffffffffffffffffffffffffffffffffffff\n      and\n      0xffffffffffffffffffffffffffffffffffffffff\n      and\n      dup2\n      mstore\n      0x20\n      add\n      swap1\n      dup2\n      mstore\n      0x20\n      add\n      0x00\n      keccak256\n      0x00\n      swap1\n      sload\n      swap1\n      0x0100\n      exp\n      swap1\n      div\n      0xff\n      and\n        /* \"contracts/Banking.sol\":1306:1334  userExist[receipent] == true */\n      iszero\n      iszero\n      eq\n        /* \"contracts/Banking.sol\":1298:1358  require(userExist[receipent] == true, \"Account not created\") */\n      tag_65\n      jumpi\n      mload(0x40)\n      0x08c379a000000000000000000000000000000000000000000000000000000000\n      dup2\n      mstore\n      0x04\n      add\n      tag_66\n      swap1\n      tag_52\n      jump\t// in\n    tag_66:\n      mload(0x40)\n      dup1\n      swap2\n      sub\n      swap1\n      revert\n    tag_65:\n        /* \"contracts/Banking.sol\":1403:1409  amount */\n      dup2\n        /* \"contracts/Banking.sol\":1377:1388  userAccount */\n      0x01\n        /* \"contracts/Banking.sol\":1377:1400  userAccount[msg.sender] */\n      0x00\n        /* \"contracts/Banking.sol\":1389:1399  msg.sender */\n      caller\n        /* \"contracts/Banking.sol\":1377:1400  userAccount[msg.sender] */\n      0xffffffffffffffffffffffffffffffffffffffff\n      and\n      0xffffffffffffffffffffffffffffffffffffffff\n      and\n      dup2\n      mstore\n      0x20\n      add\n      swap1\n      dup2\n      mstore\n      0x20\n      add\n      0x00\n      keccak256\n      sload\n        /* \"contracts/Banking.sol\":1377:1409  userAccount[msg.sender] > amount */\n      gt\n        /* \"contracts/Banking.sol\":1369:1433  require(userAccount[msg.sender] > amount,\"Insufficient Balance\") */\n      tag_67\n      jumpi\n      mload(0x40)\n      0x08c379a000000000000000000000000000000000000000000000000000000000\n      dup2\n      mstore\n      0x04\n      add\n      tag_68\n      swap1\n      tag_69\n      jump\t// in\n    tag_68:\n      mload(0x40)\n      dup1\n      swap2\n      sub\n      swap1\n      revert\n    tag_67:\n        /* \"contracts/Banking.sol\":1470:1476  amount */\n      dup2\n        /* \"contracts/Banking.sol\":1444:1455  userAccount */\n      0x01\n        /* \"contracts/Banking.sol\":1444:1467  userAccount[msg.sender] */\n      0x00\n        /* \"contracts/Banking.sol\":1456:1466  msg.sender */\n      caller\n        /* \"contracts/Banking.sol\":1444:1467  userAccount[msg.sender] */\n      0xffffffffffffffffffffffffffffffffffffffff\n      and\n      0xffffffffffffffffffffffffffffffffffffffff\n      and\n      dup2\n      mstore\n      0x20\n      add\n      swap1\n      dup2\n      mstore\n      0x20\n      add\n      0x00\n      keccak256\n      0x00\n        /* \"contracts/Banking.sol\":1444:1476  userAccount[msg.sender]-= amount */\n      dup3\n      dup3\n      sload\n      tag_70\n      swap2\n      swap1\n      tag_57\n      jump\t// in\n    tag_70:\n      swap3\n      pop\n      pop\n      dup2\n      swap1\n      sstore\n      pop\n        /* \"contracts/Banking.sol\":1512:1518  amount */\n      dup2\n        /* \"contracts/Banking.sol\":1487:1498  userAccount */\n      0x01\n        /* \"contracts/Banking.sol\":1487:1509  userAccount[receipent] */\n      0x00\n        /* \"contracts/Banking.sol\":1499:1508  receipent */\n      dup6\n        /* \"contracts/Banking.sol\":1487:1509  userAccount[receipent] */\n      0xffffffffffffffffffffffffffffffffffffffff\n      and\n      0xffffffffffffffffffffffffffffffffffffffff\n      and\n      dup2\n      mstore\n      0x20\n      add\n      swap1\n      dup2\n      mstore\n      0x20\n      add\n      0x00\n      keccak256\n      0x00\n        /* \"contracts/Banking.sol\":1487:1518  userAccount[receipent]+= amount */\n      dup3\n      dup3\n      sload\n      tag_71\n      swap2\n      swap1\n      tag_72\n      jump\t// in\n    tag_71:\n      swap3\n      pop\n      pop\n      dup2\n      swap1\n      sstore\n      pop\n        /* \"contracts/Banking.sol\":1529:1561  return \"Transfered Successfully\" */\n      mload(0x40)\n      dup1\n      0x40\n      add\n      0x40\n      mstore\n      dup1\n      0x17\n      dup2\n      mstore\n      0x20\n      add\n      0x5472616e736665726564205375636365737366756c6c79000000000000000000\n      dup2\n      mstore\n      pop\n      swap1\n      pop\n        /* \"contracts/Banking.sol\":1129:1569  function transfer(address payable receipent,uint amount) public returns(string memory){... */\n      swap3\n      swap2\n      pop\n      pop\n      jump\t// out\n        /* \"contracts/Banking.sol\":206:247  mapping(address => bool) public userExist */\n    tag_36:\n      mstore(0x20, 0x02)\n      dup1\n      0x00\n      mstore\n      keccak256(0x00, 0x40)\n      0x00\n      swap2\n      pop\n      sload\n      swap1\n      0x0100\n      exp\n      swap1\n      div\n      0xff\n      and\n      dup2\n      jump\t// out\n        /* \"contracts/Banking.sol\":1575:1685  function userAccountBalance(address _add) public view returns(uint){... */\n    tag_42:\n        /* \"contracts/Banking.sol\":1637:1641  uint */\n      0x00\n        /* \"contracts/Banking.sol\":1660:1671  userAccount */\n      0x01\n        /* \"contracts/Banking.sol\":1660:1677  userAccount[_add] */\n      0x00\n        /* \"contracts/Banking.sol\":1672:1676  _add */\n      dup4\n        /* \"contracts/Banking.sol\":1660:1677  userAccount[_add] */\n      0xffffffffffffffffffffffffffffffffffffffff\n      and\n      0xffffffffffffffffffffffffffffffffffffffff\n      and\n      dup2\n      mstore\n      0x20\n      add\n      swap1\n      dup2\n      mstore\n      0x20\n      add\n      0x00\n      keccak256\n      sload\n        /* \"contracts/Banking.sol\":1653:1677  return userAccount[_add] */\n      swap1\n      pop\n        /* \"contracts/Banking.sol\":1575:1685  function userAccountBalance(address _add) public view returns(uint){... */\n      swap2\n      swap1\n      pop\n      jump\t// out\n        /* \"contracts/Banking.sol\":518:812  function deposit(uint amount) public payable returns(string memory){... */\n    tag_47:\n        /* \"contracts/Banking.sol\":571:584  string memory */\n      0x60\n        /* \"contracts/Banking.sol\":628:632  true */\n      0x01\n        /* \"contracts/Banking.sol\":603:632  userExist[msg.sender] == true */\n      iszero\n      iszero\n        /* \"contracts/Banking.sol\":603:612  userExist */\n      0x02\n        /* \"contracts/Banking.sol\":603:624  userExist[msg.sender] */\n      0x00\n        /* \"contracts/Banking.sol\":613:623  msg.sender */\n      caller\n        /* \"contracts/Banking.sol\":603:624  userExist[msg.sender] */\n      0xffffffffffffffffffffffffffffffffffffffff\n      and\n      0xffffffffffffffffffffffffffffffffffffffff\n      and\n      dup2\n      mstore\n      0x20\n      add\n      swap1\n      dup2\n      mstore\n      0x20\n      add\n      0x00\n      keccak256\n      0x00\n      swap1\n      sload\n      swap1\n      0x0100\n      exp\n      swap1\n      div\n      0xff\n      and\n        /* \"contracts/Banking.sol\":603:632  userExist[msg.sender] == true */\n      iszero\n      iszero\n      eq\n        /* \"contracts/Banking.sol\":595:656  require(userExist[msg.sender] == true, \"Account not created\") */\n      tag_75\n      jumpi\n      mload(0x40)\n      0x08c379a000000000000000000000000000000000000000000000000000000000\n      dup2\n      mstore\n      0x04\n      add\n      tag_76\n      swap1\n      tag_52\n      jump\t// in\n    tag_76:\n      mload(0x40)\n      dup1\n      swap2\n      sub\n      swap1\n      revert\n    tag_75:\n        /* \"contracts/Banking.sol\":683:684  0 */\n      0x00\n        /* \"contracts/Banking.sol\":674:680  amount */\n      dup3\n        /* \"contracts/Banking.sol\":674:684  amount > 0 */\n      gt\n        /* \"contracts/Banking.sol\":666:714  require(amount > 0 ,\"Amount depositing is Zero\") */\n      tag_77\n      jumpi\n      mload(0x40)\n      0x08c379a000000000000000000000000000000000000000000000000000000000\n      dup2\n      mstore\n      0x04\n      add\n      tag_78\n      swap1\n      tag_79\n      jump\t// in\n    tag_78:\n      mload(0x40)\n      dup1\n      swap2\n      sub\n      swap1\n      revert\n    tag_77:\n        /* \"contracts/Banking.sol\":750:756  amount */\n      dup2\n        /* \"contracts/Banking.sol\":724:735  userAccount */\n      0x01\n        /* \"contracts/Banking.sol\":724:747  userAccount[msg.sender] */\n      0x00\n        /* \"contracts/Banking.sol\":736:746  msg.sender */\n      caller\n        /* \"contracts/Banking.sol\":724:747  userAccount[msg.sender] */\n      0xffffffffffffffffffffffffffffffffffffffff\n      and\n      0xffffffffffffffffffffffffffffffffffffffff\n      and\n      dup2\n      mstore\n      0x20\n      add\n      swap1\n      dup2\n      mstore\n      0x20\n      add\n      0x00\n      keccak256\n      0x00\n        /* \"contracts/Banking.sol\":724:756  userAccount[msg.sender]+= amount */\n      dup3\n      dup3\n      sload\n      tag_80\n      swap2\n      swap1\n      tag_72\n      jump\t// in\n    tag_80:\n      swap3\n      pop\n      pop\n      dup2\n      swap1\n      sstore\n      pop\n        /* \"contracts/Banking.sol\":766:804  return \"Amount Deposited Successfully\" */\n      mload(0x40)\n      dup1\n      0x40\n      add\n      0x40\n      mstore\n      dup1\n      0x1d\n      dup2\n      mstore\n      0x20\n      add\n      0x416d6f756e74204465706f7369746564205375636365737366756c6c79000000\n      dup2\n      mstore\n      pop\n      swap1\n      pop\n        /* \"contracts/Banking.sol\":518:812  function deposit(uint amount) public payable returns(string memory){... */\n      swap2\n      swap1\n      pop\n      jump\t// out\n        /* \"#utility.yul\":88:205   */\n    tag_82:\n        /* \"#utility.yul\":197:198   */\n      0x00\n        /* \"#utility.yul\":194:195   */\n      dup1\n        /* \"#utility.yul\":187:199   */\n      revert\n        /* \"#utility.yul\":334:411   */\n    tag_84:\n        /* \"#utility.yul\":371:378   */\n      0x00\n        /* \"#utility.yul\":400:405   */\n      dup2\n        /* \"#utility.yul\":389:405   */\n      swap1\n      pop\n        /* \"#utility.yul\":334:411   */\n      swap2\n      swap1\n      pop\n      jump\t// out\n        /* \"#utility.yul\":417:539   */\n    tag_85:\n        /* \"#utility.yul\":490:514   */\n      tag_120\n        /* \"#utility.yul\":508:513   */\n      dup2\n        /* \"#utility.yul\":490:514   */\n      tag_84\n      jump\t// in\n    tag_120:\n        /* \"#utility.yul\":483:488   */\n      dup2\n        /* \"#utility.yul\":480:515   */\n      eq\n        /* \"#utility.yul\":470:533   */\n      tag_121\n      jumpi\n        /* \"#utility.yul\":529:530   */\n      0x00\n        /* \"#utility.yul\":526:527   */\n      dup1\n        /* \"#utility.yul\":519:531   */\n      revert\n        /* \"#utility.yul\":470:533   */\n    tag_121:\n        /* \"#utility.yul\":417:539   */\n      pop\n      jump\t// out\n        /* \"#utility.yul\":545:684   */\n    tag_86:\n        /* \"#utility.yul\":591:596   */\n      0x00\n        /* \"#utility.yul\":629:635   */\n      dup2\n        /* \"#utility.yul\":616:636   */\n      calldataload\n        /* \"#utility.yul\":607:636   */\n      swap1\n      pop\n        /* \"#utility.yul\":645:678   */\n      tag_123\n        /* \"#utility.yul\":672:677   */\n      dup2\n        /* \"#utility.yul\":645:678   */\n      tag_85\n      jump\t// in\n    tag_123:\n        /* \"#utility.yul\":545:684   */\n      swap3\n      swap2\n      pop\n      pop\n      jump\t// out\n        /* \"#utility.yul\":690:1019   */\n    tag_12:\n        /* \"#utility.yul\":749:755   */\n      0x00\n        /* \"#utility.yul\":798:800   */\n      0x20\n        /* \"#utility.yul\":786:795   */\n      dup3\n        /* \"#utility.yul\":777:784   */\n      dup5\n        /* \"#utility.yul\":773:796   */\n      sub\n        /* \"#utility.yul\":769:801   */\n      slt\n        /* \"#utility.yul\":766:885   */\n      iszero\n      tag_125\n      jumpi\n        /* \"#utility.yul\":804:883   */\n      tag_126\n      tag_82\n      jump\t// in\n    tag_126:\n        /* \"#utility.yul\":766:885   */\n    tag_125:\n        /* \"#utility.yul\":924:925   */\n      0x00\n        /* \"#utility.yul\":949:1002   */\n      tag_127\n        /* \"#utility.yul\":994:1001   */\n      dup5\n        /* \"#utility.yul\":985:991   */\n      dup3\n        /* \"#utility.yul\":974:983   */\n      dup6\n        /* \"#utility.yul\":970:992   */\n      add\n        /* \"#utility.yul\":949:1002   */\n      tag_86\n      jump\t// in\n    tag_127:\n        /* \"#utility.yul\":939:1002   */\n      swap2\n      pop\n        /* \"#utility.yul\":895:1012   */\n      pop\n        /* \"#utility.yul\":690:1019   */\n      swap3\n      swap2\n      pop\n      pop\n      jump\t// out\n        /* \"#utility.yul\":1025:1124   */\n    tag_87:\n        /* \"#utility.yul\":1077:1083   */\n      0x00\n        /* \"#utility.yul\":1111:1116   */\n      dup2\n        /* \"#utility.yul\":1105:1117   */\n      mload\n        /* \"#utility.yul\":1095:1117   */\n      swap1\n      pop\n        /* \"#utility.yul\":1025:1124   */\n      swap2\n      swap1\n      pop\n      jump\t// out\n        /* \"#utility.yul\":1130:1299   */\n    tag_88:\n        /* \"#utility.yul\":1214:1225   */\n      0x00\n        /* \"#utility.yul\":1248:1254   */\n      dup3\n        /* \"#utility.yul\":1243:1246   */\n      dup3\n        /* \"#utility.yul\":1236:1255   */\n      mstore\n        /* \"#utility.yul\":1288:1292   */\n      0x20\n        /* \"#utility.yul\":1283:1286   */\n      dup3\n        /* \"#utility.yul\":1279:1293   */\n      add\n        /* \"#utility.yul\":1264:1293   */\n      swap1\n      pop\n        /* \"#utility.yul\":1130:1299   */\n      swap3\n      swap2\n      pop\n      pop\n      jump\t// out\n        /* \"#utility.yul\":1305:1551   */\n    tag_89:\n        /* \"#utility.yul\":1386:1387   */\n      0x00\n        /* \"#utility.yul\":1396:1509   */\n    tag_131:\n        /* \"#utility.yul\":1410:1416   */\n      dup4\n        /* \"#utility.yul\":1407:1408   */\n      dup2\n        /* \"#utility.yul\":1404:1417   */\n      lt\n        /* \"#utility.yul\":1396:1509   */\n      iszero\n      tag_133\n      jumpi\n        /* \"#utility.yul\":1495:1496   */\n      dup1\n        /* \"#utility.yul\":1490:1493   */\n      dup3\n        /* \"#utility.yul\":1486:1497   */\n      add\n        /* \"#utility.yul\":1480:1498   */\n      mload\n        /* \"#utility.yul\":1476:1477   */\n      dup2\n        /* \"#utility.yul\":1471:1474   */\n      dup5\n        /* \"#utility.yul\":1467:1478   */\n      add\n        /* \"#utility.yul\":1460:1499   */\n      mstore\n        /* \"#utility.yul\":1432:1434   */\n      0x20\n        /* \"#utility.yul\":1429:1430   */\n      dup2\n        /* \"#utility.yul\":1425:1435   */\n      add\n        /* \"#utility.yul\":1420:1435   */\n      swap1\n      pop\n        /* \"#utility.yul\":1396:1509   */\n      jump(tag_131)\n    tag_133:\n        /* \"#utility.yul\":1543:1544   */\n      0x00\n        /* \"#utility.yul\":1534:1540   */\n      dup5\n        /* \"#utility.yul\":1529:1532   */\n      dup5\n        /* \"#utility.yul\":1525:1541   */\n      add\n        /* \"#utility.yul\":1518:1545   */\n      mstore\n        /* \"#utility.yul\":1367:1551   */\n      pop\n        /* \"#utility.yul\":1305:1551   */\n      pop\n      pop\n      pop\n      jump\t// out\n        /* \"#utility.yul\":1557:1659   */\n    tag_90:\n        /* \"#utility.yul\":1598:1604   */\n      0x00\n        /* \"#utility.yul\":1649:1651   */\n      0x1f\n        /* \"#utility.yul\":1645:1652   */\n      not\n        /* \"#utility.yul\":1640:1642   */\n      0x1f\n        /* \"#utility.yul\":1633:1638   */\n      dup4\n        /* \"#utility.yul\":1629:1643   */\n      add\n        /* \"#utility.yul\":1625:1653   */\n      and\n        /* \"#utility.yul\":1615:1653   */\n      swap1\n      pop\n        /* \"#utility.yul\":1557:1659   */\n      swap2\n      swap1\n      pop\n      jump\t// out\n        /* \"#utility.yul\":1665:2042   */\n    tag_91:\n        /* \"#utility.yul\":1753:1756   */\n      0x00\n        /* \"#utility.yul\":1781:1820   */\n      tag_136\n        /* \"#utility.yul\":1814:1819   */\n      dup3\n        /* \"#utility.yul\":1781:1820   */\n      tag_87\n      jump\t// in\n    tag_136:\n        /* \"#utility.yul\":1836:1907   */\n      tag_137\n        /* \"#utility.yul\":1900:1906   */\n      dup2\n        /* \"#utility.yul\":1895:1898   */\n      dup6\n        /* \"#utility.yul\":1836:1907   */\n      tag_88\n      jump\t// in\n    tag_137:\n        /* \"#utility.yul\":1829:1907   */\n      swap4\n      pop\n        /* \"#utility.yul\":1916:1981   */\n      tag_138\n        /* \"#utility.yul\":1974:1980   */\n      dup2\n        /* \"#utility.yul\":1969:1972   */\n      dup6\n        /* \"#utility.yul\":1962:1966   */\n      0x20\n        /* \"#utility.yul\":1955:1960   */\n      dup7\n        /* \"#utility.yul\":1951:1967   */\n      add\n        /* \"#utility.yul\":1916:1981   */\n      tag_89\n      jump\t// in\n    tag_138:\n        /* \"#utility.yul\":2006:2035   */\n      tag_139\n        /* \"#utility.yul\":2028:2034   */\n      dup2\n        /* \"#utility.yul\":2006:2035   */\n      tag_90\n      jump\t// in\n    tag_139:\n        /* \"#utility.yul\":2001:2004   */\n      dup5\n        /* \"#utility.yul\":1997:2036   */\n      add\n        /* \"#utility.yul\":1990:2036   */\n      swap2\n      pop\n        /* \"#utility.yul\":1757:2042   */\n      pop\n        /* \"#utility.yul\":1665:2042   */\n      swap3\n      swap2\n      pop\n      pop\n      jump\t// out\n        /* \"#utility.yul\":2048:2361   */\n    tag_15:\n        /* \"#utility.yul\":2161:2165   */\n      0x00\n        /* \"#utility.yul\":2199:2201   */\n      0x20\n        /* \"#utility.yul\":2188:2197   */\n      dup3\n        /* \"#utility.yul\":2184:2202   */\n      add\n        /* \"#utility.yul\":2176:2202   */\n      swap1\n      pop\n        /* \"#utility.yul\":2248:2257   */\n      dup2\n        /* \"#utility.yul\":2242:2246   */\n      dup2\n        /* \"#utility.yul\":2238:2258   */\n      sub\n        /* \"#utility.yul\":2234:2235   */\n      0x00\n        /* \"#utility.yul\":2223:2232   */\n      dup4\n        /* \"#utility.yul\":2219:2236   */\n      add\n        /* \"#utility.yul\":2212:2259   */\n      mstore\n        /* \"#utility.yul\":2276:2354   */\n      tag_141\n        /* \"#utility.yul\":2349:2353   */\n      dup2\n        /* \"#utility.yul\":2340:2346   */\n      dup5\n        /* \"#utility.yul\":2276:2354   */\n      tag_91\n      jump\t// in\n    tag_141:\n        /* \"#utility.yul\":2268:2354   */\n      swap1\n      pop\n        /* \"#utility.yul\":2048:2361   */\n      swap3\n      swap2\n      pop\n      pop\n      jump\t// out\n        /* \"#utility.yul\":2367:2493   */\n    tag_92:\n        /* \"#utility.yul\":2404:2411   */\n      0x00\n        /* \"#utility.yul\":2444:2486   */\n      0xffffffffffffffffffffffffffffffffffffffff\n        /* \"#utility.yul\":2437:2442   */\n      dup3\n        /* \"#utility.yul\":2433:2487   */\n      and\n        /* \"#utility.yul\":2422:2487   */\n      swap1\n      pop\n        /* \"#utility.yul\":2367:2493   */\n      swap2\n      swap1\n      pop\n      jump\t// out\n        /* \"#utility.yul\":2499:2595   */\n    tag_93:\n        /* \"#utility.yul\":2536:2543   */\n      0x00\n        /* \"#utility.yul\":2565:2589   */\n      tag_144\n        /* \"#utility.yul\":2583:2588   */\n      dup3\n        /* \"#utility.yul\":2565:2589   */\n      tag_92\n      jump\t// in\n    tag_144:\n        /* \"#utility.yul\":2554:2589   */\n      swap1\n      pop\n        /* \"#utility.yul\":2499:2595   */\n      swap2\n      swap1\n      pop\n      jump\t// out\n        /* \"#utility.yul\":2601:2719   */\n    tag_94:\n        /* \"#utility.yul\":2688:2712   */\n      tag_146\n        /* \"#utility.yul\":2706:2711   */\n      dup2\n        /* \"#utility.yul\":2688:2712   */\n      tag_93\n      jump\t// in\n    tag_146:\n        /* \"#utility.yul\":2683:2686   */\n      dup3\n        /* \"#utility.yul\":2676:2713   */\n      mstore\n        /* \"#utility.yul\":2601:2719   */\n      pop\n      pop\n      jump\t// out\n        /* \"#utility.yul\":2725:2947   */\n    tag_20:\n        /* \"#utility.yul\":2818:2822   */\n      0x00\n        /* \"#utility.yul\":2856:2858   */\n      0x20\n        /* \"#utility.yul\":2845:2854   */\n      dup3\n        /* \"#utility.yul\":2841:2859   */\n      add\n        /* \"#utility.yul\":2833:2859   */\n      swap1\n      pop\n        /* \"#utility.yul\":2869:2940   */\n      tag_148\n        /* \"#utility.yul\":2937:2938   */\n      0x00\n        /* \"#utility.yul\":2926:2935   */\n      dup4\n        /* \"#utility.yul\":2922:2939   */\n      add\n        /* \"#utility.yul\":2913:2919   */\n      dup5\n        /* \"#utility.yul\":2869:2940   */\n      tag_94\n      jump\t// in\n    tag_148:\n        /* \"#utility.yul\":2725:2947   */\n      swap3\n      swap2\n      pop\n      pop\n      jump\t// out\n        /* \"#utility.yul\":2953:3075   */\n    tag_95:\n        /* \"#utility.yul\":3026:3050   */\n      tag_150\n        /* \"#utility.yul\":3044:3049   */\n      dup2\n        /* \"#utility.yul\":3026:3050   */\n      tag_93\n      jump\t// in\n    tag_150:\n        /* \"#utility.yul\":3019:3024   */\n      dup2\n        /* \"#utility.yul\":3016:3051   */\n      eq\n        /* \"#utility.yul\":3006:3069   */\n      tag_151\n      jumpi\n        /* \"#utility.yul\":3065:3066   */\n      0x00\n        /* \"#utility.yul\":3062:3063   */\n      dup1\n        /* \"#utility.yul\":3055:3067   */\n      revert\n        /* \"#utility.yul\":3006:3069   */\n    tag_151:\n        /* \"#utility.yul\":2953:3075   */\n      pop\n      jump\t// out\n        /* \"#utility.yul\":3081:3220   */\n    tag_96:\n        /* \"#utility.yul\":3127:3132   */\n      0x00\n        /* \"#utility.yul\":3165:3171   */\n      dup2\n        /* \"#utility.yul\":3152:3172   */\n      calldataload\n        /* \"#utility.yul\":3143:3172   */\n      swap1\n      pop\n        /* \"#utility.yul\":3181:3214   */\n      tag_153\n        /* \"#utility.yul\":3208:3213   */\n      dup2\n        /* \"#utility.yul\":3181:3214   */\n      tag_95\n      jump\t// in\n    tag_153:\n        /* \"#utility.yul\":3081:3220   */\n      swap3\n      swap2\n      pop\n      pop\n      jump\t// out\n        /* \"#utility.yul\":3226:3555   */\n    tag_24:\n        /* \"#utility.yul\":3285:3291   */\n      0x00\n        /* \"#utility.yul\":3334:3336   */\n      0x20\n        /* \"#utility.yul\":3322:3331   */\n      dup3\n        /* \"#utility.yul\":3313:3320   */\n      dup5\n        /* \"#utility.yul\":3309:3332   */\n      sub\n        /* \"#utility.yul\":3305:3337   */\n      slt\n        /* \"#utility.yul\":3302:3421   */\n      iszero\n      tag_155\n      jumpi\n        /* \"#utility.yul\":3340:3419   */\n      tag_156\n      tag_82\n      jump\t// in\n    tag_156:\n        /* \"#utility.yul\":3302:3421   */\n    tag_155:\n        /* \"#utility.yul\":3460:3461   */\n      0x00\n        /* \"#utility.yul\":3485:3538   */\n      tag_157\n        /* \"#utility.yul\":3530:3537   */\n      dup5\n        /* \"#utility.yul\":3521:3527   */\n      dup3\n        /* \"#utility.yul\":3510:3519   */\n      dup6\n        /* \"#utility.yul\":3506:3528   */\n      add\n        /* \"#utility.yul\":3485:3538   */\n      tag_96\n      jump\t// in\n    tag_157:\n        /* \"#utility.yul\":3475:3538   */\n      swap2\n      pop\n        /* \"#utility.yul\":3431:3548   */\n      pop\n        /* \"#utility.yul\":3226:3555   */\n      swap3\n      swap2\n      pop\n      pop\n      jump\t// out\n        /* \"#utility.yul\":3561:3665   */\n    tag_97:\n        /* \"#utility.yul\":3606:3613   */\n      0x00\n        /* \"#utility.yul\":3635:3659   */\n      tag_159\n        /* \"#utility.yul\":3653:3658   */\n      dup3\n        /* \"#utility.yul\":3635:3659   */\n      tag_92\n      jump\t// in\n    tag_159:\n        /* \"#utility.yul\":3624:3659   */\n      swap1\n      pop\n        /* \"#utility.yul\":3561:3665   */\n      swap2\n      swap1\n      pop\n      jump\t// out\n        /* \"#utility.yul\":3671:3809   */\n    tag_98:\n        /* \"#utility.yul\":3752:3784   */\n      tag_161\n        /* \"#utility.yul\":3778:3783   */\n      dup2\n        /* \"#utility.yul\":3752:3784   */\n      tag_97\n      jump\t// in\n    tag_161:\n        /* \"#utility.yul\":3745:3750   */\n      dup2\n        /* \"#utility.yul\":3742:3785   */\n      eq\n        /* \"#utility.yul\":3732:3803   */\n      tag_162\n      jumpi\n        /* \"#utility.yul\":3799:3800   */\n      0x00\n        /* \"#utility.yul\":3796:3797   */\n      dup1\n        /* \"#utility.yul\":3789:3801   */\n      revert\n        /* \"#utility.yul\":3732:3803   */\n    tag_162:\n        /* \"#utility.yul\":3671:3809   */\n      pop\n      jump\t// out\n        /* \"#utility.yul\":3815:3970   */\n    tag_99:\n        /* \"#utility.yul\":3869:3874   */\n      0x00\n        /* \"#utility.yul\":3907:3913   */\n      dup2\n        /* \"#utility.yul\":3894:3914   */\n      calldataload\n        /* \"#utility.yul\":3885:3914   */\n      swap1\n      pop\n        /* \"#utility.yul\":3923:3964   */\n      tag_164\n        /* \"#utility.yul\":3958:3963   */\n      dup2\n        /* \"#utility.yul\":3923:3964   */\n      tag_98\n      jump\t// in\n    tag_164:\n        /* \"#utility.yul\":3815:3970   */\n      swap3\n      swap2\n      pop\n      pop\n      jump\t// out\n        /* \"#utility.yul\":3976:4466   */\n    tag_30:\n        /* \"#utility.yul\":4052:4058   */\n      0x00\n        /* \"#utility.yul\":4060:4066   */\n      dup1\n        /* \"#utility.yul\":4109:4111   */\n      0x40\n        /* \"#utility.yul\":4097:4106   */\n      dup4\n        /* \"#utility.yul\":4088:4095   */\n      dup6\n        /* \"#utility.yul\":4084:4107   */\n      sub\n        /* \"#utility.yul\":4080:4112   */\n      slt\n        /* \"#utility.yul\":4077:4196   */\n      iszero\n      tag_166\n      jumpi\n        /* \"#utility.yul\":4115:4194   */\n      tag_167\n      tag_82\n      jump\t// in\n    tag_167:\n        /* \"#utility.yul\":4077:4196   */\n    tag_166:\n        /* \"#utility.yul\":4235:4236   */\n      0x00\n        /* \"#utility.yul\":4260:4321   */\n      tag_168\n        /* \"#utility.yul\":4313:4320   */\n      dup6\n        /* \"#utility.yul\":4304:4310   */\n      dup3\n        /* \"#utility.yul\":4293:4302   */\n      dup7\n        /* \"#utility.yul\":4289:4311   */\n      add\n        /* \"#utility.yul\":4260:4321   */\n      tag_99\n      jump\t// in\n    tag_168:\n        /* \"#utility.yul\":4250:4321   */\n      swap3\n      pop\n        /* \"#utility.yul\":4206:4331   */\n      pop\n        /* \"#utility.yul\":4370:4372   */\n      0x20\n        /* \"#utility.yul\":4396:4449   */\n      tag_169\n        /* \"#utility.yul\":4441:4448   */\n      dup6\n        /* \"#utility.yul\":4432:4438   */\n      dup3\n        /* \"#utility.yul\":4421:4430   */\n      dup7\n        /* \"#utility.yul\":4417:4439   */\n      add\n        /* \"#utility.yul\":4396:4449   */\n      tag_86\n      jump\t// in\n    tag_169:\n        /* \"#utility.yul\":4386:4449   */\n      swap2\n      pop\n        /* \"#utility.yul\":4341:4459   */\n      pop\n        /* \"#utility.yul\":3976:4466   */\n      swap3\n      pop\n      swap3\n      swap1\n      pop\n      jump\t// out\n        /* \"#utility.yul\":4472:4562   */\n    tag_100:\n        /* \"#utility.yul\":4506:4513   */\n      0x00\n        /* \"#utility.yul\":4549:4554   */\n      dup2\n        /* \"#utility.yul\":4542:4555   */\n      iszero\n        /* \"#utility.yul\":4535:4556   */\n      iszero\n        /* \"#utility.yul\":4524:4556   */\n      swap1\n      pop\n        /* \"#utility.yul\":4472:4562   */\n      swap2\n      swap1\n      pop\n      jump\t// out\n        /* \"#utility.yul\":4568:4677   */\n    tag_101:\n        /* \"#utility.yul\":4649:4670   */\n      tag_172\n        /* \"#utility.yul\":4664:4669   */\n      dup2\n        /* \"#utility.yul\":4649:4670   */\n      tag_100\n      jump\t// in\n    tag_172:\n        /* \"#utility.yul\":4644:4647   */\n      dup3\n        /* \"#utility.yul\":4637:4671   */\n      mstore\n        /* \"#utility.yul\":4568:4677   */\n      pop\n      pop\n      jump\t// out\n        /* \"#utility.yul\":4683:4893   */\n    tag_38:\n        /* \"#utility.yul\":4770:4774   */\n      0x00\n        /* \"#utility.yul\":4808:4810   */\n      0x20\n        /* \"#utility.yul\":4797:4806   */\n      dup3\n        /* \"#utility.yul\":4793:4811   */\n      add\n        /* \"#utility.yul\":4785:4811   */\n      swap1\n      pop\n        /* \"#utility.yul\":4821:4886   */\n      tag_174\n        /* \"#utility.yul\":4883:4884   */\n      0x00\n        /* \"#utility.yul\":4872:4881   */\n      dup4\n        /* \"#utility.yul\":4868:4885   */\n      add\n        /* \"#utility.yul\":4859:4865   */\n      dup5\n        /* \"#utility.yul\":4821:4886   */\n      tag_101\n      jump\t// in\n    tag_174:\n        /* \"#utility.yul\":4683:4893   */\n      swap3\n      swap2\n      pop\n      pop\n      jump\t// out\n        /* \"#utility.yul\":4899:5017   */\n    tag_102:\n        /* \"#utility.yul\":4986:5010   */\n      tag_176\n        /* \"#utility.yul\":5004:5009   */\n      dup2\n        /* \"#utility.yul\":4986:5010   */\n      tag_84\n      jump\t// in\n    tag_176:\n        /* \"#utility.yul\":4981:4984   */\n      dup3\n        /* \"#utility.yul\":4974:5011   */\n      mstore\n        /* \"#utility.yul\":4899:5017   */\n      pop\n      pop\n      jump\t// out\n        /* \"#utility.yul\":5023:5245   */\n    tag_44:\n        /* \"#utility.yul\":5116:5120   */\n      0x00\n        /* \"#utility.yul\":5154:5156   */\n      0x20\n        /* \"#utility.yul\":5143:5152   */\n      dup3\n        /* \"#utility.yul\":5139:5157   */\n      add\n        /* \"#utility.yul\":5131:5157   */\n      swap1\n      pop\n        /* \"#utility.yul\":5167:5238   */\n      tag_178\n        /* \"#utility.yul\":5235:5236   */\n      0x00\n        /* \"#utility.yul\":5224:5233   */\n      dup4\n        /* \"#utility.yul\":5220:5237   */\n      add\n        /* \"#utility.yul\":5211:5217   */\n      dup5\n        /* \"#utility.yul\":5167:5238   */\n      tag_102\n      jump\t// in\n    tag_178:\n        /* \"#utility.yul\":5023:5245   */\n      swap3\n      swap2\n      pop\n      pop\n      jump\t// out\n        /* \"#utility.yul\":5251:5420   */\n    tag_103:\n        /* \"#utility.yul\":5391:5412   */\n      0x4163636f756e74206e6f74206372656174656400000000000000000000000000\n        /* \"#utility.yul\":5387:5388   */\n      0x00\n        /* \"#utility.yul\":5379:5385   */\n      dup3\n        /* \"#utility.yul\":5375:5389   */\n      add\n        /* \"#utility.yul\":5368:5413   */\n      mstore\n        /* \"#utility.yul\":5251:5420   */\n      pop\n      jump\t// out\n        /* \"#utility.yul\":5426:5792   */\n    tag_104:\n        /* \"#utility.yul\":5568:5571   */\n      0x00\n        /* \"#utility.yul\":5589:5656   */\n      tag_181\n        /* \"#utility.yul\":5653:5655   */\n      0x13\n        /* \"#utility.yul\":5648:5651   */\n      dup4\n        /* \"#utility.yul\":5589:5656   */\n      tag_88\n      jump\t// in\n    tag_181:\n        /* \"#utility.yul\":5582:5656   */\n      swap2\n      pop\n        /* \"#utility.yul\":5665:5758   */\n      tag_182\n        /* \"#utility.yul\":5754:5757   */\n      dup3\n        /* \"#utility.yul\":5665:5758   */\n      tag_103\n      jump\t// in\n    tag_182:\n        /* \"#utility.yul\":5783:5785   */\n      0x20\n        /* \"#utility.yul\":5778:5781   */\n      dup3\n        /* \"#utility.yul\":5774:5786   */\n      add\n        /* \"#utility.yul\":5767:5786   */\n      swap1\n      pop\n        /* \"#utility.yul\":5426:5792   */\n      swap2\n      swap1\n      pop\n      jump\t// out\n        /* \"#utility.yul\":5798:6217   */\n    tag_52:\n        /* \"#utility.yul\":5964:5968   */\n      0x00\n        /* \"#utility.yul\":6002:6004   */\n      0x20\n        /* \"#utility.yul\":5991:6000   */\n      dup3\n        /* \"#utility.yul\":5987:6005   */\n      add\n        /* \"#utility.yul\":5979:6005   */\n      swap1\n      pop\n        /* \"#utility.yul\":6051:6060   */\n      dup2\n        /* \"#utility.yul\":6045:6049   */\n      dup2\n        /* \"#utility.yul\":6041:6061   */\n      sub\n        /* \"#utility.yul\":6037:6038   */\n      0x00\n        /* \"#utility.yul\":6026:6035   */\n      dup4\n        /* \"#utility.yul\":6022:6039   */\n      add\n        /* \"#utility.yul\":6015:6062   */\n      mstore\n        /* \"#utility.yul\":6079:6210   */\n      tag_184\n        /* \"#utility.yul\":6205:6209   */\n      dup2\n        /* \"#utility.yul\":6079:6210   */\n      tag_104\n      jump\t// in\n    tag_184:\n        /* \"#utility.yul\":6071:6210   */\n      swap1\n      pop\n        /* \"#utility.yul\":5798:6217   */\n      swap2\n      swap1\n      pop\n      jump\t// out\n        /* \"#utility.yul\":6223:6391   */\n    tag_105:\n        /* \"#utility.yul\":6363:6383   */\n      0x496e73756666696369656e742046756e64730000000000000000000000000000\n        /* \"#utility.yul\":6359:6360   */\n      0x00\n        /* \"#utility.yul\":6351:6357   */\n      dup3\n        /* \"#utility.yul\":6347:6361   */\n      add\n        /* \"#utility.yul\":6340:6384   */\n      mstore\n        /* \"#utility.yul\":6223:6391   */\n      pop\n      jump\t// out\n        /* \"#utility.yul\":6397:6763   */\n    tag_106:\n        /* \"#utility.yul\":6539:6542   */\n      0x00\n        /* \"#utility.yul\":6560:6627   */\n      tag_187\n        /* \"#utility.yul\":6624:6626   */\n      0x12\n        /* \"#utility.yul\":6619:6622   */\n      dup4\n        /* \"#utility.yul\":6560:6627   */\n      tag_88\n      jump\t// in\n    tag_187:\n        /* \"#utility.yul\":6553:6627   */\n      swap2\n      pop\n        /* \"#utility.yul\":6636:6729   */\n      tag_188\n        /* \"#utility.yul\":6725:6728   */\n      dup3\n        /* \"#utility.yul\":6636:6729   */\n      tag_105\n      jump\t// in\n    tag_188:\n        /* \"#utility.yul\":6754:6756   */\n      0x20\n        /* \"#utility.yul\":6749:6752   */\n      dup3\n        /* \"#utility.yul\":6745:6757   */\n      add\n        /* \"#utility.yul\":6738:6757   */\n      swap1\n      pop\n        /* \"#utility.yul\":6397:6763   */\n      swap2\n      swap1\n      pop\n      jump\t// out\n        /* \"#utility.yul\":6769:7188   */\n    tag_55:\n        /* \"#utility.yul\":6935:6939   */\n      0x00\n        /* \"#utility.yul\":6973:6975   */\n      0x20\n        /* \"#utility.yul\":6962:6971   */\n      dup3\n        /* \"#utility.yul\":6958:6976   */\n      add\n        /* \"#utility.yul\":6950:6976   */\n      swap1\n      pop\n        /* \"#utility.yul\":7022:7031   */\n      dup2\n        /* \"#utility.yul\":7016:7020   */\n      dup2\n        /* \"#utility.yul\":7012:7032   */\n      sub\n        /* \"#utility.yul\":7008:7009   */\n      0x00\n        /* \"#utility.yul\":6997:7006   */\n      dup4\n        /* \"#utility.yul\":6993:7010   */\n      add\n        /* \"#utility.yul\":6986:7033   */\n      mstore\n        /* \"#utility.yul\":7050:7181   */\n      tag_190\n        /* \"#utility.yul\":7176:7180   */\n      dup2\n        /* \"#utility.yul\":7050:7181   */\n      tag_106\n      jump\t// in\n    tag_190:\n        /* \"#utility.yul\":7042:7181   */\n      swap1\n      pop\n        /* \"#utility.yul\":6769:7188   */\n      swap2\n      swap1\n      pop\n      jump\t// out\n        /* \"#utility.yul\":7194:7374   */\n    tag_107:\n        /* \"#utility.yul\":7242:7319   */\n      0x4e487b7100000000000000000000000000000000000000000000000000000000\n        /* \"#utility.yul\":7239:7240   */\n      0x00\n        /* \"#utility.yul\":7232:7320   */\n      mstore\n        /* \"#utility.yul\":7339:7343   */\n      0x11\n        /* \"#utility.yul\":7336:7337   */\n      0x04\n        /* \"#utility.yul\":7329:7344   */\n      mstore\n        /* \"#utility.yul\":7363:7367   */\n      0x24\n        /* \"#utility.yul\":7360:7361   */\n      0x00\n        /* \"#utility.yul\":7353:7368   */\n      revert\n        /* \"#utility.yul\":7380:7574   */\n    tag_57:\n        /* \"#utility.yul\":7420:7424   */\n      0x00\n        /* \"#utility.yul\":7440:7460   */\n      tag_193\n        /* \"#utility.yul\":7458:7459   */\n      dup3\n        /* \"#utility.yul\":7440:7460   */\n      tag_84\n      jump\t// in\n    tag_193:\n        /* \"#utility.yul\":7435:7460   */\n      swap2\n      pop\n        /* \"#utility.yul\":7474:7494   */\n      tag_194\n        /* \"#utility.yul\":7492:7493   */\n      dup4\n        /* \"#utility.yul\":7474:7494   */\n      tag_84\n      jump\t// in\n    tag_194:\n        /* \"#utility.yul\":7469:7494   */\n      swap3\n      pop\n        /* \"#utility.yul\":7518:7519   */\n      dup3\n        /* \"#utility.yul\":7515:7516   */\n      dup3\n        /* \"#utility.yul\":7511:7520   */\n      sub\n        /* \"#utility.yul\":7503:7520   */\n      swap1\n      pop\n        /* \"#utility.yul\":7542:7543   */\n      dup2\n        /* \"#utility.yul\":7536:7540   */\n      dup2\n        /* \"#utility.yul\":7533:7544   */\n      gt\n        /* \"#utility.yul\":7530:7567   */\n      iszero\n      tag_195\n      jumpi\n        /* \"#utility.yul\":7547:7565   */\n      tag_196\n      tag_107\n      jump\t// in\n    tag_196:\n        /* \"#utility.yul\":7530:7567   */\n    tag_195:\n        /* \"#utility.yul\":7380:7574   */\n      swap3\n      swap2\n      pop\n      pop\n      jump\t// out\n        /* \"#utility.yul\":7580:7753   */\n    tag_108:\n        /* \"#utility.yul\":7720:7745   */\n      0x4163636f756e7420616c72656164792063726561746564000000000000000000\n        /* \"#utility.yul\":7716:7717   */\n      0x00\n        /* \"#utility.yul\":7708:7714   */\n      dup3\n        /* \"#utility.yul\":7704:7718   */\n      add\n        /* \"#utility.yul\":7697:7746   */\n      mstore\n        /* \"#utility.yul\":7580:7753   */\n      pop\n      jump\t// out\n        /* \"#utility.yul\":7759:8125   */\n    tag_109:\n        /* \"#utility.yul\":7901:7904   */\n      0x00\n        /* \"#utility.yul\":7922:7989   */\n      tag_199\n        /* \"#utility.yul\":7986:7988   */\n      0x17\n        /* \"#utility.yul\":7981:7984   */\n      dup4\n        /* \"#utility.yul\":7922:7989   */\n      tag_88\n      jump\t// in\n    tag_199:\n        /* \"#utility.yul\":7915:7989   */\n      swap2\n      pop\n        /* \"#utility.yul\":7998:8091   */\n      tag_200\n        /* \"#utility.yul\":8087:8090   */\n      dup3\n        /* \"#utility.yul\":7998:8091   */\n      tag_108\n      jump\t// in\n    tag_200:\n        /* \"#utility.yul\":8116:8118   */\n      0x20\n        /* \"#utility.yul\":8111:8114   */\n      dup3\n        /* \"#utility.yul\":8107:8119   */\n      add\n        /* \"#utility.yul\":8100:8119   */\n      swap1\n      pop\n        /* \"#utility.yul\":7759:8125   */\n      swap2\n      swap1\n      pop\n      jump\t// out\n        /* \"#utility.yul\":8131:8550   */\n    tag_61:\n        /* \"#utility.yul\":8297:8301   */\n      0x00\n        /* \"#utility.yul\":8335:8337   */\n      0x20\n        /* \"#utility.yul\":8324:8333   */\n      dup3\n        /* \"#utility.yul\":8320:8338   */\n      add\n        /* \"#utility.yul\":8312:8338   */\n      swap1\n      pop\n        /* \"#utility.yul\":8384:8393   */\n      dup2\n        /* \"#utility.yul\":8378:8382   */\n      dup2\n        /* \"#utility.yul\":8374:8394   */\n      sub\n        /* \"#utility.yul\":8370:8371   */\n      0x00\n        /* \"#utility.yul\":8359:8368   */\n      dup4\n        /* \"#utility.yul\":8355:8372   */\n      add\n        /* \"#utility.yul\":8348:8395   */\n      mstore\n        /* \"#utility.yul\":8412:8543   */\n      tag_202\n        /* \"#utility.yul\":8538:8542   */\n      dup2\n        /* \"#utility.yul\":8412:8543   */\n      tag_109\n      jump\t// in\n    tag_202:\n        /* \"#utility.yul\":8404:8543   */\n      swap1\n      pop\n        /* \"#utility.yul\":8131:8550   */\n      swap2\n      swap1\n      pop\n      jump\t// out\n        /* \"#utility.yul\":8556:8726   */\n    tag_110:\n        /* \"#utility.yul\":8696:8718   */\n      0x496e73756666696369656e742042616c616e6365000000000000000000000000\n        /* \"#utility.yul\":8692:8693   */\n      0x00\n        /* \"#utility.yul\":8684:8690   */\n      dup3\n        /* \"#utility.yul\":8680:8694   */\n      add\n        /* \"#utility.yul\":8673:8719   */\n      mstore\n        /* \"#utility.yul\":8556:8726   */\n      pop\n      jump\t// out\n        /* \"#utility.yul\":8732:9098   */\n    tag_111:\n        /* \"#utility.yul\":8874:8877   */\n      0x00\n        /* \"#utility.yul\":8895:8962   */\n      tag_205\n        /* \"#utility.yul\":8959:8961   */\n      0x14\n        /* \"#utility.yul\":8954:8957   */\n      dup4\n        /* \"#utility.yul\":8895:8962   */\n      tag_88\n      jump\t// in\n    tag_205:\n        /* \"#utility.yul\":8888:8962   */\n      swap2\n      pop\n        /* \"#utility.yul\":8971:9064   */\n      tag_206\n        /* \"#utility.yul\":9060:9063   */\n      dup3\n        /* \"#utility.yul\":8971:9064   */\n      tag_110\n      jump\t// in\n    tag_206:\n        /* \"#utility.yul\":9089:9091   */\n      0x20\n        /* \"#utility.yul\":9084:9087   */\n      dup3\n        /* \"#utility.yul\":9080:9092   */\n      add\n        /* \"#utility.yul\":9073:9092   */\n      swap1\n      pop\n        /* \"#utility.yul\":8732:9098   */\n      swap2\n      swap1\n      pop\n      jump\t// out\n        /* \"#utility.yul\":9104:9523   */\n    tag_69:\n        /* \"#utility.yul\":9270:9274   */\n      0x00\n        /* \"#utility.yul\":9308:9310   */\n      0x20\n        /* \"#utility.yul\":9297:9306   */\n      dup3\n        /* \"#utility.yul\":9293:9311   */\n      add\n        /* \"#utility.yul\":9285:9311   */\n      swap1\n      pop\n        /* \"#utility.yul\":9357:9366   */\n      dup2\n        /* \"#utility.yul\":9351:9355   */\n      dup2\n        /* \"#utility.yul\":9347:9367   */\n      sub\n        /* \"#utility.yul\":9343:9344   */\n      0x00\n        /* \"#utility.yul\":9332:9341   */\n      dup4\n        /* \"#utility.yul\":9328:9345   */\n      add\n        /* \"#utility.yul\":9321:9368   */\n      mstore\n        /* \"#utility.yul\":9385:9516   */\n      tag_208\n        /* \"#utility.yul\":9511:9515   */\n      dup2\n        /* \"#utility.yul\":9385:9516   */\n      tag_111\n      jump\t// in\n    tag_208:\n        /* \"#utility.yul\":9377:9516   */\n      swap1\n      pop\n        /* \"#utility.yul\":9104:9523   */\n      swap2\n      swap1\n      pop\n      jump\t// out\n        /* \"#utility.yul\":9529:9720   */\n    tag_72:\n        /* \"#utility.yul\":9569:9572   */\n      0x00\n        /* \"#utility.yul\":9588:9608   */\n      tag_210\n        /* \"#utility.yul\":9606:9607   */\n      dup3\n        /* \"#utility.yul\":9588:9608   */\n      tag_84\n      jump\t// in\n    tag_210:\n        /* \"#utility.yul\":9583:9608   */\n      swap2\n      pop\n        /* \"#utility.yul\":9622:9642   */\n      tag_211\n        /* \"#utility.yul\":9640:9641   */\n      dup4\n        /* \"#utility.yul\":9622:9642   */\n      tag_84\n      jump\t// in\n    tag_211:\n        /* \"#utility.yul\":9617:9642   */\n      swap3\n      pop\n        /* \"#utility.yul\":9665:9666   */\n      dup3\n        /* \"#utility.yul\":9662:9663   */\n      dup3\n        /* \"#utility.yul\":9658:9667   */\n      add\n        /* \"#utility.yul\":9651:9667   */\n      swap1\n      pop\n        /* \"#utility.yul\":9686:9689   */\n      dup1\n        /* \"#utility.yul\":9683:9684   */\n      dup3\n        /* \"#utility.yul\":9680:9690   */\n      gt\n        /* \"#utility.yul\":9677:9713   */\n      iszero\n      tag_212\n      jumpi\n        /* \"#utility.yul\":9693:9711   */\n      tag_213\n      tag_107\n      jump\t// in\n    tag_213:\n        /* \"#utility.yul\":9677:9713   */\n    tag_212:\n        /* \"#utility.yul\":9529:9720   */\n      swap3\n      swap2\n      pop\n      pop\n      jump\t// out\n        /* \"#utility.yul\":9726:9901   */\n    tag_112:\n        /* \"#utility.yul\":9866:9893   */\n      0x416d6f756e74206465706f736974696e67206973205a65726f00000000000000\n        /* \"#utility.yul\":9862:9863   */\n      0x00\n        /* \"#utility.yul\":9854:9860   */\n      dup3\n        /* \"#utility.yul\":9850:9864   */\n      add\n        /* \"#utility.yul\":9843:9894   */\n      mstore\n        /* \"#utility.yul\":9726:9901   */\n      pop\n      jump\t// out\n        /* \"#utility.yul\":9907:10273   */\n    tag_113:\n        /* \"#utility.yul\":10049:10052   */\n      0x00\n        /* \"#utility.yul\":10070:10137   */\n      tag_216\n        /* \"#utility.yul\":10134:10136   */\n      0x19\n        /* \"#utility.yul\":10129:10132   */\n      dup4\n        /* \"#utility.yul\":10070:10137   */\n      tag_88\n      jump\t// in\n    tag_216:\n        /* \"#utility.yul\":10063:10137   */\n      swap2\n      pop\n        /* \"#utility.yul\":10146:10239   */\n      tag_217\n        /* \"#utility.yul\":10235:10238   */\n      dup3\n        /* \"#utility.yul\":10146:10239   */\n      tag_112\n      jump\t// in\n    tag_217:\n        /* \"#utility.yul\":10264:10266   */\n      0x20\n        /* \"#utility.yul\":10259:10262   */\n      dup3\n        /* \"#utility.yul\":10255:10267   */\n      add\n        /* \"#utility.yul\":10248:10267   */\n      swap1\n      pop\n        /* \"#utility.yul\":9907:10273   */\n      swap2\n      swap1\n      pop\n      jump\t// out\n        /* \"#utility.yul\":10279:10698   */\n    tag_79:\n        /* \"#utility.yul\":10445:10449   */\n      0x00\n        /* \"#utility.yul\":10483:10485   */\n      0x20\n        /* \"#utility.yul\":10472:10481   */\n      dup3\n        /* \"#utility.yul\":10468:10486   */\n      add\n        /* \"#utility.yul\":10460:10486   */\n      swap1\n      pop\n        /* \"#utility.yul\":10532:10541   */\n      dup2\n        /* \"#utility.yul\":10526:10530   */\n      dup2\n        /* \"#utility.yul\":10522:10542   */\n      sub\n        /* \"#utility.yul\":10518:10519   */\n      0x00\n        /* \"#utility.yul\":10507:10516   */\n      dup4\n        /* \"#utility.yul\":10503:10520   */\n      add\n        /* \"#utility.yul\":10496:10543   */\n      mstore\n        /* \"#utility.yul\":10560:10691   */\n      tag_219\n        /* \"#utility.yul\":10686:10690   */\n      dup2\n        /* \"#utility.yul\":10560:10691   */\n      tag_113\n      jump\t// in\n    tag_219:\n        /* \"#utility.yul\":10552:10691   */\n      swap1\n      pop\n        /* \"#utility.yul\":10279:10698   */\n      swap2\n      swap1\n      pop\n      jump\t// out\n\n    auxdata: 0xa264697066735822122090624b3fdcb48f2855592fc9106ea785cbc367bd57b7634bf4516f2b6db416d664736f6c63430008120033\n}\n",
				"bytecode": {
					"linkReferences": {},
					"object": "608060405234801561001057600080fd5b50336000806101000a81548173ffffffffffffffffffffffffffffffffffffffff021916908373ffffffffffffffffffffffffffffffffffffffff160217905550610f2e806100606000396000f3fe6080604052600436106100705760003560e01c8063a9059cbb1161004e578063a9059cbb1461010d578063ab7e7cf61461014a578063b5815d1314610187578063b6b55f25146101c457610070565b80632e1a7d4d146100755780638da5cb5b146100a55780639859387b146100d0575b600080fd5b61008f600480360381019061008a91906109d3565b6101f4565b60405161009c9190610a90565b60405180910390f35b3480156100b157600080fd5b506100ba61039e565b6040516100c79190610af3565b60405180910390f35b3480156100dc57600080fd5b506100f760048036038101906100f29190610b3a565b6103c2565b6040516101049190610a90565b60405180910390f35b34801561011957600080fd5b50610134600480360381019061012f9190610ba5565b610531565b6040516101419190610a90565b60405180910390f35b34801561015657600080fd5b50610171600480360381019061016c9190610b3a565b6107c4565b60405161017e9190610c00565b60405180910390f35b34801561019357600080fd5b506101ae60048036038101906101a99190610b3a565b6107e4565b6040516101bb9190610c2a565b60405180910390f35b6101de60048036038101906101d991906109d3565b61082d565b6040516101eb9190610a90565b60405180910390f35b606060011515600260003373ffffffffffffffffffffffffffffffffffffffff1673ffffffffffffffffffffffffffffffffffffffff16815260200190815260200160002060009054906101000a900460ff16151514610289576040517f08c379a000000000000000000000000000000000000000000000000000000000815260040161028090610c91565b60405180910390fd5b81600160003373ffffffffffffffffffffffffffffffffffffffff1673ffffffffffffffffffffffffffffffffffffffff16815260200190815260200160002054101561030b576040517f08c379a000000000000000000000000000000000000000000000000000000000815260040161030290610cfd565b60405180910390fd5b81600160003373ffffffffffffffffffffffffffffffffffffffff1673ffffffffffffffffffffffffffffffffffffffff168152602001908152602001600020600082825461035a9190610d4c565b925050819055506040518060400160405280601381526020017f5769746864726177207375636365737366756c000000000000000000000000008152509050919050565b60008054906101000a900473ffffffffffffffffffffffffffffffffffffffff1681565b606060001515600260008473ffffffffffffffffffffffffffffffffffffffff1673ffffffffffffffffffffffffffffffffffffffff16815260200190815260200160002060009054906101000a900460ff16151514610457576040517f08c379a000000000000000000000000000000000000000000000000000000000815260040161044e90610dcc565b60405180910390fd5b6000600160008473ffffffffffffffffffffffffffffffffffffffff1673ffffffffffffffffffffffffffffffffffffffff168152602001908152602001600020819055506001600260008473ffffffffffffffffffffffffffffffffffffffff1673ffffffffffffffffffffffffffffffffffffffff16815260200190815260200160002060006101000a81548160ff0219169083151502179055506040518060400160405280601c81526020017f4163636f756e742043726561746564205375636365737366756c6c79000000008152509050919050565b606060011515600260003373ffffffffffffffffffffffffffffffffffffffff1673ffffffffffffffffffffffffffffffffffffffff16815260200190815260200160002060009054906101000a900460ff161515146105c6576040517f08c379a00000000000000000000000000000000000000000000000000000000081526004016105bd90610c91565b60405180910390fd5b60011515600260008573ffffffffffffffffffffffffffffffffffffffff1673ffffffffffffffffffffffffffffffffffffffff16815260200190815260200160002060009054906101000a900460ff16151514610659576040517f08c379a000000000000000000000000000000000000000000000000000000000815260040161065090610c91565b60405180910390fd5b81600160003373ffffffffffffffffffffffffffffffffffffffff1673ffffffffffffffffffffffffffffffffffffffff16815260200190815260200160002054116106da576040517f08c379a00000000000000000000000000000000000000000000000000000000081526004016106d190610e38565b60405180910390fd5b81600160003373ffffffffffffffffffffffffffffffffffffffff1673ffffffffffffffffffffffffffffffffffffffff16815260200190815260200160002060008282546107299190610d4c565b9250508190555081600160008573ffffffffffffffffffffffffffffffffffffffff1673ffffffffffffffffffffffffffffffffffffffff168152602001908152602001600020600082825461077f9190610e58565b925050819055506040518060400160405280601781526020017f5472616e736665726564205375636365737366756c6c79000000000000000000815250905092915050565b60026020528060005260406000206000915054906101000a900460ff1681565b6000600160008373ffffffffffffffffffffffffffffffffffffffff1673ffffffffffffffffffffffffffffffffffffffff168152602001908152602001600020549050919050565b606060011515600260003373ffffffffffffffffffffffffffffffffffffffff1673ffffffffffffffffffffffffffffffffffffffff16815260200190815260200160002060009054906101000a900460ff161515146108c2576040517f08c379a00000000000000000000000000000000000000000000000000000000081526004016108b990610c91565b60405180910390fd5b60008211610905576040517f08c379a00000000000000000000000000000000000000000000000000000000081526004016108fc90610ed8565b60405180910390fd5b81600160003373ffffffffffffffffffffffffffffffffffffffff1673ffffffffffffffffffffffffffffffffffffffff16815260200190815260200160002060008282546109549190610e58565b925050819055506040518060400160405280601d81526020017f416d6f756e74204465706f7369746564205375636365737366756c6c790000008152509050919050565b600080fd5b6000819050919050565b6109b08161099d565b81146109bb57600080fd5b50565b6000813590506109cd816109a7565b92915050565b6000602082840312156109e9576109e8610998565b5b60006109f7848285016109be565b91505092915050565b600081519050919050565b600082825260208201905092915050565b60005b83811015610a3a578082015181840152602081019050610a1f565b60008484015250505050565b6000601f19601f8301169050919050565b6000610a6282610a00565b610a6c8185610a0b565b9350610a7c818560208601610a1c565b610a8581610a46565b840191505092915050565b60006020820190508181036000830152610aaa8184610a57565b905092915050565b600073ffffffffffffffffffffffffffffffffffffffff82169050919050565b6000610add82610ab2565b9050919050565b610aed81610ad2565b82525050565b6000602082019050610b086000830184610ae4565b92915050565b610b1781610ad2565b8114610b2257600080fd5b50565b600081359050610b3481610b0e565b92915050565b600060208284031215610b5057610b4f610998565b5b6000610b5e84828501610b25565b91505092915050565b6000610b7282610ab2565b9050919050565b610b8281610b67565b8114610b8d57600080fd5b50565b600081359050610b9f81610b79565b92915050565b60008060408385031215610bbc57610bbb610998565b5b6000610bca85828601610b90565b9250506020610bdb858286016109be565b9150509250929050565b60008115159050919050565b610bfa81610be5565b82525050565b6000602082019050610c156000830184610bf1565b92915050565b610c248161099d565b82525050565b6000602082019050610c3f6000830184610c1b565b92915050565b7f4163636f756e74206e6f74206372656174656400000000000000000000000000600082015250565b6000610c7b601383610a0b565b9150610c8682610c45565b602082019050919050565b60006020820190508181036000830152610caa81610c6e565b9050919050565b7f496e73756666696369656e742046756e64730000000000000000000000000000600082015250565b6000610ce7601283610a0b565b9150610cf282610cb1565b602082019050919050565b60006020820190508181036000830152610d1681610cda565b9050919050565b7f4e487b7100000000000000000000000000000000000000000000000000000000600052601160045260246000fd5b6000610d578261099d565b9150610d628361099d565b9250828203905081811115610d7a57610d79610d1d565b5b92915050565b7f4163636f756e7420616c72656164792063726561746564000000000000000000600082015250565b6000610db6601783610a0b565b9150610dc182610d80565b602082019050919050565b60006020820190508181036000830152610de581610da9565b9050919050565b7f496e73756666696369656e742042616c616e6365000000000000000000000000600082015250565b6000610e22601483610a0b565b9150610e2d82610dec565b602082019050919050565b60006020820190508181036000830152610e5181610e15565b9050919050565b6000610e638261099d565b9150610e6e8361099d565b9250828201905080821115610e8657610e85610d1d565b5b92915050565b7f416d6f756e74206465706f736974696e67206973205a65726f00000000000000600082015250565b6000610ec2601983610a0b565b9150610ecd82610e8c565b602082019050919050565b60006020820190508181036000830152610ef181610eb5565b905091905056fea264697066735822122090624b3fdcb48f2855592fc9106ea785cbc367bd57b7634bf4516f2b6db416d664736f6c63430008120033",
					"opcodes": "PUSH1 0x80 PUSH1 0x40 MSTORE CALLVALUE DUP1 ISZERO PUSH2 0x10 JUMPI PUSH1 0x0 DUP1 REVERT JUMPDEST POP CALLER PUSH1 0x0 DUP1 PUSH2 0x100 EXP DUP2 SLOAD DUP2 PUSH20 0xFFFFFFFFFFFFFFFFFFFFFFFFFFFFFFFFFFFFFFFF MUL NOT AND SWAP1 DUP4 PUSH20 0xFFFFFFFFFFFFFFFFFFFFFFFFFFFFFFFFFFFFFFFF AND MUL OR SWAP1 SSTORE POP PUSH2 0xF2E DUP1 PUSH2 0x60 PUSH1 0x0 CODECOPY PUSH1 0x0 RETURN INVALID PUSH1 0x80 PUSH1 0x40 MSTORE PUSH1 0x4 CALLDATASIZE LT PUSH2 0x70 JUMPI PUSH1 0x0 CALLDATALOAD PUSH1 0xE0 SHR DUP1 PUSH4 0xA9059CBB GT PUSH2 0x4E JUMPI DUP1 PUSH4 0xA9059CBB EQ PUSH2 0x10D JUMPI DUP1 PUSH4 0xAB7E7CF6 EQ PUSH2 0x14A JUMPI DUP1 PUSH4 0xB5815D13 EQ PUSH2 0x187 JUMPI DUP1 PUSH4 0xB6B55F25 EQ PUSH2 0x1C4 JUMPI PUSH2 0x70 JUMP JUMPDEST DUP1 PUSH4 0x2E1A7D4D EQ PUSH2 0x75 JUMPI DUP1 PUSH4 0x8DA5CB5B EQ PUSH2 0xA5 JUMPI DUP1 PUSH4 0x9859387B EQ PUSH2 0xD0 JUMPI JUMPDEST PUSH1 0x0 DUP1 REVERT JUMPDEST PUSH2 0x8F PUSH1 0x4 DUP1 CALLDATASIZE SUB DUP2 ADD SWAP1 PUSH2 0x8A SWAP2 SWAP1 PUSH2 0x9D3 JUMP JUMPDEST PUSH2 0x1F4 JUMP JUMPDEST PUSH1 0x40 MLOAD PUSH2 0x9C SWAP2 SWAP1 PUSH2 0xA90 JUMP JUMPDEST PUSH1 0x40 MLOAD DUP1 SWAP2 SUB SWAP1 RETURN JUMPDEST CALLVALUE DUP1 ISZERO PUSH2 0xB1 JUMPI PUSH1 0x0 DUP1 REVERT JUMPDEST POP PUSH2 0xBA PUSH2 0x39E JUMP JUMPDEST PUSH1 0x40 MLOAD PUSH2 0xC7 SWAP2 SWAP1 PUSH2 0xAF3 JUMP JUMPDEST PUSH1 0x40 MLOAD DUP1 SWAP2 SUB SWAP1 RETURN JUMPDEST CALLVALUE DUP1 ISZERO PUSH2 0xDC JUMPI PUSH1 0x0 DUP1 REVERT JUMPDEST POP PUSH2 0xF7 PUSH1 0x4 DUP1 CALLDATASIZE SUB DUP2 ADD SWAP1 PUSH2 0xF2 SWAP2 SWAP1 PUSH2 0xB3A JUMP JUMPDEST PUSH2 0x3C2 JUMP JUMPDEST PUSH1 0x40 MLOAD PUSH2 0x104 SWAP2 SWAP1 PUSH2 0xA90 JUMP JUMPDEST PUSH1 0x40 MLOAD DUP1 SWAP2 SUB SWAP1 RETURN JUMPDEST CALLVALUE DUP1 ISZERO PUSH2 0x119 JUMPI PUSH1 0x0 DUP1 REVERT JUMPDEST POP PUSH2 0x134 PUSH1 0x4 DUP1 CALLDATASIZE SUB DUP2 ADD SWAP1 PUSH2 0x12F SWAP2 SWAP1 PUSH2 0xBA5 JUMP JUMPDEST PUSH2 0x531 JUMP JUMPDEST PUSH1 0x40 MLOAD PUSH2 0x141 SWAP2 SWAP1 PUSH2 0xA90 JUMP JUMPDEST PUSH1 0x40 MLOAD DUP1 SWAP2 SUB SWAP1 RETURN JUMPDEST CALLVALUE DUP1 ISZERO PUSH2 0x156 JUMPI PUSH1 0x0 DUP1 REVERT JUMPDEST POP PUSH2 0x171 PUSH1 0x4 DUP1 CALLDATASIZE SUB DUP2 ADD SWAP1 PUSH2 0x16C SWAP2 SWAP1 PUSH2 0xB3A JUMP JUMPDEST PUSH2 0x7C4 JUMP JUMPDEST PUSH1 0x40 MLOAD PUSH2 0x17E SWAP2 SWAP1 PUSH2 0xC00 JUMP JUMPDEST PUSH1 0x40 MLOAD DUP1 SWAP2 SUB SWAP1 RETURN JUMPDEST CALLVALUE DUP1 ISZERO PUSH2 0x193 JUMPI PUSH1 0x0 DUP1 REVERT JUMPDEST POP PUSH2 0x1AE PUSH1 0x4 DUP1 CALLDATASIZE SUB DUP2 ADD SWAP1 PUSH2 0x1A9 SWAP2 SWAP1 PUSH2 0xB3A JUMP JUMPDEST PUSH2 0x7E4 JUMP JUMPDEST PUSH1 0x40 MLOAD PUSH2 0x1BB SWAP2 SWAP1 PUSH2 0xC2A JUMP JUMPDEST PUSH1 0x40 MLOAD DUP1 SWAP2 SUB SWAP1 RETURN JUMPDEST PUSH2 0x1DE PUSH1 0x4 DUP1 CALLDATASIZE SUB DUP2 ADD SWAP1 PUSH2 0x1D9 SWAP2 SWAP1 PUSH2 0x9D3 JUMP JUMPDEST PUSH2 0x82D JUMP JUMPDEST PUSH1 0x40 MLOAD PUSH2 0x1EB SWAP2 SWAP1 PUSH2 0xA90 JUMP JUMPDEST PUSH1 0x40 MLOAD DUP1 SWAP2 SUB SWAP1 RETURN JUMPDEST PUSH1 0x60 PUSH1 0x1 ISZERO ISZERO PUSH1 0x2 PUSH1 0x0 CALLER PUSH20 0xFFFFFFFFFFFFFFFFFFFFFFFFFFFFFFFFFFFFFFFF AND PUSH20 0xFFFFFFFFFFFFFFFFFFFFFFFFFFFFFFFFFFFFFFFF AND DUP2 MSTORE PUSH1 0x20 ADD SWAP1 DUP2 MSTORE PUSH1 0x20 ADD PUSH1 0x0 KECCAK256 PUSH1 0x0 SWAP1 SLOAD SWAP1 PUSH2 0x100 EXP SWAP1 DIV PUSH1 0xFF AND ISZERO ISZERO EQ PUSH2 0x289 JUMPI PUSH1 0x40 MLOAD PUSH32 0x8C379A000000000000000000000000000000000000000000000000000000000 DUP2 MSTORE PUSH1 0x4 ADD PUSH2 0x280 SWAP1 PUSH2 0xC91 JUMP JUMPDEST PUSH1 0x40 MLOAD DUP1 SWAP2 SUB SWAP1 REVERT JUMPDEST DUP2 PUSH1 0x1 PUSH1 0x0 CALLER PUSH20 0xFFFFFFFFFFFFFFFFFFFFFFFFFFFFFFFFFFFFFFFF AND PUSH20 0xFFFFFFFFFFFFFFFFFFFFFFFFFFFFFFFFFFFFFFFF AND DUP2 MSTORE PUSH1 0x20 ADD SWAP1 DUP2 MSTORE PUSH1 0x20 ADD PUSH1 0x0 KECCAK256 SLOAD LT ISZERO PUSH2 0x30B JUMPI PUSH1 0x40 MLOAD PUSH32 0x8C379A000000000000000000000000000000000000000000000000000000000 DUP2 MSTORE PUSH1 0x4 ADD PUSH2 0x302 SWAP1 PUSH2 0xCFD JUMP JUMPDEST PUSH1 0x40 MLOAD DUP1 SWAP2 SUB SWAP1 REVERT JUMPDEST DUP2 PUSH1 0x1 PUSH1 0x0 CALLER PUSH20 0xFFFFFFFFFFFFFFFFFFFFFFFFFFFFFFFFFFFFFFFF AND PUSH20 0xFFFFFFFFFFFFFFFFFFFFFFFFFFFFFFFFFFFFFFFF AND DUP2 MSTORE PUSH1 0x20 ADD SWAP1 DUP2 MSTORE PUSH1 0x20 ADD PUSH1 0x0 KECCAK256 PUSH1 0x0 DUP3 DUP3 SLOAD PUSH2 0x35A SWAP2 SWAP1 PUSH2 0xD4C JUMP JUMPDEST SWAP3 POP POP DUP2 SWAP1 SSTORE POP PUSH1 0x40 MLOAD DUP1 PUSH1 0x40 ADD PUSH1 0x40 MSTORE DUP1 PUSH1 0x13 DUP2 MSTORE PUSH1 0x20 ADD PUSH32 0x5769746864726177207375636365737366756C00000000000000000000000000 DUP2 MSTORE POP SWAP1 POP SWAP2 SWAP1 POP JUMP JUMPDEST PUSH1 0x0 DUP1 SLOAD SWAP1 PUSH2 0x100 EXP SWAP1 DIV PUSH20 0xFFFFFFFFFFFFFFFFFFFFFFFFFFFFFFFFFFFFFFFF AND DUP2 JUMP JUMPDEST PUSH1 0x60 PUSH1 0x0 ISZERO ISZERO PUSH1 0x2 PUSH1 0x0 DUP5 PUSH20 0xFFFFFFFFFFFFFFFFFFFFFFFFFFFFFFFFFFFFFFFF AND PUSH20 0xFFFFFFFFFFFFFFFFFFFFFFFFFFFFFFFFFFFFFFFF AND DUP2 MSTORE PUSH1 0x20 ADD SWAP1 DUP2 MSTORE PUSH1 0x20 ADD PUSH1 0x0 KECCAK256 PUSH1 0x0 SWAP1 SLOAD SWAP1 PUSH2 0x100 EXP SWAP1 DIV PUSH1 0xFF AND ISZERO ISZERO EQ PUSH2 0x457 JUMPI PUSH1 0x40 MLOAD PUSH32 0x8C379A000000000000000000000000000000000000000000000000000000000 DUP2 MSTORE PUSH1 0x4 ADD PUSH2 0x44E SWAP1 PUSH2 0xDCC JUMP JUMPDEST PUSH1 0x40 MLOAD DUP1 SWAP2 SUB SWAP1 REVERT JUMPDEST PUSH1 0x0 PUSH1 0x1 PUSH1 0x0 DUP5 PUSH20 0xFFFFFFFFFFFFFFFFFFFFFFFFFFFFFFFFFFFFFFFF AND PUSH20 0xFFFFFFFFFFFFFFFFFFFFFFFFFFFFFFFFFFFFFFFF AND DUP2 MSTORE PUSH1 0x20 ADD SWAP1 DUP2 MSTORE PUSH1 0x20 ADD PUSH1 0x0 KECCAK256 DUP2 SWAP1 SSTORE POP PUSH1 0x1 PUSH1 0x2 PUSH1 0x0 DUP5 PUSH20 0xFFFFFFFFFFFFFFFFFFFFFFFFFFFFFFFFFFFFFFFF AND PUSH20 0xFFFFFFFFFFFFFFFFFFFFFFFFFFFFFFFFFFFFFFFF AND DUP2 MSTORE PUSH1 0x20 ADD SWAP1 DUP2 MSTORE PUSH1 0x20 ADD PUSH1 0x0 KECCAK256 PUSH1 0x0 PUSH2 0x100 EXP DUP2 SLOAD DUP2 PUSH1 0xFF MUL NOT AND SWAP1 DUP4 ISZERO ISZERO MUL OR SWAP1 SSTORE POP PUSH1 0x40 MLOAD DUP1 PUSH1 0x40 ADD PUSH1 0x40 MSTORE DUP1 PUSH1 0x1C DUP2 MSTORE PUSH1 0x20 ADD PUSH32 0x4163636F756E742043726561746564205375636365737366756C6C7900000000 DUP2 MSTORE POP SWAP1 POP SWAP2 SWAP1 POP JUMP JUMPDEST PUSH1 0x60 PUSH1 0x1 ISZERO ISZERO PUSH1 0x2 PUSH1 0x0 CALLER PUSH20 0xFFFFFFFFFFFFFFFFFFFFFFFFFFFFFFFFFFFFFFFF AND PUSH20 0xFFFFFFFFFFFFFFFFFFFFFFFFFFFFFFFFFFFFFFFF AND DUP2 MSTORE PUSH1 0x20 ADD SWAP1 DUP2 MSTORE PUSH1 0x20 ADD PUSH1 0x0 KECCAK256 PUSH1 0x0 SWAP1 SLOAD SWAP1 PUSH2 0x100 EXP SWAP1 DIV PUSH1 0xFF AND ISZERO ISZERO EQ PUSH2 0x5C6 JUMPI PUSH1 0x40 MLOAD PUSH32 0x8C379A000000000000000000000000000000000000000000000000000000000 DUP2 MSTORE PUSH1 0x4 ADD PUSH2 0x5BD SWAP1 PUSH2 0xC91 JUMP JUMPDEST PUSH1 0x40 MLOAD DUP1 SWAP2 SUB SWAP1 REVERT JUMPDEST PUSH1 0x1 ISZERO ISZERO PUSH1 0x2 PUSH1 0x0 DUP6 PUSH20 0xFFFFFFFFFFFFFFFFFFFFFFFFFFFFFFFFFFFFFFFF AND PUSH20 0xFFFFFFFFFFFFFFFFFFFFFFFFFFFFFFFFFFFFFFFF AND DUP2 MSTORE PUSH1 0x20 ADD SWAP1 DUP2 MSTORE PUSH1 0x20 ADD PUSH1 0x0 KECCAK256 PUSH1 0x0 SWAP1 SLOAD SWAP1 PUSH2 0x100 EXP SWAP1 DIV PUSH1 0xFF AND ISZERO ISZERO EQ PUSH2 0x659 JUMPI PUSH1 0x40 MLOAD PUSH32 0x8C379A000000000000000000000000000000000000000000000000000000000 DUP2 MSTORE PUSH1 0x4 ADD PUSH2 0x650 SWAP1 PUSH2 0xC91 JUMP JUMPDEST PUSH1 0x40 MLOAD DUP1 SWAP2 SUB SWAP1 REVERT JUMPDEST DUP2 PUSH1 0x1 PUSH1 0x0 CALLER PUSH20 0xFFFFFFFFFFFFFFFFFFFFFFFFFFFFFFFFFFFFFFFF AND PUSH20 0xFFFFFFFFFFFFFFFFFFFFFFFFFFFFFFFFFFFFFFFF AND DUP2 MSTORE PUSH1 0x20 ADD SWAP1 DUP2 MSTORE PUSH1 0x20 ADD PUSH1 0x0 KECCAK256 SLOAD GT PUSH2 0x6DA JUMPI PUSH1 0x40 MLOAD PUSH32 0x8C379A000000000000000000000000000000000000000000000000000000000 DUP2 MSTORE PUSH1 0x4 ADD PUSH2 0x6D1 SWAP1 PUSH2 0xE38 JUMP JUMPDEST PUSH1 0x40 MLOAD DUP1 SWAP2 SUB SWAP1 REVERT JUMPDEST DUP2 PUSH1 0x1 PUSH1 0x0 CALLER PUSH20 0xFFFFFFFFFFFFFFFFFFFFFFFFFFFFFFFFFFFFFFFF AND PUSH20 0xFFFFFFFFFFFFFFFFFFFFFFFFFFFFFFFFFFFFFFFF AND DUP2 MSTORE PUSH1 0x20 ADD SWAP1 DUP2 MSTORE PUSH1 0x20 ADD PUSH1 0x0 KECCAK256 PUSH1 0x0 DUP3 DUP3 SLOAD PUSH2 0x729 SWAP2 SWAP1 PUSH2 0xD4C JUMP JUMPDEST SWAP3 POP POP DUP2 SWAP1 SSTORE POP DUP2 PUSH1 0x1 PUSH1 0x0 DUP6 PUSH20 0xFFFFFFFFFFFFFFFFFFFFFFFFFFFFFFFFFFFFFFFF AND PUSH20 0xFFFFFFFFFFFFFFFFFFFFFFFFFFFFFFFFFFFFFFFF AND DUP2 MSTORE PUSH1 0x20 ADD SWAP1 DUP2 MSTORE PUSH1 0x20 ADD PUSH1 0x0 KECCAK256 PUSH1 0x0 DUP3 DUP3 SLOAD PUSH2 0x77F SWAP2 SWAP1 PUSH2 0xE58 JUMP JUMPDEST SWAP3 POP POP DUP2 SWAP1 SSTORE POP PUSH1 0x40 MLOAD DUP1 PUSH1 0x40 ADD PUSH1 0x40 MSTORE DUP1 PUSH1 0x17 DUP2 MSTORE PUSH1 0x20 ADD PUSH32 0x5472616E736665726564205375636365737366756C6C79000000000000000000 DUP2 MSTORE POP SWAP1 POP SWAP3 SWAP2 POP POP JUMP JUMPDEST PUSH1 0x2 PUSH1 0x20 MSTORE DUP1 PUSH1 0x0 MSTORE PUSH1 0x40 PUSH1 0x0 KECCAK256 PUSH1 0x0 SWAP2 POP SLOAD SWAP1 PUSH2 0x100 EXP SWAP1 DIV PUSH1 0xFF AND DUP2 JUMP JUMPDEST PUSH1 0x0 PUSH1 0x1 PUSH1 0x0 DUP4 PUSH20 0xFFFFFFFFFFFFFFFFFFFFFFFFFFFFFFFFFFFFFFFF AND PUSH20 0xFFFFFFFFFFFFFFFFFFFFFFFFFFFFFFFFFFFFFFFF AND DUP2 MSTORE PUSH1 0x20 ADD SWAP1 DUP2 MSTORE PUSH1 0x20 ADD PUSH1 0x0 KECCAK256 SLOAD SWAP1 POP SWAP2 SWAP1 POP JUMP JUMPDEST PUSH1 0x60 PUSH1 0x1 ISZERO ISZERO PUSH1 0x2 PUSH1 0x0 CALLER PUSH20 0xFFFFFFFFFFFFFFFFFFFFFFFFFFFFFFFFFFFFFFFF AND PUSH20 0xFFFFFFFFFFFFFFFFFFFFFFFFFFFFFFFFFFFFFFFF AND DUP2 MSTORE PUSH1 0x20 ADD SWAP1 DUP2 MSTORE PUSH1 0x20 ADD PUSH1 0x0 KECCAK256 PUSH1 0x0 SWAP1 SLOAD SWAP1 PUSH2 0x100 EXP SWAP1 DIV PUSH1 0xFF AND ISZERO ISZERO EQ PUSH2 0x8C2 JUMPI PUSH1 0x40 MLOAD PUSH32 0x8C379A000000000000000000000000000000000000000000000000000000000 DUP2 MSTORE PUSH1 0x4 ADD PUSH2 0x8B9 SWAP1 PUSH2 0xC91 JUMP JUMPDEST PUSH1 0x40 MLOAD DUP1 SWAP2 SUB SWAP1 REVERT JUMPDEST PUSH1 0x0 DUP3 GT PUSH2 0x905 JUMPI PUSH1 0x40 MLOAD PUSH32 0x8C379A000000000000000000000000000000000000000000000000000000000 DUP2 MSTORE PUSH1 0x4 ADD PUSH2 0x8FC SWAP1 PUSH2 0xED8 JUMP JUMPDEST PUSH1 0x40 MLOAD DUP1 SWAP2 SUB SWAP1 REVERT JUMPDEST DUP2 PUSH1 0x1 PUSH1 0x0 CALLER PUSH20 0xFFFFFFFFFFFFFFFFFFFFFFFFFFFFFFFFFFFFFFFF AND PUSH20 0xFFFFFFFFFFFFFFFFFFFFFFFFFFFFFFFFFFFFFFFF AND DUP2 MSTORE PUSH1 0x20 ADD SWAP1 DUP2 MSTORE PUSH1 0x20 ADD PUSH1 0x0 KECCAK256 PUSH1 0x0 DUP3 DUP3 SLOAD PUSH2 0x954 SWAP2 SWAP1 PUSH2 0xE58 JUMP JUMPDEST SWAP3 POP POP DUP2 SWAP1 SSTORE POP PUSH1 0x40 MLOAD DUP1 PUSH1 0x40 ADD PUSH1 0x40 MSTORE DUP1 PUSH1 0x1D DUP2 MSTORE PUSH1 0x20 ADD PUSH32 0x416D6F756E74204465706F7369746564205375636365737366756C6C79000000 DUP2 MSTORE POP SWAP1 POP SWAP2 SWAP1 POP JUMP JUMPDEST PUSH1 0x0 DUP1 REVERT JUMPDEST PUSH1 0x0 DUP2 SWAP1 POP SWAP2 SWAP1 POP JUMP JUMPDEST PUSH2 0x9B0 DUP2 PUSH2 0x99D JUMP JUMPDEST DUP2 EQ PUSH2 0x9BB JUMPI PUSH1 0x0 DUP1 REVERT JUMPDEST POP JUMP JUMPDEST PUSH1 0x0 DUP2 CALLDATALOAD SWAP1 POP PUSH2 0x9CD DUP2 PUSH2 0x9A7 JUMP JUMPDEST SWAP3 SWAP2 POP POP JUMP JUMPDEST PUSH1 0x0 PUSH1 0x20 DUP3 DUP5 SUB SLT ISZERO PUSH2 0x9E9 JUMPI PUSH2 0x9E8 PUSH2 0x998 JUMP JUMPDEST JUMPDEST PUSH1 0x0 PUSH2 0x9F7 DUP5 DUP3 DUP6 ADD PUSH2 0x9BE JUMP JUMPDEST SWAP2 POP POP SWAP3 SWAP2 POP POP JUMP JUMPDEST PUSH1 0x0 DUP2 MLOAD SWAP1 POP SWAP2 SWAP1 POP JUMP JUMPDEST PUSH1 0x0 DUP3 DUP3 MSTORE PUSH1 0x20 DUP3 ADD SWAP1 POP SWAP3 SWAP2 POP POP JUMP JUMPDEST PUSH1 0x0 JUMPDEST DUP4 DUP2 LT ISZERO PUSH2 0xA3A JUMPI DUP1 DUP3 ADD MLOAD DUP2 DUP5 ADD MSTORE PUSH1 0x20 DUP2 ADD SWAP1 POP PUSH2 0xA1F JUMP JUMPDEST PUSH1 0x0 DUP5 DUP5 ADD MSTORE POP POP POP POP JUMP JUMPDEST PUSH1 0x0 PUSH1 0x1F NOT PUSH1 0x1F DUP4 ADD AND SWAP1 POP SWAP2 SWAP1 POP JUMP JUMPDEST PUSH1 0x0 PUSH2 0xA62 DUP3 PUSH2 0xA00 JUMP JUMPDEST PUSH2 0xA6C DUP2 DUP6 PUSH2 0xA0B JUMP JUMPDEST SWAP4 POP PUSH2 0xA7C DUP2 DUP6 PUSH1 0x20 DUP7 ADD PUSH2 0xA1C JUMP JUMPDEST PUSH2 0xA85 DUP2 PUSH2 0xA46 JUMP JUMPDEST DUP5 ADD SWAP2 POP POP SWAP3 SWAP2 POP POP JUMP JUMPDEST PUSH1 0x0 PUSH1 0x20 DUP3 ADD SWAP1 POP DUP2 DUP2 SUB PUSH1 0x0 DUP4 ADD MSTORE PUSH2 0xAAA DUP2 DUP5 PUSH2 0xA57 JUMP JUMPDEST SWAP1 POP SWAP3 SWAP2 POP POP JUMP JUMPDEST PUSH1 0x0 PUSH20 0xFFFFFFFFFFFFFFFFFFFFFFFFFFFFFFFFFFFFFFFF DUP3 AND SWAP1 POP SWAP2 SWAP1 POP JUMP JUMPDEST PUSH1 0x0 PUSH2 0xADD DUP3 PUSH2 0xAB2 JUMP JUMPDEST SWAP1 POP SWAP2 SWAP1 POP JUMP JUMPDEST PUSH2 0xAED DUP2 PUSH2 0xAD2 JUMP JUMPDEST DUP3 MSTORE POP POP JUMP JUMPDEST PUSH1 0x0 PUSH1 0x20 DUP3 ADD SWAP1 POP PUSH2 0xB08 PUSH1 0x0 DUP4 ADD DUP5 PUSH2 0xAE4 JUMP JUMPDEST SWAP3 SWAP2 POP POP JUMP JUMPDEST PUSH2 0xB17 DUP2 PUSH2 0xAD2 JUMP JUMPDEST DUP2 EQ PUSH2 0xB22 JUMPI PUSH1 0x0 DUP1 REVERT JUMPDEST POP JUMP JUMPDEST PUSH1 0x0 DUP2 CALLDATALOAD SWAP1 POP PUSH2 0xB34 DUP2 PUSH2 0xB0E JUMP JUMPDEST SWAP3 SWAP2 POP POP JUMP JUMPDEST PUSH1 0x0 PUSH1 0x20 DUP3 DUP5 SUB SLT ISZERO PUSH2 0xB50 JUMPI PUSH2 0xB4F PUSH2 0x998 JUMP JUMPDEST JUMPDEST PUSH1 0x0 PUSH2 0xB5E DUP5 DUP3 DUP6 ADD PUSH2 0xB25 JUMP JUMPDEST SWAP2 POP POP SWAP3 SWAP2 POP POP JUMP JUMPDEST PUSH1 0x0 PUSH2 0xB72 DUP3 PUSH2 0xAB2 JUMP JUMPDEST SWAP1 POP SWAP2 SWAP1 POP JUMP JUMPDEST PUSH2 0xB82 DUP2 PUSH2 0xB67 JUMP JUMPDEST DUP2 EQ PUSH2 0xB8D JUMPI PUSH1 0x0 DUP1 REVERT JUMPDEST POP JUMP JUMPDEST PUSH1 0x0 DUP2 CALLDATALOAD SWAP1 POP PUSH2 0xB9F DUP2 PUSH2 0xB79 JUMP JUMPDEST SWAP3 SWAP2 POP POP JUMP JUMPDEST PUSH1 0x0 DUP1 PUSH1 0x40 DUP4 DUP6 SUB SLT ISZERO PUSH2 0xBBC JUMPI PUSH2 0xBBB PUSH2 0x998 JUMP JUMPDEST JUMPDEST PUSH1 0x0 PUSH2 0xBCA DUP6 DUP3 DUP7 ADD PUSH2 0xB90 JUMP JUMPDEST SWAP3 POP POP PUSH1 0x20 PUSH2 0xBDB DUP6 DUP3 DUP7 ADD PUSH2 0x9BE JUMP JUMPDEST SWAP2 POP POP SWAP3 POP SWAP3 SWAP1 POP JUMP JUMPDEST PUSH1 0x0 DUP2 ISZERO ISZERO SWAP1 POP SWAP2 SWAP1 POP JUMP JUMPDEST PUSH2 0xBFA DUP2 PUSH2 0xBE5 JUMP JUMPDEST DUP3 MSTORE POP POP JUMP JUMPDEST PUSH1 0x0 PUSH1 0x20 DUP3 ADD SWAP1 POP PUSH2 0xC15 PUSH1 0x0 DUP4 ADD DUP5 PUSH2 0xBF1 JUMP JUMPDEST SWAP3 SWAP2 POP POP JUMP JUMPDEST PUSH2 0xC24 DUP2 PUSH2 0x99D JUMP JUMPDEST DUP3 MSTORE POP POP JUMP JUMPDEST PUSH1 0x0 PUSH1 0x20 DUP3 ADD SWAP1 POP PUSH2 0xC3F PUSH1 0x0 DUP4 ADD DUP5 PUSH2 0xC1B JUMP JUMPDEST SWAP3 SWAP2 POP POP JUMP JUMPDEST PUSH32 0x4163636F756E74206E6F74206372656174656400000000000000000000000000 PUSH1 0x0 DUP3 ADD MSTORE POP JUMP JUMPDEST PUSH1 0x0 PUSH2 0xC7B PUSH1 0x13 DUP4 PUSH2 0xA0B JUMP JUMPDEST SWAP2 POP PUSH2 0xC86 DUP3 PUSH2 0xC45 JUMP JUMPDEST PUSH1 0x20 DUP3 ADD SWAP1 POP SWAP2 SWAP1 POP JUMP JUMPDEST PUSH1 0x0 PUSH1 0x20 DUP3 ADD SWAP1 POP DUP2 DUP2 SUB PUSH1 0x0 DUP4 ADD MSTORE PUSH2 0xCAA DUP2 PUSH2 0xC6E JUMP JUMPDEST SWAP1 POP SWAP2 SWAP1 POP JUMP JUMPDEST PUSH32 0x496E73756666696369656E742046756E64730000000000000000000000000000 PUSH1 0x0 DUP3 ADD MSTORE POP JUMP JUMPDEST PUSH1 0x0 PUSH2 0xCE7 PUSH1 0x12 DUP4 PUSH2 0xA0B JUMP JUMPDEST SWAP2 POP PUSH2 0xCF2 DUP3 PUSH2 0xCB1 JUMP JUMPDEST PUSH1 0x20 DUP3 ADD SWAP1 POP SWAP2 SWAP1 POP JUMP JUMPDEST PUSH1 0x0 PUSH1 0x20 DUP3 ADD SWAP1 POP DUP2 DUP2 SUB PUSH1 0x0 DUP4 ADD MSTORE PUSH2 0xD16 DUP2 PUSH2 0xCDA JUMP JUMPDEST SWAP1 POP SWAP2 SWAP1 POP JUMP JUMPDEST PUSH32 0x4E487B7100000000000000000000000000000000000000000000000000000000 PUSH1 0x0 MSTORE PUSH1 0x11 PUSH1 0x4 MSTORE PUSH1 0x24 PUSH1 0x0 REVERT JUMPDEST PUSH1 0x0 PUSH2 0xD57 DUP3 PUSH2 0x99D JUMP JUMPDEST SWAP2 POP PUSH2 0xD62 DUP4 PUSH2 0x99D JUMP JUMPDEST SWAP3 POP DUP3 DUP3 SUB SWAP1 POP DUP2 DUP2 GT ISZERO PUSH2 0xD7A JUMPI PUSH2 0xD79 PUSH2 0xD1D JUMP JUMPDEST JUMPDEST SWAP3 SWAP2 POP POP JUMP JUMPDEST PUSH32 0x4163636F756E7420616C72656164792063726561746564000000000000000000 PUSH1 0x0 DUP3 ADD MSTORE POP JUMP JUMPDEST PUSH1 0x0 PUSH2 0xDB6 PUSH1 0x17 DUP4 PUSH2 0xA0B JUMP JUMPDEST SWAP2 POP PUSH2 0xDC1 DUP3 PUSH2 0xD80 JUMP JUMPDEST PUSH1 0x20 DUP3 ADD SWAP1 POP SWAP2 SWAP1 POP JUMP JUMPDEST PUSH1 0x0 PUSH1 0x20 DUP3 ADD SWAP1 POP DUP2 DUP2 SUB PUSH1 0x0 DUP4 ADD MSTORE PUSH2 0xDE5 DUP2 PUSH2 0xDA9 JUMP JUMPDEST SWAP1 POP SWAP2 SWAP1 POP JUMP JUMPDEST PUSH32 0x496E73756666696369656E742042616C616E6365000000000000000000000000 PUSH1 0x0 DUP3 ADD MSTORE POP JUMP JUMPDEST PUSH1 0x0 PUSH2 0xE22 PUSH1 0x14 DUP4 PUSH2 0xA0B JUMP JUMPDEST SWAP2 POP PUSH2 0xE2D DUP3 PUSH2 0xDEC JUMP JUMPDEST PUSH1 0x20 DUP3 ADD SWAP1 POP SWAP2 SWAP1 POP JUMP JUMPDEST PUSH1 0x0 PUSH1 0x20 DUP3 ADD SWAP1 POP DUP2 DUP2 SUB PUSH1 0x0 DUP4 ADD MSTORE PUSH2 0xE51 DUP2 PUSH2 0xE15 JUMP JUMPDEST SWAP1 POP SWAP2 SWAP1 POP JUMP JUMPDEST PUSH1 0x0 PUSH2 0xE63 DUP3 PUSH2 0x99D JUMP JUMPDEST SWAP2 POP PUSH2 0xE6E DUP4 PUSH2 0x99D JUMP JUMPDEST SWAP3 POP DUP3 DUP3 ADD SWAP1 POP DUP1 DUP3 GT ISZERO PUSH2 0xE86 JUMPI PUSH2 0xE85 PUSH2 0xD1D JUMP JUMPDEST JUMPDEST SWAP3 SWAP2 POP POP JUMP JUMPDEST PUSH32 0x416D6F756E74206465706F736974696E67206973205A65726F00000000000000 PUSH1 0x0 DUP3 ADD MSTORE POP JUMP JUMPDEST PUSH1 0x0 PUSH2 0xEC2 PUSH1 0x19 DUP4 PUSH2 0xA0B JUMP JUMPDEST SWAP2 POP PUSH2 0xECD DUP3 PUSH2 0xE8C JUMP JUMPDEST PUSH1 0x20 DUP3 ADD SWAP1 POP SWAP2 SWAP1 POP JUMP JUMPDEST PUSH1 0x0 PUSH1 0x20 DUP3 ADD SWAP1 POP DUP2 DUP2 SUB PUSH1 0x0 DUP4 ADD MSTORE PUSH2 0xEF1 DUP2 PUSH2 0xEB5 JUMP JUMPDEST SWAP1 POP SWAP2 SWAP1 POP JUMP INVALID LOG2 PUSH5 0x6970667358 0x22 SLT KECCAK256 SWAP1 PUSH3 0x4B3FDC 0xB4 DUP16 0x28 SSTORE MSIZE 0x2F 0xC9 LT PUSH15 0xA785CBC367BD57B7634BF4516F2B6D 0xB4 AND 0xD6 PUSH5 0x736F6C6343 STOP ADDMOD SLT STOP CALLER "
				},
				"gasEstimates": {
					"creation": {
						"codeDepositCost": "777200",
						"executionCost": "25078",
						"totalCost": "802278"
					},
					"external": {
						"createAccount(address)": "infinite",
						"deposit(uint256)": "infinite",
						"owner()": "2534",
						"transfer(address,uint256)": "infinite",
						"userAccountBalance(address)": "2885",
						"userExist(address)": "2867",
						"withdraw(uint256)": "infinite"
					}
				},
				"methodIdentifiers": {
					"createAccount(address)": "9859387b",
					"deposit(uint256)": "b6b55f25",
					"owner()": "8da5cb5b",
					"transfer(address,uint256)": "a9059cbb",
					"userAccountBalance(address)": "b5815d13",
					"userExist(address)": "ab7e7cf6",
					"withdraw(uint256)": "2e1a7d4d"
				}
			},
			"storageLayout": {
				"storage": [
					{
						"astId": 3,
						"contract": "contracts/Banking.sol:Banking",
						"label": "owner",
						"offset": 0,
						"slot": "0",
						"type": "t_address"
					},
					{
						"astId": 16,
						"contract": "contracts/Banking.sol:Banking",
						"label": "userAccount",
						"offset": 0,
						"slot": "1",
						"type": "t_mapping(t_address,t_uint256)"
					},
					{
						"astId": 20,
						"contract": "contracts/Banking.sol:Banking",
						"label": "userExist",
						"offset": 0,
						"slot": "2",
						"type": "t_mapping(t_address,t_bool)"
					}
				],
				"types": {
					"t_address": {
						"encoding": "inplace",
						"label": "address",
						"numberOfBytes": "20"
					},
					"t_bool": {
						"encoding": "inplace",
						"label": "bool",
						"numberOfBytes": "1"
					},
					"t_mapping(t_address,t_bool)": {
						"encoding": "mapping",
						"key": "t_address",
						"label": "mapping(address => bool)",
						"numberOfBytes": "32",
						"value": "t_bool"
					},
					"t_mapping(t_address,t_uint256)": {
						"encoding": "mapping",
						"key": "t_address",
						"label": "mapping(address => uint256)",
						"numberOfBytes": "32",
						"value": "t_uint256"
					},
					"t_uint256": {
						"encoding": "inplace",
						"label": "uint256",
						"numberOfBytes": "32"
					}
				}
			},
			"userdoc": {
				"kind": "user",
				"methods": {},
				"version": 1
			}
		}
	}
}