{
	"contracts/mappings.sol": {
		"Nestedmapping": {
			"abi": [
				{
					"inputs": [
						{
							"internalType": "address",
							"name": "_add",
							"type": "address"
						},
						{
							"internalType": "string",
							"name": "_str",
							"type": "string"
						}
					],
					"name": "get",
					"outputs": [
						{
							"internalType": "uint256",
							"name": "",
							"type": "uint256"
						}
					],
					"stateMutability": "view",
					"type": "function"
				},
				{
					"inputs": [
						{
							"internalType": "address",
							"name": "",
							"type": "address"
						},
						{
							"internalType": "string",
							"name": "",
							"type": "string"
						}
					],
					"name": "mm",
					"outputs": [
						{
							"internalType": "uint256",
							"name": "",
							"type": "uint256"
						}
					],
					"stateMutability": "view",
					"type": "function"
				},
				{
					"inputs": [
						{
							"internalType": "address",
							"name": "_add",
							"type": "address"
						},
						{
							"internalType": "string",
							"name": "_str",
							"type": "string"
						},
						{
							"internalType": "uint256",
							"name": "_i",
							"type": "uint256"
						}
					],
					"name": "set",
					"outputs": [],
					"stateMutability": "nonpayable",
					"type": "function"
				}
			],
			"devdoc": {
				"kind": "dev",
				"methods": {},
				"version": 1
			},
			"evm": {
				"assembly": "    /* \"contracts/mappings.sol\":431:740  contract Nestedmapping{... */\n  mstore(0x40, 0x80)\n  callvalue\n  dup1\n  iszero\n  tag_1\n  jumpi\n  0x00\n  dup1\n  revert\ntag_1:\n  pop\n  dataSize(sub_0)\n  dup1\n  dataOffset(sub_0)\n  0x00\n  codecopy\n  0x00\n  return\nstop\n\nsub_0: assembly {\n        /* \"contracts/mappings.sol\":431:740  contract Nestedmapping{... */\n      mstore(0x40, 0x80)\n      callvalue\n      dup1\n      iszero\n      tag_1\n      jumpi\n      0x00\n      dup1\n      revert\n    tag_1:\n      pop\n      jumpi(tag_2, lt(calldatasize, 0x04))\n      shr(0xe0, calldataload(0x00))\n      dup1\n      0x706e88ea\n      eq\n      tag_3\n      jumpi\n      dup1\n      0xc03e8f64\n      eq\n      tag_4\n      jumpi\n      dup1\n      0xfc2525ab\n      eq\n      tag_5\n      jumpi\n    tag_2:\n      0x00\n      dup1\n      revert\n        /* \"contracts/mappings.sol\":460:509  mapping(address=>mapping(string=>uint)) public mm */\n    tag_3:\n      tag_6\n      0x04\n      dup1\n      calldatasize\n      sub\n      dup2\n      add\n      swap1\n      tag_7\n      swap2\n      swap1\n      tag_8\n      jump\t// in\n    tag_7:\n      tag_9\n      jump\t// in\n    tag_6:\n      mload(0x40)\n      tag_10\n      swap2\n      swap1\n      tag_11\n      jump\t// in\n    tag_10:\n      mload(0x40)\n      dup1\n      swap2\n      sub\n      swap1\n      return\n        /* \"contracts/mappings.sol\":516:612  function set(address _add,string memory _str,uint _i) public{... */\n    tag_4:\n      tag_12\n      0x04\n      dup1\n      calldatasize\n      sub\n      dup2\n      add\n      swap1\n      tag_13\n      swap2\n      swap1\n      tag_14\n      jump\t// in\n    tag_13:\n      tag_15\n      jump\t// in\n    tag_12:\n      stop\n        /* \"contracts/mappings.sol\":617:728  function get(address _add,string memory _str) public  view returns(uint){... */\n    tag_5:\n      tag_16\n      0x04\n      dup1\n      calldatasize\n      sub\n      dup2\n      add\n      swap1\n      tag_17\n      swap2\n      swap1\n      tag_8\n      jump\t// in\n    tag_17:\n      tag_18\n      jump\t// in\n    tag_16:\n      mload(0x40)\n      tag_19\n      swap2\n      swap1\n      tag_11\n      jump\t// in\n    tag_19:\n      mload(0x40)\n      dup1\n      swap2\n      sub\n      swap1\n      return\n        /* \"contracts/mappings.sol\":460:509  mapping(address=>mapping(string=>uint)) public mm */\n    tag_9:\n      mstore(0x20, 0x00)\n      dup2\n      0x00\n      mstore\n      keccak256(0x00, 0x40)\n      dup2\n      dup1\n      mload\n      0x20\n      dup2\n      add\n      dup3\n      add\n      dup1\n      mload\n      dup5\n      dup3\n      mstore\n      0x20\n      dup4\n      add\n      0x20\n      dup6\n      add\n      keccak256\n      dup2\n      dup4\n      mstore\n      dup1\n      swap6\n      pop\n      pop\n      pop\n      pop\n      pop\n      pop\n      0x00\n      swap2\n      pop\n      swap2\n      pop\n      pop\n      sload\n      dup2\n      jump\t// out\n        /* \"contracts/mappings.sol\":516:612  function set(address _add,string memory _str,uint _i) public{... */\n    tag_15:\n        /* \"contracts/mappings.sol\":602:604  _i */\n      dup1\n        /* \"contracts/mappings.sol\":587:589  mm */\n      0x00\n        /* \"contracts/mappings.sol\":587:595  mm[_add] */\n      dup1\n        /* \"contracts/mappings.sol\":590:594  _add */\n      dup6\n        /* \"contracts/mappings.sol\":587:595  mm[_add] */\n      0xffffffffffffffffffffffffffffffffffffffff\n      and\n      0xffffffffffffffffffffffffffffffffffffffff\n      and\n      dup2\n      mstore\n      0x20\n      add\n      swap1\n      dup2\n      mstore\n      0x20\n      add\n      0x00\n      keccak256\n        /* \"contracts/mappings.sol\":596:600  _str */\n      dup4\n        /* \"contracts/mappings.sol\":587:601  mm[_add][_str] */\n      mload(0x40)\n      tag_21\n      swap2\n      swap1\n      tag_22\n      jump\t// in\n    tag_21:\n      swap1\n      dup2\n      mstore\n      0x20\n      add\n      mload(0x40)\n      dup1\n      swap2\n      sub\n      swap1\n      keccak256\n        /* \"contracts/mappings.sol\":587:604  mm[_add][_str]=_i */\n      dup2\n      swap1\n      sstore\n      pop\n        /* \"contracts/mappings.sol\":516:612  function set(address _add,string memory _str,uint _i) public{... */\n      pop\n      pop\n      pop\n      jump\t// out\n        /* \"contracts/mappings.sol\":617:728  function get(address _add,string memory _str) public  view returns(uint){... */\n    tag_18:\n        /* \"contracts/mappings.sol\":684:688  uint */\n      0x00\n        /* \"contracts/mappings.sol\":707:709  mm */\n      dup1\n        /* \"contracts/mappings.sol\":707:715  mm[_add] */\n      0x00\n        /* \"contracts/mappings.sol\":710:714  _add */\n      dup5\n        /* \"contracts/mappings.sol\":707:715  mm[_add] */\n      0xffffffffffffffffffffffffffffffffffffffff\n      and\n      0xffffffffffffffffffffffffffffffffffffffff\n      and\n      dup2\n      mstore\n      0x20\n      add\n      swap1\n      dup2\n      mstore\n      0x20\n      add\n      0x00\n      keccak256\n        /* \"contracts/mappings.sol\":716:720  _str */\n      dup3\n        /* \"contracts/mappings.sol\":707:721  mm[_add][_str] */\n      mload(0x40)\n      tag_24\n      swap2\n      swap1\n      tag_22\n      jump\t// in\n    tag_24:\n      swap1\n      dup2\n      mstore\n      0x20\n      add\n      mload(0x40)\n      dup1\n      swap2\n      sub\n      swap1\n      keccak256\n      sload\n        /* \"contracts/mappings.sol\":700:721  return mm[_add][_str] */\n      swap1\n      pop\n        /* \"contracts/mappings.sol\":617:728  function get(address _add,string memory _str) public  view returns(uint){... */\n      swap3\n      swap2\n      pop\n      pop\n      jump\t// out\n        /* \"#utility.yul\":7:82   */\n    tag_25:\n        /* \"#utility.yul\":40:46   */\n      0x00\n        /* \"#utility.yul\":73:75   */\n      0x40\n        /* \"#utility.yul\":67:76   */\n      mload\n        /* \"#utility.yul\":57:76   */\n      swap1\n      pop\n        /* \"#utility.yul\":7:82   */\n      swap1\n      jump\t// out\n        /* \"#utility.yul\":88:205   */\n    tag_26:\n        /* \"#utility.yul\":197:198   */\n      0x00\n        /* \"#utility.yul\":194:195   */\n      dup1\n        /* \"#utility.yul\":187:199   */\n      revert\n        /* \"#utility.yul\":211:328   */\n    tag_27:\n        /* \"#utility.yul\":320:321   */\n      0x00\n        /* \"#utility.yul\":317:318   */\n      dup1\n        /* \"#utility.yul\":310:322   */\n      revert\n        /* \"#utility.yul\":334:460   */\n    tag_28:\n        /* \"#utility.yul\":371:378   */\n      0x00\n        /* \"#utility.yul\":411:453   */\n      0xffffffffffffffffffffffffffffffffffffffff\n        /* \"#utility.yul\":404:409   */\n      dup3\n        /* \"#utility.yul\":400:454   */\n      and\n        /* \"#utility.yul\":389:454   */\n      swap1\n      pop\n        /* \"#utility.yul\":334:460   */\n      swap2\n      swap1\n      pop\n      jump\t// out\n        /* \"#utility.yul\":466:562   */\n    tag_29:\n        /* \"#utility.yul\":503:510   */\n      0x00\n        /* \"#utility.yul\":532:556   */\n      tag_56\n        /* \"#utility.yul\":550:555   */\n      dup3\n        /* \"#utility.yul\":532:556   */\n      tag_28\n      jump\t// in\n    tag_56:\n        /* \"#utility.yul\":521:556   */\n      swap1\n      pop\n        /* \"#utility.yul\":466:562   */\n      swap2\n      swap1\n      pop\n      jump\t// out\n        /* \"#utility.yul\":568:690   */\n    tag_30:\n        /* \"#utility.yul\":641:665   */\n      tag_58\n        /* \"#utility.yul\":659:664   */\n      dup2\n        /* \"#utility.yul\":641:665   */\n      tag_29\n      jump\t// in\n    tag_58:\n        /* \"#utility.yul\":634:639   */\n      dup2\n        /* \"#utility.yul\":631:666   */\n      eq\n        /* \"#utility.yul\":621:684   */\n      tag_59\n      jumpi\n        /* \"#utility.yul\":680:681   */\n      0x00\n        /* \"#utility.yul\":677:678   */\n      dup1\n        /* \"#utility.yul\":670:682   */\n      revert\n        /* \"#utility.yul\":621:684   */\n    tag_59:\n        /* \"#utility.yul\":568:690   */\n      pop\n      jump\t// out\n        /* \"#utility.yul\":696:835   */\n    tag_31:\n        /* \"#utility.yul\":742:747   */\n      0x00\n        /* \"#utility.yul\":780:786   */\n      dup2\n        /* \"#utility.yul\":767:787   */\n      calldataload\n        /* \"#utility.yul\":758:787   */\n      swap1\n      pop\n        /* \"#utility.yul\":796:829   */\n      tag_61\n        /* \"#utility.yul\":823:828   */\n      dup2\n        /* \"#utility.yul\":796:829   */\n      tag_30\n      jump\t// in\n    tag_61:\n        /* \"#utility.yul\":696:835   */\n      swap3\n      swap2\n      pop\n      pop\n      jump\t// out\n        /* \"#utility.yul\":841:958   */\n    tag_32:\n        /* \"#utility.yul\":950:951   */\n      0x00\n        /* \"#utility.yul\":947:948   */\n      dup1\n        /* \"#utility.yul\":940:952   */\n      revert\n        /* \"#utility.yul\":964:1081   */\n    tag_33:\n        /* \"#utility.yul\":1073:1074   */\n      0x00\n        /* \"#utility.yul\":1070:1071   */\n      dup1\n        /* \"#utility.yul\":1063:1075   */\n      revert\n        /* \"#utility.yul\":1087:1189   */\n    tag_34:\n        /* \"#utility.yul\":1128:1134   */\n      0x00\n        /* \"#utility.yul\":1179:1181   */\n      0x1f\n        /* \"#utility.yul\":1175:1182   */\n      not\n        /* \"#utility.yul\":1170:1172   */\n      0x1f\n        /* \"#utility.yul\":1163:1168   */\n      dup4\n        /* \"#utility.yul\":1159:1173   */\n      add\n        /* \"#utility.yul\":1155:1183   */\n      and\n        /* \"#utility.yul\":1145:1183   */\n      swap1\n      pop\n        /* \"#utility.yul\":1087:1189   */\n      swap2\n      swap1\n      pop\n      jump\t// out\n        /* \"#utility.yul\":1195:1375   */\n    tag_35:\n        /* \"#utility.yul\":1243:1320   */\n      0x4e487b7100000000000000000000000000000000000000000000000000000000\n        /* \"#utility.yul\":1240:1241   */\n      0x00\n        /* \"#utility.yul\":1233:1321   */\n      mstore\n        /* \"#utility.yul\":1340:1344   */\n      0x41\n        /* \"#utility.yul\":1337:1338   */\n      0x04\n        /* \"#utility.yul\":1330:1345   */\n      mstore\n        /* \"#utility.yul\":1364:1368   */\n      0x24\n        /* \"#utility.yul\":1361:1362   */\n      0x00\n        /* \"#utility.yul\":1354:1369   */\n      revert\n        /* \"#utility.yul\":1381:1662   */\n    tag_36:\n        /* \"#utility.yul\":1464:1491   */\n      tag_67\n        /* \"#utility.yul\":1486:1490   */\n      dup3\n        /* \"#utility.yul\":1464:1491   */\n      tag_34\n      jump\t// in\n    tag_67:\n        /* \"#utility.yul\":1456:1462   */\n      dup2\n        /* \"#utility.yul\":1452:1492   */\n      add\n        /* \"#utility.yul\":1594:1600   */\n      dup2\n        /* \"#utility.yul\":1582:1592   */\n      dup2\n        /* \"#utility.yul\":1579:1601   */\n      lt\n        /* \"#utility.yul\":1558:1576   */\n      0xffffffffffffffff\n        /* \"#utility.yul\":1546:1556   */\n      dup3\n        /* \"#utility.yul\":1543:1577   */\n      gt\n        /* \"#utility.yul\":1540:1602   */\n      or\n        /* \"#utility.yul\":1537:1625   */\n      iszero\n      tag_68\n      jumpi\n        /* \"#utility.yul\":1605:1623   */\n      tag_69\n      tag_35\n      jump\t// in\n    tag_69:\n        /* \"#utility.yul\":1537:1625   */\n    tag_68:\n        /* \"#utility.yul\":1645:1655   */\n      dup1\n        /* \"#utility.yul\":1641:1643   */\n      0x40\n        /* \"#utility.yul\":1634:1656   */\n      mstore\n        /* \"#utility.yul\":1424:1662   */\n      pop\n        /* \"#utility.yul\":1381:1662   */\n      pop\n      pop\n      jump\t// out\n        /* \"#utility.yul\":1668:1797   */\n    tag_37:\n        /* \"#utility.yul\":1702:1708   */\n      0x00\n        /* \"#utility.yul\":1729:1749   */\n      tag_71\n      tag_25\n      jump\t// in\n    tag_71:\n        /* \"#utility.yul\":1719:1749   */\n      swap1\n      pop\n        /* \"#utility.yul\":1758:1791   */\n      tag_72\n        /* \"#utility.yul\":1786:1790   */\n      dup3\n        /* \"#utility.yul\":1778:1784   */\n      dup3\n        /* \"#utility.yul\":1758:1791   */\n      tag_36\n      jump\t// in\n    tag_72:\n        /* \"#utility.yul\":1668:1797   */\n      swap2\n      swap1\n      pop\n      jump\t// out\n        /* \"#utility.yul\":1803:2111   */\n    tag_38:\n        /* \"#utility.yul\":1865:1869   */\n      0x00\n        /* \"#utility.yul\":1955:1973   */\n      0xffffffffffffffff\n        /* \"#utility.yul\":1947:1953   */\n      dup3\n        /* \"#utility.yul\":1944:1974   */\n      gt\n        /* \"#utility.yul\":1941:1997   */\n      iszero\n      tag_74\n      jumpi\n        /* \"#utility.yul\":1977:1995   */\n      tag_75\n      tag_35\n      jump\t// in\n    tag_75:\n        /* \"#utility.yul\":1941:1997   */\n    tag_74:\n        /* \"#utility.yul\":2015:2044   */\n      tag_76\n        /* \"#utility.yul\":2037:2043   */\n      dup3\n        /* \"#utility.yul\":2015:2044   */\n      tag_34\n      jump\t// in\n    tag_76:\n        /* \"#utility.yul\":2007:2044   */\n      swap1\n      pop\n        /* \"#utility.yul\":2099:2103   */\n      0x20\n        /* \"#utility.yul\":2093:2097   */\n      dup2\n        /* \"#utility.yul\":2089:2104   */\n      add\n        /* \"#utility.yul\":2081:2104   */\n      swap1\n      pop\n        /* \"#utility.yul\":1803:2111   */\n      swap2\n      swap1\n      pop\n      jump\t// out\n        /* \"#utility.yul\":2117:2263   */\n    tag_39:\n        /* \"#utility.yul\":2214:2220   */\n      dup3\n        /* \"#utility.yul\":2209:2212   */\n      dup2\n        /* \"#utility.yul\":2204:2207   */\n      dup4\n        /* \"#utility.yul\":2191:2221   */\n      calldatacopy\n        /* \"#utility.yul\":2255:2256   */\n      0x00\n        /* \"#utility.yul\":2246:2252   */\n      dup4\n        /* \"#utility.yul\":2241:2244   */\n      dup4\n        /* \"#utility.yul\":2237:2253   */\n      add\n        /* \"#utility.yul\":2230:2257   */\n      mstore\n        /* \"#utility.yul\":2117:2263   */\n      pop\n      pop\n      pop\n      jump\t// out\n        /* \"#utility.yul\":2269:2694   */\n    tag_40:\n        /* \"#utility.yul\":2347:2352   */\n      0x00\n        /* \"#utility.yul\":2372:2438   */\n      tag_79\n        /* \"#utility.yul\":2388:2437   */\n      tag_80\n        /* \"#utility.yul\":2430:2436   */\n      dup5\n        /* \"#utility.yul\":2388:2437   */\n      tag_38\n      jump\t// in\n    tag_80:\n        /* \"#utility.yul\":2372:2438   */\n      tag_37\n      jump\t// in\n    tag_79:\n        /* \"#utility.yul\":2363:2438   */\n      swap1\n      pop\n        /* \"#utility.yul\":2461:2467   */\n      dup3\n        /* \"#utility.yul\":2454:2459   */\n      dup2\n        /* \"#utility.yul\":2447:2468   */\n      mstore\n        /* \"#utility.yul\":2499:2503   */\n      0x20\n        /* \"#utility.yul\":2492:2497   */\n      dup2\n        /* \"#utility.yul\":2488:2504   */\n      add\n        /* \"#utility.yul\":2537:2540   */\n      dup5\n        /* \"#utility.yul\":2528:2534   */\n      dup5\n        /* \"#utility.yul\":2523:2526   */\n      dup5\n        /* \"#utility.yul\":2519:2535   */\n      add\n        /* \"#utility.yul\":2516:2541   */\n      gt\n        /* \"#utility.yul\":2513:2625   */\n      iszero\n      tag_81\n      jumpi\n        /* \"#utility.yul\":2544:2623   */\n      tag_82\n      tag_33\n      jump\t// in\n    tag_82:\n        /* \"#utility.yul\":2513:2625   */\n    tag_81:\n        /* \"#utility.yul\":2634:2688   */\n      tag_83\n        /* \"#utility.yul\":2681:2687   */\n      dup5\n        /* \"#utility.yul\":2676:2679   */\n      dup3\n        /* \"#utility.yul\":2671:2674   */\n      dup6\n        /* \"#utility.yul\":2634:2688   */\n      tag_39\n      jump\t// in\n    tag_83:\n        /* \"#utility.yul\":2353:2694   */\n      pop\n        /* \"#utility.yul\":2269:2694   */\n      swap4\n      swap3\n      pop\n      pop\n      pop\n      jump\t// out\n        /* \"#utility.yul\":2714:3054   */\n    tag_41:\n        /* \"#utility.yul\":2770:2775   */\n      0x00\n        /* \"#utility.yul\":2819:2822   */\n      dup3\n        /* \"#utility.yul\":2812:2816   */\n      0x1f\n        /* \"#utility.yul\":2804:2810   */\n      dup4\n        /* \"#utility.yul\":2800:2817   */\n      add\n        /* \"#utility.yul\":2796:2823   */\n      slt\n        /* \"#utility.yul\":2786:2908   */\n      tag_85\n      jumpi\n        /* \"#utility.yul\":2827:2906   */\n      tag_86\n      tag_32\n      jump\t// in\n    tag_86:\n        /* \"#utility.yul\":2786:2908   */\n    tag_85:\n        /* \"#utility.yul\":2944:2950   */\n      dup2\n        /* \"#utility.yul\":2931:2951   */\n      calldataload\n        /* \"#utility.yul\":2969:3048   */\n      tag_87\n        /* \"#utility.yul\":3044:3047   */\n      dup5\n        /* \"#utility.yul\":3036:3042   */\n      dup3\n        /* \"#utility.yul\":3029:3033   */\n      0x20\n        /* \"#utility.yul\":3021:3027   */\n      dup7\n        /* \"#utility.yul\":3017:3034   */\n      add\n        /* \"#utility.yul\":2969:3048   */\n      tag_40\n      jump\t// in\n    tag_87:\n        /* \"#utility.yul\":2960:3048   */\n      swap2\n      pop\n        /* \"#utility.yul\":2776:3054   */\n      pop\n        /* \"#utility.yul\":2714:3054   */\n      swap3\n      swap2\n      pop\n      pop\n      jump\t// out\n        /* \"#utility.yul\":3060:3714   */\n    tag_8:\n        /* \"#utility.yul\":3138:3144   */\n      0x00\n        /* \"#utility.yul\":3146:3152   */\n      dup1\n        /* \"#utility.yul\":3195:3197   */\n      0x40\n        /* \"#utility.yul\":3183:3192   */\n      dup4\n        /* \"#utility.yul\":3174:3181   */\n      dup6\n        /* \"#utility.yul\":3170:3193   */\n      sub\n        /* \"#utility.yul\":3166:3198   */\n      slt\n        /* \"#utility.yul\":3163:3282   */\n      iszero\n      tag_89\n      jumpi\n        /* \"#utility.yul\":3201:3280   */\n      tag_90\n      tag_26\n      jump\t// in\n    tag_90:\n        /* \"#utility.yul\":3163:3282   */\n    tag_89:\n        /* \"#utility.yul\":3321:3322   */\n      0x00\n        /* \"#utility.yul\":3346:3399   */\n      tag_91\n        /* \"#utility.yul\":3391:3398   */\n      dup6\n        /* \"#utility.yul\":3382:3388   */\n      dup3\n        /* \"#utility.yul\":3371:3380   */\n      dup7\n        /* \"#utility.yul\":3367:3389   */\n      add\n        /* \"#utility.yul\":3346:3399   */\n      tag_31\n      jump\t// in\n    tag_91:\n        /* \"#utility.yul\":3336:3399   */\n      swap3\n      pop\n        /* \"#utility.yul\":3292:3409   */\n      pop\n        /* \"#utility.yul\":3476:3478   */\n      0x20\n        /* \"#utility.yul\":3465:3474   */\n      dup4\n        /* \"#utility.yul\":3461:3479   */\n      add\n        /* \"#utility.yul\":3448:3480   */\n      calldataload\n        /* \"#utility.yul\":3507:3525   */\n      0xffffffffffffffff\n        /* \"#utility.yul\":3499:3505   */\n      dup2\n        /* \"#utility.yul\":3496:3526   */\n      gt\n        /* \"#utility.yul\":3493:3610   */\n      iszero\n      tag_92\n      jumpi\n        /* \"#utility.yul\":3529:3608   */\n      tag_93\n      tag_27\n      jump\t// in\n    tag_93:\n        /* \"#utility.yul\":3493:3610   */\n    tag_92:\n        /* \"#utility.yul\":3634:3697   */\n      tag_94\n        /* \"#utility.yul\":3689:3696   */\n      dup6\n        /* \"#utility.yul\":3680:3686   */\n      dup3\n        /* \"#utility.yul\":3669:3678   */\n      dup7\n        /* \"#utility.yul\":3665:3687   */\n      add\n        /* \"#utility.yul\":3634:3697   */\n      tag_41\n      jump\t// in\n    tag_94:\n        /* \"#utility.yul\":3624:3697   */\n      swap2\n      pop\n        /* \"#utility.yul\":3419:3707   */\n      pop\n        /* \"#utility.yul\":3060:3714   */\n      swap3\n      pop\n      swap3\n      swap1\n      pop\n      jump\t// out\n        /* \"#utility.yul\":3720:3797   */\n    tag_42:\n        /* \"#utility.yul\":3757:3764   */\n      0x00\n        /* \"#utility.yul\":3786:3791   */\n      dup2\n        /* \"#utility.yul\":3775:3791   */\n      swap1\n      pop\n        /* \"#utility.yul\":3720:3797   */\n      swap2\n      swap1\n      pop\n      jump\t// out\n        /* \"#utility.yul\":3803:3921   */\n    tag_43:\n        /* \"#utility.yul\":3890:3914   */\n      tag_97\n        /* \"#utility.yul\":3908:3913   */\n      dup2\n        /* \"#utility.yul\":3890:3914   */\n      tag_42\n      jump\t// in\n    tag_97:\n        /* \"#utility.yul\":3885:3888   */\n      dup3\n        /* \"#utility.yul\":3878:3915   */\n      mstore\n        /* \"#utility.yul\":3803:3921   */\n      pop\n      pop\n      jump\t// out\n        /* \"#utility.yul\":3927:4149   */\n    tag_11:\n        /* \"#utility.yul\":4020:4024   */\n      0x00\n        /* \"#utility.yul\":4058:4060   */\n      0x20\n        /* \"#utility.yul\":4047:4056   */\n      dup3\n        /* \"#utility.yul\":4043:4061   */\n      add\n        /* \"#utility.yul\":4035:4061   */\n      swap1\n      pop\n        /* \"#utility.yul\":4071:4142   */\n      tag_99\n        /* \"#utility.yul\":4139:4140   */\n      0x00\n        /* \"#utility.yul\":4128:4137   */\n      dup4\n        /* \"#utility.yul\":4124:4141   */\n      add\n        /* \"#utility.yul\":4115:4121   */\n      dup5\n        /* \"#utility.yul\":4071:4142   */\n      tag_43\n      jump\t// in\n    tag_99:\n        /* \"#utility.yul\":3927:4149   */\n      swap3\n      swap2\n      pop\n      pop\n      jump\t// out\n        /* \"#utility.yul\":4155:4277   */\n    tag_44:\n        /* \"#utility.yul\":4228:4252   */\n      tag_101\n        /* \"#utility.yul\":4246:4251   */\n      dup2\n        /* \"#utility.yul\":4228:4252   */\n      tag_42\n      jump\t// in\n    tag_101:\n        /* \"#utility.yul\":4221:4226   */\n      dup2\n        /* \"#utility.yul\":4218:4253   */\n      eq\n        /* \"#utility.yul\":4208:4271   */\n      tag_102\n      jumpi\n        /* \"#utility.yul\":4267:4268   */\n      0x00\n        /* \"#utility.yul\":4264:4265   */\n      dup1\n        /* \"#utility.yul\":4257:4269   */\n      revert\n        /* \"#utility.yul\":4208:4271   */\n    tag_102:\n        /* \"#utility.yul\":4155:4277   */\n      pop\n      jump\t// out\n        /* \"#utility.yul\":4283:4422   */\n    tag_45:\n        /* \"#utility.yul\":4329:4334   */\n      0x00\n        /* \"#utility.yul\":4367:4373   */\n      dup2\n        /* \"#utility.yul\":4354:4374   */\n      calldataload\n        /* \"#utility.yul\":4345:4374   */\n      swap1\n      pop\n        /* \"#utility.yul\":4383:4416   */\n      tag_104\n        /* \"#utility.yul\":4410:4415   */\n      dup2\n        /* \"#utility.yul\":4383:4416   */\n      tag_44\n      jump\t// in\n    tag_104:\n        /* \"#utility.yul\":4283:4422   */\n      swap3\n      swap2\n      pop\n      pop\n      jump\t// out\n        /* \"#utility.yul\":4428:5227   */\n    tag_14:\n        /* \"#utility.yul\":4515:4521   */\n      0x00\n        /* \"#utility.yul\":4523:4529   */\n      dup1\n        /* \"#utility.yul\":4531:4537   */\n      0x00\n        /* \"#utility.yul\":4580:4582   */\n      0x60\n        /* \"#utility.yul\":4568:4577   */\n      dup5\n        /* \"#utility.yul\":4559:4566   */\n      dup7\n        /* \"#utility.yul\":4555:4578   */\n      sub\n        /* \"#utility.yul\":4551:4583   */\n      slt\n        /* \"#utility.yul\":4548:4667   */\n      iszero\n      tag_106\n      jumpi\n        /* \"#utility.yul\":4586:4665   */\n      tag_107\n      tag_26\n      jump\t// in\n    tag_107:\n        /* \"#utility.yul\":4548:4667   */\n    tag_106:\n        /* \"#utility.yul\":4706:4707   */\n      0x00\n        /* \"#utility.yul\":4731:4784   */\n      tag_108\n        /* \"#utility.yul\":4776:4783   */\n      dup7\n        /* \"#utility.yul\":4767:4773   */\n      dup3\n        /* \"#utility.yul\":4756:4765   */\n      dup8\n        /* \"#utility.yul\":4752:4774   */\n      add\n        /* \"#utility.yul\":4731:4784   */\n      tag_31\n      jump\t// in\n    tag_108:\n        /* \"#utility.yul\":4721:4784   */\n      swap4\n      pop\n        /* \"#utility.yul\":4677:4794   */\n      pop\n        /* \"#utility.yul\":4861:4863   */\n      0x20\n        /* \"#utility.yul\":4850:4859   */\n      dup5\n        /* \"#utility.yul\":4846:4864   */\n      add\n        /* \"#utility.yul\":4833:4865   */\n      calldataload\n        /* \"#utility.yul\":4892:4910   */\n      0xffffffffffffffff\n        /* \"#utility.yul\":4884:4890   */\n      dup2\n        /* \"#utility.yul\":4881:4911   */\n      gt\n        /* \"#utility.yul\":4878:4995   */\n      iszero\n      tag_109\n      jumpi\n        /* \"#utility.yul\":4914:4993   */\n      tag_110\n      tag_27\n      jump\t// in\n    tag_110:\n        /* \"#utility.yul\":4878:4995   */\n    tag_109:\n        /* \"#utility.yul\":5019:5082   */\n      tag_111\n        /* \"#utility.yul\":5074:5081   */\n      dup7\n        /* \"#utility.yul\":5065:5071   */\n      dup3\n        /* \"#utility.yul\":5054:5063   */\n      dup8\n        /* \"#utility.yul\":5050:5072   */\n      add\n        /* \"#utility.yul\":5019:5082   */\n      tag_41\n      jump\t// in\n    tag_111:\n        /* \"#utility.yul\":5009:5082   */\n      swap3\n      pop\n        /* \"#utility.yul\":4804:5092   */\n      pop\n        /* \"#utility.yul\":5131:5133   */\n      0x40\n        /* \"#utility.yul\":5157:5210   */\n      tag_112\n        /* \"#utility.yul\":5202:5209   */\n      dup7\n        /* \"#utility.yul\":5193:5199   */\n      dup3\n        /* \"#utility.yul\":5182:5191   */\n      dup8\n        /* \"#utility.yul\":5178:5200   */\n      add\n        /* \"#utility.yul\":5157:5210   */\n      tag_45\n      jump\t// in\n    tag_112:\n        /* \"#utility.yul\":5147:5210   */\n      swap2\n      pop\n        /* \"#utility.yul\":5102:5220   */\n      pop\n        /* \"#utility.yul\":4428:5227   */\n      swap3\n      pop\n      swap3\n      pop\n      swap3\n      jump\t// out\n        /* \"#utility.yul\":5233:5332   */\n    tag_46:\n        /* \"#utility.yul\":5285:5291   */\n      0x00\n        /* \"#utility.yul\":5319:5324   */\n      dup2\n        /* \"#utility.yul\":5313:5325   */\n      mload\n        /* \"#utility.yul\":5303:5325   */\n      swap1\n      pop\n        /* \"#utility.yul\":5233:5332   */\n      swap2\n      swap1\n      pop\n      jump\t// out\n        /* \"#utility.yul\":5338:5486   */\n    tag_47:\n        /* \"#utility.yul\":5440:5451   */\n      0x00\n        /* \"#utility.yul\":5477:5480   */\n      dup2\n        /* \"#utility.yul\":5462:5480   */\n      swap1\n      pop\n        /* \"#utility.yul\":5338:5486   */\n      swap3\n      swap2\n      pop\n      pop\n      jump\t// out\n        /* \"#utility.yul\":5492:5738   */\n    tag_48:\n        /* \"#utility.yul\":5573:5574   */\n      0x00\n        /* \"#utility.yul\":5583:5696   */\n    tag_116:\n        /* \"#utility.yul\":5597:5603   */\n      dup4\n        /* \"#utility.yul\":5594:5595   */\n      dup2\n        /* \"#utility.yul\":5591:5604   */\n      lt\n        /* \"#utility.yul\":5583:5696   */\n      iszero\n      tag_118\n      jumpi\n        /* \"#utility.yul\":5682:5683   */\n      dup1\n        /* \"#utility.yul\":5677:5680   */\n      dup3\n        /* \"#utility.yul\":5673:5684   */\n      add\n        /* \"#utility.yul\":5667:5685   */\n      mload\n        /* \"#utility.yul\":5663:5664   */\n      dup2\n        /* \"#utility.yul\":5658:5661   */\n      dup5\n        /* \"#utility.yul\":5654:5665   */\n      add\n        /* \"#utility.yul\":5647:5686   */\n      mstore\n        /* \"#utility.yul\":5619:5621   */\n      0x20\n        /* \"#utility.yul\":5616:5617   */\n      dup2\n        /* \"#utility.yul\":5612:5622   */\n      add\n        /* \"#utility.yul\":5607:5622   */\n      swap1\n      pop\n        /* \"#utility.yul\":5583:5696   */\n      jump(tag_116)\n    tag_118:\n        /* \"#utility.yul\":5730:5731   */\n      0x00\n        /* \"#utility.yul\":5721:5727   */\n      dup5\n        /* \"#utility.yul\":5716:5719   */\n      dup5\n        /* \"#utility.yul\":5712:5728   */\n      add\n        /* \"#utility.yul\":5705:5732   */\n      mstore\n        /* \"#utility.yul\":5554:5738   */\n      pop\n        /* \"#utility.yul\":5492:5738   */\n      pop\n      pop\n      pop\n      jump\t// out\n        /* \"#utility.yul\":5744:6134   */\n    tag_49:\n        /* \"#utility.yul\":5850:5853   */\n      0x00\n        /* \"#utility.yul\":5878:5917   */\n      tag_120\n        /* \"#utility.yul\":5911:5916   */\n      dup3\n        /* \"#utility.yul\":5878:5917   */\n      tag_46\n      jump\t// in\n    tag_120:\n        /* \"#utility.yul\":5933:6022   */\n      tag_121\n        /* \"#utility.yul\":6015:6021   */\n      dup2\n        /* \"#utility.yul\":6010:6013   */\n      dup6\n        /* \"#utility.yul\":5933:6022   */\n      tag_47\n      jump\t// in\n    tag_121:\n        /* \"#utility.yul\":5926:6022   */\n      swap4\n      pop\n        /* \"#utility.yul\":6031:6096   */\n      tag_122\n        /* \"#utility.yul\":6089:6095   */\n      dup2\n        /* \"#utility.yul\":6084:6087   */\n      dup6\n        /* \"#utility.yul\":6077:6081   */\n      0x20\n        /* \"#utility.yul\":6070:6075   */\n      dup7\n        /* \"#utility.yul\":6066:6082   */\n      add\n        /* \"#utility.yul\":6031:6096   */\n      tag_48\n      jump\t// in\n    tag_122:\n        /* \"#utility.yul\":6121:6127   */\n      dup1\n        /* \"#utility.yul\":6116:6119   */\n      dup5\n        /* \"#utility.yul\":6112:6128   */\n      add\n        /* \"#utility.yul\":6105:6128   */\n      swap2\n      pop\n        /* \"#utility.yul\":5854:6134   */\n      pop\n        /* \"#utility.yul\":5744:6134   */\n      swap3\n      swap2\n      pop\n      pop\n      jump\t// out\n        /* \"#utility.yul\":6140:6415   */\n    tag_22:\n        /* \"#utility.yul\":6272:6275   */\n      0x00\n        /* \"#utility.yul\":6294:6389   */\n      tag_124\n        /* \"#utility.yul\":6385:6388   */\n      dup3\n        /* \"#utility.yul\":6376:6382   */\n      dup5\n        /* \"#utility.yul\":6294:6389   */\n      tag_49\n      jump\t// in\n    tag_124:\n        /* \"#utility.yul\":6287:6389   */\n      swap2\n      pop\n        /* \"#utility.yul\":6406:6409   */\n      dup2\n        /* \"#utility.yul\":6399:6409   */\n      swap1\n      pop\n        /* \"#utility.yul\":6140:6415   */\n      swap3\n      swap2\n      pop\n      pop\n      jump\t// out\n\n    auxdata: 0xa26469706673582212205376800a46293954e1c5f3aeb11087855556724152d71649243e52bdc1a3d3dc64736f6c63430008120033\n}\n",
				"bytecode": {
					"linkReferences": {},
					"object": "608060405234801561001057600080fd5b50610567806100206000396000f3fe608060405234801561001057600080fd5b50600436106100415760003560e01c8063706e88ea14610046578063c03e8f6414610076578063fc2525ab14610092575b600080fd5b610060600480360381019061005b919061037e565b6100c2565b60405161006d91906103f3565b60405180910390f35b610090600480360381019061008b919061043a565b6100fd565b005b6100ac60048036038101906100a7919061037e565b610161565b6040516100b991906103f3565b60405180910390f35b600060205281600052604060002081805160208101820180518482526020830160208501208183528095505050505050600091509150505481565b806000808573ffffffffffffffffffffffffffffffffffffffff1673ffffffffffffffffffffffffffffffffffffffff1681526020019081526020016000208360405161014a919061051a565b908152602001604051809103902081905550505050565b60008060008473ffffffffffffffffffffffffffffffffffffffff1673ffffffffffffffffffffffffffffffffffffffff168152602001908152602001600020826040516101af919061051a565b908152602001604051809103902054905092915050565b6000604051905090565b600080fd5b600080fd5b600073ffffffffffffffffffffffffffffffffffffffff82169050919050565b6000610205826101da565b9050919050565b610215816101fa565b811461022057600080fd5b50565b6000813590506102328161020c565b92915050565b600080fd5b600080fd5b6000601f19601f8301169050919050565b7f4e487b7100000000000000000000000000000000000000000000000000000000600052604160045260246000fd5b61028b82610242565b810181811067ffffffffffffffff821117156102aa576102a9610253565b5b80604052505050565b60006102bd6101c6565b90506102c98282610282565b919050565b600067ffffffffffffffff8211156102e9576102e8610253565b5b6102f282610242565b9050602081019050919050565b82818337600083830152505050565b600061032161031c846102ce565b6102b3565b90508281526020810184848401111561033d5761033c61023d565b5b6103488482856102ff565b509392505050565b600082601f83011261036557610364610238565b5b813561037584826020860161030e565b91505092915050565b60008060408385031215610395576103946101d0565b5b60006103a385828601610223565b925050602083013567ffffffffffffffff8111156103c4576103c36101d5565b5b6103d085828601610350565b9150509250929050565b6000819050919050565b6103ed816103da565b82525050565b600060208201905061040860008301846103e4565b92915050565b610417816103da565b811461042257600080fd5b50565b6000813590506104348161040e565b92915050565b600080600060608486031215610453576104526101d0565b5b600061046186828701610223565b935050602084013567ffffffffffffffff811115610482576104816101d5565b5b61048e86828701610350565b925050604061049f86828701610425565b9150509250925092565b600081519050919050565b600081905092915050565b60005b838110156104dd5780820151818401526020810190506104c2565b60008484015250505050565b60006104f4826104a9565b6104fe81856104b4565b935061050e8185602086016104bf565b80840191505092915050565b600061052682846104e9565b91508190509291505056fea26469706673582212205376800a46293954e1c5f3aeb11087855556724152d71649243e52bdc1a3d3dc64736f6c63430008120033",
					"opcodes": "PUSH1 0x80 PUSH1 0x40 MSTORE CALLVALUE DUP1 ISZERO PUSH2 0x10 JUMPI PUSH1 0x0 DUP1 REVERT JUMPDEST POP PUSH2 0x567 DUP1 PUSH2 0x20 PUSH1 0x0 CODECOPY PUSH1 0x0 RETURN INVALID PUSH1 0x80 PUSH1 0x40 MSTORE CALLVALUE DUP1 ISZERO PUSH2 0x10 JUMPI PUSH1 0x0 DUP1 REVERT JUMPDEST POP PUSH1 0x4 CALLDATASIZE LT PUSH2 0x41 JUMPI PUSH1 0x0 CALLDATALOAD PUSH1 0xE0 SHR DUP1 PUSH4 0x706E88EA EQ PUSH2 0x46 JUMPI DUP1 PUSH4 0xC03E8F64 EQ PUSH2 0x76 JUMPI DUP1 PUSH4 0xFC2525AB EQ PUSH2 0x92 JUMPI JUMPDEST PUSH1 0x0 DUP1 REVERT JUMPDEST PUSH2 0x60 PUSH1 0x4 DUP1 CALLDATASIZE SUB DUP2 ADD SWAP1 PUSH2 0x5B SWAP2 SWAP1 PUSH2 0x37E JUMP JUMPDEST PUSH2 0xC2 JUMP JUMPDEST PUSH1 0x40 MLOAD PUSH2 0x6D SWAP2 SWAP1 PUSH2 0x3F3 JUMP JUMPDEST PUSH1 0x40 MLOAD DUP1 SWAP2 SUB SWAP1 RETURN JUMPDEST PUSH2 0x90 PUSH1 0x4 DUP1 CALLDATASIZE SUB DUP2 ADD SWAP1 PUSH2 0x8B SWAP2 SWAP1 PUSH2 0x43A JUMP JUMPDEST PUSH2 0xFD JUMP JUMPDEST STOP JUMPDEST PUSH2 0xAC PUSH1 0x4 DUP1 CALLDATASIZE SUB DUP2 ADD SWAP1 PUSH2 0xA7 SWAP2 SWAP1 PUSH2 0x37E JUMP JUMPDEST PUSH2 0x161 JUMP JUMPDEST PUSH1 0x40 MLOAD PUSH2 0xB9 SWAP2 SWAP1 PUSH2 0x3F3 JUMP JUMPDEST PUSH1 0x40 MLOAD DUP1 SWAP2 SUB SWAP1 RETURN JUMPDEST PUSH1 0x0 PUSH1 0x20 MSTORE DUP2 PUSH1 0x0 MSTORE PUSH1 0x40 PUSH1 0x0 KECCAK256 DUP2 DUP1 MLOAD PUSH1 0x20 DUP2 ADD DUP3 ADD DUP1 MLOAD DUP5 DUP3 MSTORE PUSH1 0x20 DUP4 ADD PUSH1 0x20 DUP6 ADD KECCAK256 DUP2 DUP4 MSTORE DUP1 SWAP6 POP POP POP POP POP POP PUSH1 0x0 SWAP2 POP SWAP2 POP POP SLOAD DUP2 JUMP JUMPDEST DUP1 PUSH1 0x0 DUP1 DUP6 PUSH20 0xFFFFFFFFFFFFFFFFFFFFFFFFFFFFFFFFFFFFFFFF AND PUSH20 0xFFFFFFFFFFFFFFFFFFFFFFFFFFFFFFFFFFFFFFFF AND DUP2 MSTORE PUSH1 0x20 ADD SWAP1 DUP2 MSTORE PUSH1 0x20 ADD PUSH1 0x0 KECCAK256 DUP4 PUSH1 0x40 MLOAD PUSH2 0x14A SWAP2 SWAP1 PUSH2 0x51A JUMP JUMPDEST SWAP1 DUP2 MSTORE PUSH1 0x20 ADD PUSH1 0x40 MLOAD DUP1 SWAP2 SUB SWAP1 KECCAK256 DUP2 SWAP1 SSTORE POP POP POP POP JUMP JUMPDEST PUSH1 0x0 DUP1 PUSH1 0x0 DUP5 PUSH20 0xFFFFFFFFFFFFFFFFFFFFFFFFFFFFFFFFFFFFFFFF AND PUSH20 0xFFFFFFFFFFFFFFFFFFFFFFFFFFFFFFFFFFFFFFFF AND DUP2 MSTORE PUSH1 0x20 ADD SWAP1 DUP2 MSTORE PUSH1 0x20 ADD PUSH1 0x0 KECCAK256 DUP3 PUSH1 0x40 MLOAD PUSH2 0x1AF SWAP2 SWAP1 PUSH2 0x51A JUMP JUMPDEST SWAP1 DUP2 MSTORE PUSH1 0x20 ADD PUSH1 0x40 MLOAD DUP1 SWAP2 SUB SWAP1 KECCAK256 SLOAD SWAP1 POP SWAP3 SWAP2 POP POP JUMP JUMPDEST PUSH1 0x0 PUSH1 0x40 MLOAD SWAP1 POP SWAP1 JUMP JUMPDEST PUSH1 0x0 DUP1 REVERT JUMPDEST PUSH1 0x0 DUP1 REVERT JUMPDEST PUSH1 0x0 PUSH20 0xFFFFFFFFFFFFFFFFFFFFFFFFFFFFFFFFFFFFFFFF DUP3 AND SWAP1 POP SWAP2 SWAP1 POP JUMP JUMPDEST PUSH1 0x0 PUSH2 0x205 DUP3 PUSH2 0x1DA JUMP JUMPDEST SWAP1 POP SWAP2 SWAP1 POP JUMP JUMPDEST PUSH2 0x215 DUP2 PUSH2 0x1FA JUMP JUMPDEST DUP2 EQ PUSH2 0x220 JUMPI PUSH1 0x0 DUP1 REVERT JUMPDEST POP JUMP JUMPDEST PUSH1 0x0 DUP2 CALLDATALOAD SWAP1 POP PUSH2 0x232 DUP2 PUSH2 0x20C JUMP JUMPDEST SWAP3 SWAP2 POP POP JUMP JUMPDEST PUSH1 0x0 DUP1 REVERT JUMPDEST PUSH1 0x0 DUP1 REVERT JUMPDEST PUSH1 0x0 PUSH1 0x1F NOT PUSH1 0x1F DUP4 ADD AND SWAP1 POP SWAP2 SWAP1 POP JUMP JUMPDEST PUSH32 0x4E487B7100000000000000000000000000000000000000000000000000000000 PUSH1 0x0 MSTORE PUSH1 0x41 PUSH1 0x4 MSTORE PUSH1 0x24 PUSH1 0x0 REVERT JUMPDEST PUSH2 0x28B DUP3 PUSH2 0x242 JUMP JUMPDEST DUP2 ADD DUP2 DUP2 LT PUSH8 0xFFFFFFFFFFFFFFFF DUP3 GT OR ISZERO PUSH2 0x2AA JUMPI PUSH2 0x2A9 PUSH2 0x253 JUMP JUMPDEST JUMPDEST DUP1 PUSH1 0x40 MSTORE POP POP POP JUMP JUMPDEST PUSH1 0x0 PUSH2 0x2BD PUSH2 0x1C6 JUMP JUMPDEST SWAP1 POP PUSH2 0x2C9 DUP3 DUP3 PUSH2 0x282 JUMP JUMPDEST SWAP2 SWAP1 POP JUMP JUMPDEST PUSH1 0x0 PUSH8 0xFFFFFFFFFFFFFFFF DUP3 GT ISZERO PUSH2 0x2E9 JUMPI PUSH2 0x2E8 PUSH2 0x253 JUMP JUMPDEST JUMPDEST PUSH2 0x2F2 DUP3 PUSH2 0x242 JUMP JUMPDEST SWAP1 POP PUSH1 0x20 DUP2 ADD SWAP1 POP SWAP2 SWAP1 POP JUMP JUMPDEST DUP3 DUP2 DUP4 CALLDATACOPY PUSH1 0x0 DUP4 DUP4 ADD MSTORE POP POP POP JUMP JUMPDEST PUSH1 0x0 PUSH2 0x321 PUSH2 0x31C DUP5 PUSH2 0x2CE JUMP JUMPDEST PUSH2 0x2B3 JUMP JUMPDEST SWAP1 POP DUP3 DUP2 MSTORE PUSH1 0x20 DUP2 ADD DUP5 DUP5 DUP5 ADD GT ISZERO PUSH2 0x33D JUMPI PUSH2 0x33C PUSH2 0x23D JUMP JUMPDEST JUMPDEST PUSH2 0x348 DUP5 DUP3 DUP6 PUSH2 0x2FF JUMP JUMPDEST POP SWAP4 SWAP3 POP POP POP JUMP JUMPDEST PUSH1 0x0 DUP3 PUSH1 0x1F DUP4 ADD SLT PUSH2 0x365 JUMPI PUSH2 0x364 PUSH2 0x238 JUMP JUMPDEST JUMPDEST DUP2 CALLDATALOAD PUSH2 0x375 DUP5 DUP3 PUSH1 0x20 DUP7 ADD PUSH2 0x30E JUMP JUMPDEST SWAP2 POP POP SWAP3 SWAP2 POP POP JUMP JUMPDEST PUSH1 0x0 DUP1 PUSH1 0x40 DUP4 DUP6 SUB SLT ISZERO PUSH2 0x395 JUMPI PUSH2 0x394 PUSH2 0x1D0 JUMP JUMPDEST JUMPDEST PUSH1 0x0 PUSH2 0x3A3 DUP6 DUP3 DUP7 ADD PUSH2 0x223 JUMP JUMPDEST SWAP3 POP POP PUSH1 0x20 DUP4 ADD CALLDATALOAD PUSH8 0xFFFFFFFFFFFFFFFF DUP2 GT ISZERO PUSH2 0x3C4 JUMPI PUSH2 0x3C3 PUSH2 0x1D5 JUMP JUMPDEST JUMPDEST PUSH2 0x3D0 DUP6 DUP3 DUP7 ADD PUSH2 0x350 JUMP JUMPDEST SWAP2 POP POP SWAP3 POP SWAP3 SWAP1 POP JUMP JUMPDEST PUSH1 0x0 DUP2 SWAP1 POP SWAP2 SWAP1 POP JUMP JUMPDEST PUSH2 0x3ED DUP2 PUSH2 0x3DA JUMP JUMPDEST DUP3 MSTORE POP POP JUMP JUMPDEST PUSH1 0x0 PUSH1 0x20 DUP3 ADD SWAP1 POP PUSH2 0x408 PUSH1 0x0 DUP4 ADD DUP5 PUSH2 0x3E4 JUMP JUMPDEST SWAP3 SWAP2 POP POP JUMP JUMPDEST PUSH2 0x417 DUP2 PUSH2 0x3DA JUMP JUMPDEST DUP2 EQ PUSH2 0x422 JUMPI PUSH1 0x0 DUP1 REVERT JUMPDEST POP JUMP JUMPDEST PUSH1 0x0 DUP2 CALLDATALOAD SWAP1 POP PUSH2 0x434 DUP2 PUSH2 0x40E JUMP JUMPDEST SWAP3 SWAP2 POP POP JUMP JUMPDEST PUSH1 0x0 DUP1 PUSH1 0x0 PUSH1 0x60 DUP5 DUP7 SUB SLT ISZERO PUSH2 0x453 JUMPI PUSH2 0x452 PUSH2 0x1D0 JUMP JUMPDEST JUMPDEST PUSH1 0x0 PUSH2 0x461 DUP7 DUP3 DUP8 ADD PUSH2 0x223 JUMP JUMPDEST SWAP4 POP POP PUSH1 0x20 DUP5 ADD CALLDATALOAD PUSH8 0xFFFFFFFFFFFFFFFF DUP2 GT ISZERO PUSH2 0x482 JUMPI PUSH2 0x481 PUSH2 0x1D5 JUMP JUMPDEST JUMPDEST PUSH2 0x48E DUP7 DUP3 DUP8 ADD PUSH2 0x350 JUMP JUMPDEST SWAP3 POP POP PUSH1 0x40 PUSH2 0x49F DUP7 DUP3 DUP8 ADD PUSH2 0x425 JUMP JUMPDEST SWAP2 POP POP SWAP3 POP SWAP3 POP SWAP3 JUMP JUMPDEST PUSH1 0x0 DUP2 MLOAD SWAP1 POP SWAP2 SWAP1 POP JUMP JUMPDEST PUSH1 0x0 DUP2 SWAP1 POP SWAP3 SWAP2 POP POP JUMP JUMPDEST PUSH1 0x0 JUMPDEST DUP4 DUP2 LT ISZERO PUSH2 0x4DD JUMPI DUP1 DUP3 ADD MLOAD DUP2 DUP5 ADD MSTORE PUSH1 0x20 DUP2 ADD SWAP1 POP PUSH2 0x4C2 JUMP JUMPDEST PUSH1 0x0 DUP5 DUP5 ADD MSTORE POP POP POP POP JUMP JUMPDEST PUSH1 0x0 PUSH2 0x4F4 DUP3 PUSH2 0x4A9 JUMP JUMPDEST PUSH2 0x4FE DUP2 DUP6 PUSH2 0x4B4 JUMP JUMPDEST SWAP4 POP PUSH2 0x50E DUP2 DUP6 PUSH1 0x20 DUP7 ADD PUSH2 0x4BF JUMP JUMPDEST DUP1 DUP5 ADD SWAP2 POP POP SWAP3 SWAP2 POP POP JUMP JUMPDEST PUSH1 0x0 PUSH2 0x526 DUP3 DUP5 PUSH2 0x4E9 JUMP JUMPDEST SWAP2 POP DUP2 SWAP1 POP SWAP3 SWAP2 POP POP JUMP INVALID LOG2 PUSH5 0x6970667358 0x22 SLT KECCAK256 MSTORE8 PUSH23 0x800A46293954E1C5F3AEB11087855556724152D7164924 RETURNDATACOPY MSTORE 0xBD 0xC1 LOG3 0xD3 0xDC PUSH5 0x736F6C6343 STOP ADDMOD SLT STOP CALLER "
				},
				"gasEstimates": {
					"creation": {
						"codeDepositCost": "276600",
						"executionCost": "318",
						"totalCost": "276918"
					},
					"external": {
						"get(address,string)": "infinite",
						"mm(address,string)": "infinite",
						"set(address,string,uint256)": "infinite"
					}
				},
				"methodIdentifiers": {
					"get(address,string)": "fc2525ab",
					"mm(address,string)": "706e88ea",
					"set(address,string,uint256)": "c03e8f64"
				}
			},
			"storageLayout": {
				"storage": [
					{
						"astId": 52,
						"contract": "contracts/mappings.sol:Nestedmapping",
						"label": "mm",
						"offset": 0,
						"slot": "0",
						"type": "t_mapping(t_address,t_mapping(t_string_memory_ptr,t_uint256))"
					}
				],
				"types": {
					"t_address": {
						"encoding": "inplace",
						"label": "address",
						"numberOfBytes": "20"
					},
					"t_mapping(t_address,t_mapping(t_string_memory_ptr,t_uint256))": {
						"encoding": "mapping",
						"key": "t_address",
						"label": "mapping(address => mapping(string => uint256))",
						"numberOfBytes": "32",
						"value": "t_mapping(t_string_memory_ptr,t_uint256)"
					},
					"t_mapping(t_string_memory_ptr,t_uint256)": {
						"encoding": "mapping",
						"key": "t_string_memory_ptr",
						"label": "mapping(string => uint256)",
						"numberOfBytes": "32",
						"value": "t_uint256"
					},
					"t_string_memory_ptr": {
						"encoding": "bytes",
						"label": "string",
						"numberOfBytes": "32"
					},
					"t_uint256": {
						"encoding": "inplace",
						"label": "uint256",
						"numberOfBytes": "32"
					}
				}
			},
			"userdoc": {
				"kind": "user",
				"methods": {},
				"version": 1
			}
		}
	}
}