{
	"contracts/cert.sol": {
		"CertificationVerification": {
			"abi": [
				{
					"inputs": [],
					"stateMutability": "nonpayable",
					"type": "constructor"
				},
				{
					"anonymous": false,
					"inputs": [
						{
							"indexed": true,
							"internalType": "address",
							"name": "recipient",
							"type": "address"
						},
						{
							"indexed": false,
							"internalType": "string",
							"name": "name",
							"type": "string"
						},
						{
							"indexed": false,
							"internalType": "string",
							"name": "description",
							"type": "string"
						}
					],
					"name": "CertificationIssued",
					"type": "event"
				},
				{
					"inputs": [
						{
							"internalType": "address",
							"name": "",
							"type": "address"
						}
					],
					"name": "certifications",
					"outputs": [
						{
							"internalType": "string",
							"name": "",
							"type": "string"
						}
					],
					"stateMutability": "view",
					"type": "function"
				},
				{
					"inputs": [
						{
							"internalType": "address",
							"name": "",
							"type": "address"
						}
					],
					"name": "isCertified",
					"outputs": [
						{
							"internalType": "bool",
							"name": "",
							"type": "bool"
						}
					],
					"stateMutability": "view",
					"type": "function"
				},
				{
					"inputs": [
						{
							"internalType": "address",
							"name": "recipient",
							"type": "address"
						},
						{
							"internalType": "string",
							"name": "name",
							"type": "string"
						},
						{
							"internalType": "string",
							"name": "description",
							"type": "string"
						}
					],
					"name": "issueCertification",
					"outputs": [],
					"stateMutability": "nonpayable",
					"type": "function"
				},
				{
					"inputs": [],
					"name": "owner",
					"outputs": [
						{
							"internalType": "address",
							"name": "",
							"type": "address"
						}
					],
					"stateMutability": "view",
					"type": "function"
				},
				{
					"inputs": [
						{
							"internalType": "address",
							"name": "recipient",
							"type": "address"
						}
					],
					"name": "verifyCertification",
					"outputs": [
						{
							"internalType": "string",
							"name": "",
							"type": "string"
						}
					],
					"stateMutability": "view",
					"type": "function"
				}
			],
			"devdoc": {
				"kind": "dev",
				"methods": {},
				"version": 1
			},
			"evm": {
				"assembly": "    /* \"contracts/cert.sol\":60:1169  contract CertificationVerification {... */\n  mstore(0x40, 0x80)\n    /* \"contracts/cert.sol\":332:383  constructor() {... */\n  callvalue\n  dup1\n  iszero\n  tag_1\n  jumpi\n  0x00\n  dup1\n  revert\ntag_1:\n  pop\n    /* \"contracts/cert.sol\":365:375  msg.sender */\n  caller\n    /* \"contracts/cert.sol\":357:362  owner */\n  0x00\n  dup1\n    /* \"contracts/cert.sol\":357:375  owner = msg.sender */\n  0x0100\n  exp\n  dup2\n  sload\n  dup2\n  0xffffffffffffffffffffffffffffffffffffffff\n  mul\n  not\n  and\n  swap1\n  dup4\n  0xffffffffffffffffffffffffffffffffffffffff\n  and\n  mul\n  or\n  swap1\n  sstore\n  pop\n    /* \"contracts/cert.sol\":60:1169  contract CertificationVerification {... */\n  dataSize(sub_0)\n  dup1\n  dataOffset(sub_0)\n  0x00\n  codecopy\n  0x00\n  return\nstop\n\nsub_0: assembly {\n        /* \"contracts/cert.sol\":60:1169  contract CertificationVerification {... */\n      mstore(0x40, 0x80)\n      callvalue\n      dup1\n      iszero\n      tag_1\n      jumpi\n      0x00\n      dup1\n      revert\n    tag_1:\n      pop\n      jumpi(tag_2, lt(calldatasize, 0x04))\n      shr(0xe0, calldataload(0x00))\n      dup1\n      0x028ea0e8\n      eq\n      tag_3\n      jumpi\n      dup1\n      0x236e0929\n      eq\n      tag_4\n      jumpi\n      dup1\n      0x5afa5036\n      eq\n      tag_5\n      jumpi\n      dup1\n      0x7ea8f34c\n      eq\n      tag_6\n      jumpi\n      dup1\n      0x8da5cb5b\n      eq\n      tag_7\n      jumpi\n    tag_2:\n      0x00\n      dup1\n      revert\n        /* \"contracts/cert.sol\":946:1166  function verifyCertification(address recipient) public view returns (string memory) {... */\n    tag_3:\n      tag_8\n      0x04\n      dup1\n      calldatasize\n      sub\n      dup2\n      add\n      swap1\n      tag_9\n      swap2\n      swap1\n      tag_10\n      jump\t// in\n    tag_9:\n      tag_11\n      jump\t// in\n    tag_8:\n      mload(0x40)\n      tag_12\n      swap2\n      swap1\n      tag_13\n      jump\t// in\n    tag_12:\n      mload(0x40)\n      dup1\n      swap2\n      sub\n      swap1\n      return\n        /* \"contracts/cert.sol\":131:179  mapping(address => string) public certifications */\n    tag_4:\n      tag_14\n      0x04\n      dup1\n      calldatasize\n      sub\n      dup2\n      add\n      swap1\n      tag_15\n      swap2\n      swap1\n      tag_10\n      jump\t// in\n    tag_15:\n      tag_16\n      jump\t// in\n    tag_14:\n      mload(0x40)\n      tag_17\n      swap2\n      swap1\n      tag_13\n      jump\t// in\n    tag_17:\n      mload(0x40)\n      dup1\n      swap2\n      sub\n      swap1\n      return\n        /* \"contracts/cert.sol\":186:229  mapping(address => bool) public isCertified */\n    tag_5:\n      tag_18\n      0x04\n      dup1\n      calldatasize\n      sub\n      dup2\n      add\n      swap1\n      tag_19\n      swap2\n      swap1\n      tag_10\n      jump\t// in\n    tag_19:\n      tag_20\n      jump\t// in\n    tag_18:\n      mload(0x40)\n      tag_21\n      swap2\n      swap1\n      tag_22\n      jump\t// in\n    tag_21:\n      mload(0x40)\n      dup1\n      swap2\n      sub\n      swap1\n      return\n        /* \"contracts/cert.sol\":529:938  function issueCertification(address recipient, string memory name, string memory description) public onlyOwner {... */\n    tag_6:\n      tag_23\n      0x04\n      dup1\n      calldatasize\n      sub\n      dup2\n      add\n      swap1\n      tag_24\n      swap2\n      swap1\n      tag_25\n      jump\t// in\n    tag_24:\n      tag_26\n      jump\t// in\n    tag_23:\n      stop\n        /* \"contracts/cert.sol\":102:122  address public owner */\n    tag_7:\n      tag_27\n      tag_28\n      jump\t// in\n    tag_27:\n      mload(0x40)\n      tag_29\n      swap2\n      swap1\n      tag_30\n      jump\t// in\n    tag_29:\n      mload(0x40)\n      dup1\n      swap2\n      sub\n      swap1\n      return\n        /* \"contracts/cert.sol\":946:1166  function verifyCertification(address recipient) public view returns (string memory) {... */\n    tag_11:\n        /* \"contracts/cert.sol\":1015:1028  string memory */\n      0x60\n        /* \"contracts/cert.sol\":1049:1060  isCertified */\n      0x02\n        /* \"contracts/cert.sol\":1049:1071  isCertified[recipient] */\n      0x00\n        /* \"contracts/cert.sol\":1061:1070  recipient */\n      dup4\n        /* \"contracts/cert.sol\":1049:1071  isCertified[recipient] */\n      0xffffffffffffffffffffffffffffffffffffffff\n      and\n      0xffffffffffffffffffffffffffffffffffffffff\n      and\n      dup2\n      mstore\n      0x20\n      add\n      swap1\n      dup2\n      mstore\n      0x20\n      add\n      0x00\n      keccak256\n      0x00\n      swap1\n      sload\n      swap1\n      0x0100\n      exp\n      swap1\n      div\n      0xff\n      and\n        /* \"contracts/cert.sol\":1041:1115  require(isCertified[recipient], \"No certification found for this address\") */\n      tag_32\n      jumpi\n      mload(0x40)\n      0x08c379a000000000000000000000000000000000000000000000000000000000\n      dup2\n      mstore\n      0x04\n      add\n      tag_33\n      swap1\n      tag_34\n      jump\t// in\n    tag_33:\n      mload(0x40)\n      dup1\n      swap2\n      sub\n      swap1\n      revert\n    tag_32:\n        /* \"contracts/cert.sol\":1133:1147  certifications */\n      0x01\n        /* \"contracts/cert.sol\":1133:1158  certifications[recipient] */\n      0x00\n        /* \"contracts/cert.sol\":1148:1157  recipient */\n      dup4\n        /* \"contracts/cert.sol\":1133:1158  certifications[recipient] */\n      0xffffffffffffffffffffffffffffffffffffffff\n      and\n      0xffffffffffffffffffffffffffffffffffffffff\n      and\n      dup2\n      mstore\n      0x20\n      add\n      swap1\n      dup2\n      mstore\n      0x20\n      add\n      0x00\n      keccak256\n        /* \"contracts/cert.sol\":1126:1158  return certifications[recipient] */\n      dup1\n      sload\n      tag_35\n      swap1\n      tag_36\n      jump\t// in\n    tag_35:\n      dup1\n      0x1f\n      add\n      0x20\n      dup1\n      swap2\n      div\n      mul\n      0x20\n      add\n      mload(0x40)\n      swap1\n      dup2\n      add\n      0x40\n      mstore\n      dup1\n      swap3\n      swap2\n      swap1\n      dup2\n      dup2\n      mstore\n      0x20\n      add\n      dup3\n      dup1\n      sload\n      tag_37\n      swap1\n      tag_36\n      jump\t// in\n    tag_37:\n      dup1\n      iszero\n      tag_38\n      jumpi\n      dup1\n      0x1f\n      lt\n      tag_39\n      jumpi\n      0x0100\n      dup1\n      dup4\n      sload\n      div\n      mul\n      dup4\n      mstore\n      swap2\n      0x20\n      add\n      swap2\n      jump(tag_38)\n    tag_39:\n      dup3\n      add\n      swap2\n      swap1\n      0x00\n      mstore\n      keccak256(0x00, 0x20)\n      swap1\n    tag_40:\n      dup2\n      sload\n      dup2\n      mstore\n      swap1\n      0x01\n      add\n      swap1\n      0x20\n      add\n      dup1\n      dup4\n      gt\n      tag_40\n      jumpi\n      dup3\n      swap1\n      sub\n      0x1f\n      and\n      dup3\n      add\n      swap2\n    tag_38:\n      pop\n      pop\n      pop\n      pop\n      pop\n      swap1\n      pop\n        /* \"contracts/cert.sol\":946:1166  function verifyCertification(address recipient) public view returns (string memory) {... */\n      swap2\n      swap1\n      pop\n      jump\t// out\n        /* \"contracts/cert.sol\":131:179  mapping(address => string) public certifications */\n    tag_16:\n      mstore(0x20, 0x01)\n      dup1\n      0x00\n      mstore\n      keccak256(0x00, 0x40)\n      0x00\n      swap2\n      pop\n      swap1\n      pop\n      dup1\n      sload\n      tag_41\n      swap1\n      tag_36\n      jump\t// in\n    tag_41:\n      dup1\n      0x1f\n      add\n      0x20\n      dup1\n      swap2\n      div\n      mul\n      0x20\n      add\n      mload(0x40)\n      swap1\n      dup2\n      add\n      0x40\n      mstore\n      dup1\n      swap3\n      swap2\n      swap1\n      dup2\n      dup2\n      mstore\n      0x20\n      add\n      dup3\n      dup1\n      sload\n      tag_42\n      swap1\n      tag_36\n      jump\t// in\n    tag_42:\n      dup1\n      iszero\n      tag_43\n      jumpi\n      dup1\n      0x1f\n      lt\n      tag_44\n      jumpi\n      0x0100\n      dup1\n      dup4\n      sload\n      div\n      mul\n      dup4\n      mstore\n      swap2\n      0x20\n      add\n      swap2\n      jump(tag_43)\n    tag_44:\n      dup3\n      add\n      swap2\n      swap1\n      0x00\n      mstore\n      keccak256(0x00, 0x20)\n      swap1\n    tag_45:\n      dup2\n      sload\n      dup2\n      mstore\n      swap1\n      0x01\n      add\n      swap1\n      0x20\n      add\n      dup1\n      dup4\n      gt\n      tag_45\n      jumpi\n      dup3\n      swap1\n      sub\n      0x1f\n      and\n      dup3\n      add\n      swap2\n    tag_43:\n      pop\n      pop\n      pop\n      pop\n      pop\n      dup2\n      jump\t// out\n        /* \"contracts/cert.sol\":186:229  mapping(address => bool) public isCertified */\n    tag_20:\n      mstore(0x20, 0x02)\n      dup1\n      0x00\n      mstore\n      keccak256(0x00, 0x40)\n      0x00\n      swap2\n      pop\n      sload\n      swap1\n      0x0100\n      exp\n      swap1\n      div\n      0xff\n      and\n      dup2\n      jump\t// out\n        /* \"contracts/cert.sol\":529:938  function issueCertification(address recipient, string memory name, string memory description) public onlyOwner {... */\n    tag_26:\n        /* \"contracts/cert.sol\":445:450  owner */\n      0x00\n      dup1\n      sload\n      swap1\n      0x0100\n      exp\n      swap1\n      div\n      0xffffffffffffffffffffffffffffffffffffffff\n      and\n        /* \"contracts/cert.sol\":431:450  msg.sender == owner */\n      0xffffffffffffffffffffffffffffffffffffffff\n      and\n        /* \"contracts/cert.sol\":431:441  msg.sender */\n      caller\n        /* \"contracts/cert.sol\":431:450  msg.sender == owner */\n      0xffffffffffffffffffffffffffffffffffffffff\n      and\n      eq\n        /* \"contracts/cert.sol\":423:501  require(msg.sender == owner, \"Only the contract owner can call this function\") */\n      tag_47\n      jumpi\n      mload(0x40)\n      0x08c379a000000000000000000000000000000000000000000000000000000000\n      dup2\n      mstore\n      0x04\n      add\n      tag_48\n      swap1\n      tag_49\n      jump\t// in\n    tag_48:\n      mload(0x40)\n      dup1\n      swap2\n      sub\n      swap1\n      revert\n    tag_47:\n        /* \"contracts/cert.sol\":660:671  isCertified */\n      0x02\n        /* \"contracts/cert.sol\":660:682  isCertified[recipient] */\n      0x00\n        /* \"contracts/cert.sol\":672:681  recipient */\n      dup5\n        /* \"contracts/cert.sol\":660:682  isCertified[recipient] */\n      0xffffffffffffffffffffffffffffffffffffffff\n      and\n      0xffffffffffffffffffffffffffffffffffffffff\n      and\n      dup2\n      mstore\n      0x20\n      add\n      swap1\n      dup2\n      mstore\n      0x20\n      add\n      0x00\n      keccak256\n      0x00\n      swap1\n      sload\n      swap1\n      0x0100\n      exp\n      swap1\n      div\n      0xff\n      and\n        /* \"contracts/cert.sol\":659:682  !isCertified[recipient] */\n      iszero\n        /* \"contracts/cert.sol\":651:732  require(!isCertified[recipient], \"Certification already issued for this address\") */\n      tag_51\n      jumpi\n      mload(0x40)\n      0x08c379a000000000000000000000000000000000000000000000000000000000\n      dup2\n      mstore\n      0x04\n      add\n      tag_52\n      swap1\n      tag_53\n      jump\t// in\n    tag_52:\n      mload(0x40)\n      dup1\n      swap2\n      sub\n      swap1\n      revert\n    tag_51:\n        /* \"contracts/cert.sol\":797:801  name */\n      dup2\n        /* \"contracts/cert.sol\":810:821  description */\n      dup2\n        /* \"contracts/cert.sol\":780:822  abi.encodePacked(name, \" - \", description) */\n      add(0x20, mload(0x40))\n      tag_54\n      swap3\n      swap2\n      swap1\n      tag_55\n      jump\t// in\n    tag_54:\n      mload(0x40)\n      0x20\n      dup2\n      dup4\n      sub\n      sub\n      dup2\n      mstore\n      swap1\n      0x40\n      mstore\n        /* \"contracts/cert.sol\":745:759  certifications */\n      0x01\n        /* \"contracts/cert.sol\":745:770  certifications[recipient] */\n      0x00\n        /* \"contracts/cert.sol\":760:769  recipient */\n      dup6\n        /* \"contracts/cert.sol\":745:770  certifications[recipient] */\n      0xffffffffffffffffffffffffffffffffffffffff\n      and\n      0xffffffffffffffffffffffffffffffffffffffff\n      and\n      dup2\n      mstore\n      0x20\n      add\n      swap1\n      dup2\n      mstore\n      0x20\n      add\n      0x00\n      keccak256\n        /* \"contracts/cert.sol\":745:823  certifications[recipient] = string(abi.encodePacked(name, \" - \", description)) */\n      swap1\n      dup2\n      tag_56\n      swap2\n      swap1\n      tag_57\n      jump\t// in\n    tag_56:\n      pop\n        /* \"contracts/cert.sol\":859:863  true */\n      0x01\n        /* \"contracts/cert.sol\":834:845  isCertified */\n      0x02\n        /* \"contracts/cert.sol\":834:856  isCertified[recipient] */\n      0x00\n        /* \"contracts/cert.sol\":846:855  recipient */\n      dup6\n        /* \"contracts/cert.sol\":834:856  isCertified[recipient] */\n      0xffffffffffffffffffffffffffffffffffffffff\n      and\n      0xffffffffffffffffffffffffffffffffffffffff\n      and\n      dup2\n      mstore\n      0x20\n      add\n      swap1\n      dup2\n      mstore\n      0x20\n      add\n      0x00\n      keccak256\n      0x00\n        /* \"contracts/cert.sol\":834:863  isCertified[recipient] = true */\n      0x0100\n      exp\n      dup2\n      sload\n      dup2\n      0xff\n      mul\n      not\n      and\n      swap1\n      dup4\n      iszero\n      iszero\n      mul\n      or\n      swap1\n      sstore\n      pop\n        /* \"contracts/cert.sol\":901:910  recipient */\n      dup3\n        /* \"contracts/cert.sol\":881:930  CertificationIssued(recipient, name, description) */\n      0xffffffffffffffffffffffffffffffffffffffff\n      and\n      0xefd11eab38ed6a8b5cbded4032e4defe30089da6cb4223dc4fa9c24d96500766\n        /* \"contracts/cert.sol\":912:916  name */\n      dup4\n        /* \"contracts/cert.sol\":918:929  description */\n      dup4\n        /* \"contracts/cert.sol\":881:930  CertificationIssued(recipient, name, description) */\n      mload(0x40)\n      tag_58\n      swap3\n      swap2\n      swap1\n      tag_59\n      jump\t// in\n    tag_58:\n      mload(0x40)\n      dup1\n      swap2\n      sub\n      swap1\n      log2\n        /* \"contracts/cert.sol\":529:938  function issueCertification(address recipient, string memory name, string memory description) public onlyOwner {... */\n      pop\n      pop\n      pop\n      jump\t// out\n        /* \"contracts/cert.sol\":102:122  address public owner */\n    tag_28:\n      0x00\n      dup1\n      sload\n      swap1\n      0x0100\n      exp\n      swap1\n      div\n      0xffffffffffffffffffffffffffffffffffffffff\n      and\n      dup2\n      jump\t// out\n        /* \"#utility.yul\":7:82   */\n    tag_60:\n        /* \"#utility.yul\":40:46   */\n      0x00\n        /* \"#utility.yul\":73:75   */\n      0x40\n        /* \"#utility.yul\":67:76   */\n      mload\n        /* \"#utility.yul\":57:76   */\n      swap1\n      pop\n        /* \"#utility.yul\":7:82   */\n      swap1\n      jump\t// out\n        /* \"#utility.yul\":88:205   */\n    tag_61:\n        /* \"#utility.yul\":197:198   */\n      0x00\n        /* \"#utility.yul\":194:195   */\n      dup1\n        /* \"#utility.yul\":187:199   */\n      revert\n        /* \"#utility.yul\":211:328   */\n    tag_62:\n        /* \"#utility.yul\":320:321   */\n      0x00\n        /* \"#utility.yul\":317:318   */\n      dup1\n        /* \"#utility.yul\":310:322   */\n      revert\n        /* \"#utility.yul\":334:460   */\n    tag_63:\n        /* \"#utility.yul\":371:378   */\n      0x00\n        /* \"#utility.yul\":411:453   */\n      0xffffffffffffffffffffffffffffffffffffffff\n        /* \"#utility.yul\":404:409   */\n      dup3\n        /* \"#utility.yul\":400:454   */\n      and\n        /* \"#utility.yul\":389:454   */\n      swap1\n      pop\n        /* \"#utility.yul\":334:460   */\n      swap2\n      swap1\n      pop\n      jump\t// out\n        /* \"#utility.yul\":466:562   */\n    tag_64:\n        /* \"#utility.yul\":503:510   */\n      0x00\n        /* \"#utility.yul\":532:556   */\n      tag_117\n        /* \"#utility.yul\":550:555   */\n      dup3\n        /* \"#utility.yul\":532:556   */\n      tag_63\n      jump\t// in\n    tag_117:\n        /* \"#utility.yul\":521:556   */\n      swap1\n      pop\n        /* \"#utility.yul\":466:562   */\n      swap2\n      swap1\n      pop\n      jump\t// out\n        /* \"#utility.yul\":568:690   */\n    tag_65:\n        /* \"#utility.yul\":641:665   */\n      tag_119\n        /* \"#utility.yul\":659:664   */\n      dup2\n        /* \"#utility.yul\":641:665   */\n      tag_64\n      jump\t// in\n    tag_119:\n        /* \"#utility.yul\":634:639   */\n      dup2\n        /* \"#utility.yul\":631:666   */\n      eq\n        /* \"#utility.yul\":621:684   */\n      tag_120\n      jumpi\n        /* \"#utility.yul\":680:681   */\n      0x00\n        /* \"#utility.yul\":677:678   */\n      dup1\n        /* \"#utility.yul\":670:682   */\n      revert\n        /* \"#utility.yul\":621:684   */\n    tag_120:\n        /* \"#utility.yul\":568:690   */\n      pop\n      jump\t// out\n        /* \"#utility.yul\":696:835   */\n    tag_66:\n        /* \"#utility.yul\":742:747   */\n      0x00\n        /* \"#utility.yul\":780:786   */\n      dup2\n        /* \"#utility.yul\":767:787   */\n      calldataload\n        /* \"#utility.yul\":758:787   */\n      swap1\n      pop\n        /* \"#utility.yul\":796:829   */\n      tag_122\n        /* \"#utility.yul\":823:828   */\n      dup2\n        /* \"#utility.yul\":796:829   */\n      tag_65\n      jump\t// in\n    tag_122:\n        /* \"#utility.yul\":696:835   */\n      swap3\n      swap2\n      pop\n      pop\n      jump\t// out\n        /* \"#utility.yul\":841:1170   */\n    tag_10:\n        /* \"#utility.yul\":900:906   */\n      0x00\n        /* \"#utility.yul\":949:951   */\n      0x20\n        /* \"#utility.yul\":937:946   */\n      dup3\n        /* \"#utility.yul\":928:935   */\n      dup5\n        /* \"#utility.yul\":924:947   */\n      sub\n        /* \"#utility.yul\":920:952   */\n      slt\n        /* \"#utility.yul\":917:1036   */\n      iszero\n      tag_124\n      jumpi\n        /* \"#utility.yul\":955:1034   */\n      tag_125\n      tag_61\n      jump\t// in\n    tag_125:\n        /* \"#utility.yul\":917:1036   */\n    tag_124:\n        /* \"#utility.yul\":1075:1076   */\n      0x00\n        /* \"#utility.yul\":1100:1153   */\n      tag_126\n        /* \"#utility.yul\":1145:1152   */\n      dup5\n        /* \"#utility.yul\":1136:1142   */\n      dup3\n        /* \"#utility.yul\":1125:1134   */\n      dup6\n        /* \"#utility.yul\":1121:1143   */\n      add\n        /* \"#utility.yul\":1100:1153   */\n      tag_66\n      jump\t// in\n    tag_126:\n        /* \"#utility.yul\":1090:1153   */\n      swap2\n      pop\n        /* \"#utility.yul\":1046:1163   */\n      pop\n        /* \"#utility.yul\":841:1170   */\n      swap3\n      swap2\n      pop\n      pop\n      jump\t// out\n        /* \"#utility.yul\":1176:1275   */\n    tag_67:\n        /* \"#utility.yul\":1228:1234   */\n      0x00\n        /* \"#utility.yul\":1262:1267   */\n      dup2\n        /* \"#utility.yul\":1256:1268   */\n      mload\n        /* \"#utility.yul\":1246:1268   */\n      swap1\n      pop\n        /* \"#utility.yul\":1176:1275   */\n      swap2\n      swap1\n      pop\n      jump\t// out\n        /* \"#utility.yul\":1281:1450   */\n    tag_68:\n        /* \"#utility.yul\":1365:1376   */\n      0x00\n        /* \"#utility.yul\":1399:1405   */\n      dup3\n        /* \"#utility.yul\":1394:1397   */\n      dup3\n        /* \"#utility.yul\":1387:1406   */\n      mstore\n        /* \"#utility.yul\":1439:1443   */\n      0x20\n        /* \"#utility.yul\":1434:1437   */\n      dup3\n        /* \"#utility.yul\":1430:1444   */\n      add\n        /* \"#utility.yul\":1415:1444   */\n      swap1\n      pop\n        /* \"#utility.yul\":1281:1450   */\n      swap3\n      swap2\n      pop\n      pop\n      jump\t// out\n        /* \"#utility.yul\":1456:1702   */\n    tag_69:\n        /* \"#utility.yul\":1537:1538   */\n      0x00\n        /* \"#utility.yul\":1547:1660   */\n    tag_130:\n        /* \"#utility.yul\":1561:1567   */\n      dup4\n        /* \"#utility.yul\":1558:1559   */\n      dup2\n        /* \"#utility.yul\":1555:1568   */\n      lt\n        /* \"#utility.yul\":1547:1660   */\n      iszero\n      tag_132\n      jumpi\n        /* \"#utility.yul\":1646:1647   */\n      dup1\n        /* \"#utility.yul\":1641:1644   */\n      dup3\n        /* \"#utility.yul\":1637:1648   */\n      add\n        /* \"#utility.yul\":1631:1649   */\n      mload\n        /* \"#utility.yul\":1627:1628   */\n      dup2\n        /* \"#utility.yul\":1622:1625   */\n      dup5\n        /* \"#utility.yul\":1618:1629   */\n      add\n        /* \"#utility.yul\":1611:1650   */\n      mstore\n        /* \"#utility.yul\":1583:1585   */\n      0x20\n        /* \"#utility.yul\":1580:1581   */\n      dup2\n        /* \"#utility.yul\":1576:1586   */\n      add\n        /* \"#utility.yul\":1571:1586   */\n      swap1\n      pop\n        /* \"#utility.yul\":1547:1660   */\n      jump(tag_130)\n    tag_132:\n        /* \"#utility.yul\":1694:1695   */\n      0x00\n        /* \"#utility.yul\":1685:1691   */\n      dup5\n        /* \"#utility.yul\":1680:1683   */\n      dup5\n        /* \"#utility.yul\":1676:1692   */\n      add\n        /* \"#utility.yul\":1669:1696   */\n      mstore\n        /* \"#utility.yul\":1518:1702   */\n      pop\n        /* \"#utility.yul\":1456:1702   */\n      pop\n      pop\n      pop\n      jump\t// out\n        /* \"#utility.yul\":1708:1810   */\n    tag_70:\n        /* \"#utility.yul\":1749:1755   */\n      0x00\n        /* \"#utility.yul\":1800:1802   */\n      0x1f\n        /* \"#utility.yul\":1796:1803   */\n      not\n        /* \"#utility.yul\":1791:1793   */\n      0x1f\n        /* \"#utility.yul\":1784:1789   */\n      dup4\n        /* \"#utility.yul\":1780:1794   */\n      add\n        /* \"#utility.yul\":1776:1804   */\n      and\n        /* \"#utility.yul\":1766:1804   */\n      swap1\n      pop\n        /* \"#utility.yul\":1708:1810   */\n      swap2\n      swap1\n      pop\n      jump\t// out\n        /* \"#utility.yul\":1816:2193   */\n    tag_71:\n        /* \"#utility.yul\":1904:1907   */\n      0x00\n        /* \"#utility.yul\":1932:1971   */\n      tag_135\n        /* \"#utility.yul\":1965:1970   */\n      dup3\n        /* \"#utility.yul\":1932:1971   */\n      tag_67\n      jump\t// in\n    tag_135:\n        /* \"#utility.yul\":1987:2058   */\n      tag_136\n        /* \"#utility.yul\":2051:2057   */\n      dup2\n        /* \"#utility.yul\":2046:2049   */\n      dup6\n        /* \"#utility.yul\":1987:2058   */\n      tag_68\n      jump\t// in\n    tag_136:\n        /* \"#utility.yul\":1980:2058   */\n      swap4\n      pop\n        /* \"#utility.yul\":2067:2132   */\n      tag_137\n        /* \"#utility.yul\":2125:2131   */\n      dup2\n        /* \"#utility.yul\":2120:2123   */\n      dup6\n        /* \"#utility.yul\":2113:2117   */\n      0x20\n        /* \"#utility.yul\":2106:2111   */\n      dup7\n        /* \"#utility.yul\":2102:2118   */\n      add\n        /* \"#utility.yul\":2067:2132   */\n      tag_69\n      jump\t// in\n    tag_137:\n        /* \"#utility.yul\":2157:2186   */\n      tag_138\n        /* \"#utility.yul\":2179:2185   */\n      dup2\n        /* \"#utility.yul\":2157:2186   */\n      tag_70\n      jump\t// in\n    tag_138:\n        /* \"#utility.yul\":2152:2155   */\n      dup5\n        /* \"#utility.yul\":2148:2187   */\n      add\n        /* \"#utility.yul\":2141:2187   */\n      swap2\n      pop\n        /* \"#utility.yul\":1908:2193   */\n      pop\n        /* \"#utility.yul\":1816:2193   */\n      swap3\n      swap2\n      pop\n      pop\n      jump\t// out\n        /* \"#utility.yul\":2199:2512   */\n    tag_13:\n        /* \"#utility.yul\":2312:2316   */\n      0x00\n        /* \"#utility.yul\":2350:2352   */\n      0x20\n        /* \"#utility.yul\":2339:2348   */\n      dup3\n        /* \"#utility.yul\":2335:2353   */\n      add\n        /* \"#utility.yul\":2327:2353   */\n      swap1\n      pop\n        /* \"#utility.yul\":2399:2408   */\n      dup2\n        /* \"#utility.yul\":2393:2397   */\n      dup2\n        /* \"#utility.yul\":2389:2409   */\n      sub\n        /* \"#utility.yul\":2385:2386   */\n      0x00\n        /* \"#utility.yul\":2374:2383   */\n      dup4\n        /* \"#utility.yul\":2370:2387   */\n      add\n        /* \"#utility.yul\":2363:2410   */\n      mstore\n        /* \"#utility.yul\":2427:2505   */\n      tag_140\n        /* \"#utility.yul\":2500:2504   */\n      dup2\n        /* \"#utility.yul\":2491:2497   */\n      dup5\n        /* \"#utility.yul\":2427:2505   */\n      tag_71\n      jump\t// in\n    tag_140:\n        /* \"#utility.yul\":2419:2505   */\n      swap1\n      pop\n        /* \"#utility.yul\":2199:2512   */\n      swap3\n      swap2\n      pop\n      pop\n      jump\t// out\n        /* \"#utility.yul\":2518:2608   */\n    tag_72:\n        /* \"#utility.yul\":2552:2559   */\n      0x00\n        /* \"#utility.yul\":2595:2600   */\n      dup2\n        /* \"#utility.yul\":2588:2601   */\n      iszero\n        /* \"#utility.yul\":2581:2602   */\n      iszero\n        /* \"#utility.yul\":2570:2602   */\n      swap1\n      pop\n        /* \"#utility.yul\":2518:2608   */\n      swap2\n      swap1\n      pop\n      jump\t// out\n        /* \"#utility.yul\":2614:2723   */\n    tag_73:\n        /* \"#utility.yul\":2695:2716   */\n      tag_143\n        /* \"#utility.yul\":2710:2715   */\n      dup2\n        /* \"#utility.yul\":2695:2716   */\n      tag_72\n      jump\t// in\n    tag_143:\n        /* \"#utility.yul\":2690:2693   */\n      dup3\n        /* \"#utility.yul\":2683:2717   */\n      mstore\n        /* \"#utility.yul\":2614:2723   */\n      pop\n      pop\n      jump\t// out\n        /* \"#utility.yul\":2729:2939   */\n    tag_22:\n        /* \"#utility.yul\":2816:2820   */\n      0x00\n        /* \"#utility.yul\":2854:2856   */\n      0x20\n        /* \"#utility.yul\":2843:2852   */\n      dup3\n        /* \"#utility.yul\":2839:2857   */\n      add\n        /* \"#utility.yul\":2831:2857   */\n      swap1\n      pop\n        /* \"#utility.yul\":2867:2932   */\n      tag_145\n        /* \"#utility.yul\":2929:2930   */\n      0x00\n        /* \"#utility.yul\":2918:2927   */\n      dup4\n        /* \"#utility.yul\":2914:2931   */\n      add\n        /* \"#utility.yul\":2905:2911   */\n      dup5\n        /* \"#utility.yul\":2867:2932   */\n      tag_73\n      jump\t// in\n    tag_145:\n        /* \"#utility.yul\":2729:2939   */\n      swap3\n      swap2\n      pop\n      pop\n      jump\t// out\n        /* \"#utility.yul\":2945:3062   */\n    tag_74:\n        /* \"#utility.yul\":3054:3055   */\n      0x00\n        /* \"#utility.yul\":3051:3052   */\n      dup1\n        /* \"#utility.yul\":3044:3056   */\n      revert\n        /* \"#utility.yul\":3068:3185   */\n    tag_75:\n        /* \"#utility.yul\":3177:3178   */\n      0x00\n        /* \"#utility.yul\":3174:3175   */\n      dup1\n        /* \"#utility.yul\":3167:3179   */\n      revert\n        /* \"#utility.yul\":3191:3371   */\n    tag_76:\n        /* \"#utility.yul\":3239:3316   */\n      0x4e487b7100000000000000000000000000000000000000000000000000000000\n        /* \"#utility.yul\":3236:3237   */\n      0x00\n        /* \"#utility.yul\":3229:3317   */\n      mstore\n        /* \"#utility.yul\":3336:3340   */\n      0x41\n        /* \"#utility.yul\":3333:3334   */\n      0x04\n        /* \"#utility.yul\":3326:3341   */\n      mstore\n        /* \"#utility.yul\":3360:3364   */\n      0x24\n        /* \"#utility.yul\":3357:3358   */\n      0x00\n        /* \"#utility.yul\":3350:3365   */\n      revert\n        /* \"#utility.yul\":3377:3658   */\n    tag_77:\n        /* \"#utility.yul\":3460:3487   */\n      tag_150\n        /* \"#utility.yul\":3482:3486   */\n      dup3\n        /* \"#utility.yul\":3460:3487   */\n      tag_70\n      jump\t// in\n    tag_150:\n        /* \"#utility.yul\":3452:3458   */\n      dup2\n        /* \"#utility.yul\":3448:3488   */\n      add\n        /* \"#utility.yul\":3590:3596   */\n      dup2\n        /* \"#utility.yul\":3578:3588   */\n      dup2\n        /* \"#utility.yul\":3575:3597   */\n      lt\n        /* \"#utility.yul\":3554:3572   */\n      0xffffffffffffffff\n        /* \"#utility.yul\":3542:3552   */\n      dup3\n        /* \"#utility.yul\":3539:3573   */\n      gt\n        /* \"#utility.yul\":3536:3598   */\n      or\n        /* \"#utility.yul\":3533:3621   */\n      iszero\n      tag_151\n      jumpi\n        /* \"#utility.yul\":3601:3619   */\n      tag_152\n      tag_76\n      jump\t// in\n    tag_152:\n        /* \"#utility.yul\":3533:3621   */\n    tag_151:\n        /* \"#utility.yul\":3641:3651   */\n      dup1\n        /* \"#utility.yul\":3637:3639   */\n      0x40\n        /* \"#utility.yul\":3630:3652   */\n      mstore\n        /* \"#utility.yul\":3420:3658   */\n      pop\n        /* \"#utility.yul\":3377:3658   */\n      pop\n      pop\n      jump\t// out\n        /* \"#utility.yul\":3664:3793   */\n    tag_78:\n        /* \"#utility.yul\":3698:3704   */\n      0x00\n        /* \"#utility.yul\":3725:3745   */\n      tag_154\n      tag_60\n      jump\t// in\n    tag_154:\n        /* \"#utility.yul\":3715:3745   */\n      swap1\n      pop\n        /* \"#utility.yul\":3754:3787   */\n      tag_155\n        /* \"#utility.yul\":3782:3786   */\n      dup3\n        /* \"#utility.yul\":3774:3780   */\n      dup3\n        /* \"#utility.yul\":3754:3787   */\n      tag_77\n      jump\t// in\n    tag_155:\n        /* \"#utility.yul\":3664:3793   */\n      swap2\n      swap1\n      pop\n      jump\t// out\n        /* \"#utility.yul\":3799:4107   */\n    tag_79:\n        /* \"#utility.yul\":3861:3865   */\n      0x00\n        /* \"#utility.yul\":3951:3969   */\n      0xffffffffffffffff\n        /* \"#utility.yul\":3943:3949   */\n      dup3\n        /* \"#utility.yul\":3940:3970   */\n      gt\n        /* \"#utility.yul\":3937:3993   */\n      iszero\n      tag_157\n      jumpi\n        /* \"#utility.yul\":3973:3991   */\n      tag_158\n      tag_76\n      jump\t// in\n    tag_158:\n        /* \"#utility.yul\":3937:3993   */\n    tag_157:\n        /* \"#utility.yul\":4011:4040   */\n      tag_159\n        /* \"#utility.yul\":4033:4039   */\n      dup3\n        /* \"#utility.yul\":4011:4040   */\n      tag_70\n      jump\t// in\n    tag_159:\n        /* \"#utility.yul\":4003:4040   */\n      swap1\n      pop\n        /* \"#utility.yul\":4095:4099   */\n      0x20\n        /* \"#utility.yul\":4089:4093   */\n      dup2\n        /* \"#utility.yul\":4085:4100   */\n      add\n        /* \"#utility.yul\":4077:4100   */\n      swap1\n      pop\n        /* \"#utility.yul\":3799:4107   */\n      swap2\n      swap1\n      pop\n      jump\t// out\n        /* \"#utility.yul\":4113:4259   */\n    tag_80:\n        /* \"#utility.yul\":4210:4216   */\n      dup3\n        /* \"#utility.yul\":4205:4208   */\n      dup2\n        /* \"#utility.yul\":4200:4203   */\n      dup4\n        /* \"#utility.yul\":4187:4217   */\n      calldatacopy\n        /* \"#utility.yul\":4251:4252   */\n      0x00\n        /* \"#utility.yul\":4242:4248   */\n      dup4\n        /* \"#utility.yul\":4237:4240   */\n      dup4\n        /* \"#utility.yul\":4233:4249   */\n      add\n        /* \"#utility.yul\":4226:4253   */\n      mstore\n        /* \"#utility.yul\":4113:4259   */\n      pop\n      pop\n      pop\n      jump\t// out\n        /* \"#utility.yul\":4265:4690   */\n    tag_81:\n        /* \"#utility.yul\":4343:4348   */\n      0x00\n        /* \"#utility.yul\":4368:4434   */\n      tag_162\n        /* \"#utility.yul\":4384:4433   */\n      tag_163\n        /* \"#utility.yul\":4426:4432   */\n      dup5\n        /* \"#utility.yul\":4384:4433   */\n      tag_79\n      jump\t// in\n    tag_163:\n        /* \"#utility.yul\":4368:4434   */\n      tag_78\n      jump\t// in\n    tag_162:\n        /* \"#utility.yul\":4359:4434   */\n      swap1\n      pop\n        /* \"#utility.yul\":4457:4463   */\n      dup3\n        /* \"#utility.yul\":4450:4455   */\n      dup2\n        /* \"#utility.yul\":4443:4464   */\n      mstore\n        /* \"#utility.yul\":4495:4499   */\n      0x20\n        /* \"#utility.yul\":4488:4493   */\n      dup2\n        /* \"#utility.yul\":4484:4500   */\n      add\n        /* \"#utility.yul\":4533:4536   */\n      dup5\n        /* \"#utility.yul\":4524:4530   */\n      dup5\n        /* \"#utility.yul\":4519:4522   */\n      dup5\n        /* \"#utility.yul\":4515:4531   */\n      add\n        /* \"#utility.yul\":4512:4537   */\n      gt\n        /* \"#utility.yul\":4509:4621   */\n      iszero\n      tag_164\n      jumpi\n        /* \"#utility.yul\":4540:4619   */\n      tag_165\n      tag_75\n      jump\t// in\n    tag_165:\n        /* \"#utility.yul\":4509:4621   */\n    tag_164:\n        /* \"#utility.yul\":4630:4684   */\n      tag_166\n        /* \"#utility.yul\":4677:4683   */\n      dup5\n        /* \"#utility.yul\":4672:4675   */\n      dup3\n        /* \"#utility.yul\":4667:4670   */\n      dup6\n        /* \"#utility.yul\":4630:4684   */\n      tag_80\n      jump\t// in\n    tag_166:\n        /* \"#utility.yul\":4349:4690   */\n      pop\n        /* \"#utility.yul\":4265:4690   */\n      swap4\n      swap3\n      pop\n      pop\n      pop\n      jump\t// out\n        /* \"#utility.yul\":4710:5050   */\n    tag_82:\n        /* \"#utility.yul\":4766:4771   */\n      0x00\n        /* \"#utility.yul\":4815:4818   */\n      dup3\n        /* \"#utility.yul\":4808:4812   */\n      0x1f\n        /* \"#utility.yul\":4800:4806   */\n      dup4\n        /* \"#utility.yul\":4796:4813   */\n      add\n        /* \"#utility.yul\":4792:4819   */\n      slt\n        /* \"#utility.yul\":4782:4904   */\n      tag_168\n      jumpi\n        /* \"#utility.yul\":4823:4902   */\n      tag_169\n      tag_74\n      jump\t// in\n    tag_169:\n        /* \"#utility.yul\":4782:4904   */\n    tag_168:\n        /* \"#utility.yul\":4940:4946   */\n      dup2\n        /* \"#utility.yul\":4927:4947   */\n      calldataload\n        /* \"#utility.yul\":4965:5044   */\n      tag_170\n        /* \"#utility.yul\":5040:5043   */\n      dup5\n        /* \"#utility.yul\":5032:5038   */\n      dup3\n        /* \"#utility.yul\":5025:5029   */\n      0x20\n        /* \"#utility.yul\":5017:5023   */\n      dup7\n        /* \"#utility.yul\":5013:5030   */\n      add\n        /* \"#utility.yul\":4965:5044   */\n      tag_81\n      jump\t// in\n    tag_170:\n        /* \"#utility.yul\":4956:5044   */\n      swap2\n      pop\n        /* \"#utility.yul\":4772:5050   */\n      pop\n        /* \"#utility.yul\":4710:5050   */\n      swap3\n      swap2\n      pop\n      pop\n      jump\t// out\n        /* \"#utility.yul\":5056:6035   */\n    tag_25:\n        /* \"#utility.yul\":5153:5159   */\n      0x00\n        /* \"#utility.yul\":5161:5167   */\n      dup1\n        /* \"#utility.yul\":5169:5175   */\n      0x00\n        /* \"#utility.yul\":5218:5220   */\n      0x60\n        /* \"#utility.yul\":5206:5215   */\n      dup5\n        /* \"#utility.yul\":5197:5204   */\n      dup7\n        /* \"#utility.yul\":5193:5216   */\n      sub\n        /* \"#utility.yul\":5189:5221   */\n      slt\n        /* \"#utility.yul\":5186:5305   */\n      iszero\n      tag_172\n      jumpi\n        /* \"#utility.yul\":5224:5303   */\n      tag_173\n      tag_61\n      jump\t// in\n    tag_173:\n        /* \"#utility.yul\":5186:5305   */\n    tag_172:\n        /* \"#utility.yul\":5344:5345   */\n      0x00\n        /* \"#utility.yul\":5369:5422   */\n      tag_174\n        /* \"#utility.yul\":5414:5421   */\n      dup7\n        /* \"#utility.yul\":5405:5411   */\n      dup3\n        /* \"#utility.yul\":5394:5403   */\n      dup8\n        /* \"#utility.yul\":5390:5412   */\n      add\n        /* \"#utility.yul\":5369:5422   */\n      tag_66\n      jump\t// in\n    tag_174:\n        /* \"#utility.yul\":5359:5422   */\n      swap4\n      pop\n        /* \"#utility.yul\":5315:5432   */\n      pop\n        /* \"#utility.yul\":5499:5501   */\n      0x20\n        /* \"#utility.yul\":5488:5497   */\n      dup5\n        /* \"#utility.yul\":5484:5502   */\n      add\n        /* \"#utility.yul\":5471:5503   */\n      calldataload\n        /* \"#utility.yul\":5530:5548   */\n      0xffffffffffffffff\n        /* \"#utility.yul\":5522:5528   */\n      dup2\n        /* \"#utility.yul\":5519:5549   */\n      gt\n        /* \"#utility.yul\":5516:5633   */\n      iszero\n      tag_175\n      jumpi\n        /* \"#utility.yul\":5552:5631   */\n      tag_176\n      tag_62\n      jump\t// in\n    tag_176:\n        /* \"#utility.yul\":5516:5633   */\n    tag_175:\n        /* \"#utility.yul\":5657:5720   */\n      tag_177\n        /* \"#utility.yul\":5712:5719   */\n      dup7\n        /* \"#utility.yul\":5703:5709   */\n      dup3\n        /* \"#utility.yul\":5692:5701   */\n      dup8\n        /* \"#utility.yul\":5688:5710   */\n      add\n        /* \"#utility.yul\":5657:5720   */\n      tag_82\n      jump\t// in\n    tag_177:\n        /* \"#utility.yul\":5647:5720   */\n      swap3\n      pop\n        /* \"#utility.yul\":5442:5730   */\n      pop\n        /* \"#utility.yul\":5797:5799   */\n      0x40\n        /* \"#utility.yul\":5786:5795   */\n      dup5\n        /* \"#utility.yul\":5782:5800   */\n      add\n        /* \"#utility.yul\":5769:5801   */\n      calldataload\n        /* \"#utility.yul\":5828:5846   */\n      0xffffffffffffffff\n        /* \"#utility.yul\":5820:5826   */\n      dup2\n        /* \"#utility.yul\":5817:5847   */\n      gt\n        /* \"#utility.yul\":5814:5931   */\n      iszero\n      tag_178\n      jumpi\n        /* \"#utility.yul\":5850:5929   */\n      tag_179\n      tag_62\n      jump\t// in\n    tag_179:\n        /* \"#utility.yul\":5814:5931   */\n    tag_178:\n        /* \"#utility.yul\":5955:6018   */\n      tag_180\n        /* \"#utility.yul\":6010:6017   */\n      dup7\n        /* \"#utility.yul\":6001:6007   */\n      dup3\n        /* \"#utility.yul\":5990:5999   */\n      dup8\n        /* \"#utility.yul\":5986:6008   */\n      add\n        /* \"#utility.yul\":5955:6018   */\n      tag_82\n      jump\t// in\n    tag_180:\n        /* \"#utility.yul\":5945:6018   */\n      swap2\n      pop\n        /* \"#utility.yul\":5740:6028   */\n      pop\n        /* \"#utility.yul\":5056:6035   */\n      swap3\n      pop\n      swap3\n      pop\n      swap3\n      jump\t// out\n        /* \"#utility.yul\":6041:6159   */\n    tag_83:\n        /* \"#utility.yul\":6128:6152   */\n      tag_182\n        /* \"#utility.yul\":6146:6151   */\n      dup2\n        /* \"#utility.yul\":6128:6152   */\n      tag_64\n      jump\t// in\n    tag_182:\n        /* \"#utility.yul\":6123:6126   */\n      dup3\n        /* \"#utility.yul\":6116:6153   */\n      mstore\n        /* \"#utility.yul\":6041:6159   */\n      pop\n      pop\n      jump\t// out\n        /* \"#utility.yul\":6165:6387   */\n    tag_30:\n        /* \"#utility.yul\":6258:6262   */\n      0x00\n        /* \"#utility.yul\":6296:6298   */\n      0x20\n        /* \"#utility.yul\":6285:6294   */\n      dup3\n        /* \"#utility.yul\":6281:6299   */\n      add\n        /* \"#utility.yul\":6273:6299   */\n      swap1\n      pop\n        /* \"#utility.yul\":6309:6380   */\n      tag_184\n        /* \"#utility.yul\":6377:6378   */\n      0x00\n        /* \"#utility.yul\":6366:6375   */\n      dup4\n        /* \"#utility.yul\":6362:6379   */\n      add\n        /* \"#utility.yul\":6353:6359   */\n      dup5\n        /* \"#utility.yul\":6309:6380   */\n      tag_83\n      jump\t// in\n    tag_184:\n        /* \"#utility.yul\":6165:6387   */\n      swap3\n      swap2\n      pop\n      pop\n      jump\t// out\n        /* \"#utility.yul\":6393:6619   */\n    tag_84:\n        /* \"#utility.yul\":6533:6567   */\n      0x4e6f2063657274696669636174696f6e20666f756e6420666f72207468697320\n        /* \"#utility.yul\":6529:6530   */\n      0x00\n        /* \"#utility.yul\":6521:6527   */\n      dup3\n        /* \"#utility.yul\":6517:6531   */\n      add\n        /* \"#utility.yul\":6510:6568   */\n      mstore\n        /* \"#utility.yul\":6602:6611   */\n      0x6164647265737300000000000000000000000000000000000000000000000000\n        /* \"#utility.yul\":6597:6599   */\n      0x20\n        /* \"#utility.yul\":6589:6595   */\n      dup3\n        /* \"#utility.yul\":6585:6600   */\n      add\n        /* \"#utility.yul\":6578:6612   */\n      mstore\n        /* \"#utility.yul\":6393:6619   */\n      pop\n      jump\t// out\n        /* \"#utility.yul\":6625:6991   */\n    tag_85:\n        /* \"#utility.yul\":6767:6770   */\n      0x00\n        /* \"#utility.yul\":6788:6855   */\n      tag_187\n        /* \"#utility.yul\":6852:6854   */\n      0x27\n        /* \"#utility.yul\":6847:6850   */\n      dup4\n        /* \"#utility.yul\":6788:6855   */\n      tag_68\n      jump\t// in\n    tag_187:\n        /* \"#utility.yul\":6781:6855   */\n      swap2\n      pop\n        /* \"#utility.yul\":6864:6957   */\n      tag_188\n        /* \"#utility.yul\":6953:6956   */\n      dup3\n        /* \"#utility.yul\":6864:6957   */\n      tag_84\n      jump\t// in\n    tag_188:\n        /* \"#utility.yul\":6982:6984   */\n      0x40\n        /* \"#utility.yul\":6977:6980   */\n      dup3\n        /* \"#utility.yul\":6973:6985   */\n      add\n        /* \"#utility.yul\":6966:6985   */\n      swap1\n      pop\n        /* \"#utility.yul\":6625:6991   */\n      swap2\n      swap1\n      pop\n      jump\t// out\n        /* \"#utility.yul\":6997:7416   */\n    tag_34:\n        /* \"#utility.yul\":7163:7167   */\n      0x00\n        /* \"#utility.yul\":7201:7203   */\n      0x20\n        /* \"#utility.yul\":7190:7199   */\n      dup3\n        /* \"#utility.yul\":7186:7204   */\n      add\n        /* \"#utility.yul\":7178:7204   */\n      swap1\n      pop\n        /* \"#utility.yul\":7250:7259   */\n      dup2\n        /* \"#utility.yul\":7244:7248   */\n      dup2\n        /* \"#utility.yul\":7240:7260   */\n      sub\n        /* \"#utility.yul\":7236:7237   */\n      0x00\n        /* \"#utility.yul\":7225:7234   */\n      dup4\n        /* \"#utility.yul\":7221:7238   */\n      add\n        /* \"#utility.yul\":7214:7261   */\n      mstore\n        /* \"#utility.yul\":7278:7409   */\n      tag_190\n        /* \"#utility.yul\":7404:7408   */\n      dup2\n        /* \"#utility.yul\":7278:7409   */\n      tag_85\n      jump\t// in\n    tag_190:\n        /* \"#utility.yul\":7270:7409   */\n      swap1\n      pop\n        /* \"#utility.yul\":6997:7416   */\n      swap2\n      swap1\n      pop\n      jump\t// out\n        /* \"#utility.yul\":7422:7602   */\n    tag_86:\n        /* \"#utility.yul\":7470:7547   */\n      0x4e487b7100000000000000000000000000000000000000000000000000000000\n        /* \"#utility.yul\":7467:7468   */\n      0x00\n        /* \"#utility.yul\":7460:7548   */\n      mstore\n        /* \"#utility.yul\":7567:7571   */\n      0x22\n        /* \"#utility.yul\":7564:7565   */\n      0x04\n        /* \"#utility.yul\":7557:7572   */\n      mstore\n        /* \"#utility.yul\":7591:7595   */\n      0x24\n        /* \"#utility.yul\":7588:7589   */\n      0x00\n        /* \"#utility.yul\":7581:7596   */\n      revert\n        /* \"#utility.yul\":7608:7928   */\n    tag_36:\n        /* \"#utility.yul\":7652:7658   */\n      0x00\n        /* \"#utility.yul\":7689:7690   */\n      0x02\n        /* \"#utility.yul\":7683:7687   */\n      dup3\n        /* \"#utility.yul\":7679:7691   */\n      div\n        /* \"#utility.yul\":7669:7691   */\n      swap1\n      pop\n        /* \"#utility.yul\":7736:7737   */\n      0x01\n        /* \"#utility.yul\":7730:7734   */\n      dup3\n        /* \"#utility.yul\":7726:7738   */\n      and\n        /* \"#utility.yul\":7757:7775   */\n      dup1\n        /* \"#utility.yul\":7747:7828   */\n      tag_193\n      jumpi\n        /* \"#utility.yul\":7813:7817   */\n      0x7f\n        /* \"#utility.yul\":7805:7811   */\n      dup3\n        /* \"#utility.yul\":7801:7818   */\n      and\n        /* \"#utility.yul\":7791:7818   */\n      swap2\n      pop\n        /* \"#utility.yul\":7747:7828   */\n    tag_193:\n        /* \"#utility.yul\":7875:7877   */\n      0x20\n        /* \"#utility.yul\":7867:7873   */\n      dup3\n        /* \"#utility.yul\":7864:7878   */\n      lt\n        /* \"#utility.yul\":7844:7862   */\n      dup2\n        /* \"#utility.yul\":7841:7879   */\n      sub\n        /* \"#utility.yul\":7838:7922   */\n      tag_194\n      jumpi\n        /* \"#utility.yul\":7894:7912   */\n      tag_195\n      tag_86\n      jump\t// in\n    tag_195:\n        /* \"#utility.yul\":7838:7922   */\n    tag_194:\n        /* \"#utility.yul\":7659:7928   */\n      pop\n        /* \"#utility.yul\":7608:7928   */\n      swap2\n      swap1\n      pop\n      jump\t// out\n        /* \"#utility.yul\":7934:8167   */\n    tag_87:\n        /* \"#utility.yul\":8074:8108   */\n      0x4f6e6c792074686520636f6e7472616374206f776e65722063616e2063616c6c\n        /* \"#utility.yul\":8070:8071   */\n      0x00\n        /* \"#utility.yul\":8062:8068   */\n      dup3\n        /* \"#utility.yul\":8058:8072   */\n      add\n        /* \"#utility.yul\":8051:8109   */\n      mstore\n        /* \"#utility.yul\":8143:8159   */\n      0x20746869732066756e6374696f6e000000000000000000000000000000000000\n        /* \"#utility.yul\":8138:8140   */\n      0x20\n        /* \"#utility.yul\":8130:8136   */\n      dup3\n        /* \"#utility.yul\":8126:8141   */\n      add\n        /* \"#utility.yul\":8119:8160   */\n      mstore\n        /* \"#utility.yul\":7934:8167   */\n      pop\n      jump\t// out\n        /* \"#utility.yul\":8173:8539   */\n    tag_88:\n        /* \"#utility.yul\":8315:8318   */\n      0x00\n        /* \"#utility.yul\":8336:8403   */\n      tag_198\n        /* \"#utility.yul\":8400:8402   */\n      0x2e\n        /* \"#utility.yul\":8395:8398   */\n      dup4\n        /* \"#utility.yul\":8336:8403   */\n      tag_68\n      jump\t// in\n    tag_198:\n        /* \"#utility.yul\":8329:8403   */\n      swap2\n      pop\n        /* \"#utility.yul\":8412:8505   */\n      tag_199\n        /* \"#utility.yul\":8501:8504   */\n      dup3\n        /* \"#utility.yul\":8412:8505   */\n      tag_87\n      jump\t// in\n    tag_199:\n        /* \"#utility.yul\":8530:8532   */\n      0x40\n        /* \"#utility.yul\":8525:8528   */\n      dup3\n        /* \"#utility.yul\":8521:8533   */\n      add\n        /* \"#utility.yul\":8514:8533   */\n      swap1\n      pop\n        /* \"#utility.yul\":8173:8539   */\n      swap2\n      swap1\n      pop\n      jump\t// out\n        /* \"#utility.yul\":8545:8964   */\n    tag_49:\n        /* \"#utility.yul\":8711:8715   */\n      0x00\n        /* \"#utility.yul\":8749:8751   */\n      0x20\n        /* \"#utility.yul\":8738:8747   */\n      dup3\n        /* \"#utility.yul\":8734:8752   */\n      add\n        /* \"#utility.yul\":8726:8752   */\n      swap1\n      pop\n        /* \"#utility.yul\":8798:8807   */\n      dup2\n        /* \"#utility.yul\":8792:8796   */\n      dup2\n        /* \"#utility.yul\":8788:8808   */\n      sub\n        /* \"#utility.yul\":8784:8785   */\n      0x00\n        /* \"#utility.yul\":8773:8782   */\n      dup4\n        /* \"#utility.yul\":8769:8786   */\n      add\n        /* \"#utility.yul\":8762:8809   */\n      mstore\n        /* \"#utility.yul\":8826:8957   */\n      tag_201\n        /* \"#utility.yul\":8952:8956   */\n      dup2\n        /* \"#utility.yul\":8826:8957   */\n      tag_88\n      jump\t// in\n    tag_201:\n        /* \"#utility.yul\":8818:8957   */\n      swap1\n      pop\n        /* \"#utility.yul\":8545:8964   */\n      swap2\n      swap1\n      pop\n      jump\t// out\n        /* \"#utility.yul\":8970:9202   */\n    tag_89:\n        /* \"#utility.yul\":9110:9144   */\n      0x43657274696669636174696f6e20616c72656164792069737375656420666f72\n        /* \"#utility.yul\":9106:9107   */\n      0x00\n        /* \"#utility.yul\":9098:9104   */\n      dup3\n        /* \"#utility.yul\":9094:9108   */\n      add\n        /* \"#utility.yul\":9087:9145   */\n      mstore\n        /* \"#utility.yul\":9179:9194   */\n      0x2074686973206164647265737300000000000000000000000000000000000000\n        /* \"#utility.yul\":9174:9176   */\n      0x20\n        /* \"#utility.yul\":9166:9172   */\n      dup3\n        /* \"#utility.yul\":9162:9177   */\n      add\n        /* \"#utility.yul\":9155:9195   */\n      mstore\n        /* \"#utility.yul\":8970:9202   */\n      pop\n      jump\t// out\n        /* \"#utility.yul\":9208:9574   */\n    tag_90:\n        /* \"#utility.yul\":9350:9353   */\n      0x00\n        /* \"#utility.yul\":9371:9438   */\n      tag_204\n        /* \"#utility.yul\":9435:9437   */\n      0x2d\n        /* \"#utility.yul\":9430:9433   */\n      dup4\n        /* \"#utility.yul\":9371:9438   */\n      tag_68\n      jump\t// in\n    tag_204:\n        /* \"#utility.yul\":9364:9438   */\n      swap2\n      pop\n        /* \"#utility.yul\":9447:9540   */\n      tag_205\n        /* \"#utility.yul\":9536:9539   */\n      dup3\n        /* \"#utility.yul\":9447:9540   */\n      tag_89\n      jump\t// in\n    tag_205:\n        /* \"#utility.yul\":9565:9567   */\n      0x40\n        /* \"#utility.yul\":9560:9563   */\n      dup3\n        /* \"#utility.yul\":9556:9568   */\n      add\n        /* \"#utility.yul\":9549:9568   */\n      swap1\n      pop\n        /* \"#utility.yul\":9208:9574   */\n      swap2\n      swap1\n      pop\n      jump\t// out\n        /* \"#utility.yul\":9580:9999   */\n    tag_53:\n        /* \"#utility.yul\":9746:9750   */\n      0x00\n        /* \"#utility.yul\":9784:9786   */\n      0x20\n        /* \"#utility.yul\":9773:9782   */\n      dup3\n        /* \"#utility.yul\":9769:9787   */\n      add\n        /* \"#utility.yul\":9761:9787   */\n      swap1\n      pop\n        /* \"#utility.yul\":9833:9842   */\n      dup2\n        /* \"#utility.yul\":9827:9831   */\n      dup2\n        /* \"#utility.yul\":9823:9843   */\n      sub\n        /* \"#utility.yul\":9819:9820   */\n      0x00\n        /* \"#utility.yul\":9808:9817   */\n      dup4\n        /* \"#utility.yul\":9804:9821   */\n      add\n        /* \"#utility.yul\":9797:9844   */\n      mstore\n        /* \"#utility.yul\":9861:9992   */\n      tag_207\n        /* \"#utility.yul\":9987:9991   */\n      dup2\n        /* \"#utility.yul\":9861:9992   */\n      tag_90\n      jump\t// in\n    tag_207:\n        /* \"#utility.yul\":9853:9992   */\n      swap1\n      pop\n        /* \"#utility.yul\":9580:9999   */\n      swap2\n      swap1\n      pop\n      jump\t// out\n        /* \"#utility.yul\":10005:10153   */\n    tag_91:\n        /* \"#utility.yul\":10107:10118   */\n      0x00\n        /* \"#utility.yul\":10144:10147   */\n      dup2\n        /* \"#utility.yul\":10129:10147   */\n      swap1\n      pop\n        /* \"#utility.yul\":10005:10153   */\n      swap3\n      swap2\n      pop\n      pop\n      jump\t// out\n        /* \"#utility.yul\":10159:10549   */\n    tag_92:\n        /* \"#utility.yul\":10265:10268   */\n      0x00\n        /* \"#utility.yul\":10293:10332   */\n      tag_210\n        /* \"#utility.yul\":10326:10331   */\n      dup3\n        /* \"#utility.yul\":10293:10332   */\n      tag_67\n      jump\t// in\n    tag_210:\n        /* \"#utility.yul\":10348:10437   */\n      tag_211\n        /* \"#utility.yul\":10430:10436   */\n      dup2\n        /* \"#utility.yul\":10425:10428   */\n      dup6\n        /* \"#utility.yul\":10348:10437   */\n      tag_91\n      jump\t// in\n    tag_211:\n        /* \"#utility.yul\":10341:10437   */\n      swap4\n      pop\n        /* \"#utility.yul\":10446:10511   */\n      tag_212\n        /* \"#utility.yul\":10504:10510   */\n      dup2\n        /* \"#utility.yul\":10499:10502   */\n      dup6\n        /* \"#utility.yul\":10492:10496   */\n      0x20\n        /* \"#utility.yul\":10485:10490   */\n      dup7\n        /* \"#utility.yul\":10481:10497   */\n      add\n        /* \"#utility.yul\":10446:10511   */\n      tag_69\n      jump\t// in\n    tag_212:\n        /* \"#utility.yul\":10536:10542   */\n      dup1\n        /* \"#utility.yul\":10531:10534   */\n      dup5\n        /* \"#utility.yul\":10527:10543   */\n      add\n        /* \"#utility.yul\":10520:10543   */\n      swap2\n      pop\n        /* \"#utility.yul\":10269:10549   */\n      pop\n        /* \"#utility.yul\":10159:10549   */\n      swap3\n      swap2\n      pop\n      pop\n      jump\t// out\n        /* \"#utility.yul\":10555:10708   */\n    tag_93:\n        /* \"#utility.yul\":10695:10700   */\n      0x202d200000000000000000000000000000000000000000000000000000000000\n        /* \"#utility.yul\":10691:10692   */\n      0x00\n        /* \"#utility.yul\":10683:10689   */\n      dup3\n        /* \"#utility.yul\":10679:10693   */\n      add\n        /* \"#utility.yul\":10672:10701   */\n      mstore\n        /* \"#utility.yul\":10555:10708   */\n      pop\n      jump\t// out\n        /* \"#utility.yul\":10714:11114   */\n    tag_94:\n        /* \"#utility.yul\":10874:10877   */\n      0x00\n        /* \"#utility.yul\":10895:10979   */\n      tag_215\n        /* \"#utility.yul\":10977:10978   */\n      0x03\n        /* \"#utility.yul\":10972:10975   */\n      dup4\n        /* \"#utility.yul\":10895:10979   */\n      tag_91\n      jump\t// in\n    tag_215:\n        /* \"#utility.yul\":10888:10979   */\n      swap2\n      pop\n        /* \"#utility.yul\":10988:11081   */\n      tag_216\n        /* \"#utility.yul\":11077:11080   */\n      dup3\n        /* \"#utility.yul\":10988:11081   */\n      tag_93\n      jump\t// in\n    tag_216:\n        /* \"#utility.yul\":11106:11107   */\n      0x03\n        /* \"#utility.yul\":11101:11104   */\n      dup3\n        /* \"#utility.yul\":11097:11108   */\n      add\n        /* \"#utility.yul\":11090:11108   */\n      swap1\n      pop\n        /* \"#utility.yul\":10714:11114   */\n      swap2\n      swap1\n      pop\n      jump\t// out\n        /* \"#utility.yul\":11120:11821   */\n    tag_55:\n        /* \"#utility.yul\":11401:11404   */\n      0x00\n        /* \"#utility.yul\":11423:11518   */\n      tag_218\n        /* \"#utility.yul\":11514:11517   */\n      dup3\n        /* \"#utility.yul\":11505:11511   */\n      dup6\n        /* \"#utility.yul\":11423:11518   */\n      tag_92\n      jump\t// in\n    tag_218:\n        /* \"#utility.yul\":11416:11518   */\n      swap2\n      pop\n        /* \"#utility.yul\":11535:11683   */\n      tag_219\n        /* \"#utility.yul\":11679:11682   */\n      dup3\n        /* \"#utility.yul\":11535:11683   */\n      tag_94\n      jump\t// in\n    tag_219:\n        /* \"#utility.yul\":11528:11683   */\n      swap2\n      pop\n        /* \"#utility.yul\":11700:11795   */\n      tag_220\n        /* \"#utility.yul\":11791:11794   */\n      dup3\n        /* \"#utility.yul\":11782:11788   */\n      dup5\n        /* \"#utility.yul\":11700:11795   */\n      tag_92\n      jump\t// in\n    tag_220:\n        /* \"#utility.yul\":11693:11795   */\n      swap2\n      pop\n        /* \"#utility.yul\":11812:11815   */\n      dup2\n        /* \"#utility.yul\":11805:11815   */\n      swap1\n      pop\n        /* \"#utility.yul\":11120:11821   */\n      swap4\n      swap3\n      pop\n      pop\n      pop\n      jump\t// out\n        /* \"#utility.yul\":11827:11968   */\n    tag_95:\n        /* \"#utility.yul\":11876:11880   */\n      0x00\n        /* \"#utility.yul\":11899:11902   */\n      dup2\n        /* \"#utility.yul\":11891:11902   */\n      swap1\n      pop\n        /* \"#utility.yul\":11922:11925   */\n      dup2\n        /* \"#utility.yul\":11919:11920   */\n      0x00\n        /* \"#utility.yul\":11912:11926   */\n      mstore\n        /* \"#utility.yul\":11956:11960   */\n      0x20\n        /* \"#utility.yul\":11953:11954   */\n      0x00\n        /* \"#utility.yul\":11943:11961   */\n      keccak256\n        /* \"#utility.yul\":11935:11961   */\n      swap1\n      pop\n        /* \"#utility.yul\":11827:11968   */\n      swap2\n      swap1\n      pop\n      jump\t// out\n        /* \"#utility.yul\":11974:12067   */\n    tag_96:\n        /* \"#utility.yul\":12011:12017   */\n      0x00\n        /* \"#utility.yul\":12058:12060   */\n      0x20\n        /* \"#utility.yul\":12053:12055   */\n      0x1f\n        /* \"#utility.yul\":12046:12051   */\n      dup4\n        /* \"#utility.yul\":12042:12056   */\n      add\n        /* \"#utility.yul\":12038:12061   */\n      div\n        /* \"#utility.yul\":12028:12061   */\n      swap1\n      pop\n        /* \"#utility.yul\":11974:12067   */\n      swap2\n      swap1\n      pop\n      jump\t// out\n        /* \"#utility.yul\":12073:12180   */\n    tag_97:\n        /* \"#utility.yul\":12117:12125   */\n      0x00\n        /* \"#utility.yul\":12167:12172   */\n      dup3\n        /* \"#utility.yul\":12161:12165   */\n      dup3\n        /* \"#utility.yul\":12157:12173   */\n      shl\n        /* \"#utility.yul\":12136:12173   */\n      swap1\n      pop\n        /* \"#utility.yul\":12073:12180   */\n      swap3\n      swap2\n      pop\n      pop\n      jump\t// out\n        /* \"#utility.yul\":12186:12579   */\n    tag_98:\n        /* \"#utility.yul\":12255:12261   */\n      0x00\n        /* \"#utility.yul\":12305:12306   */\n      0x08\n        /* \"#utility.yul\":12293:12303   */\n      dup4\n        /* \"#utility.yul\":12289:12307   */\n      mul\n        /* \"#utility.yul\":12328:12425   */\n      tag_225\n        /* \"#utility.yul\":12358:12424   */\n      0xffffffffffffffffffffffffffffffffffffffffffffffffffffffffffffffff\n        /* \"#utility.yul\":12347:12356   */\n      dup3\n        /* \"#utility.yul\":12328:12425   */\n      tag_97\n      jump\t// in\n    tag_225:\n        /* \"#utility.yul\":12446:12485   */\n      tag_226\n        /* \"#utility.yul\":12476:12484   */\n      dup7\n        /* \"#utility.yul\":12465:12474   */\n      dup4\n        /* \"#utility.yul\":12446:12485   */\n      tag_97\n      jump\t// in\n    tag_226:\n        /* \"#utility.yul\":12434:12485   */\n      swap6\n      pop\n        /* \"#utility.yul\":12518:12522   */\n      dup1\n        /* \"#utility.yul\":12514:12523   */\n      not\n        /* \"#utility.yul\":12507:12512   */\n      dup5\n        /* \"#utility.yul\":12503:12524   */\n      and\n        /* \"#utility.yul\":12494:12524   */\n      swap4\n      pop\n        /* \"#utility.yul\":12567:12571   */\n      dup1\n        /* \"#utility.yul\":12557:12565   */\n      dup7\n        /* \"#utility.yul\":12553:12572   */\n      and\n        /* \"#utility.yul\":12546:12551   */\n      dup5\n        /* \"#utility.yul\":12543:12573   */\n      or\n        /* \"#utility.yul\":12533:12573   */\n      swap3\n      pop\n        /* \"#utility.yul\":12262:12579   */\n      pop\n      pop\n        /* \"#utility.yul\":12186:12579   */\n      swap4\n      swap3\n      pop\n      pop\n      pop\n      jump\t// out\n        /* \"#utility.yul\":12585:12662   */\n    tag_99:\n        /* \"#utility.yul\":12622:12629   */\n      0x00\n        /* \"#utility.yul\":12651:12656   */\n      dup2\n        /* \"#utility.yul\":12640:12656   */\n      swap1\n      pop\n        /* \"#utility.yul\":12585:12662   */\n      swap2\n      swap1\n      pop\n      jump\t// out\n        /* \"#utility.yul\":12668:12728   */\n    tag_100:\n        /* \"#utility.yul\":12696:12699   */\n      0x00\n        /* \"#utility.yul\":12717:12722   */\n      dup2\n        /* \"#utility.yul\":12710:12722   */\n      swap1\n      pop\n        /* \"#utility.yul\":12668:12728   */\n      swap2\n      swap1\n      pop\n      jump\t// out\n        /* \"#utility.yul\":12734:12876   */\n    tag_101:\n        /* \"#utility.yul\":12784:12793   */\n      0x00\n        /* \"#utility.yul\":12817:12870   */\n      tag_230\n        /* \"#utility.yul\":12835:12869   */\n      tag_231\n        /* \"#utility.yul\":12844:12868   */\n      tag_232\n        /* \"#utility.yul\":12862:12867   */\n      dup5\n        /* \"#utility.yul\":12844:12868   */\n      tag_99\n      jump\t// in\n    tag_232:\n        /* \"#utility.yul\":12835:12869   */\n      tag_100\n      jump\t// in\n    tag_231:\n        /* \"#utility.yul\":12817:12870   */\n      tag_99\n      jump\t// in\n    tag_230:\n        /* \"#utility.yul\":12804:12870   */\n      swap1\n      pop\n        /* \"#utility.yul\":12734:12876   */\n      swap2\n      swap1\n      pop\n      jump\t// out\n        /* \"#utility.yul\":12882:12957   */\n    tag_102:\n        /* \"#utility.yul\":12925:12928   */\n      0x00\n        /* \"#utility.yul\":12946:12951   */\n      dup2\n        /* \"#utility.yul\":12939:12951   */\n      swap1\n      pop\n        /* \"#utility.yul\":12882:12957   */\n      swap2\n      swap1\n      pop\n      jump\t// out\n        /* \"#utility.yul\":12963:13232   */\n    tag_103:\n        /* \"#utility.yul\":13073:13112   */\n      tag_235\n        /* \"#utility.yul\":13104:13111   */\n      dup4\n        /* \"#utility.yul\":13073:13112   */\n      tag_101\n      jump\t// in\n    tag_235:\n        /* \"#utility.yul\":13134:13225   */\n      tag_236\n        /* \"#utility.yul\":13183:13224   */\n      tag_237\n        /* \"#utility.yul\":13207:13223   */\n      dup3\n        /* \"#utility.yul\":13183:13224   */\n      tag_102\n      jump\t// in\n    tag_237:\n        /* \"#utility.yul\":13175:13181   */\n      dup5\n        /* \"#utility.yul\":13168:13172   */\n      dup5\n        /* \"#utility.yul\":13162:13173   */\n      sload\n        /* \"#utility.yul\":13134:13225   */\n      tag_98\n      jump\t// in\n    tag_236:\n        /* \"#utility.yul\":13128:13132   */\n      dup3\n        /* \"#utility.yul\":13121:13226   */\n      sstore\n        /* \"#utility.yul\":13039:13232   */\n      pop\n        /* \"#utility.yul\":12963:13232   */\n      pop\n      pop\n      pop\n      jump\t// out\n        /* \"#utility.yul\":13238:13311   */\n    tag_104:\n        /* \"#utility.yul\":13283:13286   */\n      0x00\n        /* \"#utility.yul\":13238:13311   */\n      swap1\n      jump\t// out\n        /* \"#utility.yul\":13317:13506   */\n    tag_105:\n        /* \"#utility.yul\":13394:13426   */\n      tag_240\n      tag_104\n      jump\t// in\n    tag_240:\n        /* \"#utility.yul\":13435:13500   */\n      tag_241\n        /* \"#utility.yul\":13493:13499   */\n      dup2\n        /* \"#utility.yul\":13485:13491   */\n      dup5\n        /* \"#utility.yul\":13479:13483   */\n      dup5\n        /* \"#utility.yul\":13435:13500   */\n      tag_103\n      jump\t// in\n    tag_241:\n        /* \"#utility.yul\":13370:13506   */\n      pop\n        /* \"#utility.yul\":13317:13506   */\n      pop\n      pop\n      jump\t// out\n        /* \"#utility.yul\":13512:13698   */\n    tag_106:\n        /* \"#utility.yul\":13572:13692   */\n    tag_243:\n        /* \"#utility.yul\":13589:13592   */\n      dup2\n        /* \"#utility.yul\":13582:13587   */\n      dup2\n        /* \"#utility.yul\":13579:13593   */\n      lt\n        /* \"#utility.yul\":13572:13692   */\n      iszero\n      tag_245\n      jumpi\n        /* \"#utility.yul\":13643:13682   */\n      tag_246\n        /* \"#utility.yul\":13680:13681   */\n      0x00\n        /* \"#utility.yul\":13673:13678   */\n      dup3\n        /* \"#utility.yul\":13643:13682   */\n      tag_105\n      jump\t// in\n    tag_246:\n        /* \"#utility.yul\":13616:13617   */\n      0x01\n        /* \"#utility.yul\":13609:13614   */\n      dup2\n        /* \"#utility.yul\":13605:13618   */\n      add\n        /* \"#utility.yul\":13596:13618   */\n      swap1\n      pop\n        /* \"#utility.yul\":13572:13692   */\n      jump(tag_243)\n    tag_245:\n        /* \"#utility.yul\":13512:13698   */\n      pop\n      pop\n      jump\t// out\n        /* \"#utility.yul\":13704:14247   */\n    tag_107:\n        /* \"#utility.yul\":13805:13807   */\n      0x1f\n        /* \"#utility.yul\":13800:13803   */\n      dup3\n        /* \"#utility.yul\":13797:13808   */\n      gt\n        /* \"#utility.yul\":13794:14240   */\n      iszero\n      tag_248\n      jumpi\n        /* \"#utility.yul\":13839:13877   */\n      tag_249\n        /* \"#utility.yul\":13871:13876   */\n      dup2\n        /* \"#utility.yul\":13839:13877   */\n      tag_95\n      jump\t// in\n    tag_249:\n        /* \"#utility.yul\":13923:13952   */\n      tag_250\n        /* \"#utility.yul\":13941:13951   */\n      dup5\n        /* \"#utility.yul\":13923:13952   */\n      tag_96\n      jump\t// in\n    tag_250:\n        /* \"#utility.yul\":13913:13921   */\n      dup2\n        /* \"#utility.yul\":13909:13953   */\n      add\n        /* \"#utility.yul\":14106:14108   */\n      0x20\n        /* \"#utility.yul\":14094:14104   */\n      dup6\n        /* \"#utility.yul\":14091:14109   */\n      lt\n        /* \"#utility.yul\":14088:14137   */\n      iszero\n      tag_251\n      jumpi\n        /* \"#utility.yul\":14127:14135   */\n      dup2\n        /* \"#utility.yul\":14112:14135   */\n      swap1\n      pop\n        /* \"#utility.yul\":14088:14137   */\n    tag_251:\n        /* \"#utility.yul\":14150:14230   */\n      tag_252\n        /* \"#utility.yul\":14206:14228   */\n      tag_253\n        /* \"#utility.yul\":14224:14227   */\n      dup6\n        /* \"#utility.yul\":14206:14228   */\n      tag_96\n      jump\t// in\n    tag_253:\n        /* \"#utility.yul\":14196:14204   */\n      dup4\n        /* \"#utility.yul\":14192:14229   */\n      add\n        /* \"#utility.yul\":14179:14190   */\n      dup3\n        /* \"#utility.yul\":14150:14230   */\n      tag_106\n      jump\t// in\n    tag_252:\n        /* \"#utility.yul\":13809:14240   */\n      pop\n      pop\n        /* \"#utility.yul\":13794:14240   */\n    tag_248:\n        /* \"#utility.yul\":13704:14247   */\n      pop\n      pop\n      pop\n      jump\t// out\n        /* \"#utility.yul\":14253:14370   */\n    tag_108:\n        /* \"#utility.yul\":14307:14315   */\n      0x00\n        /* \"#utility.yul\":14357:14362   */\n      dup3\n        /* \"#utility.yul\":14351:14355   */\n      dup3\n        /* \"#utility.yul\":14347:14363   */\n      shr\n        /* \"#utility.yul\":14326:14363   */\n      swap1\n      pop\n        /* \"#utility.yul\":14253:14370   */\n      swap3\n      swap2\n      pop\n      pop\n      jump\t// out\n        /* \"#utility.yul\":14376:14545   */\n    tag_109:\n        /* \"#utility.yul\":14420:14426   */\n      0x00\n        /* \"#utility.yul\":14453:14504   */\n      tag_256\n        /* \"#utility.yul\":14501:14502   */\n      0x00\n        /* \"#utility.yul\":14497:14503   */\n      not\n        /* \"#utility.yul\":14489:14494   */\n      dup5\n        /* \"#utility.yul\":14486:14487   */\n      0x08\n        /* \"#utility.yul\":14482:14495   */\n      mul\n        /* \"#utility.yul\":14453:14504   */\n      tag_108\n      jump\t// in\n    tag_256:\n        /* \"#utility.yul\":14449:14505   */\n      not\n        /* \"#utility.yul\":14534:14538   */\n      dup1\n        /* \"#utility.yul\":14528:14532   */\n      dup4\n        /* \"#utility.yul\":14524:14539   */\n      and\n        /* \"#utility.yul\":14514:14539   */\n      swap2\n      pop\n        /* \"#utility.yul\":14427:14545   */\n      pop\n        /* \"#utility.yul\":14376:14545   */\n      swap3\n      swap2\n      pop\n      pop\n      jump\t// out\n        /* \"#utility.yul\":14550:14845   */\n    tag_110:\n        /* \"#utility.yul\":14626:14630   */\n      0x00\n        /* \"#utility.yul\":14772:14801   */\n      tag_258\n        /* \"#utility.yul\":14797:14800   */\n      dup4\n        /* \"#utility.yul\":14791:14795   */\n      dup4\n        /* \"#utility.yul\":14772:14801   */\n      tag_109\n      jump\t// in\n    tag_258:\n        /* \"#utility.yul\":14764:14801   */\n      swap2\n      pop\n        /* \"#utility.yul\":14834:14837   */\n      dup3\n        /* \"#utility.yul\":14831:14832   */\n      0x02\n        /* \"#utility.yul\":14827:14838   */\n      mul\n        /* \"#utility.yul\":14821:14825   */\n      dup3\n        /* \"#utility.yul\":14818:14839   */\n      or\n        /* \"#utility.yul\":14810:14839   */\n      swap1\n      pop\n        /* \"#utility.yul\":14550:14845   */\n      swap3\n      swap2\n      pop\n      pop\n      jump\t// out\n        /* \"#utility.yul\":14850:16245   */\n    tag_57:\n        /* \"#utility.yul\":14967:15004   */\n      tag_260\n        /* \"#utility.yul\":15000:15003   */\n      dup3\n        /* \"#utility.yul\":14967:15004   */\n      tag_67\n      jump\t// in\n    tag_260:\n        /* \"#utility.yul\":15069:15087   */\n      0xffffffffffffffff\n        /* \"#utility.yul\":15061:15067   */\n      dup2\n        /* \"#utility.yul\":15058:15088   */\n      gt\n        /* \"#utility.yul\":15055:15111   */\n      iszero\n      tag_261\n      jumpi\n        /* \"#utility.yul\":15091:15109   */\n      tag_262\n      tag_76\n      jump\t// in\n    tag_262:\n        /* \"#utility.yul\":15055:15111   */\n    tag_261:\n        /* \"#utility.yul\":15135:15173   */\n      tag_263\n        /* \"#utility.yul\":15167:15171   */\n      dup3\n        /* \"#utility.yul\":15161:15172   */\n      sload\n        /* \"#utility.yul\":15135:15173   */\n      tag_36\n      jump\t// in\n    tag_263:\n        /* \"#utility.yul\":15220:15287   */\n      tag_264\n        /* \"#utility.yul\":15280:15286   */\n      dup3\n        /* \"#utility.yul\":15272:15278   */\n      dup3\n        /* \"#utility.yul\":15266:15270   */\n      dup6\n        /* \"#utility.yul\":15220:15287   */\n      tag_107\n      jump\t// in\n    tag_264:\n        /* \"#utility.yul\":15314:15315   */\n      0x00\n        /* \"#utility.yul\":15338:15342   */\n      0x20\n        /* \"#utility.yul\":15325:15342   */\n      swap1\n      pop\n        /* \"#utility.yul\":15370:15372   */\n      0x1f\n        /* \"#utility.yul\":15362:15368   */\n      dup4\n        /* \"#utility.yul\":15359:15373   */\n      gt\n        /* \"#utility.yul\":15387:15388   */\n      0x01\n        /* \"#utility.yul\":15382:16000   */\n      dup2\n      eq\n      tag_266\n      jumpi\n        /* \"#utility.yul\":16044:16045   */\n      0x00\n        /* \"#utility.yul\":16061:16067   */\n      dup5\n        /* \"#utility.yul\":16058:16135   */\n      iszero\n      tag_267\n      jumpi\n        /* \"#utility.yul\":16110:16119   */\n      dup3\n        /* \"#utility.yul\":16105:16108   */\n      dup8\n        /* \"#utility.yul\":16101:16120   */\n      add\n        /* \"#utility.yul\":16095:16121   */\n      mload\n        /* \"#utility.yul\":16086:16121   */\n      swap1\n      pop\n        /* \"#utility.yul\":16058:16135   */\n    tag_267:\n        /* \"#utility.yul\":16161:16228   */\n      tag_268\n        /* \"#utility.yul\":16221:16227   */\n      dup6\n        /* \"#utility.yul\":16214:16219   */\n      dup3\n        /* \"#utility.yul\":16161:16228   */\n      tag_110\n      jump\t// in\n    tag_268:\n        /* \"#utility.yul\":16155:16159   */\n      dup7\n        /* \"#utility.yul\":16148:16229   */\n      sstore\n        /* \"#utility.yul\":16017:16239   */\n      pop\n        /* \"#utility.yul\":15352:16239   */\n      jump(tag_265)\n        /* \"#utility.yul\":15382:16000   */\n    tag_266:\n        /* \"#utility.yul\":15434:15438   */\n      0x1f\n        /* \"#utility.yul\":15430:15439   */\n      not\n        /* \"#utility.yul\":15422:15428   */\n      dup5\n        /* \"#utility.yul\":15418:15440   */\n      and\n        /* \"#utility.yul\":15468:15505   */\n      tag_269\n        /* \"#utility.yul\":15500:15504   */\n      dup7\n        /* \"#utility.yul\":15468:15505   */\n      tag_95\n      jump\t// in\n    tag_269:\n        /* \"#utility.yul\":15527:15528   */\n      0x00\n        /* \"#utility.yul\":15541:15749   */\n    tag_270:\n        /* \"#utility.yul\":15555:15562   */\n      dup3\n        /* \"#utility.yul\":15552:15553   */\n      dup2\n        /* \"#utility.yul\":15549:15563   */\n      lt\n        /* \"#utility.yul\":15541:15749   */\n      iszero\n      tag_272\n      jumpi\n        /* \"#utility.yul\":15634:15643   */\n      dup5\n        /* \"#utility.yul\":15629:15632   */\n      dup10\n        /* \"#utility.yul\":15625:15644   */\n      add\n        /* \"#utility.yul\":15619:15645   */\n      mload\n        /* \"#utility.yul\":15611:15617   */\n      dup3\n        /* \"#utility.yul\":15604:15646   */\n      sstore\n        /* \"#utility.yul\":15685:15686   */\n      0x01\n        /* \"#utility.yul\":15677:15683   */\n      dup3\n        /* \"#utility.yul\":15673:15687   */\n      add\n        /* \"#utility.yul\":15663:15687   */\n      swap2\n      pop\n        /* \"#utility.yul\":15732:15734   */\n      0x20\n        /* \"#utility.yul\":15721:15730   */\n      dup6\n        /* \"#utility.yul\":15717:15735   */\n      add\n        /* \"#utility.yul\":15704:15735   */\n      swap5\n      pop\n        /* \"#utility.yul\":15578:15582   */\n      0x20\n        /* \"#utility.yul\":15575:15576   */\n      dup2\n        /* \"#utility.yul\":15571:15583   */\n      add\n        /* \"#utility.yul\":15566:15583   */\n      swap1\n      pop\n        /* \"#utility.yul\":15541:15749   */\n      jump(tag_270)\n    tag_272:\n        /* \"#utility.yul\":15777:15783   */\n      dup7\n        /* \"#utility.yul\":15768:15775   */\n      dup4\n        /* \"#utility.yul\":15765:15784   */\n      lt\n        /* \"#utility.yul\":15762:15941   */\n      iszero\n      tag_273\n      jumpi\n        /* \"#utility.yul\":15835:15844   */\n      dup5\n        /* \"#utility.yul\":15830:15833   */\n      dup10\n        /* \"#utility.yul\":15826:15845   */\n      add\n        /* \"#utility.yul\":15820:15846   */\n      mload\n        /* \"#utility.yul\":15878:15926   */\n      tag_274\n        /* \"#utility.yul\":15920:15924   */\n      0x1f\n        /* \"#utility.yul\":15912:15918   */\n      dup10\n        /* \"#utility.yul\":15908:15925   */\n      and\n        /* \"#utility.yul\":15897:15906   */\n      dup3\n        /* \"#utility.yul\":15878:15926   */\n      tag_109\n      jump\t// in\n    tag_274:\n        /* \"#utility.yul\":15870:15876   */\n      dup4\n        /* \"#utility.yul\":15863:15927   */\n      sstore\n        /* \"#utility.yul\":15785:15941   */\n      pop\n        /* \"#utility.yul\":15762:15941   */\n    tag_273:\n        /* \"#utility.yul\":15987:15988   */\n      0x01\n        /* \"#utility.yul\":15983:15984   */\n      0x02\n        /* \"#utility.yul\":15975:15981   */\n      dup9\n        /* \"#utility.yul\":15971:15985   */\n      mul\n        /* \"#utility.yul\":15967:15989   */\n      add\n        /* \"#utility.yul\":15961:15965   */\n      dup9\n        /* \"#utility.yul\":15954:15990   */\n      sstore\n        /* \"#utility.yul\":15389:16000   */\n      pop\n      pop\n      pop\n        /* \"#utility.yul\":15352:16239   */\n    tag_265:\n      pop\n        /* \"#utility.yul\":14942:16245   */\n      pop\n      pop\n      pop\n        /* \"#utility.yul\":14850:16245   */\n      pop\n      pop\n      jump\t// out\n        /* \"#utility.yul\":16251:16765   */\n    tag_59:\n        /* \"#utility.yul\":16412:16416   */\n      0x00\n        /* \"#utility.yul\":16450:16452   */\n      0x40\n        /* \"#utility.yul\":16439:16448   */\n      dup3\n        /* \"#utility.yul\":16435:16453   */\n      add\n        /* \"#utility.yul\":16427:16453   */\n      swap1\n      pop\n        /* \"#utility.yul\":16499:16508   */\n      dup2\n        /* \"#utility.yul\":16493:16497   */\n      dup2\n        /* \"#utility.yul\":16489:16509   */\n      sub\n        /* \"#utility.yul\":16485:16486   */\n      0x00\n        /* \"#utility.yul\":16474:16483   */\n      dup4\n        /* \"#utility.yul\":16470:16487   */\n      add\n        /* \"#utility.yul\":16463:16510   */\n      mstore\n        /* \"#utility.yul\":16527:16605   */\n      tag_276\n        /* \"#utility.yul\":16600:16604   */\n      dup2\n        /* \"#utility.yul\":16591:16597   */\n      dup6\n        /* \"#utility.yul\":16527:16605   */\n      tag_71\n      jump\t// in\n    tag_276:\n        /* \"#utility.yul\":16519:16605   */\n      swap1\n      pop\n        /* \"#utility.yul\":16652:16661   */\n      dup2\n        /* \"#utility.yul\":16646:16650   */\n      dup2\n        /* \"#utility.yul\":16642:16662   */\n      sub\n        /* \"#utility.yul\":16637:16639   */\n      0x20\n        /* \"#utility.yul\":16626:16635   */\n      dup4\n        /* \"#utility.yul\":16622:16640   */\n      add\n        /* \"#utility.yul\":16615:16663   */\n      mstore\n        /* \"#utility.yul\":16680:16758   */\n      tag_277\n        /* \"#utility.yul\":16753:16757   */\n      dup2\n        /* \"#utility.yul\":16744:16750   */\n      dup5\n        /* \"#utility.yul\":16680:16758   */\n      tag_71\n      jump\t// in\n    tag_277:\n        /* \"#utility.yul\":16672:16758   */\n      swap1\n      pop\n        /* \"#utility.yul\":16251:16765   */\n      swap4\n      swap3\n      pop\n      pop\n      pop\n      jump\t// out\n\n    auxdata: 0xa2646970667358221220244f856b9cbbc7d3a574225b66eaab3461e8ca85f2694f89a429bdae7b5b681c64736f6c63430008120033\n}\n",
				"bytecode": {
					"linkReferences": {},
					"object": "608060405234801561001057600080fd5b50336000806101000a81548173ffffffffffffffffffffffffffffffffffffffff021916908373ffffffffffffffffffffffffffffffffffffffff160217905550610ed0806100606000396000f3fe608060405234801561001057600080fd5b50600436106100575760003560e01c8063028ea0e81461005c578063236e09291461008c5780635afa5036146100bc5780637ea8f34c146100ec5780638da5cb5b14610108575b600080fd5b6100766004803603810190610071919061060f565b610126565b60405161008391906106cc565b60405180910390f35b6100a660048036038101906100a1919061060f565b610283565b6040516100b391906106cc565b60405180910390f35b6100d660048036038101906100d1919061060f565b610323565b6040516100e39190610709565b60405180910390f35b61010660048036038101906101019190610859565b610343565b005b610110610579565b60405161011d91906108f3565b60405180910390f35b6060600260008373ffffffffffffffffffffffffffffffffffffffff1673ffffffffffffffffffffffffffffffffffffffff16815260200190815260200160002060009054906101000a900460ff166101b4576040517f08c379a00000000000000000000000000000000000000000000000000000000081526004016101ab90610980565b60405180910390fd5b600160008373ffffffffffffffffffffffffffffffffffffffff1673ffffffffffffffffffffffffffffffffffffffff16815260200190815260200160002080546101fe906109cf565b80601f016020809104026020016040519081016040528092919081815260200182805461022a906109cf565b80156102775780601f1061024c57610100808354040283529160200191610277565b820191906000526020600020905b81548152906001019060200180831161025a57829003601f168201915b50505050509050919050565b600160205280600052604060002060009150905080546102a2906109cf565b80601f01602080910402602001604051908101604052809291908181526020018280546102ce906109cf565b801561031b5780601f106102f05761010080835404028352916020019161031b565b820191906000526020600020905b8154815290600101906020018083116102fe57829003601f168201915b505050505081565b60026020528060005260406000206000915054906101000a900460ff1681565b60008054906101000a900473ffffffffffffffffffffffffffffffffffffffff1673ffffffffffffffffffffffffffffffffffffffff163373ffffffffffffffffffffffffffffffffffffffff16146103d1576040517f08c379a00000000000000000000000000000000000000000000000000000000081526004016103c890610a72565b60405180910390fd5b600260008473ffffffffffffffffffffffffffffffffffffffff1673ffffffffffffffffffffffffffffffffffffffff16815260200190815260200160002060009054906101000a900460ff161561045e576040517f08c379a000000000000000000000000000000000000000000000000000000000815260040161045590610b04565b60405180910390fd5b8181604051602001610471929190610bac565b604051602081830303815290604052600160008573ffffffffffffffffffffffffffffffffffffffff1673ffffffffffffffffffffffffffffffffffffffff16815260200190815260200160002090816104cb9190610d91565b506001600260008573ffffffffffffffffffffffffffffffffffffffff1673ffffffffffffffffffffffffffffffffffffffff16815260200190815260200160002060006101000a81548160ff0219169083151502179055508273ffffffffffffffffffffffffffffffffffffffff167fefd11eab38ed6a8b5cbded4032e4defe30089da6cb4223dc4fa9c24d96500766838360405161056c929190610e63565b60405180910390a2505050565b60008054906101000a900473ffffffffffffffffffffffffffffffffffffffff1681565b6000604051905090565b600080fd5b600080fd5b600073ffffffffffffffffffffffffffffffffffffffff82169050919050565b60006105dc826105b1565b9050919050565b6105ec816105d1565b81146105f757600080fd5b50565b600081359050610609816105e3565b92915050565b600060208284031215610625576106246105a7565b5b6000610633848285016105fa565b91505092915050565b600081519050919050565b600082825260208201905092915050565b60005b8381101561067657808201518184015260208101905061065b565b60008484015250505050565b6000601f19601f8301169050919050565b600061069e8261063c565b6106a88185610647565b93506106b8818560208601610658565b6106c181610682565b840191505092915050565b600060208201905081810360008301526106e68184610693565b905092915050565b60008115159050919050565b610703816106ee565b82525050565b600060208201905061071e60008301846106fa565b92915050565b600080fd5b600080fd5b7f4e487b7100000000000000000000000000000000000000000000000000000000600052604160045260246000fd5b61076682610682565b810181811067ffffffffffffffff821117156107855761078461072e565b5b80604052505050565b600061079861059d565b90506107a4828261075d565b919050565b600067ffffffffffffffff8211156107c4576107c361072e565b5b6107cd82610682565b9050602081019050919050565b82818337600083830152505050565b60006107fc6107f7846107a9565b61078e565b90508281526020810184848401111561081857610817610729565b5b6108238482856107da565b509392505050565b600082601f8301126108405761083f610724565b5b81356108508482602086016107e9565b91505092915050565b600080600060608486031215610872576108716105a7565b5b6000610880868287016105fa565b935050602084013567ffffffffffffffff8111156108a1576108a06105ac565b5b6108ad8682870161082b565b925050604084013567ffffffffffffffff8111156108ce576108cd6105ac565b5b6108da8682870161082b565b9150509250925092565b6108ed816105d1565b82525050565b600060208201905061090860008301846108e4565b92915050565b7f4e6f2063657274696669636174696f6e20666f756e6420666f7220746869732060008201527f6164647265737300000000000000000000000000000000000000000000000000602082015250565b600061096a602783610647565b91506109758261090e565b604082019050919050565b600060208201905081810360008301526109998161095d565b9050919050565b7f4e487b7100000000000000000000000000000000000000000000000000000000600052602260045260246000fd5b600060028204905060018216806109e757607f821691505b6020821081036109fa576109f96109a0565b5b50919050565b7f4f6e6c792074686520636f6e7472616374206f776e65722063616e2063616c6c60008201527f20746869732066756e6374696f6e000000000000000000000000000000000000602082015250565b6000610a5c602e83610647565b9150610a6782610a00565b604082019050919050565b60006020820190508181036000830152610a8b81610a4f565b9050919050565b7f43657274696669636174696f6e20616c72656164792069737375656420666f7260008201527f2074686973206164647265737300000000000000000000000000000000000000602082015250565b6000610aee602d83610647565b9150610af982610a92565b604082019050919050565b60006020820190508181036000830152610b1d81610ae1565b9050919050565b600081905092915050565b6000610b3a8261063c565b610b448185610b24565b9350610b54818560208601610658565b80840191505092915050565b7f202d200000000000000000000000000000000000000000000000000000000000600082015250565b6000610b96600383610b24565b9150610ba182610b60565b600382019050919050565b6000610bb88285610b2f565b9150610bc382610b89565b9150610bcf8284610b2f565b91508190509392505050565b60008190508160005260206000209050919050565b60006020601f8301049050919050565b600082821b905092915050565b600060088302610c3d7fffffffffffffffffffffffffffffffffffffffffffffffffffffffffffffffff82610c00565b610c478683610c00565b95508019841693508086168417925050509392505050565b6000819050919050565b6000819050919050565b6000610c8e610c89610c8484610c5f565b610c69565b610c5f565b9050919050565b6000819050919050565b610ca883610c73565b610cbc610cb482610c95565b848454610c0d565b825550505050565b600090565b610cd1610cc4565b610cdc818484610c9f565b505050565b5b81811015610d0057610cf5600082610cc9565b600181019050610ce2565b5050565b601f821115610d4557610d1681610bdb565b610d1f84610bf0565b81016020851015610d2e578190505b610d42610d3a85610bf0565b830182610ce1565b50505b505050565b600082821c905092915050565b6000610d6860001984600802610d4a565b1980831691505092915050565b6000610d818383610d57565b9150826002028217905092915050565b610d9a8261063c565b67ffffffffffffffff811115610db357610db261072e565b5b610dbd82546109cf565b610dc8828285610d04565b600060209050601f831160018114610dfb5760008415610de9578287015190505b610df38582610d75565b865550610e5b565b601f198416610e0986610bdb565b60005b82811015610e3157848901518255600182019150602085019450602081019050610e0c565b86831015610e4e5784890151610e4a601f891682610d57565b8355505b6001600288020188555050505b505050505050565b60006040820190508181036000830152610e7d8185610693565b90508181036020830152610e918184610693565b9050939250505056fea2646970667358221220244f856b9cbbc7d3a574225b66eaab3461e8ca85f2694f89a429bdae7b5b681c64736f6c63430008120033",
					"opcodes": "PUSH1 0x80 PUSH1 0x40 MSTORE CALLVALUE DUP1 ISZERO PUSH2 0x10 JUMPI PUSH1 0x0 DUP1 REVERT JUMPDEST POP CALLER PUSH1 0x0 DUP1 PUSH2 0x100 EXP DUP2 SLOAD DUP2 PUSH20 0xFFFFFFFFFFFFFFFFFFFFFFFFFFFFFFFFFFFFFFFF MUL NOT AND SWAP1 DUP4 PUSH20 0xFFFFFFFFFFFFFFFFFFFFFFFFFFFFFFFFFFFFFFFF AND MUL OR SWAP1 SSTORE POP PUSH2 0xED0 DUP1 PUSH2 0x60 PUSH1 0x0 CODECOPY PUSH1 0x0 RETURN INVALID PUSH1 0x80 PUSH1 0x40 MSTORE CALLVALUE DUP1 ISZERO PUSH2 0x10 JUMPI PUSH1 0x0 DUP1 REVERT JUMPDEST POP PUSH1 0x4 CALLDATASIZE LT PUSH2 0x57 JUMPI PUSH1 0x0 CALLDATALOAD PUSH1 0xE0 SHR DUP1 PUSH4 0x28EA0E8 EQ PUSH2 0x5C JUMPI DUP1 PUSH4 0x236E0929 EQ PUSH2 0x8C JUMPI DUP1 PUSH4 0x5AFA5036 EQ PUSH2 0xBC JUMPI DUP1 PUSH4 0x7EA8F34C EQ PUSH2 0xEC JUMPI DUP1 PUSH4 0x8DA5CB5B EQ PUSH2 0x108 JUMPI JUMPDEST PUSH1 0x0 DUP1 REVERT JUMPDEST PUSH2 0x76 PUSH1 0x4 DUP1 CALLDATASIZE SUB DUP2 ADD SWAP1 PUSH2 0x71 SWAP2 SWAP1 PUSH2 0x60F JUMP JUMPDEST PUSH2 0x126 JUMP JUMPDEST PUSH1 0x40 MLOAD PUSH2 0x83 SWAP2 SWAP1 PUSH2 0x6CC JUMP JUMPDEST PUSH1 0x40 MLOAD DUP1 SWAP2 SUB SWAP1 RETURN JUMPDEST PUSH2 0xA6 PUSH1 0x4 DUP1 CALLDATASIZE SUB DUP2 ADD SWAP1 PUSH2 0xA1 SWAP2 SWAP1 PUSH2 0x60F JUMP JUMPDEST PUSH2 0x283 JUMP JUMPDEST PUSH1 0x40 MLOAD PUSH2 0xB3 SWAP2 SWAP1 PUSH2 0x6CC JUMP JUMPDEST PUSH1 0x40 MLOAD DUP1 SWAP2 SUB SWAP1 RETURN JUMPDEST PUSH2 0xD6 PUSH1 0x4 DUP1 CALLDATASIZE SUB DUP2 ADD SWAP1 PUSH2 0xD1 SWAP2 SWAP1 PUSH2 0x60F JUMP JUMPDEST PUSH2 0x323 JUMP JUMPDEST PUSH1 0x40 MLOAD PUSH2 0xE3 SWAP2 SWAP1 PUSH2 0x709 JUMP JUMPDEST PUSH1 0x40 MLOAD DUP1 SWAP2 SUB SWAP1 RETURN JUMPDEST PUSH2 0x106 PUSH1 0x4 DUP1 CALLDATASIZE SUB DUP2 ADD SWAP1 PUSH2 0x101 SWAP2 SWAP1 PUSH2 0x859 JUMP JUMPDEST PUSH2 0x343 JUMP JUMPDEST STOP JUMPDEST PUSH2 0x110 PUSH2 0x579 JUMP JUMPDEST PUSH1 0x40 MLOAD PUSH2 0x11D SWAP2 SWAP1 PUSH2 0x8F3 JUMP JUMPDEST PUSH1 0x40 MLOAD DUP1 SWAP2 SUB SWAP1 RETURN JUMPDEST PUSH1 0x60 PUSH1 0x2 PUSH1 0x0 DUP4 PUSH20 0xFFFFFFFFFFFFFFFFFFFFFFFFFFFFFFFFFFFFFFFF AND PUSH20 0xFFFFFFFFFFFFFFFFFFFFFFFFFFFFFFFFFFFFFFFF AND DUP2 MSTORE PUSH1 0x20 ADD SWAP1 DUP2 MSTORE PUSH1 0x20 ADD PUSH1 0x0 KECCAK256 PUSH1 0x0 SWAP1 SLOAD SWAP1 PUSH2 0x100 EXP SWAP1 DIV PUSH1 0xFF AND PUSH2 0x1B4 JUMPI PUSH1 0x40 MLOAD PUSH32 0x8C379A000000000000000000000000000000000000000000000000000000000 DUP2 MSTORE PUSH1 0x4 ADD PUSH2 0x1AB SWAP1 PUSH2 0x980 JUMP JUMPDEST PUSH1 0x40 MLOAD DUP1 SWAP2 SUB SWAP1 REVERT JUMPDEST PUSH1 0x1 PUSH1 0x0 DUP4 PUSH20 0xFFFFFFFFFFFFFFFFFFFFFFFFFFFFFFFFFFFFFFFF AND PUSH20 0xFFFFFFFFFFFFFFFFFFFFFFFFFFFFFFFFFFFFFFFF AND DUP2 MSTORE PUSH1 0x20 ADD SWAP1 DUP2 MSTORE PUSH1 0x20 ADD PUSH1 0x0 KECCAK256 DUP1 SLOAD PUSH2 0x1FE SWAP1 PUSH2 0x9CF JUMP JUMPDEST DUP1 PUSH1 0x1F ADD PUSH1 0x20 DUP1 SWAP2 DIV MUL PUSH1 0x20 ADD PUSH1 0x40 MLOAD SWAP1 DUP2 ADD PUSH1 0x40 MSTORE DUP1 SWAP3 SWAP2 SWAP1 DUP2 DUP2 MSTORE PUSH1 0x20 ADD DUP3 DUP1 SLOAD PUSH2 0x22A SWAP1 PUSH2 0x9CF JUMP JUMPDEST DUP1 ISZERO PUSH2 0x277 JUMPI DUP1 PUSH1 0x1F LT PUSH2 0x24C JUMPI PUSH2 0x100 DUP1 DUP4 SLOAD DIV MUL DUP4 MSTORE SWAP2 PUSH1 0x20 ADD SWAP2 PUSH2 0x277 JUMP JUMPDEST DUP3 ADD SWAP2 SWAP1 PUSH1 0x0 MSTORE PUSH1 0x20 PUSH1 0x0 KECCAK256 SWAP1 JUMPDEST DUP2 SLOAD DUP2 MSTORE SWAP1 PUSH1 0x1 ADD SWAP1 PUSH1 0x20 ADD DUP1 DUP4 GT PUSH2 0x25A JUMPI DUP3 SWAP1 SUB PUSH1 0x1F AND DUP3 ADD SWAP2 JUMPDEST POP POP POP POP POP SWAP1 POP SWAP2 SWAP1 POP JUMP JUMPDEST PUSH1 0x1 PUSH1 0x20 MSTORE DUP1 PUSH1 0x0 MSTORE PUSH1 0x40 PUSH1 0x0 KECCAK256 PUSH1 0x0 SWAP2 POP SWAP1 POP DUP1 SLOAD PUSH2 0x2A2 SWAP1 PUSH2 0x9CF JUMP JUMPDEST DUP1 PUSH1 0x1F ADD PUSH1 0x20 DUP1 SWAP2 DIV MUL PUSH1 0x20 ADD PUSH1 0x40 MLOAD SWAP1 DUP2 ADD PUSH1 0x40 MSTORE DUP1 SWAP3 SWAP2 SWAP1 DUP2 DUP2 MSTORE PUSH1 0x20 ADD DUP3 DUP1 SLOAD PUSH2 0x2CE SWAP1 PUSH2 0x9CF JUMP JUMPDEST DUP1 ISZERO PUSH2 0x31B JUMPI DUP1 PUSH1 0x1F LT PUSH2 0x2F0 JUMPI PUSH2 0x100 DUP1 DUP4 SLOAD DIV MUL DUP4 MSTORE SWAP2 PUSH1 0x20 ADD SWAP2 PUSH2 0x31B JUMP JUMPDEST DUP3 ADD SWAP2 SWAP1 PUSH1 0x0 MSTORE PUSH1 0x20 PUSH1 0x0 KECCAK256 SWAP1 JUMPDEST DUP2 SLOAD DUP2 MSTORE SWAP1 PUSH1 0x1 ADD SWAP1 PUSH1 0x20 ADD DUP1 DUP4 GT PUSH2 0x2FE JUMPI DUP3 SWAP1 SUB PUSH1 0x1F AND DUP3 ADD SWAP2 JUMPDEST POP POP POP POP POP DUP2 JUMP JUMPDEST PUSH1 0x2 PUSH1 0x20 MSTORE DUP1 PUSH1 0x0 MSTORE PUSH1 0x40 PUSH1 0x0 KECCAK256 PUSH1 0x0 SWAP2 POP SLOAD SWAP1 PUSH2 0x100 EXP SWAP1 DIV PUSH1 0xFF AND DUP2 JUMP JUMPDEST PUSH1 0x0 DUP1 SLOAD SWAP1 PUSH2 0x100 EXP SWAP1 DIV PUSH20 0xFFFFFFFFFFFFFFFFFFFFFFFFFFFFFFFFFFFFFFFF AND PUSH20 0xFFFFFFFFFFFFFFFFFFFFFFFFFFFFFFFFFFFFFFFF AND CALLER PUSH20 0xFFFFFFFFFFFFFFFFFFFFFFFFFFFFFFFFFFFFFFFF AND EQ PUSH2 0x3D1 JUMPI PUSH1 0x40 MLOAD PUSH32 0x8C379A000000000000000000000000000000000000000000000000000000000 DUP2 MSTORE PUSH1 0x4 ADD PUSH2 0x3C8 SWAP1 PUSH2 0xA72 JUMP JUMPDEST PUSH1 0x40 MLOAD DUP1 SWAP2 SUB SWAP1 REVERT JUMPDEST PUSH1 0x2 PUSH1 0x0 DUP5 PUSH20 0xFFFFFFFFFFFFFFFFFFFFFFFFFFFFFFFFFFFFFFFF AND PUSH20 0xFFFFFFFFFFFFFFFFFFFFFFFFFFFFFFFFFFFFFFFF AND DUP2 MSTORE PUSH1 0x20 ADD SWAP1 DUP2 MSTORE PUSH1 0x20 ADD PUSH1 0x0 KECCAK256 PUSH1 0x0 SWAP1 SLOAD SWAP1 PUSH2 0x100 EXP SWAP1 DIV PUSH1 0xFF AND ISZERO PUSH2 0x45E JUMPI PUSH1 0x40 MLOAD PUSH32 0x8C379A000000000000000000000000000000000000000000000000000000000 DUP2 MSTORE PUSH1 0x4 ADD PUSH2 0x455 SWAP1 PUSH2 0xB04 JUMP JUMPDEST PUSH1 0x40 MLOAD DUP1 SWAP2 SUB SWAP1 REVERT JUMPDEST DUP2 DUP2 PUSH1 0x40 MLOAD PUSH1 0x20 ADD PUSH2 0x471 SWAP3 SWAP2 SWAP1 PUSH2 0xBAC JUMP JUMPDEST PUSH1 0x40 MLOAD PUSH1 0x20 DUP2 DUP4 SUB SUB DUP2 MSTORE SWAP1 PUSH1 0x40 MSTORE PUSH1 0x1 PUSH1 0x0 DUP6 PUSH20 0xFFFFFFFFFFFFFFFFFFFFFFFFFFFFFFFFFFFFFFFF AND PUSH20 0xFFFFFFFFFFFFFFFFFFFFFFFFFFFFFFFFFFFFFFFF AND DUP2 MSTORE PUSH1 0x20 ADD SWAP1 DUP2 MSTORE PUSH1 0x20 ADD PUSH1 0x0 KECCAK256 SWAP1 DUP2 PUSH2 0x4CB SWAP2 SWAP1 PUSH2 0xD91 JUMP JUMPDEST POP PUSH1 0x1 PUSH1 0x2 PUSH1 0x0 DUP6 PUSH20 0xFFFFFFFFFFFFFFFFFFFFFFFFFFFFFFFFFFFFFFFF AND PUSH20 0xFFFFFFFFFFFFFFFFFFFFFFFFFFFFFFFFFFFFFFFF AND DUP2 MSTORE PUSH1 0x20 ADD SWAP1 DUP2 MSTORE PUSH1 0x20 ADD PUSH1 0x0 KECCAK256 PUSH1 0x0 PUSH2 0x100 EXP DUP2 SLOAD DUP2 PUSH1 0xFF MUL NOT AND SWAP1 DUP4 ISZERO ISZERO MUL OR SWAP1 SSTORE POP DUP3 PUSH20 0xFFFFFFFFFFFFFFFFFFFFFFFFFFFFFFFFFFFFFFFF AND PUSH32 0xEFD11EAB38ED6A8B5CBDED4032E4DEFE30089DA6CB4223DC4FA9C24D96500766 DUP4 DUP4 PUSH1 0x40 MLOAD PUSH2 0x56C SWAP3 SWAP2 SWAP1 PUSH2 0xE63 JUMP JUMPDEST PUSH1 0x40 MLOAD DUP1 SWAP2 SUB SWAP1 LOG2 POP POP POP JUMP JUMPDEST PUSH1 0x0 DUP1 SLOAD SWAP1 PUSH2 0x100 EXP SWAP1 DIV PUSH20 0xFFFFFFFFFFFFFFFFFFFFFFFFFFFFFFFFFFFFFFFF AND DUP2 JUMP JUMPDEST PUSH1 0x0 PUSH1 0x40 MLOAD SWAP1 POP SWAP1 JUMP JUMPDEST PUSH1 0x0 DUP1 REVERT JUMPDEST PUSH1 0x0 DUP1 REVERT JUMPDEST PUSH1 0x0 PUSH20 0xFFFFFFFFFFFFFFFFFFFFFFFFFFFFFFFFFFFFFFFF DUP3 AND SWAP1 POP SWAP2 SWAP1 POP JUMP JUMPDEST PUSH1 0x0 PUSH2 0x5DC DUP3 PUSH2 0x5B1 JUMP JUMPDEST SWAP1 POP SWAP2 SWAP1 POP JUMP JUMPDEST PUSH2 0x5EC DUP2 PUSH2 0x5D1 JUMP JUMPDEST DUP2 EQ PUSH2 0x5F7 JUMPI PUSH1 0x0 DUP1 REVERT JUMPDEST POP JUMP JUMPDEST PUSH1 0x0 DUP2 CALLDATALOAD SWAP1 POP PUSH2 0x609 DUP2 PUSH2 0x5E3 JUMP JUMPDEST SWAP3 SWAP2 POP POP JUMP JUMPDEST PUSH1 0x0 PUSH1 0x20 DUP3 DUP5 SUB SLT ISZERO PUSH2 0x625 JUMPI PUSH2 0x624 PUSH2 0x5A7 JUMP JUMPDEST JUMPDEST PUSH1 0x0 PUSH2 0x633 DUP5 DUP3 DUP6 ADD PUSH2 0x5FA JUMP JUMPDEST SWAP2 POP POP SWAP3 SWAP2 POP POP JUMP JUMPDEST PUSH1 0x0 DUP2 MLOAD SWAP1 POP SWAP2 SWAP1 POP JUMP JUMPDEST PUSH1 0x0 DUP3 DUP3 MSTORE PUSH1 0x20 DUP3 ADD SWAP1 POP SWAP3 SWAP2 POP POP JUMP JUMPDEST PUSH1 0x0 JUMPDEST DUP4 DUP2 LT ISZERO PUSH2 0x676 JUMPI DUP1 DUP3 ADD MLOAD DUP2 DUP5 ADD MSTORE PUSH1 0x20 DUP2 ADD SWAP1 POP PUSH2 0x65B JUMP JUMPDEST PUSH1 0x0 DUP5 DUP5 ADD MSTORE POP POP POP POP JUMP JUMPDEST PUSH1 0x0 PUSH1 0x1F NOT PUSH1 0x1F DUP4 ADD AND SWAP1 POP SWAP2 SWAP1 POP JUMP JUMPDEST PUSH1 0x0 PUSH2 0x69E DUP3 PUSH2 0x63C JUMP JUMPDEST PUSH2 0x6A8 DUP2 DUP6 PUSH2 0x647 JUMP JUMPDEST SWAP4 POP PUSH2 0x6B8 DUP2 DUP6 PUSH1 0x20 DUP7 ADD PUSH2 0x658 JUMP JUMPDEST PUSH2 0x6C1 DUP2 PUSH2 0x682 JUMP JUMPDEST DUP5 ADD SWAP2 POP POP SWAP3 SWAP2 POP POP JUMP JUMPDEST PUSH1 0x0 PUSH1 0x20 DUP3 ADD SWAP1 POP DUP2 DUP2 SUB PUSH1 0x0 DUP4 ADD MSTORE PUSH2 0x6E6 DUP2 DUP5 PUSH2 0x693 JUMP JUMPDEST SWAP1 POP SWAP3 SWAP2 POP POP JUMP JUMPDEST PUSH1 0x0 DUP2 ISZERO ISZERO SWAP1 POP SWAP2 SWAP1 POP JUMP JUMPDEST PUSH2 0x703 DUP2 PUSH2 0x6EE JUMP JUMPDEST DUP3 MSTORE POP POP JUMP JUMPDEST PUSH1 0x0 PUSH1 0x20 DUP3 ADD SWAP1 POP PUSH2 0x71E PUSH1 0x0 DUP4 ADD DUP5 PUSH2 0x6FA JUMP JUMPDEST SWAP3 SWAP2 POP POP JUMP JUMPDEST PUSH1 0x0 DUP1 REVERT JUMPDEST PUSH1 0x0 DUP1 REVERT JUMPDEST PUSH32 0x4E487B7100000000000000000000000000000000000000000000000000000000 PUSH1 0x0 MSTORE PUSH1 0x41 PUSH1 0x4 MSTORE PUSH1 0x24 PUSH1 0x0 REVERT JUMPDEST PUSH2 0x766 DUP3 PUSH2 0x682 JUMP JUMPDEST DUP2 ADD DUP2 DUP2 LT PUSH8 0xFFFFFFFFFFFFFFFF DUP3 GT OR ISZERO PUSH2 0x785 JUMPI PUSH2 0x784 PUSH2 0x72E JUMP JUMPDEST JUMPDEST DUP1 PUSH1 0x40 MSTORE POP POP POP JUMP JUMPDEST PUSH1 0x0 PUSH2 0x798 PUSH2 0x59D JUMP JUMPDEST SWAP1 POP PUSH2 0x7A4 DUP3 DUP3 PUSH2 0x75D JUMP JUMPDEST SWAP2 SWAP1 POP JUMP JUMPDEST PUSH1 0x0 PUSH8 0xFFFFFFFFFFFFFFFF DUP3 GT ISZERO PUSH2 0x7C4 JUMPI PUSH2 0x7C3 PUSH2 0x72E JUMP JUMPDEST JUMPDEST PUSH2 0x7CD DUP3 PUSH2 0x682 JUMP JUMPDEST SWAP1 POP PUSH1 0x20 DUP2 ADD SWAP1 POP SWAP2 SWAP1 POP JUMP JUMPDEST DUP3 DUP2 DUP4 CALLDATACOPY PUSH1 0x0 DUP4 DUP4 ADD MSTORE POP POP POP JUMP JUMPDEST PUSH1 0x0 PUSH2 0x7FC PUSH2 0x7F7 DUP5 PUSH2 0x7A9 JUMP JUMPDEST PUSH2 0x78E JUMP JUMPDEST SWAP1 POP DUP3 DUP2 MSTORE PUSH1 0x20 DUP2 ADD DUP5 DUP5 DUP5 ADD GT ISZERO PUSH2 0x818 JUMPI PUSH2 0x817 PUSH2 0x729 JUMP JUMPDEST JUMPDEST PUSH2 0x823 DUP5 DUP3 DUP6 PUSH2 0x7DA JUMP JUMPDEST POP SWAP4 SWAP3 POP POP POP JUMP JUMPDEST PUSH1 0x0 DUP3 PUSH1 0x1F DUP4 ADD SLT PUSH2 0x840 JUMPI PUSH2 0x83F PUSH2 0x724 JUMP JUMPDEST JUMPDEST DUP2 CALLDATALOAD PUSH2 0x850 DUP5 DUP3 PUSH1 0x20 DUP7 ADD PUSH2 0x7E9 JUMP JUMPDEST SWAP2 POP POP SWAP3 SWAP2 POP POP JUMP JUMPDEST PUSH1 0x0 DUP1 PUSH1 0x0 PUSH1 0x60 DUP5 DUP7 SUB SLT ISZERO PUSH2 0x872 JUMPI PUSH2 0x871 PUSH2 0x5A7 JUMP JUMPDEST JUMPDEST PUSH1 0x0 PUSH2 0x880 DUP7 DUP3 DUP8 ADD PUSH2 0x5FA JUMP JUMPDEST SWAP4 POP POP PUSH1 0x20 DUP5 ADD CALLDATALOAD PUSH8 0xFFFFFFFFFFFFFFFF DUP2 GT ISZERO PUSH2 0x8A1 JUMPI PUSH2 0x8A0 PUSH2 0x5AC JUMP JUMPDEST JUMPDEST PUSH2 0x8AD DUP7 DUP3 DUP8 ADD PUSH2 0x82B JUMP JUMPDEST SWAP3 POP POP PUSH1 0x40 DUP5 ADD CALLDATALOAD PUSH8 0xFFFFFFFFFFFFFFFF DUP2 GT ISZERO PUSH2 0x8CE JUMPI PUSH2 0x8CD PUSH2 0x5AC JUMP JUMPDEST JUMPDEST PUSH2 0x8DA DUP7 DUP3 DUP8 ADD PUSH2 0x82B JUMP JUMPDEST SWAP2 POP POP SWAP3 POP SWAP3 POP SWAP3 JUMP JUMPDEST PUSH2 0x8ED DUP2 PUSH2 0x5D1 JUMP JUMPDEST DUP3 MSTORE POP POP JUMP JUMPDEST PUSH1 0x0 PUSH1 0x20 DUP3 ADD SWAP1 POP PUSH2 0x908 PUSH1 0x0 DUP4 ADD DUP5 PUSH2 0x8E4 JUMP JUMPDEST SWAP3 SWAP2 POP POP JUMP JUMPDEST PUSH32 0x4E6F2063657274696669636174696F6E20666F756E6420666F72207468697320 PUSH1 0x0 DUP3 ADD MSTORE PUSH32 0x6164647265737300000000000000000000000000000000000000000000000000 PUSH1 0x20 DUP3 ADD MSTORE POP JUMP JUMPDEST PUSH1 0x0 PUSH2 0x96A PUSH1 0x27 DUP4 PUSH2 0x647 JUMP JUMPDEST SWAP2 POP PUSH2 0x975 DUP3 PUSH2 0x90E JUMP JUMPDEST PUSH1 0x40 DUP3 ADD SWAP1 POP SWAP2 SWAP1 POP JUMP JUMPDEST PUSH1 0x0 PUSH1 0x20 DUP3 ADD SWAP1 POP DUP2 DUP2 SUB PUSH1 0x0 DUP4 ADD MSTORE PUSH2 0x999 DUP2 PUSH2 0x95D JUMP JUMPDEST SWAP1 POP SWAP2 SWAP1 POP JUMP JUMPDEST PUSH32 0x4E487B7100000000000000000000000000000000000000000000000000000000 PUSH1 0x0 MSTORE PUSH1 0x22 PUSH1 0x4 MSTORE PUSH1 0x24 PUSH1 0x0 REVERT JUMPDEST PUSH1 0x0 PUSH1 0x2 DUP3 DIV SWAP1 POP PUSH1 0x1 DUP3 AND DUP1 PUSH2 0x9E7 JUMPI PUSH1 0x7F DUP3 AND SWAP2 POP JUMPDEST PUSH1 0x20 DUP3 LT DUP2 SUB PUSH2 0x9FA JUMPI PUSH2 0x9F9 PUSH2 0x9A0 JUMP JUMPDEST JUMPDEST POP SWAP2 SWAP1 POP JUMP JUMPDEST PUSH32 0x4F6E6C792074686520636F6E7472616374206F776E65722063616E2063616C6C PUSH1 0x0 DUP3 ADD MSTORE PUSH32 0x20746869732066756E6374696F6E000000000000000000000000000000000000 PUSH1 0x20 DUP3 ADD MSTORE POP JUMP JUMPDEST PUSH1 0x0 PUSH2 0xA5C PUSH1 0x2E DUP4 PUSH2 0x647 JUMP JUMPDEST SWAP2 POP PUSH2 0xA67 DUP3 PUSH2 0xA00 JUMP JUMPDEST PUSH1 0x40 DUP3 ADD SWAP1 POP SWAP2 SWAP1 POP JUMP JUMPDEST PUSH1 0x0 PUSH1 0x20 DUP3 ADD SWAP1 POP DUP2 DUP2 SUB PUSH1 0x0 DUP4 ADD MSTORE PUSH2 0xA8B DUP2 PUSH2 0xA4F JUMP JUMPDEST SWAP1 POP SWAP2 SWAP1 POP JUMP JUMPDEST PUSH32 0x43657274696669636174696F6E20616C72656164792069737375656420666F72 PUSH1 0x0 DUP3 ADD MSTORE PUSH32 0x2074686973206164647265737300000000000000000000000000000000000000 PUSH1 0x20 DUP3 ADD MSTORE POP JUMP JUMPDEST PUSH1 0x0 PUSH2 0xAEE PUSH1 0x2D DUP4 PUSH2 0x647 JUMP JUMPDEST SWAP2 POP PUSH2 0xAF9 DUP3 PUSH2 0xA92 JUMP JUMPDEST PUSH1 0x40 DUP3 ADD SWAP1 POP SWAP2 SWAP1 POP JUMP JUMPDEST PUSH1 0x0 PUSH1 0x20 DUP3 ADD SWAP1 POP DUP2 DUP2 SUB PUSH1 0x0 DUP4 ADD MSTORE PUSH2 0xB1D DUP2 PUSH2 0xAE1 JUMP JUMPDEST SWAP1 POP SWAP2 SWAP1 POP JUMP JUMPDEST PUSH1 0x0 DUP2 SWAP1 POP SWAP3 SWAP2 POP POP JUMP JUMPDEST PUSH1 0x0 PUSH2 0xB3A DUP3 PUSH2 0x63C JUMP JUMPDEST PUSH2 0xB44 DUP2 DUP6 PUSH2 0xB24 JUMP JUMPDEST SWAP4 POP PUSH2 0xB54 DUP2 DUP6 PUSH1 0x20 DUP7 ADD PUSH2 0x658 JUMP JUMPDEST DUP1 DUP5 ADD SWAP2 POP POP SWAP3 SWAP2 POP POP JUMP JUMPDEST PUSH32 0x202D200000000000000000000000000000000000000000000000000000000000 PUSH1 0x0 DUP3 ADD MSTORE POP JUMP JUMPDEST PUSH1 0x0 PUSH2 0xB96 PUSH1 0x3 DUP4 PUSH2 0xB24 JUMP JUMPDEST SWAP2 POP PUSH2 0xBA1 DUP3 PUSH2 0xB60 JUMP JUMPDEST PUSH1 0x3 DUP3 ADD SWAP1 POP SWAP2 SWAP1 POP JUMP JUMPDEST PUSH1 0x0 PUSH2 0xBB8 DUP3 DUP6 PUSH2 0xB2F JUMP JUMPDEST SWAP2 POP PUSH2 0xBC3 DUP3 PUSH2 0xB89 JUMP JUMPDEST SWAP2 POP PUSH2 0xBCF DUP3 DUP5 PUSH2 0xB2F JUMP JUMPDEST SWAP2 POP DUP2 SWAP1 POP SWAP4 SWAP3 POP POP POP JUMP JUMPDEST PUSH1 0x0 DUP2 SWAP1 POP DUP2 PUSH1 0x0 MSTORE PUSH1 0x20 PUSH1 0x0 KECCAK256 SWAP1 POP SWAP2 SWAP1 POP JUMP JUMPDEST PUSH1 0x0 PUSH1 0x20 PUSH1 0x1F DUP4 ADD DIV SWAP1 POP SWAP2 SWAP1 POP JUMP JUMPDEST PUSH1 0x0 DUP3 DUP3 SHL SWAP1 POP SWAP3 SWAP2 POP POP JUMP JUMPDEST PUSH1 0x0 PUSH1 0x8 DUP4 MUL PUSH2 0xC3D PUSH32 0xFFFFFFFFFFFFFFFFFFFFFFFFFFFFFFFFFFFFFFFFFFFFFFFFFFFFFFFFFFFFFFFF DUP3 PUSH2 0xC00 JUMP JUMPDEST PUSH2 0xC47 DUP7 DUP4 PUSH2 0xC00 JUMP JUMPDEST SWAP6 POP DUP1 NOT DUP5 AND SWAP4 POP DUP1 DUP7 AND DUP5 OR SWAP3 POP POP POP SWAP4 SWAP3 POP POP POP JUMP JUMPDEST PUSH1 0x0 DUP2 SWAP1 POP SWAP2 SWAP1 POP JUMP JUMPDEST PUSH1 0x0 DUP2 SWAP1 POP SWAP2 SWAP1 POP JUMP JUMPDEST PUSH1 0x0 PUSH2 0xC8E PUSH2 0xC89 PUSH2 0xC84 DUP5 PUSH2 0xC5F JUMP JUMPDEST PUSH2 0xC69 JUMP JUMPDEST PUSH2 0xC5F JUMP JUMPDEST SWAP1 POP SWAP2 SWAP1 POP JUMP JUMPDEST PUSH1 0x0 DUP2 SWAP1 POP SWAP2 SWAP1 POP JUMP JUMPDEST PUSH2 0xCA8 DUP4 PUSH2 0xC73 JUMP JUMPDEST PUSH2 0xCBC PUSH2 0xCB4 DUP3 PUSH2 0xC95 JUMP JUMPDEST DUP5 DUP5 SLOAD PUSH2 0xC0D JUMP JUMPDEST DUP3 SSTORE POP POP POP POP JUMP JUMPDEST PUSH1 0x0 SWAP1 JUMP JUMPDEST PUSH2 0xCD1 PUSH2 0xCC4 JUMP JUMPDEST PUSH2 0xCDC DUP2 DUP5 DUP5 PUSH2 0xC9F JUMP JUMPDEST POP POP POP JUMP JUMPDEST JUMPDEST DUP2 DUP2 LT ISZERO PUSH2 0xD00 JUMPI PUSH2 0xCF5 PUSH1 0x0 DUP3 PUSH2 0xCC9 JUMP JUMPDEST PUSH1 0x1 DUP2 ADD SWAP1 POP PUSH2 0xCE2 JUMP JUMPDEST POP POP JUMP JUMPDEST PUSH1 0x1F DUP3 GT ISZERO PUSH2 0xD45 JUMPI PUSH2 0xD16 DUP2 PUSH2 0xBDB JUMP JUMPDEST PUSH2 0xD1F DUP5 PUSH2 0xBF0 JUMP JUMPDEST DUP2 ADD PUSH1 0x20 DUP6 LT ISZERO PUSH2 0xD2E JUMPI DUP2 SWAP1 POP JUMPDEST PUSH2 0xD42 PUSH2 0xD3A DUP6 PUSH2 0xBF0 JUMP JUMPDEST DUP4 ADD DUP3 PUSH2 0xCE1 JUMP JUMPDEST POP POP JUMPDEST POP POP POP JUMP JUMPDEST PUSH1 0x0 DUP3 DUP3 SHR SWAP1 POP SWAP3 SWAP2 POP POP JUMP JUMPDEST PUSH1 0x0 PUSH2 0xD68 PUSH1 0x0 NOT DUP5 PUSH1 0x8 MUL PUSH2 0xD4A JUMP JUMPDEST NOT DUP1 DUP4 AND SWAP2 POP POP SWAP3 SWAP2 POP POP JUMP JUMPDEST PUSH1 0x0 PUSH2 0xD81 DUP4 DUP4 PUSH2 0xD57 JUMP JUMPDEST SWAP2 POP DUP3 PUSH1 0x2 MUL DUP3 OR SWAP1 POP SWAP3 SWAP2 POP POP JUMP JUMPDEST PUSH2 0xD9A DUP3 PUSH2 0x63C JUMP JUMPDEST PUSH8 0xFFFFFFFFFFFFFFFF DUP2 GT ISZERO PUSH2 0xDB3 JUMPI PUSH2 0xDB2 PUSH2 0x72E JUMP JUMPDEST JUMPDEST PUSH2 0xDBD DUP3 SLOAD PUSH2 0x9CF JUMP JUMPDEST PUSH2 0xDC8 DUP3 DUP3 DUP6 PUSH2 0xD04 JUMP JUMPDEST PUSH1 0x0 PUSH1 0x20 SWAP1 POP PUSH1 0x1F DUP4 GT PUSH1 0x1 DUP2 EQ PUSH2 0xDFB JUMPI PUSH1 0x0 DUP5 ISZERO PUSH2 0xDE9 JUMPI DUP3 DUP8 ADD MLOAD SWAP1 POP JUMPDEST PUSH2 0xDF3 DUP6 DUP3 PUSH2 0xD75 JUMP JUMPDEST DUP7 SSTORE POP PUSH2 0xE5B JUMP JUMPDEST PUSH1 0x1F NOT DUP5 AND PUSH2 0xE09 DUP7 PUSH2 0xBDB JUMP JUMPDEST PUSH1 0x0 JUMPDEST DUP3 DUP2 LT ISZERO PUSH2 0xE31 JUMPI DUP5 DUP10 ADD MLOAD DUP3 SSTORE PUSH1 0x1 DUP3 ADD SWAP2 POP PUSH1 0x20 DUP6 ADD SWAP5 POP PUSH1 0x20 DUP2 ADD SWAP1 POP PUSH2 0xE0C JUMP JUMPDEST DUP7 DUP4 LT ISZERO PUSH2 0xE4E JUMPI DUP5 DUP10 ADD MLOAD PUSH2 0xE4A PUSH1 0x1F DUP10 AND DUP3 PUSH2 0xD57 JUMP JUMPDEST DUP4 SSTORE POP JUMPDEST PUSH1 0x1 PUSH1 0x2 DUP9 MUL ADD DUP9 SSTORE POP POP POP JUMPDEST POP POP POP POP POP POP JUMP JUMPDEST PUSH1 0x0 PUSH1 0x40 DUP3 ADD SWAP1 POP DUP2 DUP2 SUB PUSH1 0x0 DUP4 ADD MSTORE PUSH2 0xE7D DUP2 DUP6 PUSH2 0x693 JUMP JUMPDEST SWAP1 POP DUP2 DUP2 SUB PUSH1 0x20 DUP4 ADD MSTORE PUSH2 0xE91 DUP2 DUP5 PUSH2 0x693 JUMP JUMPDEST SWAP1 POP SWAP4 SWAP3 POP POP POP JUMP INVALID LOG2 PUSH5 0x6970667358 0x22 SLT KECCAK256 0x24 0x4F DUP6 PUSH12 0x9CBBC7D3A574225B66EAAB34 PUSH2 0xE8CA DUP6 CALLCODE PUSH10 0x4F89A429BDAE7B5B681C PUSH5 0x736F6C6343 STOP ADDMOD SLT STOP CALLER "
				},
				"gasEstimates": {
					"creation": {
						"codeDepositCost": "758400",
						"executionCost": "25058",
						"totalCost": "783458"
					},
					"external": {
						"certifications(address)": "infinite",
						"isCertified(address)": "2867",
						"issueCertification(address,string,string)": "infinite",
						"owner()": "2577",
						"verifyCertification(address)": "infinite"
					}
				},
				"methodIdentifiers": {
					"certifications(address)": "236e0929",
					"isCertified(address)": "5afa5036",
					"issueCertification(address,string,string)": "7ea8f34c",
					"owner()": "8da5cb5b",
					"verifyCertification(address)": "028ea0e8"
				}
			},
			"storageLayout": {
				"storage": [
					{
						"astId": 3,
						"contract": "contracts/cert.sol:CertificationVerification",
						"label": "owner",
						"offset": 0,
						"slot": "0",
						"type": "t_address"
					},
					{
						"astId": 7,
						"contract": "contracts/cert.sol:CertificationVerification",
						"label": "certifications",
						"offset": 0,
						"slot": "1",
						"type": "t_mapping(t_address,t_string_storage)"
					},
					{
						"astId": 11,
						"contract": "contracts/cert.sol:CertificationVerification",
						"label": "isCertified",
						"offset": 0,
						"slot": "2",
						"type": "t_mapping(t_address,t_bool)"
					}
				],
				"types": {
					"t_address": {
						"encoding": "inplace",
						"label": "address",
						"numberOfBytes": "20"
					},
					"t_bool": {
						"encoding": "inplace",
						"label": "bool",
						"numberOfBytes": "1"
					},
					"t_mapping(t_address,t_bool)": {
						"encoding": "mapping",
						"key": "t_address",
						"label": "mapping(address => bool)",
						"numberOfBytes": "32",
						"value": "t_bool"
					},
					"t_mapping(t_address,t_string_storage)": {
						"encoding": "mapping",
						"key": "t_address",
						"label": "mapping(address => string)",
						"numberOfBytes": "32",
						"value": "t_string_storage"
					},
					"t_string_storage": {
						"encoding": "bytes",
						"label": "string",
						"numberOfBytes": "32"
					}
				}
			},
			"userdoc": {
				"kind": "user",
				"methods": {},
				"version": 1
			}
		}
	}
}