{
	"contracts/enums.sol": {
		"Enums": {
			"abi": [
				{
					"inputs": [],
					"name": "buttonOff",
					"outputs": [],
					"stateMutability": "nonpayable",
					"type": "function"
				},
				{
					"inputs": [],
					"name": "buttonOn",
					"outputs": [],
					"stateMutability": "nonpayable",
					"type": "function"
				},
				{
					"inputs": [],
					"name": "getbuttonstate",
					"outputs": [
						{
							"internalType": "enum Enums.Button",
							"name": "",
							"type": "uint8"
						}
					],
					"stateMutability": "view",
					"type": "function"
				}
			],
			"devdoc": {
				"kind": "dev",
				"methods": {},
				"version": 1
			},
			"evm": {
				"assembly": "    /* \"contracts/enums.sol\":57:428  contract Enums{... */\n  mstore(0x40, 0x80)\n  callvalue\n  dup1\n  iszero\n  tag_1\n  jumpi\n  0x00\n  dup1\n  revert\ntag_1:\n  pop\n  dataSize(sub_0)\n  dup1\n  dataOffset(sub_0)\n  0x00\n  codecopy\n  0x00\n  return\nstop\n\nsub_0: assembly {\n        /* \"contracts/enums.sol\":57:428  contract Enums{... */\n      mstore(0x40, 0x80)\n      callvalue\n      dup1\n      iszero\n      tag_1\n      jumpi\n      0x00\n      dup1\n      revert\n    tag_1:\n      pop\n      jumpi(tag_2, lt(calldatasize, 0x04))\n      shr(0xe0, calldataload(0x00))\n      dup1\n      0x144cb1ed\n      eq\n      tag_3\n      jumpi\n      dup1\n      0x5850e23c\n      eq\n      tag_4\n      jumpi\n      dup1\n      0x8a97573c\n      eq\n      tag_5\n      jumpi\n    tag_2:\n      0x00\n      dup1\n      revert\n        /* \"contracts/enums.sol\":340:425  function getbuttonstate() public view returns(Button){... */\n    tag_3:\n      tag_6\n      tag_7\n      jump\t// in\n    tag_6:\n      mload(0x40)\n      tag_8\n      swap2\n      swap1\n      tag_9\n      jump\t// in\n    tag_8:\n      mload(0x40)\n      dup1\n      swap2\n      sub\n      swap1\n      return\n        /* \"contracts/enums.sol\":203:265  function buttonOn() public {... */\n    tag_4:\n      tag_10\n      tag_11\n      jump\t// in\n    tag_10:\n      stop\n        /* \"contracts/enums.sol\":271:334  function buttonOff() public{... */\n    tag_5:\n      tag_12\n      tag_13\n      jump\t// in\n    tag_12:\n      stop\n        /* \"contracts/enums.sol\":340:425  function getbuttonstate() public view returns(Button){... */\n    tag_7:\n        /* \"contracts/enums.sol\":386:392  Button */\n      0x00\n        /* \"contracts/enums.sol\":411:417  button */\n      dup1\n      0x00\n      swap1\n      sload\n      swap1\n      0x0100\n      exp\n      swap1\n      div\n      0xff\n      and\n        /* \"contracts/enums.sol\":404:417  return button */\n      swap1\n      pop\n        /* \"contracts/enums.sol\":340:425  function getbuttonstate() public view returns(Button){... */\n      swap1\n      jump\t// out\n        /* \"contracts/enums.sol\":203:265  function buttonOn() public {... */\n    tag_11:\n        /* \"contracts/enums.sol\":248:257  Button.ON */\n      0x00\n        /* \"contracts/enums.sol\":241:247  button */\n      dup1\n      0x00\n        /* \"contracts/enums.sol\":241:257  button=Button.ON */\n      0x0100\n      exp\n      dup2\n      sload\n      dup2\n      0xff\n      mul\n      not\n      and\n      swap1\n      dup4\n      0x01\n      dup2\n      gt\n      iszero\n      tag_16\n      jumpi\n      tag_17\n      tag_18\n      jump\t// in\n    tag_17:\n    tag_16:\n      mul\n      or\n      swap1\n      sstore\n      pop\n        /* \"contracts/enums.sol\":203:265  function buttonOn() public {... */\n      jump\t// out\n        /* \"contracts/enums.sol\":271:334  function buttonOff() public{... */\n    tag_13:\n        /* \"contracts/enums.sol\":316:326  Button.OFF */\n      0x01\n        /* \"contracts/enums.sol\":309:315  button */\n      0x00\n      dup1\n        /* \"contracts/enums.sol\":309:326  button=Button.OFF */\n      0x0100\n      exp\n      dup2\n      sload\n      dup2\n      0xff\n      mul\n      not\n      and\n      swap1\n      dup4\n      0x01\n      dup2\n      gt\n      iszero\n      tag_20\n      jumpi\n      tag_21\n      tag_18\n      jump\t// in\n    tag_21:\n    tag_20:\n      mul\n      or\n      swap1\n      sstore\n      pop\n        /* \"contracts/enums.sol\":271:334  function buttonOff() public{... */\n      jump\t// out\n        /* \"#utility.yul\":7:187   */\n    tag_18:\n        /* \"#utility.yul\":55:132   */\n      0x4e487b7100000000000000000000000000000000000000000000000000000000\n        /* \"#utility.yul\":52:53   */\n      0x00\n        /* \"#utility.yul\":45:133   */\n      mstore\n        /* \"#utility.yul\":152:156   */\n      0x21\n        /* \"#utility.yul\":149:150   */\n      0x04\n        /* \"#utility.yul\":142:157   */\n      mstore\n        /* \"#utility.yul\":176:180   */\n      0x24\n        /* \"#utility.yul\":173:174   */\n      0x00\n        /* \"#utility.yul\":166:181   */\n      revert\n        /* \"#utility.yul\":193:306   */\n    tag_22:\n        /* \"#utility.yul\":274:275   */\n      0x02\n        /* \"#utility.yul\":267:272   */\n      dup2\n        /* \"#utility.yul\":264:276   */\n      lt\n        /* \"#utility.yul\":254:300   */\n      tag_29\n      jumpi\n        /* \"#utility.yul\":280:298   */\n      tag_30\n      tag_18\n      jump\t// in\n    tag_30:\n        /* \"#utility.yul\":254:300   */\n    tag_29:\n        /* \"#utility.yul\":193:306   */\n      pop\n      jump\t// out\n        /* \"#utility.yul\":312:439   */\n    tag_23:\n        /* \"#utility.yul\":357:364   */\n      0x00\n        /* \"#utility.yul\":386:391   */\n      dup2\n        /* \"#utility.yul\":375:391   */\n      swap1\n      pop\n        /* \"#utility.yul\":392:433   */\n      tag_32\n        /* \"#utility.yul\":427:432   */\n      dup3\n        /* \"#utility.yul\":392:433   */\n      tag_22\n      jump\t// in\n    tag_32:\n        /* \"#utility.yul\":312:439   */\n      swap2\n      swap1\n      pop\n      jump\t// out\n        /* \"#utility.yul\":445:572   */\n    tag_24:\n        /* \"#utility.yul\":501:510   */\n      0x00\n        /* \"#utility.yul\":534:566   */\n      tag_34\n        /* \"#utility.yul\":560:565   */\n      dup3\n        /* \"#utility.yul\":534:566   */\n      tag_23\n      jump\t// in\n    tag_34:\n        /* \"#utility.yul\":521:566   */\n      swap1\n      pop\n        /* \"#utility.yul\":445:572   */\n      swap2\n      swap1\n      pop\n      jump\t// out\n        /* \"#utility.yul\":578:721   */\n    tag_25:\n        /* \"#utility.yul\":671:714   */\n      tag_36\n        /* \"#utility.yul\":708:713   */\n      dup2\n        /* \"#utility.yul\":671:714   */\n      tag_24\n      jump\t// in\n    tag_36:\n        /* \"#utility.yul\":666:669   */\n      dup3\n        /* \"#utility.yul\":659:715   */\n      mstore\n        /* \"#utility.yul\":578:721   */\n      pop\n      pop\n      jump\t// out\n        /* \"#utility.yul\":727:961   */\n    tag_9:\n        /* \"#utility.yul\":826:830   */\n      0x00\n        /* \"#utility.yul\":864:866   */\n      0x20\n        /* \"#utility.yul\":853:862   */\n      dup3\n        /* \"#utility.yul\":849:867   */\n      add\n        /* \"#utility.yul\":841:867   */\n      swap1\n      pop\n        /* \"#utility.yul\":877:954   */\n      tag_38\n        /* \"#utility.yul\":951:952   */\n      0x00\n        /* \"#utility.yul\":940:949   */\n      dup4\n        /* \"#utility.yul\":936:953   */\n      add\n        /* \"#utility.yul\":927:933   */\n      dup5\n        /* \"#utility.yul\":877:954   */\n      tag_25\n      jump\t// in\n    tag_38:\n        /* \"#utility.yul\":727:961   */\n      swap3\n      swap2\n      pop\n      pop\n      jump\t// out\n\n    auxdata: 0xa264697066735822122085c25458c079ffd76e85a45754f5ee6a41cf7bbf173f14e489072a8d2162a14664736f6c63430008150033\n}\n",
				"bytecode": {
					"linkReferences": {},
					"object": "608060405234801561000f575f80fd5b506101a08061001d5f395ff3fe608060405234801561000f575f80fd5b506004361061003f575f3560e01c8063144cb1ed146100435780635850e23c146100615780638a97573c1461006b575b5f80fd5b61004b610075565b6040516100589190610151565b60405180910390f35b610069610089565b005b6100736100b3565b005b5f805f9054906101000a900460ff16905090565b5f805f6101000a81548160ff021916908360018111156100ac576100ab6100de565b5b0217905550565b60015f806101000a81548160ff021916908360018111156100d7576100d66100de565b5b0217905550565b7f4e487b71000000000000000000000000000000000000000000000000000000005f52602160045260245ffd5b6002811061011c5761011b6100de565b5b50565b5f81905061012c8261010b565b919050565b5f61013b8261011f565b9050919050565b61014b81610131565b82525050565b5f6020820190506101645f830184610142565b9291505056fea264697066735822122085c25458c079ffd76e85a45754f5ee6a41cf7bbf173f14e489072a8d2162a14664736f6c63430008150033",
					"opcodes": "PUSH1 0x80 PUSH1 0x40 MSTORE CALLVALUE DUP1 ISZERO PUSH2 0xF JUMPI PUSH0 DUP1 REVERT JUMPDEST POP PUSH2 0x1A0 DUP1 PUSH2 0x1D PUSH0 CODECOPY PUSH0 RETURN INVALID PUSH1 0x80 PUSH1 0x40 MSTORE CALLVALUE DUP1 ISZERO PUSH2 0xF JUMPI PUSH0 DUP1 REVERT JUMPDEST POP PUSH1 0x4 CALLDATASIZE LT PUSH2 0x3F JUMPI PUSH0 CALLDATALOAD PUSH1 0xE0 SHR DUP1 PUSH4 0x144CB1ED EQ PUSH2 0x43 JUMPI DUP1 PUSH4 0x5850E23C EQ PUSH2 0x61 JUMPI DUP1 PUSH4 0x8A97573C EQ PUSH2 0x6B JUMPI JUMPDEST PUSH0 DUP1 REVERT JUMPDEST PUSH2 0x4B PUSH2 0x75 JUMP JUMPDEST PUSH1 0x40 MLOAD PUSH2 0x58 SWAP2 SWAP1 PUSH2 0x151 JUMP JUMPDEST PUSH1 0x40 MLOAD DUP1 SWAP2 SUB SWAP1 RETURN JUMPDEST PUSH2 0x69 PUSH2 0x89 JUMP JUMPDEST STOP JUMPDEST PUSH2 0x73 PUSH2 0xB3 JUMP JUMPDEST STOP JUMPDEST PUSH0 DUP1 PUSH0 SWAP1 SLOAD SWAP1 PUSH2 0x100 EXP SWAP1 DIV PUSH1 0xFF AND SWAP1 POP SWAP1 JUMP JUMPDEST PUSH0 DUP1 PUSH0 PUSH2 0x100 EXP DUP2 SLOAD DUP2 PUSH1 0xFF MUL NOT AND SWAP1 DUP4 PUSH1 0x1 DUP2 GT ISZERO PUSH2 0xAC JUMPI PUSH2 0xAB PUSH2 0xDE JUMP JUMPDEST JUMPDEST MUL OR SWAP1 SSTORE POP JUMP JUMPDEST PUSH1 0x1 PUSH0 DUP1 PUSH2 0x100 EXP DUP2 SLOAD DUP2 PUSH1 0xFF MUL NOT AND SWAP1 DUP4 PUSH1 0x1 DUP2 GT ISZERO PUSH2 0xD7 JUMPI PUSH2 0xD6 PUSH2 0xDE JUMP JUMPDEST JUMPDEST MUL OR SWAP1 SSTORE POP JUMP JUMPDEST PUSH32 0x4E487B7100000000000000000000000000000000000000000000000000000000 PUSH0 MSTORE PUSH1 0x21 PUSH1 0x4 MSTORE PUSH1 0x24 PUSH0 REVERT JUMPDEST PUSH1 0x2 DUP2 LT PUSH2 0x11C JUMPI PUSH2 0x11B PUSH2 0xDE JUMP JUMPDEST JUMPDEST POP JUMP JUMPDEST PUSH0 DUP2 SWAP1 POP PUSH2 0x12C DUP3 PUSH2 0x10B JUMP JUMPDEST SWAP2 SWAP1 POP JUMP JUMPDEST PUSH0 PUSH2 0x13B DUP3 PUSH2 0x11F JUMP JUMPDEST SWAP1 POP SWAP2 SWAP1 POP JUMP JUMPDEST PUSH2 0x14B DUP2 PUSH2 0x131 JUMP JUMPDEST DUP3 MSTORE POP POP JUMP JUMPDEST PUSH0 PUSH1 0x20 DUP3 ADD SWAP1 POP PUSH2 0x164 PUSH0 DUP4 ADD DUP5 PUSH2 0x142 JUMP JUMPDEST SWAP3 SWAP2 POP POP JUMP INVALID LOG2 PUSH5 0x6970667358 0x22 SLT KECCAK256 DUP6 0xC2 SLOAD PC 0xC0 PUSH26 0xFFD76E85A45754F5EE6A41CF7BBF173F14E489072A8D2162A146 PUSH5 0x736F6C6343 STOP ADDMOD ISZERO STOP CALLER "
				},
				"gasEstimates": {
					"creation": {
						"codeDepositCost": "83200",
						"executionCost": "127",
						"totalCost": "83327"
					},
					"external": {
						"buttonOff()": "24451",
						"buttonOn()": "24428",
						"getbuttonstate()": "2539"
					}
				},
				"methodIdentifiers": {
					"buttonOff()": "8a97573c",
					"buttonOn()": "5850e23c",
					"getbuttonstate()": "144cb1ed"
				}
			},
			"storageLayout": {
				"storage": [
					{
						"astId": 7,
						"contract": "contracts/enums.sol:Enums",
						"label": "button",
						"offset": 0,
						"slot": "0",
						"type": "t_enum(Button)4"
					}
				],
				"types": {
					"t_enum(Button)4": {
						"encoding": "inplace",
						"label": "enum Enums.Button",
						"numberOfBytes": "1"
					}
				}
			},
			"userdoc": {
				"kind": "user",
				"methods": {},
				"version": 1
			}
		}
	}
}