{
	"contracts/library.sol": {
		"Library": {
			"abi": [
				{
					"inputs": [],
					"stateMutability": "nonpayable",
					"type": "constructor"
				},
				{
					"inputs": [
						{
							"internalType": "uint256",
							"name": "_bookid",
							"type": "uint256"
						},
						{
							"internalType": "string",
							"name": "_name",
							"type": "string"
						},
						{
							"internalType": "string",
							"name": "_author",
							"type": "string"
						},
						{
							"internalType": "uint256",
							"name": "_value",
							"type": "uint256"
						}
					],
					"name": "addBook",
					"outputs": [],
					"stateMutability": "nonpayable",
					"type": "function"
				},
				{
					"inputs": [
						{
							"internalType": "uint256",
							"name": "",
							"type": "uint256"
						}
					],
					"name": "books",
					"outputs": [
						{
							"internalType": "uint256",
							"name": "id",
							"type": "uint256"
						},
						{
							"internalType": "string",
							"name": "name",
							"type": "string"
						},
						{
							"internalType": "string",
							"name": "author",
							"type": "string"
						},
						{
							"internalType": "uint256",
							"name": "value",
							"type": "uint256"
						}
					],
					"stateMutability": "view",
					"type": "function"
				},
				{
					"inputs": [],
					"name": "libraryowner",
					"outputs": [
						{
							"internalType": "address",
							"name": "",
							"type": "address"
						}
					],
					"stateMutability": "view",
					"type": "function"
				},
				{
					"inputs": [
						{
							"internalType": "uint256",
							"name": "_bookid",
							"type": "uint256"
						}
					],
					"name": "queryBook",
					"outputs": [
						{
							"internalType": "string",
							"name": "_name",
							"type": "string"
						},
						{
							"internalType": "string",
							"name": "_author",
							"type": "string"
						},
						{
							"internalType": "uint256",
							"name": "_value",
							"type": "uint256"
						}
					],
					"stateMutability": "view",
					"type": "function"
				}
			],
			"devdoc": {
				"kind": "dev",
				"methods": {},
				"version": 1
			},
			"evm": {
				"assembly": "    /* \"contracts/library.sol\":59:1015  contract Library{... */\n  mstore(0x40, 0x80)\n    /* \"contracts/library.sol\":116:180  constructor() public{... */\n  callvalue\n  dup1\n  iszero\n  tag_1\n  jumpi\n  0x00\n  dup1\n  revert\ntag_1:\n  pop\n    /* \"contracts/library.sol\":162:172  msg.sender */\n  caller\n    /* \"contracts/library.sol\":147:159  libraryowner */\n  0x00\n  dup1\n    /* \"contracts/library.sol\":147:172  libraryowner = msg.sender */\n  0x0100\n  exp\n  dup2\n  sload\n  dup2\n  0xffffffffffffffffffffffffffffffffffffffff\n  mul\n  not\n  and\n  swap1\n  dup4\n  0xffffffffffffffffffffffffffffffffffffffff\n  and\n  mul\n  or\n  swap1\n  sstore\n  pop\n    /* \"contracts/library.sol\":59:1015  contract Library{... */\n  dataSize(sub_0)\n  dup1\n  dataOffset(sub_0)\n  0x00\n  codecopy\n  0x00\n  return\nstop\n\nsub_0: assembly {\n        /* \"contracts/library.sol\":59:1015  contract Library{... */\n      mstore(0x40, 0x80)\n      callvalue\n      dup1\n      iszero\n      tag_1\n      jumpi\n      0x00\n      dup1\n      revert\n    tag_1:\n      pop\n      jumpi(tag_2, lt(calldatasize, 0x04))\n      shr(0xe0, calldataload(0x00))\n      dup1\n      0x10c24a61\n      eq\n      tag_3\n      jumpi\n      dup1\n      0x686423ba\n      eq\n      tag_4\n      jumpi\n      dup1\n      0x68744046\n      eq\n      tag_5\n      jumpi\n      dup1\n      0xb868145f\n      eq\n      tag_6\n      jumpi\n    tag_2:\n      0x00\n      dup1\n      revert\n        /* \"contracts/library.sol\":435:710  function addBook(... */\n    tag_3:\n      tag_7\n      0x04\n      dup1\n      calldatasize\n      sub\n      dup2\n      add\n      swap1\n      tag_8\n      swap2\n      swap1\n      tag_9\n      jump\t// in\n    tag_8:\n      tag_10\n      jump\t// in\n    tag_7:\n      stop\n        /* \"contracts/library.sol\":82:109  address public libraryowner */\n    tag_4:\n      tag_11\n      tag_12\n      jump\t// in\n    tag_11:\n      mload(0x40)\n      tag_13\n      swap2\n      swap1\n      tag_14\n      jump\t// in\n    tag_13:\n      mload(0x40)\n      dup1\n      swap2\n      sub\n      swap1\n      return\n        /* \"contracts/library.sol\":392:428  mapping (uint256=>Book) public books */\n    tag_5:\n      tag_15\n      0x04\n      dup1\n      calldatasize\n      sub\n      dup2\n      add\n      swap1\n      tag_16\n      swap2\n      swap1\n      tag_17\n      jump\t// in\n    tag_16:\n      tag_18\n      jump\t// in\n    tag_15:\n      mload(0x40)\n      tag_19\n      swap5\n      swap4\n      swap3\n      swap2\n      swap1\n      tag_20\n      jump\t// in\n    tag_19:\n      mload(0x40)\n      dup1\n      swap2\n      sub\n      swap1\n      return\n        /* \"contracts/library.sol\":716:1006  function queryBook(uint256 _bookid)... */\n    tag_6:\n      tag_21\n      0x04\n      dup1\n      calldatasize\n      sub\n      dup2\n      add\n      swap1\n      tag_22\n      swap2\n      swap1\n      tag_17\n      jump\t// in\n    tag_22:\n      tag_23\n      jump\t// in\n    tag_21:\n      mload(0x40)\n      tag_24\n      swap4\n      swap3\n      swap2\n      swap1\n      tag_25\n      jump\t// in\n    tag_24:\n      mload(0x40)\n      dup1\n      swap2\n      sub\n      swap1\n      return\n        /* \"contracts/library.sol\":435:710  function addBook(... */\n    tag_10:\n        /* \"contracts/library.sol\":237:249  libraryowner */\n      0x00\n      dup1\n      sload\n      swap1\n      0x0100\n      exp\n      swap1\n      div\n      0xffffffffffffffffffffffffffffffffffffffff\n      and\n        /* \"contracts/library.sol\":225:249  msg.sender==libraryowner */\n      0xffffffffffffffffffffffffffffffffffffffff\n      and\n        /* \"contracts/library.sol\":225:235  msg.sender */\n      caller\n        /* \"contracts/library.sol\":225:249  msg.sender==libraryowner */\n      0xffffffffffffffffffffffffffffffffffffffff\n      and\n      eq\n        /* \"contracts/library.sol\":217:250  require(msg.sender==libraryowner) */\n      tag_27\n      jumpi\n      0x00\n      dup1\n      revert\n    tag_27:\n        /* \"contracts/library.sol\":619:624  _name */\n      dup3\n        /* \"contracts/library.sol\":599:604  books */\n      0x01\n        /* \"contracts/library.sol\":599:613  books[_bookid] */\n      0x00\n        /* \"contracts/library.sol\":605:612  _bookid */\n      dup7\n        /* \"contracts/library.sol\":599:613  books[_bookid] */\n      dup2\n      mstore\n      0x20\n      add\n      swap1\n      dup2\n      mstore\n      0x20\n      add\n      0x00\n      keccak256\n        /* \"contracts/library.sol\":599:618  books[_bookid].name */\n      0x01\n      add\n        /* \"contracts/library.sol\":599:624  books[_bookid].name=_name */\n      swap1\n      dup2\n      tag_29\n      swap2\n      swap1\n      tag_30\n      jump\t// in\n    tag_29:\n      pop\n        /* \"contracts/library.sol\":657:664  _author */\n      dup2\n        /* \"contracts/library.sol\":635:640  books */\n      0x01\n        /* \"contracts/library.sol\":635:649  books[_bookid] */\n      0x00\n        /* \"contracts/library.sol\":641:648  _bookid */\n      dup7\n        /* \"contracts/library.sol\":635:649  books[_bookid] */\n      dup2\n      mstore\n      0x20\n      add\n      swap1\n      dup2\n      mstore\n      0x20\n      add\n      0x00\n      keccak256\n        /* \"contracts/library.sol\":635:656  books[_bookid].author */\n      0x02\n      add\n        /* \"contracts/library.sol\":635:664  books[_bookid].author=_author */\n      swap1\n      dup2\n      tag_31\n      swap2\n      swap1\n      tag_30\n      jump\t// in\n    tag_31:\n      pop\n        /* \"contracts/library.sol\":696:702  _value */\n      dup1\n        /* \"contracts/library.sol\":675:680  books */\n      0x01\n        /* \"contracts/library.sol\":675:689  books[_bookid] */\n      0x00\n        /* \"contracts/library.sol\":681:688  _bookid */\n      dup7\n        /* \"contracts/library.sol\":675:689  books[_bookid] */\n      dup2\n      mstore\n      0x20\n      add\n      swap1\n      dup2\n      mstore\n      0x20\n      add\n      0x00\n      keccak256\n        /* \"contracts/library.sol\":675:695  books[_bookid].value */\n      0x03\n      add\n        /* \"contracts/library.sol\":675:702  books[_bookid].value=_value */\n      dup2\n      swap1\n      sstore\n      pop\n        /* \"contracts/library.sol\":435:710  function addBook(... */\n      pop\n      pop\n      pop\n      pop\n      jump\t// out\n        /* \"contracts/library.sol\":82:109  address public libraryowner */\n    tag_12:\n      0x00\n      dup1\n      sload\n      swap1\n      0x0100\n      exp\n      swap1\n      div\n      0xffffffffffffffffffffffffffffffffffffffff\n      and\n      dup2\n      jump\t// out\n        /* \"contracts/library.sol\":392:428  mapping (uint256=>Book) public books */\n    tag_18:\n      mstore(0x20, 0x01)\n      dup1\n      0x00\n      mstore\n      keccak256(0x00, 0x40)\n      0x00\n      swap2\n      pop\n      swap1\n      pop\n      dup1\n      0x00\n      add\n      sload\n      swap1\n      dup1\n      0x01\n      add\n      dup1\n      sload\n      tag_32\n      swap1\n      tag_33\n      jump\t// in\n    tag_32:\n      dup1\n      0x1f\n      add\n      0x20\n      dup1\n      swap2\n      div\n      mul\n      0x20\n      add\n      mload(0x40)\n      swap1\n      dup2\n      add\n      0x40\n      mstore\n      dup1\n      swap3\n      swap2\n      swap1\n      dup2\n      dup2\n      mstore\n      0x20\n      add\n      dup3\n      dup1\n      sload\n      tag_34\n      swap1\n      tag_33\n      jump\t// in\n    tag_34:\n      dup1\n      iszero\n      tag_35\n      jumpi\n      dup1\n      0x1f\n      lt\n      tag_36\n      jumpi\n      0x0100\n      dup1\n      dup4\n      sload\n      div\n      mul\n      dup4\n      mstore\n      swap2\n      0x20\n      add\n      swap2\n      jump(tag_35)\n    tag_36:\n      dup3\n      add\n      swap2\n      swap1\n      0x00\n      mstore\n      keccak256(0x00, 0x20)\n      swap1\n    tag_37:\n      dup2\n      sload\n      dup2\n      mstore\n      swap1\n      0x01\n      add\n      swap1\n      0x20\n      add\n      dup1\n      dup4\n      gt\n      tag_37\n      jumpi\n      dup3\n      swap1\n      sub\n      0x1f\n      and\n      dup3\n      add\n      swap2\n    tag_35:\n      pop\n      pop\n      pop\n      pop\n      pop\n      swap1\n      dup1\n      0x02\n      add\n      dup1\n      sload\n      tag_38\n      swap1\n      tag_33\n      jump\t// in\n    tag_38:\n      dup1\n      0x1f\n      add\n      0x20\n      dup1\n      swap2\n      div\n      mul\n      0x20\n      add\n      mload(0x40)\n      swap1\n      dup2\n      add\n      0x40\n      mstore\n      dup1\n      swap3\n      swap2\n      swap1\n      dup2\n      dup2\n      mstore\n      0x20\n      add\n      dup3\n      dup1\n      sload\n      tag_39\n      swap1\n      tag_33\n      jump\t// in\n    tag_39:\n      dup1\n      iszero\n      tag_40\n      jumpi\n      dup1\n      0x1f\n      lt\n      tag_41\n      jumpi\n      0x0100\n      dup1\n      dup4\n      sload\n      div\n      mul\n      dup4\n      mstore\n      swap2\n      0x20\n      add\n      swap2\n      jump(tag_40)\n    tag_41:\n      dup3\n      add\n      swap2\n      swap1\n      0x00\n      mstore\n      keccak256(0x00, 0x20)\n      swap1\n    tag_42:\n      dup2\n      sload\n      dup2\n      mstore\n      swap1\n      0x01\n      add\n      swap1\n      0x20\n      add\n      dup1\n      dup4\n      gt\n      tag_42\n      jumpi\n      dup3\n      swap1\n      sub\n      0x1f\n      and\n      dup3\n      add\n      swap2\n    tag_40:\n      pop\n      pop\n      pop\n      pop\n      pop\n      swap1\n      dup1\n      0x03\n      add\n      sload\n      swap1\n      pop\n      dup5\n      jump\t// out\n        /* \"contracts/library.sol\":716:1006  function queryBook(uint256 _bookid)... */\n    tag_23:\n        /* \"contracts/library.sol\":787:806  string memory _name */\n      0x60\n        /* \"contracts/library.sol\":817:838  string memory _author */\n      dup1\n        /* \"contracts/library.sol\":849:863  uint256 _value */\n      0x00\n        /* \"contracts/library.sol\":904:909  books */\n      0x01\n        /* \"contracts/library.sol\":904:918  books[_bookid] */\n      0x00\n        /* \"contracts/library.sol\":910:917  _bookid */\n      dup6\n        /* \"contracts/library.sol\":904:918  books[_bookid] */\n      dup2\n      mstore\n      0x20\n      add\n      swap1\n      dup2\n      mstore\n      0x20\n      add\n      0x00\n      keccak256\n        /* \"contracts/library.sol\":904:923  books[_bookid].name */\n      0x01\n      add\n        /* \"contracts/library.sol\":935:940  books */\n      0x01\n        /* \"contracts/library.sol\":935:949  books[_bookid] */\n      0x00\n        /* \"contracts/library.sol\":941:948  _bookid */\n      dup7\n        /* \"contracts/library.sol\":935:949  books[_bookid] */\n      dup2\n      mstore\n      0x20\n      add\n      swap1\n      dup2\n      mstore\n      0x20\n      add\n      0x00\n      keccak256\n        /* \"contracts/library.sol\":935:956  books[_bookid].author */\n      0x02\n      add\n        /* \"contracts/library.sol\":968:973  books */\n      0x01\n        /* \"contracts/library.sol\":968:982  books[_bookid] */\n      0x00\n        /* \"contracts/library.sol\":974:981  _bookid */\n      dup8\n        /* \"contracts/library.sol\":968:982  books[_bookid] */\n      dup2\n      mstore\n      0x20\n      add\n      swap1\n      dup2\n      mstore\n      0x20\n      add\n      0x00\n      keccak256\n        /* \"contracts/library.sol\":968:988  books[_bookid].value */\n      0x03\n      add\n      sload\n        /* \"contracts/library.sol\":886:998  return(... */\n      dup3\n      dup1\n      sload\n      tag_44\n      swap1\n      tag_33\n      jump\t// in\n    tag_44:\n      dup1\n      0x1f\n      add\n      0x20\n      dup1\n      swap2\n      div\n      mul\n      0x20\n      add\n      mload(0x40)\n      swap1\n      dup2\n      add\n      0x40\n      mstore\n      dup1\n      swap3\n      swap2\n      swap1\n      dup2\n      dup2\n      mstore\n      0x20\n      add\n      dup3\n      dup1\n      sload\n      tag_45\n      swap1\n      tag_33\n      jump\t// in\n    tag_45:\n      dup1\n      iszero\n      tag_46\n      jumpi\n      dup1\n      0x1f\n      lt\n      tag_47\n      jumpi\n      0x0100\n      dup1\n      dup4\n      sload\n      div\n      mul\n      dup4\n      mstore\n      swap2\n      0x20\n      add\n      swap2\n      jump(tag_46)\n    tag_47:\n      dup3\n      add\n      swap2\n      swap1\n      0x00\n      mstore\n      keccak256(0x00, 0x20)\n      swap1\n    tag_48:\n      dup2\n      sload\n      dup2\n      mstore\n      swap1\n      0x01\n      add\n      swap1\n      0x20\n      add\n      dup1\n      dup4\n      gt\n      tag_48\n      jumpi\n      dup3\n      swap1\n      sub\n      0x1f\n      and\n      dup3\n      add\n      swap2\n    tag_46:\n      pop\n      pop\n      pop\n      pop\n      pop\n      swap3\n      pop\n      dup2\n      dup1\n      sload\n      tag_49\n      swap1\n      tag_33\n      jump\t// in\n    tag_49:\n      dup1\n      0x1f\n      add\n      0x20\n      dup1\n      swap2\n      div\n      mul\n      0x20\n      add\n      mload(0x40)\n      swap1\n      dup2\n      add\n      0x40\n      mstore\n      dup1\n      swap3\n      swap2\n      swap1\n      dup2\n      dup2\n      mstore\n      0x20\n      add\n      dup3\n      dup1\n      sload\n      tag_50\n      swap1\n      tag_33\n      jump\t// in\n    tag_50:\n      dup1\n      iszero\n      tag_51\n      jumpi\n      dup1\n      0x1f\n      lt\n      tag_52\n      jumpi\n      0x0100\n      dup1\n      dup4\n      sload\n      div\n      mul\n      dup4\n      mstore\n      swap2\n      0x20\n      add\n      swap2\n      jump(tag_51)\n    tag_52:\n      dup3\n      add\n      swap2\n      swap1\n      0x00\n      mstore\n      keccak256(0x00, 0x20)\n      swap1\n    tag_53:\n      dup2\n      sload\n      dup2\n      mstore\n      swap1\n      0x01\n      add\n      swap1\n      0x20\n      add\n      dup1\n      dup4\n      gt\n      tag_53\n      jumpi\n      dup3\n      swap1\n      sub\n      0x1f\n      and\n      dup3\n      add\n      swap2\n    tag_51:\n      pop\n      pop\n      pop\n      pop\n      pop\n      swap2\n      pop\n      swap3\n      pop\n      swap3\n      pop\n      swap3\n      pop\n        /* \"contracts/library.sol\":716:1006  function queryBook(uint256 _bookid)... */\n      swap2\n      swap4\n      swap1\n      swap3\n      pop\n      jump\t// out\n        /* \"#utility.yul\":7:82   */\n    tag_54:\n        /* \"#utility.yul\":40:46   */\n      0x00\n        /* \"#utility.yul\":73:75   */\n      0x40\n        /* \"#utility.yul\":67:76   */\n      mload\n        /* \"#utility.yul\":57:76   */\n      swap1\n      pop\n        /* \"#utility.yul\":7:82   */\n      swap1\n      jump\t// out\n        /* \"#utility.yul\":88:205   */\n    tag_55:\n        /* \"#utility.yul\":197:198   */\n      0x00\n        /* \"#utility.yul\":194:195   */\n      dup1\n        /* \"#utility.yul\":187:199   */\n      revert\n        /* \"#utility.yul\":211:328   */\n    tag_56:\n        /* \"#utility.yul\":320:321   */\n      0x00\n        /* \"#utility.yul\":317:318   */\n      dup1\n        /* \"#utility.yul\":310:322   */\n      revert\n        /* \"#utility.yul\":334:411   */\n    tag_57:\n        /* \"#utility.yul\":371:378   */\n      0x00\n        /* \"#utility.yul\":400:405   */\n      dup2\n        /* \"#utility.yul\":389:405   */\n      swap1\n      pop\n        /* \"#utility.yul\":334:411   */\n      swap2\n      swap1\n      pop\n      jump\t// out\n        /* \"#utility.yul\":417:539   */\n    tag_58:\n        /* \"#utility.yul\":490:514   */\n      tag_100\n        /* \"#utility.yul\":508:513   */\n      dup2\n        /* \"#utility.yul\":490:514   */\n      tag_57\n      jump\t// in\n    tag_100:\n        /* \"#utility.yul\":483:488   */\n      dup2\n        /* \"#utility.yul\":480:515   */\n      eq\n        /* \"#utility.yul\":470:533   */\n      tag_101\n      jumpi\n        /* \"#utility.yul\":529:530   */\n      0x00\n        /* \"#utility.yul\":526:527   */\n      dup1\n        /* \"#utility.yul\":519:531   */\n      revert\n        /* \"#utility.yul\":470:533   */\n    tag_101:\n        /* \"#utility.yul\":417:539   */\n      pop\n      jump\t// out\n        /* \"#utility.yul\":545:684   */\n    tag_59:\n        /* \"#utility.yul\":591:596   */\n      0x00\n        /* \"#utility.yul\":629:635   */\n      dup2\n        /* \"#utility.yul\":616:636   */\n      calldataload\n        /* \"#utility.yul\":607:636   */\n      swap1\n      pop\n        /* \"#utility.yul\":645:678   */\n      tag_103\n        /* \"#utility.yul\":672:677   */\n      dup2\n        /* \"#utility.yul\":645:678   */\n      tag_58\n      jump\t// in\n    tag_103:\n        /* \"#utility.yul\":545:684   */\n      swap3\n      swap2\n      pop\n      pop\n      jump\t// out\n        /* \"#utility.yul\":690:807   */\n    tag_60:\n        /* \"#utility.yul\":799:800   */\n      0x00\n        /* \"#utility.yul\":796:797   */\n      dup1\n        /* \"#utility.yul\":789:801   */\n      revert\n        /* \"#utility.yul\":813:930   */\n    tag_61:\n        /* \"#utility.yul\":922:923   */\n      0x00\n        /* \"#utility.yul\":919:920   */\n      dup1\n        /* \"#utility.yul\":912:924   */\n      revert\n        /* \"#utility.yul\":936:1038   */\n    tag_62:\n        /* \"#utility.yul\":977:983   */\n      0x00\n        /* \"#utility.yul\":1028:1030   */\n      0x1f\n        /* \"#utility.yul\":1024:1031   */\n      not\n        /* \"#utility.yul\":1019:1021   */\n      0x1f\n        /* \"#utility.yul\":1012:1017   */\n      dup4\n        /* \"#utility.yul\":1008:1022   */\n      add\n        /* \"#utility.yul\":1004:1032   */\n      and\n        /* \"#utility.yul\":994:1032   */\n      swap1\n      pop\n        /* \"#utility.yul\":936:1038   */\n      swap2\n      swap1\n      pop\n      jump\t// out\n        /* \"#utility.yul\":1044:1224   */\n    tag_63:\n        /* \"#utility.yul\":1092:1169   */\n      0x4e487b7100000000000000000000000000000000000000000000000000000000\n        /* \"#utility.yul\":1089:1090   */\n      0x00\n        /* \"#utility.yul\":1082:1170   */\n      mstore\n        /* \"#utility.yul\":1189:1193   */\n      0x41\n        /* \"#utility.yul\":1186:1187   */\n      0x04\n        /* \"#utility.yul\":1179:1194   */\n      mstore\n        /* \"#utility.yul\":1213:1217   */\n      0x24\n        /* \"#utility.yul\":1210:1211   */\n      0x00\n        /* \"#utility.yul\":1203:1218   */\n      revert\n        /* \"#utility.yul\":1230:1511   */\n    tag_64:\n        /* \"#utility.yul\":1313:1340   */\n      tag_109\n        /* \"#utility.yul\":1335:1339   */\n      dup3\n        /* \"#utility.yul\":1313:1340   */\n      tag_62\n      jump\t// in\n    tag_109:\n        /* \"#utility.yul\":1305:1311   */\n      dup2\n        /* \"#utility.yul\":1301:1341   */\n      add\n        /* \"#utility.yul\":1443:1449   */\n      dup2\n        /* \"#utility.yul\":1431:1441   */\n      dup2\n        /* \"#utility.yul\":1428:1450   */\n      lt\n        /* \"#utility.yul\":1407:1425   */\n      0xffffffffffffffff\n        /* \"#utility.yul\":1395:1405   */\n      dup3\n        /* \"#utility.yul\":1392:1426   */\n      gt\n        /* \"#utility.yul\":1389:1451   */\n      or\n        /* \"#utility.yul\":1386:1474   */\n      iszero\n      tag_110\n      jumpi\n        /* \"#utility.yul\":1454:1472   */\n      tag_111\n      tag_63\n      jump\t// in\n    tag_111:\n        /* \"#utility.yul\":1386:1474   */\n    tag_110:\n        /* \"#utility.yul\":1494:1504   */\n      dup1\n        /* \"#utility.yul\":1490:1492   */\n      0x40\n        /* \"#utility.yul\":1483:1505   */\n      mstore\n        /* \"#utility.yul\":1273:1511   */\n      pop\n        /* \"#utility.yul\":1230:1511   */\n      pop\n      pop\n      jump\t// out\n        /* \"#utility.yul\":1517:1646   */\n    tag_65:\n        /* \"#utility.yul\":1551:1557   */\n      0x00\n        /* \"#utility.yul\":1578:1598   */\n      tag_113\n      tag_54\n      jump\t// in\n    tag_113:\n        /* \"#utility.yul\":1568:1598   */\n      swap1\n      pop\n        /* \"#utility.yul\":1607:1640   */\n      tag_114\n        /* \"#utility.yul\":1635:1639   */\n      dup3\n        /* \"#utility.yul\":1627:1633   */\n      dup3\n        /* \"#utility.yul\":1607:1640   */\n      tag_64\n      jump\t// in\n    tag_114:\n        /* \"#utility.yul\":1517:1646   */\n      swap2\n      swap1\n      pop\n      jump\t// out\n        /* \"#utility.yul\":1652:1960   */\n    tag_66:\n        /* \"#utility.yul\":1714:1718   */\n      0x00\n        /* \"#utility.yul\":1804:1822   */\n      0xffffffffffffffff\n        /* \"#utility.yul\":1796:1802   */\n      dup3\n        /* \"#utility.yul\":1793:1823   */\n      gt\n        /* \"#utility.yul\":1790:1846   */\n      iszero\n      tag_116\n      jumpi\n        /* \"#utility.yul\":1826:1844   */\n      tag_117\n      tag_63\n      jump\t// in\n    tag_117:\n        /* \"#utility.yul\":1790:1846   */\n    tag_116:\n        /* \"#utility.yul\":1864:1893   */\n      tag_118\n        /* \"#utility.yul\":1886:1892   */\n      dup3\n        /* \"#utility.yul\":1864:1893   */\n      tag_62\n      jump\t// in\n    tag_118:\n        /* \"#utility.yul\":1856:1893   */\n      swap1\n      pop\n        /* \"#utility.yul\":1948:1952   */\n      0x20\n        /* \"#utility.yul\":1942:1946   */\n      dup2\n        /* \"#utility.yul\":1938:1953   */\n      add\n        /* \"#utility.yul\":1930:1953   */\n      swap1\n      pop\n        /* \"#utility.yul\":1652:1960   */\n      swap2\n      swap1\n      pop\n      jump\t// out\n        /* \"#utility.yul\":1966:2112   */\n    tag_67:\n        /* \"#utility.yul\":2063:2069   */\n      dup3\n        /* \"#utility.yul\":2058:2061   */\n      dup2\n        /* \"#utility.yul\":2053:2056   */\n      dup4\n        /* \"#utility.yul\":2040:2070   */\n      calldatacopy\n        /* \"#utility.yul\":2104:2105   */\n      0x00\n        /* \"#utility.yul\":2095:2101   */\n      dup4\n        /* \"#utility.yul\":2090:2093   */\n      dup4\n        /* \"#utility.yul\":2086:2102   */\n      add\n        /* \"#utility.yul\":2079:2106   */\n      mstore\n        /* \"#utility.yul\":1966:2112   */\n      pop\n      pop\n      pop\n      jump\t// out\n        /* \"#utility.yul\":2118:2543   */\n    tag_68:\n        /* \"#utility.yul\":2196:2201   */\n      0x00\n        /* \"#utility.yul\":2221:2287   */\n      tag_121\n        /* \"#utility.yul\":2237:2286   */\n      tag_122\n        /* \"#utility.yul\":2279:2285   */\n      dup5\n        /* \"#utility.yul\":2237:2286   */\n      tag_66\n      jump\t// in\n    tag_122:\n        /* \"#utility.yul\":2221:2287   */\n      tag_65\n      jump\t// in\n    tag_121:\n        /* \"#utility.yul\":2212:2287   */\n      swap1\n      pop\n        /* \"#utility.yul\":2310:2316   */\n      dup3\n        /* \"#utility.yul\":2303:2308   */\n      dup2\n        /* \"#utility.yul\":2296:2317   */\n      mstore\n        /* \"#utility.yul\":2348:2352   */\n      0x20\n        /* \"#utility.yul\":2341:2346   */\n      dup2\n        /* \"#utility.yul\":2337:2353   */\n      add\n        /* \"#utility.yul\":2386:2389   */\n      dup5\n        /* \"#utility.yul\":2377:2383   */\n      dup5\n        /* \"#utility.yul\":2372:2375   */\n      dup5\n        /* \"#utility.yul\":2368:2384   */\n      add\n        /* \"#utility.yul\":2365:2390   */\n      gt\n        /* \"#utility.yul\":2362:2474   */\n      iszero\n      tag_123\n      jumpi\n        /* \"#utility.yul\":2393:2472   */\n      tag_124\n      tag_61\n      jump\t// in\n    tag_124:\n        /* \"#utility.yul\":2362:2474   */\n    tag_123:\n        /* \"#utility.yul\":2483:2537   */\n      tag_125\n        /* \"#utility.yul\":2530:2536   */\n      dup5\n        /* \"#utility.yul\":2525:2528   */\n      dup3\n        /* \"#utility.yul\":2520:2523   */\n      dup6\n        /* \"#utility.yul\":2483:2537   */\n      tag_67\n      jump\t// in\n    tag_125:\n        /* \"#utility.yul\":2202:2543   */\n      pop\n        /* \"#utility.yul\":2118:2543   */\n      swap4\n      swap3\n      pop\n      pop\n      pop\n      jump\t// out\n        /* \"#utility.yul\":2563:2903   */\n    tag_69:\n        /* \"#utility.yul\":2619:2624   */\n      0x00\n        /* \"#utility.yul\":2668:2671   */\n      dup3\n        /* \"#utility.yul\":2661:2665   */\n      0x1f\n        /* \"#utility.yul\":2653:2659   */\n      dup4\n        /* \"#utility.yul\":2649:2666   */\n      add\n        /* \"#utility.yul\":2645:2672   */\n      slt\n        /* \"#utility.yul\":2635:2757   */\n      tag_127\n      jumpi\n        /* \"#utility.yul\":2676:2755   */\n      tag_128\n      tag_60\n      jump\t// in\n    tag_128:\n        /* \"#utility.yul\":2635:2757   */\n    tag_127:\n        /* \"#utility.yul\":2793:2799   */\n      dup2\n        /* \"#utility.yul\":2780:2800   */\n      calldataload\n        /* \"#utility.yul\":2818:2897   */\n      tag_129\n        /* \"#utility.yul\":2893:2896   */\n      dup5\n        /* \"#utility.yul\":2885:2891   */\n      dup3\n        /* \"#utility.yul\":2878:2882   */\n      0x20\n        /* \"#utility.yul\":2870:2876   */\n      dup7\n        /* \"#utility.yul\":2866:2883   */\n      add\n        /* \"#utility.yul\":2818:2897   */\n      tag_68\n      jump\t// in\n    tag_129:\n        /* \"#utility.yul\":2809:2897   */\n      swap2\n      pop\n        /* \"#utility.yul\":2625:2903   */\n      pop\n        /* \"#utility.yul\":2563:2903   */\n      swap3\n      swap2\n      pop\n      pop\n      jump\t// out\n        /* \"#utility.yul\":2909:4034   */\n    tag_9:\n        /* \"#utility.yul\":3015:3021   */\n      0x00\n        /* \"#utility.yul\":3023:3029   */\n      dup1\n        /* \"#utility.yul\":3031:3037   */\n      0x00\n        /* \"#utility.yul\":3039:3045   */\n      dup1\n        /* \"#utility.yul\":3088:3091   */\n      0x80\n        /* \"#utility.yul\":3076:3085   */\n      dup6\n        /* \"#utility.yul\":3067:3074   */\n      dup8\n        /* \"#utility.yul\":3063:3086   */\n      sub\n        /* \"#utility.yul\":3059:3092   */\n      slt\n        /* \"#utility.yul\":3056:3176   */\n      iszero\n      tag_131\n      jumpi\n        /* \"#utility.yul\":3095:3174   */\n      tag_132\n      tag_55\n      jump\t// in\n    tag_132:\n        /* \"#utility.yul\":3056:3176   */\n    tag_131:\n        /* \"#utility.yul\":3215:3216   */\n      0x00\n        /* \"#utility.yul\":3240:3293   */\n      tag_133\n        /* \"#utility.yul\":3285:3292   */\n      dup8\n        /* \"#utility.yul\":3276:3282   */\n      dup3\n        /* \"#utility.yul\":3265:3274   */\n      dup9\n        /* \"#utility.yul\":3261:3283   */\n      add\n        /* \"#utility.yul\":3240:3293   */\n      tag_59\n      jump\t// in\n    tag_133:\n        /* \"#utility.yul\":3230:3293   */\n      swap5\n      pop\n        /* \"#utility.yul\":3186:3303   */\n      pop\n        /* \"#utility.yul\":3370:3372   */\n      0x20\n        /* \"#utility.yul\":3359:3368   */\n      dup6\n        /* \"#utility.yul\":3355:3373   */\n      add\n        /* \"#utility.yul\":3342:3374   */\n      calldataload\n        /* \"#utility.yul\":3401:3419   */\n      0xffffffffffffffff\n        /* \"#utility.yul\":3393:3399   */\n      dup2\n        /* \"#utility.yul\":3390:3420   */\n      gt\n        /* \"#utility.yul\":3387:3504   */\n      iszero\n      tag_134\n      jumpi\n        /* \"#utility.yul\":3423:3502   */\n      tag_135\n      tag_56\n      jump\t// in\n    tag_135:\n        /* \"#utility.yul\":3387:3504   */\n    tag_134:\n        /* \"#utility.yul\":3528:3591   */\n      tag_136\n        /* \"#utility.yul\":3583:3590   */\n      dup8\n        /* \"#utility.yul\":3574:3580   */\n      dup3\n        /* \"#utility.yul\":3563:3572   */\n      dup9\n        /* \"#utility.yul\":3559:3581   */\n      add\n        /* \"#utility.yul\":3528:3591   */\n      tag_69\n      jump\t// in\n    tag_136:\n        /* \"#utility.yul\":3518:3591   */\n      swap4\n      pop\n        /* \"#utility.yul\":3313:3601   */\n      pop\n        /* \"#utility.yul\":3668:3670   */\n      0x40\n        /* \"#utility.yul\":3657:3666   */\n      dup6\n        /* \"#utility.yul\":3653:3671   */\n      add\n        /* \"#utility.yul\":3640:3672   */\n      calldataload\n        /* \"#utility.yul\":3699:3717   */\n      0xffffffffffffffff\n        /* \"#utility.yul\":3691:3697   */\n      dup2\n        /* \"#utility.yul\":3688:3718   */\n      gt\n        /* \"#utility.yul\":3685:3802   */\n      iszero\n      tag_137\n      jumpi\n        /* \"#utility.yul\":3721:3800   */\n      tag_138\n      tag_56\n      jump\t// in\n    tag_138:\n        /* \"#utility.yul\":3685:3802   */\n    tag_137:\n        /* \"#utility.yul\":3826:3889   */\n      tag_139\n        /* \"#utility.yul\":3881:3888   */\n      dup8\n        /* \"#utility.yul\":3872:3878   */\n      dup3\n        /* \"#utility.yul\":3861:3870   */\n      dup9\n        /* \"#utility.yul\":3857:3879   */\n      add\n        /* \"#utility.yul\":3826:3889   */\n      tag_69\n      jump\t// in\n    tag_139:\n        /* \"#utility.yul\":3816:3889   */\n      swap3\n      pop\n        /* \"#utility.yul\":3611:3899   */\n      pop\n        /* \"#utility.yul\":3938:3940   */\n      0x60\n        /* \"#utility.yul\":3964:4017   */\n      tag_140\n        /* \"#utility.yul\":4009:4016   */\n      dup8\n        /* \"#utility.yul\":4000:4006   */\n      dup3\n        /* \"#utility.yul\":3989:3998   */\n      dup9\n        /* \"#utility.yul\":3985:4007   */\n      add\n        /* \"#utility.yul\":3964:4017   */\n      tag_59\n      jump\t// in\n    tag_140:\n        /* \"#utility.yul\":3954:4017   */\n      swap2\n      pop\n        /* \"#utility.yul\":3909:4027   */\n      pop\n        /* \"#utility.yul\":2909:4034   */\n      swap3\n      swap6\n      swap2\n      swap5\n      pop\n      swap3\n      pop\n      jump\t// out\n        /* \"#utility.yul\":4040:4166   */\n    tag_70:\n        /* \"#utility.yul\":4077:4084   */\n      0x00\n        /* \"#utility.yul\":4117:4159   */\n      0xffffffffffffffffffffffffffffffffffffffff\n        /* \"#utility.yul\":4110:4115   */\n      dup3\n        /* \"#utility.yul\":4106:4160   */\n      and\n        /* \"#utility.yul\":4095:4160   */\n      swap1\n      pop\n        /* \"#utility.yul\":4040:4166   */\n      swap2\n      swap1\n      pop\n      jump\t// out\n        /* \"#utility.yul\":4172:4268   */\n    tag_71:\n        /* \"#utility.yul\":4209:4216   */\n      0x00\n        /* \"#utility.yul\":4238:4262   */\n      tag_143\n        /* \"#utility.yul\":4256:4261   */\n      dup3\n        /* \"#utility.yul\":4238:4262   */\n      tag_70\n      jump\t// in\n    tag_143:\n        /* \"#utility.yul\":4227:4262   */\n      swap1\n      pop\n        /* \"#utility.yul\":4172:4268   */\n      swap2\n      swap1\n      pop\n      jump\t// out\n        /* \"#utility.yul\":4274:4392   */\n    tag_72:\n        /* \"#utility.yul\":4361:4385   */\n      tag_145\n        /* \"#utility.yul\":4379:4384   */\n      dup2\n        /* \"#utility.yul\":4361:4385   */\n      tag_71\n      jump\t// in\n    tag_145:\n        /* \"#utility.yul\":4356:4359   */\n      dup3\n        /* \"#utility.yul\":4349:4386   */\n      mstore\n        /* \"#utility.yul\":4274:4392   */\n      pop\n      pop\n      jump\t// out\n        /* \"#utility.yul\":4398:4620   */\n    tag_14:\n        /* \"#utility.yul\":4491:4495   */\n      0x00\n        /* \"#utility.yul\":4529:4531   */\n      0x20\n        /* \"#utility.yul\":4518:4527   */\n      dup3\n        /* \"#utility.yul\":4514:4532   */\n      add\n        /* \"#utility.yul\":4506:4532   */\n      swap1\n      pop\n        /* \"#utility.yul\":4542:4613   */\n      tag_147\n        /* \"#utility.yul\":4610:4611   */\n      0x00\n        /* \"#utility.yul\":4599:4608   */\n      dup4\n        /* \"#utility.yul\":4595:4612   */\n      add\n        /* \"#utility.yul\":4586:4592   */\n      dup5\n        /* \"#utility.yul\":4542:4613   */\n      tag_72\n      jump\t// in\n    tag_147:\n        /* \"#utility.yul\":4398:4620   */\n      swap3\n      swap2\n      pop\n      pop\n      jump\t// out\n        /* \"#utility.yul\":4626:4955   */\n    tag_17:\n        /* \"#utility.yul\":4685:4691   */\n      0x00\n        /* \"#utility.yul\":4734:4736   */\n      0x20\n        /* \"#utility.yul\":4722:4731   */\n      dup3\n        /* \"#utility.yul\":4713:4720   */\n      dup5\n        /* \"#utility.yul\":4709:4732   */\n      sub\n        /* \"#utility.yul\":4705:4737   */\n      slt\n        /* \"#utility.yul\":4702:4821   */\n      iszero\n      tag_149\n      jumpi\n        /* \"#utility.yul\":4740:4819   */\n      tag_150\n      tag_55\n      jump\t// in\n    tag_150:\n        /* \"#utility.yul\":4702:4821   */\n    tag_149:\n        /* \"#utility.yul\":4860:4861   */\n      0x00\n        /* \"#utility.yul\":4885:4938   */\n      tag_151\n        /* \"#utility.yul\":4930:4937   */\n      dup5\n        /* \"#utility.yul\":4921:4927   */\n      dup3\n        /* \"#utility.yul\":4910:4919   */\n      dup6\n        /* \"#utility.yul\":4906:4928   */\n      add\n        /* \"#utility.yul\":4885:4938   */\n      tag_59\n      jump\t// in\n    tag_151:\n        /* \"#utility.yul\":4875:4938   */\n      swap2\n      pop\n        /* \"#utility.yul\":4831:4948   */\n      pop\n        /* \"#utility.yul\":4626:4955   */\n      swap3\n      swap2\n      pop\n      pop\n      jump\t// out\n        /* \"#utility.yul\":4961:5079   */\n    tag_73:\n        /* \"#utility.yul\":5048:5072   */\n      tag_153\n        /* \"#utility.yul\":5066:5071   */\n      dup2\n        /* \"#utility.yul\":5048:5072   */\n      tag_57\n      jump\t// in\n    tag_153:\n        /* \"#utility.yul\":5043:5046   */\n      dup3\n        /* \"#utility.yul\":5036:5073   */\n      mstore\n        /* \"#utility.yul\":4961:5079   */\n      pop\n      pop\n      jump\t// out\n        /* \"#utility.yul\":5085:5184   */\n    tag_74:\n        /* \"#utility.yul\":5137:5143   */\n      0x00\n        /* \"#utility.yul\":5171:5176   */\n      dup2\n        /* \"#utility.yul\":5165:5177   */\n      mload\n        /* \"#utility.yul\":5155:5177   */\n      swap1\n      pop\n        /* \"#utility.yul\":5085:5184   */\n      swap2\n      swap1\n      pop\n      jump\t// out\n        /* \"#utility.yul\":5190:5359   */\n    tag_75:\n        /* \"#utility.yul\":5274:5285   */\n      0x00\n        /* \"#utility.yul\":5308:5314   */\n      dup3\n        /* \"#utility.yul\":5303:5306   */\n      dup3\n        /* \"#utility.yul\":5296:5315   */\n      mstore\n        /* \"#utility.yul\":5348:5352   */\n      0x20\n        /* \"#utility.yul\":5343:5346   */\n      dup3\n        /* \"#utility.yul\":5339:5353   */\n      add\n        /* \"#utility.yul\":5324:5353   */\n      swap1\n      pop\n        /* \"#utility.yul\":5190:5359   */\n      swap3\n      swap2\n      pop\n      pop\n      jump\t// out\n        /* \"#utility.yul\":5365:5611   */\n    tag_76:\n        /* \"#utility.yul\":5446:5447   */\n      0x00\n        /* \"#utility.yul\":5456:5569   */\n    tag_157:\n        /* \"#utility.yul\":5470:5476   */\n      dup4\n        /* \"#utility.yul\":5467:5468   */\n      dup2\n        /* \"#utility.yul\":5464:5477   */\n      lt\n        /* \"#utility.yul\":5456:5569   */\n      iszero\n      tag_159\n      jumpi\n        /* \"#utility.yul\":5555:5556   */\n      dup1\n        /* \"#utility.yul\":5550:5553   */\n      dup3\n        /* \"#utility.yul\":5546:5557   */\n      add\n        /* \"#utility.yul\":5540:5558   */\n      mload\n        /* \"#utility.yul\":5536:5537   */\n      dup2\n        /* \"#utility.yul\":5531:5534   */\n      dup5\n        /* \"#utility.yul\":5527:5538   */\n      add\n        /* \"#utility.yul\":5520:5559   */\n      mstore\n        /* \"#utility.yul\":5492:5494   */\n      0x20\n        /* \"#utility.yul\":5489:5490   */\n      dup2\n        /* \"#utility.yul\":5485:5495   */\n      add\n        /* \"#utility.yul\":5480:5495   */\n      swap1\n      pop\n        /* \"#utility.yul\":5456:5569   */\n      jump(tag_157)\n    tag_159:\n        /* \"#utility.yul\":5603:5604   */\n      0x00\n        /* \"#utility.yul\":5594:5600   */\n      dup5\n        /* \"#utility.yul\":5589:5592   */\n      dup5\n        /* \"#utility.yul\":5585:5601   */\n      add\n        /* \"#utility.yul\":5578:5605   */\n      mstore\n        /* \"#utility.yul\":5427:5611   */\n      pop\n        /* \"#utility.yul\":5365:5611   */\n      pop\n      pop\n      pop\n      jump\t// out\n        /* \"#utility.yul\":5617:5994   */\n    tag_77:\n        /* \"#utility.yul\":5705:5708   */\n      0x00\n        /* \"#utility.yul\":5733:5772   */\n      tag_161\n        /* \"#utility.yul\":5766:5771   */\n      dup3\n        /* \"#utility.yul\":5733:5772   */\n      tag_74\n      jump\t// in\n    tag_161:\n        /* \"#utility.yul\":5788:5859   */\n      tag_162\n        /* \"#utility.yul\":5852:5858   */\n      dup2\n        /* \"#utility.yul\":5847:5850   */\n      dup6\n        /* \"#utility.yul\":5788:5859   */\n      tag_75\n      jump\t// in\n    tag_162:\n        /* \"#utility.yul\":5781:5859   */\n      swap4\n      pop\n        /* \"#utility.yul\":5868:5933   */\n      tag_163\n        /* \"#utility.yul\":5926:5932   */\n      dup2\n        /* \"#utility.yul\":5921:5924   */\n      dup6\n        /* \"#utility.yul\":5914:5918   */\n      0x20\n        /* \"#utility.yul\":5907:5912   */\n      dup7\n        /* \"#utility.yul\":5903:5919   */\n      add\n        /* \"#utility.yul\":5868:5933   */\n      tag_76\n      jump\t// in\n    tag_163:\n        /* \"#utility.yul\":5958:5987   */\n      tag_164\n        /* \"#utility.yul\":5980:5986   */\n      dup2\n        /* \"#utility.yul\":5958:5987   */\n      tag_62\n      jump\t// in\n    tag_164:\n        /* \"#utility.yul\":5953:5956   */\n      dup5\n        /* \"#utility.yul\":5949:5988   */\n      add\n        /* \"#utility.yul\":5942:5988   */\n      swap2\n      pop\n        /* \"#utility.yul\":5709:5994   */\n      pop\n        /* \"#utility.yul\":5617:5994   */\n      swap3\n      swap2\n      pop\n      pop\n      jump\t// out\n        /* \"#utility.yul\":6000:6735   */\n    tag_20:\n        /* \"#utility.yul\":6217:6221   */\n      0x00\n        /* \"#utility.yul\":6255:6258   */\n      0x80\n        /* \"#utility.yul\":6244:6253   */\n      dup3\n        /* \"#utility.yul\":6240:6259   */\n      add\n        /* \"#utility.yul\":6232:6259   */\n      swap1\n      pop\n        /* \"#utility.yul\":6269:6340   */\n      tag_166\n        /* \"#utility.yul\":6337:6338   */\n      0x00\n        /* \"#utility.yul\":6326:6335   */\n      dup4\n        /* \"#utility.yul\":6322:6339   */\n      add\n        /* \"#utility.yul\":6313:6319   */\n      dup8\n        /* \"#utility.yul\":6269:6340   */\n      tag_73\n      jump\t// in\n    tag_166:\n        /* \"#utility.yul\":6387:6396   */\n      dup2\n        /* \"#utility.yul\":6381:6385   */\n      dup2\n        /* \"#utility.yul\":6377:6397   */\n      sub\n        /* \"#utility.yul\":6372:6374   */\n      0x20\n        /* \"#utility.yul\":6361:6370   */\n      dup4\n        /* \"#utility.yul\":6357:6375   */\n      add\n        /* \"#utility.yul\":6350:6398   */\n      mstore\n        /* \"#utility.yul\":6415:6493   */\n      tag_167\n        /* \"#utility.yul\":6488:6492   */\n      dup2\n        /* \"#utility.yul\":6479:6485   */\n      dup7\n        /* \"#utility.yul\":6415:6493   */\n      tag_77\n      jump\t// in\n    tag_167:\n        /* \"#utility.yul\":6407:6493   */\n      swap1\n      pop\n        /* \"#utility.yul\":6540:6549   */\n      dup2\n        /* \"#utility.yul\":6534:6538   */\n      dup2\n        /* \"#utility.yul\":6530:6550   */\n      sub\n        /* \"#utility.yul\":6525:6527   */\n      0x40\n        /* \"#utility.yul\":6514:6523   */\n      dup4\n        /* \"#utility.yul\":6510:6528   */\n      add\n        /* \"#utility.yul\":6503:6551   */\n      mstore\n        /* \"#utility.yul\":6568:6646   */\n      tag_168\n        /* \"#utility.yul\":6641:6645   */\n      dup2\n        /* \"#utility.yul\":6632:6638   */\n      dup6\n        /* \"#utility.yul\":6568:6646   */\n      tag_77\n      jump\t// in\n    tag_168:\n        /* \"#utility.yul\":6560:6646   */\n      swap1\n      pop\n        /* \"#utility.yul\":6656:6728   */\n      tag_169\n        /* \"#utility.yul\":6724:6726   */\n      0x60\n        /* \"#utility.yul\":6713:6722   */\n      dup4\n        /* \"#utility.yul\":6709:6727   */\n      add\n        /* \"#utility.yul\":6700:6706   */\n      dup5\n        /* \"#utility.yul\":6656:6728   */\n      tag_73\n      jump\t// in\n    tag_169:\n        /* \"#utility.yul\":6000:6735   */\n      swap6\n      swap5\n      pop\n      pop\n      pop\n      pop\n      pop\n      jump\t// out\n        /* \"#utility.yul\":6741:7365   */\n    tag_25:\n        /* \"#utility.yul\":6930:6934   */\n      0x00\n        /* \"#utility.yul\":6968:6970   */\n      0x60\n        /* \"#utility.yul\":6957:6966   */\n      dup3\n        /* \"#utility.yul\":6953:6971   */\n      add\n        /* \"#utility.yul\":6945:6971   */\n      swap1\n      pop\n        /* \"#utility.yul\":7017:7026   */\n      dup2\n        /* \"#utility.yul\":7011:7015   */\n      dup2\n        /* \"#utility.yul\":7007:7027   */\n      sub\n        /* \"#utility.yul\":7003:7004   */\n      0x00\n        /* \"#utility.yul\":6992:7001   */\n      dup4\n        /* \"#utility.yul\":6988:7005   */\n      add\n        /* \"#utility.yul\":6981:7028   */\n      mstore\n        /* \"#utility.yul\":7045:7123   */\n      tag_171\n        /* \"#utility.yul\":7118:7122   */\n      dup2\n        /* \"#utility.yul\":7109:7115   */\n      dup7\n        /* \"#utility.yul\":7045:7123   */\n      tag_77\n      jump\t// in\n    tag_171:\n        /* \"#utility.yul\":7037:7123   */\n      swap1\n      pop\n        /* \"#utility.yul\":7170:7179   */\n      dup2\n        /* \"#utility.yul\":7164:7168   */\n      dup2\n        /* \"#utility.yul\":7160:7180   */\n      sub\n        /* \"#utility.yul\":7155:7157   */\n      0x20\n        /* \"#utility.yul\":7144:7153   */\n      dup4\n        /* \"#utility.yul\":7140:7158   */\n      add\n        /* \"#utility.yul\":7133:7181   */\n      mstore\n        /* \"#utility.yul\":7198:7276   */\n      tag_172\n        /* \"#utility.yul\":7271:7275   */\n      dup2\n        /* \"#utility.yul\":7262:7268   */\n      dup6\n        /* \"#utility.yul\":7198:7276   */\n      tag_77\n      jump\t// in\n    tag_172:\n        /* \"#utility.yul\":7190:7276   */\n      swap1\n      pop\n        /* \"#utility.yul\":7286:7358   */\n      tag_173\n        /* \"#utility.yul\":7354:7356   */\n      0x40\n        /* \"#utility.yul\":7343:7352   */\n      dup4\n        /* \"#utility.yul\":7339:7357   */\n      add\n        /* \"#utility.yul\":7330:7336   */\n      dup5\n        /* \"#utility.yul\":7286:7358   */\n      tag_73\n      jump\t// in\n    tag_173:\n        /* \"#utility.yul\":6741:7365   */\n      swap5\n      swap4\n      pop\n      pop\n      pop\n      pop\n      jump\t// out\n        /* \"#utility.yul\":7371:7551   */\n    tag_78:\n        /* \"#utility.yul\":7419:7496   */\n      0x4e487b7100000000000000000000000000000000000000000000000000000000\n        /* \"#utility.yul\":7416:7417   */\n      0x00\n        /* \"#utility.yul\":7409:7497   */\n      mstore\n        /* \"#utility.yul\":7516:7520   */\n      0x22\n        /* \"#utility.yul\":7513:7514   */\n      0x04\n        /* \"#utility.yul\":7506:7521   */\n      mstore\n        /* \"#utility.yul\":7540:7544   */\n      0x24\n        /* \"#utility.yul\":7537:7538   */\n      0x00\n        /* \"#utility.yul\":7530:7545   */\n      revert\n        /* \"#utility.yul\":7557:7877   */\n    tag_33:\n        /* \"#utility.yul\":7601:7607   */\n      0x00\n        /* \"#utility.yul\":7638:7639   */\n      0x02\n        /* \"#utility.yul\":7632:7636   */\n      dup3\n        /* \"#utility.yul\":7628:7640   */\n      div\n        /* \"#utility.yul\":7618:7640   */\n      swap1\n      pop\n        /* \"#utility.yul\":7685:7686   */\n      0x01\n        /* \"#utility.yul\":7679:7683   */\n      dup3\n        /* \"#utility.yul\":7675:7687   */\n      and\n        /* \"#utility.yul\":7706:7724   */\n      dup1\n        /* \"#utility.yul\":7696:7777   */\n      tag_176\n      jumpi\n        /* \"#utility.yul\":7762:7766   */\n      0x7f\n        /* \"#utility.yul\":7754:7760   */\n      dup3\n        /* \"#utility.yul\":7750:7767   */\n      and\n        /* \"#utility.yul\":7740:7767   */\n      swap2\n      pop\n        /* \"#utility.yul\":7696:7777   */\n    tag_176:\n        /* \"#utility.yul\":7824:7826   */\n      0x20\n        /* \"#utility.yul\":7816:7822   */\n      dup3\n        /* \"#utility.yul\":7813:7827   */\n      lt\n        /* \"#utility.yul\":7793:7811   */\n      dup2\n        /* \"#utility.yul\":7790:7828   */\n      sub\n        /* \"#utility.yul\":7787:7871   */\n      tag_177\n      jumpi\n        /* \"#utility.yul\":7843:7861   */\n      tag_178\n      tag_78\n      jump\t// in\n    tag_178:\n        /* \"#utility.yul\":7787:7871   */\n    tag_177:\n        /* \"#utility.yul\":7608:7877   */\n      pop\n        /* \"#utility.yul\":7557:7877   */\n      swap2\n      swap1\n      pop\n      jump\t// out\n        /* \"#utility.yul\":7883:8024   */\n    tag_79:\n        /* \"#utility.yul\":7932:7936   */\n      0x00\n        /* \"#utility.yul\":7955:7958   */\n      dup2\n        /* \"#utility.yul\":7947:7958   */\n      swap1\n      pop\n        /* \"#utility.yul\":7978:7981   */\n      dup2\n        /* \"#utility.yul\":7975:7976   */\n      0x00\n        /* \"#utility.yul\":7968:7982   */\n      mstore\n        /* \"#utility.yul\":8012:8016   */\n      0x20\n        /* \"#utility.yul\":8009:8010   */\n      0x00\n        /* \"#utility.yul\":7999:8017   */\n      keccak256\n        /* \"#utility.yul\":7991:8017   */\n      swap1\n      pop\n        /* \"#utility.yul\":7883:8024   */\n      swap2\n      swap1\n      pop\n      jump\t// out\n        /* \"#utility.yul\":8030:8123   */\n    tag_80:\n        /* \"#utility.yul\":8067:8073   */\n      0x00\n        /* \"#utility.yul\":8114:8116   */\n      0x20\n        /* \"#utility.yul\":8109:8111   */\n      0x1f\n        /* \"#utility.yul\":8102:8107   */\n      dup4\n        /* \"#utility.yul\":8098:8112   */\n      add\n        /* \"#utility.yul\":8094:8117   */\n      div\n        /* \"#utility.yul\":8084:8117   */\n      swap1\n      pop\n        /* \"#utility.yul\":8030:8123   */\n      swap2\n      swap1\n      pop\n      jump\t// out\n        /* \"#utility.yul\":8129:8236   */\n    tag_81:\n        /* \"#utility.yul\":8173:8181   */\n      0x00\n        /* \"#utility.yul\":8223:8228   */\n      dup3\n        /* \"#utility.yul\":8217:8221   */\n      dup3\n        /* \"#utility.yul\":8213:8229   */\n      shl\n        /* \"#utility.yul\":8192:8229   */\n      swap1\n      pop\n        /* \"#utility.yul\":8129:8236   */\n      swap3\n      swap2\n      pop\n      pop\n      jump\t// out\n        /* \"#utility.yul\":8242:8635   */\n    tag_82:\n        /* \"#utility.yul\":8311:8317   */\n      0x00\n        /* \"#utility.yul\":8361:8362   */\n      0x08\n        /* \"#utility.yul\":8349:8359   */\n      dup4\n        /* \"#utility.yul\":8345:8363   */\n      mul\n        /* \"#utility.yul\":8384:8481   */\n      tag_183\n        /* \"#utility.yul\":8414:8480   */\n      0xffffffffffffffffffffffffffffffffffffffffffffffffffffffffffffffff\n        /* \"#utility.yul\":8403:8412   */\n      dup3\n        /* \"#utility.yul\":8384:8481   */\n      tag_81\n      jump\t// in\n    tag_183:\n        /* \"#utility.yul\":8502:8541   */\n      tag_184\n        /* \"#utility.yul\":8532:8540   */\n      dup7\n        /* \"#utility.yul\":8521:8530   */\n      dup4\n        /* \"#utility.yul\":8502:8541   */\n      tag_81\n      jump\t// in\n    tag_184:\n        /* \"#utility.yul\":8490:8541   */\n      swap6\n      pop\n        /* \"#utility.yul\":8574:8578   */\n      dup1\n        /* \"#utility.yul\":8570:8579   */\n      not\n        /* \"#utility.yul\":8563:8568   */\n      dup5\n        /* \"#utility.yul\":8559:8580   */\n      and\n        /* \"#utility.yul\":8550:8580   */\n      swap4\n      pop\n        /* \"#utility.yul\":8623:8627   */\n      dup1\n        /* \"#utility.yul\":8613:8621   */\n      dup7\n        /* \"#utility.yul\":8609:8628   */\n      and\n        /* \"#utility.yul\":8602:8607   */\n      dup5\n        /* \"#utility.yul\":8599:8629   */\n      or\n        /* \"#utility.yul\":8589:8629   */\n      swap3\n      pop\n        /* \"#utility.yul\":8318:8635   */\n      pop\n      pop\n        /* \"#utility.yul\":8242:8635   */\n      swap4\n      swap3\n      pop\n      pop\n      pop\n      jump\t// out\n        /* \"#utility.yul\":8641:8701   */\n    tag_83:\n        /* \"#utility.yul\":8669:8672   */\n      0x00\n        /* \"#utility.yul\":8690:8695   */\n      dup2\n        /* \"#utility.yul\":8683:8695   */\n      swap1\n      pop\n        /* \"#utility.yul\":8641:8701   */\n      swap2\n      swap1\n      pop\n      jump\t// out\n        /* \"#utility.yul\":8707:8849   */\n    tag_84:\n        /* \"#utility.yul\":8757:8766   */\n      0x00\n        /* \"#utility.yul\":8790:8843   */\n      tag_187\n        /* \"#utility.yul\":8808:8842   */\n      tag_188\n        /* \"#utility.yul\":8817:8841   */\n      tag_189\n        /* \"#utility.yul\":8835:8840   */\n      dup5\n        /* \"#utility.yul\":8817:8841   */\n      tag_57\n      jump\t// in\n    tag_189:\n        /* \"#utility.yul\":8808:8842   */\n      tag_83\n      jump\t// in\n    tag_188:\n        /* \"#utility.yul\":8790:8843   */\n      tag_57\n      jump\t// in\n    tag_187:\n        /* \"#utility.yul\":8777:8843   */\n      swap1\n      pop\n        /* \"#utility.yul\":8707:8849   */\n      swap2\n      swap1\n      pop\n      jump\t// out\n        /* \"#utility.yul\":8855:8930   */\n    tag_85:\n        /* \"#utility.yul\":8898:8901   */\n      0x00\n        /* \"#utility.yul\":8919:8924   */\n      dup2\n        /* \"#utility.yul\":8912:8924   */\n      swap1\n      pop\n        /* \"#utility.yul\":8855:8930   */\n      swap2\n      swap1\n      pop\n      jump\t// out\n        /* \"#utility.yul\":8936:9205   */\n    tag_86:\n        /* \"#utility.yul\":9046:9085   */\n      tag_192\n        /* \"#utility.yul\":9077:9084   */\n      dup4\n        /* \"#utility.yul\":9046:9085   */\n      tag_84\n      jump\t// in\n    tag_192:\n        /* \"#utility.yul\":9107:9198   */\n      tag_193\n        /* \"#utility.yul\":9156:9197   */\n      tag_194\n        /* \"#utility.yul\":9180:9196   */\n      dup3\n        /* \"#utility.yul\":9156:9197   */\n      tag_85\n      jump\t// in\n    tag_194:\n        /* \"#utility.yul\":9148:9154   */\n      dup5\n        /* \"#utility.yul\":9141:9145   */\n      dup5\n        /* \"#utility.yul\":9135:9146   */\n      sload\n        /* \"#utility.yul\":9107:9198   */\n      tag_82\n      jump\t// in\n    tag_193:\n        /* \"#utility.yul\":9101:9105   */\n      dup3\n        /* \"#utility.yul\":9094:9199   */\n      sstore\n        /* \"#utility.yul\":9012:9205   */\n      pop\n        /* \"#utility.yul\":8936:9205   */\n      pop\n      pop\n      pop\n      jump\t// out\n        /* \"#utility.yul\":9211:9284   */\n    tag_87:\n        /* \"#utility.yul\":9256:9259   */\n      0x00\n        /* \"#utility.yul\":9211:9284   */\n      swap1\n      jump\t// out\n        /* \"#utility.yul\":9290:9479   */\n    tag_88:\n        /* \"#utility.yul\":9367:9399   */\n      tag_197\n      tag_87\n      jump\t// in\n    tag_197:\n        /* \"#utility.yul\":9408:9473   */\n      tag_198\n        /* \"#utility.yul\":9466:9472   */\n      dup2\n        /* \"#utility.yul\":9458:9464   */\n      dup5\n        /* \"#utility.yul\":9452:9456   */\n      dup5\n        /* \"#utility.yul\":9408:9473   */\n      tag_86\n      jump\t// in\n    tag_198:\n        /* \"#utility.yul\":9343:9479   */\n      pop\n        /* \"#utility.yul\":9290:9479   */\n      pop\n      pop\n      jump\t// out\n        /* \"#utility.yul\":9485:9671   */\n    tag_89:\n        /* \"#utility.yul\":9545:9665   */\n    tag_200:\n        /* \"#utility.yul\":9562:9565   */\n      dup2\n        /* \"#utility.yul\":9555:9560   */\n      dup2\n        /* \"#utility.yul\":9552:9566   */\n      lt\n        /* \"#utility.yul\":9545:9665   */\n      iszero\n      tag_202\n      jumpi\n        /* \"#utility.yul\":9616:9655   */\n      tag_203\n        /* \"#utility.yul\":9653:9654   */\n      0x00\n        /* \"#utility.yul\":9646:9651   */\n      dup3\n        /* \"#utility.yul\":9616:9655   */\n      tag_88\n      jump\t// in\n    tag_203:\n        /* \"#utility.yul\":9589:9590   */\n      0x01\n        /* \"#utility.yul\":9582:9587   */\n      dup2\n        /* \"#utility.yul\":9578:9591   */\n      add\n        /* \"#utility.yul\":9569:9591   */\n      swap1\n      pop\n        /* \"#utility.yul\":9545:9665   */\n      jump(tag_200)\n    tag_202:\n        /* \"#utility.yul\":9485:9671   */\n      pop\n      pop\n      jump\t// out\n        /* \"#utility.yul\":9677:10220   */\n    tag_90:\n        /* \"#utility.yul\":9778:9780   */\n      0x1f\n        /* \"#utility.yul\":9773:9776   */\n      dup3\n        /* \"#utility.yul\":9770:9781   */\n      gt\n        /* \"#utility.yul\":9767:10213   */\n      iszero\n      tag_205\n      jumpi\n        /* \"#utility.yul\":9812:9850   */\n      tag_206\n        /* \"#utility.yul\":9844:9849   */\n      dup2\n        /* \"#utility.yul\":9812:9850   */\n      tag_79\n      jump\t// in\n    tag_206:\n        /* \"#utility.yul\":9896:9925   */\n      tag_207\n        /* \"#utility.yul\":9914:9924   */\n      dup5\n        /* \"#utility.yul\":9896:9925   */\n      tag_80\n      jump\t// in\n    tag_207:\n        /* \"#utility.yul\":9886:9894   */\n      dup2\n        /* \"#utility.yul\":9882:9926   */\n      add\n        /* \"#utility.yul\":10079:10081   */\n      0x20\n        /* \"#utility.yul\":10067:10077   */\n      dup6\n        /* \"#utility.yul\":10064:10082   */\n      lt\n        /* \"#utility.yul\":10061:10110   */\n      iszero\n      tag_208\n      jumpi\n        /* \"#utility.yul\":10100:10108   */\n      dup2\n        /* \"#utility.yul\":10085:10108   */\n      swap1\n      pop\n        /* \"#utility.yul\":10061:10110   */\n    tag_208:\n        /* \"#utility.yul\":10123:10203   */\n      tag_209\n        /* \"#utility.yul\":10179:10201   */\n      tag_210\n        /* \"#utility.yul\":10197:10200   */\n      dup6\n        /* \"#utility.yul\":10179:10201   */\n      tag_80\n      jump\t// in\n    tag_210:\n        /* \"#utility.yul\":10169:10177   */\n      dup4\n        /* \"#utility.yul\":10165:10202   */\n      add\n        /* \"#utility.yul\":10152:10163   */\n      dup3\n        /* \"#utility.yul\":10123:10203   */\n      tag_89\n      jump\t// in\n    tag_209:\n        /* \"#utility.yul\":9782:10213   */\n      pop\n      pop\n        /* \"#utility.yul\":9767:10213   */\n    tag_205:\n        /* \"#utility.yul\":9677:10220   */\n      pop\n      pop\n      pop\n      jump\t// out\n        /* \"#utility.yul\":10226:10343   */\n    tag_91:\n        /* \"#utility.yul\":10280:10288   */\n      0x00\n        /* \"#utility.yul\":10330:10335   */\n      dup3\n        /* \"#utility.yul\":10324:10328   */\n      dup3\n        /* \"#utility.yul\":10320:10336   */\n      shr\n        /* \"#utility.yul\":10299:10336   */\n      swap1\n      pop\n        /* \"#utility.yul\":10226:10343   */\n      swap3\n      swap2\n      pop\n      pop\n      jump\t// out\n        /* \"#utility.yul\":10349:10518   */\n    tag_92:\n        /* \"#utility.yul\":10393:10399   */\n      0x00\n        /* \"#utility.yul\":10426:10477   */\n      tag_213\n        /* \"#utility.yul\":10474:10475   */\n      0x00\n        /* \"#utility.yul\":10470:10476   */\n      not\n        /* \"#utility.yul\":10462:10467   */\n      dup5\n        /* \"#utility.yul\":10459:10460   */\n      0x08\n        /* \"#utility.yul\":10455:10468   */\n      mul\n        /* \"#utility.yul\":10426:10477   */\n      tag_91\n      jump\t// in\n    tag_213:\n        /* \"#utility.yul\":10422:10478   */\n      not\n        /* \"#utility.yul\":10507:10511   */\n      dup1\n        /* \"#utility.yul\":10501:10505   */\n      dup4\n        /* \"#utility.yul\":10497:10512   */\n      and\n        /* \"#utility.yul\":10487:10512   */\n      swap2\n      pop\n        /* \"#utility.yul\":10400:10518   */\n      pop\n        /* \"#utility.yul\":10349:10518   */\n      swap3\n      swap2\n      pop\n      pop\n      jump\t// out\n        /* \"#utility.yul\":10523:10818   */\n    tag_93:\n        /* \"#utility.yul\":10599:10603   */\n      0x00\n        /* \"#utility.yul\":10745:10774   */\n      tag_215\n        /* \"#utility.yul\":10770:10773   */\n      dup4\n        /* \"#utility.yul\":10764:10768   */\n      dup4\n        /* \"#utility.yul\":10745:10774   */\n      tag_92\n      jump\t// in\n    tag_215:\n        /* \"#utility.yul\":10737:10774   */\n      swap2\n      pop\n        /* \"#utility.yul\":10807:10810   */\n      dup3\n        /* \"#utility.yul\":10804:10805   */\n      0x02\n        /* \"#utility.yul\":10800:10811   */\n      mul\n        /* \"#utility.yul\":10794:10798   */\n      dup3\n        /* \"#utility.yul\":10791:10812   */\n      or\n        /* \"#utility.yul\":10783:10812   */\n      swap1\n      pop\n        /* \"#utility.yul\":10523:10818   */\n      swap3\n      swap2\n      pop\n      pop\n      jump\t// out\n        /* \"#utility.yul\":10823:12218   */\n    tag_30:\n        /* \"#utility.yul\":10940:10977   */\n      tag_217\n        /* \"#utility.yul\":10973:10976   */\n      dup3\n        /* \"#utility.yul\":10940:10977   */\n      tag_74\n      jump\t// in\n    tag_217:\n        /* \"#utility.yul\":11042:11060   */\n      0xffffffffffffffff\n        /* \"#utility.yul\":11034:11040   */\n      dup2\n        /* \"#utility.yul\":11031:11061   */\n      gt\n        /* \"#utility.yul\":11028:11084   */\n      iszero\n      tag_218\n      jumpi\n        /* \"#utility.yul\":11064:11082   */\n      tag_219\n      tag_63\n      jump\t// in\n    tag_219:\n        /* \"#utility.yul\":11028:11084   */\n    tag_218:\n        /* \"#utility.yul\":11108:11146   */\n      tag_220\n        /* \"#utility.yul\":11140:11144   */\n      dup3\n        /* \"#utility.yul\":11134:11145   */\n      sload\n        /* \"#utility.yul\":11108:11146   */\n      tag_33\n      jump\t// in\n    tag_220:\n        /* \"#utility.yul\":11193:11260   */\n      tag_221\n        /* \"#utility.yul\":11253:11259   */\n      dup3\n        /* \"#utility.yul\":11245:11251   */\n      dup3\n        /* \"#utility.yul\":11239:11243   */\n      dup6\n        /* \"#utility.yul\":11193:11260   */\n      tag_90\n      jump\t// in\n    tag_221:\n        /* \"#utility.yul\":11287:11288   */\n      0x00\n        /* \"#utility.yul\":11311:11315   */\n      0x20\n        /* \"#utility.yul\":11298:11315   */\n      swap1\n      pop\n        /* \"#utility.yul\":11343:11345   */\n      0x1f\n        /* \"#utility.yul\":11335:11341   */\n      dup4\n        /* \"#utility.yul\":11332:11346   */\n      gt\n        /* \"#utility.yul\":11360:11361   */\n      0x01\n        /* \"#utility.yul\":11355:11973   */\n      dup2\n      eq\n      tag_223\n      jumpi\n        /* \"#utility.yul\":12017:12018   */\n      0x00\n        /* \"#utility.yul\":12034:12040   */\n      dup5\n        /* \"#utility.yul\":12031:12108   */\n      iszero\n      tag_224\n      jumpi\n        /* \"#utility.yul\":12083:12092   */\n      dup3\n        /* \"#utility.yul\":12078:12081   */\n      dup8\n        /* \"#utility.yul\":12074:12093   */\n      add\n        /* \"#utility.yul\":12068:12094   */\n      mload\n        /* \"#utility.yul\":12059:12094   */\n      swap1\n      pop\n        /* \"#utility.yul\":12031:12108   */\n    tag_224:\n        /* \"#utility.yul\":12134:12201   */\n      tag_225\n        /* \"#utility.yul\":12194:12200   */\n      dup6\n        /* \"#utility.yul\":12187:12192   */\n      dup3\n        /* \"#utility.yul\":12134:12201   */\n      tag_93\n      jump\t// in\n    tag_225:\n        /* \"#utility.yul\":12128:12132   */\n      dup7\n        /* \"#utility.yul\":12121:12202   */\n      sstore\n        /* \"#utility.yul\":11990:12212   */\n      pop\n        /* \"#utility.yul\":11325:12212   */\n      jump(tag_222)\n        /* \"#utility.yul\":11355:11973   */\n    tag_223:\n        /* \"#utility.yul\":11407:11411   */\n      0x1f\n        /* \"#utility.yul\":11403:11412   */\n      not\n        /* \"#utility.yul\":11395:11401   */\n      dup5\n        /* \"#utility.yul\":11391:11413   */\n      and\n        /* \"#utility.yul\":11441:11478   */\n      tag_226\n        /* \"#utility.yul\":11473:11477   */\n      dup7\n        /* \"#utility.yul\":11441:11478   */\n      tag_79\n      jump\t// in\n    tag_226:\n        /* \"#utility.yul\":11500:11501   */\n      0x00\n        /* \"#utility.yul\":11514:11722   */\n    tag_227:\n        /* \"#utility.yul\":11528:11535   */\n      dup3\n        /* \"#utility.yul\":11525:11526   */\n      dup2\n        /* \"#utility.yul\":11522:11536   */\n      lt\n        /* \"#utility.yul\":11514:11722   */\n      iszero\n      tag_229\n      jumpi\n        /* \"#utility.yul\":11607:11616   */\n      dup5\n        /* \"#utility.yul\":11602:11605   */\n      dup10\n        /* \"#utility.yul\":11598:11617   */\n      add\n        /* \"#utility.yul\":11592:11618   */\n      mload\n        /* \"#utility.yul\":11584:11590   */\n      dup3\n        /* \"#utility.yul\":11577:11619   */\n      sstore\n        /* \"#utility.yul\":11658:11659   */\n      0x01\n        /* \"#utility.yul\":11650:11656   */\n      dup3\n        /* \"#utility.yul\":11646:11660   */\n      add\n        /* \"#utility.yul\":11636:11660   */\n      swap2\n      pop\n        /* \"#utility.yul\":11705:11707   */\n      0x20\n        /* \"#utility.yul\":11694:11703   */\n      dup6\n        /* \"#utility.yul\":11690:11708   */\n      add\n        /* \"#utility.yul\":11677:11708   */\n      swap5\n      pop\n        /* \"#utility.yul\":11551:11555   */\n      0x20\n        /* \"#utility.yul\":11548:11549   */\n      dup2\n        /* \"#utility.yul\":11544:11556   */\n      add\n        /* \"#utility.yul\":11539:11556   */\n      swap1\n      pop\n        /* \"#utility.yul\":11514:11722   */\n      jump(tag_227)\n    tag_229:\n        /* \"#utility.yul\":11750:11756   */\n      dup7\n        /* \"#utility.yul\":11741:11748   */\n      dup4\n        /* \"#utility.yul\":11738:11757   */\n      lt\n        /* \"#utility.yul\":11735:11914   */\n      iszero\n      tag_230\n      jumpi\n        /* \"#utility.yul\":11808:11817   */\n      dup5\n        /* \"#utility.yul\":11803:11806   */\n      dup10\n        /* \"#utility.yul\":11799:11818   */\n      add\n        /* \"#utility.yul\":11793:11819   */\n      mload\n        /* \"#utility.yul\":11851:11899   */\n      tag_231\n        /* \"#utility.yul\":11893:11897   */\n      0x1f\n        /* \"#utility.yul\":11885:11891   */\n      dup10\n        /* \"#utility.yul\":11881:11898   */\n      and\n        /* \"#utility.yul\":11870:11879   */\n      dup3\n        /* \"#utility.yul\":11851:11899   */\n      tag_92\n      jump\t// in\n    tag_231:\n        /* \"#utility.yul\":11843:11849   */\n      dup4\n        /* \"#utility.yul\":11836:11900   */\n      sstore\n        /* \"#utility.yul\":11758:11914   */\n      pop\n        /* \"#utility.yul\":11735:11914   */\n    tag_230:\n        /* \"#utility.yul\":11960:11961   */\n      0x01\n        /* \"#utility.yul\":11956:11957   */\n      0x02\n        /* \"#utility.yul\":11948:11954   */\n      dup9\n        /* \"#utility.yul\":11944:11958   */\n      mul\n        /* \"#utility.yul\":11940:11962   */\n      add\n        /* \"#utility.yul\":11934:11938   */\n      dup9\n        /* \"#utility.yul\":11927:11963   */\n      sstore\n        /* \"#utility.yul\":11362:11973   */\n      pop\n      pop\n      pop\n        /* \"#utility.yul\":11325:12212   */\n    tag_222:\n      pop\n        /* \"#utility.yul\":10915:12218   */\n      pop\n      pop\n      pop\n        /* \"#utility.yul\":10823:12218   */\n      pop\n      pop\n      jump\t// out\n\n    auxdata: 0xa264697066735822122091adb4e9d4652cee46657b2510de5dd0d443c91870a6f47aac8b169dd14aabb664736f6c63430008150033\n}\n",
				"bytecode": {
					"linkReferences": {},
					"object": "608060405234801561000f575f80fd5b50335f806101000a81548173ffffffffffffffffffffffffffffffffffffffff021916908373ffffffffffffffffffffffffffffffffffffffff160217905550610b1e8061005c5f395ff3fe608060405234801561000f575f80fd5b506004361061004a575f3560e01c806310c24a611461004e578063686423ba1461006a5780636874404614610088578063b868145f146100bb575b5f80fd5b610068600480360381019061006391906105e3565b6100ed565b005b6100726101a6565b60405161007f91906106be565b60405180910390f35b6100a2600480360381019061009d91906106d7565b6101c9565b6040516100b2949392919061078b565b60405180910390f35b6100d560048036038101906100d091906106d7565b610301565b6040516100e4939291906107dc565b60405180910390f35b5f8054906101000a900473ffffffffffffffffffffffffffffffffffffffff1673ffffffffffffffffffffffffffffffffffffffff163373ffffffffffffffffffffffffffffffffffffffff1614610143575f80fd5b8260015f8681526020019081526020015f2060010190816101649190610a19565b508160015f8681526020019081526020015f2060020190816101869190610a19565b508060015f8681526020019081526020015f206003018190555050505050565b5f8054906101000a900473ffffffffffffffffffffffffffffffffffffffff1681565b6001602052805f5260405f205f91509050805f0154908060010180546101ee9061084c565b80601f016020809104026020016040519081016040528092919081815260200182805461021a9061084c565b80156102655780601f1061023c57610100808354040283529160200191610265565b820191905f5260205f20905b81548152906001019060200180831161024857829003601f168201915b50505050509080600201805461027a9061084c565b80601f01602080910402602001604051908101604052809291908181526020018280546102a69061084c565b80156102f15780601f106102c8576101008083540402835291602001916102f1565b820191905f5260205f20905b8154815290600101906020018083116102d457829003601f168201915b5050505050908060030154905084565b6060805f60015f8581526020019081526020015f2060010160015f8681526020019081526020015f2060020160015f8781526020019081526020015f206003015482805461034e9061084c565b80601f016020809104026020016040519081016040528092919081815260200182805461037a9061084c565b80156103c55780601f1061039c576101008083540402835291602001916103c5565b820191905f5260205f20905b8154815290600101906020018083116103a857829003601f168201915b505050505092508180546103d89061084c565b80601f01602080910402602001604051908101604052809291908181526020018280546104049061084c565b801561044f5780601f106104265761010080835404028352916020019161044f565b820191905f5260205f20905b81548152906001019060200180831161043257829003601f168201915b505050505091509250925092509193909250565b5f604051905090565b5f80fd5b5f80fd5b5f819050919050565b61048681610474565b8114610490575f80fd5b50565b5f813590506104a18161047d565b92915050565b5f80fd5b5f80fd5b5f601f19601f8301169050919050565b7f4e487b71000000000000000000000000000000000000000000000000000000005f52604160045260245ffd5b6104f5826104af565b810181811067ffffffffffffffff82111715610514576105136104bf565b5b80604052505050565b5f610526610463565b905061053282826104ec565b919050565b5f67ffffffffffffffff821115610551576105506104bf565b5b61055a826104af565b9050602081019050919050565b828183375f83830152505050565b5f61058761058284610537565b61051d565b9050828152602081018484840111156105a3576105a26104ab565b5b6105ae848285610567565b509392505050565b5f82601f8301126105ca576105c96104a7565b5b81356105da848260208601610575565b91505092915050565b5f805f80608085870312156105fb576105fa61046c565b5b5f61060887828801610493565b945050602085013567ffffffffffffffff81111561062957610628610470565b5b610635878288016105b6565b935050604085013567ffffffffffffffff81111561065657610655610470565b5b610662878288016105b6565b925050606061067387828801610493565b91505092959194509250565b5f73ffffffffffffffffffffffffffffffffffffffff82169050919050565b5f6106a88261067f565b9050919050565b6106b88161069e565b82525050565b5f6020820190506106d15f8301846106af565b92915050565b5f602082840312156106ec576106eb61046c565b5b5f6106f984828501610493565b91505092915050565b61070b81610474565b82525050565b5f81519050919050565b5f82825260208201905092915050565b5f5b8381101561074857808201518184015260208101905061072d565b5f8484015250505050565b5f61075d82610711565b610767818561071b565b935061077781856020860161072b565b610780816104af565b840191505092915050565b5f60808201905061079e5f830187610702565b81810360208301526107b08186610753565b905081810360408301526107c48185610753565b90506107d36060830184610702565b95945050505050565b5f6060820190508181035f8301526107f48186610753565b905081810360208301526108088185610753565b90506108176040830184610702565b949350505050565b7f4e487b71000000000000000000000000000000000000000000000000000000005f52602260045260245ffd5b5f600282049050600182168061086357607f821691505b6020821081036108765761087561081f565b5b50919050565b5f819050815f5260205f209050919050565b5f6020601f8301049050919050565b5f82821b905092915050565b5f600883026108d87fffffffffffffffffffffffffffffffffffffffffffffffffffffffffffffffff8261089d565b6108e2868361089d565b95508019841693508086168417925050509392505050565b5f819050919050565b5f61091d61091861091384610474565b6108fa565b610474565b9050919050565b5f819050919050565b61093683610903565b61094a61094282610924565b8484546108a9565b825550505050565b5f90565b61095e610952565b61096981848461092d565b505050565b5b8181101561098c576109815f82610956565b60018101905061096f565b5050565b601f8211156109d1576109a28161087c565b6109ab8461088e565b810160208510156109ba578190505b6109ce6109c68561088e565b83018261096e565b50505b505050565b5f82821c905092915050565b5f6109f15f19846008026109d6565b1980831691505092915050565b5f610a0983836109e2565b9150826002028217905092915050565b610a2282610711565b67ffffffffffffffff811115610a3b57610a3a6104bf565b5b610a45825461084c565b610a50828285610990565b5f60209050601f831160018114610a81575f8415610a6f578287015190505b610a7985826109fe565b865550610ae0565b601f198416610a8f8661087c565b5f5b82811015610ab657848901518255600182019150602085019450602081019050610a91565b86831015610ad35784890151610acf601f8916826109e2565b8355505b6001600288020188555050505b50505050505056fea264697066735822122091adb4e9d4652cee46657b2510de5dd0d443c91870a6f47aac8b169dd14aabb664736f6c63430008150033",
					"opcodes": "PUSH1 0x80 PUSH1 0x40 MSTORE CALLVALUE DUP1 ISZERO PUSH2 0xF JUMPI PUSH0 DUP1 REVERT JUMPDEST POP CALLER PUSH0 DUP1 PUSH2 0x100 EXP DUP2 SLOAD DUP2 PUSH20 0xFFFFFFFFFFFFFFFFFFFFFFFFFFFFFFFFFFFFFFFF MUL NOT AND SWAP1 DUP4 PUSH20 0xFFFFFFFFFFFFFFFFFFFFFFFFFFFFFFFFFFFFFFFF AND MUL OR SWAP1 SSTORE POP PUSH2 0xB1E DUP1 PUSH2 0x5C PUSH0 CODECOPY PUSH0 RETURN INVALID PUSH1 0x80 PUSH1 0x40 MSTORE CALLVALUE DUP1 ISZERO PUSH2 0xF JUMPI PUSH0 DUP1 REVERT JUMPDEST POP PUSH1 0x4 CALLDATASIZE LT PUSH2 0x4A JUMPI PUSH0 CALLDATALOAD PUSH1 0xE0 SHR DUP1 PUSH4 0x10C24A61 EQ PUSH2 0x4E JUMPI DUP1 PUSH4 0x686423BA EQ PUSH2 0x6A JUMPI DUP1 PUSH4 0x68744046 EQ PUSH2 0x88 JUMPI DUP1 PUSH4 0xB868145F EQ PUSH2 0xBB JUMPI JUMPDEST PUSH0 DUP1 REVERT JUMPDEST PUSH2 0x68 PUSH1 0x4 DUP1 CALLDATASIZE SUB DUP2 ADD SWAP1 PUSH2 0x63 SWAP2 SWAP1 PUSH2 0x5E3 JUMP JUMPDEST PUSH2 0xED JUMP JUMPDEST STOP JUMPDEST PUSH2 0x72 PUSH2 0x1A6 JUMP JUMPDEST PUSH1 0x40 MLOAD PUSH2 0x7F SWAP2 SWAP1 PUSH2 0x6BE JUMP JUMPDEST PUSH1 0x40 MLOAD DUP1 SWAP2 SUB SWAP1 RETURN JUMPDEST PUSH2 0xA2 PUSH1 0x4 DUP1 CALLDATASIZE SUB DUP2 ADD SWAP1 PUSH2 0x9D SWAP2 SWAP1 PUSH2 0x6D7 JUMP JUMPDEST PUSH2 0x1C9 JUMP JUMPDEST PUSH1 0x40 MLOAD PUSH2 0xB2 SWAP5 SWAP4 SWAP3 SWAP2 SWAP1 PUSH2 0x78B JUMP JUMPDEST PUSH1 0x40 MLOAD DUP1 SWAP2 SUB SWAP1 RETURN JUMPDEST PUSH2 0xD5 PUSH1 0x4 DUP1 CALLDATASIZE SUB DUP2 ADD SWAP1 PUSH2 0xD0 SWAP2 SWAP1 PUSH2 0x6D7 JUMP JUMPDEST PUSH2 0x301 JUMP JUMPDEST PUSH1 0x40 MLOAD PUSH2 0xE4 SWAP4 SWAP3 SWAP2 SWAP1 PUSH2 0x7DC JUMP JUMPDEST PUSH1 0x40 MLOAD DUP1 SWAP2 SUB SWAP1 RETURN JUMPDEST PUSH0 DUP1 SLOAD SWAP1 PUSH2 0x100 EXP SWAP1 DIV PUSH20 0xFFFFFFFFFFFFFFFFFFFFFFFFFFFFFFFFFFFFFFFF AND PUSH20 0xFFFFFFFFFFFFFFFFFFFFFFFFFFFFFFFFFFFFFFFF AND CALLER PUSH20 0xFFFFFFFFFFFFFFFFFFFFFFFFFFFFFFFFFFFFFFFF AND EQ PUSH2 0x143 JUMPI PUSH0 DUP1 REVERT JUMPDEST DUP3 PUSH1 0x1 PUSH0 DUP7 DUP2 MSTORE PUSH1 0x20 ADD SWAP1 DUP2 MSTORE PUSH1 0x20 ADD PUSH0 KECCAK256 PUSH1 0x1 ADD SWAP1 DUP2 PUSH2 0x164 SWAP2 SWAP1 PUSH2 0xA19 JUMP JUMPDEST POP DUP2 PUSH1 0x1 PUSH0 DUP7 DUP2 MSTORE PUSH1 0x20 ADD SWAP1 DUP2 MSTORE PUSH1 0x20 ADD PUSH0 KECCAK256 PUSH1 0x2 ADD SWAP1 DUP2 PUSH2 0x186 SWAP2 SWAP1 PUSH2 0xA19 JUMP JUMPDEST POP DUP1 PUSH1 0x1 PUSH0 DUP7 DUP2 MSTORE PUSH1 0x20 ADD SWAP1 DUP2 MSTORE PUSH1 0x20 ADD PUSH0 KECCAK256 PUSH1 0x3 ADD DUP2 SWAP1 SSTORE POP POP POP POP POP JUMP JUMPDEST PUSH0 DUP1 SLOAD SWAP1 PUSH2 0x100 EXP SWAP1 DIV PUSH20 0xFFFFFFFFFFFFFFFFFFFFFFFFFFFFFFFFFFFFFFFF AND DUP2 JUMP JUMPDEST PUSH1 0x1 PUSH1 0x20 MSTORE DUP1 PUSH0 MSTORE PUSH1 0x40 PUSH0 KECCAK256 PUSH0 SWAP2 POP SWAP1 POP DUP1 PUSH0 ADD SLOAD SWAP1 DUP1 PUSH1 0x1 ADD DUP1 SLOAD PUSH2 0x1EE SWAP1 PUSH2 0x84C JUMP JUMPDEST DUP1 PUSH1 0x1F ADD PUSH1 0x20 DUP1 SWAP2 DIV MUL PUSH1 0x20 ADD PUSH1 0x40 MLOAD SWAP1 DUP2 ADD PUSH1 0x40 MSTORE DUP1 SWAP3 SWAP2 SWAP1 DUP2 DUP2 MSTORE PUSH1 0x20 ADD DUP3 DUP1 SLOAD PUSH2 0x21A SWAP1 PUSH2 0x84C JUMP JUMPDEST DUP1 ISZERO PUSH2 0x265 JUMPI DUP1 PUSH1 0x1F LT PUSH2 0x23C JUMPI PUSH2 0x100 DUP1 DUP4 SLOAD DIV MUL DUP4 MSTORE SWAP2 PUSH1 0x20 ADD SWAP2 PUSH2 0x265 JUMP JUMPDEST DUP3 ADD SWAP2 SWAP1 PUSH0 MSTORE PUSH1 0x20 PUSH0 KECCAK256 SWAP1 JUMPDEST DUP2 SLOAD DUP2 MSTORE SWAP1 PUSH1 0x1 ADD SWAP1 PUSH1 0x20 ADD DUP1 DUP4 GT PUSH2 0x248 JUMPI DUP3 SWAP1 SUB PUSH1 0x1F AND DUP3 ADD SWAP2 JUMPDEST POP POP POP POP POP SWAP1 DUP1 PUSH1 0x2 ADD DUP1 SLOAD PUSH2 0x27A SWAP1 PUSH2 0x84C JUMP JUMPDEST DUP1 PUSH1 0x1F ADD PUSH1 0x20 DUP1 SWAP2 DIV MUL PUSH1 0x20 ADD PUSH1 0x40 MLOAD SWAP1 DUP2 ADD PUSH1 0x40 MSTORE DUP1 SWAP3 SWAP2 SWAP1 DUP2 DUP2 MSTORE PUSH1 0x20 ADD DUP3 DUP1 SLOAD PUSH2 0x2A6 SWAP1 PUSH2 0x84C JUMP JUMPDEST DUP1 ISZERO PUSH2 0x2F1 JUMPI DUP1 PUSH1 0x1F LT PUSH2 0x2C8 JUMPI PUSH2 0x100 DUP1 DUP4 SLOAD DIV MUL DUP4 MSTORE SWAP2 PUSH1 0x20 ADD SWAP2 PUSH2 0x2F1 JUMP JUMPDEST DUP3 ADD SWAP2 SWAP1 PUSH0 MSTORE PUSH1 0x20 PUSH0 KECCAK256 SWAP1 JUMPDEST DUP2 SLOAD DUP2 MSTORE SWAP1 PUSH1 0x1 ADD SWAP1 PUSH1 0x20 ADD DUP1 DUP4 GT PUSH2 0x2D4 JUMPI DUP3 SWAP1 SUB PUSH1 0x1F AND DUP3 ADD SWAP2 JUMPDEST POP POP POP POP POP SWAP1 DUP1 PUSH1 0x3 ADD SLOAD SWAP1 POP DUP5 JUMP JUMPDEST PUSH1 0x60 DUP1 PUSH0 PUSH1 0x1 PUSH0 DUP6 DUP2 MSTORE PUSH1 0x20 ADD SWAP1 DUP2 MSTORE PUSH1 0x20 ADD PUSH0 KECCAK256 PUSH1 0x1 ADD PUSH1 0x1 PUSH0 DUP7 DUP2 MSTORE PUSH1 0x20 ADD SWAP1 DUP2 MSTORE PUSH1 0x20 ADD PUSH0 KECCAK256 PUSH1 0x2 ADD PUSH1 0x1 PUSH0 DUP8 DUP2 MSTORE PUSH1 0x20 ADD SWAP1 DUP2 MSTORE PUSH1 0x20 ADD PUSH0 KECCAK256 PUSH1 0x3 ADD SLOAD DUP3 DUP1 SLOAD PUSH2 0x34E SWAP1 PUSH2 0x84C JUMP JUMPDEST DUP1 PUSH1 0x1F ADD PUSH1 0x20 DUP1 SWAP2 DIV MUL PUSH1 0x20 ADD PUSH1 0x40 MLOAD SWAP1 DUP2 ADD PUSH1 0x40 MSTORE DUP1 SWAP3 SWAP2 SWAP1 DUP2 DUP2 MSTORE PUSH1 0x20 ADD DUP3 DUP1 SLOAD PUSH2 0x37A SWAP1 PUSH2 0x84C JUMP JUMPDEST DUP1 ISZERO PUSH2 0x3C5 JUMPI DUP1 PUSH1 0x1F LT PUSH2 0x39C JUMPI PUSH2 0x100 DUP1 DUP4 SLOAD DIV MUL DUP4 MSTORE SWAP2 PUSH1 0x20 ADD SWAP2 PUSH2 0x3C5 JUMP JUMPDEST DUP3 ADD SWAP2 SWAP1 PUSH0 MSTORE PUSH1 0x20 PUSH0 KECCAK256 SWAP1 JUMPDEST DUP2 SLOAD DUP2 MSTORE SWAP1 PUSH1 0x1 ADD SWAP1 PUSH1 0x20 ADD DUP1 DUP4 GT PUSH2 0x3A8 JUMPI DUP3 SWAP1 SUB PUSH1 0x1F AND DUP3 ADD SWAP2 JUMPDEST POP POP POP POP POP SWAP3 POP DUP2 DUP1 SLOAD PUSH2 0x3D8 SWAP1 PUSH2 0x84C JUMP JUMPDEST DUP1 PUSH1 0x1F ADD PUSH1 0x20 DUP1 SWAP2 DIV MUL PUSH1 0x20 ADD PUSH1 0x40 MLOAD SWAP1 DUP2 ADD PUSH1 0x40 MSTORE DUP1 SWAP3 SWAP2 SWAP1 DUP2 DUP2 MSTORE PUSH1 0x20 ADD DUP3 DUP1 SLOAD PUSH2 0x404 SWAP1 PUSH2 0x84C JUMP JUMPDEST DUP1 ISZERO PUSH2 0x44F JUMPI DUP1 PUSH1 0x1F LT PUSH2 0x426 JUMPI PUSH2 0x100 DUP1 DUP4 SLOAD DIV MUL DUP4 MSTORE SWAP2 PUSH1 0x20 ADD SWAP2 PUSH2 0x44F JUMP JUMPDEST DUP3 ADD SWAP2 SWAP1 PUSH0 MSTORE PUSH1 0x20 PUSH0 KECCAK256 SWAP1 JUMPDEST DUP2 SLOAD DUP2 MSTORE SWAP1 PUSH1 0x1 ADD SWAP1 PUSH1 0x20 ADD DUP1 DUP4 GT PUSH2 0x432 JUMPI DUP3 SWAP1 SUB PUSH1 0x1F AND DUP3 ADD SWAP2 JUMPDEST POP POP POP POP POP SWAP2 POP SWAP3 POP SWAP3 POP SWAP3 POP SWAP2 SWAP4 SWAP1 SWAP3 POP JUMP JUMPDEST PUSH0 PUSH1 0x40 MLOAD SWAP1 POP SWAP1 JUMP JUMPDEST PUSH0 DUP1 REVERT JUMPDEST PUSH0 DUP1 REVERT JUMPDEST PUSH0 DUP2 SWAP1 POP SWAP2 SWAP1 POP JUMP JUMPDEST PUSH2 0x486 DUP2 PUSH2 0x474 JUMP JUMPDEST DUP2 EQ PUSH2 0x490 JUMPI PUSH0 DUP1 REVERT JUMPDEST POP JUMP JUMPDEST PUSH0 DUP2 CALLDATALOAD SWAP1 POP PUSH2 0x4A1 DUP2 PUSH2 0x47D JUMP JUMPDEST SWAP3 SWAP2 POP POP JUMP JUMPDEST PUSH0 DUP1 REVERT JUMPDEST PUSH0 DUP1 REVERT JUMPDEST PUSH0 PUSH1 0x1F NOT PUSH1 0x1F DUP4 ADD AND SWAP1 POP SWAP2 SWAP1 POP JUMP JUMPDEST PUSH32 0x4E487B7100000000000000000000000000000000000000000000000000000000 PUSH0 MSTORE PUSH1 0x41 PUSH1 0x4 MSTORE PUSH1 0x24 PUSH0 REVERT JUMPDEST PUSH2 0x4F5 DUP3 PUSH2 0x4AF JUMP JUMPDEST DUP2 ADD DUP2 DUP2 LT PUSH8 0xFFFFFFFFFFFFFFFF DUP3 GT OR ISZERO PUSH2 0x514 JUMPI PUSH2 0x513 PUSH2 0x4BF JUMP JUMPDEST JUMPDEST DUP1 PUSH1 0x40 MSTORE POP POP POP JUMP JUMPDEST PUSH0 PUSH2 0x526 PUSH2 0x463 JUMP JUMPDEST SWAP1 POP PUSH2 0x532 DUP3 DUP3 PUSH2 0x4EC JUMP JUMPDEST SWAP2 SWAP1 POP JUMP JUMPDEST PUSH0 PUSH8 0xFFFFFFFFFFFFFFFF DUP3 GT ISZERO PUSH2 0x551 JUMPI PUSH2 0x550 PUSH2 0x4BF JUMP JUMPDEST JUMPDEST PUSH2 0x55A DUP3 PUSH2 0x4AF JUMP JUMPDEST SWAP1 POP PUSH1 0x20 DUP2 ADD SWAP1 POP SWAP2 SWAP1 POP JUMP JUMPDEST DUP3 DUP2 DUP4 CALLDATACOPY PUSH0 DUP4 DUP4 ADD MSTORE POP POP POP JUMP JUMPDEST PUSH0 PUSH2 0x587 PUSH2 0x582 DUP5 PUSH2 0x537 JUMP JUMPDEST PUSH2 0x51D JUMP JUMPDEST SWAP1 POP DUP3 DUP2 MSTORE PUSH1 0x20 DUP2 ADD DUP5 DUP5 DUP5 ADD GT ISZERO PUSH2 0x5A3 JUMPI PUSH2 0x5A2 PUSH2 0x4AB JUMP JUMPDEST JUMPDEST PUSH2 0x5AE DUP5 DUP3 DUP6 PUSH2 0x567 JUMP JUMPDEST POP SWAP4 SWAP3 POP POP POP JUMP JUMPDEST PUSH0 DUP3 PUSH1 0x1F DUP4 ADD SLT PUSH2 0x5CA JUMPI PUSH2 0x5C9 PUSH2 0x4A7 JUMP JUMPDEST JUMPDEST DUP2 CALLDATALOAD PUSH2 0x5DA DUP5 DUP3 PUSH1 0x20 DUP7 ADD PUSH2 0x575 JUMP JUMPDEST SWAP2 POP POP SWAP3 SWAP2 POP POP JUMP JUMPDEST PUSH0 DUP1 PUSH0 DUP1 PUSH1 0x80 DUP6 DUP8 SUB SLT ISZERO PUSH2 0x5FB JUMPI PUSH2 0x5FA PUSH2 0x46C JUMP JUMPDEST JUMPDEST PUSH0 PUSH2 0x608 DUP8 DUP3 DUP9 ADD PUSH2 0x493 JUMP JUMPDEST SWAP5 POP POP PUSH1 0x20 DUP6 ADD CALLDATALOAD PUSH8 0xFFFFFFFFFFFFFFFF DUP2 GT ISZERO PUSH2 0x629 JUMPI PUSH2 0x628 PUSH2 0x470 JUMP JUMPDEST JUMPDEST PUSH2 0x635 DUP8 DUP3 DUP9 ADD PUSH2 0x5B6 JUMP JUMPDEST SWAP4 POP POP PUSH1 0x40 DUP6 ADD CALLDATALOAD PUSH8 0xFFFFFFFFFFFFFFFF DUP2 GT ISZERO PUSH2 0x656 JUMPI PUSH2 0x655 PUSH2 0x470 JUMP JUMPDEST JUMPDEST PUSH2 0x662 DUP8 DUP3 DUP9 ADD PUSH2 0x5B6 JUMP JUMPDEST SWAP3 POP POP PUSH1 0x60 PUSH2 0x673 DUP8 DUP3 DUP9 ADD PUSH2 0x493 JUMP JUMPDEST SWAP2 POP POP SWAP3 SWAP6 SWAP2 SWAP5 POP SWAP3 POP JUMP JUMPDEST PUSH0 PUSH20 0xFFFFFFFFFFFFFFFFFFFFFFFFFFFFFFFFFFFFFFFF DUP3 AND SWAP1 POP SWAP2 SWAP1 POP JUMP JUMPDEST PUSH0 PUSH2 0x6A8 DUP3 PUSH2 0x67F JUMP JUMPDEST SWAP1 POP SWAP2 SWAP1 POP JUMP JUMPDEST PUSH2 0x6B8 DUP2 PUSH2 0x69E JUMP JUMPDEST DUP3 MSTORE POP POP JUMP JUMPDEST PUSH0 PUSH1 0x20 DUP3 ADD SWAP1 POP PUSH2 0x6D1 PUSH0 DUP4 ADD DUP5 PUSH2 0x6AF JUMP JUMPDEST SWAP3 SWAP2 POP POP JUMP JUMPDEST PUSH0 PUSH1 0x20 DUP3 DUP5 SUB SLT ISZERO PUSH2 0x6EC JUMPI PUSH2 0x6EB PUSH2 0x46C JUMP JUMPDEST JUMPDEST PUSH0 PUSH2 0x6F9 DUP5 DUP3 DUP6 ADD PUSH2 0x493 JUMP JUMPDEST SWAP2 POP POP SWAP3 SWAP2 POP POP JUMP JUMPDEST PUSH2 0x70B DUP2 PUSH2 0x474 JUMP JUMPDEST DUP3 MSTORE POP POP JUMP JUMPDEST PUSH0 DUP2 MLOAD SWAP1 POP SWAP2 SWAP1 POP JUMP JUMPDEST PUSH0 DUP3 DUP3 MSTORE PUSH1 0x20 DUP3 ADD SWAP1 POP SWAP3 SWAP2 POP POP JUMP JUMPDEST PUSH0 JUMPDEST DUP4 DUP2 LT ISZERO PUSH2 0x748 JUMPI DUP1 DUP3 ADD MLOAD DUP2 DUP5 ADD MSTORE PUSH1 0x20 DUP2 ADD SWAP1 POP PUSH2 0x72D JUMP JUMPDEST PUSH0 DUP5 DUP5 ADD MSTORE POP POP POP POP JUMP JUMPDEST PUSH0 PUSH2 0x75D DUP3 PUSH2 0x711 JUMP JUMPDEST PUSH2 0x767 DUP2 DUP6 PUSH2 0x71B JUMP JUMPDEST SWAP4 POP PUSH2 0x777 DUP2 DUP6 PUSH1 0x20 DUP7 ADD PUSH2 0x72B JUMP JUMPDEST PUSH2 0x780 DUP2 PUSH2 0x4AF JUMP JUMPDEST DUP5 ADD SWAP2 POP POP SWAP3 SWAP2 POP POP JUMP JUMPDEST PUSH0 PUSH1 0x80 DUP3 ADD SWAP1 POP PUSH2 0x79E PUSH0 DUP4 ADD DUP8 PUSH2 0x702 JUMP JUMPDEST DUP2 DUP2 SUB PUSH1 0x20 DUP4 ADD MSTORE PUSH2 0x7B0 DUP2 DUP7 PUSH2 0x753 JUMP JUMPDEST SWAP1 POP DUP2 DUP2 SUB PUSH1 0x40 DUP4 ADD MSTORE PUSH2 0x7C4 DUP2 DUP6 PUSH2 0x753 JUMP JUMPDEST SWAP1 POP PUSH2 0x7D3 PUSH1 0x60 DUP4 ADD DUP5 PUSH2 0x702 JUMP JUMPDEST SWAP6 SWAP5 POP POP POP POP POP JUMP JUMPDEST PUSH0 PUSH1 0x60 DUP3 ADD SWAP1 POP DUP2 DUP2 SUB PUSH0 DUP4 ADD MSTORE PUSH2 0x7F4 DUP2 DUP7 PUSH2 0x753 JUMP JUMPDEST SWAP1 POP DUP2 DUP2 SUB PUSH1 0x20 DUP4 ADD MSTORE PUSH2 0x808 DUP2 DUP6 PUSH2 0x753 JUMP JUMPDEST SWAP1 POP PUSH2 0x817 PUSH1 0x40 DUP4 ADD DUP5 PUSH2 0x702 JUMP JUMPDEST SWAP5 SWAP4 POP POP POP POP JUMP JUMPDEST PUSH32 0x4E487B7100000000000000000000000000000000000000000000000000000000 PUSH0 MSTORE PUSH1 0x22 PUSH1 0x4 MSTORE PUSH1 0x24 PUSH0 REVERT JUMPDEST PUSH0 PUSH1 0x2 DUP3 DIV SWAP1 POP PUSH1 0x1 DUP3 AND DUP1 PUSH2 0x863 JUMPI PUSH1 0x7F DUP3 AND SWAP2 POP JUMPDEST PUSH1 0x20 DUP3 LT DUP2 SUB PUSH2 0x876 JUMPI PUSH2 0x875 PUSH2 0x81F JUMP JUMPDEST JUMPDEST POP SWAP2 SWAP1 POP JUMP JUMPDEST PUSH0 DUP2 SWAP1 POP DUP2 PUSH0 MSTORE PUSH1 0x20 PUSH0 KECCAK256 SWAP1 POP SWAP2 SWAP1 POP JUMP JUMPDEST PUSH0 PUSH1 0x20 PUSH1 0x1F DUP4 ADD DIV SWAP1 POP SWAP2 SWAP1 POP JUMP JUMPDEST PUSH0 DUP3 DUP3 SHL SWAP1 POP SWAP3 SWAP2 POP POP JUMP JUMPDEST PUSH0 PUSH1 0x8 DUP4 MUL PUSH2 0x8D8 PUSH32 0xFFFFFFFFFFFFFFFFFFFFFFFFFFFFFFFFFFFFFFFFFFFFFFFFFFFFFFFFFFFFFFFF DUP3 PUSH2 0x89D JUMP JUMPDEST PUSH2 0x8E2 DUP7 DUP4 PUSH2 0x89D JUMP JUMPDEST SWAP6 POP DUP1 NOT DUP5 AND SWAP4 POP DUP1 DUP7 AND DUP5 OR SWAP3 POP POP POP SWAP4 SWAP3 POP POP POP JUMP JUMPDEST PUSH0 DUP2 SWAP1 POP SWAP2 SWAP1 POP JUMP JUMPDEST PUSH0 PUSH2 0x91D PUSH2 0x918 PUSH2 0x913 DUP5 PUSH2 0x474 JUMP JUMPDEST PUSH2 0x8FA JUMP JUMPDEST PUSH2 0x474 JUMP JUMPDEST SWAP1 POP SWAP2 SWAP1 POP JUMP JUMPDEST PUSH0 DUP2 SWAP1 POP SWAP2 SWAP1 POP JUMP JUMPDEST PUSH2 0x936 DUP4 PUSH2 0x903 JUMP JUMPDEST PUSH2 0x94A PUSH2 0x942 DUP3 PUSH2 0x924 JUMP JUMPDEST DUP5 DUP5 SLOAD PUSH2 0x8A9 JUMP JUMPDEST DUP3 SSTORE POP POP POP POP JUMP JUMPDEST PUSH0 SWAP1 JUMP JUMPDEST PUSH2 0x95E PUSH2 0x952 JUMP JUMPDEST PUSH2 0x969 DUP2 DUP5 DUP5 PUSH2 0x92D JUMP JUMPDEST POP POP POP JUMP JUMPDEST JUMPDEST DUP2 DUP2 LT ISZERO PUSH2 0x98C JUMPI PUSH2 0x981 PUSH0 DUP3 PUSH2 0x956 JUMP JUMPDEST PUSH1 0x1 DUP2 ADD SWAP1 POP PUSH2 0x96F JUMP JUMPDEST POP POP JUMP JUMPDEST PUSH1 0x1F DUP3 GT ISZERO PUSH2 0x9D1 JUMPI PUSH2 0x9A2 DUP2 PUSH2 0x87C JUMP JUMPDEST PUSH2 0x9AB DUP5 PUSH2 0x88E JUMP JUMPDEST DUP2 ADD PUSH1 0x20 DUP6 LT ISZERO PUSH2 0x9BA JUMPI DUP2 SWAP1 POP JUMPDEST PUSH2 0x9CE PUSH2 0x9C6 DUP6 PUSH2 0x88E JUMP JUMPDEST DUP4 ADD DUP3 PUSH2 0x96E JUMP JUMPDEST POP POP JUMPDEST POP POP POP JUMP JUMPDEST PUSH0 DUP3 DUP3 SHR SWAP1 POP SWAP3 SWAP2 POP POP JUMP JUMPDEST PUSH0 PUSH2 0x9F1 PUSH0 NOT DUP5 PUSH1 0x8 MUL PUSH2 0x9D6 JUMP JUMPDEST NOT DUP1 DUP4 AND SWAP2 POP POP SWAP3 SWAP2 POP POP JUMP JUMPDEST PUSH0 PUSH2 0xA09 DUP4 DUP4 PUSH2 0x9E2 JUMP JUMPDEST SWAP2 POP DUP3 PUSH1 0x2 MUL DUP3 OR SWAP1 POP SWAP3 SWAP2 POP POP JUMP JUMPDEST PUSH2 0xA22 DUP3 PUSH2 0x711 JUMP JUMPDEST PUSH8 0xFFFFFFFFFFFFFFFF DUP2 GT ISZERO PUSH2 0xA3B JUMPI PUSH2 0xA3A PUSH2 0x4BF JUMP JUMPDEST JUMPDEST PUSH2 0xA45 DUP3 SLOAD PUSH2 0x84C JUMP JUMPDEST PUSH2 0xA50 DUP3 DUP3 DUP6 PUSH2 0x990 JUMP JUMPDEST PUSH0 PUSH1 0x20 SWAP1 POP PUSH1 0x1F DUP4 GT PUSH1 0x1 DUP2 EQ PUSH2 0xA81 JUMPI PUSH0 DUP5 ISZERO PUSH2 0xA6F JUMPI DUP3 DUP8 ADD MLOAD SWAP1 POP JUMPDEST PUSH2 0xA79 DUP6 DUP3 PUSH2 0x9FE JUMP JUMPDEST DUP7 SSTORE POP PUSH2 0xAE0 JUMP JUMPDEST PUSH1 0x1F NOT DUP5 AND PUSH2 0xA8F DUP7 PUSH2 0x87C JUMP JUMPDEST PUSH0 JUMPDEST DUP3 DUP2 LT ISZERO PUSH2 0xAB6 JUMPI DUP5 DUP10 ADD MLOAD DUP3 SSTORE PUSH1 0x1 DUP3 ADD SWAP2 POP PUSH1 0x20 DUP6 ADD SWAP5 POP PUSH1 0x20 DUP2 ADD SWAP1 POP PUSH2 0xA91 JUMP JUMPDEST DUP7 DUP4 LT ISZERO PUSH2 0xAD3 JUMPI DUP5 DUP10 ADD MLOAD PUSH2 0xACF PUSH1 0x1F DUP10 AND DUP3 PUSH2 0x9E2 JUMP JUMPDEST DUP4 SSTORE POP JUMPDEST PUSH1 0x1 PUSH1 0x2 DUP9 MUL ADD DUP9 SSTORE POP POP POP JUMPDEST POP POP POP POP POP POP JUMP INVALID LOG2 PUSH5 0x6970667358 0x22 SLT KECCAK256 SWAP2 0xAD 0xB4 0xE9 0xD4 PUSH6 0x2CEE46657B25 LT 0xDE 0x5D 0xD0 0xD4 NUMBER 0xC9 XOR PUSH17 0xA6F47AAC8B169DD14AABB664736F6C6343 STOP ADDMOD ISZERO STOP CALLER "
				},
				"gasEstimates": {
					"creation": {
						"codeDepositCost": "569200",
						"executionCost": "24863",
						"totalCost": "594063"
					},
					"external": {
						"addBook(uint256,string,string,uint256)": "infinite",
						"books(uint256)": "infinite",
						"libraryowner()": "2505",
						"queryBook(uint256)": "infinite"
					}
				},
				"methodIdentifiers": {
					"addBook(uint256,string,string,uint256)": "10c24a61",
					"books(uint256)": "68744046",
					"libraryowner()": "686423ba",
					"queryBook(uint256)": "b868145f"
				}
			},
			"storageLayout": {
				"storage": [
					{
						"astId": 3,
						"contract": "contracts/library.sol:Library",
						"label": "libraryowner",
						"offset": 0,
						"slot": "0",
						"type": "t_address"
					},
					{
						"astId": 37,
						"contract": "contracts/library.sol:Library",
						"label": "books",
						"offset": 0,
						"slot": "1",
						"type": "t_mapping(t_uint256,t_struct(Book)32_storage)"
					}
				],
				"types": {
					"t_address": {
						"encoding": "inplace",
						"label": "address",
						"numberOfBytes": "20"
					},
					"t_mapping(t_uint256,t_struct(Book)32_storage)": {
						"encoding": "mapping",
						"key": "t_uint256",
						"label": "mapping(uint256 => struct Library.Book)",
						"numberOfBytes": "32",
						"value": "t_struct(Book)32_storage"
					},
					"t_string_storage": {
						"encoding": "bytes",
						"label": "string",
						"numberOfBytes": "32"
					},
					"t_struct(Book)32_storage": {
						"encoding": "inplace",
						"label": "struct Library.Book",
						"members": [
							{
								"astId": 25,
								"contract": "contracts/library.sol:Library",
								"label": "id",
								"offset": 0,
								"slot": "0",
								"type": "t_uint256"
							},
							{
								"astId": 27,
								"contract": "contracts/library.sol:Library",
								"label": "name",
								"offset": 0,
								"slot": "1",
								"type": "t_string_storage"
							},
							{
								"astId": 29,
								"contract": "contracts/library.sol:Library",
								"label": "author",
								"offset": 0,
								"slot": "2",
								"type": "t_string_storage"
							},
							{
								"astId": 31,
								"contract": "contracts/library.sol:Library",
								"label": "value",
								"offset": 0,
								"slot": "3",
								"type": "t_uint256"
							}
						],
						"numberOfBytes": "128"
					},
					"t_uint256": {
						"encoding": "inplace",
						"label": "uint256",
						"numberOfBytes": "32"
					}
				}
			},
			"userdoc": {
				"kind": "user",
				"methods": {},
				"version": 1
			}
		}
	}
}