{
	"contracts/lottery.sol": {
		"Lottery": {
			"abi": [
				{
					"inputs": [
						{
							"internalType": "uint256",
							"name": "_startTime",
							"type": "uint256"
						},
						{
							"internalType": "uint256",
							"name": "_endTime",
							"type": "uint256"
						}
					],
					"stateMutability": "nonpayable",
					"type": "constructor"
				},
				{
					"inputs": [],
					"name": "getBalance",
					"outputs": [
						{
							"internalType": "uint256",
							"name": "",
							"type": "uint256"
						}
					],
					"stateMutability": "view",
					"type": "function"
				},
				{
					"inputs": [],
					"name": "getLotteryAmount",
					"outputs": [],
					"stateMutability": "nonpayable",
					"type": "function"
				},
				{
					"inputs": [],
					"name": "getWinner",
					"outputs": [
						{
							"internalType": "address",
							"name": "",
							"type": "address"
						}
					],
					"stateMutability": "nonpayable",
					"type": "function"
				},
				{
					"inputs": [],
					"name": "lotterystate",
					"outputs": [
						{
							"internalType": "enum Lottery.LotteryState",
							"name": "",
							"type": "uint8"
						}
					],
					"stateMutability": "view",
					"type": "function"
				},
				{
					"inputs": [],
					"name": "manager",
					"outputs": [
						{
							"internalType": "address",
							"name": "",
							"type": "address"
						}
					],
					"stateMutability": "view",
					"type": "function"
				},
				{
					"inputs": [],
					"name": "participate",
					"outputs": [],
					"stateMutability": "payable",
					"type": "function"
				},
				{
					"inputs": [],
					"name": "winner",
					"outputs": [
						{
							"internalType": "address payable",
							"name": "",
							"type": "address"
						}
					],
					"stateMutability": "view",
					"type": "function"
				}
			],
			"devdoc": {
				"kind": "dev",
				"methods": {},
				"version": 1
			},
			"evm": {
				"assembly": "    /* \"contracts/lottery.sol\":57:1511  contract Lottery{... */\n  mstore(0x40, 0x80)\n    /* \"contracts/lottery.sol\":315:503  constructor(uint _startTime,uint _endTime){... */\n  callvalue\n  dup1\n  iszero\n  tag_1\n  jumpi\n  0x00\n  dup1\n  revert\ntag_1:\n  pop\n  mload(0x40)\n  sub(codesize, bytecodeSize)\n  dup1\n  bytecodeSize\n  dup4\n  codecopy\n  dup2\n  dup2\n  add\n  0x40\n  mstore\n  dup2\n  add\n  swap1\n  tag_2\n  swap2\n  swap1\n  tag_3\n  jump\t// in\ntag_2:\n    /* \"contracts/lottery.sol\":378:388  msg.sender */\n  caller\n    /* \"contracts/lottery.sol\":368:375  manager */\n  0x00\n  dup1\n    /* \"contracts/lottery.sol\":368:388  manager = msg.sender */\n  0x0100\n  exp\n  dup2\n  sload\n  dup2\n  0xffffffffffffffffffffffffffffffffffffffff\n  mul\n  not\n  and\n  swap1\n  dup4\n  0xffffffffffffffffffffffffffffffffffffffff\n  and\n  mul\n  or\n  swap1\n  sstore\n  pop\n    /* \"contracts/lottery.sol\":414:433  LotteryState.closed */\n  0x00\n    /* \"contracts/lottery.sol\":399:411  lotterystate */\n  0x05\n  0x00\n    /* \"contracts/lottery.sol\":399:433  lotterystate = LotteryState.closed */\n  0x0100\n  exp\n  dup2\n  sload\n  dup2\n  0xff\n  mul\n  not\n  and\n  swap1\n  dup4\n  0x01\n  dup2\n  gt\n  iszero\n  tag_6\n  jumpi\n  tag_7\n  tag_8\n  jump\t// in\ntag_7:\ntag_6:\n  mul\n  or\n  swap1\n  sstore\n  pop\n    /* \"contracts/lottery.sol\":456:466  _startTime */\n  dup2\n    /* \"contracts/lottery.sol\":444:453  startTime */\n  0x03\n    /* \"contracts/lottery.sol\":444:466  startTime = _startTime */\n  dup2\n  swap1\n  sstore\n  pop\n    /* \"contracts/lottery.sol\":487:495  _endTime */\n  dup1\n    /* \"contracts/lottery.sol\":477:484  endTime */\n  0x04\n    /* \"contracts/lottery.sol\":477:495  endTime = _endTime */\n  dup2\n  swap1\n  sstore\n  pop\n    /* \"contracts/lottery.sol\":315:503  constructor(uint _startTime,uint _endTime){... */\n  pop\n  pop\n    /* \"contracts/lottery.sol\":57:1511  contract Lottery{... */\n  jump(tag_9)\n    /* \"#utility.yul\":88:205   */\ntag_11:\n    /* \"#utility.yul\":197:198   */\n  0x00\n    /* \"#utility.yul\":194:195   */\n  dup1\n    /* \"#utility.yul\":187:199   */\n  revert\n    /* \"#utility.yul\":334:411   */\ntag_13:\n    /* \"#utility.yul\":371:378   */\n  0x00\n    /* \"#utility.yul\":400:405   */\n  dup2\n    /* \"#utility.yul\":389:405   */\n  swap1\n  pop\n    /* \"#utility.yul\":334:411   */\n  swap2\n  swap1\n  pop\n  jump\t// out\n    /* \"#utility.yul\":417:539   */\ntag_14:\n    /* \"#utility.yul\":490:514   */\n  tag_22\n    /* \"#utility.yul\":508:513   */\n  dup2\n    /* \"#utility.yul\":490:514   */\n  tag_13\n  jump\t// in\ntag_22:\n    /* \"#utility.yul\":483:488   */\n  dup2\n    /* \"#utility.yul\":480:515   */\n  eq\n    /* \"#utility.yul\":470:533   */\n  tag_23\n  jumpi\n    /* \"#utility.yul\":529:530   */\n  0x00\n    /* \"#utility.yul\":526:527   */\n  dup1\n    /* \"#utility.yul\":519:531   */\n  revert\n    /* \"#utility.yul\":470:533   */\ntag_23:\n    /* \"#utility.yul\":417:539   */\n  pop\n  jump\t// out\n    /* \"#utility.yul\":545:688   */\ntag_15:\n    /* \"#utility.yul\":602:607   */\n  0x00\n    /* \"#utility.yul\":633:639   */\n  dup2\n    /* \"#utility.yul\":627:640   */\n  mload\n    /* \"#utility.yul\":618:640   */\n  swap1\n  pop\n    /* \"#utility.yul\":649:682   */\n  tag_25\n    /* \"#utility.yul\":676:681   */\n  dup2\n    /* \"#utility.yul\":649:682   */\n  tag_14\n  jump\t// in\ntag_25:\n    /* \"#utility.yul\":545:688   */\n  swap3\n  swap2\n  pop\n  pop\n  jump\t// out\n    /* \"#utility.yul\":694:1201   */\ntag_3:\n    /* \"#utility.yul\":773:779   */\n  0x00\n    /* \"#utility.yul\":781:787   */\n  dup1\n    /* \"#utility.yul\":830:832   */\n  0x40\n    /* \"#utility.yul\":818:827   */\n  dup4\n    /* \"#utility.yul\":809:816   */\n  dup6\n    /* \"#utility.yul\":805:828   */\n  sub\n    /* \"#utility.yul\":801:833   */\n  slt\n    /* \"#utility.yul\":798:917   */\n  iszero\n  tag_27\n  jumpi\n    /* \"#utility.yul\":836:915   */\n  tag_28\n  tag_11\n  jump\t// in\ntag_28:\n    /* \"#utility.yul\":798:917   */\ntag_27:\n    /* \"#utility.yul\":956:957   */\n  0x00\n    /* \"#utility.yul\":981:1045   */\n  tag_29\n    /* \"#utility.yul\":1037:1044   */\n  dup6\n    /* \"#utility.yul\":1028:1034   */\n  dup3\n    /* \"#utility.yul\":1017:1026   */\n  dup7\n    /* \"#utility.yul\":1013:1035   */\n  add\n    /* \"#utility.yul\":981:1045   */\n  tag_15\n  jump\t// in\ntag_29:\n    /* \"#utility.yul\":971:1045   */\n  swap3\n  pop\n    /* \"#utility.yul\":927:1055   */\n  pop\n    /* \"#utility.yul\":1094:1096   */\n  0x20\n    /* \"#utility.yul\":1120:1184   */\n  tag_30\n    /* \"#utility.yul\":1176:1183   */\n  dup6\n    /* \"#utility.yul\":1167:1173   */\n  dup3\n    /* \"#utility.yul\":1156:1165   */\n  dup7\n    /* \"#utility.yul\":1152:1174   */\n  add\n    /* \"#utility.yul\":1120:1184   */\n  tag_15\n  jump\t// in\ntag_30:\n    /* \"#utility.yul\":1110:1184   */\n  swap2\n  pop\n    /* \"#utility.yul\":1065:1194   */\n  pop\n    /* \"#utility.yul\":694:1201   */\n  swap3\n  pop\n  swap3\n  swap1\n  pop\n  jump\t// out\n    /* \"#utility.yul\":1207:1387   */\ntag_8:\n    /* \"#utility.yul\":1255:1332   */\n  0x4e487b7100000000000000000000000000000000000000000000000000000000\n    /* \"#utility.yul\":1252:1253   */\n  0x00\n    /* \"#utility.yul\":1245:1333   */\n  mstore\n    /* \"#utility.yul\":1352:1356   */\n  0x21\n    /* \"#utility.yul\":1349:1350   */\n  0x04\n    /* \"#utility.yul\":1342:1357   */\n  mstore\n    /* \"#utility.yul\":1376:1380   */\n  0x24\n    /* \"#utility.yul\":1373:1374   */\n  0x00\n    /* \"#utility.yul\":1366:1381   */\n  revert\n    /* \"contracts/lottery.sol\":57:1511  contract Lottery{... */\ntag_9:\n  dataSize(sub_0)\n  dup1\n  dataOffset(sub_0)\n  0x00\n  codecopy\n  0x00\n  return\nstop\n\nsub_0: assembly {\n        /* \"contracts/lottery.sol\":57:1511  contract Lottery{... */\n      mstore(0x40, 0x80)\n      jumpi(tag_1, lt(calldatasize, 0x04))\n      shr(0xe0, calldataload(0x00))\n      dup1\n      0x8e7ea5b2\n      gt\n      tag_9\n      jumpi\n      dup1\n      0x8e7ea5b2\n      eq\n      tag_5\n      jumpi\n      dup1\n      0xa537e19d\n      eq\n      tag_6\n      jumpi\n      dup1\n      0xd11711a2\n      eq\n      tag_7\n      jumpi\n      dup1\n      0xdfbf53ae\n      eq\n      tag_8\n      jumpi\n      jump(tag_1)\n    tag_9:\n      dup1\n      0x12065fe0\n      eq\n      tag_2\n      jumpi\n      dup1\n      0x481c6a75\n      eq\n      tag_3\n      jumpi\n      dup1\n      0x69bb9269\n      eq\n      tag_4\n      jumpi\n    tag_1:\n      0x00\n      dup1\n      revert\n        /* \"contracts/lottery.sol\":889:996  function getBalance() public view onlyManager()returns(uint){... */\n    tag_2:\n      callvalue\n      dup1\n      iszero\n      tag_10\n      jumpi\n      0x00\n      dup1\n      revert\n    tag_10:\n      pop\n      tag_11\n      tag_12\n      jump\t// in\n    tag_11:\n      mload(0x40)\n      tag_13\n      swap2\n      swap1\n      tag_14\n      jump\t// in\n    tag_13:\n      mload(0x40)\n      dup1\n      swap2\n      sub\n      swap1\n      return\n        /* \"contracts/lottery.sol\":80:102  address public manager */\n    tag_3:\n      callvalue\n      dup1\n      iszero\n      tag_15\n      jumpi\n      0x00\n      dup1\n      revert\n    tag_15:\n      pop\n      tag_16\n      tag_17\n      jump\t// in\n    tag_16:\n      mload(0x40)\n      tag_18\n      swap2\n      swap1\n      tag_19\n      jump\t// in\n    tag_18:\n      mload(0x40)\n      dup1\n      swap2\n      sub\n      swap1\n      return\n        /* \"contracts/lottery.sol\":276:308  LotteryState public lotterystate */\n    tag_4:\n      callvalue\n      dup1\n      iszero\n      tag_20\n      jumpi\n      0x00\n      dup1\n      revert\n    tag_20:\n      pop\n      tag_21\n      tag_22\n      jump\t// in\n    tag_21:\n      mload(0x40)\n      tag_23\n      swap2\n      swap1\n      tag_24\n      jump\t// in\n    tag_23:\n      mload(0x40)\n      dup1\n      swap2\n      sub\n      swap1\n      return\n        /* \"contracts/lottery.sol\":1002:1411  function getWinner() public returns(address) {... */\n    tag_5:\n      callvalue\n      dup1\n      iszero\n      tag_25\n      jumpi\n      0x00\n      dup1\n      revert\n    tag_25:\n      pop\n      tag_26\n      tag_27\n      jump\t// in\n    tag_26:\n      mload(0x40)\n      tag_28\n      swap2\n      swap1\n      tag_19\n      jump\t// in\n    tag_28:\n      mload(0x40)\n      dup1\n      swap2\n      sub\n      swap1\n      return\n        /* \"contracts/lottery.sol\":1417:1506  function getLotteryAmount() public{... */\n    tag_6:\n      callvalue\n      dup1\n      iszero\n      tag_29\n      jumpi\n      0x00\n      dup1\n      revert\n    tag_29:\n      pop\n      tag_30\n      tag_31\n      jump\t// in\n    tag_30:\n      stop\n        /* \"contracts/lottery.sol\":625:883  function participate() public payable{... */\n    tag_7:\n      tag_32\n      tag_33\n      jump\t// in\n    tag_32:\n      stop\n        /* \"contracts/lottery.sol\":138:167  address payable public winner */\n    tag_8:\n      callvalue\n      dup1\n      iszero\n      tag_34\n      jumpi\n      0x00\n      dup1\n      revert\n    tag_34:\n      pop\n      tag_35\n      tag_36\n      jump\t// in\n    tag_35:\n      mload(0x40)\n      tag_37\n      swap2\n      swap1\n      tag_38\n      jump\t// in\n    tag_37:\n      mload(0x40)\n      dup1\n      swap2\n      sub\n      swap1\n      return\n        /* \"contracts/lottery.sol\":889:996  function getBalance() public view onlyManager()returns(uint){... */\n    tag_12:\n        /* \"contracts/lottery.sol\":944:948  uint */\n      0x00\n        /* \"contracts/lottery.sol\":561:571  msg.sender */\n      caller\n        /* \"contracts/lottery.sol\":550:571  manager == msg.sender */\n      0xffffffffffffffffffffffffffffffffffffffff\n      and\n        /* \"contracts/lottery.sol\":550:557  manager */\n      0x00\n      dup1\n      sload\n      swap1\n      0x0100\n      exp\n      swap1\n      div\n      0xffffffffffffffffffffffffffffffffffffffff\n      and\n        /* \"contracts/lottery.sol\":550:571  manager == msg.sender */\n      0xffffffffffffffffffffffffffffffffffffffff\n      and\n      eq\n        /* \"contracts/lottery.sol\":542:599  require(manager == msg.sender,\"Your are not the manager\") */\n      tag_40\n      jumpi\n      mload(0x40)\n      0x08c379a000000000000000000000000000000000000000000000000000000000\n      dup2\n      mstore\n      0x04\n      add\n      tag_41\n      swap1\n      tag_42\n      jump\t// in\n    tag_41:\n      mload(0x40)\n      dup1\n      swap2\n      sub\n      swap1\n      revert\n    tag_40:\n        /* \"contracts/lottery.sol\":967:988  address(this).balance */\n      selfbalance\n        /* \"contracts/lottery.sol\":960:988  return address(this).balance */\n      swap1\n      pop\n        /* \"contracts/lottery.sol\":889:996  function getBalance() public view onlyManager()returns(uint){... */\n      swap1\n      jump\t// out\n        /* \"contracts/lottery.sol\":80:102  address public manager */\n    tag_17:\n      0x00\n      dup1\n      sload\n      swap1\n      0x0100\n      exp\n      swap1\n      div\n      0xffffffffffffffffffffffffffffffffffffffff\n      and\n      dup2\n      jump\t// out\n        /* \"contracts/lottery.sol\":276:308  LotteryState public lotterystate */\n    tag_22:\n      0x05\n      0x00\n      swap1\n      sload\n      swap1\n      0x0100\n      exp\n      swap1\n      div\n      0xff\n      and\n      dup2\n      jump\t// out\n        /* \"contracts/lottery.sol\":1002:1411  function getWinner() public returns(address) {... */\n    tag_27:\n        /* \"contracts/lottery.sol\":1038:1045  address */\n      0x00\n        /* \"contracts/lottery.sol\":1078:1085  endTime */\n      sload(0x04)\n        /* \"contracts/lottery.sol\":1066:1075  startTime */\n      sload(0x03)\n        /* \"contracts/lottery.sol\":1066:1085  startTime < endTime */\n      lt\n        /* \"contracts/lottery.sol\":1058:1114  require(startTime < endTime, \"Lottery period has Ended\") */\n      tag_45\n      jumpi\n      mload(0x40)\n      0x08c379a000000000000000000000000000000000000000000000000000000000\n      dup2\n      mstore\n      0x04\n      add\n      tag_46\n      swap1\n      tag_47\n      jump\t// in\n    tag_46:\n      mload(0x40)\n      dup1\n      swap2\n      sub\n      swap1\n      revert\n    tag_45:\n        /* \"contracts/lottery.sol\":1148:1149  3 */\n      0x03\n        /* \"contracts/lottery.sol\":1133:1137  team */\n      0x01\n        /* \"contracts/lottery.sol\":1133:1144  team.length */\n      dup1\n      sload\n      swap1\n      pop\n        /* \"contracts/lottery.sol\":1133:1149  team.length >= 3 */\n      lt\n      iszero\n        /* \"contracts/lottery.sol\":1125:1190  require(team.length >= 3,\"Players should not be less than THREE\") */\n      tag_48\n      jumpi\n      mload(0x40)\n      0x08c379a000000000000000000000000000000000000000000000000000000000\n      dup2\n      mstore\n      0x04\n      add\n      tag_49\n      swap1\n      tag_50\n      jump\t// in\n    tag_49:\n      mload(0x40)\n      dup1\n      swap2\n      sub\n      swap1\n      revert\n    tag_48:\n        /* \"contracts/lottery.sol\":1201:1207  uint k */\n      0x00\n        /* \"contracts/lottery.sol\":1242:1257  block.timestamp */\n      timestamp\n        /* \"contracts/lottery.sol\":1258:1262  team */\n      0x01\n        /* \"contracts/lottery.sol\":1258:1269  team.length */\n      dup1\n      sload\n      swap1\n      pop\n        /* \"contracts/lottery.sol\":1225:1270  abi.encodePacked(block.timestamp,team.length) */\n      add(0x20, mload(0x40))\n      tag_51\n      swap3\n      swap2\n      swap1\n      tag_52\n      jump\t// in\n    tag_51:\n      mload(0x40)\n      0x20\n      dup2\n      dup4\n      sub\n      sub\n      dup2\n      mstore\n      swap1\n      0x40\n      mstore\n        /* \"contracts/lottery.sol\":1215:1271  keccak256(abi.encodePacked(block.timestamp,team.length)) */\n      dup1\n      mload\n      swap1\n      0x20\n      add\n      keccak256\n        /* \"contracts/lottery.sol\":1210:1272  uint(keccak256(abi.encodePacked(block.timestamp,team.length))) */\n      0x00\n      shr\n        /* \"contracts/lottery.sol\":1201:1272  uint k = uint(keccak256(abi.encodePacked(block.timestamp,team.length))) */\n      swap1\n      pop\n        /* \"contracts/lottery.sol\":1283:1289  uint t */\n      0x00\n        /* \"contracts/lottery.sol\":1296:1300  team */\n      0x01\n        /* \"contracts/lottery.sol\":1296:1307  team.length */\n      dup1\n      sload\n      swap1\n      pop\n        /* \"contracts/lottery.sol\":1292:1293  k */\n      dup3\n        /* \"contracts/lottery.sol\":1292:1307  k % team.length */\n      tag_53\n      swap2\n      swap1\n      tag_54\n      jump\t// in\n    tag_53:\n        /* \"contracts/lottery.sol\":1283:1307  uint t = k % team.length */\n      swap1\n      pop\n        /* \"contracts/lottery.sol\":1327:1331  team */\n      0x01\n        /* \"contracts/lottery.sol\":1332:1333  t */\n      dup2\n        /* \"contracts/lottery.sol\":1327:1334  team[t] */\n      dup2\n      sload\n      dup2\n      lt\n      tag_55\n      jumpi\n      tag_56\n      tag_57\n      jump\t// in\n    tag_56:\n    tag_55:\n      swap1\n      0x00\n      mstore\n      keccak256(0x00, 0x20)\n      add\n      0x00\n      swap1\n      sload\n      swap1\n      0x0100\n      exp\n      swap1\n      div\n      0xffffffffffffffffffffffffffffffffffffffff\n      and\n        /* \"contracts/lottery.sol\":1318:1324  winner */\n      0x02\n      0x00\n        /* \"contracts/lottery.sol\":1318:1334  winner = team[t] */\n      0x0100\n      exp\n      dup2\n      sload\n      dup2\n      0xffffffffffffffffffffffffffffffffffffffff\n      mul\n      not\n      and\n      swap1\n      dup4\n      0xffffffffffffffffffffffffffffffffffffffff\n      and\n      mul\n      or\n      swap1\n      sstore\n      pop\n        /* \"contracts/lottery.sol\":1360:1379  LotteryState.closed */\n      0x00\n        /* \"contracts/lottery.sol\":1345:1357  lotterystate */\n      0x05\n      0x00\n        /* \"contracts/lottery.sol\":1345:1379  lotterystate = LotteryState.closed */\n      0x0100\n      exp\n      dup2\n      sload\n      dup2\n      0xff\n      mul\n      not\n      and\n      swap1\n      dup4\n      0x01\n      dup2\n      gt\n      iszero\n      tag_59\n      jumpi\n      tag_60\n      tag_61\n      jump\t// in\n    tag_60:\n    tag_59:\n      mul\n      or\n      swap1\n      sstore\n      pop\n        /* \"contracts/lottery.sol\":1397:1403  winner */\n      0x02\n      0x00\n      swap1\n      sload\n      swap1\n      0x0100\n      exp\n      swap1\n      div\n      0xffffffffffffffffffffffffffffffffffffffff\n      and\n        /* \"contracts/lottery.sol\":1390:1403  return winner */\n      swap3\n      pop\n      pop\n      pop\n        /* \"contracts/lottery.sol\":1002:1411  function getWinner() public returns(address) {... */\n      swap1\n      jump\t// out\n        /* \"contracts/lottery.sol\":1417:1506  function getLotteryAmount() public{... */\n    tag_31:\n        /* \"contracts/lottery.sol\":1469:1475  winner */\n      0x02\n      0x00\n      swap1\n      sload\n      swap1\n      0x0100\n      exp\n      swap1\n      div\n      0xffffffffffffffffffffffffffffffffffffffff\n      and\n        /* \"contracts/lottery.sol\":1469:1484  winner.transfer */\n      0xffffffffffffffffffffffffffffffffffffffff\n      and\n        /* \"contracts/lottery.sol\":1469:1498  winner.transfer(getBalance()) */\n      0x08fc\n        /* \"contracts/lottery.sol\":1485:1497  getBalance() */\n      tag_63\n        /* \"contracts/lottery.sol\":1485:1495  getBalance */\n      tag_12\n        /* \"contracts/lottery.sol\":1485:1497  getBalance() */\n      jump\t// in\n    tag_63:\n        /* \"contracts/lottery.sol\":1469:1498  winner.transfer(getBalance()) */\n      swap1\n      dup2\n      iszero\n      mul\n      swap1\n      mload(0x40)\n      0x00\n      mload(0x40)\n      dup1\n      dup4\n      sub\n      dup2\n      dup6\n      dup9\n      dup9\n      call\n      swap4\n      pop\n      pop\n      pop\n      pop\n      iszero\n      dup1\n      iszero\n      tag_65\n      jumpi\n      returndatasize\n      0x00\n      dup1\n      returndatacopy\n      revert(0x00, returndatasize)\n    tag_65:\n      pop\n        /* \"contracts/lottery.sol\":1417:1506  function getLotteryAmount() public{... */\n      jump\t// out\n        /* \"contracts/lottery.sol\":625:883  function participate() public payable{... */\n    tag_33:\n        /* \"contracts/lottery.sol\":692:699  endTime */\n      sload(0x04)\n        /* \"contracts/lottery.sol\":680:689  startTime */\n      sload(0x03)\n        /* \"contracts/lottery.sol\":680:699  startTime < endTime */\n      lt\n        /* \"contracts/lottery.sol\":672:728  require(startTime < endTime, \"Lottery period has Ended\") */\n      tag_67\n      jumpi\n      mload(0x40)\n      0x08c379a000000000000000000000000000000000000000000000000000000000\n      dup2\n      mstore\n      0x04\n      add\n      tag_68\n      swap1\n      tag_47\n      jump\t// in\n    tag_68:\n      mload(0x40)\n      dup1\n      swap2\n      sub\n      swap1\n      revert\n    tag_67:\n        /* \"contracts/lottery.sol\":759:766  2 ether */\n      0x1bc16d674ec80000\n        /* \"contracts/lottery.sol\":746:755  msg.value */\n      callvalue\n        /* \"contracts/lottery.sol\":746:766  msg.value >= 2 ether */\n      lt\n      iszero\n        /* \"contracts/lottery.sol\":738:793  require(msg.value >= 2 ether, \"Pay atleast two ethers\") */\n      tag_69\n      jumpi\n      mload(0x40)\n      0x08c379a000000000000000000000000000000000000000000000000000000000\n      dup2\n      mstore\n      0x04\n      add\n      tag_70\n      swap1\n      tag_71\n      jump\t// in\n    tag_70:\n      mload(0x40)\n      dup1\n      swap2\n      sub\n      swap1\n      revert\n    tag_69:\n        /* \"contracts/lottery.sol\":818:835  LotteryState.open */\n      0x01\n        /* \"contracts/lottery.sol\":803:815  lotterystate */\n      0x05\n      0x00\n        /* \"contracts/lottery.sol\":803:835  lotterystate = LotteryState.open */\n      0x0100\n      exp\n      dup2\n      sload\n      dup2\n      0xff\n      mul\n      not\n      and\n      swap1\n      dup4\n      0x01\n      dup2\n      gt\n      iszero\n      tag_72\n      jumpi\n      tag_73\n      tag_61\n      jump\t// in\n    tag_73:\n    tag_72:\n      mul\n      or\n      swap1\n      sstore\n      pop\n        /* \"contracts/lottery.sol\":845:849  team */\n      0x01\n        /* \"contracts/lottery.sol\":863:873  msg.sender */\n      caller\n        /* \"contracts/lottery.sol\":845:875  team.push(payable(msg.sender)) */\n      swap1\n      dup1\n      0x01\n      dup2\n      sload\n      add\n      dup1\n      dup3\n      sstore\n      dup1\n      swap2\n      pop\n      pop\n      0x01\n      swap1\n      sub\n      swap1\n      0x00\n      mstore\n      keccak256(0x00, 0x20)\n      add\n      0x00\n      swap1\n      swap2\n      swap1\n      swap2\n      swap1\n      swap2\n      0x0100\n      exp\n      dup2\n      sload\n      dup2\n      0xffffffffffffffffffffffffffffffffffffffff\n      mul\n      not\n      and\n      swap1\n      dup4\n      0xffffffffffffffffffffffffffffffffffffffff\n      and\n      mul\n      or\n      swap1\n      sstore\n      pop\n        /* \"contracts/lottery.sol\":625:883  function participate() public payable{... */\n      jump\t// out\n        /* \"contracts/lottery.sol\":138:167  address payable public winner */\n    tag_36:\n      0x02\n      0x00\n      swap1\n      sload\n      swap1\n      0x0100\n      exp\n      swap1\n      div\n      0xffffffffffffffffffffffffffffffffffffffff\n      and\n      dup2\n      jump\t// out\n        /* \"#utility.yul\":7:84   */\n    tag_75:\n        /* \"#utility.yul\":44:51   */\n      0x00\n        /* \"#utility.yul\":73:78   */\n      dup2\n        /* \"#utility.yul\":62:78   */\n      swap1\n      pop\n        /* \"#utility.yul\":7:84   */\n      swap2\n      swap1\n      pop\n      jump\t// out\n        /* \"#utility.yul\":90:208   */\n    tag_76:\n        /* \"#utility.yul\":177:201   */\n      tag_101\n        /* \"#utility.yul\":195:200   */\n      dup2\n        /* \"#utility.yul\":177:201   */\n      tag_75\n      jump\t// in\n    tag_101:\n        /* \"#utility.yul\":172:175   */\n      dup3\n        /* \"#utility.yul\":165:202   */\n      mstore\n        /* \"#utility.yul\":90:208   */\n      pop\n      pop\n      jump\t// out\n        /* \"#utility.yul\":214:436   */\n    tag_14:\n        /* \"#utility.yul\":307:311   */\n      0x00\n        /* \"#utility.yul\":345:347   */\n      0x20\n        /* \"#utility.yul\":334:343   */\n      dup3\n        /* \"#utility.yul\":330:348   */\n      add\n        /* \"#utility.yul\":322:348   */\n      swap1\n      pop\n        /* \"#utility.yul\":358:429   */\n      tag_103\n        /* \"#utility.yul\":426:427   */\n      0x00\n        /* \"#utility.yul\":415:424   */\n      dup4\n        /* \"#utility.yul\":411:428   */\n      add\n        /* \"#utility.yul\":402:408   */\n      dup5\n        /* \"#utility.yul\":358:429   */\n      tag_76\n      jump\t// in\n    tag_103:\n        /* \"#utility.yul\":214:436   */\n      swap3\n      swap2\n      pop\n      pop\n      jump\t// out\n        /* \"#utility.yul\":442:568   */\n    tag_77:\n        /* \"#utility.yul\":479:486   */\n      0x00\n        /* \"#utility.yul\":519:561   */\n      0xffffffffffffffffffffffffffffffffffffffff\n        /* \"#utility.yul\":512:517   */\n      dup3\n        /* \"#utility.yul\":508:562   */\n      and\n        /* \"#utility.yul\":497:562   */\n      swap1\n      pop\n        /* \"#utility.yul\":442:568   */\n      swap2\n      swap1\n      pop\n      jump\t// out\n        /* \"#utility.yul\":574:670   */\n    tag_78:\n        /* \"#utility.yul\":611:618   */\n      0x00\n        /* \"#utility.yul\":640:664   */\n      tag_106\n        /* \"#utility.yul\":658:663   */\n      dup3\n        /* \"#utility.yul\":640:664   */\n      tag_77\n      jump\t// in\n    tag_106:\n        /* \"#utility.yul\":629:664   */\n      swap1\n      pop\n        /* \"#utility.yul\":574:670   */\n      swap2\n      swap1\n      pop\n      jump\t// out\n        /* \"#utility.yul\":676:794   */\n    tag_79:\n        /* \"#utility.yul\":763:787   */\n      tag_108\n        /* \"#utility.yul\":781:786   */\n      dup2\n        /* \"#utility.yul\":763:787   */\n      tag_78\n      jump\t// in\n    tag_108:\n        /* \"#utility.yul\":758:761   */\n      dup3\n        /* \"#utility.yul\":751:788   */\n      mstore\n        /* \"#utility.yul\":676:794   */\n      pop\n      pop\n      jump\t// out\n        /* \"#utility.yul\":800:1022   */\n    tag_19:\n        /* \"#utility.yul\":893:897   */\n      0x00\n        /* \"#utility.yul\":931:933   */\n      0x20\n        /* \"#utility.yul\":920:929   */\n      dup3\n        /* \"#utility.yul\":916:934   */\n      add\n        /* \"#utility.yul\":908:934   */\n      swap1\n      pop\n        /* \"#utility.yul\":944:1015   */\n      tag_110\n        /* \"#utility.yul\":1012:1013   */\n      0x00\n        /* \"#utility.yul\":1001:1010   */\n      dup4\n        /* \"#utility.yul\":997:1014   */\n      add\n        /* \"#utility.yul\":988:994   */\n      dup5\n        /* \"#utility.yul\":944:1015   */\n      tag_79\n      jump\t// in\n    tag_110:\n        /* \"#utility.yul\":800:1022   */\n      swap3\n      swap2\n      pop\n      pop\n      jump\t// out\n        /* \"#utility.yul\":1028:1208   */\n    tag_61:\n        /* \"#utility.yul\":1076:1153   */\n      0x4e487b7100000000000000000000000000000000000000000000000000000000\n        /* \"#utility.yul\":1073:1074   */\n      0x00\n        /* \"#utility.yul\":1066:1154   */\n      mstore\n        /* \"#utility.yul\":1173:1177   */\n      0x21\n        /* \"#utility.yul\":1170:1171   */\n      0x04\n        /* \"#utility.yul\":1163:1178   */\n      mstore\n        /* \"#utility.yul\":1197:1201   */\n      0x24\n        /* \"#utility.yul\":1194:1195   */\n      0x00\n        /* \"#utility.yul\":1187:1202   */\n      revert\n        /* \"#utility.yul\":1214:1334   */\n    tag_80:\n        /* \"#utility.yul\":1302:1303   */\n      0x02\n        /* \"#utility.yul\":1295:1300   */\n      dup2\n        /* \"#utility.yul\":1292:1304   */\n      lt\n        /* \"#utility.yul\":1282:1328   */\n      tag_113\n      jumpi\n        /* \"#utility.yul\":1308:1326   */\n      tag_114\n      tag_61\n      jump\t// in\n    tag_114:\n        /* \"#utility.yul\":1282:1328   */\n    tag_113:\n        /* \"#utility.yul\":1214:1334   */\n      pop\n      jump\t// out\n        /* \"#utility.yul\":1340:1481   */\n    tag_81:\n        /* \"#utility.yul\":1392:1399   */\n      0x00\n        /* \"#utility.yul\":1421:1426   */\n      dup2\n        /* \"#utility.yul\":1410:1426   */\n      swap1\n      pop\n        /* \"#utility.yul\":1427:1475   */\n      tag_116\n        /* \"#utility.yul\":1469:1474   */\n      dup3\n        /* \"#utility.yul\":1427:1475   */\n      tag_80\n      jump\t// in\n    tag_116:\n        /* \"#utility.yul\":1340:1481   */\n      swap2\n      swap1\n      pop\n      jump\t// out\n        /* \"#utility.yul\":1487:1628   */\n    tag_82:\n        /* \"#utility.yul\":1550:1559   */\n      0x00\n        /* \"#utility.yul\":1583:1622   */\n      tag_118\n        /* \"#utility.yul\":1616:1621   */\n      dup3\n        /* \"#utility.yul\":1583:1622   */\n      tag_81\n      jump\t// in\n    tag_118:\n        /* \"#utility.yul\":1570:1622   */\n      swap1\n      pop\n        /* \"#utility.yul\":1487:1628   */\n      swap2\n      swap1\n      pop\n      jump\t// out\n        /* \"#utility.yul\":1634:1791   */\n    tag_83:\n        /* \"#utility.yul\":1734:1784   */\n      tag_120\n        /* \"#utility.yul\":1778:1783   */\n      dup2\n        /* \"#utility.yul\":1734:1784   */\n      tag_82\n      jump\t// in\n    tag_120:\n        /* \"#utility.yul\":1729:1732   */\n      dup3\n        /* \"#utility.yul\":1722:1785   */\n      mstore\n        /* \"#utility.yul\":1634:1791   */\n      pop\n      pop\n      jump\t// out\n        /* \"#utility.yul\":1797:2045   */\n    tag_24:\n        /* \"#utility.yul\":1903:1907   */\n      0x00\n        /* \"#utility.yul\":1941:1943   */\n      0x20\n        /* \"#utility.yul\":1930:1939   */\n      dup3\n        /* \"#utility.yul\":1926:1944   */\n      add\n        /* \"#utility.yul\":1918:1944   */\n      swap1\n      pop\n        /* \"#utility.yul\":1954:2038   */\n      tag_122\n        /* \"#utility.yul\":2035:2036   */\n      0x00\n        /* \"#utility.yul\":2024:2033   */\n      dup4\n        /* \"#utility.yul\":2020:2037   */\n      add\n        /* \"#utility.yul\":2011:2017   */\n      dup5\n        /* \"#utility.yul\":1954:2038   */\n      tag_83\n      jump\t// in\n    tag_122:\n        /* \"#utility.yul\":1797:2045   */\n      swap3\n      swap2\n      pop\n      pop\n      jump\t// out\n        /* \"#utility.yul\":2051:2155   */\n    tag_84:\n        /* \"#utility.yul\":2096:2103   */\n      0x00\n        /* \"#utility.yul\":2125:2149   */\n      tag_124\n        /* \"#utility.yul\":2143:2148   */\n      dup3\n        /* \"#utility.yul\":2125:2149   */\n      tag_77\n      jump\t// in\n    tag_124:\n        /* \"#utility.yul\":2114:2149   */\n      swap1\n      pop\n        /* \"#utility.yul\":2051:2155   */\n      swap2\n      swap1\n      pop\n      jump\t// out\n        /* \"#utility.yul\":2161:2303   */\n    tag_85:\n        /* \"#utility.yul\":2264:2296   */\n      tag_126\n        /* \"#utility.yul\":2290:2295   */\n      dup2\n        /* \"#utility.yul\":2264:2296   */\n      tag_84\n      jump\t// in\n    tag_126:\n        /* \"#utility.yul\":2259:2262   */\n      dup3\n        /* \"#utility.yul\":2252:2297   */\n      mstore\n        /* \"#utility.yul\":2161:2303   */\n      pop\n      pop\n      jump\t// out\n        /* \"#utility.yul\":2309:2563   */\n    tag_38:\n        /* \"#utility.yul\":2418:2422   */\n      0x00\n        /* \"#utility.yul\":2456:2458   */\n      0x20\n        /* \"#utility.yul\":2445:2454   */\n      dup3\n        /* \"#utility.yul\":2441:2459   */\n      add\n        /* \"#utility.yul\":2433:2459   */\n      swap1\n      pop\n        /* \"#utility.yul\":2469:2556   */\n      tag_128\n        /* \"#utility.yul\":2553:2554   */\n      0x00\n        /* \"#utility.yul\":2542:2551   */\n      dup4\n        /* \"#utility.yul\":2538:2555   */\n      add\n        /* \"#utility.yul\":2529:2535   */\n      dup5\n        /* \"#utility.yul\":2469:2556   */\n      tag_85\n      jump\t// in\n    tag_128:\n        /* \"#utility.yul\":2309:2563   */\n      swap3\n      swap2\n      pop\n      pop\n      jump\t// out\n        /* \"#utility.yul\":2569:2738   */\n    tag_86:\n        /* \"#utility.yul\":2653:2664   */\n      0x00\n        /* \"#utility.yul\":2687:2693   */\n      dup3\n        /* \"#utility.yul\":2682:2685   */\n      dup3\n        /* \"#utility.yul\":2675:2694   */\n      mstore\n        /* \"#utility.yul\":2727:2731   */\n      0x20\n        /* \"#utility.yul\":2722:2725   */\n      dup3\n        /* \"#utility.yul\":2718:2732   */\n      add\n        /* \"#utility.yul\":2703:2732   */\n      swap1\n      pop\n        /* \"#utility.yul\":2569:2738   */\n      swap3\n      swap2\n      pop\n      pop\n      jump\t// out\n        /* \"#utility.yul\":2744:2918   */\n    tag_87:\n        /* \"#utility.yul\":2884:2910   */\n      0x596f757220617265206e6f7420746865206d616e616765720000000000000000\n        /* \"#utility.yul\":2880:2881   */\n      0x00\n        /* \"#utility.yul\":2872:2878   */\n      dup3\n        /* \"#utility.yul\":2868:2882   */\n      add\n        /* \"#utility.yul\":2861:2911   */\n      mstore\n        /* \"#utility.yul\":2744:2918   */\n      pop\n      jump\t// out\n        /* \"#utility.yul\":2924:3290   */\n    tag_88:\n        /* \"#utility.yul\":3066:3069   */\n      0x00\n        /* \"#utility.yul\":3087:3154   */\n      tag_132\n        /* \"#utility.yul\":3151:3153   */\n      0x18\n        /* \"#utility.yul\":3146:3149   */\n      dup4\n        /* \"#utility.yul\":3087:3154   */\n      tag_86\n      jump\t// in\n    tag_132:\n        /* \"#utility.yul\":3080:3154   */\n      swap2\n      pop\n        /* \"#utility.yul\":3163:3256   */\n      tag_133\n        /* \"#utility.yul\":3252:3255   */\n      dup3\n        /* \"#utility.yul\":3163:3256   */\n      tag_87\n      jump\t// in\n    tag_133:\n        /* \"#utility.yul\":3281:3283   */\n      0x20\n        /* \"#utility.yul\":3276:3279   */\n      dup3\n        /* \"#utility.yul\":3272:3284   */\n      add\n        /* \"#utility.yul\":3265:3284   */\n      swap1\n      pop\n        /* \"#utility.yul\":2924:3290   */\n      swap2\n      swap1\n      pop\n      jump\t// out\n        /* \"#utility.yul\":3296:3715   */\n    tag_42:\n        /* \"#utility.yul\":3462:3466   */\n      0x00\n        /* \"#utility.yul\":3500:3502   */\n      0x20\n        /* \"#utility.yul\":3489:3498   */\n      dup3\n        /* \"#utility.yul\":3485:3503   */\n      add\n        /* \"#utility.yul\":3477:3503   */\n      swap1\n      pop\n        /* \"#utility.yul\":3549:3558   */\n      dup2\n        /* \"#utility.yul\":3543:3547   */\n      dup2\n        /* \"#utility.yul\":3539:3559   */\n      sub\n        /* \"#utility.yul\":3535:3536   */\n      0x00\n        /* \"#utility.yul\":3524:3533   */\n      dup4\n        /* \"#utility.yul\":3520:3537   */\n      add\n        /* \"#utility.yul\":3513:3560   */\n      mstore\n        /* \"#utility.yul\":3577:3708   */\n      tag_135\n        /* \"#utility.yul\":3703:3707   */\n      dup2\n        /* \"#utility.yul\":3577:3708   */\n      tag_88\n      jump\t// in\n    tag_135:\n        /* \"#utility.yul\":3569:3708   */\n      swap1\n      pop\n        /* \"#utility.yul\":3296:3715   */\n      swap2\n      swap1\n      pop\n      jump\t// out\n        /* \"#utility.yul\":3721:3895   */\n    tag_89:\n        /* \"#utility.yul\":3861:3887   */\n      0x4c6f747465727920706572696f642068617320456e6465640000000000000000\n        /* \"#utility.yul\":3857:3858   */\n      0x00\n        /* \"#utility.yul\":3849:3855   */\n      dup3\n        /* \"#utility.yul\":3845:3859   */\n      add\n        /* \"#utility.yul\":3838:3888   */\n      mstore\n        /* \"#utility.yul\":3721:3895   */\n      pop\n      jump\t// out\n        /* \"#utility.yul\":3901:4267   */\n    tag_90:\n        /* \"#utility.yul\":4043:4046   */\n      0x00\n        /* \"#utility.yul\":4064:4131   */\n      tag_138\n        /* \"#utility.yul\":4128:4130   */\n      0x18\n        /* \"#utility.yul\":4123:4126   */\n      dup4\n        /* \"#utility.yul\":4064:4131   */\n      tag_86\n      jump\t// in\n    tag_138:\n        /* \"#utility.yul\":4057:4131   */\n      swap2\n      pop\n        /* \"#utility.yul\":4140:4233   */\n      tag_139\n        /* \"#utility.yul\":4229:4232   */\n      dup3\n        /* \"#utility.yul\":4140:4233   */\n      tag_89\n      jump\t// in\n    tag_139:\n        /* \"#utility.yul\":4258:4260   */\n      0x20\n        /* \"#utility.yul\":4253:4256   */\n      dup3\n        /* \"#utility.yul\":4249:4261   */\n      add\n        /* \"#utility.yul\":4242:4261   */\n      swap1\n      pop\n        /* \"#utility.yul\":3901:4267   */\n      swap2\n      swap1\n      pop\n      jump\t// out\n        /* \"#utility.yul\":4273:4692   */\n    tag_47:\n        /* \"#utility.yul\":4439:4443   */\n      0x00\n        /* \"#utility.yul\":4477:4479   */\n      0x20\n        /* \"#utility.yul\":4466:4475   */\n      dup3\n        /* \"#utility.yul\":4462:4480   */\n      add\n        /* \"#utility.yul\":4454:4480   */\n      swap1\n      pop\n        /* \"#utility.yul\":4526:4535   */\n      dup2\n        /* \"#utility.yul\":4520:4524   */\n      dup2\n        /* \"#utility.yul\":4516:4536   */\n      sub\n        /* \"#utility.yul\":4512:4513   */\n      0x00\n        /* \"#utility.yul\":4501:4510   */\n      dup4\n        /* \"#utility.yul\":4497:4514   */\n      add\n        /* \"#utility.yul\":4490:4537   */\n      mstore\n        /* \"#utility.yul\":4554:4685   */\n      tag_141\n        /* \"#utility.yul\":4680:4684   */\n      dup2\n        /* \"#utility.yul\":4554:4685   */\n      tag_90\n      jump\t// in\n    tag_141:\n        /* \"#utility.yul\":4546:4685   */\n      swap1\n      pop\n        /* \"#utility.yul\":4273:4692   */\n      swap2\n      swap1\n      pop\n      jump\t// out\n        /* \"#utility.yul\":4698:4922   */\n    tag_91:\n        /* \"#utility.yul\":4838:4872   */\n      0x506c61796572732073686f756c64206e6f74206265206c657373207468616e20\n        /* \"#utility.yul\":4834:4835   */\n      0x00\n        /* \"#utility.yul\":4826:4832   */\n      dup3\n        /* \"#utility.yul\":4822:4836   */\n      add\n        /* \"#utility.yul\":4815:4873   */\n      mstore\n        /* \"#utility.yul\":4907:4914   */\n      0x5448524545000000000000000000000000000000000000000000000000000000\n        /* \"#utility.yul\":4902:4904   */\n      0x20\n        /* \"#utility.yul\":4894:4900   */\n      dup3\n        /* \"#utility.yul\":4890:4905   */\n      add\n        /* \"#utility.yul\":4883:4915   */\n      mstore\n        /* \"#utility.yul\":4698:4922   */\n      pop\n      jump\t// out\n        /* \"#utility.yul\":4928:5294   */\n    tag_92:\n        /* \"#utility.yul\":5070:5073   */\n      0x00\n        /* \"#utility.yul\":5091:5158   */\n      tag_144\n        /* \"#utility.yul\":5155:5157   */\n      0x25\n        /* \"#utility.yul\":5150:5153   */\n      dup4\n        /* \"#utility.yul\":5091:5158   */\n      tag_86\n      jump\t// in\n    tag_144:\n        /* \"#utility.yul\":5084:5158   */\n      swap2\n      pop\n        /* \"#utility.yul\":5167:5260   */\n      tag_145\n        /* \"#utility.yul\":5256:5259   */\n      dup3\n        /* \"#utility.yul\":5167:5260   */\n      tag_91\n      jump\t// in\n    tag_145:\n        /* \"#utility.yul\":5285:5287   */\n      0x40\n        /* \"#utility.yul\":5280:5283   */\n      dup3\n        /* \"#utility.yul\":5276:5288   */\n      add\n        /* \"#utility.yul\":5269:5288   */\n      swap1\n      pop\n        /* \"#utility.yul\":4928:5294   */\n      swap2\n      swap1\n      pop\n      jump\t// out\n        /* \"#utility.yul\":5300:5719   */\n    tag_50:\n        /* \"#utility.yul\":5466:5470   */\n      0x00\n        /* \"#utility.yul\":5504:5506   */\n      0x20\n        /* \"#utility.yul\":5493:5502   */\n      dup3\n        /* \"#utility.yul\":5489:5507   */\n      add\n        /* \"#utility.yul\":5481:5507   */\n      swap1\n      pop\n        /* \"#utility.yul\":5553:5562   */\n      dup2\n        /* \"#utility.yul\":5547:5551   */\n      dup2\n        /* \"#utility.yul\":5543:5563   */\n      sub\n        /* \"#utility.yul\":5539:5540   */\n      0x00\n        /* \"#utility.yul\":5528:5537   */\n      dup4\n        /* \"#utility.yul\":5524:5541   */\n      add\n        /* \"#utility.yul\":5517:5564   */\n      mstore\n        /* \"#utility.yul\":5581:5712   */\n      tag_147\n        /* \"#utility.yul\":5707:5711   */\n      dup2\n        /* \"#utility.yul\":5581:5712   */\n      tag_92\n      jump\t// in\n    tag_147:\n        /* \"#utility.yul\":5573:5712   */\n      swap1\n      pop\n        /* \"#utility.yul\":5300:5719   */\n      swap2\n      swap1\n      pop\n      jump\t// out\n        /* \"#utility.yul\":5725:5804   */\n    tag_93:\n        /* \"#utility.yul\":5764:5771   */\n      0x00\n        /* \"#utility.yul\":5793:5798   */\n      dup2\n        /* \"#utility.yul\":5782:5798   */\n      swap1\n      pop\n        /* \"#utility.yul\":5725:5804   */\n      swap2\n      swap1\n      pop\n      jump\t// out\n        /* \"#utility.yul\":5810:5967   */\n    tag_94:\n        /* \"#utility.yul\":5915:5960   */\n      tag_150\n        /* \"#utility.yul\":5935:5959   */\n      tag_151\n        /* \"#utility.yul\":5953:5958   */\n      dup3\n        /* \"#utility.yul\":5935:5959   */\n      tag_75\n      jump\t// in\n    tag_151:\n        /* \"#utility.yul\":5915:5960   */\n      tag_93\n      jump\t// in\n    tag_150:\n        /* \"#utility.yul\":5910:5913   */\n      dup3\n        /* \"#utility.yul\":5903:5961   */\n      mstore\n        /* \"#utility.yul\":5810:5967   */\n      pop\n      pop\n      jump\t// out\n        /* \"#utility.yul\":5973:6370   */\n    tag_52:\n        /* \"#utility.yul\":6113:6116   */\n      0x00\n        /* \"#utility.yul\":6128:6203   */\n      tag_153\n        /* \"#utility.yul\":6199:6202   */\n      dup3\n        /* \"#utility.yul\":6190:6196   */\n      dup6\n        /* \"#utility.yul\":6128:6203   */\n      tag_94\n      jump\t// in\n    tag_153:\n        /* \"#utility.yul\":6228:6230   */\n      0x20\n        /* \"#utility.yul\":6223:6226   */\n      dup3\n        /* \"#utility.yul\":6219:6231   */\n      add\n        /* \"#utility.yul\":6212:6231   */\n      swap2\n      pop\n        /* \"#utility.yul\":6241:6316   */\n      tag_154\n        /* \"#utility.yul\":6312:6315   */\n      dup3\n        /* \"#utility.yul\":6303:6309   */\n      dup5\n        /* \"#utility.yul\":6241:6316   */\n      tag_94\n      jump\t// in\n    tag_154:\n        /* \"#utility.yul\":6341:6343   */\n      0x20\n        /* \"#utility.yul\":6336:6339   */\n      dup3\n        /* \"#utility.yul\":6332:6344   */\n      add\n        /* \"#utility.yul\":6325:6344   */\n      swap2\n      pop\n        /* \"#utility.yul\":6361:6364   */\n      dup2\n        /* \"#utility.yul\":6354:6364   */\n      swap1\n      pop\n        /* \"#utility.yul\":5973:6370   */\n      swap4\n      swap3\n      pop\n      pop\n      pop\n      jump\t// out\n        /* \"#utility.yul\":6376:6556   */\n    tag_95:\n        /* \"#utility.yul\":6424:6501   */\n      0x4e487b7100000000000000000000000000000000000000000000000000000000\n        /* \"#utility.yul\":6421:6422   */\n      0x00\n        /* \"#utility.yul\":6414:6502   */\n      mstore\n        /* \"#utility.yul\":6521:6525   */\n      0x12\n        /* \"#utility.yul\":6518:6519   */\n      0x04\n        /* \"#utility.yul\":6511:6526   */\n      mstore\n        /* \"#utility.yul\":6545:6549   */\n      0x24\n        /* \"#utility.yul\":6542:6543   */\n      0x00\n        /* \"#utility.yul\":6535:6550   */\n      revert\n        /* \"#utility.yul\":6562:6738   */\n    tag_54:\n        /* \"#utility.yul\":6594:6595   */\n      0x00\n        /* \"#utility.yul\":6611:6631   */\n      tag_157\n        /* \"#utility.yul\":6629:6630   */\n      dup3\n        /* \"#utility.yul\":6611:6631   */\n      tag_75\n      jump\t// in\n    tag_157:\n        /* \"#utility.yul\":6606:6631   */\n      swap2\n      pop\n        /* \"#utility.yul\":6645:6665   */\n      tag_158\n        /* \"#utility.yul\":6663:6664   */\n      dup4\n        /* \"#utility.yul\":6645:6665   */\n      tag_75\n      jump\t// in\n    tag_158:\n        /* \"#utility.yul\":6640:6665   */\n      swap3\n      pop\n        /* \"#utility.yul\":6684:6685   */\n      dup3\n        /* \"#utility.yul\":6674:6709   */\n      tag_159\n      jumpi\n        /* \"#utility.yul\":6689:6707   */\n      tag_160\n      tag_95\n      jump\t// in\n    tag_160:\n        /* \"#utility.yul\":6674:6709   */\n    tag_159:\n        /* \"#utility.yul\":6730:6731   */\n      dup3\n        /* \"#utility.yul\":6727:6728   */\n      dup3\n        /* \"#utility.yul\":6723:6732   */\n      mod\n        /* \"#utility.yul\":6718:6732   */\n      swap1\n      pop\n        /* \"#utility.yul\":6562:6738   */\n      swap3\n      swap2\n      pop\n      pop\n      jump\t// out\n        /* \"#utility.yul\":6744:6924   */\n    tag_57:\n        /* \"#utility.yul\":6792:6869   */\n      0x4e487b7100000000000000000000000000000000000000000000000000000000\n        /* \"#utility.yul\":6789:6790   */\n      0x00\n        /* \"#utility.yul\":6782:6870   */\n      mstore\n        /* \"#utility.yul\":6889:6893   */\n      0x32\n        /* \"#utility.yul\":6886:6887   */\n      0x04\n        /* \"#utility.yul\":6879:6894   */\n      mstore\n        /* \"#utility.yul\":6913:6917   */\n      0x24\n        /* \"#utility.yul\":6910:6911   */\n      0x00\n        /* \"#utility.yul\":6903:6918   */\n      revert\n        /* \"#utility.yul\":6930:7102   */\n    tag_96:\n        /* \"#utility.yul\":7070:7094   */\n      0x5061792061746c656173742074776f2065746865727300000000000000000000\n        /* \"#utility.yul\":7066:7067   */\n      0x00\n        /* \"#utility.yul\":7058:7064   */\n      dup3\n        /* \"#utility.yul\":7054:7068   */\n      add\n        /* \"#utility.yul\":7047:7095   */\n      mstore\n        /* \"#utility.yul\":6930:7102   */\n      pop\n      jump\t// out\n        /* \"#utility.yul\":7108:7474   */\n    tag_97:\n        /* \"#utility.yul\":7250:7253   */\n      0x00\n        /* \"#utility.yul\":7271:7338   */\n      tag_164\n        /* \"#utility.yul\":7335:7337   */\n      0x16\n        /* \"#utility.yul\":7330:7333   */\n      dup4\n        /* \"#utility.yul\":7271:7338   */\n      tag_86\n      jump\t// in\n    tag_164:\n        /* \"#utility.yul\":7264:7338   */\n      swap2\n      pop\n        /* \"#utility.yul\":7347:7440   */\n      tag_165\n        /* \"#utility.yul\":7436:7439   */\n      dup3\n        /* \"#utility.yul\":7347:7440   */\n      tag_96\n      jump\t// in\n    tag_165:\n        /* \"#utility.yul\":7465:7467   */\n      0x20\n        /* \"#utility.yul\":7460:7463   */\n      dup3\n        /* \"#utility.yul\":7456:7468   */\n      add\n        /* \"#utility.yul\":7449:7468   */\n      swap1\n      pop\n        /* \"#utility.yul\":7108:7474   */\n      swap2\n      swap1\n      pop\n      jump\t// out\n        /* \"#utility.yul\":7480:7899   */\n    tag_71:\n        /* \"#utility.yul\":7646:7650   */\n      0x00\n        /* \"#utility.yul\":7684:7686   */\n      0x20\n        /* \"#utility.yul\":7673:7682   */\n      dup3\n        /* \"#utility.yul\":7669:7687   */\n      add\n        /* \"#utility.yul\":7661:7687   */\n      swap1\n      pop\n        /* \"#utility.yul\":7733:7742   */\n      dup2\n        /* \"#utility.yul\":7727:7731   */\n      dup2\n        /* \"#utility.yul\":7723:7743   */\n      sub\n        /* \"#utility.yul\":7719:7720   */\n      0x00\n        /* \"#utility.yul\":7708:7717   */\n      dup4\n        /* \"#utility.yul\":7704:7721   */\n      add\n        /* \"#utility.yul\":7697:7744   */\n      mstore\n        /* \"#utility.yul\":7761:7892   */\n      tag_167\n        /* \"#utility.yul\":7887:7891   */\n      dup2\n        /* \"#utility.yul\":7761:7892   */\n      tag_97\n      jump\t// in\n    tag_167:\n        /* \"#utility.yul\":7753:7892   */\n      swap1\n      pop\n        /* \"#utility.yul\":7480:7899   */\n      swap2\n      swap1\n      pop\n      jump\t// out\n\n    auxdata: 0xa26469706673582212208697278a80cbe0d5f4f184fe4b038153a4ae7e6cdb2d206641b8476274c896d564736f6c63430008120033\n}\n",
				"bytecode": {
					"linkReferences": {},
					"object": "608060405234801561001057600080fd5b50604051610b64380380610b64833981810160405281019061003291906100ed565b336000806101000a81548173ffffffffffffffffffffffffffffffffffffffff021916908373ffffffffffffffffffffffffffffffffffffffff1602179055506000600560006101000a81548160ff021916908360018111156100985761009761012d565b5b02179055508160038190555080600481905550505061015c565b600080fd5b6000819050919050565b6100ca816100b7565b81146100d557600080fd5b50565b6000815190506100e7816100c1565b92915050565b60008060408385031215610104576101036100b2565b5b6000610112858286016100d8565b9250506020610123858286016100d8565b9150509250929050565b7f4e487b7100000000000000000000000000000000000000000000000000000000600052602160045260246000fd5b6109f98061016b6000396000f3fe6080604052600436106100705760003560e01c80638e7ea5b21161004e5780638e7ea5b2146100f6578063a537e19d14610121578063d11711a214610138578063dfbf53ae1461014257610070565b806312065fe014610075578063481c6a75146100a057806369bb9269146100cb575b600080fd5b34801561008157600080fd5b5061008a61016d565b60405161009791906105bb565b60405180910390f35b3480156100ac57600080fd5b506100b5610203565b6040516100c29190610617565b60405180910390f35b3480156100d757600080fd5b506100e0610227565b6040516100ed91906106a9565b60405180910390f35b34801561010257600080fd5b5061010b61023a565b6040516101189190610617565b60405180910390f35b34801561012d57600080fd5b506101366103e9565b005b61014061045b565b005b34801561014e57600080fd5b5061015761057c565b60405161016491906106e5565b60405180910390f35b60003373ffffffffffffffffffffffffffffffffffffffff1660008054906101000a900473ffffffffffffffffffffffffffffffffffffffff1673ffffffffffffffffffffffffffffffffffffffff16146101fd576040517f08c379a00000000000000000000000000000000000000000000000000000000081526004016101f49061075d565b60405180910390fd5b47905090565b60008054906101000a900473ffffffffffffffffffffffffffffffffffffffff1681565b600560009054906101000a900460ff1681565b600060045460035410610282576040517f08c379a0000000000000000000000000000000000000000000000000000000008152600401610279906107c9565b60405180910390fd5b600360018054905010156102cb576040517f08c379a00000000000000000000000000000000000000000000000000000000081526004016102c29061085b565b60405180910390fd5b6000426001805490506040516020016102e592919061089c565b6040516020818303038152906040528051906020012060001c905060006001805490508261031391906108f7565b90506001818154811061032957610328610928565b5b9060005260206000200160009054906101000a900473ffffffffffffffffffffffffffffffffffffffff16600260006101000a81548173ffffffffffffffffffffffffffffffffffffffff021916908373ffffffffffffffffffffffffffffffffffffffff1602179055506000600560006101000a81548160ff021916908360018111156103ba576103b9610632565b5b0217905550600260009054906101000a900473ffffffffffffffffffffffffffffffffffffffff169250505090565b600260009054906101000a900473ffffffffffffffffffffffffffffffffffffffff1673ffffffffffffffffffffffffffffffffffffffff166108fc61042d61016d565b9081150290604051600060405180830381858888f19350505050158015610458573d6000803e3d6000fd5b50565b600454600354106104a1576040517f08c379a0000000000000000000000000000000000000000000000000000000008152600401610498906107c9565b60405180910390fd5b671bc16d674ec800003410156104ec576040517f08c379a00000000000000000000000000000000000000000000000000000000081526004016104e3906109a3565b60405180910390fd5b6001600560006101000a81548160ff0219169083600181111561051257610511610632565b5b02179055506001339080600181540180825580915050600190039060005260206000200160009091909190916101000a81548173ffffffffffffffffffffffffffffffffffffffff021916908373ffffffffffffffffffffffffffffffffffffffff160217905550565b600260009054906101000a900473ffffffffffffffffffffffffffffffffffffffff1681565b6000819050919050565b6105b5816105a2565b82525050565b60006020820190506105d060008301846105ac565b92915050565b600073ffffffffffffffffffffffffffffffffffffffff82169050919050565b6000610601826105d6565b9050919050565b610611816105f6565b82525050565b600060208201905061062c6000830184610608565b92915050565b7f4e487b7100000000000000000000000000000000000000000000000000000000600052602160045260246000fd5b6002811061067257610671610632565b5b50565b600081905061068382610661565b919050565b600061069382610675565b9050919050565b6106a381610688565b82525050565b60006020820190506106be600083018461069a565b92915050565b60006106cf826105d6565b9050919050565b6106df816106c4565b82525050565b60006020820190506106fa60008301846106d6565b92915050565b600082825260208201905092915050565b7f596f757220617265206e6f7420746865206d616e616765720000000000000000600082015250565b6000610747601883610700565b915061075282610711565b602082019050919050565b600060208201905081810360008301526107768161073a565b9050919050565b7f4c6f747465727920706572696f642068617320456e6465640000000000000000600082015250565b60006107b3601883610700565b91506107be8261077d565b602082019050919050565b600060208201905081810360008301526107e2816107a6565b9050919050565b7f506c61796572732073686f756c64206e6f74206265206c657373207468616e2060008201527f5448524545000000000000000000000000000000000000000000000000000000602082015250565b6000610845602583610700565b9150610850826107e9565b604082019050919050565b6000602082019050818103600083015261087481610838565b9050919050565b6000819050919050565b610896610891826105a2565b61087b565b82525050565b60006108a88285610885565b6020820191506108b88284610885565b6020820191508190509392505050565b7f4e487b7100000000000000000000000000000000000000000000000000000000600052601260045260246000fd5b6000610902826105a2565b915061090d836105a2565b92508261091d5761091c6108c8565b5b828206905092915050565b7f4e487b7100000000000000000000000000000000000000000000000000000000600052603260045260246000fd5b7f5061792061746c656173742074776f2065746865727300000000000000000000600082015250565b600061098d601683610700565b915061099882610957565b602082019050919050565b600060208201905081810360008301526109bc81610980565b905091905056fea26469706673582212208697278a80cbe0d5f4f184fe4b038153a4ae7e6cdb2d206641b8476274c896d564736f6c63430008120033",
					"opcodes": "PUSH1 0x80 PUSH1 0x40 MSTORE CALLVALUE DUP1 ISZERO PUSH2 0x10 JUMPI PUSH1 0x0 DUP1 REVERT JUMPDEST POP PUSH1 0x40 MLOAD PUSH2 0xB64 CODESIZE SUB DUP1 PUSH2 0xB64 DUP4 CODECOPY DUP2 DUP2 ADD PUSH1 0x40 MSTORE DUP2 ADD SWAP1 PUSH2 0x32 SWAP2 SWAP1 PUSH2 0xED JUMP JUMPDEST CALLER PUSH1 0x0 DUP1 PUSH2 0x100 EXP DUP2 SLOAD DUP2 PUSH20 0xFFFFFFFFFFFFFFFFFFFFFFFFFFFFFFFFFFFFFFFF MUL NOT AND SWAP1 DUP4 PUSH20 0xFFFFFFFFFFFFFFFFFFFFFFFFFFFFFFFFFFFFFFFF AND MUL OR SWAP1 SSTORE POP PUSH1 0x0 PUSH1 0x5 PUSH1 0x0 PUSH2 0x100 EXP DUP2 SLOAD DUP2 PUSH1 0xFF MUL NOT AND SWAP1 DUP4 PUSH1 0x1 DUP2 GT ISZERO PUSH2 0x98 JUMPI PUSH2 0x97 PUSH2 0x12D JUMP JUMPDEST JUMPDEST MUL OR SWAP1 SSTORE POP DUP2 PUSH1 0x3 DUP2 SWAP1 SSTORE POP DUP1 PUSH1 0x4 DUP2 SWAP1 SSTORE POP POP POP PUSH2 0x15C JUMP JUMPDEST PUSH1 0x0 DUP1 REVERT JUMPDEST PUSH1 0x0 DUP2 SWAP1 POP SWAP2 SWAP1 POP JUMP JUMPDEST PUSH2 0xCA DUP2 PUSH2 0xB7 JUMP JUMPDEST DUP2 EQ PUSH2 0xD5 JUMPI PUSH1 0x0 DUP1 REVERT JUMPDEST POP JUMP JUMPDEST PUSH1 0x0 DUP2 MLOAD SWAP1 POP PUSH2 0xE7 DUP2 PUSH2 0xC1 JUMP JUMPDEST SWAP3 SWAP2 POP POP JUMP JUMPDEST PUSH1 0x0 DUP1 PUSH1 0x40 DUP4 DUP6 SUB SLT ISZERO PUSH2 0x104 JUMPI PUSH2 0x103 PUSH2 0xB2 JUMP JUMPDEST JUMPDEST PUSH1 0x0 PUSH2 0x112 DUP6 DUP3 DUP7 ADD PUSH2 0xD8 JUMP JUMPDEST SWAP3 POP POP PUSH1 0x20 PUSH2 0x123 DUP6 DUP3 DUP7 ADD PUSH2 0xD8 JUMP JUMPDEST SWAP2 POP POP SWAP3 POP SWAP3 SWAP1 POP JUMP JUMPDEST PUSH32 0x4E487B7100000000000000000000000000000000000000000000000000000000 PUSH1 0x0 MSTORE PUSH1 0x21 PUSH1 0x4 MSTORE PUSH1 0x24 PUSH1 0x0 REVERT JUMPDEST PUSH2 0x9F9 DUP1 PUSH2 0x16B PUSH1 0x0 CODECOPY PUSH1 0x0 RETURN INVALID PUSH1 0x80 PUSH1 0x40 MSTORE PUSH1 0x4 CALLDATASIZE LT PUSH2 0x70 JUMPI PUSH1 0x0 CALLDATALOAD PUSH1 0xE0 SHR DUP1 PUSH4 0x8E7EA5B2 GT PUSH2 0x4E JUMPI DUP1 PUSH4 0x8E7EA5B2 EQ PUSH2 0xF6 JUMPI DUP1 PUSH4 0xA537E19D EQ PUSH2 0x121 JUMPI DUP1 PUSH4 0xD11711A2 EQ PUSH2 0x138 JUMPI DUP1 PUSH4 0xDFBF53AE EQ PUSH2 0x142 JUMPI PUSH2 0x70 JUMP JUMPDEST DUP1 PUSH4 0x12065FE0 EQ PUSH2 0x75 JUMPI DUP1 PUSH4 0x481C6A75 EQ PUSH2 0xA0 JUMPI DUP1 PUSH4 0x69BB9269 EQ PUSH2 0xCB JUMPI JUMPDEST PUSH1 0x0 DUP1 REVERT JUMPDEST CALLVALUE DUP1 ISZERO PUSH2 0x81 JUMPI PUSH1 0x0 DUP1 REVERT JUMPDEST POP PUSH2 0x8A PUSH2 0x16D JUMP JUMPDEST PUSH1 0x40 MLOAD PUSH2 0x97 SWAP2 SWAP1 PUSH2 0x5BB JUMP JUMPDEST PUSH1 0x40 MLOAD DUP1 SWAP2 SUB SWAP1 RETURN JUMPDEST CALLVALUE DUP1 ISZERO PUSH2 0xAC JUMPI PUSH1 0x0 DUP1 REVERT JUMPDEST POP PUSH2 0xB5 PUSH2 0x203 JUMP JUMPDEST PUSH1 0x40 MLOAD PUSH2 0xC2 SWAP2 SWAP1 PUSH2 0x617 JUMP JUMPDEST PUSH1 0x40 MLOAD DUP1 SWAP2 SUB SWAP1 RETURN JUMPDEST CALLVALUE DUP1 ISZERO PUSH2 0xD7 JUMPI PUSH1 0x0 DUP1 REVERT JUMPDEST POP PUSH2 0xE0 PUSH2 0x227 JUMP JUMPDEST PUSH1 0x40 MLOAD PUSH2 0xED SWAP2 SWAP1 PUSH2 0x6A9 JUMP JUMPDEST PUSH1 0x40 MLOAD DUP1 SWAP2 SUB SWAP1 RETURN JUMPDEST CALLVALUE DUP1 ISZERO PUSH2 0x102 JUMPI PUSH1 0x0 DUP1 REVERT JUMPDEST POP PUSH2 0x10B PUSH2 0x23A JUMP JUMPDEST PUSH1 0x40 MLOAD PUSH2 0x118 SWAP2 SWAP1 PUSH2 0x617 JUMP JUMPDEST PUSH1 0x40 MLOAD DUP1 SWAP2 SUB SWAP1 RETURN JUMPDEST CALLVALUE DUP1 ISZERO PUSH2 0x12D JUMPI PUSH1 0x0 DUP1 REVERT JUMPDEST POP PUSH2 0x136 PUSH2 0x3E9 JUMP JUMPDEST STOP JUMPDEST PUSH2 0x140 PUSH2 0x45B JUMP JUMPDEST STOP JUMPDEST CALLVALUE DUP1 ISZERO PUSH2 0x14E JUMPI PUSH1 0x0 DUP1 REVERT JUMPDEST POP PUSH2 0x157 PUSH2 0x57C JUMP JUMPDEST PUSH1 0x40 MLOAD PUSH2 0x164 SWAP2 SWAP1 PUSH2 0x6E5 JUMP JUMPDEST PUSH1 0x40 MLOAD DUP1 SWAP2 SUB SWAP1 RETURN JUMPDEST PUSH1 0x0 CALLER PUSH20 0xFFFFFFFFFFFFFFFFFFFFFFFFFFFFFFFFFFFFFFFF AND PUSH1 0x0 DUP1 SLOAD SWAP1 PUSH2 0x100 EXP SWAP1 DIV PUSH20 0xFFFFFFFFFFFFFFFFFFFFFFFFFFFFFFFFFFFFFFFF AND PUSH20 0xFFFFFFFFFFFFFFFFFFFFFFFFFFFFFFFFFFFFFFFF AND EQ PUSH2 0x1FD JUMPI PUSH1 0x40 MLOAD PUSH32 0x8C379A000000000000000000000000000000000000000000000000000000000 DUP2 MSTORE PUSH1 0x4 ADD PUSH2 0x1F4 SWAP1 PUSH2 0x75D JUMP JUMPDEST PUSH1 0x40 MLOAD DUP1 SWAP2 SUB SWAP1 REVERT JUMPDEST SELFBALANCE SWAP1 POP SWAP1 JUMP JUMPDEST PUSH1 0x0 DUP1 SLOAD SWAP1 PUSH2 0x100 EXP SWAP1 DIV PUSH20 0xFFFFFFFFFFFFFFFFFFFFFFFFFFFFFFFFFFFFFFFF AND DUP2 JUMP JUMPDEST PUSH1 0x5 PUSH1 0x0 SWAP1 SLOAD SWAP1 PUSH2 0x100 EXP SWAP1 DIV PUSH1 0xFF AND DUP2 JUMP JUMPDEST PUSH1 0x0 PUSH1 0x4 SLOAD PUSH1 0x3 SLOAD LT PUSH2 0x282 JUMPI PUSH1 0x40 MLOAD PUSH32 0x8C379A000000000000000000000000000000000000000000000000000000000 DUP2 MSTORE PUSH1 0x4 ADD PUSH2 0x279 SWAP1 PUSH2 0x7C9 JUMP JUMPDEST PUSH1 0x40 MLOAD DUP1 SWAP2 SUB SWAP1 REVERT JUMPDEST PUSH1 0x3 PUSH1 0x1 DUP1 SLOAD SWAP1 POP LT ISZERO PUSH2 0x2CB JUMPI PUSH1 0x40 MLOAD PUSH32 0x8C379A000000000000000000000000000000000000000000000000000000000 DUP2 MSTORE PUSH1 0x4 ADD PUSH2 0x2C2 SWAP1 PUSH2 0x85B JUMP JUMPDEST PUSH1 0x40 MLOAD DUP1 SWAP2 SUB SWAP1 REVERT JUMPDEST PUSH1 0x0 TIMESTAMP PUSH1 0x1 DUP1 SLOAD SWAP1 POP PUSH1 0x40 MLOAD PUSH1 0x20 ADD PUSH2 0x2E5 SWAP3 SWAP2 SWAP1 PUSH2 0x89C JUMP JUMPDEST PUSH1 0x40 MLOAD PUSH1 0x20 DUP2 DUP4 SUB SUB DUP2 MSTORE SWAP1 PUSH1 0x40 MSTORE DUP1 MLOAD SWAP1 PUSH1 0x20 ADD KECCAK256 PUSH1 0x0 SHR SWAP1 POP PUSH1 0x0 PUSH1 0x1 DUP1 SLOAD SWAP1 POP DUP3 PUSH2 0x313 SWAP2 SWAP1 PUSH2 0x8F7 JUMP JUMPDEST SWAP1 POP PUSH1 0x1 DUP2 DUP2 SLOAD DUP2 LT PUSH2 0x329 JUMPI PUSH2 0x328 PUSH2 0x928 JUMP JUMPDEST JUMPDEST SWAP1 PUSH1 0x0 MSTORE PUSH1 0x20 PUSH1 0x0 KECCAK256 ADD PUSH1 0x0 SWAP1 SLOAD SWAP1 PUSH2 0x100 EXP SWAP1 DIV PUSH20 0xFFFFFFFFFFFFFFFFFFFFFFFFFFFFFFFFFFFFFFFF AND PUSH1 0x2 PUSH1 0x0 PUSH2 0x100 EXP DUP2 SLOAD DUP2 PUSH20 0xFFFFFFFFFFFFFFFFFFFFFFFFFFFFFFFFFFFFFFFF MUL NOT AND SWAP1 DUP4 PUSH20 0xFFFFFFFFFFFFFFFFFFFFFFFFFFFFFFFFFFFFFFFF AND MUL OR SWAP1 SSTORE POP PUSH1 0x0 PUSH1 0x5 PUSH1 0x0 PUSH2 0x100 EXP DUP2 SLOAD DUP2 PUSH1 0xFF MUL NOT AND SWAP1 DUP4 PUSH1 0x1 DUP2 GT ISZERO PUSH2 0x3BA JUMPI PUSH2 0x3B9 PUSH2 0x632 JUMP JUMPDEST JUMPDEST MUL OR SWAP1 SSTORE POP PUSH1 0x2 PUSH1 0x0 SWAP1 SLOAD SWAP1 PUSH2 0x100 EXP SWAP1 DIV PUSH20 0xFFFFFFFFFFFFFFFFFFFFFFFFFFFFFFFFFFFFFFFF AND SWAP3 POP POP POP SWAP1 JUMP JUMPDEST PUSH1 0x2 PUSH1 0x0 SWAP1 SLOAD SWAP1 PUSH2 0x100 EXP SWAP1 DIV PUSH20 0xFFFFFFFFFFFFFFFFFFFFFFFFFFFFFFFFFFFFFFFF AND PUSH20 0xFFFFFFFFFFFFFFFFFFFFFFFFFFFFFFFFFFFFFFFF AND PUSH2 0x8FC PUSH2 0x42D PUSH2 0x16D JUMP JUMPDEST SWAP1 DUP2 ISZERO MUL SWAP1 PUSH1 0x40 MLOAD PUSH1 0x0 PUSH1 0x40 MLOAD DUP1 DUP4 SUB DUP2 DUP6 DUP9 DUP9 CALL SWAP4 POP POP POP POP ISZERO DUP1 ISZERO PUSH2 0x458 JUMPI RETURNDATASIZE PUSH1 0x0 DUP1 RETURNDATACOPY RETURNDATASIZE PUSH1 0x0 REVERT JUMPDEST POP JUMP JUMPDEST PUSH1 0x4 SLOAD PUSH1 0x3 SLOAD LT PUSH2 0x4A1 JUMPI PUSH1 0x40 MLOAD PUSH32 0x8C379A000000000000000000000000000000000000000000000000000000000 DUP2 MSTORE PUSH1 0x4 ADD PUSH2 0x498 SWAP1 PUSH2 0x7C9 JUMP JUMPDEST PUSH1 0x40 MLOAD DUP1 SWAP2 SUB SWAP1 REVERT JUMPDEST PUSH8 0x1BC16D674EC80000 CALLVALUE LT ISZERO PUSH2 0x4EC JUMPI PUSH1 0x40 MLOAD PUSH32 0x8C379A000000000000000000000000000000000000000000000000000000000 DUP2 MSTORE PUSH1 0x4 ADD PUSH2 0x4E3 SWAP1 PUSH2 0x9A3 JUMP JUMPDEST PUSH1 0x40 MLOAD DUP1 SWAP2 SUB SWAP1 REVERT JUMPDEST PUSH1 0x1 PUSH1 0x5 PUSH1 0x0 PUSH2 0x100 EXP DUP2 SLOAD DUP2 PUSH1 0xFF MUL NOT AND SWAP1 DUP4 PUSH1 0x1 DUP2 GT ISZERO PUSH2 0x512 JUMPI PUSH2 0x511 PUSH2 0x632 JUMP JUMPDEST JUMPDEST MUL OR SWAP1 SSTORE POP PUSH1 0x1 CALLER SWAP1 DUP1 PUSH1 0x1 DUP2 SLOAD ADD DUP1 DUP3 SSTORE DUP1 SWAP2 POP POP PUSH1 0x1 SWAP1 SUB SWAP1 PUSH1 0x0 MSTORE PUSH1 0x20 PUSH1 0x0 KECCAK256 ADD PUSH1 0x0 SWAP1 SWAP2 SWAP1 SWAP2 SWAP1 SWAP2 PUSH2 0x100 EXP DUP2 SLOAD DUP2 PUSH20 0xFFFFFFFFFFFFFFFFFFFFFFFFFFFFFFFFFFFFFFFF MUL NOT AND SWAP1 DUP4 PUSH20 0xFFFFFFFFFFFFFFFFFFFFFFFFFFFFFFFFFFFFFFFF AND MUL OR SWAP1 SSTORE POP JUMP JUMPDEST PUSH1 0x2 PUSH1 0x0 SWAP1 SLOAD SWAP1 PUSH2 0x100 EXP SWAP1 DIV PUSH20 0xFFFFFFFFFFFFFFFFFFFFFFFFFFFFFFFFFFFFFFFF AND DUP2 JUMP JUMPDEST PUSH1 0x0 DUP2 SWAP1 POP SWAP2 SWAP1 POP JUMP JUMPDEST PUSH2 0x5B5 DUP2 PUSH2 0x5A2 JUMP JUMPDEST DUP3 MSTORE POP POP JUMP JUMPDEST PUSH1 0x0 PUSH1 0x20 DUP3 ADD SWAP1 POP PUSH2 0x5D0 PUSH1 0x0 DUP4 ADD DUP5 PUSH2 0x5AC JUMP JUMPDEST SWAP3 SWAP2 POP POP JUMP JUMPDEST PUSH1 0x0 PUSH20 0xFFFFFFFFFFFFFFFFFFFFFFFFFFFFFFFFFFFFFFFF DUP3 AND SWAP1 POP SWAP2 SWAP1 POP JUMP JUMPDEST PUSH1 0x0 PUSH2 0x601 DUP3 PUSH2 0x5D6 JUMP JUMPDEST SWAP1 POP SWAP2 SWAP1 POP JUMP JUMPDEST PUSH2 0x611 DUP2 PUSH2 0x5F6 JUMP JUMPDEST DUP3 MSTORE POP POP JUMP JUMPDEST PUSH1 0x0 PUSH1 0x20 DUP3 ADD SWAP1 POP PUSH2 0x62C PUSH1 0x0 DUP4 ADD DUP5 PUSH2 0x608 JUMP JUMPDEST SWAP3 SWAP2 POP POP JUMP JUMPDEST PUSH32 0x4E487B7100000000000000000000000000000000000000000000000000000000 PUSH1 0x0 MSTORE PUSH1 0x21 PUSH1 0x4 MSTORE PUSH1 0x24 PUSH1 0x0 REVERT JUMPDEST PUSH1 0x2 DUP2 LT PUSH2 0x672 JUMPI PUSH2 0x671 PUSH2 0x632 JUMP JUMPDEST JUMPDEST POP JUMP JUMPDEST PUSH1 0x0 DUP2 SWAP1 POP PUSH2 0x683 DUP3 PUSH2 0x661 JUMP JUMPDEST SWAP2 SWAP1 POP JUMP JUMPDEST PUSH1 0x0 PUSH2 0x693 DUP3 PUSH2 0x675 JUMP JUMPDEST SWAP1 POP SWAP2 SWAP1 POP JUMP JUMPDEST PUSH2 0x6A3 DUP2 PUSH2 0x688 JUMP JUMPDEST DUP3 MSTORE POP POP JUMP JUMPDEST PUSH1 0x0 PUSH1 0x20 DUP3 ADD SWAP1 POP PUSH2 0x6BE PUSH1 0x0 DUP4 ADD DUP5 PUSH2 0x69A JUMP JUMPDEST SWAP3 SWAP2 POP POP JUMP JUMPDEST PUSH1 0x0 PUSH2 0x6CF DUP3 PUSH2 0x5D6 JUMP JUMPDEST SWAP1 POP SWAP2 SWAP1 POP JUMP JUMPDEST PUSH2 0x6DF DUP2 PUSH2 0x6C4 JUMP JUMPDEST DUP3 MSTORE POP POP JUMP JUMPDEST PUSH1 0x0 PUSH1 0x20 DUP3 ADD SWAP1 POP PUSH2 0x6FA PUSH1 0x0 DUP4 ADD DUP5 PUSH2 0x6D6 JUMP JUMPDEST SWAP3 SWAP2 POP POP JUMP JUMPDEST PUSH1 0x0 DUP3 DUP3 MSTORE PUSH1 0x20 DUP3 ADD SWAP1 POP SWAP3 SWAP2 POP POP JUMP JUMPDEST PUSH32 0x596F757220617265206E6F7420746865206D616E616765720000000000000000 PUSH1 0x0 DUP3 ADD MSTORE POP JUMP JUMPDEST PUSH1 0x0 PUSH2 0x747 PUSH1 0x18 DUP4 PUSH2 0x700 JUMP JUMPDEST SWAP2 POP PUSH2 0x752 DUP3 PUSH2 0x711 JUMP JUMPDEST PUSH1 0x20 DUP3 ADD SWAP1 POP SWAP2 SWAP1 POP JUMP JUMPDEST PUSH1 0x0 PUSH1 0x20 DUP3 ADD SWAP1 POP DUP2 DUP2 SUB PUSH1 0x0 DUP4 ADD MSTORE PUSH2 0x776 DUP2 PUSH2 0x73A JUMP JUMPDEST SWAP1 POP SWAP2 SWAP1 POP JUMP JUMPDEST PUSH32 0x4C6F747465727920706572696F642068617320456E6465640000000000000000 PUSH1 0x0 DUP3 ADD MSTORE POP JUMP JUMPDEST PUSH1 0x0 PUSH2 0x7B3 PUSH1 0x18 DUP4 PUSH2 0x700 JUMP JUMPDEST SWAP2 POP PUSH2 0x7BE DUP3 PUSH2 0x77D JUMP JUMPDEST PUSH1 0x20 DUP3 ADD SWAP1 POP SWAP2 SWAP1 POP JUMP JUMPDEST PUSH1 0x0 PUSH1 0x20 DUP3 ADD SWAP1 POP DUP2 DUP2 SUB PUSH1 0x0 DUP4 ADD MSTORE PUSH2 0x7E2 DUP2 PUSH2 0x7A6 JUMP JUMPDEST SWAP1 POP SWAP2 SWAP1 POP JUMP JUMPDEST PUSH32 0x506C61796572732073686F756C64206E6F74206265206C657373207468616E20 PUSH1 0x0 DUP3 ADD MSTORE PUSH32 0x5448524545000000000000000000000000000000000000000000000000000000 PUSH1 0x20 DUP3 ADD MSTORE POP JUMP JUMPDEST PUSH1 0x0 PUSH2 0x845 PUSH1 0x25 DUP4 PUSH2 0x700 JUMP JUMPDEST SWAP2 POP PUSH2 0x850 DUP3 PUSH2 0x7E9 JUMP JUMPDEST PUSH1 0x40 DUP3 ADD SWAP1 POP SWAP2 SWAP1 POP JUMP JUMPDEST PUSH1 0x0 PUSH1 0x20 DUP3 ADD SWAP1 POP DUP2 DUP2 SUB PUSH1 0x0 DUP4 ADD MSTORE PUSH2 0x874 DUP2 PUSH2 0x838 JUMP JUMPDEST SWAP1 POP SWAP2 SWAP1 POP JUMP JUMPDEST PUSH1 0x0 DUP2 SWAP1 POP SWAP2 SWAP1 POP JUMP JUMPDEST PUSH2 0x896 PUSH2 0x891 DUP3 PUSH2 0x5A2 JUMP JUMPDEST PUSH2 0x87B JUMP JUMPDEST DUP3 MSTORE POP POP JUMP JUMPDEST PUSH1 0x0 PUSH2 0x8A8 DUP3 DUP6 PUSH2 0x885 JUMP JUMPDEST PUSH1 0x20 DUP3 ADD SWAP2 POP PUSH2 0x8B8 DUP3 DUP5 PUSH2 0x885 JUMP JUMPDEST PUSH1 0x20 DUP3 ADD SWAP2 POP DUP2 SWAP1 POP SWAP4 SWAP3 POP POP POP JUMP JUMPDEST PUSH32 0x4E487B7100000000000000000000000000000000000000000000000000000000 PUSH1 0x0 MSTORE PUSH1 0x12 PUSH1 0x4 MSTORE PUSH1 0x24 PUSH1 0x0 REVERT JUMPDEST PUSH1 0x0 PUSH2 0x902 DUP3 PUSH2 0x5A2 JUMP JUMPDEST SWAP2 POP PUSH2 0x90D DUP4 PUSH2 0x5A2 JUMP JUMPDEST SWAP3 POP DUP3 PUSH2 0x91D JUMPI PUSH2 0x91C PUSH2 0x8C8 JUMP JUMPDEST JUMPDEST DUP3 DUP3 MOD SWAP1 POP SWAP3 SWAP2 POP POP JUMP JUMPDEST PUSH32 0x4E487B7100000000000000000000000000000000000000000000000000000000 PUSH1 0x0 MSTORE PUSH1 0x32 PUSH1 0x4 MSTORE PUSH1 0x24 PUSH1 0x0 REVERT JUMPDEST PUSH32 0x5061792061746C656173742074776F2065746865727300000000000000000000 PUSH1 0x0 DUP3 ADD MSTORE POP JUMP JUMPDEST PUSH1 0x0 PUSH2 0x98D PUSH1 0x16 DUP4 PUSH2 0x700 JUMP JUMPDEST SWAP2 POP PUSH2 0x998 DUP3 PUSH2 0x957 JUMP JUMPDEST PUSH1 0x20 DUP3 ADD SWAP1 POP SWAP2 SWAP1 POP JUMP JUMPDEST PUSH1 0x0 PUSH1 0x20 DUP3 ADD SWAP1 POP DUP2 DUP2 SUB PUSH1 0x0 DUP4 ADD MSTORE PUSH2 0x9BC DUP2 PUSH2 0x980 JUMP JUMPDEST SWAP1 POP SWAP2 SWAP1 POP JUMP INVALID LOG2 PUSH5 0x6970667358 0x22 SLT KECCAK256 DUP7 SWAP8 0x27 DUP11 DUP1 0xCB 0xE0 0xD5 DELEGATECALL CALL DUP5 INVALID 0x4B SUB DUP2 MSTORE8 LOG4 0xAE PUSH31 0x6CDB2D206641B8476274C896D564736F6C6343000812003300000000000000 "
				},
				"gasEstimates": {
					"creation": {
						"codeDepositCost": "510600",
						"executionCost": "infinite",
						"totalCost": "infinite"
					},
					"external": {
						"getBalance()": "2604",
						"getLotteryAmount()": "infinite",
						"getWinner()": "infinite",
						"lotterystate()": "2605",
						"manager()": "2534",
						"participate()": "77277",
						"winner()": "2580"
					}
				},
				"methodIdentifiers": {
					"getBalance()": "12065fe0",
					"getLotteryAmount()": "a537e19d",
					"getWinner()": "8e7ea5b2",
					"lotterystate()": "69bb9269",
					"manager()": "481c6a75",
					"participate()": "d11711a2",
					"winner()": "dfbf53ae"
				}
			},
			"storageLayout": {
				"storage": [
					{
						"astId": 3,
						"contract": "contracts/lottery.sol:Lottery",
						"label": "manager",
						"offset": 0,
						"slot": "0",
						"type": "t_address"
					},
					{
						"astId": 6,
						"contract": "contracts/lottery.sol:Lottery",
						"label": "team",
						"offset": 0,
						"slot": "1",
						"type": "t_array(t_address_payable)dyn_storage"
					},
					{
						"astId": 8,
						"contract": "contracts/lottery.sol:Lottery",
						"label": "winner",
						"offset": 0,
						"slot": "2",
						"type": "t_address_payable"
					},
					{
						"astId": 10,
						"contract": "contracts/lottery.sol:Lottery",
						"label": "startTime",
						"offset": 0,
						"slot": "3",
						"type": "t_uint256"
					},
					{
						"astId": 12,
						"contract": "contracts/lottery.sol:Lottery",
						"label": "endTime",
						"offset": 0,
						"slot": "4",
						"type": "t_uint256"
					},
					{
						"astId": 18,
						"contract": "contracts/lottery.sol:Lottery",
						"label": "lotterystate",
						"offset": 0,
						"slot": "5",
						"type": "t_enum(LotteryState)15"
					}
				],
				"types": {
					"t_address": {
						"encoding": "inplace",
						"label": "address",
						"numberOfBytes": "20"
					},
					"t_address_payable": {
						"encoding": "inplace",
						"label": "address payable",
						"numberOfBytes": "20"
					},
					"t_array(t_address_payable)dyn_storage": {
						"base": "t_address_payable",
						"encoding": "dynamic_array",
						"label": "address payable[]",
						"numberOfBytes": "32"
					},
					"t_enum(LotteryState)15": {
						"encoding": "inplace",
						"label": "enum Lottery.LotteryState",
						"numberOfBytes": "1"
					},
					"t_uint256": {
						"encoding": "inplace",
						"label": "uint256",
						"numberOfBytes": "32"
					}
				}
			},
			"userdoc": {
				"kind": "user",
				"methods": {},
				"version": 1
			}
		}
	}
}