{
	"contracts/flightReservation.sol": {
		"FlightBooking": {
			"abi": [
				{
					"inputs": [],
					"stateMutability": "nonpayable",
					"type": "constructor"
				},
				{
					"inputs": [
						{
							"internalType": "address",
							"name": "staff",
							"type": "address"
						}
					],
					"name": "addAuthorizedStaff",
					"outputs": [],
					"stateMutability": "nonpayable",
					"type": "function"
				},
				{
					"inputs": [],
					"name": "addBalances",
					"outputs": [
						{
							"internalType": "uint256",
							"name": "",
							"type": "uint256"
						}
					],
					"stateMutability": "nonpayable",
					"type": "function"
				},
				{
					"inputs": [
						{
							"internalType": "uint256",
							"name": "flightNumber",
							"type": "uint256"
						},
						{
							"internalType": "uint256",
							"name": "_ticketPrice",
							"type": "uint256"
						},
						{
							"internalType": "uint256",
							"name": "_availableTickets",
							"type": "uint256"
						}
					],
					"name": "addFlight",
					"outputs": [],
					"stateMutability": "nonpayable",
					"type": "function"
				},
				{
					"inputs": [
						{
							"internalType": "address",
							"name": "",
							"type": "address"
						}
					],
					"name": "authorizedStaff",
					"outputs": [
						{
							"internalType": "bool",
							"name": "",
							"type": "bool"
						}
					],
					"stateMutability": "view",
					"type": "function"
				},
				{
					"inputs": [
						{
							"internalType": "address",
							"name": "",
							"type": "address"
						}
					],
					"name": "balances",
					"outputs": [
						{
							"internalType": "uint256",
							"name": "",
							"type": "uint256"
						}
					],
					"stateMutability": "view",
					"type": "function"
				},
				{
					"inputs": [
						{
							"internalType": "uint256",
							"name": "",
							"type": "uint256"
						}
					],
					"name": "booking",
					"outputs": [
						{
							"internalType": "address",
							"name": "owner",
							"type": "address"
						},
						{
							"internalType": "uint256",
							"name": "ticketPrice",
							"type": "uint256"
						},
						{
							"internalType": "uint256",
							"name": "availableTickets",
							"type": "uint256"
						},
						{
							"internalType": "bool",
							"name": "isPaid",
							"type": "bool"
						},
						{
							"internalType": "bool",
							"name": "isConfirmed",
							"type": "bool"
						},
						{
							"internalType": "uint256",
							"name": "flightStatus",
							"type": "uint256"
						}
					],
					"stateMutability": "view",
					"type": "function"
				},
				{
					"inputs": [
						{
							"internalType": "address",
							"name": "add",
							"type": "address"
						},
						{
							"internalType": "uint256",
							"name": "flightNumber",
							"type": "uint256"
						},
						{
							"internalType": "uint256",
							"name": "seatNumber",
							"type": "uint256"
						},
						{
							"internalType": "uint256",
							"name": "numberOfTickets",
							"type": "uint256"
						}
					],
					"name": "cancelTicket",
					"outputs": [],
					"stateMutability": "nonpayable",
					"type": "function"
				},
				{
					"inputs": [
						{
							"internalType": "uint256",
							"name": "flightNumber",
							"type": "uint256"
						}
					],
					"name": "checkFlightAvailable",
					"outputs": [],
					"stateMutability": "nonpayable",
					"type": "function"
				},
				{
					"inputs": [
						{
							"internalType": "uint256",
							"name": "flightNumber",
							"type": "uint256"
						}
					],
					"name": "checkFlightCancelled",
					"outputs": [],
					"stateMutability": "nonpayable",
					"type": "function"
				},
				{
					"inputs": [
						{
							"internalType": "uint256",
							"name": "flightNumber",
							"type": "uint256"
						}
					],
					"name": "confirmBooking",
					"outputs": [],
					"stateMutability": "nonpayable",
					"type": "function"
				},
				{
					"inputs": [
						{
							"internalType": "uint256",
							"name": "flightNumber",
							"type": "uint256"
						}
					],
					"name": "getRemainingTickets",
					"outputs": [
						{
							"internalType": "uint256",
							"name": "",
							"type": "uint256"
						}
					],
					"stateMutability": "view",
					"type": "function"
				},
				{
					"inputs": [
						{
							"internalType": "address",
							"name": "add",
							"type": "address"
						},
						{
							"internalType": "uint256",
							"name": "flightNumber",
							"type": "uint256"
						},
						{
							"internalType": "uint256",
							"name": "numberOfTickets",
							"type": "uint256"
						},
						{
							"internalType": "uint256",
							"name": "seatNumber",
							"type": "uint256"
						}
					],
					"name": "makePayment",
					"outputs": [],
					"stateMutability": "payable",
					"type": "function"
				},
				{
					"inputs": [],
					"name": "owner",
					"outputs": [
						{
							"internalType": "address",
							"name": "",
							"type": "address"
						}
					],
					"stateMutability": "view",
					"type": "function"
				},
				{
					"inputs": [
						{
							"internalType": "uint256",
							"name": "flightNumber",
							"type": "uint256"
						},
						{
							"internalType": "uint256",
							"name": "seatNumber",
							"type": "uint256"
						}
					],
					"name": "requestBooking",
					"outputs": [],
					"stateMutability": "view",
					"type": "function"
				},
				{
					"inputs": [],
					"name": "status",
					"outputs": [
						{
							"internalType": "enum FlightBooking.seatStatus",
							"name": "",
							"type": "uint8"
						}
					],
					"stateMutability": "view",
					"type": "function"
				}
			],
			"devdoc": {
				"kind": "dev",
				"methods": {},
				"version": 1
			},
			"evm": {
				"assembly": "    /* \"contracts/flightReservation.sol\":57:5477  contract FlightBooking{... */\n  mstore(0x40, 0x80)\n    /* \"contracts/flightReservation.sol\":938:1025  constructor(){... */\n  callvalue\n  dup1\n  iszero\n  tag_1\n  jumpi\n  0x00\n  dup1\n  revert\ntag_1:\n  pop\n    /* \"contracts/flightReservation.sol\":970:980  msg.sender */\n  caller\n    /* \"contracts/flightReservation.sol\":962:967  owner */\n  0x00\n  dup1\n    /* \"contracts/flightReservation.sol\":962:980  owner = msg.sender */\n  0x0100\n  exp\n  dup2\n  sload\n  dup2\n  0xffffffffffffffffffffffffffffffffffffffff\n  mul\n  not\n  and\n  swap1\n  dup4\n  0xffffffffffffffffffffffffffffffffffffffff\n  and\n  mul\n  or\n  swap1\n  sstore\n  pop\n    /* \"contracts/flightReservation.sol\":57:5477  contract FlightBooking{... */\n  dataSize(sub_0)\n  dup1\n  dataOffset(sub_0)\n  0x00\n  codecopy\n  0x00\n  return\nstop\n\nsub_0: assembly {\n        /* \"contracts/flightReservation.sol\":57:5477  contract FlightBooking{... */\n      mstore(0x40, 0x80)\n      jumpi(tag_1, lt(calldatasize, 0x04))\n      shr(0xe0, calldataload(0x00))\n      dup1\n      0x54056b69\n      gt\n      tag_17\n      jumpi\n      dup1\n      0x8da5cb5b\n      gt\n      tag_18\n      jumpi\n      dup1\n      0x8da5cb5b\n      eq\n      tag_13\n      jumpi\n      dup1\n      0x9c043f8c\n      eq\n      tag_14\n      jumpi\n      dup1\n      0xdecf5bd3\n      eq\n      tag_15\n      jumpi\n      dup1\n      0xf4b770dd\n      eq\n      tag_16\n      jumpi\n      jump(tag_1)\n    tag_18:\n      dup1\n      0x54056b69\n      eq\n      tag_9\n      jumpi\n      dup1\n      0x543be60b\n      eq\n      tag_10\n      jumpi\n      dup1\n      0x80af305a\n      eq\n      tag_11\n      jumpi\n      dup1\n      0x85ef45ec\n      eq\n      tag_12\n      jumpi\n      jump(tag_1)\n    tag_17:\n      dup1\n      0x2feac173\n      gt\n      tag_19\n      jumpi\n      dup1\n      0x2feac173\n      eq\n      tag_5\n      jumpi\n      dup1\n      0x358dc19c\n      eq\n      tag_6\n      jumpi\n      dup1\n      0x477a5fb5\n      eq\n      tag_7\n      jumpi\n      dup1\n      0x4d40d54f\n      eq\n      tag_8\n      jumpi\n      jump(tag_1)\n    tag_19:\n      dup1\n      0x0f64252f\n      eq\n      tag_2\n      jumpi\n      dup1\n      0x200d2ed2\n      eq\n      tag_3\n      jumpi\n      dup1\n      0x27e235e3\n      eq\n      tag_4\n      jumpi\n    tag_1:\n      0x00\n      dup1\n      revert\n        /* \"contracts/flightReservation.sol\":1762:2451  function requestBooking(uint flightNumber,uint seatNumber) public view {... */\n    tag_2:\n      callvalue\n      dup1\n      iszero\n      tag_20\n      jumpi\n      0x00\n      dup1\n      revert\n    tag_20:\n      pop\n      tag_21\n      0x04\n      dup1\n      calldatasize\n      sub\n      dup2\n      add\n      swap1\n      tag_22\n      swap2\n      swap1\n      tag_23\n      jump\t// in\n    tag_22:\n      tag_24\n      jump\t// in\n    tag_21:\n      stop\n        /* \"contracts/flightReservation.sol\":907:931  seatStatus public status */\n    tag_3:\n      callvalue\n      dup1\n      iszero\n      tag_25\n      jumpi\n      0x00\n      dup1\n      revert\n    tag_25:\n      pop\n      tag_26\n      tag_27\n      jump\t// in\n    tag_26:\n      mload(0x40)\n      tag_28\n      swap2\n      swap1\n      tag_29\n      jump\t// in\n    tag_28:\n      mload(0x40)\n      dup1\n      swap2\n      sub\n      swap1\n      return\n        /* \"contracts/flightReservation.sol\":599:639  mapping(address => uint) public balances */\n    tag_4:\n      callvalue\n      dup1\n      iszero\n      tag_30\n      jumpi\n      0x00\n      dup1\n      revert\n    tag_30:\n      pop\n      tag_31\n      0x04\n      dup1\n      calldatasize\n      sub\n      dup2\n      add\n      swap1\n      tag_32\n      swap2\n      swap1\n      tag_33\n      jump\t// in\n    tag_32:\n      tag_34\n      jump\t// in\n    tag_31:\n      mload(0x40)\n      tag_35\n      swap2\n      swap1\n      tag_36\n      jump\t// in\n    tag_35:\n      mload(0x40)\n      dup1\n      swap2\n      sub\n      swap1\n      return\n        /* \"contracts/flightReservation.sol\":545:592  mapping(address => bool) public authorizedStaff */\n    tag_5:\n      callvalue\n      dup1\n      iszero\n      tag_37\n      jumpi\n      0x00\n      dup1\n      revert\n    tag_37:\n      pop\n      tag_38\n      0x04\n      dup1\n      calldatasize\n      sub\n      dup2\n      add\n      swap1\n      tag_39\n      swap2\n      swap1\n      tag_33\n      jump\t// in\n    tag_39:\n      tag_40\n      jump\t// in\n    tag_38:\n      mload(0x40)\n      tag_41\n      swap2\n      swap1\n      tag_42\n      jump\t// in\n    tag_41:\n      mload(0x40)\n      dup1\n      swap2\n      sub\n      swap1\n      return\n        /* \"contracts/flightReservation.sol\":499:538  mapping(uint => Booking) public booking */\n    tag_6:\n      callvalue\n      dup1\n      iszero\n      tag_43\n      jumpi\n      0x00\n      dup1\n      revert\n    tag_43:\n      pop\n      tag_44\n      0x04\n      dup1\n      calldatasize\n      sub\n      dup2\n      add\n      swap1\n      tag_45\n      swap2\n      swap1\n      tag_46\n      jump\t// in\n    tag_45:\n      tag_47\n      jump\t// in\n    tag_44:\n      mload(0x40)\n      tag_48\n      swap7\n      swap6\n      swap5\n      swap4\n      swap3\n      swap2\n      swap1\n      tag_49\n      jump\t// in\n    tag_48:\n      mload(0x40)\n      dup1\n      swap2\n      sub\n      swap1\n      return\n        /* \"contracts/flightReservation.sol\":5247:5468  function checkFlightCancelled(uint flightNumber) public {... */\n    tag_7:\n      callvalue\n      dup1\n      iszero\n      tag_50\n      jumpi\n      0x00\n      dup1\n      revert\n    tag_50:\n      pop\n      tag_51\n      0x04\n      dup1\n      calldatasize\n      sub\n      dup2\n      add\n      swap1\n      tag_52\n      swap2\n      swap1\n      tag_46\n      jump\t// in\n    tag_52:\n      tag_53\n      jump\t// in\n    tag_51:\n      stop\n        /* \"contracts/flightReservation.sol\":1247:1376  function addBalances() public returns(uint) {... */\n    tag_8:\n      callvalue\n      dup1\n      iszero\n      tag_54\n      jumpi\n      0x00\n      dup1\n      revert\n    tag_54:\n      pop\n      tag_55\n      tag_56\n      jump\t// in\n    tag_55:\n      mload(0x40)\n      tag_57\n      swap2\n      swap1\n      tag_36\n      jump\t// in\n    tag_57:\n      mload(0x40)\n      dup1\n      swap2\n      sub\n      swap1\n      return\n        /* \"contracts/flightReservation.sol\":3670:3851  function confirmBooking(uint flightNumber) public {... */\n    tag_9:\n      callvalue\n      dup1\n      iszero\n      tag_58\n      jumpi\n      0x00\n      dup1\n      revert\n    tag_58:\n      pop\n      tag_59\n      0x04\n      dup1\n      calldatasize\n      sub\n      dup2\n      add\n      swap1\n      tag_60\n      swap2\n      swap1\n      tag_46\n      jump\t// in\n    tag_60:\n      tag_61\n      jump\t// in\n    tag_59:\n      stop\n        /* \"contracts/flightReservation.sol\":5015:5239  function checkFlightAvailable(uint flightNumber) public {... */\n    tag_10:\n      callvalue\n      dup1\n      iszero\n      tag_62\n      jumpi\n      0x00\n      dup1\n      revert\n    tag_62:\n      pop\n      tag_63\n      0x04\n      dup1\n      calldatasize\n      sub\n      dup2\n      add\n      swap1\n      tag_64\n      swap2\n      swap1\n      tag_46\n      jump\t// in\n    tag_64:\n      tag_65\n      jump\t// in\n    tag_63:\n      stop\n        /* \"contracts/flightReservation.sol\":2463:2600  function getRemainingTickets(uint flightNumber) public view returns(uint){... */\n    tag_11:\n      callvalue\n      dup1\n      iszero\n      tag_66\n      jumpi\n      0x00\n      dup1\n      revert\n    tag_66:\n      pop\n      tag_67\n      0x04\n      dup1\n      calldatasize\n      sub\n      dup2\n      add\n      swap1\n      tag_68\n      swap2\n      swap1\n      tag_46\n      jump\t// in\n    tag_68:\n      tag_69\n      jump\t// in\n    tag_67:\n      mload(0x40)\n      tag_70\n      swap2\n      swap1\n      tag_36\n      jump\t// in\n    tag_70:\n      mload(0x40)\n      dup1\n      swap2\n      sub\n      swap1\n      return\n        /* \"contracts/flightReservation.sol\":2608:3658  function makePayment(address add,uint flightNumber,uint numberOfTickets,uint seatNumber) public payable{... */\n    tag_12:\n      tag_71\n      0x04\n      dup1\n      calldatasize\n      sub\n      dup2\n      add\n      swap1\n      tag_72\n      swap2\n      swap1\n      tag_73\n      jump\t// in\n    tag_72:\n      tag_74\n      jump\t// in\n    tag_71:\n      stop\n        /* \"contracts/flightReservation.sol\":88:108  address public owner */\n    tag_13:\n      callvalue\n      dup1\n      iszero\n      tag_75\n      jumpi\n      0x00\n      dup1\n      revert\n    tag_75:\n      pop\n      tag_76\n      tag_77\n      jump\t// in\n    tag_76:\n      mload(0x40)\n      tag_78\n      swap2\n      swap1\n      tag_79\n      jump\t// in\n    tag_78:\n      mload(0x40)\n      dup1\n      swap2\n      sub\n      swap1\n      return\n        /* \"contracts/flightReservation.sol\":1143:1239  function addAuthorizedStaff(address staff) public {... */\n    tag_14:\n      callvalue\n      dup1\n      iszero\n      tag_80\n      jumpi\n      0x00\n      dup1\n      revert\n    tag_80:\n      pop\n      tag_81\n      0x04\n      dup1\n      calldatasize\n      sub\n      dup2\n      add\n      swap1\n      tag_82\n      swap2\n      swap1\n      tag_33\n      jump\t// in\n    tag_82:\n      tag_83\n      jump\t// in\n    tag_81:\n      stop\n        /* \"contracts/flightReservation.sol\":3859:4662  function cancelTicket(address add,uint flightNumber,uint seatNumber,uint numberOfTickets) public onlyOwner() {... */\n    tag_15:\n      callvalue\n      dup1\n      iszero\n      tag_84\n      jumpi\n      0x00\n      dup1\n      revert\n    tag_84:\n      pop\n      tag_85\n      0x04\n      dup1\n      calldatasize\n      sub\n      dup2\n      add\n      swap1\n      tag_86\n      swap2\n      swap1\n      tag_73\n      jump\t// in\n    tag_86:\n      tag_87\n      jump\t// in\n    tag_85:\n      stop\n        /* \"contracts/flightReservation.sol\":1384:1750  function addFlight(uint flightNumber,uint _ticketPrice,uint _availableTickets) public {... */\n    tag_16:\n      callvalue\n      dup1\n      iszero\n      tag_88\n      jumpi\n      0x00\n      dup1\n      revert\n    tag_88:\n      pop\n      tag_89\n      0x04\n      dup1\n      calldatasize\n      sub\n      dup2\n      add\n      swap1\n      tag_90\n      swap2\n      swap1\n      tag_91\n      jump\t// in\n    tag_90:\n      tag_92\n      jump\t// in\n    tag_89:\n      stop\n        /* \"contracts/flightReservation.sol\":1762:2451  function requestBooking(uint flightNumber,uint seatNumber) public view {... */\n    tag_24:\n        /* \"contracts/flightReservation.sol\":1937:1938  0 */\n      0x00\n        /* \"contracts/flightReservation.sol\":1899:1906  booking */\n      0x01\n        /* \"contracts/flightReservation.sol\":1899:1920  booking[flightNumber] */\n      0x00\n        /* \"contracts/flightReservation.sol\":1907:1919  flightNumber */\n      dup5\n        /* \"contracts/flightReservation.sol\":1899:1920  booking[flightNumber] */\n      dup2\n      mstore\n      0x20\n      add\n      swap1\n      dup2\n      mstore\n      0x20\n      add\n      0x00\n      keccak256\n        /* \"contracts/flightReservation.sol\":1899:1933  booking[flightNumber].flightStatus */\n      0x04\n      add\n      sload\n        /* \"contracts/flightReservation.sol\":1899:1938  booking[flightNumber].flightStatus == 0 */\n      eq\n        /* \"contracts/flightReservation.sol\":1891:1965  require(booking[flightNumber].flightStatus == 0,\"Flight is not Available\") */\n      tag_94\n      jumpi\n      mload(0x40)\n      0x08c379a000000000000000000000000000000000000000000000000000000000\n      dup2\n      mstore\n      0x04\n      add\n      tag_95\n      swap1\n      tag_96\n      jump\t// in\n    tag_95:\n      mload(0x40)\n      dup1\n      swap2\n      sub\n      swap1\n      revert\n    tag_94:\n        /* \"contracts/flightReservation.sol\":2083:2088  false */\n      0x00\n        /* \"contracts/flightReservation.sol\":2037:2088  seatAvailability[flightNumber][seatNumber] == false */\n      iszero\n      iszero\n        /* \"contracts/flightReservation.sol\":2037:2053  seatAvailability */\n      0x05\n        /* \"contracts/flightReservation.sol\":2037:2067  seatAvailability[flightNumber] */\n      0x00\n        /* \"contracts/flightReservation.sol\":2054:2066  flightNumber */\n      dup5\n        /* \"contracts/flightReservation.sol\":2037:2067  seatAvailability[flightNumber] */\n      dup2\n      mstore\n      0x20\n      add\n      swap1\n      dup2\n      mstore\n      0x20\n      add\n      0x00\n      keccak256\n        /* \"contracts/flightReservation.sol\":2037:2079  seatAvailability[flightNumber][seatNumber] */\n      0x00\n        /* \"contracts/flightReservation.sol\":2068:2078  seatNumber */\n      dup4\n        /* \"contracts/flightReservation.sol\":2037:2079  seatAvailability[flightNumber][seatNumber] */\n      dup2\n      mstore\n      0x20\n      add\n      swap1\n      dup2\n      mstore\n      0x20\n      add\n      0x00\n      keccak256\n      0x00\n      swap1\n      sload\n      swap1\n      0x0100\n      exp\n      swap1\n      div\n      0xff\n      and\n        /* \"contracts/flightReservation.sol\":2037:2088  seatAvailability[flightNumber][seatNumber] == false */\n      iszero\n      iszero\n      eq\n        /* \"contracts/flightReservation.sol\":2029:2111  require(seatAvailability[flightNumber][seatNumber] == false,\"Seat already Booked\") */\n      tag_97\n      jumpi\n      mload(0x40)\n      0x08c379a000000000000000000000000000000000000000000000000000000000\n      dup2\n      mstore\n      0x04\n      add\n      tag_98\n      swap1\n      tag_99\n      jump\t// in\n    tag_98:\n      mload(0x40)\n      dup1\n      swap2\n      sub\n      swap1\n      revert\n    tag_97:\n        /* \"contracts/flightReservation.sol\":2184:2185  1 */\n      0x01\n        /* \"contracts/flightReservation.sol\":2142:2149  booking */\n      dup1\n        /* \"contracts/flightReservation.sol\":2142:2163  booking[flightNumber] */\n      0x00\n        /* \"contracts/flightReservation.sol\":2150:2162  flightNumber */\n      dup5\n        /* \"contracts/flightReservation.sol\":2142:2163  booking[flightNumber] */\n      dup2\n      mstore\n      0x20\n      add\n      swap1\n      dup2\n      mstore\n      0x20\n      add\n      0x00\n      keccak256\n        /* \"contracts/flightReservation.sol\":2142:2180  booking[flightNumber].availableTickets */\n      0x02\n      add\n      sload\n        /* \"contracts/flightReservation.sol\":2142:2185  booking[flightNumber].availableTickets >= 1 */\n      lt\n      iszero\n        /* \"contracts/flightReservation.sol\":2134:2231  require(booking[flightNumber].availableTickets >= 1,\"Sorry! No enough tickets available to book\") */\n      tag_100\n      jumpi\n      mload(0x40)\n      0x08c379a000000000000000000000000000000000000000000000000000000000\n      dup2\n      mstore\n      0x04\n      add\n      tag_101\n      swap1\n      tag_102\n      jump\t// in\n    tag_101:\n      mload(0x40)\n      dup1\n      swap2\n      sub\n      swap1\n      revert\n    tag_100:\n        /* \"contracts/flightReservation.sol\":1762:2451  function requestBooking(uint flightNumber,uint seatNumber) public view {... */\n      pop\n      pop\n      jump\t// out\n        /* \"contracts/flightReservation.sol\":907:931  seatStatus public status */\n    tag_27:\n      0x07\n      0x00\n      swap1\n      sload\n      swap1\n      0x0100\n      exp\n      swap1\n      div\n      0xff\n      and\n      dup2\n      jump\t// out\n        /* \"contracts/flightReservation.sol\":599:639  mapping(address => uint) public balances */\n    tag_34:\n      mstore(0x20, 0x03)\n      dup1\n      0x00\n      mstore\n      keccak256(0x00, 0x40)\n      0x00\n      swap2\n      pop\n      swap1\n      pop\n      sload\n      dup2\n      jump\t// out\n        /* \"contracts/flightReservation.sol\":545:592  mapping(address => bool) public authorizedStaff */\n    tag_40:\n      mstore(0x20, 0x02)\n      dup1\n      0x00\n      mstore\n      keccak256(0x00, 0x40)\n      0x00\n      swap2\n      pop\n      sload\n      swap1\n      0x0100\n      exp\n      swap1\n      div\n      0xff\n      and\n      dup2\n      jump\t// out\n        /* \"contracts/flightReservation.sol\":499:538  mapping(uint => Booking) public booking */\n    tag_47:\n      mstore(0x20, 0x01)\n      dup1\n      0x00\n      mstore\n      keccak256(0x00, 0x40)\n      0x00\n      swap2\n      pop\n      swap1\n      pop\n      dup1\n      0x00\n      add\n      0x00\n      swap1\n      sload\n      swap1\n      0x0100\n      exp\n      swap1\n      div\n      0xffffffffffffffffffffffffffffffffffffffff\n      and\n      swap1\n      dup1\n      0x01\n      add\n      sload\n      swap1\n      dup1\n      0x02\n      add\n      sload\n      swap1\n      dup1\n      0x03\n      add\n      0x00\n      swap1\n      sload\n      swap1\n      0x0100\n      exp\n      swap1\n      div\n      0xff\n      and\n      swap1\n      dup1\n      0x03\n      add\n      0x01\n      swap1\n      sload\n      swap1\n      0x0100\n      exp\n      swap1\n      div\n      0xff\n      and\n      swap1\n      dup1\n      0x04\n      add\n      sload\n      swap1\n      pop\n      dup7\n      jump\t// out\n        /* \"contracts/flightReservation.sol\":5247:5468  function checkFlightCancelled(uint flightNumber) public {... */\n    tag_53:\n        /* \"contracts/flightReservation.sol\":5352:5356  true */\n      0x01\n        /* \"contracts/flightReservation.sol\":5321:5356  authorizedStaff[msg.sender] == true */\n      iszero\n      iszero\n        /* \"contracts/flightReservation.sol\":5321:5336  authorizedStaff */\n      0x02\n        /* \"contracts/flightReservation.sol\":5321:5348  authorizedStaff[msg.sender] */\n      0x00\n        /* \"contracts/flightReservation.sol\":5337:5347  msg.sender */\n      caller\n        /* \"contracts/flightReservation.sol\":5321:5348  authorizedStaff[msg.sender] */\n      0xffffffffffffffffffffffffffffffffffffffff\n      and\n      0xffffffffffffffffffffffffffffffffffffffff\n      and\n      dup2\n      mstore\n      0x20\n      add\n      swap1\n      dup2\n      mstore\n      0x20\n      add\n      0x00\n      keccak256\n      0x00\n      swap1\n      sload\n      swap1\n      0x0100\n      exp\n      swap1\n      div\n      0xff\n      and\n        /* \"contracts/flightReservation.sol\":5321:5356  authorizedStaff[msg.sender] == true */\n      iszero\n      iszero\n      eq\n        /* \"contracts/flightReservation.sol\":5313:5392  require(authorizedStaff[msg.sender] == true,\"You are not the Authorized Staff\") */\n      tag_104\n      jumpi\n      mload(0x40)\n      0x08c379a000000000000000000000000000000000000000000000000000000000\n      dup2\n      mstore\n      0x04\n      add\n      tag_105\n      swap1\n      tag_106\n      jump\t// in\n    tag_105:\n      mload(0x40)\n      dup1\n      swap2\n      sub\n      swap1\n      revert\n    tag_104:\n        /* \"contracts/flightReservation.sol\":5440:5441  1 */\n      0x01\n        /* \"contracts/flightReservation.sol\":5403:5410  booking */\n      dup1\n        /* \"contracts/flightReservation.sol\":5403:5424  booking[flightNumber] */\n      0x00\n        /* \"contracts/flightReservation.sol\":5411:5423  flightNumber */\n      dup4\n        /* \"contracts/flightReservation.sol\":5403:5424  booking[flightNumber] */\n      dup2\n      mstore\n      0x20\n      add\n      swap1\n      dup2\n      mstore\n      0x20\n      add\n      0x00\n      keccak256\n        /* \"contracts/flightReservation.sol\":5403:5437  booking[flightNumber].flightStatus */\n      0x04\n      add\n        /* \"contracts/flightReservation.sol\":5403:5441  booking[flightNumber].flightStatus = 1 */\n      dup2\n      swap1\n      sstore\n      pop\n        /* \"contracts/flightReservation.sol\":5247:5468  function checkFlightCancelled(uint flightNumber) public {... */\n      pop\n      jump\t// out\n        /* \"contracts/flightReservation.sol\":1247:1376  function addBalances() public returns(uint) {... */\n    tag_56:\n        /* \"contracts/flightReservation.sol\":1285:1289  uint */\n      0x00\n        /* \"contracts/flightReservation.sol\":1325:1330  50000 */\n      0xc350\n        /* \"contracts/flightReservation.sol\":1302:1310  balances */\n      0x03\n        /* \"contracts/flightReservation.sol\":1302:1322  balances[msg.sender] */\n      0x00\n        /* \"contracts/flightReservation.sol\":1311:1321  msg.sender */\n      caller\n        /* \"contracts/flightReservation.sol\":1302:1322  balances[msg.sender] */\n      0xffffffffffffffffffffffffffffffffffffffff\n      and\n      0xffffffffffffffffffffffffffffffffffffffff\n      and\n      dup2\n      mstore\n      0x20\n      add\n      swap1\n      dup2\n      mstore\n      0x20\n      add\n      0x00\n      keccak256\n      0x00\n        /* \"contracts/flightReservation.sol\":1302:1330  balances[msg.sender]+= 50000 */\n      dup3\n      dup3\n      sload\n      tag_108\n      swap2\n      swap1\n      tag_109\n      jump\t// in\n    tag_108:\n      swap3\n      pop\n      pop\n      dup2\n      swap1\n      sstore\n      pop\n        /* \"contracts/flightReservation.sol\":1348:1356  balances */\n      0x03\n        /* \"contracts/flightReservation.sol\":1348:1368  balances[msg.sender] */\n      0x00\n        /* \"contracts/flightReservation.sol\":1357:1367  msg.sender */\n      caller\n        /* \"contracts/flightReservation.sol\":1348:1368  balances[msg.sender] */\n      0xffffffffffffffffffffffffffffffffffffffff\n      and\n      0xffffffffffffffffffffffffffffffffffffffff\n      and\n      dup2\n      mstore\n      0x20\n      add\n      swap1\n      dup2\n      mstore\n      0x20\n      add\n      0x00\n      keccak256\n      sload\n        /* \"contracts/flightReservation.sol\":1341:1368  return balances[msg.sender] */\n      swap1\n      pop\n        /* \"contracts/flightReservation.sol\":1247:1376  function addBalances() public returns(uint) {... */\n      swap1\n      jump\t// out\n        /* \"contracts/flightReservation.sol\":3670:3851  function confirmBooking(uint flightNumber) public {... */\n    tag_61:\n        /* \"contracts/flightReservation.sol\":3739:3746  booking */\n      0x01\n        /* \"contracts/flightReservation.sol\":3739:3760  booking[flightNumber] */\n      0x00\n        /* \"contracts/flightReservation.sol\":3747:3759  flightNumber */\n      dup3\n        /* \"contracts/flightReservation.sol\":3739:3760  booking[flightNumber] */\n      dup2\n      mstore\n      0x20\n      add\n      swap1\n      dup2\n      mstore\n      0x20\n      add\n      0x00\n      keccak256\n        /* \"contracts/flightReservation.sol\":3739:3767  booking[flightNumber].isPaid */\n      0x03\n      add\n      0x00\n      swap1\n      sload\n      swap1\n      0x0100\n      exp\n      swap1\n      div\n      0xff\n      and\n        /* \"contracts/flightReservation.sol\":3731:3792  require(booking[flightNumber].isPaid,\"Payment not Completed\") */\n      tag_111\n      jumpi\n      mload(0x40)\n      0x08c379a000000000000000000000000000000000000000000000000000000000\n      dup2\n      mstore\n      0x04\n      add\n      tag_112\n      swap1\n      tag_113\n      jump\t// in\n    tag_112:\n      mload(0x40)\n      dup1\n      swap2\n      sub\n      swap1\n      revert\n    tag_111:\n        /* \"contracts/flightReservation.sol\":3839:3843  true */\n      0x01\n        /* \"contracts/flightReservation.sol\":3803:3810  booking */\n      dup1\n        /* \"contracts/flightReservation.sol\":3803:3824  booking[flightNumber] */\n      0x00\n        /* \"contracts/flightReservation.sol\":3811:3823  flightNumber */\n      dup4\n        /* \"contracts/flightReservation.sol\":3803:3824  booking[flightNumber] */\n      dup2\n      mstore\n      0x20\n      add\n      swap1\n      dup2\n      mstore\n      0x20\n      add\n      0x00\n      keccak256\n        /* \"contracts/flightReservation.sol\":3803:3836  booking[flightNumber].isConfirmed */\n      0x03\n      add\n      0x01\n        /* \"contracts/flightReservation.sol\":3803:3843  booking[flightNumber].isConfirmed = true */\n      0x0100\n      exp\n      dup2\n      sload\n      dup2\n      0xff\n      mul\n      not\n      and\n      swap1\n      dup4\n      iszero\n      iszero\n      mul\n      or\n      swap1\n      sstore\n      pop\n        /* \"contracts/flightReservation.sol\":3670:3851  function confirmBooking(uint flightNumber) public {... */\n      pop\n      jump\t// out\n        /* \"contracts/flightReservation.sol\":5015:5239  function checkFlightAvailable(uint flightNumber) public {... */\n    tag_65:\n        /* \"contracts/flightReservation.sol\":5121:5125  true */\n      0x01\n        /* \"contracts/flightReservation.sol\":5090:5125  authorizedStaff[msg.sender] == true */\n      iszero\n      iszero\n        /* \"contracts/flightReservation.sol\":5090:5105  authorizedStaff */\n      0x02\n        /* \"contracts/flightReservation.sol\":5090:5117  authorizedStaff[msg.sender] */\n      0x00\n        /* \"contracts/flightReservation.sol\":5106:5116  msg.sender */\n      caller\n        /* \"contracts/flightReservation.sol\":5090:5117  authorizedStaff[msg.sender] */\n      0xffffffffffffffffffffffffffffffffffffffff\n      and\n      0xffffffffffffffffffffffffffffffffffffffff\n      and\n      dup2\n      mstore\n      0x20\n      add\n      swap1\n      dup2\n      mstore\n      0x20\n      add\n      0x00\n      keccak256\n      0x00\n      swap1\n      sload\n      swap1\n      0x0100\n      exp\n      swap1\n      div\n      0xff\n      and\n        /* \"contracts/flightReservation.sol\":5090:5125  authorizedStaff[msg.sender] == true */\n      iszero\n      iszero\n      eq\n        /* \"contracts/flightReservation.sol\":5082:5161  require(authorizedStaff[msg.sender] == true,\"You are not the Authorized Staff\") */\n      tag_115\n      jumpi\n      mload(0x40)\n      0x08c379a000000000000000000000000000000000000000000000000000000000\n      dup2\n      mstore\n      0x04\n      add\n      tag_116\n      swap1\n      tag_106\n      jump\t// in\n    tag_116:\n      mload(0x40)\n      dup1\n      swap2\n      sub\n      swap1\n      revert\n    tag_115:\n        /* \"contracts/flightReservation.sol\":5209:5210  0 */\n      0x00\n        /* \"contracts/flightReservation.sol\":5172:5179  booking */\n      0x01\n        /* \"contracts/flightReservation.sol\":5172:5193  booking[flightNumber] */\n      0x00\n        /* \"contracts/flightReservation.sol\":5180:5192  flightNumber */\n      dup4\n        /* \"contracts/flightReservation.sol\":5172:5193  booking[flightNumber] */\n      dup2\n      mstore\n      0x20\n      add\n      swap1\n      dup2\n      mstore\n      0x20\n      add\n      0x00\n      keccak256\n        /* \"contracts/flightReservation.sol\":5172:5206  booking[flightNumber].flightStatus */\n      0x04\n      add\n        /* \"contracts/flightReservation.sol\":5172:5210  booking[flightNumber].flightStatus = 0 */\n      dup2\n      swap1\n      sstore\n      pop\n        /* \"contracts/flightReservation.sol\":5015:5239  function checkFlightAvailable(uint flightNumber) public {... */\n      pop\n      jump\t// out\n        /* \"contracts/flightReservation.sol\":2463:2600  function getRemainingTickets(uint flightNumber) public view returns(uint){... */\n    tag_69:\n        /* \"contracts/flightReservation.sol\":2531:2535  uint */\n      0x00\n        /* \"contracts/flightReservation.sol\":2554:2561  booking */\n      0x01\n        /* \"contracts/flightReservation.sol\":2554:2575  booking[flightNumber] */\n      0x00\n        /* \"contracts/flightReservation.sol\":2562:2574  flightNumber */\n      dup4\n        /* \"contracts/flightReservation.sol\":2554:2575  booking[flightNumber] */\n      dup2\n      mstore\n      0x20\n      add\n      swap1\n      dup2\n      mstore\n      0x20\n      add\n      0x00\n      keccak256\n        /* \"contracts/flightReservation.sol\":2554:2592  booking[flightNumber].availableTickets */\n      0x02\n      add\n      sload\n        /* \"contracts/flightReservation.sol\":2547:2592  return booking[flightNumber].availableTickets */\n      swap1\n      pop\n        /* \"contracts/flightReservation.sol\":2463:2600  function getRemainingTickets(uint flightNumber) public view returns(uint){... */\n      swap2\n      swap1\n      pop\n      jump\t// out\n        /* \"contracts/flightReservation.sol\":2608:3658  function makePayment(address add,uint flightNumber,uint numberOfTickets,uint seatNumber) public payable{... */\n    tag_74:\n        /* \"contracts/flightReservation.sol\":2774:2779  false */\n      0x00\n        /* \"contracts/flightReservation.sol\":2728:2779  seatAvailability[flightNumber][seatNumber] == false */\n      iszero\n      iszero\n        /* \"contracts/flightReservation.sol\":2728:2744  seatAvailability */\n      0x05\n        /* \"contracts/flightReservation.sol\":2728:2758  seatAvailability[flightNumber] */\n      0x00\n        /* \"contracts/flightReservation.sol\":2745:2757  flightNumber */\n      dup6\n        /* \"contracts/flightReservation.sol\":2728:2758  seatAvailability[flightNumber] */\n      dup2\n      mstore\n      0x20\n      add\n      swap1\n      dup2\n      mstore\n      0x20\n      add\n      0x00\n      keccak256\n        /* \"contracts/flightReservation.sol\":2728:2770  seatAvailability[flightNumber][seatNumber] */\n      0x00\n        /* \"contracts/flightReservation.sol\":2759:2769  seatNumber */\n      dup4\n        /* \"contracts/flightReservation.sol\":2728:2770  seatAvailability[flightNumber][seatNumber] */\n      dup2\n      mstore\n      0x20\n      add\n      swap1\n      dup2\n      mstore\n      0x20\n      add\n      0x00\n      keccak256\n      0x00\n      swap1\n      sload\n      swap1\n      0x0100\n      exp\n      swap1\n      div\n      0xff\n      and\n        /* \"contracts/flightReservation.sol\":2728:2779  seatAvailability[flightNumber][seatNumber] == false */\n      iszero\n      iszero\n      eq\n        /* \"contracts/flightReservation.sol\":2720:2802  require(seatAvailability[flightNumber][seatNumber] == false,\"Seat already Booked\") */\n      tag_119\n      jumpi\n      mload(0x40)\n      0x08c379a000000000000000000000000000000000000000000000000000000000\n      dup2\n      mstore\n      0x04\n      add\n      tag_120\n      swap1\n      tag_99\n      jump\t// in\n    tag_120:\n      mload(0x40)\n      dup1\n      swap2\n      sub\n      swap1\n      revert\n    tag_119:\n        /* \"contracts/flightReservation.sol\":2975:2976  1 */\n      0x01\n        /* \"contracts/flightReservation.sol\":2956:2971  numberOfTickets */\n      dup3\n        /* \"contracts/flightReservation.sol\":2956:2976  numberOfTickets == 1 */\n      eq\n        /* \"contracts/flightReservation.sol\":2948:3000  require(numberOfTickets == 1,\"Book only one Ticket\") */\n      tag_121\n      jumpi\n      mload(0x40)\n      0x08c379a000000000000000000000000000000000000000000000000000000000\n      dup2\n      mstore\n      0x04\n      add\n      tag_122\n      swap1\n      tag_123\n      jump\t// in\n    tag_122:\n      mload(0x40)\n      dup1\n      swap2\n      sub\n      swap1\n      revert\n    tag_121:\n        /* \"contracts/flightReservation.sol\":3076:3091  numberOfTickets */\n      dup2\n        /* \"contracts/flightReservation.sol\":3040:3047  booking */\n      0x01\n        /* \"contracts/flightReservation.sol\":3040:3061  booking[flightNumber] */\n      0x00\n        /* \"contracts/flightReservation.sol\":3048:3060  flightNumber */\n      dup6\n        /* \"contracts/flightReservation.sol\":3040:3061  booking[flightNumber] */\n      dup2\n      mstore\n      0x20\n      add\n      swap1\n      dup2\n      mstore\n      0x20\n      add\n      0x00\n      keccak256\n        /* \"contracts/flightReservation.sol\":3040:3073  booking[flightNumber].ticketPrice */\n      0x01\n      add\n      sload\n        /* \"contracts/flightReservation.sol\":3040:3091  booking[flightNumber].ticketPrice * numberOfTickets */\n      tag_124\n      swap2\n      swap1\n      tag_125\n      jump\t// in\n    tag_124:\n        /* \"contracts/flightReservation.sol\":3017:3025  balances */\n      0x03\n        /* \"contracts/flightReservation.sol\":3017:3037  balances[msg.sender] */\n      0x00\n        /* \"contracts/flightReservation.sol\":3026:3036  msg.sender */\n      caller\n        /* \"contracts/flightReservation.sol\":3017:3037  balances[msg.sender] */\n      0xffffffffffffffffffffffffffffffffffffffff\n      and\n      0xffffffffffffffffffffffffffffffffffffffff\n      and\n      dup2\n      mstore\n      0x20\n      add\n      swap1\n      dup2\n      mstore\n      0x20\n      add\n      0x00\n      keccak256\n      sload\n        /* \"contracts/flightReservation.sol\":3017:3091  balances[msg.sender] > booking[flightNumber].ticketPrice * numberOfTickets */\n      gt\n        /* \"contracts/flightReservation.sol\":3009:3113  require(balances[msg.sender] > booking[flightNumber].ticketPrice * numberOfTickets,\"Not enough balance\") */\n      tag_126\n      jumpi\n      mload(0x40)\n      0x08c379a000000000000000000000000000000000000000000000000000000000\n      dup2\n      mstore\n      0x04\n      add\n      tag_127\n      swap1\n      tag_128\n      jump\t// in\n    tag_127:\n      mload(0x40)\n      dup1\n      swap2\n      sub\n      swap1\n      revert\n    tag_126:\n        /* \"contracts/flightReservation.sol\":3122:3128  uint k */\n      0x00\n        /* \"contracts/flightReservation.sol\":3167:3182  numberOfTickets */\n      dup3\n        /* \"contracts/flightReservation.sol\":3131:3138  booking */\n      0x01\n        /* \"contracts/flightReservation.sol\":3131:3152  booking[flightNumber] */\n      0x00\n        /* \"contracts/flightReservation.sol\":3139:3151  flightNumber */\n      dup7\n        /* \"contracts/flightReservation.sol\":3131:3152  booking[flightNumber] */\n      dup2\n      mstore\n      0x20\n      add\n      swap1\n      dup2\n      mstore\n      0x20\n      add\n      0x00\n      keccak256\n        /* \"contracts/flightReservation.sol\":3131:3164  booking[flightNumber].ticketPrice */\n      0x01\n      add\n      sload\n        /* \"contracts/flightReservation.sol\":3131:3182  booking[flightNumber].ticketPrice * numberOfTickets */\n      tag_129\n      swap2\n      swap1\n      tag_125\n      jump\t// in\n    tag_129:\n        /* \"contracts/flightReservation.sol\":3122:3182  uint k = booking[flightNumber].ticketPrice * numberOfTickets */\n      swap1\n      pop\n        /* \"contracts/flightReservation.sol\":3233:3248  numberOfTickets */\n      dup3\n        /* \"contracts/flightReservation.sol\":3191:3198  booking */\n      0x01\n        /* \"contracts/flightReservation.sol\":3191:3212  booking[flightNumber] */\n      0x00\n        /* \"contracts/flightReservation.sol\":3199:3211  flightNumber */\n      dup7\n        /* \"contracts/flightReservation.sol\":3191:3212  booking[flightNumber] */\n      dup2\n      mstore\n      0x20\n      add\n      swap1\n      dup2\n      mstore\n      0x20\n      add\n      0x00\n      keccak256\n        /* \"contracts/flightReservation.sol\":3191:3229  booking[flightNumber].availableTickets */\n      0x02\n      add\n      0x00\n        /* \"contracts/flightReservation.sol\":3191:3248  booking[flightNumber].availableTickets -= numberOfTickets */\n      dup3\n      dup3\n      sload\n      tag_130\n      swap2\n      swap1\n      tag_131\n      jump\t// in\n    tag_130:\n      swap3\n      pop\n      pop\n      dup2\n      swap1\n      sstore\n      pop\n        /* \"contracts/flightReservation.sol\":3281:3282  k */\n      dup1\n        /* \"contracts/flightReservation.sol\":3257:3265  balances */\n      0x03\n        /* \"contracts/flightReservation.sol\":3257:3277  balances[msg.sender] */\n      0x00\n        /* \"contracts/flightReservation.sol\":3266:3276  msg.sender */\n      caller\n        /* \"contracts/flightReservation.sol\":3257:3277  balances[msg.sender] */\n      0xffffffffffffffffffffffffffffffffffffffff\n      and\n      0xffffffffffffffffffffffffffffffffffffffff\n      and\n      dup2\n      mstore\n      0x20\n      add\n      swap1\n      dup2\n      mstore\n      0x20\n      add\n      0x00\n      keccak256\n      0x00\n        /* \"contracts/flightReservation.sol\":3257:3282  balances[msg.sender] -= k */\n      dup3\n      dup3\n      sload\n      tag_132\n      swap2\n      swap1\n      tag_131\n      jump\t// in\n    tag_132:\n      swap3\n      pop\n      pop\n      dup2\n      swap1\n      sstore\n      pop\n        /* \"contracts/flightReservation.sol\":3328:3332  true */\n      0x01\n        /* \"contracts/flightReservation.sol\":3291:3295  seat */\n      0x06\n        /* \"contracts/flightReservation.sol\":3291:3309  seat[flightNumber] */\n      0x00\n        /* \"contracts/flightReservation.sol\":3296:3308  flightNumber */\n      dup7\n        /* \"contracts/flightReservation.sol\":3291:3309  seat[flightNumber] */\n      dup2\n      mstore\n      0x20\n      add\n      swap1\n      dup2\n      mstore\n      0x20\n      add\n      0x00\n      keccak256\n        /* \"contracts/flightReservation.sol\":3291:3321  seat[flightNumber][seatNumber] */\n      0x00\n        /* \"contracts/flightReservation.sol\":3310:3320  seatNumber */\n      dup5\n        /* \"contracts/flightReservation.sol\":3291:3321  seat[flightNumber][seatNumber] */\n      dup2\n      mstore\n      0x20\n      add\n      swap1\n      dup2\n      mstore\n      0x20\n      add\n      0x00\n      keccak256\n        /* \"contracts/flightReservation.sol\":3291:3325  seat[flightNumber][seatNumber].pay */\n      0x00\n      add\n      0x00\n        /* \"contracts/flightReservation.sol\":3291:3332  seat[flightNumber][seatNumber].pay = true */\n      0x0100\n      exp\n      dup2\n      sload\n      dup2\n      0xff\n      mul\n      not\n      and\n      swap1\n      dup4\n      iszero\n      iszero\n      mul\n      or\n      swap1\n      sstore\n      pop\n        /* \"contracts/flightReservation.sol\":3350:3357  payment */\n      0x04\n        /* \"contracts/flightReservation.sol\":3350:3371  payment[flightNumber] */\n      0x00\n        /* \"contracts/flightReservation.sol\":3358:3370  flightNumber */\n      dup6\n        /* \"contracts/flightReservation.sol\":3350:3371  payment[flightNumber] */\n      dup2\n      mstore\n      0x20\n      add\n      swap1\n      dup2\n      mstore\n      0x20\n      add\n      0x00\n      keccak256\n        /* \"contracts/flightReservation.sol\":3350:3376  payment[flightNumber][add] */\n      0x00\n        /* \"contracts/flightReservation.sol\":3372:3375  add */\n      dup7\n        /* \"contracts/flightReservation.sol\":3350:3376  payment[flightNumber][add] */\n      0xffffffffffffffffffffffffffffffffffffffff\n      and\n      0xffffffffffffffffffffffffffffffffffffffff\n      and\n      dup2\n      mstore\n      0x20\n      add\n      swap1\n      dup2\n      mstore\n      0x20\n      add\n      0x00\n      keccak256\n        /* \"contracts/flightReservation.sol\":3350:3383  payment[flightNumber][add].isPaid */\n      0x03\n      add\n      0x00\n      swap1\n      sload\n      swap1\n      0x0100\n      exp\n      swap1\n      div\n      0xff\n      and\n        /* \"contracts/flightReservation.sol\":3349:3383  !payment[flightNumber][add].isPaid */\n      iszero\n        /* \"contracts/flightReservation.sol\":3341:3413  require(!payment[flightNumber][add].isPaid, \"Booking already completed\") */\n      tag_133\n      jumpi\n      mload(0x40)\n      0x08c379a000000000000000000000000000000000000000000000000000000000\n      dup2\n      mstore\n      0x04\n      add\n      tag_134\n      swap1\n      tag_135\n      jump\t// in\n    tag_134:\n      mload(0x40)\n      dup1\n      swap2\n      sub\n      swap1\n      revert\n    tag_133:\n        /* \"contracts/flightReservation.sol\":3525:3529  true */\n      0x01\n        /* \"contracts/flightReservation.sol\":3494:3501  booking */\n      dup1\n        /* \"contracts/flightReservation.sol\":3494:3515  booking[flightNumber] */\n      0x00\n        /* \"contracts/flightReservation.sol\":3502:3514  flightNumber */\n      dup7\n        /* \"contracts/flightReservation.sol\":3494:3515  booking[flightNumber] */\n      dup2\n      mstore\n      0x20\n      add\n      swap1\n      dup2\n      mstore\n      0x20\n      add\n      0x00\n      keccak256\n        /* \"contracts/flightReservation.sol\":3494:3522  booking[flightNumber].isPaid */\n      0x03\n      add\n      0x00\n        /* \"contracts/flightReservation.sol\":3494:3529  booking[flightNumber].isPaid = true */\n      0x0100\n      exp\n      dup2\n      sload\n      dup2\n      0xff\n      mul\n      not\n      and\n      swap1\n      dup4\n      iszero\n      iszero\n      mul\n      or\n      swap1\n      sstore\n      pop\n        /* \"contracts/flightReservation.sol\":3584:3588  true */\n      0x01\n        /* \"contracts/flightReservation.sol\":3539:3555  seatAvailability */\n      0x05\n        /* \"contracts/flightReservation.sol\":3539:3569  seatAvailability[flightNumber] */\n      0x00\n        /* \"contracts/flightReservation.sol\":3556:3568  flightNumber */\n      dup7\n        /* \"contracts/flightReservation.sol\":3539:3569  seatAvailability[flightNumber] */\n      dup2\n      mstore\n      0x20\n      add\n      swap1\n      dup2\n      mstore\n      0x20\n      add\n      0x00\n      keccak256\n        /* \"contracts/flightReservation.sol\":3539:3581  seatAvailability[flightNumber][seatNumber] */\n      0x00\n        /* \"contracts/flightReservation.sol\":3570:3580  seatNumber */\n      dup5\n        /* \"contracts/flightReservation.sol\":3539:3581  seatAvailability[flightNumber][seatNumber] */\n      dup2\n      mstore\n      0x20\n      add\n      swap1\n      dup2\n      mstore\n      0x20\n      add\n      0x00\n      keccak256\n      0x00\n        /* \"contracts/flightReservation.sol\":3539:3588  seatAvailability[flightNumber][seatNumber] = true */\n      0x0100\n      exp\n      dup2\n      sload\n      dup2\n      0xff\n      mul\n      not\n      and\n      swap1\n      dup4\n      iszero\n      iszero\n      mul\n      or\n      swap1\n      sstore\n      pop\n        /* \"contracts/flightReservation.sol\":2711:3658  {... */\n      pop\n        /* \"contracts/flightReservation.sol\":2608:3658  function makePayment(address add,uint flightNumber,uint numberOfTickets,uint seatNumber) public payable{... */\n      pop\n      pop\n      pop\n      pop\n      jump\t// out\n        /* \"contracts/flightReservation.sol\":88:108  address public owner */\n    tag_77:\n      0x00\n      dup1\n      sload\n      swap1\n      0x0100\n      exp\n      swap1\n      div\n      0xffffffffffffffffffffffffffffffffffffffff\n      and\n      dup2\n      jump\t// out\n        /* \"contracts/flightReservation.sol\":1143:1239  function addAuthorizedStaff(address staff) public {... */\n    tag_83:\n        /* \"contracts/flightReservation.sol\":1227:1231  true */\n      0x01\n        /* \"contracts/flightReservation.sol\":1202:1217  authorizedStaff */\n      0x02\n        /* \"contracts/flightReservation.sol\":1202:1224  authorizedStaff[staff] */\n      0x00\n        /* \"contracts/flightReservation.sol\":1218:1223  staff */\n      dup4\n        /* \"contracts/flightReservation.sol\":1202:1224  authorizedStaff[staff] */\n      0xffffffffffffffffffffffffffffffffffffffff\n      and\n      0xffffffffffffffffffffffffffffffffffffffff\n      and\n      dup2\n      mstore\n      0x20\n      add\n      swap1\n      dup2\n      mstore\n      0x20\n      add\n      0x00\n      keccak256\n      0x00\n        /* \"contracts/flightReservation.sol\":1202:1231  authorizedStaff[staff] = true */\n      0x0100\n      exp\n      dup2\n      sload\n      dup2\n      0xff\n      mul\n      not\n      and\n      swap1\n      dup4\n      iszero\n      iszero\n      mul\n      or\n      swap1\n      sstore\n      pop\n        /* \"contracts/flightReservation.sol\":1143:1239  function addAuthorizedStaff(address staff) public {... */\n      pop\n      jump\t// out\n        /* \"contracts/flightReservation.sol\":3859:4662  function cancelTicket(address add,uint flightNumber,uint seatNumber,uint numberOfTickets) public onlyOwner() {... */\n    tag_87:\n        /* \"contracts/flightReservation.sol\":1079:1089  msg.sender */\n      caller\n        /* \"contracts/flightReservation.sol\":1070:1089  owner == msg.sender */\n      0xffffffffffffffffffffffffffffffffffffffff\n      and\n        /* \"contracts/flightReservation.sol\":1070:1075  owner */\n      0x00\n      dup1\n      sload\n      swap1\n      0x0100\n      exp\n      swap1\n      div\n      0xffffffffffffffffffffffffffffffffffffffff\n      and\n        /* \"contracts/flightReservation.sol\":1070:1089  owner == msg.sender */\n      0xffffffffffffffffffffffffffffffffffffffff\n      and\n      eq\n        /* \"contracts/flightReservation.sol\":1062:1115  require(owner == msg.sender ,\"You are not the Owner\") */\n      tag_138\n      jumpi\n      mload(0x40)\n      0x08c379a000000000000000000000000000000000000000000000000000000000\n      dup2\n      mstore\n      0x04\n      add\n      tag_139\n      swap1\n      tag_140\n      jump\t// in\n    tag_139:\n      mload(0x40)\n      dup1\n      swap2\n      sub\n      swap1\n      revert\n    tag_138:\n        /* \"contracts/flightReservation.sol\":4024:4028  true */\n      0x01\n        /* \"contracts/flightReservation.sol\":3986:4028  seat[flightNumber][seatNumber].pay == true */\n      iszero\n      iszero\n        /* \"contracts/flightReservation.sol\":3986:3990  seat */\n      0x06\n        /* \"contracts/flightReservation.sol\":3986:4004  seat[flightNumber] */\n      0x00\n        /* \"contracts/flightReservation.sol\":3991:4003  flightNumber */\n      dup6\n        /* \"contracts/flightReservation.sol\":3986:4004  seat[flightNumber] */\n      dup2\n      mstore\n      0x20\n      add\n      swap1\n      dup2\n      mstore\n      0x20\n      add\n      0x00\n      keccak256\n        /* \"contracts/flightReservation.sol\":3986:4016  seat[flightNumber][seatNumber] */\n      0x00\n        /* \"contracts/flightReservation.sol\":4005:4015  seatNumber */\n      dup5\n        /* \"contracts/flightReservation.sol\":3986:4016  seat[flightNumber][seatNumber] */\n      dup2\n      mstore\n      0x20\n      add\n      swap1\n      dup2\n      mstore\n      0x20\n      add\n      0x00\n      keccak256\n        /* \"contracts/flightReservation.sol\":3986:4020  seat[flightNumber][seatNumber].pay */\n      0x00\n      add\n      0x00\n      swap1\n      sload\n      swap1\n      0x0100\n      exp\n      swap1\n      div\n      0xff\n      and\n        /* \"contracts/flightReservation.sol\":3986:4028  seat[flightNumber][seatNumber].pay == true */\n      iszero\n      iszero\n      eq\n        /* \"contracts/flightReservation.sol\":3978:4053  require(seat[flightNumber][seatNumber].pay == true, \"Payment not yet done\") */\n      tag_142\n      jumpi\n      mload(0x40)\n      0x08c379a000000000000000000000000000000000000000000000000000000000\n      dup2\n      mstore\n      0x04\n      add\n      tag_143\n      swap1\n      tag_144\n      jump\t// in\n    tag_143:\n      mload(0x40)\n      dup1\n      swap2\n      sub\n      swap1\n      revert\n    tag_142:\n        /* \"contracts/flightReservation.sol\":4117:4121  true */\n      0x01\n        /* \"contracts/flightReservation.sol\":4071:4121  seatAvailability[flightNumber][seatNumber] == true */\n      iszero\n      iszero\n        /* \"contracts/flightReservation.sol\":4071:4087  seatAvailability */\n      0x05\n        /* \"contracts/flightReservation.sol\":4071:4101  seatAvailability[flightNumber] */\n      0x00\n        /* \"contracts/flightReservation.sol\":4088:4100  flightNumber */\n      dup6\n        /* \"contracts/flightReservation.sol\":4071:4101  seatAvailability[flightNumber] */\n      dup2\n      mstore\n      0x20\n      add\n      swap1\n      dup2\n      mstore\n      0x20\n      add\n      0x00\n      keccak256\n        /* \"contracts/flightReservation.sol\":4071:4113  seatAvailability[flightNumber][seatNumber] */\n      0x00\n        /* \"contracts/flightReservation.sol\":4102:4112  seatNumber */\n      dup5\n        /* \"contracts/flightReservation.sol\":4071:4113  seatAvailability[flightNumber][seatNumber] */\n      dup2\n      mstore\n      0x20\n      add\n      swap1\n      dup2\n      mstore\n      0x20\n      add\n      0x00\n      keccak256\n      0x00\n      swap1\n      sload\n      swap1\n      0x0100\n      exp\n      swap1\n      div\n      0xff\n      and\n        /* \"contracts/flightReservation.sol\":4071:4121  seatAvailability[flightNumber][seatNumber] == true */\n      iszero\n      iszero\n      eq\n        /* \"contracts/flightReservation.sol\":4063:4140  require(seatAvailability[flightNumber][seatNumber] == true,\"Seat not Booked\") */\n      tag_145\n      jumpi\n      mload(0x40)\n      0x08c379a000000000000000000000000000000000000000000000000000000000\n      dup2\n      mstore\n      0x04\n      add\n      tag_146\n      swap1\n      tag_147\n      jump\t// in\n    tag_146:\n      mload(0x40)\n      dup1\n      swap2\n      sub\n      swap1\n      revert\n    tag_145:\n        /* \"contracts/flightReservation.sol\":4265:4266  1 */\n      0x01\n        /* \"contracts/flightReservation.sol\":4246:4261  numberOfTickets */\n      dup2\n        /* \"contracts/flightReservation.sol\":4246:4266  numberOfTickets == 1 */\n      eq\n        /* \"contracts/flightReservation.sol\":4238:4287  require(numberOfTickets == 1,\"Cancel one Ticket\") */\n      tag_148\n      jumpi\n      mload(0x40)\n      0x08c379a000000000000000000000000000000000000000000000000000000000\n      dup2\n      mstore\n      0x04\n      add\n      tag_149\n      swap1\n      tag_150\n      jump\t// in\n    tag_149:\n      mload(0x40)\n      dup1\n      swap2\n      sub\n      swap1\n      revert\n    tag_148:\n        /* \"contracts/flightReservation.sol\":4350:4365  numberOfTickets */\n      dup1\n        /* \"contracts/flightReservation.sol\":4314:4321  booking */\n      0x01\n        /* \"contracts/flightReservation.sol\":4314:4335  booking[flightNumber] */\n      0x00\n        /* \"contracts/flightReservation.sol\":4322:4334  flightNumber */\n      dup6\n        /* \"contracts/flightReservation.sol\":4314:4335  booking[flightNumber] */\n      dup2\n      mstore\n      0x20\n      add\n      swap1\n      dup2\n      mstore\n      0x20\n      add\n      0x00\n      keccak256\n        /* \"contracts/flightReservation.sol\":4314:4347  booking[flightNumber].ticketPrice */\n      0x01\n      add\n      sload\n        /* \"contracts/flightReservation.sol\":4314:4365  booking[flightNumber].ticketPrice * numberOfTickets */\n      tag_151\n      swap2\n      swap1\n      tag_125\n      jump\t// in\n    tag_151:\n        /* \"contracts/flightReservation.sol\":4297:4305  balances */\n      0x03\n        /* \"contracts/flightReservation.sol\":4297:4310  balances[add] */\n      0x00\n        /* \"contracts/flightReservation.sol\":4306:4309  add */\n      dup7\n        /* \"contracts/flightReservation.sol\":4297:4310  balances[add] */\n      0xffffffffffffffffffffffffffffffffffffffff\n      and\n      0xffffffffffffffffffffffffffffffffffffffff\n      and\n      dup2\n      mstore\n      0x20\n      add\n      swap1\n      dup2\n      mstore\n      0x20\n      add\n      0x00\n      keccak256\n      0x00\n        /* \"contracts/flightReservation.sol\":4297:4365  balances[add] += booking[flightNumber].ticketPrice * numberOfTickets */\n      dup3\n      dup3\n      sload\n      tag_152\n      swap2\n      swap1\n      tag_109\n      jump\t// in\n    tag_152:\n      swap3\n      pop\n      pop\n      dup2\n      swap1\n      sstore\n      pop\n        /* \"contracts/flightReservation.sol\":4417:4432  numberOfTickets */\n      dup1\n        /* \"contracts/flightReservation.sol\":4375:4382  booking */\n      0x01\n        /* \"contracts/flightReservation.sol\":4375:4396  booking[flightNumber] */\n      0x00\n        /* \"contracts/flightReservation.sol\":4383:4395  flightNumber */\n      dup6\n        /* \"contracts/flightReservation.sol\":4375:4396  booking[flightNumber] */\n      dup2\n      mstore\n      0x20\n      add\n      swap1\n      dup2\n      mstore\n      0x20\n      add\n      0x00\n      keccak256\n        /* \"contracts/flightReservation.sol\":4375:4413  booking[flightNumber].availableTickets */\n      0x02\n      add\n      0x00\n        /* \"contracts/flightReservation.sol\":4375:4432  booking[flightNumber].availableTickets += numberOfTickets */\n      dup3\n      dup3\n      sload\n      tag_153\n      swap2\n      swap1\n      tag_109\n      jump\t// in\n    tag_153:\n      swap3\n      pop\n      pop\n      dup2\n      swap1\n      sstore\n      pop\n        /* \"contracts/flightReservation.sol\":4479:4484  false */\n      0x00\n        /* \"contracts/flightReservation.sol\":4442:4446  seat */\n      0x06\n        /* \"contracts/flightReservation.sol\":4442:4460  seat[flightNumber] */\n      0x00\n        /* \"contracts/flightReservation.sol\":4447:4459  flightNumber */\n      dup6\n        /* \"contracts/flightReservation.sol\":4442:4460  seat[flightNumber] */\n      dup2\n      mstore\n      0x20\n      add\n      swap1\n      dup2\n      mstore\n      0x20\n      add\n      0x00\n      keccak256\n        /* \"contracts/flightReservation.sol\":4442:4472  seat[flightNumber][seatNumber] */\n      0x00\n        /* \"contracts/flightReservation.sol\":4461:4471  seatNumber */\n      dup5\n        /* \"contracts/flightReservation.sol\":4442:4472  seat[flightNumber][seatNumber] */\n      dup2\n      mstore\n      0x20\n      add\n      swap1\n      dup2\n      mstore\n      0x20\n      add\n      0x00\n      keccak256\n        /* \"contracts/flightReservation.sol\":4442:4476  seat[flightNumber][seatNumber].pay */\n      0x00\n      add\n      0x00\n        /* \"contracts/flightReservation.sol\":4442:4484  seat[flightNumber][seatNumber].pay = false */\n      0x0100\n      exp\n      dup2\n      sload\n      dup2\n      0xff\n      mul\n      not\n      and\n      swap1\n      dup4\n      iszero\n      iszero\n      mul\n      or\n      swap1\n      sstore\n      pop\n        /* \"contracts/flightReservation.sol\":4539:4544  false */\n      0x00\n        /* \"contracts/flightReservation.sol\":4494:4510  seatAvailability */\n      0x05\n        /* \"contracts/flightReservation.sol\":4494:4524  seatAvailability[flightNumber] */\n      0x00\n        /* \"contracts/flightReservation.sol\":4511:4523  flightNumber */\n      dup6\n        /* \"contracts/flightReservation.sol\":4494:4524  seatAvailability[flightNumber] */\n      dup2\n      mstore\n      0x20\n      add\n      swap1\n      dup2\n      mstore\n      0x20\n      add\n      0x00\n      keccak256\n        /* \"contracts/flightReservation.sol\":4494:4536  seatAvailability[flightNumber][seatNumber] */\n      0x00\n        /* \"contracts/flightReservation.sol\":4525:4535  seatNumber */\n      dup5\n        /* \"contracts/flightReservation.sol\":4494:4536  seatAvailability[flightNumber][seatNumber] */\n      dup2\n      mstore\n      0x20\n      add\n      swap1\n      dup2\n      mstore\n      0x20\n      add\n      0x00\n      keccak256\n      0x00\n        /* \"contracts/flightReservation.sol\":4494:4544  seatAvailability[flightNumber][seatNumber] = false */\n      0x0100\n      exp\n      dup2\n      sload\n      dup2\n      0xff\n      mul\n      not\n      and\n      swap1\n      dup4\n      iszero\n      iszero\n      mul\n      or\n      swap1\n      sstore\n      pop\n        /* \"contracts/flightReservation.sol\":4598:4603  false */\n      0x00\n        /* \"contracts/flightReservation.sol\":4567:4574  booking */\n      0x01\n        /* \"contracts/flightReservation.sol\":4567:4588  booking[flightNumber] */\n      0x00\n        /* \"contracts/flightReservation.sol\":4575:4587  flightNumber */\n      dup6\n        /* \"contracts/flightReservation.sol\":4567:4588  booking[flightNumber] */\n      dup2\n      mstore\n      0x20\n      add\n      swap1\n      dup2\n      mstore\n      0x20\n      add\n      0x00\n      keccak256\n        /* \"contracts/flightReservation.sol\":4567:4595  booking[flightNumber].isPaid */\n      0x03\n      add\n      0x00\n        /* \"contracts/flightReservation.sol\":4567:4603  booking[flightNumber].isPaid = false */\n      0x0100\n      exp\n      dup2\n      sload\n      dup2\n      0xff\n      mul\n      not\n      and\n      swap1\n      dup4\n      iszero\n      iszero\n      mul\n      or\n      swap1\n      sstore\n      pop\n        /* \"contracts/flightReservation.sol\":4649:4654  false */\n      0x00\n        /* \"contracts/flightReservation.sol\":4613:4620  booking */\n      0x01\n        /* \"contracts/flightReservation.sol\":4613:4634  booking[flightNumber] */\n      0x00\n        /* \"contracts/flightReservation.sol\":4621:4633  flightNumber */\n      dup6\n        /* \"contracts/flightReservation.sol\":4613:4634  booking[flightNumber] */\n      dup2\n      mstore\n      0x20\n      add\n      swap1\n      dup2\n      mstore\n      0x20\n      add\n      0x00\n      keccak256\n        /* \"contracts/flightReservation.sol\":4613:4646  booking[flightNumber].isConfirmed */\n      0x03\n      add\n      0x01\n        /* \"contracts/flightReservation.sol\":4613:4654  booking[flightNumber].isConfirmed = false */\n      0x0100\n      exp\n      dup2\n      sload\n      dup2\n      0xff\n      mul\n      not\n      and\n      swap1\n      dup4\n      iszero\n      iszero\n      mul\n      or\n      swap1\n      sstore\n      pop\n        /* \"contracts/flightReservation.sol\":3859:4662  function cancelTicket(address add,uint flightNumber,uint seatNumber,uint numberOfTickets) public onlyOwner() {... */\n      pop\n      pop\n      pop\n      pop\n      jump\t// out\n        /* \"contracts/flightReservation.sol\":1384:1750  function addFlight(uint flightNumber,uint _ticketPrice,uint _availableTickets) public {... */\n    tag_92:\n        /* \"contracts/flightReservation.sol\":1520:1524  true */\n      0x01\n        /* \"contracts/flightReservation.sol\":1489:1524  authorizedStaff[msg.sender] == true */\n      iszero\n      iszero\n        /* \"contracts/flightReservation.sol\":1489:1504  authorizedStaff */\n      0x02\n        /* \"contracts/flightReservation.sol\":1489:1516  authorizedStaff[msg.sender] */\n      0x00\n        /* \"contracts/flightReservation.sol\":1505:1515  msg.sender */\n      caller\n        /* \"contracts/flightReservation.sol\":1489:1516  authorizedStaff[msg.sender] */\n      0xffffffffffffffffffffffffffffffffffffffff\n      and\n      0xffffffffffffffffffffffffffffffffffffffff\n      and\n      dup2\n      mstore\n      0x20\n      add\n      swap1\n      dup2\n      mstore\n      0x20\n      add\n      0x00\n      keccak256\n      0x00\n      swap1\n      sload\n      swap1\n      0x0100\n      exp\n      swap1\n      div\n      0xff\n      and\n        /* \"contracts/flightReservation.sol\":1489:1524  authorizedStaff[msg.sender] == true */\n      iszero\n      iszero\n      eq\n        /* \"contracts/flightReservation.sol\":1481:1552  require(authorizedStaff[msg.sender] == true,\"Not the Authorized Staff\") */\n      tag_155\n      jumpi\n      mload(0x40)\n      0x08c379a000000000000000000000000000000000000000000000000000000000\n      dup2\n      mstore\n      0x04\n      add\n      tag_156\n      swap1\n      tag_157\n      jump\t// in\n    tag_156:\n      mload(0x40)\n      dup1\n      swap2\n      sub\n      swap1\n      revert\n    tag_155:\n        /* \"contracts/flightReservation.sol\":1600:1601  0 */\n      0x00\n        /* \"contracts/flightReservation.sol\":1563:1570  booking */\n      0x01\n        /* \"contracts/flightReservation.sol\":1563:1584  booking[flightNumber] */\n      0x00\n        /* \"contracts/flightReservation.sol\":1571:1583  flightNumber */\n      dup6\n        /* \"contracts/flightReservation.sol\":1563:1584  booking[flightNumber] */\n      dup2\n      mstore\n      0x20\n      add\n      swap1\n      dup2\n      mstore\n      0x20\n      add\n      0x00\n      keccak256\n        /* \"contracts/flightReservation.sol\":1563:1597  booking[flightNumber].flightStatus */\n      0x04\n      add\n        /* \"contracts/flightReservation.sol\":1563:1601  booking[flightNumber].flightStatus = 0 */\n      dup2\n      swap1\n      sstore\n      pop\n        /* \"contracts/flightReservation.sol\":1666:1683  _availableTickets */\n      dup1\n        /* \"contracts/flightReservation.sol\":1625:1632  booking */\n      0x01\n        /* \"contracts/flightReservation.sol\":1625:1646  booking[flightNumber] */\n      0x00\n        /* \"contracts/flightReservation.sol\":1633:1645  flightNumber */\n      dup6\n        /* \"contracts/flightReservation.sol\":1625:1646  booking[flightNumber] */\n      dup2\n      mstore\n      0x20\n      add\n      swap1\n      dup2\n      mstore\n      0x20\n      add\n      0x00\n      keccak256\n        /* \"contracts/flightReservation.sol\":1625:1663  booking[flightNumber].availableTickets */\n      0x02\n      add\n        /* \"contracts/flightReservation.sol\":1625:1683  booking[flightNumber].availableTickets = _availableTickets */\n      dup2\n      swap1\n      sstore\n      pop\n        /* \"contracts/flightReservation.sol\":1730:1742  _ticketPrice */\n      dup2\n        /* \"contracts/flightReservation.sol\":1694:1701  booking */\n      0x01\n        /* \"contracts/flightReservation.sol\":1694:1715  booking[flightNumber] */\n      0x00\n        /* \"contracts/flightReservation.sol\":1702:1714  flightNumber */\n      dup6\n        /* \"contracts/flightReservation.sol\":1694:1715  booking[flightNumber] */\n      dup2\n      mstore\n      0x20\n      add\n      swap1\n      dup2\n      mstore\n      0x20\n      add\n      0x00\n      keccak256\n        /* \"contracts/flightReservation.sol\":1694:1727  booking[flightNumber].ticketPrice */\n      0x01\n      add\n        /* \"contracts/flightReservation.sol\":1694:1742  booking[flightNumber].ticketPrice = _ticketPrice */\n      dup2\n      swap1\n      sstore\n      pop\n        /* \"contracts/flightReservation.sol\":1384:1750  function addFlight(uint flightNumber,uint _ticketPrice,uint _availableTickets) public {... */\n      pop\n      pop\n      pop\n      jump\t// out\n        /* \"#utility.yul\":88:205   */\n    tag_159:\n        /* \"#utility.yul\":197:198   */\n      0x00\n        /* \"#utility.yul\":194:195   */\n      dup1\n        /* \"#utility.yul\":187:199   */\n      revert\n        /* \"#utility.yul\":334:411   */\n    tag_161:\n        /* \"#utility.yul\":371:378   */\n      0x00\n        /* \"#utility.yul\":400:405   */\n      dup2\n        /* \"#utility.yul\":389:405   */\n      swap1\n      pop\n        /* \"#utility.yul\":334:411   */\n      swap2\n      swap1\n      pop\n      jump\t// out\n        /* \"#utility.yul\":417:539   */\n    tag_162:\n        /* \"#utility.yul\":490:514   */\n      tag_211\n        /* \"#utility.yul\":508:513   */\n      dup2\n        /* \"#utility.yul\":490:514   */\n      tag_161\n      jump\t// in\n    tag_211:\n        /* \"#utility.yul\":483:488   */\n      dup2\n        /* \"#utility.yul\":480:515   */\n      eq\n        /* \"#utility.yul\":470:533   */\n      tag_212\n      jumpi\n        /* \"#utility.yul\":529:530   */\n      0x00\n        /* \"#utility.yul\":526:527   */\n      dup1\n        /* \"#utility.yul\":519:531   */\n      revert\n        /* \"#utility.yul\":470:533   */\n    tag_212:\n        /* \"#utility.yul\":417:539   */\n      pop\n      jump\t// out\n        /* \"#utility.yul\":545:684   */\n    tag_163:\n        /* \"#utility.yul\":591:596   */\n      0x00\n        /* \"#utility.yul\":629:635   */\n      dup2\n        /* \"#utility.yul\":616:636   */\n      calldataload\n        /* \"#utility.yul\":607:636   */\n      swap1\n      pop\n        /* \"#utility.yul\":645:678   */\n      tag_214\n        /* \"#utility.yul\":672:677   */\n      dup2\n        /* \"#utility.yul\":645:678   */\n      tag_162\n      jump\t// in\n    tag_214:\n        /* \"#utility.yul\":545:684   */\n      swap3\n      swap2\n      pop\n      pop\n      jump\t// out\n        /* \"#utility.yul\":690:1164   */\n    tag_23:\n        /* \"#utility.yul\":758:764   */\n      0x00\n        /* \"#utility.yul\":766:772   */\n      dup1\n        /* \"#utility.yul\":815:817   */\n      0x40\n        /* \"#utility.yul\":803:812   */\n      dup4\n        /* \"#utility.yul\":794:801   */\n      dup6\n        /* \"#utility.yul\":790:813   */\n      sub\n        /* \"#utility.yul\":786:818   */\n      slt\n        /* \"#utility.yul\":783:902   */\n      iszero\n      tag_216\n      jumpi\n        /* \"#utility.yul\":821:900   */\n      tag_217\n      tag_159\n      jump\t// in\n    tag_217:\n        /* \"#utility.yul\":783:902   */\n    tag_216:\n        /* \"#utility.yul\":941:942   */\n      0x00\n        /* \"#utility.yul\":966:1019   */\n      tag_218\n        /* \"#utility.yul\":1011:1018   */\n      dup6\n        /* \"#utility.yul\":1002:1008   */\n      dup3\n        /* \"#utility.yul\":991:1000   */\n      dup7\n        /* \"#utility.yul\":987:1009   */\n      add\n        /* \"#utility.yul\":966:1019   */\n      tag_163\n      jump\t// in\n    tag_218:\n        /* \"#utility.yul\":956:1019   */\n      swap3\n      pop\n        /* \"#utility.yul\":912:1029   */\n      pop\n        /* \"#utility.yul\":1068:1070   */\n      0x20\n        /* \"#utility.yul\":1094:1147   */\n      tag_219\n        /* \"#utility.yul\":1139:1146   */\n      dup6\n        /* \"#utility.yul\":1130:1136   */\n      dup3\n        /* \"#utility.yul\":1119:1128   */\n      dup7\n        /* \"#utility.yul\":1115:1137   */\n      add\n        /* \"#utility.yul\":1094:1147   */\n      tag_163\n      jump\t// in\n    tag_219:\n        /* \"#utility.yul\":1084:1147   */\n      swap2\n      pop\n        /* \"#utility.yul\":1039:1157   */\n      pop\n        /* \"#utility.yul\":690:1164   */\n      swap3\n      pop\n      swap3\n      swap1\n      pop\n      jump\t// out\n        /* \"#utility.yul\":1170:1350   */\n    tag_164:\n        /* \"#utility.yul\":1218:1295   */\n      0x4e487b7100000000000000000000000000000000000000000000000000000000\n        /* \"#utility.yul\":1215:1216   */\n      0x00\n        /* \"#utility.yul\":1208:1296   */\n      mstore\n        /* \"#utility.yul\":1315:1319   */\n      0x21\n        /* \"#utility.yul\":1312:1313   */\n      0x04\n        /* \"#utility.yul\":1305:1320   */\n      mstore\n        /* \"#utility.yul\":1339:1343   */\n      0x24\n        /* \"#utility.yul\":1336:1337   */\n      0x00\n        /* \"#utility.yul\":1329:1344   */\n      revert\n        /* \"#utility.yul\":1356:1474   */\n    tag_165:\n        /* \"#utility.yul\":1442:1443   */\n      0x02\n        /* \"#utility.yul\":1435:1440   */\n      dup2\n        /* \"#utility.yul\":1432:1444   */\n      lt\n        /* \"#utility.yul\":1422:1468   */\n      tag_222\n      jumpi\n        /* \"#utility.yul\":1448:1466   */\n      tag_223\n      tag_164\n      jump\t// in\n    tag_223:\n        /* \"#utility.yul\":1422:1468   */\n    tag_222:\n        /* \"#utility.yul\":1356:1474   */\n      pop\n      jump\t// out\n        /* \"#utility.yul\":1480:1617   */\n    tag_166:\n        /* \"#utility.yul\":1530:1537   */\n      0x00\n        /* \"#utility.yul\":1559:1564   */\n      dup2\n        /* \"#utility.yul\":1548:1564   */\n      swap1\n      pop\n        /* \"#utility.yul\":1565:1611   */\n      tag_225\n        /* \"#utility.yul\":1605:1610   */\n      dup3\n        /* \"#utility.yul\":1565:1611   */\n      tag_165\n      jump\t// in\n    tag_225:\n        /* \"#utility.yul\":1480:1617   */\n      swap2\n      swap1\n      pop\n      jump\t// out\n        /* \"#utility.yul\":1623:1760   */\n    tag_167:\n        /* \"#utility.yul\":1684:1693   */\n      0x00\n        /* \"#utility.yul\":1717:1754   */\n      tag_227\n        /* \"#utility.yul\":1748:1753   */\n      dup3\n        /* \"#utility.yul\":1717:1754   */\n      tag_166\n      jump\t// in\n    tag_227:\n        /* \"#utility.yul\":1704:1754   */\n      swap1\n      pop\n        /* \"#utility.yul\":1623:1760   */\n      swap2\n      swap1\n      pop\n      jump\t// out\n        /* \"#utility.yul\":1766:1919   */\n    tag_168:\n        /* \"#utility.yul\":1864:1912   */\n      tag_229\n        /* \"#utility.yul\":1906:1911   */\n      dup2\n        /* \"#utility.yul\":1864:1912   */\n      tag_167\n      jump\t// in\n    tag_229:\n        /* \"#utility.yul\":1859:1862   */\n      dup3\n        /* \"#utility.yul\":1852:1913   */\n      mstore\n        /* \"#utility.yul\":1766:1919   */\n      pop\n      pop\n      jump\t// out\n        /* \"#utility.yul\":1925:2169   */\n    tag_29:\n        /* \"#utility.yul\":2029:2033   */\n      0x00\n        /* \"#utility.yul\":2067:2069   */\n      0x20\n        /* \"#utility.yul\":2056:2065   */\n      dup3\n        /* \"#utility.yul\":2052:2070   */\n      add\n        /* \"#utility.yul\":2044:2070   */\n      swap1\n      pop\n        /* \"#utility.yul\":2080:2162   */\n      tag_231\n        /* \"#utility.yul\":2159:2160   */\n      0x00\n        /* \"#utility.yul\":2148:2157   */\n      dup4\n        /* \"#utility.yul\":2144:2161   */\n      add\n        /* \"#utility.yul\":2135:2141   */\n      dup5\n        /* \"#utility.yul\":2080:2162   */\n      tag_168\n      jump\t// in\n    tag_231:\n        /* \"#utility.yul\":1925:2169   */\n      swap3\n      swap2\n      pop\n      pop\n      jump\t// out\n        /* \"#utility.yul\":2175:2301   */\n    tag_169:\n        /* \"#utility.yul\":2212:2219   */\n      0x00\n        /* \"#utility.yul\":2252:2294   */\n      0xffffffffffffffffffffffffffffffffffffffff\n        /* \"#utility.yul\":2245:2250   */\n      dup3\n        /* \"#utility.yul\":2241:2295   */\n      and\n        /* \"#utility.yul\":2230:2295   */\n      swap1\n      pop\n        /* \"#utility.yul\":2175:2301   */\n      swap2\n      swap1\n      pop\n      jump\t// out\n        /* \"#utility.yul\":2307:2403   */\n    tag_170:\n        /* \"#utility.yul\":2344:2351   */\n      0x00\n        /* \"#utility.yul\":2373:2397   */\n      tag_234\n        /* \"#utility.yul\":2391:2396   */\n      dup3\n        /* \"#utility.yul\":2373:2397   */\n      tag_169\n      jump\t// in\n    tag_234:\n        /* \"#utility.yul\":2362:2397   */\n      swap1\n      pop\n        /* \"#utility.yul\":2307:2403   */\n      swap2\n      swap1\n      pop\n      jump\t// out\n        /* \"#utility.yul\":2409:2531   */\n    tag_171:\n        /* \"#utility.yul\":2482:2506   */\n      tag_236\n        /* \"#utility.yul\":2500:2505   */\n      dup2\n        /* \"#utility.yul\":2482:2506   */\n      tag_170\n      jump\t// in\n    tag_236:\n        /* \"#utility.yul\":2475:2480   */\n      dup2\n        /* \"#utility.yul\":2472:2507   */\n      eq\n        /* \"#utility.yul\":2462:2525   */\n      tag_237\n      jumpi\n        /* \"#utility.yul\":2521:2522   */\n      0x00\n        /* \"#utility.yul\":2518:2519   */\n      dup1\n        /* \"#utility.yul\":2511:2523   */\n      revert\n        /* \"#utility.yul\":2462:2525   */\n    tag_237:\n        /* \"#utility.yul\":2409:2531   */\n      pop\n      jump\t// out\n        /* \"#utility.yul\":2537:2676   */\n    tag_172:\n        /* \"#utility.yul\":2583:2588   */\n      0x00\n        /* \"#utility.yul\":2621:2627   */\n      dup2\n        /* \"#utility.yul\":2608:2628   */\n      calldataload\n        /* \"#utility.yul\":2599:2628   */\n      swap1\n      pop\n        /* \"#utility.yul\":2637:2670   */\n      tag_239\n        /* \"#utility.yul\":2664:2669   */\n      dup2\n        /* \"#utility.yul\":2637:2670   */\n      tag_171\n      jump\t// in\n    tag_239:\n        /* \"#utility.yul\":2537:2676   */\n      swap3\n      swap2\n      pop\n      pop\n      jump\t// out\n        /* \"#utility.yul\":2682:3011   */\n    tag_33:\n        /* \"#utility.yul\":2741:2747   */\n      0x00\n        /* \"#utility.yul\":2790:2792   */\n      0x20\n        /* \"#utility.yul\":2778:2787   */\n      dup3\n        /* \"#utility.yul\":2769:2776   */\n      dup5\n        /* \"#utility.yul\":2765:2788   */\n      sub\n        /* \"#utility.yul\":2761:2793   */\n      slt\n        /* \"#utility.yul\":2758:2877   */\n      iszero\n      tag_241\n      jumpi\n        /* \"#utility.yul\":2796:2875   */\n      tag_242\n      tag_159\n      jump\t// in\n    tag_242:\n        /* \"#utility.yul\":2758:2877   */\n    tag_241:\n        /* \"#utility.yul\":2916:2917   */\n      0x00\n        /* \"#utility.yul\":2941:2994   */\n      tag_243\n        /* \"#utility.yul\":2986:2993   */\n      dup5\n        /* \"#utility.yul\":2977:2983   */\n      dup3\n        /* \"#utility.yul\":2966:2975   */\n      dup6\n        /* \"#utility.yul\":2962:2984   */\n      add\n        /* \"#utility.yul\":2941:2994   */\n      tag_172\n      jump\t// in\n    tag_243:\n        /* \"#utility.yul\":2931:2994   */\n      swap2\n      pop\n        /* \"#utility.yul\":2887:3004   */\n      pop\n        /* \"#utility.yul\":2682:3011   */\n      swap3\n      swap2\n      pop\n      pop\n      jump\t// out\n        /* \"#utility.yul\":3017:3135   */\n    tag_173:\n        /* \"#utility.yul\":3104:3128   */\n      tag_245\n        /* \"#utility.yul\":3122:3127   */\n      dup2\n        /* \"#utility.yul\":3104:3128   */\n      tag_161\n      jump\t// in\n    tag_245:\n        /* \"#utility.yul\":3099:3102   */\n      dup3\n        /* \"#utility.yul\":3092:3129   */\n      mstore\n        /* \"#utility.yul\":3017:3135   */\n      pop\n      pop\n      jump\t// out\n        /* \"#utility.yul\":3141:3363   */\n    tag_36:\n        /* \"#utility.yul\":3234:3238   */\n      0x00\n        /* \"#utility.yul\":3272:3274   */\n      0x20\n        /* \"#utility.yul\":3261:3270   */\n      dup3\n        /* \"#utility.yul\":3257:3275   */\n      add\n        /* \"#utility.yul\":3249:3275   */\n      swap1\n      pop\n        /* \"#utility.yul\":3285:3356   */\n      tag_247\n        /* \"#utility.yul\":3353:3354   */\n      0x00\n        /* \"#utility.yul\":3342:3351   */\n      dup4\n        /* \"#utility.yul\":3338:3355   */\n      add\n        /* \"#utility.yul\":3329:3335   */\n      dup5\n        /* \"#utility.yul\":3285:3356   */\n      tag_173\n      jump\t// in\n    tag_247:\n        /* \"#utility.yul\":3141:3363   */\n      swap3\n      swap2\n      pop\n      pop\n      jump\t// out\n        /* \"#utility.yul\":3369:3459   */\n    tag_174:\n        /* \"#utility.yul\":3403:3410   */\n      0x00\n        /* \"#utility.yul\":3446:3451   */\n      dup2\n        /* \"#utility.yul\":3439:3452   */\n      iszero\n        /* \"#utility.yul\":3432:3453   */\n      iszero\n        /* \"#utility.yul\":3421:3453   */\n      swap1\n      pop\n        /* \"#utility.yul\":3369:3459   */\n      swap2\n      swap1\n      pop\n      jump\t// out\n        /* \"#utility.yul\":3465:3574   */\n    tag_175:\n        /* \"#utility.yul\":3546:3567   */\n      tag_250\n        /* \"#utility.yul\":3561:3566   */\n      dup2\n        /* \"#utility.yul\":3546:3567   */\n      tag_174\n      jump\t// in\n    tag_250:\n        /* \"#utility.yul\":3541:3544   */\n      dup3\n        /* \"#utility.yul\":3534:3568   */\n      mstore\n        /* \"#utility.yul\":3465:3574   */\n      pop\n      pop\n      jump\t// out\n        /* \"#utility.yul\":3580:3790   */\n    tag_42:\n        /* \"#utility.yul\":3667:3671   */\n      0x00\n        /* \"#utility.yul\":3705:3707   */\n      0x20\n        /* \"#utility.yul\":3694:3703   */\n      dup3\n        /* \"#utility.yul\":3690:3708   */\n      add\n        /* \"#utility.yul\":3682:3708   */\n      swap1\n      pop\n        /* \"#utility.yul\":3718:3783   */\n      tag_252\n        /* \"#utility.yul\":3780:3781   */\n      0x00\n        /* \"#utility.yul\":3769:3778   */\n      dup4\n        /* \"#utility.yul\":3765:3782   */\n      add\n        /* \"#utility.yul\":3756:3762   */\n      dup5\n        /* \"#utility.yul\":3718:3783   */\n      tag_175\n      jump\t// in\n    tag_252:\n        /* \"#utility.yul\":3580:3790   */\n      swap3\n      swap2\n      pop\n      pop\n      jump\t// out\n        /* \"#utility.yul\":3796:4125   */\n    tag_46:\n        /* \"#utility.yul\":3855:3861   */\n      0x00\n        /* \"#utility.yul\":3904:3906   */\n      0x20\n        /* \"#utility.yul\":3892:3901   */\n      dup3\n        /* \"#utility.yul\":3883:3890   */\n      dup5\n        /* \"#utility.yul\":3879:3902   */\n      sub\n        /* \"#utility.yul\":3875:3907   */\n      slt\n        /* \"#utility.yul\":3872:3991   */\n      iszero\n      tag_254\n      jumpi\n        /* \"#utility.yul\":3910:3989   */\n      tag_255\n      tag_159\n      jump\t// in\n    tag_255:\n        /* \"#utility.yul\":3872:3991   */\n    tag_254:\n        /* \"#utility.yul\":4030:4031   */\n      0x00\n        /* \"#utility.yul\":4055:4108   */\n      tag_256\n        /* \"#utility.yul\":4100:4107   */\n      dup5\n        /* \"#utility.yul\":4091:4097   */\n      dup3\n        /* \"#utility.yul\":4080:4089   */\n      dup6\n        /* \"#utility.yul\":4076:4098   */\n      add\n        /* \"#utility.yul\":4055:4108   */\n      tag_163\n      jump\t// in\n    tag_256:\n        /* \"#utility.yul\":4045:4108   */\n      swap2\n      pop\n        /* \"#utility.yul\":4001:4118   */\n      pop\n        /* \"#utility.yul\":3796:4125   */\n      swap3\n      swap2\n      pop\n      pop\n      jump\t// out\n        /* \"#utility.yul\":4131:4249   */\n    tag_176:\n        /* \"#utility.yul\":4218:4242   */\n      tag_258\n        /* \"#utility.yul\":4236:4241   */\n      dup2\n        /* \"#utility.yul\":4218:4242   */\n      tag_170\n      jump\t// in\n    tag_258:\n        /* \"#utility.yul\":4213:4216   */\n      dup3\n        /* \"#utility.yul\":4206:4243   */\n      mstore\n        /* \"#utility.yul\":4131:4249   */\n      pop\n      pop\n      jump\t// out\n        /* \"#utility.yul\":4255:5006   */\n    tag_49:\n        /* \"#utility.yul\":4476:4480   */\n      0x00\n        /* \"#utility.yul\":4514:4517   */\n      0xc0\n        /* \"#utility.yul\":4503:4512   */\n      dup3\n        /* \"#utility.yul\":4499:4518   */\n      add\n        /* \"#utility.yul\":4491:4518   */\n      swap1\n      pop\n        /* \"#utility.yul\":4528:4599   */\n      tag_260\n        /* \"#utility.yul\":4596:4597   */\n      0x00\n        /* \"#utility.yul\":4585:4594   */\n      dup4\n        /* \"#utility.yul\":4581:4598   */\n      add\n        /* \"#utility.yul\":4572:4578   */\n      dup10\n        /* \"#utility.yul\":4528:4599   */\n      tag_176\n      jump\t// in\n    tag_260:\n        /* \"#utility.yul\":4609:4681   */\n      tag_261\n        /* \"#utility.yul\":4677:4679   */\n      0x20\n        /* \"#utility.yul\":4666:4675   */\n      dup4\n        /* \"#utility.yul\":4662:4680   */\n      add\n        /* \"#utility.yul\":4653:4659   */\n      dup9\n        /* \"#utility.yul\":4609:4681   */\n      tag_173\n      jump\t// in\n    tag_261:\n        /* \"#utility.yul\":4691:4763   */\n      tag_262\n        /* \"#utility.yul\":4759:4761   */\n      0x40\n        /* \"#utility.yul\":4748:4757   */\n      dup4\n        /* \"#utility.yul\":4744:4762   */\n      add\n        /* \"#utility.yul\":4735:4741   */\n      dup8\n        /* \"#utility.yul\":4691:4763   */\n      tag_173\n      jump\t// in\n    tag_262:\n        /* \"#utility.yul\":4773:4839   */\n      tag_263\n        /* \"#utility.yul\":4835:4837   */\n      0x60\n        /* \"#utility.yul\":4824:4833   */\n      dup4\n        /* \"#utility.yul\":4820:4838   */\n      add\n        /* \"#utility.yul\":4811:4817   */\n      dup7\n        /* \"#utility.yul\":4773:4839   */\n      tag_175\n      jump\t// in\n    tag_263:\n        /* \"#utility.yul\":4849:4916   */\n      tag_264\n        /* \"#utility.yul\":4911:4914   */\n      0x80\n        /* \"#utility.yul\":4900:4909   */\n      dup4\n        /* \"#utility.yul\":4896:4915   */\n      add\n        /* \"#utility.yul\":4887:4893   */\n      dup6\n        /* \"#utility.yul\":4849:4916   */\n      tag_175\n      jump\t// in\n    tag_264:\n        /* \"#utility.yul\":4926:4999   */\n      tag_265\n        /* \"#utility.yul\":4994:4997   */\n      0xa0\n        /* \"#utility.yul\":4983:4992   */\n      dup4\n        /* \"#utility.yul\":4979:4998   */\n      add\n        /* \"#utility.yul\":4970:4976   */\n      dup5\n        /* \"#utility.yul\":4926:4999   */\n      tag_173\n      jump\t// in\n    tag_265:\n        /* \"#utility.yul\":4255:5006   */\n      swap8\n      swap7\n      pop\n      pop\n      pop\n      pop\n      pop\n      pop\n      pop\n      jump\t// out\n        /* \"#utility.yul\":5012:5777   */\n    tag_73:\n        /* \"#utility.yul\":5098:5104   */\n      0x00\n        /* \"#utility.yul\":5106:5112   */\n      dup1\n        /* \"#utility.yul\":5114:5120   */\n      0x00\n        /* \"#utility.yul\":5122:5128   */\n      dup1\n        /* \"#utility.yul\":5171:5174   */\n      0x80\n        /* \"#utility.yul\":5159:5168   */\n      dup6\n        /* \"#utility.yul\":5150:5157   */\n      dup8\n        /* \"#utility.yul\":5146:5169   */\n      sub\n        /* \"#utility.yul\":5142:5175   */\n      slt\n        /* \"#utility.yul\":5139:5259   */\n      iszero\n      tag_267\n      jumpi\n        /* \"#utility.yul\":5178:5257   */\n      tag_268\n      tag_159\n      jump\t// in\n    tag_268:\n        /* \"#utility.yul\":5139:5259   */\n    tag_267:\n        /* \"#utility.yul\":5298:5299   */\n      0x00\n        /* \"#utility.yul\":5323:5376   */\n      tag_269\n        /* \"#utility.yul\":5368:5375   */\n      dup8\n        /* \"#utility.yul\":5359:5365   */\n      dup3\n        /* \"#utility.yul\":5348:5357   */\n      dup9\n        /* \"#utility.yul\":5344:5366   */\n      add\n        /* \"#utility.yul\":5323:5376   */\n      tag_172\n      jump\t// in\n    tag_269:\n        /* \"#utility.yul\":5313:5376   */\n      swap5\n      pop\n        /* \"#utility.yul\":5269:5386   */\n      pop\n        /* \"#utility.yul\":5425:5427   */\n      0x20\n        /* \"#utility.yul\":5451:5504   */\n      tag_270\n        /* \"#utility.yul\":5496:5503   */\n      dup8\n        /* \"#utility.yul\":5487:5493   */\n      dup3\n        /* \"#utility.yul\":5476:5485   */\n      dup9\n        /* \"#utility.yul\":5472:5494   */\n      add\n        /* \"#utility.yul\":5451:5504   */\n      tag_163\n      jump\t// in\n    tag_270:\n        /* \"#utility.yul\":5441:5504   */\n      swap4\n      pop\n        /* \"#utility.yul\":5396:5514   */\n      pop\n        /* \"#utility.yul\":5553:5555   */\n      0x40\n        /* \"#utility.yul\":5579:5632   */\n      tag_271\n        /* \"#utility.yul\":5624:5631   */\n      dup8\n        /* \"#utility.yul\":5615:5621   */\n      dup3\n        /* \"#utility.yul\":5604:5613   */\n      dup9\n        /* \"#utility.yul\":5600:5622   */\n      add\n        /* \"#utility.yul\":5579:5632   */\n      tag_163\n      jump\t// in\n    tag_271:\n        /* \"#utility.yul\":5569:5632   */\n      swap3\n      pop\n        /* \"#utility.yul\":5524:5642   */\n      pop\n        /* \"#utility.yul\":5681:5683   */\n      0x60\n        /* \"#utility.yul\":5707:5760   */\n      tag_272\n        /* \"#utility.yul\":5752:5759   */\n      dup8\n        /* \"#utility.yul\":5743:5749   */\n      dup3\n        /* \"#utility.yul\":5732:5741   */\n      dup9\n        /* \"#utility.yul\":5728:5750   */\n      add\n        /* \"#utility.yul\":5707:5760   */\n      tag_163\n      jump\t// in\n    tag_272:\n        /* \"#utility.yul\":5697:5760   */\n      swap2\n      pop\n        /* \"#utility.yul\":5652:5770   */\n      pop\n        /* \"#utility.yul\":5012:5777   */\n      swap3\n      swap6\n      swap2\n      swap5\n      pop\n      swap3\n      pop\n      jump\t// out\n        /* \"#utility.yul\":5783:6005   */\n    tag_79:\n        /* \"#utility.yul\":5876:5880   */\n      0x00\n        /* \"#utility.yul\":5914:5916   */\n      0x20\n        /* \"#utility.yul\":5903:5912   */\n      dup3\n        /* \"#utility.yul\":5899:5917   */\n      add\n        /* \"#utility.yul\":5891:5917   */\n      swap1\n      pop\n        /* \"#utility.yul\":5927:5998   */\n      tag_274\n        /* \"#utility.yul\":5995:5996   */\n      0x00\n        /* \"#utility.yul\":5984:5993   */\n      dup4\n        /* \"#utility.yul\":5980:5997   */\n      add\n        /* \"#utility.yul\":5971:5977   */\n      dup5\n        /* \"#utility.yul\":5927:5998   */\n      tag_176\n      jump\t// in\n    tag_274:\n        /* \"#utility.yul\":5783:6005   */\n      swap3\n      swap2\n      pop\n      pop\n      jump\t// out\n        /* \"#utility.yul\":6011:6630   */\n    tag_91:\n        /* \"#utility.yul\":6088:6094   */\n      0x00\n        /* \"#utility.yul\":6096:6102   */\n      dup1\n        /* \"#utility.yul\":6104:6110   */\n      0x00\n        /* \"#utility.yul\":6153:6155   */\n      0x60\n        /* \"#utility.yul\":6141:6150   */\n      dup5\n        /* \"#utility.yul\":6132:6139   */\n      dup7\n        /* \"#utility.yul\":6128:6151   */\n      sub\n        /* \"#utility.yul\":6124:6156   */\n      slt\n        /* \"#utility.yul\":6121:6240   */\n      iszero\n      tag_276\n      jumpi\n        /* \"#utility.yul\":6159:6238   */\n      tag_277\n      tag_159\n      jump\t// in\n    tag_277:\n        /* \"#utility.yul\":6121:6240   */\n    tag_276:\n        /* \"#utility.yul\":6279:6280   */\n      0x00\n        /* \"#utility.yul\":6304:6357   */\n      tag_278\n        /* \"#utility.yul\":6349:6356   */\n      dup7\n        /* \"#utility.yul\":6340:6346   */\n      dup3\n        /* \"#utility.yul\":6329:6338   */\n      dup8\n        /* \"#utility.yul\":6325:6347   */\n      add\n        /* \"#utility.yul\":6304:6357   */\n      tag_163\n      jump\t// in\n    tag_278:\n        /* \"#utility.yul\":6294:6357   */\n      swap4\n      pop\n        /* \"#utility.yul\":6250:6367   */\n      pop\n        /* \"#utility.yul\":6406:6408   */\n      0x20\n        /* \"#utility.yul\":6432:6485   */\n      tag_279\n        /* \"#utility.yul\":6477:6484   */\n      dup7\n        /* \"#utility.yul\":6468:6474   */\n      dup3\n        /* \"#utility.yul\":6457:6466   */\n      dup8\n        /* \"#utility.yul\":6453:6475   */\n      add\n        /* \"#utility.yul\":6432:6485   */\n      tag_163\n      jump\t// in\n    tag_279:\n        /* \"#utility.yul\":6422:6485   */\n      swap3\n      pop\n        /* \"#utility.yul\":6377:6495   */\n      pop\n        /* \"#utility.yul\":6534:6536   */\n      0x40\n        /* \"#utility.yul\":6560:6613   */\n      tag_280\n        /* \"#utility.yul\":6605:6612   */\n      dup7\n        /* \"#utility.yul\":6596:6602   */\n      dup3\n        /* \"#utility.yul\":6585:6594   */\n      dup8\n        /* \"#utility.yul\":6581:6603   */\n      add\n        /* \"#utility.yul\":6560:6613   */\n      tag_163\n      jump\t// in\n    tag_280:\n        /* \"#utility.yul\":6550:6613   */\n      swap2\n      pop\n        /* \"#utility.yul\":6505:6623   */\n      pop\n        /* \"#utility.yul\":6011:6630   */\n      swap3\n      pop\n      swap3\n      pop\n      swap3\n      jump\t// out\n        /* \"#utility.yul\":6636:6805   */\n    tag_177:\n        /* \"#utility.yul\":6720:6731   */\n      0x00\n        /* \"#utility.yul\":6754:6760   */\n      dup3\n        /* \"#utility.yul\":6749:6752   */\n      dup3\n        /* \"#utility.yul\":6742:6761   */\n      mstore\n        /* \"#utility.yul\":6794:6798   */\n      0x20\n        /* \"#utility.yul\":6789:6792   */\n      dup3\n        /* \"#utility.yul\":6785:6799   */\n      add\n        /* \"#utility.yul\":6770:6799   */\n      swap1\n      pop\n        /* \"#utility.yul\":6636:6805   */\n      swap3\n      swap2\n      pop\n      pop\n      jump\t// out\n        /* \"#utility.yul\":6811:6984   */\n    tag_178:\n        /* \"#utility.yul\":6951:6976   */\n      0x466c69676874206973206e6f7420417661696c61626c65000000000000000000\n        /* \"#utility.yul\":6947:6948   */\n      0x00\n        /* \"#utility.yul\":6939:6945   */\n      dup3\n        /* \"#utility.yul\":6935:6949   */\n      add\n        /* \"#utility.yul\":6928:6977   */\n      mstore\n        /* \"#utility.yul\":6811:6984   */\n      pop\n      jump\t// out\n        /* \"#utility.yul\":6990:7356   */\n    tag_179:\n        /* \"#utility.yul\":7132:7135   */\n      0x00\n        /* \"#utility.yul\":7153:7220   */\n      tag_284\n        /* \"#utility.yul\":7217:7219   */\n      0x17\n        /* \"#utility.yul\":7212:7215   */\n      dup4\n        /* \"#utility.yul\":7153:7220   */\n      tag_177\n      jump\t// in\n    tag_284:\n        /* \"#utility.yul\":7146:7220   */\n      swap2\n      pop\n        /* \"#utility.yul\":7229:7322   */\n      tag_285\n        /* \"#utility.yul\":7318:7321   */\n      dup3\n        /* \"#utility.yul\":7229:7322   */\n      tag_178\n      jump\t// in\n    tag_285:\n        /* \"#utility.yul\":7347:7349   */\n      0x20\n        /* \"#utility.yul\":7342:7345   */\n      dup3\n        /* \"#utility.yul\":7338:7350   */\n      add\n        /* \"#utility.yul\":7331:7350   */\n      swap1\n      pop\n        /* \"#utility.yul\":6990:7356   */\n      swap2\n      swap1\n      pop\n      jump\t// out\n        /* \"#utility.yul\":7362:7781   */\n    tag_96:\n        /* \"#utility.yul\":7528:7532   */\n      0x00\n        /* \"#utility.yul\":7566:7568   */\n      0x20\n        /* \"#utility.yul\":7555:7564   */\n      dup3\n        /* \"#utility.yul\":7551:7569   */\n      add\n        /* \"#utility.yul\":7543:7569   */\n      swap1\n      pop\n        /* \"#utility.yul\":7615:7624   */\n      dup2\n        /* \"#utility.yul\":7609:7613   */\n      dup2\n        /* \"#utility.yul\":7605:7625   */\n      sub\n        /* \"#utility.yul\":7601:7602   */\n      0x00\n        /* \"#utility.yul\":7590:7599   */\n      dup4\n        /* \"#utility.yul\":7586:7603   */\n      add\n        /* \"#utility.yul\":7579:7626   */\n      mstore\n        /* \"#utility.yul\":7643:7774   */\n      tag_287\n        /* \"#utility.yul\":7769:7773   */\n      dup2\n        /* \"#utility.yul\":7643:7774   */\n      tag_179\n      jump\t// in\n    tag_287:\n        /* \"#utility.yul\":7635:7774   */\n      swap1\n      pop\n        /* \"#utility.yul\":7362:7781   */\n      swap2\n      swap1\n      pop\n      jump\t// out\n        /* \"#utility.yul\":7787:7956   */\n    tag_180:\n        /* \"#utility.yul\":7927:7948   */\n      0x5365617420616c726561647920426f6f6b656400000000000000000000000000\n        /* \"#utility.yul\":7923:7924   */\n      0x00\n        /* \"#utility.yul\":7915:7921   */\n      dup3\n        /* \"#utility.yul\":7911:7925   */\n      add\n        /* \"#utility.yul\":7904:7949   */\n      mstore\n        /* \"#utility.yul\":7787:7956   */\n      pop\n      jump\t// out\n        /* \"#utility.yul\":7962:8328   */\n    tag_181:\n        /* \"#utility.yul\":8104:8107   */\n      0x00\n        /* \"#utility.yul\":8125:8192   */\n      tag_290\n        /* \"#utility.yul\":8189:8191   */\n      0x13\n        /* \"#utility.yul\":8184:8187   */\n      dup4\n        /* \"#utility.yul\":8125:8192   */\n      tag_177\n      jump\t// in\n    tag_290:\n        /* \"#utility.yul\":8118:8192   */\n      swap2\n      pop\n        /* \"#utility.yul\":8201:8294   */\n      tag_291\n        /* \"#utility.yul\":8290:8293   */\n      dup3\n        /* \"#utility.yul\":8201:8294   */\n      tag_180\n      jump\t// in\n    tag_291:\n        /* \"#utility.yul\":8319:8321   */\n      0x20\n        /* \"#utility.yul\":8314:8317   */\n      dup3\n        /* \"#utility.yul\":8310:8322   */\n      add\n        /* \"#utility.yul\":8303:8322   */\n      swap1\n      pop\n        /* \"#utility.yul\":7962:8328   */\n      swap2\n      swap1\n      pop\n      jump\t// out\n        /* \"#utility.yul\":8334:8753   */\n    tag_99:\n        /* \"#utility.yul\":8500:8504   */\n      0x00\n        /* \"#utility.yul\":8538:8540   */\n      0x20\n        /* \"#utility.yul\":8527:8536   */\n      dup3\n        /* \"#utility.yul\":8523:8541   */\n      add\n        /* \"#utility.yul\":8515:8541   */\n      swap1\n      pop\n        /* \"#utility.yul\":8587:8596   */\n      dup2\n        /* \"#utility.yul\":8581:8585   */\n      dup2\n        /* \"#utility.yul\":8577:8597   */\n      sub\n        /* \"#utility.yul\":8573:8574   */\n      0x00\n        /* \"#utility.yul\":8562:8571   */\n      dup4\n        /* \"#utility.yul\":8558:8575   */\n      add\n        /* \"#utility.yul\":8551:8598   */\n      mstore\n        /* \"#utility.yul\":8615:8746   */\n      tag_293\n        /* \"#utility.yul\":8741:8745   */\n      dup2\n        /* \"#utility.yul\":8615:8746   */\n      tag_181\n      jump\t// in\n    tag_293:\n        /* \"#utility.yul\":8607:8746   */\n      swap1\n      pop\n        /* \"#utility.yul\":8334:8753   */\n      swap2\n      swap1\n      pop\n      jump\t// out\n        /* \"#utility.yul\":8759:8988   */\n    tag_182:\n        /* \"#utility.yul\":8899:8933   */\n      0x536f72727921204e6f20656e6f756768207469636b65747320617661696c6162\n        /* \"#utility.yul\":8895:8896   */\n      0x00\n        /* \"#utility.yul\":8887:8893   */\n      dup3\n        /* \"#utility.yul\":8883:8897   */\n      add\n        /* \"#utility.yul\":8876:8934   */\n      mstore\n        /* \"#utility.yul\":8968:8980   */\n      0x6c6520746f20626f6f6b00000000000000000000000000000000000000000000\n        /* \"#utility.yul\":8963:8965   */\n      0x20\n        /* \"#utility.yul\":8955:8961   */\n      dup3\n        /* \"#utility.yul\":8951:8966   */\n      add\n        /* \"#utility.yul\":8944:8981   */\n      mstore\n        /* \"#utility.yul\":8759:8988   */\n      pop\n      jump\t// out\n        /* \"#utility.yul\":8994:9360   */\n    tag_183:\n        /* \"#utility.yul\":9136:9139   */\n      0x00\n        /* \"#utility.yul\":9157:9224   */\n      tag_296\n        /* \"#utility.yul\":9221:9223   */\n      0x2a\n        /* \"#utility.yul\":9216:9219   */\n      dup4\n        /* \"#utility.yul\":9157:9224   */\n      tag_177\n      jump\t// in\n    tag_296:\n        /* \"#utility.yul\":9150:9224   */\n      swap2\n      pop\n        /* \"#utility.yul\":9233:9326   */\n      tag_297\n        /* \"#utility.yul\":9322:9325   */\n      dup3\n        /* \"#utility.yul\":9233:9326   */\n      tag_182\n      jump\t// in\n    tag_297:\n        /* \"#utility.yul\":9351:9353   */\n      0x40\n        /* \"#utility.yul\":9346:9349   */\n      dup3\n        /* \"#utility.yul\":9342:9354   */\n      add\n        /* \"#utility.yul\":9335:9354   */\n      swap1\n      pop\n        /* \"#utility.yul\":8994:9360   */\n      swap2\n      swap1\n      pop\n      jump\t// out\n        /* \"#utility.yul\":9366:9785   */\n    tag_102:\n        /* \"#utility.yul\":9532:9536   */\n      0x00\n        /* \"#utility.yul\":9570:9572   */\n      0x20\n        /* \"#utility.yul\":9559:9568   */\n      dup3\n        /* \"#utility.yul\":9555:9573   */\n      add\n        /* \"#utility.yul\":9547:9573   */\n      swap1\n      pop\n        /* \"#utility.yul\":9619:9628   */\n      dup2\n        /* \"#utility.yul\":9613:9617   */\n      dup2\n        /* \"#utility.yul\":9609:9629   */\n      sub\n        /* \"#utility.yul\":9605:9606   */\n      0x00\n        /* \"#utility.yul\":9594:9603   */\n      dup4\n        /* \"#utility.yul\":9590:9607   */\n      add\n        /* \"#utility.yul\":9583:9630   */\n      mstore\n        /* \"#utility.yul\":9647:9778   */\n      tag_299\n        /* \"#utility.yul\":9773:9777   */\n      dup2\n        /* \"#utility.yul\":9647:9778   */\n      tag_183\n      jump\t// in\n    tag_299:\n        /* \"#utility.yul\":9639:9778   */\n      swap1\n      pop\n        /* \"#utility.yul\":9366:9785   */\n      swap2\n      swap1\n      pop\n      jump\t// out\n        /* \"#utility.yul\":9791:9973   */\n    tag_184:\n        /* \"#utility.yul\":9931:9965   */\n      0x596f7520617265206e6f742074686520417574686f72697a6564205374616666\n        /* \"#utility.yul\":9927:9928   */\n      0x00\n        /* \"#utility.yul\":9919:9925   */\n      dup3\n        /* \"#utility.yul\":9915:9929   */\n      add\n        /* \"#utility.yul\":9908:9966   */\n      mstore\n        /* \"#utility.yul\":9791:9973   */\n      pop\n      jump\t// out\n        /* \"#utility.yul\":9979:10345   */\n    tag_185:\n        /* \"#utility.yul\":10121:10124   */\n      0x00\n        /* \"#utility.yul\":10142:10209   */\n      tag_302\n        /* \"#utility.yul\":10206:10208   */\n      0x20\n        /* \"#utility.yul\":10201:10204   */\n      dup4\n        /* \"#utility.yul\":10142:10209   */\n      tag_177\n      jump\t// in\n    tag_302:\n        /* \"#utility.yul\":10135:10209   */\n      swap2\n      pop\n        /* \"#utility.yul\":10218:10311   */\n      tag_303\n        /* \"#utility.yul\":10307:10310   */\n      dup3\n        /* \"#utility.yul\":10218:10311   */\n      tag_184\n      jump\t// in\n    tag_303:\n        /* \"#utility.yul\":10336:10338   */\n      0x20\n        /* \"#utility.yul\":10331:10334   */\n      dup3\n        /* \"#utility.yul\":10327:10339   */\n      add\n        /* \"#utility.yul\":10320:10339   */\n      swap1\n      pop\n        /* \"#utility.yul\":9979:10345   */\n      swap2\n      swap1\n      pop\n      jump\t// out\n        /* \"#utility.yul\":10351:10770   */\n    tag_106:\n        /* \"#utility.yul\":10517:10521   */\n      0x00\n        /* \"#utility.yul\":10555:10557   */\n      0x20\n        /* \"#utility.yul\":10544:10553   */\n      dup3\n        /* \"#utility.yul\":10540:10558   */\n      add\n        /* \"#utility.yul\":10532:10558   */\n      swap1\n      pop\n        /* \"#utility.yul\":10604:10613   */\n      dup2\n        /* \"#utility.yul\":10598:10602   */\n      dup2\n        /* \"#utility.yul\":10594:10614   */\n      sub\n        /* \"#utility.yul\":10590:10591   */\n      0x00\n        /* \"#utility.yul\":10579:10588   */\n      dup4\n        /* \"#utility.yul\":10575:10592   */\n      add\n        /* \"#utility.yul\":10568:10615   */\n      mstore\n        /* \"#utility.yul\":10632:10763   */\n      tag_305\n        /* \"#utility.yul\":10758:10762   */\n      dup2\n        /* \"#utility.yul\":10632:10763   */\n      tag_185\n      jump\t// in\n    tag_305:\n        /* \"#utility.yul\":10624:10763   */\n      swap1\n      pop\n        /* \"#utility.yul\":10351:10770   */\n      swap2\n      swap1\n      pop\n      jump\t// out\n        /* \"#utility.yul\":10776:10956   */\n    tag_186:\n        /* \"#utility.yul\":10824:10901   */\n      0x4e487b7100000000000000000000000000000000000000000000000000000000\n        /* \"#utility.yul\":10821:10822   */\n      0x00\n        /* \"#utility.yul\":10814:10902   */\n      mstore\n        /* \"#utility.yul\":10921:10925   */\n      0x11\n        /* \"#utility.yul\":10918:10919   */\n      0x04\n        /* \"#utility.yul\":10911:10926   */\n      mstore\n        /* \"#utility.yul\":10945:10949   */\n      0x24\n        /* \"#utility.yul\":10942:10943   */\n      0x00\n        /* \"#utility.yul\":10935:10950   */\n      revert\n        /* \"#utility.yul\":10962:11153   */\n    tag_109:\n        /* \"#utility.yul\":11002:11005   */\n      0x00\n        /* \"#utility.yul\":11021:11041   */\n      tag_308\n        /* \"#utility.yul\":11039:11040   */\n      dup3\n        /* \"#utility.yul\":11021:11041   */\n      tag_161\n      jump\t// in\n    tag_308:\n        /* \"#utility.yul\":11016:11041   */\n      swap2\n      pop\n        /* \"#utility.yul\":11055:11075   */\n      tag_309\n        /* \"#utility.yul\":11073:11074   */\n      dup4\n        /* \"#utility.yul\":11055:11075   */\n      tag_161\n      jump\t// in\n    tag_309:\n        /* \"#utility.yul\":11050:11075   */\n      swap3\n      pop\n        /* \"#utility.yul\":11098:11099   */\n      dup3\n        /* \"#utility.yul\":11095:11096   */\n      dup3\n        /* \"#utility.yul\":11091:11100   */\n      add\n        /* \"#utility.yul\":11084:11100   */\n      swap1\n      pop\n        /* \"#utility.yul\":11119:11122   */\n      dup1\n        /* \"#utility.yul\":11116:11117   */\n      dup3\n        /* \"#utility.yul\":11113:11123   */\n      gt\n        /* \"#utility.yul\":11110:11146   */\n      iszero\n      tag_310\n      jumpi\n        /* \"#utility.yul\":11126:11144   */\n      tag_311\n      tag_186\n      jump\t// in\n    tag_311:\n        /* \"#utility.yul\":11110:11146   */\n    tag_310:\n        /* \"#utility.yul\":10962:11153   */\n      swap3\n      swap2\n      pop\n      pop\n      jump\t// out\n        /* \"#utility.yul\":11159:11330   */\n    tag_187:\n        /* \"#utility.yul\":11299:11322   */\n      0x5061796d656e74206e6f7420436f6d706c657465640000000000000000000000\n        /* \"#utility.yul\":11295:11296   */\n      0x00\n        /* \"#utility.yul\":11287:11293   */\n      dup3\n        /* \"#utility.yul\":11283:11297   */\n      add\n        /* \"#utility.yul\":11276:11323   */\n      mstore\n        /* \"#utility.yul\":11159:11330   */\n      pop\n      jump\t// out\n        /* \"#utility.yul\":11336:11702   */\n    tag_188:\n        /* \"#utility.yul\":11478:11481   */\n      0x00\n        /* \"#utility.yul\":11499:11566   */\n      tag_314\n        /* \"#utility.yul\":11563:11565   */\n      0x15\n        /* \"#utility.yul\":11558:11561   */\n      dup4\n        /* \"#utility.yul\":11499:11566   */\n      tag_177\n      jump\t// in\n    tag_314:\n        /* \"#utility.yul\":11492:11566   */\n      swap2\n      pop\n        /* \"#utility.yul\":11575:11668   */\n      tag_315\n        /* \"#utility.yul\":11664:11667   */\n      dup3\n        /* \"#utility.yul\":11575:11668   */\n      tag_187\n      jump\t// in\n    tag_315:\n        /* \"#utility.yul\":11693:11695   */\n      0x20\n        /* \"#utility.yul\":11688:11691   */\n      dup3\n        /* \"#utility.yul\":11684:11696   */\n      add\n        /* \"#utility.yul\":11677:11696   */\n      swap1\n      pop\n        /* \"#utility.yul\":11336:11702   */\n      swap2\n      swap1\n      pop\n      jump\t// out\n        /* \"#utility.yul\":11708:12127   */\n    tag_113:\n        /* \"#utility.yul\":11874:11878   */\n      0x00\n        /* \"#utility.yul\":11912:11914   */\n      0x20\n        /* \"#utility.yul\":11901:11910   */\n      dup3\n        /* \"#utility.yul\":11897:11915   */\n      add\n        /* \"#utility.yul\":11889:11915   */\n      swap1\n      pop\n        /* \"#utility.yul\":11961:11970   */\n      dup2\n        /* \"#utility.yul\":11955:11959   */\n      dup2\n        /* \"#utility.yul\":11951:11971   */\n      sub\n        /* \"#utility.yul\":11947:11948   */\n      0x00\n        /* \"#utility.yul\":11936:11945   */\n      dup4\n        /* \"#utility.yul\":11932:11949   */\n      add\n        /* \"#utility.yul\":11925:11972   */\n      mstore\n        /* \"#utility.yul\":11989:12120   */\n      tag_317\n        /* \"#utility.yul\":12115:12119   */\n      dup2\n        /* \"#utility.yul\":11989:12120   */\n      tag_188\n      jump\t// in\n    tag_317:\n        /* \"#utility.yul\":11981:12120   */\n      swap1\n      pop\n        /* \"#utility.yul\":11708:12127   */\n      swap2\n      swap1\n      pop\n      jump\t// out\n        /* \"#utility.yul\":12133:12303   */\n    tag_189:\n        /* \"#utility.yul\":12273:12295   */\n      0x426f6f6b206f6e6c79206f6e65205469636b6574000000000000000000000000\n        /* \"#utility.yul\":12269:12270   */\n      0x00\n        /* \"#utility.yul\":12261:12267   */\n      dup3\n        /* \"#utility.yul\":12257:12271   */\n      add\n        /* \"#utility.yul\":12250:12296   */\n      mstore\n        /* \"#utility.yul\":12133:12303   */\n      pop\n      jump\t// out\n        /* \"#utility.yul\":12309:12675   */\n    tag_190:\n        /* \"#utility.yul\":12451:12454   */\n      0x00\n        /* \"#utility.yul\":12472:12539   */\n      tag_320\n        /* \"#utility.yul\":12536:12538   */\n      0x14\n        /* \"#utility.yul\":12531:12534   */\n      dup4\n        /* \"#utility.yul\":12472:12539   */\n      tag_177\n      jump\t// in\n    tag_320:\n        /* \"#utility.yul\":12465:12539   */\n      swap2\n      pop\n        /* \"#utility.yul\":12548:12641   */\n      tag_321\n        /* \"#utility.yul\":12637:12640   */\n      dup3\n        /* \"#utility.yul\":12548:12641   */\n      tag_189\n      jump\t// in\n    tag_321:\n        /* \"#utility.yul\":12666:12668   */\n      0x20\n        /* \"#utility.yul\":12661:12664   */\n      dup3\n        /* \"#utility.yul\":12657:12669   */\n      add\n        /* \"#utility.yul\":12650:12669   */\n      swap1\n      pop\n        /* \"#utility.yul\":12309:12675   */\n      swap2\n      swap1\n      pop\n      jump\t// out\n        /* \"#utility.yul\":12681:13100   */\n    tag_123:\n        /* \"#utility.yul\":12847:12851   */\n      0x00\n        /* \"#utility.yul\":12885:12887   */\n      0x20\n        /* \"#utility.yul\":12874:12883   */\n      dup3\n        /* \"#utility.yul\":12870:12888   */\n      add\n        /* \"#utility.yul\":12862:12888   */\n      swap1\n      pop\n        /* \"#utility.yul\":12934:12943   */\n      dup2\n        /* \"#utility.yul\":12928:12932   */\n      dup2\n        /* \"#utility.yul\":12924:12944   */\n      sub\n        /* \"#utility.yul\":12920:12921   */\n      0x00\n        /* \"#utility.yul\":12909:12918   */\n      dup4\n        /* \"#utility.yul\":12905:12922   */\n      add\n        /* \"#utility.yul\":12898:12945   */\n      mstore\n        /* \"#utility.yul\":12962:13093   */\n      tag_323\n        /* \"#utility.yul\":13088:13092   */\n      dup2\n        /* \"#utility.yul\":12962:13093   */\n      tag_190\n      jump\t// in\n    tag_323:\n        /* \"#utility.yul\":12954:13093   */\n      swap1\n      pop\n        /* \"#utility.yul\":12681:13100   */\n      swap2\n      swap1\n      pop\n      jump\t// out\n        /* \"#utility.yul\":13106:13516   */\n    tag_125:\n        /* \"#utility.yul\":13146:13153   */\n      0x00\n        /* \"#utility.yul\":13169:13189   */\n      tag_325\n        /* \"#utility.yul\":13187:13188   */\n      dup3\n        /* \"#utility.yul\":13169:13189   */\n      tag_161\n      jump\t// in\n    tag_325:\n        /* \"#utility.yul\":13164:13189   */\n      swap2\n      pop\n        /* \"#utility.yul\":13203:13223   */\n      tag_326\n        /* \"#utility.yul\":13221:13222   */\n      dup4\n        /* \"#utility.yul\":13203:13223   */\n      tag_161\n      jump\t// in\n    tag_326:\n        /* \"#utility.yul\":13198:13223   */\n      swap3\n      pop\n        /* \"#utility.yul\":13258:13259   */\n      dup3\n        /* \"#utility.yul\":13255:13256   */\n      dup3\n        /* \"#utility.yul\":13251:13260   */\n      mul\n        /* \"#utility.yul\":13280:13310   */\n      tag_327\n        /* \"#utility.yul\":13298:13309   */\n      dup2\n        /* \"#utility.yul\":13280:13310   */\n      tag_161\n      jump\t// in\n    tag_327:\n        /* \"#utility.yul\":13269:13310   */\n      swap2\n      pop\n        /* \"#utility.yul\":13459:13460   */\n      dup3\n        /* \"#utility.yul\":13450:13457   */\n      dup3\n        /* \"#utility.yul\":13446:13461   */\n      div\n        /* \"#utility.yul\":13443:13444   */\n      dup5\n        /* \"#utility.yul\":13440:13462   */\n      eq\n        /* \"#utility.yul\":13420:13421   */\n      dup4\n        /* \"#utility.yul\":13413:13422   */\n      iszero\n        /* \"#utility.yul\":13393:13476   */\n      or\n        /* \"#utility.yul\":13370:13509   */\n      tag_328\n      jumpi\n        /* \"#utility.yul\":13489:13507   */\n      tag_329\n      tag_186\n      jump\t// in\n    tag_329:\n        /* \"#utility.yul\":13370:13509   */\n    tag_328:\n        /* \"#utility.yul\":13154:13516   */\n      pop\n        /* \"#utility.yul\":13106:13516   */\n      swap3\n      swap2\n      pop\n      pop\n      jump\t// out\n        /* \"#utility.yul\":13522:13690   */\n    tag_191:\n        /* \"#utility.yul\":13662:13682   */\n      0x4e6f7420656e6f7567682062616c616e63650000000000000000000000000000\n        /* \"#utility.yul\":13658:13659   */\n      0x00\n        /* \"#utility.yul\":13650:13656   */\n      dup3\n        /* \"#utility.yul\":13646:13660   */\n      add\n        /* \"#utility.yul\":13639:13683   */\n      mstore\n        /* \"#utility.yul\":13522:13690   */\n      pop\n      jump\t// out\n        /* \"#utility.yul\":13696:14062   */\n    tag_192:\n        /* \"#utility.yul\":13838:13841   */\n      0x00\n        /* \"#utility.yul\":13859:13926   */\n      tag_332\n        /* \"#utility.yul\":13923:13925   */\n      0x12\n        /* \"#utility.yul\":13918:13921   */\n      dup4\n        /* \"#utility.yul\":13859:13926   */\n      tag_177\n      jump\t// in\n    tag_332:\n        /* \"#utility.yul\":13852:13926   */\n      swap2\n      pop\n        /* \"#utility.yul\":13935:14028   */\n      tag_333\n        /* \"#utility.yul\":14024:14027   */\n      dup3\n        /* \"#utility.yul\":13935:14028   */\n      tag_191\n      jump\t// in\n    tag_333:\n        /* \"#utility.yul\":14053:14055   */\n      0x20\n        /* \"#utility.yul\":14048:14051   */\n      dup3\n        /* \"#utility.yul\":14044:14056   */\n      add\n        /* \"#utility.yul\":14037:14056   */\n      swap1\n      pop\n        /* \"#utility.yul\":13696:14062   */\n      swap2\n      swap1\n      pop\n      jump\t// out\n        /* \"#utility.yul\":14068:14487   */\n    tag_128:\n        /* \"#utility.yul\":14234:14238   */\n      0x00\n        /* \"#utility.yul\":14272:14274   */\n      0x20\n        /* \"#utility.yul\":14261:14270   */\n      dup3\n        /* \"#utility.yul\":14257:14275   */\n      add\n        /* \"#utility.yul\":14249:14275   */\n      swap1\n      pop\n        /* \"#utility.yul\":14321:14330   */\n      dup2\n        /* \"#utility.yul\":14315:14319   */\n      dup2\n        /* \"#utility.yul\":14311:14331   */\n      sub\n        /* \"#utility.yul\":14307:14308   */\n      0x00\n        /* \"#utility.yul\":14296:14305   */\n      dup4\n        /* \"#utility.yul\":14292:14309   */\n      add\n        /* \"#utility.yul\":14285:14332   */\n      mstore\n        /* \"#utility.yul\":14349:14480   */\n      tag_335\n        /* \"#utility.yul\":14475:14479   */\n      dup2\n        /* \"#utility.yul\":14349:14480   */\n      tag_192\n      jump\t// in\n    tag_335:\n        /* \"#utility.yul\":14341:14480   */\n      swap1\n      pop\n        /* \"#utility.yul\":14068:14487   */\n      swap2\n      swap1\n      pop\n      jump\t// out\n        /* \"#utility.yul\":14493:14687   */\n    tag_131:\n        /* \"#utility.yul\":14533:14537   */\n      0x00\n        /* \"#utility.yul\":14553:14573   */\n      tag_337\n        /* \"#utility.yul\":14571:14572   */\n      dup3\n        /* \"#utility.yul\":14553:14573   */\n      tag_161\n      jump\t// in\n    tag_337:\n        /* \"#utility.yul\":14548:14573   */\n      swap2\n      pop\n        /* \"#utility.yul\":14587:14607   */\n      tag_338\n        /* \"#utility.yul\":14605:14606   */\n      dup4\n        /* \"#utility.yul\":14587:14607   */\n      tag_161\n      jump\t// in\n    tag_338:\n        /* \"#utility.yul\":14582:14607   */\n      swap3\n      pop\n        /* \"#utility.yul\":14631:14632   */\n      dup3\n        /* \"#utility.yul\":14628:14629   */\n      dup3\n        /* \"#utility.yul\":14624:14633   */\n      sub\n        /* \"#utility.yul\":14616:14633   */\n      swap1\n      pop\n        /* \"#utility.yul\":14655:14656   */\n      dup2\n        /* \"#utility.yul\":14649:14653   */\n      dup2\n        /* \"#utility.yul\":14646:14657   */\n      gt\n        /* \"#utility.yul\":14643:14680   */\n      iszero\n      tag_339\n      jumpi\n        /* \"#utility.yul\":14660:14678   */\n      tag_340\n      tag_186\n      jump\t// in\n    tag_340:\n        /* \"#utility.yul\":14643:14680   */\n    tag_339:\n        /* \"#utility.yul\":14493:14687   */\n      swap3\n      swap2\n      pop\n      pop\n      jump\t// out\n        /* \"#utility.yul\":14693:14868   */\n    tag_193:\n        /* \"#utility.yul\":14833:14860   */\n      0x426f6f6b696e6720616c726561647920636f6d706c6574656400000000000000\n        /* \"#utility.yul\":14829:14830   */\n      0x00\n        /* \"#utility.yul\":14821:14827   */\n      dup3\n        /* \"#utility.yul\":14817:14831   */\n      add\n        /* \"#utility.yul\":14810:14861   */\n      mstore\n        /* \"#utility.yul\":14693:14868   */\n      pop\n      jump\t// out\n        /* \"#utility.yul\":14874:15240   */\n    tag_194:\n        /* \"#utility.yul\":15016:15019   */\n      0x00\n        /* \"#utility.yul\":15037:15104   */\n      tag_343\n        /* \"#utility.yul\":15101:15103   */\n      0x19\n        /* \"#utility.yul\":15096:15099   */\n      dup4\n        /* \"#utility.yul\":15037:15104   */\n      tag_177\n      jump\t// in\n    tag_343:\n        /* \"#utility.yul\":15030:15104   */\n      swap2\n      pop\n        /* \"#utility.yul\":15113:15206   */\n      tag_344\n        /* \"#utility.yul\":15202:15205   */\n      dup3\n        /* \"#utility.yul\":15113:15206   */\n      tag_193\n      jump\t// in\n    tag_344:\n        /* \"#utility.yul\":15231:15233   */\n      0x20\n        /* \"#utility.yul\":15226:15229   */\n      dup3\n        /* \"#utility.yul\":15222:15234   */\n      add\n        /* \"#utility.yul\":15215:15234   */\n      swap1\n      pop\n        /* \"#utility.yul\":14874:15240   */\n      swap2\n      swap1\n      pop\n      jump\t// out\n        /* \"#utility.yul\":15246:15665   */\n    tag_135:\n        /* \"#utility.yul\":15412:15416   */\n      0x00\n        /* \"#utility.yul\":15450:15452   */\n      0x20\n        /* \"#utility.yul\":15439:15448   */\n      dup3\n        /* \"#utility.yul\":15435:15453   */\n      add\n        /* \"#utility.yul\":15427:15453   */\n      swap1\n      pop\n        /* \"#utility.yul\":15499:15508   */\n      dup2\n        /* \"#utility.yul\":15493:15497   */\n      dup2\n        /* \"#utility.yul\":15489:15509   */\n      sub\n        /* \"#utility.yul\":15485:15486   */\n      0x00\n        /* \"#utility.yul\":15474:15483   */\n      dup4\n        /* \"#utility.yul\":15470:15487   */\n      add\n        /* \"#utility.yul\":15463:15510   */\n      mstore\n        /* \"#utility.yul\":15527:15658   */\n      tag_346\n        /* \"#utility.yul\":15653:15657   */\n      dup2\n        /* \"#utility.yul\":15527:15658   */\n      tag_194\n      jump\t// in\n    tag_346:\n        /* \"#utility.yul\":15519:15658   */\n      swap1\n      pop\n        /* \"#utility.yul\":15246:15665   */\n      swap2\n      swap1\n      pop\n      jump\t// out\n        /* \"#utility.yul\":15671:15842   */\n    tag_195:\n        /* \"#utility.yul\":15811:15834   */\n      0x596f7520617265206e6f7420746865204f776e65720000000000000000000000\n        /* \"#utility.yul\":15807:15808   */\n      0x00\n        /* \"#utility.yul\":15799:15805   */\n      dup3\n        /* \"#utility.yul\":15795:15809   */\n      add\n        /* \"#utility.yul\":15788:15835   */\n      mstore\n        /* \"#utility.yul\":15671:15842   */\n      pop\n      jump\t// out\n        /* \"#utility.yul\":15848:16214   */\n    tag_196:\n        /* \"#utility.yul\":15990:15993   */\n      0x00\n        /* \"#utility.yul\":16011:16078   */\n      tag_349\n        /* \"#utility.yul\":16075:16077   */\n      0x15\n        /* \"#utility.yul\":16070:16073   */\n      dup4\n        /* \"#utility.yul\":16011:16078   */\n      tag_177\n      jump\t// in\n    tag_349:\n        /* \"#utility.yul\":16004:16078   */\n      swap2\n      pop\n        /* \"#utility.yul\":16087:16180   */\n      tag_350\n        /* \"#utility.yul\":16176:16179   */\n      dup3\n        /* \"#utility.yul\":16087:16180   */\n      tag_195\n      jump\t// in\n    tag_350:\n        /* \"#utility.yul\":16205:16207   */\n      0x20\n        /* \"#utility.yul\":16200:16203   */\n      dup3\n        /* \"#utility.yul\":16196:16208   */\n      add\n        /* \"#utility.yul\":16189:16208   */\n      swap1\n      pop\n        /* \"#utility.yul\":15848:16214   */\n      swap2\n      swap1\n      pop\n      jump\t// out\n        /* \"#utility.yul\":16220:16639   */\n    tag_140:\n        /* \"#utility.yul\":16386:16390   */\n      0x00\n        /* \"#utility.yul\":16424:16426   */\n      0x20\n        /* \"#utility.yul\":16413:16422   */\n      dup3\n        /* \"#utility.yul\":16409:16427   */\n      add\n        /* \"#utility.yul\":16401:16427   */\n      swap1\n      pop\n        /* \"#utility.yul\":16473:16482   */\n      dup2\n        /* \"#utility.yul\":16467:16471   */\n      dup2\n        /* \"#utility.yul\":16463:16483   */\n      sub\n        /* \"#utility.yul\":16459:16460   */\n      0x00\n        /* \"#utility.yul\":16448:16457   */\n      dup4\n        /* \"#utility.yul\":16444:16461   */\n      add\n        /* \"#utility.yul\":16437:16484   */\n      mstore\n        /* \"#utility.yul\":16501:16632   */\n      tag_352\n        /* \"#utility.yul\":16627:16631   */\n      dup2\n        /* \"#utility.yul\":16501:16632   */\n      tag_196\n      jump\t// in\n    tag_352:\n        /* \"#utility.yul\":16493:16632   */\n      swap1\n      pop\n        /* \"#utility.yul\":16220:16639   */\n      swap2\n      swap1\n      pop\n      jump\t// out\n        /* \"#utility.yul\":16645:16815   */\n    tag_197:\n        /* \"#utility.yul\":16785:16807   */\n      0x5061796d656e74206e6f742079657420646f6e65000000000000000000000000\n        /* \"#utility.yul\":16781:16782   */\n      0x00\n        /* \"#utility.yul\":16773:16779   */\n      dup3\n        /* \"#utility.yul\":16769:16783   */\n      add\n        /* \"#utility.yul\":16762:16808   */\n      mstore\n        /* \"#utility.yul\":16645:16815   */\n      pop\n      jump\t// out\n        /* \"#utility.yul\":16821:17187   */\n    tag_198:\n        /* \"#utility.yul\":16963:16966   */\n      0x00\n        /* \"#utility.yul\":16984:17051   */\n      tag_355\n        /* \"#utility.yul\":17048:17050   */\n      0x14\n        /* \"#utility.yul\":17043:17046   */\n      dup4\n        /* \"#utility.yul\":16984:17051   */\n      tag_177\n      jump\t// in\n    tag_355:\n        /* \"#utility.yul\":16977:17051   */\n      swap2\n      pop\n        /* \"#utility.yul\":17060:17153   */\n      tag_356\n        /* \"#utility.yul\":17149:17152   */\n      dup3\n        /* \"#utility.yul\":17060:17153   */\n      tag_197\n      jump\t// in\n    tag_356:\n        /* \"#utility.yul\":17178:17180   */\n      0x20\n        /* \"#utility.yul\":17173:17176   */\n      dup3\n        /* \"#utility.yul\":17169:17181   */\n      add\n        /* \"#utility.yul\":17162:17181   */\n      swap1\n      pop\n        /* \"#utility.yul\":16821:17187   */\n      swap2\n      swap1\n      pop\n      jump\t// out\n        /* \"#utility.yul\":17193:17612   */\n    tag_144:\n        /* \"#utility.yul\":17359:17363   */\n      0x00\n        /* \"#utility.yul\":17397:17399   */\n      0x20\n        /* \"#utility.yul\":17386:17395   */\n      dup3\n        /* \"#utility.yul\":17382:17400   */\n      add\n        /* \"#utility.yul\":17374:17400   */\n      swap1\n      pop\n        /* \"#utility.yul\":17446:17455   */\n      dup2\n        /* \"#utility.yul\":17440:17444   */\n      dup2\n        /* \"#utility.yul\":17436:17456   */\n      sub\n        /* \"#utility.yul\":17432:17433   */\n      0x00\n        /* \"#utility.yul\":17421:17430   */\n      dup4\n        /* \"#utility.yul\":17417:17434   */\n      add\n        /* \"#utility.yul\":17410:17457   */\n      mstore\n        /* \"#utility.yul\":17474:17605   */\n      tag_358\n        /* \"#utility.yul\":17600:17604   */\n      dup2\n        /* \"#utility.yul\":17474:17605   */\n      tag_198\n      jump\t// in\n    tag_358:\n        /* \"#utility.yul\":17466:17605   */\n      swap1\n      pop\n        /* \"#utility.yul\":17193:17612   */\n      swap2\n      swap1\n      pop\n      jump\t// out\n        /* \"#utility.yul\":17618:17783   */\n    tag_199:\n        /* \"#utility.yul\":17758:17775   */\n      0x53656174206e6f7420426f6f6b65640000000000000000000000000000000000\n        /* \"#utility.yul\":17754:17755   */\n      0x00\n        /* \"#utility.yul\":17746:17752   */\n      dup3\n        /* \"#utility.yul\":17742:17756   */\n      add\n        /* \"#utility.yul\":17735:17776   */\n      mstore\n        /* \"#utility.yul\":17618:17783   */\n      pop\n      jump\t// out\n        /* \"#utility.yul\":17789:18155   */\n    tag_200:\n        /* \"#utility.yul\":17931:17934   */\n      0x00\n        /* \"#utility.yul\":17952:18019   */\n      tag_361\n        /* \"#utility.yul\":18016:18018   */\n      0x0f\n        /* \"#utility.yul\":18011:18014   */\n      dup4\n        /* \"#utility.yul\":17952:18019   */\n      tag_177\n      jump\t// in\n    tag_361:\n        /* \"#utility.yul\":17945:18019   */\n      swap2\n      pop\n        /* \"#utility.yul\":18028:18121   */\n      tag_362\n        /* \"#utility.yul\":18117:18120   */\n      dup3\n        /* \"#utility.yul\":18028:18121   */\n      tag_199\n      jump\t// in\n    tag_362:\n        /* \"#utility.yul\":18146:18148   */\n      0x20\n        /* \"#utility.yul\":18141:18144   */\n      dup3\n        /* \"#utility.yul\":18137:18149   */\n      add\n        /* \"#utility.yul\":18130:18149   */\n      swap1\n      pop\n        /* \"#utility.yul\":17789:18155   */\n      swap2\n      swap1\n      pop\n      jump\t// out\n        /* \"#utility.yul\":18161:18580   */\n    tag_147:\n        /* \"#utility.yul\":18327:18331   */\n      0x00\n        /* \"#utility.yul\":18365:18367   */\n      0x20\n        /* \"#utility.yul\":18354:18363   */\n      dup3\n        /* \"#utility.yul\":18350:18368   */\n      add\n        /* \"#utility.yul\":18342:18368   */\n      swap1\n      pop\n        /* \"#utility.yul\":18414:18423   */\n      dup2\n        /* \"#utility.yul\":18408:18412   */\n      dup2\n        /* \"#utility.yul\":18404:18424   */\n      sub\n        /* \"#utility.yul\":18400:18401   */\n      0x00\n        /* \"#utility.yul\":18389:18398   */\n      dup4\n        /* \"#utility.yul\":18385:18402   */\n      add\n        /* \"#utility.yul\":18378:18425   */\n      mstore\n        /* \"#utility.yul\":18442:18573   */\n      tag_364\n        /* \"#utility.yul\":18568:18572   */\n      dup2\n        /* \"#utility.yul\":18442:18573   */\n      tag_200\n      jump\t// in\n    tag_364:\n        /* \"#utility.yul\":18434:18573   */\n      swap1\n      pop\n        /* \"#utility.yul\":18161:18580   */\n      swap2\n      swap1\n      pop\n      jump\t// out\n        /* \"#utility.yul\":18586:18753   */\n    tag_201:\n        /* \"#utility.yul\":18726:18745   */\n      0x43616e63656c206f6e65205469636b6574000000000000000000000000000000\n        /* \"#utility.yul\":18722:18723   */\n      0x00\n        /* \"#utility.yul\":18714:18720   */\n      dup3\n        /* \"#utility.yul\":18710:18724   */\n      add\n        /* \"#utility.yul\":18703:18746   */\n      mstore\n        /* \"#utility.yul\":18586:18753   */\n      pop\n      jump\t// out\n        /* \"#utility.yul\":18759:19125   */\n    tag_202:\n        /* \"#utility.yul\":18901:18904   */\n      0x00\n        /* \"#utility.yul\":18922:18989   */\n      tag_367\n        /* \"#utility.yul\":18986:18988   */\n      0x11\n        /* \"#utility.yul\":18981:18984   */\n      dup4\n        /* \"#utility.yul\":18922:18989   */\n      tag_177\n      jump\t// in\n    tag_367:\n        /* \"#utility.yul\":18915:18989   */\n      swap2\n      pop\n        /* \"#utility.yul\":18998:19091   */\n      tag_368\n        /* \"#utility.yul\":19087:19090   */\n      dup3\n        /* \"#utility.yul\":18998:19091   */\n      tag_201\n      jump\t// in\n    tag_368:\n        /* \"#utility.yul\":19116:19118   */\n      0x20\n        /* \"#utility.yul\":19111:19114   */\n      dup3\n        /* \"#utility.yul\":19107:19119   */\n      add\n        /* \"#utility.yul\":19100:19119   */\n      swap1\n      pop\n        /* \"#utility.yul\":18759:19125   */\n      swap2\n      swap1\n      pop\n      jump\t// out\n        /* \"#utility.yul\":19131:19550   */\n    tag_150:\n        /* \"#utility.yul\":19297:19301   */\n      0x00\n        /* \"#utility.yul\":19335:19337   */\n      0x20\n        /* \"#utility.yul\":19324:19333   */\n      dup3\n        /* \"#utility.yul\":19320:19338   */\n      add\n        /* \"#utility.yul\":19312:19338   */\n      swap1\n      pop\n        /* \"#utility.yul\":19384:19393   */\n      dup2\n        /* \"#utility.yul\":19378:19382   */\n      dup2\n        /* \"#utility.yul\":19374:19394   */\n      sub\n        /* \"#utility.yul\":19370:19371   */\n      0x00\n        /* \"#utility.yul\":19359:19368   */\n      dup4\n        /* \"#utility.yul\":19355:19372   */\n      add\n        /* \"#utility.yul\":19348:19395   */\n      mstore\n        /* \"#utility.yul\":19412:19543   */\n      tag_370\n        /* \"#utility.yul\":19538:19542   */\n      dup2\n        /* \"#utility.yul\":19412:19543   */\n      tag_202\n      jump\t// in\n    tag_370:\n        /* \"#utility.yul\":19404:19543   */\n      swap1\n      pop\n        /* \"#utility.yul\":19131:19550   */\n      swap2\n      swap1\n      pop\n      jump\t// out\n        /* \"#utility.yul\":19556:19730   */\n    tag_203:\n        /* \"#utility.yul\":19696:19722   */\n      0x4e6f742074686520417574686f72697a65642053746166660000000000000000\n        /* \"#utility.yul\":19692:19693   */\n      0x00\n        /* \"#utility.yul\":19684:19690   */\n      dup3\n        /* \"#utility.yul\":19680:19694   */\n      add\n        /* \"#utility.yul\":19673:19723   */\n      mstore\n        /* \"#utility.yul\":19556:19730   */\n      pop\n      jump\t// out\n        /* \"#utility.yul\":19736:20102   */\n    tag_204:\n        /* \"#utility.yul\":19878:19881   */\n      0x00\n        /* \"#utility.yul\":19899:19966   */\n      tag_373\n        /* \"#utility.yul\":19963:19965   */\n      0x18\n        /* \"#utility.yul\":19958:19961   */\n      dup4\n        /* \"#utility.yul\":19899:19966   */\n      tag_177\n      jump\t// in\n    tag_373:\n        /* \"#utility.yul\":19892:19966   */\n      swap2\n      pop\n        /* \"#utility.yul\":19975:20068   */\n      tag_374\n        /* \"#utility.yul\":20064:20067   */\n      dup3\n        /* \"#utility.yul\":19975:20068   */\n      tag_203\n      jump\t// in\n    tag_374:\n        /* \"#utility.yul\":20093:20095   */\n      0x20\n        /* \"#utility.yul\":20088:20091   */\n      dup3\n        /* \"#utility.yul\":20084:20096   */\n      add\n        /* \"#utility.yul\":20077:20096   */\n      swap1\n      pop\n        /* \"#utility.yul\":19736:20102   */\n      swap2\n      swap1\n      pop\n      jump\t// out\n        /* \"#utility.yul\":20108:20527   */\n    tag_157:\n        /* \"#utility.yul\":20274:20278   */\n      0x00\n        /* \"#utility.yul\":20312:20314   */\n      0x20\n        /* \"#utility.yul\":20301:20310   */\n      dup3\n        /* \"#utility.yul\":20297:20315   */\n      add\n        /* \"#utility.yul\":20289:20315   */\n      swap1\n      pop\n        /* \"#utility.yul\":20361:20370   */\n      dup2\n        /* \"#utility.yul\":20355:20359   */\n      dup2\n        /* \"#utility.yul\":20351:20371   */\n      sub\n        /* \"#utility.yul\":20347:20348   */\n      0x00\n        /* \"#utility.yul\":20336:20345   */\n      dup4\n        /* \"#utility.yul\":20332:20349   */\n      add\n        /* \"#utility.yul\":20325:20372   */\n      mstore\n        /* \"#utility.yul\":20389:20520   */\n      tag_376\n        /* \"#utility.yul\":20515:20519   */\n      dup2\n        /* \"#utility.yul\":20389:20520   */\n      tag_204\n      jump\t// in\n    tag_376:\n        /* \"#utility.yul\":20381:20520   */\n      swap1\n      pop\n        /* \"#utility.yul\":20108:20527   */\n      swap2\n      swap1\n      pop\n      jump\t// out\n\n    auxdata: 0xa2646970667358221220455e70508af726d4e33bcbc15c73ebca7b61fe1af4b72c88dfcb8683f6bd636b64736f6c63430008120033\n}\n",
				"bytecode": {
					"linkReferences": {},
					"object": "608060405234801561001057600080fd5b50336000806101000a81548173ffffffffffffffffffffffffffffffffffffffff021916908373ffffffffffffffffffffffffffffffffffffffff160217905550611a7e806100606000396000f3fe6080604052600436106100e85760003560e01c806354056b691161008a5780638da5cb5b116100595780638da5cb5b146102fc5780639c043f8c14610327578063decf5bd314610350578063f4b770dd14610379576100e8565b806354056b6914610251578063543be60b1461027a57806380af305a146102a357806385ef45ec146102e0576100e8565b80632feac173116100c65780632feac1731461017e578063358dc19c146101bb578063477a5fb5146101fd5780634d40d54f14610226576100e8565b80630f64252f146100ed578063200d2ed21461011657806327e235e314610141575b600080fd5b3480156100f957600080fd5b50610114600480360381019061010f919061108d565b6103a2565b005b34801561012257600080fd5b5061012b6104d0565b6040516101389190611144565b60405180910390f35b34801561014d57600080fd5b50610168600480360381019061016391906111bd565b6104e3565b60405161017591906111f9565b60405180910390f35b34801561018a57600080fd5b506101a560048036038101906101a091906111bd565b6104fb565b6040516101b2919061122f565b60405180910390f35b3480156101c757600080fd5b506101e260048036038101906101dd919061124a565b61051b565b6040516101f496959493929190611286565b60405180910390f35b34801561020957600080fd5b50610224600480360381019061021f919061124a565b610591565b005b34801561023257600080fd5b5061023b610642565b60405161024891906111f9565b60405180910390f35b34801561025d57600080fd5b506102786004803603810190610273919061124a565b6106e1565b005b34801561028657600080fd5b506102a1600480360381019061029c919061124a565b610775565b005b3480156102af57600080fd5b506102ca60048036038101906102c5919061124a565b610827565b6040516102d791906111f9565b60405180910390f35b6102fa60048036038101906102f591906112e7565b610847565b005b34801561030857600080fd5b50610311610ba0565b60405161031e919061134e565b60405180910390f35b34801561033357600080fd5b5061034e600480360381019061034991906111bd565b610bc4565b005b34801561035c57600080fd5b50610377600480360381019061037291906112e7565b610c1f565b005b34801561038557600080fd5b506103a0600480360381019061039b9190611369565b610f68565b005b60006001600084815260200190815260200160002060040154146103fb576040517f08c379a00000000000000000000000000000000000000000000000000000000081526004016103f290611419565b60405180910390fd5b6000151560056000848152602001908152602001600020600083815260200190815260200160002060009054906101000a900460ff16151514610473576040517f08c379a000000000000000000000000000000000000000000000000000000000815260040161046a90611485565b60405180910390fd5b60018060008481526020019081526020016000206002015410156104cc576040517f08c379a00000000000000000000000000000000000000000000000000000000081526004016104c390611517565b60405180910390fd5b5050565b600760009054906101000a900460ff1681565b60036020528060005260406000206000915090505481565b60026020528060005260406000206000915054906101000a900460ff1681565b60016020528060005260406000206000915090508060000160009054906101000a900473ffffffffffffffffffffffffffffffffffffffff16908060010154908060020154908060030160009054906101000a900460ff16908060030160019054906101000a900460ff16908060040154905086565b60011515600260003373ffffffffffffffffffffffffffffffffffffffff1673ffffffffffffffffffffffffffffffffffffffff16815260200190815260200160002060009054906101000a900460ff16151514610624576040517f08c379a000000000000000000000000000000000000000000000000000000000815260040161061b90611583565b60405180910390fd5b60018060008381526020019081526020016000206004018190555050565b600061c350600360003373ffffffffffffffffffffffffffffffffffffffff1673ffffffffffffffffffffffffffffffffffffffff168152602001908152602001600020600082825461069591906115d2565b92505081905550600360003373ffffffffffffffffffffffffffffffffffffffff1673ffffffffffffffffffffffffffffffffffffffff16815260200190815260200160002054905090565b6001600082815260200190815260200160002060030160009054906101000a900460ff16610744576040517f08c379a000000000000000000000000000000000000000000000000000000000815260040161073b90611652565b60405180910390fd5b600180600083815260200190815260200160002060030160016101000a81548160ff02191690831515021790555050565b60011515600260003373ffffffffffffffffffffffffffffffffffffffff1673ffffffffffffffffffffffffffffffffffffffff16815260200190815260200160002060009054906101000a900460ff16151514610808576040517f08c379a00000000000000000000000000000000000000000000000000000000081526004016107ff90611583565b60405180910390fd5b6000600160008381526020019081526020016000206004018190555050565b600060016000838152602001908152602001600020600201549050919050565b6000151560056000858152602001908152602001600020600083815260200190815260200160002060009054906101000a900460ff161515146108bf576040517f08c379a00000000000000000000000000000000000000000000000000000000081526004016108b690611485565b60405180910390fd5b60018214610902576040517f08c379a00000000000000000000000000000000000000000000000000000000081526004016108f9906116be565b60405180910390fd5b81600160008581526020019081526020016000206001015461092491906116de565b600360003373ffffffffffffffffffffffffffffffffffffffff1673ffffffffffffffffffffffffffffffffffffffff16815260200190815260200160002054116109a4576040517f08c379a000000000000000000000000000000000000000000000000000000000815260040161099b9061176c565b60405180910390fd5b60008260016000868152602001908152602001600020600101546109c891906116de565b9050826001600086815260200190815260200160002060020160008282546109f0919061178c565b9250508190555080600360003373ffffffffffffffffffffffffffffffffffffffff1673ffffffffffffffffffffffffffffffffffffffff1681526020019081526020016000206000828254610a46919061178c565b92505081905550600160066000868152602001908152602001600020600084815260200190815260200160002060000160006101000a81548160ff0219169083151502179055506004600085815260200190815260200160002060008673ffffffffffffffffffffffffffffffffffffffff1673ffffffffffffffffffffffffffffffffffffffff16815260200190815260200160002060030160009054906101000a900460ff1615610b2e576040517f08c379a0000000000000000000000000000000000000000000000000000000008152600401610b259061180c565b60405180910390fd5b600180600086815260200190815260200160002060030160006101000a81548160ff021916908315150217905550600160056000868152602001908152602001600020600084815260200190815260200160002060006101000a81548160ff0219169083151502179055505050505050565b60008054906101000a900473ffffffffffffffffffffffffffffffffffffffff1681565b6001600260008373ffffffffffffffffffffffffffffffffffffffff1673ffffffffffffffffffffffffffffffffffffffff16815260200190815260200160002060006101000a81548160ff02191690831515021790555050565b3373ffffffffffffffffffffffffffffffffffffffff1660008054906101000a900473ffffffffffffffffffffffffffffffffffffffff1673ffffffffffffffffffffffffffffffffffffffff1614610cad576040517f08c379a0000000000000000000000000000000000000000000000000000000008152600401610ca490611878565b60405180910390fd5b6001151560066000858152602001908152602001600020600084815260200190815260200160002060000160009054906101000a900460ff16151514610d28576040517f08c379a0000000000000000000000000000000000000000000000000000000008152600401610d1f906118e4565b60405180910390fd5b6001151560056000858152602001908152602001600020600084815260200190815260200160002060009054906101000a900460ff16151514610da0576040517f08c379a0000000000000000000000000000000000000000000000000000000008152600401610d9790611950565b60405180910390fd5b60018114610de3576040517f08c379a0000000000000000000000000000000000000000000000000000000008152600401610dda906119bc565b60405180910390fd5b806001600085815260200190815260200160002060010154610e0591906116de565b600360008673ffffffffffffffffffffffffffffffffffffffff1673ffffffffffffffffffffffffffffffffffffffff1681526020019081526020016000206000828254610e5391906115d2565b9250508190555080600160008581526020019081526020016000206002016000828254610e8091906115d2565b92505081905550600060066000858152602001908152602001600020600084815260200190815260200160002060000160006101000a81548160ff021916908315150217905550600060056000858152602001908152602001600020600084815260200190815260200160002060006101000a81548160ff02191690831515021790555060006001600085815260200190815260200160002060030160006101000a81548160ff02191690831515021790555060006001600085815260200190815260200160002060030160016101000a81548160ff02191690831515021790555050505050565b60011515600260003373ffffffffffffffffffffffffffffffffffffffff1673ffffffffffffffffffffffffffffffffffffffff16815260200190815260200160002060009054906101000a900460ff16151514610ffb576040517f08c379a0000000000000000000000000000000000000000000000000000000008152600401610ff290611a28565b60405180910390fd5b60006001600085815260200190815260200160002060040181905550806001600085815260200190815260200160002060020181905550816001600085815260200190815260200160002060010181905550505050565b600080fd5b6000819050919050565b61106a81611057565b811461107557600080fd5b50565b60008135905061108781611061565b92915050565b600080604083850312156110a4576110a3611052565b5b60006110b285828601611078565b92505060206110c385828601611078565b9150509250929050565b7f4e487b7100000000000000000000000000000000000000000000000000000000600052602160045260246000fd5b6002811061110d5761110c6110cd565b5b50565b600081905061111e826110fc565b919050565b600061112e82611110565b9050919050565b61113e81611123565b82525050565b60006020820190506111596000830184611135565b92915050565b600073ffffffffffffffffffffffffffffffffffffffff82169050919050565b600061118a8261115f565b9050919050565b61119a8161117f565b81146111a557600080fd5b50565b6000813590506111b781611191565b92915050565b6000602082840312156111d3576111d2611052565b5b60006111e1848285016111a8565b91505092915050565b6111f381611057565b82525050565b600060208201905061120e60008301846111ea565b92915050565b60008115159050919050565b61122981611214565b82525050565b60006020820190506112446000830184611220565b92915050565b6000602082840312156112605761125f611052565b5b600061126e84828501611078565b91505092915050565b6112808161117f565b82525050565b600060c08201905061129b6000830189611277565b6112a860208301886111ea565b6112b560408301876111ea565b6112c26060830186611220565b6112cf6080830185611220565b6112dc60a08301846111ea565b979650505050505050565b6000806000806080858703121561130157611300611052565b5b600061130f878288016111a8565b945050602061132087828801611078565b935050604061133187828801611078565b925050606061134287828801611078565b91505092959194509250565b60006020820190506113636000830184611277565b92915050565b60008060006060848603121561138257611381611052565b5b600061139086828701611078565b93505060206113a186828701611078565b92505060406113b286828701611078565b9150509250925092565b600082825260208201905092915050565b7f466c69676874206973206e6f7420417661696c61626c65000000000000000000600082015250565b60006114036017836113bc565b915061140e826113cd565b602082019050919050565b60006020820190508181036000830152611432816113f6565b9050919050565b7f5365617420616c726561647920426f6f6b656400000000000000000000000000600082015250565b600061146f6013836113bc565b915061147a82611439565b602082019050919050565b6000602082019050818103600083015261149e81611462565b9050919050565b7f536f72727921204e6f20656e6f756768207469636b65747320617661696c616260008201527f6c6520746f20626f6f6b00000000000000000000000000000000000000000000602082015250565b6000611501602a836113bc565b915061150c826114a5565b604082019050919050565b60006020820190508181036000830152611530816114f4565b9050919050565b7f596f7520617265206e6f742074686520417574686f72697a6564205374616666600082015250565b600061156d6020836113bc565b915061157882611537565b602082019050919050565b6000602082019050818103600083015261159c81611560565b9050919050565b7f4e487b7100000000000000000000000000000000000000000000000000000000600052601160045260246000fd5b60006115dd82611057565b91506115e883611057565b9250828201905080821115611600576115ff6115a3565b5b92915050565b7f5061796d656e74206e6f7420436f6d706c657465640000000000000000000000600082015250565b600061163c6015836113bc565b915061164782611606565b602082019050919050565b6000602082019050818103600083015261166b8161162f565b9050919050565b7f426f6f6b206f6e6c79206f6e65205469636b6574000000000000000000000000600082015250565b60006116a86014836113bc565b91506116b382611672565b602082019050919050565b600060208201905081810360008301526116d78161169b565b9050919050565b60006116e982611057565b91506116f483611057565b925082820261170281611057565b91508282048414831517611719576117186115a3565b5b5092915050565b7f4e6f7420656e6f7567682062616c616e63650000000000000000000000000000600082015250565b60006117566012836113bc565b915061176182611720565b602082019050919050565b6000602082019050818103600083015261178581611749565b9050919050565b600061179782611057565b91506117a283611057565b92508282039050818111156117ba576117b96115a3565b5b92915050565b7f426f6f6b696e6720616c726561647920636f6d706c6574656400000000000000600082015250565b60006117f66019836113bc565b9150611801826117c0565b602082019050919050565b60006020820190508181036000830152611825816117e9565b9050919050565b7f596f7520617265206e6f7420746865204f776e65720000000000000000000000600082015250565b60006118626015836113bc565b915061186d8261182c565b602082019050919050565b6000602082019050818103600083015261189181611855565b9050919050565b7f5061796d656e74206e6f742079657420646f6e65000000000000000000000000600082015250565b60006118ce6014836113bc565b91506118d982611898565b602082019050919050565b600060208201905081810360008301526118fd816118c1565b9050919050565b7f53656174206e6f7420426f6f6b65640000000000000000000000000000000000600082015250565b600061193a600f836113bc565b915061194582611904565b602082019050919050565b600060208201905081810360008301526119698161192d565b9050919050565b7f43616e63656c206f6e65205469636b6574000000000000000000000000000000600082015250565b60006119a66011836113bc565b91506119b182611970565b602082019050919050565b600060208201905081810360008301526119d581611999565b9050919050565b7f4e6f742074686520417574686f72697a65642053746166660000000000000000600082015250565b6000611a126018836113bc565b9150611a1d826119dc565b602082019050919050565b60006020820190508181036000830152611a4181611a05565b905091905056fea2646970667358221220455e70508af726d4e33bcbc15c73ebca7b61fe1af4b72c88dfcb8683f6bd636b64736f6c63430008120033",
					"opcodes": "PUSH1 0x80 PUSH1 0x40 MSTORE CALLVALUE DUP1 ISZERO PUSH2 0x10 JUMPI PUSH1 0x0 DUP1 REVERT JUMPDEST POP CALLER PUSH1 0x0 DUP1 PUSH2 0x100 EXP DUP2 SLOAD DUP2 PUSH20 0xFFFFFFFFFFFFFFFFFFFFFFFFFFFFFFFFFFFFFFFF MUL NOT AND SWAP1 DUP4 PUSH20 0xFFFFFFFFFFFFFFFFFFFFFFFFFFFFFFFFFFFFFFFF AND MUL OR SWAP1 SSTORE POP PUSH2 0x1A7E DUP1 PUSH2 0x60 PUSH1 0x0 CODECOPY PUSH1 0x0 RETURN INVALID PUSH1 0x80 PUSH1 0x40 MSTORE PUSH1 0x4 CALLDATASIZE LT PUSH2 0xE8 JUMPI PUSH1 0x0 CALLDATALOAD PUSH1 0xE0 SHR DUP1 PUSH4 0x54056B69 GT PUSH2 0x8A JUMPI DUP1 PUSH4 0x8DA5CB5B GT PUSH2 0x59 JUMPI DUP1 PUSH4 0x8DA5CB5B EQ PUSH2 0x2FC JUMPI DUP1 PUSH4 0x9C043F8C EQ PUSH2 0x327 JUMPI DUP1 PUSH4 0xDECF5BD3 EQ PUSH2 0x350 JUMPI DUP1 PUSH4 0xF4B770DD EQ PUSH2 0x379 JUMPI PUSH2 0xE8 JUMP JUMPDEST DUP1 PUSH4 0x54056B69 EQ PUSH2 0x251 JUMPI DUP1 PUSH4 0x543BE60B EQ PUSH2 0x27A JUMPI DUP1 PUSH4 0x80AF305A EQ PUSH2 0x2A3 JUMPI DUP1 PUSH4 0x85EF45EC EQ PUSH2 0x2E0 JUMPI PUSH2 0xE8 JUMP JUMPDEST DUP1 PUSH4 0x2FEAC173 GT PUSH2 0xC6 JUMPI DUP1 PUSH4 0x2FEAC173 EQ PUSH2 0x17E JUMPI DUP1 PUSH4 0x358DC19C EQ PUSH2 0x1BB JUMPI DUP1 PUSH4 0x477A5FB5 EQ PUSH2 0x1FD JUMPI DUP1 PUSH4 0x4D40D54F EQ PUSH2 0x226 JUMPI PUSH2 0xE8 JUMP JUMPDEST DUP1 PUSH4 0xF64252F EQ PUSH2 0xED JUMPI DUP1 PUSH4 0x200D2ED2 EQ PUSH2 0x116 JUMPI DUP1 PUSH4 0x27E235E3 EQ PUSH2 0x141 JUMPI JUMPDEST PUSH1 0x0 DUP1 REVERT JUMPDEST CALLVALUE DUP1 ISZERO PUSH2 0xF9 JUMPI PUSH1 0x0 DUP1 REVERT JUMPDEST POP PUSH2 0x114 PUSH1 0x4 DUP1 CALLDATASIZE SUB DUP2 ADD SWAP1 PUSH2 0x10F SWAP2 SWAP1 PUSH2 0x108D JUMP JUMPDEST PUSH2 0x3A2 JUMP JUMPDEST STOP JUMPDEST CALLVALUE DUP1 ISZERO PUSH2 0x122 JUMPI PUSH1 0x0 DUP1 REVERT JUMPDEST POP PUSH2 0x12B PUSH2 0x4D0 JUMP JUMPDEST PUSH1 0x40 MLOAD PUSH2 0x138 SWAP2 SWAP1 PUSH2 0x1144 JUMP JUMPDEST PUSH1 0x40 MLOAD DUP1 SWAP2 SUB SWAP1 RETURN JUMPDEST CALLVALUE DUP1 ISZERO PUSH2 0x14D JUMPI PUSH1 0x0 DUP1 REVERT JUMPDEST POP PUSH2 0x168 PUSH1 0x4 DUP1 CALLDATASIZE SUB DUP2 ADD SWAP1 PUSH2 0x163 SWAP2 SWAP1 PUSH2 0x11BD JUMP JUMPDEST PUSH2 0x4E3 JUMP JUMPDEST PUSH1 0x40 MLOAD PUSH2 0x175 SWAP2 SWAP1 PUSH2 0x11F9 JUMP JUMPDEST PUSH1 0x40 MLOAD DUP1 SWAP2 SUB SWAP1 RETURN JUMPDEST CALLVALUE DUP1 ISZERO PUSH2 0x18A JUMPI PUSH1 0x0 DUP1 REVERT JUMPDEST POP PUSH2 0x1A5 PUSH1 0x4 DUP1 CALLDATASIZE SUB DUP2 ADD SWAP1 PUSH2 0x1A0 SWAP2 SWAP1 PUSH2 0x11BD JUMP JUMPDEST PUSH2 0x4FB JUMP JUMPDEST PUSH1 0x40 MLOAD PUSH2 0x1B2 SWAP2 SWAP1 PUSH2 0x122F JUMP JUMPDEST PUSH1 0x40 MLOAD DUP1 SWAP2 SUB SWAP1 RETURN JUMPDEST CALLVALUE DUP1 ISZERO PUSH2 0x1C7 JUMPI PUSH1 0x0 DUP1 REVERT JUMPDEST POP PUSH2 0x1E2 PUSH1 0x4 DUP1 CALLDATASIZE SUB DUP2 ADD SWAP1 PUSH2 0x1DD SWAP2 SWAP1 PUSH2 0x124A JUMP JUMPDEST PUSH2 0x51B JUMP JUMPDEST PUSH1 0x40 MLOAD PUSH2 0x1F4 SWAP7 SWAP6 SWAP5 SWAP4 SWAP3 SWAP2 SWAP1 PUSH2 0x1286 JUMP JUMPDEST PUSH1 0x40 MLOAD DUP1 SWAP2 SUB SWAP1 RETURN JUMPDEST CALLVALUE DUP1 ISZERO PUSH2 0x209 JUMPI PUSH1 0x0 DUP1 REVERT JUMPDEST POP PUSH2 0x224 PUSH1 0x4 DUP1 CALLDATASIZE SUB DUP2 ADD SWAP1 PUSH2 0x21F SWAP2 SWAP1 PUSH2 0x124A JUMP JUMPDEST PUSH2 0x591 JUMP JUMPDEST STOP JUMPDEST CALLVALUE DUP1 ISZERO PUSH2 0x232 JUMPI PUSH1 0x0 DUP1 REVERT JUMPDEST POP PUSH2 0x23B PUSH2 0x642 JUMP JUMPDEST PUSH1 0x40 MLOAD PUSH2 0x248 SWAP2 SWAP1 PUSH2 0x11F9 JUMP JUMPDEST PUSH1 0x40 MLOAD DUP1 SWAP2 SUB SWAP1 RETURN JUMPDEST CALLVALUE DUP1 ISZERO PUSH2 0x25D JUMPI PUSH1 0x0 DUP1 REVERT JUMPDEST POP PUSH2 0x278 PUSH1 0x4 DUP1 CALLDATASIZE SUB DUP2 ADD SWAP1 PUSH2 0x273 SWAP2 SWAP1 PUSH2 0x124A JUMP JUMPDEST PUSH2 0x6E1 JUMP JUMPDEST STOP JUMPDEST CALLVALUE DUP1 ISZERO PUSH2 0x286 JUMPI PUSH1 0x0 DUP1 REVERT JUMPDEST POP PUSH2 0x2A1 PUSH1 0x4 DUP1 CALLDATASIZE SUB DUP2 ADD SWAP1 PUSH2 0x29C SWAP2 SWAP1 PUSH2 0x124A JUMP JUMPDEST PUSH2 0x775 JUMP JUMPDEST STOP JUMPDEST CALLVALUE DUP1 ISZERO PUSH2 0x2AF JUMPI PUSH1 0x0 DUP1 REVERT JUMPDEST POP PUSH2 0x2CA PUSH1 0x4 DUP1 CALLDATASIZE SUB DUP2 ADD SWAP1 PUSH2 0x2C5 SWAP2 SWAP1 PUSH2 0x124A JUMP JUMPDEST PUSH2 0x827 JUMP JUMPDEST PUSH1 0x40 MLOAD PUSH2 0x2D7 SWAP2 SWAP1 PUSH2 0x11F9 JUMP JUMPDEST PUSH1 0x40 MLOAD DUP1 SWAP2 SUB SWAP1 RETURN JUMPDEST PUSH2 0x2FA PUSH1 0x4 DUP1 CALLDATASIZE SUB DUP2 ADD SWAP1 PUSH2 0x2F5 SWAP2 SWAP1 PUSH2 0x12E7 JUMP JUMPDEST PUSH2 0x847 JUMP JUMPDEST STOP JUMPDEST CALLVALUE DUP1 ISZERO PUSH2 0x308 JUMPI PUSH1 0x0 DUP1 REVERT JUMPDEST POP PUSH2 0x311 PUSH2 0xBA0 JUMP JUMPDEST PUSH1 0x40 MLOAD PUSH2 0x31E SWAP2 SWAP1 PUSH2 0x134E JUMP JUMPDEST PUSH1 0x40 MLOAD DUP1 SWAP2 SUB SWAP1 RETURN JUMPDEST CALLVALUE DUP1 ISZERO PUSH2 0x333 JUMPI PUSH1 0x0 DUP1 REVERT JUMPDEST POP PUSH2 0x34E PUSH1 0x4 DUP1 CALLDATASIZE SUB DUP2 ADD SWAP1 PUSH2 0x349 SWAP2 SWAP1 PUSH2 0x11BD JUMP JUMPDEST PUSH2 0xBC4 JUMP JUMPDEST STOP JUMPDEST CALLVALUE DUP1 ISZERO PUSH2 0x35C JUMPI PUSH1 0x0 DUP1 REVERT JUMPDEST POP PUSH2 0x377 PUSH1 0x4 DUP1 CALLDATASIZE SUB DUP2 ADD SWAP1 PUSH2 0x372 SWAP2 SWAP1 PUSH2 0x12E7 JUMP JUMPDEST PUSH2 0xC1F JUMP JUMPDEST STOP JUMPDEST CALLVALUE DUP1 ISZERO PUSH2 0x385 JUMPI PUSH1 0x0 DUP1 REVERT JUMPDEST POP PUSH2 0x3A0 PUSH1 0x4 DUP1 CALLDATASIZE SUB DUP2 ADD SWAP1 PUSH2 0x39B SWAP2 SWAP1 PUSH2 0x1369 JUMP JUMPDEST PUSH2 0xF68 JUMP JUMPDEST STOP JUMPDEST PUSH1 0x0 PUSH1 0x1 PUSH1 0x0 DUP5 DUP2 MSTORE PUSH1 0x20 ADD SWAP1 DUP2 MSTORE PUSH1 0x20 ADD PUSH1 0x0 KECCAK256 PUSH1 0x4 ADD SLOAD EQ PUSH2 0x3FB JUMPI PUSH1 0x40 MLOAD PUSH32 0x8C379A000000000000000000000000000000000000000000000000000000000 DUP2 MSTORE PUSH1 0x4 ADD PUSH2 0x3F2 SWAP1 PUSH2 0x1419 JUMP JUMPDEST PUSH1 0x40 MLOAD DUP1 SWAP2 SUB SWAP1 REVERT JUMPDEST PUSH1 0x0 ISZERO ISZERO PUSH1 0x5 PUSH1 0x0 DUP5 DUP2 MSTORE PUSH1 0x20 ADD SWAP1 DUP2 MSTORE PUSH1 0x20 ADD PUSH1 0x0 KECCAK256 PUSH1 0x0 DUP4 DUP2 MSTORE PUSH1 0x20 ADD SWAP1 DUP2 MSTORE PUSH1 0x20 ADD PUSH1 0x0 KECCAK256 PUSH1 0x0 SWAP1 SLOAD SWAP1 PUSH2 0x100 EXP SWAP1 DIV PUSH1 0xFF AND ISZERO ISZERO EQ PUSH2 0x473 JUMPI PUSH1 0x40 MLOAD PUSH32 0x8C379A000000000000000000000000000000000000000000000000000000000 DUP2 MSTORE PUSH1 0x4 ADD PUSH2 0x46A SWAP1 PUSH2 0x1485 JUMP JUMPDEST PUSH1 0x40 MLOAD DUP1 SWAP2 SUB SWAP1 REVERT JUMPDEST PUSH1 0x1 DUP1 PUSH1 0x0 DUP5 DUP2 MSTORE PUSH1 0x20 ADD SWAP1 DUP2 MSTORE PUSH1 0x20 ADD PUSH1 0x0 KECCAK256 PUSH1 0x2 ADD SLOAD LT ISZERO PUSH2 0x4CC JUMPI PUSH1 0x40 MLOAD PUSH32 0x8C379A000000000000000000000000000000000000000000000000000000000 DUP2 MSTORE PUSH1 0x4 ADD PUSH2 0x4C3 SWAP1 PUSH2 0x1517 JUMP JUMPDEST PUSH1 0x40 MLOAD DUP1 SWAP2 SUB SWAP1 REVERT JUMPDEST POP POP JUMP JUMPDEST PUSH1 0x7 PUSH1 0x0 SWAP1 SLOAD SWAP1 PUSH2 0x100 EXP SWAP1 DIV PUSH1 0xFF AND DUP2 JUMP JUMPDEST PUSH1 0x3 PUSH1 0x20 MSTORE DUP1 PUSH1 0x0 MSTORE PUSH1 0x40 PUSH1 0x0 KECCAK256 PUSH1 0x0 SWAP2 POP SWAP1 POP SLOAD DUP2 JUMP JUMPDEST PUSH1 0x2 PUSH1 0x20 MSTORE DUP1 PUSH1 0x0 MSTORE PUSH1 0x40 PUSH1 0x0 KECCAK256 PUSH1 0x0 SWAP2 POP SLOAD SWAP1 PUSH2 0x100 EXP SWAP1 DIV PUSH1 0xFF AND DUP2 JUMP JUMPDEST PUSH1 0x1 PUSH1 0x20 MSTORE DUP1 PUSH1 0x0 MSTORE PUSH1 0x40 PUSH1 0x0 KECCAK256 PUSH1 0x0 SWAP2 POP SWAP1 POP DUP1 PUSH1 0x0 ADD PUSH1 0x0 SWAP1 SLOAD SWAP1 PUSH2 0x100 EXP SWAP1 DIV PUSH20 0xFFFFFFFFFFFFFFFFFFFFFFFFFFFFFFFFFFFFFFFF AND SWAP1 DUP1 PUSH1 0x1 ADD SLOAD SWAP1 DUP1 PUSH1 0x2 ADD SLOAD SWAP1 DUP1 PUSH1 0x3 ADD PUSH1 0x0 SWAP1 SLOAD SWAP1 PUSH2 0x100 EXP SWAP1 DIV PUSH1 0xFF AND SWAP1 DUP1 PUSH1 0x3 ADD PUSH1 0x1 SWAP1 SLOAD SWAP1 PUSH2 0x100 EXP SWAP1 DIV PUSH1 0xFF AND SWAP1 DUP1 PUSH1 0x4 ADD SLOAD SWAP1 POP DUP7 JUMP JUMPDEST PUSH1 0x1 ISZERO ISZERO PUSH1 0x2 PUSH1 0x0 CALLER PUSH20 0xFFFFFFFFFFFFFFFFFFFFFFFFFFFFFFFFFFFFFFFF AND PUSH20 0xFFFFFFFFFFFFFFFFFFFFFFFFFFFFFFFFFFFFFFFF AND DUP2 MSTORE PUSH1 0x20 ADD SWAP1 DUP2 MSTORE PUSH1 0x20 ADD PUSH1 0x0 KECCAK256 PUSH1 0x0 SWAP1 SLOAD SWAP1 PUSH2 0x100 EXP SWAP1 DIV PUSH1 0xFF AND ISZERO ISZERO EQ PUSH2 0x624 JUMPI PUSH1 0x40 MLOAD PUSH32 0x8C379A000000000000000000000000000000000000000000000000000000000 DUP2 MSTORE PUSH1 0x4 ADD PUSH2 0x61B SWAP1 PUSH2 0x1583 JUMP JUMPDEST PUSH1 0x40 MLOAD DUP1 SWAP2 SUB SWAP1 REVERT JUMPDEST PUSH1 0x1 DUP1 PUSH1 0x0 DUP4 DUP2 MSTORE PUSH1 0x20 ADD SWAP1 DUP2 MSTORE PUSH1 0x20 ADD PUSH1 0x0 KECCAK256 PUSH1 0x4 ADD DUP2 SWAP1 SSTORE POP POP JUMP JUMPDEST PUSH1 0x0 PUSH2 0xC350 PUSH1 0x3 PUSH1 0x0 CALLER PUSH20 0xFFFFFFFFFFFFFFFFFFFFFFFFFFFFFFFFFFFFFFFF AND PUSH20 0xFFFFFFFFFFFFFFFFFFFFFFFFFFFFFFFFFFFFFFFF AND DUP2 MSTORE PUSH1 0x20 ADD SWAP1 DUP2 MSTORE PUSH1 0x20 ADD PUSH1 0x0 KECCAK256 PUSH1 0x0 DUP3 DUP3 SLOAD PUSH2 0x695 SWAP2 SWAP1 PUSH2 0x15D2 JUMP JUMPDEST SWAP3 POP POP DUP2 SWAP1 SSTORE POP PUSH1 0x3 PUSH1 0x0 CALLER PUSH20 0xFFFFFFFFFFFFFFFFFFFFFFFFFFFFFFFFFFFFFFFF AND PUSH20 0xFFFFFFFFFFFFFFFFFFFFFFFFFFFFFFFFFFFFFFFF AND DUP2 MSTORE PUSH1 0x20 ADD SWAP1 DUP2 MSTORE PUSH1 0x20 ADD PUSH1 0x0 KECCAK256 SLOAD SWAP1 POP SWAP1 JUMP JUMPDEST PUSH1 0x1 PUSH1 0x0 DUP3 DUP2 MSTORE PUSH1 0x20 ADD SWAP1 DUP2 MSTORE PUSH1 0x20 ADD PUSH1 0x0 KECCAK256 PUSH1 0x3 ADD PUSH1 0x0 SWAP1 SLOAD SWAP1 PUSH2 0x100 EXP SWAP1 DIV PUSH1 0xFF AND PUSH2 0x744 JUMPI PUSH1 0x40 MLOAD PUSH32 0x8C379A000000000000000000000000000000000000000000000000000000000 DUP2 MSTORE PUSH1 0x4 ADD PUSH2 0x73B SWAP1 PUSH2 0x1652 JUMP JUMPDEST PUSH1 0x40 MLOAD DUP1 SWAP2 SUB SWAP1 REVERT JUMPDEST PUSH1 0x1 DUP1 PUSH1 0x0 DUP4 DUP2 MSTORE PUSH1 0x20 ADD SWAP1 DUP2 MSTORE PUSH1 0x20 ADD PUSH1 0x0 KECCAK256 PUSH1 0x3 ADD PUSH1 0x1 PUSH2 0x100 EXP DUP2 SLOAD DUP2 PUSH1 0xFF MUL NOT AND SWAP1 DUP4 ISZERO ISZERO MUL OR SWAP1 SSTORE POP POP JUMP JUMPDEST PUSH1 0x1 ISZERO ISZERO PUSH1 0x2 PUSH1 0x0 CALLER PUSH20 0xFFFFFFFFFFFFFFFFFFFFFFFFFFFFFFFFFFFFFFFF AND PUSH20 0xFFFFFFFFFFFFFFFFFFFFFFFFFFFFFFFFFFFFFFFF AND DUP2 MSTORE PUSH1 0x20 ADD SWAP1 DUP2 MSTORE PUSH1 0x20 ADD PUSH1 0x0 KECCAK256 PUSH1 0x0 SWAP1 SLOAD SWAP1 PUSH2 0x100 EXP SWAP1 DIV PUSH1 0xFF AND ISZERO ISZERO EQ PUSH2 0x808 JUMPI PUSH1 0x40 MLOAD PUSH32 0x8C379A000000000000000000000000000000000000000000000000000000000 DUP2 MSTORE PUSH1 0x4 ADD PUSH2 0x7FF SWAP1 PUSH2 0x1583 JUMP JUMPDEST PUSH1 0x40 MLOAD DUP1 SWAP2 SUB SWAP1 REVERT JUMPDEST PUSH1 0x0 PUSH1 0x1 PUSH1 0x0 DUP4 DUP2 MSTORE PUSH1 0x20 ADD SWAP1 DUP2 MSTORE PUSH1 0x20 ADD PUSH1 0x0 KECCAK256 PUSH1 0x4 ADD DUP2 SWAP1 SSTORE POP POP JUMP JUMPDEST PUSH1 0x0 PUSH1 0x1 PUSH1 0x0 DUP4 DUP2 MSTORE PUSH1 0x20 ADD SWAP1 DUP2 MSTORE PUSH1 0x20 ADD PUSH1 0x0 KECCAK256 PUSH1 0x2 ADD SLOAD SWAP1 POP SWAP2 SWAP1 POP JUMP JUMPDEST PUSH1 0x0 ISZERO ISZERO PUSH1 0x5 PUSH1 0x0 DUP6 DUP2 MSTORE PUSH1 0x20 ADD SWAP1 DUP2 MSTORE PUSH1 0x20 ADD PUSH1 0x0 KECCAK256 PUSH1 0x0 DUP4 DUP2 MSTORE PUSH1 0x20 ADD SWAP1 DUP2 MSTORE PUSH1 0x20 ADD PUSH1 0x0 KECCAK256 PUSH1 0x0 SWAP1 SLOAD SWAP1 PUSH2 0x100 EXP SWAP1 DIV PUSH1 0xFF AND ISZERO ISZERO EQ PUSH2 0x8BF JUMPI PUSH1 0x40 MLOAD PUSH32 0x8C379A000000000000000000000000000000000000000000000000000000000 DUP2 MSTORE PUSH1 0x4 ADD PUSH2 0x8B6 SWAP1 PUSH2 0x1485 JUMP JUMPDEST PUSH1 0x40 MLOAD DUP1 SWAP2 SUB SWAP1 REVERT JUMPDEST PUSH1 0x1 DUP3 EQ PUSH2 0x902 JUMPI PUSH1 0x40 MLOAD PUSH32 0x8C379A000000000000000000000000000000000000000000000000000000000 DUP2 MSTORE PUSH1 0x4 ADD PUSH2 0x8F9 SWAP1 PUSH2 0x16BE JUMP JUMPDEST PUSH1 0x40 MLOAD DUP1 SWAP2 SUB SWAP1 REVERT JUMPDEST DUP2 PUSH1 0x1 PUSH1 0x0 DUP6 DUP2 MSTORE PUSH1 0x20 ADD SWAP1 DUP2 MSTORE PUSH1 0x20 ADD PUSH1 0x0 KECCAK256 PUSH1 0x1 ADD SLOAD PUSH2 0x924 SWAP2 SWAP1 PUSH2 0x16DE JUMP JUMPDEST PUSH1 0x3 PUSH1 0x0 CALLER PUSH20 0xFFFFFFFFFFFFFFFFFFFFFFFFFFFFFFFFFFFFFFFF AND PUSH20 0xFFFFFFFFFFFFFFFFFFFFFFFFFFFFFFFFFFFFFFFF AND DUP2 MSTORE PUSH1 0x20 ADD SWAP1 DUP2 MSTORE PUSH1 0x20 ADD PUSH1 0x0 KECCAK256 SLOAD GT PUSH2 0x9A4 JUMPI PUSH1 0x40 MLOAD PUSH32 0x8C379A000000000000000000000000000000000000000000000000000000000 DUP2 MSTORE PUSH1 0x4 ADD PUSH2 0x99B SWAP1 PUSH2 0x176C JUMP JUMPDEST PUSH1 0x40 MLOAD DUP1 SWAP2 SUB SWAP1 REVERT JUMPDEST PUSH1 0x0 DUP3 PUSH1 0x1 PUSH1 0x0 DUP7 DUP2 MSTORE PUSH1 0x20 ADD SWAP1 DUP2 MSTORE PUSH1 0x20 ADD PUSH1 0x0 KECCAK256 PUSH1 0x1 ADD SLOAD PUSH2 0x9C8 SWAP2 SWAP1 PUSH2 0x16DE JUMP JUMPDEST SWAP1 POP DUP3 PUSH1 0x1 PUSH1 0x0 DUP7 DUP2 MSTORE PUSH1 0x20 ADD SWAP1 DUP2 MSTORE PUSH1 0x20 ADD PUSH1 0x0 KECCAK256 PUSH1 0x2 ADD PUSH1 0x0 DUP3 DUP3 SLOAD PUSH2 0x9F0 SWAP2 SWAP1 PUSH2 0x178C JUMP JUMPDEST SWAP3 POP POP DUP2 SWAP1 SSTORE POP DUP1 PUSH1 0x3 PUSH1 0x0 CALLER PUSH20 0xFFFFFFFFFFFFFFFFFFFFFFFFFFFFFFFFFFFFFFFF AND PUSH20 0xFFFFFFFFFFFFFFFFFFFFFFFFFFFFFFFFFFFFFFFF AND DUP2 MSTORE PUSH1 0x20 ADD SWAP1 DUP2 MSTORE PUSH1 0x20 ADD PUSH1 0x0 KECCAK256 PUSH1 0x0 DUP3 DUP3 SLOAD PUSH2 0xA46 SWAP2 SWAP1 PUSH2 0x178C JUMP JUMPDEST SWAP3 POP POP DUP2 SWAP1 SSTORE POP PUSH1 0x1 PUSH1 0x6 PUSH1 0x0 DUP7 DUP2 MSTORE PUSH1 0x20 ADD SWAP1 DUP2 MSTORE PUSH1 0x20 ADD PUSH1 0x0 KECCAK256 PUSH1 0x0 DUP5 DUP2 MSTORE PUSH1 0x20 ADD SWAP1 DUP2 MSTORE PUSH1 0x20 ADD PUSH1 0x0 KECCAK256 PUSH1 0x0 ADD PUSH1 0x0 PUSH2 0x100 EXP DUP2 SLOAD DUP2 PUSH1 0xFF MUL NOT AND SWAP1 DUP4 ISZERO ISZERO MUL OR SWAP1 SSTORE POP PUSH1 0x4 PUSH1 0x0 DUP6 DUP2 MSTORE PUSH1 0x20 ADD SWAP1 DUP2 MSTORE PUSH1 0x20 ADD PUSH1 0x0 KECCAK256 PUSH1 0x0 DUP7 PUSH20 0xFFFFFFFFFFFFFFFFFFFFFFFFFFFFFFFFFFFFFFFF AND PUSH20 0xFFFFFFFFFFFFFFFFFFFFFFFFFFFFFFFFFFFFFFFF AND DUP2 MSTORE PUSH1 0x20 ADD SWAP1 DUP2 MSTORE PUSH1 0x20 ADD PUSH1 0x0 KECCAK256 PUSH1 0x3 ADD PUSH1 0x0 SWAP1 SLOAD SWAP1 PUSH2 0x100 EXP SWAP1 DIV PUSH1 0xFF AND ISZERO PUSH2 0xB2E JUMPI PUSH1 0x40 MLOAD PUSH32 0x8C379A000000000000000000000000000000000000000000000000000000000 DUP2 MSTORE PUSH1 0x4 ADD PUSH2 0xB25 SWAP1 PUSH2 0x180C JUMP JUMPDEST PUSH1 0x40 MLOAD DUP1 SWAP2 SUB SWAP1 REVERT JUMPDEST PUSH1 0x1 DUP1 PUSH1 0x0 DUP7 DUP2 MSTORE PUSH1 0x20 ADD SWAP1 DUP2 MSTORE PUSH1 0x20 ADD PUSH1 0x0 KECCAK256 PUSH1 0x3 ADD PUSH1 0x0 PUSH2 0x100 EXP DUP2 SLOAD DUP2 PUSH1 0xFF MUL NOT AND SWAP1 DUP4 ISZERO ISZERO MUL OR SWAP1 SSTORE POP PUSH1 0x1 PUSH1 0x5 PUSH1 0x0 DUP7 DUP2 MSTORE PUSH1 0x20 ADD SWAP1 DUP2 MSTORE PUSH1 0x20 ADD PUSH1 0x0 KECCAK256 PUSH1 0x0 DUP5 DUP2 MSTORE PUSH1 0x20 ADD SWAP1 DUP2 MSTORE PUSH1 0x20 ADD PUSH1 0x0 KECCAK256 PUSH1 0x0 PUSH2 0x100 EXP DUP2 SLOAD DUP2 PUSH1 0xFF MUL NOT AND SWAP1 DUP4 ISZERO ISZERO MUL OR SWAP1 SSTORE POP POP POP POP POP POP JUMP JUMPDEST PUSH1 0x0 DUP1 SLOAD SWAP1 PUSH2 0x100 EXP SWAP1 DIV PUSH20 0xFFFFFFFFFFFFFFFFFFFFFFFFFFFFFFFFFFFFFFFF AND DUP2 JUMP JUMPDEST PUSH1 0x1 PUSH1 0x2 PUSH1 0x0 DUP4 PUSH20 0xFFFFFFFFFFFFFFFFFFFFFFFFFFFFFFFFFFFFFFFF AND PUSH20 0xFFFFFFFFFFFFFFFFFFFFFFFFFFFFFFFFFFFFFFFF AND DUP2 MSTORE PUSH1 0x20 ADD SWAP1 DUP2 MSTORE PUSH1 0x20 ADD PUSH1 0x0 KECCAK256 PUSH1 0x0 PUSH2 0x100 EXP DUP2 SLOAD DUP2 PUSH1 0xFF MUL NOT AND SWAP1 DUP4 ISZERO ISZERO MUL OR SWAP1 SSTORE POP POP JUMP JUMPDEST CALLER PUSH20 0xFFFFFFFFFFFFFFFFFFFFFFFFFFFFFFFFFFFFFFFF AND PUSH1 0x0 DUP1 SLOAD SWAP1 PUSH2 0x100 EXP SWAP1 DIV PUSH20 0xFFFFFFFFFFFFFFFFFFFFFFFFFFFFFFFFFFFFFFFF AND PUSH20 0xFFFFFFFFFFFFFFFFFFFFFFFFFFFFFFFFFFFFFFFF AND EQ PUSH2 0xCAD JUMPI PUSH1 0x40 MLOAD PUSH32 0x8C379A000000000000000000000000000000000000000000000000000000000 DUP2 MSTORE PUSH1 0x4 ADD PUSH2 0xCA4 SWAP1 PUSH2 0x1878 JUMP JUMPDEST PUSH1 0x40 MLOAD DUP1 SWAP2 SUB SWAP1 REVERT JUMPDEST PUSH1 0x1 ISZERO ISZERO PUSH1 0x6 PUSH1 0x0 DUP6 DUP2 MSTORE PUSH1 0x20 ADD SWAP1 DUP2 MSTORE PUSH1 0x20 ADD PUSH1 0x0 KECCAK256 PUSH1 0x0 DUP5 DUP2 MSTORE PUSH1 0x20 ADD SWAP1 DUP2 MSTORE PUSH1 0x20 ADD PUSH1 0x0 KECCAK256 PUSH1 0x0 ADD PUSH1 0x0 SWAP1 SLOAD SWAP1 PUSH2 0x100 EXP SWAP1 DIV PUSH1 0xFF AND ISZERO ISZERO EQ PUSH2 0xD28 JUMPI PUSH1 0x40 MLOAD PUSH32 0x8C379A000000000000000000000000000000000000000000000000000000000 DUP2 MSTORE PUSH1 0x4 ADD PUSH2 0xD1F SWAP1 PUSH2 0x18E4 JUMP JUMPDEST PUSH1 0x40 MLOAD DUP1 SWAP2 SUB SWAP1 REVERT JUMPDEST PUSH1 0x1 ISZERO ISZERO PUSH1 0x5 PUSH1 0x0 DUP6 DUP2 MSTORE PUSH1 0x20 ADD SWAP1 DUP2 MSTORE PUSH1 0x20 ADD PUSH1 0x0 KECCAK256 PUSH1 0x0 DUP5 DUP2 MSTORE PUSH1 0x20 ADD SWAP1 DUP2 MSTORE PUSH1 0x20 ADD PUSH1 0x0 KECCAK256 PUSH1 0x0 SWAP1 SLOAD SWAP1 PUSH2 0x100 EXP SWAP1 DIV PUSH1 0xFF AND ISZERO ISZERO EQ PUSH2 0xDA0 JUMPI PUSH1 0x40 MLOAD PUSH32 0x8C379A000000000000000000000000000000000000000000000000000000000 DUP2 MSTORE PUSH1 0x4 ADD PUSH2 0xD97 SWAP1 PUSH2 0x1950 JUMP JUMPDEST PUSH1 0x40 MLOAD DUP1 SWAP2 SUB SWAP1 REVERT JUMPDEST PUSH1 0x1 DUP2 EQ PUSH2 0xDE3 JUMPI PUSH1 0x40 MLOAD PUSH32 0x8C379A000000000000000000000000000000000000000000000000000000000 DUP2 MSTORE PUSH1 0x4 ADD PUSH2 0xDDA SWAP1 PUSH2 0x19BC JUMP JUMPDEST PUSH1 0x40 MLOAD DUP1 SWAP2 SUB SWAP1 REVERT JUMPDEST DUP1 PUSH1 0x1 PUSH1 0x0 DUP6 DUP2 MSTORE PUSH1 0x20 ADD SWAP1 DUP2 MSTORE PUSH1 0x20 ADD PUSH1 0x0 KECCAK256 PUSH1 0x1 ADD SLOAD PUSH2 0xE05 SWAP2 SWAP1 PUSH2 0x16DE JUMP JUMPDEST PUSH1 0x3 PUSH1 0x0 DUP7 PUSH20 0xFFFFFFFFFFFFFFFFFFFFFFFFFFFFFFFFFFFFFFFF AND PUSH20 0xFFFFFFFFFFFFFFFFFFFFFFFFFFFFFFFFFFFFFFFF AND DUP2 MSTORE PUSH1 0x20 ADD SWAP1 DUP2 MSTORE PUSH1 0x20 ADD PUSH1 0x0 KECCAK256 PUSH1 0x0 DUP3 DUP3 SLOAD PUSH2 0xE53 SWAP2 SWAP1 PUSH2 0x15D2 JUMP JUMPDEST SWAP3 POP POP DUP2 SWAP1 SSTORE POP DUP1 PUSH1 0x1 PUSH1 0x0 DUP6 DUP2 MSTORE PUSH1 0x20 ADD SWAP1 DUP2 MSTORE PUSH1 0x20 ADD PUSH1 0x0 KECCAK256 PUSH1 0x2 ADD PUSH1 0x0 DUP3 DUP3 SLOAD PUSH2 0xE80 SWAP2 SWAP1 PUSH2 0x15D2 JUMP JUMPDEST SWAP3 POP POP DUP2 SWAP1 SSTORE POP PUSH1 0x0 PUSH1 0x6 PUSH1 0x0 DUP6 DUP2 MSTORE PUSH1 0x20 ADD SWAP1 DUP2 MSTORE PUSH1 0x20 ADD PUSH1 0x0 KECCAK256 PUSH1 0x0 DUP5 DUP2 MSTORE PUSH1 0x20 ADD SWAP1 DUP2 MSTORE PUSH1 0x20 ADD PUSH1 0x0 KECCAK256 PUSH1 0x0 ADD PUSH1 0x0 PUSH2 0x100 EXP DUP2 SLOAD DUP2 PUSH1 0xFF MUL NOT AND SWAP1 DUP4 ISZERO ISZERO MUL OR SWAP1 SSTORE POP PUSH1 0x0 PUSH1 0x5 PUSH1 0x0 DUP6 DUP2 MSTORE PUSH1 0x20 ADD SWAP1 DUP2 MSTORE PUSH1 0x20 ADD PUSH1 0x0 KECCAK256 PUSH1 0x0 DUP5 DUP2 MSTORE PUSH1 0x20 ADD SWAP1 DUP2 MSTORE PUSH1 0x20 ADD PUSH1 0x0 KECCAK256 PUSH1 0x0 PUSH2 0x100 EXP DUP2 SLOAD DUP2 PUSH1 0xFF MUL NOT AND SWAP1 DUP4 ISZERO ISZERO MUL OR SWAP1 SSTORE POP PUSH1 0x0 PUSH1 0x1 PUSH1 0x0 DUP6 DUP2 MSTORE PUSH1 0x20 ADD SWAP1 DUP2 MSTORE PUSH1 0x20 ADD PUSH1 0x0 KECCAK256 PUSH1 0x3 ADD PUSH1 0x0 PUSH2 0x100 EXP DUP2 SLOAD DUP2 PUSH1 0xFF MUL NOT AND SWAP1 DUP4 ISZERO ISZERO MUL OR SWAP1 SSTORE POP PUSH1 0x0 PUSH1 0x1 PUSH1 0x0 DUP6 DUP2 MSTORE PUSH1 0x20 ADD SWAP1 DUP2 MSTORE PUSH1 0x20 ADD PUSH1 0x0 KECCAK256 PUSH1 0x3 ADD PUSH1 0x1 PUSH2 0x100 EXP DUP2 SLOAD DUP2 PUSH1 0xFF MUL NOT AND SWAP1 DUP4 ISZERO ISZERO MUL OR SWAP1 SSTORE POP POP POP POP POP JUMP JUMPDEST PUSH1 0x1 ISZERO ISZERO PUSH1 0x2 PUSH1 0x0 CALLER PUSH20 0xFFFFFFFFFFFFFFFFFFFFFFFFFFFFFFFFFFFFFFFF AND PUSH20 0xFFFFFFFFFFFFFFFFFFFFFFFFFFFFFFFFFFFFFFFF AND DUP2 MSTORE PUSH1 0x20 ADD SWAP1 DUP2 MSTORE PUSH1 0x20 ADD PUSH1 0x0 KECCAK256 PUSH1 0x0 SWAP1 SLOAD SWAP1 PUSH2 0x100 EXP SWAP1 DIV PUSH1 0xFF AND ISZERO ISZERO EQ PUSH2 0xFFB JUMPI PUSH1 0x40 MLOAD PUSH32 0x8C379A000000000000000000000000000000000000000000000000000000000 DUP2 MSTORE PUSH1 0x4 ADD PUSH2 0xFF2 SWAP1 PUSH2 0x1A28 JUMP JUMPDEST PUSH1 0x40 MLOAD DUP1 SWAP2 SUB SWAP1 REVERT JUMPDEST PUSH1 0x0 PUSH1 0x1 PUSH1 0x0 DUP6 DUP2 MSTORE PUSH1 0x20 ADD SWAP1 DUP2 MSTORE PUSH1 0x20 ADD PUSH1 0x0 KECCAK256 PUSH1 0x4 ADD DUP2 SWAP1 SSTORE POP DUP1 PUSH1 0x1 PUSH1 0x0 DUP6 DUP2 MSTORE PUSH1 0x20 ADD SWAP1 DUP2 MSTORE PUSH1 0x20 ADD PUSH1 0x0 KECCAK256 PUSH1 0x2 ADD DUP2 SWAP1 SSTORE POP DUP2 PUSH1 0x1 PUSH1 0x0 DUP6 DUP2 MSTORE PUSH1 0x20 ADD SWAP1 DUP2 MSTORE PUSH1 0x20 ADD PUSH1 0x0 KECCAK256 PUSH1 0x1 ADD DUP2 SWAP1 SSTORE POP POP POP POP JUMP JUMPDEST PUSH1 0x0 DUP1 REVERT JUMPDEST PUSH1 0x0 DUP2 SWAP1 POP SWAP2 SWAP1 POP JUMP JUMPDEST PUSH2 0x106A DUP2 PUSH2 0x1057 JUMP JUMPDEST DUP2 EQ PUSH2 0x1075 JUMPI PUSH1 0x0 DUP1 REVERT JUMPDEST POP JUMP JUMPDEST PUSH1 0x0 DUP2 CALLDATALOAD SWAP1 POP PUSH2 0x1087 DUP2 PUSH2 0x1061 JUMP JUMPDEST SWAP3 SWAP2 POP POP JUMP JUMPDEST PUSH1 0x0 DUP1 PUSH1 0x40 DUP4 DUP6 SUB SLT ISZERO PUSH2 0x10A4 JUMPI PUSH2 0x10A3 PUSH2 0x1052 JUMP JUMPDEST JUMPDEST PUSH1 0x0 PUSH2 0x10B2 DUP6 DUP3 DUP7 ADD PUSH2 0x1078 JUMP JUMPDEST SWAP3 POP POP PUSH1 0x20 PUSH2 0x10C3 DUP6 DUP3 DUP7 ADD PUSH2 0x1078 JUMP JUMPDEST SWAP2 POP POP SWAP3 POP SWAP3 SWAP1 POP JUMP JUMPDEST PUSH32 0x4E487B7100000000000000000000000000000000000000000000000000000000 PUSH1 0x0 MSTORE PUSH1 0x21 PUSH1 0x4 MSTORE PUSH1 0x24 PUSH1 0x0 REVERT JUMPDEST PUSH1 0x2 DUP2 LT PUSH2 0x110D JUMPI PUSH2 0x110C PUSH2 0x10CD JUMP JUMPDEST JUMPDEST POP JUMP JUMPDEST PUSH1 0x0 DUP2 SWAP1 POP PUSH2 0x111E DUP3 PUSH2 0x10FC JUMP JUMPDEST SWAP2 SWAP1 POP JUMP JUMPDEST PUSH1 0x0 PUSH2 0x112E DUP3 PUSH2 0x1110 JUMP JUMPDEST SWAP1 POP SWAP2 SWAP1 POP JUMP JUMPDEST PUSH2 0x113E DUP2 PUSH2 0x1123 JUMP JUMPDEST DUP3 MSTORE POP POP JUMP JUMPDEST PUSH1 0x0 PUSH1 0x20 DUP3 ADD SWAP1 POP PUSH2 0x1159 PUSH1 0x0 DUP4 ADD DUP5 PUSH2 0x1135 JUMP JUMPDEST SWAP3 SWAP2 POP POP JUMP JUMPDEST PUSH1 0x0 PUSH20 0xFFFFFFFFFFFFFFFFFFFFFFFFFFFFFFFFFFFFFFFF DUP3 AND SWAP1 POP SWAP2 SWAP1 POP JUMP JUMPDEST PUSH1 0x0 PUSH2 0x118A DUP3 PUSH2 0x115F JUMP JUMPDEST SWAP1 POP SWAP2 SWAP1 POP JUMP JUMPDEST PUSH2 0x119A DUP2 PUSH2 0x117F JUMP JUMPDEST DUP2 EQ PUSH2 0x11A5 JUMPI PUSH1 0x0 DUP1 REVERT JUMPDEST POP JUMP JUMPDEST PUSH1 0x0 DUP2 CALLDATALOAD SWAP1 POP PUSH2 0x11B7 DUP2 PUSH2 0x1191 JUMP JUMPDEST SWAP3 SWAP2 POP POP JUMP JUMPDEST PUSH1 0x0 PUSH1 0x20 DUP3 DUP5 SUB SLT ISZERO PUSH2 0x11D3 JUMPI PUSH2 0x11D2 PUSH2 0x1052 JUMP JUMPDEST JUMPDEST PUSH1 0x0 PUSH2 0x11E1 DUP5 DUP3 DUP6 ADD PUSH2 0x11A8 JUMP JUMPDEST SWAP2 POP POP SWAP3 SWAP2 POP POP JUMP JUMPDEST PUSH2 0x11F3 DUP2 PUSH2 0x1057 JUMP JUMPDEST DUP3 MSTORE POP POP JUMP JUMPDEST PUSH1 0x0 PUSH1 0x20 DUP3 ADD SWAP1 POP PUSH2 0x120E PUSH1 0x0 DUP4 ADD DUP5 PUSH2 0x11EA JUMP JUMPDEST SWAP3 SWAP2 POP POP JUMP JUMPDEST PUSH1 0x0 DUP2 ISZERO ISZERO SWAP1 POP SWAP2 SWAP1 POP JUMP JUMPDEST PUSH2 0x1229 DUP2 PUSH2 0x1214 JUMP JUMPDEST DUP3 MSTORE POP POP JUMP JUMPDEST PUSH1 0x0 PUSH1 0x20 DUP3 ADD SWAP1 POP PUSH2 0x1244 PUSH1 0x0 DUP4 ADD DUP5 PUSH2 0x1220 JUMP JUMPDEST SWAP3 SWAP2 POP POP JUMP JUMPDEST PUSH1 0x0 PUSH1 0x20 DUP3 DUP5 SUB SLT ISZERO PUSH2 0x1260 JUMPI PUSH2 0x125F PUSH2 0x1052 JUMP JUMPDEST JUMPDEST PUSH1 0x0 PUSH2 0x126E DUP5 DUP3 DUP6 ADD PUSH2 0x1078 JUMP JUMPDEST SWAP2 POP POP SWAP3 SWAP2 POP POP JUMP JUMPDEST PUSH2 0x1280 DUP2 PUSH2 0x117F JUMP JUMPDEST DUP3 MSTORE POP POP JUMP JUMPDEST PUSH1 0x0 PUSH1 0xC0 DUP3 ADD SWAP1 POP PUSH2 0x129B PUSH1 0x0 DUP4 ADD DUP10 PUSH2 0x1277 JUMP JUMPDEST PUSH2 0x12A8 PUSH1 0x20 DUP4 ADD DUP9 PUSH2 0x11EA JUMP JUMPDEST PUSH2 0x12B5 PUSH1 0x40 DUP4 ADD DUP8 PUSH2 0x11EA JUMP JUMPDEST PUSH2 0x12C2 PUSH1 0x60 DUP4 ADD DUP7 PUSH2 0x1220 JUMP JUMPDEST PUSH2 0x12CF PUSH1 0x80 DUP4 ADD DUP6 PUSH2 0x1220 JUMP JUMPDEST PUSH2 0x12DC PUSH1 0xA0 DUP4 ADD DUP5 PUSH2 0x11EA JUMP JUMPDEST SWAP8 SWAP7 POP POP POP POP POP POP POP JUMP JUMPDEST PUSH1 0x0 DUP1 PUSH1 0x0 DUP1 PUSH1 0x80 DUP6 DUP8 SUB SLT ISZERO PUSH2 0x1301 JUMPI PUSH2 0x1300 PUSH2 0x1052 JUMP JUMPDEST JUMPDEST PUSH1 0x0 PUSH2 0x130F DUP8 DUP3 DUP9 ADD PUSH2 0x11A8 JUMP JUMPDEST SWAP5 POP POP PUSH1 0x20 PUSH2 0x1320 DUP8 DUP3 DUP9 ADD PUSH2 0x1078 JUMP JUMPDEST SWAP4 POP POP PUSH1 0x40 PUSH2 0x1331 DUP8 DUP3 DUP9 ADD PUSH2 0x1078 JUMP JUMPDEST SWAP3 POP POP PUSH1 0x60 PUSH2 0x1342 DUP8 DUP3 DUP9 ADD PUSH2 0x1078 JUMP JUMPDEST SWAP2 POP POP SWAP3 SWAP6 SWAP2 SWAP5 POP SWAP3 POP JUMP JUMPDEST PUSH1 0x0 PUSH1 0x20 DUP3 ADD SWAP1 POP PUSH2 0x1363 PUSH1 0x0 DUP4 ADD DUP5 PUSH2 0x1277 JUMP JUMPDEST SWAP3 SWAP2 POP POP JUMP JUMPDEST PUSH1 0x0 DUP1 PUSH1 0x0 PUSH1 0x60 DUP5 DUP7 SUB SLT ISZERO PUSH2 0x1382 JUMPI PUSH2 0x1381 PUSH2 0x1052 JUMP JUMPDEST JUMPDEST PUSH1 0x0 PUSH2 0x1390 DUP7 DUP3 DUP8 ADD PUSH2 0x1078 JUMP JUMPDEST SWAP4 POP POP PUSH1 0x20 PUSH2 0x13A1 DUP7 DUP3 DUP8 ADD PUSH2 0x1078 JUMP JUMPDEST SWAP3 POP POP PUSH1 0x40 PUSH2 0x13B2 DUP7 DUP3 DUP8 ADD PUSH2 0x1078 JUMP JUMPDEST SWAP2 POP POP SWAP3 POP SWAP3 POP SWAP3 JUMP JUMPDEST PUSH1 0x0 DUP3 DUP3 MSTORE PUSH1 0x20 DUP3 ADD SWAP1 POP SWAP3 SWAP2 POP POP JUMP JUMPDEST PUSH32 0x466C69676874206973206E6F7420417661696C61626C65000000000000000000 PUSH1 0x0 DUP3 ADD MSTORE POP JUMP JUMPDEST PUSH1 0x0 PUSH2 0x1403 PUSH1 0x17 DUP4 PUSH2 0x13BC JUMP JUMPDEST SWAP2 POP PUSH2 0x140E DUP3 PUSH2 0x13CD JUMP JUMPDEST PUSH1 0x20 DUP3 ADD SWAP1 POP SWAP2 SWAP1 POP JUMP JUMPDEST PUSH1 0x0 PUSH1 0x20 DUP3 ADD SWAP1 POP DUP2 DUP2 SUB PUSH1 0x0 DUP4 ADD MSTORE PUSH2 0x1432 DUP2 PUSH2 0x13F6 JUMP JUMPDEST SWAP1 POP SWAP2 SWAP1 POP JUMP JUMPDEST PUSH32 0x5365617420616C726561647920426F6F6B656400000000000000000000000000 PUSH1 0x0 DUP3 ADD MSTORE POP JUMP JUMPDEST PUSH1 0x0 PUSH2 0x146F PUSH1 0x13 DUP4 PUSH2 0x13BC JUMP JUMPDEST SWAP2 POP PUSH2 0x147A DUP3 PUSH2 0x1439 JUMP JUMPDEST PUSH1 0x20 DUP3 ADD SWAP1 POP SWAP2 SWAP1 POP JUMP JUMPDEST PUSH1 0x0 PUSH1 0x20 DUP3 ADD SWAP1 POP DUP2 DUP2 SUB PUSH1 0x0 DUP4 ADD MSTORE PUSH2 0x149E DUP2 PUSH2 0x1462 JUMP JUMPDEST SWAP1 POP SWAP2 SWAP1 POP JUMP JUMPDEST PUSH32 0x536F72727921204E6F20656E6F756768207469636B65747320617661696C6162 PUSH1 0x0 DUP3 ADD MSTORE PUSH32 0x6C6520746F20626F6F6B00000000000000000000000000000000000000000000 PUSH1 0x20 DUP3 ADD MSTORE POP JUMP JUMPDEST PUSH1 0x0 PUSH2 0x1501 PUSH1 0x2A DUP4 PUSH2 0x13BC JUMP JUMPDEST SWAP2 POP PUSH2 0x150C DUP3 PUSH2 0x14A5 JUMP JUMPDEST PUSH1 0x40 DUP3 ADD SWAP1 POP SWAP2 SWAP1 POP JUMP JUMPDEST PUSH1 0x0 PUSH1 0x20 DUP3 ADD SWAP1 POP DUP2 DUP2 SUB PUSH1 0x0 DUP4 ADD MSTORE PUSH2 0x1530 DUP2 PUSH2 0x14F4 JUMP JUMPDEST SWAP1 POP SWAP2 SWAP1 POP JUMP JUMPDEST PUSH32 0x596F7520617265206E6F742074686520417574686F72697A6564205374616666 PUSH1 0x0 DUP3 ADD MSTORE POP JUMP JUMPDEST PUSH1 0x0 PUSH2 0x156D PUSH1 0x20 DUP4 PUSH2 0x13BC JUMP JUMPDEST SWAP2 POP PUSH2 0x1578 DUP3 PUSH2 0x1537 JUMP JUMPDEST PUSH1 0x20 DUP3 ADD SWAP1 POP SWAP2 SWAP1 POP JUMP JUMPDEST PUSH1 0x0 PUSH1 0x20 DUP3 ADD SWAP1 POP DUP2 DUP2 SUB PUSH1 0x0 DUP4 ADD MSTORE PUSH2 0x159C DUP2 PUSH2 0x1560 JUMP JUMPDEST SWAP1 POP SWAP2 SWAP1 POP JUMP JUMPDEST PUSH32 0x4E487B7100000000000000000000000000000000000000000000000000000000 PUSH1 0x0 MSTORE PUSH1 0x11 PUSH1 0x4 MSTORE PUSH1 0x24 PUSH1 0x0 REVERT JUMPDEST PUSH1 0x0 PUSH2 0x15DD DUP3 PUSH2 0x1057 JUMP JUMPDEST SWAP2 POP PUSH2 0x15E8 DUP4 PUSH2 0x1057 JUMP JUMPDEST SWAP3 POP DUP3 DUP3 ADD SWAP1 POP DUP1 DUP3 GT ISZERO PUSH2 0x1600 JUMPI PUSH2 0x15FF PUSH2 0x15A3 JUMP JUMPDEST JUMPDEST SWAP3 SWAP2 POP POP JUMP JUMPDEST PUSH32 0x5061796D656E74206E6F7420436F6D706C657465640000000000000000000000 PUSH1 0x0 DUP3 ADD MSTORE POP JUMP JUMPDEST PUSH1 0x0 PUSH2 0x163C PUSH1 0x15 DUP4 PUSH2 0x13BC JUMP JUMPDEST SWAP2 POP PUSH2 0x1647 DUP3 PUSH2 0x1606 JUMP JUMPDEST PUSH1 0x20 DUP3 ADD SWAP1 POP SWAP2 SWAP1 POP JUMP JUMPDEST PUSH1 0x0 PUSH1 0x20 DUP3 ADD SWAP1 POP DUP2 DUP2 SUB PUSH1 0x0 DUP4 ADD MSTORE PUSH2 0x166B DUP2 PUSH2 0x162F JUMP JUMPDEST SWAP1 POP SWAP2 SWAP1 POP JUMP JUMPDEST PUSH32 0x426F6F6B206F6E6C79206F6E65205469636B6574000000000000000000000000 PUSH1 0x0 DUP3 ADD MSTORE POP JUMP JUMPDEST PUSH1 0x0 PUSH2 0x16A8 PUSH1 0x14 DUP4 PUSH2 0x13BC JUMP JUMPDEST SWAP2 POP PUSH2 0x16B3 DUP3 PUSH2 0x1672 JUMP JUMPDEST PUSH1 0x20 DUP3 ADD SWAP1 POP SWAP2 SWAP1 POP JUMP JUMPDEST PUSH1 0x0 PUSH1 0x20 DUP3 ADD SWAP1 POP DUP2 DUP2 SUB PUSH1 0x0 DUP4 ADD MSTORE PUSH2 0x16D7 DUP2 PUSH2 0x169B JUMP JUMPDEST SWAP1 POP SWAP2 SWAP1 POP JUMP JUMPDEST PUSH1 0x0 PUSH2 0x16E9 DUP3 PUSH2 0x1057 JUMP JUMPDEST SWAP2 POP PUSH2 0x16F4 DUP4 PUSH2 0x1057 JUMP JUMPDEST SWAP3 POP DUP3 DUP3 MUL PUSH2 0x1702 DUP2 PUSH2 0x1057 JUMP JUMPDEST SWAP2 POP DUP3 DUP3 DIV DUP5 EQ DUP4 ISZERO OR PUSH2 0x1719 JUMPI PUSH2 0x1718 PUSH2 0x15A3 JUMP JUMPDEST JUMPDEST POP SWAP3 SWAP2 POP POP JUMP JUMPDEST PUSH32 0x4E6F7420656E6F7567682062616C616E63650000000000000000000000000000 PUSH1 0x0 DUP3 ADD MSTORE POP JUMP JUMPDEST PUSH1 0x0 PUSH2 0x1756 PUSH1 0x12 DUP4 PUSH2 0x13BC JUMP JUMPDEST SWAP2 POP PUSH2 0x1761 DUP3 PUSH2 0x1720 JUMP JUMPDEST PUSH1 0x20 DUP3 ADD SWAP1 POP SWAP2 SWAP1 POP JUMP JUMPDEST PUSH1 0x0 PUSH1 0x20 DUP3 ADD SWAP1 POP DUP2 DUP2 SUB PUSH1 0x0 DUP4 ADD MSTORE PUSH2 0x1785 DUP2 PUSH2 0x1749 JUMP JUMPDEST SWAP1 POP SWAP2 SWAP1 POP JUMP JUMPDEST PUSH1 0x0 PUSH2 0x1797 DUP3 PUSH2 0x1057 JUMP JUMPDEST SWAP2 POP PUSH2 0x17A2 DUP4 PUSH2 0x1057 JUMP JUMPDEST SWAP3 POP DUP3 DUP3 SUB SWAP1 POP DUP2 DUP2 GT ISZERO PUSH2 0x17BA JUMPI PUSH2 0x17B9 PUSH2 0x15A3 JUMP JUMPDEST JUMPDEST SWAP3 SWAP2 POP POP JUMP JUMPDEST PUSH32 0x426F6F6B696E6720616C726561647920636F6D706C6574656400000000000000 PUSH1 0x0 DUP3 ADD MSTORE POP JUMP JUMPDEST PUSH1 0x0 PUSH2 0x17F6 PUSH1 0x19 DUP4 PUSH2 0x13BC JUMP JUMPDEST SWAP2 POP PUSH2 0x1801 DUP3 PUSH2 0x17C0 JUMP JUMPDEST PUSH1 0x20 DUP3 ADD SWAP1 POP SWAP2 SWAP1 POP JUMP JUMPDEST PUSH1 0x0 PUSH1 0x20 DUP3 ADD SWAP1 POP DUP2 DUP2 SUB PUSH1 0x0 DUP4 ADD MSTORE PUSH2 0x1825 DUP2 PUSH2 0x17E9 JUMP JUMPDEST SWAP1 POP SWAP2 SWAP1 POP JUMP JUMPDEST PUSH32 0x596F7520617265206E6F7420746865204F776E65720000000000000000000000 PUSH1 0x0 DUP3 ADD MSTORE POP JUMP JUMPDEST PUSH1 0x0 PUSH2 0x1862 PUSH1 0x15 DUP4 PUSH2 0x13BC JUMP JUMPDEST SWAP2 POP PUSH2 0x186D DUP3 PUSH2 0x182C JUMP JUMPDEST PUSH1 0x20 DUP3 ADD SWAP1 POP SWAP2 SWAP1 POP JUMP JUMPDEST PUSH1 0x0 PUSH1 0x20 DUP3 ADD SWAP1 POP DUP2 DUP2 SUB PUSH1 0x0 DUP4 ADD MSTORE PUSH2 0x1891 DUP2 PUSH2 0x1855 JUMP JUMPDEST SWAP1 POP SWAP2 SWAP1 POP JUMP JUMPDEST PUSH32 0x5061796D656E74206E6F742079657420646F6E65000000000000000000000000 PUSH1 0x0 DUP3 ADD MSTORE POP JUMP JUMPDEST PUSH1 0x0 PUSH2 0x18CE PUSH1 0x14 DUP4 PUSH2 0x13BC JUMP JUMPDEST SWAP2 POP PUSH2 0x18D9 DUP3 PUSH2 0x1898 JUMP JUMPDEST PUSH1 0x20 DUP3 ADD SWAP1 POP SWAP2 SWAP1 POP JUMP JUMPDEST PUSH1 0x0 PUSH1 0x20 DUP3 ADD SWAP1 POP DUP2 DUP2 SUB PUSH1 0x0 DUP4 ADD MSTORE PUSH2 0x18FD DUP2 PUSH2 0x18C1 JUMP JUMPDEST SWAP1 POP SWAP2 SWAP1 POP JUMP JUMPDEST PUSH32 0x53656174206E6F7420426F6F6B65640000000000000000000000000000000000 PUSH1 0x0 DUP3 ADD MSTORE POP JUMP JUMPDEST PUSH1 0x0 PUSH2 0x193A PUSH1 0xF DUP4 PUSH2 0x13BC JUMP JUMPDEST SWAP2 POP PUSH2 0x1945 DUP3 PUSH2 0x1904 JUMP JUMPDEST PUSH1 0x20 DUP3 ADD SWAP1 POP SWAP2 SWAP1 POP JUMP JUMPDEST PUSH1 0x0 PUSH1 0x20 DUP3 ADD SWAP1 POP DUP2 DUP2 SUB PUSH1 0x0 DUP4 ADD MSTORE PUSH2 0x1969 DUP2 PUSH2 0x192D JUMP JUMPDEST SWAP1 POP SWAP2 SWAP1 POP JUMP JUMPDEST PUSH32 0x43616E63656C206F6E65205469636B6574000000000000000000000000000000 PUSH1 0x0 DUP3 ADD MSTORE POP JUMP JUMPDEST PUSH1 0x0 PUSH2 0x19A6 PUSH1 0x11 DUP4 PUSH2 0x13BC JUMP JUMPDEST SWAP2 POP PUSH2 0x19B1 DUP3 PUSH2 0x1970 JUMP JUMPDEST PUSH1 0x20 DUP3 ADD SWAP1 POP SWAP2 SWAP1 POP JUMP JUMPDEST PUSH1 0x0 PUSH1 0x20 DUP3 ADD SWAP1 POP DUP2 DUP2 SUB PUSH1 0x0 DUP4 ADD MSTORE PUSH2 0x19D5 DUP2 PUSH2 0x1999 JUMP JUMPDEST SWAP1 POP SWAP2 SWAP1 POP JUMP JUMPDEST PUSH32 0x4E6F742074686520417574686F72697A65642053746166660000000000000000 PUSH1 0x0 DUP3 ADD MSTORE POP JUMP JUMPDEST PUSH1 0x0 PUSH2 0x1A12 PUSH1 0x18 DUP4 PUSH2 0x13BC JUMP JUMPDEST SWAP2 POP PUSH2 0x1A1D DUP3 PUSH2 0x19DC JUMP JUMPDEST PUSH1 0x20 DUP3 ADD SWAP1 POP SWAP2 SWAP1 POP JUMP JUMPDEST PUSH1 0x0 PUSH1 0x20 DUP3 ADD SWAP1 POP DUP2 DUP2 SUB PUSH1 0x0 DUP4 ADD MSTORE PUSH2 0x1A41 DUP2 PUSH2 0x1A05 JUMP JUMPDEST SWAP1 POP SWAP2 SWAP1 POP JUMP INVALID LOG2 PUSH5 0x6970667358 0x22 SLT KECCAK256 GASLIMIT 0x5E PUSH17 0x508AF726D4E33BCBC15C73EBCA7B61FE1A DELEGATECALL 0xB7 0x2C DUP9 0xDF 0xCB DUP7 DUP4 0xF6 0xBD PUSH4 0x6B64736F PUSH13 0x63430008120033000000000000 "
				},
				"gasEstimates": {
					"creation": {
						"codeDepositCost": "1356400",
						"executionCost": "25676",
						"totalCost": "1382076"
					},
					"external": {
						"addAuthorizedStaff(address)": "24856",
						"addBalances()": "infinite",
						"addFlight(uint256,uint256,uint256)": "infinite",
						"authorizedStaff(address)": "2868",
						"balances(address)": "2882",
						"booking(uint256)": "infinite",
						"cancelTicket(address,uint256,uint256,uint256)": "infinite",
						"checkFlightAvailable(uint256)": "7809",
						"checkFlightCancelled(uint256)": "24931",
						"confirmBooking(uint256)": "27067",
						"getRemainingTickets(uint256)": "infinite",
						"makePayment(address,uint256,uint256,uint256)": "infinite",
						"owner()": "2533",
						"requestBooking(uint256,uint256)": "infinite",
						"status()": "2606"
					}
				},
				"methodIdentifiers": {
					"addAuthorizedStaff(address)": "9c043f8c",
					"addBalances()": "4d40d54f",
					"addFlight(uint256,uint256,uint256)": "f4b770dd",
					"authorizedStaff(address)": "2feac173",
					"balances(address)": "27e235e3",
					"booking(uint256)": "358dc19c",
					"cancelTicket(address,uint256,uint256,uint256)": "decf5bd3",
					"checkFlightAvailable(uint256)": "543be60b",
					"checkFlightCancelled(uint256)": "477a5fb5",
					"confirmBooking(uint256)": "54056b69",
					"getRemainingTickets(uint256)": "80af305a",
					"makePayment(address,uint256,uint256,uint256)": "85ef45ec",
					"owner()": "8da5cb5b",
					"requestBooking(uint256,uint256)": "0f64252f",
					"status()": "200d2ed2"
				}
			},
			"storageLayout": {
				"storage": [
					{
						"astId": 3,
						"contract": "contracts/flightReservation.sol:FlightBooking",
						"label": "owner",
						"offset": 0,
						"slot": "0",
						"type": "t_address"
					},
					{
						"astId": 24,
						"contract": "contracts/flightReservation.sol:FlightBooking",
						"label": "booking",
						"offset": 0,
						"slot": "1",
						"type": "t_mapping(t_uint256,t_struct(Booking)16_storage)"
					},
					{
						"astId": 28,
						"contract": "contracts/flightReservation.sol:FlightBooking",
						"label": "authorizedStaff",
						"offset": 0,
						"slot": "2",
						"type": "t_mapping(t_address,t_bool)"
					},
					{
						"astId": 32,
						"contract": "contracts/flightReservation.sol:FlightBooking",
						"label": "balances",
						"offset": 0,
						"slot": "3",
						"type": "t_mapping(t_address,t_uint256)"
					},
					{
						"astId": 39,
						"contract": "contracts/flightReservation.sol:FlightBooking",
						"label": "payment",
						"offset": 0,
						"slot": "4",
						"type": "t_mapping(t_uint256,t_mapping(t_address,t_struct(Booking)16_storage))"
					},
					{
						"astId": 45,
						"contract": "contracts/flightReservation.sol:FlightBooking",
						"label": "seatAvailability",
						"offset": 0,
						"slot": "5",
						"type": "t_mapping(t_uint256,t_mapping(t_uint256,t_bool))"
					},
					{
						"astId": 52,
						"contract": "contracts/flightReservation.sol:FlightBooking",
						"label": "seat",
						"offset": 0,
						"slot": "6",
						"type": "t_mapping(t_uint256,t_mapping(t_uint256,t_struct(Pay)19_storage))"
					},
					{
						"astId": 58,
						"contract": "contracts/flightReservation.sol:FlightBooking",
						"label": "status",
						"offset": 0,
						"slot": "7",
						"type": "t_enum(seatStatus)55"
					}
				],
				"types": {
					"t_address": {
						"encoding": "inplace",
						"label": "address",
						"numberOfBytes": "20"
					},
					"t_bool": {
						"encoding": "inplace",
						"label": "bool",
						"numberOfBytes": "1"
					},
					"t_enum(seatStatus)55": {
						"encoding": "inplace",
						"label": "enum FlightBooking.seatStatus",
						"numberOfBytes": "1"
					},
					"t_mapping(t_address,t_bool)": {
						"encoding": "mapping",
						"key": "t_address",
						"label": "mapping(address => bool)",
						"numberOfBytes": "32",
						"value": "t_bool"
					},
					"t_mapping(t_address,t_struct(Booking)16_storage)": {
						"encoding": "mapping",
						"key": "t_address",
						"label": "mapping(address => struct FlightBooking.Booking)",
						"numberOfBytes": "32",
						"value": "t_struct(Booking)16_storage"
					},
					"t_mapping(t_address,t_uint256)": {
						"encoding": "mapping",
						"key": "t_address",
						"label": "mapping(address => uint256)",
						"numberOfBytes": "32",
						"value": "t_uint256"
					},
					"t_mapping(t_uint256,t_bool)": {
						"encoding": "mapping",
						"key": "t_uint256",
						"label": "mapping(uint256 => bool)",
						"numberOfBytes": "32",
						"value": "t_bool"
					},
					"t_mapping(t_uint256,t_mapping(t_address,t_struct(Booking)16_storage))": {
						"encoding": "mapping",
						"key": "t_uint256",
						"label": "mapping(uint256 => mapping(address => struct FlightBooking.Booking))",
						"numberOfBytes": "32",
						"value": "t_mapping(t_address,t_struct(Booking)16_storage)"
					},
					"t_mapping(t_uint256,t_mapping(t_uint256,t_bool))": {
						"encoding": "mapping",
						"key": "t_uint256",
						"label": "mapping(uint256 => mapping(uint256 => bool))",
						"numberOfBytes": "32",
						"value": "t_mapping(t_uint256,t_bool)"
					},
					"t_mapping(t_uint256,t_mapping(t_uint256,t_struct(Pay)19_storage))": {
						"encoding": "mapping",
						"key": "t_uint256",
						"label": "mapping(uint256 => mapping(uint256 => struct FlightBooking.Pay))",
						"numberOfBytes": "32",
						"value": "t_mapping(t_uint256,t_struct(Pay)19_storage)"
					},
					"t_mapping(t_uint256,t_struct(Booking)16_storage)": {
						"encoding": "mapping",
						"key": "t_uint256",
						"label": "mapping(uint256 => struct FlightBooking.Booking)",
						"numberOfBytes": "32",
						"value": "t_struct(Booking)16_storage"
					},
					"t_mapping(t_uint256,t_struct(Pay)19_storage)": {
						"encoding": "mapping",
						"key": "t_uint256",
						"label": "mapping(uint256 => struct FlightBooking.Pay)",
						"numberOfBytes": "32",
						"value": "t_struct(Pay)19_storage"
					},
					"t_struct(Booking)16_storage": {
						"encoding": "inplace",
						"label": "struct FlightBooking.Booking",
						"members": [
							{
								"astId": 5,
								"contract": "contracts/flightReservation.sol:FlightBooking",
								"label": "owner",
								"offset": 0,
								"slot": "0",
								"type": "t_address"
							},
							{
								"astId": 7,
								"contract": "contracts/flightReservation.sol:FlightBooking",
								"label": "ticketPrice",
								"offset": 0,
								"slot": "1",
								"type": "t_uint256"
							},
							{
								"astId": 9,
								"contract": "contracts/flightReservation.sol:FlightBooking",
								"label": "availableTickets",
								"offset": 0,
								"slot": "2",
								"type": "t_uint256"
							},
							{
								"astId": 11,
								"contract": "contracts/flightReservation.sol:FlightBooking",
								"label": "isPaid",
								"offset": 0,
								"slot": "3",
								"type": "t_bool"
							},
							{
								"astId": 13,
								"contract": "contracts/flightReservation.sol:FlightBooking",
								"label": "isConfirmed",
								"offset": 1,
								"slot": "3",
								"type": "t_bool"
							},
							{
								"astId": 15,
								"contract": "contracts/flightReservation.sol:FlightBooking",
								"label": "flightStatus",
								"offset": 0,
								"slot": "4",
								"type": "t_uint256"
							}
						],
						"numberOfBytes": "160"
					},
					"t_struct(Pay)19_storage": {
						"encoding": "inplace",
						"label": "struct FlightBooking.Pay",
						"members": [
							{
								"astId": 18,
								"contract": "contracts/flightReservation.sol:FlightBooking",
								"label": "pay",
								"offset": 0,
								"slot": "0",
								"type": "t_bool"
							}
						],
						"numberOfBytes": "32"
					},
					"t_uint256": {
						"encoding": "inplace",
						"label": "uint256",
						"numberOfBytes": "32"
					}
				}
			},
			"userdoc": {
				"kind": "user",
				"methods": {},
				"version": 1
			}
		}
	}
}