{
	"contracts/errrr.sol": {
		"Tokens": {
			"abi": [
				{
					"inputs": [],
					"stateMutability": "nonpayable",
					"type": "constructor"
				},
				{
					"anonymous": false,
					"inputs": [
						{
							"indexed": false,
							"internalType": "address",
							"name": "to",
							"type": "address"
						},
						{
							"indexed": false,
							"internalType": "uint256",
							"name": "tokens",
							"type": "uint256"
						}
					],
					"name": "Receive",
					"type": "event"
				},
				{
					"anonymous": false,
					"inputs": [
						{
							"indexed": false,
							"internalType": "address",
							"name": "_to",
							"type": "address"
						},
						{
							"indexed": false,
							"internalType": "uint256",
							"name": "numberofTokens",
							"type": "uint256"
						}
					],
					"name": "Transfer",
					"type": "event"
				},
				{
					"inputs": [
						{
							"internalType": "uint256",
							"name": "expirytime",
							"type": "uint256"
						},
						{
							"internalType": "uint256",
							"name": "nowdate",
							"type": "uint256"
						},
						{
							"internalType": "uint256",
							"name": "tokenId",
							"type": "uint256"
						},
						{
							"internalType": "string",
							"name": "_tokenSymbol",
							"type": "string"
						},
						{
							"internalType": "address",
							"name": "_to",
							"type": "address"
						},
						{
							"internalType": "uint256",
							"name": "totalTokens",
							"type": "uint256"
						}
					],
					"name": "Recieve",
					"outputs": [],
					"stateMutability": "nonpayable",
					"type": "function"
				},
				{
					"inputs": [
						{
							"internalType": "address",
							"name": "",
							"type": "address"
						}
					],
					"name": "balances",
					"outputs": [
						{
							"internalType": "uint256",
							"name": "",
							"type": "uint256"
						}
					],
					"stateMutability": "view",
					"type": "function"
				},
				{
					"inputs": [
						{
							"internalType": "uint256",
							"name": "_tokenid",
							"type": "uint256"
						},
						{
							"internalType": "string",
							"name": "_tokenSymbol",
							"type": "string"
						}
					],
					"name": "createNewToken",
					"outputs": [],
					"stateMutability": "nonpayable",
					"type": "function"
				},
				{
					"inputs": [
						{
							"internalType": "string",
							"name": "",
							"type": "string"
						}
					],
					"name": "createToken",
					"outputs": [
						{
							"internalType": "uint256",
							"name": "tokenid",
							"type": "uint256"
						},
						{
							"internalType": "bool",
							"name": "tokenStatus",
							"type": "bool"
						}
					],
					"stateMutability": "view",
					"type": "function"
				},
				{
					"inputs": [
						{
							"internalType": "address",
							"name": "_add",
							"type": "address"
						}
					],
					"name": "getBalance",
					"outputs": [
						{
							"internalType": "uint256",
							"name": "",
							"type": "uint256"
						}
					],
					"stateMutability": "view",
					"type": "function"
				},
				{
					"inputs": [],
					"name": "name",
					"outputs": [
						{
							"internalType": "string",
							"name": "",
							"type": "string"
						}
					],
					"stateMutability": "view",
					"type": "function"
				},
				{
					"inputs": [],
					"name": "owner",
					"outputs": [
						{
							"internalType": "address",
							"name": "",
							"type": "address"
						}
					],
					"stateMutability": "view",
					"type": "function"
				},
				{
					"inputs": [],
					"name": "symbol",
					"outputs": [
						{
							"internalType": "string",
							"name": "",
							"type": "string"
						}
					],
					"stateMutability": "view",
					"type": "function"
				},
				{
					"inputs": [
						{
							"internalType": "uint256",
							"name": "tokenId",
							"type": "uint256"
						},
						{
							"internalType": "uint256",
							"name": "nowdate",
							"type": "uint256"
						},
						{
							"internalType": "uint256",
							"name": "expirytime",
							"type": "uint256"
						},
						{
							"internalType": "string",
							"name": "_tokenSymbol",
							"type": "string"
						},
						{
							"internalType": "address",
							"name": "_from",
							"type": "address"
						},
						{
							"internalType": "address",
							"name": "_to",
							"type": "address"
						},
						{
							"internalType": "uint256",
							"name": "numberofTokens",
							"type": "uint256"
						}
					],
					"name": "transfer",
					"outputs": [],
					"stateMutability": "nonpayable",
					"type": "function"
				}
			],
			"devdoc": {
				"kind": "dev",
				"methods": {},
				"version": 1
			},
			"evm": {
				"assembly": "    /* \"contracts/errrr.sol\":57:2311  contract Tokens{... */\n  mstore(0x40, 0x80)\n    /* \"contracts/errrr.sol\":297:350  constructor() {... */\n  callvalue\n  dup1\n  iszero\n  tag_1\n  jumpi\n  0x00\n  dup1\n  revert\ntag_1:\n  pop\n    /* \"contracts/errrr.sol\":330:340  msg.sender */\n  caller\n    /* \"contracts/errrr.sol\":322:327  owner */\n  0x01\n  0x00\n    /* \"contracts/errrr.sol\":322:340  owner = msg.sender */\n  0x0100\n  exp\n  dup2\n  sload\n  dup2\n  0xffffffffffffffffffffffffffffffffffffffff\n  mul\n  not\n  and\n  swap1\n  dup4\n  0xffffffffffffffffffffffffffffffffffffffff\n  and\n  mul\n  or\n  swap1\n  sstore\n  pop\n    /* \"contracts/errrr.sol\":57:2311  contract Tokens{... */\n  dataSize(sub_0)\n  dup1\n  dataOffset(sub_0)\n  0x00\n  codecopy\n  0x00\n  return\nstop\n\nsub_0: assembly {\n        /* \"contracts/errrr.sol\":57:2311  contract Tokens{... */\n      mstore(0x40, 0x80)\n      callvalue\n      dup1\n      iszero\n      tag_1\n      jumpi\n      0x00\n      dup1\n      revert\n    tag_1:\n      pop\n      jumpi(tag_2, lt(calldatasize, 0x04))\n      shr(0xe0, calldataload(0x00))\n      dup1\n      0x71723108\n      gt\n      tag_12\n      jumpi\n      dup1\n      0x71723108\n      eq\n      tag_7\n      jumpi\n      dup1\n      0x8da5cb5b\n      eq\n      tag_8\n      jumpi\n      dup1\n      0x95d89b41\n      eq\n      tag_9\n      jumpi\n      dup1\n      0xe75979d4\n      eq\n      tag_10\n      jumpi\n      dup1\n      0xf8b2cb4f\n      eq\n      tag_11\n      jumpi\n      jump(tag_2)\n    tag_12:\n      dup1\n      0x06fdde03\n      eq\n      tag_3\n      jumpi\n      dup1\n      0x27e235e3\n      eq\n      tag_4\n      jumpi\n      dup1\n      0x3100efb5\n      eq\n      tag_5\n      jumpi\n      dup1\n      0x45576f94\n      eq\n      tag_6\n      jumpi\n    tag_2:\n      0x00\n      dup1\n      revert\n        /* \"contracts/errrr.sol\":79:116  string public constant name = \"ERC20\" */\n    tag_3:\n      tag_13\n      tag_14\n      jump\t// in\n    tag_13:\n      mload(0x40)\n      tag_15\n      swap2\n      swap1\n      tag_16\n      jump\t// in\n    tag_15:\n      mload(0x40)\n      dup1\n      swap2\n      sub\n      swap1\n      return\n        /* \"contracts/errrr.sol\":439:479  mapping(address => uint) public balances */\n    tag_4:\n      tag_17\n      0x04\n      dup1\n      calldatasize\n      sub\n      dup2\n      add\n      swap1\n      tag_18\n      swap2\n      swap1\n      tag_19\n      jump\t// in\n    tag_18:\n      tag_20\n      jump\t// in\n    tag_17:\n      mload(0x40)\n      tag_21\n      swap2\n      swap1\n      tag_22\n      jump\t// in\n    tag_21:\n      mload(0x40)\n      dup1\n      swap2\n      sub\n      swap1\n      return\n        /* \"contracts/errrr.sol\":717:905  function createNewToken(uint _tokenid,string memory _tokenSymbol) public {... */\n    tag_5:\n      tag_23\n      0x04\n      dup1\n      calldatasize\n      sub\n      dup2\n      add\n      swap1\n      tag_24\n      swap2\n      swap1\n      tag_25\n      jump\t// in\n    tag_24:\n      tag_26\n      jump\t// in\n    tag_23:\n      stop\n        /* \"contracts/errrr.sol\":557:607  mapping(string => StructTokens) public createToken */\n    tag_6:\n      tag_27\n      0x04\n      dup1\n      calldatasize\n      sub\n      dup2\n      add\n      swap1\n      tag_28\n      swap2\n      swap1\n      tag_29\n      jump\t// in\n    tag_28:\n      tag_30\n      jump\t// in\n    tag_27:\n      mload(0x40)\n      tag_31\n      swap3\n      swap2\n      swap1\n      tag_32\n      jump\t// in\n    tag_31:\n      mload(0x40)\n      dup1\n      swap2\n      sub\n      swap1\n      return\n        /* \"contracts/errrr.sol\":966:1768  function transfer(uint tokenId,uint nowdate,uint expirytime,string memory _tokenSymbol,address _from,address _to,uint numberofTokens) public{... */\n    tag_7:\n      tag_33\n      0x04\n      dup1\n      calldatasize\n      sub\n      dup2\n      add\n      swap1\n      tag_34\n      swap2\n      swap1\n      tag_35\n      jump\t// in\n    tag_34:\n      tag_36\n      jump\t// in\n    tag_33:\n      stop\n        /* \"contracts/errrr.sol\":185:205  address public owner */\n    tag_8:\n      tag_37\n      tag_38\n      jump\t// in\n    tag_37:\n      mload(0x40)\n      tag_39\n      swap2\n      swap1\n      tag_40\n      jump\t// in\n    tag_39:\n      mload(0x40)\n      dup1\n      swap2\n      sub\n      swap1\n      return\n        /* \"contracts/errrr.sol\":123:160  string public constant symbol = \"ERC\" */\n    tag_9:\n      tag_41\n      tag_42\n      jump\t// in\n    tag_41:\n      mload(0x40)\n      tag_43\n      swap2\n      swap1\n      tag_16\n      jump\t// in\n    tag_43:\n      mload(0x40)\n      dup1\n      swap2\n      sub\n      swap1\n      return\n        /* \"contracts/errrr.sol\":1821:2304  function Recieve(uint expirytime,uint nowdate,uint tokenId,string memory _tokenSymbol,address _to,uint totalTokens) public {... */\n    tag_10:\n      tag_44\n      0x04\n      dup1\n      calldatasize\n      sub\n      dup2\n      add\n      swap1\n      tag_45\n      swap2\n      swap1\n      tag_46\n      jump\t// in\n    tag_45:\n      tag_47\n      jump\t// in\n    tag_44:\n      stop\n        /* \"contracts/errrr.sol\":615:710  function getBalance(address _add) public view returns(uint){... */\n    tag_11:\n      tag_48\n      0x04\n      dup1\n      calldatasize\n      sub\n      dup2\n      add\n      swap1\n      tag_49\n      swap2\n      swap1\n      tag_19\n      jump\t// in\n    tag_49:\n      tag_50\n      jump\t// in\n    tag_48:\n      mload(0x40)\n      tag_51\n      swap2\n      swap1\n      tag_22\n      jump\t// in\n    tag_51:\n      mload(0x40)\n      dup1\n      swap2\n      sub\n      swap1\n      return\n        /* \"contracts/errrr.sol\":79:116  string public constant name = \"ERC20\" */\n    tag_14:\n      mload(0x40)\n      dup1\n      0x40\n      add\n      0x40\n      mstore\n      dup1\n      0x05\n      dup2\n      mstore\n      0x20\n      add\n      0x4552433230000000000000000000000000000000000000000000000000000000\n      dup2\n      mstore\n      pop\n      dup2\n      jump\t// out\n        /* \"contracts/errrr.sol\":439:479  mapping(address => uint) public balances */\n    tag_20:\n      mstore(0x20, 0x02)\n      dup1\n      0x00\n      mstore\n      keccak256(0x00, 0x40)\n      0x00\n      swap2\n      pop\n      swap1\n      pop\n      sload\n      dup2\n      jump\t// out\n        /* \"contracts/errrr.sol\":717:905  function createNewToken(uint _tokenid,string memory _tokenSymbol) public {... */\n    tag_26:\n        /* \"contracts/errrr.sol\":836:844  _tokenid */\n      dup2\n        /* \"contracts/errrr.sol\":800:811  createToken */\n      0x04\n        /* \"contracts/errrr.sol\":812:824  _tokenSymbol */\n      dup3\n        /* \"contracts/errrr.sol\":800:825  createToken[_tokenSymbol] */\n      mload(0x40)\n      tag_53\n      swap2\n      swap1\n      tag_54\n      jump\t// in\n    tag_53:\n      swap1\n      dup2\n      mstore\n      0x20\n      add\n      mload(0x40)\n      dup1\n      swap2\n      sub\n      swap1\n      keccak256\n        /* \"contracts/errrr.sol\":800:833  createToken[_tokenSymbol].tokenid */\n      0x00\n      add\n        /* \"contracts/errrr.sol\":800:844  createToken[_tokenSymbol].tokenid = _tokenid */\n      dup2\n      swap1\n      sstore\n      pop\n        /* \"contracts/errrr.sol\":894:898  true */\n      0x01\n        /* \"contracts/errrr.sol\":854:865  createToken */\n      0x04\n        /* \"contracts/errrr.sol\":866:878  _tokenSymbol */\n      dup3\n        /* \"contracts/errrr.sol\":854:879  createToken[_tokenSymbol] */\n      mload(0x40)\n      tag_55\n      swap2\n      swap1\n      tag_54\n      jump\t// in\n    tag_55:\n      swap1\n      dup2\n      mstore\n      0x20\n      add\n      mload(0x40)\n      dup1\n      swap2\n      sub\n      swap1\n      keccak256\n        /* \"contracts/errrr.sol\":854:891  createToken[_tokenSymbol].tokenStatus */\n      0x01\n      add\n      0x00\n        /* \"contracts/errrr.sol\":854:898  createToken[_tokenSymbol].tokenStatus = true */\n      0x0100\n      exp\n      dup2\n      sload\n      dup2\n      0xff\n      mul\n      not\n      and\n      swap1\n      dup4\n      iszero\n      iszero\n      mul\n      or\n      swap1\n      sstore\n      pop\n        /* \"contracts/errrr.sol\":717:905  function createNewToken(uint _tokenid,string memory _tokenSymbol) public {... */\n      pop\n      pop\n      jump\t// out\n        /* \"contracts/errrr.sol\":557:607  mapping(string => StructTokens) public createToken */\n    tag_30:\n      0x04\n      dup2\n      dup1\n      mload\n      0x20\n      dup2\n      add\n      dup3\n      add\n      dup1\n      mload\n      dup5\n      dup3\n      mstore\n      0x20\n      dup4\n      add\n      0x20\n      dup6\n      add\n      keccak256\n      dup2\n      dup4\n      mstore\n      dup1\n      swap6\n      pop\n      pop\n      pop\n      pop\n      pop\n      pop\n      0x00\n      swap2\n      pop\n      swap1\n      pop\n      dup1\n      0x00\n      add\n      sload\n      swap1\n      dup1\n      0x01\n      add\n      0x00\n      swap1\n      sload\n      swap1\n      0x0100\n      exp\n      swap1\n      div\n      0xff\n      and\n      swap1\n      pop\n      dup3\n      jump\t// out\n        /* \"contracts/errrr.sol\":966:1768  function transfer(uint tokenId,uint nowdate,uint expirytime,string memory _tokenSymbol,address _from,address _to,uint numberofTokens) public{... */\n    tag_36:\n        /* \"contracts/errrr.sol\":1138:1139  0 */\n      0x00\n        /* \"contracts/errrr.sol\":1122:1140  _from !=address(0) */\n      0xffffffffffffffffffffffffffffffffffffffff\n      and\n        /* \"contracts/errrr.sol\":1122:1127  _from */\n      dup4\n        /* \"contracts/errrr.sol\":1122:1140  _from !=address(0) */\n      0xffffffffffffffffffffffffffffffffffffffff\n      and\n      sub\n        /* \"contracts/errrr.sol\":1114:1159  require(_from !=address(0),\"Invalid address\") */\n      tag_57\n      jumpi\n      mload(0x40)\n      0x08c379a000000000000000000000000000000000000000000000000000000000\n      dup2\n      mstore\n      0x04\n      add\n      tag_58\n      swap1\n      tag_59\n      jump\t// in\n    tag_58:\n      mload(0x40)\n      dup1\n      swap2\n      sub\n      swap1\n      revert\n    tag_57:\n        /* \"contracts/errrr.sol\":1190:1191  0 */\n      0x00\n        /* \"contracts/errrr.sol\":1176:1192  _to !=address(0) */\n      0xffffffffffffffffffffffffffffffffffffffff\n      and\n        /* \"contracts/errrr.sol\":1176:1179  _to */\n      dup3\n        /* \"contracts/errrr.sol\":1176:1192  _to !=address(0) */\n      0xffffffffffffffffffffffffffffffffffffffff\n      and\n      sub\n        /* \"contracts/errrr.sol\":1168:1211  require(_to !=address(0),\"Invalid address\") */\n      tag_60\n      jumpi\n      mload(0x40)\n      0x08c379a000000000000000000000000000000000000000000000000000000000\n      dup2\n      mstore\n      0x04\n      add\n      tag_61\n      swap1\n      tag_59\n      jump\t// in\n    tag_61:\n      mload(0x40)\n      dup1\n      swap2\n      sub\n      swap1\n      revert\n    tag_60:\n        /* \"contracts/errrr.sol\":1269:1273  true */\n      0x01\n        /* \"contracts/errrr.sol\":1228:1273  createToken[_tokenSymbol].tokenStatus == true */\n      iszero\n      iszero\n        /* \"contracts/errrr.sol\":1228:1239  createToken */\n      0x04\n        /* \"contracts/errrr.sol\":1240:1252  _tokenSymbol */\n      dup6\n        /* \"contracts/errrr.sol\":1228:1253  createToken[_tokenSymbol] */\n      mload(0x40)\n      tag_62\n      swap2\n      swap1\n      tag_54\n      jump\t// in\n    tag_62:\n      swap1\n      dup2\n      mstore\n      0x20\n      add\n      mload(0x40)\n      dup1\n      swap2\n      sub\n      swap1\n      keccak256\n        /* \"contracts/errrr.sol\":1228:1265  createToken[_tokenSymbol].tokenStatus */\n      0x01\n      add\n      0x00\n      swap1\n      sload\n      swap1\n      0x0100\n      exp\n      swap1\n      div\n      0xff\n      and\n        /* \"contracts/errrr.sol\":1228:1273  createToken[_tokenSymbol].tokenStatus == true */\n      iszero\n      iszero\n      eq\n        /* \"contracts/errrr.sol\":1220:1298  require(createToken[_tokenSymbol].tokenStatus == true,\"Token has not created\") */\n      tag_63\n      jumpi\n      mload(0x40)\n      0x08c379a000000000000000000000000000000000000000000000000000000000\n      dup2\n      mstore\n      0x04\n      add\n      tag_64\n      swap1\n      tag_65\n      jump\t// in\n    tag_64:\n      mload(0x40)\n      dup1\n      swap2\n      sub\n      swap1\n      revert\n    tag_63:\n        /* \"contracts/errrr.sol\":1330:1340  expirytime */\n      dup5\n        /* \"contracts/errrr.sol\":1307:1318  tokenexpiry */\n      0x03\n        /* \"contracts/errrr.sol\":1307:1327  tokenexpiry[tokenId] */\n      0x00\n        /* \"contracts/errrr.sol\":1319:1326  tokenId */\n      dup10\n        /* \"contracts/errrr.sol\":1307:1327  tokenexpiry[tokenId] */\n      dup2\n      mstore\n      0x20\n      add\n      swap1\n      dup2\n      mstore\n      0x20\n      add\n      0x00\n      keccak256\n        /* \"contracts/errrr.sol\":1307:1340  tokenexpiry[tokenId] = expirytime */\n      dup2\n      swap1\n      sstore\n      pop\n        /* \"contracts/errrr.sol\":1409:1417  balances */\n      0x02\n        /* \"contracts/errrr.sol\":1409:1424  balances[_from] */\n      0x00\n        /* \"contracts/errrr.sol\":1418:1423  _from */\n      dup5\n        /* \"contracts/errrr.sol\":1409:1424  balances[_from] */\n      0xffffffffffffffffffffffffffffffffffffffff\n      and\n      0xffffffffffffffffffffffffffffffffffffffff\n      and\n      dup2\n      mstore\n      0x20\n      add\n      swap1\n      dup2\n      mstore\n      0x20\n      add\n      0x00\n      keccak256\n      sload\n        /* \"contracts/errrr.sol\":1391:1405  numberofTokens */\n      dup2\n        /* \"contracts/errrr.sol\":1391:1424  numberofTokens <= balances[_from] */\n      gt\n      iszero\n        /* \"contracts/errrr.sol\":1383:1464  require(numberofTokens <= balances[_from],\"No sufficient balance in the account\") */\n      tag_66\n      jumpi\n      mload(0x40)\n      0x08c379a000000000000000000000000000000000000000000000000000000000\n      dup2\n      mstore\n      0x04\n      add\n      tag_67\n      swap1\n      tag_68\n      jump\t// in\n    tag_67:\n      mload(0x40)\n      dup1\n      swap2\n      sub\n      swap1\n      revert\n    tag_66:\n        /* \"contracts/errrr.sol\":1487:1497  expirytime */\n      dup5\n        /* \"contracts/errrr.sol\":1477:1484  nowdate */\n      dup7\n        /* \"contracts/errrr.sol\":1477:1497  nowdate < expirytime */\n      lt\n        /* \"contracts/errrr.sol\":1473:1667  if( nowdate < expirytime )... */\n      iszero\n      tag_69\n      jumpi\n        /* \"contracts/errrr.sol\":1535:1549  numberofTokens */\n      dup1\n        /* \"contracts/errrr.sol\":1516:1524  balances */\n      0x02\n        /* \"contracts/errrr.sol\":1516:1531  balances[_from] */\n      0x00\n        /* \"contracts/errrr.sol\":1525:1530  _from */\n      dup6\n        /* \"contracts/errrr.sol\":1516:1531  balances[_from] */\n      0xffffffffffffffffffffffffffffffffffffffff\n      and\n      0xffffffffffffffffffffffffffffffffffffffff\n      and\n      dup2\n      mstore\n      0x20\n      add\n      swap1\n      dup2\n      mstore\n      0x20\n      add\n      0x00\n      keccak256\n      0x00\n        /* \"contracts/errrr.sol\":1516:1549  balances[_from] -= numberofTokens */\n      dup3\n      dup3\n      sload\n      tag_70\n      swap2\n      swap1\n      tag_71\n      jump\t// in\n    tag_70:\n      swap3\n      pop\n      pop\n      dup2\n      swap1\n      sstore\n      pop\n        /* \"contracts/errrr.sol\":1575:1589  numberofTokens */\n      dup1\n        /* \"contracts/errrr.sol\":1558:1566  balances */\n      0x02\n        /* \"contracts/errrr.sol\":1558:1571  balances[_to] */\n      0x00\n        /* \"contracts/errrr.sol\":1567:1570  _to */\n      dup5\n        /* \"contracts/errrr.sol\":1558:1571  balances[_to] */\n      0xffffffffffffffffffffffffffffffffffffffff\n      and\n      0xffffffffffffffffffffffffffffffffffffffff\n      and\n      dup2\n      mstore\n      0x20\n      add\n      swap1\n      dup2\n      mstore\n      0x20\n      add\n      0x00\n      keccak256\n      0x00\n        /* \"contracts/errrr.sol\":1558:1589  balances[_to] += numberofTokens */\n      dup3\n      dup3\n      sload\n      tag_72\n      swap2\n      swap1\n      tag_73\n      jump\t// in\n    tag_72:\n      swap3\n      pop\n      pop\n      dup2\n      swap1\n      sstore\n      pop\n        /* \"contracts/errrr.sol\":1473:1667  if( nowdate < expirytime )... */\n      jump(tag_74)\n    tag_69:\n        /* \"contracts/errrr.sol\":1643:1657  numberofTokens */\n      dup1\n        /* \"contracts/errrr.sol\":1625:1633  balances */\n      0x02\n        /* \"contracts/errrr.sol\":1625:1640  balances[_from] */\n      0x00\n        /* \"contracts/errrr.sol\":1634:1639  _from */\n      dup6\n        /* \"contracts/errrr.sol\":1625:1640  balances[_from] */\n      0xffffffffffffffffffffffffffffffffffffffff\n      and\n      0xffffffffffffffffffffffffffffffffffffffff\n      and\n      dup2\n      mstore\n      0x20\n      add\n      swap1\n      dup2\n      mstore\n      0x20\n      add\n      0x00\n      keccak256\n      0x00\n        /* \"contracts/errrr.sol\":1625:1657  balances[_from]-= numberofTokens */\n      dup3\n      dup3\n      sload\n      tag_75\n      swap2\n      swap1\n      tag_71\n      jump\t// in\n    tag_75:\n      swap3\n      pop\n      pop\n      dup2\n      swap1\n      sstore\n      pop\n        /* \"contracts/errrr.sol\":1473:1667  if( nowdate < expirytime )... */\n    tag_74:\n        /* \"contracts/errrr.sol\":1714:1719  false */\n      0x00\n        /* \"contracts/errrr.sol\":1674:1685  createToken */\n      0x04\n        /* \"contracts/errrr.sol\":1686:1698  _tokenSymbol */\n      dup6\n        /* \"contracts/errrr.sol\":1674:1699  createToken[_tokenSymbol] */\n      mload(0x40)\n      tag_76\n      swap2\n      swap1\n      tag_54\n      jump\t// in\n    tag_76:\n      swap1\n      dup2\n      mstore\n      0x20\n      add\n      mload(0x40)\n      dup1\n      swap2\n      sub\n      swap1\n      keccak256\n        /* \"contracts/errrr.sol\":1674:1711  createToken[_tokenSymbol].tokenStatus */\n      0x01\n      add\n      0x00\n        /* \"contracts/errrr.sol\":1674:1719  createToken[_tokenSymbol].tokenStatus = false */\n      0x0100\n      exp\n      dup2\n      sload\n      dup2\n      0xff\n      mul\n      not\n      and\n      swap1\n      dup4\n      iszero\n      iszero\n      mul\n      or\n      swap1\n      sstore\n      pop\n        /* \"contracts/errrr.sol\":1733:1761  Transfer(_to,numberofTokens) */\n      0x69ca02dd4edd7bf0a4abb9ed3b7af3f14778db5d61921c7dc7cd545266326de2\n        /* \"contracts/errrr.sol\":1742:1745  _to */\n      dup3\n        /* \"contracts/errrr.sol\":1746:1760  numberofTokens */\n      dup3\n        /* \"contracts/errrr.sol\":1733:1761  Transfer(_to,numberofTokens) */\n      mload(0x40)\n      tag_77\n      swap3\n      swap2\n      swap1\n      tag_78\n      jump\t// in\n    tag_77:\n      mload(0x40)\n      dup1\n      swap2\n      sub\n      swap1\n      log1\n        /* \"contracts/errrr.sol\":966:1768  function transfer(uint tokenId,uint nowdate,uint expirytime,string memory _tokenSymbol,address _from,address _to,uint numberofTokens) public{... */\n      pop\n      pop\n      pop\n      pop\n      pop\n      pop\n      pop\n      jump\t// out\n        /* \"contracts/errrr.sol\":185:205  address public owner */\n    tag_38:\n      0x01\n      0x00\n      swap1\n      sload\n      swap1\n      0x0100\n      exp\n      swap1\n      div\n      0xffffffffffffffffffffffffffffffffffffffff\n      and\n      dup2\n      jump\t// out\n        /* \"contracts/errrr.sol\":123:160  string public constant symbol = \"ERC\" */\n    tag_42:\n      mload(0x40)\n      dup1\n      0x40\n      add\n      0x40\n      mstore\n      dup1\n      0x03\n      dup2\n      mstore\n      0x20\n      add\n      0x4552430000000000000000000000000000000000000000000000000000000000\n      dup2\n      mstore\n      pop\n      dup2\n      jump\t// out\n        /* \"contracts/errrr.sol\":1821:2304  function Recieve(uint expirytime,uint nowdate,uint tokenId,string memory _tokenSymbol,address _to,uint totalTokens) public {... */\n    tag_47:\n        /* \"contracts/errrr.sol\":1975:1976  0 */\n      0x00\n        /* \"contracts/errrr.sol\":1961:1977  _to !=address(0) */\n      0xffffffffffffffffffffffffffffffffffffffff\n      and\n        /* \"contracts/errrr.sol\":1961:1964  _to */\n      dup3\n        /* \"contracts/errrr.sol\":1961:1977  _to !=address(0) */\n      0xffffffffffffffffffffffffffffffffffffffff\n      and\n      sub\n        /* \"contracts/errrr.sol\":1953:1996  require(_to !=address(0),\"Invalid address\") */\n      tag_80\n      jumpi\n      mload(0x40)\n      0x08c379a000000000000000000000000000000000000000000000000000000000\n      dup2\n      mstore\n      0x04\n      add\n      tag_81\n      swap1\n      tag_59\n      jump\t// in\n    tag_81:\n      mload(0x40)\n      dup1\n      swap2\n      sub\n      swap1\n      revert\n    tag_80:\n        /* \"contracts/errrr.sol\":2054:2058  true */\n      0x01\n        /* \"contracts/errrr.sol\":2013:2058  createToken[_tokenSymbol].tokenStatus == true */\n      iszero\n      iszero\n        /* \"contracts/errrr.sol\":2013:2024  createToken */\n      0x04\n        /* \"contracts/errrr.sol\":2025:2037  _tokenSymbol */\n      dup5\n        /* \"contracts/errrr.sol\":2013:2038  createToken[_tokenSymbol] */\n      mload(0x40)\n      tag_82\n      swap2\n      swap1\n      tag_54\n      jump\t// in\n    tag_82:\n      swap1\n      dup2\n      mstore\n      0x20\n      add\n      mload(0x40)\n      dup1\n      swap2\n      sub\n      swap1\n      keccak256\n        /* \"contracts/errrr.sol\":2013:2050  createToken[_tokenSymbol].tokenStatus */\n      0x01\n      add\n      0x00\n      swap1\n      sload\n      swap1\n      0x0100\n      exp\n      swap1\n      div\n      0xff\n      and\n        /* \"contracts/errrr.sol\":2013:2058  createToken[_tokenSymbol].tokenStatus == true */\n      iszero\n      iszero\n      eq\n        /* \"contracts/errrr.sol\":2005:2083  require(createToken[_tokenSymbol].tokenStatus == true,\"Token has not created\") */\n      tag_83\n      jumpi\n      mload(0x40)\n      0x08c379a000000000000000000000000000000000000000000000000000000000\n      dup2\n      mstore\n      0x04\n      add\n      tag_84\n      swap1\n      tag_65\n      jump\t// in\n    tag_84:\n      mload(0x40)\n      dup1\n      swap2\n      sub\n      swap1\n      revert\n    tag_83:\n        /* \"contracts/errrr.sol\":2115:2125  expirytime */\n      dup6\n        /* \"contracts/errrr.sol\":2092:2103  tokenexpiry */\n      0x03\n        /* \"contracts/errrr.sol\":2092:2112  tokenexpiry[tokenId] */\n      0x00\n        /* \"contracts/errrr.sol\":2104:2111  tokenId */\n      dup7\n        /* \"contracts/errrr.sol\":2092:2112  tokenexpiry[tokenId] */\n      dup2\n      mstore\n      0x20\n      add\n      swap1\n      dup2\n      mstore\n      0x20\n      add\n      0x00\n      keccak256\n        /* \"contracts/errrr.sol\":2092:2125  tokenexpiry[tokenId] = expirytime */\n      dup2\n      swap1\n      sstore\n      pop\n        /* \"contracts/errrr.sol\":2188:2198  expirytime */\n      dup6\n        /* \"contracts/errrr.sol\":2178:2185  nowdate */\n      dup6\n        /* \"contracts/errrr.sol\":2178:2198  nowdate < expirytime */\n      lt\n        /* \"contracts/errrr.sol\":2169:2226  require( nowdate < expirytime,\"Sorry! Token has expired\") */\n      tag_85\n      jumpi\n      mload(0x40)\n      0x08c379a000000000000000000000000000000000000000000000000000000000\n      dup2\n      mstore\n      0x04\n      add\n      tag_86\n      swap1\n      tag_87\n      jump\t// in\n    tag_86:\n      mload(0x40)\n      dup1\n      swap2\n      sub\n      swap1\n      revert\n    tag_85:\n        /* \"contracts/errrr.sol\":2252:2263  totalTokens */\n      dup1\n        /* \"contracts/errrr.sol\":2235:2243  balances */\n      0x02\n        /* \"contracts/errrr.sol\":2235:2248  balances[_to] */\n      0x00\n        /* \"contracts/errrr.sol\":2244:2247  _to */\n      dup5\n        /* \"contracts/errrr.sol\":2235:2248  balances[_to] */\n      0xffffffffffffffffffffffffffffffffffffffff\n      and\n      0xffffffffffffffffffffffffffffffffffffffff\n      and\n      dup2\n      mstore\n      0x20\n      add\n      swap1\n      dup2\n      mstore\n      0x20\n      add\n      0x00\n      keccak256\n      0x00\n        /* \"contracts/errrr.sol\":2235:2263  balances[_to] += totalTokens */\n      dup3\n      dup3\n      sload\n      tag_88\n      swap2\n      swap1\n      tag_73\n      jump\t// in\n    tag_88:\n      swap3\n      pop\n      pop\n      dup2\n      swap1\n      sstore\n      pop\n        /* \"contracts/errrr.sol\":2277:2297  Receive( _to,tokens) */\n      0xd6717f327e0cb88b4a97a7f67a453e9258252c34937ccbdd86de7cb840e7def3\n        /* \"contracts/errrr.sol\":2286:2289  _to */\n      dup3\n        /* \"contracts/errrr.sol\":2290:2296  tokens */\n      sload(0x00)\n        /* \"contracts/errrr.sol\":2277:2297  Receive( _to,tokens) */\n      mload(0x40)\n      tag_89\n      swap3\n      swap2\n      swap1\n      tag_78\n      jump\t// in\n    tag_89:\n      mload(0x40)\n      dup1\n      swap2\n      sub\n      swap1\n      log1\n        /* \"contracts/errrr.sol\":1821:2304  function Recieve(uint expirytime,uint nowdate,uint tokenId,string memory _tokenSymbol,address _to,uint totalTokens) public {... */\n      pop\n      pop\n      pop\n      pop\n      pop\n      pop\n      jump\t// out\n        /* \"contracts/errrr.sol\":615:710  function getBalance(address _add) public view returns(uint){... */\n    tag_50:\n        /* \"contracts/errrr.sol\":669:673  uint */\n      0x00\n        /* \"contracts/errrr.sol\":689:697  balances */\n      0x02\n        /* \"contracts/errrr.sol\":689:703  balances[_add] */\n      0x00\n        /* \"contracts/errrr.sol\":698:702  _add */\n      dup4\n        /* \"contracts/errrr.sol\":689:703  balances[_add] */\n      0xffffffffffffffffffffffffffffffffffffffff\n      and\n      0xffffffffffffffffffffffffffffffffffffffff\n      and\n      dup2\n      mstore\n      0x20\n      add\n      swap1\n      dup2\n      mstore\n      0x20\n      add\n      0x00\n      keccak256\n      sload\n        /* \"contracts/errrr.sol\":682:703  return balances[_add] */\n      swap1\n      pop\n        /* \"contracts/errrr.sol\":615:710  function getBalance(address _add) public view returns(uint){... */\n      swap2\n      swap1\n      pop\n      jump\t// out\n        /* \"#utility.yul\":7:106   */\n    tag_91:\n        /* \"#utility.yul\":59:65   */\n      0x00\n        /* \"#utility.yul\":93:98   */\n      dup2\n        /* \"#utility.yul\":87:99   */\n      mload\n        /* \"#utility.yul\":77:99   */\n      swap1\n      pop\n        /* \"#utility.yul\":7:106   */\n      swap2\n      swap1\n      pop\n      jump\t// out\n        /* \"#utility.yul\":112:281   */\n    tag_92:\n        /* \"#utility.yul\":196:207   */\n      0x00\n        /* \"#utility.yul\":230:236   */\n      dup3\n        /* \"#utility.yul\":225:228   */\n      dup3\n        /* \"#utility.yul\":218:237   */\n      mstore\n        /* \"#utility.yul\":270:274   */\n      0x20\n        /* \"#utility.yul\":265:268   */\n      dup3\n        /* \"#utility.yul\":261:275   */\n      add\n        /* \"#utility.yul\":246:275   */\n      swap1\n      pop\n        /* \"#utility.yul\":112:281   */\n      swap3\n      swap2\n      pop\n      pop\n      jump\t// out\n        /* \"#utility.yul\":287:533   */\n    tag_93:\n        /* \"#utility.yul\":368:369   */\n      0x00\n        /* \"#utility.yul\":378:491   */\n    tag_134:\n        /* \"#utility.yul\":392:398   */\n      dup4\n        /* \"#utility.yul\":389:390   */\n      dup2\n        /* \"#utility.yul\":386:399   */\n      lt\n        /* \"#utility.yul\":378:491   */\n      iszero\n      tag_136\n      jumpi\n        /* \"#utility.yul\":477:478   */\n      dup1\n        /* \"#utility.yul\":472:475   */\n      dup3\n        /* \"#utility.yul\":468:479   */\n      add\n        /* \"#utility.yul\":462:480   */\n      mload\n        /* \"#utility.yul\":458:459   */\n      dup2\n        /* \"#utility.yul\":453:456   */\n      dup5\n        /* \"#utility.yul\":449:460   */\n      add\n        /* \"#utility.yul\":442:481   */\n      mstore\n        /* \"#utility.yul\":414:416   */\n      0x20\n        /* \"#utility.yul\":411:412   */\n      dup2\n        /* \"#utility.yul\":407:417   */\n      add\n        /* \"#utility.yul\":402:417   */\n      swap1\n      pop\n        /* \"#utility.yul\":378:491   */\n      jump(tag_134)\n    tag_136:\n        /* \"#utility.yul\":525:526   */\n      0x00\n        /* \"#utility.yul\":516:522   */\n      dup5\n        /* \"#utility.yul\":511:514   */\n      dup5\n        /* \"#utility.yul\":507:523   */\n      add\n        /* \"#utility.yul\":500:527   */\n      mstore\n        /* \"#utility.yul\":349:533   */\n      pop\n        /* \"#utility.yul\":287:533   */\n      pop\n      pop\n      pop\n      jump\t// out\n        /* \"#utility.yul\":539:641   */\n    tag_94:\n        /* \"#utility.yul\":580:586   */\n      0x00\n        /* \"#utility.yul\":631:633   */\n      0x1f\n        /* \"#utility.yul\":627:634   */\n      not\n        /* \"#utility.yul\":622:624   */\n      0x1f\n        /* \"#utility.yul\":615:620   */\n      dup4\n        /* \"#utility.yul\":611:625   */\n      add\n        /* \"#utility.yul\":607:635   */\n      and\n        /* \"#utility.yul\":597:635   */\n      swap1\n      pop\n        /* \"#utility.yul\":539:641   */\n      swap2\n      swap1\n      pop\n      jump\t// out\n        /* \"#utility.yul\":647:1024   */\n    tag_95:\n        /* \"#utility.yul\":735:738   */\n      0x00\n        /* \"#utility.yul\":763:802   */\n      tag_139\n        /* \"#utility.yul\":796:801   */\n      dup3\n        /* \"#utility.yul\":763:802   */\n      tag_91\n      jump\t// in\n    tag_139:\n        /* \"#utility.yul\":818:889   */\n      tag_140\n        /* \"#utility.yul\":882:888   */\n      dup2\n        /* \"#utility.yul\":877:880   */\n      dup6\n        /* \"#utility.yul\":818:889   */\n      tag_92\n      jump\t// in\n    tag_140:\n        /* \"#utility.yul\":811:889   */\n      swap4\n      pop\n        /* \"#utility.yul\":898:963   */\n      tag_141\n        /* \"#utility.yul\":956:962   */\n      dup2\n        /* \"#utility.yul\":951:954   */\n      dup6\n        /* \"#utility.yul\":944:948   */\n      0x20\n        /* \"#utility.yul\":937:942   */\n      dup7\n        /* \"#utility.yul\":933:949   */\n      add\n        /* \"#utility.yul\":898:963   */\n      tag_93\n      jump\t// in\n    tag_141:\n        /* \"#utility.yul\":988:1017   */\n      tag_142\n        /* \"#utility.yul\":1010:1016   */\n      dup2\n        /* \"#utility.yul\":988:1017   */\n      tag_94\n      jump\t// in\n    tag_142:\n        /* \"#utility.yul\":983:986   */\n      dup5\n        /* \"#utility.yul\":979:1018   */\n      add\n        /* \"#utility.yul\":972:1018   */\n      swap2\n      pop\n        /* \"#utility.yul\":739:1024   */\n      pop\n        /* \"#utility.yul\":647:1024   */\n      swap3\n      swap2\n      pop\n      pop\n      jump\t// out\n        /* \"#utility.yul\":1030:1343   */\n    tag_16:\n        /* \"#utility.yul\":1143:1147   */\n      0x00\n        /* \"#utility.yul\":1181:1183   */\n      0x20\n        /* \"#utility.yul\":1170:1179   */\n      dup3\n        /* \"#utility.yul\":1166:1184   */\n      add\n        /* \"#utility.yul\":1158:1184   */\n      swap1\n      pop\n        /* \"#utility.yul\":1230:1239   */\n      dup2\n        /* \"#utility.yul\":1224:1228   */\n      dup2\n        /* \"#utility.yul\":1220:1240   */\n      sub\n        /* \"#utility.yul\":1216:1217   */\n      0x00\n        /* \"#utility.yul\":1205:1214   */\n      dup4\n        /* \"#utility.yul\":1201:1218   */\n      add\n        /* \"#utility.yul\":1194:1241   */\n      mstore\n        /* \"#utility.yul\":1258:1336   */\n      tag_144\n        /* \"#utility.yul\":1331:1335   */\n      dup2\n        /* \"#utility.yul\":1322:1328   */\n      dup5\n        /* \"#utility.yul\":1258:1336   */\n      tag_95\n      jump\t// in\n    tag_144:\n        /* \"#utility.yul\":1250:1336   */\n      swap1\n      pop\n        /* \"#utility.yul\":1030:1343   */\n      swap3\n      swap2\n      pop\n      pop\n      jump\t// out\n        /* \"#utility.yul\":1349:1424   */\n    tag_96:\n        /* \"#utility.yul\":1382:1388   */\n      0x00\n        /* \"#utility.yul\":1415:1417   */\n      0x40\n        /* \"#utility.yul\":1409:1418   */\n      mload\n        /* \"#utility.yul\":1399:1418   */\n      swap1\n      pop\n        /* \"#utility.yul\":1349:1424   */\n      swap1\n      jump\t// out\n        /* \"#utility.yul\":1430:1547   */\n    tag_97:\n        /* \"#utility.yul\":1539:1540   */\n      0x00\n        /* \"#utility.yul\":1536:1537   */\n      dup1\n        /* \"#utility.yul\":1529:1541   */\n      revert\n        /* \"#utility.yul\":1553:1670   */\n    tag_98:\n        /* \"#utility.yul\":1662:1663   */\n      0x00\n        /* \"#utility.yul\":1659:1660   */\n      dup1\n        /* \"#utility.yul\":1652:1664   */\n      revert\n        /* \"#utility.yul\":1676:1802   */\n    tag_99:\n        /* \"#utility.yul\":1713:1720   */\n      0x00\n        /* \"#utility.yul\":1753:1795   */\n      0xffffffffffffffffffffffffffffffffffffffff\n        /* \"#utility.yul\":1746:1751   */\n      dup3\n        /* \"#utility.yul\":1742:1796   */\n      and\n        /* \"#utility.yul\":1731:1796   */\n      swap1\n      pop\n        /* \"#utility.yul\":1676:1802   */\n      swap2\n      swap1\n      pop\n      jump\t// out\n        /* \"#utility.yul\":1808:1904   */\n    tag_100:\n        /* \"#utility.yul\":1845:1852   */\n      0x00\n        /* \"#utility.yul\":1874:1898   */\n      tag_150\n        /* \"#utility.yul\":1892:1897   */\n      dup3\n        /* \"#utility.yul\":1874:1898   */\n      tag_99\n      jump\t// in\n    tag_150:\n        /* \"#utility.yul\":1863:1898   */\n      swap1\n      pop\n        /* \"#utility.yul\":1808:1904   */\n      swap2\n      swap1\n      pop\n      jump\t// out\n        /* \"#utility.yul\":1910:2032   */\n    tag_101:\n        /* \"#utility.yul\":1983:2007   */\n      tag_152\n        /* \"#utility.yul\":2001:2006   */\n      dup2\n        /* \"#utility.yul\":1983:2007   */\n      tag_100\n      jump\t// in\n    tag_152:\n        /* \"#utility.yul\":1976:1981   */\n      dup2\n        /* \"#utility.yul\":1973:2008   */\n      eq\n        /* \"#utility.yul\":1963:2026   */\n      tag_153\n      jumpi\n        /* \"#utility.yul\":2022:2023   */\n      0x00\n        /* \"#utility.yul\":2019:2020   */\n      dup1\n        /* \"#utility.yul\":2012:2024   */\n      revert\n        /* \"#utility.yul\":1963:2026   */\n    tag_153:\n        /* \"#utility.yul\":1910:2032   */\n      pop\n      jump\t// out\n        /* \"#utility.yul\":2038:2177   */\n    tag_102:\n        /* \"#utility.yul\":2084:2089   */\n      0x00\n        /* \"#utility.yul\":2122:2128   */\n      dup2\n        /* \"#utility.yul\":2109:2129   */\n      calldataload\n        /* \"#utility.yul\":2100:2129   */\n      swap1\n      pop\n        /* \"#utility.yul\":2138:2171   */\n      tag_155\n        /* \"#utility.yul\":2165:2170   */\n      dup2\n        /* \"#utility.yul\":2138:2171   */\n      tag_101\n      jump\t// in\n    tag_155:\n        /* \"#utility.yul\":2038:2177   */\n      swap3\n      swap2\n      pop\n      pop\n      jump\t// out\n        /* \"#utility.yul\":2183:2512   */\n    tag_19:\n        /* \"#utility.yul\":2242:2248   */\n      0x00\n        /* \"#utility.yul\":2291:2293   */\n      0x20\n        /* \"#utility.yul\":2279:2288   */\n      dup3\n        /* \"#utility.yul\":2270:2277   */\n      dup5\n        /* \"#utility.yul\":2266:2289   */\n      sub\n        /* \"#utility.yul\":2262:2294   */\n      slt\n        /* \"#utility.yul\":2259:2378   */\n      iszero\n      tag_157\n      jumpi\n        /* \"#utility.yul\":2297:2376   */\n      tag_158\n      tag_97\n      jump\t// in\n    tag_158:\n        /* \"#utility.yul\":2259:2378   */\n    tag_157:\n        /* \"#utility.yul\":2417:2418   */\n      0x00\n        /* \"#utility.yul\":2442:2495   */\n      tag_159\n        /* \"#utility.yul\":2487:2494   */\n      dup5\n        /* \"#utility.yul\":2478:2484   */\n      dup3\n        /* \"#utility.yul\":2467:2476   */\n      dup6\n        /* \"#utility.yul\":2463:2485   */\n      add\n        /* \"#utility.yul\":2442:2495   */\n      tag_102\n      jump\t// in\n    tag_159:\n        /* \"#utility.yul\":2432:2495   */\n      swap2\n      pop\n        /* \"#utility.yul\":2388:2505   */\n      pop\n        /* \"#utility.yul\":2183:2512   */\n      swap3\n      swap2\n      pop\n      pop\n      jump\t// out\n        /* \"#utility.yul\":2518:2595   */\n    tag_103:\n        /* \"#utility.yul\":2555:2562   */\n      0x00\n        /* \"#utility.yul\":2584:2589   */\n      dup2\n        /* \"#utility.yul\":2573:2589   */\n      swap1\n      pop\n        /* \"#utility.yul\":2518:2595   */\n      swap2\n      swap1\n      pop\n      jump\t// out\n        /* \"#utility.yul\":2601:2719   */\n    tag_104:\n        /* \"#utility.yul\":2688:2712   */\n      tag_162\n        /* \"#utility.yul\":2706:2711   */\n      dup2\n        /* \"#utility.yul\":2688:2712   */\n      tag_103\n      jump\t// in\n    tag_162:\n        /* \"#utility.yul\":2683:2686   */\n      dup3\n        /* \"#utility.yul\":2676:2713   */\n      mstore\n        /* \"#utility.yul\":2601:2719   */\n      pop\n      pop\n      jump\t// out\n        /* \"#utility.yul\":2725:2947   */\n    tag_22:\n        /* \"#utility.yul\":2818:2822   */\n      0x00\n        /* \"#utility.yul\":2856:2858   */\n      0x20\n        /* \"#utility.yul\":2845:2854   */\n      dup3\n        /* \"#utility.yul\":2841:2859   */\n      add\n        /* \"#utility.yul\":2833:2859   */\n      swap1\n      pop\n        /* \"#utility.yul\":2869:2940   */\n      tag_164\n        /* \"#utility.yul\":2937:2938   */\n      0x00\n        /* \"#utility.yul\":2926:2935   */\n      dup4\n        /* \"#utility.yul\":2922:2939   */\n      add\n        /* \"#utility.yul\":2913:2919   */\n      dup5\n        /* \"#utility.yul\":2869:2940   */\n      tag_104\n      jump\t// in\n    tag_164:\n        /* \"#utility.yul\":2725:2947   */\n      swap3\n      swap2\n      pop\n      pop\n      jump\t// out\n        /* \"#utility.yul\":2953:3075   */\n    tag_105:\n        /* \"#utility.yul\":3026:3050   */\n      tag_166\n        /* \"#utility.yul\":3044:3049   */\n      dup2\n        /* \"#utility.yul\":3026:3050   */\n      tag_103\n      jump\t// in\n    tag_166:\n        /* \"#utility.yul\":3019:3024   */\n      dup2\n        /* \"#utility.yul\":3016:3051   */\n      eq\n        /* \"#utility.yul\":3006:3069   */\n      tag_167\n      jumpi\n        /* \"#utility.yul\":3065:3066   */\n      0x00\n        /* \"#utility.yul\":3062:3063   */\n      dup1\n        /* \"#utility.yul\":3055:3067   */\n      revert\n        /* \"#utility.yul\":3006:3069   */\n    tag_167:\n        /* \"#utility.yul\":2953:3075   */\n      pop\n      jump\t// out\n        /* \"#utility.yul\":3081:3220   */\n    tag_106:\n        /* \"#utility.yul\":3127:3132   */\n      0x00\n        /* \"#utility.yul\":3165:3171   */\n      dup2\n        /* \"#utility.yul\":3152:3172   */\n      calldataload\n        /* \"#utility.yul\":3143:3172   */\n      swap1\n      pop\n        /* \"#utility.yul\":3181:3214   */\n      tag_169\n        /* \"#utility.yul\":3208:3213   */\n      dup2\n        /* \"#utility.yul\":3181:3214   */\n      tag_105\n      jump\t// in\n    tag_169:\n        /* \"#utility.yul\":3081:3220   */\n      swap3\n      swap2\n      pop\n      pop\n      jump\t// out\n        /* \"#utility.yul\":3226:3343   */\n    tag_107:\n        /* \"#utility.yul\":3335:3336   */\n      0x00\n        /* \"#utility.yul\":3332:3333   */\n      dup1\n        /* \"#utility.yul\":3325:3337   */\n      revert\n        /* \"#utility.yul\":3349:3466   */\n    tag_108:\n        /* \"#utility.yul\":3458:3459   */\n      0x00\n        /* \"#utility.yul\":3455:3456   */\n      dup1\n        /* \"#utility.yul\":3448:3460   */\n      revert\n        /* \"#utility.yul\":3472:3652   */\n    tag_109:\n        /* \"#utility.yul\":3520:3597   */\n      0x4e487b7100000000000000000000000000000000000000000000000000000000\n        /* \"#utility.yul\":3517:3518   */\n      0x00\n        /* \"#utility.yul\":3510:3598   */\n      mstore\n        /* \"#utility.yul\":3617:3621   */\n      0x41\n        /* \"#utility.yul\":3614:3615   */\n      0x04\n        /* \"#utility.yul\":3607:3622   */\n      mstore\n        /* \"#utility.yul\":3641:3645   */\n      0x24\n        /* \"#utility.yul\":3638:3639   */\n      0x00\n        /* \"#utility.yul\":3631:3646   */\n      revert\n        /* \"#utility.yul\":3658:3939   */\n    tag_110:\n        /* \"#utility.yul\":3741:3768   */\n      tag_174\n        /* \"#utility.yul\":3763:3767   */\n      dup3\n        /* \"#utility.yul\":3741:3768   */\n      tag_94\n      jump\t// in\n    tag_174:\n        /* \"#utility.yul\":3733:3739   */\n      dup2\n        /* \"#utility.yul\":3729:3769   */\n      add\n        /* \"#utility.yul\":3871:3877   */\n      dup2\n        /* \"#utility.yul\":3859:3869   */\n      dup2\n        /* \"#utility.yul\":3856:3878   */\n      lt\n        /* \"#utility.yul\":3835:3853   */\n      0xffffffffffffffff\n        /* \"#utility.yul\":3823:3833   */\n      dup3\n        /* \"#utility.yul\":3820:3854   */\n      gt\n        /* \"#utility.yul\":3817:3879   */\n      or\n        /* \"#utility.yul\":3814:3902   */\n      iszero\n      tag_175\n      jumpi\n        /* \"#utility.yul\":3882:3900   */\n      tag_176\n      tag_109\n      jump\t// in\n    tag_176:\n        /* \"#utility.yul\":3814:3902   */\n    tag_175:\n        /* \"#utility.yul\":3922:3932   */\n      dup1\n        /* \"#utility.yul\":3918:3920   */\n      0x40\n        /* \"#utility.yul\":3911:3933   */\n      mstore\n        /* \"#utility.yul\":3701:3939   */\n      pop\n        /* \"#utility.yul\":3658:3939   */\n      pop\n      pop\n      jump\t// out\n        /* \"#utility.yul\":3945:4074   */\n    tag_111:\n        /* \"#utility.yul\":3979:3985   */\n      0x00\n        /* \"#utility.yul\":4006:4026   */\n      tag_178\n      tag_96\n      jump\t// in\n    tag_178:\n        /* \"#utility.yul\":3996:4026   */\n      swap1\n      pop\n        /* \"#utility.yul\":4035:4068   */\n      tag_179\n        /* \"#utility.yul\":4063:4067   */\n      dup3\n        /* \"#utility.yul\":4055:4061   */\n      dup3\n        /* \"#utility.yul\":4035:4068   */\n      tag_110\n      jump\t// in\n    tag_179:\n        /* \"#utility.yul\":3945:4074   */\n      swap2\n      swap1\n      pop\n      jump\t// out\n        /* \"#utility.yul\":4080:4388   */\n    tag_112:\n        /* \"#utility.yul\":4142:4146   */\n      0x00\n        /* \"#utility.yul\":4232:4250   */\n      0xffffffffffffffff\n        /* \"#utility.yul\":4224:4230   */\n      dup3\n        /* \"#utility.yul\":4221:4251   */\n      gt\n        /* \"#utility.yul\":4218:4274   */\n      iszero\n      tag_181\n      jumpi\n        /* \"#utility.yul\":4254:4272   */\n      tag_182\n      tag_109\n      jump\t// in\n    tag_182:\n        /* \"#utility.yul\":4218:4274   */\n    tag_181:\n        /* \"#utility.yul\":4292:4321   */\n      tag_183\n        /* \"#utility.yul\":4314:4320   */\n      dup3\n        /* \"#utility.yul\":4292:4321   */\n      tag_94\n      jump\t// in\n    tag_183:\n        /* \"#utility.yul\":4284:4321   */\n      swap1\n      pop\n        /* \"#utility.yul\":4376:4380   */\n      0x20\n        /* \"#utility.yul\":4370:4374   */\n      dup2\n        /* \"#utility.yul\":4366:4381   */\n      add\n        /* \"#utility.yul\":4358:4381   */\n      swap1\n      pop\n        /* \"#utility.yul\":4080:4388   */\n      swap2\n      swap1\n      pop\n      jump\t// out\n        /* \"#utility.yul\":4394:4540   */\n    tag_113:\n        /* \"#utility.yul\":4491:4497   */\n      dup3\n        /* \"#utility.yul\":4486:4489   */\n      dup2\n        /* \"#utility.yul\":4481:4484   */\n      dup4\n        /* \"#utility.yul\":4468:4498   */\n      calldatacopy\n        /* \"#utility.yul\":4532:4533   */\n      0x00\n        /* \"#utility.yul\":4523:4529   */\n      dup4\n        /* \"#utility.yul\":4518:4521   */\n      dup4\n        /* \"#utility.yul\":4514:4530   */\n      add\n        /* \"#utility.yul\":4507:4534   */\n      mstore\n        /* \"#utility.yul\":4394:4540   */\n      pop\n      pop\n      pop\n      jump\t// out\n        /* \"#utility.yul\":4546:4971   */\n    tag_114:\n        /* \"#utility.yul\":4624:4629   */\n      0x00\n        /* \"#utility.yul\":4649:4715   */\n      tag_186\n        /* \"#utility.yul\":4665:4714   */\n      tag_187\n        /* \"#utility.yul\":4707:4713   */\n      dup5\n        /* \"#utility.yul\":4665:4714   */\n      tag_112\n      jump\t// in\n    tag_187:\n        /* \"#utility.yul\":4649:4715   */\n      tag_111\n      jump\t// in\n    tag_186:\n        /* \"#utility.yul\":4640:4715   */\n      swap1\n      pop\n        /* \"#utility.yul\":4738:4744   */\n      dup3\n        /* \"#utility.yul\":4731:4736   */\n      dup2\n        /* \"#utility.yul\":4724:4745   */\n      mstore\n        /* \"#utility.yul\":4776:4780   */\n      0x20\n        /* \"#utility.yul\":4769:4774   */\n      dup2\n        /* \"#utility.yul\":4765:4781   */\n      add\n        /* \"#utility.yul\":4814:4817   */\n      dup5\n        /* \"#utility.yul\":4805:4811   */\n      dup5\n        /* \"#utility.yul\":4800:4803   */\n      dup5\n        /* \"#utility.yul\":4796:4812   */\n      add\n        /* \"#utility.yul\":4793:4818   */\n      gt\n        /* \"#utility.yul\":4790:4902   */\n      iszero\n      tag_188\n      jumpi\n        /* \"#utility.yul\":4821:4900   */\n      tag_189\n      tag_108\n      jump\t// in\n    tag_189:\n        /* \"#utility.yul\":4790:4902   */\n    tag_188:\n        /* \"#utility.yul\":4911:4965   */\n      tag_190\n        /* \"#utility.yul\":4958:4964   */\n      dup5\n        /* \"#utility.yul\":4953:4956   */\n      dup3\n        /* \"#utility.yul\":4948:4951   */\n      dup6\n        /* \"#utility.yul\":4911:4965   */\n      tag_113\n      jump\t// in\n    tag_190:\n        /* \"#utility.yul\":4630:4971   */\n      pop\n        /* \"#utility.yul\":4546:4971   */\n      swap4\n      swap3\n      pop\n      pop\n      pop\n      jump\t// out\n        /* \"#utility.yul\":4991:5331   */\n    tag_115:\n        /* \"#utility.yul\":5047:5052   */\n      0x00\n        /* \"#utility.yul\":5096:5099   */\n      dup3\n        /* \"#utility.yul\":5089:5093   */\n      0x1f\n        /* \"#utility.yul\":5081:5087   */\n      dup4\n        /* \"#utility.yul\":5077:5094   */\n      add\n        /* \"#utility.yul\":5073:5100   */\n      slt\n        /* \"#utility.yul\":5063:5185   */\n      tag_192\n      jumpi\n        /* \"#utility.yul\":5104:5183   */\n      tag_193\n      tag_107\n      jump\t// in\n    tag_193:\n        /* \"#utility.yul\":5063:5185   */\n    tag_192:\n        /* \"#utility.yul\":5221:5227   */\n      dup2\n        /* \"#utility.yul\":5208:5228   */\n      calldataload\n        /* \"#utility.yul\":5246:5325   */\n      tag_194\n        /* \"#utility.yul\":5321:5324   */\n      dup5\n        /* \"#utility.yul\":5313:5319   */\n      dup3\n        /* \"#utility.yul\":5306:5310   */\n      0x20\n        /* \"#utility.yul\":5298:5304   */\n      dup7\n        /* \"#utility.yul\":5294:5311   */\n      add\n        /* \"#utility.yul\":5246:5325   */\n      tag_114\n      jump\t// in\n    tag_194:\n        /* \"#utility.yul\":5237:5325   */\n      swap2\n      pop\n        /* \"#utility.yul\":5053:5331   */\n      pop\n        /* \"#utility.yul\":4991:5331   */\n      swap3\n      swap2\n      pop\n      pop\n      jump\t// out\n        /* \"#utility.yul\":5337:5991   */\n    tag_25:\n        /* \"#utility.yul\":5415:5421   */\n      0x00\n        /* \"#utility.yul\":5423:5429   */\n      dup1\n        /* \"#utility.yul\":5472:5474   */\n      0x40\n        /* \"#utility.yul\":5460:5469   */\n      dup4\n        /* \"#utility.yul\":5451:5458   */\n      dup6\n        /* \"#utility.yul\":5447:5470   */\n      sub\n        /* \"#utility.yul\":5443:5475   */\n      slt\n        /* \"#utility.yul\":5440:5559   */\n      iszero\n      tag_196\n      jumpi\n        /* \"#utility.yul\":5478:5557   */\n      tag_197\n      tag_97\n      jump\t// in\n    tag_197:\n        /* \"#utility.yul\":5440:5559   */\n    tag_196:\n        /* \"#utility.yul\":5598:5599   */\n      0x00\n        /* \"#utility.yul\":5623:5676   */\n      tag_198\n        /* \"#utility.yul\":5668:5675   */\n      dup6\n        /* \"#utility.yul\":5659:5665   */\n      dup3\n        /* \"#utility.yul\":5648:5657   */\n      dup7\n        /* \"#utility.yul\":5644:5666   */\n      add\n        /* \"#utility.yul\":5623:5676   */\n      tag_106\n      jump\t// in\n    tag_198:\n        /* \"#utility.yul\":5613:5676   */\n      swap3\n      pop\n        /* \"#utility.yul\":5569:5686   */\n      pop\n        /* \"#utility.yul\":5753:5755   */\n      0x20\n        /* \"#utility.yul\":5742:5751   */\n      dup4\n        /* \"#utility.yul\":5738:5756   */\n      add\n        /* \"#utility.yul\":5725:5757   */\n      calldataload\n        /* \"#utility.yul\":5784:5802   */\n      0xffffffffffffffff\n        /* \"#utility.yul\":5776:5782   */\n      dup2\n        /* \"#utility.yul\":5773:5803   */\n      gt\n        /* \"#utility.yul\":5770:5887   */\n      iszero\n      tag_199\n      jumpi\n        /* \"#utility.yul\":5806:5885   */\n      tag_200\n      tag_98\n      jump\t// in\n    tag_200:\n        /* \"#utility.yul\":5770:5887   */\n    tag_199:\n        /* \"#utility.yul\":5911:5974   */\n      tag_201\n        /* \"#utility.yul\":5966:5973   */\n      dup6\n        /* \"#utility.yul\":5957:5963   */\n      dup3\n        /* \"#utility.yul\":5946:5955   */\n      dup7\n        /* \"#utility.yul\":5942:5964   */\n      add\n        /* \"#utility.yul\":5911:5974   */\n      tag_115\n      jump\t// in\n    tag_201:\n        /* \"#utility.yul\":5901:5974   */\n      swap2\n      pop\n        /* \"#utility.yul\":5696:5984   */\n      pop\n        /* \"#utility.yul\":5337:5991   */\n      swap3\n      pop\n      swap3\n      swap1\n      pop\n      jump\t// out\n        /* \"#utility.yul\":5997:6506   */\n    tag_29:\n        /* \"#utility.yul\":6066:6072   */\n      0x00\n        /* \"#utility.yul\":6115:6117   */\n      0x20\n        /* \"#utility.yul\":6103:6112   */\n      dup3\n        /* \"#utility.yul\":6094:6101   */\n      dup5\n        /* \"#utility.yul\":6090:6113   */\n      sub\n        /* \"#utility.yul\":6086:6118   */\n      slt\n        /* \"#utility.yul\":6083:6202   */\n      iszero\n      tag_203\n      jumpi\n        /* \"#utility.yul\":6121:6200   */\n      tag_204\n      tag_97\n      jump\t// in\n    tag_204:\n        /* \"#utility.yul\":6083:6202   */\n    tag_203:\n        /* \"#utility.yul\":6269:6270   */\n      0x00\n        /* \"#utility.yul\":6258:6267   */\n      dup3\n        /* \"#utility.yul\":6254:6271   */\n      add\n        /* \"#utility.yul\":6241:6272   */\n      calldataload\n        /* \"#utility.yul\":6299:6317   */\n      0xffffffffffffffff\n        /* \"#utility.yul\":6291:6297   */\n      dup2\n        /* \"#utility.yul\":6288:6318   */\n      gt\n        /* \"#utility.yul\":6285:6402   */\n      iszero\n      tag_205\n      jumpi\n        /* \"#utility.yul\":6321:6400   */\n      tag_206\n      tag_98\n      jump\t// in\n    tag_206:\n        /* \"#utility.yul\":6285:6402   */\n    tag_205:\n        /* \"#utility.yul\":6426:6489   */\n      tag_207\n        /* \"#utility.yul\":6481:6488   */\n      dup5\n        /* \"#utility.yul\":6472:6478   */\n      dup3\n        /* \"#utility.yul\":6461:6470   */\n      dup6\n        /* \"#utility.yul\":6457:6479   */\n      add\n        /* \"#utility.yul\":6426:6489   */\n      tag_115\n      jump\t// in\n    tag_207:\n        /* \"#utility.yul\":6416:6489   */\n      swap2\n      pop\n        /* \"#utility.yul\":6212:6499   */\n      pop\n        /* \"#utility.yul\":5997:6506   */\n      swap3\n      swap2\n      pop\n      pop\n      jump\t// out\n        /* \"#utility.yul\":6512:6602   */\n    tag_116:\n        /* \"#utility.yul\":6546:6553   */\n      0x00\n        /* \"#utility.yul\":6589:6594   */\n      dup2\n        /* \"#utility.yul\":6582:6595   */\n      iszero\n        /* \"#utility.yul\":6575:6596   */\n      iszero\n        /* \"#utility.yul\":6564:6596   */\n      swap1\n      pop\n        /* \"#utility.yul\":6512:6602   */\n      swap2\n      swap1\n      pop\n      jump\t// out\n        /* \"#utility.yul\":6608:6717   */\n    tag_117:\n        /* \"#utility.yul\":6689:6710   */\n      tag_210\n        /* \"#utility.yul\":6704:6709   */\n      dup2\n        /* \"#utility.yul\":6689:6710   */\n      tag_116\n      jump\t// in\n    tag_210:\n        /* \"#utility.yul\":6684:6687   */\n      dup3\n        /* \"#utility.yul\":6677:6711   */\n      mstore\n        /* \"#utility.yul\":6608:6717   */\n      pop\n      pop\n      jump\t// out\n        /* \"#utility.yul\":6723:7043   */\n    tag_32:\n        /* \"#utility.yul\":6838:6842   */\n      0x00\n        /* \"#utility.yul\":6876:6878   */\n      0x40\n        /* \"#utility.yul\":6865:6874   */\n      dup3\n        /* \"#utility.yul\":6861:6879   */\n      add\n        /* \"#utility.yul\":6853:6879   */\n      swap1\n      pop\n        /* \"#utility.yul\":6889:6960   */\n      tag_212\n        /* \"#utility.yul\":6957:6958   */\n      0x00\n        /* \"#utility.yul\":6946:6955   */\n      dup4\n        /* \"#utility.yul\":6942:6959   */\n      add\n        /* \"#utility.yul\":6933:6939   */\n      dup6\n        /* \"#utility.yul\":6889:6960   */\n      tag_104\n      jump\t// in\n    tag_212:\n        /* \"#utility.yul\":6970:7036   */\n      tag_213\n        /* \"#utility.yul\":7032:7034   */\n      0x20\n        /* \"#utility.yul\":7021:7030   */\n      dup4\n        /* \"#utility.yul\":7017:7035   */\n      add\n        /* \"#utility.yul\":7008:7014   */\n      dup5\n        /* \"#utility.yul\":6970:7036   */\n      tag_117\n      jump\t// in\n    tag_213:\n        /* \"#utility.yul\":6723:7043   */\n      swap4\n      swap3\n      pop\n      pop\n      pop\n      jump\t// out\n        /* \"#utility.yul\":7049:8432   */\n    tag_35:\n        /* \"#utility.yul\":7172:7178   */\n      0x00\n        /* \"#utility.yul\":7180:7186   */\n      dup1\n        /* \"#utility.yul\":7188:7194   */\n      0x00\n        /* \"#utility.yul\":7196:7202   */\n      dup1\n        /* \"#utility.yul\":7204:7210   */\n      0x00\n        /* \"#utility.yul\":7212:7218   */\n      dup1\n        /* \"#utility.yul\":7220:7226   */\n      0x00\n        /* \"#utility.yul\":7269:7272   */\n      0xe0\n        /* \"#utility.yul\":7257:7266   */\n      dup9\n        /* \"#utility.yul\":7248:7255   */\n      dup11\n        /* \"#utility.yul\":7244:7267   */\n      sub\n        /* \"#utility.yul\":7240:7273   */\n      slt\n        /* \"#utility.yul\":7237:7357   */\n      iszero\n      tag_215\n      jumpi\n        /* \"#utility.yul\":7276:7355   */\n      tag_216\n      tag_97\n      jump\t// in\n    tag_216:\n        /* \"#utility.yul\":7237:7357   */\n    tag_215:\n        /* \"#utility.yul\":7396:7397   */\n      0x00\n        /* \"#utility.yul\":7421:7474   */\n      tag_217\n        /* \"#utility.yul\":7466:7473   */\n      dup11\n        /* \"#utility.yul\":7457:7463   */\n      dup3\n        /* \"#utility.yul\":7446:7455   */\n      dup12\n        /* \"#utility.yul\":7442:7464   */\n      add\n        /* \"#utility.yul\":7421:7474   */\n      tag_106\n      jump\t// in\n    tag_217:\n        /* \"#utility.yul\":7411:7474   */\n      swap8\n      pop\n        /* \"#utility.yul\":7367:7484   */\n      pop\n        /* \"#utility.yul\":7523:7525   */\n      0x20\n        /* \"#utility.yul\":7549:7602   */\n      tag_218\n        /* \"#utility.yul\":7594:7601   */\n      dup11\n        /* \"#utility.yul\":7585:7591   */\n      dup3\n        /* \"#utility.yul\":7574:7583   */\n      dup12\n        /* \"#utility.yul\":7570:7592   */\n      add\n        /* \"#utility.yul\":7549:7602   */\n      tag_106\n      jump\t// in\n    tag_218:\n        /* \"#utility.yul\":7539:7602   */\n      swap7\n      pop\n        /* \"#utility.yul\":7494:7612   */\n      pop\n        /* \"#utility.yul\":7651:7653   */\n      0x40\n        /* \"#utility.yul\":7677:7730   */\n      tag_219\n        /* \"#utility.yul\":7722:7729   */\n      dup11\n        /* \"#utility.yul\":7713:7719   */\n      dup3\n        /* \"#utility.yul\":7702:7711   */\n      dup12\n        /* \"#utility.yul\":7698:7720   */\n      add\n        /* \"#utility.yul\":7677:7730   */\n      tag_106\n      jump\t// in\n    tag_219:\n        /* \"#utility.yul\":7667:7730   */\n      swap6\n      pop\n        /* \"#utility.yul\":7622:7740   */\n      pop\n        /* \"#utility.yul\":7807:7809   */\n      0x60\n        /* \"#utility.yul\":7796:7805   */\n      dup9\n        /* \"#utility.yul\":7792:7810   */\n      add\n        /* \"#utility.yul\":7779:7811   */\n      calldataload\n        /* \"#utility.yul\":7838:7856   */\n      0xffffffffffffffff\n        /* \"#utility.yul\":7830:7836   */\n      dup2\n        /* \"#utility.yul\":7827:7857   */\n      gt\n        /* \"#utility.yul\":7824:7941   */\n      iszero\n      tag_220\n      jumpi\n        /* \"#utility.yul\":7860:7939   */\n      tag_221\n      tag_98\n      jump\t// in\n    tag_221:\n        /* \"#utility.yul\":7824:7941   */\n    tag_220:\n        /* \"#utility.yul\":7965:8028   */\n      tag_222\n        /* \"#utility.yul\":8020:8027   */\n      dup11\n        /* \"#utility.yul\":8011:8017   */\n      dup3\n        /* \"#utility.yul\":8000:8009   */\n      dup12\n        /* \"#utility.yul\":7996:8018   */\n      add\n        /* \"#utility.yul\":7965:8028   */\n      tag_115\n      jump\t// in\n    tag_222:\n        /* \"#utility.yul\":7955:8028   */\n      swap5\n      pop\n        /* \"#utility.yul\":7750:8038   */\n      pop\n        /* \"#utility.yul\":8077:8080   */\n      0x80\n        /* \"#utility.yul\":8104:8157   */\n      tag_223\n        /* \"#utility.yul\":8149:8156   */\n      dup11\n        /* \"#utility.yul\":8140:8146   */\n      dup3\n        /* \"#utility.yul\":8129:8138   */\n      dup12\n        /* \"#utility.yul\":8125:8147   */\n      add\n        /* \"#utility.yul\":8104:8157   */\n      tag_102\n      jump\t// in\n    tag_223:\n        /* \"#utility.yul\":8094:8157   */\n      swap4\n      pop\n        /* \"#utility.yul\":8048:8167   */\n      pop\n        /* \"#utility.yul\":8206:8209   */\n      0xa0\n        /* \"#utility.yul\":8233:8286   */\n      tag_224\n        /* \"#utility.yul\":8278:8285   */\n      dup11\n        /* \"#utility.yul\":8269:8275   */\n      dup3\n        /* \"#utility.yul\":8258:8267   */\n      dup12\n        /* \"#utility.yul\":8254:8276   */\n      add\n        /* \"#utility.yul\":8233:8286   */\n      tag_102\n      jump\t// in\n    tag_224:\n        /* \"#utility.yul\":8223:8286   */\n      swap3\n      pop\n        /* \"#utility.yul\":8177:8296   */\n      pop\n        /* \"#utility.yul\":8335:8338   */\n      0xc0\n        /* \"#utility.yul\":8362:8415   */\n      tag_225\n        /* \"#utility.yul\":8407:8414   */\n      dup11\n        /* \"#utility.yul\":8398:8404   */\n      dup3\n        /* \"#utility.yul\":8387:8396   */\n      dup12\n        /* \"#utility.yul\":8383:8405   */\n      add\n        /* \"#utility.yul\":8362:8415   */\n      tag_106\n      jump\t// in\n    tag_225:\n        /* \"#utility.yul\":8352:8415   */\n      swap2\n      pop\n        /* \"#utility.yul\":8306:8425   */\n      pop\n        /* \"#utility.yul\":7049:8432   */\n      swap3\n      swap6\n      swap9\n      swap2\n      swap5\n      swap8\n      pop\n      swap3\n      swap6\n      pop\n      jump\t// out\n        /* \"#utility.yul\":8438:8556   */\n    tag_118:\n        /* \"#utility.yul\":8525:8549   */\n      tag_227\n        /* \"#utility.yul\":8543:8548   */\n      dup2\n        /* \"#utility.yul\":8525:8549   */\n      tag_100\n      jump\t// in\n    tag_227:\n        /* \"#utility.yul\":8520:8523   */\n      dup3\n        /* \"#utility.yul\":8513:8550   */\n      mstore\n        /* \"#utility.yul\":8438:8556   */\n      pop\n      pop\n      jump\t// out\n        /* \"#utility.yul\":8562:8784   */\n    tag_40:\n        /* \"#utility.yul\":8655:8659   */\n      0x00\n        /* \"#utility.yul\":8693:8695   */\n      0x20\n        /* \"#utility.yul\":8682:8691   */\n      dup3\n        /* \"#utility.yul\":8678:8696   */\n      add\n        /* \"#utility.yul\":8670:8696   */\n      swap1\n      pop\n        /* \"#utility.yul\":8706:8777   */\n      tag_229\n        /* \"#utility.yul\":8774:8775   */\n      0x00\n        /* \"#utility.yul\":8763:8772   */\n      dup4\n        /* \"#utility.yul\":8759:8776   */\n      add\n        /* \"#utility.yul\":8750:8756   */\n      dup5\n        /* \"#utility.yul\":8706:8777   */\n      tag_118\n      jump\t// in\n    tag_229:\n        /* \"#utility.yul\":8562:8784   */\n      swap3\n      swap2\n      pop\n      pop\n      jump\t// out\n        /* \"#utility.yul\":8790:10027   */\n    tag_46:\n        /* \"#utility.yul\":8904:8910   */\n      0x00\n        /* \"#utility.yul\":8912:8918   */\n      dup1\n        /* \"#utility.yul\":8920:8926   */\n      0x00\n        /* \"#utility.yul\":8928:8934   */\n      dup1\n        /* \"#utility.yul\":8936:8942   */\n      0x00\n        /* \"#utility.yul\":8944:8950   */\n      dup1\n        /* \"#utility.yul\":8993:8996   */\n      0xc0\n        /* \"#utility.yul\":8981:8990   */\n      dup8\n        /* \"#utility.yul\":8972:8979   */\n      dup10\n        /* \"#utility.yul\":8968:8991   */\n      sub\n        /* \"#utility.yul\":8964:8997   */\n      slt\n        /* \"#utility.yul\":8961:9081   */\n      iszero\n      tag_231\n      jumpi\n        /* \"#utility.yul\":9000:9079   */\n      tag_232\n      tag_97\n      jump\t// in\n    tag_232:\n        /* \"#utility.yul\":8961:9081   */\n    tag_231:\n        /* \"#utility.yul\":9120:9121   */\n      0x00\n        /* \"#utility.yul\":9145:9198   */\n      tag_233\n        /* \"#utility.yul\":9190:9197   */\n      dup10\n        /* \"#utility.yul\":9181:9187   */\n      dup3\n        /* \"#utility.yul\":9170:9179   */\n      dup11\n        /* \"#utility.yul\":9166:9188   */\n      add\n        /* \"#utility.yul\":9145:9198   */\n      tag_106\n      jump\t// in\n    tag_233:\n        /* \"#utility.yul\":9135:9198   */\n      swap7\n      pop\n        /* \"#utility.yul\":9091:9208   */\n      pop\n        /* \"#utility.yul\":9247:9249   */\n      0x20\n        /* \"#utility.yul\":9273:9326   */\n      tag_234\n        /* \"#utility.yul\":9318:9325   */\n      dup10\n        /* \"#utility.yul\":9309:9315   */\n      dup3\n        /* \"#utility.yul\":9298:9307   */\n      dup11\n        /* \"#utility.yul\":9294:9316   */\n      add\n        /* \"#utility.yul\":9273:9326   */\n      tag_106\n      jump\t// in\n    tag_234:\n        /* \"#utility.yul\":9263:9326   */\n      swap6\n      pop\n        /* \"#utility.yul\":9218:9336   */\n      pop\n        /* \"#utility.yul\":9375:9377   */\n      0x40\n        /* \"#utility.yul\":9401:9454   */\n      tag_235\n        /* \"#utility.yul\":9446:9453   */\n      dup10\n        /* \"#utility.yul\":9437:9443   */\n      dup3\n        /* \"#utility.yul\":9426:9435   */\n      dup11\n        /* \"#utility.yul\":9422:9444   */\n      add\n        /* \"#utility.yul\":9401:9454   */\n      tag_106\n      jump\t// in\n    tag_235:\n        /* \"#utility.yul\":9391:9454   */\n      swap5\n      pop\n        /* \"#utility.yul\":9346:9464   */\n      pop\n        /* \"#utility.yul\":9531:9533   */\n      0x60\n        /* \"#utility.yul\":9520:9529   */\n      dup8\n        /* \"#utility.yul\":9516:9534   */\n      add\n        /* \"#utility.yul\":9503:9535   */\n      calldataload\n        /* \"#utility.yul\":9562:9580   */\n      0xffffffffffffffff\n        /* \"#utility.yul\":9554:9560   */\n      dup2\n        /* \"#utility.yul\":9551:9581   */\n      gt\n        /* \"#utility.yul\":9548:9665   */\n      iszero\n      tag_236\n      jumpi\n        /* \"#utility.yul\":9584:9663   */\n      tag_237\n      tag_98\n      jump\t// in\n    tag_237:\n        /* \"#utility.yul\":9548:9665   */\n    tag_236:\n        /* \"#utility.yul\":9689:9752   */\n      tag_238\n        /* \"#utility.yul\":9744:9751   */\n      dup10\n        /* \"#utility.yul\":9735:9741   */\n      dup3\n        /* \"#utility.yul\":9724:9733   */\n      dup11\n        /* \"#utility.yul\":9720:9742   */\n      add\n        /* \"#utility.yul\":9689:9752   */\n      tag_115\n      jump\t// in\n    tag_238:\n        /* \"#utility.yul\":9679:9752   */\n      swap4\n      pop\n        /* \"#utility.yul\":9474:9762   */\n      pop\n        /* \"#utility.yul\":9801:9804   */\n      0x80\n        /* \"#utility.yul\":9828:9881   */\n      tag_239\n        /* \"#utility.yul\":9873:9880   */\n      dup10\n        /* \"#utility.yul\":9864:9870   */\n      dup3\n        /* \"#utility.yul\":9853:9862   */\n      dup11\n        /* \"#utility.yul\":9849:9871   */\n      add\n        /* \"#utility.yul\":9828:9881   */\n      tag_102\n      jump\t// in\n    tag_239:\n        /* \"#utility.yul\":9818:9881   */\n      swap3\n      pop\n        /* \"#utility.yul\":9772:9891   */\n      pop\n        /* \"#utility.yul\":9930:9933   */\n      0xa0\n        /* \"#utility.yul\":9957:10010   */\n      tag_240\n        /* \"#utility.yul\":10002:10009   */\n      dup10\n        /* \"#utility.yul\":9993:9999   */\n      dup3\n        /* \"#utility.yul\":9982:9991   */\n      dup11\n        /* \"#utility.yul\":9978:10000   */\n      add\n        /* \"#utility.yul\":9957:10010   */\n      tag_106\n      jump\t// in\n    tag_240:\n        /* \"#utility.yul\":9947:10010   */\n      swap2\n      pop\n        /* \"#utility.yul\":9901:10020   */\n      pop\n        /* \"#utility.yul\":8790:10027   */\n      swap3\n      swap6\n      pop\n      swap3\n      swap6\n      pop\n      swap3\n      swap6\n      jump\t// out\n        /* \"#utility.yul\":10033:10181   */\n    tag_119:\n        /* \"#utility.yul\":10135:10146   */\n      0x00\n        /* \"#utility.yul\":10172:10175   */\n      dup2\n        /* \"#utility.yul\":10157:10175   */\n      swap1\n      pop\n        /* \"#utility.yul\":10033:10181   */\n      swap3\n      swap2\n      pop\n      pop\n      jump\t// out\n        /* \"#utility.yul\":10187:10577   */\n    tag_120:\n        /* \"#utility.yul\":10293:10296   */\n      0x00\n        /* \"#utility.yul\":10321:10360   */\n      tag_243\n        /* \"#utility.yul\":10354:10359   */\n      dup3\n        /* \"#utility.yul\":10321:10360   */\n      tag_91\n      jump\t// in\n    tag_243:\n        /* \"#utility.yul\":10376:10465   */\n      tag_244\n        /* \"#utility.yul\":10458:10464   */\n      dup2\n        /* \"#utility.yul\":10453:10456   */\n      dup6\n        /* \"#utility.yul\":10376:10465   */\n      tag_119\n      jump\t// in\n    tag_244:\n        /* \"#utility.yul\":10369:10465   */\n      swap4\n      pop\n        /* \"#utility.yul\":10474:10539   */\n      tag_245\n        /* \"#utility.yul\":10532:10538   */\n      dup2\n        /* \"#utility.yul\":10527:10530   */\n      dup6\n        /* \"#utility.yul\":10520:10524   */\n      0x20\n        /* \"#utility.yul\":10513:10518   */\n      dup7\n        /* \"#utility.yul\":10509:10525   */\n      add\n        /* \"#utility.yul\":10474:10539   */\n      tag_93\n      jump\t// in\n    tag_245:\n        /* \"#utility.yul\":10564:10570   */\n      dup1\n        /* \"#utility.yul\":10559:10562   */\n      dup5\n        /* \"#utility.yul\":10555:10571   */\n      add\n        /* \"#utility.yul\":10548:10571   */\n      swap2\n      pop\n        /* \"#utility.yul\":10297:10577   */\n      pop\n        /* \"#utility.yul\":10187:10577   */\n      swap3\n      swap2\n      pop\n      pop\n      jump\t// out\n        /* \"#utility.yul\":10583:10858   */\n    tag_54:\n        /* \"#utility.yul\":10715:10718   */\n      0x00\n        /* \"#utility.yul\":10737:10832   */\n      tag_247\n        /* \"#utility.yul\":10828:10831   */\n      dup3\n        /* \"#utility.yul\":10819:10825   */\n      dup5\n        /* \"#utility.yul\":10737:10832   */\n      tag_120\n      jump\t// in\n    tag_247:\n        /* \"#utility.yul\":10730:10832   */\n      swap2\n      pop\n        /* \"#utility.yul\":10849:10852   */\n      dup2\n        /* \"#utility.yul\":10842:10852   */\n      swap1\n      pop\n        /* \"#utility.yul\":10583:10858   */\n      swap3\n      swap2\n      pop\n      pop\n      jump\t// out\n        /* \"#utility.yul\":10864:11029   */\n    tag_121:\n        /* \"#utility.yul\":11004:11021   */\n      0x496e76616c696420616464726573730000000000000000000000000000000000\n        /* \"#utility.yul\":11000:11001   */\n      0x00\n        /* \"#utility.yul\":10992:10998   */\n      dup3\n        /* \"#utility.yul\":10988:11002   */\n      add\n        /* \"#utility.yul\":10981:11022   */\n      mstore\n        /* \"#utility.yul\":10864:11029   */\n      pop\n      jump\t// out\n        /* \"#utility.yul\":11035:11401   */\n    tag_122:\n        /* \"#utility.yul\":11177:11180   */\n      0x00\n        /* \"#utility.yul\":11198:11265   */\n      tag_250\n        /* \"#utility.yul\":11262:11264   */\n      0x0f\n        /* \"#utility.yul\":11257:11260   */\n      dup4\n        /* \"#utility.yul\":11198:11265   */\n      tag_92\n      jump\t// in\n    tag_250:\n        /* \"#utility.yul\":11191:11265   */\n      swap2\n      pop\n        /* \"#utility.yul\":11274:11367   */\n      tag_251\n        /* \"#utility.yul\":11363:11366   */\n      dup3\n        /* \"#utility.yul\":11274:11367   */\n      tag_121\n      jump\t// in\n    tag_251:\n        /* \"#utility.yul\":11392:11394   */\n      0x20\n        /* \"#utility.yul\":11387:11390   */\n      dup3\n        /* \"#utility.yul\":11383:11395   */\n      add\n        /* \"#utility.yul\":11376:11395   */\n      swap1\n      pop\n        /* \"#utility.yul\":11035:11401   */\n      swap2\n      swap1\n      pop\n      jump\t// out\n        /* \"#utility.yul\":11407:11826   */\n    tag_59:\n        /* \"#utility.yul\":11573:11577   */\n      0x00\n        /* \"#utility.yul\":11611:11613   */\n      0x20\n        /* \"#utility.yul\":11600:11609   */\n      dup3\n        /* \"#utility.yul\":11596:11614   */\n      add\n        /* \"#utility.yul\":11588:11614   */\n      swap1\n      pop\n        /* \"#utility.yul\":11660:11669   */\n      dup2\n        /* \"#utility.yul\":11654:11658   */\n      dup2\n        /* \"#utility.yul\":11650:11670   */\n      sub\n        /* \"#utility.yul\":11646:11647   */\n      0x00\n        /* \"#utility.yul\":11635:11644   */\n      dup4\n        /* \"#utility.yul\":11631:11648   */\n      add\n        /* \"#utility.yul\":11624:11671   */\n      mstore\n        /* \"#utility.yul\":11688:11819   */\n      tag_253\n        /* \"#utility.yul\":11814:11818   */\n      dup2\n        /* \"#utility.yul\":11688:11819   */\n      tag_122\n      jump\t// in\n    tag_253:\n        /* \"#utility.yul\":11680:11819   */\n      swap1\n      pop\n        /* \"#utility.yul\":11407:11826   */\n      swap2\n      swap1\n      pop\n      jump\t// out\n        /* \"#utility.yul\":11832:12003   */\n    tag_123:\n        /* \"#utility.yul\":11972:11995   */\n      0x546f6b656e20686173206e6f7420637265617465640000000000000000000000\n        /* \"#utility.yul\":11968:11969   */\n      0x00\n        /* \"#utility.yul\":11960:11966   */\n      dup3\n        /* \"#utility.yul\":11956:11970   */\n      add\n        /* \"#utility.yul\":11949:11996   */\n      mstore\n        /* \"#utility.yul\":11832:12003   */\n      pop\n      jump\t// out\n        /* \"#utility.yul\":12009:12375   */\n    tag_124:\n        /* \"#utility.yul\":12151:12154   */\n      0x00\n        /* \"#utility.yul\":12172:12239   */\n      tag_256\n        /* \"#utility.yul\":12236:12238   */\n      0x15\n        /* \"#utility.yul\":12231:12234   */\n      dup4\n        /* \"#utility.yul\":12172:12239   */\n      tag_92\n      jump\t// in\n    tag_256:\n        /* \"#utility.yul\":12165:12239   */\n      swap2\n      pop\n        /* \"#utility.yul\":12248:12341   */\n      tag_257\n        /* \"#utility.yul\":12337:12340   */\n      dup3\n        /* \"#utility.yul\":12248:12341   */\n      tag_123\n      jump\t// in\n    tag_257:\n        /* \"#utility.yul\":12366:12368   */\n      0x20\n        /* \"#utility.yul\":12361:12364   */\n      dup3\n        /* \"#utility.yul\":12357:12369   */\n      add\n        /* \"#utility.yul\":12350:12369   */\n      swap1\n      pop\n        /* \"#utility.yul\":12009:12375   */\n      swap2\n      swap1\n      pop\n      jump\t// out\n        /* \"#utility.yul\":12381:12800   */\n    tag_65:\n        /* \"#utility.yul\":12547:12551   */\n      0x00\n        /* \"#utility.yul\":12585:12587   */\n      0x20\n        /* \"#utility.yul\":12574:12583   */\n      dup3\n        /* \"#utility.yul\":12570:12588   */\n      add\n        /* \"#utility.yul\":12562:12588   */\n      swap1\n      pop\n        /* \"#utility.yul\":12634:12643   */\n      dup2\n        /* \"#utility.yul\":12628:12632   */\n      dup2\n        /* \"#utility.yul\":12624:12644   */\n      sub\n        /* \"#utility.yul\":12620:12621   */\n      0x00\n        /* \"#utility.yul\":12609:12618   */\n      dup4\n        /* \"#utility.yul\":12605:12622   */\n      add\n        /* \"#utility.yul\":12598:12645   */\n      mstore\n        /* \"#utility.yul\":12662:12793   */\n      tag_259\n        /* \"#utility.yul\":12788:12792   */\n      dup2\n        /* \"#utility.yul\":12662:12793   */\n      tag_124\n      jump\t// in\n    tag_259:\n        /* \"#utility.yul\":12654:12793   */\n      swap1\n      pop\n        /* \"#utility.yul\":12381:12800   */\n      swap2\n      swap1\n      pop\n      jump\t// out\n        /* \"#utility.yul\":12806:13029   */\n    tag_125:\n        /* \"#utility.yul\":12946:12980   */\n      0x4e6f2073756666696369656e742062616c616e636520696e2074686520616363\n        /* \"#utility.yul\":12942:12943   */\n      0x00\n        /* \"#utility.yul\":12934:12940   */\n      dup3\n        /* \"#utility.yul\":12930:12944   */\n      add\n        /* \"#utility.yul\":12923:12981   */\n      mstore\n        /* \"#utility.yul\":13015:13021   */\n      0x6f756e7400000000000000000000000000000000000000000000000000000000\n        /* \"#utility.yul\":13010:13012   */\n      0x20\n        /* \"#utility.yul\":13002:13008   */\n      dup3\n        /* \"#utility.yul\":12998:13013   */\n      add\n        /* \"#utility.yul\":12991:13022   */\n      mstore\n        /* \"#utility.yul\":12806:13029   */\n      pop\n      jump\t// out\n        /* \"#utility.yul\":13035:13401   */\n    tag_126:\n        /* \"#utility.yul\":13177:13180   */\n      0x00\n        /* \"#utility.yul\":13198:13265   */\n      tag_262\n        /* \"#utility.yul\":13262:13264   */\n      0x24\n        /* \"#utility.yul\":13257:13260   */\n      dup4\n        /* \"#utility.yul\":13198:13265   */\n      tag_92\n      jump\t// in\n    tag_262:\n        /* \"#utility.yul\":13191:13265   */\n      swap2\n      pop\n        /* \"#utility.yul\":13274:13367   */\n      tag_263\n        /* \"#utility.yul\":13363:13366   */\n      dup3\n        /* \"#utility.yul\":13274:13367   */\n      tag_125\n      jump\t// in\n    tag_263:\n        /* \"#utility.yul\":13392:13394   */\n      0x40\n        /* \"#utility.yul\":13387:13390   */\n      dup3\n        /* \"#utility.yul\":13383:13395   */\n      add\n        /* \"#utility.yul\":13376:13395   */\n      swap1\n      pop\n        /* \"#utility.yul\":13035:13401   */\n      swap2\n      swap1\n      pop\n      jump\t// out\n        /* \"#utility.yul\":13407:13826   */\n    tag_68:\n        /* \"#utility.yul\":13573:13577   */\n      0x00\n        /* \"#utility.yul\":13611:13613   */\n      0x20\n        /* \"#utility.yul\":13600:13609   */\n      dup3\n        /* \"#utility.yul\":13596:13614   */\n      add\n        /* \"#utility.yul\":13588:13614   */\n      swap1\n      pop\n        /* \"#utility.yul\":13660:13669   */\n      dup2\n        /* \"#utility.yul\":13654:13658   */\n      dup2\n        /* \"#utility.yul\":13650:13670   */\n      sub\n        /* \"#utility.yul\":13646:13647   */\n      0x00\n        /* \"#utility.yul\":13635:13644   */\n      dup4\n        /* \"#utility.yul\":13631:13648   */\n      add\n        /* \"#utility.yul\":13624:13671   */\n      mstore\n        /* \"#utility.yul\":13688:13819   */\n      tag_265\n        /* \"#utility.yul\":13814:13818   */\n      dup2\n        /* \"#utility.yul\":13688:13819   */\n      tag_126\n      jump\t// in\n    tag_265:\n        /* \"#utility.yul\":13680:13819   */\n      swap1\n      pop\n        /* \"#utility.yul\":13407:13826   */\n      swap2\n      swap1\n      pop\n      jump\t// out\n        /* \"#utility.yul\":13832:14012   */\n    tag_127:\n        /* \"#utility.yul\":13880:13957   */\n      0x4e487b7100000000000000000000000000000000000000000000000000000000\n        /* \"#utility.yul\":13877:13878   */\n      0x00\n        /* \"#utility.yul\":13870:13958   */\n      mstore\n        /* \"#utility.yul\":13977:13981   */\n      0x11\n        /* \"#utility.yul\":13974:13975   */\n      0x04\n        /* \"#utility.yul\":13967:13982   */\n      mstore\n        /* \"#utility.yul\":14001:14005   */\n      0x24\n        /* \"#utility.yul\":13998:13999   */\n      0x00\n        /* \"#utility.yul\":13991:14006   */\n      revert\n        /* \"#utility.yul\":14018:14212   */\n    tag_71:\n        /* \"#utility.yul\":14058:14062   */\n      0x00\n        /* \"#utility.yul\":14078:14098   */\n      tag_268\n        /* \"#utility.yul\":14096:14097   */\n      dup3\n        /* \"#utility.yul\":14078:14098   */\n      tag_103\n      jump\t// in\n    tag_268:\n        /* \"#utility.yul\":14073:14098   */\n      swap2\n      pop\n        /* \"#utility.yul\":14112:14132   */\n      tag_269\n        /* \"#utility.yul\":14130:14131   */\n      dup4\n        /* \"#utility.yul\":14112:14132   */\n      tag_103\n      jump\t// in\n    tag_269:\n        /* \"#utility.yul\":14107:14132   */\n      swap3\n      pop\n        /* \"#utility.yul\":14156:14157   */\n      dup3\n        /* \"#utility.yul\":14153:14154   */\n      dup3\n        /* \"#utility.yul\":14149:14158   */\n      sub\n        /* \"#utility.yul\":14141:14158   */\n      swap1\n      pop\n        /* \"#utility.yul\":14180:14181   */\n      dup2\n        /* \"#utility.yul\":14174:14178   */\n      dup2\n        /* \"#utility.yul\":14171:14182   */\n      gt\n        /* \"#utility.yul\":14168:14205   */\n      iszero\n      tag_270\n      jumpi\n        /* \"#utility.yul\":14185:14203   */\n      tag_271\n      tag_127\n      jump\t// in\n    tag_271:\n        /* \"#utility.yul\":14168:14205   */\n    tag_270:\n        /* \"#utility.yul\":14018:14212   */\n      swap3\n      swap2\n      pop\n      pop\n      jump\t// out\n        /* \"#utility.yul\":14218:14409   */\n    tag_73:\n        /* \"#utility.yul\":14258:14261   */\n      0x00\n        /* \"#utility.yul\":14277:14297   */\n      tag_273\n        /* \"#utility.yul\":14295:14296   */\n      dup3\n        /* \"#utility.yul\":14277:14297   */\n      tag_103\n      jump\t// in\n    tag_273:\n        /* \"#utility.yul\":14272:14297   */\n      swap2\n      pop\n        /* \"#utility.yul\":14311:14331   */\n      tag_274\n        /* \"#utility.yul\":14329:14330   */\n      dup4\n        /* \"#utility.yul\":14311:14331   */\n      tag_103\n      jump\t// in\n    tag_274:\n        /* \"#utility.yul\":14306:14331   */\n      swap3\n      pop\n        /* \"#utility.yul\":14354:14355   */\n      dup3\n        /* \"#utility.yul\":14351:14352   */\n      dup3\n        /* \"#utility.yul\":14347:14356   */\n      add\n        /* \"#utility.yul\":14340:14356   */\n      swap1\n      pop\n        /* \"#utility.yul\":14375:14378   */\n      dup1\n        /* \"#utility.yul\":14372:14373   */\n      dup3\n        /* \"#utility.yul\":14369:14379   */\n      gt\n        /* \"#utility.yul\":14366:14402   */\n      iszero\n      tag_275\n      jumpi\n        /* \"#utility.yul\":14382:14400   */\n      tag_276\n      tag_127\n      jump\t// in\n    tag_276:\n        /* \"#utility.yul\":14366:14402   */\n    tag_275:\n        /* \"#utility.yul\":14218:14409   */\n      swap3\n      swap2\n      pop\n      pop\n      jump\t// out\n        /* \"#utility.yul\":14415:14747   */\n    tag_78:\n        /* \"#utility.yul\":14536:14540   */\n      0x00\n        /* \"#utility.yul\":14574:14576   */\n      0x40\n        /* \"#utility.yul\":14563:14572   */\n      dup3\n        /* \"#utility.yul\":14559:14577   */\n      add\n        /* \"#utility.yul\":14551:14577   */\n      swap1\n      pop\n        /* \"#utility.yul\":14587:14658   */\n      tag_278\n        /* \"#utility.yul\":14655:14656   */\n      0x00\n        /* \"#utility.yul\":14644:14653   */\n      dup4\n        /* \"#utility.yul\":14640:14657   */\n      add\n        /* \"#utility.yul\":14631:14637   */\n      dup6\n        /* \"#utility.yul\":14587:14658   */\n      tag_118\n      jump\t// in\n    tag_278:\n        /* \"#utility.yul\":14668:14740   */\n      tag_279\n        /* \"#utility.yul\":14736:14738   */\n      0x20\n        /* \"#utility.yul\":14725:14734   */\n      dup4\n        /* \"#utility.yul\":14721:14739   */\n      add\n        /* \"#utility.yul\":14712:14718   */\n      dup5\n        /* \"#utility.yul\":14668:14740   */\n      tag_104\n      jump\t// in\n    tag_279:\n        /* \"#utility.yul\":14415:14747   */\n      swap4\n      swap3\n      pop\n      pop\n      pop\n      jump\t// out\n        /* \"#utility.yul\":14753:14927   */\n    tag_128:\n        /* \"#utility.yul\":14893:14919   */\n      0x536f7272792120546f6b656e2068617320657870697265640000000000000000\n        /* \"#utility.yul\":14889:14890   */\n      0x00\n        /* \"#utility.yul\":14881:14887   */\n      dup3\n        /* \"#utility.yul\":14877:14891   */\n      add\n        /* \"#utility.yul\":14870:14920   */\n      mstore\n        /* \"#utility.yul\":14753:14927   */\n      pop\n      jump\t// out\n        /* \"#utility.yul\":14933:15299   */\n    tag_129:\n        /* \"#utility.yul\":15075:15078   */\n      0x00\n        /* \"#utility.yul\":15096:15163   */\n      tag_282\n        /* \"#utility.yul\":15160:15162   */\n      0x18\n        /* \"#utility.yul\":15155:15158   */\n      dup4\n        /* \"#utility.yul\":15096:15163   */\n      tag_92\n      jump\t// in\n    tag_282:\n        /* \"#utility.yul\":15089:15163   */\n      swap2\n      pop\n        /* \"#utility.yul\":15172:15265   */\n      tag_283\n        /* \"#utility.yul\":15261:15264   */\n      dup3\n        /* \"#utility.yul\":15172:15265   */\n      tag_128\n      jump\t// in\n    tag_283:\n        /* \"#utility.yul\":15290:15292   */\n      0x20\n        /* \"#utility.yul\":15285:15288   */\n      dup3\n        /* \"#utility.yul\":15281:15293   */\n      add\n        /* \"#utility.yul\":15274:15293   */\n      swap1\n      pop\n        /* \"#utility.yul\":14933:15299   */\n      swap2\n      swap1\n      pop\n      jump\t// out\n        /* \"#utility.yul\":15305:15724   */\n    tag_87:\n        /* \"#utility.yul\":15471:15475   */\n      0x00\n        /* \"#utility.yul\":15509:15511   */\n      0x20\n        /* \"#utility.yul\":15498:15507   */\n      dup3\n        /* \"#utility.yul\":15494:15512   */\n      add\n        /* \"#utility.yul\":15486:15512   */\n      swap1\n      pop\n        /* \"#utility.yul\":15558:15567   */\n      dup2\n        /* \"#utility.yul\":15552:15556   */\n      dup2\n        /* \"#utility.yul\":15548:15568   */\n      sub\n        /* \"#utility.yul\":15544:15545   */\n      0x00\n        /* \"#utility.yul\":15533:15542   */\n      dup4\n        /* \"#utility.yul\":15529:15546   */\n      add\n        /* \"#utility.yul\":15522:15569   */\n      mstore\n        /* \"#utility.yul\":15586:15717   */\n      tag_285\n        /* \"#utility.yul\":15712:15716   */\n      dup2\n        /* \"#utility.yul\":15586:15717   */\n      tag_129\n      jump\t// in\n    tag_285:\n        /* \"#utility.yul\":15578:15717   */\n      swap1\n      pop\n        /* \"#utility.yul\":15305:15724   */\n      swap2\n      swap1\n      pop\n      jump\t// out\n\n    auxdata: 0xa264697066735822122026b2d3e97031857443c09621a749c9eed665df630b0aedae4277b4449e62c92e64736f6c63430008120033\n}\n",
				"bytecode": {
					"linkReferences": {},
					"object": "608060405234801561001057600080fd5b5033600160006101000a81548173ffffffffffffffffffffffffffffffffffffffff021916908373ffffffffffffffffffffffffffffffffffffffff16021790555061114a806100616000396000f3fe608060405234801561001057600080fd5b50600436106100935760003560e01c8063717231081161006657806371723108146101335780638da5cb5b1461014f57806395d89b411461016d578063e75979d41461018b578063f8b2cb4f146101a757610093565b806306fdde031461009857806327e235e3146100b65780633100efb5146100e657806345576f9414610102575b600080fd5b6100a06101d7565b6040516100ad919061095b565b60405180910390f35b6100d060048036038101906100cb91906109ef565b610210565b6040516100dd9190610a35565b60405180910390f35b61010060048036038101906100fb9190610bb1565b610228565b005b61011c60048036038101906101179190610c0d565b61028c565b60405161012a929190610c71565b60405180910390f35b61014d60048036038101906101489190610c9a565b6102d3565b005b61015761064c565b6040516101649190610d67565b60405180910390f35b610175610672565b604051610182919061095b565b60405180910390f35b6101a560048036038101906101a09190610d82565b6106ab565b005b6101c160048036038101906101bc91906109ef565b610882565b6040516101ce9190610a35565b60405180910390f35b6040518060400160405280600581526020017f455243323000000000000000000000000000000000000000000000000000000081525081565b60026020528060005260406000206000915090505481565b816004826040516102399190610e67565b90815260200160405180910390206000018190555060016004826040516102609190610e67565b908152602001604051809103902060010160006101000a81548160ff0219169083151502179055505050565b6004818051602081018201805184825260208301602085012081835280955050505050506000915090508060000154908060010160009054906101000a900460ff16905082565b600073ffffffffffffffffffffffffffffffffffffffff168373ffffffffffffffffffffffffffffffffffffffff1603610342576040517f08c379a000000000000000000000000000000000000000000000000000000000815260040161033990610eca565b60405180910390fd5b600073ffffffffffffffffffffffffffffffffffffffff168273ffffffffffffffffffffffffffffffffffffffff16036103b1576040517f08c379a00000000000000000000000000000000000000000000000000000000081526004016103a890610eca565b60405180910390fd5b600115156004856040516103c59190610e67565b908152602001604051809103902060010160009054906101000a900460ff16151514610426576040517f08c379a000000000000000000000000000000000000000000000000000000000815260040161041d90610f36565b60405180910390fd5b846003600089815260200190815260200160002081905550600260008473ffffffffffffffffffffffffffffffffffffffff1673ffffffffffffffffffffffffffffffffffffffff168152602001908152602001600020548111156104c0576040517f08c379a00000000000000000000000000000000000000000000000000000000081526004016104b790610fc8565b60405180910390fd5b848610156105795780600260008573ffffffffffffffffffffffffffffffffffffffff1673ffffffffffffffffffffffffffffffffffffffff16815260200190815260200160002060008282546105179190611017565b9250508190555080600260008473ffffffffffffffffffffffffffffffffffffffff1673ffffffffffffffffffffffffffffffffffffffff168152602001908152602001600020600082825461056d919061104b565b925050819055506105d0565b80600260008573ffffffffffffffffffffffffffffffffffffffff1673ffffffffffffffffffffffffffffffffffffffff16815260200190815260200160002060008282546105c89190611017565b925050819055505b60006004856040516105e29190610e67565b908152602001604051809103902060010160006101000a81548160ff0219169083151502179055507f69ca02dd4edd7bf0a4abb9ed3b7af3f14778db5d61921c7dc7cd545266326de2828260405161063b92919061107f565b60405180910390a150505050505050565b600160009054906101000a900473ffffffffffffffffffffffffffffffffffffffff1681565b6040518060400160405280600381526020017f455243000000000000000000000000000000000000000000000000000000000081525081565b600073ffffffffffffffffffffffffffffffffffffffff168273ffffffffffffffffffffffffffffffffffffffff160361071a576040517f08c379a000000000000000000000000000000000000000000000000000000000815260040161071190610eca565b60405180910390fd5b6001151560048460405161072e9190610e67565b908152602001604051809103902060010160009054906101000a900460ff1615151461078f576040517f08c379a000000000000000000000000000000000000000000000000000000000815260040161078690610f36565b60405180910390fd5b8560036000868152602001908152602001600020819055508585106107e9576040517f08c379a00000000000000000000000000000000000000000000000000000000081526004016107e0906110f4565b60405180910390fd5b80600260008473ffffffffffffffffffffffffffffffffffffffff1673ffffffffffffffffffffffffffffffffffffffff1681526020019081526020016000206000828254610838919061104b565b925050819055507fd6717f327e0cb88b4a97a7f67a453e9258252c34937ccbdd86de7cb840e7def38260005460405161087292919061107f565b60405180910390a1505050505050565b6000600260008373ffffffffffffffffffffffffffffffffffffffff1673ffffffffffffffffffffffffffffffffffffffff168152602001908152602001600020549050919050565b600081519050919050565b600082825260208201905092915050565b60005b838110156109055780820151818401526020810190506108ea565b60008484015250505050565b6000601f19601f8301169050919050565b600061092d826108cb565b61093781856108d6565b93506109478185602086016108e7565b61095081610911565b840191505092915050565b600060208201905081810360008301526109758184610922565b905092915050565b6000604051905090565b600080fd5b600080fd5b600073ffffffffffffffffffffffffffffffffffffffff82169050919050565b60006109bc82610991565b9050919050565b6109cc816109b1565b81146109d757600080fd5b50565b6000813590506109e9816109c3565b92915050565b600060208284031215610a0557610a04610987565b5b6000610a13848285016109da565b91505092915050565b6000819050919050565b610a2f81610a1c565b82525050565b6000602082019050610a4a6000830184610a26565b92915050565b610a5981610a1c565b8114610a6457600080fd5b50565b600081359050610a7681610a50565b92915050565b600080fd5b600080fd5b7f4e487b7100000000000000000000000000000000000000000000000000000000600052604160045260246000fd5b610abe82610911565b810181811067ffffffffffffffff82111715610add57610adc610a86565b5b80604052505050565b6000610af061097d565b9050610afc8282610ab5565b919050565b600067ffffffffffffffff821115610b1c57610b1b610a86565b5b610b2582610911565b9050602081019050919050565b82818337600083830152505050565b6000610b54610b4f84610b01565b610ae6565b905082815260208101848484011115610b7057610b6f610a81565b5b610b7b848285610b32565b509392505050565b600082601f830112610b9857610b97610a7c565b5b8135610ba8848260208601610b41565b91505092915050565b60008060408385031215610bc857610bc7610987565b5b6000610bd685828601610a67565b925050602083013567ffffffffffffffff811115610bf757610bf661098c565b5b610c0385828601610b83565b9150509250929050565b600060208284031215610c2357610c22610987565b5b600082013567ffffffffffffffff811115610c4157610c4061098c565b5b610c4d84828501610b83565b91505092915050565b60008115159050919050565b610c6b81610c56565b82525050565b6000604082019050610c866000830185610a26565b610c936020830184610c62565b9392505050565b600080600080600080600060e0888a031215610cb957610cb8610987565b5b6000610cc78a828b01610a67565b9750506020610cd88a828b01610a67565b9650506040610ce98a828b01610a67565b955050606088013567ffffffffffffffff811115610d0a57610d0961098c565b5b610d168a828b01610b83565b9450506080610d278a828b016109da565b93505060a0610d388a828b016109da565b92505060c0610d498a828b01610a67565b91505092959891949750929550565b610d61816109b1565b82525050565b6000602082019050610d7c6000830184610d58565b92915050565b60008060008060008060c08789031215610d9f57610d9e610987565b5b6000610dad89828a01610a67565b9650506020610dbe89828a01610a67565b9550506040610dcf89828a01610a67565b945050606087013567ffffffffffffffff811115610df057610def61098c565b5b610dfc89828a01610b83565b9350506080610e0d89828a016109da565b92505060a0610e1e89828a01610a67565b9150509295509295509295565b600081905092915050565b6000610e41826108cb565b610e4b8185610e2b565b9350610e5b8185602086016108e7565b80840191505092915050565b6000610e738284610e36565b915081905092915050565b7f496e76616c696420616464726573730000000000000000000000000000000000600082015250565b6000610eb4600f836108d6565b9150610ebf82610e7e565b602082019050919050565b60006020820190508181036000830152610ee381610ea7565b9050919050565b7f546f6b656e20686173206e6f7420637265617465640000000000000000000000600082015250565b6000610f206015836108d6565b9150610f2b82610eea565b602082019050919050565b60006020820190508181036000830152610f4f81610f13565b9050919050565b7f4e6f2073756666696369656e742062616c616e636520696e207468652061636360008201527f6f756e7400000000000000000000000000000000000000000000000000000000602082015250565b6000610fb26024836108d6565b9150610fbd82610f56565b604082019050919050565b60006020820190508181036000830152610fe181610fa5565b9050919050565b7f4e487b7100000000000000000000000000000000000000000000000000000000600052601160045260246000fd5b600061102282610a1c565b915061102d83610a1c565b925082820390508181111561104557611044610fe8565b5b92915050565b600061105682610a1c565b915061106183610a1c565b925082820190508082111561107957611078610fe8565b5b92915050565b60006040820190506110946000830185610d58565b6110a16020830184610a26565b9392505050565b7f536f7272792120546f6b656e2068617320657870697265640000000000000000600082015250565b60006110de6018836108d6565b91506110e9826110a8565b602082019050919050565b6000602082019050818103600083015261110d816110d1565b905091905056fea264697066735822122026b2d3e97031857443c09621a749c9eed665df630b0aedae4277b4449e62c92e64736f6c63430008120033",
					"opcodes": "PUSH1 0x80 PUSH1 0x40 MSTORE CALLVALUE DUP1 ISZERO PUSH2 0x10 JUMPI PUSH1 0x0 DUP1 REVERT JUMPDEST POP CALLER PUSH1 0x1 PUSH1 0x0 PUSH2 0x100 EXP DUP2 SLOAD DUP2 PUSH20 0xFFFFFFFFFFFFFFFFFFFFFFFFFFFFFFFFFFFFFFFF MUL NOT AND SWAP1 DUP4 PUSH20 0xFFFFFFFFFFFFFFFFFFFFFFFFFFFFFFFFFFFFFFFF AND MUL OR SWAP1 SSTORE POP PUSH2 0x114A DUP1 PUSH2 0x61 PUSH1 0x0 CODECOPY PUSH1 0x0 RETURN INVALID PUSH1 0x80 PUSH1 0x40 MSTORE CALLVALUE DUP1 ISZERO PUSH2 0x10 JUMPI PUSH1 0x0 DUP1 REVERT JUMPDEST POP PUSH1 0x4 CALLDATASIZE LT PUSH2 0x93 JUMPI PUSH1 0x0 CALLDATALOAD PUSH1 0xE0 SHR DUP1 PUSH4 0x71723108 GT PUSH2 0x66 JUMPI DUP1 PUSH4 0x71723108 EQ PUSH2 0x133 JUMPI DUP1 PUSH4 0x8DA5CB5B EQ PUSH2 0x14F JUMPI DUP1 PUSH4 0x95D89B41 EQ PUSH2 0x16D JUMPI DUP1 PUSH4 0xE75979D4 EQ PUSH2 0x18B JUMPI DUP1 PUSH4 0xF8B2CB4F EQ PUSH2 0x1A7 JUMPI PUSH2 0x93 JUMP JUMPDEST DUP1 PUSH4 0x6FDDE03 EQ PUSH2 0x98 JUMPI DUP1 PUSH4 0x27E235E3 EQ PUSH2 0xB6 JUMPI DUP1 PUSH4 0x3100EFB5 EQ PUSH2 0xE6 JUMPI DUP1 PUSH4 0x45576F94 EQ PUSH2 0x102 JUMPI JUMPDEST PUSH1 0x0 DUP1 REVERT JUMPDEST PUSH2 0xA0 PUSH2 0x1D7 JUMP JUMPDEST PUSH1 0x40 MLOAD PUSH2 0xAD SWAP2 SWAP1 PUSH2 0x95B JUMP JUMPDEST PUSH1 0x40 MLOAD DUP1 SWAP2 SUB SWAP1 RETURN JUMPDEST PUSH2 0xD0 PUSH1 0x4 DUP1 CALLDATASIZE SUB DUP2 ADD SWAP1 PUSH2 0xCB SWAP2 SWAP1 PUSH2 0x9EF JUMP JUMPDEST PUSH2 0x210 JUMP JUMPDEST PUSH1 0x40 MLOAD PUSH2 0xDD SWAP2 SWAP1 PUSH2 0xA35 JUMP JUMPDEST PUSH1 0x40 MLOAD DUP1 SWAP2 SUB SWAP1 RETURN JUMPDEST PUSH2 0x100 PUSH1 0x4 DUP1 CALLDATASIZE SUB DUP2 ADD SWAP1 PUSH2 0xFB SWAP2 SWAP1 PUSH2 0xBB1 JUMP JUMPDEST PUSH2 0x228 JUMP JUMPDEST STOP JUMPDEST PUSH2 0x11C PUSH1 0x4 DUP1 CALLDATASIZE SUB DUP2 ADD SWAP1 PUSH2 0x117 SWAP2 SWAP1 PUSH2 0xC0D JUMP JUMPDEST PUSH2 0x28C JUMP JUMPDEST PUSH1 0x40 MLOAD PUSH2 0x12A SWAP3 SWAP2 SWAP1 PUSH2 0xC71 JUMP JUMPDEST PUSH1 0x40 MLOAD DUP1 SWAP2 SUB SWAP1 RETURN JUMPDEST PUSH2 0x14D PUSH1 0x4 DUP1 CALLDATASIZE SUB DUP2 ADD SWAP1 PUSH2 0x148 SWAP2 SWAP1 PUSH2 0xC9A JUMP JUMPDEST PUSH2 0x2D3 JUMP JUMPDEST STOP JUMPDEST PUSH2 0x157 PUSH2 0x64C JUMP JUMPDEST PUSH1 0x40 MLOAD PUSH2 0x164 SWAP2 SWAP1 PUSH2 0xD67 JUMP JUMPDEST PUSH1 0x40 MLOAD DUP1 SWAP2 SUB SWAP1 RETURN JUMPDEST PUSH2 0x175 PUSH2 0x672 JUMP JUMPDEST PUSH1 0x40 MLOAD PUSH2 0x182 SWAP2 SWAP1 PUSH2 0x95B JUMP JUMPDEST PUSH1 0x40 MLOAD DUP1 SWAP2 SUB SWAP1 RETURN JUMPDEST PUSH2 0x1A5 PUSH1 0x4 DUP1 CALLDATASIZE SUB DUP2 ADD SWAP1 PUSH2 0x1A0 SWAP2 SWAP1 PUSH2 0xD82 JUMP JUMPDEST PUSH2 0x6AB JUMP JUMPDEST STOP JUMPDEST PUSH2 0x1C1 PUSH1 0x4 DUP1 CALLDATASIZE SUB DUP2 ADD SWAP1 PUSH2 0x1BC SWAP2 SWAP1 PUSH2 0x9EF JUMP JUMPDEST PUSH2 0x882 JUMP JUMPDEST PUSH1 0x40 MLOAD PUSH2 0x1CE SWAP2 SWAP1 PUSH2 0xA35 JUMP JUMPDEST PUSH1 0x40 MLOAD DUP1 SWAP2 SUB SWAP1 RETURN JUMPDEST PUSH1 0x40 MLOAD DUP1 PUSH1 0x40 ADD PUSH1 0x40 MSTORE DUP1 PUSH1 0x5 DUP2 MSTORE PUSH1 0x20 ADD PUSH32 0x4552433230000000000000000000000000000000000000000000000000000000 DUP2 MSTORE POP DUP2 JUMP JUMPDEST PUSH1 0x2 PUSH1 0x20 MSTORE DUP1 PUSH1 0x0 MSTORE PUSH1 0x40 PUSH1 0x0 KECCAK256 PUSH1 0x0 SWAP2 POP SWAP1 POP SLOAD DUP2 JUMP JUMPDEST DUP2 PUSH1 0x4 DUP3 PUSH1 0x40 MLOAD PUSH2 0x239 SWAP2 SWAP1 PUSH2 0xE67 JUMP JUMPDEST SWAP1 DUP2 MSTORE PUSH1 0x20 ADD PUSH1 0x40 MLOAD DUP1 SWAP2 SUB SWAP1 KECCAK256 PUSH1 0x0 ADD DUP2 SWAP1 SSTORE POP PUSH1 0x1 PUSH1 0x4 DUP3 PUSH1 0x40 MLOAD PUSH2 0x260 SWAP2 SWAP1 PUSH2 0xE67 JUMP JUMPDEST SWAP1 DUP2 MSTORE PUSH1 0x20 ADD PUSH1 0x40 MLOAD DUP1 SWAP2 SUB SWAP1 KECCAK256 PUSH1 0x1 ADD PUSH1 0x0 PUSH2 0x100 EXP DUP2 SLOAD DUP2 PUSH1 0xFF MUL NOT AND SWAP1 DUP4 ISZERO ISZERO MUL OR SWAP1 SSTORE POP POP POP JUMP JUMPDEST PUSH1 0x4 DUP2 DUP1 MLOAD PUSH1 0x20 DUP2 ADD DUP3 ADD DUP1 MLOAD DUP5 DUP3 MSTORE PUSH1 0x20 DUP4 ADD PUSH1 0x20 DUP6 ADD KECCAK256 DUP2 DUP4 MSTORE DUP1 SWAP6 POP POP POP POP POP POP PUSH1 0x0 SWAP2 POP SWAP1 POP DUP1 PUSH1 0x0 ADD SLOAD SWAP1 DUP1 PUSH1 0x1 ADD PUSH1 0x0 SWAP1 SLOAD SWAP1 PUSH2 0x100 EXP SWAP1 DIV PUSH1 0xFF AND SWAP1 POP DUP3 JUMP JUMPDEST PUSH1 0x0 PUSH20 0xFFFFFFFFFFFFFFFFFFFFFFFFFFFFFFFFFFFFFFFF AND DUP4 PUSH20 0xFFFFFFFFFFFFFFFFFFFFFFFFFFFFFFFFFFFFFFFF AND SUB PUSH2 0x342 JUMPI PUSH1 0x40 MLOAD PUSH32 0x8C379A000000000000000000000000000000000000000000000000000000000 DUP2 MSTORE PUSH1 0x4 ADD PUSH2 0x339 SWAP1 PUSH2 0xECA JUMP JUMPDEST PUSH1 0x40 MLOAD DUP1 SWAP2 SUB SWAP1 REVERT JUMPDEST PUSH1 0x0 PUSH20 0xFFFFFFFFFFFFFFFFFFFFFFFFFFFFFFFFFFFFFFFF AND DUP3 PUSH20 0xFFFFFFFFFFFFFFFFFFFFFFFFFFFFFFFFFFFFFFFF AND SUB PUSH2 0x3B1 JUMPI PUSH1 0x40 MLOAD PUSH32 0x8C379A000000000000000000000000000000000000000000000000000000000 DUP2 MSTORE PUSH1 0x4 ADD PUSH2 0x3A8 SWAP1 PUSH2 0xECA JUMP JUMPDEST PUSH1 0x40 MLOAD DUP1 SWAP2 SUB SWAP1 REVERT JUMPDEST PUSH1 0x1 ISZERO ISZERO PUSH1 0x4 DUP6 PUSH1 0x40 MLOAD PUSH2 0x3C5 SWAP2 SWAP1 PUSH2 0xE67 JUMP JUMPDEST SWAP1 DUP2 MSTORE PUSH1 0x20 ADD PUSH1 0x40 MLOAD DUP1 SWAP2 SUB SWAP1 KECCAK256 PUSH1 0x1 ADD PUSH1 0x0 SWAP1 SLOAD SWAP1 PUSH2 0x100 EXP SWAP1 DIV PUSH1 0xFF AND ISZERO ISZERO EQ PUSH2 0x426 JUMPI PUSH1 0x40 MLOAD PUSH32 0x8C379A000000000000000000000000000000000000000000000000000000000 DUP2 MSTORE PUSH1 0x4 ADD PUSH2 0x41D SWAP1 PUSH2 0xF36 JUMP JUMPDEST PUSH1 0x40 MLOAD DUP1 SWAP2 SUB SWAP1 REVERT JUMPDEST DUP5 PUSH1 0x3 PUSH1 0x0 DUP10 DUP2 MSTORE PUSH1 0x20 ADD SWAP1 DUP2 MSTORE PUSH1 0x20 ADD PUSH1 0x0 KECCAK256 DUP2 SWAP1 SSTORE POP PUSH1 0x2 PUSH1 0x0 DUP5 PUSH20 0xFFFFFFFFFFFFFFFFFFFFFFFFFFFFFFFFFFFFFFFF AND PUSH20 0xFFFFFFFFFFFFFFFFFFFFFFFFFFFFFFFFFFFFFFFF AND DUP2 MSTORE PUSH1 0x20 ADD SWAP1 DUP2 MSTORE PUSH1 0x20 ADD PUSH1 0x0 KECCAK256 SLOAD DUP2 GT ISZERO PUSH2 0x4C0 JUMPI PUSH1 0x40 MLOAD PUSH32 0x8C379A000000000000000000000000000000000000000000000000000000000 DUP2 MSTORE PUSH1 0x4 ADD PUSH2 0x4B7 SWAP1 PUSH2 0xFC8 JUMP JUMPDEST PUSH1 0x40 MLOAD DUP1 SWAP2 SUB SWAP1 REVERT JUMPDEST DUP5 DUP7 LT ISZERO PUSH2 0x579 JUMPI DUP1 PUSH1 0x2 PUSH1 0x0 DUP6 PUSH20 0xFFFFFFFFFFFFFFFFFFFFFFFFFFFFFFFFFFFFFFFF AND PUSH20 0xFFFFFFFFFFFFFFFFFFFFFFFFFFFFFFFFFFFFFFFF AND DUP2 MSTORE PUSH1 0x20 ADD SWAP1 DUP2 MSTORE PUSH1 0x20 ADD PUSH1 0x0 KECCAK256 PUSH1 0x0 DUP3 DUP3 SLOAD PUSH2 0x517 SWAP2 SWAP1 PUSH2 0x1017 JUMP JUMPDEST SWAP3 POP POP DUP2 SWAP1 SSTORE POP DUP1 PUSH1 0x2 PUSH1 0x0 DUP5 PUSH20 0xFFFFFFFFFFFFFFFFFFFFFFFFFFFFFFFFFFFFFFFF AND PUSH20 0xFFFFFFFFFFFFFFFFFFFFFFFFFFFFFFFFFFFFFFFF AND DUP2 MSTORE PUSH1 0x20 ADD SWAP1 DUP2 MSTORE PUSH1 0x20 ADD PUSH1 0x0 KECCAK256 PUSH1 0x0 DUP3 DUP3 SLOAD PUSH2 0x56D SWAP2 SWAP1 PUSH2 0x104B JUMP JUMPDEST SWAP3 POP POP DUP2 SWAP1 SSTORE POP PUSH2 0x5D0 JUMP JUMPDEST DUP1 PUSH1 0x2 PUSH1 0x0 DUP6 PUSH20 0xFFFFFFFFFFFFFFFFFFFFFFFFFFFFFFFFFFFFFFFF AND PUSH20 0xFFFFFFFFFFFFFFFFFFFFFFFFFFFFFFFFFFFFFFFF AND DUP2 MSTORE PUSH1 0x20 ADD SWAP1 DUP2 MSTORE PUSH1 0x20 ADD PUSH1 0x0 KECCAK256 PUSH1 0x0 DUP3 DUP3 SLOAD PUSH2 0x5C8 SWAP2 SWAP1 PUSH2 0x1017 JUMP JUMPDEST SWAP3 POP POP DUP2 SWAP1 SSTORE POP JUMPDEST PUSH1 0x0 PUSH1 0x4 DUP6 PUSH1 0x40 MLOAD PUSH2 0x5E2 SWAP2 SWAP1 PUSH2 0xE67 JUMP JUMPDEST SWAP1 DUP2 MSTORE PUSH1 0x20 ADD PUSH1 0x40 MLOAD DUP1 SWAP2 SUB SWAP1 KECCAK256 PUSH1 0x1 ADD PUSH1 0x0 PUSH2 0x100 EXP DUP2 SLOAD DUP2 PUSH1 0xFF MUL NOT AND SWAP1 DUP4 ISZERO ISZERO MUL OR SWAP1 SSTORE POP PUSH32 0x69CA02DD4EDD7BF0A4ABB9ED3B7AF3F14778DB5D61921C7DC7CD545266326DE2 DUP3 DUP3 PUSH1 0x40 MLOAD PUSH2 0x63B SWAP3 SWAP2 SWAP1 PUSH2 0x107F JUMP JUMPDEST PUSH1 0x40 MLOAD DUP1 SWAP2 SUB SWAP1 LOG1 POP POP POP POP POP POP POP JUMP JUMPDEST PUSH1 0x1 PUSH1 0x0 SWAP1 SLOAD SWAP1 PUSH2 0x100 EXP SWAP1 DIV PUSH20 0xFFFFFFFFFFFFFFFFFFFFFFFFFFFFFFFFFFFFFFFF AND DUP2 JUMP JUMPDEST PUSH1 0x40 MLOAD DUP1 PUSH1 0x40 ADD PUSH1 0x40 MSTORE DUP1 PUSH1 0x3 DUP2 MSTORE PUSH1 0x20 ADD PUSH32 0x4552430000000000000000000000000000000000000000000000000000000000 DUP2 MSTORE POP DUP2 JUMP JUMPDEST PUSH1 0x0 PUSH20 0xFFFFFFFFFFFFFFFFFFFFFFFFFFFFFFFFFFFFFFFF AND DUP3 PUSH20 0xFFFFFFFFFFFFFFFFFFFFFFFFFFFFFFFFFFFFFFFF AND SUB PUSH2 0x71A JUMPI PUSH1 0x40 MLOAD PUSH32 0x8C379A000000000000000000000000000000000000000000000000000000000 DUP2 MSTORE PUSH1 0x4 ADD PUSH2 0x711 SWAP1 PUSH2 0xECA JUMP JUMPDEST PUSH1 0x40 MLOAD DUP1 SWAP2 SUB SWAP1 REVERT JUMPDEST PUSH1 0x1 ISZERO ISZERO PUSH1 0x4 DUP5 PUSH1 0x40 MLOAD PUSH2 0x72E SWAP2 SWAP1 PUSH2 0xE67 JUMP JUMPDEST SWAP1 DUP2 MSTORE PUSH1 0x20 ADD PUSH1 0x40 MLOAD DUP1 SWAP2 SUB SWAP1 KECCAK256 PUSH1 0x1 ADD PUSH1 0x0 SWAP1 SLOAD SWAP1 PUSH2 0x100 EXP SWAP1 DIV PUSH1 0xFF AND ISZERO ISZERO EQ PUSH2 0x78F JUMPI PUSH1 0x40 MLOAD PUSH32 0x8C379A000000000000000000000000000000000000000000000000000000000 DUP2 MSTORE PUSH1 0x4 ADD PUSH2 0x786 SWAP1 PUSH2 0xF36 JUMP JUMPDEST PUSH1 0x40 MLOAD DUP1 SWAP2 SUB SWAP1 REVERT JUMPDEST DUP6 PUSH1 0x3 PUSH1 0x0 DUP7 DUP2 MSTORE PUSH1 0x20 ADD SWAP1 DUP2 MSTORE PUSH1 0x20 ADD PUSH1 0x0 KECCAK256 DUP2 SWAP1 SSTORE POP DUP6 DUP6 LT PUSH2 0x7E9 JUMPI PUSH1 0x40 MLOAD PUSH32 0x8C379A000000000000000000000000000000000000000000000000000000000 DUP2 MSTORE PUSH1 0x4 ADD PUSH2 0x7E0 SWAP1 PUSH2 0x10F4 JUMP JUMPDEST PUSH1 0x40 MLOAD DUP1 SWAP2 SUB SWAP1 REVERT JUMPDEST DUP1 PUSH1 0x2 PUSH1 0x0 DUP5 PUSH20 0xFFFFFFFFFFFFFFFFFFFFFFFFFFFFFFFFFFFFFFFF AND PUSH20 0xFFFFFFFFFFFFFFFFFFFFFFFFFFFFFFFFFFFFFFFF AND DUP2 MSTORE PUSH1 0x20 ADD SWAP1 DUP2 MSTORE PUSH1 0x20 ADD PUSH1 0x0 KECCAK256 PUSH1 0x0 DUP3 DUP3 SLOAD PUSH2 0x838 SWAP2 SWAP1 PUSH2 0x104B JUMP JUMPDEST SWAP3 POP POP DUP2 SWAP1 SSTORE POP PUSH32 0xD6717F327E0CB88B4A97A7F67A453E9258252C34937CCBDD86DE7CB840E7DEF3 DUP3 PUSH1 0x0 SLOAD PUSH1 0x40 MLOAD PUSH2 0x872 SWAP3 SWAP2 SWAP1 PUSH2 0x107F JUMP JUMPDEST PUSH1 0x40 MLOAD DUP1 SWAP2 SUB SWAP1 LOG1 POP POP POP POP POP POP JUMP JUMPDEST PUSH1 0x0 PUSH1 0x2 PUSH1 0x0 DUP4 PUSH20 0xFFFFFFFFFFFFFFFFFFFFFFFFFFFFFFFFFFFFFFFF AND PUSH20 0xFFFFFFFFFFFFFFFFFFFFFFFFFFFFFFFFFFFFFFFF AND DUP2 MSTORE PUSH1 0x20 ADD SWAP1 DUP2 MSTORE PUSH1 0x20 ADD PUSH1 0x0 KECCAK256 SLOAD SWAP1 POP SWAP2 SWAP1 POP JUMP JUMPDEST PUSH1 0x0 DUP2 MLOAD SWAP1 POP SWAP2 SWAP1 POP JUMP JUMPDEST PUSH1 0x0 DUP3 DUP3 MSTORE PUSH1 0x20 DUP3 ADD SWAP1 POP SWAP3 SWAP2 POP POP JUMP JUMPDEST PUSH1 0x0 JUMPDEST DUP4 DUP2 LT ISZERO PUSH2 0x905 JUMPI DUP1 DUP3 ADD MLOAD DUP2 DUP5 ADD MSTORE PUSH1 0x20 DUP2 ADD SWAP1 POP PUSH2 0x8EA JUMP JUMPDEST PUSH1 0x0 DUP5 DUP5 ADD MSTORE POP POP POP POP JUMP JUMPDEST PUSH1 0x0 PUSH1 0x1F NOT PUSH1 0x1F DUP4 ADD AND SWAP1 POP SWAP2 SWAP1 POP JUMP JUMPDEST PUSH1 0x0 PUSH2 0x92D DUP3 PUSH2 0x8CB JUMP JUMPDEST PUSH2 0x937 DUP2 DUP6 PUSH2 0x8D6 JUMP JUMPDEST SWAP4 POP PUSH2 0x947 DUP2 DUP6 PUSH1 0x20 DUP7 ADD PUSH2 0x8E7 JUMP JUMPDEST PUSH2 0x950 DUP2 PUSH2 0x911 JUMP JUMPDEST DUP5 ADD SWAP2 POP POP SWAP3 SWAP2 POP POP JUMP JUMPDEST PUSH1 0x0 PUSH1 0x20 DUP3 ADD SWAP1 POP DUP2 DUP2 SUB PUSH1 0x0 DUP4 ADD MSTORE PUSH2 0x975 DUP2 DUP5 PUSH2 0x922 JUMP JUMPDEST SWAP1 POP SWAP3 SWAP2 POP POP JUMP JUMPDEST PUSH1 0x0 PUSH1 0x40 MLOAD SWAP1 POP SWAP1 JUMP JUMPDEST PUSH1 0x0 DUP1 REVERT JUMPDEST PUSH1 0x0 DUP1 REVERT JUMPDEST PUSH1 0x0 PUSH20 0xFFFFFFFFFFFFFFFFFFFFFFFFFFFFFFFFFFFFFFFF DUP3 AND SWAP1 POP SWAP2 SWAP1 POP JUMP JUMPDEST PUSH1 0x0 PUSH2 0x9BC DUP3 PUSH2 0x991 JUMP JUMPDEST SWAP1 POP SWAP2 SWAP1 POP JUMP JUMPDEST PUSH2 0x9CC DUP2 PUSH2 0x9B1 JUMP JUMPDEST DUP2 EQ PUSH2 0x9D7 JUMPI PUSH1 0x0 DUP1 REVERT JUMPDEST POP JUMP JUMPDEST PUSH1 0x0 DUP2 CALLDATALOAD SWAP1 POP PUSH2 0x9E9 DUP2 PUSH2 0x9C3 JUMP JUMPDEST SWAP3 SWAP2 POP POP JUMP JUMPDEST PUSH1 0x0 PUSH1 0x20 DUP3 DUP5 SUB SLT ISZERO PUSH2 0xA05 JUMPI PUSH2 0xA04 PUSH2 0x987 JUMP JUMPDEST JUMPDEST PUSH1 0x0 PUSH2 0xA13 DUP5 DUP3 DUP6 ADD PUSH2 0x9DA JUMP JUMPDEST SWAP2 POP POP SWAP3 SWAP2 POP POP JUMP JUMPDEST PUSH1 0x0 DUP2 SWAP1 POP SWAP2 SWAP1 POP JUMP JUMPDEST PUSH2 0xA2F DUP2 PUSH2 0xA1C JUMP JUMPDEST DUP3 MSTORE POP POP JUMP JUMPDEST PUSH1 0x0 PUSH1 0x20 DUP3 ADD SWAP1 POP PUSH2 0xA4A PUSH1 0x0 DUP4 ADD DUP5 PUSH2 0xA26 JUMP JUMPDEST SWAP3 SWAP2 POP POP JUMP JUMPDEST PUSH2 0xA59 DUP2 PUSH2 0xA1C JUMP JUMPDEST DUP2 EQ PUSH2 0xA64 JUMPI PUSH1 0x0 DUP1 REVERT JUMPDEST POP JUMP JUMPDEST PUSH1 0x0 DUP2 CALLDATALOAD SWAP1 POP PUSH2 0xA76 DUP2 PUSH2 0xA50 JUMP JUMPDEST SWAP3 SWAP2 POP POP JUMP JUMPDEST PUSH1 0x0 DUP1 REVERT JUMPDEST PUSH1 0x0 DUP1 REVERT JUMPDEST PUSH32 0x4E487B7100000000000000000000000000000000000000000000000000000000 PUSH1 0x0 MSTORE PUSH1 0x41 PUSH1 0x4 MSTORE PUSH1 0x24 PUSH1 0x0 REVERT JUMPDEST PUSH2 0xABE DUP3 PUSH2 0x911 JUMP JUMPDEST DUP2 ADD DUP2 DUP2 LT PUSH8 0xFFFFFFFFFFFFFFFF DUP3 GT OR ISZERO PUSH2 0xADD JUMPI PUSH2 0xADC PUSH2 0xA86 JUMP JUMPDEST JUMPDEST DUP1 PUSH1 0x40 MSTORE POP POP POP JUMP JUMPDEST PUSH1 0x0 PUSH2 0xAF0 PUSH2 0x97D JUMP JUMPDEST SWAP1 POP PUSH2 0xAFC DUP3 DUP3 PUSH2 0xAB5 JUMP JUMPDEST SWAP2 SWAP1 POP JUMP JUMPDEST PUSH1 0x0 PUSH8 0xFFFFFFFFFFFFFFFF DUP3 GT ISZERO PUSH2 0xB1C JUMPI PUSH2 0xB1B PUSH2 0xA86 JUMP JUMPDEST JUMPDEST PUSH2 0xB25 DUP3 PUSH2 0x911 JUMP JUMPDEST SWAP1 POP PUSH1 0x20 DUP2 ADD SWAP1 POP SWAP2 SWAP1 POP JUMP JUMPDEST DUP3 DUP2 DUP4 CALLDATACOPY PUSH1 0x0 DUP4 DUP4 ADD MSTORE POP POP POP JUMP JUMPDEST PUSH1 0x0 PUSH2 0xB54 PUSH2 0xB4F DUP5 PUSH2 0xB01 JUMP JUMPDEST PUSH2 0xAE6 JUMP JUMPDEST SWAP1 POP DUP3 DUP2 MSTORE PUSH1 0x20 DUP2 ADD DUP5 DUP5 DUP5 ADD GT ISZERO PUSH2 0xB70 JUMPI PUSH2 0xB6F PUSH2 0xA81 JUMP JUMPDEST JUMPDEST PUSH2 0xB7B DUP5 DUP3 DUP6 PUSH2 0xB32 JUMP JUMPDEST POP SWAP4 SWAP3 POP POP POP JUMP JUMPDEST PUSH1 0x0 DUP3 PUSH1 0x1F DUP4 ADD SLT PUSH2 0xB98 JUMPI PUSH2 0xB97 PUSH2 0xA7C JUMP JUMPDEST JUMPDEST DUP2 CALLDATALOAD PUSH2 0xBA8 DUP5 DUP3 PUSH1 0x20 DUP7 ADD PUSH2 0xB41 JUMP JUMPDEST SWAP2 POP POP SWAP3 SWAP2 POP POP JUMP JUMPDEST PUSH1 0x0 DUP1 PUSH1 0x40 DUP4 DUP6 SUB SLT ISZERO PUSH2 0xBC8 JUMPI PUSH2 0xBC7 PUSH2 0x987 JUMP JUMPDEST JUMPDEST PUSH1 0x0 PUSH2 0xBD6 DUP6 DUP3 DUP7 ADD PUSH2 0xA67 JUMP JUMPDEST SWAP3 POP POP PUSH1 0x20 DUP4 ADD CALLDATALOAD PUSH8 0xFFFFFFFFFFFFFFFF DUP2 GT ISZERO PUSH2 0xBF7 JUMPI PUSH2 0xBF6 PUSH2 0x98C JUMP JUMPDEST JUMPDEST PUSH2 0xC03 DUP6 DUP3 DUP7 ADD PUSH2 0xB83 JUMP JUMPDEST SWAP2 POP POP SWAP3 POP SWAP3 SWAP1 POP JUMP JUMPDEST PUSH1 0x0 PUSH1 0x20 DUP3 DUP5 SUB SLT ISZERO PUSH2 0xC23 JUMPI PUSH2 0xC22 PUSH2 0x987 JUMP JUMPDEST JUMPDEST PUSH1 0x0 DUP3 ADD CALLDATALOAD PUSH8 0xFFFFFFFFFFFFFFFF DUP2 GT ISZERO PUSH2 0xC41 JUMPI PUSH2 0xC40 PUSH2 0x98C JUMP JUMPDEST JUMPDEST PUSH2 0xC4D DUP5 DUP3 DUP6 ADD PUSH2 0xB83 JUMP JUMPDEST SWAP2 POP POP SWAP3 SWAP2 POP POP JUMP JUMPDEST PUSH1 0x0 DUP2 ISZERO ISZERO SWAP1 POP SWAP2 SWAP1 POP JUMP JUMPDEST PUSH2 0xC6B DUP2 PUSH2 0xC56 JUMP JUMPDEST DUP3 MSTORE POP POP JUMP JUMPDEST PUSH1 0x0 PUSH1 0x40 DUP3 ADD SWAP1 POP PUSH2 0xC86 PUSH1 0x0 DUP4 ADD DUP6 PUSH2 0xA26 JUMP JUMPDEST PUSH2 0xC93 PUSH1 0x20 DUP4 ADD DUP5 PUSH2 0xC62 JUMP JUMPDEST SWAP4 SWAP3 POP POP POP JUMP JUMPDEST PUSH1 0x0 DUP1 PUSH1 0x0 DUP1 PUSH1 0x0 DUP1 PUSH1 0x0 PUSH1 0xE0 DUP9 DUP11 SUB SLT ISZERO PUSH2 0xCB9 JUMPI PUSH2 0xCB8 PUSH2 0x987 JUMP JUMPDEST JUMPDEST PUSH1 0x0 PUSH2 0xCC7 DUP11 DUP3 DUP12 ADD PUSH2 0xA67 JUMP JUMPDEST SWAP8 POP POP PUSH1 0x20 PUSH2 0xCD8 DUP11 DUP3 DUP12 ADD PUSH2 0xA67 JUMP JUMPDEST SWAP7 POP POP PUSH1 0x40 PUSH2 0xCE9 DUP11 DUP3 DUP12 ADD PUSH2 0xA67 JUMP JUMPDEST SWAP6 POP POP PUSH1 0x60 DUP9 ADD CALLDATALOAD PUSH8 0xFFFFFFFFFFFFFFFF DUP2 GT ISZERO PUSH2 0xD0A JUMPI PUSH2 0xD09 PUSH2 0x98C JUMP JUMPDEST JUMPDEST PUSH2 0xD16 DUP11 DUP3 DUP12 ADD PUSH2 0xB83 JUMP JUMPDEST SWAP5 POP POP PUSH1 0x80 PUSH2 0xD27 DUP11 DUP3 DUP12 ADD PUSH2 0x9DA JUMP JUMPDEST SWAP4 POP POP PUSH1 0xA0 PUSH2 0xD38 DUP11 DUP3 DUP12 ADD PUSH2 0x9DA JUMP JUMPDEST SWAP3 POP POP PUSH1 0xC0 PUSH2 0xD49 DUP11 DUP3 DUP12 ADD PUSH2 0xA67 JUMP JUMPDEST SWAP2 POP POP SWAP3 SWAP6 SWAP9 SWAP2 SWAP5 SWAP8 POP SWAP3 SWAP6 POP JUMP JUMPDEST PUSH2 0xD61 DUP2 PUSH2 0x9B1 JUMP JUMPDEST DUP3 MSTORE POP POP JUMP JUMPDEST PUSH1 0x0 PUSH1 0x20 DUP3 ADD SWAP1 POP PUSH2 0xD7C PUSH1 0x0 DUP4 ADD DUP5 PUSH2 0xD58 JUMP JUMPDEST SWAP3 SWAP2 POP POP JUMP JUMPDEST PUSH1 0x0 DUP1 PUSH1 0x0 DUP1 PUSH1 0x0 DUP1 PUSH1 0xC0 DUP8 DUP10 SUB SLT ISZERO PUSH2 0xD9F JUMPI PUSH2 0xD9E PUSH2 0x987 JUMP JUMPDEST JUMPDEST PUSH1 0x0 PUSH2 0xDAD DUP10 DUP3 DUP11 ADD PUSH2 0xA67 JUMP JUMPDEST SWAP7 POP POP PUSH1 0x20 PUSH2 0xDBE DUP10 DUP3 DUP11 ADD PUSH2 0xA67 JUMP JUMPDEST SWAP6 POP POP PUSH1 0x40 PUSH2 0xDCF DUP10 DUP3 DUP11 ADD PUSH2 0xA67 JUMP JUMPDEST SWAP5 POP POP PUSH1 0x60 DUP8 ADD CALLDATALOAD PUSH8 0xFFFFFFFFFFFFFFFF DUP2 GT ISZERO PUSH2 0xDF0 JUMPI PUSH2 0xDEF PUSH2 0x98C JUMP JUMPDEST JUMPDEST PUSH2 0xDFC DUP10 DUP3 DUP11 ADD PUSH2 0xB83 JUMP JUMPDEST SWAP4 POP POP PUSH1 0x80 PUSH2 0xE0D DUP10 DUP3 DUP11 ADD PUSH2 0x9DA JUMP JUMPDEST SWAP3 POP POP PUSH1 0xA0 PUSH2 0xE1E DUP10 DUP3 DUP11 ADD PUSH2 0xA67 JUMP JUMPDEST SWAP2 POP POP SWAP3 SWAP6 POP SWAP3 SWAP6 POP SWAP3 SWAP6 JUMP JUMPDEST PUSH1 0x0 DUP2 SWAP1 POP SWAP3 SWAP2 POP POP JUMP JUMPDEST PUSH1 0x0 PUSH2 0xE41 DUP3 PUSH2 0x8CB JUMP JUMPDEST PUSH2 0xE4B DUP2 DUP6 PUSH2 0xE2B JUMP JUMPDEST SWAP4 POP PUSH2 0xE5B DUP2 DUP6 PUSH1 0x20 DUP7 ADD PUSH2 0x8E7 JUMP JUMPDEST DUP1 DUP5 ADD SWAP2 POP POP SWAP3 SWAP2 POP POP JUMP JUMPDEST PUSH1 0x0 PUSH2 0xE73 DUP3 DUP5 PUSH2 0xE36 JUMP JUMPDEST SWAP2 POP DUP2 SWAP1 POP SWAP3 SWAP2 POP POP JUMP JUMPDEST PUSH32 0x496E76616C696420616464726573730000000000000000000000000000000000 PUSH1 0x0 DUP3 ADD MSTORE POP JUMP JUMPDEST PUSH1 0x0 PUSH2 0xEB4 PUSH1 0xF DUP4 PUSH2 0x8D6 JUMP JUMPDEST SWAP2 POP PUSH2 0xEBF DUP3 PUSH2 0xE7E JUMP JUMPDEST PUSH1 0x20 DUP3 ADD SWAP1 POP SWAP2 SWAP1 POP JUMP JUMPDEST PUSH1 0x0 PUSH1 0x20 DUP3 ADD SWAP1 POP DUP2 DUP2 SUB PUSH1 0x0 DUP4 ADD MSTORE PUSH2 0xEE3 DUP2 PUSH2 0xEA7 JUMP JUMPDEST SWAP1 POP SWAP2 SWAP1 POP JUMP JUMPDEST PUSH32 0x546F6B656E20686173206E6F7420637265617465640000000000000000000000 PUSH1 0x0 DUP3 ADD MSTORE POP JUMP JUMPDEST PUSH1 0x0 PUSH2 0xF20 PUSH1 0x15 DUP4 PUSH2 0x8D6 JUMP JUMPDEST SWAP2 POP PUSH2 0xF2B DUP3 PUSH2 0xEEA JUMP JUMPDEST PUSH1 0x20 DUP3 ADD SWAP1 POP SWAP2 SWAP1 POP JUMP JUMPDEST PUSH1 0x0 PUSH1 0x20 DUP3 ADD SWAP1 POP DUP2 DUP2 SUB PUSH1 0x0 DUP4 ADD MSTORE PUSH2 0xF4F DUP2 PUSH2 0xF13 JUMP JUMPDEST SWAP1 POP SWAP2 SWAP1 POP JUMP JUMPDEST PUSH32 0x4E6F2073756666696369656E742062616C616E636520696E2074686520616363 PUSH1 0x0 DUP3 ADD MSTORE PUSH32 0x6F756E7400000000000000000000000000000000000000000000000000000000 PUSH1 0x20 DUP3 ADD MSTORE POP JUMP JUMPDEST PUSH1 0x0 PUSH2 0xFB2 PUSH1 0x24 DUP4 PUSH2 0x8D6 JUMP JUMPDEST SWAP2 POP PUSH2 0xFBD DUP3 PUSH2 0xF56 JUMP JUMPDEST PUSH1 0x40 DUP3 ADD SWAP1 POP SWAP2 SWAP1 POP JUMP JUMPDEST PUSH1 0x0 PUSH1 0x20 DUP3 ADD SWAP1 POP DUP2 DUP2 SUB PUSH1 0x0 DUP4 ADD MSTORE PUSH2 0xFE1 DUP2 PUSH2 0xFA5 JUMP JUMPDEST SWAP1 POP SWAP2 SWAP1 POP JUMP JUMPDEST PUSH32 0x4E487B7100000000000000000000000000000000000000000000000000000000 PUSH1 0x0 MSTORE PUSH1 0x11 PUSH1 0x4 MSTORE PUSH1 0x24 PUSH1 0x0 REVERT JUMPDEST PUSH1 0x0 PUSH2 0x1022 DUP3 PUSH2 0xA1C JUMP JUMPDEST SWAP2 POP PUSH2 0x102D DUP4 PUSH2 0xA1C JUMP JUMPDEST SWAP3 POP DUP3 DUP3 SUB SWAP1 POP DUP2 DUP2 GT ISZERO PUSH2 0x1045 JUMPI PUSH2 0x1044 PUSH2 0xFE8 JUMP JUMPDEST JUMPDEST SWAP3 SWAP2 POP POP JUMP JUMPDEST PUSH1 0x0 PUSH2 0x1056 DUP3 PUSH2 0xA1C JUMP JUMPDEST SWAP2 POP PUSH2 0x1061 DUP4 PUSH2 0xA1C JUMP JUMPDEST SWAP3 POP DUP3 DUP3 ADD SWAP1 POP DUP1 DUP3 GT ISZERO PUSH2 0x1079 JUMPI PUSH2 0x1078 PUSH2 0xFE8 JUMP JUMPDEST JUMPDEST SWAP3 SWAP2 POP POP JUMP JUMPDEST PUSH1 0x0 PUSH1 0x40 DUP3 ADD SWAP1 POP PUSH2 0x1094 PUSH1 0x0 DUP4 ADD DUP6 PUSH2 0xD58 JUMP JUMPDEST PUSH2 0x10A1 PUSH1 0x20 DUP4 ADD DUP5 PUSH2 0xA26 JUMP JUMPDEST SWAP4 SWAP3 POP POP POP JUMP JUMPDEST PUSH32 0x536F7272792120546F6B656E2068617320657870697265640000000000000000 PUSH1 0x0 DUP3 ADD MSTORE POP JUMP JUMPDEST PUSH1 0x0 PUSH2 0x10DE PUSH1 0x18 DUP4 PUSH2 0x8D6 JUMP JUMPDEST SWAP2 POP PUSH2 0x10E9 DUP3 PUSH2 0x10A8 JUMP JUMPDEST PUSH1 0x20 DUP3 ADD SWAP1 POP SWAP2 SWAP1 POP JUMP JUMPDEST PUSH1 0x0 PUSH1 0x20 DUP3 ADD SWAP1 POP DUP2 DUP2 SUB PUSH1 0x0 DUP4 ADD MSTORE PUSH2 0x110D DUP2 PUSH2 0x10D1 JUMP JUMPDEST SWAP1 POP SWAP2 SWAP1 POP JUMP INVALID LOG2 PUSH5 0x6970667358 0x22 SLT KECCAK256 0x26 0xB2 0xD3 0xE9 PUSH17 0x31857443C09621A749C9EED665DF630B0A 0xED 0xAE TIMESTAMP PUSH24 0xB4449E62C92E64736F6C6343000812003300000000000000 "
				},
				"gasEstimates": {
					"creation": {
						"codeDepositCost": "885200",
						"executionCost": "25188",
						"totalCost": "910388"
					},
					"external": {
						"Recieve(uint256,uint256,uint256,string,address,uint256)": "infinite",
						"balances(address)": "2837",
						"createNewToken(uint256,string)": "infinite",
						"createToken(string)": "infinite",
						"getBalance(address)": "2929",
						"name()": "infinite",
						"owner()": "2536",
						"symbol()": "infinite",
						"transfer(uint256,uint256,uint256,string,address,address,uint256)": "infinite"
					}
				},
				"methodIdentifiers": {
					"Recieve(uint256,uint256,uint256,string,address,uint256)": "e75979d4",
					"balances(address)": "27e235e3",
					"createNewToken(uint256,string)": "3100efb5",
					"createToken(string)": "45576f94",
					"getBalance(address)": "f8b2cb4f",
					"name()": "06fdde03",
					"owner()": "8da5cb5b",
					"symbol()": "95d89b41",
					"transfer(uint256,uint256,uint256,string,address,address,uint256)": "71723108"
				}
			},
			"storageLayout": {
				"storage": [
					{
						"astId": 9,
						"contract": "contracts/errrr.sol:Tokens",
						"label": "tokens",
						"offset": 0,
						"slot": "0",
						"type": "t_uint256"
					},
					{
						"astId": 11,
						"contract": "contracts/errrr.sol:Tokens",
						"label": "owner",
						"offset": 0,
						"slot": "1",
						"type": "t_address"
					},
					{
						"astId": 40,
						"contract": "contracts/errrr.sol:Tokens",
						"label": "balances",
						"offset": 0,
						"slot": "2",
						"type": "t_mapping(t_address,t_uint256)"
					},
					{
						"astId": 44,
						"contract": "contracts/errrr.sol:Tokens",
						"label": "tokenexpiry",
						"offset": 0,
						"slot": "3",
						"type": "t_mapping(t_uint256,t_uint256)"
					},
					{
						"astId": 49,
						"contract": "contracts/errrr.sol:Tokens",
						"label": "createToken",
						"offset": 0,
						"slot": "4",
						"type": "t_mapping(t_string_memory_ptr,t_struct(StructTokens)36_storage)"
					}
				],
				"types": {
					"t_address": {
						"encoding": "inplace",
						"label": "address",
						"numberOfBytes": "20"
					},
					"t_bool": {
						"encoding": "inplace",
						"label": "bool",
						"numberOfBytes": "1"
					},
					"t_mapping(t_address,t_uint256)": {
						"encoding": "mapping",
						"key": "t_address",
						"label": "mapping(address => uint256)",
						"numberOfBytes": "32",
						"value": "t_uint256"
					},
					"t_mapping(t_string_memory_ptr,t_struct(StructTokens)36_storage)": {
						"encoding": "mapping",
						"key": "t_string_memory_ptr",
						"label": "mapping(string => struct Tokens.StructTokens)",
						"numberOfBytes": "32",
						"value": "t_struct(StructTokens)36_storage"
					},
					"t_mapping(t_uint256,t_uint256)": {
						"encoding": "mapping",
						"key": "t_uint256",
						"label": "mapping(uint256 => uint256)",
						"numberOfBytes": "32",
						"value": "t_uint256"
					},
					"t_string_memory_ptr": {
						"encoding": "bytes",
						"label": "string",
						"numberOfBytes": "32"
					},
					"t_struct(StructTokens)36_storage": {
						"encoding": "inplace",
						"label": "struct Tokens.StructTokens",
						"members": [
							{
								"astId": 33,
								"contract": "contracts/errrr.sol:Tokens",
								"label": "tokenid",
								"offset": 0,
								"slot": "0",
								"type": "t_uint256"
							},
							{
								"astId": 35,
								"contract": "contracts/errrr.sol:Tokens",
								"label": "tokenStatus",
								"offset": 0,
								"slot": "1",
								"type": "t_bool"
							}
						],
						"numberOfBytes": "64"
					},
					"t_uint256": {
						"encoding": "inplace",
						"label": "uint256",
						"numberOfBytes": "32"
					}
				}
			},
			"userdoc": {
				"kind": "user",
				"methods": {},
				"version": 1
			}
		}
	}
}