{
	"contracts/library2.sol": {
		"Library": {
			"abi": [
				{
					"inputs": [],
					"stateMutability": "nonpayable",
					"type": "constructor"
				},
				{
					"inputs": [
						{
							"internalType": "uint256",
							"name": "_id",
							"type": "uint256"
						},
						{
							"internalType": "string",
							"name": "_name",
							"type": "string"
						}
					],
					"name": "addbooks",
					"outputs": [],
					"stateMutability": "nonpayable",
					"type": "function"
				},
				{
					"inputs": [
						{
							"internalType": "uint256",
							"name": "",
							"type": "uint256"
						}
					],
					"name": "books",
					"outputs": [
						{
							"internalType": "uint256",
							"name": "id",
							"type": "uint256"
						},
						{
							"internalType": "string",
							"name": "name",
							"type": "string"
						}
					],
					"stateMutability": "view",
					"type": "function"
				},
				{
					"inputs": [
						{
							"internalType": "uint256",
							"name": "_id",
							"type": "uint256"
						}
					],
					"name": "get",
					"outputs": [
						{
							"internalType": "string",
							"name": "_name",
							"type": "string"
						}
					],
					"stateMutability": "view",
					"type": "function"
				},
				{
					"inputs": [],
					"name": "owner",
					"outputs": [
						{
							"internalType": "address",
							"name": "",
							"type": "address"
						}
					],
					"stateMutability": "view",
					"type": "function"
				},
				{
					"inputs": [
						{
							"internalType": "uint256",
							"name": "_id",
							"type": "uint256"
						}
					],
					"name": "remove",
					"outputs": [],
					"stateMutability": "nonpayable",
					"type": "function"
				}
			],
			"devdoc": {
				"kind": "dev",
				"methods": {},
				"version": 1
			},
			"evm": {
				"assembly": "    /* \"contracts/library2.sol\":57:994  contract Library{... */\n  mstore(0x40, 0x80)\n    /* \"contracts/library2.sol\":110:159  constructor() {... */\n  callvalue\n  dup1\n  iszero\n  tag_1\n  jumpi\n  0x00\n  dup1\n  revert\ntag_1:\n  pop\n    /* \"contracts/library2.sol\":141:151  msg.sender */\n  caller\n    /* \"contracts/library2.sol\":135:140  owner */\n  0x00\n  dup1\n    /* \"contracts/library2.sol\":135:151  owner=msg.sender */\n  0x0100\n  exp\n  dup2\n  sload\n  dup2\n  0xffffffffffffffffffffffffffffffffffffffff\n  mul\n  not\n  and\n  swap1\n  dup4\n  0xffffffffffffffffffffffffffffffffffffffff\n  and\n  mul\n  or\n  swap1\n  sstore\n  pop\n    /* \"contracts/library2.sol\":57:994  contract Library{... */\n  dataSize(sub_0)\n  dup1\n  dataOffset(sub_0)\n  0x00\n  codecopy\n  0x00\n  return\nstop\n\nsub_0: assembly {\n        /* \"contracts/library2.sol\":57:994  contract Library{... */\n      mstore(0x40, 0x80)\n      callvalue\n      dup1\n      iszero\n      tag_1\n      jumpi\n      0x00\n      dup1\n      revert\n    tag_1:\n      pop\n      jumpi(tag_2, lt(calldatasize, 0x04))\n      shr(0xe0, calldataload(0x00))\n      dup1\n      0x4cc82215\n      eq\n      tag_3\n      jumpi\n      dup1\n      0x68744046\n      eq\n      tag_4\n      jumpi\n      dup1\n      0x8da5cb5b\n      eq\n      tag_5\n      jumpi\n      dup1\n      0x8e3bf096\n      eq\n      tag_6\n      jumpi\n      dup1\n      0x9507d39a\n      eq\n      tag_7\n      jumpi\n    tag_2:\n      0x00\n      dup1\n      revert\n        /* \"contracts/library2.sol\":865:985  function remove(uint _id) public{... */\n    tag_3:\n      tag_8\n      0x04\n      dup1\n      calldatasize\n      sub\n      dup2\n      add\n      swap1\n      tag_9\n      swap2\n      swap1\n      tag_10\n      jump\t// in\n    tag_9:\n      tag_11\n      jump\t// in\n    tag_8:\n      stop\n        /* \"contracts/library2.sol\":385:419  mapping(uint => Book) public books */\n    tag_4:\n      tag_12\n      0x04\n      dup1\n      calldatasize\n      sub\n      dup2\n      add\n      swap1\n      tag_13\n      swap2\n      swap1\n      tag_10\n      jump\t// in\n    tag_13:\n      tag_14\n      jump\t// in\n    tag_12:\n      mload(0x40)\n      tag_15\n      swap3\n      swap2\n      swap1\n      tag_16\n      jump\t// in\n    tag_15:\n      mload(0x40)\n      dup1\n      swap2\n      sub\n      swap1\n      return\n        /* \"contracts/library2.sol\":80:100  address public owner */\n    tag_5:\n      tag_17\n      tag_18\n      jump\t// in\n    tag_17:\n      mload(0x40)\n      tag_19\n      swap2\n      swap1\n      tag_20\n      jump\t// in\n    tag_19:\n      mload(0x40)\n      dup1\n      swap2\n      sub\n      swap1\n      return\n        /* \"contracts/library2.sol\":428:678  function addbooks(uint _id,string memory _name) public OnlyOwner{... */\n    tag_6:\n      tag_21\n      0x04\n      dup1\n      calldatasize\n      sub\n      dup2\n      add\n      swap1\n      tag_22\n      swap2\n      swap1\n      tag_23\n      jump\t// in\n    tag_22:\n      tag_24\n      jump\t// in\n    tag_21:\n      stop\n        /* \"contracts/library2.sol\":686:857  function get(uint _id) public view returns(string memory _name) {... */\n    tag_7:\n      tag_25\n      0x04\n      dup1\n      calldatasize\n      sub\n      dup2\n      add\n      swap1\n      tag_26\n      swap2\n      swap1\n      tag_10\n      jump\t// in\n    tag_26:\n      tag_27\n      jump\t// in\n    tag_25:\n      mload(0x40)\n      tag_28\n      swap2\n      swap1\n      tag_29\n      jump\t// in\n    tag_28:\n      mload(0x40)\n      dup1\n      swap2\n      sub\n      swap1\n      return\n        /* \"contracts/library2.sol\":865:985  function remove(uint _id) public{... */\n    tag_11:\n        /* \"contracts/library2.sol\":915:920  books */\n      0x01\n        /* \"contracts/library2.sol\":915:925  books[_id] */\n      0x00\n        /* \"contracts/library2.sol\":921:924  _id */\n      dup3\n        /* \"contracts/library2.sol\":915:925  books[_id] */\n      dup2\n      mstore\n      0x20\n      add\n      swap1\n      dup2\n      mstore\n      0x20\n      add\n      0x00\n      keccak256\n        /* \"contracts/library2.sol\":915:930  books[_id].name */\n      0x01\n      add\n      0x00\n        /* \"contracts/library2.sol\":908:930  delete books[_id].name */\n      tag_31\n      swap2\n      swap1\n      tag_32\n      jump\t// in\n    tag_31:\n        /* \"contracts/library2.sol\":865:985  function remove(uint _id) public{... */\n      pop\n      jump\t// out\n        /* \"contracts/library2.sol\":385:419  mapping(uint => Book) public books */\n    tag_14:\n      mstore(0x20, 0x01)\n      dup1\n      0x00\n      mstore\n      keccak256(0x00, 0x40)\n      0x00\n      swap2\n      pop\n      swap1\n      pop\n      dup1\n      0x00\n      add\n      sload\n      swap1\n      dup1\n      0x01\n      add\n      dup1\n      sload\n      tag_33\n      swap1\n      tag_34\n      jump\t// in\n    tag_33:\n      dup1\n      0x1f\n      add\n      0x20\n      dup1\n      swap2\n      div\n      mul\n      0x20\n      add\n      mload(0x40)\n      swap1\n      dup2\n      add\n      0x40\n      mstore\n      dup1\n      swap3\n      swap2\n      swap1\n      dup2\n      dup2\n      mstore\n      0x20\n      add\n      dup3\n      dup1\n      sload\n      tag_35\n      swap1\n      tag_34\n      jump\t// in\n    tag_35:\n      dup1\n      iszero\n      tag_36\n      jumpi\n      dup1\n      0x1f\n      lt\n      tag_37\n      jumpi\n      0x0100\n      dup1\n      dup4\n      sload\n      div\n      mul\n      dup4\n      mstore\n      swap2\n      0x20\n      add\n      swap2\n      jump(tag_36)\n    tag_37:\n      dup3\n      add\n      swap2\n      swap1\n      0x00\n      mstore\n      keccak256(0x00, 0x20)\n      swap1\n    tag_38:\n      dup2\n      sload\n      dup2\n      mstore\n      swap1\n      0x01\n      add\n      swap1\n      0x20\n      add\n      dup1\n      dup4\n      gt\n      tag_38\n      jumpi\n      dup3\n      swap1\n      sub\n      0x1f\n      and\n      dup3\n      add\n      swap2\n    tag_36:\n      pop\n      pop\n      pop\n      pop\n      pop\n      swap1\n      pop\n      dup3\n      jump\t// out\n        /* \"contracts/library2.sol\":80:100  address public owner */\n    tag_18:\n      0x00\n      dup1\n      sload\n      swap1\n      0x0100\n      exp\n      swap1\n      div\n      0xffffffffffffffffffffffffffffffffffffffff\n      and\n      dup2\n      jump\t// out\n        /* \"contracts/library2.sol\":428:678  function addbooks(uint _id,string memory _name) public OnlyOwner{... */\n    tag_24:\n        /* \"contracts/library2.sol\":213:223  msg.sender */\n      caller\n        /* \"contracts/library2.sol\":204:223  owner == msg.sender */\n      0xffffffffffffffffffffffffffffffffffffffff\n      and\n        /* \"contracts/library2.sol\":204:209  owner */\n      0x00\n      dup1\n      sload\n      swap1\n      0x0100\n      exp\n      swap1\n      div\n      0xffffffffffffffffffffffffffffffffffffffff\n      and\n        /* \"contracts/library2.sol\":204:223  owner == msg.sender */\n      0xffffffffffffffffffffffffffffffffffffffff\n      and\n      eq\n        /* \"contracts/library2.sol\":196:241  require(owner == msg.sender, \"Not the owner\") */\n      tag_40\n      jumpi\n      mload(0x40)\n      0x08c379a000000000000000000000000000000000000000000000000000000000\n      dup2\n      mstore\n      0x04\n      add\n      tag_41\n      swap1\n      tag_42\n      jump\t// in\n    tag_41:\n      mload(0x40)\n      dup1\n      swap2\n      sub\n      swap1\n      revert\n    tag_40:\n        /* \"contracts/library2.sol\":519:522  _id */\n      dup2\n        /* \"contracts/library2.sol\":505:510  books */\n      0x01\n        /* \"contracts/library2.sol\":505:515  books[_id] */\n      0x00\n        /* \"contracts/library2.sol\":511:514  _id */\n      dup5\n        /* \"contracts/library2.sol\":505:515  books[_id] */\n      dup2\n      mstore\n      0x20\n      add\n      swap1\n      dup2\n      mstore\n      0x20\n      add\n      0x00\n      keccak256\n        /* \"contracts/library2.sol\":505:518  books[_id].id */\n      0x00\n      add\n        /* \"contracts/library2.sol\":505:522  books[_id].id=_id */\n      dup2\n      swap1\n      sstore\n      pop\n        /* \"contracts/library2.sol\":551:556  _name */\n      dup1\n        /* \"contracts/library2.sol\":535:540  books */\n      0x01\n        /* \"contracts/library2.sol\":535:545  books[_id] */\n      0x00\n        /* \"contracts/library2.sol\":541:544  _id */\n      dup5\n        /* \"contracts/library2.sol\":535:545  books[_id] */\n      dup2\n      mstore\n      0x20\n      add\n      swap1\n      dup2\n      mstore\n      0x20\n      add\n      0x00\n      keccak256\n        /* \"contracts/library2.sol\":535:550  books[_id].name */\n      0x01\n      add\n        /* \"contracts/library2.sol\":535:556  books[_id].name=_name */\n      swap1\n      dup2\n      tag_44\n      swap2\n      swap1\n      tag_45\n      jump\t// in\n    tag_44:\n      pop\n        /* \"contracts/library2.sol\":428:678  function addbooks(uint _id,string memory _name) public OnlyOwner{... */\n      pop\n      pop\n      jump\t// out\n        /* \"contracts/library2.sol\":686:857  function get(uint _id) public view returns(string memory _name) {... */\n    tag_27:\n        /* \"contracts/library2.sol\":729:748  string memory _name */\n      0x60\n        /* \"contracts/library2.sol\":768:773  books */\n      0x01\n        /* \"contracts/library2.sol\":768:778  books[_id] */\n      0x00\n        /* \"contracts/library2.sol\":774:777  _id */\n      dup4\n        /* \"contracts/library2.sol\":768:778  books[_id] */\n      dup2\n      mstore\n      0x20\n      add\n      swap1\n      dup2\n      mstore\n      0x20\n      add\n      0x00\n      keccak256\n        /* \"contracts/library2.sol\":768:783  books[_id].name */\n      0x01\n      add\n        /* \"contracts/library2.sol\":761:783  return books[_id].name */\n      dup1\n      sload\n      tag_47\n      swap1\n      tag_34\n      jump\t// in\n    tag_47:\n      dup1\n      0x1f\n      add\n      0x20\n      dup1\n      swap2\n      div\n      mul\n      0x20\n      add\n      mload(0x40)\n      swap1\n      dup2\n      add\n      0x40\n      mstore\n      dup1\n      swap3\n      swap2\n      swap1\n      dup2\n      dup2\n      mstore\n      0x20\n      add\n      dup3\n      dup1\n      sload\n      tag_48\n      swap1\n      tag_34\n      jump\t// in\n    tag_48:\n      dup1\n      iszero\n      tag_49\n      jumpi\n      dup1\n      0x1f\n      lt\n      tag_50\n      jumpi\n      0x0100\n      dup1\n      dup4\n      sload\n      div\n      mul\n      dup4\n      mstore\n      swap2\n      0x20\n      add\n      swap2\n      jump(tag_49)\n    tag_50:\n      dup3\n      add\n      swap2\n      swap1\n      0x00\n      mstore\n      keccak256(0x00, 0x20)\n      swap1\n    tag_51:\n      dup2\n      sload\n      dup2\n      mstore\n      swap1\n      0x01\n      add\n      swap1\n      0x20\n      add\n      dup1\n      dup4\n      gt\n      tag_51\n      jumpi\n      dup3\n      swap1\n      sub\n      0x1f\n      and\n      dup3\n      add\n      swap2\n    tag_49:\n      pop\n      pop\n      pop\n      pop\n      pop\n      swap1\n      pop\n        /* \"contracts/library2.sol\":686:857  function get(uint _id) public view returns(string memory _name) {... */\n      swap2\n      swap1\n      pop\n      jump\t// out\n    tag_32:\n      pop\n      dup1\n      sload\n      tag_52\n      swap1\n      tag_34\n      jump\t// in\n    tag_52:\n      0x00\n      dup3\n      sstore\n      dup1\n      0x1f\n      lt\n      tag_54\n      jumpi\n      pop\n      jump(tag_53)\n    tag_54:\n      0x1f\n      add\n      0x20\n      swap1\n      div\n      swap1\n      0x00\n      mstore\n      keccak256(0x00, 0x20)\n      swap1\n      dup2\n      add\n      swap1\n      tag_55\n      swap2\n      swap1\n      tag_56\n      jump\t// in\n    tag_55:\n    tag_53:\n      pop\n      jump\t// out\n    tag_56:\n    tag_57:\n      dup1\n      dup3\n      gt\n      iszero\n      tag_58\n      jumpi\n      0x00\n      dup2\n      0x00\n      swap1\n      sstore\n      pop\n      0x01\n      add\n      jump(tag_57)\n    tag_58:\n      pop\n      swap1\n      jump\t// out\n        /* \"#utility.yul\":7:82   */\n    tag_59:\n        /* \"#utility.yul\":40:46   */\n      0x00\n        /* \"#utility.yul\":73:75   */\n      0x40\n        /* \"#utility.yul\":67:76   */\n      mload\n        /* \"#utility.yul\":57:76   */\n      swap1\n      pop\n        /* \"#utility.yul\":7:82   */\n      swap1\n      jump\t// out\n        /* \"#utility.yul\":88:205   */\n    tag_60:\n        /* \"#utility.yul\":197:198   */\n      0x00\n        /* \"#utility.yul\":194:195   */\n      dup1\n        /* \"#utility.yul\":187:199   */\n      revert\n        /* \"#utility.yul\":211:328   */\n    tag_61:\n        /* \"#utility.yul\":320:321   */\n      0x00\n        /* \"#utility.yul\":317:318   */\n      dup1\n        /* \"#utility.yul\":310:322   */\n      revert\n        /* \"#utility.yul\":334:411   */\n    tag_62:\n        /* \"#utility.yul\":371:378   */\n      0x00\n        /* \"#utility.yul\":400:405   */\n      dup2\n        /* \"#utility.yul\":389:405   */\n      swap1\n      pop\n        /* \"#utility.yul\":334:411   */\n      swap2\n      swap1\n      pop\n      jump\t// out\n        /* \"#utility.yul\":417:539   */\n    tag_63:\n        /* \"#utility.yul\":490:514   */\n      tag_107\n        /* \"#utility.yul\":508:513   */\n      dup2\n        /* \"#utility.yul\":490:514   */\n      tag_62\n      jump\t// in\n    tag_107:\n        /* \"#utility.yul\":483:488   */\n      dup2\n        /* \"#utility.yul\":480:515   */\n      eq\n        /* \"#utility.yul\":470:533   */\n      tag_108\n      jumpi\n        /* \"#utility.yul\":529:530   */\n      0x00\n        /* \"#utility.yul\":526:527   */\n      dup1\n        /* \"#utility.yul\":519:531   */\n      revert\n        /* \"#utility.yul\":470:533   */\n    tag_108:\n        /* \"#utility.yul\":417:539   */\n      pop\n      jump\t// out\n        /* \"#utility.yul\":545:684   */\n    tag_64:\n        /* \"#utility.yul\":591:596   */\n      0x00\n        /* \"#utility.yul\":629:635   */\n      dup2\n        /* \"#utility.yul\":616:636   */\n      calldataload\n        /* \"#utility.yul\":607:636   */\n      swap1\n      pop\n        /* \"#utility.yul\":645:678   */\n      tag_110\n        /* \"#utility.yul\":672:677   */\n      dup2\n        /* \"#utility.yul\":645:678   */\n      tag_63\n      jump\t// in\n    tag_110:\n        /* \"#utility.yul\":545:684   */\n      swap3\n      swap2\n      pop\n      pop\n      jump\t// out\n        /* \"#utility.yul\":690:1019   */\n    tag_10:\n        /* \"#utility.yul\":749:755   */\n      0x00\n        /* \"#utility.yul\":798:800   */\n      0x20\n        /* \"#utility.yul\":786:795   */\n      dup3\n        /* \"#utility.yul\":777:784   */\n      dup5\n        /* \"#utility.yul\":773:796   */\n      sub\n        /* \"#utility.yul\":769:801   */\n      slt\n        /* \"#utility.yul\":766:885   */\n      iszero\n      tag_112\n      jumpi\n        /* \"#utility.yul\":804:883   */\n      tag_113\n      tag_60\n      jump\t// in\n    tag_113:\n        /* \"#utility.yul\":766:885   */\n    tag_112:\n        /* \"#utility.yul\":924:925   */\n      0x00\n        /* \"#utility.yul\":949:1002   */\n      tag_114\n        /* \"#utility.yul\":994:1001   */\n      dup5\n        /* \"#utility.yul\":985:991   */\n      dup3\n        /* \"#utility.yul\":974:983   */\n      dup6\n        /* \"#utility.yul\":970:992   */\n      add\n        /* \"#utility.yul\":949:1002   */\n      tag_64\n      jump\t// in\n    tag_114:\n        /* \"#utility.yul\":939:1002   */\n      swap2\n      pop\n        /* \"#utility.yul\":895:1012   */\n      pop\n        /* \"#utility.yul\":690:1019   */\n      swap3\n      swap2\n      pop\n      pop\n      jump\t// out\n        /* \"#utility.yul\":1025:1143   */\n    tag_65:\n        /* \"#utility.yul\":1112:1136   */\n      tag_116\n        /* \"#utility.yul\":1130:1135   */\n      dup2\n        /* \"#utility.yul\":1112:1136   */\n      tag_62\n      jump\t// in\n    tag_116:\n        /* \"#utility.yul\":1107:1110   */\n      dup3\n        /* \"#utility.yul\":1100:1137   */\n      mstore\n        /* \"#utility.yul\":1025:1143   */\n      pop\n      pop\n      jump\t// out\n        /* \"#utility.yul\":1149:1248   */\n    tag_66:\n        /* \"#utility.yul\":1201:1207   */\n      0x00\n        /* \"#utility.yul\":1235:1240   */\n      dup2\n        /* \"#utility.yul\":1229:1241   */\n      mload\n        /* \"#utility.yul\":1219:1241   */\n      swap1\n      pop\n        /* \"#utility.yul\":1149:1248   */\n      swap2\n      swap1\n      pop\n      jump\t// out\n        /* \"#utility.yul\":1254:1423   */\n    tag_67:\n        /* \"#utility.yul\":1338:1349   */\n      0x00\n        /* \"#utility.yul\":1372:1378   */\n      dup3\n        /* \"#utility.yul\":1367:1370   */\n      dup3\n        /* \"#utility.yul\":1360:1379   */\n      mstore\n        /* \"#utility.yul\":1412:1416   */\n      0x20\n        /* \"#utility.yul\":1407:1410   */\n      dup3\n        /* \"#utility.yul\":1403:1417   */\n      add\n        /* \"#utility.yul\":1388:1417   */\n      swap1\n      pop\n        /* \"#utility.yul\":1254:1423   */\n      swap3\n      swap2\n      pop\n      pop\n      jump\t// out\n        /* \"#utility.yul\":1429:1675   */\n    tag_68:\n        /* \"#utility.yul\":1510:1511   */\n      0x00\n        /* \"#utility.yul\":1520:1633   */\n    tag_120:\n        /* \"#utility.yul\":1534:1540   */\n      dup4\n        /* \"#utility.yul\":1531:1532   */\n      dup2\n        /* \"#utility.yul\":1528:1541   */\n      lt\n        /* \"#utility.yul\":1520:1633   */\n      iszero\n      tag_122\n      jumpi\n        /* \"#utility.yul\":1619:1620   */\n      dup1\n        /* \"#utility.yul\":1614:1617   */\n      dup3\n        /* \"#utility.yul\":1610:1621   */\n      add\n        /* \"#utility.yul\":1604:1622   */\n      mload\n        /* \"#utility.yul\":1600:1601   */\n      dup2\n        /* \"#utility.yul\":1595:1598   */\n      dup5\n        /* \"#utility.yul\":1591:1602   */\n      add\n        /* \"#utility.yul\":1584:1623   */\n      mstore\n        /* \"#utility.yul\":1556:1558   */\n      0x20\n        /* \"#utility.yul\":1553:1554   */\n      dup2\n        /* \"#utility.yul\":1549:1559   */\n      add\n        /* \"#utility.yul\":1544:1559   */\n      swap1\n      pop\n        /* \"#utility.yul\":1520:1633   */\n      jump(tag_120)\n    tag_122:\n        /* \"#utility.yul\":1667:1668   */\n      0x00\n        /* \"#utility.yul\":1658:1664   */\n      dup5\n        /* \"#utility.yul\":1653:1656   */\n      dup5\n        /* \"#utility.yul\":1649:1665   */\n      add\n        /* \"#utility.yul\":1642:1669   */\n      mstore\n        /* \"#utility.yul\":1491:1675   */\n      pop\n        /* \"#utility.yul\":1429:1675   */\n      pop\n      pop\n      pop\n      jump\t// out\n        /* \"#utility.yul\":1681:1783   */\n    tag_69:\n        /* \"#utility.yul\":1722:1728   */\n      0x00\n        /* \"#utility.yul\":1773:1775   */\n      0x1f\n        /* \"#utility.yul\":1769:1776   */\n      not\n        /* \"#utility.yul\":1764:1766   */\n      0x1f\n        /* \"#utility.yul\":1757:1762   */\n      dup4\n        /* \"#utility.yul\":1753:1767   */\n      add\n        /* \"#utility.yul\":1749:1777   */\n      and\n        /* \"#utility.yul\":1739:1777   */\n      swap1\n      pop\n        /* \"#utility.yul\":1681:1783   */\n      swap2\n      swap1\n      pop\n      jump\t// out\n        /* \"#utility.yul\":1789:2166   */\n    tag_70:\n        /* \"#utility.yul\":1877:1880   */\n      0x00\n        /* \"#utility.yul\":1905:1944   */\n      tag_125\n        /* \"#utility.yul\":1938:1943   */\n      dup3\n        /* \"#utility.yul\":1905:1944   */\n      tag_66\n      jump\t// in\n    tag_125:\n        /* \"#utility.yul\":1960:2031   */\n      tag_126\n        /* \"#utility.yul\":2024:2030   */\n      dup2\n        /* \"#utility.yul\":2019:2022   */\n      dup6\n        /* \"#utility.yul\":1960:2031   */\n      tag_67\n      jump\t// in\n    tag_126:\n        /* \"#utility.yul\":1953:2031   */\n      swap4\n      pop\n        /* \"#utility.yul\":2040:2105   */\n      tag_127\n        /* \"#utility.yul\":2098:2104   */\n      dup2\n        /* \"#utility.yul\":2093:2096   */\n      dup6\n        /* \"#utility.yul\":2086:2090   */\n      0x20\n        /* \"#utility.yul\":2079:2084   */\n      dup7\n        /* \"#utility.yul\":2075:2091   */\n      add\n        /* \"#utility.yul\":2040:2105   */\n      tag_68\n      jump\t// in\n    tag_127:\n        /* \"#utility.yul\":2130:2159   */\n      tag_128\n        /* \"#utility.yul\":2152:2158   */\n      dup2\n        /* \"#utility.yul\":2130:2159   */\n      tag_69\n      jump\t// in\n    tag_128:\n        /* \"#utility.yul\":2125:2128   */\n      dup5\n        /* \"#utility.yul\":2121:2160   */\n      add\n        /* \"#utility.yul\":2114:2160   */\n      swap2\n      pop\n        /* \"#utility.yul\":1881:2166   */\n      pop\n        /* \"#utility.yul\":1789:2166   */\n      swap3\n      swap2\n      pop\n      pop\n      jump\t// out\n        /* \"#utility.yul\":2172:2595   */\n    tag_16:\n        /* \"#utility.yul\":2313:2317   */\n      0x00\n        /* \"#utility.yul\":2351:2353   */\n      0x40\n        /* \"#utility.yul\":2340:2349   */\n      dup3\n        /* \"#utility.yul\":2336:2354   */\n      add\n        /* \"#utility.yul\":2328:2354   */\n      swap1\n      pop\n        /* \"#utility.yul\":2364:2435   */\n      tag_130\n        /* \"#utility.yul\":2432:2433   */\n      0x00\n        /* \"#utility.yul\":2421:2430   */\n      dup4\n        /* \"#utility.yul\":2417:2434   */\n      add\n        /* \"#utility.yul\":2408:2414   */\n      dup6\n        /* \"#utility.yul\":2364:2435   */\n      tag_65\n      jump\t// in\n    tag_130:\n        /* \"#utility.yul\":2482:2491   */\n      dup2\n        /* \"#utility.yul\":2476:2480   */\n      dup2\n        /* \"#utility.yul\":2472:2492   */\n      sub\n        /* \"#utility.yul\":2467:2469   */\n      0x20\n        /* \"#utility.yul\":2456:2465   */\n      dup4\n        /* \"#utility.yul\":2452:2470   */\n      add\n        /* \"#utility.yul\":2445:2493   */\n      mstore\n        /* \"#utility.yul\":2510:2588   */\n      tag_131\n        /* \"#utility.yul\":2583:2587   */\n      dup2\n        /* \"#utility.yul\":2574:2580   */\n      dup5\n        /* \"#utility.yul\":2510:2588   */\n      tag_70\n      jump\t// in\n    tag_131:\n        /* \"#utility.yul\":2502:2588   */\n      swap1\n      pop\n        /* \"#utility.yul\":2172:2595   */\n      swap4\n      swap3\n      pop\n      pop\n      pop\n      jump\t// out\n        /* \"#utility.yul\":2601:2727   */\n    tag_71:\n        /* \"#utility.yul\":2638:2645   */\n      0x00\n        /* \"#utility.yul\":2678:2720   */\n      0xffffffffffffffffffffffffffffffffffffffff\n        /* \"#utility.yul\":2671:2676   */\n      dup3\n        /* \"#utility.yul\":2667:2721   */\n      and\n        /* \"#utility.yul\":2656:2721   */\n      swap1\n      pop\n        /* \"#utility.yul\":2601:2727   */\n      swap2\n      swap1\n      pop\n      jump\t// out\n        /* \"#utility.yul\":2733:2829   */\n    tag_72:\n        /* \"#utility.yul\":2770:2777   */\n      0x00\n        /* \"#utility.yul\":2799:2823   */\n      tag_134\n        /* \"#utility.yul\":2817:2822   */\n      dup3\n        /* \"#utility.yul\":2799:2823   */\n      tag_71\n      jump\t// in\n    tag_134:\n        /* \"#utility.yul\":2788:2823   */\n      swap1\n      pop\n        /* \"#utility.yul\":2733:2829   */\n      swap2\n      swap1\n      pop\n      jump\t// out\n        /* \"#utility.yul\":2835:2953   */\n    tag_73:\n        /* \"#utility.yul\":2922:2946   */\n      tag_136\n        /* \"#utility.yul\":2940:2945   */\n      dup2\n        /* \"#utility.yul\":2922:2946   */\n      tag_72\n      jump\t// in\n    tag_136:\n        /* \"#utility.yul\":2917:2920   */\n      dup3\n        /* \"#utility.yul\":2910:2947   */\n      mstore\n        /* \"#utility.yul\":2835:2953   */\n      pop\n      pop\n      jump\t// out\n        /* \"#utility.yul\":2959:3181   */\n    tag_20:\n        /* \"#utility.yul\":3052:3056   */\n      0x00\n        /* \"#utility.yul\":3090:3092   */\n      0x20\n        /* \"#utility.yul\":3079:3088   */\n      dup3\n        /* \"#utility.yul\":3075:3093   */\n      add\n        /* \"#utility.yul\":3067:3093   */\n      swap1\n      pop\n        /* \"#utility.yul\":3103:3174   */\n      tag_138\n        /* \"#utility.yul\":3171:3172   */\n      0x00\n        /* \"#utility.yul\":3160:3169   */\n      dup4\n        /* \"#utility.yul\":3156:3173   */\n      add\n        /* \"#utility.yul\":3147:3153   */\n      dup5\n        /* \"#utility.yul\":3103:3174   */\n      tag_73\n      jump\t// in\n    tag_138:\n        /* \"#utility.yul\":2959:3181   */\n      swap3\n      swap2\n      pop\n      pop\n      jump\t// out\n        /* \"#utility.yul\":3187:3304   */\n    tag_74:\n        /* \"#utility.yul\":3296:3297   */\n      0x00\n        /* \"#utility.yul\":3293:3294   */\n      dup1\n        /* \"#utility.yul\":3286:3298   */\n      revert\n        /* \"#utility.yul\":3310:3427   */\n    tag_75:\n        /* \"#utility.yul\":3419:3420   */\n      0x00\n        /* \"#utility.yul\":3416:3417   */\n      dup1\n        /* \"#utility.yul\":3409:3421   */\n      revert\n        /* \"#utility.yul\":3433:3613   */\n    tag_76:\n        /* \"#utility.yul\":3481:3558   */\n      0x4e487b7100000000000000000000000000000000000000000000000000000000\n        /* \"#utility.yul\":3478:3479   */\n      0x00\n        /* \"#utility.yul\":3471:3559   */\n      mstore\n        /* \"#utility.yul\":3578:3582   */\n      0x41\n        /* \"#utility.yul\":3575:3576   */\n      0x04\n        /* \"#utility.yul\":3568:3583   */\n      mstore\n        /* \"#utility.yul\":3602:3606   */\n      0x24\n        /* \"#utility.yul\":3599:3600   */\n      0x00\n        /* \"#utility.yul\":3592:3607   */\n      revert\n        /* \"#utility.yul\":3619:3900   */\n    tag_77:\n        /* \"#utility.yul\":3702:3729   */\n      tag_143\n        /* \"#utility.yul\":3724:3728   */\n      dup3\n        /* \"#utility.yul\":3702:3729   */\n      tag_69\n      jump\t// in\n    tag_143:\n        /* \"#utility.yul\":3694:3700   */\n      dup2\n        /* \"#utility.yul\":3690:3730   */\n      add\n        /* \"#utility.yul\":3832:3838   */\n      dup2\n        /* \"#utility.yul\":3820:3830   */\n      dup2\n        /* \"#utility.yul\":3817:3839   */\n      lt\n        /* \"#utility.yul\":3796:3814   */\n      0xffffffffffffffff\n        /* \"#utility.yul\":3784:3794   */\n      dup3\n        /* \"#utility.yul\":3781:3815   */\n      gt\n        /* \"#utility.yul\":3778:3840   */\n      or\n        /* \"#utility.yul\":3775:3863   */\n      iszero\n      tag_144\n      jumpi\n        /* \"#utility.yul\":3843:3861   */\n      tag_145\n      tag_76\n      jump\t// in\n    tag_145:\n        /* \"#utility.yul\":3775:3863   */\n    tag_144:\n        /* \"#utility.yul\":3883:3893   */\n      dup1\n        /* \"#utility.yul\":3879:3881   */\n      0x40\n        /* \"#utility.yul\":3872:3894   */\n      mstore\n        /* \"#utility.yul\":3662:3900   */\n      pop\n        /* \"#utility.yul\":3619:3900   */\n      pop\n      pop\n      jump\t// out\n        /* \"#utility.yul\":3906:4035   */\n    tag_78:\n        /* \"#utility.yul\":3940:3946   */\n      0x00\n        /* \"#utility.yul\":3967:3987   */\n      tag_147\n      tag_59\n      jump\t// in\n    tag_147:\n        /* \"#utility.yul\":3957:3987   */\n      swap1\n      pop\n        /* \"#utility.yul\":3996:4029   */\n      tag_148\n        /* \"#utility.yul\":4024:4028   */\n      dup3\n        /* \"#utility.yul\":4016:4022   */\n      dup3\n        /* \"#utility.yul\":3996:4029   */\n      tag_77\n      jump\t// in\n    tag_148:\n        /* \"#utility.yul\":3906:4035   */\n      swap2\n      swap1\n      pop\n      jump\t// out\n        /* \"#utility.yul\":4041:4349   */\n    tag_79:\n        /* \"#utility.yul\":4103:4107   */\n      0x00\n        /* \"#utility.yul\":4193:4211   */\n      0xffffffffffffffff\n        /* \"#utility.yul\":4185:4191   */\n      dup3\n        /* \"#utility.yul\":4182:4212   */\n      gt\n        /* \"#utility.yul\":4179:4235   */\n      iszero\n      tag_150\n      jumpi\n        /* \"#utility.yul\":4215:4233   */\n      tag_151\n      tag_76\n      jump\t// in\n    tag_151:\n        /* \"#utility.yul\":4179:4235   */\n    tag_150:\n        /* \"#utility.yul\":4253:4282   */\n      tag_152\n        /* \"#utility.yul\":4275:4281   */\n      dup3\n        /* \"#utility.yul\":4253:4282   */\n      tag_69\n      jump\t// in\n    tag_152:\n        /* \"#utility.yul\":4245:4282   */\n      swap1\n      pop\n        /* \"#utility.yul\":4337:4341   */\n      0x20\n        /* \"#utility.yul\":4331:4335   */\n      dup2\n        /* \"#utility.yul\":4327:4342   */\n      add\n        /* \"#utility.yul\":4319:4342   */\n      swap1\n      pop\n        /* \"#utility.yul\":4041:4349   */\n      swap2\n      swap1\n      pop\n      jump\t// out\n        /* \"#utility.yul\":4355:4501   */\n    tag_80:\n        /* \"#utility.yul\":4452:4458   */\n      dup3\n        /* \"#utility.yul\":4447:4450   */\n      dup2\n        /* \"#utility.yul\":4442:4445   */\n      dup4\n        /* \"#utility.yul\":4429:4459   */\n      calldatacopy\n        /* \"#utility.yul\":4493:4494   */\n      0x00\n        /* \"#utility.yul\":4484:4490   */\n      dup4\n        /* \"#utility.yul\":4479:4482   */\n      dup4\n        /* \"#utility.yul\":4475:4491   */\n      add\n        /* \"#utility.yul\":4468:4495   */\n      mstore\n        /* \"#utility.yul\":4355:4501   */\n      pop\n      pop\n      pop\n      jump\t// out\n        /* \"#utility.yul\":4507:4932   */\n    tag_81:\n        /* \"#utility.yul\":4585:4590   */\n      0x00\n        /* \"#utility.yul\":4610:4676   */\n      tag_155\n        /* \"#utility.yul\":4626:4675   */\n      tag_156\n        /* \"#utility.yul\":4668:4674   */\n      dup5\n        /* \"#utility.yul\":4626:4675   */\n      tag_79\n      jump\t// in\n    tag_156:\n        /* \"#utility.yul\":4610:4676   */\n      tag_78\n      jump\t// in\n    tag_155:\n        /* \"#utility.yul\":4601:4676   */\n      swap1\n      pop\n        /* \"#utility.yul\":4699:4705   */\n      dup3\n        /* \"#utility.yul\":4692:4697   */\n      dup2\n        /* \"#utility.yul\":4685:4706   */\n      mstore\n        /* \"#utility.yul\":4737:4741   */\n      0x20\n        /* \"#utility.yul\":4730:4735   */\n      dup2\n        /* \"#utility.yul\":4726:4742   */\n      add\n        /* \"#utility.yul\":4775:4778   */\n      dup5\n        /* \"#utility.yul\":4766:4772   */\n      dup5\n        /* \"#utility.yul\":4761:4764   */\n      dup5\n        /* \"#utility.yul\":4757:4773   */\n      add\n        /* \"#utility.yul\":4754:4779   */\n      gt\n        /* \"#utility.yul\":4751:4863   */\n      iszero\n      tag_157\n      jumpi\n        /* \"#utility.yul\":4782:4861   */\n      tag_158\n      tag_75\n      jump\t// in\n    tag_158:\n        /* \"#utility.yul\":4751:4863   */\n    tag_157:\n        /* \"#utility.yul\":4872:4926   */\n      tag_159\n        /* \"#utility.yul\":4919:4925   */\n      dup5\n        /* \"#utility.yul\":4914:4917   */\n      dup3\n        /* \"#utility.yul\":4909:4912   */\n      dup6\n        /* \"#utility.yul\":4872:4926   */\n      tag_80\n      jump\t// in\n    tag_159:\n        /* \"#utility.yul\":4591:4932   */\n      pop\n        /* \"#utility.yul\":4507:4932   */\n      swap4\n      swap3\n      pop\n      pop\n      pop\n      jump\t// out\n        /* \"#utility.yul\":4952:5292   */\n    tag_82:\n        /* \"#utility.yul\":5008:5013   */\n      0x00\n        /* \"#utility.yul\":5057:5060   */\n      dup3\n        /* \"#utility.yul\":5050:5054   */\n      0x1f\n        /* \"#utility.yul\":5042:5048   */\n      dup4\n        /* \"#utility.yul\":5038:5055   */\n      add\n        /* \"#utility.yul\":5034:5061   */\n      slt\n        /* \"#utility.yul\":5024:5146   */\n      tag_161\n      jumpi\n        /* \"#utility.yul\":5065:5144   */\n      tag_162\n      tag_74\n      jump\t// in\n    tag_162:\n        /* \"#utility.yul\":5024:5146   */\n    tag_161:\n        /* \"#utility.yul\":5182:5188   */\n      dup2\n        /* \"#utility.yul\":5169:5189   */\n      calldataload\n        /* \"#utility.yul\":5207:5286   */\n      tag_163\n        /* \"#utility.yul\":5282:5285   */\n      dup5\n        /* \"#utility.yul\":5274:5280   */\n      dup3\n        /* \"#utility.yul\":5267:5271   */\n      0x20\n        /* \"#utility.yul\":5259:5265   */\n      dup7\n        /* \"#utility.yul\":5255:5272   */\n      add\n        /* \"#utility.yul\":5207:5286   */\n      tag_81\n      jump\t// in\n    tag_163:\n        /* \"#utility.yul\":5198:5286   */\n      swap2\n      pop\n        /* \"#utility.yul\":5014:5292   */\n      pop\n        /* \"#utility.yul\":4952:5292   */\n      swap3\n      swap2\n      pop\n      pop\n      jump\t// out\n        /* \"#utility.yul\":5298:5952   */\n    tag_23:\n        /* \"#utility.yul\":5376:5382   */\n      0x00\n        /* \"#utility.yul\":5384:5390   */\n      dup1\n        /* \"#utility.yul\":5433:5435   */\n      0x40\n        /* \"#utility.yul\":5421:5430   */\n      dup4\n        /* \"#utility.yul\":5412:5419   */\n      dup6\n        /* \"#utility.yul\":5408:5431   */\n      sub\n        /* \"#utility.yul\":5404:5436   */\n      slt\n        /* \"#utility.yul\":5401:5520   */\n      iszero\n      tag_165\n      jumpi\n        /* \"#utility.yul\":5439:5518   */\n      tag_166\n      tag_60\n      jump\t// in\n    tag_166:\n        /* \"#utility.yul\":5401:5520   */\n    tag_165:\n        /* \"#utility.yul\":5559:5560   */\n      0x00\n        /* \"#utility.yul\":5584:5637   */\n      tag_167\n        /* \"#utility.yul\":5629:5636   */\n      dup6\n        /* \"#utility.yul\":5620:5626   */\n      dup3\n        /* \"#utility.yul\":5609:5618   */\n      dup7\n        /* \"#utility.yul\":5605:5627   */\n      add\n        /* \"#utility.yul\":5584:5637   */\n      tag_64\n      jump\t// in\n    tag_167:\n        /* \"#utility.yul\":5574:5637   */\n      swap3\n      pop\n        /* \"#utility.yul\":5530:5647   */\n      pop\n        /* \"#utility.yul\":5714:5716   */\n      0x20\n        /* \"#utility.yul\":5703:5712   */\n      dup4\n        /* \"#utility.yul\":5699:5717   */\n      add\n        /* \"#utility.yul\":5686:5718   */\n      calldataload\n        /* \"#utility.yul\":5745:5763   */\n      0xffffffffffffffff\n        /* \"#utility.yul\":5737:5743   */\n      dup2\n        /* \"#utility.yul\":5734:5764   */\n      gt\n        /* \"#utility.yul\":5731:5848   */\n      iszero\n      tag_168\n      jumpi\n        /* \"#utility.yul\":5767:5846   */\n      tag_169\n      tag_61\n      jump\t// in\n    tag_169:\n        /* \"#utility.yul\":5731:5848   */\n    tag_168:\n        /* \"#utility.yul\":5872:5935   */\n      tag_170\n        /* \"#utility.yul\":5927:5934   */\n      dup6\n        /* \"#utility.yul\":5918:5924   */\n      dup3\n        /* \"#utility.yul\":5907:5916   */\n      dup7\n        /* \"#utility.yul\":5903:5925   */\n      add\n        /* \"#utility.yul\":5872:5935   */\n      tag_82\n      jump\t// in\n    tag_170:\n        /* \"#utility.yul\":5862:5935   */\n      swap2\n      pop\n        /* \"#utility.yul\":5657:5945   */\n      pop\n        /* \"#utility.yul\":5298:5952   */\n      swap3\n      pop\n      swap3\n      swap1\n      pop\n      jump\t// out\n        /* \"#utility.yul\":5958:6271   */\n    tag_29:\n        /* \"#utility.yul\":6071:6075   */\n      0x00\n        /* \"#utility.yul\":6109:6111   */\n      0x20\n        /* \"#utility.yul\":6098:6107   */\n      dup3\n        /* \"#utility.yul\":6094:6112   */\n      add\n        /* \"#utility.yul\":6086:6112   */\n      swap1\n      pop\n        /* \"#utility.yul\":6158:6167   */\n      dup2\n        /* \"#utility.yul\":6152:6156   */\n      dup2\n        /* \"#utility.yul\":6148:6168   */\n      sub\n        /* \"#utility.yul\":6144:6145   */\n      0x00\n        /* \"#utility.yul\":6133:6142   */\n      dup4\n        /* \"#utility.yul\":6129:6146   */\n      add\n        /* \"#utility.yul\":6122:6169   */\n      mstore\n        /* \"#utility.yul\":6186:6264   */\n      tag_172\n        /* \"#utility.yul\":6259:6263   */\n      dup2\n        /* \"#utility.yul\":6250:6256   */\n      dup5\n        /* \"#utility.yul\":6186:6264   */\n      tag_70\n      jump\t// in\n    tag_172:\n        /* \"#utility.yul\":6178:6264   */\n      swap1\n      pop\n        /* \"#utility.yul\":5958:6271   */\n      swap3\n      swap2\n      pop\n      pop\n      jump\t// out\n        /* \"#utility.yul\":6277:6457   */\n    tag_83:\n        /* \"#utility.yul\":6325:6402   */\n      0x4e487b7100000000000000000000000000000000000000000000000000000000\n        /* \"#utility.yul\":6322:6323   */\n      0x00\n        /* \"#utility.yul\":6315:6403   */\n      mstore\n        /* \"#utility.yul\":6422:6426   */\n      0x22\n        /* \"#utility.yul\":6419:6420   */\n      0x04\n        /* \"#utility.yul\":6412:6427   */\n      mstore\n        /* \"#utility.yul\":6446:6450   */\n      0x24\n        /* \"#utility.yul\":6443:6444   */\n      0x00\n        /* \"#utility.yul\":6436:6451   */\n      revert\n        /* \"#utility.yul\":6463:6783   */\n    tag_34:\n        /* \"#utility.yul\":6507:6513   */\n      0x00\n        /* \"#utility.yul\":6544:6545   */\n      0x02\n        /* \"#utility.yul\":6538:6542   */\n      dup3\n        /* \"#utility.yul\":6534:6546   */\n      div\n        /* \"#utility.yul\":6524:6546   */\n      swap1\n      pop\n        /* \"#utility.yul\":6591:6592   */\n      0x01\n        /* \"#utility.yul\":6585:6589   */\n      dup3\n        /* \"#utility.yul\":6581:6593   */\n      and\n        /* \"#utility.yul\":6612:6630   */\n      dup1\n        /* \"#utility.yul\":6602:6683   */\n      tag_175\n      jumpi\n        /* \"#utility.yul\":6668:6672   */\n      0x7f\n        /* \"#utility.yul\":6660:6666   */\n      dup3\n        /* \"#utility.yul\":6656:6673   */\n      and\n        /* \"#utility.yul\":6646:6673   */\n      swap2\n      pop\n        /* \"#utility.yul\":6602:6683   */\n    tag_175:\n        /* \"#utility.yul\":6730:6732   */\n      0x20\n        /* \"#utility.yul\":6722:6728   */\n      dup3\n        /* \"#utility.yul\":6719:6733   */\n      lt\n        /* \"#utility.yul\":6699:6717   */\n      dup2\n        /* \"#utility.yul\":6696:6734   */\n      sub\n        /* \"#utility.yul\":6693:6777   */\n      tag_176\n      jumpi\n        /* \"#utility.yul\":6749:6767   */\n      tag_177\n      tag_83\n      jump\t// in\n    tag_177:\n        /* \"#utility.yul\":6693:6777   */\n    tag_176:\n        /* \"#utility.yul\":6514:6783   */\n      pop\n        /* \"#utility.yul\":6463:6783   */\n      swap2\n      swap1\n      pop\n      jump\t// out\n        /* \"#utility.yul\":6789:6952   */\n    tag_84:\n        /* \"#utility.yul\":6929:6944   */\n      0x4e6f7420746865206f776e657200000000000000000000000000000000000000\n        /* \"#utility.yul\":6925:6926   */\n      0x00\n        /* \"#utility.yul\":6917:6923   */\n      dup3\n        /* \"#utility.yul\":6913:6927   */\n      add\n        /* \"#utility.yul\":6906:6945   */\n      mstore\n        /* \"#utility.yul\":6789:6952   */\n      pop\n      jump\t// out\n        /* \"#utility.yul\":6958:7324   */\n    tag_85:\n        /* \"#utility.yul\":7100:7103   */\n      0x00\n        /* \"#utility.yul\":7121:7188   */\n      tag_180\n        /* \"#utility.yul\":7185:7187   */\n      0x0d\n        /* \"#utility.yul\":7180:7183   */\n      dup4\n        /* \"#utility.yul\":7121:7188   */\n      tag_67\n      jump\t// in\n    tag_180:\n        /* \"#utility.yul\":7114:7188   */\n      swap2\n      pop\n        /* \"#utility.yul\":7197:7290   */\n      tag_181\n        /* \"#utility.yul\":7286:7289   */\n      dup3\n        /* \"#utility.yul\":7197:7290   */\n      tag_84\n      jump\t// in\n    tag_181:\n        /* \"#utility.yul\":7315:7317   */\n      0x20\n        /* \"#utility.yul\":7310:7313   */\n      dup3\n        /* \"#utility.yul\":7306:7318   */\n      add\n        /* \"#utility.yul\":7299:7318   */\n      swap1\n      pop\n        /* \"#utility.yul\":6958:7324   */\n      swap2\n      swap1\n      pop\n      jump\t// out\n        /* \"#utility.yul\":7330:7749   */\n    tag_42:\n        /* \"#utility.yul\":7496:7500   */\n      0x00\n        /* \"#utility.yul\":7534:7536   */\n      0x20\n        /* \"#utility.yul\":7523:7532   */\n      dup3\n        /* \"#utility.yul\":7519:7537   */\n      add\n        /* \"#utility.yul\":7511:7537   */\n      swap1\n      pop\n        /* \"#utility.yul\":7583:7592   */\n      dup2\n        /* \"#utility.yul\":7577:7581   */\n      dup2\n        /* \"#utility.yul\":7573:7593   */\n      sub\n        /* \"#utility.yul\":7569:7570   */\n      0x00\n        /* \"#utility.yul\":7558:7567   */\n      dup4\n        /* \"#utility.yul\":7554:7571   */\n      add\n        /* \"#utility.yul\":7547:7594   */\n      mstore\n        /* \"#utility.yul\":7611:7742   */\n      tag_183\n        /* \"#utility.yul\":7737:7741   */\n      dup2\n        /* \"#utility.yul\":7611:7742   */\n      tag_85\n      jump\t// in\n    tag_183:\n        /* \"#utility.yul\":7603:7742   */\n      swap1\n      pop\n        /* \"#utility.yul\":7330:7749   */\n      swap2\n      swap1\n      pop\n      jump\t// out\n        /* \"#utility.yul\":7755:7896   */\n    tag_86:\n        /* \"#utility.yul\":7804:7808   */\n      0x00\n        /* \"#utility.yul\":7827:7830   */\n      dup2\n        /* \"#utility.yul\":7819:7830   */\n      swap1\n      pop\n        /* \"#utility.yul\":7850:7853   */\n      dup2\n        /* \"#utility.yul\":7847:7848   */\n      0x00\n        /* \"#utility.yul\":7840:7854   */\n      mstore\n        /* \"#utility.yul\":7884:7888   */\n      0x20\n        /* \"#utility.yul\":7881:7882   */\n      0x00\n        /* \"#utility.yul\":7871:7889   */\n      keccak256\n        /* \"#utility.yul\":7863:7889   */\n      swap1\n      pop\n        /* \"#utility.yul\":7755:7896   */\n      swap2\n      swap1\n      pop\n      jump\t// out\n        /* \"#utility.yul\":7902:7995   */\n    tag_87:\n        /* \"#utility.yul\":7939:7945   */\n      0x00\n        /* \"#utility.yul\":7986:7988   */\n      0x20\n        /* \"#utility.yul\":7981:7983   */\n      0x1f\n        /* \"#utility.yul\":7974:7979   */\n      dup4\n        /* \"#utility.yul\":7970:7984   */\n      add\n        /* \"#utility.yul\":7966:7989   */\n      div\n        /* \"#utility.yul\":7956:7989   */\n      swap1\n      pop\n        /* \"#utility.yul\":7902:7995   */\n      swap2\n      swap1\n      pop\n      jump\t// out\n        /* \"#utility.yul\":8001:8108   */\n    tag_88:\n        /* \"#utility.yul\":8045:8053   */\n      0x00\n        /* \"#utility.yul\":8095:8100   */\n      dup3\n        /* \"#utility.yul\":8089:8093   */\n      dup3\n        /* \"#utility.yul\":8085:8101   */\n      shl\n        /* \"#utility.yul\":8064:8101   */\n      swap1\n      pop\n        /* \"#utility.yul\":8001:8108   */\n      swap3\n      swap2\n      pop\n      pop\n      jump\t// out\n        /* \"#utility.yul\":8114:8507   */\n    tag_89:\n        /* \"#utility.yul\":8183:8189   */\n      0x00\n        /* \"#utility.yul\":8233:8234   */\n      0x08\n        /* \"#utility.yul\":8221:8231   */\n      dup4\n        /* \"#utility.yul\":8217:8235   */\n      mul\n        /* \"#utility.yul\":8256:8353   */\n      tag_188\n        /* \"#utility.yul\":8286:8352   */\n      0xffffffffffffffffffffffffffffffffffffffffffffffffffffffffffffffff\n        /* \"#utility.yul\":8275:8284   */\n      dup3\n        /* \"#utility.yul\":8256:8353   */\n      tag_88\n      jump\t// in\n    tag_188:\n        /* \"#utility.yul\":8374:8413   */\n      tag_189\n        /* \"#utility.yul\":8404:8412   */\n      dup7\n        /* \"#utility.yul\":8393:8402   */\n      dup4\n        /* \"#utility.yul\":8374:8413   */\n      tag_88\n      jump\t// in\n    tag_189:\n        /* \"#utility.yul\":8362:8413   */\n      swap6\n      pop\n        /* \"#utility.yul\":8446:8450   */\n      dup1\n        /* \"#utility.yul\":8442:8451   */\n      not\n        /* \"#utility.yul\":8435:8440   */\n      dup5\n        /* \"#utility.yul\":8431:8452   */\n      and\n        /* \"#utility.yul\":8422:8452   */\n      swap4\n      pop\n        /* \"#utility.yul\":8495:8499   */\n      dup1\n        /* \"#utility.yul\":8485:8493   */\n      dup7\n        /* \"#utility.yul\":8481:8500   */\n      and\n        /* \"#utility.yul\":8474:8479   */\n      dup5\n        /* \"#utility.yul\":8471:8501   */\n      or\n        /* \"#utility.yul\":8461:8501   */\n      swap3\n      pop\n        /* \"#utility.yul\":8190:8507   */\n      pop\n      pop\n        /* \"#utility.yul\":8114:8507   */\n      swap4\n      swap3\n      pop\n      pop\n      pop\n      jump\t// out\n        /* \"#utility.yul\":8513:8573   */\n    tag_90:\n        /* \"#utility.yul\":8541:8544   */\n      0x00\n        /* \"#utility.yul\":8562:8567   */\n      dup2\n        /* \"#utility.yul\":8555:8567   */\n      swap1\n      pop\n        /* \"#utility.yul\":8513:8573   */\n      swap2\n      swap1\n      pop\n      jump\t// out\n        /* \"#utility.yul\":8579:8721   */\n    tag_91:\n        /* \"#utility.yul\":8629:8638   */\n      0x00\n        /* \"#utility.yul\":8662:8715   */\n      tag_192\n        /* \"#utility.yul\":8680:8714   */\n      tag_193\n        /* \"#utility.yul\":8689:8713   */\n      tag_194\n        /* \"#utility.yul\":8707:8712   */\n      dup5\n        /* \"#utility.yul\":8689:8713   */\n      tag_62\n      jump\t// in\n    tag_194:\n        /* \"#utility.yul\":8680:8714   */\n      tag_90\n      jump\t// in\n    tag_193:\n        /* \"#utility.yul\":8662:8715   */\n      tag_62\n      jump\t// in\n    tag_192:\n        /* \"#utility.yul\":8649:8715   */\n      swap1\n      pop\n        /* \"#utility.yul\":8579:8721   */\n      swap2\n      swap1\n      pop\n      jump\t// out\n        /* \"#utility.yul\":8727:8802   */\n    tag_92:\n        /* \"#utility.yul\":8770:8773   */\n      0x00\n        /* \"#utility.yul\":8791:8796   */\n      dup2\n        /* \"#utility.yul\":8784:8796   */\n      swap1\n      pop\n        /* \"#utility.yul\":8727:8802   */\n      swap2\n      swap1\n      pop\n      jump\t// out\n        /* \"#utility.yul\":8808:9077   */\n    tag_93:\n        /* \"#utility.yul\":8918:8957   */\n      tag_197\n        /* \"#utility.yul\":8949:8956   */\n      dup4\n        /* \"#utility.yul\":8918:8957   */\n      tag_91\n      jump\t// in\n    tag_197:\n        /* \"#utility.yul\":8979:9070   */\n      tag_198\n        /* \"#utility.yul\":9028:9069   */\n      tag_199\n        /* \"#utility.yul\":9052:9068   */\n      dup3\n        /* \"#utility.yul\":9028:9069   */\n      tag_92\n      jump\t// in\n    tag_199:\n        /* \"#utility.yul\":9020:9026   */\n      dup5\n        /* \"#utility.yul\":9013:9017   */\n      dup5\n        /* \"#utility.yul\":9007:9018   */\n      sload\n        /* \"#utility.yul\":8979:9070   */\n      tag_89\n      jump\t// in\n    tag_198:\n        /* \"#utility.yul\":8973:8977   */\n      dup3\n        /* \"#utility.yul\":8966:9071   */\n      sstore\n        /* \"#utility.yul\":8884:9077   */\n      pop\n        /* \"#utility.yul\":8808:9077   */\n      pop\n      pop\n      pop\n      jump\t// out\n        /* \"#utility.yul\":9083:9156   */\n    tag_94:\n        /* \"#utility.yul\":9128:9131   */\n      0x00\n        /* \"#utility.yul\":9083:9156   */\n      swap1\n      jump\t// out\n        /* \"#utility.yul\":9162:9351   */\n    tag_95:\n        /* \"#utility.yul\":9239:9271   */\n      tag_202\n      tag_94\n      jump\t// in\n    tag_202:\n        /* \"#utility.yul\":9280:9345   */\n      tag_203\n        /* \"#utility.yul\":9338:9344   */\n      dup2\n        /* \"#utility.yul\":9330:9336   */\n      dup5\n        /* \"#utility.yul\":9324:9328   */\n      dup5\n        /* \"#utility.yul\":9280:9345   */\n      tag_93\n      jump\t// in\n    tag_203:\n        /* \"#utility.yul\":9215:9351   */\n      pop\n        /* \"#utility.yul\":9162:9351   */\n      pop\n      pop\n      jump\t// out\n        /* \"#utility.yul\":9357:9543   */\n    tag_96:\n        /* \"#utility.yul\":9417:9537   */\n    tag_205:\n        /* \"#utility.yul\":9434:9437   */\n      dup2\n        /* \"#utility.yul\":9427:9432   */\n      dup2\n        /* \"#utility.yul\":9424:9438   */\n      lt\n        /* \"#utility.yul\":9417:9537   */\n      iszero\n      tag_207\n      jumpi\n        /* \"#utility.yul\":9488:9527   */\n      tag_208\n        /* \"#utility.yul\":9525:9526   */\n      0x00\n        /* \"#utility.yul\":9518:9523   */\n      dup3\n        /* \"#utility.yul\":9488:9527   */\n      tag_95\n      jump\t// in\n    tag_208:\n        /* \"#utility.yul\":9461:9462   */\n      0x01\n        /* \"#utility.yul\":9454:9459   */\n      dup2\n        /* \"#utility.yul\":9450:9463   */\n      add\n        /* \"#utility.yul\":9441:9463   */\n      swap1\n      pop\n        /* \"#utility.yul\":9417:9537   */\n      jump(tag_205)\n    tag_207:\n        /* \"#utility.yul\":9357:9543   */\n      pop\n      pop\n      jump\t// out\n        /* \"#utility.yul\":9549:10092   */\n    tag_97:\n        /* \"#utility.yul\":9650:9652   */\n      0x1f\n        /* \"#utility.yul\":9645:9648   */\n      dup3\n        /* \"#utility.yul\":9642:9653   */\n      gt\n        /* \"#utility.yul\":9639:10085   */\n      iszero\n      tag_210\n      jumpi\n        /* \"#utility.yul\":9684:9722   */\n      tag_211\n        /* \"#utility.yul\":9716:9721   */\n      dup2\n        /* \"#utility.yul\":9684:9722   */\n      tag_86\n      jump\t// in\n    tag_211:\n        /* \"#utility.yul\":9768:9797   */\n      tag_212\n        /* \"#utility.yul\":9786:9796   */\n      dup5\n        /* \"#utility.yul\":9768:9797   */\n      tag_87\n      jump\t// in\n    tag_212:\n        /* \"#utility.yul\":9758:9766   */\n      dup2\n        /* \"#utility.yul\":9754:9798   */\n      add\n        /* \"#utility.yul\":9951:9953   */\n      0x20\n        /* \"#utility.yul\":9939:9949   */\n      dup6\n        /* \"#utility.yul\":9936:9954   */\n      lt\n        /* \"#utility.yul\":9933:9982   */\n      iszero\n      tag_213\n      jumpi\n        /* \"#utility.yul\":9972:9980   */\n      dup2\n        /* \"#utility.yul\":9957:9980   */\n      swap1\n      pop\n        /* \"#utility.yul\":9933:9982   */\n    tag_213:\n        /* \"#utility.yul\":9995:10075   */\n      tag_214\n        /* \"#utility.yul\":10051:10073   */\n      tag_215\n        /* \"#utility.yul\":10069:10072   */\n      dup6\n        /* \"#utility.yul\":10051:10073   */\n      tag_87\n      jump\t// in\n    tag_215:\n        /* \"#utility.yul\":10041:10049   */\n      dup4\n        /* \"#utility.yul\":10037:10074   */\n      add\n        /* \"#utility.yul\":10024:10035   */\n      dup3\n        /* \"#utility.yul\":9995:10075   */\n      tag_96\n      jump\t// in\n    tag_214:\n        /* \"#utility.yul\":9654:10085   */\n      pop\n      pop\n        /* \"#utility.yul\":9639:10085   */\n    tag_210:\n        /* \"#utility.yul\":9549:10092   */\n      pop\n      pop\n      pop\n      jump\t// out\n        /* \"#utility.yul\":10098:10215   */\n    tag_98:\n        /* \"#utility.yul\":10152:10160   */\n      0x00\n        /* \"#utility.yul\":10202:10207   */\n      dup3\n        /* \"#utility.yul\":10196:10200   */\n      dup3\n        /* \"#utility.yul\":10192:10208   */\n      shr\n        /* \"#utility.yul\":10171:10208   */\n      swap1\n      pop\n        /* \"#utility.yul\":10098:10215   */\n      swap3\n      swap2\n      pop\n      pop\n      jump\t// out\n        /* \"#utility.yul\":10221:10390   */\n    tag_99:\n        /* \"#utility.yul\":10265:10271   */\n      0x00\n        /* \"#utility.yul\":10298:10349   */\n      tag_218\n        /* \"#utility.yul\":10346:10347   */\n      0x00\n        /* \"#utility.yul\":10342:10348   */\n      not\n        /* \"#utility.yul\":10334:10339   */\n      dup5\n        /* \"#utility.yul\":10331:10332   */\n      0x08\n        /* \"#utility.yul\":10327:10340   */\n      mul\n        /* \"#utility.yul\":10298:10349   */\n      tag_98\n      jump\t// in\n    tag_218:\n        /* \"#utility.yul\":10294:10350   */\n      not\n        /* \"#utility.yul\":10379:10383   */\n      dup1\n        /* \"#utility.yul\":10373:10377   */\n      dup4\n        /* \"#utility.yul\":10369:10384   */\n      and\n        /* \"#utility.yul\":10359:10384   */\n      swap2\n      pop\n        /* \"#utility.yul\":10272:10390   */\n      pop\n        /* \"#utility.yul\":10221:10390   */\n      swap3\n      swap2\n      pop\n      pop\n      jump\t// out\n        /* \"#utility.yul\":10395:10690   */\n    tag_100:\n        /* \"#utility.yul\":10471:10475   */\n      0x00\n        /* \"#utility.yul\":10617:10646   */\n      tag_220\n        /* \"#utility.yul\":10642:10645   */\n      dup4\n        /* \"#utility.yul\":10636:10640   */\n      dup4\n        /* \"#utility.yul\":10617:10646   */\n      tag_99\n      jump\t// in\n    tag_220:\n        /* \"#utility.yul\":10609:10646   */\n      swap2\n      pop\n        /* \"#utility.yul\":10679:10682   */\n      dup3\n        /* \"#utility.yul\":10676:10677   */\n      0x02\n        /* \"#utility.yul\":10672:10683   */\n      mul\n        /* \"#utility.yul\":10666:10670   */\n      dup3\n        /* \"#utility.yul\":10663:10684   */\n      or\n        /* \"#utility.yul\":10655:10684   */\n      swap1\n      pop\n        /* \"#utility.yul\":10395:10690   */\n      swap3\n      swap2\n      pop\n      pop\n      jump\t// out\n        /* \"#utility.yul\":10695:12090   */\n    tag_45:\n        /* \"#utility.yul\":10812:10849   */\n      tag_222\n        /* \"#utility.yul\":10845:10848   */\n      dup3\n        /* \"#utility.yul\":10812:10849   */\n      tag_66\n      jump\t// in\n    tag_222:\n        /* \"#utility.yul\":10914:10932   */\n      0xffffffffffffffff\n        /* \"#utility.yul\":10906:10912   */\n      dup2\n        /* \"#utility.yul\":10903:10933   */\n      gt\n        /* \"#utility.yul\":10900:10956   */\n      iszero\n      tag_223\n      jumpi\n        /* \"#utility.yul\":10936:10954   */\n      tag_224\n      tag_76\n      jump\t// in\n    tag_224:\n        /* \"#utility.yul\":10900:10956   */\n    tag_223:\n        /* \"#utility.yul\":10980:11018   */\n      tag_225\n        /* \"#utility.yul\":11012:11016   */\n      dup3\n        /* \"#utility.yul\":11006:11017   */\n      sload\n        /* \"#utility.yul\":10980:11018   */\n      tag_34\n      jump\t// in\n    tag_225:\n        /* \"#utility.yul\":11065:11132   */\n      tag_226\n        /* \"#utility.yul\":11125:11131   */\n      dup3\n        /* \"#utility.yul\":11117:11123   */\n      dup3\n        /* \"#utility.yul\":11111:11115   */\n      dup6\n        /* \"#utility.yul\":11065:11132   */\n      tag_97\n      jump\t// in\n    tag_226:\n        /* \"#utility.yul\":11159:11160   */\n      0x00\n        /* \"#utility.yul\":11183:11187   */\n      0x20\n        /* \"#utility.yul\":11170:11187   */\n      swap1\n      pop\n        /* \"#utility.yul\":11215:11217   */\n      0x1f\n        /* \"#utility.yul\":11207:11213   */\n      dup4\n        /* \"#utility.yul\":11204:11218   */\n      gt\n        /* \"#utility.yul\":11232:11233   */\n      0x01\n        /* \"#utility.yul\":11227:11845   */\n      dup2\n      eq\n      tag_228\n      jumpi\n        /* \"#utility.yul\":11889:11890   */\n      0x00\n        /* \"#utility.yul\":11906:11912   */\n      dup5\n        /* \"#utility.yul\":11903:11980   */\n      iszero\n      tag_229\n      jumpi\n        /* \"#utility.yul\":11955:11964   */\n      dup3\n        /* \"#utility.yul\":11950:11953   */\n      dup8\n        /* \"#utility.yul\":11946:11965   */\n      add\n        /* \"#utility.yul\":11940:11966   */\n      mload\n        /* \"#utility.yul\":11931:11966   */\n      swap1\n      pop\n        /* \"#utility.yul\":11903:11980   */\n    tag_229:\n        /* \"#utility.yul\":12006:12073   */\n      tag_230\n        /* \"#utility.yul\":12066:12072   */\n      dup6\n        /* \"#utility.yul\":12059:12064   */\n      dup3\n        /* \"#utility.yul\":12006:12073   */\n      tag_100\n      jump\t// in\n    tag_230:\n        /* \"#utility.yul\":12000:12004   */\n      dup7\n        /* \"#utility.yul\":11993:12074   */\n      sstore\n        /* \"#utility.yul\":11862:12084   */\n      pop\n        /* \"#utility.yul\":11197:12084   */\n      jump(tag_227)\n        /* \"#utility.yul\":11227:11845   */\n    tag_228:\n        /* \"#utility.yul\":11279:11283   */\n      0x1f\n        /* \"#utility.yul\":11275:11284   */\n      not\n        /* \"#utility.yul\":11267:11273   */\n      dup5\n        /* \"#utility.yul\":11263:11285   */\n      and\n        /* \"#utility.yul\":11313:11350   */\n      tag_231\n        /* \"#utility.yul\":11345:11349   */\n      dup7\n        /* \"#utility.yul\":11313:11350   */\n      tag_86\n      jump\t// in\n    tag_231:\n        /* \"#utility.yul\":11372:11373   */\n      0x00\n        /* \"#utility.yul\":11386:11594   */\n    tag_232:\n        /* \"#utility.yul\":11400:11407   */\n      dup3\n        /* \"#utility.yul\":11397:11398   */\n      dup2\n        /* \"#utility.yul\":11394:11408   */\n      lt\n        /* \"#utility.yul\":11386:11594   */\n      iszero\n      tag_234\n      jumpi\n        /* \"#utility.yul\":11479:11488   */\n      dup5\n        /* \"#utility.yul\":11474:11477   */\n      dup10\n        /* \"#utility.yul\":11470:11489   */\n      add\n        /* \"#utility.yul\":11464:11490   */\n      mload\n        /* \"#utility.yul\":11456:11462   */\n      dup3\n        /* \"#utility.yul\":11449:11491   */\n      sstore\n        /* \"#utility.yul\":11530:11531   */\n      0x01\n        /* \"#utility.yul\":11522:11528   */\n      dup3\n        /* \"#utility.yul\":11518:11532   */\n      add\n        /* \"#utility.yul\":11508:11532   */\n      swap2\n      pop\n        /* \"#utility.yul\":11577:11579   */\n      0x20\n        /* \"#utility.yul\":11566:11575   */\n      dup6\n        /* \"#utility.yul\":11562:11580   */\n      add\n        /* \"#utility.yul\":11549:11580   */\n      swap5\n      pop\n        /* \"#utility.yul\":11423:11427   */\n      0x20\n        /* \"#utility.yul\":11420:11421   */\n      dup2\n        /* \"#utility.yul\":11416:11428   */\n      add\n        /* \"#utility.yul\":11411:11428   */\n      swap1\n      pop\n        /* \"#utility.yul\":11386:11594   */\n      jump(tag_232)\n    tag_234:\n        /* \"#utility.yul\":11622:11628   */\n      dup7\n        /* \"#utility.yul\":11613:11620   */\n      dup4\n        /* \"#utility.yul\":11610:11629   */\n      lt\n        /* \"#utility.yul\":11607:11786   */\n      iszero\n      tag_235\n      jumpi\n        /* \"#utility.yul\":11680:11689   */\n      dup5\n        /* \"#utility.yul\":11675:11678   */\n      dup10\n        /* \"#utility.yul\":11671:11690   */\n      add\n        /* \"#utility.yul\":11665:11691   */\n      mload\n        /* \"#utility.yul\":11723:11771   */\n      tag_236\n        /* \"#utility.yul\":11765:11769   */\n      0x1f\n        /* \"#utility.yul\":11757:11763   */\n      dup10\n        /* \"#utility.yul\":11753:11770   */\n      and\n        /* \"#utility.yul\":11742:11751   */\n      dup3\n        /* \"#utility.yul\":11723:11771   */\n      tag_99\n      jump\t// in\n    tag_236:\n        /* \"#utility.yul\":11715:11721   */\n      dup4\n        /* \"#utility.yul\":11708:11772   */\n      sstore\n        /* \"#utility.yul\":11630:11786   */\n      pop\n        /* \"#utility.yul\":11607:11786   */\n    tag_235:\n        /* \"#utility.yul\":11832:11833   */\n      0x01\n        /* \"#utility.yul\":11828:11829   */\n      0x02\n        /* \"#utility.yul\":11820:11826   */\n      dup9\n        /* \"#utility.yul\":11816:11830   */\n      mul\n        /* \"#utility.yul\":11812:11834   */\n      add\n        /* \"#utility.yul\":11806:11810   */\n      dup9\n        /* \"#utility.yul\":11799:11835   */\n      sstore\n        /* \"#utility.yul\":11234:11845   */\n      pop\n      pop\n      pop\n        /* \"#utility.yul\":11197:12084   */\n    tag_227:\n      pop\n        /* \"#utility.yul\":10787:12090   */\n      pop\n      pop\n      pop\n        /* \"#utility.yul\":10695:12090   */\n      pop\n      pop\n      jump\t// out\n\n    auxdata: 0xa264697066735822122089d9771616a431cff7f61c2be32edaf5d1f68709062ddd8064097bfc7b31257364736f6c63430008120033\n}\n",
				"bytecode": {
					"linkReferences": {},
					"object": "608060405234801561001057600080fd5b50336000806101000a81548173ffffffffffffffffffffffffffffffffffffffff021916908373ffffffffffffffffffffffffffffffffffffffff160217905550610ab3806100606000396000f3fe608060405234801561001057600080fd5b50600436106100575760003560e01c80634cc822151461005c57806368744046146100785780638da5cb5b146100a95780638e3bf096146100c75780639507d39a146100e3575b600080fd5b61007660048036038101906100719190610428565b610113565b005b610092600480360381019061008d9190610428565b610138565b6040516100a09291906104f4565b60405180910390f35b6100b16101e4565b6040516100be9190610565565b60405180910390f35b6100e160048036038101906100dc91906106b5565b610208565b005b6100fd60048036038101906100f89190610428565b6102d9565b60405161010a9190610711565b60405180910390f35b6001600082815260200190815260200160002060010160006101359190610381565b50565b600160205280600052604060002060009150905080600001549080600101805461016190610762565b80601f016020809104026020016040519081016040528092919081815260200182805461018d90610762565b80156101da5780601f106101af576101008083540402835291602001916101da565b820191906000526020600020905b8154815290600101906020018083116101bd57829003601f168201915b5050505050905082565b60008054906101000a900473ffffffffffffffffffffffffffffffffffffffff1681565b3373ffffffffffffffffffffffffffffffffffffffff1660008054906101000a900473ffffffffffffffffffffffffffffffffffffffff1673ffffffffffffffffffffffffffffffffffffffff1614610296576040517f08c379a000000000000000000000000000000000000000000000000000000000815260040161028d906107df565b60405180910390fd5b816001600084815260200190815260200160002060000181905550806001600084815260200190815260200160002060010190816102d491906109ab565b505050565b60606001600083815260200190815260200160002060010180546102fc90610762565b80601f016020809104026020016040519081016040528092919081815260200182805461032890610762565b80156103755780601f1061034a57610100808354040283529160200191610375565b820191906000526020600020905b81548152906001019060200180831161035857829003601f168201915b50505050509050919050565b50805461038d90610762565b6000825580601f1061039f57506103be565b601f0160209004906000526020600020908101906103bd91906103c1565b5b50565b5b808211156103da5760008160009055506001016103c2565b5090565b6000604051905090565b600080fd5b600080fd5b6000819050919050565b610405816103f2565b811461041057600080fd5b50565b600081359050610422816103fc565b92915050565b60006020828403121561043e5761043d6103e8565b5b600061044c84828501610413565b91505092915050565b61045e816103f2565b82525050565b600081519050919050565b600082825260208201905092915050565b60005b8381101561049e578082015181840152602081019050610483565b60008484015250505050565b6000601f19601f8301169050919050565b60006104c682610464565b6104d0818561046f565b93506104e0818560208601610480565b6104e9816104aa565b840191505092915050565b60006040820190506105096000830185610455565b818103602083015261051b81846104bb565b90509392505050565b600073ffffffffffffffffffffffffffffffffffffffff82169050919050565b600061054f82610524565b9050919050565b61055f81610544565b82525050565b600060208201905061057a6000830184610556565b92915050565b600080fd5b600080fd5b7f4e487b7100000000000000000000000000000000000000000000000000000000600052604160045260246000fd5b6105c2826104aa565b810181811067ffffffffffffffff821117156105e1576105e061058a565b5b80604052505050565b60006105f46103de565b905061060082826105b9565b919050565b600067ffffffffffffffff8211156106205761061f61058a565b5b610629826104aa565b9050602081019050919050565b82818337600083830152505050565b600061065861065384610605565b6105ea565b90508281526020810184848401111561067457610673610585565b5b61067f848285610636565b509392505050565b600082601f83011261069c5761069b610580565b5b81356106ac848260208601610645565b91505092915050565b600080604083850312156106cc576106cb6103e8565b5b60006106da85828601610413565b925050602083013567ffffffffffffffff8111156106fb576106fa6103ed565b5b61070785828601610687565b9150509250929050565b6000602082019050818103600083015261072b81846104bb565b905092915050565b7f4e487b7100000000000000000000000000000000000000000000000000000000600052602260045260246000fd5b6000600282049050600182168061077a57607f821691505b60208210810361078d5761078c610733565b5b50919050565b7f4e6f7420746865206f776e657200000000000000000000000000000000000000600082015250565b60006107c9600d8361046f565b91506107d482610793565b602082019050919050565b600060208201905081810360008301526107f8816107bc565b9050919050565b60008190508160005260206000209050919050565b60006020601f8301049050919050565b600082821b905092915050565b6000600883026108617fffffffffffffffffffffffffffffffffffffffffffffffffffffffffffffffff82610824565b61086b8683610824565b95508019841693508086168417925050509392505050565b6000819050919050565b60006108a86108a361089e846103f2565b610883565b6103f2565b9050919050565b6000819050919050565b6108c28361088d565b6108d66108ce826108af565b848454610831565b825550505050565b600090565b6108eb6108de565b6108f68184846108b9565b505050565b5b8181101561091a5761090f6000826108e3565b6001810190506108fc565b5050565b601f82111561095f57610930816107ff565b61093984610814565b81016020851015610948578190505b61095c61095485610814565b8301826108fb565b50505b505050565b600082821c905092915050565b600061098260001984600802610964565b1980831691505092915050565b600061099b8383610971565b9150826002028217905092915050565b6109b482610464565b67ffffffffffffffff8111156109cd576109cc61058a565b5b6109d78254610762565b6109e282828561091e565b600060209050601f831160018114610a155760008415610a03578287015190505b610a0d858261098f565b865550610a75565b601f198416610a23866107ff565b60005b82811015610a4b57848901518255600182019150602085019450602081019050610a26565b86831015610a685784890151610a64601f891682610971565b8355505b6001600288020188555050505b50505050505056fea264697066735822122089d9771616a431cff7f61c2be32edaf5d1f68709062ddd8064097bfc7b31257364736f6c63430008120033",
					"opcodes": "PUSH1 0x80 PUSH1 0x40 MSTORE CALLVALUE DUP1 ISZERO PUSH2 0x10 JUMPI PUSH1 0x0 DUP1 REVERT JUMPDEST POP CALLER PUSH1 0x0 DUP1 PUSH2 0x100 EXP DUP2 SLOAD DUP2 PUSH20 0xFFFFFFFFFFFFFFFFFFFFFFFFFFFFFFFFFFFFFFFF MUL NOT AND SWAP1 DUP4 PUSH20 0xFFFFFFFFFFFFFFFFFFFFFFFFFFFFFFFFFFFFFFFF AND MUL OR SWAP1 SSTORE POP PUSH2 0xAB3 DUP1 PUSH2 0x60 PUSH1 0x0 CODECOPY PUSH1 0x0 RETURN INVALID PUSH1 0x80 PUSH1 0x40 MSTORE CALLVALUE DUP1 ISZERO PUSH2 0x10 JUMPI PUSH1 0x0 DUP1 REVERT JUMPDEST POP PUSH1 0x4 CALLDATASIZE LT PUSH2 0x57 JUMPI PUSH1 0x0 CALLDATALOAD PUSH1 0xE0 SHR DUP1 PUSH4 0x4CC82215 EQ PUSH2 0x5C JUMPI DUP1 PUSH4 0x68744046 EQ PUSH2 0x78 JUMPI DUP1 PUSH4 0x8DA5CB5B EQ PUSH2 0xA9 JUMPI DUP1 PUSH4 0x8E3BF096 EQ PUSH2 0xC7 JUMPI DUP1 PUSH4 0x9507D39A EQ PUSH2 0xE3 JUMPI JUMPDEST PUSH1 0x0 DUP1 REVERT JUMPDEST PUSH2 0x76 PUSH1 0x4 DUP1 CALLDATASIZE SUB DUP2 ADD SWAP1 PUSH2 0x71 SWAP2 SWAP1 PUSH2 0x428 JUMP JUMPDEST PUSH2 0x113 JUMP JUMPDEST STOP JUMPDEST PUSH2 0x92 PUSH1 0x4 DUP1 CALLDATASIZE SUB DUP2 ADD SWAP1 PUSH2 0x8D SWAP2 SWAP1 PUSH2 0x428 JUMP JUMPDEST PUSH2 0x138 JUMP JUMPDEST PUSH1 0x40 MLOAD PUSH2 0xA0 SWAP3 SWAP2 SWAP1 PUSH2 0x4F4 JUMP JUMPDEST PUSH1 0x40 MLOAD DUP1 SWAP2 SUB SWAP1 RETURN JUMPDEST PUSH2 0xB1 PUSH2 0x1E4 JUMP JUMPDEST PUSH1 0x40 MLOAD PUSH2 0xBE SWAP2 SWAP1 PUSH2 0x565 JUMP JUMPDEST PUSH1 0x40 MLOAD DUP1 SWAP2 SUB SWAP1 RETURN JUMPDEST PUSH2 0xE1 PUSH1 0x4 DUP1 CALLDATASIZE SUB DUP2 ADD SWAP1 PUSH2 0xDC SWAP2 SWAP1 PUSH2 0x6B5 JUMP JUMPDEST PUSH2 0x208 JUMP JUMPDEST STOP JUMPDEST PUSH2 0xFD PUSH1 0x4 DUP1 CALLDATASIZE SUB DUP2 ADD SWAP1 PUSH2 0xF8 SWAP2 SWAP1 PUSH2 0x428 JUMP JUMPDEST PUSH2 0x2D9 JUMP JUMPDEST PUSH1 0x40 MLOAD PUSH2 0x10A SWAP2 SWAP1 PUSH2 0x711 JUMP JUMPDEST PUSH1 0x40 MLOAD DUP1 SWAP2 SUB SWAP1 RETURN JUMPDEST PUSH1 0x1 PUSH1 0x0 DUP3 DUP2 MSTORE PUSH1 0x20 ADD SWAP1 DUP2 MSTORE PUSH1 0x20 ADD PUSH1 0x0 KECCAK256 PUSH1 0x1 ADD PUSH1 0x0 PUSH2 0x135 SWAP2 SWAP1 PUSH2 0x381 JUMP JUMPDEST POP JUMP JUMPDEST PUSH1 0x1 PUSH1 0x20 MSTORE DUP1 PUSH1 0x0 MSTORE PUSH1 0x40 PUSH1 0x0 KECCAK256 PUSH1 0x0 SWAP2 POP SWAP1 POP DUP1 PUSH1 0x0 ADD SLOAD SWAP1 DUP1 PUSH1 0x1 ADD DUP1 SLOAD PUSH2 0x161 SWAP1 PUSH2 0x762 JUMP JUMPDEST DUP1 PUSH1 0x1F ADD PUSH1 0x20 DUP1 SWAP2 DIV MUL PUSH1 0x20 ADD PUSH1 0x40 MLOAD SWAP1 DUP2 ADD PUSH1 0x40 MSTORE DUP1 SWAP3 SWAP2 SWAP1 DUP2 DUP2 MSTORE PUSH1 0x20 ADD DUP3 DUP1 SLOAD PUSH2 0x18D SWAP1 PUSH2 0x762 JUMP JUMPDEST DUP1 ISZERO PUSH2 0x1DA JUMPI DUP1 PUSH1 0x1F LT PUSH2 0x1AF JUMPI PUSH2 0x100 DUP1 DUP4 SLOAD DIV MUL DUP4 MSTORE SWAP2 PUSH1 0x20 ADD SWAP2 PUSH2 0x1DA JUMP JUMPDEST DUP3 ADD SWAP2 SWAP1 PUSH1 0x0 MSTORE PUSH1 0x20 PUSH1 0x0 KECCAK256 SWAP1 JUMPDEST DUP2 SLOAD DUP2 MSTORE SWAP1 PUSH1 0x1 ADD SWAP1 PUSH1 0x20 ADD DUP1 DUP4 GT PUSH2 0x1BD JUMPI DUP3 SWAP1 SUB PUSH1 0x1F AND DUP3 ADD SWAP2 JUMPDEST POP POP POP POP POP SWAP1 POP DUP3 JUMP JUMPDEST PUSH1 0x0 DUP1 SLOAD SWAP1 PUSH2 0x100 EXP SWAP1 DIV PUSH20 0xFFFFFFFFFFFFFFFFFFFFFFFFFFFFFFFFFFFFFFFF AND DUP2 JUMP JUMPDEST CALLER PUSH20 0xFFFFFFFFFFFFFFFFFFFFFFFFFFFFFFFFFFFFFFFF AND PUSH1 0x0 DUP1 SLOAD SWAP1 PUSH2 0x100 EXP SWAP1 DIV PUSH20 0xFFFFFFFFFFFFFFFFFFFFFFFFFFFFFFFFFFFFFFFF AND PUSH20 0xFFFFFFFFFFFFFFFFFFFFFFFFFFFFFFFFFFFFFFFF AND EQ PUSH2 0x296 JUMPI PUSH1 0x40 MLOAD PUSH32 0x8C379A000000000000000000000000000000000000000000000000000000000 DUP2 MSTORE PUSH1 0x4 ADD PUSH2 0x28D SWAP1 PUSH2 0x7DF JUMP JUMPDEST PUSH1 0x40 MLOAD DUP1 SWAP2 SUB SWAP1 REVERT JUMPDEST DUP2 PUSH1 0x1 PUSH1 0x0 DUP5 DUP2 MSTORE PUSH1 0x20 ADD SWAP1 DUP2 MSTORE PUSH1 0x20 ADD PUSH1 0x0 KECCAK256 PUSH1 0x0 ADD DUP2 SWAP1 SSTORE POP DUP1 PUSH1 0x1 PUSH1 0x0 DUP5 DUP2 MSTORE PUSH1 0x20 ADD SWAP1 DUP2 MSTORE PUSH1 0x20 ADD PUSH1 0x0 KECCAK256 PUSH1 0x1 ADD SWAP1 DUP2 PUSH2 0x2D4 SWAP2 SWAP1 PUSH2 0x9AB JUMP JUMPDEST POP POP POP JUMP JUMPDEST PUSH1 0x60 PUSH1 0x1 PUSH1 0x0 DUP4 DUP2 MSTORE PUSH1 0x20 ADD SWAP1 DUP2 MSTORE PUSH1 0x20 ADD PUSH1 0x0 KECCAK256 PUSH1 0x1 ADD DUP1 SLOAD PUSH2 0x2FC SWAP1 PUSH2 0x762 JUMP JUMPDEST DUP1 PUSH1 0x1F ADD PUSH1 0x20 DUP1 SWAP2 DIV MUL PUSH1 0x20 ADD PUSH1 0x40 MLOAD SWAP1 DUP2 ADD PUSH1 0x40 MSTORE DUP1 SWAP3 SWAP2 SWAP1 DUP2 DUP2 MSTORE PUSH1 0x20 ADD DUP3 DUP1 SLOAD PUSH2 0x328 SWAP1 PUSH2 0x762 JUMP JUMPDEST DUP1 ISZERO PUSH2 0x375 JUMPI DUP1 PUSH1 0x1F LT PUSH2 0x34A JUMPI PUSH2 0x100 DUP1 DUP4 SLOAD DIV MUL DUP4 MSTORE SWAP2 PUSH1 0x20 ADD SWAP2 PUSH2 0x375 JUMP JUMPDEST DUP3 ADD SWAP2 SWAP1 PUSH1 0x0 MSTORE PUSH1 0x20 PUSH1 0x0 KECCAK256 SWAP1 JUMPDEST DUP2 SLOAD DUP2 MSTORE SWAP1 PUSH1 0x1 ADD SWAP1 PUSH1 0x20 ADD DUP1 DUP4 GT PUSH2 0x358 JUMPI DUP3 SWAP1 SUB PUSH1 0x1F AND DUP3 ADD SWAP2 JUMPDEST POP POP POP POP POP SWAP1 POP SWAP2 SWAP1 POP JUMP JUMPDEST POP DUP1 SLOAD PUSH2 0x38D SWAP1 PUSH2 0x762 JUMP JUMPDEST PUSH1 0x0 DUP3 SSTORE DUP1 PUSH1 0x1F LT PUSH2 0x39F JUMPI POP PUSH2 0x3BE JUMP JUMPDEST PUSH1 0x1F ADD PUSH1 0x20 SWAP1 DIV SWAP1 PUSH1 0x0 MSTORE PUSH1 0x20 PUSH1 0x0 KECCAK256 SWAP1 DUP2 ADD SWAP1 PUSH2 0x3BD SWAP2 SWAP1 PUSH2 0x3C1 JUMP JUMPDEST JUMPDEST POP JUMP JUMPDEST JUMPDEST DUP1 DUP3 GT ISZERO PUSH2 0x3DA JUMPI PUSH1 0x0 DUP2 PUSH1 0x0 SWAP1 SSTORE POP PUSH1 0x1 ADD PUSH2 0x3C2 JUMP JUMPDEST POP SWAP1 JUMP JUMPDEST PUSH1 0x0 PUSH1 0x40 MLOAD SWAP1 POP SWAP1 JUMP JUMPDEST PUSH1 0x0 DUP1 REVERT JUMPDEST PUSH1 0x0 DUP1 REVERT JUMPDEST PUSH1 0x0 DUP2 SWAP1 POP SWAP2 SWAP1 POP JUMP JUMPDEST PUSH2 0x405 DUP2 PUSH2 0x3F2 JUMP JUMPDEST DUP2 EQ PUSH2 0x410 JUMPI PUSH1 0x0 DUP1 REVERT JUMPDEST POP JUMP JUMPDEST PUSH1 0x0 DUP2 CALLDATALOAD SWAP1 POP PUSH2 0x422 DUP2 PUSH2 0x3FC JUMP JUMPDEST SWAP3 SWAP2 POP POP JUMP JUMPDEST PUSH1 0x0 PUSH1 0x20 DUP3 DUP5 SUB SLT ISZERO PUSH2 0x43E JUMPI PUSH2 0x43D PUSH2 0x3E8 JUMP JUMPDEST JUMPDEST PUSH1 0x0 PUSH2 0x44C DUP5 DUP3 DUP6 ADD PUSH2 0x413 JUMP JUMPDEST SWAP2 POP POP SWAP3 SWAP2 POP POP JUMP JUMPDEST PUSH2 0x45E DUP2 PUSH2 0x3F2 JUMP JUMPDEST DUP3 MSTORE POP POP JUMP JUMPDEST PUSH1 0x0 DUP2 MLOAD SWAP1 POP SWAP2 SWAP1 POP JUMP JUMPDEST PUSH1 0x0 DUP3 DUP3 MSTORE PUSH1 0x20 DUP3 ADD SWAP1 POP SWAP3 SWAP2 POP POP JUMP JUMPDEST PUSH1 0x0 JUMPDEST DUP4 DUP2 LT ISZERO PUSH2 0x49E JUMPI DUP1 DUP3 ADD MLOAD DUP2 DUP5 ADD MSTORE PUSH1 0x20 DUP2 ADD SWAP1 POP PUSH2 0x483 JUMP JUMPDEST PUSH1 0x0 DUP5 DUP5 ADD MSTORE POP POP POP POP JUMP JUMPDEST PUSH1 0x0 PUSH1 0x1F NOT PUSH1 0x1F DUP4 ADD AND SWAP1 POP SWAP2 SWAP1 POP JUMP JUMPDEST PUSH1 0x0 PUSH2 0x4C6 DUP3 PUSH2 0x464 JUMP JUMPDEST PUSH2 0x4D0 DUP2 DUP6 PUSH2 0x46F JUMP JUMPDEST SWAP4 POP PUSH2 0x4E0 DUP2 DUP6 PUSH1 0x20 DUP7 ADD PUSH2 0x480 JUMP JUMPDEST PUSH2 0x4E9 DUP2 PUSH2 0x4AA JUMP JUMPDEST DUP5 ADD SWAP2 POP POP SWAP3 SWAP2 POP POP JUMP JUMPDEST PUSH1 0x0 PUSH1 0x40 DUP3 ADD SWAP1 POP PUSH2 0x509 PUSH1 0x0 DUP4 ADD DUP6 PUSH2 0x455 JUMP JUMPDEST DUP2 DUP2 SUB PUSH1 0x20 DUP4 ADD MSTORE PUSH2 0x51B DUP2 DUP5 PUSH2 0x4BB JUMP JUMPDEST SWAP1 POP SWAP4 SWAP3 POP POP POP JUMP JUMPDEST PUSH1 0x0 PUSH20 0xFFFFFFFFFFFFFFFFFFFFFFFFFFFFFFFFFFFFFFFF DUP3 AND SWAP1 POP SWAP2 SWAP1 POP JUMP JUMPDEST PUSH1 0x0 PUSH2 0x54F DUP3 PUSH2 0x524 JUMP JUMPDEST SWAP1 POP SWAP2 SWAP1 POP JUMP JUMPDEST PUSH2 0x55F DUP2 PUSH2 0x544 JUMP JUMPDEST DUP3 MSTORE POP POP JUMP JUMPDEST PUSH1 0x0 PUSH1 0x20 DUP3 ADD SWAP1 POP PUSH2 0x57A PUSH1 0x0 DUP4 ADD DUP5 PUSH2 0x556 JUMP JUMPDEST SWAP3 SWAP2 POP POP JUMP JUMPDEST PUSH1 0x0 DUP1 REVERT JUMPDEST PUSH1 0x0 DUP1 REVERT JUMPDEST PUSH32 0x4E487B7100000000000000000000000000000000000000000000000000000000 PUSH1 0x0 MSTORE PUSH1 0x41 PUSH1 0x4 MSTORE PUSH1 0x24 PUSH1 0x0 REVERT JUMPDEST PUSH2 0x5C2 DUP3 PUSH2 0x4AA JUMP JUMPDEST DUP2 ADD DUP2 DUP2 LT PUSH8 0xFFFFFFFFFFFFFFFF DUP3 GT OR ISZERO PUSH2 0x5E1 JUMPI PUSH2 0x5E0 PUSH2 0x58A JUMP JUMPDEST JUMPDEST DUP1 PUSH1 0x40 MSTORE POP POP POP JUMP JUMPDEST PUSH1 0x0 PUSH2 0x5F4 PUSH2 0x3DE JUMP JUMPDEST SWAP1 POP PUSH2 0x600 DUP3 DUP3 PUSH2 0x5B9 JUMP JUMPDEST SWAP2 SWAP1 POP JUMP JUMPDEST PUSH1 0x0 PUSH8 0xFFFFFFFFFFFFFFFF DUP3 GT ISZERO PUSH2 0x620 JUMPI PUSH2 0x61F PUSH2 0x58A JUMP JUMPDEST JUMPDEST PUSH2 0x629 DUP3 PUSH2 0x4AA JUMP JUMPDEST SWAP1 POP PUSH1 0x20 DUP2 ADD SWAP1 POP SWAP2 SWAP1 POP JUMP JUMPDEST DUP3 DUP2 DUP4 CALLDATACOPY PUSH1 0x0 DUP4 DUP4 ADD MSTORE POP POP POP JUMP JUMPDEST PUSH1 0x0 PUSH2 0x658 PUSH2 0x653 DUP5 PUSH2 0x605 JUMP JUMPDEST PUSH2 0x5EA JUMP JUMPDEST SWAP1 POP DUP3 DUP2 MSTORE PUSH1 0x20 DUP2 ADD DUP5 DUP5 DUP5 ADD GT ISZERO PUSH2 0x674 JUMPI PUSH2 0x673 PUSH2 0x585 JUMP JUMPDEST JUMPDEST PUSH2 0x67F DUP5 DUP3 DUP6 PUSH2 0x636 JUMP JUMPDEST POP SWAP4 SWAP3 POP POP POP JUMP JUMPDEST PUSH1 0x0 DUP3 PUSH1 0x1F DUP4 ADD SLT PUSH2 0x69C JUMPI PUSH2 0x69B PUSH2 0x580 JUMP JUMPDEST JUMPDEST DUP2 CALLDATALOAD PUSH2 0x6AC DUP5 DUP3 PUSH1 0x20 DUP7 ADD PUSH2 0x645 JUMP JUMPDEST SWAP2 POP POP SWAP3 SWAP2 POP POP JUMP JUMPDEST PUSH1 0x0 DUP1 PUSH1 0x40 DUP4 DUP6 SUB SLT ISZERO PUSH2 0x6CC JUMPI PUSH2 0x6CB PUSH2 0x3E8 JUMP JUMPDEST JUMPDEST PUSH1 0x0 PUSH2 0x6DA DUP6 DUP3 DUP7 ADD PUSH2 0x413 JUMP JUMPDEST SWAP3 POP POP PUSH1 0x20 DUP4 ADD CALLDATALOAD PUSH8 0xFFFFFFFFFFFFFFFF DUP2 GT ISZERO PUSH2 0x6FB JUMPI PUSH2 0x6FA PUSH2 0x3ED JUMP JUMPDEST JUMPDEST PUSH2 0x707 DUP6 DUP3 DUP7 ADD PUSH2 0x687 JUMP JUMPDEST SWAP2 POP POP SWAP3 POP SWAP3 SWAP1 POP JUMP JUMPDEST PUSH1 0x0 PUSH1 0x20 DUP3 ADD SWAP1 POP DUP2 DUP2 SUB PUSH1 0x0 DUP4 ADD MSTORE PUSH2 0x72B DUP2 DUP5 PUSH2 0x4BB JUMP JUMPDEST SWAP1 POP SWAP3 SWAP2 POP POP JUMP JUMPDEST PUSH32 0x4E487B7100000000000000000000000000000000000000000000000000000000 PUSH1 0x0 MSTORE PUSH1 0x22 PUSH1 0x4 MSTORE PUSH1 0x24 PUSH1 0x0 REVERT JUMPDEST PUSH1 0x0 PUSH1 0x2 DUP3 DIV SWAP1 POP PUSH1 0x1 DUP3 AND DUP1 PUSH2 0x77A JUMPI PUSH1 0x7F DUP3 AND SWAP2 POP JUMPDEST PUSH1 0x20 DUP3 LT DUP2 SUB PUSH2 0x78D JUMPI PUSH2 0x78C PUSH2 0x733 JUMP JUMPDEST JUMPDEST POP SWAP2 SWAP1 POP JUMP JUMPDEST PUSH32 0x4E6F7420746865206F776E657200000000000000000000000000000000000000 PUSH1 0x0 DUP3 ADD MSTORE POP JUMP JUMPDEST PUSH1 0x0 PUSH2 0x7C9 PUSH1 0xD DUP4 PUSH2 0x46F JUMP JUMPDEST SWAP2 POP PUSH2 0x7D4 DUP3 PUSH2 0x793 JUMP JUMPDEST PUSH1 0x20 DUP3 ADD SWAP1 POP SWAP2 SWAP1 POP JUMP JUMPDEST PUSH1 0x0 PUSH1 0x20 DUP3 ADD SWAP1 POP DUP2 DUP2 SUB PUSH1 0x0 DUP4 ADD MSTORE PUSH2 0x7F8 DUP2 PUSH2 0x7BC JUMP JUMPDEST SWAP1 POP SWAP2 SWAP1 POP JUMP JUMPDEST PUSH1 0x0 DUP2 SWAP1 POP DUP2 PUSH1 0x0 MSTORE PUSH1 0x20 PUSH1 0x0 KECCAK256 SWAP1 POP SWAP2 SWAP1 POP JUMP JUMPDEST PUSH1 0x0 PUSH1 0x20 PUSH1 0x1F DUP4 ADD DIV SWAP1 POP SWAP2 SWAP1 POP JUMP JUMPDEST PUSH1 0x0 DUP3 DUP3 SHL SWAP1 POP SWAP3 SWAP2 POP POP JUMP JUMPDEST PUSH1 0x0 PUSH1 0x8 DUP4 MUL PUSH2 0x861 PUSH32 0xFFFFFFFFFFFFFFFFFFFFFFFFFFFFFFFFFFFFFFFFFFFFFFFFFFFFFFFFFFFFFFFF DUP3 PUSH2 0x824 JUMP JUMPDEST PUSH2 0x86B DUP7 DUP4 PUSH2 0x824 JUMP JUMPDEST SWAP6 POP DUP1 NOT DUP5 AND SWAP4 POP DUP1 DUP7 AND DUP5 OR SWAP3 POP POP POP SWAP4 SWAP3 POP POP POP JUMP JUMPDEST PUSH1 0x0 DUP2 SWAP1 POP SWAP2 SWAP1 POP JUMP JUMPDEST PUSH1 0x0 PUSH2 0x8A8 PUSH2 0x8A3 PUSH2 0x89E DUP5 PUSH2 0x3F2 JUMP JUMPDEST PUSH2 0x883 JUMP JUMPDEST PUSH2 0x3F2 JUMP JUMPDEST SWAP1 POP SWAP2 SWAP1 POP JUMP JUMPDEST PUSH1 0x0 DUP2 SWAP1 POP SWAP2 SWAP1 POP JUMP JUMPDEST PUSH2 0x8C2 DUP4 PUSH2 0x88D JUMP JUMPDEST PUSH2 0x8D6 PUSH2 0x8CE DUP3 PUSH2 0x8AF JUMP JUMPDEST DUP5 DUP5 SLOAD PUSH2 0x831 JUMP JUMPDEST DUP3 SSTORE POP POP POP POP JUMP JUMPDEST PUSH1 0x0 SWAP1 JUMP JUMPDEST PUSH2 0x8EB PUSH2 0x8DE JUMP JUMPDEST PUSH2 0x8F6 DUP2 DUP5 DUP5 PUSH2 0x8B9 JUMP JUMPDEST POP POP POP JUMP JUMPDEST JUMPDEST DUP2 DUP2 LT ISZERO PUSH2 0x91A JUMPI PUSH2 0x90F PUSH1 0x0 DUP3 PUSH2 0x8E3 JUMP JUMPDEST PUSH1 0x1 DUP2 ADD SWAP1 POP PUSH2 0x8FC JUMP JUMPDEST POP POP JUMP JUMPDEST PUSH1 0x1F DUP3 GT ISZERO PUSH2 0x95F JUMPI PUSH2 0x930 DUP2 PUSH2 0x7FF JUMP JUMPDEST PUSH2 0x939 DUP5 PUSH2 0x814 JUMP JUMPDEST DUP2 ADD PUSH1 0x20 DUP6 LT ISZERO PUSH2 0x948 JUMPI DUP2 SWAP1 POP JUMPDEST PUSH2 0x95C PUSH2 0x954 DUP6 PUSH2 0x814 JUMP JUMPDEST DUP4 ADD DUP3 PUSH2 0x8FB JUMP JUMPDEST POP POP JUMPDEST POP POP POP JUMP JUMPDEST PUSH1 0x0 DUP3 DUP3 SHR SWAP1 POP SWAP3 SWAP2 POP POP JUMP JUMPDEST PUSH1 0x0 PUSH2 0x982 PUSH1 0x0 NOT DUP5 PUSH1 0x8 MUL PUSH2 0x964 JUMP JUMPDEST NOT DUP1 DUP4 AND SWAP2 POP POP SWAP3 SWAP2 POP POP JUMP JUMPDEST PUSH1 0x0 PUSH2 0x99B DUP4 DUP4 PUSH2 0x971 JUMP JUMPDEST SWAP2 POP DUP3 PUSH1 0x2 MUL DUP3 OR SWAP1 POP SWAP3 SWAP2 POP POP JUMP JUMPDEST PUSH2 0x9B4 DUP3 PUSH2 0x464 JUMP JUMPDEST PUSH8 0xFFFFFFFFFFFFFFFF DUP2 GT ISZERO PUSH2 0x9CD JUMPI PUSH2 0x9CC PUSH2 0x58A JUMP JUMPDEST JUMPDEST PUSH2 0x9D7 DUP3 SLOAD PUSH2 0x762 JUMP JUMPDEST PUSH2 0x9E2 DUP3 DUP3 DUP6 PUSH2 0x91E JUMP JUMPDEST PUSH1 0x0 PUSH1 0x20 SWAP1 POP PUSH1 0x1F DUP4 GT PUSH1 0x1 DUP2 EQ PUSH2 0xA15 JUMPI PUSH1 0x0 DUP5 ISZERO PUSH2 0xA03 JUMPI DUP3 DUP8 ADD MLOAD SWAP1 POP JUMPDEST PUSH2 0xA0D DUP6 DUP3 PUSH2 0x98F JUMP JUMPDEST DUP7 SSTORE POP PUSH2 0xA75 JUMP JUMPDEST PUSH1 0x1F NOT DUP5 AND PUSH2 0xA23 DUP7 PUSH2 0x7FF JUMP JUMPDEST PUSH1 0x0 JUMPDEST DUP3 DUP2 LT ISZERO PUSH2 0xA4B JUMPI DUP5 DUP10 ADD MLOAD DUP3 SSTORE PUSH1 0x1 DUP3 ADD SWAP2 POP PUSH1 0x20 DUP6 ADD SWAP5 POP PUSH1 0x20 DUP2 ADD SWAP1 POP PUSH2 0xA26 JUMP JUMPDEST DUP7 DUP4 LT ISZERO PUSH2 0xA68 JUMPI DUP5 DUP10 ADD MLOAD PUSH2 0xA64 PUSH1 0x1F DUP10 AND DUP3 PUSH2 0x971 JUMP JUMPDEST DUP4 SSTORE POP JUMPDEST PUSH1 0x1 PUSH1 0x2 DUP9 MUL ADD DUP9 SSTORE POP POP POP JUMPDEST POP POP POP POP POP POP JUMP INVALID LOG2 PUSH5 0x6970667358 0x22 SLT KECCAK256 DUP10 0xD9 PUSH24 0x1616A431CFF7F61C2BE32EDAF5D1F68709062DDD8064097B 0xFC PUSH28 0x31257364736F6C634300081200330000000000000000000000000000 "
				},
				"gasEstimates": {
					"creation": {
						"codeDepositCost": "547800",
						"executionCost": "24847",
						"totalCost": "572647"
					},
					"external": {
						"addbooks(uint256,string)": "infinite",
						"books(uint256)": "infinite",
						"get(uint256)": "infinite",
						"owner()": "2533",
						"remove(uint256)": "infinite"
					}
				},
				"methodIdentifiers": {
					"addbooks(uint256,string)": "8e3bf096",
					"books(uint256)": "68744046",
					"get(uint256)": "9507d39a",
					"owner()": "8da5cb5b",
					"remove(uint256)": "4cc82215"
				}
			},
			"storageLayout": {
				"storage": [
					{
						"astId": 3,
						"contract": "contracts/library2.sol:Library",
						"label": "owner",
						"offset": 0,
						"slot": "0",
						"type": "t_address"
					},
					{
						"astId": 34,
						"contract": "contracts/library2.sol:Library",
						"label": "books",
						"offset": 0,
						"slot": "1",
						"type": "t_mapping(t_uint256,t_struct(Book)29_storage)"
					}
				],
				"types": {
					"t_address": {
						"encoding": "inplace",
						"label": "address",
						"numberOfBytes": "20"
					},
					"t_mapping(t_uint256,t_struct(Book)29_storage)": {
						"encoding": "mapping",
						"key": "t_uint256",
						"label": "mapping(uint256 => struct Library.Book)",
						"numberOfBytes": "32",
						"value": "t_struct(Book)29_storage"
					},
					"t_string_storage": {
						"encoding": "bytes",
						"label": "string",
						"numberOfBytes": "32"
					},
					"t_struct(Book)29_storage": {
						"encoding": "inplace",
						"label": "struct Library.Book",
						"members": [
							{
								"astId": 26,
								"contract": "contracts/library2.sol:Library",
								"label": "id",
								"offset": 0,
								"slot": "0",
								"type": "t_uint256"
							},
							{
								"astId": 28,
								"contract": "contracts/library2.sol:Library",
								"label": "name",
								"offset": 0,
								"slot": "1",
								"type": "t_string_storage"
							}
						],
						"numberOfBytes": "64"
					},
					"t_uint256": {
						"encoding": "inplace",
						"label": "uint256",
						"numberOfBytes": "32"
					}
				}
			},
			"userdoc": {
				"kind": "user",
				"methods": {},
				"version": 1
			}
		}
	}
}