{
	"contracts/visibility.sol": {
		"A": {
			"abi": [
				{
					"inputs": [],
					"name": "ex",
					"outputs": [
						{
							"internalType": "uint256",
							"name": "",
							"type": "uint256"
						}
					],
					"stateMutability": "view",
					"type": "function"
				},
				{
					"inputs": [],
					"name": "ext",
					"outputs": [],
					"stateMutability": "view",
					"type": "function"
				},
				{
					"inputs": [],
					"name": "pub",
					"outputs": [
						{
							"internalType": "uint256",
							"name": "",
							"type": "uint256"
						}
					],
					"stateMutability": "view",
					"type": "function"
				},
				{
					"inputs": [],
					"name": "x",
					"outputs": [
						{
							"internalType": "uint256",
							"name": "",
							"type": "uint256"
						}
					],
					"stateMutability": "view",
					"type": "function"
				}
			],
			"devdoc": {
				"kind": "dev",
				"methods": {},
				"version": 1
			},
			"evm": {
				"assembly": "    /* \"contracts/visibility.sol\":648:1201  contract A{... */\n  mstore(0x40, 0x80)\n    /* \"contracts/visibility.sol\":681:682  0 */\n  0x00\n    /* \"contracts/visibility.sol\":665:682  uint public x = 0 */\n  dup1\n  sstore\n    /* \"contracts/visibility.sol\":704:705  1 */\n  0x01\n    /* \"contracts/visibility.sol\":689:705  uint private y=1 */\n  dup1\n  sstore\n    /* \"contracts/visibility.sol\":730:731  2 */\n  0x02\n    /* \"contracts/visibility.sol\":712:731  uint internal z = 2 */\n  dup1\n  sstore\n    /* \"contracts/visibility.sol\":648:1201  contract A{... */\n  callvalue\n  dup1\n  iszero\n  tag_1\n  jumpi\n  0x00\n  dup1\n  revert\ntag_1:\n  pop\n  dataSize(sub_0)\n  dup1\n  dataOffset(sub_0)\n  0x00\n  codecopy\n  0x00\n  return\nstop\n\nsub_0: assembly {\n        /* \"contracts/visibility.sol\":648:1201  contract A{... */\n      mstore(0x40, 0x80)\n      callvalue\n      dup1\n      iszero\n      tag_1\n      jumpi\n      0x00\n      dup1\n      revert\n    tag_1:\n      pop\n      jumpi(tag_2, lt(calldatasize, 0x04))\n      shr(0xe0, calldataload(0x00))\n      dup1\n      0x0c55699c\n      eq\n      tag_3\n      jumpi\n      dup1\n      0x7defb410\n      eq\n      tag_4\n      jumpi\n      dup1\n      0xcf9f23b5\n      eq\n      tag_5\n      jumpi\n      dup1\n      0xe1c34549\n      eq\n      tag_6\n      jumpi\n    tag_2:\n      0x00\n      dup1\n      revert\n        /* \"contracts/visibility.sol\":665:682  uint public x = 0 */\n    tag_3:\n      tag_7\n      tag_8\n      jump\t// in\n    tag_7:\n      mload(0x40)\n      tag_9\n      swap2\n      swap1\n      tag_10\n      jump\t// in\n    tag_9:\n      mload(0x40)\n      dup1\n      swap2\n      sub\n      swap1\n      return\n        /* \"contracts/visibility.sol\":738:816  function pub() public view virtual returns(uint){... */\n    tag_4:\n      tag_11\n      tag_12\n      jump\t// in\n    tag_11:\n      mload(0x40)\n      tag_13\n      swap2\n      swap1\n      tag_10\n      jump\t// in\n    tag_13:\n      mload(0x40)\n      dup1\n      swap2\n      sub\n      swap1\n      return\n        /* \"contracts/visibility.sol\":1090:1198  function ext() external view{... */\n    tag_5:\n      tag_14\n      tag_15\n      jump\t// in\n    tag_14:\n      stop\n        /* \"contracts/visibility.sol\":992:1084  function ex() external view virtual returns(uint){... */\n    tag_6:\n      tag_16\n      tag_17\n      jump\t// in\n    tag_16:\n      mload(0x40)\n      tag_18\n      swap2\n      swap1\n      tag_10\n      jump\t// in\n    tag_18:\n      mload(0x40)\n      dup1\n      swap2\n      sub\n      swap1\n      return\n        /* \"contracts/visibility.sol\":665:682  uint public x = 0 */\n    tag_8:\n      sload(0x00)\n      dup2\n      jump\t// out\n        /* \"contracts/visibility.sol\":738:816  function pub() public view virtual returns(uint){... */\n    tag_12:\n        /* \"contracts/visibility.sol\":781:785  uint */\n      0x00\n        /* \"contracts/visibility.sol\":807:808  z */\n      sload(0x02)\n        /* \"contracts/visibility.sol\":805:806  y */\n      sload(0x01)\n        /* \"contracts/visibility.sol\":803:804  x */\n      sload(0x00)\n        /* \"contracts/visibility.sol\":803:806  x+y */\n      tag_20\n      swap2\n      swap1\n      tag_21\n      jump\t// in\n    tag_20:\n        /* \"contracts/visibility.sol\":803:808  x+y+z */\n      tag_22\n      swap2\n      swap1\n      tag_21\n      jump\t// in\n    tag_22:\n        /* \"contracts/visibility.sol\":796:808  return x+y+z */\n      swap1\n      pop\n        /* \"contracts/visibility.sol\":738:816  function pub() public view virtual returns(uint){... */\n      swap1\n      jump\t// out\n        /* \"contracts/visibility.sol\":1090:1198  function ext() external view{... */\n    tag_15:\n        /* \"contracts/visibility.sol\":1129:1134  pub() */\n      tag_24\n        /* \"contracts/visibility.sol\":1129:1132  pub */\n      tag_12\n        /* \"contracts/visibility.sol\":1129:1134  pub() */\n      jump\t// in\n    tag_24:\n      pop\n        /* \"contracts/visibility.sol\":1145:1150  pri() */\n      tag_25\n        /* \"contracts/visibility.sol\":1145:1148  pri */\n      tag_26\n        /* \"contracts/visibility.sol\":1145:1150  pri() */\n      jump\t// in\n    tag_25:\n      pop\n        /* \"contracts/visibility.sol\":1161:1168  inter() */\n      tag_27\n        /* \"contracts/visibility.sol\":1161:1166  inter */\n      tag_28\n        /* \"contracts/visibility.sol\":1161:1168  inter() */\n      jump\t// in\n    tag_27:\n      pop\n        /* \"contracts/visibility.sol\":1179:1183  this */\n      address\n        /* \"contracts/visibility.sol\":1179:1186  this.ex */\n      0xffffffffffffffffffffffffffffffffffffffff\n      and\n      0xe1c34549\n        /* \"contracts/visibility.sol\":1179:1188  this.ex() */\n      mload(0x40)\n      dup2\n      0xffffffff\n      and\n      0xe0\n      shl\n      dup2\n      mstore\n      0x04\n      add\n      0x20\n      mload(0x40)\n      dup1\n      dup4\n      sub\n      dup2\n      dup7\n      gas\n      staticcall\n      iszero\n      dup1\n      iszero\n      tag_30\n      jumpi\n      returndatasize\n      0x00\n      dup1\n      returndatacopy\n      revert(0x00, returndatasize)\n    tag_30:\n      pop\n      pop\n      pop\n      pop\n      mload(0x40)\n      returndatasize\n      not(0x1f)\n      0x1f\n      dup3\n      add\n      and\n      dup3\n      add\n      dup1\n      0x40\n      mstore\n      pop\n      dup2\n      add\n      swap1\n      tag_31\n      swap2\n      swap1\n      tag_32\n      jump\t// in\n    tag_31:\n      pop\n        /* \"contracts/visibility.sol\":1090:1198  function ext() external view{... */\n      jump\t// out\n        /* \"contracts/visibility.sol\":992:1084  function ex() external view virtual returns(uint){... */\n    tag_17:\n        /* \"contracts/visibility.sol\":1036:1040  uint */\n      0x00\n        /* \"contracts/visibility.sol\":1063:1064  z */\n      sload(0x02)\n        /* \"contracts/visibility.sol\":1061:1062  y */\n      sload(0x01)\n        /* \"contracts/visibility.sol\":1059:1060  x */\n      sload(0x00)\n        /* \"contracts/visibility.sol\":1059:1062  x+y */\n      tag_34\n      swap2\n      swap1\n      tag_21\n      jump\t// in\n    tag_34:\n        /* \"contracts/visibility.sol\":1059:1064  x+y+z */\n      tag_35\n      swap2\n      swap1\n      tag_21\n      jump\t// in\n    tag_35:\n        /* \"contracts/visibility.sol\":1052:1065  return(x+y+z) */\n      swap1\n      pop\n        /* \"contracts/visibility.sol\":992:1084  function ex() external view virtual returns(uint){... */\n      swap1\n      jump\t// out\n        /* \"contracts/visibility.sol\":911:986  function pri() private view returns(uint){... */\n    tag_26:\n        /* \"contracts/visibility.sol\":947:951  uint */\n      0x00\n        /* \"contracts/visibility.sol\":977:978  x */\n      dup1\n      sload\n        /* \"contracts/visibility.sol\":974:975  z */\n      sload(0x02)\n        /* \"contracts/visibility.sol\":970:971  y */\n      sload(0x01)\n        /* \"contracts/visibility.sol\":970:975  y + z */\n      tag_37\n      swap2\n      swap1\n      tag_21\n      jump\t// in\n    tag_37:\n        /* \"contracts/visibility.sol\":970:978  y + z -x */\n      tag_38\n      swap2\n      swap1\n      tag_39\n      jump\t// in\n    tag_38:\n        /* \"contracts/visibility.sol\":963:978  return y + z -x */\n      swap1\n      pop\n        /* \"contracts/visibility.sol\":911:986  function pri() private view returns(uint){... */\n      swap1\n      jump\t// out\n        /* \"contracts/visibility.sol\":822:905  function inter() internal view virtual returns(uint){... */\n    tag_28:\n        /* \"contracts/visibility.sol\":869:873  uint */\n      0x00\n        /* \"contracts/visibility.sol\":896:897  z */\n      sload(0x02)\n        /* \"contracts/visibility.sol\":894:895  y */\n      sload(0x01)\n        /* \"contracts/visibility.sol\":892:893  x */\n      sload(0x00)\n        /* \"contracts/visibility.sol\":892:895  x*y */\n      tag_41\n      swap2\n      swap1\n      tag_42\n      jump\t// in\n    tag_41:\n        /* \"contracts/visibility.sol\":892:897  x*y*z */\n      tag_43\n      swap2\n      swap1\n      tag_42\n      jump\t// in\n    tag_43:\n        /* \"contracts/visibility.sol\":885:897  return x*y*z */\n      swap1\n      pop\n        /* \"contracts/visibility.sol\":822:905  function inter() internal view virtual returns(uint){... */\n      swap1\n      jump\t// out\n        /* \"#utility.yul\":7:84   */\n    tag_44:\n        /* \"#utility.yul\":44:51   */\n      0x00\n        /* \"#utility.yul\":73:78   */\n      dup2\n        /* \"#utility.yul\":62:78   */\n      swap1\n      pop\n        /* \"#utility.yul\":7:84   */\n      swap2\n      swap1\n      pop\n      jump\t// out\n        /* \"#utility.yul\":90:208   */\n    tag_45:\n        /* \"#utility.yul\":177:201   */\n      tag_55\n        /* \"#utility.yul\":195:200   */\n      dup2\n        /* \"#utility.yul\":177:201   */\n      tag_44\n      jump\t// in\n    tag_55:\n        /* \"#utility.yul\":172:175   */\n      dup3\n        /* \"#utility.yul\":165:202   */\n      mstore\n        /* \"#utility.yul\":90:208   */\n      pop\n      pop\n      jump\t// out\n        /* \"#utility.yul\":214:436   */\n    tag_10:\n        /* \"#utility.yul\":307:311   */\n      0x00\n        /* \"#utility.yul\":345:347   */\n      0x20\n        /* \"#utility.yul\":334:343   */\n      dup3\n        /* \"#utility.yul\":330:348   */\n      add\n        /* \"#utility.yul\":322:348   */\n      swap1\n      pop\n        /* \"#utility.yul\":358:429   */\n      tag_57\n        /* \"#utility.yul\":426:427   */\n      0x00\n        /* \"#utility.yul\":415:424   */\n      dup4\n        /* \"#utility.yul\":411:428   */\n      add\n        /* \"#utility.yul\":402:408   */\n      dup5\n        /* \"#utility.yul\":358:429   */\n      tag_45\n      jump\t// in\n    tag_57:\n        /* \"#utility.yul\":214:436   */\n      swap3\n      swap2\n      pop\n      pop\n      jump\t// out\n        /* \"#utility.yul\":442:622   */\n    tag_46:\n        /* \"#utility.yul\":490:567   */\n      0x4e487b7100000000000000000000000000000000000000000000000000000000\n        /* \"#utility.yul\":487:488   */\n      0x00\n        /* \"#utility.yul\":480:568   */\n      mstore\n        /* \"#utility.yul\":587:591   */\n      0x11\n        /* \"#utility.yul\":584:585   */\n      0x04\n        /* \"#utility.yul\":577:592   */\n      mstore\n        /* \"#utility.yul\":611:615   */\n      0x24\n        /* \"#utility.yul\":608:609   */\n      0x00\n        /* \"#utility.yul\":601:616   */\n      revert\n        /* \"#utility.yul\":628:819   */\n    tag_21:\n        /* \"#utility.yul\":668:671   */\n      0x00\n        /* \"#utility.yul\":687:707   */\n      tag_60\n        /* \"#utility.yul\":705:706   */\n      dup3\n        /* \"#utility.yul\":687:707   */\n      tag_44\n      jump\t// in\n    tag_60:\n        /* \"#utility.yul\":682:707   */\n      swap2\n      pop\n        /* \"#utility.yul\":721:741   */\n      tag_61\n        /* \"#utility.yul\":739:740   */\n      dup4\n        /* \"#utility.yul\":721:741   */\n      tag_44\n      jump\t// in\n    tag_61:\n        /* \"#utility.yul\":716:741   */\n      swap3\n      pop\n        /* \"#utility.yul\":764:765   */\n      dup3\n        /* \"#utility.yul\":761:762   */\n      dup3\n        /* \"#utility.yul\":757:766   */\n      add\n        /* \"#utility.yul\":750:766   */\n      swap1\n      pop\n        /* \"#utility.yul\":785:788   */\n      dup1\n        /* \"#utility.yul\":782:783   */\n      dup3\n        /* \"#utility.yul\":779:789   */\n      gt\n        /* \"#utility.yul\":776:812   */\n      iszero\n      tag_62\n      jumpi\n        /* \"#utility.yul\":792:810   */\n      tag_63\n      tag_46\n      jump\t// in\n    tag_63:\n        /* \"#utility.yul\":776:812   */\n    tag_62:\n        /* \"#utility.yul\":628:819   */\n      swap3\n      swap2\n      pop\n      pop\n      jump\t// out\n        /* \"#utility.yul\":906:1023   */\n    tag_48:\n        /* \"#utility.yul\":1015:1016   */\n      0x00\n        /* \"#utility.yul\":1012:1013   */\n      dup1\n        /* \"#utility.yul\":1005:1017   */\n      revert\n        /* \"#utility.yul\":1152:1274   */\n    tag_50:\n        /* \"#utility.yul\":1225:1249   */\n      tag_68\n        /* \"#utility.yul\":1243:1248   */\n      dup2\n        /* \"#utility.yul\":1225:1249   */\n      tag_44\n      jump\t// in\n    tag_68:\n        /* \"#utility.yul\":1218:1223   */\n      dup2\n        /* \"#utility.yul\":1215:1250   */\n      eq\n        /* \"#utility.yul\":1205:1268   */\n      tag_69\n      jumpi\n        /* \"#utility.yul\":1264:1265   */\n      0x00\n        /* \"#utility.yul\":1261:1262   */\n      dup1\n        /* \"#utility.yul\":1254:1266   */\n      revert\n        /* \"#utility.yul\":1205:1268   */\n    tag_69:\n        /* \"#utility.yul\":1152:1274   */\n      pop\n      jump\t// out\n        /* \"#utility.yul\":1280:1423   */\n    tag_51:\n        /* \"#utility.yul\":1337:1342   */\n      0x00\n        /* \"#utility.yul\":1368:1374   */\n      dup2\n        /* \"#utility.yul\":1362:1375   */\n      mload\n        /* \"#utility.yul\":1353:1375   */\n      swap1\n      pop\n        /* \"#utility.yul\":1384:1417   */\n      tag_71\n        /* \"#utility.yul\":1411:1416   */\n      dup2\n        /* \"#utility.yul\":1384:1417   */\n      tag_50\n      jump\t// in\n    tag_71:\n        /* \"#utility.yul\":1280:1423   */\n      swap3\n      swap2\n      pop\n      pop\n      jump\t// out\n        /* \"#utility.yul\":1429:1780   */\n    tag_32:\n        /* \"#utility.yul\":1499:1505   */\n      0x00\n        /* \"#utility.yul\":1548:1550   */\n      0x20\n        /* \"#utility.yul\":1536:1545   */\n      dup3\n        /* \"#utility.yul\":1527:1534   */\n      dup5\n        /* \"#utility.yul\":1523:1546   */\n      sub\n        /* \"#utility.yul\":1519:1551   */\n      slt\n        /* \"#utility.yul\":1516:1635   */\n      iszero\n      tag_73\n      jumpi\n        /* \"#utility.yul\":1554:1633   */\n      tag_74\n      tag_48\n      jump\t// in\n    tag_74:\n        /* \"#utility.yul\":1516:1635   */\n    tag_73:\n        /* \"#utility.yul\":1674:1675   */\n      0x00\n        /* \"#utility.yul\":1699:1763   */\n      tag_75\n        /* \"#utility.yul\":1755:1762   */\n      dup5\n        /* \"#utility.yul\":1746:1752   */\n      dup3\n        /* \"#utility.yul\":1735:1744   */\n      dup6\n        /* \"#utility.yul\":1731:1753   */\n      add\n        /* \"#utility.yul\":1699:1763   */\n      tag_51\n      jump\t// in\n    tag_75:\n        /* \"#utility.yul\":1689:1763   */\n      swap2\n      pop\n        /* \"#utility.yul\":1645:1773   */\n      pop\n        /* \"#utility.yul\":1429:1780   */\n      swap3\n      swap2\n      pop\n      pop\n      jump\t// out\n        /* \"#utility.yul\":1786:1980   */\n    tag_39:\n        /* \"#utility.yul\":1826:1830   */\n      0x00\n        /* \"#utility.yul\":1846:1866   */\n      tag_77\n        /* \"#utility.yul\":1864:1865   */\n      dup3\n        /* \"#utility.yul\":1846:1866   */\n      tag_44\n      jump\t// in\n    tag_77:\n        /* \"#utility.yul\":1841:1866   */\n      swap2\n      pop\n        /* \"#utility.yul\":1880:1900   */\n      tag_78\n        /* \"#utility.yul\":1898:1899   */\n      dup4\n        /* \"#utility.yul\":1880:1900   */\n      tag_44\n      jump\t// in\n    tag_78:\n        /* \"#utility.yul\":1875:1900   */\n      swap3\n      pop\n        /* \"#utility.yul\":1924:1925   */\n      dup3\n        /* \"#utility.yul\":1921:1922   */\n      dup3\n        /* \"#utility.yul\":1917:1926   */\n      sub\n        /* \"#utility.yul\":1909:1926   */\n      swap1\n      pop\n        /* \"#utility.yul\":1948:1949   */\n      dup2\n        /* \"#utility.yul\":1942:1946   */\n      dup2\n        /* \"#utility.yul\":1939:1950   */\n      gt\n        /* \"#utility.yul\":1936:1973   */\n      iszero\n      tag_79\n      jumpi\n        /* \"#utility.yul\":1953:1971   */\n      tag_80\n      tag_46\n      jump\t// in\n    tag_80:\n        /* \"#utility.yul\":1936:1973   */\n    tag_79:\n        /* \"#utility.yul\":1786:1980   */\n      swap3\n      swap2\n      pop\n      pop\n      jump\t// out\n        /* \"#utility.yul\":1986:2396   */\n    tag_42:\n        /* \"#utility.yul\":2026:2033   */\n      0x00\n        /* \"#utility.yul\":2049:2069   */\n      tag_82\n        /* \"#utility.yul\":2067:2068   */\n      dup3\n        /* \"#utility.yul\":2049:2069   */\n      tag_44\n      jump\t// in\n    tag_82:\n        /* \"#utility.yul\":2044:2069   */\n      swap2\n      pop\n        /* \"#utility.yul\":2083:2103   */\n      tag_83\n        /* \"#utility.yul\":2101:2102   */\n      dup4\n        /* \"#utility.yul\":2083:2103   */\n      tag_44\n      jump\t// in\n    tag_83:\n        /* \"#utility.yul\":2078:2103   */\n      swap3\n      pop\n        /* \"#utility.yul\":2138:2139   */\n      dup3\n        /* \"#utility.yul\":2135:2136   */\n      dup3\n        /* \"#utility.yul\":2131:2140   */\n      mul\n        /* \"#utility.yul\":2160:2190   */\n      tag_84\n        /* \"#utility.yul\":2178:2189   */\n      dup2\n        /* \"#utility.yul\":2160:2190   */\n      tag_44\n      jump\t// in\n    tag_84:\n        /* \"#utility.yul\":2149:2190   */\n      swap2\n      pop\n        /* \"#utility.yul\":2339:2340   */\n      dup3\n        /* \"#utility.yul\":2330:2337   */\n      dup3\n        /* \"#utility.yul\":2326:2341   */\n      div\n        /* \"#utility.yul\":2323:2324   */\n      dup5\n        /* \"#utility.yul\":2320:2342   */\n      eq\n        /* \"#utility.yul\":2300:2301   */\n      dup4\n        /* \"#utility.yul\":2293:2302   */\n      iszero\n        /* \"#utility.yul\":2273:2356   */\n      or\n        /* \"#utility.yul\":2250:2389   */\n      tag_85\n      jumpi\n        /* \"#utility.yul\":2369:2387   */\n      tag_86\n      tag_46\n      jump\t// in\n    tag_86:\n        /* \"#utility.yul\":2250:2389   */\n    tag_85:\n        /* \"#utility.yul\":2034:2396   */\n      pop\n        /* \"#utility.yul\":1986:2396   */\n      swap3\n      swap2\n      pop\n      pop\n      jump\t// out\n\n    auxdata: 0xa2646970667358221220e9ed2ea0d0338218fabb6634dd6328c430bf7f957cc2962fcef28cf371ee258b64736f6c63430008150033\n}\n",
				"bytecode": {
					"linkReferences": {},
					"object": "60806040525f8055600180556002805534801561001a575f80fd5b5061035e806100285f395ff3fe608060405234801561000f575f80fd5b506004361061004a575f3560e01c80630c55699c1461004e5780637defb4101461006c578063cf9f23b51461008a578063e1c3454914610094575b5f80fd5b6100566100b2565b60405161006391906101e2565b60405180910390f35b6100746100b7565b60405161008191906101e2565b60405180910390f35b6100926100d9565b005b61009c610164565b6040516100a991906101e2565b60405180910390f35b5f5481565b5f6002546001545f546100ca9190610228565b6100d49190610228565b905090565b6100e16100b7565b506100ea610186565b506100f36101a8565b503073ffffffffffffffffffffffffffffffffffffffff1663e1c345496040518163ffffffff1660e01b8152600401602060405180830381865afa15801561013d573d5f803e3d5ffd5b505050506040513d601f19601f820116820180604052508101906101619190610289565b50565b5f6002546001545f546101779190610228565b6101819190610228565b905090565b5f80546002546001546101999190610228565b6101a391906102b4565b905090565b5f6002546001545f546101bb91906102e7565b6101c591906102e7565b905090565b5f819050919050565b6101dc816101ca565b82525050565b5f6020820190506101f55f8301846101d3565b92915050565b7f4e487b71000000000000000000000000000000000000000000000000000000005f52601160045260245ffd5b5f610232826101ca565b915061023d836101ca565b9250828201905080821115610255576102546101fb565b5b92915050565b5f80fd5b610268816101ca565b8114610272575f80fd5b50565b5f815190506102838161025f565b92915050565b5f6020828403121561029e5761029d61025b565b5b5f6102ab84828501610275565b91505092915050565b5f6102be826101ca565b91506102c9836101ca565b92508282039050818111156102e1576102e06101fb565b5b92915050565b5f6102f1826101ca565b91506102fc836101ca565b925082820261030a816101ca565b91508282048414831517610321576103206101fb565b5b509291505056fea2646970667358221220e9ed2ea0d0338218fabb6634dd6328c430bf7f957cc2962fcef28cf371ee258b64736f6c63430008150033",
					"opcodes": "PUSH1 0x80 PUSH1 0x40 MSTORE PUSH0 DUP1 SSTORE PUSH1 0x1 DUP1 SSTORE PUSH1 0x2 DUP1 SSTORE CALLVALUE DUP1 ISZERO PUSH2 0x1A JUMPI PUSH0 DUP1 REVERT JUMPDEST POP PUSH2 0x35E DUP1 PUSH2 0x28 PUSH0 CODECOPY PUSH0 RETURN INVALID PUSH1 0x80 PUSH1 0x40 MSTORE CALLVALUE DUP1 ISZERO PUSH2 0xF JUMPI PUSH0 DUP1 REVERT JUMPDEST POP PUSH1 0x4 CALLDATASIZE LT PUSH2 0x4A JUMPI PUSH0 CALLDATALOAD PUSH1 0xE0 SHR DUP1 PUSH4 0xC55699C EQ PUSH2 0x4E JUMPI DUP1 PUSH4 0x7DEFB410 EQ PUSH2 0x6C JUMPI DUP1 PUSH4 0xCF9F23B5 EQ PUSH2 0x8A JUMPI DUP1 PUSH4 0xE1C34549 EQ PUSH2 0x94 JUMPI JUMPDEST PUSH0 DUP1 REVERT JUMPDEST PUSH2 0x56 PUSH2 0xB2 JUMP JUMPDEST PUSH1 0x40 MLOAD PUSH2 0x63 SWAP2 SWAP1 PUSH2 0x1E2 JUMP JUMPDEST PUSH1 0x40 MLOAD DUP1 SWAP2 SUB SWAP1 RETURN JUMPDEST PUSH2 0x74 PUSH2 0xB7 JUMP JUMPDEST PUSH1 0x40 MLOAD PUSH2 0x81 SWAP2 SWAP1 PUSH2 0x1E2 JUMP JUMPDEST PUSH1 0x40 MLOAD DUP1 SWAP2 SUB SWAP1 RETURN JUMPDEST PUSH2 0x92 PUSH2 0xD9 JUMP JUMPDEST STOP JUMPDEST PUSH2 0x9C PUSH2 0x164 JUMP JUMPDEST PUSH1 0x40 MLOAD PUSH2 0xA9 SWAP2 SWAP1 PUSH2 0x1E2 JUMP JUMPDEST PUSH1 0x40 MLOAD DUP1 SWAP2 SUB SWAP1 RETURN JUMPDEST PUSH0 SLOAD DUP2 JUMP JUMPDEST PUSH0 PUSH1 0x2 SLOAD PUSH1 0x1 SLOAD PUSH0 SLOAD PUSH2 0xCA SWAP2 SWAP1 PUSH2 0x228 JUMP JUMPDEST PUSH2 0xD4 SWAP2 SWAP1 PUSH2 0x228 JUMP JUMPDEST SWAP1 POP SWAP1 JUMP JUMPDEST PUSH2 0xE1 PUSH2 0xB7 JUMP JUMPDEST POP PUSH2 0xEA PUSH2 0x186 JUMP JUMPDEST POP PUSH2 0xF3 PUSH2 0x1A8 JUMP JUMPDEST POP ADDRESS PUSH20 0xFFFFFFFFFFFFFFFFFFFFFFFFFFFFFFFFFFFFFFFF AND PUSH4 0xE1C34549 PUSH1 0x40 MLOAD DUP2 PUSH4 0xFFFFFFFF AND PUSH1 0xE0 SHL DUP2 MSTORE PUSH1 0x4 ADD PUSH1 0x20 PUSH1 0x40 MLOAD DUP1 DUP4 SUB DUP2 DUP7 GAS STATICCALL ISZERO DUP1 ISZERO PUSH2 0x13D JUMPI RETURNDATASIZE PUSH0 DUP1 RETURNDATACOPY RETURNDATASIZE PUSH0 REVERT JUMPDEST POP POP POP POP PUSH1 0x40 MLOAD RETURNDATASIZE PUSH1 0x1F NOT PUSH1 0x1F DUP3 ADD AND DUP3 ADD DUP1 PUSH1 0x40 MSTORE POP DUP2 ADD SWAP1 PUSH2 0x161 SWAP2 SWAP1 PUSH2 0x289 JUMP JUMPDEST POP JUMP JUMPDEST PUSH0 PUSH1 0x2 SLOAD PUSH1 0x1 SLOAD PUSH0 SLOAD PUSH2 0x177 SWAP2 SWAP1 PUSH2 0x228 JUMP JUMPDEST PUSH2 0x181 SWAP2 SWAP1 PUSH2 0x228 JUMP JUMPDEST SWAP1 POP SWAP1 JUMP JUMPDEST PUSH0 DUP1 SLOAD PUSH1 0x2 SLOAD PUSH1 0x1 SLOAD PUSH2 0x199 SWAP2 SWAP1 PUSH2 0x228 JUMP JUMPDEST PUSH2 0x1A3 SWAP2 SWAP1 PUSH2 0x2B4 JUMP JUMPDEST SWAP1 POP SWAP1 JUMP JUMPDEST PUSH0 PUSH1 0x2 SLOAD PUSH1 0x1 SLOAD PUSH0 SLOAD PUSH2 0x1BB SWAP2 SWAP1 PUSH2 0x2E7 JUMP JUMPDEST PUSH2 0x1C5 SWAP2 SWAP1 PUSH2 0x2E7 JUMP JUMPDEST SWAP1 POP SWAP1 JUMP JUMPDEST PUSH0 DUP2 SWAP1 POP SWAP2 SWAP1 POP JUMP JUMPDEST PUSH2 0x1DC DUP2 PUSH2 0x1CA JUMP JUMPDEST DUP3 MSTORE POP POP JUMP JUMPDEST PUSH0 PUSH1 0x20 DUP3 ADD SWAP1 POP PUSH2 0x1F5 PUSH0 DUP4 ADD DUP5 PUSH2 0x1D3 JUMP JUMPDEST SWAP3 SWAP2 POP POP JUMP JUMPDEST PUSH32 0x4E487B7100000000000000000000000000000000000000000000000000000000 PUSH0 MSTORE PUSH1 0x11 PUSH1 0x4 MSTORE PUSH1 0x24 PUSH0 REVERT JUMPDEST PUSH0 PUSH2 0x232 DUP3 PUSH2 0x1CA JUMP JUMPDEST SWAP2 POP PUSH2 0x23D DUP4 PUSH2 0x1CA JUMP JUMPDEST SWAP3 POP DUP3 DUP3 ADD SWAP1 POP DUP1 DUP3 GT ISZERO PUSH2 0x255 JUMPI PUSH2 0x254 PUSH2 0x1FB JUMP JUMPDEST JUMPDEST SWAP3 SWAP2 POP POP JUMP JUMPDEST PUSH0 DUP1 REVERT JUMPDEST PUSH2 0x268 DUP2 PUSH2 0x1CA JUMP JUMPDEST DUP2 EQ PUSH2 0x272 JUMPI PUSH0 DUP1 REVERT JUMPDEST POP JUMP JUMPDEST PUSH0 DUP2 MLOAD SWAP1 POP PUSH2 0x283 DUP2 PUSH2 0x25F JUMP JUMPDEST SWAP3 SWAP2 POP POP JUMP JUMPDEST PUSH0 PUSH1 0x20 DUP3 DUP5 SUB SLT ISZERO PUSH2 0x29E JUMPI PUSH2 0x29D PUSH2 0x25B JUMP JUMPDEST JUMPDEST PUSH0 PUSH2 0x2AB DUP5 DUP3 DUP6 ADD PUSH2 0x275 JUMP JUMPDEST SWAP2 POP POP SWAP3 SWAP2 POP POP JUMP JUMPDEST PUSH0 PUSH2 0x2BE DUP3 PUSH2 0x1CA JUMP JUMPDEST SWAP2 POP PUSH2 0x2C9 DUP4 PUSH2 0x1CA JUMP JUMPDEST SWAP3 POP DUP3 DUP3 SUB SWAP1 POP DUP2 DUP2 GT ISZERO PUSH2 0x2E1 JUMPI PUSH2 0x2E0 PUSH2 0x1FB JUMP JUMPDEST JUMPDEST SWAP3 SWAP2 POP POP JUMP JUMPDEST PUSH0 PUSH2 0x2F1 DUP3 PUSH2 0x1CA JUMP JUMPDEST SWAP2 POP PUSH2 0x2FC DUP4 PUSH2 0x1CA JUMP JUMPDEST SWAP3 POP DUP3 DUP3 MUL PUSH2 0x30A DUP2 PUSH2 0x1CA JUMP JUMPDEST SWAP2 POP DUP3 DUP3 DIV DUP5 EQ DUP4 ISZERO OR PUSH2 0x321 JUMPI PUSH2 0x320 PUSH2 0x1FB JUMP JUMPDEST JUMPDEST POP SWAP3 SWAP2 POP POP JUMP INVALID LOG2 PUSH5 0x6970667358 0x22 SLT KECCAK256 0xE9 0xED 0x2E LOG0 0xD0 CALLER DUP3 XOR STATICCALL 0xBB PUSH7 0x34DD6328C430BF PUSH32 0x957CC2962FCEF28CF371EE258B64736F6C634300081500330000000000000000 "
				},
				"gasEstimates": {
					"creation": {
						"codeDepositCost": "172400",
						"executionCost": "49429",
						"totalCost": "221829"
					},
					"external": {
						"ex()": "infinite",
						"ext()": "infinite",
						"pub()": "infinite",
						"x()": "2402"
					},
					"internal": {
						"inter()": "infinite",
						"pri()": "infinite"
					}
				},
				"methodIdentifiers": {
					"ex()": "e1c34549",
					"ext()": "cf9f23b5",
					"pub()": "7defb410",
					"x()": "0c55699c"
				}
			},
			"storageLayout": {
				"storage": [
					{
						"astId": 4,
						"contract": "contracts/visibility.sol:A",
						"label": "x",
						"offset": 0,
						"slot": "0",
						"type": "t_uint256"
					},
					{
						"astId": 7,
						"contract": "contracts/visibility.sol:A",
						"label": "y",
						"offset": 0,
						"slot": "1",
						"type": "t_uint256"
					},
					{
						"astId": 10,
						"contract": "contracts/visibility.sol:A",
						"label": "z",
						"offset": 0,
						"slot": "2",
						"type": "t_uint256"
					}
				],
				"types": {
					"t_uint256": {
						"encoding": "inplace",
						"label": "uint256",
						"numberOfBytes": "32"
					}
				}
			},
			"userdoc": {
				"kind": "user",
				"methods": {},
				"version": 1
			}
		}
	}
}