{
	"data": {
		"bytecode": {
			"linkReferences": {},
			"object": "60806040526040518060c00160405280600160ff168152602001600260ff168152602001600360ff168152602001600460ff168152602001600560ff168152602001600660ff16815250600090600661005992919061006c565b5034801561006657600080fd5b506100ce565b82600681019282156100a0579160200282015b8281111561009f578251829060ff1690559160200191906001019061007f565b5b5090506100ad91906100b1565b5090565b5b808211156100ca5760008160009055506001016100b2565b5090565b61032f806100dd6000396000f3fe608060405234801561001057600080fd5b506004361061002b5760003560e01c8063ae01d66614610030575b600080fd5b61004a6004803603810190610045919061017c565b610060565b60405161005791906101b8565b60405180910390f35b600080600090506000600160066100779190610202565b90505b808211610135576002828261008f9190610202565b6100999190610265565b600781905550836000600754600681106100b6576100b5610296565b5b0154036100c9576007549250505061013c565b836000600754600681106100e0576100df610296565b5b015411156100fe5760016007546100f79190610202565b9050610130565b8360006007546006811061011557610114610296565b5b0154101561012f57600160075461012c91906102c5565b91505b5b61007a565b6000925050505b919050565b600080fd5b6000819050919050565b61015981610146565b811461016457600080fd5b50565b60008135905061017681610150565b92915050565b60006020828403121561019257610191610141565b5b60006101a084828501610167565b91505092915050565b6101b281610146565b82525050565b60006020820190506101cd60008301846101a9565b92915050565b7f4e487b7100000000000000000000000000000000000000000000000000000000600052601160045260246000fd5b600061020d82610146565b915061021883610146565b92508282039050818111156102305761022f6101d3565b5b92915050565b7f4e487b7100000000000000000000000000000000000000000000000000000000600052601260045260246000fd5b600061027082610146565b915061027b83610146565b92508261028b5761028a610236565b5b828204905092915050565b7f4e487b7100000000000000000000000000000000000000000000000000000000600052603260045260246000fd5b60006102d082610146565b91506102db83610146565b92508282019050808211156102f3576102f26101d3565b5b9291505056fea2646970667358221220915a892f3d9e589a9e059c4aa38696a05563ae02302174ea716e53909b14036664736f6c63430008120033",
			"opcodes": "PUSH1 0x80 PUSH1 0x40 MSTORE PUSH1 0x40 MLOAD DUP1 PUSH1 0xC0 ADD PUSH1 0x40 MSTORE DUP1 PUSH1 0x1 PUSH1 0xFF AND DUP2 MSTORE PUSH1 0x20 ADD PUSH1 0x2 PUSH1 0xFF AND DUP2 MSTORE PUSH1 0x20 ADD PUSH1 0x3 PUSH1 0xFF AND DUP2 MSTORE PUSH1 0x20 ADD PUSH1 0x4 PUSH1 0xFF AND DUP2 MSTORE PUSH1 0x20 ADD PUSH1 0x5 PUSH1 0xFF AND DUP2 MSTORE PUSH1 0x20 ADD PUSH1 0x6 PUSH1 0xFF AND DUP2 MSTORE POP PUSH1 0x0 SWAP1 PUSH1 0x6 PUSH2 0x59 SWAP3 SWAP2 SWAP1 PUSH2 0x6C JUMP JUMPDEST POP CALLVALUE DUP1 ISZERO PUSH2 0x66 JUMPI PUSH1 0x0 DUP1 REVERT JUMPDEST POP PUSH2 0xCE JUMP JUMPDEST DUP3 PUSH1 0x6 DUP2 ADD SWAP3 DUP3 ISZERO PUSH2 0xA0 JUMPI SWAP2 PUSH1 0x20 MUL DUP3 ADD JUMPDEST DUP3 DUP2 GT ISZERO PUSH2 0x9F JUMPI DUP3 MLOAD DUP3 SWAP1 PUSH1 0xFF AND SWAP1 SSTORE SWAP2 PUSH1 0x20 ADD SWAP2 SWAP1 PUSH1 0x1 ADD SWAP1 PUSH2 0x7F JUMP JUMPDEST JUMPDEST POP SWAP1 POP PUSH2 0xAD SWAP2 SWAP1 PUSH2 0xB1 JUMP JUMPDEST POP SWAP1 JUMP JUMPDEST JUMPDEST DUP1 DUP3 GT ISZERO PUSH2 0xCA JUMPI PUSH1 0x0 DUP2 PUSH1 0x0 SWAP1 SSTORE POP PUSH1 0x1 ADD PUSH2 0xB2 JUMP JUMPDEST POP SWAP1 JUMP JUMPDEST PUSH2 0x32F DUP1 PUSH2 0xDD PUSH1 0x0 CODECOPY PUSH1 0x0 RETURN INVALID PUSH1 0x80 PUSH1 0x40 MSTORE CALLVALUE DUP1 ISZERO PUSH2 0x10 JUMPI PUSH1 0x0 DUP1 REVERT JUMPDEST POP PUSH1 0x4 CALLDATASIZE LT PUSH2 0x2B JUMPI PUSH1 0x0 CALLDATALOAD PUSH1 0xE0 SHR DUP1 PUSH4 0xAE01D666 EQ PUSH2 0x30 JUMPI JUMPDEST PUSH1 0x0 DUP1 REVERT JUMPDEST PUSH2 0x4A PUSH1 0x4 DUP1 CALLDATASIZE SUB DUP2 ADD SWAP1 PUSH2 0x45 SWAP2 SWAP1 PUSH2 0x17C JUMP JUMPDEST PUSH2 0x60 JUMP JUMPDEST PUSH1 0x40 MLOAD PUSH2 0x57 SWAP2 SWAP1 PUSH2 0x1B8 JUMP JUMPDEST PUSH1 0x40 MLOAD DUP1 SWAP2 SUB SWAP1 RETURN JUMPDEST PUSH1 0x0 DUP1 PUSH1 0x0 SWAP1 POP PUSH1 0x0 PUSH1 0x1 PUSH1 0x6 PUSH2 0x77 SWAP2 SWAP1 PUSH2 0x202 JUMP JUMPDEST SWAP1 POP JUMPDEST DUP1 DUP3 GT PUSH2 0x135 JUMPI PUSH1 0x2 DUP3 DUP3 PUSH2 0x8F SWAP2 SWAP1 PUSH2 0x202 JUMP JUMPDEST PUSH2 0x99 SWAP2 SWAP1 PUSH2 0x265 JUMP JUMPDEST PUSH1 0x7 DUP2 SWAP1 SSTORE POP DUP4 PUSH1 0x0 PUSH1 0x7 SLOAD PUSH1 0x6 DUP2 LT PUSH2 0xB6 JUMPI PUSH2 0xB5 PUSH2 0x296 JUMP JUMPDEST JUMPDEST ADD SLOAD SUB PUSH2 0xC9 JUMPI PUSH1 0x7 SLOAD SWAP3 POP POP POP PUSH2 0x13C JUMP JUMPDEST DUP4 PUSH1 0x0 PUSH1 0x7 SLOAD PUSH1 0x6 DUP2 LT PUSH2 0xE0 JUMPI PUSH2 0xDF PUSH2 0x296 JUMP JUMPDEST JUMPDEST ADD SLOAD GT ISZERO PUSH2 0xFE JUMPI PUSH1 0x1 PUSH1 0x7 SLOAD PUSH2 0xF7 SWAP2 SWAP1 PUSH2 0x202 JUMP JUMPDEST SWAP1 POP PUSH2 0x130 JUMP JUMPDEST DUP4 PUSH1 0x0 PUSH1 0x7 SLOAD PUSH1 0x6 DUP2 LT PUSH2 0x115 JUMPI PUSH2 0x114 PUSH2 0x296 JUMP JUMPDEST JUMPDEST ADD SLOAD LT ISZERO PUSH2 0x12F JUMPI PUSH1 0x1 PUSH1 0x7 SLOAD PUSH2 0x12C SWAP2 SWAP1 PUSH2 0x2C5 JUMP JUMPDEST SWAP2 POP JUMPDEST JUMPDEST PUSH2 0x7A JUMP JUMPDEST PUSH1 0x0 SWAP3 POP POP POP JUMPDEST SWAP2 SWAP1 POP JUMP JUMPDEST PUSH1 0x0 DUP1 REVERT JUMPDEST PUSH1 0x0 DUP2 SWAP1 POP SWAP2 SWAP1 POP JUMP JUMPDEST PUSH2 0x159 DUP2 PUSH2 0x146 JUMP JUMPDEST DUP2 EQ PUSH2 0x164 JUMPI PUSH1 0x0 DUP1 REVERT JUMPDEST POP JUMP JUMPDEST PUSH1 0x0 DUP2 CALLDATALOAD SWAP1 POP PUSH2 0x176 DUP2 PUSH2 0x150 JUMP JUMPDEST SWAP3 SWAP2 POP POP JUMP JUMPDEST PUSH1 0x0 PUSH1 0x20 DUP3 DUP5 SUB SLT ISZERO PUSH2 0x192 JUMPI PUSH2 0x191 PUSH2 0x141 JUMP JUMPDEST JUMPDEST PUSH1 0x0 PUSH2 0x1A0 DUP5 DUP3 DUP6 ADD PUSH2 0x167 JUMP JUMPDEST SWAP2 POP POP SWAP3 SWAP2 POP POP JUMP JUMPDEST PUSH2 0x1B2 DUP2 PUSH2 0x146 JUMP JUMPDEST DUP3 MSTORE POP POP JUMP JUMPDEST PUSH1 0x0 PUSH1 0x20 DUP3 ADD SWAP1 POP PUSH2 0x1CD PUSH1 0x0 DUP4 ADD DUP5 PUSH2 0x1A9 JUMP JUMPDEST SWAP3 SWAP2 POP POP JUMP JUMPDEST PUSH32 0x4E487B7100000000000000000000000000000000000000000000000000000000 PUSH1 0x0 MSTORE PUSH1 0x11 PUSH1 0x4 MSTORE PUSH1 0x24 PUSH1 0x0 REVERT JUMPDEST PUSH1 0x0 PUSH2 0x20D DUP3 PUSH2 0x146 JUMP JUMPDEST SWAP2 POP PUSH2 0x218 DUP4 PUSH2 0x146 JUMP JUMPDEST SWAP3 POP DUP3 DUP3 SUB SWAP1 POP DUP2 DUP2 GT ISZERO PUSH2 0x230 JUMPI PUSH2 0x22F PUSH2 0x1D3 JUMP JUMPDEST JUMPDEST SWAP3 SWAP2 POP POP JUMP JUMPDEST PUSH32 0x4E487B7100000000000000000000000000000000000000000000000000000000 PUSH1 0x0 MSTORE PUSH1 0x12 PUSH1 0x4 MSTORE PUSH1 0x24 PUSH1 0x0 REVERT JUMPDEST PUSH1 0x0 PUSH2 0x270 DUP3 PUSH2 0x146 JUMP JUMPDEST SWAP2 POP PUSH2 0x27B DUP4 PUSH2 0x146 JUMP JUMPDEST SWAP3 POP DUP3 PUSH2 0x28B JUMPI PUSH2 0x28A PUSH2 0x236 JUMP JUMPDEST JUMPDEST DUP3 DUP3 DIV SWAP1 POP SWAP3 SWAP2 POP POP JUMP JUMPDEST PUSH32 0x4E487B7100000000000000000000000000000000000000000000000000000000 PUSH1 0x0 MSTORE PUSH1 0x32 PUSH1 0x4 MSTORE PUSH1 0x24 PUSH1 0x0 REVERT JUMPDEST PUSH1 0x0 PUSH2 0x2D0 DUP3 PUSH2 0x146 JUMP JUMPDEST SWAP2 POP PUSH2 0x2DB DUP4 PUSH2 0x146 JUMP JUMPDEST SWAP3 POP DUP3 DUP3 ADD SWAP1 POP DUP1 DUP3 GT ISZERO PUSH2 0x2F3 JUMPI PUSH2 0x2F2 PUSH2 0x1D3 JUMP JUMPDEST JUMPDEST SWAP3 SWAP2 POP POP JUMP INVALID LOG2 PUSH5 0x6970667358 0x22 SLT KECCAK256 SWAP2 GAS DUP10 0x2F RETURNDATASIZE SWAP15 PC SWAP11 SWAP15 SDIV SWAP13 0x4A LOG3 DUP7 SWAP7 LOG0 SSTORE PUSH4 0xAE023021 PUSH21 0xEA716E53909B14036664736F6C6343000812003300 "
		},
		"gasEstimates": {
			"creation": {
				"codeDepositCost": "163000",
				"executionCost": "infinite",
				"totalCost": "infinite"
			},
			"external": {
				"binary(uint256)": "infinite"
			}
		},
		"methodIdentifiers": {
			"binary(uint256)": "ae01d666"
		}
	},
	"abi": [
		{
			"inputs": [
				{
					"internalType": "uint256",
					"name": "key",
					"type": "uint256"
				}
			],
			"name": "binary",
			"outputs": [
				{
					"internalType": "uint256",
					"name": "",
					"type": "uint256"
				}
			],
			"stateMutability": "nonpayable",
			"type": "function"
		}
	]
}