{
	"data": {
		"bytecode": {
			"linkReferences": {},
			"object": "608060405260015f60016101000a81548160ff02191690831515021790555060b560f81b60025f6101000a81548160ff021916908360f81c0217905550735b38da6a701c568545dcfcb03fcb875f56beddc460035f6101000a81548173ffffffffffffffffffffffffffffffffffffffff021916908373ffffffffffffffffffffffffffffffffffffffff16021790555060326005557ffffffffffffffffffffffffffffffffffffffffffffffffffffffffffffffda86006553480156100c4575f80fd5b5061056c806100d25f395ff3fe608060405234801561000f575f80fd5b506004361061009c575f3560e01c80634f2be91f116100645780634f2be91f14610136578063767800de14610154578063a2cdd47114610172578063e73d9fbb14610190578063e90eaa51146101ae5761009c565b80630a9ae69d146100a05780630dbe671f146100be5780633c6bb436146100dc5780634df7e3d0146100fa5780634e70b1dc14610118575b5f80fd5b6100a86101cc565b6040516100b59190610379565b60405180910390f35b6100c6610258565b6040516100d391906103b3565b60405180910390f35b6100e4610268565b6040516100f191906103e4565b60405180910390f35b61010261026e565b60405161010f91906103b3565b60405180910390f35b610120610280565b60405161012d9190610415565b60405180910390f35b61013e610286565b60405161014b919061046d565b60405180910390f35b61015c6102ab565b604051610169919061046d565b60405180910390f35b61017a6102d1565b60405161018791906104c0565b60405180910390f35b6101986102e3565b6040516101a591906103e4565b60405180910390f35b6101b66102e9565b6040516101c39190610415565b60405180910390f35b600180546101d990610506565b80601f016020809104026020016040519081016040528092919081815260200182805461020590610506565b80156102505780601f1061022757610100808354040283529160200191610250565b820191905f5260205f20905b81548152906001019060200180831161023357829003601f168201915b505050505081565b5f8054906101000a900460ff1681565b60065481565b5f60019054906101000a900460ff1681565b60045481565b60035f9054906101000a900473ffffffffffffffffffffffffffffffffffffffff1681565b600260019054906101000a900473ffffffffffffffffffffffffffffffffffffffff1681565b60025f9054906101000a900460f81b81565b60075481565b60055481565b5f81519050919050565b5f82825260208201905092915050565b5f5b8381101561032657808201518184015260208101905061030b565b5f8484015250505050565b5f601f19601f8301169050919050565b5f61034b826102ef565b61035581856102f9565b9350610365818560208601610309565b61036e81610331565b840191505092915050565b5f6020820190508181035f8301526103918184610341565b905092915050565b5f8115159050919050565b6103ad81610399565b82525050565b5f6020820190506103c65f8301846103a4565b92915050565b5f819050919050565b6103de816103cc565b82525050565b5f6020820190506103f75f8301846103d5565b92915050565b5f819050919050565b61040f816103fd565b82525050565b5f6020820190506104285f830184610406565b92915050565b5f73ffffffffffffffffffffffffffffffffffffffff82169050919050565b5f6104578261042e565b9050919050565b6104678161044d565b82525050565b5f6020820190506104805f83018461045e565b92915050565b5f7fff0000000000000000000000000000000000000000000000000000000000000082169050919050565b6104ba81610486565b82525050565b5f6020820190506104d35f8301846104b1565b92915050565b7f4e487b71000000000000000000000000000000000000000000000000000000005f52602260045260245ffd5b5f600282049050600182168061051d57607f821691505b6020821081036105305761052f6104d9565b5b5091905056fea264697066735822122068f197a10a152eb3112e3a0fc5ee7befe9ef4607813894e29ae61851a28b048064736f6c63430008140033",
			"opcodes": "PUSH1 0x80 PUSH1 0x40 MSTORE PUSH1 0x1 PUSH0 PUSH1 0x1 PUSH2 0x100 EXP DUP2 SLOAD DUP2 PUSH1 0xFF MUL NOT AND SWAP1 DUP4 ISZERO ISZERO MUL OR SWAP1 SSTORE POP PUSH1 0xB5 PUSH1 0xF8 SHL PUSH1 0x2 PUSH0 PUSH2 0x100 EXP DUP2 SLOAD DUP2 PUSH1 0xFF MUL NOT AND SWAP1 DUP4 PUSH1 0xF8 SHR MUL OR SWAP1 SSTORE POP PUSH20 0x5B38DA6A701C568545DCFCB03FCB875F56BEDDC4 PUSH1 0x3 PUSH0 PUSH2 0x100 EXP DUP2 SLOAD DUP2 PUSH20 0xFFFFFFFFFFFFFFFFFFFFFFFFFFFFFFFFFFFFFFFF MUL NOT AND SWAP1 DUP4 PUSH20 0xFFFFFFFFFFFFFFFFFFFFFFFFFFFFFFFFFFFFFFFF AND MUL OR SWAP1 SSTORE POP PUSH1 0x32 PUSH1 0x5 SSTORE PUSH32 0xFFFFFFFFFFFFFFFFFFFFFFFFFFFFFFFFFFFFFFFFFFFFFFFFFFFFFFFFFFFFFDA8 PUSH1 0x6 SSTORE CALLVALUE DUP1 ISZERO PUSH2 0xC4 JUMPI PUSH0 DUP1 REVERT JUMPDEST POP PUSH2 0x56C DUP1 PUSH2 0xD2 PUSH0 CODECOPY PUSH0 RETURN INVALID PUSH1 0x80 PUSH1 0x40 MSTORE CALLVALUE DUP1 ISZERO PUSH2 0xF JUMPI PUSH0 DUP1 REVERT JUMPDEST POP PUSH1 0x4 CALLDATASIZE LT PUSH2 0x9C JUMPI PUSH0 CALLDATALOAD PUSH1 0xE0 SHR DUP1 PUSH4 0x4F2BE91F GT PUSH2 0x64 JUMPI DUP1 PUSH4 0x4F2BE91F EQ PUSH2 0x136 JUMPI DUP1 PUSH4 0x767800DE EQ PUSH2 0x154 JUMPI DUP1 PUSH4 0xA2CDD471 EQ PUSH2 0x172 JUMPI DUP1 PUSH4 0xE73D9FBB EQ PUSH2 0x190 JUMPI DUP1 PUSH4 0xE90EAA51 EQ PUSH2 0x1AE JUMPI PUSH2 0x9C JUMP JUMPDEST DUP1 PUSH4 0xA9AE69D EQ PUSH2 0xA0 JUMPI DUP1 PUSH4 0xDBE671F EQ PUSH2 0xBE JUMPI DUP1 PUSH4 0x3C6BB436 EQ PUSH2 0xDC JUMPI DUP1 PUSH4 0x4DF7E3D0 EQ PUSH2 0xFA JUMPI DUP1 PUSH4 0x4E70B1DC EQ PUSH2 0x118 JUMPI JUMPDEST PUSH0 DUP1 REVERT JUMPDEST PUSH2 0xA8 PUSH2 0x1CC JUMP JUMPDEST PUSH1 0x40 MLOAD PUSH2 0xB5 SWAP2 SWAP1 PUSH2 0x379 JUMP JUMPDEST PUSH1 0x40 MLOAD DUP1 SWAP2 SUB SWAP1 RETURN JUMPDEST PUSH2 0xC6 PUSH2 0x258 JUMP JUMPDEST PUSH1 0x40 MLOAD PUSH2 0xD3 SWAP2 SWAP1 PUSH2 0x3B3 JUMP JUMPDEST PUSH1 0x40 MLOAD DUP1 SWAP2 SUB SWAP1 RETURN JUMPDEST PUSH2 0xE4 PUSH2 0x268 JUMP JUMPDEST PUSH1 0x40 MLOAD PUSH2 0xF1 SWAP2 SWAP1 PUSH2 0x3E4 JUMP JUMPDEST PUSH1 0x40 MLOAD DUP1 SWAP2 SUB SWAP1 RETURN JUMPDEST PUSH2 0x102 PUSH2 0x26E JUMP JUMPDEST PUSH1 0x40 MLOAD PUSH2 0x10F SWAP2 SWAP1 PUSH2 0x3B3 JUMP JUMPDEST PUSH1 0x40 MLOAD DUP1 SWAP2 SUB SWAP1 RETURN JUMPDEST PUSH2 0x120 PUSH2 0x280 JUMP JUMPDEST PUSH1 0x40 MLOAD PUSH2 0x12D SWAP2 SWAP1 PUSH2 0x415 JUMP JUMPDEST PUSH1 0x40 MLOAD DUP1 SWAP2 SUB SWAP1 RETURN JUMPDEST PUSH2 0x13E PUSH2 0x286 JUMP JUMPDEST PUSH1 0x40 MLOAD PUSH2 0x14B SWAP2 SWAP1 PUSH2 0x46D JUMP JUMPDEST PUSH1 0x40 MLOAD DUP1 SWAP2 SUB SWAP1 RETURN JUMPDEST PUSH2 0x15C PUSH2 0x2AB JUMP JUMPDEST PUSH1 0x40 MLOAD PUSH2 0x169 SWAP2 SWAP1 PUSH2 0x46D JUMP JUMPDEST PUSH1 0x40 MLOAD DUP1 SWAP2 SUB SWAP1 RETURN JUMPDEST PUSH2 0x17A PUSH2 0x2D1 JUMP JUMPDEST PUSH1 0x40 MLOAD PUSH2 0x187 SWAP2 SWAP1 PUSH2 0x4C0 JUMP JUMPDEST PUSH1 0x40 MLOAD DUP1 SWAP2 SUB SWAP1 RETURN JUMPDEST PUSH2 0x198 PUSH2 0x2E3 JUMP JUMPDEST PUSH1 0x40 MLOAD PUSH2 0x1A5 SWAP2 SWAP1 PUSH2 0x3E4 JUMP JUMPDEST PUSH1 0x40 MLOAD DUP1 SWAP2 SUB SWAP1 RETURN JUMPDEST PUSH2 0x1B6 PUSH2 0x2E9 JUMP JUMPDEST PUSH1 0x40 MLOAD PUSH2 0x1C3 SWAP2 SWAP1 PUSH2 0x415 JUMP JUMPDEST PUSH1 0x40 MLOAD DUP1 SWAP2 SUB SWAP1 RETURN JUMPDEST PUSH1 0x1 DUP1 SLOAD PUSH2 0x1D9 SWAP1 PUSH2 0x506 JUMP JUMPDEST DUP1 PUSH1 0x1F ADD PUSH1 0x20 DUP1 SWAP2 DIV MUL PUSH1 0x20 ADD PUSH1 0x40 MLOAD SWAP1 DUP2 ADD PUSH1 0x40 MSTORE DUP1 SWAP3 SWAP2 SWAP1 DUP2 DUP2 MSTORE PUSH1 0x20 ADD DUP3 DUP1 SLOAD PUSH2 0x205 SWAP1 PUSH2 0x506 JUMP JUMPDEST DUP1 ISZERO PUSH2 0x250 JUMPI DUP1 PUSH1 0x1F LT PUSH2 0x227 JUMPI PUSH2 0x100 DUP1 DUP4 SLOAD DIV MUL DUP4 MSTORE SWAP2 PUSH1 0x20 ADD SWAP2 PUSH2 0x250 JUMP JUMPDEST DUP3 ADD SWAP2 SWAP1 PUSH0 MSTORE PUSH1 0x20 PUSH0 KECCAK256 SWAP1 JUMPDEST DUP2 SLOAD DUP2 MSTORE SWAP1 PUSH1 0x1 ADD SWAP1 PUSH1 0x20 ADD DUP1 DUP4 GT PUSH2 0x233 JUMPI DUP3 SWAP1 SUB PUSH1 0x1F AND DUP3 ADD SWAP2 JUMPDEST POP POP POP POP POP DUP2 JUMP JUMPDEST PUSH0 DUP1 SLOAD SWAP1 PUSH2 0x100 EXP SWAP1 DIV PUSH1 0xFF AND DUP2 JUMP JUMPDEST PUSH1 0x6 SLOAD DUP2 JUMP JUMPDEST PUSH0 PUSH1 0x1 SWAP1 SLOAD SWAP1 PUSH2 0x100 EXP SWAP1 DIV PUSH1 0xFF AND DUP2 JUMP JUMPDEST PUSH1 0x4 SLOAD DUP2 JUMP JUMPDEST PUSH1 0x3 PUSH0 SWAP1 SLOAD SWAP1 PUSH2 0x100 EXP SWAP1 DIV PUSH20 0xFFFFFFFFFFFFFFFFFFFFFFFFFFFFFFFFFFFFFFFF AND DUP2 JUMP JUMPDEST PUSH1 0x2 PUSH1 0x1 SWAP1 SLOAD SWAP1 PUSH2 0x100 EXP SWAP1 DIV PUSH20 0xFFFFFFFFFFFFFFFFFFFFFFFFFFFFFFFFFFFFFFFF AND DUP2 JUMP JUMPDEST PUSH1 0x2 PUSH0 SWAP1 SLOAD SWAP1 PUSH2 0x100 EXP SWAP1 DIV PUSH1 0xF8 SHL DUP2 JUMP JUMPDEST PUSH1 0x7 SLOAD DUP2 JUMP JUMPDEST PUSH1 0x5 SLOAD DUP2 JUMP JUMPDEST PUSH0 DUP2 MLOAD SWAP1 POP SWAP2 SWAP1 POP JUMP JUMPDEST PUSH0 DUP3 DUP3 MSTORE PUSH1 0x20 DUP3 ADD SWAP1 POP SWAP3 SWAP2 POP POP JUMP JUMPDEST PUSH0 JUMPDEST DUP4 DUP2 LT ISZERO PUSH2 0x326 JUMPI DUP1 DUP3 ADD MLOAD DUP2 DUP5 ADD MSTORE PUSH1 0x20 DUP2 ADD SWAP1 POP PUSH2 0x30B JUMP JUMPDEST PUSH0 DUP5 DUP5 ADD MSTORE POP POP POP POP JUMP JUMPDEST PUSH0 PUSH1 0x1F NOT PUSH1 0x1F DUP4 ADD AND SWAP1 POP SWAP2 SWAP1 POP JUMP JUMPDEST PUSH0 PUSH2 0x34B DUP3 PUSH2 0x2EF JUMP JUMPDEST PUSH2 0x355 DUP2 DUP6 PUSH2 0x2F9 JUMP JUMPDEST SWAP4 POP PUSH2 0x365 DUP2 DUP6 PUSH1 0x20 DUP7 ADD PUSH2 0x309 JUMP JUMPDEST PUSH2 0x36E DUP2 PUSH2 0x331 JUMP JUMPDEST DUP5 ADD SWAP2 POP POP SWAP3 SWAP2 POP POP JUMP JUMPDEST PUSH0 PUSH1 0x20 DUP3 ADD SWAP1 POP DUP2 DUP2 SUB PUSH0 DUP4 ADD MSTORE PUSH2 0x391 DUP2 DUP5 PUSH2 0x341 JUMP JUMPDEST SWAP1 POP SWAP3 SWAP2 POP POP JUMP JUMPDEST PUSH0 DUP2 ISZERO ISZERO SWAP1 POP SWAP2 SWAP1 POP JUMP JUMPDEST PUSH2 0x3AD DUP2 PUSH2 0x399 JUMP JUMPDEST DUP3 MSTORE POP POP JUMP JUMPDEST PUSH0 PUSH1 0x20 DUP3 ADD SWAP1 POP PUSH2 0x3C6 PUSH0 DUP4 ADD DUP5 PUSH2 0x3A4 JUMP JUMPDEST SWAP3 SWAP2 POP POP JUMP JUMPDEST PUSH0 DUP2 SWAP1 POP SWAP2 SWAP1 POP JUMP JUMPDEST PUSH2 0x3DE DUP2 PUSH2 0x3CC JUMP JUMPDEST DUP3 MSTORE POP POP JUMP JUMPDEST PUSH0 PUSH1 0x20 DUP3 ADD SWAP1 POP PUSH2 0x3F7 PUSH0 DUP4 ADD DUP5 PUSH2 0x3D5 JUMP JUMPDEST SWAP3 SWAP2 POP POP JUMP JUMPDEST PUSH0 DUP2 SWAP1 POP SWAP2 SWAP1 POP JUMP JUMPDEST PUSH2 0x40F DUP2 PUSH2 0x3FD JUMP JUMPDEST DUP3 MSTORE POP POP JUMP JUMPDEST PUSH0 PUSH1 0x20 DUP3 ADD SWAP1 POP PUSH2 0x428 PUSH0 DUP4 ADD DUP5 PUSH2 0x406 JUMP JUMPDEST SWAP3 SWAP2 POP POP JUMP JUMPDEST PUSH0 PUSH20 0xFFFFFFFFFFFFFFFFFFFFFFFFFFFFFFFFFFFFFFFF DUP3 AND SWAP1 POP SWAP2 SWAP1 POP JUMP JUMPDEST PUSH0 PUSH2 0x457 DUP3 PUSH2 0x42E JUMP JUMPDEST SWAP1 POP SWAP2 SWAP1 POP JUMP JUMPDEST PUSH2 0x467 DUP2 PUSH2 0x44D JUMP JUMPDEST DUP3 MSTORE POP POP JUMP JUMPDEST PUSH0 PUSH1 0x20 DUP3 ADD SWAP1 POP PUSH2 0x480 PUSH0 DUP4 ADD DUP5 PUSH2 0x45E JUMP JUMPDEST SWAP3 SWAP2 POP POP JUMP JUMPDEST PUSH0 PUSH32 0xFF00000000000000000000000000000000000000000000000000000000000000 DUP3 AND SWAP1 POP SWAP2 SWAP1 POP JUMP JUMPDEST PUSH2 0x4BA DUP2 PUSH2 0x486 JUMP JUMPDEST DUP3 MSTORE POP POP JUMP JUMPDEST PUSH0 PUSH1 0x20 DUP3 ADD SWAP1 POP PUSH2 0x4D3 PUSH0 DUP4 ADD DUP5 PUSH2 0x4B1 JUMP JUMPDEST SWAP3 SWAP2 POP POP JUMP JUMPDEST PUSH32 0x4E487B7100000000000000000000000000000000000000000000000000000000 PUSH0 MSTORE PUSH1 0x22 PUSH1 0x4 MSTORE PUSH1 0x24 PUSH0 REVERT JUMPDEST PUSH0 PUSH1 0x2 DUP3 DIV SWAP1 POP PUSH1 0x1 DUP3 AND DUP1 PUSH2 0x51D JUMPI PUSH1 0x7F DUP3 AND SWAP2 POP JUMPDEST PUSH1 0x20 DUP3 LT DUP2 SUB PUSH2 0x530 JUMPI PUSH2 0x52F PUSH2 0x4D9 JUMP JUMPDEST JUMPDEST POP SWAP2 SWAP1 POP JUMP INVALID LOG2 PUSH5 0x6970667358 0x22 SLT KECCAK256 PUSH9 0xF197A10A152EB3112E GASPRICE 0xF 0xC5 0xEE PUSH28 0xEFE9EF4607813894E29AE61851A28B048064736F6C63430008140033 "
		},
		"gasEstimates": {
			"creation": {
				"codeDepositCost": "277600",
				"executionCost": "117382",
				"totalCost": "394982"
			},
			"external": {
				"a()": "2486",
				"add()": "2508",
				"addr()": "2581",
				"b()": "2583",
				"bb()": "infinite",
				"cc()": "2510",
				"mm()": "2513",
				"num()": "2514",
				"val()": "2470",
				"vv()": "2491"
			}
		},
		"methodIdentifiers": {
			"a()": "0dbe671f",
			"add()": "4f2be91f",
			"addr()": "767800de",
			"b()": "4df7e3d0",
			"bb()": "0a9ae69d",
			"cc()": "a2cdd471",
			"mm()": "e90eaa51",
			"num()": "4e70b1dc",
			"val()": "3c6bb436",
			"vv()": "e73d9fbb"
		}
	},
	"abi": [
		{
			"inputs": [],
			"name": "a",
			"outputs": [
				{
					"internalType": "bool",
					"name": "",
					"type": "bool"
				}
			],
			"stateMutability": "view",
			"type": "function"
		},
		{
			"inputs": [],
			"name": "add",
			"outputs": [
				{
					"internalType": "address",
					"name": "",
					"type": "address"
				}
			],
			"stateMutability": "view",
			"type": "function"
		},
		{
			"inputs": [],
			"name": "addr",
			"outputs": [
				{
					"internalType": "address",
					"name": "",
					"type": "address"
				}
			],
			"stateMutability": "view",
			"type": "function"
		},
		{
			"inputs": [],
			"name": "b",
			"outputs": [
				{
					"internalType": "bool",
					"name": "",
					"type": "bool"
				}
			],
			"stateMutability": "view",
			"type": "function"
		},
		{
			"inputs": [],
			"name": "bb",
			"outputs": [
				{
					"internalType": "bytes",
					"name": "",
					"type": "bytes"
				}
			],
			"stateMutability": "view",
			"type": "function"
		},
		{
			"inputs": [],
			"name": "cc",
			"outputs": [
				{
					"internalType": "bytes1",
					"name": "",
					"type": "bytes1"
				}
			],
			"stateMutability": "view",
			"type": "function"
		},
		{
			"inputs": [],
			"name": "mm",
			"outputs": [
				{
					"internalType": "uint256",
					"name": "",
					"type": "uint256"
				}
			],
			"stateMutability": "view",
			"type": "function"
		},
		{
			"inputs": [],
			"name": "num",
			"outputs": [
				{
					"internalType": "uint256",
					"name": "",
					"type": "uint256"
				}
			],
			"stateMutability": "view",
			"type": "function"
		},
		{
			"inputs": [],
			"name": "val",
			"outputs": [
				{
					"internalType": "int256",
					"name": "",
					"type": "int256"
				}
			],
			"stateMutability": "view",
			"type": "function"
		},
		{
			"inputs": [],
			"name": "vv",
			"outputs": [
				{
					"internalType": "int256",
					"name": "",
					"type": "int256"
				}
			],
			"stateMutability": "view",
			"type": "function"
		}
	]
}