{
	"data": {
		"bytecode": {
			"linkReferences": {},
			"object": "608060405234801561000f575f80fd5b506102d78061001d5f395ff3fe608060405234801561000f575f80fd5b5060043610610034575f3560e01c8063a92100cb14610038578063e5aa3d5814610056575b5f80fd5b610040610074565b60405161004d91906101e5565b60405180910390f35b61005e61011f565b60405161006b9190610214565b60405180910390f35b60605f6001819055505b600a60015410156100cc575f600154908060018154018082558091505060019003905f5260205f20015f909190919091505560015f8154809291906100c29061025a565b919050555061007e565b5f80548060200260200160405190810160405280929190818152602001828054801561011557602002820191905f5260205f20905b815481526020019060010190808311610101575b5050505050905090565b60015481565b5f81519050919050565b5f82825260208201905092915050565b5f819050602082019050919050565b5f819050919050565b6101608161014e565b82525050565b5f6101718383610157565b60208301905092915050565b5f602082019050919050565b5f61019382610125565b61019d818561012f565b93506101a88361013f565b805f5b838110156101d85781516101bf8882610166565b97506101ca8361017d565b9250506001810190506101ab565b5085935050505092915050565b5f6020820190508181035f8301526101fd8184610189565b905092915050565b61020e8161014e565b82525050565b5f6020820190506102275f830184610205565b92915050565b7f4e487b71000000000000000000000000000000000000000000000000000000005f52601160045260245ffd5b5f6102648261014e565b91507fffffffffffffffffffffffffffffffffffffffffffffffffffffffffffffffff82036102965761029561022d565b5b60018201905091905056fea2646970667358221220ec945e21c0bd47f6d605a150148bbbd15b74ad0c121b83174c3ad877271ff29c64736f6c63430008140033",
			"opcodes": "PUSH1 0x80 PUSH1 0x40 MSTORE CALLVALUE DUP1 ISZERO PUSH2 0xF JUMPI PUSH0 DUP1 REVERT JUMPDEST POP PUSH2 0x2D7 DUP1 PUSH2 0x1D PUSH0 CODECOPY PUSH0 RETURN INVALID PUSH1 0x80 PUSH1 0x40 MSTORE CALLVALUE DUP1 ISZERO PUSH2 0xF JUMPI PUSH0 DUP1 REVERT JUMPDEST POP PUSH1 0x4 CALLDATASIZE LT PUSH2 0x34 JUMPI PUSH0 CALLDATALOAD PUSH1 0xE0 SHR DUP1 PUSH4 0xA92100CB EQ PUSH2 0x38 JUMPI DUP1 PUSH4 0xE5AA3D58 EQ PUSH2 0x56 JUMPI JUMPDEST PUSH0 DUP1 REVERT JUMPDEST PUSH2 0x40 PUSH2 0x74 JUMP JUMPDEST PUSH1 0x40 MLOAD PUSH2 0x4D SWAP2 SWAP1 PUSH2 0x1E5 JUMP JUMPDEST PUSH1 0x40 MLOAD DUP1 SWAP2 SUB SWAP1 RETURN JUMPDEST PUSH2 0x5E PUSH2 0x11F JUMP JUMPDEST PUSH1 0x40 MLOAD PUSH2 0x6B SWAP2 SWAP1 PUSH2 0x214 JUMP JUMPDEST PUSH1 0x40 MLOAD DUP1 SWAP2 SUB SWAP1 RETURN JUMPDEST PUSH1 0x60 PUSH0 PUSH1 0x1 DUP2 SWAP1 SSTORE POP JUMPDEST PUSH1 0xA PUSH1 0x1 SLOAD LT ISZERO PUSH2 0xCC JUMPI PUSH0 PUSH1 0x1 SLOAD SWAP1 DUP1 PUSH1 0x1 DUP2 SLOAD ADD DUP1 DUP3 SSTORE DUP1 SWAP2 POP POP PUSH1 0x1 SWAP1 SUB SWAP1 PUSH0 MSTORE PUSH1 0x20 PUSH0 KECCAK256 ADD PUSH0 SWAP1 SWAP2 SWAP1 SWAP2 SWAP1 SWAP2 POP SSTORE PUSH1 0x1 PUSH0 DUP2 SLOAD DUP1 SWAP3 SWAP2 SWAP1 PUSH2 0xC2 SWAP1 PUSH2 0x25A JUMP JUMPDEST SWAP2 SWAP1 POP SSTORE POP PUSH2 0x7E JUMP JUMPDEST PUSH0 DUP1 SLOAD DUP1 PUSH1 0x20 MUL PUSH1 0x20 ADD PUSH1 0x40 MLOAD SWAP1 DUP2 ADD PUSH1 0x40 MSTORE DUP1 SWAP3 SWAP2 SWAP1 DUP2 DUP2 MSTORE PUSH1 0x20 ADD DUP3 DUP1 SLOAD DUP1 ISZERO PUSH2 0x115 JUMPI PUSH1 0x20 MUL DUP3 ADD SWAP2 SWAP1 PUSH0 MSTORE PUSH1 0x20 PUSH0 KECCAK256 SWAP1 JUMPDEST DUP2 SLOAD DUP2 MSTORE PUSH1 0x20 ADD SWAP1 PUSH1 0x1 ADD SWAP1 DUP1 DUP4 GT PUSH2 0x101 JUMPI JUMPDEST POP POP POP POP POP SWAP1 POP SWAP1 JUMP JUMPDEST PUSH1 0x1 SLOAD DUP2 JUMP JUMPDEST PUSH0 DUP2 MLOAD SWAP1 POP SWAP2 SWAP1 POP JUMP JUMPDEST PUSH0 DUP3 DUP3 MSTORE PUSH1 0x20 DUP3 ADD SWAP1 POP SWAP3 SWAP2 POP POP JUMP JUMPDEST PUSH0 DUP2 SWAP1 POP PUSH1 0x20 DUP3 ADD SWAP1 POP SWAP2 SWAP1 POP JUMP JUMPDEST PUSH0 DUP2 SWAP1 POP SWAP2 SWAP1 POP JUMP JUMPDEST PUSH2 0x160 DUP2 PUSH2 0x14E JUMP JUMPDEST DUP3 MSTORE POP POP JUMP JUMPDEST PUSH0 PUSH2 0x171 DUP4 DUP4 PUSH2 0x157 JUMP JUMPDEST PUSH1 0x20 DUP4 ADD SWAP1 POP SWAP3 SWAP2 POP POP JUMP JUMPDEST PUSH0 PUSH1 0x20 DUP3 ADD SWAP1 POP SWAP2 SWAP1 POP JUMP JUMPDEST PUSH0 PUSH2 0x193 DUP3 PUSH2 0x125 JUMP JUMPDEST PUSH2 0x19D DUP2 DUP6 PUSH2 0x12F JUMP JUMPDEST SWAP4 POP PUSH2 0x1A8 DUP4 PUSH2 0x13F JUMP JUMPDEST DUP1 PUSH0 JUMPDEST DUP4 DUP2 LT ISZERO PUSH2 0x1D8 JUMPI DUP2 MLOAD PUSH2 0x1BF DUP9 DUP3 PUSH2 0x166 JUMP JUMPDEST SWAP8 POP PUSH2 0x1CA DUP4 PUSH2 0x17D JUMP JUMPDEST SWAP3 POP POP PUSH1 0x1 DUP2 ADD SWAP1 POP PUSH2 0x1AB JUMP JUMPDEST POP DUP6 SWAP4 POP POP POP POP SWAP3 SWAP2 POP POP JUMP JUMPDEST PUSH0 PUSH1 0x20 DUP3 ADD SWAP1 POP DUP2 DUP2 SUB PUSH0 DUP4 ADD MSTORE PUSH2 0x1FD DUP2 DUP5 PUSH2 0x189 JUMP JUMPDEST SWAP1 POP SWAP3 SWAP2 POP POP JUMP JUMPDEST PUSH2 0x20E DUP2 PUSH2 0x14E JUMP JUMPDEST DUP3 MSTORE POP POP JUMP JUMPDEST PUSH0 PUSH1 0x20 DUP3 ADD SWAP1 POP PUSH2 0x227 PUSH0 DUP4 ADD DUP5 PUSH2 0x205 JUMP JUMPDEST SWAP3 SWAP2 POP POP JUMP JUMPDEST PUSH32 0x4E487B7100000000000000000000000000000000000000000000000000000000 PUSH0 MSTORE PUSH1 0x11 PUSH1 0x4 MSTORE PUSH1 0x24 PUSH0 REVERT JUMPDEST PUSH0 PUSH2 0x264 DUP3 PUSH2 0x14E JUMP JUMPDEST SWAP2 POP PUSH32 0xFFFFFFFFFFFFFFFFFFFFFFFFFFFFFFFFFFFFFFFFFFFFFFFFFFFFFFFFFFFFFFFF DUP3 SUB PUSH2 0x296 JUMPI PUSH2 0x295 PUSH2 0x22D JUMP JUMPDEST JUMPDEST PUSH1 0x1 DUP3 ADD SWAP1 POP SWAP2 SWAP1 POP JUMP INVALID LOG2 PUSH5 0x6970667358 0x22 SLT KECCAK256 0xEC SWAP5 0x5E 0x21 0xC0 0xBD SELFBALANCE 0xF6 0xD6 SDIV LOG1 POP EQ DUP12 0xBB 0xD1 JUMPDEST PUSH21 0xAD0C121B83174C3AD877271FF29C64736F6C634300 ADDMOD EQ STOP CALLER "
		},
		"gasEstimates": {
			"creation": {
				"codeDepositCost": "145400",
				"executionCost": "188",
				"totalCost": "145588"
			},
			"external": {
				"i()": "2425",
				"loop()": "infinite"
			}
		},
		"methodIdentifiers": {
			"i()": "e5aa3d58",
			"loop()": "a92100cb"
		}
	},
	"abi": [
		{
			"inputs": [],
			"name": "i",
			"outputs": [
				{
					"internalType": "uint256",
					"name": "",
					"type": "uint256"
				}
			],
			"stateMutability": "view",
			"type": "function"
		},
		{
			"inputs": [],
			"name": "loop",
			"outputs": [
				{
					"internalType": "uint256[]",
					"name": "",
					"type": "uint256[]"
				}
			],
			"stateMutability": "nonpayable",
			"type": "function"
		}
	]
}