{
	"data": {
		"bytecode": {
			"linkReferences": {},
			"object": "608060405234801561000f575f80fd5b506102af8061001d5f395ff3fe608060405234801561000f575f80fd5b5060043610610034575f3560e01c806324a1e8b614610038578063c7d10ca214610068575b5f80fd5b610052600480360381019061004d919061010e565b610086565b60405161005f9190610148565b60405180910390f35b61007061009a565b60405161007d91906101eb565b60405180910390f35b5f81826100939190610238565b9050919050565b60606040518060400160405280600581526020017f48454c4c4f000000000000000000000000000000000000000000000000000000815250905090565b5f80fd5b5f819050919050565b6100ed816100db565b81146100f7575f80fd5b50565b5f81359050610108816100e4565b92915050565b5f60208284031215610123576101226100d7565b5b5f610130848285016100fa565b91505092915050565b610142816100db565b82525050565b5f60208201905061015b5f830184610139565b92915050565b5f81519050919050565b5f82825260208201905092915050565b5f5b8381101561019857808201518184015260208101905061017d565b5f8484015250505050565b5f601f19601f8301169050919050565b5f6101bd82610161565b6101c7818561016b565b93506101d781856020860161017b565b6101e0816101a3565b840191505092915050565b5f6020820190508181035f83015261020381846101b3565b905092915050565b7f4e487b71000000000000000000000000000000000000000000000000000000005f52601160045260245ffd5b5f610242826100db565b915061024d836100db565b925082820261025b816100db565b915082820484148315176102725761027161020b565b5b509291505056fea26469706673582212205c065561b37bd2e2de1bb5e814cc00d0aca64ccd52d3658295a143220595884464736f6c63430008150033",
			"opcodes": "PUSH1 0x80 PUSH1 0x40 MSTORE CALLVALUE DUP1 ISZERO PUSH2 0xF JUMPI PUSH0 DUP1 REVERT JUMPDEST POP PUSH2 0x2AF DUP1 PUSH2 0x1D PUSH0 CODECOPY PUSH0 RETURN INVALID PUSH1 0x80 PUSH1 0x40 MSTORE CALLVALUE DUP1 ISZERO PUSH2 0xF JUMPI PUSH0 DUP1 REVERT JUMPDEST POP PUSH1 0x4 CALLDATASIZE LT PUSH2 0x34 JUMPI PUSH0 CALLDATALOAD PUSH1 0xE0 SHR DUP1 PUSH4 0x24A1E8B6 EQ PUSH2 0x38 JUMPI DUP1 PUSH4 0xC7D10CA2 EQ PUSH2 0x68 JUMPI JUMPDEST PUSH0 DUP1 REVERT JUMPDEST PUSH2 0x52 PUSH1 0x4 DUP1 CALLDATASIZE SUB DUP2 ADD SWAP1 PUSH2 0x4D SWAP2 SWAP1 PUSH2 0x10E JUMP JUMPDEST PUSH2 0x86 JUMP JUMPDEST PUSH1 0x40 MLOAD PUSH2 0x5F SWAP2 SWAP1 PUSH2 0x148 JUMP JUMPDEST PUSH1 0x40 MLOAD DUP1 SWAP2 SUB SWAP1 RETURN JUMPDEST PUSH2 0x70 PUSH2 0x9A JUMP JUMPDEST PUSH1 0x40 MLOAD PUSH2 0x7D SWAP2 SWAP1 PUSH2 0x1EB JUMP JUMPDEST PUSH1 0x40 MLOAD DUP1 SWAP2 SUB SWAP1 RETURN JUMPDEST PUSH0 DUP2 DUP3 PUSH2 0x93 SWAP2 SWAP1 PUSH2 0x238 JUMP JUMPDEST SWAP1 POP SWAP2 SWAP1 POP JUMP JUMPDEST PUSH1 0x60 PUSH1 0x40 MLOAD DUP1 PUSH1 0x40 ADD PUSH1 0x40 MSTORE DUP1 PUSH1 0x5 DUP2 MSTORE PUSH1 0x20 ADD PUSH32 0x48454C4C4F000000000000000000000000000000000000000000000000000000 DUP2 MSTORE POP SWAP1 POP SWAP1 JUMP JUMPDEST PUSH0 DUP1 REVERT JUMPDEST PUSH0 DUP2 SWAP1 POP SWAP2 SWAP1 POP JUMP JUMPDEST PUSH2 0xED DUP2 PUSH2 0xDB JUMP JUMPDEST DUP2 EQ PUSH2 0xF7 JUMPI PUSH0 DUP1 REVERT JUMPDEST POP JUMP JUMPDEST PUSH0 DUP2 CALLDATALOAD SWAP1 POP PUSH2 0x108 DUP2 PUSH2 0xE4 JUMP JUMPDEST SWAP3 SWAP2 POP POP JUMP JUMPDEST PUSH0 PUSH1 0x20 DUP3 DUP5 SUB SLT ISZERO PUSH2 0x123 JUMPI PUSH2 0x122 PUSH2 0xD7 JUMP JUMPDEST JUMPDEST PUSH0 PUSH2 0x130 DUP5 DUP3 DUP6 ADD PUSH2 0xFA JUMP JUMPDEST SWAP2 POP POP SWAP3 SWAP2 POP POP JUMP JUMPDEST PUSH2 0x142 DUP2 PUSH2 0xDB JUMP JUMPDEST DUP3 MSTORE POP POP JUMP JUMPDEST PUSH0 PUSH1 0x20 DUP3 ADD SWAP1 POP PUSH2 0x15B PUSH0 DUP4 ADD DUP5 PUSH2 0x139 JUMP JUMPDEST SWAP3 SWAP2 POP POP JUMP JUMPDEST PUSH0 DUP2 MLOAD SWAP1 POP SWAP2 SWAP1 POP JUMP JUMPDEST PUSH0 DUP3 DUP3 MSTORE PUSH1 0x20 DUP3 ADD SWAP1 POP SWAP3 SWAP2 POP POP JUMP JUMPDEST PUSH0 JUMPDEST DUP4 DUP2 LT ISZERO PUSH2 0x198 JUMPI DUP1 DUP3 ADD MLOAD DUP2 DUP5 ADD MSTORE PUSH1 0x20 DUP2 ADD SWAP1 POP PUSH2 0x17D JUMP JUMPDEST PUSH0 DUP5 DUP5 ADD MSTORE POP POP POP POP JUMP JUMPDEST PUSH0 PUSH1 0x1F NOT PUSH1 0x1F DUP4 ADD AND SWAP1 POP SWAP2 SWAP1 POP JUMP JUMPDEST PUSH0 PUSH2 0x1BD DUP3 PUSH2 0x161 JUMP JUMPDEST PUSH2 0x1C7 DUP2 DUP6 PUSH2 0x16B JUMP JUMPDEST SWAP4 POP PUSH2 0x1D7 DUP2 DUP6 PUSH1 0x20 DUP7 ADD PUSH2 0x17B JUMP JUMPDEST PUSH2 0x1E0 DUP2 PUSH2 0x1A3 JUMP JUMPDEST DUP5 ADD SWAP2 POP POP SWAP3 SWAP2 POP POP JUMP JUMPDEST PUSH0 PUSH1 0x20 DUP3 ADD SWAP1 POP DUP2 DUP2 SUB PUSH0 DUP4 ADD MSTORE PUSH2 0x203 DUP2 DUP5 PUSH2 0x1B3 JUMP JUMPDEST SWAP1 POP SWAP3 SWAP2 POP POP JUMP JUMPDEST PUSH32 0x4E487B7100000000000000000000000000000000000000000000000000000000 PUSH0 MSTORE PUSH1 0x11 PUSH1 0x4 MSTORE PUSH1 0x24 PUSH0 REVERT JUMPDEST PUSH0 PUSH2 0x242 DUP3 PUSH2 0xDB JUMP JUMPDEST SWAP2 POP PUSH2 0x24D DUP4 PUSH2 0xDB JUMP JUMPDEST SWAP3 POP DUP3 DUP3 MUL PUSH2 0x25B DUP2 PUSH2 0xDB JUMP JUMPDEST SWAP2 POP DUP3 DUP3 DIV DUP5 EQ DUP4 ISZERO OR PUSH2 0x272 JUMPI PUSH2 0x271 PUSH2 0x20B JUMP JUMPDEST JUMPDEST POP SWAP3 SWAP2 POP POP JUMP INVALID LOG2 PUSH5 0x6970667358 0x22 SLT KECCAK256 0x5C MOD SSTORE PUSH2 0xB37B 0xD2 0xE2 0xDE SHL 0xB5 0xE8 EQ 0xCC STOP 0xD0 0xAC 0xA6 0x4C 0xCD MSTORE 0xD3 PUSH6 0x8295A1432205 SWAP6 DUP9 PREVRANDAO PUSH5 0x736F6C6343 STOP ADDMOD ISZERO STOP CALLER "
		},
		"gasEstimates": {
			"creation": {
				"codeDepositCost": "137400",
				"executionCost": "181",
				"totalCost": "137581"
			},
			"external": {
				"getarea()": "infinite",
				"getarea(uint256)": "infinite"
			}
		},
		"methodIdentifiers": {
			"getarea()": "c7d10ca2",
			"getarea(uint256)": "24a1e8b6"
		}
	},
	"abi": [
		{
			"inputs": [
				{
					"internalType": "uint256",
					"name": "side",
					"type": "uint256"
				}
			],
			"name": "getarea",
			"outputs": [
				{
					"internalType": "uint256",
					"name": "radius",
					"type": "uint256"
				}
			],
			"stateMutability": "pure",
			"type": "function"
		},
		{
			"inputs": [],
			"name": "getarea",
			"outputs": [
				{
					"internalType": "string",
					"name": "",
					"type": "string"
				}
			],
			"stateMutability": "pure",
			"type": "function"
		}
	]
}