{
	"data": {
		"bytecode": {
			"linkReferences": {},
			"object": "608060405234801561001057600080fd5b50336000806101000a81548173ffffffffffffffffffffffffffffffffffffffff021916908373ffffffffffffffffffffffffffffffffffffffff160217905550610f40806100606000396000f3fe608060405234801561001057600080fd5b506004361061004c5760003560e01c8063010efb7114610051578063861e46561461006d5780638da5cb5b146100a3578063a5da75ce146100c1575b600080fd5b61006b60048036038101906100669190610714565b6100dd565b005b610087600480360381019061008291906107ab565b6101f9565b60405161009a9796959493929190610866565b60405180910390f35b6100ab61034b565b6040516100b89190610924565b60405180910390f35b6100db60048036038101906100d6919061093f565b61036f565b005b60008054906101000a900473ffffffffffffffffffffffffffffffffffffffff1673ffffffffffffffffffffffffffffffffffffffff163373ffffffffffffffffffffffffffffffffffffffff161461016b576040517f08c379a000000000000000000000000000000000000000000000000000000000815260040161016290610a65565b60405180910390fd5b8260016000868152602001908152602001600020600001908161018e9190610c91565b50846001600086815260200190815260200160002060060160008282546101b59190610d92565b925050819055508160016000868152602001908152602001600020600301819055508060016000868152602001908152602001600020600201819055505050505050565b600160205280600052604060002060009150905080600001805461021c90610ab4565b80601f016020809104026020016040519081016040528092919081815260200182805461024890610ab4565b80156102955780601f1061026a57610100808354040283529160200191610295565b820191906000526020600020905b81548152906001019060200180831161027857829003601f168201915b5050505050908060010180546102aa90610ab4565b80601f01602080910402602001604051908101604052809291908181526020018280546102d690610ab4565b80156103235780601f106102f857610100808354040283529160200191610323565b820191906000526020600020905b81548152906001019060200180831161030657829003601f168201915b5050505050908060020154908060030154908060040154908060050154908060060154905087565b60008054906101000a900473ffffffffffffffffffffffffffffffffffffffff1681565b60008054906101000a900473ffffffffffffffffffffffffffffffffffffffff1673ffffffffffffffffffffffffffffffffffffffff163373ffffffffffffffffffffffffffffffffffffffff16146103fd576040517f08c379a00000000000000000000000000000000000000000000000000000000081526004016103f490610a65565b60405180910390fd5b6000865111610441576040517f08c379a000000000000000000000000000000000000000000000000000000000815260040161043890610e12565b60405180910390fd5b60008311610484576040517f08c379a000000000000000000000000000000000000000000000000000000000815260040161047b90610e7e565b60405180910390fd5b600087116104c7576040517f08c379a00000000000000000000000000000000000000000000000000000000081526004016104be90610eea565b60405180910390fd5b856001600089815260200190815260200160002060000190816104ea9190610c91565b508460016000898152602001908152602001600020600101908161050e9190610c91565b5083600160008981526020019081526020016000206002018190555082600160008981526020019081526020016000206004018190555081600160008981526020019081526020016000206003018190555080600160008981526020019081526020016000206005018190555050505050505050565b6000604051905090565b600080fd5b600080fd5b6000819050919050565b6105ab81610598565b81146105b657600080fd5b50565b6000813590506105c8816105a2565b92915050565b600080fd5b600080fd5b6000601f19601f8301169050919050565b7f4e487b7100000000000000000000000000000000000000000000000000000000600052604160045260246000fd5b610621826105d8565b810181811067ffffffffffffffff821117156106405761063f6105e9565b5b80604052505050565b6000610653610584565b905061065f8282610618565b919050565b600067ffffffffffffffff82111561067f5761067e6105e9565b5b610688826105d8565b9050602081019050919050565b82818337600083830152505050565b60006106b76106b284610664565b610649565b9050828152602081018484840111156106d3576106d26105d3565b5b6106de848285610695565b509392505050565b600082601f8301126106fb576106fa6105ce565b5b813561070b8482602086016106a4565b91505092915050565b600080600080600060a086880312156107305761072f61058e565b5b600061073e888289016105b9565b955050602061074f888289016105b9565b945050604086013567ffffffffffffffff8111156107705761076f610593565b5b61077c888289016106e6565b935050606061078d888289016105b9565b925050608061079e888289016105b9565b9150509295509295909350565b6000602082840312156107c1576107c061058e565b5b60006107cf848285016105b9565b91505092915050565b600081519050919050565b600082825260208201905092915050565b60005b838110156108125780820151818401526020810190506107f7565b60008484015250505050565b6000610829826107d8565b61083381856107e3565b93506108438185602086016107f4565b61084c816105d8565b840191505092915050565b61086081610598565b82525050565b600060e0820190508181036000830152610880818a61081e565b90508181036020830152610894818961081e565b90506108a36040830188610857565b6108b06060830187610857565b6108bd6080830186610857565b6108ca60a0830185610857565b6108d760c0830184610857565b98975050505050505050565b600073ffffffffffffffffffffffffffffffffffffffff82169050919050565b600061090e826108e3565b9050919050565b61091e81610903565b82525050565b60006020820190506109396000830184610915565b92915050565b600080600080600080600060e0888a03121561095e5761095d61058e565b5b600061096c8a828b016105b9565b975050602088013567ffffffffffffffff81111561098d5761098c610593565b5b6109998a828b016106e6565b965050604088013567ffffffffffffffff8111156109ba576109b9610593565b5b6109c68a828b016106e6565b95505060606109d78a828b016105b9565b94505060806109e88a828b016105b9565b93505060a06109f98a828b016105b9565b92505060c0610a0a8a828b016105b9565b91505092959891949750929550565b7f4f6e6c79206f776e65722068617320746f207570646174650000000000000000600082015250565b6000610a4f6018836107e3565b9150610a5a82610a19565b602082019050919050565b60006020820190508181036000830152610a7e81610a42565b9050919050565b7f4e487b7100000000000000000000000000000000000000000000000000000000600052602260045260246000fd5b60006002820490506001821680610acc57607f821691505b602082108103610adf57610ade610a85565b5b50919050565b60008190508160005260206000209050919050565b60006020601f8301049050919050565b600082821b905092915050565b600060088302610b477fffffffffffffffffffffffffffffffffffffffffffffffffffffffffffffffff82610b0a565b610b518683610b0a565b95508019841693508086168417925050509392505050565b6000819050919050565b6000610b8e610b89610b8484610598565b610b69565b610598565b9050919050565b6000819050919050565b610ba883610b73565b610bbc610bb482610b95565b848454610b17565b825550505050565b600090565b610bd1610bc4565b610bdc818484610b9f565b505050565b5b81811015610c0057610bf5600082610bc9565b600181019050610be2565b5050565b601f821115610c4557610c1681610ae5565b610c1f84610afa565b81016020851015610c2e578190505b610c42610c3a85610afa565b830182610be1565b50505b505050565b600082821c905092915050565b6000610c6860001984600802610c4a565b1980831691505092915050565b6000610c818383610c57565b9150826002028217905092915050565b610c9a826107d8565b67ffffffffffffffff811115610cb357610cb26105e9565b5b610cbd8254610ab4565b610cc8828285610c04565b600060209050601f831160018114610cfb5760008415610ce9578287015190505b610cf38582610c75565b865550610d5b565b601f198416610d0986610ae5565b60005b82811015610d3157848901518255600182019150602085019450602081019050610d0c565b86831015610d4e5784890151610d4a601f891682610c57565b8355505b6001600288020188555050505b505050505050565b7f4e487b7100000000000000000000000000000000000000000000000000000000600052601160045260246000fd5b6000610d9d82610598565b9150610da883610598565b9250828201905080821115610dc057610dbf610d63565b5b92915050565b7f4f776e6572204e616d652073686f756c64206e6f7420626520656d7074790000600082015250565b6000610dfc601e836107e3565b9150610e0782610dc6565b602082019050919050565b60006020820190508181036000830152610e2b81610def565b9050919050565b7f41726561206e65656420746f2062652073706563696669656400000000000000600082015250565b6000610e686019836107e3565b9150610e7382610e32565b602082019050919050565b60006020820190508181036000830152610e9781610e5b565b9050919050565b7f4944206973207265717569726564000000000000000000000000000000000000600082015250565b6000610ed4600e836107e3565b9150610edf82610e9e565b602082019050919050565b60006020820190508181036000830152610f0381610ec7565b905091905056fea264697066735822122069c17b8b5008b62d5ef0df0662a4f45fcc0126b9fda128a0e98b3e2888d40fcc64736f6c63430008120033",
			"opcodes": "PUSH1 0x80 PUSH1 0x40 MSTORE CALLVALUE DUP1 ISZERO PUSH2 0x10 JUMPI PUSH1 0x0 DUP1 REVERT JUMPDEST POP CALLER PUSH1 0x0 DUP1 PUSH2 0x100 EXP DUP2 SLOAD DUP2 PUSH20 0xFFFFFFFFFFFFFFFFFFFFFFFFFFFFFFFFFFFFFFFF MUL NOT AND SWAP1 DUP4 PUSH20 0xFFFFFFFFFFFFFFFFFFFFFFFFFFFFFFFFFFFFFFFF AND MUL OR SWAP1 SSTORE POP PUSH2 0xF40 DUP1 PUSH2 0x60 PUSH1 0x0 CODECOPY PUSH1 0x0 RETURN INVALID PUSH1 0x80 PUSH1 0x40 MSTORE CALLVALUE DUP1 ISZERO PUSH2 0x10 JUMPI PUSH1 0x0 DUP1 REVERT JUMPDEST POP PUSH1 0x4 CALLDATASIZE LT PUSH2 0x4C JUMPI PUSH1 0x0 CALLDATALOAD PUSH1 0xE0 SHR DUP1 PUSH4 0x10EFB71 EQ PUSH2 0x51 JUMPI DUP1 PUSH4 0x861E4656 EQ PUSH2 0x6D JUMPI DUP1 PUSH4 0x8DA5CB5B EQ PUSH2 0xA3 JUMPI DUP1 PUSH4 0xA5DA75CE EQ PUSH2 0xC1 JUMPI JUMPDEST PUSH1 0x0 DUP1 REVERT JUMPDEST PUSH2 0x6B PUSH1 0x4 DUP1 CALLDATASIZE SUB DUP2 ADD SWAP1 PUSH2 0x66 SWAP2 SWAP1 PUSH2 0x714 JUMP JUMPDEST PUSH2 0xDD JUMP JUMPDEST STOP JUMPDEST PUSH2 0x87 PUSH1 0x4 DUP1 CALLDATASIZE SUB DUP2 ADD SWAP1 PUSH2 0x82 SWAP2 SWAP1 PUSH2 0x7AB JUMP JUMPDEST PUSH2 0x1F9 JUMP JUMPDEST PUSH1 0x40 MLOAD PUSH2 0x9A SWAP8 SWAP7 SWAP6 SWAP5 SWAP4 SWAP3 SWAP2 SWAP1 PUSH2 0x866 JUMP JUMPDEST PUSH1 0x40 MLOAD DUP1 SWAP2 SUB SWAP1 RETURN JUMPDEST PUSH2 0xAB PUSH2 0x34B JUMP JUMPDEST PUSH1 0x40 MLOAD PUSH2 0xB8 SWAP2 SWAP1 PUSH2 0x924 JUMP JUMPDEST PUSH1 0x40 MLOAD DUP1 SWAP2 SUB SWAP1 RETURN JUMPDEST PUSH2 0xDB PUSH1 0x4 DUP1 CALLDATASIZE SUB DUP2 ADD SWAP1 PUSH2 0xD6 SWAP2 SWAP1 PUSH2 0x93F JUMP JUMPDEST PUSH2 0x36F JUMP JUMPDEST STOP JUMPDEST PUSH1 0x0 DUP1 SLOAD SWAP1 PUSH2 0x100 EXP SWAP1 DIV PUSH20 0xFFFFFFFFFFFFFFFFFFFFFFFFFFFFFFFFFFFFFFFF AND PUSH20 0xFFFFFFFFFFFFFFFFFFFFFFFFFFFFFFFFFFFFFFFF AND CALLER PUSH20 0xFFFFFFFFFFFFFFFFFFFFFFFFFFFFFFFFFFFFFFFF AND EQ PUSH2 0x16B JUMPI PUSH1 0x40 MLOAD PUSH32 0x8C379A000000000000000000000000000000000000000000000000000000000 DUP2 MSTORE PUSH1 0x4 ADD PUSH2 0x162 SWAP1 PUSH2 0xA65 JUMP JUMPDEST PUSH1 0x40 MLOAD DUP1 SWAP2 SUB SWAP1 REVERT JUMPDEST DUP3 PUSH1 0x1 PUSH1 0x0 DUP7 DUP2 MSTORE PUSH1 0x20 ADD SWAP1 DUP2 MSTORE PUSH1 0x20 ADD PUSH1 0x0 KECCAK256 PUSH1 0x0 ADD SWAP1 DUP2 PUSH2 0x18E SWAP2 SWAP1 PUSH2 0xC91 JUMP JUMPDEST POP DUP5 PUSH1 0x1 PUSH1 0x0 DUP7 DUP2 MSTORE PUSH1 0x20 ADD SWAP1 DUP2 MSTORE PUSH1 0x20 ADD PUSH1 0x0 KECCAK256 PUSH1 0x6 ADD PUSH1 0x0 DUP3 DUP3 SLOAD PUSH2 0x1B5 SWAP2 SWAP1 PUSH2 0xD92 JUMP JUMPDEST SWAP3 POP POP DUP2 SWAP1 SSTORE POP DUP2 PUSH1 0x1 PUSH1 0x0 DUP7 DUP2 MSTORE PUSH1 0x20 ADD SWAP1 DUP2 MSTORE PUSH1 0x20 ADD PUSH1 0x0 KECCAK256 PUSH1 0x3 ADD DUP2 SWAP1 SSTORE POP DUP1 PUSH1 0x1 PUSH1 0x0 DUP7 DUP2 MSTORE PUSH1 0x20 ADD SWAP1 DUP2 MSTORE PUSH1 0x20 ADD PUSH1 0x0 KECCAK256 PUSH1 0x2 ADD DUP2 SWAP1 SSTORE POP POP POP POP POP POP JUMP JUMPDEST PUSH1 0x1 PUSH1 0x20 MSTORE DUP1 PUSH1 0x0 MSTORE PUSH1 0x40 PUSH1 0x0 KECCAK256 PUSH1 0x0 SWAP2 POP SWAP1 POP DUP1 PUSH1 0x0 ADD DUP1 SLOAD PUSH2 0x21C SWAP1 PUSH2 0xAB4 JUMP JUMPDEST DUP1 PUSH1 0x1F ADD PUSH1 0x20 DUP1 SWAP2 DIV MUL PUSH1 0x20 ADD PUSH1 0x40 MLOAD SWAP1 DUP2 ADD PUSH1 0x40 MSTORE DUP1 SWAP3 SWAP2 SWAP1 DUP2 DUP2 MSTORE PUSH1 0x20 ADD DUP3 DUP1 SLOAD PUSH2 0x248 SWAP1 PUSH2 0xAB4 JUMP JUMPDEST DUP1 ISZERO PUSH2 0x295 JUMPI DUP1 PUSH1 0x1F LT PUSH2 0x26A JUMPI PUSH2 0x100 DUP1 DUP4 SLOAD DIV MUL DUP4 MSTORE SWAP2 PUSH1 0x20 ADD SWAP2 PUSH2 0x295 JUMP JUMPDEST DUP3 ADD SWAP2 SWAP1 PUSH1 0x0 MSTORE PUSH1 0x20 PUSH1 0x0 KECCAK256 SWAP1 JUMPDEST DUP2 SLOAD DUP2 MSTORE SWAP1 PUSH1 0x1 ADD SWAP1 PUSH1 0x20 ADD DUP1 DUP4 GT PUSH2 0x278 JUMPI DUP3 SWAP1 SUB PUSH1 0x1F AND DUP3 ADD SWAP2 JUMPDEST POP POP POP POP POP SWAP1 DUP1 PUSH1 0x1 ADD DUP1 SLOAD PUSH2 0x2AA SWAP1 PUSH2 0xAB4 JUMP JUMPDEST DUP1 PUSH1 0x1F ADD PUSH1 0x20 DUP1 SWAP2 DIV MUL PUSH1 0x20 ADD PUSH1 0x40 MLOAD SWAP1 DUP2 ADD PUSH1 0x40 MSTORE DUP1 SWAP3 SWAP2 SWAP1 DUP2 DUP2 MSTORE PUSH1 0x20 ADD DUP3 DUP1 SLOAD PUSH2 0x2D6 SWAP1 PUSH2 0xAB4 JUMP JUMPDEST DUP1 ISZERO PUSH2 0x323 JUMPI DUP1 PUSH1 0x1F LT PUSH2 0x2F8 JUMPI PUSH2 0x100 DUP1 DUP4 SLOAD DIV MUL DUP4 MSTORE SWAP2 PUSH1 0x20 ADD SWAP2 PUSH2 0x323 JUMP JUMPDEST DUP3 ADD SWAP2 SWAP1 PUSH1 0x0 MSTORE PUSH1 0x20 PUSH1 0x0 KECCAK256 SWAP1 JUMPDEST DUP2 SLOAD DUP2 MSTORE SWAP1 PUSH1 0x1 ADD SWAP1 PUSH1 0x20 ADD DUP1 DUP4 GT PUSH2 0x306 JUMPI DUP3 SWAP1 SUB PUSH1 0x1F AND DUP3 ADD SWAP2 JUMPDEST POP POP POP POP POP SWAP1 DUP1 PUSH1 0x2 ADD SLOAD SWAP1 DUP1 PUSH1 0x3 ADD SLOAD SWAP1 DUP1 PUSH1 0x4 ADD SLOAD SWAP1 DUP1 PUSH1 0x5 ADD SLOAD SWAP1 DUP1 PUSH1 0x6 ADD SLOAD SWAP1 POP DUP8 JUMP JUMPDEST PUSH1 0x0 DUP1 SLOAD SWAP1 PUSH2 0x100 EXP SWAP1 DIV PUSH20 0xFFFFFFFFFFFFFFFFFFFFFFFFFFFFFFFFFFFFFFFF AND DUP2 JUMP JUMPDEST PUSH1 0x0 DUP1 SLOAD SWAP1 PUSH2 0x100 EXP SWAP1 DIV PUSH20 0xFFFFFFFFFFFFFFFFFFFFFFFFFFFFFFFFFFFFFFFF AND PUSH20 0xFFFFFFFFFFFFFFFFFFFFFFFFFFFFFFFFFFFFFFFF AND CALLER PUSH20 0xFFFFFFFFFFFFFFFFFFFFFFFFFFFFFFFFFFFFFFFF AND EQ PUSH2 0x3FD JUMPI PUSH1 0x40 MLOAD PUSH32 0x8C379A000000000000000000000000000000000000000000000000000000000 DUP2 MSTORE PUSH1 0x4 ADD PUSH2 0x3F4 SWAP1 PUSH2 0xA65 JUMP JUMPDEST PUSH1 0x40 MLOAD DUP1 SWAP2 SUB SWAP1 REVERT JUMPDEST PUSH1 0x0 DUP7 MLOAD GT PUSH2 0x441 JUMPI PUSH1 0x40 MLOAD PUSH32 0x8C379A000000000000000000000000000000000000000000000000000000000 DUP2 MSTORE PUSH1 0x4 ADD PUSH2 0x438 SWAP1 PUSH2 0xE12 JUMP JUMPDEST PUSH1 0x40 MLOAD DUP1 SWAP2 SUB SWAP1 REVERT JUMPDEST PUSH1 0x0 DUP4 GT PUSH2 0x484 JUMPI PUSH1 0x40 MLOAD PUSH32 0x8C379A000000000000000000000000000000000000000000000000000000000 DUP2 MSTORE PUSH1 0x4 ADD PUSH2 0x47B SWAP1 PUSH2 0xE7E JUMP JUMPDEST PUSH1 0x40 MLOAD DUP1 SWAP2 SUB SWAP1 REVERT JUMPDEST PUSH1 0x0 DUP8 GT PUSH2 0x4C7 JUMPI PUSH1 0x40 MLOAD PUSH32 0x8C379A000000000000000000000000000000000000000000000000000000000 DUP2 MSTORE PUSH1 0x4 ADD PUSH2 0x4BE SWAP1 PUSH2 0xEEA JUMP JUMPDEST PUSH1 0x40 MLOAD DUP1 SWAP2 SUB SWAP1 REVERT JUMPDEST DUP6 PUSH1 0x1 PUSH1 0x0 DUP10 DUP2 MSTORE PUSH1 0x20 ADD SWAP1 DUP2 MSTORE PUSH1 0x20 ADD PUSH1 0x0 KECCAK256 PUSH1 0x0 ADD SWAP1 DUP2 PUSH2 0x4EA SWAP2 SWAP1 PUSH2 0xC91 JUMP JUMPDEST POP DUP5 PUSH1 0x1 PUSH1 0x0 DUP10 DUP2 MSTORE PUSH1 0x20 ADD SWAP1 DUP2 MSTORE PUSH1 0x20 ADD PUSH1 0x0 KECCAK256 PUSH1 0x1 ADD SWAP1 DUP2 PUSH2 0x50E SWAP2 SWAP1 PUSH2 0xC91 JUMP JUMPDEST POP DUP4 PUSH1 0x1 PUSH1 0x0 DUP10 DUP2 MSTORE PUSH1 0x20 ADD SWAP1 DUP2 MSTORE PUSH1 0x20 ADD PUSH1 0x0 KECCAK256 PUSH1 0x2 ADD DUP2 SWAP1 SSTORE POP DUP3 PUSH1 0x1 PUSH1 0x0 DUP10 DUP2 MSTORE PUSH1 0x20 ADD SWAP1 DUP2 MSTORE PUSH1 0x20 ADD PUSH1 0x0 KECCAK256 PUSH1 0x4 ADD DUP2 SWAP1 SSTORE POP DUP2 PUSH1 0x1 PUSH1 0x0 DUP10 DUP2 MSTORE PUSH1 0x20 ADD SWAP1 DUP2 MSTORE PUSH1 0x20 ADD PUSH1 0x0 KECCAK256 PUSH1 0x3 ADD DUP2 SWAP1 SSTORE POP DUP1 PUSH1 0x1 PUSH1 0x0 DUP10 DUP2 MSTORE PUSH1 0x20 ADD SWAP1 DUP2 MSTORE PUSH1 0x20 ADD PUSH1 0x0 KECCAK256 PUSH1 0x5 ADD DUP2 SWAP1 SSTORE POP POP POP POP POP POP POP POP JUMP JUMPDEST PUSH1 0x0 PUSH1 0x40 MLOAD SWAP1 POP SWAP1 JUMP JUMPDEST PUSH1 0x0 DUP1 REVERT JUMPDEST PUSH1 0x0 DUP1 REVERT JUMPDEST PUSH1 0x0 DUP2 SWAP1 POP SWAP2 SWAP1 POP JUMP JUMPDEST PUSH2 0x5AB DUP2 PUSH2 0x598 JUMP JUMPDEST DUP2 EQ PUSH2 0x5B6 JUMPI PUSH1 0x0 DUP1 REVERT JUMPDEST POP JUMP JUMPDEST PUSH1 0x0 DUP2 CALLDATALOAD SWAP1 POP PUSH2 0x5C8 DUP2 PUSH2 0x5A2 JUMP JUMPDEST SWAP3 SWAP2 POP POP JUMP JUMPDEST PUSH1 0x0 DUP1 REVERT JUMPDEST PUSH1 0x0 DUP1 REVERT JUMPDEST PUSH1 0x0 PUSH1 0x1F NOT PUSH1 0x1F DUP4 ADD AND SWAP1 POP SWAP2 SWAP1 POP JUMP JUMPDEST PUSH32 0x4E487B7100000000000000000000000000000000000000000000000000000000 PUSH1 0x0 MSTORE PUSH1 0x41 PUSH1 0x4 MSTORE PUSH1 0x24 PUSH1 0x0 REVERT JUMPDEST PUSH2 0x621 DUP3 PUSH2 0x5D8 JUMP JUMPDEST DUP2 ADD DUP2 DUP2 LT PUSH8 0xFFFFFFFFFFFFFFFF DUP3 GT OR ISZERO PUSH2 0x640 JUMPI PUSH2 0x63F PUSH2 0x5E9 JUMP JUMPDEST JUMPDEST DUP1 PUSH1 0x40 MSTORE POP POP POP JUMP JUMPDEST PUSH1 0x0 PUSH2 0x653 PUSH2 0x584 JUMP JUMPDEST SWAP1 POP PUSH2 0x65F DUP3 DUP3 PUSH2 0x618 JUMP JUMPDEST SWAP2 SWAP1 POP JUMP JUMPDEST PUSH1 0x0 PUSH8 0xFFFFFFFFFFFFFFFF DUP3 GT ISZERO PUSH2 0x67F JUMPI PUSH2 0x67E PUSH2 0x5E9 JUMP JUMPDEST JUMPDEST PUSH2 0x688 DUP3 PUSH2 0x5D8 JUMP JUMPDEST SWAP1 POP PUSH1 0x20 DUP2 ADD SWAP1 POP SWAP2 SWAP1 POP JUMP JUMPDEST DUP3 DUP2 DUP4 CALLDATACOPY PUSH1 0x0 DUP4 DUP4 ADD MSTORE POP POP POP JUMP JUMPDEST PUSH1 0x0 PUSH2 0x6B7 PUSH2 0x6B2 DUP5 PUSH2 0x664 JUMP JUMPDEST PUSH2 0x649 JUMP JUMPDEST SWAP1 POP DUP3 DUP2 MSTORE PUSH1 0x20 DUP2 ADD DUP5 DUP5 DUP5 ADD GT ISZERO PUSH2 0x6D3 JUMPI PUSH2 0x6D2 PUSH2 0x5D3 JUMP JUMPDEST JUMPDEST PUSH2 0x6DE DUP5 DUP3 DUP6 PUSH2 0x695 JUMP JUMPDEST POP SWAP4 SWAP3 POP POP POP JUMP JUMPDEST PUSH1 0x0 DUP3 PUSH1 0x1F DUP4 ADD SLT PUSH2 0x6FB JUMPI PUSH2 0x6FA PUSH2 0x5CE JUMP JUMPDEST JUMPDEST DUP2 CALLDATALOAD PUSH2 0x70B DUP5 DUP3 PUSH1 0x20 DUP7 ADD PUSH2 0x6A4 JUMP JUMPDEST SWAP2 POP POP SWAP3 SWAP2 POP POP JUMP JUMPDEST PUSH1 0x0 DUP1 PUSH1 0x0 DUP1 PUSH1 0x0 PUSH1 0xA0 DUP7 DUP9 SUB SLT ISZERO PUSH2 0x730 JUMPI PUSH2 0x72F PUSH2 0x58E JUMP JUMPDEST JUMPDEST PUSH1 0x0 PUSH2 0x73E DUP9 DUP3 DUP10 ADD PUSH2 0x5B9 JUMP JUMPDEST SWAP6 POP POP PUSH1 0x20 PUSH2 0x74F DUP9 DUP3 DUP10 ADD PUSH2 0x5B9 JUMP JUMPDEST SWAP5 POP POP PUSH1 0x40 DUP7 ADD CALLDATALOAD PUSH8 0xFFFFFFFFFFFFFFFF DUP2 GT ISZERO PUSH2 0x770 JUMPI PUSH2 0x76F PUSH2 0x593 JUMP JUMPDEST JUMPDEST PUSH2 0x77C DUP9 DUP3 DUP10 ADD PUSH2 0x6E6 JUMP JUMPDEST SWAP4 POP POP PUSH1 0x60 PUSH2 0x78D DUP9 DUP3 DUP10 ADD PUSH2 0x5B9 JUMP JUMPDEST SWAP3 POP POP PUSH1 0x80 PUSH2 0x79E DUP9 DUP3 DUP10 ADD PUSH2 0x5B9 JUMP JUMPDEST SWAP2 POP POP SWAP3 SWAP6 POP SWAP3 SWAP6 SWAP1 SWAP4 POP JUMP JUMPDEST PUSH1 0x0 PUSH1 0x20 DUP3 DUP5 SUB SLT ISZERO PUSH2 0x7C1 JUMPI PUSH2 0x7C0 PUSH2 0x58E JUMP JUMPDEST JUMPDEST PUSH1 0x0 PUSH2 0x7CF DUP5 DUP3 DUP6 ADD PUSH2 0x5B9 JUMP JUMPDEST SWAP2 POP POP SWAP3 SWAP2 POP POP JUMP JUMPDEST PUSH1 0x0 DUP2 MLOAD SWAP1 POP SWAP2 SWAP1 POP JUMP JUMPDEST PUSH1 0x0 DUP3 DUP3 MSTORE PUSH1 0x20 DUP3 ADD SWAP1 POP SWAP3 SWAP2 POP POP JUMP JUMPDEST PUSH1 0x0 JUMPDEST DUP4 DUP2 LT ISZERO PUSH2 0x812 JUMPI DUP1 DUP3 ADD MLOAD DUP2 DUP5 ADD MSTORE PUSH1 0x20 DUP2 ADD SWAP1 POP PUSH2 0x7F7 JUMP JUMPDEST PUSH1 0x0 DUP5 DUP5 ADD MSTORE POP POP POP POP JUMP JUMPDEST PUSH1 0x0 PUSH2 0x829 DUP3 PUSH2 0x7D8 JUMP JUMPDEST PUSH2 0x833 DUP2 DUP6 PUSH2 0x7E3 JUMP JUMPDEST SWAP4 POP PUSH2 0x843 DUP2 DUP6 PUSH1 0x20 DUP7 ADD PUSH2 0x7F4 JUMP JUMPDEST PUSH2 0x84C DUP2 PUSH2 0x5D8 JUMP JUMPDEST DUP5 ADD SWAP2 POP POP SWAP3 SWAP2 POP POP JUMP JUMPDEST PUSH2 0x860 DUP2 PUSH2 0x598 JUMP JUMPDEST DUP3 MSTORE POP POP JUMP JUMPDEST PUSH1 0x0 PUSH1 0xE0 DUP3 ADD SWAP1 POP DUP2 DUP2 SUB PUSH1 0x0 DUP4 ADD MSTORE PUSH2 0x880 DUP2 DUP11 PUSH2 0x81E JUMP JUMPDEST SWAP1 POP DUP2 DUP2 SUB PUSH1 0x20 DUP4 ADD MSTORE PUSH2 0x894 DUP2 DUP10 PUSH2 0x81E JUMP JUMPDEST SWAP1 POP PUSH2 0x8A3 PUSH1 0x40 DUP4 ADD DUP9 PUSH2 0x857 JUMP JUMPDEST PUSH2 0x8B0 PUSH1 0x60 DUP4 ADD DUP8 PUSH2 0x857 JUMP JUMPDEST PUSH2 0x8BD PUSH1 0x80 DUP4 ADD DUP7 PUSH2 0x857 JUMP JUMPDEST PUSH2 0x8CA PUSH1 0xA0 DUP4 ADD DUP6 PUSH2 0x857 JUMP JUMPDEST PUSH2 0x8D7 PUSH1 0xC0 DUP4 ADD DUP5 PUSH2 0x857 JUMP JUMPDEST SWAP9 SWAP8 POP POP POP POP POP POP POP POP JUMP JUMPDEST PUSH1 0x0 PUSH20 0xFFFFFFFFFFFFFFFFFFFFFFFFFFFFFFFFFFFFFFFF DUP3 AND SWAP1 POP SWAP2 SWAP1 POP JUMP JUMPDEST PUSH1 0x0 PUSH2 0x90E DUP3 PUSH2 0x8E3 JUMP JUMPDEST SWAP1 POP SWAP2 SWAP1 POP JUMP JUMPDEST PUSH2 0x91E DUP2 PUSH2 0x903 JUMP JUMPDEST DUP3 MSTORE POP POP JUMP JUMPDEST PUSH1 0x0 PUSH1 0x20 DUP3 ADD SWAP1 POP PUSH2 0x939 PUSH1 0x0 DUP4 ADD DUP5 PUSH2 0x915 JUMP JUMPDEST SWAP3 SWAP2 POP POP JUMP JUMPDEST PUSH1 0x0 DUP1 PUSH1 0x0 DUP1 PUSH1 0x0 DUP1 PUSH1 0x0 PUSH1 0xE0 DUP9 DUP11 SUB SLT ISZERO PUSH2 0x95E JUMPI PUSH2 0x95D PUSH2 0x58E JUMP JUMPDEST JUMPDEST PUSH1 0x0 PUSH2 0x96C DUP11 DUP3 DUP12 ADD PUSH2 0x5B9 JUMP JUMPDEST SWAP8 POP POP PUSH1 0x20 DUP9 ADD CALLDATALOAD PUSH8 0xFFFFFFFFFFFFFFFF DUP2 GT ISZERO PUSH2 0x98D JUMPI PUSH2 0x98C PUSH2 0x593 JUMP JUMPDEST JUMPDEST PUSH2 0x999 DUP11 DUP3 DUP12 ADD PUSH2 0x6E6 JUMP JUMPDEST SWAP7 POP POP PUSH1 0x40 DUP9 ADD CALLDATALOAD PUSH8 0xFFFFFFFFFFFFFFFF DUP2 GT ISZERO PUSH2 0x9BA JUMPI PUSH2 0x9B9 PUSH2 0x593 JUMP JUMPDEST JUMPDEST PUSH2 0x9C6 DUP11 DUP3 DUP12 ADD PUSH2 0x6E6 JUMP JUMPDEST SWAP6 POP POP PUSH1 0x60 PUSH2 0x9D7 DUP11 DUP3 DUP12 ADD PUSH2 0x5B9 JUMP JUMPDEST SWAP5 POP POP PUSH1 0x80 PUSH2 0x9E8 DUP11 DUP3 DUP12 ADD PUSH2 0x5B9 JUMP JUMPDEST SWAP4 POP POP PUSH1 0xA0 PUSH2 0x9F9 DUP11 DUP3 DUP12 ADD PUSH2 0x5B9 JUMP JUMPDEST SWAP3 POP POP PUSH1 0xC0 PUSH2 0xA0A DUP11 DUP3 DUP12 ADD PUSH2 0x5B9 JUMP JUMPDEST SWAP2 POP POP SWAP3 SWAP6 SWAP9 SWAP2 SWAP5 SWAP8 POP SWAP3 SWAP6 POP JUMP JUMPDEST PUSH32 0x4F6E6C79206F776E65722068617320746F207570646174650000000000000000 PUSH1 0x0 DUP3 ADD MSTORE POP JUMP JUMPDEST PUSH1 0x0 PUSH2 0xA4F PUSH1 0x18 DUP4 PUSH2 0x7E3 JUMP JUMPDEST SWAP2 POP PUSH2 0xA5A DUP3 PUSH2 0xA19 JUMP JUMPDEST PUSH1 0x20 DUP3 ADD SWAP1 POP SWAP2 SWAP1 POP JUMP JUMPDEST PUSH1 0x0 PUSH1 0x20 DUP3 ADD SWAP1 POP DUP2 DUP2 SUB PUSH1 0x0 DUP4 ADD MSTORE PUSH2 0xA7E DUP2 PUSH2 0xA42 JUMP JUMPDEST SWAP1 POP SWAP2 SWAP1 POP JUMP JUMPDEST PUSH32 0x4E487B7100000000000000000000000000000000000000000000000000000000 PUSH1 0x0 MSTORE PUSH1 0x22 PUSH1 0x4 MSTORE PUSH1 0x24 PUSH1 0x0 REVERT JUMPDEST PUSH1 0x0 PUSH1 0x2 DUP3 DIV SWAP1 POP PUSH1 0x1 DUP3 AND DUP1 PUSH2 0xACC JUMPI PUSH1 0x7F DUP3 AND SWAP2 POP JUMPDEST PUSH1 0x20 DUP3 LT DUP2 SUB PUSH2 0xADF JUMPI PUSH2 0xADE PUSH2 0xA85 JUMP JUMPDEST JUMPDEST POP SWAP2 SWAP1 POP JUMP JUMPDEST PUSH1 0x0 DUP2 SWAP1 POP DUP2 PUSH1 0x0 MSTORE PUSH1 0x20 PUSH1 0x0 KECCAK256 SWAP1 POP SWAP2 SWAP1 POP JUMP JUMPDEST PUSH1 0x0 PUSH1 0x20 PUSH1 0x1F DUP4 ADD DIV SWAP1 POP SWAP2 SWAP1 POP JUMP JUMPDEST PUSH1 0x0 DUP3 DUP3 SHL SWAP1 POP SWAP3 SWAP2 POP POP JUMP JUMPDEST PUSH1 0x0 PUSH1 0x8 DUP4 MUL PUSH2 0xB47 PUSH32 0xFFFFFFFFFFFFFFFFFFFFFFFFFFFFFFFFFFFFFFFFFFFFFFFFFFFFFFFFFFFFFFFF DUP3 PUSH2 0xB0A JUMP JUMPDEST PUSH2 0xB51 DUP7 DUP4 PUSH2 0xB0A JUMP JUMPDEST SWAP6 POP DUP1 NOT DUP5 AND SWAP4 POP DUP1 DUP7 AND DUP5 OR SWAP3 POP POP POP SWAP4 SWAP3 POP POP POP JUMP JUMPDEST PUSH1 0x0 DUP2 SWAP1 POP SWAP2 SWAP1 POP JUMP JUMPDEST PUSH1 0x0 PUSH2 0xB8E PUSH2 0xB89 PUSH2 0xB84 DUP5 PUSH2 0x598 JUMP JUMPDEST PUSH2 0xB69 JUMP JUMPDEST PUSH2 0x598 JUMP JUMPDEST SWAP1 POP SWAP2 SWAP1 POP JUMP JUMPDEST PUSH1 0x0 DUP2 SWAP1 POP SWAP2 SWAP1 POP JUMP JUMPDEST PUSH2 0xBA8 DUP4 PUSH2 0xB73 JUMP JUMPDEST PUSH2 0xBBC PUSH2 0xBB4 DUP3 PUSH2 0xB95 JUMP JUMPDEST DUP5 DUP5 SLOAD PUSH2 0xB17 JUMP JUMPDEST DUP3 SSTORE POP POP POP POP JUMP JUMPDEST PUSH1 0x0 SWAP1 JUMP JUMPDEST PUSH2 0xBD1 PUSH2 0xBC4 JUMP JUMPDEST PUSH2 0xBDC DUP2 DUP5 DUP5 PUSH2 0xB9F JUMP JUMPDEST POP POP POP JUMP JUMPDEST JUMPDEST DUP2 DUP2 LT ISZERO PUSH2 0xC00 JUMPI PUSH2 0xBF5 PUSH1 0x0 DUP3 PUSH2 0xBC9 JUMP JUMPDEST PUSH1 0x1 DUP2 ADD SWAP1 POP PUSH2 0xBE2 JUMP JUMPDEST POP POP JUMP JUMPDEST PUSH1 0x1F DUP3 GT ISZERO PUSH2 0xC45 JUMPI PUSH2 0xC16 DUP2 PUSH2 0xAE5 JUMP JUMPDEST PUSH2 0xC1F DUP5 PUSH2 0xAFA JUMP JUMPDEST DUP2 ADD PUSH1 0x20 DUP6 LT ISZERO PUSH2 0xC2E JUMPI DUP2 SWAP1 POP JUMPDEST PUSH2 0xC42 PUSH2 0xC3A DUP6 PUSH2 0xAFA JUMP JUMPDEST DUP4 ADD DUP3 PUSH2 0xBE1 JUMP JUMPDEST POP POP JUMPDEST POP POP POP JUMP JUMPDEST PUSH1 0x0 DUP3 DUP3 SHR SWAP1 POP SWAP3 SWAP2 POP POP JUMP JUMPDEST PUSH1 0x0 PUSH2 0xC68 PUSH1 0x0 NOT DUP5 PUSH1 0x8 MUL PUSH2 0xC4A JUMP JUMPDEST NOT DUP1 DUP4 AND SWAP2 POP POP SWAP3 SWAP2 POP POP JUMP JUMPDEST PUSH1 0x0 PUSH2 0xC81 DUP4 DUP4 PUSH2 0xC57 JUMP JUMPDEST SWAP2 POP DUP3 PUSH1 0x2 MUL DUP3 OR SWAP1 POP SWAP3 SWAP2 POP POP JUMP JUMPDEST PUSH2 0xC9A DUP3 PUSH2 0x7D8 JUMP JUMPDEST PUSH8 0xFFFFFFFFFFFFFFFF DUP2 GT ISZERO PUSH2 0xCB3 JUMPI PUSH2 0xCB2 PUSH2 0x5E9 JUMP JUMPDEST JUMPDEST PUSH2 0xCBD DUP3 SLOAD PUSH2 0xAB4 JUMP JUMPDEST PUSH2 0xCC8 DUP3 DUP3 DUP6 PUSH2 0xC04 JUMP JUMPDEST PUSH1 0x0 PUSH1 0x20 SWAP1 POP PUSH1 0x1F DUP4 GT PUSH1 0x1 DUP2 EQ PUSH2 0xCFB JUMPI PUSH1 0x0 DUP5 ISZERO PUSH2 0xCE9 JUMPI DUP3 DUP8 ADD MLOAD SWAP1 POP JUMPDEST PUSH2 0xCF3 DUP6 DUP3 PUSH2 0xC75 JUMP JUMPDEST DUP7 SSTORE POP PUSH2 0xD5B JUMP JUMPDEST PUSH1 0x1F NOT DUP5 AND PUSH2 0xD09 DUP7 PUSH2 0xAE5 JUMP JUMPDEST PUSH1 0x0 JUMPDEST DUP3 DUP2 LT ISZERO PUSH2 0xD31 JUMPI DUP5 DUP10 ADD MLOAD DUP3 SSTORE PUSH1 0x1 DUP3 ADD SWAP2 POP PUSH1 0x20 DUP6 ADD SWAP5 POP PUSH1 0x20 DUP2 ADD SWAP1 POP PUSH2 0xD0C JUMP JUMPDEST DUP7 DUP4 LT ISZERO PUSH2 0xD4E JUMPI DUP5 DUP10 ADD MLOAD PUSH2 0xD4A PUSH1 0x1F DUP10 AND DUP3 PUSH2 0xC57 JUMP JUMPDEST DUP4 SSTORE POP JUMPDEST PUSH1 0x1 PUSH1 0x2 DUP9 MUL ADD DUP9 SSTORE POP POP POP JUMPDEST POP POP POP POP POP POP JUMP JUMPDEST PUSH32 0x4E487B7100000000000000000000000000000000000000000000000000000000 PUSH1 0x0 MSTORE PUSH1 0x11 PUSH1 0x4 MSTORE PUSH1 0x24 PUSH1 0x0 REVERT JUMPDEST PUSH1 0x0 PUSH2 0xD9D DUP3 PUSH2 0x598 JUMP JUMPDEST SWAP2 POP PUSH2 0xDA8 DUP4 PUSH2 0x598 JUMP JUMPDEST SWAP3 POP DUP3 DUP3 ADD SWAP1 POP DUP1 DUP3 GT ISZERO PUSH2 0xDC0 JUMPI PUSH2 0xDBF PUSH2 0xD63 JUMP JUMPDEST JUMPDEST SWAP3 SWAP2 POP POP JUMP JUMPDEST PUSH32 0x4F776E6572204E616D652073686F756C64206E6F7420626520656D7074790000 PUSH1 0x0 DUP3 ADD MSTORE POP JUMP JUMPDEST PUSH1 0x0 PUSH2 0xDFC PUSH1 0x1E DUP4 PUSH2 0x7E3 JUMP JUMPDEST SWAP2 POP PUSH2 0xE07 DUP3 PUSH2 0xDC6 JUMP JUMPDEST PUSH1 0x20 DUP3 ADD SWAP1 POP SWAP2 SWAP1 POP JUMP JUMPDEST PUSH1 0x0 PUSH1 0x20 DUP3 ADD SWAP1 POP DUP2 DUP2 SUB PUSH1 0x0 DUP4 ADD MSTORE PUSH2 0xE2B DUP2 PUSH2 0xDEF JUMP JUMPDEST SWAP1 POP SWAP2 SWAP1 POP JUMP JUMPDEST PUSH32 0x41726561206E65656420746F2062652073706563696669656400000000000000 PUSH1 0x0 DUP3 ADD MSTORE POP JUMP JUMPDEST PUSH1 0x0 PUSH2 0xE68 PUSH1 0x19 DUP4 PUSH2 0x7E3 JUMP JUMPDEST SWAP2 POP PUSH2 0xE73 DUP3 PUSH2 0xE32 JUMP JUMPDEST PUSH1 0x20 DUP3 ADD SWAP1 POP SWAP2 SWAP1 POP JUMP JUMPDEST PUSH1 0x0 PUSH1 0x20 DUP3 ADD SWAP1 POP DUP2 DUP2 SUB PUSH1 0x0 DUP4 ADD MSTORE PUSH2 0xE97 DUP2 PUSH2 0xE5B JUMP JUMPDEST SWAP1 POP SWAP2 SWAP1 POP JUMP JUMPDEST PUSH32 0x4944206973207265717569726564000000000000000000000000000000000000 PUSH1 0x0 DUP3 ADD MSTORE POP JUMP JUMPDEST PUSH1 0x0 PUSH2 0xED4 PUSH1 0xE DUP4 PUSH2 0x7E3 JUMP JUMPDEST SWAP2 POP PUSH2 0xEDF DUP3 PUSH2 0xE9E JUMP JUMPDEST PUSH1 0x20 DUP3 ADD SWAP1 POP SWAP2 SWAP1 POP JUMP JUMPDEST PUSH1 0x0 PUSH1 0x20 DUP3 ADD SWAP1 POP DUP2 DUP2 SUB PUSH1 0x0 DUP4 ADD MSTORE PUSH2 0xF03 DUP2 PUSH2 0xEC7 JUMP JUMPDEST SWAP1 POP SWAP2 SWAP1 POP JUMP INVALID LOG2 PUSH5 0x6970667358 0x22 SLT KECCAK256 PUSH10 0xC17B8B5008B62D5EF0DF MOD PUSH3 0xA4F45F 0xCC ADD 0x26 0xB9 REVERT LOG1 0x28 LOG0 0xE9 DUP12 RETURNDATACOPY 0x28 DUP9 0xD4 0xF 0xCC PUSH5 0x736F6C6343 STOP ADDMOD SLT STOP CALLER "
		},
		"gasEstimates": {
			"creation": {
				"codeDepositCost": "780800",
				"executionCost": "25078",
				"totalCost": "805878"
			},
			"external": {
				"land(uint256)": "infinite",
				"owner()": "2533",
				"register(uint256,string,string,uint256,uint256,uint256,uint256)": "infinite",
				"updateLand(uint256,uint256,string,uint256,uint256)": "infinite"
			}
		},
		"methodIdentifiers": {
			"land(uint256)": "861e4656",
			"owner()": "8da5cb5b",
			"register(uint256,string,string,uint256,uint256,uint256,uint256)": "a5da75ce",
			"updateLand(uint256,uint256,string,uint256,uint256)": "010efb71"
		}
	},
	"abi": [
		{
			"inputs": [],
			"stateMutability": "nonpayable",
			"type": "constructor"
		},
		{
			"inputs": [
				{
					"internalType": "uint256",
					"name": "",
					"type": "uint256"
				}
			],
			"name": "land",
			"outputs": [
				{
					"internalType": "string",
					"name": "ownerName",
					"type": "string"
				},
				{
					"internalType": "string",
					"name": "name",
					"type": "string"
				},
				{
					"internalType": "uint256",
					"name": "ownerContact",
					"type": "uint256"
				},
				{
					"internalType": "uint256",
					"name": "ownerAadhar",
					"type": "uint256"
				},
				{
					"internalType": "uint256",
					"name": "area",
					"type": "uint256"
				},
				{
					"internalType": "uint256",
					"name": "price",
					"type": "uint256"
				},
				{
					"internalType": "uint256",
					"name": "balance",
					"type": "uint256"
				}
			],
			"stateMutability": "view",
			"type": "function"
		},
		{
			"inputs": [],
			"name": "owner",
			"outputs": [
				{
					"internalType": "address",
					"name": "",
					"type": "address"
				}
			],
			"stateMutability": "view",
			"type": "function"
		},
		{
			"inputs": [
				{
					"internalType": "uint256",
					"name": "_id",
					"type": "uint256"
				},
				{
					"internalType": "string",
					"name": "_ownerName",
					"type": "string"
				},
				{
					"internalType": "string",
					"name": "_name",
					"type": "string"
				},
				{
					"internalType": "uint256",
					"name": "_ownerContact",
					"type": "uint256"
				},
				{
					"internalType": "uint256",
					"name": "_area",
					"type": "uint256"
				},
				{
					"internalType": "uint256",
					"name": "_ownerAadhar",
					"type": "uint256"
				},
				{
					"internalType": "uint256",
					"name": "_price",
					"type": "uint256"
				}
			],
			"name": "register",
			"outputs": [],
			"stateMutability": "nonpayable",
			"type": "function"
		},
		{
			"inputs": [
				{
					"internalType": "uint256",
					"name": "_price",
					"type": "uint256"
				},
				{
					"internalType": "uint256",
					"name": "_id",
					"type": "uint256"
				},
				{
					"internalType": "string",
					"name": "_newOwner",
					"type": "string"
				},
				{
					"internalType": "uint256",
					"name": "_newAadhar",
					"type": "uint256"
				},
				{
					"internalType": "uint256",
					"name": "_newContact",
					"type": "uint256"
				}
			],
			"name": "updateLand",
			"outputs": [],
			"stateMutability": "nonpayable",
			"type": "function"
		}
	]
}