{
	"data": {
		"bytecode": {
			"linkReferences": {},
			"object": "608060405234801561001057600080fd5b5061194b806100206000396000f3fe6080604052600436106100915760003560e01c8063521b04bd11610059578063521b04bd146101935780635ae59a63146101bc5780638cc4a15f146101f9578063d48068b114610229578063f7a034b61461026657610091565b806312065fe014610096578063200d2ed2146100c157806327e235e3146100ec578063368004ed1461012957806342aa7f741461016a575b600080fd5b3480156100a257600080fd5b506100ab6102a3565b6040516100b89190610c46565b60405180910390f35b3480156100cd57600080fd5b506100d6610342565b6040516100e39190610cd8565b60405180910390f35b3480156100f857600080fd5b50610113600480360381019061010e9190610d65565b610355565b6040516101209190610c46565b60405180910390f35b34801561013557600080fd5b50610150600480360381019061014b9190610dbe565b61036d565b604051610161959493929190610e96565b60405180910390f35b34801561017657600080fd5b50610191600480360381019061018c919061102c565b6104c0565b005b34801561019f57600080fd5b506101ba60048036038101906101b5919061102c565b610573565b005b3480156101c857600080fd5b506101e360048036038101906101de91906110df565b61065f565b6040516101f091906112fe565b60405180910390f35b610213600480360381019061020e9190611320565b6108ac565b6040516102209190610c46565b60405180910390f35b34801561023557600080fd5b50610250600480360381019061024b91906110df565b610a9f565b60405161025d9190611360565b60405180910390f35b34801561027257600080fd5b5061028d60048036038101906102889190611320565b610af9565b60405161029a919061137b565b60405180910390f35b6000611388600260003373ffffffffffffffffffffffffffffffffffffffff1673ffffffffffffffffffffffffffffffffffffffff16815260200190815260200160002060008282546102f691906113cc565b92505081905550600260003373ffffffffffffffffffffffffffffffffffffffff1673ffffffffffffffffffffffffffffffffffffffff16815260200190815260200160002054905090565b600060149054906101000a900460ff1681565b60026020528060005260406000206000915090505481565b60016020528060005260406000206000915090508060000154908060010180546103969061142f565b80601f01602080910402602001604051908101604052809291908181526020018280546103c29061142f565b801561040f5780601f106103e45761010080835404028352916020019161040f565b820191906000526020600020905b8154815290600101906020018083116103f257829003601f168201915b5050505050908060020180546104249061142f565b80601f01602080910402602001604051908101604052809291908181526020018280546104509061142f565b801561049d5780601f106104725761010080835404028352916020019161049d565b820191906000526020600020905b81548152906001019060200180831161048057829003601f168201915b5050505050908060030154908060040160009054906101000a900460ff16905085565b836001600087815260200190815260200160002060000181905550826001600087815260200190815260200160002060010190816104fe919061160c565b5081600160008781526020019081526020016000206002019081610522919061160c565b50806001600087815260200190815260200160002060030181905550600180600087815260200190815260200160002060040160006101000a81548160ff0219169083151502179055505050505050565b60036040518060a001604052808681526020018581526020018481526020018381526020016001151581525090806001815401808255809150506001900390600052602060002090600502016000909190919091506000820151816000015560208201518160010190816105e7919061160c565b5060408201518160020190816105fd919061160c565b506060820151816003015560808201518160040160006101000a81548160ff0219169083151502179055505050600180600087815260200190815260200160002060040160006101000a81548160ff0219169083151502179055505050505050565b6060600060038054905067ffffffffffffffff81111561068257610681610f01565b5b6040519080825280602002602001820160405280156106bb57816020015b6106a8610bfc565b8152602001906001900390816106a05790505b509050600080600090505b6003805490508110156108a0576106dd8686610a9f565b1561088d57600381815481106106f6576106f56116de565b5b90600052602060002090600502016040518060a0016040529081600082015481526020016001820180546107299061142f565b80601f01602080910402602001604051908101604052809291908181526020018280546107559061142f565b80156107a25780601f10610777576101008083540402835291602001916107a2565b820191906000526020600020905b81548152906001019060200180831161078557829003601f168201915b505050505081526020016002820180546107bb9061142f565b80601f01602080910402602001604051908101604052809291908181526020018280546107e79061142f565b80156108345780601f1061080957610100808354040283529160200191610834565b820191906000526020600020905b81548152906001019060200180831161081757829003601f168201915b50505050508152602001600382015481526020016004820160009054906101000a900460ff16151515158152505083838061086e9061170d565b945081518110610881576108806116de565b5b60200260200101819052505b80806108989061170d565b9150506106c6565b50819250505092915050565b6000600115156001600085815260200190815260200160002060040160009054906101000a900460ff16151514610918576040517f08c379a000000000000000000000000000000000000000000000000000000000815260040161090f906117a1565b60405180910390fd5b6001600084815260200190815260200160002060030154600260008473ffffffffffffffffffffffffffffffffffffffff1673ffffffffffffffffffffffffffffffffffffffff16815260200190815260200160002054116109af576040517f08c379a00000000000000000000000000000000000000000000000000000000081526004016109a69061180d565b60405180910390fd5b6001600084815260200190815260200160002060000160008154809291906109d69061182d565b91905055506001600084815260200190815260200160002060030154600260003373ffffffffffffffffffffffffffffffffffffffff1673ffffffffffffffffffffffffffffffffffffffff1681526020019081526020016000206000828254610a409190611856565b925050819055507f13606b222bd5dafb207fc017447c6b980172b57bfd967f7950a4b5169eee7ca58333604051610a78929190611899565b60405180910390a16001600084815260200190815260200160002060000154905092915050565b600081604051602001610ab291906118fe565b6040516020818303038152906040528051906020012083604051602001610ad991906118fe565b604051602081830303815290604052805190602001201415905092915050565b6060600160008481526020019081526020016000206000016000815480929190610b229061170d565b91905055506001600084815260200190815260200160002060030154600260008473ffffffffffffffffffffffffffffffffffffffff1673ffffffffffffffffffffffffffffffffffffffff1681526020019081526020016000206000828254610b8c91906113cc565b925050819055506002600060146101000a81548160ff02191690836002811115610bb957610bb8610c61565b5b02179055506040518060400160405280601d81526020017f5469636b65742043616e63656c6c6564205375636365737366756c6c79000000815250905092915050565b6040518060a00160405280600081526020016060815260200160608152602001600081526020016000151581525090565b6000819050919050565b610c4081610c2d565b82525050565b6000602082019050610c5b6000830184610c37565b92915050565b7f4e487b7100000000000000000000000000000000000000000000000000000000600052602160045260246000fd5b60038110610ca157610ca0610c61565b5b50565b6000819050610cb282610c90565b919050565b6000610cc282610ca4565b9050919050565b610cd281610cb7565b82525050565b6000602082019050610ced6000830184610cc9565b92915050565b6000604051905090565b600080fd5b600080fd5b600073ffffffffffffffffffffffffffffffffffffffff82169050919050565b6000610d3282610d07565b9050919050565b610d4281610d27565b8114610d4d57600080fd5b50565b600081359050610d5f81610d39565b92915050565b600060208284031215610d7b57610d7a610cfd565b5b6000610d8984828501610d50565b91505092915050565b610d9b81610c2d565b8114610da657600080fd5b50565b600081359050610db881610d92565b92915050565b600060208284031215610dd457610dd3610cfd565b5b6000610de284828501610da9565b91505092915050565b600081519050919050565b600082825260208201905092915050565b60005b83811015610e25578082015181840152602081019050610e0a565b60008484015250505050565b6000601f19601f8301169050919050565b6000610e4d82610deb565b610e578185610df6565b9350610e67818560208601610e07565b610e7081610e31565b840191505092915050565b60008115159050919050565b610e9081610e7b565b82525050565b600060a082019050610eab6000830188610c37565b8181036020830152610ebd8187610e42565b90508181036040830152610ed18186610e42565b9050610ee06060830185610c37565b610eed6080830184610e87565b9695505050505050565b600080fd5b600080fd5b7f4e487b7100000000000000000000000000000000000000000000000000000000600052604160045260246000fd5b610f3982610e31565b810181811067ffffffffffffffff82111715610f5857610f57610f01565b5b80604052505050565b6000610f6b610cf3565b9050610f778282610f30565b919050565b600067ffffffffffffffff821115610f9757610f96610f01565b5b610fa082610e31565b9050602081019050919050565b82818337600083830152505050565b6000610fcf610fca84610f7c565b610f61565b905082815260208101848484011115610feb57610fea610efc565b5b610ff6848285610fad565b509392505050565b600082601f83011261101357611012610ef7565b5b8135611023848260208601610fbc565b91505092915050565b600080600080600060a0868803121561104857611047610cfd565b5b600061105688828901610da9565b955050602061106788828901610da9565b945050604086013567ffffffffffffffff81111561108857611087610d02565b5b61109488828901610ffe565b935050606086013567ffffffffffffffff8111156110b5576110b4610d02565b5b6110c188828901610ffe565b92505060806110d288828901610da9565b9150509295509295909350565b600080604083850312156110f6576110f5610cfd565b5b600083013567ffffffffffffffff81111561111457611113610d02565b5b61112085828601610ffe565b925050602083013567ffffffffffffffff81111561114157611140610d02565b5b61114d85828601610ffe565b9150509250929050565b600081519050919050565b600082825260208201905092915050565b6000819050602082019050919050565b61118c81610c2d565b82525050565b600082825260208201905092915050565b60006111ae82610deb565b6111b88185611192565b93506111c8818560208601610e07565b6111d181610e31565b840191505092915050565b6111e581610e7b565b82525050565b600060a0830160008301516112036000860182611183565b506020830151848203602086015261121b82826111a3565b9150506040830151848203604086015261123582826111a3565b915050606083015161124a6060860182611183565b50608083015161125d60808601826111dc565b508091505092915050565b600061127483836111eb565b905092915050565b6000602082019050919050565b600061129482611157565b61129e8185611162565b9350836020820285016112b085611173565b8060005b858110156112ec57848403895281516112cd8582611268565b94506112d88361127c565b925060208a019950506001810190506112b4565b50829750879550505050505092915050565b600060208201905081810360008301526113188184611289565b905092915050565b6000806040838503121561133757611336610cfd565b5b600061134585828601610da9565b925050602061135685828601610d50565b9150509250929050565b60006020820190506113756000830184610e87565b92915050565b600060208201905081810360008301526113958184610e42565b905092915050565b7f4e487b7100000000000000000000000000000000000000000000000000000000600052601160045260246000fd5b60006113d782610c2d565b91506113e283610c2d565b92508282019050808211156113fa576113f961139d565b5b92915050565b7f4e487b7100000000000000000000000000000000000000000000000000000000600052602260045260246000fd5b6000600282049050600182168061144757607f821691505b60208210810361145a57611459611400565b5b50919050565b60008190508160005260206000209050919050565b60006020601f8301049050919050565b600082821b905092915050565b6000600883026114c27fffffffffffffffffffffffffffffffffffffffffffffffffffffffffffffffff82611485565b6114cc8683611485565b95508019841693508086168417925050509392505050565b6000819050919050565b60006115096115046114ff84610c2d565b6114e4565b610c2d565b9050919050565b6000819050919050565b611523836114ee565b61153761152f82611510565b848454611492565b825550505050565b600090565b61154c61153f565b61155781848461151a565b505050565b5b8181101561157b57611570600082611544565b60018101905061155d565b5050565b601f8211156115c05761159181611460565b61159a84611475565b810160208510156115a9578190505b6115bd6115b585611475565b83018261155c565b50505b505050565b600082821c905092915050565b60006115e3600019846008026115c5565b1980831691505092915050565b60006115fc83836115d2565b9150826002028217905092915050565b61161582610deb565b67ffffffffffffffff81111561162e5761162d610f01565b5b611638825461142f565b61164382828561157f565b600060209050601f8311600181146116765760008415611664578287015190505b61166e85826115f0565b8655506116d6565b601f19841661168486611460565b60005b828110156116ac57848901518255600182019150602085019450602081019050611687565b868310156116c957848901516116c5601f8916826115d2565b8355505b6001600288020188555050505b505050505050565b7f4e487b7100000000000000000000000000000000000000000000000000000000600052603260045260246000fd5b600061171882610c2d565b91507fffffffffffffffffffffffffffffffffffffffffffffffffffffffffffffffff820361174a5761174961139d565b5b600182019050919050565b7f547261696e206973206e6f742052756e6e696e67000000000000000000000000600082015250565b600061178b601483610df6565b915061179682611755565b602082019050919050565b600060208201905081810360008301526117ba8161177e565b9050919050565b7f496e73756666696369656e742066756e64730000000000000000000000000000600082015250565b60006117f7601283610df6565b9150611802826117c1565b602082019050919050565b60006020820190508181036000830152611826816117ea565b9050919050565b600061183882610c2d565b91506000820361184b5761184a61139d565b5b600182039050919050565b600061186182610c2d565b915061186c83610c2d565b92508282039050818111156118845761188361139d565b5b92915050565b61189381610d27565b82525050565b60006040820190506118ae6000830185610c37565b6118bb602083018461188a565b9392505050565b600081905092915050565b60006118d882610deb565b6118e281856118c2565b93506118f2818560208601610e07565b80840191505092915050565b600061190a82846118cd565b91508190509291505056fea2646970667358221220fcf7c35419b5b1a409c03107603aab729ae2e2fb4dab9b0f95910de9b426ea4964736f6c63430008120033",
			"opcodes": "PUSH1 0x80 PUSH1 0x40 MSTORE CALLVALUE DUP1 ISZERO PUSH2 0x10 JUMPI PUSH1 0x0 DUP1 REVERT JUMPDEST POP PUSH2 0x194B DUP1 PUSH2 0x20 PUSH1 0x0 CODECOPY PUSH1 0x0 RETURN INVALID PUSH1 0x80 PUSH1 0x40 MSTORE PUSH1 0x4 CALLDATASIZE LT PUSH2 0x91 JUMPI PUSH1 0x0 CALLDATALOAD PUSH1 0xE0 SHR DUP1 PUSH4 0x521B04BD GT PUSH2 0x59 JUMPI DUP1 PUSH4 0x521B04BD EQ PUSH2 0x193 JUMPI DUP1 PUSH4 0x5AE59A63 EQ PUSH2 0x1BC JUMPI DUP1 PUSH4 0x8CC4A15F EQ PUSH2 0x1F9 JUMPI DUP1 PUSH4 0xD48068B1 EQ PUSH2 0x229 JUMPI DUP1 PUSH4 0xF7A034B6 EQ PUSH2 0x266 JUMPI PUSH2 0x91 JUMP JUMPDEST DUP1 PUSH4 0x12065FE0 EQ PUSH2 0x96 JUMPI DUP1 PUSH4 0x200D2ED2 EQ PUSH2 0xC1 JUMPI DUP1 PUSH4 0x27E235E3 EQ PUSH2 0xEC JUMPI DUP1 PUSH4 0x368004ED EQ PUSH2 0x129 JUMPI DUP1 PUSH4 0x42AA7F74 EQ PUSH2 0x16A JUMPI JUMPDEST PUSH1 0x0 DUP1 REVERT JUMPDEST CALLVALUE DUP1 ISZERO PUSH2 0xA2 JUMPI PUSH1 0x0 DUP1 REVERT JUMPDEST POP PUSH2 0xAB PUSH2 0x2A3 JUMP JUMPDEST PUSH1 0x40 MLOAD PUSH2 0xB8 SWAP2 SWAP1 PUSH2 0xC46 JUMP JUMPDEST PUSH1 0x40 MLOAD DUP1 SWAP2 SUB SWAP1 RETURN JUMPDEST CALLVALUE DUP1 ISZERO PUSH2 0xCD JUMPI PUSH1 0x0 DUP1 REVERT JUMPDEST POP PUSH2 0xD6 PUSH2 0x342 JUMP JUMPDEST PUSH1 0x40 MLOAD PUSH2 0xE3 SWAP2 SWAP1 PUSH2 0xCD8 JUMP JUMPDEST PUSH1 0x40 MLOAD DUP1 SWAP2 SUB SWAP1 RETURN JUMPDEST CALLVALUE DUP1 ISZERO PUSH2 0xF8 JUMPI PUSH1 0x0 DUP1 REVERT JUMPDEST POP PUSH2 0x113 PUSH1 0x4 DUP1 CALLDATASIZE SUB DUP2 ADD SWAP1 PUSH2 0x10E SWAP2 SWAP1 PUSH2 0xD65 JUMP JUMPDEST PUSH2 0x355 JUMP JUMPDEST PUSH1 0x40 MLOAD PUSH2 0x120 SWAP2 SWAP1 PUSH2 0xC46 JUMP JUMPDEST PUSH1 0x40 MLOAD DUP1 SWAP2 SUB SWAP1 RETURN JUMPDEST CALLVALUE DUP1 ISZERO PUSH2 0x135 JUMPI PUSH1 0x0 DUP1 REVERT JUMPDEST POP PUSH2 0x150 PUSH1 0x4 DUP1 CALLDATASIZE SUB DUP2 ADD SWAP1 PUSH2 0x14B SWAP2 SWAP1 PUSH2 0xDBE JUMP JUMPDEST PUSH2 0x36D JUMP JUMPDEST PUSH1 0x40 MLOAD PUSH2 0x161 SWAP6 SWAP5 SWAP4 SWAP3 SWAP2 SWAP1 PUSH2 0xE96 JUMP JUMPDEST PUSH1 0x40 MLOAD DUP1 SWAP2 SUB SWAP1 RETURN JUMPDEST CALLVALUE DUP1 ISZERO PUSH2 0x176 JUMPI PUSH1 0x0 DUP1 REVERT JUMPDEST POP PUSH2 0x191 PUSH1 0x4 DUP1 CALLDATASIZE SUB DUP2 ADD SWAP1 PUSH2 0x18C SWAP2 SWAP1 PUSH2 0x102C JUMP JUMPDEST PUSH2 0x4C0 JUMP JUMPDEST STOP JUMPDEST CALLVALUE DUP1 ISZERO PUSH2 0x19F JUMPI PUSH1 0x0 DUP1 REVERT JUMPDEST POP PUSH2 0x1BA PUSH1 0x4 DUP1 CALLDATASIZE SUB DUP2 ADD SWAP1 PUSH2 0x1B5 SWAP2 SWAP1 PUSH2 0x102C JUMP JUMPDEST PUSH2 0x573 JUMP JUMPDEST STOP JUMPDEST CALLVALUE DUP1 ISZERO PUSH2 0x1C8 JUMPI PUSH1 0x0 DUP1 REVERT JUMPDEST POP PUSH2 0x1E3 PUSH1 0x4 DUP1 CALLDATASIZE SUB DUP2 ADD SWAP1 PUSH2 0x1DE SWAP2 SWAP1 PUSH2 0x10DF JUMP JUMPDEST PUSH2 0x65F JUMP JUMPDEST PUSH1 0x40 MLOAD PUSH2 0x1F0 SWAP2 SWAP1 PUSH2 0x12FE JUMP JUMPDEST PUSH1 0x40 MLOAD DUP1 SWAP2 SUB SWAP1 RETURN JUMPDEST PUSH2 0x213 PUSH1 0x4 DUP1 CALLDATASIZE SUB DUP2 ADD SWAP1 PUSH2 0x20E SWAP2 SWAP1 PUSH2 0x1320 JUMP JUMPDEST PUSH2 0x8AC JUMP JUMPDEST PUSH1 0x40 MLOAD PUSH2 0x220 SWAP2 SWAP1 PUSH2 0xC46 JUMP JUMPDEST PUSH1 0x40 MLOAD DUP1 SWAP2 SUB SWAP1 RETURN JUMPDEST CALLVALUE DUP1 ISZERO PUSH2 0x235 JUMPI PUSH1 0x0 DUP1 REVERT JUMPDEST POP PUSH2 0x250 PUSH1 0x4 DUP1 CALLDATASIZE SUB DUP2 ADD SWAP1 PUSH2 0x24B SWAP2 SWAP1 PUSH2 0x10DF JUMP JUMPDEST PUSH2 0xA9F JUMP JUMPDEST PUSH1 0x40 MLOAD PUSH2 0x25D SWAP2 SWAP1 PUSH2 0x1360 JUMP JUMPDEST PUSH1 0x40 MLOAD DUP1 SWAP2 SUB SWAP1 RETURN JUMPDEST CALLVALUE DUP1 ISZERO PUSH2 0x272 JUMPI PUSH1 0x0 DUP1 REVERT JUMPDEST POP PUSH2 0x28D PUSH1 0x4 DUP1 CALLDATASIZE SUB DUP2 ADD SWAP1 PUSH2 0x288 SWAP2 SWAP1 PUSH2 0x1320 JUMP JUMPDEST PUSH2 0xAF9 JUMP JUMPDEST PUSH1 0x40 MLOAD PUSH2 0x29A SWAP2 SWAP1 PUSH2 0x137B JUMP JUMPDEST PUSH1 0x40 MLOAD DUP1 SWAP2 SUB SWAP1 RETURN JUMPDEST PUSH1 0x0 PUSH2 0x1388 PUSH1 0x2 PUSH1 0x0 CALLER PUSH20 0xFFFFFFFFFFFFFFFFFFFFFFFFFFFFFFFFFFFFFFFF AND PUSH20 0xFFFFFFFFFFFFFFFFFFFFFFFFFFFFFFFFFFFFFFFF AND DUP2 MSTORE PUSH1 0x20 ADD SWAP1 DUP2 MSTORE PUSH1 0x20 ADD PUSH1 0x0 KECCAK256 PUSH1 0x0 DUP3 DUP3 SLOAD PUSH2 0x2F6 SWAP2 SWAP1 PUSH2 0x13CC JUMP JUMPDEST SWAP3 POP POP DUP2 SWAP1 SSTORE POP PUSH1 0x2 PUSH1 0x0 CALLER PUSH20 0xFFFFFFFFFFFFFFFFFFFFFFFFFFFFFFFFFFFFFFFF AND PUSH20 0xFFFFFFFFFFFFFFFFFFFFFFFFFFFFFFFFFFFFFFFF AND DUP2 MSTORE PUSH1 0x20 ADD SWAP1 DUP2 MSTORE PUSH1 0x20 ADD PUSH1 0x0 KECCAK256 SLOAD SWAP1 POP SWAP1 JUMP JUMPDEST PUSH1 0x0 PUSH1 0x14 SWAP1 SLOAD SWAP1 PUSH2 0x100 EXP SWAP1 DIV PUSH1 0xFF AND DUP2 JUMP JUMPDEST PUSH1 0x2 PUSH1 0x20 MSTORE DUP1 PUSH1 0x0 MSTORE PUSH1 0x40 PUSH1 0x0 KECCAK256 PUSH1 0x0 SWAP2 POP SWAP1 POP SLOAD DUP2 JUMP JUMPDEST PUSH1 0x1 PUSH1 0x20 MSTORE DUP1 PUSH1 0x0 MSTORE PUSH1 0x40 PUSH1 0x0 KECCAK256 PUSH1 0x0 SWAP2 POP SWAP1 POP DUP1 PUSH1 0x0 ADD SLOAD SWAP1 DUP1 PUSH1 0x1 ADD DUP1 SLOAD PUSH2 0x396 SWAP1 PUSH2 0x142F JUMP JUMPDEST DUP1 PUSH1 0x1F ADD PUSH1 0x20 DUP1 SWAP2 DIV MUL PUSH1 0x20 ADD PUSH1 0x40 MLOAD SWAP1 DUP2 ADD PUSH1 0x40 MSTORE DUP1 SWAP3 SWAP2 SWAP1 DUP2 DUP2 MSTORE PUSH1 0x20 ADD DUP3 DUP1 SLOAD PUSH2 0x3C2 SWAP1 PUSH2 0x142F JUMP JUMPDEST DUP1 ISZERO PUSH2 0x40F JUMPI DUP1 PUSH1 0x1F LT PUSH2 0x3E4 JUMPI PUSH2 0x100 DUP1 DUP4 SLOAD DIV MUL DUP4 MSTORE SWAP2 PUSH1 0x20 ADD SWAP2 PUSH2 0x40F JUMP JUMPDEST DUP3 ADD SWAP2 SWAP1 PUSH1 0x0 MSTORE PUSH1 0x20 PUSH1 0x0 KECCAK256 SWAP1 JUMPDEST DUP2 SLOAD DUP2 MSTORE SWAP1 PUSH1 0x1 ADD SWAP1 PUSH1 0x20 ADD DUP1 DUP4 GT PUSH2 0x3F2 JUMPI DUP3 SWAP1 SUB PUSH1 0x1F AND DUP3 ADD SWAP2 JUMPDEST POP POP POP POP POP SWAP1 DUP1 PUSH1 0x2 ADD DUP1 SLOAD PUSH2 0x424 SWAP1 PUSH2 0x142F JUMP JUMPDEST DUP1 PUSH1 0x1F ADD PUSH1 0x20 DUP1 SWAP2 DIV MUL PUSH1 0x20 ADD PUSH1 0x40 MLOAD SWAP1 DUP2 ADD PUSH1 0x40 MSTORE DUP1 SWAP3 SWAP2 SWAP1 DUP2 DUP2 MSTORE PUSH1 0x20 ADD DUP3 DUP1 SLOAD PUSH2 0x450 SWAP1 PUSH2 0x142F JUMP JUMPDEST DUP1 ISZERO PUSH2 0x49D JUMPI DUP1 PUSH1 0x1F LT PUSH2 0x472 JUMPI PUSH2 0x100 DUP1 DUP4 SLOAD DIV MUL DUP4 MSTORE SWAP2 PUSH1 0x20 ADD SWAP2 PUSH2 0x49D JUMP JUMPDEST DUP3 ADD SWAP2 SWAP1 PUSH1 0x0 MSTORE PUSH1 0x20 PUSH1 0x0 KECCAK256 SWAP1 JUMPDEST DUP2 SLOAD DUP2 MSTORE SWAP1 PUSH1 0x1 ADD SWAP1 PUSH1 0x20 ADD DUP1 DUP4 GT PUSH2 0x480 JUMPI DUP3 SWAP1 SUB PUSH1 0x1F AND DUP3 ADD SWAP2 JUMPDEST POP POP POP POP POP SWAP1 DUP1 PUSH1 0x3 ADD SLOAD SWAP1 DUP1 PUSH1 0x4 ADD PUSH1 0x0 SWAP1 SLOAD SWAP1 PUSH2 0x100 EXP SWAP1 DIV PUSH1 0xFF AND SWAP1 POP DUP6 JUMP JUMPDEST DUP4 PUSH1 0x1 PUSH1 0x0 DUP8 DUP2 MSTORE PUSH1 0x20 ADD SWAP1 DUP2 MSTORE PUSH1 0x20 ADD PUSH1 0x0 KECCAK256 PUSH1 0x0 ADD DUP2 SWAP1 SSTORE POP DUP3 PUSH1 0x1 PUSH1 0x0 DUP8 DUP2 MSTORE PUSH1 0x20 ADD SWAP1 DUP2 MSTORE PUSH1 0x20 ADD PUSH1 0x0 KECCAK256 PUSH1 0x1 ADD SWAP1 DUP2 PUSH2 0x4FE SWAP2 SWAP1 PUSH2 0x160C JUMP JUMPDEST POP DUP2 PUSH1 0x1 PUSH1 0x0 DUP8 DUP2 MSTORE PUSH1 0x20 ADD SWAP1 DUP2 MSTORE PUSH1 0x20 ADD PUSH1 0x0 KECCAK256 PUSH1 0x2 ADD SWAP1 DUP2 PUSH2 0x522 SWAP2 SWAP1 PUSH2 0x160C JUMP JUMPDEST POP DUP1 PUSH1 0x1 PUSH1 0x0 DUP8 DUP2 MSTORE PUSH1 0x20 ADD SWAP1 DUP2 MSTORE PUSH1 0x20 ADD PUSH1 0x0 KECCAK256 PUSH1 0x3 ADD DUP2 SWAP1 SSTORE POP PUSH1 0x1 DUP1 PUSH1 0x0 DUP8 DUP2 MSTORE PUSH1 0x20 ADD SWAP1 DUP2 MSTORE PUSH1 0x20 ADD PUSH1 0x0 KECCAK256 PUSH1 0x4 ADD PUSH1 0x0 PUSH2 0x100 EXP DUP2 SLOAD DUP2 PUSH1 0xFF MUL NOT AND SWAP1 DUP4 ISZERO ISZERO MUL OR SWAP1 SSTORE POP POP POP POP POP POP JUMP JUMPDEST PUSH1 0x3 PUSH1 0x40 MLOAD DUP1 PUSH1 0xA0 ADD PUSH1 0x40 MSTORE DUP1 DUP7 DUP2 MSTORE PUSH1 0x20 ADD DUP6 DUP2 MSTORE PUSH1 0x20 ADD DUP5 DUP2 MSTORE PUSH1 0x20 ADD DUP4 DUP2 MSTORE PUSH1 0x20 ADD PUSH1 0x1 ISZERO ISZERO DUP2 MSTORE POP SWAP1 DUP1 PUSH1 0x1 DUP2 SLOAD ADD DUP1 DUP3 SSTORE DUP1 SWAP2 POP POP PUSH1 0x1 SWAP1 SUB SWAP1 PUSH1 0x0 MSTORE PUSH1 0x20 PUSH1 0x0 KECCAK256 SWAP1 PUSH1 0x5 MUL ADD PUSH1 0x0 SWAP1 SWAP2 SWAP1 SWAP2 SWAP1 SWAP2 POP PUSH1 0x0 DUP3 ADD MLOAD DUP2 PUSH1 0x0 ADD SSTORE PUSH1 0x20 DUP3 ADD MLOAD DUP2 PUSH1 0x1 ADD SWAP1 DUP2 PUSH2 0x5E7 SWAP2 SWAP1 PUSH2 0x160C JUMP JUMPDEST POP PUSH1 0x40 DUP3 ADD MLOAD DUP2 PUSH1 0x2 ADD SWAP1 DUP2 PUSH2 0x5FD SWAP2 SWAP1 PUSH2 0x160C JUMP JUMPDEST POP PUSH1 0x60 DUP3 ADD MLOAD DUP2 PUSH1 0x3 ADD SSTORE PUSH1 0x80 DUP3 ADD MLOAD DUP2 PUSH1 0x4 ADD PUSH1 0x0 PUSH2 0x100 EXP DUP2 SLOAD DUP2 PUSH1 0xFF MUL NOT AND SWAP1 DUP4 ISZERO ISZERO MUL OR SWAP1 SSTORE POP POP POP PUSH1 0x1 DUP1 PUSH1 0x0 DUP8 DUP2 MSTORE PUSH1 0x20 ADD SWAP1 DUP2 MSTORE PUSH1 0x20 ADD PUSH1 0x0 KECCAK256 PUSH1 0x4 ADD PUSH1 0x0 PUSH2 0x100 EXP DUP2 SLOAD DUP2 PUSH1 0xFF MUL NOT AND SWAP1 DUP4 ISZERO ISZERO MUL OR SWAP1 SSTORE POP POP POP POP POP POP JUMP JUMPDEST PUSH1 0x60 PUSH1 0x0 PUSH1 0x3 DUP1 SLOAD SWAP1 POP PUSH8 0xFFFFFFFFFFFFFFFF DUP2 GT ISZERO PUSH2 0x682 JUMPI PUSH2 0x681 PUSH2 0xF01 JUMP JUMPDEST JUMPDEST PUSH1 0x40 MLOAD SWAP1 DUP1 DUP3 MSTORE DUP1 PUSH1 0x20 MUL PUSH1 0x20 ADD DUP3 ADD PUSH1 0x40 MSTORE DUP1 ISZERO PUSH2 0x6BB JUMPI DUP2 PUSH1 0x20 ADD JUMPDEST PUSH2 0x6A8 PUSH2 0xBFC JUMP JUMPDEST DUP2 MSTORE PUSH1 0x20 ADD SWAP1 PUSH1 0x1 SWAP1 SUB SWAP1 DUP2 PUSH2 0x6A0 JUMPI SWAP1 POP JUMPDEST POP SWAP1 POP PUSH1 0x0 DUP1 PUSH1 0x0 SWAP1 POP JUMPDEST PUSH1 0x3 DUP1 SLOAD SWAP1 POP DUP2 LT ISZERO PUSH2 0x8A0 JUMPI PUSH2 0x6DD DUP7 DUP7 PUSH2 0xA9F JUMP JUMPDEST ISZERO PUSH2 0x88D JUMPI PUSH1 0x3 DUP2 DUP2 SLOAD DUP2 LT PUSH2 0x6F6 JUMPI PUSH2 0x6F5 PUSH2 0x16DE JUMP JUMPDEST JUMPDEST SWAP1 PUSH1 0x0 MSTORE PUSH1 0x20 PUSH1 0x0 KECCAK256 SWAP1 PUSH1 0x5 MUL ADD PUSH1 0x40 MLOAD DUP1 PUSH1 0xA0 ADD PUSH1 0x40 MSTORE SWAP1 DUP2 PUSH1 0x0 DUP3 ADD SLOAD DUP2 MSTORE PUSH1 0x20 ADD PUSH1 0x1 DUP3 ADD DUP1 SLOAD PUSH2 0x729 SWAP1 PUSH2 0x142F JUMP JUMPDEST DUP1 PUSH1 0x1F ADD PUSH1 0x20 DUP1 SWAP2 DIV MUL PUSH1 0x20 ADD PUSH1 0x40 MLOAD SWAP1 DUP2 ADD PUSH1 0x40 MSTORE DUP1 SWAP3 SWAP2 SWAP1 DUP2 DUP2 MSTORE PUSH1 0x20 ADD DUP3 DUP1 SLOAD PUSH2 0x755 SWAP1 PUSH2 0x142F JUMP JUMPDEST DUP1 ISZERO PUSH2 0x7A2 JUMPI DUP1 PUSH1 0x1F LT PUSH2 0x777 JUMPI PUSH2 0x100 DUP1 DUP4 SLOAD DIV MUL DUP4 MSTORE SWAP2 PUSH1 0x20 ADD SWAP2 PUSH2 0x7A2 JUMP JUMPDEST DUP3 ADD SWAP2 SWAP1 PUSH1 0x0 MSTORE PUSH1 0x20 PUSH1 0x0 KECCAK256 SWAP1 JUMPDEST DUP2 SLOAD DUP2 MSTORE SWAP1 PUSH1 0x1 ADD SWAP1 PUSH1 0x20 ADD DUP1 DUP4 GT PUSH2 0x785 JUMPI DUP3 SWAP1 SUB PUSH1 0x1F AND DUP3 ADD SWAP2 JUMPDEST POP POP POP POP POP DUP2 MSTORE PUSH1 0x20 ADD PUSH1 0x2 DUP3 ADD DUP1 SLOAD PUSH2 0x7BB SWAP1 PUSH2 0x142F JUMP JUMPDEST DUP1 PUSH1 0x1F ADD PUSH1 0x20 DUP1 SWAP2 DIV MUL PUSH1 0x20 ADD PUSH1 0x40 MLOAD SWAP1 DUP2 ADD PUSH1 0x40 MSTORE DUP1 SWAP3 SWAP2 SWAP1 DUP2 DUP2 MSTORE PUSH1 0x20 ADD DUP3 DUP1 SLOAD PUSH2 0x7E7 SWAP1 PUSH2 0x142F JUMP JUMPDEST DUP1 ISZERO PUSH2 0x834 JUMPI DUP1 PUSH1 0x1F LT PUSH2 0x809 JUMPI PUSH2 0x100 DUP1 DUP4 SLOAD DIV MUL DUP4 MSTORE SWAP2 PUSH1 0x20 ADD SWAP2 PUSH2 0x834 JUMP JUMPDEST DUP3 ADD SWAP2 SWAP1 PUSH1 0x0 MSTORE PUSH1 0x20 PUSH1 0x0 KECCAK256 SWAP1 JUMPDEST DUP2 SLOAD DUP2 MSTORE SWAP1 PUSH1 0x1 ADD SWAP1 PUSH1 0x20 ADD DUP1 DUP4 GT PUSH2 0x817 JUMPI DUP3 SWAP1 SUB PUSH1 0x1F AND DUP3 ADD SWAP2 JUMPDEST POP POP POP POP POP DUP2 MSTORE PUSH1 0x20 ADD PUSH1 0x3 DUP3 ADD SLOAD DUP2 MSTORE PUSH1 0x20 ADD PUSH1 0x4 DUP3 ADD PUSH1 0x0 SWAP1 SLOAD SWAP1 PUSH2 0x100 EXP SWAP1 DIV PUSH1 0xFF AND ISZERO ISZERO ISZERO ISZERO DUP2 MSTORE POP POP DUP4 DUP4 DUP1 PUSH2 0x86E SWAP1 PUSH2 0x170D JUMP JUMPDEST SWAP5 POP DUP2 MLOAD DUP2 LT PUSH2 0x881 JUMPI PUSH2 0x880 PUSH2 0x16DE JUMP JUMPDEST JUMPDEST PUSH1 0x20 MUL PUSH1 0x20 ADD ADD DUP2 SWAP1 MSTORE POP JUMPDEST DUP1 DUP1 PUSH2 0x898 SWAP1 PUSH2 0x170D JUMP JUMPDEST SWAP2 POP POP PUSH2 0x6C6 JUMP JUMPDEST POP DUP2 SWAP3 POP POP POP SWAP3 SWAP2 POP POP JUMP JUMPDEST PUSH1 0x0 PUSH1 0x1 ISZERO ISZERO PUSH1 0x1 PUSH1 0x0 DUP6 DUP2 MSTORE PUSH1 0x20 ADD SWAP1 DUP2 MSTORE PUSH1 0x20 ADD PUSH1 0x0 KECCAK256 PUSH1 0x4 ADD PUSH1 0x0 SWAP1 SLOAD SWAP1 PUSH2 0x100 EXP SWAP1 DIV PUSH1 0xFF AND ISZERO ISZERO EQ PUSH2 0x918 JUMPI PUSH1 0x40 MLOAD PUSH32 0x8C379A000000000000000000000000000000000000000000000000000000000 DUP2 MSTORE PUSH1 0x4 ADD PUSH2 0x90F SWAP1 PUSH2 0x17A1 JUMP JUMPDEST PUSH1 0x40 MLOAD DUP1 SWAP2 SUB SWAP1 REVERT JUMPDEST PUSH1 0x1 PUSH1 0x0 DUP5 DUP2 MSTORE PUSH1 0x20 ADD SWAP1 DUP2 MSTORE PUSH1 0x20 ADD PUSH1 0x0 KECCAK256 PUSH1 0x3 ADD SLOAD PUSH1 0x2 PUSH1 0x0 DUP5 PUSH20 0xFFFFFFFFFFFFFFFFFFFFFFFFFFFFFFFFFFFFFFFF AND PUSH20 0xFFFFFFFFFFFFFFFFFFFFFFFFFFFFFFFFFFFFFFFF AND DUP2 MSTORE PUSH1 0x20 ADD SWAP1 DUP2 MSTORE PUSH1 0x20 ADD PUSH1 0x0 KECCAK256 SLOAD GT PUSH2 0x9AF JUMPI PUSH1 0x40 MLOAD PUSH32 0x8C379A000000000000000000000000000000000000000000000000000000000 DUP2 MSTORE PUSH1 0x4 ADD PUSH2 0x9A6 SWAP1 PUSH2 0x180D JUMP JUMPDEST PUSH1 0x40 MLOAD DUP1 SWAP2 SUB SWAP1 REVERT JUMPDEST PUSH1 0x1 PUSH1 0x0 DUP5 DUP2 MSTORE PUSH1 0x20 ADD SWAP1 DUP2 MSTORE PUSH1 0x20 ADD PUSH1 0x0 KECCAK256 PUSH1 0x0 ADD PUSH1 0x0 DUP2 SLOAD DUP1 SWAP3 SWAP2 SWAP1 PUSH2 0x9D6 SWAP1 PUSH2 0x182D JUMP JUMPDEST SWAP2 SWAP1 POP SSTORE POP PUSH1 0x1 PUSH1 0x0 DUP5 DUP2 MSTORE PUSH1 0x20 ADD SWAP1 DUP2 MSTORE PUSH1 0x20 ADD PUSH1 0x0 KECCAK256 PUSH1 0x3 ADD SLOAD PUSH1 0x2 PUSH1 0x0 CALLER PUSH20 0xFFFFFFFFFFFFFFFFFFFFFFFFFFFFFFFFFFFFFFFF AND PUSH20 0xFFFFFFFFFFFFFFFFFFFFFFFFFFFFFFFFFFFFFFFF AND DUP2 MSTORE PUSH1 0x20 ADD SWAP1 DUP2 MSTORE PUSH1 0x20 ADD PUSH1 0x0 KECCAK256 PUSH1 0x0 DUP3 DUP3 SLOAD PUSH2 0xA40 SWAP2 SWAP1 PUSH2 0x1856 JUMP JUMPDEST SWAP3 POP POP DUP2 SWAP1 SSTORE POP PUSH32 0x13606B222BD5DAFB207FC017447C6B980172B57BFD967F7950A4B5169EEE7CA5 DUP4 CALLER PUSH1 0x40 MLOAD PUSH2 0xA78 SWAP3 SWAP2 SWAP1 PUSH2 0x1899 JUMP JUMPDEST PUSH1 0x40 MLOAD DUP1 SWAP2 SUB SWAP1 LOG1 PUSH1 0x1 PUSH1 0x0 DUP5 DUP2 MSTORE PUSH1 0x20 ADD SWAP1 DUP2 MSTORE PUSH1 0x20 ADD PUSH1 0x0 KECCAK256 PUSH1 0x0 ADD SLOAD SWAP1 POP SWAP3 SWAP2 POP POP JUMP JUMPDEST PUSH1 0x0 DUP2 PUSH1 0x40 MLOAD PUSH1 0x20 ADD PUSH2 0xAB2 SWAP2 SWAP1 PUSH2 0x18FE JUMP JUMPDEST PUSH1 0x40 MLOAD PUSH1 0x20 DUP2 DUP4 SUB SUB DUP2 MSTORE SWAP1 PUSH1 0x40 MSTORE DUP1 MLOAD SWAP1 PUSH1 0x20 ADD KECCAK256 DUP4 PUSH1 0x40 MLOAD PUSH1 0x20 ADD PUSH2 0xAD9 SWAP2 SWAP1 PUSH2 0x18FE JUMP JUMPDEST PUSH1 0x40 MLOAD PUSH1 0x20 DUP2 DUP4 SUB SUB DUP2 MSTORE SWAP1 PUSH1 0x40 MSTORE DUP1 MLOAD SWAP1 PUSH1 0x20 ADD KECCAK256 EQ ISZERO SWAP1 POP SWAP3 SWAP2 POP POP JUMP JUMPDEST PUSH1 0x60 PUSH1 0x1 PUSH1 0x0 DUP5 DUP2 MSTORE PUSH1 0x20 ADD SWAP1 DUP2 MSTORE PUSH1 0x20 ADD PUSH1 0x0 KECCAK256 PUSH1 0x0 ADD PUSH1 0x0 DUP2 SLOAD DUP1 SWAP3 SWAP2 SWAP1 PUSH2 0xB22 SWAP1 PUSH2 0x170D JUMP JUMPDEST SWAP2 SWAP1 POP SSTORE POP PUSH1 0x1 PUSH1 0x0 DUP5 DUP2 MSTORE PUSH1 0x20 ADD SWAP1 DUP2 MSTORE PUSH1 0x20 ADD PUSH1 0x0 KECCAK256 PUSH1 0x3 ADD SLOAD PUSH1 0x2 PUSH1 0x0 DUP5 PUSH20 0xFFFFFFFFFFFFFFFFFFFFFFFFFFFFFFFFFFFFFFFF AND PUSH20 0xFFFFFFFFFFFFFFFFFFFFFFFFFFFFFFFFFFFFFFFF AND DUP2 MSTORE PUSH1 0x20 ADD SWAP1 DUP2 MSTORE PUSH1 0x20 ADD PUSH1 0x0 KECCAK256 PUSH1 0x0 DUP3 DUP3 SLOAD PUSH2 0xB8C SWAP2 SWAP1 PUSH2 0x13CC JUMP JUMPDEST SWAP3 POP POP DUP2 SWAP1 SSTORE POP PUSH1 0x2 PUSH1 0x0 PUSH1 0x14 PUSH2 0x100 EXP DUP2 SLOAD DUP2 PUSH1 0xFF MUL NOT AND SWAP1 DUP4 PUSH1 0x2 DUP2 GT ISZERO PUSH2 0xBB9 JUMPI PUSH2 0xBB8 PUSH2 0xC61 JUMP JUMPDEST JUMPDEST MUL OR SWAP1 SSTORE POP PUSH1 0x40 MLOAD DUP1 PUSH1 0x40 ADD PUSH1 0x40 MSTORE DUP1 PUSH1 0x1D DUP2 MSTORE PUSH1 0x20 ADD PUSH32 0x5469636B65742043616E63656C6C6564205375636365737366756C6C79000000 DUP2 MSTORE POP SWAP1 POP SWAP3 SWAP2 POP POP JUMP JUMPDEST PUSH1 0x40 MLOAD DUP1 PUSH1 0xA0 ADD PUSH1 0x40 MSTORE DUP1 PUSH1 0x0 DUP2 MSTORE PUSH1 0x20 ADD PUSH1 0x60 DUP2 MSTORE PUSH1 0x20 ADD PUSH1 0x60 DUP2 MSTORE PUSH1 0x20 ADD PUSH1 0x0 DUP2 MSTORE PUSH1 0x20 ADD PUSH1 0x0 ISZERO ISZERO DUP2 MSTORE POP SWAP1 JUMP JUMPDEST PUSH1 0x0 DUP2 SWAP1 POP SWAP2 SWAP1 POP JUMP JUMPDEST PUSH2 0xC40 DUP2 PUSH2 0xC2D JUMP JUMPDEST DUP3 MSTORE POP POP JUMP JUMPDEST PUSH1 0x0 PUSH1 0x20 DUP3 ADD SWAP1 POP PUSH2 0xC5B PUSH1 0x0 DUP4 ADD DUP5 PUSH2 0xC37 JUMP JUMPDEST SWAP3 SWAP2 POP POP JUMP JUMPDEST PUSH32 0x4E487B7100000000000000000000000000000000000000000000000000000000 PUSH1 0x0 MSTORE PUSH1 0x21 PUSH1 0x4 MSTORE PUSH1 0x24 PUSH1 0x0 REVERT JUMPDEST PUSH1 0x3 DUP2 LT PUSH2 0xCA1 JUMPI PUSH2 0xCA0 PUSH2 0xC61 JUMP JUMPDEST JUMPDEST POP JUMP JUMPDEST PUSH1 0x0 DUP2 SWAP1 POP PUSH2 0xCB2 DUP3 PUSH2 0xC90 JUMP JUMPDEST SWAP2 SWAP1 POP JUMP JUMPDEST PUSH1 0x0 PUSH2 0xCC2 DUP3 PUSH2 0xCA4 JUMP JUMPDEST SWAP1 POP SWAP2 SWAP1 POP JUMP JUMPDEST PUSH2 0xCD2 DUP2 PUSH2 0xCB7 JUMP JUMPDEST DUP3 MSTORE POP POP JUMP JUMPDEST PUSH1 0x0 PUSH1 0x20 DUP3 ADD SWAP1 POP PUSH2 0xCED PUSH1 0x0 DUP4 ADD DUP5 PUSH2 0xCC9 JUMP JUMPDEST SWAP3 SWAP2 POP POP JUMP JUMPDEST PUSH1 0x0 PUSH1 0x40 MLOAD SWAP1 POP SWAP1 JUMP JUMPDEST PUSH1 0x0 DUP1 REVERT JUMPDEST PUSH1 0x0 DUP1 REVERT JUMPDEST PUSH1 0x0 PUSH20 0xFFFFFFFFFFFFFFFFFFFFFFFFFFFFFFFFFFFFFFFF DUP3 AND SWAP1 POP SWAP2 SWAP1 POP JUMP JUMPDEST PUSH1 0x0 PUSH2 0xD32 DUP3 PUSH2 0xD07 JUMP JUMPDEST SWAP1 POP SWAP2 SWAP1 POP JUMP JUMPDEST PUSH2 0xD42 DUP2 PUSH2 0xD27 JUMP JUMPDEST DUP2 EQ PUSH2 0xD4D JUMPI PUSH1 0x0 DUP1 REVERT JUMPDEST POP JUMP JUMPDEST PUSH1 0x0 DUP2 CALLDATALOAD SWAP1 POP PUSH2 0xD5F DUP2 PUSH2 0xD39 JUMP JUMPDEST SWAP3 SWAP2 POP POP JUMP JUMPDEST PUSH1 0x0 PUSH1 0x20 DUP3 DUP5 SUB SLT ISZERO PUSH2 0xD7B JUMPI PUSH2 0xD7A PUSH2 0xCFD JUMP JUMPDEST JUMPDEST PUSH1 0x0 PUSH2 0xD89 DUP5 DUP3 DUP6 ADD PUSH2 0xD50 JUMP JUMPDEST SWAP2 POP POP SWAP3 SWAP2 POP POP JUMP JUMPDEST PUSH2 0xD9B DUP2 PUSH2 0xC2D JUMP JUMPDEST DUP2 EQ PUSH2 0xDA6 JUMPI PUSH1 0x0 DUP1 REVERT JUMPDEST POP JUMP JUMPDEST PUSH1 0x0 DUP2 CALLDATALOAD SWAP1 POP PUSH2 0xDB8 DUP2 PUSH2 0xD92 JUMP JUMPDEST SWAP3 SWAP2 POP POP JUMP JUMPDEST PUSH1 0x0 PUSH1 0x20 DUP3 DUP5 SUB SLT ISZERO PUSH2 0xDD4 JUMPI PUSH2 0xDD3 PUSH2 0xCFD JUMP JUMPDEST JUMPDEST PUSH1 0x0 PUSH2 0xDE2 DUP5 DUP3 DUP6 ADD PUSH2 0xDA9 JUMP JUMPDEST SWAP2 POP POP SWAP3 SWAP2 POP POP JUMP JUMPDEST PUSH1 0x0 DUP2 MLOAD SWAP1 POP SWAP2 SWAP1 POP JUMP JUMPDEST PUSH1 0x0 DUP3 DUP3 MSTORE PUSH1 0x20 DUP3 ADD SWAP1 POP SWAP3 SWAP2 POP POP JUMP JUMPDEST PUSH1 0x0 JUMPDEST DUP4 DUP2 LT ISZERO PUSH2 0xE25 JUMPI DUP1 DUP3 ADD MLOAD DUP2 DUP5 ADD MSTORE PUSH1 0x20 DUP2 ADD SWAP1 POP PUSH2 0xE0A JUMP JUMPDEST PUSH1 0x0 DUP5 DUP5 ADD MSTORE POP POP POP POP JUMP JUMPDEST PUSH1 0x0 PUSH1 0x1F NOT PUSH1 0x1F DUP4 ADD AND SWAP1 POP SWAP2 SWAP1 POP JUMP JUMPDEST PUSH1 0x0 PUSH2 0xE4D DUP3 PUSH2 0xDEB JUMP JUMPDEST PUSH2 0xE57 DUP2 DUP6 PUSH2 0xDF6 JUMP JUMPDEST SWAP4 POP PUSH2 0xE67 DUP2 DUP6 PUSH1 0x20 DUP7 ADD PUSH2 0xE07 JUMP JUMPDEST PUSH2 0xE70 DUP2 PUSH2 0xE31 JUMP JUMPDEST DUP5 ADD SWAP2 POP POP SWAP3 SWAP2 POP POP JUMP JUMPDEST PUSH1 0x0 DUP2 ISZERO ISZERO SWAP1 POP SWAP2 SWAP1 POP JUMP JUMPDEST PUSH2 0xE90 DUP2 PUSH2 0xE7B JUMP JUMPDEST DUP3 MSTORE POP POP JUMP JUMPDEST PUSH1 0x0 PUSH1 0xA0 DUP3 ADD SWAP1 POP PUSH2 0xEAB PUSH1 0x0 DUP4 ADD DUP9 PUSH2 0xC37 JUMP JUMPDEST DUP2 DUP2 SUB PUSH1 0x20 DUP4 ADD MSTORE PUSH2 0xEBD DUP2 DUP8 PUSH2 0xE42 JUMP JUMPDEST SWAP1 POP DUP2 DUP2 SUB PUSH1 0x40 DUP4 ADD MSTORE PUSH2 0xED1 DUP2 DUP7 PUSH2 0xE42 JUMP JUMPDEST SWAP1 POP PUSH2 0xEE0 PUSH1 0x60 DUP4 ADD DUP6 PUSH2 0xC37 JUMP JUMPDEST PUSH2 0xEED PUSH1 0x80 DUP4 ADD DUP5 PUSH2 0xE87 JUMP JUMPDEST SWAP7 SWAP6 POP POP POP POP POP POP JUMP JUMPDEST PUSH1 0x0 DUP1 REVERT JUMPDEST PUSH1 0x0 DUP1 REVERT JUMPDEST PUSH32 0x4E487B7100000000000000000000000000000000000000000000000000000000 PUSH1 0x0 MSTORE PUSH1 0x41 PUSH1 0x4 MSTORE PUSH1 0x24 PUSH1 0x0 REVERT JUMPDEST PUSH2 0xF39 DUP3 PUSH2 0xE31 JUMP JUMPDEST DUP2 ADD DUP2 DUP2 LT PUSH8 0xFFFFFFFFFFFFFFFF DUP3 GT OR ISZERO PUSH2 0xF58 JUMPI PUSH2 0xF57 PUSH2 0xF01 JUMP JUMPDEST JUMPDEST DUP1 PUSH1 0x40 MSTORE POP POP POP JUMP JUMPDEST PUSH1 0x0 PUSH2 0xF6B PUSH2 0xCF3 JUMP JUMPDEST SWAP1 POP PUSH2 0xF77 DUP3 DUP3 PUSH2 0xF30 JUMP JUMPDEST SWAP2 SWAP1 POP JUMP JUMPDEST PUSH1 0x0 PUSH8 0xFFFFFFFFFFFFFFFF DUP3 GT ISZERO PUSH2 0xF97 JUMPI PUSH2 0xF96 PUSH2 0xF01 JUMP JUMPDEST JUMPDEST PUSH2 0xFA0 DUP3 PUSH2 0xE31 JUMP JUMPDEST SWAP1 POP PUSH1 0x20 DUP2 ADD SWAP1 POP SWAP2 SWAP1 POP JUMP JUMPDEST DUP3 DUP2 DUP4 CALLDATACOPY PUSH1 0x0 DUP4 DUP4 ADD MSTORE POP POP POP JUMP JUMPDEST PUSH1 0x0 PUSH2 0xFCF PUSH2 0xFCA DUP5 PUSH2 0xF7C JUMP JUMPDEST PUSH2 0xF61 JUMP JUMPDEST SWAP1 POP DUP3 DUP2 MSTORE PUSH1 0x20 DUP2 ADD DUP5 DUP5 DUP5 ADD GT ISZERO PUSH2 0xFEB JUMPI PUSH2 0xFEA PUSH2 0xEFC JUMP JUMPDEST JUMPDEST PUSH2 0xFF6 DUP5 DUP3 DUP6 PUSH2 0xFAD JUMP JUMPDEST POP SWAP4 SWAP3 POP POP POP JUMP JUMPDEST PUSH1 0x0 DUP3 PUSH1 0x1F DUP4 ADD SLT PUSH2 0x1013 JUMPI PUSH2 0x1012 PUSH2 0xEF7 JUMP JUMPDEST JUMPDEST DUP2 CALLDATALOAD PUSH2 0x1023 DUP5 DUP3 PUSH1 0x20 DUP7 ADD PUSH2 0xFBC JUMP JUMPDEST SWAP2 POP POP SWAP3 SWAP2 POP POP JUMP JUMPDEST PUSH1 0x0 DUP1 PUSH1 0x0 DUP1 PUSH1 0x0 PUSH1 0xA0 DUP7 DUP9 SUB SLT ISZERO PUSH2 0x1048 JUMPI PUSH2 0x1047 PUSH2 0xCFD JUMP JUMPDEST JUMPDEST PUSH1 0x0 PUSH2 0x1056 DUP9 DUP3 DUP10 ADD PUSH2 0xDA9 JUMP JUMPDEST SWAP6 POP POP PUSH1 0x20 PUSH2 0x1067 DUP9 DUP3 DUP10 ADD PUSH2 0xDA9 JUMP JUMPDEST SWAP5 POP POP PUSH1 0x40 DUP7 ADD CALLDATALOAD PUSH8 0xFFFFFFFFFFFFFFFF DUP2 GT ISZERO PUSH2 0x1088 JUMPI PUSH2 0x1087 PUSH2 0xD02 JUMP JUMPDEST JUMPDEST PUSH2 0x1094 DUP9 DUP3 DUP10 ADD PUSH2 0xFFE JUMP JUMPDEST SWAP4 POP POP PUSH1 0x60 DUP7 ADD CALLDATALOAD PUSH8 0xFFFFFFFFFFFFFFFF DUP2 GT ISZERO PUSH2 0x10B5 JUMPI PUSH2 0x10B4 PUSH2 0xD02 JUMP JUMPDEST JUMPDEST PUSH2 0x10C1 DUP9 DUP3 DUP10 ADD PUSH2 0xFFE JUMP JUMPDEST SWAP3 POP POP PUSH1 0x80 PUSH2 0x10D2 DUP9 DUP3 DUP10 ADD PUSH2 0xDA9 JUMP JUMPDEST SWAP2 POP POP SWAP3 SWAP6 POP SWAP3 SWAP6 SWAP1 SWAP4 POP JUMP JUMPDEST PUSH1 0x0 DUP1 PUSH1 0x40 DUP4 DUP6 SUB SLT ISZERO PUSH2 0x10F6 JUMPI PUSH2 0x10F5 PUSH2 0xCFD JUMP JUMPDEST JUMPDEST PUSH1 0x0 DUP4 ADD CALLDATALOAD PUSH8 0xFFFFFFFFFFFFFFFF DUP2 GT ISZERO PUSH2 0x1114 JUMPI PUSH2 0x1113 PUSH2 0xD02 JUMP JUMPDEST JUMPDEST PUSH2 0x1120 DUP6 DUP3 DUP7 ADD PUSH2 0xFFE JUMP JUMPDEST SWAP3 POP POP PUSH1 0x20 DUP4 ADD CALLDATALOAD PUSH8 0xFFFFFFFFFFFFFFFF DUP2 GT ISZERO PUSH2 0x1141 JUMPI PUSH2 0x1140 PUSH2 0xD02 JUMP JUMPDEST JUMPDEST PUSH2 0x114D DUP6 DUP3 DUP7 ADD PUSH2 0xFFE JUMP JUMPDEST SWAP2 POP POP SWAP3 POP SWAP3 SWAP1 POP JUMP JUMPDEST PUSH1 0x0 DUP2 MLOAD SWAP1 POP SWAP2 SWAP1 POP JUMP JUMPDEST PUSH1 0x0 DUP3 DUP3 MSTORE PUSH1 0x20 DUP3 ADD SWAP1 POP SWAP3 SWAP2 POP POP JUMP JUMPDEST PUSH1 0x0 DUP2 SWAP1 POP PUSH1 0x20 DUP3 ADD SWAP1 POP SWAP2 SWAP1 POP JUMP JUMPDEST PUSH2 0x118C DUP2 PUSH2 0xC2D JUMP JUMPDEST DUP3 MSTORE POP POP JUMP JUMPDEST PUSH1 0x0 DUP3 DUP3 MSTORE PUSH1 0x20 DUP3 ADD SWAP1 POP SWAP3 SWAP2 POP POP JUMP JUMPDEST PUSH1 0x0 PUSH2 0x11AE DUP3 PUSH2 0xDEB JUMP JUMPDEST PUSH2 0x11B8 DUP2 DUP6 PUSH2 0x1192 JUMP JUMPDEST SWAP4 POP PUSH2 0x11C8 DUP2 DUP6 PUSH1 0x20 DUP7 ADD PUSH2 0xE07 JUMP JUMPDEST PUSH2 0x11D1 DUP2 PUSH2 0xE31 JUMP JUMPDEST DUP5 ADD SWAP2 POP POP SWAP3 SWAP2 POP POP JUMP JUMPDEST PUSH2 0x11E5 DUP2 PUSH2 0xE7B JUMP JUMPDEST DUP3 MSTORE POP POP JUMP JUMPDEST PUSH1 0x0 PUSH1 0xA0 DUP4 ADD PUSH1 0x0 DUP4 ADD MLOAD PUSH2 0x1203 PUSH1 0x0 DUP7 ADD DUP3 PUSH2 0x1183 JUMP JUMPDEST POP PUSH1 0x20 DUP4 ADD MLOAD DUP5 DUP3 SUB PUSH1 0x20 DUP7 ADD MSTORE PUSH2 0x121B DUP3 DUP3 PUSH2 0x11A3 JUMP JUMPDEST SWAP2 POP POP PUSH1 0x40 DUP4 ADD MLOAD DUP5 DUP3 SUB PUSH1 0x40 DUP7 ADD MSTORE PUSH2 0x1235 DUP3 DUP3 PUSH2 0x11A3 JUMP JUMPDEST SWAP2 POP POP PUSH1 0x60 DUP4 ADD MLOAD PUSH2 0x124A PUSH1 0x60 DUP7 ADD DUP3 PUSH2 0x1183 JUMP JUMPDEST POP PUSH1 0x80 DUP4 ADD MLOAD PUSH2 0x125D PUSH1 0x80 DUP7 ADD DUP3 PUSH2 0x11DC JUMP JUMPDEST POP DUP1 SWAP2 POP POP SWAP3 SWAP2 POP POP JUMP JUMPDEST PUSH1 0x0 PUSH2 0x1274 DUP4 DUP4 PUSH2 0x11EB JUMP JUMPDEST SWAP1 POP SWAP3 SWAP2 POP POP JUMP JUMPDEST PUSH1 0x0 PUSH1 0x20 DUP3 ADD SWAP1 POP SWAP2 SWAP1 POP JUMP JUMPDEST PUSH1 0x0 PUSH2 0x1294 DUP3 PUSH2 0x1157 JUMP JUMPDEST PUSH2 0x129E DUP2 DUP6 PUSH2 0x1162 JUMP JUMPDEST SWAP4 POP DUP4 PUSH1 0x20 DUP3 MUL DUP6 ADD PUSH2 0x12B0 DUP6 PUSH2 0x1173 JUMP JUMPDEST DUP1 PUSH1 0x0 JUMPDEST DUP6 DUP2 LT ISZERO PUSH2 0x12EC JUMPI DUP5 DUP5 SUB DUP10 MSTORE DUP2 MLOAD PUSH2 0x12CD DUP6 DUP3 PUSH2 0x1268 JUMP JUMPDEST SWAP5 POP PUSH2 0x12D8 DUP4 PUSH2 0x127C JUMP JUMPDEST SWAP3 POP PUSH1 0x20 DUP11 ADD SWAP10 POP POP PUSH1 0x1 DUP2 ADD SWAP1 POP PUSH2 0x12B4 JUMP JUMPDEST POP DUP3 SWAP8 POP DUP8 SWAP6 POP POP POP POP POP POP SWAP3 SWAP2 POP POP JUMP JUMPDEST PUSH1 0x0 PUSH1 0x20 DUP3 ADD SWAP1 POP DUP2 DUP2 SUB PUSH1 0x0 DUP4 ADD MSTORE PUSH2 0x1318 DUP2 DUP5 PUSH2 0x1289 JUMP JUMPDEST SWAP1 POP SWAP3 SWAP2 POP POP JUMP JUMPDEST PUSH1 0x0 DUP1 PUSH1 0x40 DUP4 DUP6 SUB SLT ISZERO PUSH2 0x1337 JUMPI PUSH2 0x1336 PUSH2 0xCFD JUMP JUMPDEST JUMPDEST PUSH1 0x0 PUSH2 0x1345 DUP6 DUP3 DUP7 ADD PUSH2 0xDA9 JUMP JUMPDEST SWAP3 POP POP PUSH1 0x20 PUSH2 0x1356 DUP6 DUP3 DUP7 ADD PUSH2 0xD50 JUMP JUMPDEST SWAP2 POP POP SWAP3 POP SWAP3 SWAP1 POP JUMP JUMPDEST PUSH1 0x0 PUSH1 0x20 DUP3 ADD SWAP1 POP PUSH2 0x1375 PUSH1 0x0 DUP4 ADD DUP5 PUSH2 0xE87 JUMP JUMPDEST SWAP3 SWAP2 POP POP JUMP JUMPDEST PUSH1 0x0 PUSH1 0x20 DUP3 ADD SWAP1 POP DUP2 DUP2 SUB PUSH1 0x0 DUP4 ADD MSTORE PUSH2 0x1395 DUP2 DUP5 PUSH2 0xE42 JUMP JUMPDEST SWAP1 POP SWAP3 SWAP2 POP POP JUMP JUMPDEST PUSH32 0x4E487B7100000000000000000000000000000000000000000000000000000000 PUSH1 0x0 MSTORE PUSH1 0x11 PUSH1 0x4 MSTORE PUSH1 0x24 PUSH1 0x0 REVERT JUMPDEST PUSH1 0x0 PUSH2 0x13D7 DUP3 PUSH2 0xC2D JUMP JUMPDEST SWAP2 POP PUSH2 0x13E2 DUP4 PUSH2 0xC2D JUMP JUMPDEST SWAP3 POP DUP3 DUP3 ADD SWAP1 POP DUP1 DUP3 GT ISZERO PUSH2 0x13FA JUMPI PUSH2 0x13F9 PUSH2 0x139D JUMP JUMPDEST JUMPDEST SWAP3 SWAP2 POP POP JUMP JUMPDEST PUSH32 0x4E487B7100000000000000000000000000000000000000000000000000000000 PUSH1 0x0 MSTORE PUSH1 0x22 PUSH1 0x4 MSTORE PUSH1 0x24 PUSH1 0x0 REVERT JUMPDEST PUSH1 0x0 PUSH1 0x2 DUP3 DIV SWAP1 POP PUSH1 0x1 DUP3 AND DUP1 PUSH2 0x1447 JUMPI PUSH1 0x7F DUP3 AND SWAP2 POP JUMPDEST PUSH1 0x20 DUP3 LT DUP2 SUB PUSH2 0x145A JUMPI PUSH2 0x1459 PUSH2 0x1400 JUMP JUMPDEST JUMPDEST POP SWAP2 SWAP1 POP JUMP JUMPDEST PUSH1 0x0 DUP2 SWAP1 POP DUP2 PUSH1 0x0 MSTORE PUSH1 0x20 PUSH1 0x0 KECCAK256 SWAP1 POP SWAP2 SWAP1 POP JUMP JUMPDEST PUSH1 0x0 PUSH1 0x20 PUSH1 0x1F DUP4 ADD DIV SWAP1 POP SWAP2 SWAP1 POP JUMP JUMPDEST PUSH1 0x0 DUP3 DUP3 SHL SWAP1 POP SWAP3 SWAP2 POP POP JUMP JUMPDEST PUSH1 0x0 PUSH1 0x8 DUP4 MUL PUSH2 0x14C2 PUSH32 0xFFFFFFFFFFFFFFFFFFFFFFFFFFFFFFFFFFFFFFFFFFFFFFFFFFFFFFFFFFFFFFFF DUP3 PUSH2 0x1485 JUMP JUMPDEST PUSH2 0x14CC DUP7 DUP4 PUSH2 0x1485 JUMP JUMPDEST SWAP6 POP DUP1 NOT DUP5 AND SWAP4 POP DUP1 DUP7 AND DUP5 OR SWAP3 POP POP POP SWAP4 SWAP3 POP POP POP JUMP JUMPDEST PUSH1 0x0 DUP2 SWAP1 POP SWAP2 SWAP1 POP JUMP JUMPDEST PUSH1 0x0 PUSH2 0x1509 PUSH2 0x1504 PUSH2 0x14FF DUP5 PUSH2 0xC2D JUMP JUMPDEST PUSH2 0x14E4 JUMP JUMPDEST PUSH2 0xC2D JUMP JUMPDEST SWAP1 POP SWAP2 SWAP1 POP JUMP JUMPDEST PUSH1 0x0 DUP2 SWAP1 POP SWAP2 SWAP1 POP JUMP JUMPDEST PUSH2 0x1523 DUP4 PUSH2 0x14EE JUMP JUMPDEST PUSH2 0x1537 PUSH2 0x152F DUP3 PUSH2 0x1510 JUMP JUMPDEST DUP5 DUP5 SLOAD PUSH2 0x1492 JUMP JUMPDEST DUP3 SSTORE POP POP POP POP JUMP JUMPDEST PUSH1 0x0 SWAP1 JUMP JUMPDEST PUSH2 0x154C PUSH2 0x153F JUMP JUMPDEST PUSH2 0x1557 DUP2 DUP5 DUP5 PUSH2 0x151A JUMP JUMPDEST POP POP POP JUMP JUMPDEST JUMPDEST DUP2 DUP2 LT ISZERO PUSH2 0x157B JUMPI PUSH2 0x1570 PUSH1 0x0 DUP3 PUSH2 0x1544 JUMP JUMPDEST PUSH1 0x1 DUP2 ADD SWAP1 POP PUSH2 0x155D JUMP JUMPDEST POP POP JUMP JUMPDEST PUSH1 0x1F DUP3 GT ISZERO PUSH2 0x15C0 JUMPI PUSH2 0x1591 DUP2 PUSH2 0x1460 JUMP JUMPDEST PUSH2 0x159A DUP5 PUSH2 0x1475 JUMP JUMPDEST DUP2 ADD PUSH1 0x20 DUP6 LT ISZERO PUSH2 0x15A9 JUMPI DUP2 SWAP1 POP JUMPDEST PUSH2 0x15BD PUSH2 0x15B5 DUP6 PUSH2 0x1475 JUMP JUMPDEST DUP4 ADD DUP3 PUSH2 0x155C JUMP JUMPDEST POP POP JUMPDEST POP POP POP JUMP JUMPDEST PUSH1 0x0 DUP3 DUP3 SHR SWAP1 POP SWAP3 SWAP2 POP POP JUMP JUMPDEST PUSH1 0x0 PUSH2 0x15E3 PUSH1 0x0 NOT DUP5 PUSH1 0x8 MUL PUSH2 0x15C5 JUMP JUMPDEST NOT DUP1 DUP4 AND SWAP2 POP POP SWAP3 SWAP2 POP POP JUMP JUMPDEST PUSH1 0x0 PUSH2 0x15FC DUP4 DUP4 PUSH2 0x15D2 JUMP JUMPDEST SWAP2 POP DUP3 PUSH1 0x2 MUL DUP3 OR SWAP1 POP SWAP3 SWAP2 POP POP JUMP JUMPDEST PUSH2 0x1615 DUP3 PUSH2 0xDEB JUMP JUMPDEST PUSH8 0xFFFFFFFFFFFFFFFF DUP2 GT ISZERO PUSH2 0x162E JUMPI PUSH2 0x162D PUSH2 0xF01 JUMP JUMPDEST JUMPDEST PUSH2 0x1638 DUP3 SLOAD PUSH2 0x142F JUMP JUMPDEST PUSH2 0x1643 DUP3 DUP3 DUP6 PUSH2 0x157F JUMP JUMPDEST PUSH1 0x0 PUSH1 0x20 SWAP1 POP PUSH1 0x1F DUP4 GT PUSH1 0x1 DUP2 EQ PUSH2 0x1676 JUMPI PUSH1 0x0 DUP5 ISZERO PUSH2 0x1664 JUMPI DUP3 DUP8 ADD MLOAD SWAP1 POP JUMPDEST PUSH2 0x166E DUP6 DUP3 PUSH2 0x15F0 JUMP JUMPDEST DUP7 SSTORE POP PUSH2 0x16D6 JUMP JUMPDEST PUSH1 0x1F NOT DUP5 AND PUSH2 0x1684 DUP7 PUSH2 0x1460 JUMP JUMPDEST PUSH1 0x0 JUMPDEST DUP3 DUP2 LT ISZERO PUSH2 0x16AC JUMPI DUP5 DUP10 ADD MLOAD DUP3 SSTORE PUSH1 0x1 DUP3 ADD SWAP2 POP PUSH1 0x20 DUP6 ADD SWAP5 POP PUSH1 0x20 DUP2 ADD SWAP1 POP PUSH2 0x1687 JUMP JUMPDEST DUP7 DUP4 LT ISZERO PUSH2 0x16C9 JUMPI DUP5 DUP10 ADD MLOAD PUSH2 0x16C5 PUSH1 0x1F DUP10 AND DUP3 PUSH2 0x15D2 JUMP JUMPDEST DUP4 SSTORE POP JUMPDEST PUSH1 0x1 PUSH1 0x2 DUP9 MUL ADD DUP9 SSTORE POP POP POP JUMPDEST POP POP POP POP POP POP JUMP JUMPDEST PUSH32 0x4E487B7100000000000000000000000000000000000000000000000000000000 PUSH1 0x0 MSTORE PUSH1 0x32 PUSH1 0x4 MSTORE PUSH1 0x24 PUSH1 0x0 REVERT JUMPDEST PUSH1 0x0 PUSH2 0x1718 DUP3 PUSH2 0xC2D JUMP JUMPDEST SWAP2 POP PUSH32 0xFFFFFFFFFFFFFFFFFFFFFFFFFFFFFFFFFFFFFFFFFFFFFFFFFFFFFFFFFFFFFFFF DUP3 SUB PUSH2 0x174A JUMPI PUSH2 0x1749 PUSH2 0x139D JUMP JUMPDEST JUMPDEST PUSH1 0x1 DUP3 ADD SWAP1 POP SWAP2 SWAP1 POP JUMP JUMPDEST PUSH32 0x547261696E206973206E6F742052756E6E696E67000000000000000000000000 PUSH1 0x0 DUP3 ADD MSTORE POP JUMP JUMPDEST PUSH1 0x0 PUSH2 0x178B PUSH1 0x14 DUP4 PUSH2 0xDF6 JUMP JUMPDEST SWAP2 POP PUSH2 0x1796 DUP3 PUSH2 0x1755 JUMP JUMPDEST PUSH1 0x20 DUP3 ADD SWAP1 POP SWAP2 SWAP1 POP JUMP JUMPDEST PUSH1 0x0 PUSH1 0x20 DUP3 ADD SWAP1 POP DUP2 DUP2 SUB PUSH1 0x0 DUP4 ADD MSTORE PUSH2 0x17BA DUP2 PUSH2 0x177E JUMP JUMPDEST SWAP1 POP SWAP2 SWAP1 POP JUMP JUMPDEST PUSH32 0x496E73756666696369656E742066756E64730000000000000000000000000000 PUSH1 0x0 DUP3 ADD MSTORE POP JUMP JUMPDEST PUSH1 0x0 PUSH2 0x17F7 PUSH1 0x12 DUP4 PUSH2 0xDF6 JUMP JUMPDEST SWAP2 POP PUSH2 0x1802 DUP3 PUSH2 0x17C1 JUMP JUMPDEST PUSH1 0x20 DUP3 ADD SWAP1 POP SWAP2 SWAP1 POP JUMP JUMPDEST PUSH1 0x0 PUSH1 0x20 DUP3 ADD SWAP1 POP DUP2 DUP2 SUB PUSH1 0x0 DUP4 ADD MSTORE PUSH2 0x1826 DUP2 PUSH2 0x17EA JUMP JUMPDEST SWAP1 POP SWAP2 SWAP1 POP JUMP JUMPDEST PUSH1 0x0 PUSH2 0x1838 DUP3 PUSH2 0xC2D JUMP JUMPDEST SWAP2 POP PUSH1 0x0 DUP3 SUB PUSH2 0x184B JUMPI PUSH2 0x184A PUSH2 0x139D JUMP JUMPDEST JUMPDEST PUSH1 0x1 DUP3 SUB SWAP1 POP SWAP2 SWAP1 POP JUMP JUMPDEST PUSH1 0x0 PUSH2 0x1861 DUP3 PUSH2 0xC2D JUMP JUMPDEST SWAP2 POP PUSH2 0x186C DUP4 PUSH2 0xC2D JUMP JUMPDEST SWAP3 POP DUP3 DUP3 SUB SWAP1 POP DUP2 DUP2 GT ISZERO PUSH2 0x1884 JUMPI PUSH2 0x1883 PUSH2 0x139D JUMP JUMPDEST JUMPDEST SWAP3 SWAP2 POP POP JUMP JUMPDEST PUSH2 0x1893 DUP2 PUSH2 0xD27 JUMP JUMPDEST DUP3 MSTORE POP POP JUMP JUMPDEST PUSH1 0x0 PUSH1 0x40 DUP3 ADD SWAP1 POP PUSH2 0x18AE PUSH1 0x0 DUP4 ADD DUP6 PUSH2 0xC37 JUMP JUMPDEST PUSH2 0x18BB PUSH1 0x20 DUP4 ADD DUP5 PUSH2 0x188A JUMP JUMPDEST SWAP4 SWAP3 POP POP POP JUMP JUMPDEST PUSH1 0x0 DUP2 SWAP1 POP SWAP3 SWAP2 POP POP JUMP JUMPDEST PUSH1 0x0 PUSH2 0x18D8 DUP3 PUSH2 0xDEB JUMP JUMPDEST PUSH2 0x18E2 DUP2 DUP6 PUSH2 0x18C2 JUMP JUMPDEST SWAP4 POP PUSH2 0x18F2 DUP2 DUP6 PUSH1 0x20 DUP7 ADD PUSH2 0xE07 JUMP JUMPDEST DUP1 DUP5 ADD SWAP2 POP POP SWAP3 SWAP2 POP POP JUMP JUMPDEST PUSH1 0x0 PUSH2 0x190A DUP3 DUP5 PUSH2 0x18CD JUMP JUMPDEST SWAP2 POP DUP2 SWAP1 POP SWAP3 SWAP2 POP POP JUMP INVALID LOG2 PUSH5 0x6970667358 0x22 SLT KECCAK256 0xFC 0xF7 0xC3 SLOAD NOT 0xB5 0xB1 LOG4 MULMOD 0xC0 BALANCE SMOD PUSH1 0x3A 0xAB PUSH19 0x9AE2E2FB4DAB9B0F95910DE9B426EA4964736F PUSH13 0x63430008120033000000000000 "
		},
		"gasEstimates": {
			"creation": {
				"codeDepositCost": "1295000",
				"executionCost": "1349",
				"totalCost": "1296349"
			},
			"external": {
				"addTrain(uint256,uint256,string,string,uint256)": "infinite",
				"balances(address)": "2859",
				"bookTickets(uint256,address)": "infinite",
				"cancelTicket(uint256,address)": "infinite",
				"getBalance()": "infinite",
				"isTrainAvailable(string,string)": "infinite",
				"searchTrains(string,string)": "infinite",
				"status()": "2633",
				"train(uint256)": "infinite",
				"trainUpdate(uint256,uint256,string,string,uint256)": "infinite"
			}
		},
		"methodIdentifiers": {
			"addTrain(uint256,uint256,string,string,uint256)": "521b04bd",
			"balances(address)": "27e235e3",
			"bookTickets(uint256,address)": "8cc4a15f",
			"cancelTicket(uint256,address)": "f7a034b6",
			"getBalance()": "12065fe0",
			"isTrainAvailable(string,string)": "d48068b1",
			"searchTrains(string,string)": "5ae59a63",
			"status()": "200d2ed2",
			"train(uint256)": "368004ed",
			"trainUpdate(uint256,uint256,string,string,uint256)": "42aa7f74"
		}
	},
	"abi": [
		{
			"anonymous": false,
			"inputs": [
				{
					"indexed": false,
					"internalType": "uint256",
					"name": "trainNo",
					"type": "uint256"
				},
				{
					"indexed": false,
					"internalType": "address",
					"name": "passenger",
					"type": "address"
				}
			],
			"name": "Booked",
			"type": "event"
		},
		{
			"inputs": [
				{
					"internalType": "uint256",
					"name": "trainNo",
					"type": "uint256"
				},
				{
					"internalType": "uint256",
					"name": "availableSeats",
					"type": "uint256"
				},
				{
					"internalType": "string",
					"name": "source",
					"type": "string"
				},
				{
					"internalType": "string",
					"name": "destination",
					"type": "string"
				},
				{
					"internalType": "uint256",
					"name": "Fare",
					"type": "uint256"
				}
			],
			"name": "addTrain",
			"outputs": [],
			"stateMutability": "nonpayable",
			"type": "function"
		},
		{
			"inputs": [
				{
					"internalType": "address",
					"name": "",
					"type": "address"
				}
			],
			"name": "balances",
			"outputs": [
				{
					"internalType": "uint256",
					"name": "",
					"type": "uint256"
				}
			],
			"stateMutability": "view",
			"type": "function"
		},
		{
			"inputs": [
				{
					"internalType": "uint256",
					"name": "trainNo",
					"type": "uint256"
				},
				{
					"internalType": "address",
					"name": "add",
					"type": "address"
				}
			],
			"name": "bookTickets",
			"outputs": [
				{
					"internalType": "uint256",
					"name": "",
					"type": "uint256"
				}
			],
			"stateMutability": "payable",
			"type": "function"
		},
		{
			"inputs": [
				{
					"internalType": "uint256",
					"name": "trainNo",
					"type": "uint256"
				},
				{
					"internalType": "address",
					"name": "_add",
					"type": "address"
				}
			],
			"name": "cancelTicket",
			"outputs": [
				{
					"internalType": "string",
					"name": "",
					"type": "string"
				}
			],
			"stateMutability": "nonpayable",
			"type": "function"
		},
		{
			"inputs": [],
			"name": "getBalance",
			"outputs": [
				{
					"internalType": "uint256",
					"name": "",
					"type": "uint256"
				}
			],
			"stateMutability": "nonpayable",
			"type": "function"
		},
		{
			"inputs": [
				{
					"internalType": "string",
					"name": "passengerSource",
					"type": "string"
				},
				{
					"internalType": "string",
					"name": "passengerDestination",
					"type": "string"
				}
			],
			"name": "isTrainAvailable",
			"outputs": [
				{
					"internalType": "bool",
					"name": "",
					"type": "bool"
				}
			],
			"stateMutability": "pure",
			"type": "function"
		},
		{
			"inputs": [
				{
					"internalType": "string",
					"name": "source",
					"type": "string"
				},
				{
					"internalType": "string",
					"name": "destination",
					"type": "string"
				}
			],
			"name": "searchTrains",
			"outputs": [
				{
					"components": [
						{
							"internalType": "uint256",
							"name": "availableSeats",
							"type": "uint256"
						},
						{
							"internalType": "string",
							"name": "source",
							"type": "string"
						},
						{
							"internalType": "string",
							"name": "destination",
							"type": "string"
						},
						{
							"internalType": "uint256",
							"name": "fare",
							"type": "uint256"
						},
						{
							"internalType": "bool",
							"name": "isRunning",
							"type": "bool"
						}
					],
					"internalType": "struct Railway.Train[]",
					"name": "",
					"type": "tuple[]"
				}
			],
			"stateMutability": "view",
			"type": "function"
		},
		{
			"inputs": [],
			"name": "status",
			"outputs": [
				{
					"internalType": "enum Railway.trainStatus",
					"name": "",
					"type": "uint8"
				}
			],
			"stateMutability": "view",
			"type": "function"
		},
		{
			"inputs": [
				{
					"internalType": "uint256",
					"name": "",
					"type": "uint256"
				}
			],
			"name": "train",
			"outputs": [
				{
					"internalType": "uint256",
					"name": "availableSeats",
					"type": "uint256"
				},
				{
					"internalType": "string",
					"name": "source",
					"type": "string"
				},
				{
					"internalType": "string",
					"name": "destination",
					"type": "string"
				},
				{
					"internalType": "uint256",
					"name": "fare",
					"type": "uint256"
				},
				{
					"internalType": "bool",
					"name": "isRunning",
					"type": "bool"
				}
			],
			"stateMutability": "view",
			"type": "function"
		},
		{
			"inputs": [
				{
					"internalType": "uint256",
					"name": "_trainNo",
					"type": "uint256"
				},
				{
					"internalType": "uint256",
					"name": "_availableSeats",
					"type": "uint256"
				},
				{
					"internalType": "string",
					"name": "_source",
					"type": "string"
				},
				{
					"internalType": "string",
					"name": "_destination",
					"type": "string"
				},
				{
					"internalType": "uint256",
					"name": "_fare",
					"type": "uint256"
				}
			],
			"name": "trainUpdate",
			"outputs": [],
			"stateMutability": "nonpayable",
			"type": "function"
		}
	]
}