{
	"data": {
		"bytecode": {
			"linkReferences": {},
			"object": "60806040526040518060400160405280601081526020017f42757920596f7572205469636b65747300000000000000000000000000000000815250600590816200004a91906200030e565b503480156200005857600080fd5b50604051620009383803806200093883398181016040528101906200007e91906200042b565b8160008190555080600481905550505062000472565b600081519050919050565b7f4e487b7100000000000000000000000000000000000000000000000000000000600052604160045260246000fd5b7f4e487b7100000000000000000000000000000000000000000000000000000000600052602260045260246000fd5b600060028204905060018216806200011657607f821691505b6020821081036200012c576200012b620000ce565b5b50919050565b60008190508160005260206000209050919050565b60006020601f8301049050919050565b600082821b905092915050565b600060088302620001967fffffffffffffffffffffffffffffffffffffffffffffffffffffffffffffffff8262000157565b620001a2868362000157565b95508019841693508086168417925050509392505050565b6000819050919050565b6000819050919050565b6000620001ef620001e9620001e384620001ba565b620001c4565b620001ba565b9050919050565b6000819050919050565b6200020b83620001ce565b620002236200021a82620001f6565b84845462000164565b825550505050565b600090565b6200023a6200022b565b6200024781848462000200565b505050565b5b818110156200026f576200026360008262000230565b6001810190506200024d565b5050565b601f821115620002be57620002888162000132565b620002938462000147565b81016020851015620002a3578190505b620002bb620002b28562000147565b8301826200024c565b50505b505050565b600082821c905092915050565b6000620002e360001984600802620002c3565b1980831691505092915050565b6000620002fe8383620002d0565b9150826002028217905092915050565b620003198262000094565b67ffffffffffffffff8111156200033557620003346200009f565b5b620003418254620000fd565b6200034e82828562000273565b600060209050601f83116001811462000386576000841562000371578287015190505b6200037d8582620002f0565b865550620003ed565b601f198416620003968662000132565b60005b82811015620003c05784890151825560018201915060208501945060208101905062000399565b86831015620003e05784890151620003dc601f891682620002d0565b8355505b6001600288020188555050505b505050505050565b600080fd5b6200040581620001ba565b81146200041157600080fd5b50565b6000815190506200042581620003fa565b92915050565b60008060408385031215620004455762000444620003f5565b5b6000620004558582860162000414565b9250506020620004688582860162000414565b9150509250929050565b6104b680620004826000396000f3fe608060405234801561001057600080fd5b50600436106100935760003560e01c8063b05f784a11610066578063b05f784a14610110578063c81998261461012e578063c9326ad914610138578063cc48020614610142578063e21f37ce1461016057610093565b80631209b1f614610098578063262a9dff146100b657806345745c10146100d4578063a1f52568146100f2575b600080fd5b6100a061017e565b6040516100ad91906102ae565b60405180910390f35b6100be610184565b6040516100cb91906102ae565b60405180910390f35b6100dc61018a565b6040516100e991906102ae565b60405180910390f35b6100fa610190565b60405161010791906102ae565b60405180910390f35b610118610196565b60405161012591906102ae565b60405180910390f35b6101366101c3565b005b6101406101de565b005b61014a610201565b60405161015791906102ae565b60405180910390f35b610168610207565b6040516101759190610359565b60405180910390f35b60005481565b60045481565b60015481565b60035481565b60006003546000546101a891906103aa565b6001546101b591906103de565b600281905550600254905090565b60018060008282546101d591906103aa565b92505081905550565b600f60045411156101f65760326003819055506101ff565b60146003819055505b565b60025481565b600580546102149061044f565b80601f01602080910402602001604051908101604052809291908181526020018280546102409061044f565b801561028d5780601f106102625761010080835404028352916020019161028d565b820191906000526020600020905b81548152906001019060200180831161027057829003601f168201915b505050505081565b6000819050919050565b6102a881610295565b82525050565b60006020820190506102c3600083018461029f565b92915050565b600081519050919050565b600082825260208201905092915050565b60005b838110156103035780820151818401526020810190506102e8565b60008484015250505050565b6000601f19601f8301169050919050565b600061032b826102c9565b61033581856102d4565b93506103458185602086016102e5565b61034e8161030f565b840191505092915050565b600060208201905081810360008301526103738184610320565b905092915050565b7f4e487b7100000000000000000000000000000000000000000000000000000000600052601160045260246000fd5b60006103b582610295565b91506103c083610295565b92508282019050808211156103d8576103d761037b565b5b92915050565b60006103e982610295565b91506103f483610295565b925082820261040281610295565b915082820484148315176104195761041861037b565b5b5092915050565b7f4e487b7100000000000000000000000000000000000000000000000000000000600052602260045260246000fd5b6000600282049050600182168061046757607f821691505b60208210810361047a57610479610420565b5b5091905056fea2646970667358221220e8d39389449385f71d80de2a29f74b9a95a7ebdea4484897f666ac2f096ab99364736f6c63430008110033",
			"opcodes": "PUSH1 0x80 PUSH1 0x40 MSTORE PUSH1 0x40 MLOAD DUP1 PUSH1 0x40 ADD PUSH1 0x40 MSTORE DUP1 PUSH1 0x10 DUP2 MSTORE PUSH1 0x20 ADD PUSH32 0x42757920596F7572205469636B65747300000000000000000000000000000000 DUP2 MSTORE POP PUSH1 0x5 SWAP1 DUP2 PUSH3 0x4A SWAP2 SWAP1 PUSH3 0x30E JUMP JUMPDEST POP CALLVALUE DUP1 ISZERO PUSH3 0x58 JUMPI PUSH1 0x0 DUP1 REVERT JUMPDEST POP PUSH1 0x40 MLOAD PUSH3 0x938 CODESIZE SUB DUP1 PUSH3 0x938 DUP4 CODECOPY DUP2 DUP2 ADD PUSH1 0x40 MSTORE DUP2 ADD SWAP1 PUSH3 0x7E SWAP2 SWAP1 PUSH3 0x42B JUMP JUMPDEST DUP2 PUSH1 0x0 DUP2 SWAP1 SSTORE POP DUP1 PUSH1 0x4 DUP2 SWAP1 SSTORE POP POP POP PUSH3 0x472 JUMP JUMPDEST PUSH1 0x0 DUP2 MLOAD SWAP1 POP SWAP2 SWAP1 POP JUMP JUMPDEST PUSH32 0x4E487B7100000000000000000000000000000000000000000000000000000000 PUSH1 0x0 MSTORE PUSH1 0x41 PUSH1 0x4 MSTORE PUSH1 0x24 PUSH1 0x0 REVERT JUMPDEST PUSH32 0x4E487B7100000000000000000000000000000000000000000000000000000000 PUSH1 0x0 MSTORE PUSH1 0x22 PUSH1 0x4 MSTORE PUSH1 0x24 PUSH1 0x0 REVERT JUMPDEST PUSH1 0x0 PUSH1 0x2 DUP3 DIV SWAP1 POP PUSH1 0x1 DUP3 AND DUP1 PUSH3 0x116 JUMPI PUSH1 0x7F DUP3 AND SWAP2 POP JUMPDEST PUSH1 0x20 DUP3 LT DUP2 SUB PUSH3 0x12C JUMPI PUSH3 0x12B PUSH3 0xCE JUMP JUMPDEST JUMPDEST POP SWAP2 SWAP1 POP JUMP JUMPDEST PUSH1 0x0 DUP2 SWAP1 POP DUP2 PUSH1 0x0 MSTORE PUSH1 0x20 PUSH1 0x0 KECCAK256 SWAP1 POP SWAP2 SWAP1 POP JUMP JUMPDEST PUSH1 0x0 PUSH1 0x20 PUSH1 0x1F DUP4 ADD DIV SWAP1 POP SWAP2 SWAP1 POP JUMP JUMPDEST PUSH1 0x0 DUP3 DUP3 SHL SWAP1 POP SWAP3 SWAP2 POP POP JUMP JUMPDEST PUSH1 0x0 PUSH1 0x8 DUP4 MUL PUSH3 0x196 PUSH32 0xFFFFFFFFFFFFFFFFFFFFFFFFFFFFFFFFFFFFFFFFFFFFFFFFFFFFFFFFFFFFFFFF DUP3 PUSH3 0x157 JUMP JUMPDEST PUSH3 0x1A2 DUP7 DUP4 PUSH3 0x157 JUMP JUMPDEST SWAP6 POP DUP1 NOT DUP5 AND SWAP4 POP DUP1 DUP7 AND DUP5 OR SWAP3 POP POP POP SWAP4 SWAP3 POP POP POP JUMP JUMPDEST PUSH1 0x0 DUP2 SWAP1 POP SWAP2 SWAP1 POP JUMP JUMPDEST PUSH1 0x0 DUP2 SWAP1 POP SWAP2 SWAP1 POP JUMP JUMPDEST PUSH1 0x0 PUSH3 0x1EF PUSH3 0x1E9 PUSH3 0x1E3 DUP5 PUSH3 0x1BA JUMP JUMPDEST PUSH3 0x1C4 JUMP JUMPDEST PUSH3 0x1BA JUMP JUMPDEST SWAP1 POP SWAP2 SWAP1 POP JUMP JUMPDEST PUSH1 0x0 DUP2 SWAP1 POP SWAP2 SWAP1 POP JUMP JUMPDEST PUSH3 0x20B DUP4 PUSH3 0x1CE JUMP JUMPDEST PUSH3 0x223 PUSH3 0x21A DUP3 PUSH3 0x1F6 JUMP JUMPDEST DUP5 DUP5 SLOAD PUSH3 0x164 JUMP JUMPDEST DUP3 SSTORE POP POP POP POP JUMP JUMPDEST PUSH1 0x0 SWAP1 JUMP JUMPDEST PUSH3 0x23A PUSH3 0x22B JUMP JUMPDEST PUSH3 0x247 DUP2 DUP5 DUP5 PUSH3 0x200 JUMP JUMPDEST POP POP POP JUMP JUMPDEST JUMPDEST DUP2 DUP2 LT ISZERO PUSH3 0x26F JUMPI PUSH3 0x263 PUSH1 0x0 DUP3 PUSH3 0x230 JUMP JUMPDEST PUSH1 0x1 DUP2 ADD SWAP1 POP PUSH3 0x24D JUMP JUMPDEST POP POP JUMP JUMPDEST PUSH1 0x1F DUP3 GT ISZERO PUSH3 0x2BE JUMPI PUSH3 0x288 DUP2 PUSH3 0x132 JUMP JUMPDEST PUSH3 0x293 DUP5 PUSH3 0x147 JUMP JUMPDEST DUP2 ADD PUSH1 0x20 DUP6 LT ISZERO PUSH3 0x2A3 JUMPI DUP2 SWAP1 POP JUMPDEST PUSH3 0x2BB PUSH3 0x2B2 DUP6 PUSH3 0x147 JUMP JUMPDEST DUP4 ADD DUP3 PUSH3 0x24C JUMP JUMPDEST POP POP JUMPDEST POP POP POP JUMP JUMPDEST PUSH1 0x0 DUP3 DUP3 SHR SWAP1 POP SWAP3 SWAP2 POP POP JUMP JUMPDEST PUSH1 0x0 PUSH3 0x2E3 PUSH1 0x0 NOT DUP5 PUSH1 0x8 MUL PUSH3 0x2C3 JUMP JUMPDEST NOT DUP1 DUP4 AND SWAP2 POP POP SWAP3 SWAP2 POP POP JUMP JUMPDEST PUSH1 0x0 PUSH3 0x2FE DUP4 DUP4 PUSH3 0x2D0 JUMP JUMPDEST SWAP2 POP DUP3 PUSH1 0x2 MUL DUP3 OR SWAP1 POP SWAP3 SWAP2 POP POP JUMP JUMPDEST PUSH3 0x319 DUP3 PUSH3 0x94 JUMP JUMPDEST PUSH8 0xFFFFFFFFFFFFFFFF DUP2 GT ISZERO PUSH3 0x335 JUMPI PUSH3 0x334 PUSH3 0x9F JUMP JUMPDEST JUMPDEST PUSH3 0x341 DUP3 SLOAD PUSH3 0xFD JUMP JUMPDEST PUSH3 0x34E DUP3 DUP3 DUP6 PUSH3 0x273 JUMP JUMPDEST PUSH1 0x0 PUSH1 0x20 SWAP1 POP PUSH1 0x1F DUP4 GT PUSH1 0x1 DUP2 EQ PUSH3 0x386 JUMPI PUSH1 0x0 DUP5 ISZERO PUSH3 0x371 JUMPI DUP3 DUP8 ADD MLOAD SWAP1 POP JUMPDEST PUSH3 0x37D DUP6 DUP3 PUSH3 0x2F0 JUMP JUMPDEST DUP7 SSTORE POP PUSH3 0x3ED JUMP JUMPDEST PUSH1 0x1F NOT DUP5 AND PUSH3 0x396 DUP7 PUSH3 0x132 JUMP JUMPDEST PUSH1 0x0 JUMPDEST DUP3 DUP2 LT ISZERO PUSH3 0x3C0 JUMPI DUP5 DUP10 ADD MLOAD DUP3 SSTORE PUSH1 0x1 DUP3 ADD SWAP2 POP PUSH1 0x20 DUP6 ADD SWAP5 POP PUSH1 0x20 DUP2 ADD SWAP1 POP PUSH3 0x399 JUMP JUMPDEST DUP7 DUP4 LT ISZERO PUSH3 0x3E0 JUMPI DUP5 DUP10 ADD MLOAD PUSH3 0x3DC PUSH1 0x1F DUP10 AND DUP3 PUSH3 0x2D0 JUMP JUMPDEST DUP4 SSTORE POP JUMPDEST PUSH1 0x1 PUSH1 0x2 DUP9 MUL ADD DUP9 SSTORE POP POP POP JUMPDEST POP POP POP POP POP POP JUMP JUMPDEST PUSH1 0x0 DUP1 REVERT JUMPDEST PUSH3 0x405 DUP2 PUSH3 0x1BA JUMP JUMPDEST DUP2 EQ PUSH3 0x411 JUMPI PUSH1 0x0 DUP1 REVERT JUMPDEST POP JUMP JUMPDEST PUSH1 0x0 DUP2 MLOAD SWAP1 POP PUSH3 0x425 DUP2 PUSH3 0x3FA JUMP JUMPDEST SWAP3 SWAP2 POP POP JUMP JUMPDEST PUSH1 0x0 DUP1 PUSH1 0x40 DUP4 DUP6 SUB SLT ISZERO PUSH3 0x445 JUMPI PUSH3 0x444 PUSH3 0x3F5 JUMP JUMPDEST JUMPDEST PUSH1 0x0 PUSH3 0x455 DUP6 DUP3 DUP7 ADD PUSH3 0x414 JUMP JUMPDEST SWAP3 POP POP PUSH1 0x20 PUSH3 0x468 DUP6 DUP3 DUP7 ADD PUSH3 0x414 JUMP JUMPDEST SWAP2 POP POP SWAP3 POP SWAP3 SWAP1 POP JUMP JUMPDEST PUSH2 0x4B6 DUP1 PUSH3 0x482 PUSH1 0x0 CODECOPY PUSH1 0x0 RETURN INVALID PUSH1 0x80 PUSH1 0x40 MSTORE CALLVALUE DUP1 ISZERO PUSH2 0x10 JUMPI PUSH1 0x0 DUP1 REVERT JUMPDEST POP PUSH1 0x4 CALLDATASIZE LT PUSH2 0x93 JUMPI PUSH1 0x0 CALLDATALOAD PUSH1 0xE0 SHR DUP1 PUSH4 0xB05F784A GT PUSH2 0x66 JUMPI DUP1 PUSH4 0xB05F784A EQ PUSH2 0x110 JUMPI DUP1 PUSH4 0xC8199826 EQ PUSH2 0x12E JUMPI DUP1 PUSH4 0xC9326AD9 EQ PUSH2 0x138 JUMPI DUP1 PUSH4 0xCC480206 EQ PUSH2 0x142 JUMPI DUP1 PUSH4 0xE21F37CE EQ PUSH2 0x160 JUMPI PUSH2 0x93 JUMP JUMPDEST DUP1 PUSH4 0x1209B1F6 EQ PUSH2 0x98 JUMPI DUP1 PUSH4 0x262A9DFF EQ PUSH2 0xB6 JUMPI DUP1 PUSH4 0x45745C10 EQ PUSH2 0xD4 JUMPI DUP1 PUSH4 0xA1F52568 EQ PUSH2 0xF2 JUMPI JUMPDEST PUSH1 0x0 DUP1 REVERT JUMPDEST PUSH2 0xA0 PUSH2 0x17E JUMP JUMPDEST PUSH1 0x40 MLOAD PUSH2 0xAD SWAP2 SWAP1 PUSH2 0x2AE JUMP JUMPDEST PUSH1 0x40 MLOAD DUP1 SWAP2 SUB SWAP1 RETURN JUMPDEST PUSH2 0xBE PUSH2 0x184 JUMP JUMPDEST PUSH1 0x40 MLOAD PUSH2 0xCB SWAP2 SWAP1 PUSH2 0x2AE JUMP JUMPDEST PUSH1 0x40 MLOAD DUP1 SWAP2 SUB SWAP1 RETURN JUMPDEST PUSH2 0xDC PUSH2 0x18A JUMP JUMPDEST PUSH1 0x40 MLOAD PUSH2 0xE9 SWAP2 SWAP1 PUSH2 0x2AE JUMP JUMPDEST PUSH1 0x40 MLOAD DUP1 SWAP2 SUB SWAP1 RETURN JUMPDEST PUSH2 0xFA PUSH2 0x190 JUMP JUMPDEST PUSH1 0x40 MLOAD PUSH2 0x107 SWAP2 SWAP1 PUSH2 0x2AE JUMP JUMPDEST PUSH1 0x40 MLOAD DUP1 SWAP2 SUB SWAP1 RETURN JUMPDEST PUSH2 0x118 PUSH2 0x196 JUMP JUMPDEST PUSH1 0x40 MLOAD PUSH2 0x125 SWAP2 SWAP1 PUSH2 0x2AE JUMP JUMPDEST PUSH1 0x40 MLOAD DUP1 SWAP2 SUB SWAP1 RETURN JUMPDEST PUSH2 0x136 PUSH2 0x1C3 JUMP JUMPDEST STOP JUMPDEST PUSH2 0x140 PUSH2 0x1DE JUMP JUMPDEST STOP JUMPDEST PUSH2 0x14A PUSH2 0x201 JUMP JUMPDEST PUSH1 0x40 MLOAD PUSH2 0x157 SWAP2 SWAP1 PUSH2 0x2AE JUMP JUMPDEST PUSH1 0x40 MLOAD DUP1 SWAP2 SUB SWAP1 RETURN JUMPDEST PUSH2 0x168 PUSH2 0x207 JUMP JUMPDEST PUSH1 0x40 MLOAD PUSH2 0x175 SWAP2 SWAP1 PUSH2 0x359 JUMP JUMPDEST PUSH1 0x40 MLOAD DUP1 SWAP2 SUB SWAP1 RETURN JUMPDEST PUSH1 0x0 SLOAD DUP2 JUMP JUMPDEST PUSH1 0x4 SLOAD DUP2 JUMP JUMPDEST PUSH1 0x1 SLOAD DUP2 JUMP JUMPDEST PUSH1 0x3 SLOAD DUP2 JUMP JUMPDEST PUSH1 0x0 PUSH1 0x3 SLOAD PUSH1 0x0 SLOAD PUSH2 0x1A8 SWAP2 SWAP1 PUSH2 0x3AA JUMP JUMPDEST PUSH1 0x1 SLOAD PUSH2 0x1B5 SWAP2 SWAP1 PUSH2 0x3DE JUMP JUMPDEST PUSH1 0x2 DUP2 SWAP1 SSTORE POP PUSH1 0x2 SLOAD SWAP1 POP SWAP1 JUMP JUMPDEST PUSH1 0x1 DUP1 PUSH1 0x0 DUP3 DUP3 SLOAD PUSH2 0x1D5 SWAP2 SWAP1 PUSH2 0x3AA JUMP JUMPDEST SWAP3 POP POP DUP2 SWAP1 SSTORE POP JUMP JUMPDEST PUSH1 0xF PUSH1 0x4 SLOAD GT ISZERO PUSH2 0x1F6 JUMPI PUSH1 0x32 PUSH1 0x3 DUP2 SWAP1 SSTORE POP PUSH2 0x1FF JUMP JUMPDEST PUSH1 0x14 PUSH1 0x3 DUP2 SWAP1 SSTORE POP JUMPDEST JUMP JUMPDEST PUSH1 0x2 SLOAD DUP2 JUMP JUMPDEST PUSH1 0x5 DUP1 SLOAD PUSH2 0x214 SWAP1 PUSH2 0x44F JUMP JUMPDEST DUP1 PUSH1 0x1F ADD PUSH1 0x20 DUP1 SWAP2 DIV MUL PUSH1 0x20 ADD PUSH1 0x40 MLOAD SWAP1 DUP2 ADD PUSH1 0x40 MSTORE DUP1 SWAP3 SWAP2 SWAP1 DUP2 DUP2 MSTORE PUSH1 0x20 ADD DUP3 DUP1 SLOAD PUSH2 0x240 SWAP1 PUSH2 0x44F JUMP JUMPDEST DUP1 ISZERO PUSH2 0x28D JUMPI DUP1 PUSH1 0x1F LT PUSH2 0x262 JUMPI PUSH2 0x100 DUP1 DUP4 SLOAD DIV MUL DUP4 MSTORE SWAP2 PUSH1 0x20 ADD SWAP2 PUSH2 0x28D JUMP JUMPDEST DUP3 ADD SWAP2 SWAP1 PUSH1 0x0 MSTORE PUSH1 0x20 PUSH1 0x0 KECCAK256 SWAP1 JUMPDEST DUP2 SLOAD DUP2 MSTORE SWAP1 PUSH1 0x1 ADD SWAP1 PUSH1 0x20 ADD DUP1 DUP4 GT PUSH2 0x270 JUMPI DUP3 SWAP1 SUB PUSH1 0x1F AND DUP3 ADD SWAP2 JUMPDEST POP POP POP POP POP DUP2 JUMP JUMPDEST PUSH1 0x0 DUP2 SWAP1 POP SWAP2 SWAP1 POP JUMP JUMPDEST PUSH2 0x2A8 DUP2 PUSH2 0x295 JUMP JUMPDEST DUP3 MSTORE POP POP JUMP JUMPDEST PUSH1 0x0 PUSH1 0x20 DUP3 ADD SWAP1 POP PUSH2 0x2C3 PUSH1 0x0 DUP4 ADD DUP5 PUSH2 0x29F JUMP JUMPDEST SWAP3 SWAP2 POP POP JUMP JUMPDEST PUSH1 0x0 DUP2 MLOAD SWAP1 POP SWAP2 SWAP1 POP JUMP JUMPDEST PUSH1 0x0 DUP3 DUP3 MSTORE PUSH1 0x20 DUP3 ADD SWAP1 POP SWAP3 SWAP2 POP POP JUMP JUMPDEST PUSH1 0x0 JUMPDEST DUP4 DUP2 LT ISZERO PUSH2 0x303 JUMPI DUP1 DUP3 ADD MLOAD DUP2 DUP5 ADD MSTORE PUSH1 0x20 DUP2 ADD SWAP1 POP PUSH2 0x2E8 JUMP JUMPDEST PUSH1 0x0 DUP5 DUP5 ADD MSTORE POP POP POP POP JUMP JUMPDEST PUSH1 0x0 PUSH1 0x1F NOT PUSH1 0x1F DUP4 ADD AND SWAP1 POP SWAP2 SWAP1 POP JUMP JUMPDEST PUSH1 0x0 PUSH2 0x32B DUP3 PUSH2 0x2C9 JUMP JUMPDEST PUSH2 0x335 DUP2 DUP6 PUSH2 0x2D4 JUMP JUMPDEST SWAP4 POP PUSH2 0x345 DUP2 DUP6 PUSH1 0x20 DUP7 ADD PUSH2 0x2E5 JUMP JUMPDEST PUSH2 0x34E DUP2 PUSH2 0x30F JUMP JUMPDEST DUP5 ADD SWAP2 POP POP SWAP3 SWAP2 POP POP JUMP JUMPDEST PUSH1 0x0 PUSH1 0x20 DUP3 ADD SWAP1 POP DUP2 DUP2 SUB PUSH1 0x0 DUP4 ADD MSTORE PUSH2 0x373 DUP2 DUP5 PUSH2 0x320 JUMP JUMPDEST SWAP1 POP SWAP3 SWAP2 POP POP JUMP JUMPDEST PUSH32 0x4E487B7100000000000000000000000000000000000000000000000000000000 PUSH1 0x0 MSTORE PUSH1 0x11 PUSH1 0x4 MSTORE PUSH1 0x24 PUSH1 0x0 REVERT JUMPDEST PUSH1 0x0 PUSH2 0x3B5 DUP3 PUSH2 0x295 JUMP JUMPDEST SWAP2 POP PUSH2 0x3C0 DUP4 PUSH2 0x295 JUMP JUMPDEST SWAP3 POP DUP3 DUP3 ADD SWAP1 POP DUP1 DUP3 GT ISZERO PUSH2 0x3D8 JUMPI PUSH2 0x3D7 PUSH2 0x37B JUMP JUMPDEST JUMPDEST SWAP3 SWAP2 POP POP JUMP JUMPDEST PUSH1 0x0 PUSH2 0x3E9 DUP3 PUSH2 0x295 JUMP JUMPDEST SWAP2 POP PUSH2 0x3F4 DUP4 PUSH2 0x295 JUMP JUMPDEST SWAP3 POP DUP3 DUP3 MUL PUSH2 0x402 DUP2 PUSH2 0x295 JUMP JUMPDEST SWAP2 POP DUP3 DUP3 DIV DUP5 EQ DUP4 ISZERO OR PUSH2 0x419 JUMPI PUSH2 0x418 PUSH2 0x37B JUMP JUMPDEST JUMPDEST POP SWAP3 SWAP2 POP POP JUMP JUMPDEST PUSH32 0x4E487B7100000000000000000000000000000000000000000000000000000000 PUSH1 0x0 MSTORE PUSH1 0x22 PUSH1 0x4 MSTORE PUSH1 0x24 PUSH1 0x0 REVERT JUMPDEST PUSH1 0x0 PUSH1 0x2 DUP3 DIV SWAP1 POP PUSH1 0x1 DUP3 AND DUP1 PUSH2 0x467 JUMPI PUSH1 0x7F DUP3 AND SWAP2 POP JUMPDEST PUSH1 0x20 DUP3 LT DUP2 SUB PUSH2 0x47A JUMPI PUSH2 0x479 PUSH2 0x420 JUMP JUMPDEST JUMPDEST POP SWAP2 SWAP1 POP JUMP INVALID LOG2 PUSH5 0x6970667358 0x22 SLT KECCAK256 0xE8 0xD3 SWAP4 DUP10 DIFFICULTY SWAP4 DUP6 0xF7 SAR DUP1 0xDE 0x2A 0x29 0xF7 0x4B SWAP11 SWAP6 0xA7 0xEB 0xDE LOG4 BASEFEE BASEFEE SWAP8 0xF6 PUSH7 0xAC2F096AB99364 PUSH20 0x6F6C634300081100330000000000000000000000 "
		},
		"gasEstimates": {
			"creation": {
				"codeDepositCost": "241200",
				"executionCost": "infinite",
				"totalCost": "infinite"
			},
			"external": {
				"GST()": "2496",
				"Tickets()": "infinite",
				"addGST()": "24439",
				"age()": "2452",
				"buyTickets()": "infinite",
				"message()": "infinite",
				"numberOfTickets()": "2474",
				"ticketPrice()": "2430",
				"totalAmountForTickets()": "2495"
			}
		},
		"methodIdentifiers": {
			"GST()": "a1f52568",
			"Tickets()": "b05f784a",
			"addGST()": "c9326ad9",
			"age()": "262a9dff",
			"buyTickets()": "c8199826",
			"message()": "e21f37ce",
			"numberOfTickets()": "45745c10",
			"ticketPrice()": "1209b1f6",
			"totalAmountForTickets()": "cc480206"
		}
	},
	"abi": [
		{
			"inputs": [
				{
					"internalType": "uint256",
					"name": "_ticketPrice",
					"type": "uint256"
				},
				{
					"internalType": "uint256",
					"name": "_age",
					"type": "uint256"
				}
			],
			"stateMutability": "nonpayable",
			"type": "constructor"
		},
		{
			"inputs": [],
			"name": "GST",
			"outputs": [
				{
					"internalType": "uint256",
					"name": "",
					"type": "uint256"
				}
			],
			"stateMutability": "view",
			"type": "function"
		},
		{
			"inputs": [],
			"name": "Tickets",
			"outputs": [
				{
					"internalType": "uint256",
					"name": "",
					"type": "uint256"
				}
			],
			"stateMutability": "nonpayable",
			"type": "function"
		},
		{
			"inputs": [],
			"name": "addGST",
			"outputs": [],
			"stateMutability": "nonpayable",
			"type": "function"
		},
		{
			"inputs": [],
			"name": "age",
			"outputs": [
				{
					"internalType": "uint256",
					"name": "",
					"type": "uint256"
				}
			],
			"stateMutability": "view",
			"type": "function"
		},
		{
			"inputs": [],
			"name": "buyTickets",
			"outputs": [],
			"stateMutability": "nonpayable",
			"type": "function"
		},
		{
			"inputs": [],
			"name": "message",
			"outputs": [
				{
					"internalType": "string",
					"name": "",
					"type": "string"
				}
			],
			"stateMutability": "view",
			"type": "function"
		},
		{
			"inputs": [],
			"name": "numberOfTickets",
			"outputs": [
				{
					"internalType": "uint256",
					"name": "",
					"type": "uint256"
				}
			],
			"stateMutability": "view",
			"type": "function"
		},
		{
			"inputs": [],
			"name": "ticketPrice",
			"outputs": [
				{
					"internalType": "uint256",
					"name": "",
					"type": "uint256"
				}
			],
			"stateMutability": "view",
			"type": "function"
		},
		{
			"inputs": [],
			"name": "totalAmountForTickets",
			"outputs": [
				{
					"internalType": "uint256",
					"name": "",
					"type": "uint256"
				}
			],
			"stateMutability": "view",
			"type": "function"
		}
	]
}